{
	"landiheritance.sol": {
		"ResidentialProperty": {
			"abi": [
				{
					"inputs": [
						{
							"internalType": "string",
							"name": "_location",
							"type": "string"
						},
						{
							"internalType": "uint256",
							"name": "_price",
							"type": "uint256"
						},
						{
							"internalType": "uint256",
							"name": "_numBedrooms",
							"type": "uint256"
						},
						{
							"internalType": "uint256",
							"name": "_numBathrooms",
							"type": "uint256"
						}
					],
					"stateMutability": "nonpayable",
					"type": "constructor"
				},
				{
					"inputs": [
						{
							"internalType": "uint256",
							"name": "_newPrice",
							"type": "uint256"
						}
					],
					"name": "changePrice",
					"outputs": [],
					"stateMutability": "nonpayable",
					"type": "function"
				},
				{
					"inputs": [],
					"name": "location",
					"outputs": [
						{
							"internalType": "string",
							"name": "",
							"type": "string"
						}
					],
					"stateMutability": "view",
					"type": "function"
				},
				{
					"inputs": [],
					"name": "numBathrooms",
					"outputs": [
						{
							"internalType": "uint256",
							"name": "",
							"type": "uint256"
						}
					],
					"stateMutability": "view",
					"type": "function"
				},
				{
					"inputs": [],
					"name": "numBedrooms",
					"outputs": [
						{
							"internalType": "uint256",
							"name": "",
							"type": "uint256"
						}
					],
					"stateMutability": "view",
					"type": "function"
				},
				{
					"inputs": [],
					"name": "owner",
					"outputs": [
						{
							"internalType": "address",
							"name": "",
							"type": "address"
						}
					],
					"stateMutability": "view",
					"type": "function"
				},
				{
					"inputs": [],
					"name": "price",
					"outputs": [
						{
							"internalType": "uint256",
							"name": "",
							"type": "uint256"
						}
					],
					"stateMutability": "view",
					"type": "function"
				}
			],
			"devdoc": {
				"kind": "dev",
				"methods": {},
				"version": 1
			},
			"evm": {
				"assembly": "    /* \"landiheritance.sol\":553:923  contract ResidentialProperty is GullburgColony {... */\n  mstore(0x40, 0x80)\n    /* \"landiheritance.sol\":670:920  constructor(... */\n  callvalue\n  dup1\n  iszero\n  tag_1\n  jumpi\n  0x00\n  dup1\n  revert\ntag_1:\n  pop\n  mload(0x40)\n  sub(codesize, bytecodeSize)\n  dup1\n  bytecodeSize\n  dup4\n  codecopy\n  dup2\n  dup2\n  add\n  0x40\n  mstore\n  dup2\n  add\n  swap1\n  tag_2\n  swap2\n  swap1\n  tag_3\n  jump\t// in\ntag_2:\n    /* \"landiheritance.sol\":817:826  _location */\n  dup4\n    /* \"landiheritance.sol\":828:834  _price */\n  dup4\n    /* \"landiheritance.sol\":242:252  msg.sender */\n  caller\n    /* \"landiheritance.sol\":234:239  owner */\n  0x00\n  dup1\n    /* \"landiheritance.sol\":234:252  owner = msg.sender */\n  0x0100\n  exp\n  dup2\n  sload\n  dup2\n  0xffffffffffffffffffffffffffffffffffffffff\n  mul\n  not\n  and\n  swap1\n  dup4\n  0xffffffffffffffffffffffffffffffffffffffff\n  and\n  mul\n  or\n  swap1\n  sstore\n  pop\n    /* \"landiheritance.sol\":274:283  _location */\n  dup2\n    /* \"landiheritance.sol\":263:271  location */\n  0x01\n    /* \"landiheritance.sol\":263:283  location = _location */\n  swap1\n  dup2\n  tag_7\n  swap2\n  swap1\n  tag_8\n  jump\t// in\ntag_7:\n  pop\n    /* \"landiheritance.sol\":302:308  _price */\n  dup1\n    /* \"landiheritance.sol\":294:299  price */\n  0x02\n    /* \"landiheritance.sol\":294:308  price = _price */\n  dup2\n  swap1\n  sstore\n  pop\n    /* \"landiheritance.sol\":173:316  constructor(string memory _location, uint _price) {... */\n  pop\n  pop\n    /* \"landiheritance.sol\":861:873  _numBedrooms */\n  dup2\n    /* \"landiheritance.sol\":847:858  numBedrooms */\n  0x03\n    /* \"landiheritance.sol\":847:873  numBedrooms = _numBedrooms */\n  dup2\n  swap1\n  sstore\n  pop\n    /* \"landiheritance.sol\":899:912  _numBathrooms */\n  dup1\n    /* \"landiheritance.sol\":884:896  numBathrooms */\n  0x04\n    /* \"landiheritance.sol\":884:912  numBathrooms = _numBathrooms */\n  dup2\n  swap1\n  sstore\n  pop\n    /* \"landiheritance.sol\":670:920  constructor(... */\n  pop\n  pop\n  pop\n  pop\n    /* \"landiheritance.sol\":553:923  contract ResidentialProperty is GullburgColony {... */\n  jump(tag_10)\n    /* \"#utility.yul\":7:82   */\ntag_11:\n    /* \"#utility.yul\":40:46   */\n  0x00\n    /* \"#utility.yul\":73:75   */\n  0x40\n    /* \"#utility.yul\":67:76   */\n  mload\n    /* \"#utility.yul\":57:76   */\n  swap1\n  pop\n    /* \"#utility.yul\":7:82   */\n  swap1\n  jump\t// out\n    /* \"#utility.yul\":88:205   */\ntag_12:\n    /* \"#utility.yul\":197:198   */\n  0x00\n    /* \"#utility.yul\":194:195   */\n  dup1\n    /* \"#utility.yul\":187:199   */\n  revert\n    /* \"#utility.yul\":211:328   */\ntag_13:\n    /* \"#utility.yul\":320:321   */\n  0x00\n    /* \"#utility.yul\":317:318   */\n  dup1\n    /* \"#utility.yul\":310:322   */\n  revert\n    /* \"#utility.yul\":334:451   */\ntag_14:\n    /* \"#utility.yul\":443:444   */\n  0x00\n    /* \"#utility.yul\":440:441   */\n  dup1\n    /* \"#utility.yul\":433:445   */\n  revert\n    /* \"#utility.yul\":457:574   */\ntag_15:\n    /* \"#utility.yul\":566:567   */\n  0x00\n    /* \"#utility.yul\":563:564   */\n  dup1\n    /* \"#utility.yul\":556:568   */\n  revert\n    /* \"#utility.yul\":580:682   */\ntag_16:\n    /* \"#utility.yul\":621:627   */\n  0x00\n    /* \"#utility.yul\":672:674   */\n  0x1f\n    /* \"#utility.yul\":668:675   */\n  not\n    /* \"#utility.yul\":663:665   */\n  0x1f\n    /* \"#utility.yul\":656:661   */\n  dup4\n    /* \"#utility.yul\":652:666   */\n  add\n    /* \"#utility.yul\":648:676   */\n  and\n    /* \"#utility.yul\":638:676   */\n  swap1\n  pop\n    /* \"#utility.yul\":580:682   */\n  swap2\n  swap1\n  pop\n  jump\t// out\n    /* \"#utility.yul\":688:868   */\ntag_17:\n    /* \"#utility.yul\":736:813   */\n  0x4e487b7100000000000000000000000000000000000000000000000000000000\n    /* \"#utility.yul\":733:734   */\n  0x00\n    /* \"#utility.yul\":726:814   */\n  mstore\n    /* \"#utility.yul\":833:837   */\n  0x41\n    /* \"#utility.yul\":830:831   */\n  0x04\n    /* \"#utility.yul\":823:838   */\n  mstore\n    /* \"#utility.yul\":857:861   */\n  0x24\n    /* \"#utility.yul\":854:855   */\n  0x00\n    /* \"#utility.yul\":847:862   */\n  revert\n    /* \"#utility.yul\":874:1155   */\ntag_18:\n    /* \"#utility.yul\":957:984   */\n  tag_54\n    /* \"#utility.yul\":979:983   */\n  dup3\n    /* \"#utility.yul\":957:984   */\n  tag_16\n  jump\t// in\ntag_54:\n    /* \"#utility.yul\":949:955   */\n  dup2\n    /* \"#utility.yul\":945:985   */\n  add\n    /* \"#utility.yul\":1087:1093   */\n  dup2\n    /* \"#utility.yul\":1075:1085   */\n  dup2\n    /* \"#utility.yul\":1072:1094   */\n  lt\n    /* \"#utility.yul\":1051:1069   */\n  0xffffffffffffffff\n    /* \"#utility.yul\":1039:1049   */\n  dup3\n    /* \"#utility.yul\":1036:1070   */\n  gt\n    /* \"#utility.yul\":1033:1095   */\n  or\n    /* \"#utility.yul\":1030:1118   */\n  iszero\n  tag_55\n  jumpi\n    /* \"#utility.yul\":1098:1116   */\n  tag_56\n  tag_17\n  jump\t// in\ntag_56:\n    /* \"#utility.yul\":1030:1118   */\ntag_55:\n    /* \"#utility.yul\":1138:1148   */\n  dup1\n    /* \"#utility.yul\":1134:1136   */\n  0x40\n    /* \"#utility.yul\":1127:1149   */\n  mstore\n    /* \"#utility.yul\":917:1155   */\n  pop\n    /* \"#utility.yul\":874:1155   */\n  pop\n  pop\n  jump\t// out\n    /* \"#utility.yul\":1161:1290   */\ntag_19:\n    /* \"#utility.yul\":1195:1201   */\n  0x00\n    /* \"#utility.yul\":1222:1242   */\n  tag_58\n  tag_11\n  jump\t// in\ntag_58:\n    /* \"#utility.yul\":1212:1242   */\n  swap1\n  pop\n    /* \"#utility.yul\":1251:1284   */\n  tag_59\n    /* \"#utility.yul\":1279:1283   */\n  dup3\n    /* \"#utility.yul\":1271:1277   */\n  dup3\n    /* \"#utility.yul\":1251:1284   */\n  tag_18\n  jump\t// in\ntag_59:\n    /* \"#utility.yul\":1161:1290   */\n  swap2\n  swap1\n  pop\n  jump\t// out\n    /* \"#utility.yul\":1296:1604   */\ntag_20:\n    /* \"#utility.yul\":1358:1362   */\n  0x00\n    /* \"#utility.yul\":1448:1466   */\n  0xffffffffffffffff\n    /* \"#utility.yul\":1440:1446   */\n  dup3\n    /* \"#utility.yul\":1437:1467   */\n  gt\n    /* \"#utility.yul\":1434:1490   */\n  iszero\n  tag_61\n  jumpi\n    /* \"#utility.yul\":1470:1488   */\n  tag_62\n  tag_17\n  jump\t// in\ntag_62:\n    /* \"#utility.yul\":1434:1490   */\ntag_61:\n    /* \"#utility.yul\":1508:1537   */\n  tag_63\n    /* \"#utility.yul\":1530:1536   */\n  dup3\n    /* \"#utility.yul\":1508:1537   */\n  tag_16\n  jump\t// in\ntag_63:\n    /* \"#utility.yul\":1500:1537   */\n  swap1\n  pop\n    /* \"#utility.yul\":1592:1596   */\n  0x20\n    /* \"#utility.yul\":1586:1590   */\n  dup2\n    /* \"#utility.yul\":1582:1597   */\n  add\n    /* \"#utility.yul\":1574:1597   */\n  swap1\n  pop\n    /* \"#utility.yul\":1296:1604   */\n  swap2\n  swap1\n  pop\n  jump\t// out\n    /* \"#utility.yul\":1610:1856   */\ntag_21:\n    /* \"#utility.yul\":1691:1692   */\n  0x00\n    /* \"#utility.yul\":1701:1814   */\ntag_65:\n    /* \"#utility.yul\":1715:1721   */\n  dup4\n    /* \"#utility.yul\":1712:1713   */\n  dup2\n    /* \"#utility.yul\":1709:1722   */\n  lt\n    /* \"#utility.yul\":1701:1814   */\n  iszero\n  tag_67\n  jumpi\n    /* \"#utility.yul\":1800:1801   */\n  dup1\n    /* \"#utility.yul\":1795:1798   */\n  dup3\n    /* \"#utility.yul\":1791:1802   */\n  add\n    /* \"#utility.yul\":1785:1803   */\n  mload\n    /* \"#utility.yul\":1781:1782   */\n  dup2\n    /* \"#utility.yul\":1776:1779   */\n  dup5\n    /* \"#utility.yul\":1772:1783   */\n  add\n    /* \"#utility.yul\":1765:1804   */\n  mstore\n    /* \"#utility.yul\":1737:1739   */\n  0x20\n    /* \"#utility.yul\":1734:1735   */\n  dup2\n    /* \"#utility.yul\":1730:1740   */\n  add\n    /* \"#utility.yul\":1725:1740   */\n  swap1\n  pop\n    /* \"#utility.yul\":1701:1814   */\n  jump(tag_65)\ntag_67:\n    /* \"#utility.yul\":1848:1849   */\n  0x00\n    /* \"#utility.yul\":1839:1845   */\n  dup5\n    /* \"#utility.yul\":1834:1837   */\n  dup5\n    /* \"#utility.yul\":1830:1846   */\n  add\n    /* \"#utility.yul\":1823:1850   */\n  mstore\n    /* \"#utility.yul\":1672:1856   */\n  pop\n    /* \"#utility.yul\":1610:1856   */\n  pop\n  pop\n  pop\n  jump\t// out\n    /* \"#utility.yul\":1862:2296   */\ntag_22:\n    /* \"#utility.yul\":1951:1956   */\n  0x00\n    /* \"#utility.yul\":1976:2042   */\n  tag_69\n    /* \"#utility.yul\":1992:2041   */\n  tag_70\n    /* \"#utility.yul\":2034:2040   */\n  dup5\n    /* \"#utility.yul\":1992:2041   */\n  tag_20\n  jump\t// in\ntag_70:\n    /* \"#utility.yul\":1976:2042   */\n  tag_19\n  jump\t// in\ntag_69:\n    /* \"#utility.yul\":1967:2042   */\n  swap1\n  pop\n    /* \"#utility.yul\":2065:2071   */\n  dup3\n    /* \"#utility.yul\":2058:2063   */\n  dup2\n    /* \"#utility.yul\":2051:2072   */\n  mstore\n    /* \"#utility.yul\":2103:2107   */\n  0x20\n    /* \"#utility.yul\":2096:2101   */\n  dup2\n    /* \"#utility.yul\":2092:2108   */\n  add\n    /* \"#utility.yul\":2141:2144   */\n  dup5\n    /* \"#utility.yul\":2132:2138   */\n  dup5\n    /* \"#utility.yul\":2127:2130   */\n  dup5\n    /* \"#utility.yul\":2123:2139   */\n  add\n    /* \"#utility.yul\":2120:2145   */\n  gt\n    /* \"#utility.yul\":2117:2229   */\n  iszero\n  tag_71\n  jumpi\n    /* \"#utility.yul\":2148:2227   */\n  tag_72\n  tag_15\n  jump\t// in\ntag_72:\n    /* \"#utility.yul\":2117:2229   */\ntag_71:\n    /* \"#utility.yul\":2238:2290   */\n  tag_73\n    /* \"#utility.yul\":2283:2289   */\n  dup5\n    /* \"#utility.yul\":2278:2281   */\n  dup3\n    /* \"#utility.yul\":2273:2276   */\n  dup6\n    /* \"#utility.yul\":2238:2290   */\n  tag_21\n  jump\t// in\ntag_73:\n    /* \"#utility.yul\":1957:2296   */\n  pop\n    /* \"#utility.yul\":1862:2296   */\n  swap4\n  swap3\n  pop\n  pop\n  pop\n  jump\t// out\n    /* \"#utility.yul\":2316:2671   */\ntag_23:\n    /* \"#utility.yul\":2383:2388   */\n  0x00\n    /* \"#utility.yul\":2432:2435   */\n  dup3\n    /* \"#utility.yul\":2425:2429   */\n  0x1f\n    /* \"#utility.yul\":2417:2423   */\n  dup4\n    /* \"#utility.yul\":2413:2430   */\n  add\n    /* \"#utility.yul\":2409:2436   */\n  slt\n    /* \"#utility.yul\":2399:2521   */\n  tag_75\n  jumpi\n    /* \"#utility.yul\":2440:2519   */\n  tag_76\n  tag_14\n  jump\t// in\ntag_76:\n    /* \"#utility.yul\":2399:2521   */\ntag_75:\n    /* \"#utility.yul\":2550:2556   */\n  dup2\n    /* \"#utility.yul\":2544:2557   */\n  mload\n    /* \"#utility.yul\":2575:2665   */\n  tag_77\n    /* \"#utility.yul\":2661:2664   */\n  dup5\n    /* \"#utility.yul\":2653:2659   */\n  dup3\n    /* \"#utility.yul\":2646:2650   */\n  0x20\n    /* \"#utility.yul\":2638:2644   */\n  dup7\n    /* \"#utility.yul\":2634:2651   */\n  add\n    /* \"#utility.yul\":2575:2665   */\n  tag_22\n  jump\t// in\ntag_77:\n    /* \"#utility.yul\":2566:2665   */\n  swap2\n  pop\n    /* \"#utility.yul\":2389:2671   */\n  pop\n    /* \"#utility.yul\":2316:2671   */\n  swap3\n  swap2\n  pop\n  pop\n  jump\t// out\n    /* \"#utility.yul\":2677:2754   */\ntag_24:\n    /* \"#utility.yul\":2714:2721   */\n  0x00\n    /* \"#utility.yul\":2743:2748   */\n  dup2\n    /* \"#utility.yul\":2732:2748   */\n  swap1\n  pop\n    /* \"#utility.yul\":2677:2754   */\n  swap2\n  swap1\n  pop\n  jump\t// out\n    /* \"#utility.yul\":2760:2882   */\ntag_25:\n    /* \"#utility.yul\":2833:2857   */\n  tag_80\n    /* \"#utility.yul\":2851:2856   */\n  dup2\n    /* \"#utility.yul\":2833:2857   */\n  tag_24\n  jump\t// in\ntag_80:\n    /* \"#utility.yul\":2826:2831   */\n  dup2\n    /* \"#utility.yul\":2823:2858   */\n  eq\n    /* \"#utility.yul\":2813:2876   */\n  tag_81\n  jumpi\n    /* \"#utility.yul\":2872:2873   */\n  0x00\n    /* \"#utility.yul\":2869:2870   */\n  dup1\n    /* \"#utility.yul\":2862:2874   */\n  revert\n    /* \"#utility.yul\":2813:2876   */\ntag_81:\n    /* \"#utility.yul\":2760:2882   */\n  pop\n  jump\t// out\n    /* \"#utility.yul\":2888:3031   */\ntag_26:\n    /* \"#utility.yul\":2945:2950   */\n  0x00\n    /* \"#utility.yul\":2976:2982   */\n  dup2\n    /* \"#utility.yul\":2970:2983   */\n  mload\n    /* \"#utility.yul\":2961:2983   */\n  swap1\n  pop\n    /* \"#utility.yul\":2992:3025   */\n  tag_83\n    /* \"#utility.yul\":3019:3024   */\n  dup2\n    /* \"#utility.yul\":2992:3025   */\n  tag_25\n  jump\t// in\ntag_83:\n    /* \"#utility.yul\":2888:3031   */\n  swap3\n  swap2\n  pop\n  pop\n  jump\t// out\n    /* \"#utility.yul\":3037:4030   */\ntag_3:\n    /* \"#utility.yul\":3144:3150   */\n  0x00\n    /* \"#utility.yul\":3152:3158   */\n  dup1\n    /* \"#utility.yul\":3160:3166   */\n  0x00\n    /* \"#utility.yul\":3168:3174   */\n  dup1\n    /* \"#utility.yul\":3217:3220   */\n  0x80\n    /* \"#utility.yul\":3205:3214   */\n  dup6\n    /* \"#utility.yul\":3196:3203   */\n  dup8\n    /* \"#utility.yul\":3192:3215   */\n  sub\n    /* \"#utility.yul\":3188:3221   */\n  slt\n    /* \"#utility.yul\":3185:3305   */\n  iszero\n  tag_85\n  jumpi\n    /* \"#utility.yul\":3224:3303   */\n  tag_86\n  tag_12\n  jump\t// in\ntag_86:\n    /* \"#utility.yul\":3185:3305   */\ntag_85:\n    /* \"#utility.yul\":3365:3366   */\n  0x00\n    /* \"#utility.yul\":3354:3363   */\n  dup6\n    /* \"#utility.yul\":3350:3367   */\n  add\n    /* \"#utility.yul\":3344:3368   */\n  mload\n    /* \"#utility.yul\":3395:3413   */\n  0xffffffffffffffff\n    /* \"#utility.yul\":3387:3393   */\n  dup2\n    /* \"#utility.yul\":3384:3414   */\n  gt\n    /* \"#utility.yul\":3381:3498   */\n  iszero\n  tag_87\n  jumpi\n    /* \"#utility.yul\":3417:3496   */\n  tag_88\n  tag_13\n  jump\t// in\ntag_88:\n    /* \"#utility.yul\":3381:3498   */\ntag_87:\n    /* \"#utility.yul\":3522:3596   */\n  tag_89\n    /* \"#utility.yul\":3588:3595   */\n  dup8\n    /* \"#utility.yul\":3579:3585   */\n  dup3\n    /* \"#utility.yul\":3568:3577   */\n  dup9\n    /* \"#utility.yul\":3564:3586   */\n  add\n    /* \"#utility.yul\":3522:3596   */\n  tag_23\n  jump\t// in\ntag_89:\n    /* \"#utility.yul\":3512:3596   */\n  swap5\n  pop\n    /* \"#utility.yul\":3315:3606   */\n  pop\n    /* \"#utility.yul\":3645:3647   */\n  0x20\n    /* \"#utility.yul\":3671:3735   */\n  tag_90\n    /* \"#utility.yul\":3727:3734   */\n  dup8\n    /* \"#utility.yul\":3718:3724   */\n  dup3\n    /* \"#utility.yul\":3707:3716   */\n  dup9\n    /* \"#utility.yul\":3703:3725   */\n  add\n    /* \"#utility.yul\":3671:3735   */\n  tag_26\n  jump\t// in\ntag_90:\n    /* \"#utility.yul\":3661:3735   */\n  swap4\n  pop\n    /* \"#utility.yul\":3616:3745   */\n  pop\n    /* \"#utility.yul\":3784:3786   */\n  0x40\n    /* \"#utility.yul\":3810:3874   */\n  tag_91\n    /* \"#utility.yul\":3866:3873   */\n  dup8\n    /* \"#utility.yul\":3857:3863   */\n  dup3\n    /* \"#utility.yul\":3846:3855   */\n  dup9\n    /* \"#utility.yul\":3842:3864   */\n  add\n    /* \"#utility.yul\":3810:3874   */\n  tag_26\n  jump\t// in\ntag_91:\n    /* \"#utility.yul\":3800:3874   */\n  swap3\n  pop\n    /* \"#utility.yul\":3755:3884   */\n  pop\n    /* \"#utility.yul\":3923:3925   */\n  0x60\n    /* \"#utility.yul\":3949:4013   */\n  tag_92\n    /* \"#utility.yul\":4005:4012   */\n  dup8\n    /* \"#utility.yul\":3996:4002   */\n  dup3\n    /* \"#utility.yul\":3985:3994   */\n  dup9\n    /* \"#utility.yul\":3981:4003   */\n  add\n    /* \"#utility.yul\":3949:4013   */\n  tag_26\n  jump\t// in\ntag_92:\n    /* \"#utility.yul\":3939:4013   */\n  swap2\n  pop\n    /* \"#utility.yul\":3894:4023   */\n  pop\n    /* \"#utility.yul\":3037:4030   */\n  swap3\n  swap6\n  swap2\n  swap5\n  pop\n  swap3\n  pop\n  jump\t// out\n    /* \"#utility.yul\":4036:4135   */\ntag_27:\n    /* \"#utility.yul\":4088:4094   */\n  0x00\n    /* \"#utility.yul\":4122:4127   */\n  dup2\n    /* \"#utility.yul\":4116:4128   */\n  mload\n    /* \"#utility.yul\":4106:4128   */\n  swap1\n  pop\n    /* \"#utility.yul\":4036:4135   */\n  swap2\n  swap1\n  pop\n  jump\t// out\n    /* \"#utility.yul\":4141:4321   */\ntag_28:\n    /* \"#utility.yul\":4189:4266   */\n  0x4e487b7100000000000000000000000000000000000000000000000000000000\n    /* \"#utility.yul\":4186:4187   */\n  0x00\n    /* \"#utility.yul\":4179:4267   */\n  mstore\n    /* \"#utility.yul\":4286:4290   */\n  0x22\n    /* \"#utility.yul\":4283:4284   */\n  0x04\n    /* \"#utility.yul\":4276:4291   */\n  mstore\n    /* \"#utility.yul\":4310:4314   */\n  0x24\n    /* \"#utility.yul\":4307:4308   */\n  0x00\n    /* \"#utility.yul\":4300:4315   */\n  revert\n    /* \"#utility.yul\":4327:4647   */\ntag_29:\n    /* \"#utility.yul\":4371:4377   */\n  0x00\n    /* \"#utility.yul\":4408:4409   */\n  0x02\n    /* \"#utility.yul\":4402:4406   */\n  dup3\n    /* \"#utility.yul\":4398:4410   */\n  div\n    /* \"#utility.yul\":4388:4410   */\n  swap1\n  pop\n    /* \"#utility.yul\":4455:4456   */\n  0x01\n    /* \"#utility.yul\":4449:4453   */\n  dup3\n    /* \"#utility.yul\":4445:4457   */\n  and\n    /* \"#utility.yul\":4476:4494   */\n  dup1\n    /* \"#utility.yul\":4466:4547   */\n  tag_96\n  jumpi\n    /* \"#utility.yul\":4532:4536   */\n  0x7f\n    /* \"#utility.yul\":4524:4530   */\n  dup3\n    /* \"#utility.yul\":4520:4537   */\n  and\n    /* \"#utility.yul\":4510:4537   */\n  swap2\n  pop\n    /* \"#utility.yul\":4466:4547   */\ntag_96:\n    /* \"#utility.yul\":4594:4596   */\n  0x20\n    /* \"#utility.yul\":4586:4592   */\n  dup3\n    /* \"#utility.yul\":4583:4597   */\n  lt\n    /* \"#utility.yul\":4563:4581   */\n  dup2\n    /* \"#utility.yul\":4560:4598   */\n  sub\n    /* \"#utility.yul\":4557:4641   */\n  tag_97\n  jumpi\n    /* \"#utility.yul\":4613:4631   */\n  tag_98\n  tag_28\n  jump\t// in\ntag_98:\n    /* \"#utility.yul\":4557:4641   */\ntag_97:\n    /* \"#utility.yul\":4378:4647   */\n  pop\n    /* \"#utility.yul\":4327:4647   */\n  swap2\n  swap1\n  pop\n  jump\t// out\n    /* \"#utility.yul\":4653:4794   */\ntag_30:\n    /* \"#utility.yul\":4702:4706   */\n  0x00\n    /* \"#utility.yul\":4725:4728   */\n  dup2\n    /* \"#utility.yul\":4717:4728   */\n  swap1\n  pop\n    /* \"#utility.yul\":4748:4751   */\n  dup2\n    /* \"#utility.yul\":4745:4746   */\n  0x00\n    /* \"#utility.yul\":4738:4752   */\n  mstore\n    /* \"#utility.yul\":4782:4786   */\n  0x20\n    /* \"#utility.yul\":4779:4780   */\n  0x00\n    /* \"#utility.yul\":4769:4787   */\n  keccak256\n    /* \"#utility.yul\":4761:4787   */\n  swap1\n  pop\n    /* \"#utility.yul\":4653:4794   */\n  swap2\n  swap1\n  pop\n  jump\t// out\n    /* \"#utility.yul\":4800:4893   */\ntag_31:\n    /* \"#utility.yul\":4837:4843   */\n  0x00\n    /* \"#utility.yul\":4884:4886   */\n  0x20\n    /* \"#utility.yul\":4879:4881   */\n  0x1f\n    /* \"#utility.yul\":4872:4877   */\n  dup4\n    /* \"#utility.yul\":4868:4882   */\n  add\n    /* \"#utility.yul\":4864:4887   */\n  div\n    /* \"#utility.yul\":4854:4887   */\n  swap1\n  pop\n    /* \"#utility.yul\":4800:4893   */\n  swap2\n  swap1\n  pop\n  jump\t// out\n    /* \"#utility.yul\":4899:5006   */\ntag_32:\n    /* \"#utility.yul\":4943:4951   */\n  0x00\n    /* \"#utility.yul\":4993:4998   */\n  dup3\n    /* \"#utility.yul\":4987:4991   */\n  dup3\n    /* \"#utility.yul\":4983:4999   */\n  shl\n    /* \"#utility.yul\":4962:4999   */\n  swap1\n  pop\n    /* \"#utility.yul\":4899:5006   */\n  swap3\n  swap2\n  pop\n  pop\n  jump\t// out\n    /* \"#utility.yul\":5012:5405   */\ntag_33:\n    /* \"#utility.yul\":5081:5087   */\n  0x00\n    /* \"#utility.yul\":5131:5132   */\n  0x08\n    /* \"#utility.yul\":5119:5129   */\n  dup4\n    /* \"#utility.yul\":5115:5133   */\n  mul\n    /* \"#utility.yul\":5154:5251   */\n  tag_103\n    /* \"#utility.yul\":5184:5250   */\n  0xffffffffffffffffffffffffffffffffffffffffffffffffffffffffffffffff\n    /* \"#utility.yul\":5173:5182   */\n  dup3\n    /* \"#utility.yul\":5154:5251   */\n  tag_32\n  jump\t// in\ntag_103:\n    /* \"#utility.yul\":5272:5311   */\n  tag_104\n    /* \"#utility.yul\":5302:5310   */\n  dup7\n    /* \"#utility.yul\":5291:5300   */\n  dup4\n    /* \"#utility.yul\":5272:5311   */\n  tag_32\n  jump\t// in\ntag_104:\n    /* \"#utility.yul\":5260:5311   */\n  swap6\n  pop\n    /* \"#utility.yul\":5344:5348   */\n  dup1\n    /* \"#utility.yul\":5340:5349   */\n  not\n    /* \"#utility.yul\":5333:5338   */\n  dup5\n    /* \"#utility.yul\":5329:5350   */\n  and\n    /* \"#utility.yul\":5320:5350   */\n  swap4\n  pop\n    /* \"#utility.yul\":5393:5397   */\n  dup1\n    /* \"#utility.yul\":5383:5391   */\n  dup7\n    /* \"#utility.yul\":5379:5398   */\n  and\n    /* \"#utility.yul\":5372:5377   */\n  dup5\n    /* \"#utility.yul\":5369:5399   */\n  or\n    /* \"#utility.yul\":5359:5399   */\n  swap3\n  pop\n    /* \"#utility.yul\":5088:5405   */\n  pop\n  pop\n    /* \"#utility.yul\":5012:5405   */\n  swap4\n  swap3\n  pop\n  pop\n  pop\n  jump\t// out\n    /* \"#utility.yul\":5411:5471   */\ntag_34:\n    /* \"#utility.yul\":5439:5442   */\n  0x00\n    /* \"#utility.yul\":5460:5465   */\n  dup2\n    /* \"#utility.yul\":5453:5465   */\n  swap1\n  pop\n    /* \"#utility.yul\":5411:5471   */\n  swap2\n  swap1\n  pop\n  jump\t// out\n    /* \"#utility.yul\":5477:5619   */\ntag_35:\n    /* \"#utility.yul\":5527:5536   */\n  0x00\n    /* \"#utility.yul\":5560:5613   */\n  tag_107\n    /* \"#utility.yul\":5578:5612   */\n  tag_108\n    /* \"#utility.yul\":5587:5611   */\n  tag_109\n    /* \"#utility.yul\":5605:5610   */\n  dup5\n    /* \"#utility.yul\":5587:5611   */\n  tag_24\n  jump\t// in\ntag_109:\n    /* \"#utility.yul\":5578:5612   */\n  tag_34\n  jump\t// in\ntag_108:\n    /* \"#utility.yul\":5560:5613   */\n  tag_24\n  jump\t// in\ntag_107:\n    /* \"#utility.yul\":5547:5613   */\n  swap1\n  pop\n    /* \"#utility.yul\":5477:5619   */\n  swap2\n  swap1\n  pop\n  jump\t// out\n    /* \"#utility.yul\":5625:5700   */\ntag_36:\n    /* \"#utility.yul\":5668:5671   */\n  0x00\n    /* \"#utility.yul\":5689:5694   */\n  dup2\n    /* \"#utility.yul\":5682:5694   */\n  swap1\n  pop\n    /* \"#utility.yul\":5625:5700   */\n  swap2\n  swap1\n  pop\n  jump\t// out\n    /* \"#utility.yul\":5706:5975   */\ntag_37:\n    /* \"#utility.yul\":5816:5855   */\n  tag_112\n    /* \"#utility.yul\":5847:5854   */\n  dup4\n    /* \"#utility.yul\":5816:5855   */\n  tag_35\n  jump\t// in\ntag_112:\n    /* \"#utility.yul\":5877:5968   */\n  tag_113\n    /* \"#utility.yul\":5926:5967   */\n  tag_114\n    /* \"#utility.yul\":5950:5966   */\n  dup3\n    /* \"#utility.yul\":5926:5967   */\n  tag_36\n  jump\t// in\ntag_114:\n    /* \"#utility.yul\":5918:5924   */\n  dup5\n    /* \"#utility.yul\":5911:5915   */\n  dup5\n    /* \"#utility.yul\":5905:5916   */\n  sload\n    /* \"#utility.yul\":5877:5968   */\n  tag_33\n  jump\t// in\ntag_113:\n    /* \"#utility.yul\":5871:5875   */\n  dup3\n    /* \"#utility.yul\":5864:5969   */\n  sstore\n    /* \"#utility.yul\":5782:5975   */\n  pop\n    /* \"#utility.yul\":5706:5975   */\n  pop\n  pop\n  pop\n  jump\t// out\n    /* \"#utility.yul\":5981:6054   */\ntag_38:\n    /* \"#utility.yul\":6026:6029   */\n  0x00\n    /* \"#utility.yul\":5981:6054   */\n  swap1\n  jump\t// out\n    /* \"#utility.yul\":6060:6249   */\ntag_39:\n    /* \"#utility.yul\":6137:6169   */\n  tag_117\n  tag_38\n  jump\t// in\ntag_117:\n    /* \"#utility.yul\":6178:6243   */\n  tag_118\n    /* \"#utility.yul\":6236:6242   */\n  dup2\n    /* \"#utility.yul\":6228:6234   */\n  dup5\n    /* \"#utility.yul\":6222:6226   */\n  dup5\n    /* \"#utility.yul\":6178:6243   */\n  tag_37\n  jump\t// in\ntag_118:\n    /* \"#utility.yul\":6113:6249   */\n  pop\n    /* \"#utility.yul\":6060:6249   */\n  pop\n  pop\n  jump\t// out\n    /* \"#utility.yul\":6255:6441   */\ntag_40:\n    /* \"#utility.yul\":6315:6435   */\ntag_120:\n    /* \"#utility.yul\":6332:6335   */\n  dup2\n    /* \"#utility.yul\":6325:6330   */\n  dup2\n    /* \"#utility.yul\":6322:6336   */\n  lt\n    /* \"#utility.yul\":6315:6435   */\n  iszero\n  tag_122\n  jumpi\n    /* \"#utility.yul\":6386:6425   */\n  tag_123\n    /* \"#utility.yul\":6423:6424   */\n  0x00\n    /* \"#utility.yul\":6416:6421   */\n  dup3\n    /* \"#utility.yul\":6386:6425   */\n  tag_39\n  jump\t// in\ntag_123:\n    /* \"#utility.yul\":6359:6360   */\n  0x01\n    /* \"#utility.yul\":6352:6357   */\n  dup2\n    /* \"#utility.yul\":6348:6361   */\n  add\n    /* \"#utility.yul\":6339:6361   */\n  swap1\n  pop\n    /* \"#utility.yul\":6315:6435   */\n  jump(tag_120)\ntag_122:\n    /* \"#utility.yul\":6255:6441   */\n  pop\n  pop\n  jump\t// out\n    /* \"#utility.yul\":6447:6990   */\ntag_41:\n    /* \"#utility.yul\":6548:6550   */\n  0x1f\n    /* \"#utility.yul\":6543:6546   */\n  dup3\n    /* \"#utility.yul\":6540:6551   */\n  gt\n    /* \"#utility.yul\":6537:6983   */\n  iszero\n  tag_125\n  jumpi\n    /* \"#utility.yul\":6582:6620   */\n  tag_126\n    /* \"#utility.yul\":6614:6619   */\n  dup2\n    /* \"#utility.yul\":6582:6620   */\n  tag_30\n  jump\t// in\ntag_126:\n    /* \"#utility.yul\":6666:6695   */\n  tag_127\n    /* \"#utility.yul\":6684:6694   */\n  dup5\n    /* \"#utility.yul\":6666:6695   */\n  tag_31\n  jump\t// in\ntag_127:\n    /* \"#utility.yul\":6656:6664   */\n  dup2\n    /* \"#utility.yul\":6652:6696   */\n  add\n    /* \"#utility.yul\":6849:6851   */\n  0x20\n    /* \"#utility.yul\":6837:6847   */\n  dup6\n    /* \"#utility.yul\":6834:6852   */\n  lt\n    /* \"#utility.yul\":6831:6880   */\n  iszero\n  tag_128\n  jumpi\n    /* \"#utility.yul\":6870:6878   */\n  dup2\n    /* \"#utility.yul\":6855:6878   */\n  swap1\n  pop\n    /* \"#utility.yul\":6831:6880   */\ntag_128:\n    /* \"#utility.yul\":6893:6973   */\n  tag_129\n    /* \"#utility.yul\":6949:6971   */\n  tag_130\n    /* \"#utility.yul\":6967:6970   */\n  dup6\n    /* \"#utility.yul\":6949:6971   */\n  tag_31\n  jump\t// in\ntag_130:\n    /* \"#utility.yul\":6939:6947   */\n  dup4\n    /* \"#utility.yul\":6935:6972   */\n  add\n    /* \"#utility.yul\":6922:6933   */\n  dup3\n    /* \"#utility.yul\":6893:6973   */\n  tag_40\n  jump\t// in\ntag_129:\n    /* \"#utility.yul\":6552:6983   */\n  pop\n  pop\n    /* \"#utility.yul\":6537:6983   */\ntag_125:\n    /* \"#utility.yul\":6447:6990   */\n  pop\n  pop\n  pop\n  jump\t// out\n    /* \"#utility.yul\":6996:7113   */\ntag_42:\n    /* \"#utility.yul\":7050:7058   */\n  0x00\n    /* \"#utility.yul\":7100:7105   */\n  dup3\n    /* \"#utility.yul\":7094:7098   */\n  dup3\n    /* \"#utility.yul\":7090:7106   */\n  shr\n    /* \"#utility.yul\":7069:7106   */\n  swap1\n  pop\n    /* \"#utility.yul\":6996:7113   */\n  swap3\n  swap2\n  pop\n  pop\n  jump\t// out\n    /* \"#utility.yul\":7119:7288   */\ntag_43:\n    /* \"#utility.yul\":7163:7169   */\n  0x00\n    /* \"#utility.yul\":7196:7247   */\n  tag_133\n    /* \"#utility.yul\":7244:7245   */\n  0x00\n    /* \"#utility.yul\":7240:7246   */\n  not\n    /* \"#utility.yul\":7232:7237   */\n  dup5\n    /* \"#utility.yul\":7229:7230   */\n  0x08\n    /* \"#utility.yul\":7225:7238   */\n  mul\n    /* \"#utility.yul\":7196:7247   */\n  tag_42\n  jump\t// in\ntag_133:\n    /* \"#utility.yul\":7192:7248   */\n  not\n    /* \"#utility.yul\":7277:7281   */\n  dup1\n    /* \"#utility.yul\":7271:7275   */\n  dup4\n    /* \"#utility.yul\":7267:7282   */\n  and\n    /* \"#utility.yul\":7257:7282   */\n  swap2\n  pop\n    /* \"#utility.yul\":7170:7288   */\n  pop\n    /* \"#utility.yul\":7119:7288   */\n  swap3\n  swap2\n  pop\n  pop\n  jump\t// out\n    /* \"#utility.yul\":7293:7588   */\ntag_44:\n    /* \"#utility.yul\":7369:7373   */\n  0x00\n    /* \"#utility.yul\":7515:7544   */\n  tag_135\n    /* \"#utility.yul\":7540:7543   */\n  dup4\n    /* \"#utility.yul\":7534:7538   */\n  dup4\n    /* \"#utility.yul\":7515:7544   */\n  tag_43\n  jump\t// in\ntag_135:\n    /* \"#utility.yul\":7507:7544   */\n  swap2\n  pop\n    /* \"#utility.yul\":7577:7580   */\n  dup3\n    /* \"#utility.yul\":7574:7575   */\n  0x02\n    /* \"#utility.yul\":7570:7581   */\n  mul\n    /* \"#utility.yul\":7564:7568   */\n  dup3\n    /* \"#utility.yul\":7561:7582   */\n  or\n    /* \"#utility.yul\":7553:7582   */\n  swap1\n  pop\n    /* \"#utility.yul\":7293:7588   */\n  swap3\n  swap2\n  pop\n  pop\n  jump\t// out\n    /* \"#utility.yul\":7593:8988   */\ntag_8:\n    /* \"#utility.yul\":7710:7747   */\n  tag_137\n    /* \"#utility.yul\":7743:7746   */\n  dup3\n    /* \"#utility.yul\":7710:7747   */\n  tag_27\n  jump\t// in\ntag_137:\n    /* \"#utility.yul\":7812:7830   */\n  0xffffffffffffffff\n    /* \"#utility.yul\":7804:7810   */\n  dup2\n    /* \"#utility.yul\":7801:7831   */\n  gt\n    /* \"#utility.yul\":7798:7854   */\n  iszero\n  tag_138\n  jumpi\n    /* \"#utility.yul\":7834:7852   */\n  tag_139\n  tag_17\n  jump\t// in\ntag_139:\n    /* \"#utility.yul\":7798:7854   */\ntag_138:\n    /* \"#utility.yul\":7878:7916   */\n  tag_140\n    /* \"#utility.yul\":7910:7914   */\n  dup3\n    /* \"#utility.yul\":7904:7915   */\n  sload\n    /* \"#utility.yul\":7878:7916   */\n  tag_29\n  jump\t// in\ntag_140:\n    /* \"#utility.yul\":7963:8030   */\n  tag_141\n    /* \"#utility.yul\":8023:8029   */\n  dup3\n    /* \"#utility.yul\":8015:8021   */\n  dup3\n    /* \"#utility.yul\":8009:8013   */\n  dup6\n    /* \"#utility.yul\":7963:8030   */\n  tag_41\n  jump\t// in\ntag_141:\n    /* \"#utility.yul\":8057:8058   */\n  0x00\n    /* \"#utility.yul\":8081:8085   */\n  0x20\n    /* \"#utility.yul\":8068:8085   */\n  swap1\n  pop\n    /* \"#utility.yul\":8113:8115   */\n  0x1f\n    /* \"#utility.yul\":8105:8111   */\n  dup4\n    /* \"#utility.yul\":8102:8116   */\n  gt\n    /* \"#utility.yul\":8130:8131   */\n  0x01\n    /* \"#utility.yul\":8125:8743   */\n  dup2\n  eq\n  tag_143\n  jumpi\n    /* \"#utility.yul\":8787:8788   */\n  0x00\n    /* \"#utility.yul\":8804:8810   */\n  dup5\n    /* \"#utility.yul\":8801:8878   */\n  iszero\n  tag_144\n  jumpi\n    /* \"#utility.yul\":8853:8862   */\n  dup3\n    /* \"#utility.yul\":8848:8851   */\n  dup8\n    /* \"#utility.yul\":8844:8863   */\n  add\n    /* \"#utility.yul\":8838:8864   */\n  mload\n    /* \"#utility.yul\":8829:8864   */\n  swap1\n  pop\n    /* \"#utility.yul\":8801:8878   */\ntag_144:\n    /* \"#utility.yul\":8904:8971   */\n  tag_145\n    /* \"#utility.yul\":8964:8970   */\n  dup6\n    /* \"#utility.yul\":8957:8962   */\n  dup3\n    /* \"#utility.yul\":8904:8971   */\n  tag_44\n  jump\t// in\ntag_145:\n    /* \"#utility.yul\":8898:8902   */\n  dup7\n    /* \"#utility.yul\":8891:8972   */\n  sstore\n    /* \"#utility.yul\":8760:8982   */\n  pop\n    /* \"#utility.yul\":8095:8982   */\n  jump(tag_142)\n    /* \"#utility.yul\":8125:8743   */\ntag_143:\n    /* \"#utility.yul\":8177:8181   */\n  0x1f\n    /* \"#utility.yul\":8173:8182   */\n  not\n    /* \"#utility.yul\":8165:8171   */\n  dup5\n    /* \"#utility.yul\":8161:8183   */\n  and\n    /* \"#utility.yul\":8211:8248   */\n  tag_146\n    /* \"#utility.yul\":8243:8247   */\n  dup7\n    /* \"#utility.yul\":8211:8248   */\n  tag_30\n  jump\t// in\ntag_146:\n    /* \"#utility.yul\":8270:8271   */\n  0x00\n    /* \"#utility.yul\":8284:8492   */\ntag_147:\n    /* \"#utility.yul\":8298:8305   */\n  dup3\n    /* \"#utility.yul\":8295:8296   */\n  dup2\n    /* \"#utility.yul\":8292:8306   */\n  lt\n    /* \"#utility.yul\":8284:8492   */\n  iszero\n  tag_149\n  jumpi\n    /* \"#utility.yul\":8377:8386   */\n  dup5\n    /* \"#utility.yul\":8372:8375   */\n  dup10\n    /* \"#utility.yul\":8368:8387   */\n  add\n    /* \"#utility.yul\":8362:8388   */\n  mload\n    /* \"#utility.yul\":8354:8360   */\n  dup3\n    /* \"#utility.yul\":8347:8389   */\n  sstore\n    /* \"#utility.yul\":8428:8429   */\n  0x01\n    /* \"#utility.yul\":8420:8426   */\n  dup3\n    /* \"#utility.yul\":8416:8430   */\n  add\n    /* \"#utility.yul\":8406:8430   */\n  swap2\n  pop\n    /* \"#utility.yul\":8475:8477   */\n  0x20\n    /* \"#utility.yul\":8464:8473   */\n  dup6\n    /* \"#utility.yul\":8460:8478   */\n  add\n    /* \"#utility.yul\":8447:8478   */\n  swap5\n  pop\n    /* \"#utility.yul\":8321:8325   */\n  0x20\n    /* \"#utility.yul\":8318:8319   */\n  dup2\n    /* \"#utility.yul\":8314:8326   */\n  add\n    /* \"#utility.yul\":8309:8326   */\n  swap1\n  pop\n    /* \"#utility.yul\":8284:8492   */\n  jump(tag_147)\ntag_149:\n    /* \"#utility.yul\":8520:8526   */\n  dup7\n    /* \"#utility.yul\":8511:8518   */\n  dup4\n    /* \"#utility.yul\":8508:8527   */\n  lt\n    /* \"#utility.yul\":8505:8684   */\n  iszero\n  tag_150\n  jumpi\n    /* \"#utility.yul\":8578:8587   */\n  dup5\n    /* \"#utility.yul\":8573:8576   */\n  dup10\n    /* \"#utility.yul\":8569:8588   */\n  add\n    /* \"#utility.yul\":8563:8589   */\n  mload\n    /* \"#utility.yul\":8621:8669   */\n  tag_151\n    /* \"#utility.yul\":8663:8667   */\n  0x1f\n    /* \"#utility.yul\":8655:8661   */\n  dup10\n    /* \"#utility.yul\":8651:8668   */\n  and\n    /* \"#utility.yul\":8640:8649   */\n  dup3\n    /* \"#utility.yul\":8621:8669   */\n  tag_43\n  jump\t// in\ntag_151:\n    /* \"#utility.yul\":8613:8619   */\n  dup4\n    /* \"#utility.yul\":8606:8670   */\n  sstore\n    /* \"#utility.yul\":8528:8684   */\n  pop\n    /* \"#utility.yul\":8505:8684   */\ntag_150:\n    /* \"#utility.yul\":8730:8731   */\n  0x01\n    /* \"#utility.yul\":8726:8727   */\n  0x02\n    /* \"#utility.yul\":8718:8724   */\n  dup9\n    /* \"#utility.yul\":8714:8728   */\n  mul\n    /* \"#utility.yul\":8710:8732   */\n  add\n    /* \"#utility.yul\":8704:8708   */\n  dup9\n    /* \"#utility.yul\":8697:8733   */\n  sstore\n    /* \"#utility.yul\":8132:8743   */\n  pop\n  pop\n  pop\n    /* \"#utility.yul\":8095:8982   */\ntag_142:\n  pop\n    /* \"#utility.yul\":7685:8988   */\n  pop\n  pop\n  pop\n    /* \"#utility.yul\":7593:8988   */\n  pop\n  pop\n  jump\t// out\n    /* \"landiheritance.sol\":553:923  contract ResidentialProperty is GullburgColony {... */\ntag_10:\n  dataSize(sub_0)\n  dup1\n  dataOffset(sub_0)\n  0x00\n  codecopy\n  0x00\n  return\nstop\n\nsub_0: assembly {\n        /* \"landiheritance.sol\":553:923  contract ResidentialProperty is GullburgColony {... */\n      mstore(0x40, 0x80)\n      callvalue\n      dup1\n      iszero\n      tag_1\n      jumpi\n      0x00\n      dup1\n      revert\n    tag_1:\n      pop\n      jumpi(tag_2, lt(calldatasize, 0x04))\n      shr(0xe0, calldataload(0x00))\n      dup1\n      0x516f279e\n      eq\n      tag_3\n      jumpi\n      dup1\n      0x8da5cb5b\n      eq\n      tag_4\n      jumpi\n      dup1\n      0xa035b1fe\n      eq\n      tag_5\n      jumpi\n      dup1\n      0xa2b40d19\n      eq\n      tag_6\n      jumpi\n      dup1\n      0xbb45bfd6\n      eq\n      tag_7\n      jumpi\n      dup1\n      0xe3007953\n      eq\n      tag_8\n      jumpi\n    tag_2:\n      0x00\n      dup1\n      revert\n        /* \"landiheritance.sol\":118:140  string public location */\n    tag_3:\n      tag_9\n      tag_10\n      jump\t// in\n    tag_9:\n      mload(0x40)\n      tag_11\n      swap2\n      swap1\n      tag_12\n      jump\t// in\n    tag_11:\n      mload(0x40)\n      dup1\n      swap2\n      sub\n      swap1\n      return\n        /* \"landiheritance.sol\":91:111  address public owner */\n    tag_4:\n      tag_13\n      tag_14\n      jump\t// in\n    tag_13:\n      mload(0x40)\n      tag_15\n      swap2\n      swap1\n      tag_16\n      jump\t// in\n    tag_15:\n      mload(0x40)\n      dup1\n      swap2\n      sub\n      swap1\n      return\n        /* \"landiheritance.sol\":147:164  uint public price */\n    tag_5:\n      tag_17\n      tag_18\n      jump\t// in\n    tag_17:\n      mload(0x40)\n      tag_19\n      swap2\n      swap1\n      tag_20\n      jump\t// in\n    tag_19:\n      mload(0x40)\n      dup1\n      swap2\n      sub\n      swap1\n      return\n        /* \"landiheritance.sol\":453:546  function changePrice(uint256 _newPrice) public onlyOwner {... */\n    tag_6:\n      tag_21\n      0x04\n      dup1\n      calldatasize\n      sub\n      dup2\n      add\n      swap1\n      tag_22\n      swap2\n      swap1\n      tag_23\n      jump\t// in\n    tag_22:\n      tag_24\n      jump\t// in\n    tag_21:\n      stop\n        /* \"landiheritance.sol\":607:630  uint public numBedrooms */\n    tag_7:\n      tag_25\n      tag_26\n      jump\t// in\n    tag_25:\n      mload(0x40)\n      tag_27\n      swap2\n      swap1\n      tag_20\n      jump\t// in\n    tag_27:\n      mload(0x40)\n      dup1\n      swap2\n      sub\n      swap1\n      return\n        /* \"landiheritance.sol\":637:661  uint public numBathrooms */\n    tag_8:\n      tag_28\n      tag_29\n      jump\t// in\n    tag_28:\n      mload(0x40)\n      tag_30\n      swap2\n      swap1\n      tag_20\n      jump\t// in\n    tag_30:\n      mload(0x40)\n      dup1\n      swap2\n      sub\n      swap1\n      return\n        /* \"landiheritance.sol\":118:140  string public location */\n    tag_10:\n      0x01\n      dup1\n      sload\n      tag_31\n      swap1\n      tag_32\n      jump\t// in\n    tag_31:\n      dup1\n      0x1f\n      add\n      0x20\n      dup1\n      swap2\n      div\n      mul\n      0x20\n      add\n      mload(0x40)\n      swap1\n      dup2\n      add\n      0x40\n      mstore\n      dup1\n      swap3\n      swap2\n      swap1\n      dup2\n      dup2\n      mstore\n      0x20\n      add\n      dup3\n      dup1\n      sload\n      tag_33\n      swap1\n      tag_32\n      jump\t// in\n    tag_33:\n      dup1\n      iszero\n      tag_34\n      jumpi\n      dup1\n      0x1f\n      lt\n      tag_35\n      jumpi\n      0x0100\n      dup1\n      dup4\n      sload\n      div\n      mul\n      dup4\n      mstore\n      swap2\n      0x20\n      add\n      swap2\n      jump(tag_34)\n    tag_35:\n      dup3\n      add\n      swap2\n      swap1\n      0x00\n      mstore\n      keccak256(0x00, 0x20)\n      swap1\n    tag_36:\n      dup2\n      sload\n      dup2\n      mstore\n      swap1\n      0x01\n      add\n      swap1\n      0x20\n      add\n      dup1\n      dup4\n      gt\n      tag_36\n      jumpi\n      dup3\n      swap1\n      sub\n      0x1f\n      and\n      dup3\n      add\n      swap2\n    tag_34:\n      pop\n      pop\n      pop\n      pop\n      pop\n      dup2\n      jump\t// out\n        /* \"landiheritance.sol\":91:111  address public owner */\n    tag_14:\n      0x00\n      dup1\n      sload\n      swap1\n      0x0100\n      exp\n      swap1\n      div\n      0xffffffffffffffffffffffffffffffffffffffff\n      and\n      dup2\n      jump\t// out\n        /* \"landiheritance.sol\":147:164  uint public price */\n    tag_18:\n      sload(0x02)\n      dup2\n      jump\t// out\n        /* \"landiheritance.sol\":453:546  function changePrice(uint256 _newPrice) public onlyOwner {... */\n    tag_24:\n        /* \"landiheritance.sol\":378:383  owner */\n      0x00\n      dup1\n      sload\n      swap1\n      0x0100\n      exp\n      swap1\n      div\n      0xffffffffffffffffffffffffffffffffffffffff\n      and\n        /* \"landiheritance.sol\":364:383  msg.sender == owner */\n      0xffffffffffffffffffffffffffffffffffffffff\n      and\n        /* \"landiheritance.sol\":364:374  msg.sender */\n      caller\n        /* \"landiheritance.sol\":364:383  msg.sender == owner */\n      0xffffffffffffffffffffffffffffffffffffffff\n      and\n      eq\n        /* \"landiheritance.sol\":356:425  require(msg.sender == owner, \"Only the owner can call this function\") */\n      tag_38\n      jumpi\n      mload(0x40)\n      0x08c379a000000000000000000000000000000000000000000000000000000000\n      dup2\n      mstore\n      0x04\n      add\n      tag_39\n      swap1\n      tag_40\n      jump\t// in\n    tag_39:\n      mload(0x40)\n      dup1\n      swap2\n      sub\n      swap1\n      revert\n    tag_38:\n        /* \"landiheritance.sol\":529:538  _newPrice */\n      dup1\n        /* \"landiheritance.sol\":521:526  price */\n      0x02\n        /* \"landiheritance.sol\":521:538  price = _newPrice */\n      dup2\n      swap1\n      sstore\n      pop\n        /* \"landiheritance.sol\":453:546  function changePrice(uint256 _newPrice) public onlyOwner {... */\n      pop\n      jump\t// out\n        /* \"landiheritance.sol\":607:630  uint public numBedrooms */\n    tag_26:\n      sload(0x03)\n      dup2\n      jump\t// out\n        /* \"landiheritance.sol\":637:661  uint public numBathrooms */\n    tag_29:\n      sload(0x04)\n      dup2\n      jump\t// out\n        /* \"#utility.yul\":7:106   */\n    tag_42:\n        /* \"#utility.yul\":59:65   */\n      0x00\n        /* \"#utility.yul\":93:98   */\n      dup2\n        /* \"#utility.yul\":87:99   */\n      mload\n        /* \"#utility.yul\":77:99   */\n      swap1\n      pop\n        /* \"#utility.yul\":7:106   */\n      swap2\n      swap1\n      pop\n      jump\t// out\n        /* \"#utility.yul\":112:281   */\n    tag_43:\n        /* \"#utility.yul\":196:207   */\n      0x00\n        /* \"#utility.yul\":230:236   */\n      dup3\n        /* \"#utility.yul\":225:228   */\n      dup3\n        /* \"#utility.yul\":218:237   */\n      mstore\n        /* \"#utility.yul\":270:274   */\n      0x20\n        /* \"#utility.yul\":265:268   */\n      dup3\n        /* \"#utility.yul\":261:275   */\n      add\n        /* \"#utility.yul\":246:275   */\n      swap1\n      pop\n        /* \"#utility.yul\":112:281   */\n      swap3\n      swap2\n      pop\n      pop\n      jump\t// out\n        /* \"#utility.yul\":287:533   */\n    tag_44:\n        /* \"#utility.yul\":368:369   */\n      0x00\n        /* \"#utility.yul\":378:491   */\n    tag_64:\n        /* \"#utility.yul\":392:398   */\n      dup4\n        /* \"#utility.yul\":389:390   */\n      dup2\n        /* \"#utility.yul\":386:399   */\n      lt\n        /* \"#utility.yul\":378:491   */\n      iszero\n      tag_66\n      jumpi\n        /* \"#utility.yul\":477:478   */\n      dup1\n        /* \"#utility.yul\":472:475   */\n      dup3\n        /* \"#utility.yul\":468:479   */\n      add\n        /* \"#utility.yul\":462:480   */\n      mload\n        /* \"#utility.yul\":458:459   */\n      dup2\n        /* \"#utility.yul\":453:456   */\n      dup5\n        /* \"#utility.yul\":449:460   */\n      add\n        /* \"#utility.yul\":442:481   */\n      mstore\n        /* \"#utility.yul\":414:416   */\n      0x20\n        /* \"#utility.yul\":411:412   */\n      dup2\n        /* \"#utility.yul\":407:417   */\n      add\n        /* \"#utility.yul\":402:417   */\n      swap1\n      pop\n        /* \"#utility.yul\":378:491   */\n      jump(tag_64)\n    tag_66:\n        /* \"#utility.yul\":525:526   */\n      0x00\n        /* \"#utility.yul\":516:522   */\n      dup5\n        /* \"#utility.yul\":511:514   */\n      dup5\n        /* \"#utility.yul\":507:523   */\n      add\n        /* \"#utility.yul\":500:527   */\n      mstore\n        /* \"#utility.yul\":349:533   */\n      pop\n        /* \"#utility.yul\":287:533   */\n      pop\n      pop\n      pop\n      jump\t// out\n        /* \"#utility.yul\":539:641   */\n    tag_45:\n        /* \"#utility.yul\":580:586   */\n      0x00\n        /* \"#utility.yul\":631:633   */\n      0x1f\n        /* \"#utility.yul\":627:634   */\n      not\n        /* \"#utility.yul\":622:624   */\n      0x1f\n        /* \"#utility.yul\":615:620   */\n      dup4\n        /* \"#utility.yul\":611:625   */\n      add\n        /* \"#utility.yul\":607:635   */\n      and\n        /* \"#utility.yul\":597:635   */\n      swap1\n      pop\n        /* \"#utility.yul\":539:641   */\n      swap2\n      swap1\n      pop\n      jump\t// out\n        /* \"#utility.yul\":647:1024   */\n    tag_46:\n        /* \"#utility.yul\":735:738   */\n      0x00\n        /* \"#utility.yul\":763:802   */\n      tag_69\n        /* \"#utility.yul\":796:801   */\n      dup3\n        /* \"#utility.yul\":763:802   */\n      tag_42\n      jump\t// in\n    tag_69:\n        /* \"#utility.yul\":818:889   */\n      tag_70\n        /* \"#utility.yul\":882:888   */\n      dup2\n        /* \"#utility.yul\":877:880   */\n      dup6\n        /* \"#utility.yul\":818:889   */\n      tag_43\n      jump\t// in\n    tag_70:\n        /* \"#utility.yul\":811:889   */\n      swap4\n      pop\n        /* \"#utility.yul\":898:963   */\n      tag_71\n        /* \"#utility.yul\":956:962   */\n      dup2\n        /* \"#utility.yul\":951:954   */\n      dup6\n        /* \"#utility.yul\":944:948   */\n      0x20\n        /* \"#utility.yul\":937:942   */\n      dup7\n        /* \"#utility.yul\":933:949   */\n      add\n        /* \"#utility.yul\":898:963   */\n      tag_44\n      jump\t// in\n    tag_71:\n        /* \"#utility.yul\":988:1017   */\n      tag_72\n        /* \"#utility.yul\":1010:1016   */\n      dup2\n        /* \"#utility.yul\":988:1017   */\n      tag_45\n      jump\t// in\n    tag_72:\n        /* \"#utility.yul\":983:986   */\n      dup5\n        /* \"#utility.yul\":979:1018   */\n      add\n        /* \"#utility.yul\":972:1018   */\n      swap2\n      pop\n        /* \"#utility.yul\":739:1024   */\n      pop\n        /* \"#utility.yul\":647:1024   */\n      swap3\n      swap2\n      pop\n      pop\n      jump\t// out\n        /* \"#utility.yul\":1030:1343   */\n    tag_12:\n        /* \"#utility.yul\":1143:1147   */\n      0x00\n        /* \"#utility.yul\":1181:1183   */\n      0x20\n        /* \"#utility.yul\":1170:1179   */\n      dup3\n        /* \"#utility.yul\":1166:1184   */\n      add\n        /* \"#utility.yul\":1158:1184   */\n      swap1\n      pop\n        /* \"#utility.yul\":1230:1239   */\n      dup2\n        /* \"#utility.yul\":1224:1228   */\n      dup2\n        /* \"#utility.yul\":1220:1240   */\n      sub\n        /* \"#utility.yul\":1216:1217   */\n      0x00\n        /* \"#utility.yul\":1205:1214   */\n      dup4\n        /* \"#utility.yul\":1201:1218   */\n      add\n        /* \"#utility.yul\":1194:1241   */\n      mstore\n        /* \"#utility.yul\":1258:1336   */\n      tag_74\n        /* \"#utility.yul\":1331:1335   */\n      dup2\n        /* \"#utility.yul\":1322:1328   */\n      dup5\n        /* \"#utility.yul\":1258:1336   */\n      tag_46\n      jump\t// in\n    tag_74:\n        /* \"#utility.yul\":1250:1336   */\n      swap1\n      pop\n        /* \"#utility.yul\":1030:1343   */\n      swap3\n      swap2\n      pop\n      pop\n      jump\t// out\n        /* \"#utility.yul\":1349:1475   */\n    tag_47:\n        /* \"#utility.yul\":1386:1393   */\n      0x00\n        /* \"#utility.yul\":1426:1468   */\n      0xffffffffffffffffffffffffffffffffffffffff\n        /* \"#utility.yul\":1419:1424   */\n      dup3\n        /* \"#utility.yul\":1415:1469   */\n      and\n        /* \"#utility.yul\":1404:1469   */\n      swap1\n      pop\n        /* \"#utility.yul\":1349:1475   */\n      swap2\n      swap1\n      pop\n      jump\t// out\n        /* \"#utility.yul\":1481:1577   */\n    tag_48:\n        /* \"#utility.yul\":1518:1525   */\n      0x00\n        /* \"#utility.yul\":1547:1571   */\n      tag_77\n        /* \"#utility.yul\":1565:1570   */\n      dup3\n        /* \"#utility.yul\":1547:1571   */\n      tag_47\n      jump\t// in\n    tag_77:\n        /* \"#utility.yul\":1536:1571   */\n      swap1\n      pop\n        /* \"#utility.yul\":1481:1577   */\n      swap2\n      swap1\n      pop\n      jump\t// out\n        /* \"#utility.yul\":1583:1701   */\n    tag_49:\n        /* \"#utility.yul\":1670:1694   */\n      tag_79\n        /* \"#utility.yul\":1688:1693   */\n      dup2\n        /* \"#utility.yul\":1670:1694   */\n      tag_48\n      jump\t// in\n    tag_79:\n        /* \"#utility.yul\":1665:1668   */\n      dup3\n        /* \"#utility.yul\":1658:1695   */\n      mstore\n        /* \"#utility.yul\":1583:1701   */\n      pop\n      pop\n      jump\t// out\n        /* \"#utility.yul\":1707:1929   */\n    tag_16:\n        /* \"#utility.yul\":1800:1804   */\n      0x00\n        /* \"#utility.yul\":1838:1840   */\n      0x20\n        /* \"#utility.yul\":1827:1836   */\n      dup3\n        /* \"#utility.yul\":1823:1841   */\n      add\n        /* \"#utility.yul\":1815:1841   */\n      swap1\n      pop\n        /* \"#utility.yul\":1851:1922   */\n      tag_81\n        /* \"#utility.yul\":1919:1920   */\n      0x00\n        /* \"#utility.yul\":1908:1917   */\n      dup4\n        /* \"#utility.yul\":1904:1921   */\n      add\n        /* \"#utility.yul\":1895:1901   */\n      dup5\n        /* \"#utility.yul\":1851:1922   */\n      tag_49\n      jump\t// in\n    tag_81:\n        /* \"#utility.yul\":1707:1929   */\n      swap3\n      swap2\n      pop\n      pop\n      jump\t// out\n        /* \"#utility.yul\":1935:2012   */\n    tag_50:\n        /* \"#utility.yul\":1972:1979   */\n      0x00\n        /* \"#utility.yul\":2001:2006   */\n      dup2\n        /* \"#utility.yul\":1990:2006   */\n      swap1\n      pop\n        /* \"#utility.yul\":1935:2012   */\n      swap2\n      swap1\n      pop\n      jump\t// out\n        /* \"#utility.yul\":2018:2136   */\n    tag_51:\n        /* \"#utility.yul\":2105:2129   */\n      tag_84\n        /* \"#utility.yul\":2123:2128   */\n      dup2\n        /* \"#utility.yul\":2105:2129   */\n      tag_50\n      jump\t// in\n    tag_84:\n        /* \"#utility.yul\":2100:2103   */\n      dup3\n        /* \"#utility.yul\":2093:2130   */\n      mstore\n        /* \"#utility.yul\":2018:2136   */\n      pop\n      pop\n      jump\t// out\n        /* \"#utility.yul\":2142:2364   */\n    tag_20:\n        /* \"#utility.yul\":2235:2239   */\n      0x00\n        /* \"#utility.yul\":2273:2275   */\n      0x20\n        /* \"#utility.yul\":2262:2271   */\n      dup3\n        /* \"#utility.yul\":2258:2276   */\n      add\n        /* \"#utility.yul\":2250:2276   */\n      swap1\n      pop\n        /* \"#utility.yul\":2286:2357   */\n      tag_86\n        /* \"#utility.yul\":2354:2355   */\n      0x00\n        /* \"#utility.yul\":2343:2352   */\n      dup4\n        /* \"#utility.yul\":2339:2356   */\n      add\n        /* \"#utility.yul\":2330:2336   */\n      dup5\n        /* \"#utility.yul\":2286:2357   */\n      tag_51\n      jump\t// in\n    tag_86:\n        /* \"#utility.yul\":2142:2364   */\n      swap3\n      swap2\n      pop\n      pop\n      jump\t// out\n        /* \"#utility.yul\":2451:2568   */\n    tag_53:\n        /* \"#utility.yul\":2560:2561   */\n      0x00\n        /* \"#utility.yul\":2557:2558   */\n      dup1\n        /* \"#utility.yul\":2550:2562   */\n      revert\n        /* \"#utility.yul\":2697:2819   */\n    tag_55:\n        /* \"#utility.yul\":2770:2794   */\n      tag_91\n        /* \"#utility.yul\":2788:2793   */\n      dup2\n        /* \"#utility.yul\":2770:2794   */\n      tag_50\n      jump\t// in\n    tag_91:\n        /* \"#utility.yul\":2763:2768   */\n      dup2\n        /* \"#utility.yul\":2760:2795   */\n      eq\n        /* \"#utility.yul\":2750:2813   */\n      tag_92\n      jumpi\n        /* \"#utility.yul\":2809:2810   */\n      0x00\n        /* \"#utility.yul\":2806:2807   */\n      dup1\n        /* \"#utility.yul\":2799:2811   */\n      revert\n        /* \"#utility.yul\":2750:2813   */\n    tag_92:\n        /* \"#utility.yul\":2697:2819   */\n      pop\n      jump\t// out\n        /* \"#utility.yul\":2825:2964   */\n    tag_56:\n        /* \"#utility.yul\":2871:2876   */\n      0x00\n        /* \"#utility.yul\":2909:2915   */\n      dup2\n        /* \"#utility.yul\":2896:2916   */\n      calldataload\n        /* \"#utility.yul\":2887:2916   */\n      swap1\n      pop\n        /* \"#utility.yul\":2925:2958   */\n      tag_94\n        /* \"#utility.yul\":2952:2957   */\n      dup2\n        /* \"#utility.yul\":2925:2958   */\n      tag_55\n      jump\t// in\n    tag_94:\n        /* \"#utility.yul\":2825:2964   */\n      swap3\n      swap2\n      pop\n      pop\n      jump\t// out\n        /* \"#utility.yul\":2970:3299   */\n    tag_23:\n        /* \"#utility.yul\":3029:3035   */\n      0x00\n        /* \"#utility.yul\":3078:3080   */\n      0x20\n        /* \"#utility.yul\":3066:3075   */\n      dup3\n        /* \"#utility.yul\":3057:3064   */\n      dup5\n        /* \"#utility.yul\":3053:3076   */\n      sub\n        /* \"#utility.yul\":3049:3081   */\n      slt\n        /* \"#utility.yul\":3046:3165   */\n      iszero\n      tag_96\n      jumpi\n        /* \"#utility.yul\":3084:3163   */\n      tag_97\n      tag_53\n      jump\t// in\n    tag_97:\n        /* \"#utility.yul\":3046:3165   */\n    tag_96:\n        /* \"#utility.yul\":3204:3205   */\n      0x00\n        /* \"#utility.yul\":3229:3282   */\n      tag_98\n        /* \"#utility.yul\":3274:3281   */\n      dup5\n        /* \"#utility.yul\":3265:3271   */\n      dup3\n        /* \"#utility.yul\":3254:3263   */\n      dup6\n        /* \"#utility.yul\":3250:3272   */\n      add\n        /* \"#utility.yul\":3229:3282   */\n      tag_56\n      jump\t// in\n    tag_98:\n        /* \"#utility.yul\":3219:3282   */\n      swap2\n      pop\n        /* \"#utility.yul\":3175:3292   */\n      pop\n        /* \"#utility.yul\":2970:3299   */\n      swap3\n      swap2\n      pop\n      pop\n      jump\t// out\n        /* \"#utility.yul\":3305:3485   */\n    tag_57:\n        /* \"#utility.yul\":3353:3430   */\n      0x4e487b7100000000000000000000000000000000000000000000000000000000\n        /* \"#utility.yul\":3350:3351   */\n      0x00\n        /* \"#utility.yul\":3343:3431   */\n      mstore\n        /* \"#utility.yul\":3450:3454   */\n      0x22\n        /* \"#utility.yul\":3447:3448   */\n      0x04\n        /* \"#utility.yul\":3440:3455   */\n      mstore\n        /* \"#utility.yul\":3474:3478   */\n      0x24\n        /* \"#utility.yul\":3471:3472   */\n      0x00\n        /* \"#utility.yul\":3464:3479   */\n      revert\n        /* \"#utility.yul\":3491:3811   */\n    tag_32:\n        /* \"#utility.yul\":3535:3541   */\n      0x00\n        /* \"#utility.yul\":3572:3573   */\n      0x02\n        /* \"#utility.yul\":3566:3570   */\n      dup3\n        /* \"#utility.yul\":3562:3574   */\n      div\n        /* \"#utility.yul\":3552:3574   */\n      swap1\n      pop\n        /* \"#utility.yul\":3619:3620   */\n      0x01\n        /* \"#utility.yul\":3613:3617   */\n      dup3\n        /* \"#utility.yul\":3609:3621   */\n      and\n        /* \"#utility.yul\":3640:3658   */\n      dup1\n        /* \"#utility.yul\":3630:3711   */\n      tag_101\n      jumpi\n        /* \"#utility.yul\":3696:3700   */\n      0x7f\n        /* \"#utility.yul\":3688:3694   */\n      dup3\n        /* \"#utility.yul\":3684:3701   */\n      and\n        /* \"#utility.yul\":3674:3701   */\n      swap2\n      pop\n        /* \"#utility.yul\":3630:3711   */\n    tag_101:\n        /* \"#utility.yul\":3758:3760   */\n      0x20\n        /* \"#utility.yul\":3750:3756   */\n      dup3\n        /* \"#utility.yul\":3747:3761   */\n      lt\n        /* \"#utility.yul\":3727:3745   */\n      dup2\n        /* \"#utility.yul\":3724:3762   */\n      sub\n        /* \"#utility.yul\":3721:3805   */\n      tag_102\n      jumpi\n        /* \"#utility.yul\":3777:3795   */\n      tag_103\n      tag_57\n      jump\t// in\n    tag_103:\n        /* \"#utility.yul\":3721:3805   */\n    tag_102:\n        /* \"#utility.yul\":3542:3811   */\n      pop\n        /* \"#utility.yul\":3491:3811   */\n      swap2\n      swap1\n      pop\n      jump\t// out\n        /* \"#utility.yul\":3817:4041   */\n    tag_58:\n        /* \"#utility.yul\":3957:3991   */\n      0x4f6e6c7920746865206f776e65722063616e2063616c6c20746869732066756e\n        /* \"#utility.yul\":3953:3954   */\n      0x00\n        /* \"#utility.yul\":3945:3951   */\n      dup3\n        /* \"#utility.yul\":3941:3955   */\n      add\n        /* \"#utility.yul\":3934:3992   */\n      mstore\n        /* \"#utility.yul\":4026:4033   */\n      0x6374696f6e000000000000000000000000000000000000000000000000000000\n        /* \"#utility.yul\":4021:4023   */\n      0x20\n        /* \"#utility.yul\":4013:4019   */\n      dup3\n        /* \"#utility.yul\":4009:4024   */\n      add\n        /* \"#utility.yul\":4002:4034   */\n      mstore\n        /* \"#utility.yul\":3817:4041   */\n      pop\n      jump\t// out\n        /* \"#utility.yul\":4047:4413   */\n    tag_59:\n        /* \"#utility.yul\":4189:4192   */\n      0x00\n        /* \"#utility.yul\":4210:4277   */\n      tag_106\n        /* \"#utility.yul\":4274:4276   */\n      0x25\n        /* \"#utility.yul\":4269:4272   */\n      dup4\n        /* \"#utility.yul\":4210:4277   */\n      tag_43\n      jump\t// in\n    tag_106:\n        /* \"#utility.yul\":4203:4277   */\n      swap2\n      pop\n        /* \"#utility.yul\":4286:4379   */\n      tag_107\n        /* \"#utility.yul\":4375:4378   */\n      dup3\n        /* \"#utility.yul\":4286:4379   */\n      tag_58\n      jump\t// in\n    tag_107:\n        /* \"#utility.yul\":4404:4406   */\n      0x40\n        /* \"#utility.yul\":4399:4402   */\n      dup3\n        /* \"#utility.yul\":4395:4407   */\n      add\n        /* \"#utility.yul\":4388:4407   */\n      swap1\n      pop\n        /* \"#utility.yul\":4047:4413   */\n      swap2\n      swap1\n      pop\n      jump\t// out\n        /* \"#utility.yul\":4419:4838   */\n    tag_40:\n        /* \"#utility.yul\":4585:4589   */\n      0x00\n        /* \"#utility.yul\":4623:4625   */\n      0x20\n        /* \"#utility.yul\":4612:4621   */\n      dup3\n        /* \"#utility.yul\":4608:4626   */\n      add\n        /* \"#utility.yul\":4600:4626   */\n      swap1\n      pop\n        /* \"#utility.yul\":4672:4681   */\n      dup2\n        /* \"#utility.yul\":4666:4670   */\n      dup2\n        /* \"#utility.yul\":4662:4682   */\n      sub\n        /* \"#utility.yul\":4658:4659   */\n      0x00\n        /* \"#utility.yul\":4647:4656   */\n      dup4\n        /* \"#utility.yul\":4643:4660   */\n      add\n        /* \"#utility.yul\":4636:4683   */\n      mstore\n        /* \"#utility.yul\":4700:4831   */\n      tag_109\n        /* \"#utility.yul\":4826:4830   */\n      dup2\n        /* \"#utility.yul\":4700:4831   */\n      tag_59\n      jump\t// in\n    tag_109:\n        /* \"#utility.yul\":4692:4831   */\n      swap1\n      pop\n        /* \"#utility.yul\":4419:4838   */\n      swap2\n      swap1\n      pop\n      jump\t// out\n\n    auxdata: 0xa264697066735822122001b6bd613a1cec6d91cfd98e8684e2776ce1e945d58d5339b36136c74be21be564736f6c63430008120033\n}\n",
				"bytecode": {
					"linkReferences": {},
					"object": "60806040523480156200001157600080fd5b5060405162000b8038038062000b8083398181016040528101906200003791906200027a565b8383336000806101000a81548173ffffffffffffffffffffffffffffffffffffffff021916908373ffffffffffffffffffffffffffffffffffffffff16021790555081600190816200008a91906200054c565b5080600281905550505081600381905550806004819055505050505062000633565b6000604051905090565b600080fd5b600080fd5b600080fd5b600080fd5b6000601f19601f8301169050919050565b7f4e487b7100000000000000000000000000000000000000000000000000000000600052604160045260246000fd5b6200011582620000ca565b810181811067ffffffffffffffff82111715620001375762000136620000db565b5b80604052505050565b60006200014c620000ac565b90506200015a82826200010a565b919050565b600067ffffffffffffffff8211156200017d576200017c620000db565b5b6200018882620000ca565b9050602081019050919050565b60005b83811015620001b557808201518184015260208101905062000198565b60008484015250505050565b6000620001d8620001d2846200015f565b62000140565b905082815260208101848484011115620001f757620001f6620000c5565b5b6200020484828562000195565b509392505050565b600082601f830112620002245762000223620000c0565b5b815162000236848260208601620001c1565b91505092915050565b6000819050919050565b62000254816200023f565b81146200026057600080fd5b50565b600081519050620002748162000249565b92915050565b60008060008060808587031215620002975762000296620000b6565b5b600085015167ffffffffffffffff811115620002b857620002b7620000bb565b5b620002c6878288016200020c565b9450506020620002d98782880162000263565b9350506040620002ec8782880162000263565b9250506060620002ff8782880162000263565b91505092959194509250565b600081519050919050565b7f4e487b7100000000000000000000000000000000000000000000000000000000600052602260045260246000fd5b600060028204905060018216806200035e57607f821691505b60208210810362000374576200037362000316565b5b50919050565b60008190508160005260206000209050919050565b60006020601f8301049050919050565b600082821b905092915050565b600060088302620003de7fffffffffffffffffffffffffffffffffffffffffffffffffffffffffffffffff826200039f565b620003ea86836200039f565b95508019841693508086168417925050509392505050565b6000819050919050565b60006200042d6200042762000421846200023f565b62000402565b6200023f565b9050919050565b6000819050919050565b62000449836200040c565b62000461620004588262000434565b848454620003ac565b825550505050565b600090565b6200047862000469565b620004858184846200043e565b505050565b5b81811015620004ad57620004a16000826200046e565b6001810190506200048b565b5050565b601f821115620004fc57620004c6816200037a565b620004d1846200038f565b81016020851015620004e1578190505b620004f9620004f0856200038f565b8301826200048a565b50505b505050565b600082821c905092915050565b6000620005216000198460080262000501565b1980831691505092915050565b60006200053c83836200050e565b9150826002028217905092915050565b62000557826200030b565b67ffffffffffffffff811115620005735762000572620000db565b5b6200057f825462000345565b6200058c828285620004b1565b600060209050601f831160018114620005c45760008415620005af578287015190505b620005bb85826200052e565b8655506200062b565b601f198416620005d4866200037a565b60005b82811015620005fe57848901518255600182019150602085019450602081019050620005d7565b868310156200061e57848901516200061a601f8916826200050e565b8355505b6001600288020188555050505b505050505050565b61053d80620006436000396000f3fe608060405234801561001057600080fd5b50600436106100625760003560e01c8063516f279e146100675780638da5cb5b14610085578063a035b1fe146100a3578063a2b40d19146100c1578063bb45bfd6146100dd578063e3007953146100fb575b600080fd5b61006f610119565b60405161007c9190610305565b60405180910390f35b61008d6101a7565b60405161009a9190610368565b60405180910390f35b6100ab6101cb565b6040516100b8919061039c565b60405180910390f35b6100db60048036038101906100d691906103e8565b6101d1565b005b6100e5610269565b6040516100f2919061039c565b60405180910390f35b61010361026f565b604051610110919061039c565b60405180910390f35b6001805461012690610444565b80601f016020809104026020016040519081016040528092919081815260200182805461015290610444565b801561019f5780601f106101745761010080835404028352916020019161019f565b820191906000526020600020905b81548152906001019060200180831161018257829003601f168201915b505050505081565b60008054906101000a900473ffffffffffffffffffffffffffffffffffffffff1681565b60025481565b60008054906101000a900473ffffffffffffffffffffffffffffffffffffffff1673ffffffffffffffffffffffffffffffffffffffff163373ffffffffffffffffffffffffffffffffffffffff161461025f576040517f08c379a0000000000000000000000000000000000000000000000000000000008152600401610256906104e7565b60405180910390fd5b8060028190555050565b60035481565b60045481565b600081519050919050565b600082825260208201905092915050565b60005b838110156102af578082015181840152602081019050610294565b60008484015250505050565b6000601f19601f8301169050919050565b60006102d782610275565b6102e18185610280565b93506102f1818560208601610291565b6102fa816102bb565b840191505092915050565b6000602082019050818103600083015261031f81846102cc565b905092915050565b600073ffffffffffffffffffffffffffffffffffffffff82169050919050565b600061035282610327565b9050919050565b61036281610347565b82525050565b600060208201905061037d6000830184610359565b92915050565b6000819050919050565b61039681610383565b82525050565b60006020820190506103b1600083018461038d565b92915050565b600080fd5b6103c581610383565b81146103d057600080fd5b50565b6000813590506103e2816103bc565b92915050565b6000602082840312156103fe576103fd6103b7565b5b600061040c848285016103d3565b91505092915050565b7f4e487b7100000000000000000000000000000000000000000000000000000000600052602260045260246000fd5b6000600282049050600182168061045c57607f821691505b60208210810361046f5761046e610415565b5b50919050565b7f4f6e6c7920746865206f776e65722063616e2063616c6c20746869732066756e60008201527f6374696f6e000000000000000000000000000000000000000000000000000000602082015250565b60006104d1602583610280565b91506104dc82610475565b604082019050919050565b60006020820190508181036000830152610500816104c4565b905091905056fea264697066735822122001b6bd613a1cec6d91cfd98e8684e2776ce1e945d58d5339b36136c74be21be564736f6c63430008120033",
					"opcodes": "PUSH1 0x80 PUSH1 0x40 MSTORE CALLVALUE DUP1 ISZERO PUSH3 0x11 JUMPI PUSH1 0x0 DUP1 REVERT JUMPDEST POP PUSH1 0x40 MLOAD PUSH3 0xB80 CODESIZE SUB DUP1 PUSH3 0xB80 DUP4 CODECOPY DUP2 DUP2 ADD PUSH1 0x40 MSTORE DUP2 ADD SWAP1 PUSH3 0x37 SWAP2 SWAP1 PUSH3 0x27A JUMP JUMPDEST DUP4 DUP4 CALLER PUSH1 0x0 DUP1 PUSH2 0x100 EXP DUP2 SLOAD DUP2 PUSH20 0xFFFFFFFFFFFFFFFFFFFFFFFFFFFFFFFFFFFFFFFF MUL NOT AND SWAP1 DUP4 PUSH20 0xFFFFFFFFFFFFFFFFFFFFFFFFFFFFFFFFFFFFFFFF AND MUL OR SWAP1 SSTORE POP DUP2 PUSH1 0x1 SWAP1 DUP2 PUSH3 0x8A SWAP2 SWAP1 PUSH3 0x54C JUMP JUMPDEST POP DUP1 PUSH1 0x2 DUP2 SWAP1 SSTORE POP POP POP DUP2 PUSH1 0x3 DUP2 SWAP1 SSTORE POP DUP1 PUSH1 0x4 DUP2 SWAP1 SSTORE POP POP POP POP POP PUSH3 0x633 JUMP JUMPDEST PUSH1 0x0 PUSH1 0x40 MLOAD SWAP1 POP SWAP1 JUMP JUMPDEST PUSH1 0x0 DUP1 REVERT JUMPDEST PUSH1 0x0 DUP1 REVERT JUMPDEST PUSH1 0x0 DUP1 REVERT JUMPDEST PUSH1 0x0 DUP1 REVERT JUMPDEST PUSH1 0x0 PUSH1 0x1F NOT PUSH1 0x1F DUP4 ADD AND SWAP1 POP SWAP2 SWAP1 POP JUMP JUMPDEST PUSH32 0x4E487B7100000000000000000000000000000000000000000000000000000000 PUSH1 0x0 MSTORE PUSH1 0x41 PUSH1 0x4 MSTORE PUSH1 0x24 PUSH1 0x0 REVERT JUMPDEST PUSH3 0x115 DUP3 PUSH3 0xCA JUMP JUMPDEST DUP2 ADD DUP2 DUP2 LT PUSH8 0xFFFFFFFFFFFFFFFF DUP3 GT OR ISZERO PUSH3 0x137 JUMPI PUSH3 0x136 PUSH3 0xDB JUMP JUMPDEST JUMPDEST DUP1 PUSH1 0x40 MSTORE POP POP POP JUMP JUMPDEST PUSH1 0x0 PUSH3 0x14C PUSH3 0xAC JUMP JUMPDEST SWAP1 POP PUSH3 0x15A DUP3 DUP3 PUSH3 0x10A JUMP JUMPDEST SWAP2 SWAP1 POP JUMP JUMPDEST PUSH1 0x0 PUSH8 0xFFFFFFFFFFFFFFFF DUP3 GT ISZERO PUSH3 0x17D JUMPI PUSH3 0x17C PUSH3 0xDB JUMP JUMPDEST JUMPDEST PUSH3 0x188 DUP3 PUSH3 0xCA JUMP JUMPDEST SWAP1 POP PUSH1 0x20 DUP2 ADD SWAP1 POP SWAP2 SWAP1 POP JUMP JUMPDEST PUSH1 0x0 JUMPDEST DUP4 DUP2 LT ISZERO PUSH3 0x1B5 JUMPI DUP1 DUP3 ADD MLOAD DUP2 DUP5 ADD MSTORE PUSH1 0x20 DUP2 ADD SWAP1 POP PUSH3 0x198 JUMP JUMPDEST PUSH1 0x0 DUP5 DUP5 ADD MSTORE POP POP POP POP JUMP JUMPDEST PUSH1 0x0 PUSH3 0x1D8 PUSH3 0x1D2 DUP5 PUSH3 0x15F JUMP JUMPDEST PUSH3 0x140 JUMP JUMPDEST SWAP1 POP DUP3 DUP2 MSTORE PUSH1 0x20 DUP2 ADD DUP5 DUP5 DUP5 ADD GT ISZERO PUSH3 0x1F7 JUMPI PUSH3 0x1F6 PUSH3 0xC5 JUMP JUMPDEST JUMPDEST PUSH3 0x204 DUP5 DUP3 DUP6 PUSH3 0x195 JUMP JUMPDEST POP SWAP4 SWAP3 POP POP POP JUMP JUMPDEST PUSH1 0x0 DUP3 PUSH1 0x1F DUP4 ADD SLT PUSH3 0x224 JUMPI PUSH3 0x223 PUSH3 0xC0 JUMP JUMPDEST JUMPDEST DUP2 MLOAD PUSH3 0x236 DUP5 DUP3 PUSH1 0x20 DUP7 ADD PUSH3 0x1C1 JUMP JUMPDEST SWAP2 POP POP SWAP3 SWAP2 POP POP JUMP JUMPDEST PUSH1 0x0 DUP2 SWAP1 POP SWAP2 SWAP1 POP JUMP JUMPDEST PUSH3 0x254 DUP2 PUSH3 0x23F JUMP JUMPDEST DUP2 EQ PUSH3 0x260 JUMPI PUSH1 0x0 DUP1 REVERT JUMPDEST POP JUMP JUMPDEST PUSH1 0x0 DUP2 MLOAD SWAP1 POP PUSH3 0x274 DUP2 PUSH3 0x249 JUMP JUMPDEST SWAP3 SWAP2 POP POP JUMP JUMPDEST PUSH1 0x0 DUP1 PUSH1 0x0 DUP1 PUSH1 0x80 DUP6 DUP8 SUB SLT ISZERO PUSH3 0x297 JUMPI PUSH3 0x296 PUSH3 0xB6 JUMP JUMPDEST JUMPDEST PUSH1 0x0 DUP6 ADD MLOAD PUSH8 0xFFFFFFFFFFFFFFFF DUP2 GT ISZERO PUSH3 0x2B8 JUMPI PUSH3 0x2B7 PUSH3 0xBB JUMP JUMPDEST JUMPDEST PUSH3 0x2C6 DUP8 DUP3 DUP9 ADD PUSH3 0x20C JUMP JUMPDEST SWAP5 POP POP PUSH1 0x20 PUSH3 0x2D9 DUP8 DUP3 DUP9 ADD PUSH3 0x263 JUMP JUMPDEST SWAP4 POP POP PUSH1 0x40 PUSH3 0x2EC DUP8 DUP3 DUP9 ADD PUSH3 0x263 JUMP JUMPDEST SWAP3 POP POP PUSH1 0x60 PUSH3 0x2FF DUP8 DUP3 DUP9 ADD PUSH3 0x263 JUMP JUMPDEST SWAP2 POP POP SWAP3 SWAP6 SWAP2 SWAP5 POP SWAP3 POP JUMP JUMPDEST PUSH1 0x0 DUP2 MLOAD SWAP1 POP SWAP2 SWAP1 POP JUMP JUMPDEST PUSH32 0x4E487B7100000000000000000000000000000000000000000000000000000000 PUSH1 0x0 MSTORE PUSH1 0x22 PUSH1 0x4 MSTORE PUSH1 0x24 PUSH1 0x0 REVERT JUMPDEST PUSH1 0x0 PUSH1 0x2 DUP3 DIV SWAP1 POP PUSH1 0x1 DUP3 AND DUP1 PUSH3 0x35E JUMPI PUSH1 0x7F DUP3 AND SWAP2 POP JUMPDEST PUSH1 0x20 DUP3 LT DUP2 SUB PUSH3 0x374 JUMPI PUSH3 0x373 PUSH3 0x316 JUMP JUMPDEST JUMPDEST POP SWAP2 SWAP1 POP JUMP JUMPDEST PUSH1 0x0 DUP2 SWAP1 POP DUP2 PUSH1 0x0 MSTORE PUSH1 0x20 PUSH1 0x0 KECCAK256 SWAP1 POP SWAP2 SWAP1 POP JUMP JUMPDEST PUSH1 0x0 PUSH1 0x20 PUSH1 0x1F DUP4 ADD DIV SWAP1 POP SWAP2 SWAP1 POP JUMP JUMPDEST PUSH1 0x0 DUP3 DUP3 SHL SWAP1 POP SWAP3 SWAP2 POP POP JUMP JUMPDEST PUSH1 0x0 PUSH1 0x8 DUP4 MUL PUSH3 0x3DE PUSH32 0xFFFFFFFFFFFFFFFFFFFFFFFFFFFFFFFFFFFFFFFFFFFFFFFFFFFFFFFFFFFFFFFF DUP3 PUSH3 0x39F JUMP JUMPDEST PUSH3 0x3EA DUP7 DUP4 PUSH3 0x39F JUMP JUMPDEST SWAP6 POP DUP1 NOT DUP5 AND SWAP4 POP DUP1 DUP7 AND DUP5 OR SWAP3 POP POP POP SWAP4 SWAP3 POP POP POP JUMP JUMPDEST PUSH1 0x0 DUP2 SWAP1 POP SWAP2 SWAP1 POP JUMP JUMPDEST PUSH1 0x0 PUSH3 0x42D PUSH3 0x427 PUSH3 0x421 DUP5 PUSH3 0x23F JUMP JUMPDEST PUSH3 0x402 JUMP JUMPDEST PUSH3 0x23F JUMP JUMPDEST SWAP1 POP SWAP2 SWAP1 POP JUMP JUMPDEST PUSH1 0x0 DUP2 SWAP1 POP SWAP2 SWAP1 POP JUMP JUMPDEST PUSH3 0x449 DUP4 PUSH3 0x40C JUMP JUMPDEST PUSH3 0x461 PUSH3 0x458 DUP3 PUSH3 0x434 JUMP JUMPDEST DUP5 DUP5 SLOAD PUSH3 0x3AC JUMP JUMPDEST DUP3 SSTORE POP POP POP POP JUMP JUMPDEST PUSH1 0x0 SWAP1 JUMP JUMPDEST PUSH3 0x478 PUSH3 0x469 JUMP JUMPDEST PUSH3 0x485 DUP2 DUP5 DUP5 PUSH3 0x43E JUMP JUMPDEST POP POP POP JUMP JUMPDEST JUMPDEST DUP2 DUP2 LT ISZERO PUSH3 0x4AD JUMPI PUSH3 0x4A1 PUSH1 0x0 DUP3 PUSH3 0x46E JUMP JUMPDEST PUSH1 0x1 DUP2 ADD SWAP1 POP PUSH3 0x48B JUMP JUMPDEST POP POP JUMP JUMPDEST PUSH1 0x1F DUP3 GT ISZERO PUSH3 0x4FC JUMPI PUSH3 0x4C6 DUP2 PUSH3 0x37A JUMP JUMPDEST PUSH3 0x4D1 DUP5 PUSH3 0x38F JUMP JUMPDEST DUP2 ADD PUSH1 0x20 DUP6 LT ISZERO PUSH3 0x4E1 JUMPI DUP2 SWAP1 POP JUMPDEST PUSH3 0x4F9 PUSH3 0x4F0 DUP6 PUSH3 0x38F JUMP JUMPDEST DUP4 ADD DUP3 PUSH3 0x48A JUMP JUMPDEST POP POP JUMPDEST POP POP POP JUMP JUMPDEST PUSH1 0x0 DUP3 DUP3 SHR SWAP1 POP SWAP3 SWAP2 POP POP JUMP JUMPDEST PUSH1 0x0 PUSH3 0x521 PUSH1 0x0 NOT DUP5 PUSH1 0x8 MUL PUSH3 0x501 JUMP JUMPDEST NOT DUP1 DUP4 AND SWAP2 POP POP SWAP3 SWAP2 POP POP JUMP JUMPDEST PUSH1 0x0 PUSH3 0x53C DUP4 DUP4 PUSH3 0x50E JUMP JUMPDEST SWAP2 POP DUP3 PUSH1 0x2 MUL DUP3 OR SWAP1 POP SWAP3 SWAP2 POP POP JUMP JUMPDEST PUSH3 0x557 DUP3 PUSH3 0x30B JUMP JUMPDEST PUSH8 0xFFFFFFFFFFFFFFFF DUP2 GT ISZERO PUSH3 0x573 JUMPI PUSH3 0x572 PUSH3 0xDB JUMP JUMPDEST JUMPDEST PUSH3 0x57F DUP3 SLOAD PUSH3 0x345 JUMP JUMPDEST PUSH3 0x58C DUP3 DUP3 DUP6 PUSH3 0x4B1 JUMP JUMPDEST PUSH1 0x0 PUSH1 0x20 SWAP1 POP PUSH1 0x1F DUP4 GT PUSH1 0x1 DUP2 EQ PUSH3 0x5C4 JUMPI PUSH1 0x0 DUP5 ISZERO PUSH3 0x5AF JUMPI DUP3 DUP8 ADD MLOAD SWAP1 POP JUMPDEST PUSH3 0x5BB DUP6 DUP3 PUSH3 0x52E JUMP JUMPDEST DUP7 SSTORE POP PUSH3 0x62B JUMP JUMPDEST PUSH1 0x1F NOT DUP5 AND PUSH3 0x5D4 DUP7 PUSH3 0x37A JUMP JUMPDEST PUSH1 0x0 JUMPDEST DUP3 DUP2 LT ISZERO PUSH3 0x5FE JUMPI DUP5 DUP10 ADD MLOAD DUP3 SSTORE PUSH1 0x1 DUP3 ADD SWAP2 POP PUSH1 0x20 DUP6 ADD SWAP5 POP PUSH1 0x20 DUP2 ADD SWAP1 POP PUSH3 0x5D7 JUMP JUMPDEST DUP7 DUP4 LT ISZERO PUSH3 0x61E JUMPI DUP5 DUP10 ADD MLOAD PUSH3 0x61A PUSH1 0x1F DUP10 AND DUP3 PUSH3 0x50E JUMP JUMPDEST DUP4 SSTORE POP JUMPDEST PUSH1 0x1 PUSH1 0x2 DUP9 MUL ADD DUP9 SSTORE POP POP POP JUMPDEST POP POP POP POP POP POP JUMP JUMPDEST PUSH2 0x53D DUP1 PUSH3 0x643 PUSH1 0x0 CODECOPY PUSH1 0x0 RETURN INVALID PUSH1 0x80 PUSH1 0x40 MSTORE CALLVALUE DUP1 ISZERO PUSH2 0x10 JUMPI PUSH1 0x0 DUP1 REVERT JUMPDEST POP PUSH1 0x4 CALLDATASIZE LT PUSH2 0x62 JUMPI PUSH1 0x0 CALLDATALOAD PUSH1 0xE0 SHR DUP1 PUSH4 0x516F279E EQ PUSH2 0x67 JUMPI DUP1 PUSH4 0x8DA5CB5B EQ PUSH2 0x85 JUMPI DUP1 PUSH4 0xA035B1FE EQ PUSH2 0xA3 JUMPI DUP1 PUSH4 0xA2B40D19 EQ PUSH2 0xC1 JUMPI DUP1 PUSH4 0xBB45BFD6 EQ PUSH2 0xDD JUMPI DUP1 PUSH4 0xE3007953 EQ PUSH2 0xFB JUMPI JUMPDEST PUSH1 0x0 DUP1 REVERT JUMPDEST PUSH2 0x6F PUSH2 0x119 JUMP JUMPDEST PUSH1 0x40 MLOAD PUSH2 0x7C SWAP2 SWAP1 PUSH2 0x305 JUMP JUMPDEST PUSH1 0x40 MLOAD DUP1 SWAP2 SUB SWAP1 RETURN JUMPDEST PUSH2 0x8D PUSH2 0x1A7 JUMP JUMPDEST PUSH1 0x40 MLOAD PUSH2 0x9A SWAP2 SWAP1 PUSH2 0x368 JUMP JUMPDEST PUSH1 0x40 MLOAD DUP1 SWAP2 SUB SWAP1 RETURN JUMPDEST PUSH2 0xAB PUSH2 0x1CB JUMP JUMPDEST PUSH1 0x40 MLOAD PUSH2 0xB8 SWAP2 SWAP1 PUSH2 0x39C JUMP JUMPDEST PUSH1 0x40 MLOAD DUP1 SWAP2 SUB SWAP1 RETURN JUMPDEST PUSH2 0xDB PUSH1 0x4 DUP1 CALLDATASIZE SUB DUP2 ADD SWAP1 PUSH2 0xD6 SWAP2 SWAP1 PUSH2 0x3E8 JUMP JUMPDEST PUSH2 0x1D1 JUMP JUMPDEST STOP JUMPDEST PUSH2 0xE5 PUSH2 0x269 JUMP JUMPDEST PUSH1 0x40 MLOAD PUSH2 0xF2 SWAP2 SWAP1 PUSH2 0x39C JUMP JUMPDEST PUSH1 0x40 MLOAD DUP1 SWAP2 SUB SWAP1 RETURN JUMPDEST PUSH2 0x103 PUSH2 0x26F JUMP JUMPDEST PUSH1 0x40 MLOAD PUSH2 0x110 SWAP2 SWAP1 PUSH2 0x39C JUMP JUMPDEST PUSH1 0x40 MLOAD DUP1 SWAP2 SUB SWAP1 RETURN JUMPDEST PUSH1 0x1 DUP1 SLOAD PUSH2 0x126 SWAP1 PUSH2 0x444 JUMP JUMPDEST DUP1 PUSH1 0x1F ADD PUSH1 0x20 DUP1 SWAP2 DIV MUL PUSH1 0x20 ADD PUSH1 0x40 MLOAD SWAP1 DUP2 ADD PUSH1 0x40 MSTORE DUP1 SWAP3 SWAP2 SWAP1 DUP2 DUP2 MSTORE PUSH1 0x20 ADD DUP3 DUP1 SLOAD PUSH2 0x152 SWAP1 PUSH2 0x444 JUMP JUMPDEST DUP1 ISZERO PUSH2 0x19F JUMPI DUP1 PUSH1 0x1F LT PUSH2 0x174 JUMPI PUSH2 0x100 DUP1 DUP4 SLOAD DIV MUL DUP4 MSTORE SWAP2 PUSH1 0x20 ADD SWAP2 PUSH2 0x19F JUMP JUMPDEST DUP3 ADD SWAP2 SWAP1 PUSH1 0x0 MSTORE PUSH1 0x20 PUSH1 0x0 KECCAK256 SWAP1 JUMPDEST DUP2 SLOAD DUP2 MSTORE SWAP1 PUSH1 0x1 ADD SWAP1 PUSH1 0x20 ADD DUP1 DUP4 GT PUSH2 0x182 JUMPI DUP3 SWAP1 SUB PUSH1 0x1F AND DUP3 ADD SWAP2 JUMPDEST POP POP POP POP POP DUP2 JUMP JUMPDEST PUSH1 0x0 DUP1 SLOAD SWAP1 PUSH2 0x100 EXP SWAP1 DIV PUSH20 0xFFFFFFFFFFFFFFFFFFFFFFFFFFFFFFFFFFFFFFFF AND DUP2 JUMP JUMPDEST PUSH1 0x2 SLOAD DUP2 JUMP JUMPDEST PUSH1 0x0 DUP1 SLOAD SWAP1 PUSH2 0x100 EXP SWAP1 DIV PUSH20 0xFFFFFFFFFFFFFFFFFFFFFFFFFFFFFFFFFFFFFFFF AND PUSH20 0xFFFFFFFFFFFFFFFFFFFFFFFFFFFFFFFFFFFFFFFF AND CALLER PUSH20 0xFFFFFFFFFFFFFFFFFFFFFFFFFFFFFFFFFFFFFFFF AND EQ PUSH2 0x25F JUMPI PUSH1 0x40 MLOAD PUSH32 0x8C379A000000000000000000000000000000000000000000000000000000000 DUP2 MSTORE PUSH1 0x4 ADD PUSH2 0x256 SWAP1 PUSH2 0x4E7 JUMP JUMPDEST PUSH1 0x40 MLOAD DUP1 SWAP2 SUB SWAP1 REVERT JUMPDEST DUP1 PUSH1 0x2 DUP2 SWAP1 SSTORE POP POP JUMP JUMPDEST PUSH1 0x3 SLOAD DUP2 JUMP JUMPDEST PUSH1 0x4 SLOAD DUP2 JUMP JUMPDEST PUSH1 0x0 DUP2 MLOAD SWAP1 POP SWAP2 SWAP1 POP JUMP JUMPDEST PUSH1 0x0 DUP3 DUP3 MSTORE PUSH1 0x20 DUP3 ADD SWAP1 POP SWAP3 SWAP2 POP POP JUMP JUMPDEST PUSH1 0x0 JUMPDEST DUP4 DUP2 LT ISZERO PUSH2 0x2AF JUMPI DUP1 DUP3 ADD MLOAD DUP2 DUP5 ADD MSTORE PUSH1 0x20 DUP2 ADD SWAP1 POP PUSH2 0x294 JUMP JUMPDEST PUSH1 0x0 DUP5 DUP5 ADD MSTORE POP POP POP POP JUMP JUMPDEST PUSH1 0x0 PUSH1 0x1F NOT PUSH1 0x1F DUP4 ADD AND SWAP1 POP SWAP2 SWAP1 POP JUMP JUMPDEST PUSH1 0x0 PUSH2 0x2D7 DUP3 PUSH2 0x275 JUMP JUMPDEST PUSH2 0x2E1 DUP2 DUP6 PUSH2 0x280 JUMP JUMPDEST SWAP4 POP PUSH2 0x2F1 DUP2 DUP6 PUSH1 0x20 DUP7 ADD PUSH2 0x291 JUMP JUMPDEST PUSH2 0x2FA DUP2 PUSH2 0x2BB JUMP JUMPDEST DUP5 ADD SWAP2 POP POP SWAP3 SWAP2 POP POP JUMP JUMPDEST PUSH1 0x0 PUSH1 0x20 DUP3 ADD SWAP1 POP DUP2 DUP2 SUB PUSH1 0x0 DUP4 ADD MSTORE PUSH2 0x31F DUP2 DUP5 PUSH2 0x2CC JUMP JUMPDEST SWAP1 POP SWAP3 SWAP2 POP POP JUMP JUMPDEST PUSH1 0x0 PUSH20 0xFFFFFFFFFFFFFFFFFFFFFFFFFFFFFFFFFFFFFFFF DUP3 AND SWAP1 POP SWAP2 SWAP1 POP JUMP JUMPDEST PUSH1 0x0 PUSH2 0x352 DUP3 PUSH2 0x327 JUMP JUMPDEST SWAP1 POP SWAP2 SWAP1 POP JUMP JUMPDEST PUSH2 0x362 DUP2 PUSH2 0x347 JUMP JUMPDEST DUP3 MSTORE POP POP JUMP JUMPDEST PUSH1 0x0 PUSH1 0x20 DUP3 ADD SWAP1 POP PUSH2 0x37D PUSH1 0x0 DUP4 ADD DUP5 PUSH2 0x359 JUMP JUMPDEST SWAP3 SWAP2 POP POP JUMP JUMPDEST PUSH1 0x0 DUP2 SWAP1 POP SWAP2 SWAP1 POP JUMP JUMPDEST PUSH2 0x396 DUP2 PUSH2 0x383 JUMP JUMPDEST DUP3 MSTORE POP POP JUMP JUMPDEST PUSH1 0x0 PUSH1 0x20 DUP3 ADD SWAP1 POP PUSH2 0x3B1 PUSH1 0x0 DUP4 ADD DUP5 PUSH2 0x38D JUMP JUMPDEST SWAP3 SWAP2 POP POP JUMP JUMPDEST PUSH1 0x0 DUP1 REVERT JUMPDEST PUSH2 0x3C5 DUP2 PUSH2 0x383 JUMP JUMPDEST DUP2 EQ PUSH2 0x3D0 JUMPI PUSH1 0x0 DUP1 REVERT JUMPDEST POP JUMP JUMPDEST PUSH1 0x0 DUP2 CALLDATALOAD SWAP1 POP PUSH2 0x3E2 DUP2 PUSH2 0x3BC JUMP JUMPDEST SWAP3 SWAP2 POP POP JUMP JUMPDEST PUSH1 0x0 PUSH1 0x20 DUP3 DUP5 SUB SLT ISZERO PUSH2 0x3FE JUMPI PUSH2 0x3FD PUSH2 0x3B7 JUMP JUMPDEST JUMPDEST PUSH1 0x0 PUSH2 0x40C DUP5 DUP3 DUP6 ADD PUSH2 0x3D3 JUMP JUMPDEST SWAP2 POP POP SWAP3 SWAP2 POP POP JUMP JUMPDEST PUSH32 0x4E487B7100000000000000000000000000000000000000000000000000000000 PUSH1 0x0 MSTORE PUSH1 0x22 PUSH1 0x4 MSTORE PUSH1 0x24 PUSH1 0x0 REVERT JUMPDEST PUSH1 0x0 PUSH1 0x2 DUP3 DIV SWAP1 POP PUSH1 0x1 DUP3 AND DUP1 PUSH2 0x45C JUMPI PUSH1 0x7F DUP3 AND SWAP2 POP JUMPDEST PUSH1 0x20 DUP3 LT DUP2 SUB PUSH2 0x46F JUMPI PUSH2 0x46E PUSH2 0x415 JUMP JUMPDEST JUMPDEST POP SWAP2 SWAP1 POP JUMP JUMPDEST PUSH32 0x4F6E6C7920746865206F776E65722063616E2063616C6C20746869732066756E PUSH1 0x0 DUP3 ADD MSTORE PUSH32 0x6374696F6E000000000000000000000000000000000000000000000000000000 PUSH1 0x20 DUP3 ADD MSTORE POP JUMP JUMPDEST PUSH1 0x0 PUSH2 0x4D1 PUSH1 0x25 DUP4 PUSH2 0x280 JUMP JUMPDEST SWAP2 POP PUSH2 0x4DC DUP3 PUSH2 0x475 JUMP JUMPDEST PUSH1 0x40 DUP3 ADD SWAP1 POP SWAP2 SWAP1 POP JUMP JUMPDEST PUSH1 0x0 PUSH1 0x20 DUP3 ADD SWAP1 POP DUP2 DUP2 SUB PUSH1 0x0 DUP4 ADD MSTORE PUSH2 0x500 DUP2 PUSH2 0x4C4 JUMP JUMPDEST SWAP1 POP SWAP2 SWAP1 POP JUMP INVALID LOG2 PUSH5 0x6970667358 0x22 SLT KECCAK256 ADD 0xB6 0xBD PUSH2 0x3A1C 0xEC PUSH14 0x91CFD98E8684E2776CE1E945D58D MSTORE8 CODECOPY 0xB3 PUSH2 0x36C7 0x4B 0xE2 SHL 0xE5 PUSH5 0x736F6C6343 STOP ADDMOD SLT STOP CALLER "
				},
				"gasEstimates": {
					"creation": {
						"codeDepositCost": "268200",
						"executionCost": "infinite",
						"totalCost": "infinite"
					},
					"external": {
						"changePrice(uint256)": "24731",
						"location()": "infinite",
						"numBathrooms()": "2517",
						"numBedrooms()": "2495",
						"owner()": "2511",
						"price()": "2451"
					}
				},
				"methodIdentifiers": {
					"changePrice(uint256)": "a2b40d19",
					"location()": "516f279e",
					"numBathrooms()": "e3007953",
					"numBedrooms()": "bb45bfd6",
					"owner()": "8da5cb5b",
					"price()": "a035b1fe"
				}
			},
			"storageLayout": {
				"storage": [
					{
						"astId": 3,
						"contract": "landiheritance.sol:ResidentialProperty",
						"label": "owner",
						"offset": 0,
						"slot": "0",
						"type": "t_address"
					},
					{
						"astId": 5,
						"contract": "landiheritance.sol:ResidentialProperty",
						"label": "location",
						"offset": 0,
						"slot": "1",
						"type": "t_string_storage"
					},
					{
						"astId": 7,
						"contract": "landiheritance.sol:ResidentialProperty",
						"label": "price",
						"offset": 0,
						"slot": "2",
						"type": "t_uint256"
					},
					{
						"astId": 57,
						"contract": "landiheritance.sol:ResidentialProperty",
						"label": "numBedrooms",
						"offset": 0,
						"slot": "3",
						"type": "t_uint256"
					},
					{
						"astId": 59,
						"contract": "landiheritance.sol:ResidentialProperty",
						"label": "numBathrooms",
						"offset": 0,
						"slot": "4",
						"type": "t_uint256"
					}
				],
				"types": {
					"t_address": {
						"encoding": "inplace",
						"label": "address",
						"numberOfBytes": "20"
					},
					"t_string_storage": {
						"encoding": "bytes",
						"label": "string",
						"numberOfBytes": "32"
					},
					"t_uint256": {
						"encoding": "inplace",
						"label": "uint256",
						"numberOfBytes": "32"
					}
				}
			},
			"userdoc": {
				"kind": "user",
				"methods": {},
				"version": 1
			}
		}
	}
}