{
	"doctorrecord.sol": {
		"DoctorRecord": {
			"abi": [
				{
					"anonymous": false,
					"inputs": [
						{
							"indexed": true,
							"internalType": "address",
							"name": "patientAddress",
							"type": "address"
						},
						{
							"indexed": false,
							"internalType": "string",
							"name": "name",
							"type": "string"
						},
						{
							"indexed": false,
							"internalType": "uint256",
							"name": "age",
							"type": "uint256"
						},
						{
							"indexed": false,
							"internalType": "string",
							"name": "diagnosis",
							"type": "string"
						},
						{
							"indexed": false,
							"internalType": "string",
							"name": "prescription",
							"type": "string"
						}
					],
					"name": "PatientAdded",
					"type": "event"
				},
				{
					"anonymous": false,
					"inputs": [
						{
							"indexed": true,
							"internalType": "address",
							"name": "patientAddress",
							"type": "address"
						},
						{
							"indexed": false,
							"internalType": "string",
							"name": "name",
							"type": "string"
						},
						{
							"indexed": false,
							"internalType": "uint256",
							"name": "age",
							"type": "uint256"
						},
						{
							"indexed": false,
							"internalType": "string",
							"name": "diagnosis",
							"type": "string"
						},
						{
							"indexed": false,
							"internalType": "string",
							"name": "prescription",
							"type": "string"
						}
					],
					"name": "PatientUpdated",
					"type": "event"
				},
				{
					"inputs": [
						{
							"internalType": "string",
							"name": "name",
							"type": "string"
						},
						{
							"internalType": "uint256",
							"name": "age",
							"type": "uint256"
						},
						{
							"internalType": "string",
							"name": "diagnosis",
							"type": "string"
						},
						{
							"internalType": "string",
							"name": "prescription",
							"type": "string"
						}
					],
					"name": "addPatient",
					"outputs": [],
					"stateMutability": "nonpayable",
					"type": "function"
				},
				{
					"inputs": [
						{
							"internalType": "address",
							"name": "patientAddress",
							"type": "address"
						}
					],
					"name": "getPatient",
					"outputs": [
						{
							"internalType": "string",
							"name": "",
							"type": "string"
						},
						{
							"internalType": "uint256",
							"name": "",
							"type": "uint256"
						},
						{
							"internalType": "string",
							"name": "",
							"type": "string"
						},
						{
							"internalType": "string",
							"name": "",
							"type": "string"
						}
					],
					"stateMutability": "view",
					"type": "function"
				},
				{
					"inputs": [
						{
							"internalType": "string",
							"name": "name",
							"type": "string"
						},
						{
							"internalType": "uint256",
							"name": "age",
							"type": "uint256"
						},
						{
							"internalType": "string",
							"name": "diagnosis",
							"type": "string"
						},
						{
							"internalType": "string",
							"name": "prescription",
							"type": "string"
						}
					],
					"name": "updatePatient",
					"outputs": [],
					"stateMutability": "nonpayable",
					"type": "function"
				}
			],
			"devdoc": {
				"kind": "dev",
				"methods": {},
				"version": 1
			},
			"evm": {
				"assembly": "    /* \"doctorrecord.sol\":62:2207  contract DoctorRecord {... */\n  mstore(0x40, 0x80)\n  callvalue\n  dup1\n  iszero\n  tag_1\n  jumpi\n  0x00\n  dup1\n  revert\ntag_1:\n  pop\n  dataSize(sub_0)\n  dup1\n  dataOffset(sub_0)\n  0x00\n  codecopy\n  0x00\n  return\nstop\n\nsub_0: assembly {\n        /* \"doctorrecord.sol\":62:2207  contract DoctorRecord {... */\n      mstore(0x40, 0x80)\n      callvalue\n      dup1\n      iszero\n      tag_1\n      jumpi\n      0x00\n      dup1\n      revert\n    tag_1:\n      pop\n      jumpi(tag_2, lt(calldatasize, 0x04))\n      shr(0xe0, calldataload(0x00))\n      dup1\n      0x33f0d5ea\n      eq\n      tag_3\n      jumpi\n      dup1\n      0xb5368e20\n      eq\n      tag_4\n      jumpi\n      dup1\n      0xb64358da\n      eq\n      tag_5\n      jumpi\n    tag_2:\n      0x00\n      dup1\n      revert\n        /* \"doctorrecord.sol\":524:1134  function addPatient(string memory name, uint256 age, string memory diagnosis, string memory prescription) external {... */\n    tag_3:\n      tag_6\n      0x04\n      dup1\n      calldatasize\n      sub\n      dup2\n      add\n      swap1\n      tag_7\n      swap2\n      swap1\n      tag_8\n      jump\t// in\n    tag_7:\n      tag_9\n      jump\t// in\n    tag_6:\n      stop\n        /* \"doctorrecord.sol\":1921:2204  function getPatient(address patientAddress) external view returns (string memory, uint256, string memory, string memory) {... */\n    tag_4:\n      tag_10\n      0x04\n      dup1\n      calldatasize\n      sub\n      dup2\n      add\n      swap1\n      tag_11\n      swap2\n      swap1\n      tag_12\n      jump\t// in\n    tag_11:\n      tag_13\n      jump\t// in\n    tag_10:\n      mload(0x40)\n      tag_14\n      swap5\n      swap4\n      swap3\n      swap2\n      swap1\n      tag_15\n      jump\t// in\n    tag_14:\n      mload(0x40)\n      dup1\n      swap2\n      sub\n      swap1\n      return\n        /* \"doctorrecord.sol\":1142:1913  function updatePatient(string memory name, uint256 age, string memory diagnosis, string memory prescription) external {... */\n    tag_5:\n      tag_16\n      0x04\n      dup1\n      calldatasize\n      sub\n      dup2\n      add\n      swap1\n      tag_17\n      swap2\n      swap1\n      tag_8\n      jump\t// in\n    tag_17:\n      tag_18\n      jump\t// in\n    tag_16:\n      stop\n        /* \"doctorrecord.sol\":524:1134  function addPatient(string memory name, uint256 age, string memory diagnosis, string memory prescription) external {... */\n    tag_9:\n        /* \"doctorrecord.sol\":679:680  0 */\n      0x00\n        /* \"doctorrecord.sol\":664:668  name */\n      dup5\n        /* \"doctorrecord.sol\":658:676  bytes(name).length */\n      mload\n        /* \"doctorrecord.sol\":658:680  bytes(name).length > 0 */\n      gt\n        /* \"doctorrecord.sol\":650:705  require(bytes(name).length > 0, \"Name cannot be empty\") */\n      tag_20\n      jumpi\n      mload(0x40)\n      0x08c379a000000000000000000000000000000000000000000000000000000000\n      dup2\n      mstore\n      0x04\n      add\n      tag_21\n      swap1\n      tag_22\n      jump\t// in\n    tag_21:\n      mload(0x40)\n      dup1\n      swap2\n      sub\n      swap1\n      revert\n    tag_20:\n        /* \"doctorrecord.sol\":730:731  0 */\n      0x00\n        /* \"doctorrecord.sol\":724:727  age */\n      dup4\n        /* \"doctorrecord.sol\":724:731  age > 0 */\n      gt\n        /* \"doctorrecord.sol\":716:762  require(age > 0, \"Age must be greater than 0\") */\n      tag_23\n      jumpi\n      mload(0x40)\n      0x08c379a000000000000000000000000000000000000000000000000000000000\n      dup2\n      mstore\n      0x04\n      add\n      tag_24\n      swap1\n      tag_25\n      jump\t// in\n    tag_24:\n      mload(0x40)\n      dup1\n      swap2\n      sub\n      swap1\n      revert\n    tag_23:\n        /* \"doctorrecord.sol\":807:808  0 */\n      0x00\n        /* \"doctorrecord.sol\":787:796  diagnosis */\n      dup3\n        /* \"doctorrecord.sol\":781:804  bytes(diagnosis).length */\n      mload\n        /* \"doctorrecord.sol\":781:808  bytes(diagnosis).length > 0 */\n      gt\n        /* \"doctorrecord.sol\":773:838  require(bytes(diagnosis).length > 0, \"Diagnosis cannot be empty\") */\n      tag_26\n      jumpi\n      mload(0x40)\n      0x08c379a000000000000000000000000000000000000000000000000000000000\n      dup2\n      mstore\n      0x04\n      add\n      tag_27\n      swap1\n      tag_28\n      jump\t// in\n    tag_27:\n      mload(0x40)\n      dup1\n      swap2\n      sub\n      swap1\n      revert\n    tag_26:\n        /* \"doctorrecord.sol\":886:887  0 */\n      0x00\n        /* \"doctorrecord.sol\":863:875  prescription */\n      dup2\n        /* \"doctorrecord.sol\":857:883  bytes(prescription).length */\n      mload\n        /* \"doctorrecord.sol\":857:887  bytes(prescription).length > 0 */\n      gt\n        /* \"doctorrecord.sol\":849:920  require(bytes(prescription).length > 0, \"Prescription cannot be empty\") */\n      tag_29\n      jumpi\n      mload(0x40)\n      0x08c379a000000000000000000000000000000000000000000000000000000000\n      dup2\n      mstore\n      0x04\n      add\n      tag_30\n      swap1\n      tag_31\n      jump\t// in\n    tag_30:\n      mload(0x40)\n      dup1\n      swap2\n      sub\n      swap1\n      revert\n    tag_29:\n        /* \"doctorrecord.sol\":933:958  Patient memory newPatient */\n      0x00\n        /* \"doctorrecord.sol\":961:1004  Patient(name, age, diagnosis, prescription) */\n      mload(0x40)\n      dup1\n      0x80\n      add\n      0x40\n      mstore\n      dup1\n        /* \"doctorrecord.sol\":969:973  name */\n      dup7\n        /* \"doctorrecord.sol\":961:1004  Patient(name, age, diagnosis, prescription) */\n      dup2\n      mstore\n      0x20\n      add\n        /* \"doctorrecord.sol\":975:978  age */\n      dup6\n        /* \"doctorrecord.sol\":961:1004  Patient(name, age, diagnosis, prescription) */\n      dup2\n      mstore\n      0x20\n      add\n        /* \"doctorrecord.sol\":980:989  diagnosis */\n      dup5\n        /* \"doctorrecord.sol\":961:1004  Patient(name, age, diagnosis, prescription) */\n      dup2\n      mstore\n      0x20\n      add\n        /* \"doctorrecord.sol\":991:1003  prescription */\n      dup4\n        /* \"doctorrecord.sol\":961:1004  Patient(name, age, diagnosis, prescription) */\n      dup2\n      mstore\n      pop\n        /* \"doctorrecord.sol\":933:1004  Patient memory newPatient = Patient(name, age, diagnosis, prescription) */\n      swap1\n      pop\n        /* \"doctorrecord.sol\":1038:1048  newPatient */\n      dup1\n        /* \"doctorrecord.sol\":1015:1023  patients */\n      0x00\n        /* \"doctorrecord.sol\":1015:1035  patients[msg.sender] */\n      dup1\n        /* \"doctorrecord.sol\":1024:1034  msg.sender */\n      caller\n        /* \"doctorrecord.sol\":1015:1035  patients[msg.sender] */\n      0xffffffffffffffffffffffffffffffffffffffff\n      and\n      0xffffffffffffffffffffffffffffffffffffffff\n      and\n      dup2\n      mstore\n      0x20\n      add\n      swap1\n      dup2\n      mstore\n      0x20\n      add\n      0x00\n      keccak256\n        /* \"doctorrecord.sol\":1015:1048  patients[msg.sender] = newPatient */\n      0x00\n      dup3\n      add\n      mload\n      dup2\n      0x00\n      add\n      swap1\n      dup2\n      tag_32\n      swap2\n      swap1\n      tag_33\n      jump\t// in\n    tag_32:\n      pop\n      0x20\n      dup3\n      add\n      mload\n      dup2\n      0x01\n      add\n      sstore\n      0x40\n      dup3\n      add\n      mload\n      dup2\n      0x02\n      add\n      swap1\n      dup2\n      tag_34\n      swap2\n      swap1\n      tag_33\n      jump\t// in\n    tag_34:\n      pop\n      0x60\n      dup3\n      add\n      mload\n      dup2\n      0x03\n      add\n      swap1\n      dup2\n      tag_35\n      swap2\n      swap1\n      tag_33\n      jump\t// in\n    tag_35:\n      pop\n      swap1\n      pop\n      pop\n        /* \"doctorrecord.sol\":1079:1089  msg.sender */\n      caller\n        /* \"doctorrecord.sol\":1066:1126  PatientAdded(msg.sender, name, age, diagnosis, prescription) */\n      0xffffffffffffffffffffffffffffffffffffffff\n      and\n      0xcf73aaf477c3fbc5e68155b92198c919499af5e088d030be627e8c5467ff4231\n        /* \"doctorrecord.sol\":1091:1095  name */\n      dup7\n        /* \"doctorrecord.sol\":1097:1100  age */\n      dup7\n        /* \"doctorrecord.sol\":1102:1111  diagnosis */\n      dup7\n        /* \"doctorrecord.sol\":1113:1125  prescription */\n      dup7\n        /* \"doctorrecord.sol\":1066:1126  PatientAdded(msg.sender, name, age, diagnosis, prescription) */\n      mload(0x40)\n      tag_36\n      swap5\n      swap4\n      swap3\n      swap2\n      swap1\n      tag_15\n      jump\t// in\n    tag_36:\n      mload(0x40)\n      dup1\n      swap2\n      sub\n      swap1\n      log2\n        /* \"doctorrecord.sol\":639:1134  {... */\n      pop\n        /* \"doctorrecord.sol\":524:1134  function addPatient(string memory name, uint256 age, string memory diagnosis, string memory prescription) external {... */\n      pop\n      pop\n      pop\n      pop\n      jump\t// out\n        /* \"doctorrecord.sol\":1921:2204  function getPatient(address patientAddress) external view returns (string memory, uint256, string memory, string memory) {... */\n    tag_13:\n        /* \"doctorrecord.sol\":1988:2001  string memory */\n      0x60\n        /* \"doctorrecord.sol\":2003:2010  uint256 */\n      0x00\n        /* \"doctorrecord.sol\":2012:2025  string memory */\n      0x60\n        /* \"doctorrecord.sol\":2027:2040  string memory */\n      dup1\n        /* \"doctorrecord.sol\":2061:2069  patients */\n      0x00\n        /* \"doctorrecord.sol\":2061:2085  patients[patientAddress] */\n      dup1\n        /* \"doctorrecord.sol\":2070:2084  patientAddress */\n      dup7\n        /* \"doctorrecord.sol\":2061:2085  patients[patientAddress] */\n      0xffffffffffffffffffffffffffffffffffffffff\n      and\n      0xffffffffffffffffffffffffffffffffffffffff\n      and\n      dup2\n      mstore\n      0x20\n      add\n      swap1\n      dup2\n      mstore\n      0x20\n      add\n      0x00\n      keccak256\n        /* \"doctorrecord.sol\":2061:2090  patients[patientAddress].name */\n      0x00\n      add\n        /* \"doctorrecord.sol\":2092:2100  patients */\n      0x00\n        /* \"doctorrecord.sol\":2092:2116  patients[patientAddress] */\n      dup1\n        /* \"doctorrecord.sol\":2101:2115  patientAddress */\n      dup8\n        /* \"doctorrecord.sol\":2092:2116  patients[patientAddress] */\n      0xffffffffffffffffffffffffffffffffffffffff\n      and\n      0xffffffffffffffffffffffffffffffffffffffff\n      and\n      dup2\n      mstore\n      0x20\n      add\n      swap1\n      dup2\n      mstore\n      0x20\n      add\n      0x00\n      keccak256\n        /* \"doctorrecord.sol\":2092:2120  patients[patientAddress].age */\n      0x01\n      add\n      sload\n        /* \"doctorrecord.sol\":2122:2130  patients */\n      0x00\n        /* \"doctorrecord.sol\":2122:2146  patients[patientAddress] */\n      dup1\n        /* \"doctorrecord.sol\":2131:2145  patientAddress */\n      dup9\n        /* \"doctorrecord.sol\":2122:2146  patients[patientAddress] */\n      0xffffffffffffffffffffffffffffffffffffffff\n      and\n      0xffffffffffffffffffffffffffffffffffffffff\n      and\n      dup2\n      mstore\n      0x20\n      add\n      swap1\n      dup2\n      mstore\n      0x20\n      add\n      0x00\n      keccak256\n        /* \"doctorrecord.sol\":2122:2156  patients[patientAddress].diagnosis */\n      0x02\n      add\n        /* \"doctorrecord.sol\":2158:2166  patients */\n      0x00\n        /* \"doctorrecord.sol\":2158:2182  patients[patientAddress] */\n      dup1\n        /* \"doctorrecord.sol\":2167:2181  patientAddress */\n      dup10\n        /* \"doctorrecord.sol\":2158:2182  patients[patientAddress] */\n      0xffffffffffffffffffffffffffffffffffffffff\n      and\n      0xffffffffffffffffffffffffffffffffffffffff\n      and\n      dup2\n      mstore\n      0x20\n      add\n      swap1\n      dup2\n      mstore\n      0x20\n      add\n      0x00\n      keccak256\n        /* \"doctorrecord.sol\":2158:2195  patients[patientAddress].prescription */\n      0x03\n      add\n        /* \"doctorrecord.sol\":2053:2196  return (patients[patientAddress].name, patients[patientAddress].age, patients[patientAddress].diagnosis, patients[patientAddress].prescription) */\n      dup4\n      dup1\n      sload\n      tag_38\n      swap1\n      tag_39\n      jump\t// in\n    tag_38:\n      dup1\n      0x1f\n      add\n      0x20\n      dup1\n      swap2\n      div\n      mul\n      0x20\n      add\n      mload(0x40)\n      swap1\n      dup2\n      add\n      0x40\n      mstore\n      dup1\n      swap3\n      swap2\n      swap1\n      dup2\n      dup2\n      mstore\n      0x20\n      add\n      dup3\n      dup1\n      sload\n      tag_40\n      swap1\n      tag_39\n      jump\t// in\n    tag_40:\n      dup1\n      iszero\n      tag_41\n      jumpi\n      dup1\n      0x1f\n      lt\n      tag_42\n      jumpi\n      0x0100\n      dup1\n      dup4\n      sload\n      div\n      mul\n      dup4\n      mstore\n      swap2\n      0x20\n      add\n      swap2\n      jump(tag_41)\n    tag_42:\n      dup3\n      add\n      swap2\n      swap1\n      0x00\n      mstore\n      keccak256(0x00, 0x20)\n      swap1\n    tag_43:\n      dup2\n      sload\n      dup2\n      mstore\n      swap1\n      0x01\n      add\n      swap1\n      0x20\n      add\n      dup1\n      dup4\n      gt\n      tag_43\n      jumpi\n      dup3\n      swap1\n      sub\n      0x1f\n      and\n      dup3\n      add\n      swap2\n    tag_41:\n      pop\n      pop\n      pop\n      pop\n      pop\n      swap4\n      pop\n      dup2\n      dup1\n      sload\n      tag_44\n      swap1\n      tag_39\n      jump\t// in\n    tag_44:\n      dup1\n      0x1f\n      add\n      0x20\n      dup1\n      swap2\n      div\n      mul\n      0x20\n      add\n      mload(0x40)\n      swap1\n      dup2\n      add\n      0x40\n      mstore\n      dup1\n      swap3\n      swap2\n      swap1\n      dup2\n      dup2\n      mstore\n      0x20\n      add\n      dup3\n      dup1\n      sload\n      tag_45\n      swap1\n      tag_39\n      jump\t// in\n    tag_45:\n      dup1\n      iszero\n      tag_46\n      jumpi\n      dup1\n      0x1f\n      lt\n      tag_47\n      jumpi\n      0x0100\n      dup1\n      dup4\n      sload\n      div\n      mul\n      dup4\n      mstore\n      swap2\n      0x20\n      add\n      swap2\n      jump(tag_46)\n    tag_47:\n      dup3\n      add\n      swap2\n      swap1\n      0x00\n      mstore\n      keccak256(0x00, 0x20)\n      swap1\n    tag_48:\n      dup2\n      sload\n      dup2\n      mstore\n      swap1\n      0x01\n      add\n      swap1\n      0x20\n      add\n      dup1\n      dup4\n      gt\n      tag_48\n      jumpi\n      dup3\n      swap1\n      sub\n      0x1f\n      and\n      dup3\n      add\n      swap2\n    tag_46:\n      pop\n      pop\n      pop\n      pop\n      pop\n      swap2\n      pop\n      dup1\n      dup1\n      sload\n      tag_49\n      swap1\n      tag_39\n      jump\t// in\n    tag_49:\n      dup1\n      0x1f\n      add\n      0x20\n      dup1\n      swap2\n      div\n      mul\n      0x20\n      add\n      mload(0x40)\n      swap1\n      dup2\n      add\n      0x40\n      mstore\n      dup1\n      swap3\n      swap2\n      swap1\n      dup2\n      dup2\n      mstore\n      0x20\n      add\n      dup3\n      dup1\n      sload\n      tag_50\n      swap1\n      tag_39\n      jump\t// in\n    tag_50:\n      dup1\n      iszero\n      tag_51\n      jumpi\n      dup1\n      0x1f\n      lt\n      tag_52\n      jumpi\n      0x0100\n      dup1\n      dup4\n      sload\n      div\n      mul\n      dup4\n      mstore\n      swap2\n      0x20\n      add\n      swap2\n      jump(tag_51)\n    tag_52:\n      dup3\n      add\n      swap2\n      swap1\n      0x00\n      mstore\n      keccak256(0x00, 0x20)\n      swap1\n    tag_53:\n      dup2\n      sload\n      dup2\n      mstore\n      swap1\n      0x01\n      add\n      swap1\n      0x20\n      add\n      dup1\n      dup4\n      gt\n      tag_53\n      jumpi\n      dup3\n      swap1\n      sub\n      0x1f\n      and\n      dup3\n      add\n      swap2\n    tag_51:\n      pop\n      pop\n      pop\n      pop\n      pop\n      swap1\n      pop\n      swap4\n      pop\n      swap4\n      pop\n      swap4\n      pop\n      swap4\n      pop\n        /* \"doctorrecord.sol\":1921:2204  function getPatient(address patientAddress) external view returns (string memory, uint256, string memory, string memory) {... */\n      swap2\n      swap4\n      pop\n      swap2\n      swap4\n      jump\t// out\n        /* \"doctorrecord.sol\":1142:1913  function updatePatient(string memory name, uint256 age, string memory diagnosis, string memory prescription) external {... */\n    tag_18:\n        /* \"doctorrecord.sol\":1300:1301  0 */\n      0x00\n        /* \"doctorrecord.sol\":1285:1289  name */\n      dup5\n        /* \"doctorrecord.sol\":1279:1297  bytes(name).length */\n      mload\n        /* \"doctorrecord.sol\":1279:1301  bytes(name).length > 0 */\n      gt\n        /* \"doctorrecord.sol\":1271:1326  require(bytes(name).length > 0, \"Name cannot be empty\") */\n      tag_55\n      jumpi\n      mload(0x40)\n      0x08c379a000000000000000000000000000000000000000000000000000000000\n      dup2\n      mstore\n      0x04\n      add\n      tag_56\n      swap1\n      tag_22\n      jump\t// in\n    tag_56:\n      mload(0x40)\n      dup1\n      swap2\n      sub\n      swap1\n      revert\n    tag_55:\n        /* \"doctorrecord.sol\":1351:1352  0 */\n      0x00\n        /* \"doctorrecord.sol\":1345:1348  age */\n      dup4\n        /* \"doctorrecord.sol\":1345:1352  age > 0 */\n      gt\n        /* \"doctorrecord.sol\":1337:1383  require(age > 0, \"Age must be greater than 0\") */\n      tag_57\n      jumpi\n      mload(0x40)\n      0x08c379a000000000000000000000000000000000000000000000000000000000\n      dup2\n      mstore\n      0x04\n      add\n      tag_58\n      swap1\n      tag_25\n      jump\t// in\n    tag_58:\n      mload(0x40)\n      dup1\n      swap2\n      sub\n      swap1\n      revert\n    tag_57:\n        /* \"doctorrecord.sol\":1428:1429  0 */\n      0x00\n        /* \"doctorrecord.sol\":1408:1417  diagnosis */\n      dup3\n        /* \"doctorrecord.sol\":1402:1425  bytes(diagnosis).length */\n      mload\n        /* \"doctorrecord.sol\":1402:1429  bytes(diagnosis).length > 0 */\n      gt\n        /* \"doctorrecord.sol\":1394:1459  require(bytes(diagnosis).length > 0, \"Diagnosis cannot be empty\") */\n      tag_59\n      jumpi\n      mload(0x40)\n      0x08c379a000000000000000000000000000000000000000000000000000000000\n      dup2\n      mstore\n      0x04\n      add\n      tag_60\n      swap1\n      tag_28\n      jump\t// in\n    tag_60:\n      mload(0x40)\n      dup1\n      swap2\n      sub\n      swap1\n      revert\n    tag_59:\n        /* \"doctorrecord.sol\":1507:1508  0 */\n      0x00\n        /* \"doctorrecord.sol\":1484:1496  prescription */\n      dup2\n        /* \"doctorrecord.sol\":1478:1504  bytes(prescription).length */\n      mload\n        /* \"doctorrecord.sol\":1478:1508  bytes(prescription).length > 0 */\n      gt\n        /* \"doctorrecord.sol\":1470:1541  require(bytes(prescription).length > 0, \"Prescription cannot be empty\") */\n      tag_61\n      jumpi\n      mload(0x40)\n      0x08c379a000000000000000000000000000000000000000000000000000000000\n      dup2\n      mstore\n      0x04\n      add\n      tag_62\n      swap1\n      tag_31\n      jump\t// in\n    tag_62:\n      mload(0x40)\n      dup1\n      swap2\n      sub\n      swap1\n      revert\n    tag_61:\n        /* \"doctorrecord.sol\":1604:1605  0 */\n      0x00\n        /* \"doctorrecord.sol\":1568:1576  patients */\n      dup1\n        /* \"doctorrecord.sol\":1568:1588  patients[msg.sender] */\n      0x00\n        /* \"doctorrecord.sol\":1577:1587  msg.sender */\n      caller\n        /* \"doctorrecord.sol\":1568:1588  patients[msg.sender] */\n      0xffffffffffffffffffffffffffffffffffffffff\n      and\n      0xffffffffffffffffffffffffffffffffffffffff\n      and\n      dup2\n      mstore\n      0x20\n      add\n      swap1\n      dup2\n      mstore\n      0x20\n      add\n      0x00\n      keccak256\n        /* \"doctorrecord.sol\":1568:1593  patients[msg.sender].name */\n      0x00\n      add\n        /* \"doctorrecord.sol\":1562:1601  bytes(patients[msg.sender].name).length */\n      dup1\n      sload\n      tag_63\n      swap1\n      tag_39\n      jump\t// in\n    tag_63:\n      swap1\n      pop\n        /* \"doctorrecord.sol\":1562:1605  bytes(patients[msg.sender].name).length > 0 */\n      gt\n        /* \"doctorrecord.sol\":1554:1627  require(bytes(patients[msg.sender].name).length > 0, \"Patient not found\") */\n      tag_64\n      jumpi\n      mload(0x40)\n      0x08c379a000000000000000000000000000000000000000000000000000000000\n      dup2\n      mstore\n      0x04\n      add\n      tag_65\n      swap1\n      tag_66\n      jump\t// in\n    tag_65:\n      mload(0x40)\n      dup1\n      swap2\n      sub\n      swap1\n      revert\n    tag_64:\n        /* \"doctorrecord.sol\":1668:1672  name */\n      dup4\n        /* \"doctorrecord.sol\":1640:1648  patients */\n      0x00\n        /* \"doctorrecord.sol\":1640:1660  patients[msg.sender] */\n      dup1\n        /* \"doctorrecord.sol\":1649:1659  msg.sender */\n      caller\n        /* \"doctorrecord.sol\":1640:1660  patients[msg.sender] */\n      0xffffffffffffffffffffffffffffffffffffffff\n      and\n      0xffffffffffffffffffffffffffffffffffffffff\n      and\n      dup2\n      mstore\n      0x20\n      add\n      swap1\n      dup2\n      mstore\n      0x20\n      add\n      0x00\n      keccak256\n        /* \"doctorrecord.sol\":1640:1665  patients[msg.sender].name */\n      0x00\n      add\n        /* \"doctorrecord.sol\":1640:1672  patients[msg.sender].name = name */\n      swap1\n      dup2\n      tag_67\n      swap2\n      swap1\n      tag_33\n      jump\t// in\n    tag_67:\n      pop\n        /* \"doctorrecord.sol\":1710:1713  age */\n      dup3\n        /* \"doctorrecord.sol\":1683:1691  patients */\n      0x00\n        /* \"doctorrecord.sol\":1683:1703  patients[msg.sender] */\n      dup1\n        /* \"doctorrecord.sol\":1692:1702  msg.sender */\n      caller\n        /* \"doctorrecord.sol\":1683:1703  patients[msg.sender] */\n      0xffffffffffffffffffffffffffffffffffffffff\n      and\n      0xffffffffffffffffffffffffffffffffffffffff\n      and\n      dup2\n      mstore\n      0x20\n      add\n      swap1\n      dup2\n      mstore\n      0x20\n      add\n      0x00\n      keccak256\n        /* \"doctorrecord.sol\":1683:1707  patients[msg.sender].age */\n      0x01\n      add\n        /* \"doctorrecord.sol\":1683:1713  patients[msg.sender].age = age */\n      dup2\n      swap1\n      sstore\n      pop\n        /* \"doctorrecord.sol\":1757:1766  diagnosis */\n      dup2\n        /* \"doctorrecord.sol\":1724:1732  patients */\n      0x00\n        /* \"doctorrecord.sol\":1724:1744  patients[msg.sender] */\n      dup1\n        /* \"doctorrecord.sol\":1733:1743  msg.sender */\n      caller\n        /* \"doctorrecord.sol\":1724:1744  patients[msg.sender] */\n      0xffffffffffffffffffffffffffffffffffffffff\n      and\n      0xffffffffffffffffffffffffffffffffffffffff\n      and\n      dup2\n      mstore\n      0x20\n      add\n      swap1\n      dup2\n      mstore\n      0x20\n      add\n      0x00\n      keccak256\n        /* \"doctorrecord.sol\":1724:1754  patients[msg.sender].diagnosis */\n      0x02\n      add\n        /* \"doctorrecord.sol\":1724:1766  patients[msg.sender].diagnosis = diagnosis */\n      swap1\n      dup2\n      tag_68\n      swap2\n      swap1\n      tag_33\n      jump\t// in\n    tag_68:\n      pop\n        /* \"doctorrecord.sol\":1813:1825  prescription */\n      dup1\n        /* \"doctorrecord.sol\":1777:1785  patients */\n      0x00\n        /* \"doctorrecord.sol\":1777:1797  patients[msg.sender] */\n      dup1\n        /* \"doctorrecord.sol\":1786:1796  msg.sender */\n      caller\n        /* \"doctorrecord.sol\":1777:1797  patients[msg.sender] */\n      0xffffffffffffffffffffffffffffffffffffffff\n      and\n      0xffffffffffffffffffffffffffffffffffffffff\n      and\n      dup2\n      mstore\n      0x20\n      add\n      swap1\n      dup2\n      mstore\n      0x20\n      add\n      0x00\n      keccak256\n        /* \"doctorrecord.sol\":1777:1810  patients[msg.sender].prescription */\n      0x03\n      add\n        /* \"doctorrecord.sol\":1777:1825  patients[msg.sender].prescription = prescription */\n      swap1\n      dup2\n      tag_69\n      swap2\n      swap1\n      tag_33\n      jump\t// in\n    tag_69:\n      pop\n        /* \"doctorrecord.sol\":1858:1868  msg.sender */\n      caller\n        /* \"doctorrecord.sol\":1843:1905  PatientUpdated(msg.sender, name, age, diagnosis, prescription) */\n      0xffffffffffffffffffffffffffffffffffffffff\n      and\n      0x2c0640575a05777fbb6e7b53e54d5514611df497e12c144d0f11b3a69373d5ce\n        /* \"doctorrecord.sol\":1870:1874  name */\n      dup6\n        /* \"doctorrecord.sol\":1876:1879  age */\n      dup6\n        /* \"doctorrecord.sol\":1881:1890  diagnosis */\n      dup6\n        /* \"doctorrecord.sol\":1892:1904  prescription */\n      dup6\n        /* \"doctorrecord.sol\":1843:1905  PatientUpdated(msg.sender, name, age, diagnosis, prescription) */\n      mload(0x40)\n      tag_70\n      swap5\n      swap4\n      swap3\n      swap2\n      swap1\n      tag_15\n      jump\t// in\n    tag_70:\n      mload(0x40)\n      dup1\n      swap2\n      sub\n      swap1\n      log2\n        /* \"doctorrecord.sol\":1142:1913  function updatePatient(string memory name, uint256 age, string memory diagnosis, string memory prescription) external {... */\n      pop\n      pop\n      pop\n      pop\n      jump\t// out\n        /* \"#utility.yul\":7:82   */\n    tag_71:\n        /* \"#utility.yul\":40:46   */\n      0x00\n        /* \"#utility.yul\":73:75   */\n      0x40\n        /* \"#utility.yul\":67:76   */\n      mload\n        /* \"#utility.yul\":57:76   */\n      swap1\n      pop\n        /* \"#utility.yul\":7:82   */\n      swap1\n      jump\t// out\n        /* \"#utility.yul\":88:205   */\n    tag_72:\n        /* \"#utility.yul\":197:198   */\n      0x00\n        /* \"#utility.yul\":194:195   */\n      dup1\n        /* \"#utility.yul\":187:199   */\n      revert\n        /* \"#utility.yul\":211:328   */\n    tag_73:\n        /* \"#utility.yul\":320:321   */\n      0x00\n        /* \"#utility.yul\":317:318   */\n      dup1\n        /* \"#utility.yul\":310:322   */\n      revert\n        /* \"#utility.yul\":334:451   */\n    tag_74:\n        /* \"#utility.yul\":443:444   */\n      0x00\n        /* \"#utility.yul\":440:441   */\n      dup1\n        /* \"#utility.yul\":433:445   */\n      revert\n        /* \"#utility.yul\":457:574   */\n    tag_75:\n        /* \"#utility.yul\":566:567   */\n      0x00\n        /* \"#utility.yul\":563:564   */\n      dup1\n        /* \"#utility.yul\":556:568   */\n      revert\n        /* \"#utility.yul\":580:682   */\n    tag_76:\n        /* \"#utility.yul\":621:627   */\n      0x00\n        /* \"#utility.yul\":672:674   */\n      0x1f\n        /* \"#utility.yul\":668:675   */\n      not\n        /* \"#utility.yul\":663:665   */\n      0x1f\n        /* \"#utility.yul\":656:661   */\n      dup4\n        /* \"#utility.yul\":652:666   */\n      add\n        /* \"#utility.yul\":648:676   */\n      and\n        /* \"#utility.yul\":638:676   */\n      swap1\n      pop\n        /* \"#utility.yul\":580:682   */\n      swap2\n      swap1\n      pop\n      jump\t// out\n        /* \"#utility.yul\":688:868   */\n    tag_77:\n        /* \"#utility.yul\":736:813   */\n      0x4e487b7100000000000000000000000000000000000000000000000000000000\n        /* \"#utility.yul\":733:734   */\n      0x00\n        /* \"#utility.yul\":726:814   */\n      mstore\n        /* \"#utility.yul\":833:837   */\n      0x41\n        /* \"#utility.yul\":830:831   */\n      0x04\n        /* \"#utility.yul\":823:838   */\n      mstore\n        /* \"#utility.yul\":857:861   */\n      0x24\n        /* \"#utility.yul\":854:855   */\n      0x00\n        /* \"#utility.yul\":847:862   */\n      revert\n        /* \"#utility.yul\":874:1155   */\n    tag_78:\n        /* \"#utility.yul\":957:984   */\n      tag_131\n        /* \"#utility.yul\":979:983   */\n      dup3\n        /* \"#utility.yul\":957:984   */\n      tag_76\n      jump\t// in\n    tag_131:\n        /* \"#utility.yul\":949:955   */\n      dup2\n        /* \"#utility.yul\":945:985   */\n      add\n        /* \"#utility.yul\":1087:1093   */\n      dup2\n        /* \"#utility.yul\":1075:1085   */\n      dup2\n        /* \"#utility.yul\":1072:1094   */\n      lt\n        /* \"#utility.yul\":1051:1069   */\n      0xffffffffffffffff\n        /* \"#utility.yul\":1039:1049   */\n      dup3\n        /* \"#utility.yul\":1036:1070   */\n      gt\n        /* \"#utility.yul\":1033:1095   */\n      or\n        /* \"#utility.yul\":1030:1118   */\n      iszero\n      tag_132\n      jumpi\n        /* \"#utility.yul\":1098:1116   */\n      tag_133\n      tag_77\n      jump\t// in\n    tag_133:\n        /* \"#utility.yul\":1030:1118   */\n    tag_132:\n        /* \"#utility.yul\":1138:1148   */\n      dup1\n        /* \"#utility.yul\":1134:1136   */\n      0x40\n        /* \"#utility.yul\":1127:1149   */\n      mstore\n        /* \"#utility.yul\":917:1155   */\n      pop\n        /* \"#utility.yul\":874:1155   */\n      pop\n      pop\n      jump\t// out\n        /* \"#utility.yul\":1161:1290   */\n    tag_79:\n        /* \"#utility.yul\":1195:1201   */\n      0x00\n        /* \"#utility.yul\":1222:1242   */\n      tag_135\n      tag_71\n      jump\t// in\n    tag_135:\n        /* \"#utility.yul\":1212:1242   */\n      swap1\n      pop\n        /* \"#utility.yul\":1251:1284   */\n      tag_136\n        /* \"#utility.yul\":1279:1283   */\n      dup3\n        /* \"#utility.yul\":1271:1277   */\n      dup3\n        /* \"#utility.yul\":1251:1284   */\n      tag_78\n      jump\t// in\n    tag_136:\n        /* \"#utility.yul\":1161:1290   */\n      swap2\n      swap1\n      pop\n      jump\t// out\n        /* \"#utility.yul\":1296:1604   */\n    tag_80:\n        /* \"#utility.yul\":1358:1362   */\n      0x00\n        /* \"#utility.yul\":1448:1466   */\n      0xffffffffffffffff\n        /* \"#utility.yul\":1440:1446   */\n      dup3\n        /* \"#utility.yul\":1437:1467   */\n      gt\n        /* \"#utility.yul\":1434:1490   */\n      iszero\n      tag_138\n      jumpi\n        /* \"#utility.yul\":1470:1488   */\n      tag_139\n      tag_77\n      jump\t// in\n    tag_139:\n        /* \"#utility.yul\":1434:1490   */\n    tag_138:\n        /* \"#utility.yul\":1508:1537   */\n      tag_140\n        /* \"#utility.yul\":1530:1536   */\n      dup3\n        /* \"#utility.yul\":1508:1537   */\n      tag_76\n      jump\t// in\n    tag_140:\n        /* \"#utility.yul\":1500:1537   */\n      swap1\n      pop\n        /* \"#utility.yul\":1592:1596   */\n      0x20\n        /* \"#utility.yul\":1586:1590   */\n      dup2\n        /* \"#utility.yul\":1582:1597   */\n      add\n        /* \"#utility.yul\":1574:1597   */\n      swap1\n      pop\n        /* \"#utility.yul\":1296:1604   */\n      swap2\n      swap1\n      pop\n      jump\t// out\n        /* \"#utility.yul\":1610:1756   */\n    tag_81:\n        /* \"#utility.yul\":1707:1713   */\n      dup3\n        /* \"#utility.yul\":1702:1705   */\n      dup2\n        /* \"#utility.yul\":1697:1700   */\n      dup4\n        /* \"#utility.yul\":1684:1714   */\n      calldatacopy\n        /* \"#utility.yul\":1748:1749   */\n      0x00\n        /* \"#utility.yul\":1739:1745   */\n      dup4\n        /* \"#utility.yul\":1734:1737   */\n      dup4\n        /* \"#utility.yul\":1730:1746   */\n      add\n        /* \"#utility.yul\":1723:1750   */\n      mstore\n        /* \"#utility.yul\":1610:1756   */\n      pop\n      pop\n      pop\n      jump\t// out\n        /* \"#utility.yul\":1762:2187   */\n    tag_82:\n        /* \"#utility.yul\":1840:1845   */\n      0x00\n        /* \"#utility.yul\":1865:1931   */\n      tag_143\n        /* \"#utility.yul\":1881:1930   */\n      tag_144\n        /* \"#utility.yul\":1923:1929   */\n      dup5\n        /* \"#utility.yul\":1881:1930   */\n      tag_80\n      jump\t// in\n    tag_144:\n        /* \"#utility.yul\":1865:1931   */\n      tag_79\n      jump\t// in\n    tag_143:\n        /* \"#utility.yul\":1856:1931   */\n      swap1\n      pop\n        /* \"#utility.yul\":1954:1960   */\n      dup3\n        /* \"#utility.yul\":1947:1952   */\n      dup2\n        /* \"#utility.yul\":1940:1961   */\n      mstore\n        /* \"#utility.yul\":1992:1996   */\n      0x20\n        /* \"#utility.yul\":1985:1990   */\n      dup2\n        /* \"#utility.yul\":1981:1997   */\n      add\n        /* \"#utility.yul\":2030:2033   */\n      dup5\n        /* \"#utility.yul\":2021:2027   */\n      dup5\n        /* \"#utility.yul\":2016:2019   */\n      dup5\n        /* \"#utility.yul\":2012:2028   */\n      add\n        /* \"#utility.yul\":2009:2034   */\n      gt\n        /* \"#utility.yul\":2006:2118   */\n      iszero\n      tag_145\n      jumpi\n        /* \"#utility.yul\":2037:2116   */\n      tag_146\n      tag_75\n      jump\t// in\n    tag_146:\n        /* \"#utility.yul\":2006:2118   */\n    tag_145:\n        /* \"#utility.yul\":2127:2181   */\n      tag_147\n        /* \"#utility.yul\":2174:2180   */\n      dup5\n        /* \"#utility.yul\":2169:2172   */\n      dup3\n        /* \"#utility.yul\":2164:2167   */\n      dup6\n        /* \"#utility.yul\":2127:2181   */\n      tag_81\n      jump\t// in\n    tag_147:\n        /* \"#utility.yul\":1846:2187   */\n      pop\n        /* \"#utility.yul\":1762:2187   */\n      swap4\n      swap3\n      pop\n      pop\n      pop\n      jump\t// out\n        /* \"#utility.yul\":2207:2547   */\n    tag_83:\n        /* \"#utility.yul\":2263:2268   */\n      0x00\n        /* \"#utility.yul\":2312:2315   */\n      dup3\n        /* \"#utility.yul\":2305:2309   */\n      0x1f\n        /* \"#utility.yul\":2297:2303   */\n      dup4\n        /* \"#utility.yul\":2293:2310   */\n      add\n        /* \"#utility.yul\":2289:2316   */\n      slt\n        /* \"#utility.yul\":2279:2401   */\n      tag_149\n      jumpi\n        /* \"#utility.yul\":2320:2399   */\n      tag_150\n      tag_74\n      jump\t// in\n    tag_150:\n        /* \"#utility.yul\":2279:2401   */\n    tag_149:\n        /* \"#utility.yul\":2437:2443   */\n      dup2\n        /* \"#utility.yul\":2424:2444   */\n      calldataload\n        /* \"#utility.yul\":2462:2541   */\n      tag_151\n        /* \"#utility.yul\":2537:2540   */\n      dup5\n        /* \"#utility.yul\":2529:2535   */\n      dup3\n        /* \"#utility.yul\":2522:2526   */\n      0x20\n        /* \"#utility.yul\":2514:2520   */\n      dup7\n        /* \"#utility.yul\":2510:2527   */\n      add\n        /* \"#utility.yul\":2462:2541   */\n      tag_82\n      jump\t// in\n    tag_151:\n        /* \"#utility.yul\":2453:2541   */\n      swap2\n      pop\n        /* \"#utility.yul\":2269:2547   */\n      pop\n        /* \"#utility.yul\":2207:2547   */\n      swap3\n      swap2\n      pop\n      pop\n      jump\t// out\n        /* \"#utility.yul\":2553:2630   */\n    tag_84:\n        /* \"#utility.yul\":2590:2597   */\n      0x00\n        /* \"#utility.yul\":2619:2624   */\n      dup2\n        /* \"#utility.yul\":2608:2624   */\n      swap1\n      pop\n        /* \"#utility.yul\":2553:2630   */\n      swap2\n      swap1\n      pop\n      jump\t// out\n        /* \"#utility.yul\":2636:2758   */\n    tag_85:\n        /* \"#utility.yul\":2709:2733   */\n      tag_154\n        /* \"#utility.yul\":2727:2732   */\n      dup2\n        /* \"#utility.yul\":2709:2733   */\n      tag_84\n      jump\t// in\n    tag_154:\n        /* \"#utility.yul\":2702:2707   */\n      dup2\n        /* \"#utility.yul\":2699:2734   */\n      eq\n        /* \"#utility.yul\":2689:2752   */\n      tag_155\n      jumpi\n        /* \"#utility.yul\":2748:2749   */\n      0x00\n        /* \"#utility.yul\":2745:2746   */\n      dup1\n        /* \"#utility.yul\":2738:2750   */\n      revert\n        /* \"#utility.yul\":2689:2752   */\n    tag_155:\n        /* \"#utility.yul\":2636:2758   */\n      pop\n      jump\t// out\n        /* \"#utility.yul\":2764:2903   */\n    tag_86:\n        /* \"#utility.yul\":2810:2815   */\n      0x00\n        /* \"#utility.yul\":2848:2854   */\n      dup2\n        /* \"#utility.yul\":2835:2855   */\n      calldataload\n        /* \"#utility.yul\":2826:2855   */\n      swap1\n      pop\n        /* \"#utility.yul\":2864:2897   */\n      tag_157\n        /* \"#utility.yul\":2891:2896   */\n      dup2\n        /* \"#utility.yul\":2864:2897   */\n      tag_85\n      jump\t// in\n    tag_157:\n        /* \"#utility.yul\":2764:2903   */\n      swap3\n      swap2\n      pop\n      pop\n      jump\t// out\n        /* \"#utility.yul\":2909:4214   */\n    tag_8:\n        /* \"#utility.yul\":3025:3031   */\n      0x00\n        /* \"#utility.yul\":3033:3039   */\n      dup1\n        /* \"#utility.yul\":3041:3047   */\n      0x00\n        /* \"#utility.yul\":3049:3055   */\n      dup1\n        /* \"#utility.yul\":3098:3101   */\n      0x80\n        /* \"#utility.yul\":3086:3095   */\n      dup6\n        /* \"#utility.yul\":3077:3084   */\n      dup8\n        /* \"#utility.yul\":3073:3096   */\n      sub\n        /* \"#utility.yul\":3069:3102   */\n      slt\n        /* \"#utility.yul\":3066:3186   */\n      iszero\n      tag_159\n      jumpi\n        /* \"#utility.yul\":3105:3184   */\n      tag_160\n      tag_72\n      jump\t// in\n    tag_160:\n        /* \"#utility.yul\":3066:3186   */\n    tag_159:\n        /* \"#utility.yul\":3253:3254   */\n      0x00\n        /* \"#utility.yul\":3242:3251   */\n      dup6\n        /* \"#utility.yul\":3238:3255   */\n      add\n        /* \"#utility.yul\":3225:3256   */\n      calldataload\n        /* \"#utility.yul\":3283:3301   */\n      0xffffffffffffffff\n        /* \"#utility.yul\":3275:3281   */\n      dup2\n        /* \"#utility.yul\":3272:3302   */\n      gt\n        /* \"#utility.yul\":3269:3386   */\n      iszero\n      tag_161\n      jumpi\n        /* \"#utility.yul\":3305:3384   */\n      tag_162\n      tag_73\n      jump\t// in\n    tag_162:\n        /* \"#utility.yul\":3269:3386   */\n    tag_161:\n        /* \"#utility.yul\":3410:3473   */\n      tag_163\n        /* \"#utility.yul\":3465:3472   */\n      dup8\n        /* \"#utility.yul\":3456:3462   */\n      dup3\n        /* \"#utility.yul\":3445:3454   */\n      dup9\n        /* \"#utility.yul\":3441:3463   */\n      add\n        /* \"#utility.yul\":3410:3473   */\n      tag_83\n      jump\t// in\n    tag_163:\n        /* \"#utility.yul\":3400:3473   */\n      swap5\n      pop\n        /* \"#utility.yul\":3196:3483   */\n      pop\n        /* \"#utility.yul\":3522:3524   */\n      0x20\n        /* \"#utility.yul\":3548:3601   */\n      tag_164\n        /* \"#utility.yul\":3593:3600   */\n      dup8\n        /* \"#utility.yul\":3584:3590   */\n      dup3\n        /* \"#utility.yul\":3573:3582   */\n      dup9\n        /* \"#utility.yul\":3569:3591   */\n      add\n        /* \"#utility.yul\":3548:3601   */\n      tag_86\n      jump\t// in\n    tag_164:\n        /* \"#utility.yul\":3538:3601   */\n      swap4\n      pop\n        /* \"#utility.yul\":3493:3611   */\n      pop\n        /* \"#utility.yul\":3678:3680   */\n      0x40\n        /* \"#utility.yul\":3667:3676   */\n      dup6\n        /* \"#utility.yul\":3663:3681   */\n      add\n        /* \"#utility.yul\":3650:3682   */\n      calldataload\n        /* \"#utility.yul\":3709:3727   */\n      0xffffffffffffffff\n        /* \"#utility.yul\":3701:3707   */\n      dup2\n        /* \"#utility.yul\":3698:3728   */\n      gt\n        /* \"#utility.yul\":3695:3812   */\n      iszero\n      tag_165\n      jumpi\n        /* \"#utility.yul\":3731:3810   */\n      tag_166\n      tag_73\n      jump\t// in\n    tag_166:\n        /* \"#utility.yul\":3695:3812   */\n    tag_165:\n        /* \"#utility.yul\":3836:3899   */\n      tag_167\n        /* \"#utility.yul\":3891:3898   */\n      dup8\n        /* \"#utility.yul\":3882:3888   */\n      dup3\n        /* \"#utility.yul\":3871:3880   */\n      dup9\n        /* \"#utility.yul\":3867:3889   */\n      add\n        /* \"#utility.yul\":3836:3899   */\n      tag_83\n      jump\t// in\n    tag_167:\n        /* \"#utility.yul\":3826:3899   */\n      swap3\n      pop\n        /* \"#utility.yul\":3621:3909   */\n      pop\n        /* \"#utility.yul\":3976:3978   */\n      0x60\n        /* \"#utility.yul\":3965:3974   */\n      dup6\n        /* \"#utility.yul\":3961:3979   */\n      add\n        /* \"#utility.yul\":3948:3980   */\n      calldataload\n        /* \"#utility.yul\":4007:4025   */\n      0xffffffffffffffff\n        /* \"#utility.yul\":3999:4005   */\n      dup2\n        /* \"#utility.yul\":3996:4026   */\n      gt\n        /* \"#utility.yul\":3993:4110   */\n      iszero\n      tag_168\n      jumpi\n        /* \"#utility.yul\":4029:4108   */\n      tag_169\n      tag_73\n      jump\t// in\n    tag_169:\n        /* \"#utility.yul\":3993:4110   */\n    tag_168:\n        /* \"#utility.yul\":4134:4197   */\n      tag_170\n        /* \"#utility.yul\":4189:4196   */\n      dup8\n        /* \"#utility.yul\":4180:4186   */\n      dup3\n        /* \"#utility.yul\":4169:4178   */\n      dup9\n        /* \"#utility.yul\":4165:4187   */\n      add\n        /* \"#utility.yul\":4134:4197   */\n      tag_83\n      jump\t// in\n    tag_170:\n        /* \"#utility.yul\":4124:4197   */\n      swap2\n      pop\n        /* \"#utility.yul\":3919:4207   */\n      pop\n        /* \"#utility.yul\":2909:4214   */\n      swap3\n      swap6\n      swap2\n      swap5\n      pop\n      swap3\n      pop\n      jump\t// out\n        /* \"#utility.yul\":4220:4346   */\n    tag_87:\n        /* \"#utility.yul\":4257:4264   */\n      0x00\n        /* \"#utility.yul\":4297:4339   */\n      0xffffffffffffffffffffffffffffffffffffffff\n        /* \"#utility.yul\":4290:4295   */\n      dup3\n        /* \"#utility.yul\":4286:4340   */\n      and\n        /* \"#utility.yul\":4275:4340   */\n      swap1\n      pop\n        /* \"#utility.yul\":4220:4346   */\n      swap2\n      swap1\n      pop\n      jump\t// out\n        /* \"#utility.yul\":4352:4448   */\n    tag_88:\n        /* \"#utility.yul\":4389:4396   */\n      0x00\n        /* \"#utility.yul\":4418:4442   */\n      tag_173\n        /* \"#utility.yul\":4436:4441   */\n      dup3\n        /* \"#utility.yul\":4418:4442   */\n      tag_87\n      jump\t// in\n    tag_173:\n        /* \"#utility.yul\":4407:4442   */\n      swap1\n      pop\n        /* \"#utility.yul\":4352:4448   */\n      swap2\n      swap1\n      pop\n      jump\t// out\n        /* \"#utility.yul\":4454:4576   */\n    tag_89:\n        /* \"#utility.yul\":4527:4551   */\n      tag_175\n        /* \"#utility.yul\":4545:4550   */\n      dup2\n        /* \"#utility.yul\":4527:4551   */\n      tag_88\n      jump\t// in\n    tag_175:\n        /* \"#utility.yul\":4520:4525   */\n      dup2\n        /* \"#utility.yul\":4517:4552   */\n      eq\n        /* \"#utility.yul\":4507:4570   */\n      tag_176\n      jumpi\n        /* \"#utility.yul\":4566:4567   */\n      0x00\n        /* \"#utility.yul\":4563:4564   */\n      dup1\n        /* \"#utility.yul\":4556:4568   */\n      revert\n        /* \"#utility.yul\":4507:4570   */\n    tag_176:\n        /* \"#utility.yul\":4454:4576   */\n      pop\n      jump\t// out\n        /* \"#utility.yul\":4582:4721   */\n    tag_90:\n        /* \"#utility.yul\":4628:4633   */\n      0x00\n        /* \"#utility.yul\":4666:4672   */\n      dup2\n        /* \"#utility.yul\":4653:4673   */\n      calldataload\n        /* \"#utility.yul\":4644:4673   */\n      swap1\n      pop\n        /* \"#utility.yul\":4682:4715   */\n      tag_178\n        /* \"#utility.yul\":4709:4714   */\n      dup2\n        /* \"#utility.yul\":4682:4715   */\n      tag_89\n      jump\t// in\n    tag_178:\n        /* \"#utility.yul\":4582:4721   */\n      swap3\n      swap2\n      pop\n      pop\n      jump\t// out\n        /* \"#utility.yul\":4727:5056   */\n    tag_12:\n        /* \"#utility.yul\":4786:4792   */\n      0x00\n        /* \"#utility.yul\":4835:4837   */\n      0x20\n        /* \"#utility.yul\":4823:4832   */\n      dup3\n        /* \"#utility.yul\":4814:4821   */\n      dup5\n        /* \"#utility.yul\":4810:4833   */\n      sub\n        /* \"#utility.yul\":4806:4838   */\n      slt\n        /* \"#utility.yul\":4803:4922   */\n      iszero\n      tag_180\n      jumpi\n        /* \"#utility.yul\":4841:4920   */\n      tag_181\n      tag_72\n      jump\t// in\n    tag_181:\n        /* \"#utility.yul\":4803:4922   */\n    tag_180:\n        /* \"#utility.yul\":4961:4962   */\n      0x00\n        /* \"#utility.yul\":4986:5039   */\n      tag_182\n        /* \"#utility.yul\":5031:5038   */\n      dup5\n        /* \"#utility.yul\":5022:5028   */\n      dup3\n        /* \"#utility.yul\":5011:5020   */\n      dup6\n        /* \"#utility.yul\":5007:5029   */\n      add\n        /* \"#utility.yul\":4986:5039   */\n      tag_90\n      jump\t// in\n    tag_182:\n        /* \"#utility.yul\":4976:5039   */\n      swap2\n      pop\n        /* \"#utility.yul\":4932:5049   */\n      pop\n        /* \"#utility.yul\":4727:5056   */\n      swap3\n      swap2\n      pop\n      pop\n      jump\t// out\n        /* \"#utility.yul\":5062:5161   */\n    tag_91:\n        /* \"#utility.yul\":5114:5120   */\n      0x00\n        /* \"#utility.yul\":5148:5153   */\n      dup2\n        /* \"#utility.yul\":5142:5154   */\n      mload\n        /* \"#utility.yul\":5132:5154   */\n      swap1\n      pop\n        /* \"#utility.yul\":5062:5161   */\n      swap2\n      swap1\n      pop\n      jump\t// out\n        /* \"#utility.yul\":5167:5336   */\n    tag_92:\n        /* \"#utility.yul\":5251:5262   */\n      0x00\n        /* \"#utility.yul\":5285:5291   */\n      dup3\n        /* \"#utility.yul\":5280:5283   */\n      dup3\n        /* \"#utility.yul\":5273:5292   */\n      mstore\n        /* \"#utility.yul\":5325:5329   */\n      0x20\n        /* \"#utility.yul\":5320:5323   */\n      dup3\n        /* \"#utility.yul\":5316:5330   */\n      add\n        /* \"#utility.yul\":5301:5330   */\n      swap1\n      pop\n        /* \"#utility.yul\":5167:5336   */\n      swap3\n      swap2\n      pop\n      pop\n      jump\t// out\n        /* \"#utility.yul\":5342:5588   */\n    tag_93:\n        /* \"#utility.yul\":5423:5424   */\n      0x00\n        /* \"#utility.yul\":5433:5546   */\n    tag_186:\n        /* \"#utility.yul\":5447:5453   */\n      dup4\n        /* \"#utility.yul\":5444:5445   */\n      dup2\n        /* \"#utility.yul\":5441:5454   */\n      lt\n        /* \"#utility.yul\":5433:5546   */\n      iszero\n      tag_188\n      jumpi\n        /* \"#utility.yul\":5532:5533   */\n      dup1\n        /* \"#utility.yul\":5527:5530   */\n      dup3\n        /* \"#utility.yul\":5523:5534   */\n      add\n        /* \"#utility.yul\":5517:5535   */\n      mload\n        /* \"#utility.yul\":5513:5514   */\n      dup2\n        /* \"#utility.yul\":5508:5511   */\n      dup5\n        /* \"#utility.yul\":5504:5515   */\n      add\n        /* \"#utility.yul\":5497:5536   */\n      mstore\n        /* \"#utility.yul\":5469:5471   */\n      0x20\n        /* \"#utility.yul\":5466:5467   */\n      dup2\n        /* \"#utility.yul\":5462:5472   */\n      add\n        /* \"#utility.yul\":5457:5472   */\n      swap1\n      pop\n        /* \"#utility.yul\":5433:5546   */\n      jump(tag_186)\n    tag_188:\n        /* \"#utility.yul\":5580:5581   */\n      0x00\n        /* \"#utility.yul\":5571:5577   */\n      dup5\n        /* \"#utility.yul\":5566:5569   */\n      dup5\n        /* \"#utility.yul\":5562:5578   */\n      add\n        /* \"#utility.yul\":5555:5582   */\n      mstore\n        /* \"#utility.yul\":5404:5588   */\n      pop\n        /* \"#utility.yul\":5342:5588   */\n      pop\n      pop\n      pop\n      jump\t// out\n        /* \"#utility.yul\":5594:5971   */\n    tag_94:\n        /* \"#utility.yul\":5682:5685   */\n      0x00\n        /* \"#utility.yul\":5710:5749   */\n      tag_190\n        /* \"#utility.yul\":5743:5748   */\n      dup3\n        /* \"#utility.yul\":5710:5749   */\n      tag_91\n      jump\t// in\n    tag_190:\n        /* \"#utility.yul\":5765:5836   */\n      tag_191\n        /* \"#utility.yul\":5829:5835   */\n      dup2\n        /* \"#utility.yul\":5824:5827   */\n      dup6\n        /* \"#utility.yul\":5765:5836   */\n      tag_92\n      jump\t// in\n    tag_191:\n        /* \"#utility.yul\":5758:5836   */\n      swap4\n      pop\n        /* \"#utility.yul\":5845:5910   */\n      tag_192\n        /* \"#utility.yul\":5903:5909   */\n      dup2\n        /* \"#utility.yul\":5898:5901   */\n      dup6\n        /* \"#utility.yul\":5891:5895   */\n      0x20\n        /* \"#utility.yul\":5884:5889   */\n      dup7\n        /* \"#utility.yul\":5880:5896   */\n      add\n        /* \"#utility.yul\":5845:5910   */\n      tag_93\n      jump\t// in\n    tag_192:\n        /* \"#utility.yul\":5935:5964   */\n      tag_193\n        /* \"#utility.yul\":5957:5963   */\n      dup2\n        /* \"#utility.yul\":5935:5964   */\n      tag_76\n      jump\t// in\n    tag_193:\n        /* \"#utility.yul\":5930:5933   */\n      dup5\n        /* \"#utility.yul\":5926:5965   */\n      add\n        /* \"#utility.yul\":5919:5965   */\n      swap2\n      pop\n        /* \"#utility.yul\":5686:5971   */\n      pop\n        /* \"#utility.yul\":5594:5971   */\n      swap3\n      swap2\n      pop\n      pop\n      jump\t// out\n        /* \"#utility.yul\":5977:6095   */\n    tag_95:\n        /* \"#utility.yul\":6064:6088   */\n      tag_195\n        /* \"#utility.yul\":6082:6087   */\n      dup2\n        /* \"#utility.yul\":6064:6088   */\n      tag_84\n      jump\t// in\n    tag_195:\n        /* \"#utility.yul\":6059:6062   */\n      dup3\n        /* \"#utility.yul\":6052:6089   */\n      mstore\n        /* \"#utility.yul\":5977:6095   */\n      pop\n      pop\n      jump\t// out\n        /* \"#utility.yul\":6101:6927   */\n    tag_15:\n        /* \"#utility.yul\":6338:6342   */\n      0x00\n        /* \"#utility.yul\":6376:6379   */\n      0x80\n        /* \"#utility.yul\":6365:6374   */\n      dup3\n        /* \"#utility.yul\":6361:6380   */\n      add\n        /* \"#utility.yul\":6353:6380   */\n      swap1\n      pop\n        /* \"#utility.yul\":6426:6435   */\n      dup2\n        /* \"#utility.yul\":6420:6424   */\n      dup2\n        /* \"#utility.yul\":6416:6436   */\n      sub\n        /* \"#utility.yul\":6412:6413   */\n      0x00\n        /* \"#utility.yul\":6401:6410   */\n      dup4\n        /* \"#utility.yul\":6397:6414   */\n      add\n        /* \"#utility.yul\":6390:6437   */\n      mstore\n        /* \"#utility.yul\":6454:6532   */\n      tag_197\n        /* \"#utility.yul\":6527:6531   */\n      dup2\n        /* \"#utility.yul\":6518:6524   */\n      dup8\n        /* \"#utility.yul\":6454:6532   */\n      tag_94\n      jump\t// in\n    tag_197:\n        /* \"#utility.yul\":6446:6532   */\n      swap1\n      pop\n        /* \"#utility.yul\":6542:6614   */\n      tag_198\n        /* \"#utility.yul\":6610:6612   */\n      0x20\n        /* \"#utility.yul\":6599:6608   */\n      dup4\n        /* \"#utility.yul\":6595:6613   */\n      add\n        /* \"#utility.yul\":6586:6592   */\n      dup7\n        /* \"#utility.yul\":6542:6614   */\n      tag_95\n      jump\t// in\n    tag_198:\n        /* \"#utility.yul\":6661:6670   */\n      dup2\n        /* \"#utility.yul\":6655:6659   */\n      dup2\n        /* \"#utility.yul\":6651:6671   */\n      sub\n        /* \"#utility.yul\":6646:6648   */\n      0x40\n        /* \"#utility.yul\":6635:6644   */\n      dup4\n        /* \"#utility.yul\":6631:6649   */\n      add\n        /* \"#utility.yul\":6624:6672   */\n      mstore\n        /* \"#utility.yul\":6689:6767   */\n      tag_199\n        /* \"#utility.yul\":6762:6766   */\n      dup2\n        /* \"#utility.yul\":6753:6759   */\n      dup6\n        /* \"#utility.yul\":6689:6767   */\n      tag_94\n      jump\t// in\n    tag_199:\n        /* \"#utility.yul\":6681:6767   */\n      swap1\n      pop\n        /* \"#utility.yul\":6814:6823   */\n      dup2\n        /* \"#utility.yul\":6808:6812   */\n      dup2\n        /* \"#utility.yul\":6804:6824   */\n      sub\n        /* \"#utility.yul\":6799:6801   */\n      0x60\n        /* \"#utility.yul\":6788:6797   */\n      dup4\n        /* \"#utility.yul\":6784:6802   */\n      add\n        /* \"#utility.yul\":6777:6825   */\n      mstore\n        /* \"#utility.yul\":6842:6920   */\n      tag_200\n        /* \"#utility.yul\":6915:6919   */\n      dup2\n        /* \"#utility.yul\":6906:6912   */\n      dup5\n        /* \"#utility.yul\":6842:6920   */\n      tag_94\n      jump\t// in\n    tag_200:\n        /* \"#utility.yul\":6834:6920   */\n      swap1\n      pop\n        /* \"#utility.yul\":6101:6927   */\n      swap6\n      swap5\n      pop\n      pop\n      pop\n      pop\n      pop\n      jump\t// out\n        /* \"#utility.yul\":6933:7103   */\n    tag_96:\n        /* \"#utility.yul\":7073:7095   */\n      0x4e616d652063616e6e6f7420626520656d707479000000000000000000000000\n        /* \"#utility.yul\":7069:7070   */\n      0x00\n        /* \"#utility.yul\":7061:7067   */\n      dup3\n        /* \"#utility.yul\":7057:7071   */\n      add\n        /* \"#utility.yul\":7050:7096   */\n      mstore\n        /* \"#utility.yul\":6933:7103   */\n      pop\n      jump\t// out\n        /* \"#utility.yul\":7109:7475   */\n    tag_97:\n        /* \"#utility.yul\":7251:7254   */\n      0x00\n        /* \"#utility.yul\":7272:7339   */\n      tag_203\n        /* \"#utility.yul\":7336:7338   */\n      0x14\n        /* \"#utility.yul\":7331:7334   */\n      dup4\n        /* \"#utility.yul\":7272:7339   */\n      tag_92\n      jump\t// in\n    tag_203:\n        /* \"#utility.yul\":7265:7339   */\n      swap2\n      pop\n        /* \"#utility.yul\":7348:7441   */\n      tag_204\n        /* \"#utility.yul\":7437:7440   */\n      dup3\n        /* \"#utility.yul\":7348:7441   */\n      tag_96\n      jump\t// in\n    tag_204:\n        /* \"#utility.yul\":7466:7468   */\n      0x20\n        /* \"#utility.yul\":7461:7464   */\n      dup3\n        /* \"#utility.yul\":7457:7469   */\n      add\n        /* \"#utility.yul\":7450:7469   */\n      swap1\n      pop\n        /* \"#utility.yul\":7109:7475   */\n      swap2\n      swap1\n      pop\n      jump\t// out\n        /* \"#utility.yul\":7481:7900   */\n    tag_22:\n        /* \"#utility.yul\":7647:7651   */\n      0x00\n        /* \"#utility.yul\":7685:7687   */\n      0x20\n        /* \"#utility.yul\":7674:7683   */\n      dup3\n        /* \"#utility.yul\":7670:7688   */\n      add\n        /* \"#utility.yul\":7662:7688   */\n      swap1\n      pop\n        /* \"#utility.yul\":7734:7743   */\n      dup2\n        /* \"#utility.yul\":7728:7732   */\n      dup2\n        /* \"#utility.yul\":7724:7744   */\n      sub\n        /* \"#utility.yul\":7720:7721   */\n      0x00\n        /* \"#utility.yul\":7709:7718   */\n      dup4\n        /* \"#utility.yul\":7705:7722   */\n      add\n        /* \"#utility.yul\":7698:7745   */\n      mstore\n        /* \"#utility.yul\":7762:7893   */\n      tag_206\n        /* \"#utility.yul\":7888:7892   */\n      dup2\n        /* \"#utility.yul\":7762:7893   */\n      tag_97\n      jump\t// in\n    tag_206:\n        /* \"#utility.yul\":7754:7893   */\n      swap1\n      pop\n        /* \"#utility.yul\":7481:7900   */\n      swap2\n      swap1\n      pop\n      jump\t// out\n        /* \"#utility.yul\":7906:8082   */\n    tag_98:\n        /* \"#utility.yul\":8046:8074   */\n      0x416765206d7573742062652067726561746572207468616e2030000000000000\n        /* \"#utility.yul\":8042:8043   */\n      0x00\n        /* \"#utility.yul\":8034:8040   */\n      dup3\n        /* \"#utility.yul\":8030:8044   */\n      add\n        /* \"#utility.yul\":8023:8075   */\n      mstore\n        /* \"#utility.yul\":7906:8082   */\n      pop\n      jump\t// out\n        /* \"#utility.yul\":8088:8454   */\n    tag_99:\n        /* \"#utility.yul\":8230:8233   */\n      0x00\n        /* \"#utility.yul\":8251:8318   */\n      tag_209\n        /* \"#utility.yul\":8315:8317   */\n      0x1a\n        /* \"#utility.yul\":8310:8313   */\n      dup4\n        /* \"#utility.yul\":8251:8318   */\n      tag_92\n      jump\t// in\n    tag_209:\n        /* \"#utility.yul\":8244:8318   */\n      swap2\n      pop\n        /* \"#utility.yul\":8327:8420   */\n      tag_210\n        /* \"#utility.yul\":8416:8419   */\n      dup3\n        /* \"#utility.yul\":8327:8420   */\n      tag_98\n      jump\t// in\n    tag_210:\n        /* \"#utility.yul\":8445:8447   */\n      0x20\n        /* \"#utility.yul\":8440:8443   */\n      dup3\n        /* \"#utility.yul\":8436:8448   */\n      add\n        /* \"#utility.yul\":8429:8448   */\n      swap1\n      pop\n        /* \"#utility.yul\":8088:8454   */\n      swap2\n      swap1\n      pop\n      jump\t// out\n        /* \"#utility.yul\":8460:8879   */\n    tag_25:\n        /* \"#utility.yul\":8626:8630   */\n      0x00\n        /* \"#utility.yul\":8664:8666   */\n      0x20\n        /* \"#utility.yul\":8653:8662   */\n      dup3\n        /* \"#utility.yul\":8649:8667   */\n      add\n        /* \"#utility.yul\":8641:8667   */\n      swap1\n      pop\n        /* \"#utility.yul\":8713:8722   */\n      dup2\n        /* \"#utility.yul\":8707:8711   */\n      dup2\n        /* \"#utility.yul\":8703:8723   */\n      sub\n        /* \"#utility.yul\":8699:8700   */\n      0x00\n        /* \"#utility.yul\":8688:8697   */\n      dup4\n        /* \"#utility.yul\":8684:8701   */\n      add\n        /* \"#utility.yul\":8677:8724   */\n      mstore\n        /* \"#utility.yul\":8741:8872   */\n      tag_212\n        /* \"#utility.yul\":8867:8871   */\n      dup2\n        /* \"#utility.yul\":8741:8872   */\n      tag_99\n      jump\t// in\n    tag_212:\n        /* \"#utility.yul\":8733:8872   */\n      swap1\n      pop\n        /* \"#utility.yul\":8460:8879   */\n      swap2\n      swap1\n      pop\n      jump\t// out\n        /* \"#utility.yul\":8885:9060   */\n    tag_100:\n        /* \"#utility.yul\":9025:9052   */\n      0x446961676e6f7369732063616e6e6f7420626520656d70747900000000000000\n        /* \"#utility.yul\":9021:9022   */\n      0x00\n        /* \"#utility.yul\":9013:9019   */\n      dup3\n        /* \"#utility.yul\":9009:9023   */\n      add\n        /* \"#utility.yul\":9002:9053   */\n      mstore\n        /* \"#utility.yul\":8885:9060   */\n      pop\n      jump\t// out\n        /* \"#utility.yul\":9066:9432   */\n    tag_101:\n        /* \"#utility.yul\":9208:9211   */\n      0x00\n        /* \"#utility.yul\":9229:9296   */\n      tag_215\n        /* \"#utility.yul\":9293:9295   */\n      0x19\n        /* \"#utility.yul\":9288:9291   */\n      dup4\n        /* \"#utility.yul\":9229:9296   */\n      tag_92\n      jump\t// in\n    tag_215:\n        /* \"#utility.yul\":9222:9296   */\n      swap2\n      pop\n        /* \"#utility.yul\":9305:9398   */\n      tag_216\n        /* \"#utility.yul\":9394:9397   */\n      dup3\n        /* \"#utility.yul\":9305:9398   */\n      tag_100\n      jump\t// in\n    tag_216:\n        /* \"#utility.yul\":9423:9425   */\n      0x20\n        /* \"#utility.yul\":9418:9421   */\n      dup3\n        /* \"#utility.yul\":9414:9426   */\n      add\n        /* \"#utility.yul\":9407:9426   */\n      swap1\n      pop\n        /* \"#utility.yul\":9066:9432   */\n      swap2\n      swap1\n      pop\n      jump\t// out\n        /* \"#utility.yul\":9438:9857   */\n    tag_28:\n        /* \"#utility.yul\":9604:9608   */\n      0x00\n        /* \"#utility.yul\":9642:9644   */\n      0x20\n        /* \"#utility.yul\":9631:9640   */\n      dup3\n        /* \"#utility.yul\":9627:9645   */\n      add\n        /* \"#utility.yul\":9619:9645   */\n      swap1\n      pop\n        /* \"#utility.yul\":9691:9700   */\n      dup2\n        /* \"#utility.yul\":9685:9689   */\n      dup2\n        /* \"#utility.yul\":9681:9701   */\n      sub\n        /* \"#utility.yul\":9677:9678   */\n      0x00\n        /* \"#utility.yul\":9666:9675   */\n      dup4\n        /* \"#utility.yul\":9662:9679   */\n      add\n        /* \"#utility.yul\":9655:9702   */\n      mstore\n        /* \"#utility.yul\":9719:9850   */\n      tag_218\n        /* \"#utility.yul\":9845:9849   */\n      dup2\n        /* \"#utility.yul\":9719:9850   */\n      tag_101\n      jump\t// in\n    tag_218:\n        /* \"#utility.yul\":9711:9850   */\n      swap1\n      pop\n        /* \"#utility.yul\":9438:9857   */\n      swap2\n      swap1\n      pop\n      jump\t// out\n        /* \"#utility.yul\":9863:10041   */\n    tag_102:\n        /* \"#utility.yul\":10003:10033   */\n      0x507265736372697074696f6e2063616e6e6f7420626520656d70747900000000\n        /* \"#utility.yul\":9999:10000   */\n      0x00\n        /* \"#utility.yul\":9991:9997   */\n      dup3\n        /* \"#utility.yul\":9987:10001   */\n      add\n        /* \"#utility.yul\":9980:10034   */\n      mstore\n        /* \"#utility.yul\":9863:10041   */\n      pop\n      jump\t// out\n        /* \"#utility.yul\":10047:10413   */\n    tag_103:\n        /* \"#utility.yul\":10189:10192   */\n      0x00\n        /* \"#utility.yul\":10210:10277   */\n      tag_221\n        /* \"#utility.yul\":10274:10276   */\n      0x1c\n        /* \"#utility.yul\":10269:10272   */\n      dup4\n        /* \"#utility.yul\":10210:10277   */\n      tag_92\n      jump\t// in\n    tag_221:\n        /* \"#utility.yul\":10203:10277   */\n      swap2\n      pop\n        /* \"#utility.yul\":10286:10379   */\n      tag_222\n        /* \"#utility.yul\":10375:10378   */\n      dup3\n        /* \"#utility.yul\":10286:10379   */\n      tag_102\n      jump\t// in\n    tag_222:\n        /* \"#utility.yul\":10404:10406   */\n      0x20\n        /* \"#utility.yul\":10399:10402   */\n      dup3\n        /* \"#utility.yul\":10395:10407   */\n      add\n        /* \"#utility.yul\":10388:10407   */\n      swap1\n      pop\n        /* \"#utility.yul\":10047:10413   */\n      swap2\n      swap1\n      pop\n      jump\t// out\n        /* \"#utility.yul\":10419:10838   */\n    tag_31:\n        /* \"#utility.yul\":10585:10589   */\n      0x00\n        /* \"#utility.yul\":10623:10625   */\n      0x20\n        /* \"#utility.yul\":10612:10621   */\n      dup3\n        /* \"#utility.yul\":10608:10626   */\n      add\n        /* \"#utility.yul\":10600:10626   */\n      swap1\n      pop\n        /* \"#utility.yul\":10672:10681   */\n      dup2\n        /* \"#utility.yul\":10666:10670   */\n      dup2\n        /* \"#utility.yul\":10662:10682   */\n      sub\n        /* \"#utility.yul\":10658:10659   */\n      0x00\n        /* \"#utility.yul\":10647:10656   */\n      dup4\n        /* \"#utility.yul\":10643:10660   */\n      add\n        /* \"#utility.yul\":10636:10683   */\n      mstore\n        /* \"#utility.yul\":10700:10831   */\n      tag_224\n        /* \"#utility.yul\":10826:10830   */\n      dup2\n        /* \"#utility.yul\":10700:10831   */\n      tag_103\n      jump\t// in\n    tag_224:\n        /* \"#utility.yul\":10692:10831   */\n      swap1\n      pop\n        /* \"#utility.yul\":10419:10838   */\n      swap2\n      swap1\n      pop\n      jump\t// out\n        /* \"#utility.yul\":10844:11024   */\n    tag_104:\n        /* \"#utility.yul\":10892:10969   */\n      0x4e487b7100000000000000000000000000000000000000000000000000000000\n        /* \"#utility.yul\":10889:10890   */\n      0x00\n        /* \"#utility.yul\":10882:10970   */\n      mstore\n        /* \"#utility.yul\":10989:10993   */\n      0x22\n        /* \"#utility.yul\":10986:10987   */\n      0x04\n        /* \"#utility.yul\":10979:10994   */\n      mstore\n        /* \"#utility.yul\":11013:11017   */\n      0x24\n        /* \"#utility.yul\":11010:11011   */\n      0x00\n        /* \"#utility.yul\":11003:11018   */\n      revert\n        /* \"#utility.yul\":11030:11350   */\n    tag_39:\n        /* \"#utility.yul\":11074:11080   */\n      0x00\n        /* \"#utility.yul\":11111:11112   */\n      0x02\n        /* \"#utility.yul\":11105:11109   */\n      dup3\n        /* \"#utility.yul\":11101:11113   */\n      div\n        /* \"#utility.yul\":11091:11113   */\n      swap1\n      pop\n        /* \"#utility.yul\":11158:11159   */\n      0x01\n        /* \"#utility.yul\":11152:11156   */\n      dup3\n        /* \"#utility.yul\":11148:11160   */\n      and\n        /* \"#utility.yul\":11179:11197   */\n      dup1\n        /* \"#utility.yul\":11169:11250   */\n      tag_227\n      jumpi\n        /* \"#utility.yul\":11235:11239   */\n      0x7f\n        /* \"#utility.yul\":11227:11233   */\n      dup3\n        /* \"#utility.yul\":11223:11240   */\n      and\n        /* \"#utility.yul\":11213:11240   */\n      swap2\n      pop\n        /* \"#utility.yul\":11169:11250   */\n    tag_227:\n        /* \"#utility.yul\":11297:11299   */\n      0x20\n        /* \"#utility.yul\":11289:11295   */\n      dup3\n        /* \"#utility.yul\":11286:11300   */\n      lt\n        /* \"#utility.yul\":11266:11284   */\n      dup2\n        /* \"#utility.yul\":11263:11301   */\n      sub\n        /* \"#utility.yul\":11260:11344   */\n      tag_228\n      jumpi\n        /* \"#utility.yul\":11316:11334   */\n      tag_229\n      tag_104\n      jump\t// in\n    tag_229:\n        /* \"#utility.yul\":11260:11344   */\n    tag_228:\n        /* \"#utility.yul\":11081:11350   */\n      pop\n        /* \"#utility.yul\":11030:11350   */\n      swap2\n      swap1\n      pop\n      jump\t// out\n        /* \"#utility.yul\":11356:11497   */\n    tag_105:\n        /* \"#utility.yul\":11405:11409   */\n      0x00\n        /* \"#utility.yul\":11428:11431   */\n      dup2\n        /* \"#utility.yul\":11420:11431   */\n      swap1\n      pop\n        /* \"#utility.yul\":11451:11454   */\n      dup2\n        /* \"#utility.yul\":11448:11449   */\n      0x00\n        /* \"#utility.yul\":11441:11455   */\n      mstore\n        /* \"#utility.yul\":11485:11489   */\n      0x20\n        /* \"#utility.yul\":11482:11483   */\n      0x00\n        /* \"#utility.yul\":11472:11490   */\n      keccak256\n        /* \"#utility.yul\":11464:11490   */\n      swap1\n      pop\n        /* \"#utility.yul\":11356:11497   */\n      swap2\n      swap1\n      pop\n      jump\t// out\n        /* \"#utility.yul\":11503:11596   */\n    tag_106:\n        /* \"#utility.yul\":11540:11546   */\n      0x00\n        /* \"#utility.yul\":11587:11589   */\n      0x20\n        /* \"#utility.yul\":11582:11584   */\n      0x1f\n        /* \"#utility.yul\":11575:11580   */\n      dup4\n        /* \"#utility.yul\":11571:11585   */\n      add\n        /* \"#utility.yul\":11567:11590   */\n      div\n        /* \"#utility.yul\":11557:11590   */\n      swap1\n      pop\n        /* \"#utility.yul\":11503:11596   */\n      swap2\n      swap1\n      pop\n      jump\t// out\n        /* \"#utility.yul\":11602:11709   */\n    tag_107:\n        /* \"#utility.yul\":11646:11654   */\n      0x00\n        /* \"#utility.yul\":11696:11701   */\n      dup3\n        /* \"#utility.yul\":11690:11694   */\n      dup3\n        /* \"#utility.yul\":11686:11702   */\n      shl\n        /* \"#utility.yul\":11665:11702   */\n      swap1\n      pop\n        /* \"#utility.yul\":11602:11709   */\n      swap3\n      swap2\n      pop\n      pop\n      jump\t// out\n        /* \"#utility.yul\":11715:12108   */\n    tag_108:\n        /* \"#utility.yul\":11784:11790   */\n      0x00\n        /* \"#utility.yul\":11834:11835   */\n      0x08\n        /* \"#utility.yul\":11822:11832   */\n      dup4\n        /* \"#utility.yul\":11818:11836   */\n      mul\n        /* \"#utility.yul\":11857:11954   */\n      tag_234\n        /* \"#utility.yul\":11887:11953   */\n      0xffffffffffffffffffffffffffffffffffffffffffffffffffffffffffffffff\n        /* \"#utility.yul\":11876:11885   */\n      dup3\n        /* \"#utility.yul\":11857:11954   */\n      tag_107\n      jump\t// in\n    tag_234:\n        /* \"#utility.yul\":11975:12014   */\n      tag_235\n        /* \"#utility.yul\":12005:12013   */\n      dup7\n        /* \"#utility.yul\":11994:12003   */\n      dup4\n        /* \"#utility.yul\":11975:12014   */\n      tag_107\n      jump\t// in\n    tag_235:\n        /* \"#utility.yul\":11963:12014   */\n      swap6\n      pop\n        /* \"#utility.yul\":12047:12051   */\n      dup1\n        /* \"#utility.yul\":12043:12052   */\n      not\n        /* \"#utility.yul\":12036:12041   */\n      dup5\n        /* \"#utility.yul\":12032:12053   */\n      and\n        /* \"#utility.yul\":12023:12053   */\n      swap4\n      pop\n        /* \"#utility.yul\":12096:12100   */\n      dup1\n        /* \"#utility.yul\":12086:12094   */\n      dup7\n        /* \"#utility.yul\":12082:12101   */\n      and\n        /* \"#utility.yul\":12075:12080   */\n      dup5\n        /* \"#utility.yul\":12072:12102   */\n      or\n        /* \"#utility.yul\":12062:12102   */\n      swap3\n      pop\n        /* \"#utility.yul\":11791:12108   */\n      pop\n      pop\n        /* \"#utility.yul\":11715:12108   */\n      swap4\n      swap3\n      pop\n      pop\n      pop\n      jump\t// out\n        /* \"#utility.yul\":12114:12174   */\n    tag_109:\n        /* \"#utility.yul\":12142:12145   */\n      0x00\n        /* \"#utility.yul\":12163:12168   */\n      dup2\n        /* \"#utility.yul\":12156:12168   */\n      swap1\n      pop\n        /* \"#utility.yul\":12114:12174   */\n      swap2\n      swap1\n      pop\n      jump\t// out\n        /* \"#utility.yul\":12180:12322   */\n    tag_110:\n        /* \"#utility.yul\":12230:12239   */\n      0x00\n        /* \"#utility.yul\":12263:12316   */\n      tag_238\n        /* \"#utility.yul\":12281:12315   */\n      tag_239\n        /* \"#utility.yul\":12290:12314   */\n      tag_240\n        /* \"#utility.yul\":12308:12313   */\n      dup5\n        /* \"#utility.yul\":12290:12314   */\n      tag_84\n      jump\t// in\n    tag_240:\n        /* \"#utility.yul\":12281:12315   */\n      tag_109\n      jump\t// in\n    tag_239:\n        /* \"#utility.yul\":12263:12316   */\n      tag_84\n      jump\t// in\n    tag_238:\n        /* \"#utility.yul\":12250:12316   */\n      swap1\n      pop\n        /* \"#utility.yul\":12180:12322   */\n      swap2\n      swap1\n      pop\n      jump\t// out\n        /* \"#utility.yul\":12328:12403   */\n    tag_111:\n        /* \"#utility.yul\":12371:12374   */\n      0x00\n        /* \"#utility.yul\":12392:12397   */\n      dup2\n        /* \"#utility.yul\":12385:12397   */\n      swap1\n      pop\n        /* \"#utility.yul\":12328:12403   */\n      swap2\n      swap1\n      pop\n      jump\t// out\n        /* \"#utility.yul\":12409:12678   */\n    tag_112:\n        /* \"#utility.yul\":12519:12558   */\n      tag_243\n        /* \"#utility.yul\":12550:12557   */\n      dup4\n        /* \"#utility.yul\":12519:12558   */\n      tag_110\n      jump\t// in\n    tag_243:\n        /* \"#utility.yul\":12580:12671   */\n      tag_244\n        /* \"#utility.yul\":12629:12670   */\n      tag_245\n        /* \"#utility.yul\":12653:12669   */\n      dup3\n        /* \"#utility.yul\":12629:12670   */\n      tag_111\n      jump\t// in\n    tag_245:\n        /* \"#utility.yul\":12621:12627   */\n      dup5\n        /* \"#utility.yul\":12614:12618   */\n      dup5\n        /* \"#utility.yul\":12608:12619   */\n      sload\n        /* \"#utility.yul\":12580:12671   */\n      tag_108\n      jump\t// in\n    tag_244:\n        /* \"#utility.yul\":12574:12578   */\n      dup3\n        /* \"#utility.yul\":12567:12672   */\n      sstore\n        /* \"#utility.yul\":12485:12678   */\n      pop\n        /* \"#utility.yul\":12409:12678   */\n      pop\n      pop\n      pop\n      jump\t// out\n        /* \"#utility.yul\":12684:12757   */\n    tag_113:\n        /* \"#utility.yul\":12729:12732   */\n      0x00\n        /* \"#utility.yul\":12684:12757   */\n      swap1\n      jump\t// out\n        /* \"#utility.yul\":12763:12952   */\n    tag_114:\n        /* \"#utility.yul\":12840:12872   */\n      tag_248\n      tag_113\n      jump\t// in\n    tag_248:\n        /* \"#utility.yul\":12881:12946   */\n      tag_249\n        /* \"#utility.yul\":12939:12945   */\n      dup2\n        /* \"#utility.yul\":12931:12937   */\n      dup5\n        /* \"#utility.yul\":12925:12929   */\n      dup5\n        /* \"#utility.yul\":12881:12946   */\n      tag_112\n      jump\t// in\n    tag_249:\n        /* \"#utility.yul\":12816:12952   */\n      pop\n        /* \"#utility.yul\":12763:12952   */\n      pop\n      pop\n      jump\t// out\n        /* \"#utility.yul\":12958:13144   */\n    tag_115:\n        /* \"#utility.yul\":13018:13138   */\n    tag_251:\n        /* \"#utility.yul\":13035:13038   */\n      dup2\n        /* \"#utility.yul\":13028:13033   */\n      dup2\n        /* \"#utility.yul\":13025:13039   */\n      lt\n        /* \"#utility.yul\":13018:13138   */\n      iszero\n      tag_253\n      jumpi\n        /* \"#utility.yul\":13089:13128   */\n      tag_254\n        /* \"#utility.yul\":13126:13127   */\n      0x00\n        /* \"#utility.yul\":13119:13124   */\n      dup3\n        /* \"#utility.yul\":13089:13128   */\n      tag_114\n      jump\t// in\n    tag_254:\n        /* \"#utility.yul\":13062:13063   */\n      0x01\n        /* \"#utility.yul\":13055:13060   */\n      dup2\n        /* \"#utility.yul\":13051:13064   */\n      add\n        /* \"#utility.yul\":13042:13064   */\n      swap1\n      pop\n        /* \"#utility.yul\":13018:13138   */\n      jump(tag_251)\n    tag_253:\n        /* \"#utility.yul\":12958:13144   */\n      pop\n      pop\n      jump\t// out\n        /* \"#utility.yul\":13150:13693   */\n    tag_116:\n        /* \"#utility.yul\":13251:13253   */\n      0x1f\n        /* \"#utility.yul\":13246:13249   */\n      dup3\n        /* \"#utility.yul\":13243:13254   */\n      gt\n        /* \"#utility.yul\":13240:13686   */\n      iszero\n      tag_256\n      jumpi\n        /* \"#utility.yul\":13285:13323   */\n      tag_257\n        /* \"#utility.yul\":13317:13322   */\n      dup2\n        /* \"#utility.yul\":13285:13323   */\n      tag_105\n      jump\t// in\n    tag_257:\n        /* \"#utility.yul\":13369:13398   */\n      tag_258\n        /* \"#utility.yul\":13387:13397   */\n      dup5\n        /* \"#utility.yul\":13369:13398   */\n      tag_106\n      jump\t// in\n    tag_258:\n        /* \"#utility.yul\":13359:13367   */\n      dup2\n        /* \"#utility.yul\":13355:13399   */\n      add\n        /* \"#utility.yul\":13552:13554   */\n      0x20\n        /* \"#utility.yul\":13540:13550   */\n      dup6\n        /* \"#utility.yul\":13537:13555   */\n      lt\n        /* \"#utility.yul\":13534:13583   */\n      iszero\n      tag_259\n      jumpi\n        /* \"#utility.yul\":13573:13581   */\n      dup2\n        /* \"#utility.yul\":13558:13581   */\n      swap1\n      pop\n        /* \"#utility.yul\":13534:13583   */\n    tag_259:\n        /* \"#utility.yul\":13596:13676   */\n      tag_260\n        /* \"#utility.yul\":13652:13674   */\n      tag_261\n        /* \"#utility.yul\":13670:13673   */\n      dup6\n        /* \"#utility.yul\":13652:13674   */\n      tag_106\n      jump\t// in\n    tag_261:\n        /* \"#utility.yul\":13642:13650   */\n      dup4\n        /* \"#utility.yul\":13638:13675   */\n      add\n        /* \"#utility.yul\":13625:13636   */\n      dup3\n        /* \"#utility.yul\":13596:13676   */\n      tag_115\n      jump\t// in\n    tag_260:\n        /* \"#utility.yul\":13255:13686   */\n      pop\n      pop\n        /* \"#utility.yul\":13240:13686   */\n    tag_256:\n        /* \"#utility.yul\":13150:13693   */\n      pop\n      pop\n      pop\n      jump\t// out\n        /* \"#utility.yul\":13699:13816   */\n    tag_117:\n        /* \"#utility.yul\":13753:13761   */\n      0x00\n        /* \"#utility.yul\":13803:13808   */\n      dup3\n        /* \"#utility.yul\":13797:13801   */\n      dup3\n        /* \"#utility.yul\":13793:13809   */\n      shr\n        /* \"#utility.yul\":13772:13809   */\n      swap1\n      pop\n        /* \"#utility.yul\":13699:13816   */\n      swap3\n      swap2\n      pop\n      pop\n      jump\t// out\n        /* \"#utility.yul\":13822:13991   */\n    tag_118:\n        /* \"#utility.yul\":13866:13872   */\n      0x00\n        /* \"#utility.yul\":13899:13950   */\n      tag_264\n        /* \"#utility.yul\":13947:13948   */\n      0x00\n        /* \"#utility.yul\":13943:13949   */\n      not\n        /* \"#utility.yul\":13935:13940   */\n      dup5\n        /* \"#utility.yul\":13932:13933   */\n      0x08\n        /* \"#utility.yul\":13928:13941   */\n      mul\n        /* \"#utility.yul\":13899:13950   */\n      tag_117\n      jump\t// in\n    tag_264:\n        /* \"#utility.yul\":13895:13951   */\n      not\n        /* \"#utility.yul\":13980:13984   */\n      dup1\n        /* \"#utility.yul\":13974:13978   */\n      dup4\n        /* \"#utility.yul\":13970:13985   */\n      and\n        /* \"#utility.yul\":13960:13985   */\n      swap2\n      pop\n        /* \"#utility.yul\":13873:13991   */\n      pop\n        /* \"#utility.yul\":13822:13991   */\n      swap3\n      swap2\n      pop\n      pop\n      jump\t// out\n        /* \"#utility.yul\":13996:14291   */\n    tag_119:\n        /* \"#utility.yul\":14072:14076   */\n      0x00\n        /* \"#utility.yul\":14218:14247   */\n      tag_266\n        /* \"#utility.yul\":14243:14246   */\n      dup4\n        /* \"#utility.yul\":14237:14241   */\n      dup4\n        /* \"#utility.yul\":14218:14247   */\n      tag_118\n      jump\t// in\n    tag_266:\n        /* \"#utility.yul\":14210:14247   */\n      swap2\n      pop\n        /* \"#utility.yul\":14280:14283   */\n      dup3\n        /* \"#utility.yul\":14277:14278   */\n      0x02\n        /* \"#utility.yul\":14273:14284   */\n      mul\n        /* \"#utility.yul\":14267:14271   */\n      dup3\n        /* \"#utility.yul\":14264:14285   */\n      or\n        /* \"#utility.yul\":14256:14285   */\n      swap1\n      pop\n        /* \"#utility.yul\":13996:14291   */\n      swap3\n      swap2\n      pop\n      pop\n      jump\t// out\n        /* \"#utility.yul\":14296:15691   */\n    tag_33:\n        /* \"#utility.yul\":14413:14450   */\n      tag_268\n        /* \"#utility.yul\":14446:14449   */\n      dup3\n        /* \"#utility.yul\":14413:14450   */\n      tag_91\n      jump\t// in\n    tag_268:\n        /* \"#utility.yul\":14515:14533   */\n      0xffffffffffffffff\n        /* \"#utility.yul\":14507:14513   */\n      dup2\n        /* \"#utility.yul\":14504:14534   */\n      gt\n        /* \"#utility.yul\":14501:14557   */\n      iszero\n      tag_269\n      jumpi\n        /* \"#utility.yul\":14537:14555   */\n      tag_270\n      tag_77\n      jump\t// in\n    tag_270:\n        /* \"#utility.yul\":14501:14557   */\n    tag_269:\n        /* \"#utility.yul\":14581:14619   */\n      tag_271\n        /* \"#utility.yul\":14613:14617   */\n      dup3\n        /* \"#utility.yul\":14607:14618   */\n      sload\n        /* \"#utility.yul\":14581:14619   */\n      tag_39\n      jump\t// in\n    tag_271:\n        /* \"#utility.yul\":14666:14733   */\n      tag_272\n        /* \"#utility.yul\":14726:14732   */\n      dup3\n        /* \"#utility.yul\":14718:14724   */\n      dup3\n        /* \"#utility.yul\":14712:14716   */\n      dup6\n        /* \"#utility.yul\":14666:14733   */\n      tag_116\n      jump\t// in\n    tag_272:\n        /* \"#utility.yul\":14760:14761   */\n      0x00\n        /* \"#utility.yul\":14784:14788   */\n      0x20\n        /* \"#utility.yul\":14771:14788   */\n      swap1\n      pop\n        /* \"#utility.yul\":14816:14818   */\n      0x1f\n        /* \"#utility.yul\":14808:14814   */\n      dup4\n        /* \"#utility.yul\":14805:14819   */\n      gt\n        /* \"#utility.yul\":14833:14834   */\n      0x01\n        /* \"#utility.yul\":14828:15446   */\n      dup2\n      eq\n      tag_274\n      jumpi\n        /* \"#utility.yul\":15490:15491   */\n      0x00\n        /* \"#utility.yul\":15507:15513   */\n      dup5\n        /* \"#utility.yul\":15504:15581   */\n      iszero\n      tag_275\n      jumpi\n        /* \"#utility.yul\":15556:15565   */\n      dup3\n        /* \"#utility.yul\":15551:15554   */\n      dup8\n        /* \"#utility.yul\":15547:15566   */\n      add\n        /* \"#utility.yul\":15541:15567   */\n      mload\n        /* \"#utility.yul\":15532:15567   */\n      swap1\n      pop\n        /* \"#utility.yul\":15504:15581   */\n    tag_275:\n        /* \"#utility.yul\":15607:15674   */\n      tag_276\n        /* \"#utility.yul\":15667:15673   */\n      dup6\n        /* \"#utility.yul\":15660:15665   */\n      dup3\n        /* \"#utility.yul\":15607:15674   */\n      tag_119\n      jump\t// in\n    tag_276:\n        /* \"#utility.yul\":15601:15605   */\n      dup7\n        /* \"#utility.yul\":15594:15675   */\n      sstore\n        /* \"#utility.yul\":15463:15685   */\n      pop\n        /* \"#utility.yul\":14798:15685   */\n      jump(tag_273)\n        /* \"#utility.yul\":14828:15446   */\n    tag_274:\n        /* \"#utility.yul\":14880:14884   */\n      0x1f\n        /* \"#utility.yul\":14876:14885   */\n      not\n        /* \"#utility.yul\":14868:14874   */\n      dup5\n        /* \"#utility.yul\":14864:14886   */\n      and\n        /* \"#utility.yul\":14914:14951   */\n      tag_277\n        /* \"#utility.yul\":14946:14950   */\n      dup7\n        /* \"#utility.yul\":14914:14951   */\n      tag_105\n      jump\t// in\n    tag_277:\n        /* \"#utility.yul\":14973:14974   */\n      0x00\n        /* \"#utility.yul\":14987:15195   */\n    tag_278:\n        /* \"#utility.yul\":15001:15008   */\n      dup3\n        /* \"#utility.yul\":14998:14999   */\n      dup2\n        /* \"#utility.yul\":14995:15009   */\n      lt\n        /* \"#utility.yul\":14987:15195   */\n      iszero\n      tag_280\n      jumpi\n        /* \"#utility.yul\":15080:15089   */\n      dup5\n        /* \"#utility.yul\":15075:15078   */\n      dup10\n        /* \"#utility.yul\":15071:15090   */\n      add\n        /* \"#utility.yul\":15065:15091   */\n      mload\n        /* \"#utility.yul\":15057:15063   */\n      dup3\n        /* \"#utility.yul\":15050:15092   */\n      sstore\n        /* \"#utility.yul\":15131:15132   */\n      0x01\n        /* \"#utility.yul\":15123:15129   */\n      dup3\n        /* \"#utility.yul\":15119:15133   */\n      add\n        /* \"#utility.yul\":15109:15133   */\n      swap2\n      pop\n        /* \"#utility.yul\":15178:15180   */\n      0x20\n        /* \"#utility.yul\":15167:15176   */\n      dup6\n        /* \"#utility.yul\":15163:15181   */\n      add\n        /* \"#utility.yul\":15150:15181   */\n      swap5\n      pop\n        /* \"#utility.yul\":15024:15028   */\n      0x20\n        /* \"#utility.yul\":15021:15022   */\n      dup2\n        /* \"#utility.yul\":15017:15029   */\n      add\n        /* \"#utility.yul\":15012:15029   */\n      swap1\n      pop\n        /* \"#utility.yul\":14987:15195   */\n      jump(tag_278)\n    tag_280:\n        /* \"#utility.yul\":15223:15229   */\n      dup7\n        /* \"#utility.yul\":15214:15221   */\n      dup4\n        /* \"#utility.yul\":15211:15230   */\n      lt\n        /* \"#utility.yul\":15208:15387   */\n      iszero\n      tag_281\n      jumpi\n        /* \"#utility.yul\":15281:15290   */\n      dup5\n        /* \"#utility.yul\":15276:15279   */\n      dup10\n        /* \"#utility.yul\":15272:15291   */\n      add\n        /* \"#utility.yul\":15266:15292   */\n      mload\n        /* \"#utility.yul\":15324:15372   */\n      tag_282\n        /* \"#utility.yul\":15366:15370   */\n      0x1f\n        /* \"#utility.yul\":15358:15364   */\n      dup10\n        /* \"#utility.yul\":15354:15371   */\n      and\n        /* \"#utility.yul\":15343:15352   */\n      dup3\n        /* \"#utility.yul\":15324:15372   */\n      tag_118\n      jump\t// in\n    tag_282:\n        /* \"#utility.yul\":15316:15322   */\n      dup4\n        /* \"#utility.yul\":15309:15373   */\n      sstore\n        /* \"#utility.yul\":15231:15387   */\n      pop\n        /* \"#utility.yul\":15208:15387   */\n    tag_281:\n        /* \"#utility.yul\":15433:15434   */\n      0x01\n        /* \"#utility.yul\":15429:15430   */\n      0x02\n        /* \"#utility.yul\":15421:15427   */\n      dup9\n        /* \"#utility.yul\":15417:15431   */\n      mul\n        /* \"#utility.yul\":15413:15435   */\n      add\n        /* \"#utility.yul\":15407:15411   */\n      dup9\n        /* \"#utility.yul\":15400:15436   */\n      sstore\n        /* \"#utility.yul\":14835:15446   */\n      pop\n      pop\n      pop\n        /* \"#utility.yul\":14798:15685   */\n    tag_273:\n      pop\n        /* \"#utility.yul\":14388:15691   */\n      pop\n      pop\n      pop\n        /* \"#utility.yul\":14296:15691   */\n      pop\n      pop\n      jump\t// out\n        /* \"#utility.yul\":15697:15864   */\n    tag_120:\n        /* \"#utility.yul\":15837:15856   */\n      0x50617469656e74206e6f7420666f756e64000000000000000000000000000000\n        /* \"#utility.yul\":15833:15834   */\n      0x00\n        /* \"#utility.yul\":15825:15831   */\n      dup3\n        /* \"#utility.yul\":15821:15835   */\n      add\n        /* \"#utility.yul\":15814:15857   */\n      mstore\n        /* \"#utility.yul\":15697:15864   */\n      pop\n      jump\t// out\n        /* \"#utility.yul\":15870:16236   */\n    tag_121:\n        /* \"#utility.yul\":16012:16015   */\n      0x00\n        /* \"#utility.yul\":16033:16100   */\n      tag_285\n        /* \"#utility.yul\":16097:16099   */\n      0x11\n        /* \"#utility.yul\":16092:16095   */\n      dup4\n        /* \"#utility.yul\":16033:16100   */\n      tag_92\n      jump\t// in\n    tag_285:\n        /* \"#utility.yul\":16026:16100   */\n      swap2\n      pop\n        /* \"#utility.yul\":16109:16202   */\n      tag_286\n        /* \"#utility.yul\":16198:16201   */\n      dup3\n        /* \"#utility.yul\":16109:16202   */\n      tag_120\n      jump\t// in\n    tag_286:\n        /* \"#utility.yul\":16227:16229   */\n      0x20\n        /* \"#utility.yul\":16222:16225   */\n      dup3\n        /* \"#utility.yul\":16218:16230   */\n      add\n        /* \"#utility.yul\":16211:16230   */\n      swap1\n      pop\n        /* \"#utility.yul\":15870:16236   */\n      swap2\n      swap1\n      pop\n      jump\t// out\n        /* \"#utility.yul\":16242:16661   */\n    tag_66:\n        /* \"#utility.yul\":16408:16412   */\n      0x00\n        /* \"#utility.yul\":16446:16448   */\n      0x20\n        /* \"#utility.yul\":16435:16444   */\n      dup3\n        /* \"#utility.yul\":16431:16449   */\n      add\n        /* \"#utility.yul\":16423:16449   */\n      swap1\n      pop\n        /* \"#utility.yul\":16495:16504   */\n      dup2\n        /* \"#utility.yul\":16489:16493   */\n      dup2\n        /* \"#utility.yul\":16485:16505   */\n      sub\n        /* \"#utility.yul\":16481:16482   */\n      0x00\n        /* \"#utility.yul\":16470:16479   */\n      dup4\n        /* \"#utility.yul\":16466:16483   */\n      add\n        /* \"#utility.yul\":16459:16506   */\n      mstore\n        /* \"#utility.yul\":16523:16654   */\n      tag_288\n        /* \"#utility.yul\":16649:16653   */\n      dup2\n        /* \"#utility.yul\":16523:16654   */\n      tag_121\n      jump\t// in\n    tag_288:\n        /* \"#utility.yul\":16515:16654   */\n      swap1\n      pop\n        /* \"#utility.yul\":16242:16661   */\n      swap2\n      swap1\n      pop\n      jump\t// out\n\n    auxdata: 0xa26469706673582212207ce6bbf800c17bce578fcfe60b9bdb1f48a2eba24abfe2e0b57ea3b2a681748464736f6c63430008120033\n}\n",
				"bytecode": {
					"linkReferences": {},
					"object": "608060405234801561001057600080fd5b506111a7806100206000396000f3fe608060405234801561001057600080fd5b50600436106100415760003560e01c806333f0d5ea14610046578063b5368e2014610062578063b64358da14610095575b600080fd5b610060600480360381019061005b9190610a49565b6100b1565b005b61007c60048036038101906100779190610b62565b6102ce565b60405161008c9493929190610c1d565b60405180910390f35b6100af60048036038101906100aa9190610a49565b61058d565b005b60008451116100f5576040517f08c379a00000000000000000000000000000000000000000000000000000000081526004016100ec90610cc3565b60405180910390fd5b60008311610138576040517f08c379a000000000000000000000000000000000000000000000000000000000815260040161012f90610d2f565b60405180910390fd5b600082511161017c576040517f08c379a000000000000000000000000000000000000000000000000000000000815260040161017390610d9b565b60405180910390fd5b60008151116101c0576040517f08c379a00000000000000000000000000000000000000000000000000000000081526004016101b790610e07565b60405180910390fd5b60006040518060800160405280868152602001858152602001848152602001838152509050806000803373ffffffffffffffffffffffffffffffffffffffff1673ffffffffffffffffffffffffffffffffffffffff16815260200190815260200160002060008201518160000190816102399190611033565b506020820151816001015560408201518160020190816102599190611033565b50606082015181600301908161026f9190611033565b509050503373ffffffffffffffffffffffffffffffffffffffff167fcf73aaf477c3fbc5e68155b92198c919499af5e088d030be627e8c5467ff4231868686866040516102bf9493929190610c1d565b60405180910390a25050505050565b606060006060806000808673ffffffffffffffffffffffffffffffffffffffff1673ffffffffffffffffffffffffffffffffffffffff1681526020019081526020016000206000016000808773ffffffffffffffffffffffffffffffffffffffff1673ffffffffffffffffffffffffffffffffffffffff168152602001908152602001600020600101546000808873ffffffffffffffffffffffffffffffffffffffff1673ffffffffffffffffffffffffffffffffffffffff1681526020019081526020016000206002016000808973ffffffffffffffffffffffffffffffffffffffff1673ffffffffffffffffffffffffffffffffffffffff1681526020019081526020016000206003018380546103e690610e56565b80601f016020809104026020016040519081016040528092919081815260200182805461041290610e56565b801561045f5780601f106104345761010080835404028352916020019161045f565b820191906000526020600020905b81548152906001019060200180831161044257829003601f168201915b5050505050935081805461047290610e56565b80601f016020809104026020016040519081016040528092919081815260200182805461049e90610e56565b80156104eb5780601f106104c0576101008083540402835291602001916104eb565b820191906000526020600020905b8154815290600101906020018083116104ce57829003601f168201915b505050505091508080546104fe90610e56565b80601f016020809104026020016040519081016040528092919081815260200182805461052a90610e56565b80156105775780601f1061054c57610100808354040283529160200191610577565b820191906000526020600020905b81548152906001019060200180831161055a57829003601f168201915b5050505050905093509350935093509193509193565b60008451116105d1576040517f08c379a00000000000000000000000000000000000000000000000000000000081526004016105c890610cc3565b60405180910390fd5b60008311610614576040517f08c379a000000000000000000000000000000000000000000000000000000000815260040161060b90610d2f565b60405180910390fd5b6000825111610658576040517f08c379a000000000000000000000000000000000000000000000000000000000815260040161064f90610d9b565b60405180910390fd5b600081511161069c576040517f08c379a000000000000000000000000000000000000000000000000000000000815260040161069390610e07565b60405180910390fd5b60008060003373ffffffffffffffffffffffffffffffffffffffff1673ffffffffffffffffffffffffffffffffffffffff16815260200190815260200160002060000180546106ea90610e56565b90501161072c576040517f08c379a000000000000000000000000000000000000000000000000000000000815260040161072390611151565b60405180910390fd5b836000803373ffffffffffffffffffffffffffffffffffffffff1673ffffffffffffffffffffffffffffffffffffffff168152602001908152602001600020600001908161077a9190611033565b50826000803373ffffffffffffffffffffffffffffffffffffffff1673ffffffffffffffffffffffffffffffffffffffff16815260200190815260200160002060010181905550816000803373ffffffffffffffffffffffffffffffffffffffff1673ffffffffffffffffffffffffffffffffffffffff168152602001908152602001600020600201908161080f9190611033565b50806000803373ffffffffffffffffffffffffffffffffffffffff1673ffffffffffffffffffffffffffffffffffffffff168152602001908152602001600020600301908161085e9190611033565b503373ffffffffffffffffffffffffffffffffffffffff167f2c0640575a05777fbb6e7b53e54d5514611df497e12c144d0f11b3a69373d5ce858585856040516108ab9493929190610c1d565b60405180910390a250505050565b6000604051905090565b600080fd5b600080fd5b600080fd5b600080fd5b6000601f19601f8301169050919050565b7f4e487b7100000000000000000000000000000000000000000000000000000000600052604160045260246000fd5b610920826108d7565b810181811067ffffffffffffffff8211171561093f5761093e6108e8565b5b80604052505050565b60006109526108b9565b905061095e8282610917565b919050565b600067ffffffffffffffff82111561097e5761097d6108e8565b5b610987826108d7565b9050602081019050919050565b82818337600083830152505050565b60006109b66109b184610963565b610948565b9050828152602081018484840111156109d2576109d16108d2565b5b6109dd848285610994565b509392505050565b600082601f8301126109fa576109f96108cd565b5b8135610a0a8482602086016109a3565b91505092915050565b6000819050919050565b610a2681610a13565b8114610a3157600080fd5b50565b600081359050610a4381610a1d565b92915050565b60008060008060808587031215610a6357610a626108c3565b5b600085013567ffffffffffffffff811115610a8157610a806108c8565b5b610a8d878288016109e5565b9450506020610a9e87828801610a34565b935050604085013567ffffffffffffffff811115610abf57610abe6108c8565b5b610acb878288016109e5565b925050606085013567ffffffffffffffff811115610aec57610aeb6108c8565b5b610af8878288016109e5565b91505092959194509250565b600073ffffffffffffffffffffffffffffffffffffffff82169050919050565b6000610b2f82610b04565b9050919050565b610b3f81610b24565b8114610b4a57600080fd5b50565b600081359050610b5c81610b36565b92915050565b600060208284031215610b7857610b776108c3565b5b6000610b8684828501610b4d565b91505092915050565b600081519050919050565b600082825260208201905092915050565b60005b83811015610bc9578082015181840152602081019050610bae565b60008484015250505050565b6000610be082610b8f565b610bea8185610b9a565b9350610bfa818560208601610bab565b610c03816108d7565b840191505092915050565b610c1781610a13565b82525050565b60006080820190508181036000830152610c378187610bd5565b9050610c466020830186610c0e565b8181036040830152610c588185610bd5565b90508181036060830152610c6c8184610bd5565b905095945050505050565b7f4e616d652063616e6e6f7420626520656d707479000000000000000000000000600082015250565b6000610cad601483610b9a565b9150610cb882610c77565b602082019050919050565b60006020820190508181036000830152610cdc81610ca0565b9050919050565b7f416765206d7573742062652067726561746572207468616e2030000000000000600082015250565b6000610d19601a83610b9a565b9150610d2482610ce3565b602082019050919050565b60006020820190508181036000830152610d4881610d0c565b9050919050565b7f446961676e6f7369732063616e6e6f7420626520656d70747900000000000000600082015250565b6000610d85601983610b9a565b9150610d9082610d4f565b602082019050919050565b60006020820190508181036000830152610db481610d78565b9050919050565b7f507265736372697074696f6e2063616e6e6f7420626520656d70747900000000600082015250565b6000610df1601c83610b9a565b9150610dfc82610dbb565b602082019050919050565b60006020820190508181036000830152610e2081610de4565b9050919050565b7f4e487b7100000000000000000000000000000000000000000000000000000000600052602260045260246000fd5b60006002820490506001821680610e6e57607f821691505b602082108103610e8157610e80610e27565b5b50919050565b60008190508160005260206000209050919050565b60006020601f8301049050919050565b600082821b905092915050565b600060088302610ee97fffffffffffffffffffffffffffffffffffffffffffffffffffffffffffffffff82610eac565b610ef38683610eac565b95508019841693508086168417925050509392505050565b6000819050919050565b6000610f30610f2b610f2684610a13565b610f0b565b610a13565b9050919050565b6000819050919050565b610f4a83610f15565b610f5e610f5682610f37565b848454610eb9565b825550505050565b600090565b610f73610f66565b610f7e818484610f41565b505050565b5b81811015610fa257610f97600082610f6b565b600181019050610f84565b5050565b601f821115610fe757610fb881610e87565b610fc184610e9c565b81016020851015610fd0578190505b610fe4610fdc85610e9c565b830182610f83565b50505b505050565b600082821c905092915050565b600061100a60001984600802610fec565b1980831691505092915050565b60006110238383610ff9565b9150826002028217905092915050565b61103c82610b8f565b67ffffffffffffffff811115611055576110546108e8565b5b61105f8254610e56565b61106a828285610fa6565b600060209050601f83116001811461109d576000841561108b578287015190505b6110958582611017565b8655506110fd565b601f1984166110ab86610e87565b60005b828110156110d3578489015182556001820191506020850194506020810190506110ae565b868310156110f057848901516110ec601f891682610ff9565b8355505b6001600288020188555050505b505050505050565b7f50617469656e74206e6f7420666f756e64000000000000000000000000000000600082015250565b600061113b601183610b9a565b915061114682611105565b602082019050919050565b6000602082019050818103600083015261116a8161112e565b905091905056fea26469706673582212207ce6bbf800c17bce578fcfe60b9bdb1f48a2eba24abfe2e0b57ea3b2a681748464736f6c63430008120033",
					"opcodes": "PUSH1 0x80 PUSH1 0x40 MSTORE CALLVALUE DUP1 ISZERO PUSH2 0x10 JUMPI PUSH1 0x0 DUP1 REVERT JUMPDEST POP PUSH2 0x11A7 DUP1 PUSH2 0x20 PUSH1 0x0 CODECOPY PUSH1 0x0 RETURN INVALID PUSH1 0x80 PUSH1 0x40 MSTORE CALLVALUE DUP1 ISZERO PUSH2 0x10 JUMPI PUSH1 0x0 DUP1 REVERT JUMPDEST POP PUSH1 0x4 CALLDATASIZE LT PUSH2 0x41 JUMPI PUSH1 0x0 CALLDATALOAD PUSH1 0xE0 SHR DUP1 PUSH4 0x33F0D5EA EQ PUSH2 0x46 JUMPI DUP1 PUSH4 0xB5368E20 EQ PUSH2 0x62 JUMPI DUP1 PUSH4 0xB64358DA EQ PUSH2 0x95 JUMPI JUMPDEST PUSH1 0x0 DUP1 REVERT JUMPDEST PUSH2 0x60 PUSH1 0x4 DUP1 CALLDATASIZE SUB DUP2 ADD SWAP1 PUSH2 0x5B SWAP2 SWAP1 PUSH2 0xA49 JUMP JUMPDEST PUSH2 0xB1 JUMP JUMPDEST STOP JUMPDEST PUSH2 0x7C PUSH1 0x4 DUP1 CALLDATASIZE SUB DUP2 ADD SWAP1 PUSH2 0x77 SWAP2 SWAP1 PUSH2 0xB62 JUMP JUMPDEST PUSH2 0x2CE JUMP JUMPDEST PUSH1 0x40 MLOAD PUSH2 0x8C SWAP5 SWAP4 SWAP3 SWAP2 SWAP1 PUSH2 0xC1D JUMP JUMPDEST PUSH1 0x40 MLOAD DUP1 SWAP2 SUB SWAP1 RETURN JUMPDEST PUSH2 0xAF PUSH1 0x4 DUP1 CALLDATASIZE SUB DUP2 ADD SWAP1 PUSH2 0xAA SWAP2 SWAP1 PUSH2 0xA49 JUMP JUMPDEST PUSH2 0x58D JUMP JUMPDEST STOP JUMPDEST PUSH1 0x0 DUP5 MLOAD GT PUSH2 0xF5 JUMPI PUSH1 0x40 MLOAD PUSH32 0x8C379A000000000000000000000000000000000000000000000000000000000 DUP2 MSTORE PUSH1 0x4 ADD PUSH2 0xEC SWAP1 PUSH2 0xCC3 JUMP JUMPDEST PUSH1 0x40 MLOAD DUP1 SWAP2 SUB SWAP1 REVERT JUMPDEST PUSH1 0x0 DUP4 GT PUSH2 0x138 JUMPI PUSH1 0x40 MLOAD PUSH32 0x8C379A000000000000000000000000000000000000000000000000000000000 DUP2 MSTORE PUSH1 0x4 ADD PUSH2 0x12F SWAP1 PUSH2 0xD2F JUMP JUMPDEST PUSH1 0x40 MLOAD DUP1 SWAP2 SUB SWAP1 REVERT JUMPDEST PUSH1 0x0 DUP3 MLOAD GT PUSH2 0x17C JUMPI PUSH1 0x40 MLOAD PUSH32 0x8C379A000000000000000000000000000000000000000000000000000000000 DUP2 MSTORE PUSH1 0x4 ADD PUSH2 0x173 SWAP1 PUSH2 0xD9B JUMP JUMPDEST PUSH1 0x40 MLOAD DUP1 SWAP2 SUB SWAP1 REVERT JUMPDEST PUSH1 0x0 DUP2 MLOAD GT PUSH2 0x1C0 JUMPI PUSH1 0x40 MLOAD PUSH32 0x8C379A000000000000000000000000000000000000000000000000000000000 DUP2 MSTORE PUSH1 0x4 ADD PUSH2 0x1B7 SWAP1 PUSH2 0xE07 JUMP JUMPDEST PUSH1 0x40 MLOAD DUP1 SWAP2 SUB SWAP1 REVERT JUMPDEST PUSH1 0x0 PUSH1 0x40 MLOAD DUP1 PUSH1 0x80 ADD PUSH1 0x40 MSTORE DUP1 DUP7 DUP2 MSTORE PUSH1 0x20 ADD DUP6 DUP2 MSTORE PUSH1 0x20 ADD DUP5 DUP2 MSTORE PUSH1 0x20 ADD DUP4 DUP2 MSTORE POP SWAP1 POP DUP1 PUSH1 0x0 DUP1 CALLER PUSH20 0xFFFFFFFFFFFFFFFFFFFFFFFFFFFFFFFFFFFFFFFF AND PUSH20 0xFFFFFFFFFFFFFFFFFFFFFFFFFFFFFFFFFFFFFFFF AND DUP2 MSTORE PUSH1 0x20 ADD SWAP1 DUP2 MSTORE PUSH1 0x20 ADD PUSH1 0x0 KECCAK256 PUSH1 0x0 DUP3 ADD MLOAD DUP2 PUSH1 0x0 ADD SWAP1 DUP2 PUSH2 0x239 SWAP2 SWAP1 PUSH2 0x1033 JUMP JUMPDEST POP PUSH1 0x20 DUP3 ADD MLOAD DUP2 PUSH1 0x1 ADD SSTORE PUSH1 0x40 DUP3 ADD MLOAD DUP2 PUSH1 0x2 ADD SWAP1 DUP2 PUSH2 0x259 SWAP2 SWAP1 PUSH2 0x1033 JUMP JUMPDEST POP PUSH1 0x60 DUP3 ADD MLOAD DUP2 PUSH1 0x3 ADD SWAP1 DUP2 PUSH2 0x26F SWAP2 SWAP1 PUSH2 0x1033 JUMP JUMPDEST POP SWAP1 POP POP CALLER PUSH20 0xFFFFFFFFFFFFFFFFFFFFFFFFFFFFFFFFFFFFFFFF AND PUSH32 0xCF73AAF477C3FBC5E68155B92198C919499AF5E088D030BE627E8C5467FF4231 DUP7 DUP7 DUP7 DUP7 PUSH1 0x40 MLOAD PUSH2 0x2BF SWAP5 SWAP4 SWAP3 SWAP2 SWAP1 PUSH2 0xC1D JUMP JUMPDEST PUSH1 0x40 MLOAD DUP1 SWAP2 SUB SWAP1 LOG2 POP POP POP POP POP JUMP JUMPDEST PUSH1 0x60 PUSH1 0x0 PUSH1 0x60 DUP1 PUSH1 0x0 DUP1 DUP7 PUSH20 0xFFFFFFFFFFFFFFFFFFFFFFFFFFFFFFFFFFFFFFFF AND PUSH20 0xFFFFFFFFFFFFFFFFFFFFFFFFFFFFFFFFFFFFFFFF AND DUP2 MSTORE PUSH1 0x20 ADD SWAP1 DUP2 MSTORE PUSH1 0x20 ADD PUSH1 0x0 KECCAK256 PUSH1 0x0 ADD PUSH1 0x0 DUP1 DUP8 PUSH20 0xFFFFFFFFFFFFFFFFFFFFFFFFFFFFFFFFFFFFFFFF AND PUSH20 0xFFFFFFFFFFFFFFFFFFFFFFFFFFFFFFFFFFFFFFFF AND DUP2 MSTORE PUSH1 0x20 ADD SWAP1 DUP2 MSTORE PUSH1 0x20 ADD PUSH1 0x0 KECCAK256 PUSH1 0x1 ADD SLOAD PUSH1 0x0 DUP1 DUP9 PUSH20 0xFFFFFFFFFFFFFFFFFFFFFFFFFFFFFFFFFFFFFFFF AND PUSH20 0xFFFFFFFFFFFFFFFFFFFFFFFFFFFFFFFFFFFFFFFF AND DUP2 MSTORE PUSH1 0x20 ADD SWAP1 DUP2 MSTORE PUSH1 0x20 ADD PUSH1 0x0 KECCAK256 PUSH1 0x2 ADD PUSH1 0x0 DUP1 DUP10 PUSH20 0xFFFFFFFFFFFFFFFFFFFFFFFFFFFFFFFFFFFFFFFF AND PUSH20 0xFFFFFFFFFFFFFFFFFFFFFFFFFFFFFFFFFFFFFFFF AND DUP2 MSTORE PUSH1 0x20 ADD SWAP1 DUP2 MSTORE PUSH1 0x20 ADD PUSH1 0x0 KECCAK256 PUSH1 0x3 ADD DUP4 DUP1 SLOAD PUSH2 0x3E6 SWAP1 PUSH2 0xE56 JUMP JUMPDEST DUP1 PUSH1 0x1F ADD PUSH1 0x20 DUP1 SWAP2 DIV MUL PUSH1 0x20 ADD PUSH1 0x40 MLOAD SWAP1 DUP2 ADD PUSH1 0x40 MSTORE DUP1 SWAP3 SWAP2 SWAP1 DUP2 DUP2 MSTORE PUSH1 0x20 ADD DUP3 DUP1 SLOAD PUSH2 0x412 SWAP1 PUSH2 0xE56 JUMP JUMPDEST DUP1 ISZERO PUSH2 0x45F JUMPI DUP1 PUSH1 0x1F LT PUSH2 0x434 JUMPI PUSH2 0x100 DUP1 DUP4 SLOAD DIV MUL DUP4 MSTORE SWAP2 PUSH1 0x20 ADD SWAP2 PUSH2 0x45F JUMP JUMPDEST DUP3 ADD SWAP2 SWAP1 PUSH1 0x0 MSTORE PUSH1 0x20 PUSH1 0x0 KECCAK256 SWAP1 JUMPDEST DUP2 SLOAD DUP2 MSTORE SWAP1 PUSH1 0x1 ADD SWAP1 PUSH1 0x20 ADD DUP1 DUP4 GT PUSH2 0x442 JUMPI DUP3 SWAP1 SUB PUSH1 0x1F AND DUP3 ADD SWAP2 JUMPDEST POP POP POP POP POP SWAP4 POP DUP2 DUP1 SLOAD PUSH2 0x472 SWAP1 PUSH2 0xE56 JUMP JUMPDEST DUP1 PUSH1 0x1F ADD PUSH1 0x20 DUP1 SWAP2 DIV MUL PUSH1 0x20 ADD PUSH1 0x40 MLOAD SWAP1 DUP2 ADD PUSH1 0x40 MSTORE DUP1 SWAP3 SWAP2 SWAP1 DUP2 DUP2 MSTORE PUSH1 0x20 ADD DUP3 DUP1 SLOAD PUSH2 0x49E SWAP1 PUSH2 0xE56 JUMP JUMPDEST DUP1 ISZERO PUSH2 0x4EB JUMPI DUP1 PUSH1 0x1F LT PUSH2 0x4C0 JUMPI PUSH2 0x100 DUP1 DUP4 SLOAD DIV MUL DUP4 MSTORE SWAP2 PUSH1 0x20 ADD SWAP2 PUSH2 0x4EB JUMP JUMPDEST DUP3 ADD SWAP2 SWAP1 PUSH1 0x0 MSTORE PUSH1 0x20 PUSH1 0x0 KECCAK256 SWAP1 JUMPDEST DUP2 SLOAD DUP2 MSTORE SWAP1 PUSH1 0x1 ADD SWAP1 PUSH1 0x20 ADD DUP1 DUP4 GT PUSH2 0x4CE JUMPI DUP3 SWAP1 SUB PUSH1 0x1F AND DUP3 ADD SWAP2 JUMPDEST POP POP POP POP POP SWAP2 POP DUP1 DUP1 SLOAD PUSH2 0x4FE SWAP1 PUSH2 0xE56 JUMP JUMPDEST DUP1 PUSH1 0x1F ADD PUSH1 0x20 DUP1 SWAP2 DIV MUL PUSH1 0x20 ADD PUSH1 0x40 MLOAD SWAP1 DUP2 ADD PUSH1 0x40 MSTORE DUP1 SWAP3 SWAP2 SWAP1 DUP2 DUP2 MSTORE PUSH1 0x20 ADD DUP3 DUP1 SLOAD PUSH2 0x52A SWAP1 PUSH2 0xE56 JUMP JUMPDEST DUP1 ISZERO PUSH2 0x577 JUMPI DUP1 PUSH1 0x1F LT PUSH2 0x54C JUMPI PUSH2 0x100 DUP1 DUP4 SLOAD DIV MUL DUP4 MSTORE SWAP2 PUSH1 0x20 ADD SWAP2 PUSH2 0x577 JUMP JUMPDEST DUP3 ADD SWAP2 SWAP1 PUSH1 0x0 MSTORE PUSH1 0x20 PUSH1 0x0 KECCAK256 SWAP1 JUMPDEST DUP2 SLOAD DUP2 MSTORE SWAP1 PUSH1 0x1 ADD SWAP1 PUSH1 0x20 ADD DUP1 DUP4 GT PUSH2 0x55A JUMPI DUP3 SWAP1 SUB PUSH1 0x1F AND DUP3 ADD SWAP2 JUMPDEST POP POP POP POP POP SWAP1 POP SWAP4 POP SWAP4 POP SWAP4 POP SWAP4 POP SWAP2 SWAP4 POP SWAP2 SWAP4 JUMP JUMPDEST PUSH1 0x0 DUP5 MLOAD GT PUSH2 0x5D1 JUMPI PUSH1 0x40 MLOAD PUSH32 0x8C379A000000000000000000000000000000000000000000000000000000000 DUP2 MSTORE PUSH1 0x4 ADD PUSH2 0x5C8 SWAP1 PUSH2 0xCC3 JUMP JUMPDEST PUSH1 0x40 MLOAD DUP1 SWAP2 SUB SWAP1 REVERT JUMPDEST PUSH1 0x0 DUP4 GT PUSH2 0x614 JUMPI PUSH1 0x40 MLOAD PUSH32 0x8C379A000000000000000000000000000000000000000000000000000000000 DUP2 MSTORE PUSH1 0x4 ADD PUSH2 0x60B SWAP1 PUSH2 0xD2F JUMP JUMPDEST PUSH1 0x40 MLOAD DUP1 SWAP2 SUB SWAP1 REVERT JUMPDEST PUSH1 0x0 DUP3 MLOAD GT PUSH2 0x658 JUMPI PUSH1 0x40 MLOAD PUSH32 0x8C379A000000000000000000000000000000000000000000000000000000000 DUP2 MSTORE PUSH1 0x4 ADD PUSH2 0x64F SWAP1 PUSH2 0xD9B JUMP JUMPDEST PUSH1 0x40 MLOAD DUP1 SWAP2 SUB SWAP1 REVERT JUMPDEST PUSH1 0x0 DUP2 MLOAD GT PUSH2 0x69C JUMPI PUSH1 0x40 MLOAD PUSH32 0x8C379A000000000000000000000000000000000000000000000000000000000 DUP2 MSTORE PUSH1 0x4 ADD PUSH2 0x693 SWAP1 PUSH2 0xE07 JUMP JUMPDEST PUSH1 0x40 MLOAD DUP1 SWAP2 SUB SWAP1 REVERT JUMPDEST PUSH1 0x0 DUP1 PUSH1 0x0 CALLER PUSH20 0xFFFFFFFFFFFFFFFFFFFFFFFFFFFFFFFFFFFFFFFF AND PUSH20 0xFFFFFFFFFFFFFFFFFFFFFFFFFFFFFFFFFFFFFFFF AND DUP2 MSTORE PUSH1 0x20 ADD SWAP1 DUP2 MSTORE PUSH1 0x20 ADD PUSH1 0x0 KECCAK256 PUSH1 0x0 ADD DUP1 SLOAD PUSH2 0x6EA SWAP1 PUSH2 0xE56 JUMP JUMPDEST SWAP1 POP GT PUSH2 0x72C JUMPI PUSH1 0x40 MLOAD PUSH32 0x8C379A000000000000000000000000000000000000000000000000000000000 DUP2 MSTORE PUSH1 0x4 ADD PUSH2 0x723 SWAP1 PUSH2 0x1151 JUMP JUMPDEST PUSH1 0x40 MLOAD DUP1 SWAP2 SUB SWAP1 REVERT JUMPDEST DUP4 PUSH1 0x0 DUP1 CALLER PUSH20 0xFFFFFFFFFFFFFFFFFFFFFFFFFFFFFFFFFFFFFFFF AND PUSH20 0xFFFFFFFFFFFFFFFFFFFFFFFFFFFFFFFFFFFFFFFF AND DUP2 MSTORE PUSH1 0x20 ADD SWAP1 DUP2 MSTORE PUSH1 0x20 ADD PUSH1 0x0 KECCAK256 PUSH1 0x0 ADD SWAP1 DUP2 PUSH2 0x77A SWAP2 SWAP1 PUSH2 0x1033 JUMP JUMPDEST POP DUP3 PUSH1 0x0 DUP1 CALLER PUSH20 0xFFFFFFFFFFFFFFFFFFFFFFFFFFFFFFFFFFFFFFFF AND PUSH20 0xFFFFFFFFFFFFFFFFFFFFFFFFFFFFFFFFFFFFFFFF AND DUP2 MSTORE PUSH1 0x20 ADD SWAP1 DUP2 MSTORE PUSH1 0x20 ADD PUSH1 0x0 KECCAK256 PUSH1 0x1 ADD DUP2 SWAP1 SSTORE POP DUP2 PUSH1 0x0 DUP1 CALLER PUSH20 0xFFFFFFFFFFFFFFFFFFFFFFFFFFFFFFFFFFFFFFFF AND PUSH20 0xFFFFFFFFFFFFFFFFFFFFFFFFFFFFFFFFFFFFFFFF AND DUP2 MSTORE PUSH1 0x20 ADD SWAP1 DUP2 MSTORE PUSH1 0x20 ADD PUSH1 0x0 KECCAK256 PUSH1 0x2 ADD SWAP1 DUP2 PUSH2 0x80F SWAP2 SWAP1 PUSH2 0x1033 JUMP JUMPDEST POP DUP1 PUSH1 0x0 DUP1 CALLER PUSH20 0xFFFFFFFFFFFFFFFFFFFFFFFFFFFFFFFFFFFFFFFF AND PUSH20 0xFFFFFFFFFFFFFFFFFFFFFFFFFFFFFFFFFFFFFFFF AND DUP2 MSTORE PUSH1 0x20 ADD SWAP1 DUP2 MSTORE PUSH1 0x20 ADD PUSH1 0x0 KECCAK256 PUSH1 0x3 ADD SWAP1 DUP2 PUSH2 0x85E SWAP2 SWAP1 PUSH2 0x1033 JUMP JUMPDEST POP CALLER PUSH20 0xFFFFFFFFFFFFFFFFFFFFFFFFFFFFFFFFFFFFFFFF AND PUSH32 0x2C0640575A05777FBB6E7B53E54D5514611DF497E12C144D0F11B3A69373D5CE DUP6 DUP6 DUP6 DUP6 PUSH1 0x40 MLOAD PUSH2 0x8AB SWAP5 SWAP4 SWAP3 SWAP2 SWAP1 PUSH2 0xC1D JUMP JUMPDEST PUSH1 0x40 MLOAD DUP1 SWAP2 SUB SWAP1 LOG2 POP POP POP POP JUMP JUMPDEST PUSH1 0x0 PUSH1 0x40 MLOAD SWAP1 POP SWAP1 JUMP JUMPDEST PUSH1 0x0 DUP1 REVERT JUMPDEST PUSH1 0x0 DUP1 REVERT JUMPDEST PUSH1 0x0 DUP1 REVERT JUMPDEST PUSH1 0x0 DUP1 REVERT JUMPDEST PUSH1 0x0 PUSH1 0x1F NOT PUSH1 0x1F DUP4 ADD AND SWAP1 POP SWAP2 SWAP1 POP JUMP JUMPDEST PUSH32 0x4E487B7100000000000000000000000000000000000000000000000000000000 PUSH1 0x0 MSTORE PUSH1 0x41 PUSH1 0x4 MSTORE PUSH1 0x24 PUSH1 0x0 REVERT JUMPDEST PUSH2 0x920 DUP3 PUSH2 0x8D7 JUMP JUMPDEST DUP2 ADD DUP2 DUP2 LT PUSH8 0xFFFFFFFFFFFFFFFF DUP3 GT OR ISZERO PUSH2 0x93F JUMPI PUSH2 0x93E PUSH2 0x8E8 JUMP JUMPDEST JUMPDEST DUP1 PUSH1 0x40 MSTORE POP POP POP JUMP JUMPDEST PUSH1 0x0 PUSH2 0x952 PUSH2 0x8B9 JUMP JUMPDEST SWAP1 POP PUSH2 0x95E DUP3 DUP3 PUSH2 0x917 JUMP JUMPDEST SWAP2 SWAP1 POP JUMP JUMPDEST PUSH1 0x0 PUSH8 0xFFFFFFFFFFFFFFFF DUP3 GT ISZERO PUSH2 0x97E JUMPI PUSH2 0x97D PUSH2 0x8E8 JUMP JUMPDEST JUMPDEST PUSH2 0x987 DUP3 PUSH2 0x8D7 JUMP JUMPDEST SWAP1 POP PUSH1 0x20 DUP2 ADD SWAP1 POP SWAP2 SWAP1 POP JUMP JUMPDEST DUP3 DUP2 DUP4 CALLDATACOPY PUSH1 0x0 DUP4 DUP4 ADD MSTORE POP POP POP JUMP JUMPDEST PUSH1 0x0 PUSH2 0x9B6 PUSH2 0x9B1 DUP5 PUSH2 0x963 JUMP JUMPDEST PUSH2 0x948 JUMP JUMPDEST SWAP1 POP DUP3 DUP2 MSTORE PUSH1 0x20 DUP2 ADD DUP5 DUP5 DUP5 ADD GT ISZERO PUSH2 0x9D2 JUMPI PUSH2 0x9D1 PUSH2 0x8D2 JUMP JUMPDEST JUMPDEST PUSH2 0x9DD DUP5 DUP3 DUP6 PUSH2 0x994 JUMP JUMPDEST POP SWAP4 SWAP3 POP POP POP JUMP JUMPDEST PUSH1 0x0 DUP3 PUSH1 0x1F DUP4 ADD SLT PUSH2 0x9FA JUMPI PUSH2 0x9F9 PUSH2 0x8CD JUMP JUMPDEST JUMPDEST DUP2 CALLDATALOAD PUSH2 0xA0A DUP5 DUP3 PUSH1 0x20 DUP7 ADD PUSH2 0x9A3 JUMP JUMPDEST SWAP2 POP POP SWAP3 SWAP2 POP POP JUMP JUMPDEST PUSH1 0x0 DUP2 SWAP1 POP SWAP2 SWAP1 POP JUMP JUMPDEST PUSH2 0xA26 DUP2 PUSH2 0xA13 JUMP JUMPDEST DUP2 EQ PUSH2 0xA31 JUMPI PUSH1 0x0 DUP1 REVERT JUMPDEST POP JUMP JUMPDEST PUSH1 0x0 DUP2 CALLDATALOAD SWAP1 POP PUSH2 0xA43 DUP2 PUSH2 0xA1D JUMP JUMPDEST SWAP3 SWAP2 POP POP JUMP JUMPDEST PUSH1 0x0 DUP1 PUSH1 0x0 DUP1 PUSH1 0x80 DUP6 DUP8 SUB SLT ISZERO PUSH2 0xA63 JUMPI PUSH2 0xA62 PUSH2 0x8C3 JUMP JUMPDEST JUMPDEST PUSH1 0x0 DUP6 ADD CALLDATALOAD PUSH8 0xFFFFFFFFFFFFFFFF DUP2 GT ISZERO PUSH2 0xA81 JUMPI PUSH2 0xA80 PUSH2 0x8C8 JUMP JUMPDEST JUMPDEST PUSH2 0xA8D DUP8 DUP3 DUP9 ADD PUSH2 0x9E5 JUMP JUMPDEST SWAP5 POP POP PUSH1 0x20 PUSH2 0xA9E DUP8 DUP3 DUP9 ADD PUSH2 0xA34 JUMP JUMPDEST SWAP4 POP POP PUSH1 0x40 DUP6 ADD CALLDATALOAD PUSH8 0xFFFFFFFFFFFFFFFF DUP2 GT ISZERO PUSH2 0xABF JUMPI PUSH2 0xABE PUSH2 0x8C8 JUMP JUMPDEST JUMPDEST PUSH2 0xACB DUP8 DUP3 DUP9 ADD PUSH2 0x9E5 JUMP JUMPDEST SWAP3 POP POP PUSH1 0x60 DUP6 ADD CALLDATALOAD PUSH8 0xFFFFFFFFFFFFFFFF DUP2 GT ISZERO PUSH2 0xAEC JUMPI PUSH2 0xAEB PUSH2 0x8C8 JUMP JUMPDEST JUMPDEST PUSH2 0xAF8 DUP8 DUP3 DUP9 ADD PUSH2 0x9E5 JUMP JUMPDEST SWAP2 POP POP SWAP3 SWAP6 SWAP2 SWAP5 POP SWAP3 POP JUMP JUMPDEST PUSH1 0x0 PUSH20 0xFFFFFFFFFFFFFFFFFFFFFFFFFFFFFFFFFFFFFFFF DUP3 AND SWAP1 POP SWAP2 SWAP1 POP JUMP JUMPDEST PUSH1 0x0 PUSH2 0xB2F DUP3 PUSH2 0xB04 JUMP JUMPDEST SWAP1 POP SWAP2 SWAP1 POP JUMP JUMPDEST PUSH2 0xB3F DUP2 PUSH2 0xB24 JUMP JUMPDEST DUP2 EQ PUSH2 0xB4A JUMPI PUSH1 0x0 DUP1 REVERT JUMPDEST POP JUMP JUMPDEST PUSH1 0x0 DUP2 CALLDATALOAD SWAP1 POP PUSH2 0xB5C DUP2 PUSH2 0xB36 JUMP JUMPDEST SWAP3 SWAP2 POP POP JUMP JUMPDEST PUSH1 0x0 PUSH1 0x20 DUP3 DUP5 SUB SLT ISZERO PUSH2 0xB78 JUMPI PUSH2 0xB77 PUSH2 0x8C3 JUMP JUMPDEST JUMPDEST PUSH1 0x0 PUSH2 0xB86 DUP5 DUP3 DUP6 ADD PUSH2 0xB4D JUMP JUMPDEST SWAP2 POP POP SWAP3 SWAP2 POP POP JUMP JUMPDEST PUSH1 0x0 DUP2 MLOAD SWAP1 POP SWAP2 SWAP1 POP JUMP JUMPDEST PUSH1 0x0 DUP3 DUP3 MSTORE PUSH1 0x20 DUP3 ADD SWAP1 POP SWAP3 SWAP2 POP POP JUMP JUMPDEST PUSH1 0x0 JUMPDEST DUP4 DUP2 LT ISZERO PUSH2 0xBC9 JUMPI DUP1 DUP3 ADD MLOAD DUP2 DUP5 ADD MSTORE PUSH1 0x20 DUP2 ADD SWAP1 POP PUSH2 0xBAE JUMP JUMPDEST PUSH1 0x0 DUP5 DUP5 ADD MSTORE POP POP POP POP JUMP JUMPDEST PUSH1 0x0 PUSH2 0xBE0 DUP3 PUSH2 0xB8F JUMP JUMPDEST PUSH2 0xBEA DUP2 DUP6 PUSH2 0xB9A JUMP JUMPDEST SWAP4 POP PUSH2 0xBFA DUP2 DUP6 PUSH1 0x20 DUP7 ADD PUSH2 0xBAB JUMP JUMPDEST PUSH2 0xC03 DUP2 PUSH2 0x8D7 JUMP JUMPDEST DUP5 ADD SWAP2 POP POP SWAP3 SWAP2 POP POP JUMP JUMPDEST PUSH2 0xC17 DUP2 PUSH2 0xA13 JUMP JUMPDEST DUP3 MSTORE POP POP JUMP JUMPDEST PUSH1 0x0 PUSH1 0x80 DUP3 ADD SWAP1 POP DUP2 DUP2 SUB PUSH1 0x0 DUP4 ADD MSTORE PUSH2 0xC37 DUP2 DUP8 PUSH2 0xBD5 JUMP JUMPDEST SWAP1 POP PUSH2 0xC46 PUSH1 0x20 DUP4 ADD DUP7 PUSH2 0xC0E JUMP JUMPDEST DUP2 DUP2 SUB PUSH1 0x40 DUP4 ADD MSTORE PUSH2 0xC58 DUP2 DUP6 PUSH2 0xBD5 JUMP JUMPDEST SWAP1 POP DUP2 DUP2 SUB PUSH1 0x60 DUP4 ADD MSTORE PUSH2 0xC6C DUP2 DUP5 PUSH2 0xBD5 JUMP JUMPDEST SWAP1 POP SWAP6 SWAP5 POP POP POP POP POP JUMP JUMPDEST PUSH32 0x4E616D652063616E6E6F7420626520656D707479000000000000000000000000 PUSH1 0x0 DUP3 ADD MSTORE POP JUMP JUMPDEST PUSH1 0x0 PUSH2 0xCAD PUSH1 0x14 DUP4 PUSH2 0xB9A JUMP JUMPDEST SWAP2 POP PUSH2 0xCB8 DUP3 PUSH2 0xC77 JUMP JUMPDEST PUSH1 0x20 DUP3 ADD SWAP1 POP SWAP2 SWAP1 POP JUMP JUMPDEST PUSH1 0x0 PUSH1 0x20 DUP3 ADD SWAP1 POP DUP2 DUP2 SUB PUSH1 0x0 DUP4 ADD MSTORE PUSH2 0xCDC DUP2 PUSH2 0xCA0 JUMP JUMPDEST SWAP1 POP SWAP2 SWAP1 POP JUMP JUMPDEST PUSH32 0x416765206D7573742062652067726561746572207468616E2030000000000000 PUSH1 0x0 DUP3 ADD MSTORE POP JUMP JUMPDEST PUSH1 0x0 PUSH2 0xD19 PUSH1 0x1A DUP4 PUSH2 0xB9A JUMP JUMPDEST SWAP2 POP PUSH2 0xD24 DUP3 PUSH2 0xCE3 JUMP JUMPDEST PUSH1 0x20 DUP3 ADD SWAP1 POP SWAP2 SWAP1 POP JUMP JUMPDEST PUSH1 0x0 PUSH1 0x20 DUP3 ADD SWAP1 POP DUP2 DUP2 SUB PUSH1 0x0 DUP4 ADD MSTORE PUSH2 0xD48 DUP2 PUSH2 0xD0C JUMP JUMPDEST SWAP1 POP SWAP2 SWAP1 POP JUMP JUMPDEST PUSH32 0x446961676E6F7369732063616E6E6F7420626520656D70747900000000000000 PUSH1 0x0 DUP3 ADD MSTORE POP JUMP JUMPDEST PUSH1 0x0 PUSH2 0xD85 PUSH1 0x19 DUP4 PUSH2 0xB9A JUMP JUMPDEST SWAP2 POP PUSH2 0xD90 DUP3 PUSH2 0xD4F JUMP JUMPDEST PUSH1 0x20 DUP3 ADD SWAP1 POP SWAP2 SWAP1 POP JUMP JUMPDEST PUSH1 0x0 PUSH1 0x20 DUP3 ADD SWAP1 POP DUP2 DUP2 SUB PUSH1 0x0 DUP4 ADD MSTORE PUSH2 0xDB4 DUP2 PUSH2 0xD78 JUMP JUMPDEST SWAP1 POP SWAP2 SWAP1 POP JUMP JUMPDEST PUSH32 0x507265736372697074696F6E2063616E6E6F7420626520656D70747900000000 PUSH1 0x0 DUP3 ADD MSTORE POP JUMP JUMPDEST PUSH1 0x0 PUSH2 0xDF1 PUSH1 0x1C DUP4 PUSH2 0xB9A JUMP JUMPDEST SWAP2 POP PUSH2 0xDFC DUP3 PUSH2 0xDBB JUMP JUMPDEST PUSH1 0x20 DUP3 ADD SWAP1 POP SWAP2 SWAP1 POP JUMP JUMPDEST PUSH1 0x0 PUSH1 0x20 DUP3 ADD SWAP1 POP DUP2 DUP2 SUB PUSH1 0x0 DUP4 ADD MSTORE PUSH2 0xE20 DUP2 PUSH2 0xDE4 JUMP JUMPDEST SWAP1 POP SWAP2 SWAP1 POP JUMP JUMPDEST PUSH32 0x4E487B7100000000000000000000000000000000000000000000000000000000 PUSH1 0x0 MSTORE PUSH1 0x22 PUSH1 0x4 MSTORE PUSH1 0x24 PUSH1 0x0 REVERT JUMPDEST PUSH1 0x0 PUSH1 0x2 DUP3 DIV SWAP1 POP PUSH1 0x1 DUP3 AND DUP1 PUSH2 0xE6E JUMPI PUSH1 0x7F DUP3 AND SWAP2 POP JUMPDEST PUSH1 0x20 DUP3 LT DUP2 SUB PUSH2 0xE81 JUMPI PUSH2 0xE80 PUSH2 0xE27 JUMP JUMPDEST JUMPDEST POP SWAP2 SWAP1 POP JUMP JUMPDEST PUSH1 0x0 DUP2 SWAP1 POP DUP2 PUSH1 0x0 MSTORE PUSH1 0x20 PUSH1 0x0 KECCAK256 SWAP1 POP SWAP2 SWAP1 POP JUMP JUMPDEST PUSH1 0x0 PUSH1 0x20 PUSH1 0x1F DUP4 ADD DIV SWAP1 POP SWAP2 SWAP1 POP JUMP JUMPDEST PUSH1 0x0 DUP3 DUP3 SHL SWAP1 POP SWAP3 SWAP2 POP POP JUMP JUMPDEST PUSH1 0x0 PUSH1 0x8 DUP4 MUL PUSH2 0xEE9 PUSH32 0xFFFFFFFFFFFFFFFFFFFFFFFFFFFFFFFFFFFFFFFFFFFFFFFFFFFFFFFFFFFFFFFF DUP3 PUSH2 0xEAC JUMP JUMPDEST PUSH2 0xEF3 DUP7 DUP4 PUSH2 0xEAC JUMP JUMPDEST SWAP6 POP DUP1 NOT DUP5 AND SWAP4 POP DUP1 DUP7 AND DUP5 OR SWAP3 POP POP POP SWAP4 SWAP3 POP POP POP JUMP JUMPDEST PUSH1 0x0 DUP2 SWAP1 POP SWAP2 SWAP1 POP JUMP JUMPDEST PUSH1 0x0 PUSH2 0xF30 PUSH2 0xF2B PUSH2 0xF26 DUP5 PUSH2 0xA13 JUMP JUMPDEST PUSH2 0xF0B JUMP JUMPDEST PUSH2 0xA13 JUMP JUMPDEST SWAP1 POP SWAP2 SWAP1 POP JUMP JUMPDEST PUSH1 0x0 DUP2 SWAP1 POP SWAP2 SWAP1 POP JUMP JUMPDEST PUSH2 0xF4A DUP4 PUSH2 0xF15 JUMP JUMPDEST PUSH2 0xF5E PUSH2 0xF56 DUP3 PUSH2 0xF37 JUMP JUMPDEST DUP5 DUP5 SLOAD PUSH2 0xEB9 JUMP JUMPDEST DUP3 SSTORE POP POP POP POP JUMP JUMPDEST PUSH1 0x0 SWAP1 JUMP JUMPDEST PUSH2 0xF73 PUSH2 0xF66 JUMP JUMPDEST PUSH2 0xF7E DUP2 DUP5 DUP5 PUSH2 0xF41 JUMP JUMPDEST POP POP POP JUMP JUMPDEST JUMPDEST DUP2 DUP2 LT ISZERO PUSH2 0xFA2 JUMPI PUSH2 0xF97 PUSH1 0x0 DUP3 PUSH2 0xF6B JUMP JUMPDEST PUSH1 0x1 DUP2 ADD SWAP1 POP PUSH2 0xF84 JUMP JUMPDEST POP POP JUMP JUMPDEST PUSH1 0x1F DUP3 GT ISZERO PUSH2 0xFE7 JUMPI PUSH2 0xFB8 DUP2 PUSH2 0xE87 JUMP JUMPDEST PUSH2 0xFC1 DUP5 PUSH2 0xE9C JUMP JUMPDEST DUP2 ADD PUSH1 0x20 DUP6 LT ISZERO PUSH2 0xFD0 JUMPI DUP2 SWAP1 POP JUMPDEST PUSH2 0xFE4 PUSH2 0xFDC DUP6 PUSH2 0xE9C JUMP JUMPDEST DUP4 ADD DUP3 PUSH2 0xF83 JUMP JUMPDEST POP POP JUMPDEST POP POP POP JUMP JUMPDEST PUSH1 0x0 DUP3 DUP3 SHR SWAP1 POP SWAP3 SWAP2 POP POP JUMP JUMPDEST PUSH1 0x0 PUSH2 0x100A PUSH1 0x0 NOT DUP5 PUSH1 0x8 MUL PUSH2 0xFEC JUMP JUMPDEST NOT DUP1 DUP4 AND SWAP2 POP POP SWAP3 SWAP2 POP POP JUMP JUMPDEST PUSH1 0x0 PUSH2 0x1023 DUP4 DUP4 PUSH2 0xFF9 JUMP JUMPDEST SWAP2 POP DUP3 PUSH1 0x2 MUL DUP3 OR SWAP1 POP SWAP3 SWAP2 POP POP JUMP JUMPDEST PUSH2 0x103C DUP3 PUSH2 0xB8F JUMP JUMPDEST PUSH8 0xFFFFFFFFFFFFFFFF DUP2 GT ISZERO PUSH2 0x1055 JUMPI PUSH2 0x1054 PUSH2 0x8E8 JUMP JUMPDEST JUMPDEST PUSH2 0x105F DUP3 SLOAD PUSH2 0xE56 JUMP JUMPDEST PUSH2 0x106A DUP3 DUP3 DUP6 PUSH2 0xFA6 JUMP JUMPDEST PUSH1 0x0 PUSH1 0x20 SWAP1 POP PUSH1 0x1F DUP4 GT PUSH1 0x1 DUP2 EQ PUSH2 0x109D JUMPI PUSH1 0x0 DUP5 ISZERO PUSH2 0x108B JUMPI DUP3 DUP8 ADD MLOAD SWAP1 POP JUMPDEST PUSH2 0x1095 DUP6 DUP3 PUSH2 0x1017 JUMP JUMPDEST DUP7 SSTORE POP PUSH2 0x10FD JUMP JUMPDEST PUSH1 0x1F NOT DUP5 AND PUSH2 0x10AB DUP7 PUSH2 0xE87 JUMP JUMPDEST PUSH1 0x0 JUMPDEST DUP3 DUP2 LT ISZERO PUSH2 0x10D3 JUMPI DUP5 DUP10 ADD MLOAD DUP3 SSTORE PUSH1 0x1 DUP3 ADD SWAP2 POP PUSH1 0x20 DUP6 ADD SWAP5 POP PUSH1 0x20 DUP2 ADD SWAP1 POP PUSH2 0x10AE JUMP JUMPDEST DUP7 DUP4 LT ISZERO PUSH2 0x10F0 JUMPI DUP5 DUP10 ADD MLOAD PUSH2 0x10EC PUSH1 0x1F DUP10 AND DUP3 PUSH2 0xFF9 JUMP JUMPDEST DUP4 SSTORE POP JUMPDEST PUSH1 0x1 PUSH1 0x2 DUP9 MUL ADD DUP9 SSTORE POP POP POP JUMPDEST POP POP POP POP POP POP JUMP JUMPDEST PUSH32 0x50617469656E74206E6F7420666F756E64000000000000000000000000000000 PUSH1 0x0 DUP3 ADD MSTORE POP JUMP JUMPDEST PUSH1 0x0 PUSH2 0x113B PUSH1 0x11 DUP4 PUSH2 0xB9A JUMP JUMPDEST SWAP2 POP PUSH2 0x1146 DUP3 PUSH2 0x1105 JUMP JUMPDEST PUSH1 0x20 DUP3 ADD SWAP1 POP SWAP2 SWAP1 POP JUMP JUMPDEST PUSH1 0x0 PUSH1 0x20 DUP3 ADD SWAP1 POP DUP2 DUP2 SUB PUSH1 0x0 DUP4 ADD MSTORE PUSH2 0x116A DUP2 PUSH2 0x112E JUMP JUMPDEST SWAP1 POP SWAP2 SWAP1 POP JUMP INVALID LOG2 PUSH5 0x6970667358 0x22 SLT KECCAK256 PUSH29 0xE6BBF800C17BCE578FCFE60B9BDB1F48A2EBA24ABFE2E0B57EA3B2A681 PUSH21 0x8464736F6C63430008120033000000000000000000 "
				},
				"gasEstimates": {
					"creation": {
						"codeDepositCost": "903800",
						"executionCost": "942",
						"totalCost": "904742"
					},
					"external": {
						"addPatient(string,uint256,string,string)": "infinite",
						"getPatient(address)": "infinite",
						"updatePatient(string,uint256,string,string)": "infinite"
					}
				},
				"methodIdentifiers": {
					"addPatient(string,uint256,string,string)": "33f0d5ea",
					"getPatient(address)": "b5368e20",
					"updatePatient(string,uint256,string,string)": "b64358da"
				}
			},
			"storageLayout": {
				"storage": [
					{
						"astId": 15,
						"contract": "doctorrecord.sol:DoctorRecord",
						"label": "patients",
						"offset": 0,
						"slot": "0",
						"type": "t_mapping(t_address,t_struct(Patient)10_storage)"
					}
				],
				"types": {
					"t_address": {
						"encoding": "inplace",
						"label": "address",
						"numberOfBytes": "20"
					},
					"t_mapping(t_address,t_struct(Patient)10_storage)": {
						"encoding": "mapping",
						"key": "t_address",
						"label": "mapping(address => struct DoctorRecord.Patient)",
						"numberOfBytes": "32",
						"value": "t_struct(Patient)10_storage"
					},
					"t_string_storage": {
						"encoding": "bytes",
						"label": "string",
						"numberOfBytes": "32"
					},
					"t_struct(Patient)10_storage": {
						"encoding": "inplace",
						"label": "struct DoctorRecord.Patient",
						"members": [
							{
								"astId": 3,
								"contract": "doctorrecord.sol:DoctorRecord",
								"label": "name",
								"offset": 0,
								"slot": "0",
								"type": "t_string_storage"
							},
							{
								"astId": 5,
								"contract": "doctorrecord.sol:DoctorRecord",
								"label": "age",
								"offset": 0,
								"slot": "1",
								"type": "t_uint256"
							},
							{
								"astId": 7,
								"contract": "doctorrecord.sol:DoctorRecord",
								"label": "diagnosis",
								"offset": 0,
								"slot": "2",
								"type": "t_string_storage"
							},
							{
								"astId": 9,
								"contract": "doctorrecord.sol:DoctorRecord",
								"label": "prescription",
								"offset": 0,
								"slot": "3",
								"type": "t_string_storage"
							}
						],
						"numberOfBytes": "128"
					},
					"t_uint256": {
						"encoding": "inplace",
						"label": "uint256",
						"numberOfBytes": "32"
					}
				}
			},
			"userdoc": {
				"kind": "user",
				"methods": {},
				"version": 1
			}
		}
	}
}