{
	"inquiryandupdate.sol": {
		"PropertyInquiryAndSale": {
			"abi": [
				{
					"inputs": [],
					"stateMutability": "nonpayable",
					"type": "constructor"
				},
				{
					"anonymous": false,
					"inputs": [
						{
							"indexed": true,
							"internalType": "uint256",
							"name": "buildingId",
							"type": "uint256"
						},
						{
							"indexed": false,
							"internalType": "string",
							"name": "name",
							"type": "string"
						},
						{
							"indexed": false,
							"internalType": "uint256",
							"name": "value",
							"type": "uint256"
						},
						{
							"indexed": true,
							"internalType": "address",
							"name": "owner",
							"type": "address"
						}
					],
					"name": "BuildingCreated",
					"type": "event"
				},
				{
					"anonymous": false,
					"inputs": [
						{
							"indexed": true,
							"internalType": "uint256",
							"name": "buildingId",
							"type": "uint256"
						},
						{
							"indexed": true,
							"internalType": "address",
							"name": "previousOwner",
							"type": "address"
						},
						{
							"indexed": true,
							"internalType": "address",
							"name": "newOwner",
							"type": "address"
						}
					],
					"name": "BuildingTransferred",
					"type": "event"
				},
				{
					"anonymous": false,
					"inputs": [
						{
							"indexed": true,
							"internalType": "uint256",
							"name": "propertyId",
							"type": "uint256"
						},
						{
							"indexed": true,
							"internalType": "address",
							"name": "owner",
							"type": "address"
						},
						{
							"indexed": false,
							"internalType": "string",
							"name": "location",
							"type": "string"
						},
						{
							"indexed": false,
							"internalType": "uint256",
							"name": "price",
							"type": "uint256"
						}
					],
					"name": "PropertyAdded",
					"type": "event"
				},
				{
					"anonymous": false,
					"inputs": [
						{
							"indexed": true,
							"internalType": "uint256",
							"name": "propertyId",
							"type": "uint256"
						},
						{
							"indexed": true,
							"internalType": "address",
							"name": "buyer",
							"type": "address"
						}
					],
					"name": "PropertyPurchased",
					"type": "event"
				},
				{
					"inputs": [
						{
							"internalType": "uint256",
							"name": "",
							"type": "uint256"
						}
					],
					"name": "Plots",
					"outputs": [
						{
							"internalType": "address",
							"name": "owner",
							"type": "address"
						},
						{
							"internalType": "bool",
							"name": "isAvailable",
							"type": "bool"
						},
						{
							"internalType": "string",
							"name": "location",
							"type": "string"
						},
						{
							"internalType": "uint256",
							"name": "price",
							"type": "uint256"
						}
					],
					"stateMutability": "view",
					"type": "function"
				},
				{
					"inputs": [
						{
							"internalType": "string",
							"name": "_location",
							"type": "string"
						},
						{
							"internalType": "uint256",
							"name": "_price",
							"type": "uint256"
						}
					],
					"name": "addProperty",
					"outputs": [],
					"stateMutability": "nonpayable",
					"type": "function"
				},
				{
					"inputs": [
						{
							"internalType": "uint256",
							"name": "_propertyId",
							"type": "uint256"
						}
					],
					"name": "inquireProperty",
					"outputs": [
						{
							"internalType": "address",
							"name": "owner",
							"type": "address"
						},
						{
							"internalType": "bool",
							"name": "isAvailable",
							"type": "bool"
						},
						{
							"internalType": "string",
							"name": "location",
							"type": "string"
						},
						{
							"internalType": "uint256",
							"name": "price",
							"type": "uint256"
						}
					],
					"stateMutability": "view",
					"type": "function"
				},
				{
					"inputs": [
						{
							"internalType": "uint256",
							"name": "_propertyId",
							"type": "uint256"
						}
					],
					"name": "purchaseProperty",
					"outputs": [],
					"stateMutability": "payable",
					"type": "function"
				},
				{
					"inputs": [],
					"name": "totalNOfPlots",
					"outputs": [
						{
							"internalType": "uint256",
							"name": "",
							"type": "uint256"
						}
					],
					"stateMutability": "view",
					"type": "function"
				}
			],
			"devdoc": {
				"kind": "dev",
				"methods": {},
				"version": 1
			},
			"evm": {
				"assembly": "    /* \"inquiryandupdate.sol\":60:2308  contract PropertyInquiryAndSale {... */\n  mstore(0x40, 0x80)\n    /* \"inquiryandupdate.sol\":733:783  constructor() {... */\n  callvalue\n  dup1\n  iszero\n  tag_1\n  jumpi\n  0x00\n  dup1\n  revert\ntag_1:\n  pop\n    /* \"inquiryandupdate.sol\":774:775  0 */\n  0x00\n    /* \"inquiryandupdate.sol\":758:771  totalNOfPlots */\n  0x01\n    /* \"inquiryandupdate.sol\":758:775  totalNOfPlots = 0 */\n  dup2\n  swap1\n  sstore\n  pop\n    /* \"inquiryandupdate.sol\":60:2308  contract PropertyInquiryAndSale {... */\n  dataSize(sub_0)\n  dup1\n  dataOffset(sub_0)\n  0x00\n  codecopy\n  0x00\n  return\nstop\n\nsub_0: assembly {\n        /* \"inquiryandupdate.sol\":60:2308  contract PropertyInquiryAndSale {... */\n      mstore(0x40, 0x80)\n      jumpi(tag_1, lt(calldatasize, 0x04))\n      shr(0xe0, calldataload(0x00))\n      dup1\n      0x0a15e8e6\n      eq\n      tag_2\n      jumpi\n      dup1\n      0x3e609373\n      eq\n      tag_3\n      jumpi\n      dup1\n      0x63a33b8c\n      eq\n      tag_4\n      jumpi\n      dup1\n      0x79d9c439\n      eq\n      tag_5\n      jumpi\n      dup1\n      0xf54e1aef\n      eq\n      tag_6\n      jumpi\n    tag_1:\n      0x00\n      dup1\n      revert\n        /* \"inquiryandupdate.sol\":280:308  uint256 public totalNOfPlots */\n    tag_2:\n      callvalue\n      dup1\n      iszero\n      tag_7\n      jumpi\n      0x00\n      dup1\n      revert\n    tag_7:\n      pop\n      tag_8\n      tag_9\n      jump\t// in\n    tag_8:\n      mload(0x40)\n      tag_10\n      swap2\n      swap1\n      tag_11\n      jump\t// in\n    tag_10:\n      mload(0x40)\n      dup1\n      swap2\n      sub\n      swap1\n      return\n        /* \"inquiryandupdate.sol\":232:273  mapping(uint256 => Property) public Plots */\n    tag_3:\n      callvalue\n      dup1\n      iszero\n      tag_12\n      jumpi\n      0x00\n      dup1\n      revert\n    tag_12:\n      pop\n      tag_13\n      0x04\n      dup1\n      calldatasize\n      sub\n      dup2\n      add\n      swap1\n      tag_14\n      swap2\n      swap1\n      tag_15\n      jump\t// in\n    tag_14:\n      tag_16\n      jump\t// in\n    tag_13:\n      mload(0x40)\n      tag_17\n      swap5\n      swap4\n      swap3\n      swap2\n      swap1\n      tag_18\n      jump\t// in\n    tag_17:\n      mload(0x40)\n      dup1\n      swap2\n      sub\n      swap1\n      return\n        /* \"inquiryandupdate.sol\":1160:1585  function inquireProperty(uint256 _propertyId) public view returns (address owner, bool isAvailable, string memory location, uint256 price) {... */\n    tag_4:\n      callvalue\n      dup1\n      iszero\n      tag_19\n      jumpi\n      0x00\n      dup1\n      revert\n    tag_19:\n      pop\n      tag_20\n      0x04\n      dup1\n      calldatasize\n      sub\n      dup2\n      add\n      swap1\n      tag_21\n      swap2\n      swap1\n      tag_15\n      jump\t// in\n    tag_21:\n      tag_22\n      jump\t// in\n    tag_20:\n      mload(0x40)\n      tag_23\n      swap5\n      swap4\n      swap3\n      swap2\n      swap1\n      tag_18\n      jump\t// in\n    tag_23:\n      mload(0x40)\n      dup1\n      swap2\n      sub\n      swap1\n      return\n        /* \"inquiryandupdate.sol\":1593:2305  function purchaseProperty(uint256 _propertyId) public payable {... */\n    tag_5:\n      tag_24\n      0x04\n      dup1\n      calldatasize\n      sub\n      dup2\n      add\n      swap1\n      tag_25\n      swap2\n      swap1\n      tag_15\n      jump\t// in\n    tag_25:\n      tag_26\n      jump\t// in\n    tag_24:\n      stop\n        /* \"inquiryandupdate.sol\":791:1152  function addProperty(string memory _location, uint256 _price) public {... */\n    tag_6:\n      callvalue\n      dup1\n      iszero\n      tag_27\n      jumpi\n      0x00\n      dup1\n      revert\n    tag_27:\n      pop\n      tag_28\n      0x04\n      dup1\n      calldatasize\n      sub\n      dup2\n      add\n      swap1\n      tag_29\n      swap2\n      swap1\n      tag_30\n      jump\t// in\n    tag_29:\n      tag_31\n      jump\t// in\n    tag_28:\n      stop\n        /* \"inquiryandupdate.sol\":280:308  uint256 public totalNOfPlots */\n    tag_9:\n      sload(0x01)\n      dup2\n      jump\t// out\n        /* \"inquiryandupdate.sol\":232:273  mapping(uint256 => Property) public Plots */\n    tag_16:\n      mstore(0x20, 0x00)\n      dup1\n      0x00\n      mstore\n      keccak256(0x00, 0x40)\n      0x00\n      swap2\n      pop\n      swap1\n      pop\n      dup1\n      0x00\n      add\n      0x00\n      swap1\n      sload\n      swap1\n      0x0100\n      exp\n      swap1\n      div\n      0xffffffffffffffffffffffffffffffffffffffff\n      and\n      swap1\n      dup1\n      0x00\n      add\n      0x14\n      swap1\n      sload\n      swap1\n      0x0100\n      exp\n      swap1\n      div\n      0xff\n      and\n      swap1\n      dup1\n      0x01\n      add\n      dup1\n      sload\n      tag_32\n      swap1\n      tag_33\n      jump\t// in\n    tag_32:\n      dup1\n      0x1f\n      add\n      0x20\n      dup1\n      swap2\n      div\n      mul\n      0x20\n      add\n      mload(0x40)\n      swap1\n      dup2\n      add\n      0x40\n      mstore\n      dup1\n      swap3\n      swap2\n      swap1\n      dup2\n      dup2\n      mstore\n      0x20\n      add\n      dup3\n      dup1\n      sload\n      tag_34\n      swap1\n      tag_33\n      jump\t// in\n    tag_34:\n      dup1\n      iszero\n      tag_35\n      jumpi\n      dup1\n      0x1f\n      lt\n      tag_36\n      jumpi\n      0x0100\n      dup1\n      dup4\n      sload\n      div\n      mul\n      dup4\n      mstore\n      swap2\n      0x20\n      add\n      swap2\n      jump(tag_35)\n    tag_36:\n      dup3\n      add\n      swap2\n      swap1\n      0x00\n      mstore\n      keccak256(0x00, 0x20)\n      swap1\n    tag_37:\n      dup2\n      sload\n      dup2\n      mstore\n      swap1\n      0x01\n      add\n      swap1\n      0x20\n      add\n      dup1\n      dup4\n      gt\n      tag_37\n      jumpi\n      dup3\n      swap1\n      sub\n      0x1f\n      and\n      dup3\n      add\n      swap2\n    tag_35:\n      pop\n      pop\n      pop\n      pop\n      pop\n      swap1\n      dup1\n      0x02\n      add\n      sload\n      swap1\n      pop\n      dup5\n      jump\t// out\n        /* \"inquiryandupdate.sol\":1160:1585  function inquireProperty(uint256 _propertyId) public view returns (address owner, bool isAvailable, string memory location, uint256 price) {... */\n    tag_22:\n        /* \"inquiryandupdate.sol\":1227:1240  address owner */\n      0x00\n        /* \"inquiryandupdate.sol\":1242:1258  bool isAvailable */\n      dup1\n        /* \"inquiryandupdate.sol\":1260:1282  string memory location */\n      0x60\n        /* \"inquiryandupdate.sol\":1284:1297  uint256 price */\n      0x00\n        /* \"inquiryandupdate.sol\":1332:1345  totalNOfPlots */\n      sload(0x01)\n        /* \"inquiryandupdate.sol\":1318:1329  _propertyId */\n      dup6\n        /* \"inquiryandupdate.sol\":1318:1345  _propertyId < totalNOfPlots */\n      lt\n        /* \"inquiryandupdate.sol\":1310:1369  require(_propertyId < totalNOfPlots, \"Invalid property ID\") */\n      tag_39\n      jumpi\n      mload(0x40)\n      0x08c379a000000000000000000000000000000000000000000000000000000000\n      dup2\n      mstore\n      0x04\n      add\n      tag_40\n      swap1\n      tag_41\n      jump\t// in\n    tag_40:\n      mload(0x40)\n      dup1\n      swap2\n      sub\n      swap1\n      revert\n    tag_39:\n        /* \"inquiryandupdate.sol\":1382:1406  Property memory property */\n      0x00\n        /* \"inquiryandupdate.sol\":1409:1414  Plots */\n      dup1\n        /* \"inquiryandupdate.sol\":1409:1427  Plots[_propertyId] */\n      0x00\n        /* \"inquiryandupdate.sol\":1415:1426  _propertyId */\n      dup8\n        /* \"inquiryandupdate.sol\":1409:1427  Plots[_propertyId] */\n      dup2\n      mstore\n      0x20\n      add\n      swap1\n      dup2\n      mstore\n      0x20\n      add\n      0x00\n      keccak256\n        /* \"inquiryandupdate.sol\":1382:1427  Property memory property = Plots[_propertyId] */\n      mload(0x40)\n      dup1\n      0x80\n      add\n      0x40\n      mstore\n      swap1\n      dup2\n      0x00\n      dup3\n      add\n      0x00\n      swap1\n      sload\n      swap1\n      0x0100\n      exp\n      swap1\n      div\n      0xffffffffffffffffffffffffffffffffffffffff\n      and\n      0xffffffffffffffffffffffffffffffffffffffff\n      and\n      0xffffffffffffffffffffffffffffffffffffffff\n      and\n      dup2\n      mstore\n      0x20\n      add\n      0x00\n      dup3\n      add\n      0x14\n      swap1\n      sload\n      swap1\n      0x0100\n      exp\n      swap1\n      div\n      0xff\n      and\n      iszero\n      iszero\n      iszero\n      iszero\n      dup2\n      mstore\n      0x20\n      add\n      0x01\n      dup3\n      add\n      dup1\n      sload\n      tag_42\n      swap1\n      tag_33\n      jump\t// in\n    tag_42:\n      dup1\n      0x1f\n      add\n      0x20\n      dup1\n      swap2\n      div\n      mul\n      0x20\n      add\n      mload(0x40)\n      swap1\n      dup2\n      add\n      0x40\n      mstore\n      dup1\n      swap3\n      swap2\n      swap1\n      dup2\n      dup2\n      mstore\n      0x20\n      add\n      dup3\n      dup1\n      sload\n      tag_43\n      swap1\n      tag_33\n      jump\t// in\n    tag_43:\n      dup1\n      iszero\n      tag_44\n      jumpi\n      dup1\n      0x1f\n      lt\n      tag_45\n      jumpi\n      0x0100\n      dup1\n      dup4\n      sload\n      div\n      mul\n      dup4\n      mstore\n      swap2\n      0x20\n      add\n      swap2\n      jump(tag_44)\n    tag_45:\n      dup3\n      add\n      swap2\n      swap1\n      0x00\n      mstore\n      keccak256(0x00, 0x20)\n      swap1\n    tag_46:\n      dup2\n      sload\n      dup2\n      mstore\n      swap1\n      0x01\n      add\n      swap1\n      0x20\n      add\n      dup1\n      dup4\n      gt\n      tag_46\n      jumpi\n      dup3\n      swap1\n      sub\n      0x1f\n      and\n      dup3\n      add\n      swap2\n    tag_44:\n      pop\n      pop\n      pop\n      pop\n      pop\n      dup2\n      mstore\n      0x20\n      add\n      0x02\n      dup3\n      add\n      sload\n      dup2\n      mstore\n      pop\n      pop\n      swap1\n      pop\n        /* \"inquiryandupdate.sol\":1446:1454  property */\n      dup1\n        /* \"inquiryandupdate.sol\":1446:1460  property.owner */\n      0x00\n      add\n      mload\n        /* \"inquiryandupdate.sol\":1438:1460  owner = property.owner */\n      swap5\n      pop\n        /* \"inquiryandupdate.sol\":1485:1493  property */\n      dup1\n        /* \"inquiryandupdate.sol\":1485:1505  property.isAvailable */\n      0x20\n      add\n      mload\n        /* \"inquiryandupdate.sol\":1471:1505  isAvailable = property.isAvailable */\n      swap4\n      pop\n        /* \"inquiryandupdate.sol\":1527:1535  property */\n      dup1\n        /* \"inquiryandupdate.sol\":1527:1544  property.location */\n      0x40\n      add\n      mload\n        /* \"inquiryandupdate.sol\":1516:1544  location = property.location */\n      swap3\n      pop\n        /* \"inquiryandupdate.sol\":1563:1571  property */\n      dup1\n        /* \"inquiryandupdate.sol\":1563:1577  property.price */\n      0x60\n      add\n      mload\n        /* \"inquiryandupdate.sol\":1555:1577  price = property.price */\n      swap2\n      pop\n        /* \"inquiryandupdate.sol\":1299:1585  {... */\n      pop\n        /* \"inquiryandupdate.sol\":1160:1585  function inquireProperty(uint256 _propertyId) public view returns (address owner, bool isAvailable, string memory location, uint256 price) {... */\n      swap2\n      swap4\n      pop\n      swap2\n      swap4\n      jump\t// out\n        /* \"inquiryandupdate.sol\":1593:2305  function purchaseProperty(uint256 _propertyId) public payable {... */\n    tag_26:\n        /* \"inquiryandupdate.sol\":1688:1701  totalNOfPlots */\n      sload(0x01)\n        /* \"inquiryandupdate.sol\":1674:1685  _propertyId */\n      dup2\n        /* \"inquiryandupdate.sol\":1674:1701  _propertyId < totalNOfPlots */\n      lt\n        /* \"inquiryandupdate.sol\":1666:1725  require(_propertyId < totalNOfPlots, \"Invalid property ID\") */\n      tag_48\n      jumpi\n      mload(0x40)\n      0x08c379a000000000000000000000000000000000000000000000000000000000\n      dup2\n      mstore\n      0x04\n      add\n      tag_49\n      swap1\n      tag_41\n      jump\t// in\n    tag_49:\n      mload(0x40)\n      dup1\n      swap2\n      sub\n      swap1\n      revert\n    tag_48:\n        /* \"inquiryandupdate.sol\":1736:1761  Property storage property */\n      0x00\n        /* \"inquiryandupdate.sol\":1764:1769  Plots */\n      dup1\n        /* \"inquiryandupdate.sol\":1764:1782  Plots[_propertyId] */\n      0x00\n        /* \"inquiryandupdate.sol\":1770:1781  _propertyId */\n      dup4\n        /* \"inquiryandupdate.sol\":1764:1782  Plots[_propertyId] */\n      dup2\n      mstore\n      0x20\n      add\n      swap1\n      dup2\n      mstore\n      0x20\n      add\n      0x00\n      keccak256\n        /* \"inquiryandupdate.sol\":1736:1782  Property storage property = Plots[_propertyId] */\n      swap1\n      pop\n        /* \"inquiryandupdate.sol\":1801:1809  property */\n      dup1\n        /* \"inquiryandupdate.sol\":1801:1821  property.isAvailable */\n      0x00\n      add\n      0x14\n      swap1\n      sload\n      swap1\n      0x0100\n      exp\n      swap1\n      div\n      0xff\n      and\n        /* \"inquiryandupdate.sol\":1793:1851  require(property.isAvailable, \"Property is not available\") */\n      tag_50\n      jumpi\n      mload(0x40)\n      0x08c379a000000000000000000000000000000000000000000000000000000000\n      dup2\n      mstore\n      0x04\n      add\n      tag_51\n      swap1\n      tag_52\n      jump\t// in\n    tag_51:\n      mload(0x40)\n      dup1\n      swap2\n      sub\n      swap1\n      revert\n    tag_50:\n        /* \"inquiryandupdate.sol\":1883:1891  property */\n      dup1\n        /* \"inquiryandupdate.sol\":1883:1897  property.price */\n      0x02\n      add\n      sload\n        /* \"inquiryandupdate.sol\":1870:1879  msg.value */\n      callvalue\n        /* \"inquiryandupdate.sol\":1870:1897  msg.value >= property.price */\n      lt\n      iszero\n        /* \"inquiryandupdate.sol\":1862:1920  require(msg.value >= property.price, \"Insufficient funds\") */\n      tag_53\n      jumpi\n      mload(0x40)\n      0x08c379a000000000000000000000000000000000000000000000000000000000\n      dup2\n      mstore\n      0x04\n      add\n      tag_54\n      swap1\n      tag_55\n      jump\t// in\n    tag_54:\n      mload(0x40)\n      dup1\n      swap2\n      sub\n      swap1\n      revert\n    tag_53:\n        /* \"inquiryandupdate.sol\":1933:1954  address previousOwner */\n      0x00\n        /* \"inquiryandupdate.sol\":1957:1965  property */\n      dup2\n        /* \"inquiryandupdate.sol\":1957:1971  property.owner */\n      0x00\n      add\n      0x00\n      swap1\n      sload\n      swap1\n      0x0100\n      exp\n      swap1\n      div\n      0xffffffffffffffffffffffffffffffffffffffff\n      and\n        /* \"inquiryandupdate.sol\":1933:1971  address previousOwner = property.owner */\n      swap1\n      pop\n        /* \"inquiryandupdate.sol\":1999:2009  msg.sender */\n      caller\n        /* \"inquiryandupdate.sol\":1982:1990  property */\n      dup3\n        /* \"inquiryandupdate.sol\":1982:1996  property.owner */\n      0x00\n      add\n      0x00\n        /* \"inquiryandupdate.sol\":1982:2009  property.owner = msg.sender */\n      0x0100\n      exp\n      dup2\n      sload\n      dup2\n      0xffffffffffffffffffffffffffffffffffffffff\n      mul\n      not\n      and\n      swap1\n      dup4\n      0xffffffffffffffffffffffffffffffffffffffff\n      and\n      mul\n      or\n      swap1\n      sstore\n      pop\n        /* \"inquiryandupdate.sol\":2043:2048  false */\n      0x00\n        /* \"inquiryandupdate.sol\":2020:2028  property */\n      dup3\n        /* \"inquiryandupdate.sol\":2020:2040  property.isAvailable */\n      0x00\n      add\n      0x14\n        /* \"inquiryandupdate.sol\":2020:2048  property.isAvailable = false */\n      0x0100\n      exp\n      dup2\n      sload\n      dup2\n      0xff\n      mul\n      not\n      and\n      swap1\n      dup4\n      iszero\n      iszero\n      mul\n      or\n      swap1\n      sstore\n      pop\n        /* \"inquiryandupdate.sol\":2117:2137  bool transferSuccess */\n      0x00\n        /* \"inquiryandupdate.sol\":2143:2156  previousOwner */\n      dup2\n        /* \"inquiryandupdate.sol\":2143:2161  previousOwner.call */\n      0xffffffffffffffffffffffffffffffffffffffff\n      and\n        /* \"inquiryandupdate.sol\":2169:2178  msg.value */\n      callvalue\n        /* \"inquiryandupdate.sol\":2143:2183  previousOwner.call{value: msg.value}(\"\") */\n      mload(0x40)\n      tag_56\n      swap1\n      tag_57\n      jump\t// in\n    tag_56:\n      0x00\n      mload(0x40)\n      dup1\n      dup4\n      sub\n      dup2\n      dup6\n      dup8\n      gas\n      call\n      swap3\n      pop\n      pop\n      pop\n      returndatasize\n      dup1\n      0x00\n      dup2\n      eq\n      tag_60\n      jumpi\n      mload(0x40)\n      swap2\n      pop\n      and(add(returndatasize, 0x3f), not(0x1f))\n      dup3\n      add\n      0x40\n      mstore\n      returndatasize\n      dup3\n      mstore\n      returndatasize\n      0x00\n      0x20\n      dup5\n      add\n      returndatacopy\n      jump(tag_59)\n    tag_60:\n      0x60\n      swap2\n      pop\n    tag_59:\n      pop\n        /* \"inquiryandupdate.sol\":2116:2183  (bool transferSuccess, ) = previousOwner.call{value: msg.value}(\"\") */\n      pop\n      swap1\n      pop\n        /* \"inquiryandupdate.sol\":2202:2217  transferSuccess */\n      dup1\n        /* \"inquiryandupdate.sol\":2194:2237  require(transferSuccess, \"Transfer failed\") */\n      tag_61\n      jumpi\n      mload(0x40)\n      0x08c379a000000000000000000000000000000000000000000000000000000000\n      dup2\n      mstore\n      0x04\n      add\n      tag_62\n      swap1\n      tag_63\n      jump\t// in\n    tag_62:\n      mload(0x40)\n      dup1\n      swap2\n      sub\n      swap1\n      revert\n    tag_61:\n        /* \"inquiryandupdate.sol\":2286:2296  msg.sender */\n      caller\n        /* \"inquiryandupdate.sol\":2255:2297  PropertyPurchased(_propertyId, msg.sender) */\n      0xffffffffffffffffffffffffffffffffffffffff\n      and\n        /* \"inquiryandupdate.sol\":2273:2284  _propertyId */\n      dup5\n        /* \"inquiryandupdate.sol\":2255:2297  PropertyPurchased(_propertyId, msg.sender) */\n      0x2ee884e099289b2a1e146cec54c3357ca82d951f7e05ac5580c69795f4967621\n      mload(0x40)\n      mload(0x40)\n      dup1\n      swap2\n      sub\n      swap1\n      log3\n        /* \"inquiryandupdate.sol\":1655:2305  {... */\n      pop\n      pop\n      pop\n        /* \"inquiryandupdate.sol\":1593:2305  function purchaseProperty(uint256 _propertyId) public payable {... */\n      pop\n      jump\t// out\n        /* \"inquiryandupdate.sol\":791:1152  function addProperty(string memory _location, uint256 _price) public {... */\n    tag_31:\n        /* \"inquiryandupdate.sol\":894:1041  Property({... */\n      mload(0x40)\n      dup1\n      0x80\n      add\n      0x40\n      mstore\n      dup1\n        /* \"inquiryandupdate.sol\":925:935  msg.sender */\n      caller\n        /* \"inquiryandupdate.sol\":894:1041  Property({... */\n      0xffffffffffffffffffffffffffffffffffffffff\n      and\n      dup2\n      mstore\n      0x20\n      add\n        /* \"inquiryandupdate.sol\":963:967  true */\n      0x01\n        /* \"inquiryandupdate.sol\":894:1041  Property({... */\n      iszero\n      iszero\n      dup2\n      mstore\n      0x20\n      add\n        /* \"inquiryandupdate.sol\":992:1001  _location */\n      dup4\n        /* \"inquiryandupdate.sol\":894:1041  Property({... */\n      dup2\n      mstore\n      0x20\n      add\n        /* \"inquiryandupdate.sol\":1023:1029  _price */\n      dup3\n        /* \"inquiryandupdate.sol\":894:1041  Property({... */\n      dup2\n      mstore\n      pop\n        /* \"inquiryandupdate.sol\":871:876  Plots */\n      0x00\n        /* \"inquiryandupdate.sol\":871:891  Plots[totalNOfPlots] */\n      dup1\n        /* \"inquiryandupdate.sol\":877:890  totalNOfPlots */\n      sload(0x01)\n        /* \"inquiryandupdate.sol\":871:891  Plots[totalNOfPlots] */\n      dup2\n      mstore\n      0x20\n      add\n      swap1\n      dup2\n      mstore\n      0x20\n      add\n      0x00\n      keccak256\n        /* \"inquiryandupdate.sol\":871:1041  Plots[totalNOfPlots] = Property({... */\n      0x00\n      dup3\n      add\n      mload\n      dup2\n      0x00\n      add\n      exp(0x0100, 0x00)\n      dup2\n      sload\n      dup2\n      0xffffffffffffffffffffffffffffffffffffffff\n      mul\n      not\n      and\n      swap1\n      dup4\n      0xffffffffffffffffffffffffffffffffffffffff\n      and\n      mul\n      or\n      swap1\n      sstore\n      pop\n      0x20\n      dup3\n      add\n      mload\n      dup2\n      0x00\n      add\n      exp(0x0100, 0x14)\n      dup2\n      sload\n      dup2\n      0xff\n      mul\n      not\n      and\n      swap1\n      dup4\n      iszero\n      iszero\n      mul\n      or\n      swap1\n      sstore\n      pop\n      0x40\n      dup3\n      add\n      mload\n      dup2\n      0x01\n      add\n      swap1\n      dup2\n      tag_65\n      swap2\n      swap1\n      tag_66\n      jump\t// in\n    tag_65:\n      pop\n      0x60\n      dup3\n      add\n      mload\n      dup2\n      0x02\n      add\n      sstore\n      swap1\n      pop\n      pop\n        /* \"inquiryandupdate.sol\":1088:1098  msg.sender */\n      caller\n        /* \"inquiryandupdate.sol\":1059:1118  PropertyAdded(totalNOfPlots, msg.sender, _location, _price) */\n      0xffffffffffffffffffffffffffffffffffffffff\n      and\n        /* \"inquiryandupdate.sol\":1073:1086  totalNOfPlots */\n      sload(0x01)\n        /* \"inquiryandupdate.sol\":1059:1118  PropertyAdded(totalNOfPlots, msg.sender, _location, _price) */\n      0x4ebad2aea85f9ad0f765671254af2876940430a206fcf61f3a7c1fe110523566\n        /* \"inquiryandupdate.sol\":1100:1109  _location */\n      dup5\n        /* \"inquiryandupdate.sol\":1111:1117  _price */\n      dup5\n        /* \"inquiryandupdate.sol\":1059:1118  PropertyAdded(totalNOfPlots, msg.sender, _location, _price) */\n      mload(0x40)\n      tag_67\n      swap3\n      swap2\n      swap1\n      tag_68\n      jump\t// in\n    tag_67:\n      mload(0x40)\n      dup1\n      swap2\n      sub\n      swap1\n      log3\n        /* \"inquiryandupdate.sol\":1129:1142  totalNOfPlots */\n      0x01\n      0x00\n        /* \"inquiryandupdate.sol\":1129:1144  totalNOfPlots++ */\n      dup2\n      sload\n      dup1\n      swap3\n      swap2\n      swap1\n      tag_69\n      swap1\n      tag_70\n      jump\t// in\n    tag_69:\n      swap2\n      swap1\n      pop\n      sstore\n      pop\n        /* \"inquiryandupdate.sol\":791:1152  function addProperty(string memory _location, uint256 _price) public {... */\n      pop\n      pop\n      jump\t// out\n        /* \"#utility.yul\":7:84   */\n    tag_71:\n        /* \"#utility.yul\":44:51   */\n      0x00\n        /* \"#utility.yul\":73:78   */\n      dup2\n        /* \"#utility.yul\":62:78   */\n      swap1\n      pop\n        /* \"#utility.yul\":7:84   */\n      swap2\n      swap1\n      pop\n      jump\t// out\n        /* \"#utility.yul\":90:208   */\n    tag_72:\n        /* \"#utility.yul\":177:201   */\n      tag_128\n        /* \"#utility.yul\":195:200   */\n      dup2\n        /* \"#utility.yul\":177:201   */\n      tag_71\n      jump\t// in\n    tag_128:\n        /* \"#utility.yul\":172:175   */\n      dup3\n        /* \"#utility.yul\":165:202   */\n      mstore\n        /* \"#utility.yul\":90:208   */\n      pop\n      pop\n      jump\t// out\n        /* \"#utility.yul\":214:436   */\n    tag_11:\n        /* \"#utility.yul\":307:311   */\n      0x00\n        /* \"#utility.yul\":345:347   */\n      0x20\n        /* \"#utility.yul\":334:343   */\n      dup3\n        /* \"#utility.yul\":330:348   */\n      add\n        /* \"#utility.yul\":322:348   */\n      swap1\n      pop\n        /* \"#utility.yul\":358:429   */\n      tag_130\n        /* \"#utility.yul\":426:427   */\n      0x00\n        /* \"#utility.yul\":415:424   */\n      dup4\n        /* \"#utility.yul\":411:428   */\n      add\n        /* \"#utility.yul\":402:408   */\n      dup5\n        /* \"#utility.yul\":358:429   */\n      tag_72\n      jump\t// in\n    tag_130:\n        /* \"#utility.yul\":214:436   */\n      swap3\n      swap2\n      pop\n      pop\n      jump\t// out\n        /* \"#utility.yul\":442:517   */\n    tag_73:\n        /* \"#utility.yul\":475:481   */\n      0x00\n        /* \"#utility.yul\":508:510   */\n      0x40\n        /* \"#utility.yul\":502:511   */\n      mload\n        /* \"#utility.yul\":492:511   */\n      swap1\n      pop\n        /* \"#utility.yul\":442:517   */\n      swap1\n      jump\t// out\n        /* \"#utility.yul\":523:640   */\n    tag_74:\n        /* \"#utility.yul\":632:633   */\n      0x00\n        /* \"#utility.yul\":629:630   */\n      dup1\n        /* \"#utility.yul\":622:634   */\n      revert\n        /* \"#utility.yul\":646:763   */\n    tag_75:\n        /* \"#utility.yul\":755:756   */\n      0x00\n        /* \"#utility.yul\":752:753   */\n      dup1\n        /* \"#utility.yul\":745:757   */\n      revert\n        /* \"#utility.yul\":769:891   */\n    tag_76:\n        /* \"#utility.yul\":842:866   */\n      tag_135\n        /* \"#utility.yul\":860:865   */\n      dup2\n        /* \"#utility.yul\":842:866   */\n      tag_71\n      jump\t// in\n    tag_135:\n        /* \"#utility.yul\":835:840   */\n      dup2\n        /* \"#utility.yul\":832:867   */\n      eq\n        /* \"#utility.yul\":822:885   */\n      tag_136\n      jumpi\n        /* \"#utility.yul\":881:882   */\n      0x00\n        /* \"#utility.yul\":878:879   */\n      dup1\n        /* \"#utility.yul\":871:883   */\n      revert\n        /* \"#utility.yul\":822:885   */\n    tag_136:\n        /* \"#utility.yul\":769:891   */\n      pop\n      jump\t// out\n        /* \"#utility.yul\":897:1036   */\n    tag_77:\n        /* \"#utility.yul\":943:948   */\n      0x00\n        /* \"#utility.yul\":981:987   */\n      dup2\n        /* \"#utility.yul\":968:988   */\n      calldataload\n        /* \"#utility.yul\":959:988   */\n      swap1\n      pop\n        /* \"#utility.yul\":997:1030   */\n      tag_138\n        /* \"#utility.yul\":1024:1029   */\n      dup2\n        /* \"#utility.yul\":997:1030   */\n      tag_76\n      jump\t// in\n    tag_138:\n        /* \"#utility.yul\":897:1036   */\n      swap3\n      swap2\n      pop\n      pop\n      jump\t// out\n        /* \"#utility.yul\":1042:1371   */\n    tag_15:\n        /* \"#utility.yul\":1101:1107   */\n      0x00\n        /* \"#utility.yul\":1150:1152   */\n      0x20\n        /* \"#utility.yul\":1138:1147   */\n      dup3\n        /* \"#utility.yul\":1129:1136   */\n      dup5\n        /* \"#utility.yul\":1125:1148   */\n      sub\n        /* \"#utility.yul\":1121:1153   */\n      slt\n        /* \"#utility.yul\":1118:1237   */\n      iszero\n      tag_140\n      jumpi\n        /* \"#utility.yul\":1156:1235   */\n      tag_141\n      tag_74\n      jump\t// in\n    tag_141:\n        /* \"#utility.yul\":1118:1237   */\n    tag_140:\n        /* \"#utility.yul\":1276:1277   */\n      0x00\n        /* \"#utility.yul\":1301:1354   */\n      tag_142\n        /* \"#utility.yul\":1346:1353   */\n      dup5\n        /* \"#utility.yul\":1337:1343   */\n      dup3\n        /* \"#utility.yul\":1326:1335   */\n      dup6\n        /* \"#utility.yul\":1322:1344   */\n      add\n        /* \"#utility.yul\":1301:1354   */\n      tag_77\n      jump\t// in\n    tag_142:\n        /* \"#utility.yul\":1291:1354   */\n      swap2\n      pop\n        /* \"#utility.yul\":1247:1364   */\n      pop\n        /* \"#utility.yul\":1042:1371   */\n      swap3\n      swap2\n      pop\n      pop\n      jump\t// out\n        /* \"#utility.yul\":1377:1503   */\n    tag_78:\n        /* \"#utility.yul\":1414:1421   */\n      0x00\n        /* \"#utility.yul\":1454:1496   */\n      0xffffffffffffffffffffffffffffffffffffffff\n        /* \"#utility.yul\":1447:1452   */\n      dup3\n        /* \"#utility.yul\":1443:1497   */\n      and\n        /* \"#utility.yul\":1432:1497   */\n      swap1\n      pop\n        /* \"#utility.yul\":1377:1503   */\n      swap2\n      swap1\n      pop\n      jump\t// out\n        /* \"#utility.yul\":1509:1605   */\n    tag_79:\n        /* \"#utility.yul\":1546:1553   */\n      0x00\n        /* \"#utility.yul\":1575:1599   */\n      tag_145\n        /* \"#utility.yul\":1593:1598   */\n      dup3\n        /* \"#utility.yul\":1575:1599   */\n      tag_78\n      jump\t// in\n    tag_145:\n        /* \"#utility.yul\":1564:1599   */\n      swap1\n      pop\n        /* \"#utility.yul\":1509:1605   */\n      swap2\n      swap1\n      pop\n      jump\t// out\n        /* \"#utility.yul\":1611:1729   */\n    tag_80:\n        /* \"#utility.yul\":1698:1722   */\n      tag_147\n        /* \"#utility.yul\":1716:1721   */\n      dup2\n        /* \"#utility.yul\":1698:1722   */\n      tag_79\n      jump\t// in\n    tag_147:\n        /* \"#utility.yul\":1693:1696   */\n      dup3\n        /* \"#utility.yul\":1686:1723   */\n      mstore\n        /* \"#utility.yul\":1611:1729   */\n      pop\n      pop\n      jump\t// out\n        /* \"#utility.yul\":1735:1825   */\n    tag_81:\n        /* \"#utility.yul\":1769:1776   */\n      0x00\n        /* \"#utility.yul\":1812:1817   */\n      dup2\n        /* \"#utility.yul\":1805:1818   */\n      iszero\n        /* \"#utility.yul\":1798:1819   */\n      iszero\n        /* \"#utility.yul\":1787:1819   */\n      swap1\n      pop\n        /* \"#utility.yul\":1735:1825   */\n      swap2\n      swap1\n      pop\n      jump\t// out\n        /* \"#utility.yul\":1831:1940   */\n    tag_82:\n        /* \"#utility.yul\":1912:1933   */\n      tag_150\n        /* \"#utility.yul\":1927:1932   */\n      dup2\n        /* \"#utility.yul\":1912:1933   */\n      tag_81\n      jump\t// in\n    tag_150:\n        /* \"#utility.yul\":1907:1910   */\n      dup3\n        /* \"#utility.yul\":1900:1934   */\n      mstore\n        /* \"#utility.yul\":1831:1940   */\n      pop\n      pop\n      jump\t// out\n        /* \"#utility.yul\":1946:2045   */\n    tag_83:\n        /* \"#utility.yul\":1998:2004   */\n      0x00\n        /* \"#utility.yul\":2032:2037   */\n      dup2\n        /* \"#utility.yul\":2026:2038   */\n      mload\n        /* \"#utility.yul\":2016:2038   */\n      swap1\n      pop\n        /* \"#utility.yul\":1946:2045   */\n      swap2\n      swap1\n      pop\n      jump\t// out\n        /* \"#utility.yul\":2051:2220   */\n    tag_84:\n        /* \"#utility.yul\":2135:2146   */\n      0x00\n        /* \"#utility.yul\":2169:2175   */\n      dup3\n        /* \"#utility.yul\":2164:2167   */\n      dup3\n        /* \"#utility.yul\":2157:2176   */\n      mstore\n        /* \"#utility.yul\":2209:2213   */\n      0x20\n        /* \"#utility.yul\":2204:2207   */\n      dup3\n        /* \"#utility.yul\":2200:2214   */\n      add\n        /* \"#utility.yul\":2185:2214   */\n      swap1\n      pop\n        /* \"#utility.yul\":2051:2220   */\n      swap3\n      swap2\n      pop\n      pop\n      jump\t// out\n        /* \"#utility.yul\":2226:2472   */\n    tag_85:\n        /* \"#utility.yul\":2307:2308   */\n      0x00\n        /* \"#utility.yul\":2317:2430   */\n    tag_154:\n        /* \"#utility.yul\":2331:2337   */\n      dup4\n        /* \"#utility.yul\":2328:2329   */\n      dup2\n        /* \"#utility.yul\":2325:2338   */\n      lt\n        /* \"#utility.yul\":2317:2430   */\n      iszero\n      tag_156\n      jumpi\n        /* \"#utility.yul\":2416:2417   */\n      dup1\n        /* \"#utility.yul\":2411:2414   */\n      dup3\n        /* \"#utility.yul\":2407:2418   */\n      add\n        /* \"#utility.yul\":2401:2419   */\n      mload\n        /* \"#utility.yul\":2397:2398   */\n      dup2\n        /* \"#utility.yul\":2392:2395   */\n      dup5\n        /* \"#utility.yul\":2388:2399   */\n      add\n        /* \"#utility.yul\":2381:2420   */\n      mstore\n        /* \"#utility.yul\":2353:2355   */\n      0x20\n        /* \"#utility.yul\":2350:2351   */\n      dup2\n        /* \"#utility.yul\":2346:2356   */\n      add\n        /* \"#utility.yul\":2341:2356   */\n      swap1\n      pop\n        /* \"#utility.yul\":2317:2430   */\n      jump(tag_154)\n    tag_156:\n        /* \"#utility.yul\":2464:2465   */\n      0x00\n        /* \"#utility.yul\":2455:2461   */\n      dup5\n        /* \"#utility.yul\":2450:2453   */\n      dup5\n        /* \"#utility.yul\":2446:2462   */\n      add\n        /* \"#utility.yul\":2439:2466   */\n      mstore\n        /* \"#utility.yul\":2288:2472   */\n      pop\n        /* \"#utility.yul\":2226:2472   */\n      pop\n      pop\n      pop\n      jump\t// out\n        /* \"#utility.yul\":2478:2580   */\n    tag_86:\n        /* \"#utility.yul\":2519:2525   */\n      0x00\n        /* \"#utility.yul\":2570:2572   */\n      0x1f\n        /* \"#utility.yul\":2566:2573   */\n      not\n        /* \"#utility.yul\":2561:2563   */\n      0x1f\n        /* \"#utility.yul\":2554:2559   */\n      dup4\n        /* \"#utility.yul\":2550:2564   */\n      add\n        /* \"#utility.yul\":2546:2574   */\n      and\n        /* \"#utility.yul\":2536:2574   */\n      swap1\n      pop\n        /* \"#utility.yul\":2478:2580   */\n      swap2\n      swap1\n      pop\n      jump\t// out\n        /* \"#utility.yul\":2586:2963   */\n    tag_87:\n        /* \"#utility.yul\":2674:2677   */\n      0x00\n        /* \"#utility.yul\":2702:2741   */\n      tag_159\n        /* \"#utility.yul\":2735:2740   */\n      dup3\n        /* \"#utility.yul\":2702:2741   */\n      tag_83\n      jump\t// in\n    tag_159:\n        /* \"#utility.yul\":2757:2828   */\n      tag_160\n        /* \"#utility.yul\":2821:2827   */\n      dup2\n        /* \"#utility.yul\":2816:2819   */\n      dup6\n        /* \"#utility.yul\":2757:2828   */\n      tag_84\n      jump\t// in\n    tag_160:\n        /* \"#utility.yul\":2750:2828   */\n      swap4\n      pop\n        /* \"#utility.yul\":2837:2902   */\n      tag_161\n        /* \"#utility.yul\":2895:2901   */\n      dup2\n        /* \"#utility.yul\":2890:2893   */\n      dup6\n        /* \"#utility.yul\":2883:2887   */\n      0x20\n        /* \"#utility.yul\":2876:2881   */\n      dup7\n        /* \"#utility.yul\":2872:2888   */\n      add\n        /* \"#utility.yul\":2837:2902   */\n      tag_85\n      jump\t// in\n    tag_161:\n        /* \"#utility.yul\":2927:2956   */\n      tag_162\n        /* \"#utility.yul\":2949:2955   */\n      dup2\n        /* \"#utility.yul\":2927:2956   */\n      tag_86\n      jump\t// in\n    tag_162:\n        /* \"#utility.yul\":2922:2925   */\n      dup5\n        /* \"#utility.yul\":2918:2957   */\n      add\n        /* \"#utility.yul\":2911:2957   */\n      swap2\n      pop\n        /* \"#utility.yul\":2678:2963   */\n      pop\n        /* \"#utility.yul\":2586:2963   */\n      swap3\n      swap2\n      pop\n      pop\n      jump\t// out\n        /* \"#utility.yul\":2969:3601   */\n    tag_18:\n        /* \"#utility.yul\":3160:3164   */\n      0x00\n        /* \"#utility.yul\":3198:3201   */\n      0x80\n        /* \"#utility.yul\":3187:3196   */\n      dup3\n        /* \"#utility.yul\":3183:3202   */\n      add\n        /* \"#utility.yul\":3175:3202   */\n      swap1\n      pop\n        /* \"#utility.yul\":3212:3283   */\n      tag_164\n        /* \"#utility.yul\":3280:3281   */\n      0x00\n        /* \"#utility.yul\":3269:3278   */\n      dup4\n        /* \"#utility.yul\":3265:3282   */\n      add\n        /* \"#utility.yul\":3256:3262   */\n      dup8\n        /* \"#utility.yul\":3212:3283   */\n      tag_80\n      jump\t// in\n    tag_164:\n        /* \"#utility.yul\":3293:3359   */\n      tag_165\n        /* \"#utility.yul\":3355:3357   */\n      0x20\n        /* \"#utility.yul\":3344:3353   */\n      dup4\n        /* \"#utility.yul\":3340:3358   */\n      add\n        /* \"#utility.yul\":3331:3337   */\n      dup7\n        /* \"#utility.yul\":3293:3359   */\n      tag_82\n      jump\t// in\n    tag_165:\n        /* \"#utility.yul\":3406:3415   */\n      dup2\n        /* \"#utility.yul\":3400:3404   */\n      dup2\n        /* \"#utility.yul\":3396:3416   */\n      sub\n        /* \"#utility.yul\":3391:3393   */\n      0x40\n        /* \"#utility.yul\":3380:3389   */\n      dup4\n        /* \"#utility.yul\":3376:3394   */\n      add\n        /* \"#utility.yul\":3369:3417   */\n      mstore\n        /* \"#utility.yul\":3434:3512   */\n      tag_166\n        /* \"#utility.yul\":3507:3511   */\n      dup2\n        /* \"#utility.yul\":3498:3504   */\n      dup6\n        /* \"#utility.yul\":3434:3512   */\n      tag_87\n      jump\t// in\n    tag_166:\n        /* \"#utility.yul\":3426:3512   */\n      swap1\n      pop\n        /* \"#utility.yul\":3522:3594   */\n      tag_167\n        /* \"#utility.yul\":3590:3592   */\n      0x60\n        /* \"#utility.yul\":3579:3588   */\n      dup4\n        /* \"#utility.yul\":3575:3593   */\n      add\n        /* \"#utility.yul\":3566:3572   */\n      dup5\n        /* \"#utility.yul\":3522:3594   */\n      tag_72\n      jump\t// in\n    tag_167:\n        /* \"#utility.yul\":2969:3601   */\n      swap6\n      swap5\n      pop\n      pop\n      pop\n      pop\n      pop\n      jump\t// out\n        /* \"#utility.yul\":3607:3724   */\n    tag_88:\n        /* \"#utility.yul\":3716:3717   */\n      0x00\n        /* \"#utility.yul\":3713:3714   */\n      dup1\n        /* \"#utility.yul\":3706:3718   */\n      revert\n        /* \"#utility.yul\":3730:3847   */\n    tag_89:\n        /* \"#utility.yul\":3839:3840   */\n      0x00\n        /* \"#utility.yul\":3836:3837   */\n      dup1\n        /* \"#utility.yul\":3829:3841   */\n      revert\n        /* \"#utility.yul\":3853:4033   */\n    tag_90:\n        /* \"#utility.yul\":3901:3978   */\n      0x4e487b7100000000000000000000000000000000000000000000000000000000\n        /* \"#utility.yul\":3898:3899   */\n      0x00\n        /* \"#utility.yul\":3891:3979   */\n      mstore\n        /* \"#utility.yul\":3998:4002   */\n      0x41\n        /* \"#utility.yul\":3995:3996   */\n      0x04\n        /* \"#utility.yul\":3988:4003   */\n      mstore\n        /* \"#utility.yul\":4022:4026   */\n      0x24\n        /* \"#utility.yul\":4019:4020   */\n      0x00\n        /* \"#utility.yul\":4012:4027   */\n      revert\n        /* \"#utility.yul\":4039:4320   */\n    tag_91:\n        /* \"#utility.yul\":4122:4149   */\n      tag_172\n        /* \"#utility.yul\":4144:4148   */\n      dup3\n        /* \"#utility.yul\":4122:4149   */\n      tag_86\n      jump\t// in\n    tag_172:\n        /* \"#utility.yul\":4114:4120   */\n      dup2\n        /* \"#utility.yul\":4110:4150   */\n      add\n        /* \"#utility.yul\":4252:4258   */\n      dup2\n        /* \"#utility.yul\":4240:4250   */\n      dup2\n        /* \"#utility.yul\":4237:4259   */\n      lt\n        /* \"#utility.yul\":4216:4234   */\n      0xffffffffffffffff\n        /* \"#utility.yul\":4204:4214   */\n      dup3\n        /* \"#utility.yul\":4201:4235   */\n      gt\n        /* \"#utility.yul\":4198:4260   */\n      or\n        /* \"#utility.yul\":4195:4283   */\n      iszero\n      tag_173\n      jumpi\n        /* \"#utility.yul\":4263:4281   */\n      tag_174\n      tag_90\n      jump\t// in\n    tag_174:\n        /* \"#utility.yul\":4195:4283   */\n    tag_173:\n        /* \"#utility.yul\":4303:4313   */\n      dup1\n        /* \"#utility.yul\":4299:4301   */\n      0x40\n        /* \"#utility.yul\":4292:4314   */\n      mstore\n        /* \"#utility.yul\":4082:4320   */\n      pop\n        /* \"#utility.yul\":4039:4320   */\n      pop\n      pop\n      jump\t// out\n        /* \"#utility.yul\":4326:4455   */\n    tag_92:\n        /* \"#utility.yul\":4360:4366   */\n      0x00\n        /* \"#utility.yul\":4387:4407   */\n      tag_176\n      tag_73\n      jump\t// in\n    tag_176:\n        /* \"#utility.yul\":4377:4407   */\n      swap1\n      pop\n        /* \"#utility.yul\":4416:4449   */\n      tag_177\n        /* \"#utility.yul\":4444:4448   */\n      dup3\n        /* \"#utility.yul\":4436:4442   */\n      dup3\n        /* \"#utility.yul\":4416:4449   */\n      tag_91\n      jump\t// in\n    tag_177:\n        /* \"#utility.yul\":4326:4455   */\n      swap2\n      swap1\n      pop\n      jump\t// out\n        /* \"#utility.yul\":4461:4769   */\n    tag_93:\n        /* \"#utility.yul\":4523:4527   */\n      0x00\n        /* \"#utility.yul\":4613:4631   */\n      0xffffffffffffffff\n        /* \"#utility.yul\":4605:4611   */\n      dup3\n        /* \"#utility.yul\":4602:4632   */\n      gt\n        /* \"#utility.yul\":4599:4655   */\n      iszero\n      tag_179\n      jumpi\n        /* \"#utility.yul\":4635:4653   */\n      tag_180\n      tag_90\n      jump\t// in\n    tag_180:\n        /* \"#utility.yul\":4599:4655   */\n    tag_179:\n        /* \"#utility.yul\":4673:4702   */\n      tag_181\n        /* \"#utility.yul\":4695:4701   */\n      dup3\n        /* \"#utility.yul\":4673:4702   */\n      tag_86\n      jump\t// in\n    tag_181:\n        /* \"#utility.yul\":4665:4702   */\n      swap1\n      pop\n        /* \"#utility.yul\":4757:4761   */\n      0x20\n        /* \"#utility.yul\":4751:4755   */\n      dup2\n        /* \"#utility.yul\":4747:4762   */\n      add\n        /* \"#utility.yul\":4739:4762   */\n      swap1\n      pop\n        /* \"#utility.yul\":4461:4769   */\n      swap2\n      swap1\n      pop\n      jump\t// out\n        /* \"#utility.yul\":4775:4921   */\n    tag_94:\n        /* \"#utility.yul\":4872:4878   */\n      dup3\n        /* \"#utility.yul\":4867:4870   */\n      dup2\n        /* \"#utility.yul\":4862:4865   */\n      dup4\n        /* \"#utility.yul\":4849:4879   */\n      calldatacopy\n        /* \"#utility.yul\":4913:4914   */\n      0x00\n        /* \"#utility.yul\":4904:4910   */\n      dup4\n        /* \"#utility.yul\":4899:4902   */\n      dup4\n        /* \"#utility.yul\":4895:4911   */\n      add\n        /* \"#utility.yul\":4888:4915   */\n      mstore\n        /* \"#utility.yul\":4775:4921   */\n      pop\n      pop\n      pop\n      jump\t// out\n        /* \"#utility.yul\":4927:5352   */\n    tag_95:\n        /* \"#utility.yul\":5005:5010   */\n      0x00\n        /* \"#utility.yul\":5030:5096   */\n      tag_184\n        /* \"#utility.yul\":5046:5095   */\n      tag_185\n        /* \"#utility.yul\":5088:5094   */\n      dup5\n        /* \"#utility.yul\":5046:5095   */\n      tag_93\n      jump\t// in\n    tag_185:\n        /* \"#utility.yul\":5030:5096   */\n      tag_92\n      jump\t// in\n    tag_184:\n        /* \"#utility.yul\":5021:5096   */\n      swap1\n      pop\n        /* \"#utility.yul\":5119:5125   */\n      dup3\n        /* \"#utility.yul\":5112:5117   */\n      dup2\n        /* \"#utility.yul\":5105:5126   */\n      mstore\n        /* \"#utility.yul\":5157:5161   */\n      0x20\n        /* \"#utility.yul\":5150:5155   */\n      dup2\n        /* \"#utility.yul\":5146:5162   */\n      add\n        /* \"#utility.yul\":5195:5198   */\n      dup5\n        /* \"#utility.yul\":5186:5192   */\n      dup5\n        /* \"#utility.yul\":5181:5184   */\n      dup5\n        /* \"#utility.yul\":5177:5193   */\n      add\n        /* \"#utility.yul\":5174:5199   */\n      gt\n        /* \"#utility.yul\":5171:5283   */\n      iszero\n      tag_186\n      jumpi\n        /* \"#utility.yul\":5202:5281   */\n      tag_187\n      tag_89\n      jump\t// in\n    tag_187:\n        /* \"#utility.yul\":5171:5283   */\n    tag_186:\n        /* \"#utility.yul\":5292:5346   */\n      tag_188\n        /* \"#utility.yul\":5339:5345   */\n      dup5\n        /* \"#utility.yul\":5334:5337   */\n      dup3\n        /* \"#utility.yul\":5329:5332   */\n      dup6\n        /* \"#utility.yul\":5292:5346   */\n      tag_94\n      jump\t// in\n    tag_188:\n        /* \"#utility.yul\":5011:5352   */\n      pop\n        /* \"#utility.yul\":4927:5352   */\n      swap4\n      swap3\n      pop\n      pop\n      pop\n      jump\t// out\n        /* \"#utility.yul\":5372:5712   */\n    tag_96:\n        /* \"#utility.yul\":5428:5433   */\n      0x00\n        /* \"#utility.yul\":5477:5480   */\n      dup3\n        /* \"#utility.yul\":5470:5474   */\n      0x1f\n        /* \"#utility.yul\":5462:5468   */\n      dup4\n        /* \"#utility.yul\":5458:5475   */\n      add\n        /* \"#utility.yul\":5454:5481   */\n      slt\n        /* \"#utility.yul\":5444:5566   */\n      tag_190\n      jumpi\n        /* \"#utility.yul\":5485:5564   */\n      tag_191\n      tag_88\n      jump\t// in\n    tag_191:\n        /* \"#utility.yul\":5444:5566   */\n    tag_190:\n        /* \"#utility.yul\":5602:5608   */\n      dup2\n        /* \"#utility.yul\":5589:5609   */\n      calldataload\n        /* \"#utility.yul\":5627:5706   */\n      tag_192\n        /* \"#utility.yul\":5702:5705   */\n      dup5\n        /* \"#utility.yul\":5694:5700   */\n      dup3\n        /* \"#utility.yul\":5687:5691   */\n      0x20\n        /* \"#utility.yul\":5679:5685   */\n      dup7\n        /* \"#utility.yul\":5675:5692   */\n      add\n        /* \"#utility.yul\":5627:5706   */\n      tag_95\n      jump\t// in\n    tag_192:\n        /* \"#utility.yul\":5618:5706   */\n      swap2\n      pop\n        /* \"#utility.yul\":5434:5712   */\n      pop\n        /* \"#utility.yul\":5372:5712   */\n      swap3\n      swap2\n      pop\n      pop\n      jump\t// out\n        /* \"#utility.yul\":5718:6372   */\n    tag_30:\n        /* \"#utility.yul\":5796:5802   */\n      0x00\n        /* \"#utility.yul\":5804:5810   */\n      dup1\n        /* \"#utility.yul\":5853:5855   */\n      0x40\n        /* \"#utility.yul\":5841:5850   */\n      dup4\n        /* \"#utility.yul\":5832:5839   */\n      dup6\n        /* \"#utility.yul\":5828:5851   */\n      sub\n        /* \"#utility.yul\":5824:5856   */\n      slt\n        /* \"#utility.yul\":5821:5940   */\n      iszero\n      tag_194\n      jumpi\n        /* \"#utility.yul\":5859:5938   */\n      tag_195\n      tag_74\n      jump\t// in\n    tag_195:\n        /* \"#utility.yul\":5821:5940   */\n    tag_194:\n        /* \"#utility.yul\":6007:6008   */\n      0x00\n        /* \"#utility.yul\":5996:6005   */\n      dup4\n        /* \"#utility.yul\":5992:6009   */\n      add\n        /* \"#utility.yul\":5979:6010   */\n      calldataload\n        /* \"#utility.yul\":6037:6055   */\n      0xffffffffffffffff\n        /* \"#utility.yul\":6029:6035   */\n      dup2\n        /* \"#utility.yul\":6026:6056   */\n      gt\n        /* \"#utility.yul\":6023:6140   */\n      iszero\n      tag_196\n      jumpi\n        /* \"#utility.yul\":6059:6138   */\n      tag_197\n      tag_75\n      jump\t// in\n    tag_197:\n        /* \"#utility.yul\":6023:6140   */\n    tag_196:\n        /* \"#utility.yul\":6164:6227   */\n      tag_198\n        /* \"#utility.yul\":6219:6226   */\n      dup6\n        /* \"#utility.yul\":6210:6216   */\n      dup3\n        /* \"#utility.yul\":6199:6208   */\n      dup7\n        /* \"#utility.yul\":6195:6217   */\n      add\n        /* \"#utility.yul\":6164:6227   */\n      tag_96\n      jump\t// in\n    tag_198:\n        /* \"#utility.yul\":6154:6227   */\n      swap3\n      pop\n        /* \"#utility.yul\":5950:6237   */\n      pop\n        /* \"#utility.yul\":6276:6278   */\n      0x20\n        /* \"#utility.yul\":6302:6355   */\n      tag_199\n        /* \"#utility.yul\":6347:6354   */\n      dup6\n        /* \"#utility.yul\":6338:6344   */\n      dup3\n        /* \"#utility.yul\":6327:6336   */\n      dup7\n        /* \"#utility.yul\":6323:6345   */\n      add\n        /* \"#utility.yul\":6302:6355   */\n      tag_77\n      jump\t// in\n    tag_199:\n        /* \"#utility.yul\":6292:6355   */\n      swap2\n      pop\n        /* \"#utility.yul\":6247:6365   */\n      pop\n        /* \"#utility.yul\":5718:6372   */\n      swap3\n      pop\n      swap3\n      swap1\n      pop\n      jump\t// out\n        /* \"#utility.yul\":6378:6558   */\n    tag_97:\n        /* \"#utility.yul\":6426:6503   */\n      0x4e487b7100000000000000000000000000000000000000000000000000000000\n        /* \"#utility.yul\":6423:6424   */\n      0x00\n        /* \"#utility.yul\":6416:6504   */\n      mstore\n        /* \"#utility.yul\":6523:6527   */\n      0x22\n        /* \"#utility.yul\":6520:6521   */\n      0x04\n        /* \"#utility.yul\":6513:6528   */\n      mstore\n        /* \"#utility.yul\":6547:6551   */\n      0x24\n        /* \"#utility.yul\":6544:6545   */\n      0x00\n        /* \"#utility.yul\":6537:6552   */\n      revert\n        /* \"#utility.yul\":6564:6884   */\n    tag_33:\n        /* \"#utility.yul\":6608:6614   */\n      0x00\n        /* \"#utility.yul\":6645:6646   */\n      0x02\n        /* \"#utility.yul\":6639:6643   */\n      dup3\n        /* \"#utility.yul\":6635:6647   */\n      div\n        /* \"#utility.yul\":6625:6647   */\n      swap1\n      pop\n        /* \"#utility.yul\":6692:6693   */\n      0x01\n        /* \"#utility.yul\":6686:6690   */\n      dup3\n        /* \"#utility.yul\":6682:6694   */\n      and\n        /* \"#utility.yul\":6713:6731   */\n      dup1\n        /* \"#utility.yul\":6703:6784   */\n      tag_202\n      jumpi\n        /* \"#utility.yul\":6769:6773   */\n      0x7f\n        /* \"#utility.yul\":6761:6767   */\n      dup3\n        /* \"#utility.yul\":6757:6774   */\n      and\n        /* \"#utility.yul\":6747:6774   */\n      swap2\n      pop\n        /* \"#utility.yul\":6703:6784   */\n    tag_202:\n        /* \"#utility.yul\":6831:6833   */\n      0x20\n        /* \"#utility.yul\":6823:6829   */\n      dup3\n        /* \"#utility.yul\":6820:6834   */\n      lt\n        /* \"#utility.yul\":6800:6818   */\n      dup2\n        /* \"#utility.yul\":6797:6835   */\n      sub\n        /* \"#utility.yul\":6794:6878   */\n      tag_203\n      jumpi\n        /* \"#utility.yul\":6850:6868   */\n      tag_204\n      tag_97\n      jump\t// in\n    tag_204:\n        /* \"#utility.yul\":6794:6878   */\n    tag_203:\n        /* \"#utility.yul\":6615:6884   */\n      pop\n        /* \"#utility.yul\":6564:6884   */\n      swap2\n      swap1\n      pop\n      jump\t// out\n        /* \"#utility.yul\":6890:7059   */\n    tag_98:\n        /* \"#utility.yul\":7030:7051   */\n      0x496e76616c69642070726f706572747920494400000000000000000000000000\n        /* \"#utility.yul\":7026:7027   */\n      0x00\n        /* \"#utility.yul\":7018:7024   */\n      dup3\n        /* \"#utility.yul\":7014:7028   */\n      add\n        /* \"#utility.yul\":7007:7052   */\n      mstore\n        /* \"#utility.yul\":6890:7059   */\n      pop\n      jump\t// out\n        /* \"#utility.yul\":7065:7431   */\n    tag_99:\n        /* \"#utility.yul\":7207:7210   */\n      0x00\n        /* \"#utility.yul\":7228:7295   */\n      tag_207\n        /* \"#utility.yul\":7292:7294   */\n      0x13\n        /* \"#utility.yul\":7287:7290   */\n      dup4\n        /* \"#utility.yul\":7228:7295   */\n      tag_84\n      jump\t// in\n    tag_207:\n        /* \"#utility.yul\":7221:7295   */\n      swap2\n      pop\n        /* \"#utility.yul\":7304:7397   */\n      tag_208\n        /* \"#utility.yul\":7393:7396   */\n      dup3\n        /* \"#utility.yul\":7304:7397   */\n      tag_98\n      jump\t// in\n    tag_208:\n        /* \"#utility.yul\":7422:7424   */\n      0x20\n        /* \"#utility.yul\":7417:7420   */\n      dup3\n        /* \"#utility.yul\":7413:7425   */\n      add\n        /* \"#utility.yul\":7406:7425   */\n      swap1\n      pop\n        /* \"#utility.yul\":7065:7431   */\n      swap2\n      swap1\n      pop\n      jump\t// out\n        /* \"#utility.yul\":7437:7856   */\n    tag_41:\n        /* \"#utility.yul\":7603:7607   */\n      0x00\n        /* \"#utility.yul\":7641:7643   */\n      0x20\n        /* \"#utility.yul\":7630:7639   */\n      dup3\n        /* \"#utility.yul\":7626:7644   */\n      add\n        /* \"#utility.yul\":7618:7644   */\n      swap1\n      pop\n        /* \"#utility.yul\":7690:7699   */\n      dup2\n        /* \"#utility.yul\":7684:7688   */\n      dup2\n        /* \"#utility.yul\":7680:7700   */\n      sub\n        /* \"#utility.yul\":7676:7677   */\n      0x00\n        /* \"#utility.yul\":7665:7674   */\n      dup4\n        /* \"#utility.yul\":7661:7678   */\n      add\n        /* \"#utility.yul\":7654:7701   */\n      mstore\n        /* \"#utility.yul\":7718:7849   */\n      tag_210\n        /* \"#utility.yul\":7844:7848   */\n      dup2\n        /* \"#utility.yul\":7718:7849   */\n      tag_99\n      jump\t// in\n    tag_210:\n        /* \"#utility.yul\":7710:7849   */\n      swap1\n      pop\n        /* \"#utility.yul\":7437:7856   */\n      swap2\n      swap1\n      pop\n      jump\t// out\n        /* \"#utility.yul\":7862:8037   */\n    tag_100:\n        /* \"#utility.yul\":8002:8029   */\n      0x50726f7065727479206973206e6f7420617661696c61626c6500000000000000\n        /* \"#utility.yul\":7998:7999   */\n      0x00\n        /* \"#utility.yul\":7990:7996   */\n      dup3\n        /* \"#utility.yul\":7986:8000   */\n      add\n        /* \"#utility.yul\":7979:8030   */\n      mstore\n        /* \"#utility.yul\":7862:8037   */\n      pop\n      jump\t// out\n        /* \"#utility.yul\":8043:8409   */\n    tag_101:\n        /* \"#utility.yul\":8185:8188   */\n      0x00\n        /* \"#utility.yul\":8206:8273   */\n      tag_213\n        /* \"#utility.yul\":8270:8272   */\n      0x19\n        /* \"#utility.yul\":8265:8268   */\n      dup4\n        /* \"#utility.yul\":8206:8273   */\n      tag_84\n      jump\t// in\n    tag_213:\n        /* \"#utility.yul\":8199:8273   */\n      swap2\n      pop\n        /* \"#utility.yul\":8282:8375   */\n      tag_214\n        /* \"#utility.yul\":8371:8374   */\n      dup3\n        /* \"#utility.yul\":8282:8375   */\n      tag_100\n      jump\t// in\n    tag_214:\n        /* \"#utility.yul\":8400:8402   */\n      0x20\n        /* \"#utility.yul\":8395:8398   */\n      dup3\n        /* \"#utility.yul\":8391:8403   */\n      add\n        /* \"#utility.yul\":8384:8403   */\n      swap1\n      pop\n        /* \"#utility.yul\":8043:8409   */\n      swap2\n      swap1\n      pop\n      jump\t// out\n        /* \"#utility.yul\":8415:8834   */\n    tag_52:\n        /* \"#utility.yul\":8581:8585   */\n      0x00\n        /* \"#utility.yul\":8619:8621   */\n      0x20\n        /* \"#utility.yul\":8608:8617   */\n      dup3\n        /* \"#utility.yul\":8604:8622   */\n      add\n        /* \"#utility.yul\":8596:8622   */\n      swap1\n      pop\n        /* \"#utility.yul\":8668:8677   */\n      dup2\n        /* \"#utility.yul\":8662:8666   */\n      dup2\n        /* \"#utility.yul\":8658:8678   */\n      sub\n        /* \"#utility.yul\":8654:8655   */\n      0x00\n        /* \"#utility.yul\":8643:8652   */\n      dup4\n        /* \"#utility.yul\":8639:8656   */\n      add\n        /* \"#utility.yul\":8632:8679   */\n      mstore\n        /* \"#utility.yul\":8696:8827   */\n      tag_216\n        /* \"#utility.yul\":8822:8826   */\n      dup2\n        /* \"#utility.yul\":8696:8827   */\n      tag_101\n      jump\t// in\n    tag_216:\n        /* \"#utility.yul\":8688:8827   */\n      swap1\n      pop\n        /* \"#utility.yul\":8415:8834   */\n      swap2\n      swap1\n      pop\n      jump\t// out\n        /* \"#utility.yul\":8840:9008   */\n    tag_102:\n        /* \"#utility.yul\":8980:9000   */\n      0x496e73756666696369656e742066756e64730000000000000000000000000000\n        /* \"#utility.yul\":8976:8977   */\n      0x00\n        /* \"#utility.yul\":8968:8974   */\n      dup3\n        /* \"#utility.yul\":8964:8978   */\n      add\n        /* \"#utility.yul\":8957:9001   */\n      mstore\n        /* \"#utility.yul\":8840:9008   */\n      pop\n      jump\t// out\n        /* \"#utility.yul\":9014:9380   */\n    tag_103:\n        /* \"#utility.yul\":9156:9159   */\n      0x00\n        /* \"#utility.yul\":9177:9244   */\n      tag_219\n        /* \"#utility.yul\":9241:9243   */\n      0x12\n        /* \"#utility.yul\":9236:9239   */\n      dup4\n        /* \"#utility.yul\":9177:9244   */\n      tag_84\n      jump\t// in\n    tag_219:\n        /* \"#utility.yul\":9170:9244   */\n      swap2\n      pop\n        /* \"#utility.yul\":9253:9346   */\n      tag_220\n        /* \"#utility.yul\":9342:9345   */\n      dup3\n        /* \"#utility.yul\":9253:9346   */\n      tag_102\n      jump\t// in\n    tag_220:\n        /* \"#utility.yul\":9371:9373   */\n      0x20\n        /* \"#utility.yul\":9366:9369   */\n      dup3\n        /* \"#utility.yul\":9362:9374   */\n      add\n        /* \"#utility.yul\":9355:9374   */\n      swap1\n      pop\n        /* \"#utility.yul\":9014:9380   */\n      swap2\n      swap1\n      pop\n      jump\t// out\n        /* \"#utility.yul\":9386:9805   */\n    tag_55:\n        /* \"#utility.yul\":9552:9556   */\n      0x00\n        /* \"#utility.yul\":9590:9592   */\n      0x20\n        /* \"#utility.yul\":9579:9588   */\n      dup3\n        /* \"#utility.yul\":9575:9593   */\n      add\n        /* \"#utility.yul\":9567:9593   */\n      swap1\n      pop\n        /* \"#utility.yul\":9639:9648   */\n      dup2\n        /* \"#utility.yul\":9633:9637   */\n      dup2\n        /* \"#utility.yul\":9629:9649   */\n      sub\n        /* \"#utility.yul\":9625:9626   */\n      0x00\n        /* \"#utility.yul\":9614:9623   */\n      dup4\n        /* \"#utility.yul\":9610:9627   */\n      add\n        /* \"#utility.yul\":9603:9650   */\n      mstore\n        /* \"#utility.yul\":9667:9798   */\n      tag_222\n        /* \"#utility.yul\":9793:9797   */\n      dup2\n        /* \"#utility.yul\":9667:9798   */\n      tag_103\n      jump\t// in\n    tag_222:\n        /* \"#utility.yul\":9659:9798   */\n      swap1\n      pop\n        /* \"#utility.yul\":9386:9805   */\n      swap2\n      swap1\n      pop\n      jump\t// out\n        /* \"#utility.yul\":9811:9958   */\n    tag_104:\n        /* \"#utility.yul\":9912:9923   */\n      0x00\n        /* \"#utility.yul\":9949:9952   */\n      dup2\n        /* \"#utility.yul\":9934:9952   */\n      swap1\n      pop\n        /* \"#utility.yul\":9811:9958   */\n      swap3\n      swap2\n      pop\n      pop\n      jump\t// out\n        /* \"#utility.yul\":9964:10078   */\n    tag_105:\n      pop\n      jump\t// out\n        /* \"#utility.yul\":10084:10482   */\n    tag_106:\n        /* \"#utility.yul\":10243:10246   */\n      0x00\n        /* \"#utility.yul\":10264:10347   */\n      tag_226\n        /* \"#utility.yul\":10345:10346   */\n      0x00\n        /* \"#utility.yul\":10340:10343   */\n      dup4\n        /* \"#utility.yul\":10264:10347   */\n      tag_104\n      jump\t// in\n    tag_226:\n        /* \"#utility.yul\":10257:10347   */\n      swap2\n      pop\n        /* \"#utility.yul\":10356:10449   */\n      tag_227\n        /* \"#utility.yul\":10445:10448   */\n      dup3\n        /* \"#utility.yul\":10356:10449   */\n      tag_105\n      jump\t// in\n    tag_227:\n        /* \"#utility.yul\":10474:10475   */\n      0x00\n        /* \"#utility.yul\":10469:10472   */\n      dup3\n        /* \"#utility.yul\":10465:10476   */\n      add\n        /* \"#utility.yul\":10458:10476   */\n      swap1\n      pop\n        /* \"#utility.yul\":10084:10482   */\n      swap2\n      swap1\n      pop\n      jump\t// out\n        /* \"#utility.yul\":10488:10867   */\n    tag_57:\n        /* \"#utility.yul\":10672:10675   */\n      0x00\n        /* \"#utility.yul\":10694:10841   */\n      tag_229\n        /* \"#utility.yul\":10837:10840   */\n      dup3\n        /* \"#utility.yul\":10694:10841   */\n      tag_106\n      jump\t// in\n    tag_229:\n        /* \"#utility.yul\":10687:10841   */\n      swap2\n      pop\n        /* \"#utility.yul\":10858:10861   */\n      dup2\n        /* \"#utility.yul\":10851:10861   */\n      swap1\n      pop\n        /* \"#utility.yul\":10488:10867   */\n      swap2\n      swap1\n      pop\n      jump\t// out\n        /* \"#utility.yul\":10873:11038   */\n    tag_107:\n        /* \"#utility.yul\":11013:11030   */\n      0x5472616e73666572206661696c65640000000000000000000000000000000000\n        /* \"#utility.yul\":11009:11010   */\n      0x00\n        /* \"#utility.yul\":11001:11007   */\n      dup3\n        /* \"#utility.yul\":10997:11011   */\n      add\n        /* \"#utility.yul\":10990:11031   */\n      mstore\n        /* \"#utility.yul\":10873:11038   */\n      pop\n      jump\t// out\n        /* \"#utility.yul\":11044:11410   */\n    tag_108:\n        /* \"#utility.yul\":11186:11189   */\n      0x00\n        /* \"#utility.yul\":11207:11274   */\n      tag_232\n        /* \"#utility.yul\":11271:11273   */\n      0x0f\n        /* \"#utility.yul\":11266:11269   */\n      dup4\n        /* \"#utility.yul\":11207:11274   */\n      tag_84\n      jump\t// in\n    tag_232:\n        /* \"#utility.yul\":11200:11274   */\n      swap2\n      pop\n        /* \"#utility.yul\":11283:11376   */\n      tag_233\n        /* \"#utility.yul\":11372:11375   */\n      dup3\n        /* \"#utility.yul\":11283:11376   */\n      tag_107\n      jump\t// in\n    tag_233:\n        /* \"#utility.yul\":11401:11403   */\n      0x20\n        /* \"#utility.yul\":11396:11399   */\n      dup3\n        /* \"#utility.yul\":11392:11404   */\n      add\n        /* \"#utility.yul\":11385:11404   */\n      swap1\n      pop\n        /* \"#utility.yul\":11044:11410   */\n      swap2\n      swap1\n      pop\n      jump\t// out\n        /* \"#utility.yul\":11416:11835   */\n    tag_63:\n        /* \"#utility.yul\":11582:11586   */\n      0x00\n        /* \"#utility.yul\":11620:11622   */\n      0x20\n        /* \"#utility.yul\":11609:11618   */\n      dup3\n        /* \"#utility.yul\":11605:11623   */\n      add\n        /* \"#utility.yul\":11597:11623   */\n      swap1\n      pop\n        /* \"#utility.yul\":11669:11678   */\n      dup2\n        /* \"#utility.yul\":11663:11667   */\n      dup2\n        /* \"#utility.yul\":11659:11679   */\n      sub\n        /* \"#utility.yul\":11655:11656   */\n      0x00\n        /* \"#utility.yul\":11644:11653   */\n      dup4\n        /* \"#utility.yul\":11640:11657   */\n      add\n        /* \"#utility.yul\":11633:11680   */\n      mstore\n        /* \"#utility.yul\":11697:11828   */\n      tag_235\n        /* \"#utility.yul\":11823:11827   */\n      dup2\n        /* \"#utility.yul\":11697:11828   */\n      tag_108\n      jump\t// in\n    tag_235:\n        /* \"#utility.yul\":11689:11828   */\n      swap1\n      pop\n        /* \"#utility.yul\":11416:11835   */\n      swap2\n      swap1\n      pop\n      jump\t// out\n        /* \"#utility.yul\":11841:11982   */\n    tag_109:\n        /* \"#utility.yul\":11890:11894   */\n      0x00\n        /* \"#utility.yul\":11913:11916   */\n      dup2\n        /* \"#utility.yul\":11905:11916   */\n      swap1\n      pop\n        /* \"#utility.yul\":11936:11939   */\n      dup2\n        /* \"#utility.yul\":11933:11934   */\n      0x00\n        /* \"#utility.yul\":11926:11940   */\n      mstore\n        /* \"#utility.yul\":11970:11974   */\n      0x20\n        /* \"#utility.yul\":11967:11968   */\n      0x00\n        /* \"#utility.yul\":11957:11975   */\n      keccak256\n        /* \"#utility.yul\":11949:11975   */\n      swap1\n      pop\n        /* \"#utility.yul\":11841:11982   */\n      swap2\n      swap1\n      pop\n      jump\t// out\n        /* \"#utility.yul\":11988:12081   */\n    tag_110:\n        /* \"#utility.yul\":12025:12031   */\n      0x00\n        /* \"#utility.yul\":12072:12074   */\n      0x20\n        /* \"#utility.yul\":12067:12069   */\n      0x1f\n        /* \"#utility.yul\":12060:12065   */\n      dup4\n        /* \"#utility.yul\":12056:12070   */\n      add\n        /* \"#utility.yul\":12052:12075   */\n      div\n        /* \"#utility.yul\":12042:12075   */\n      swap1\n      pop\n        /* \"#utility.yul\":11988:12081   */\n      swap2\n      swap1\n      pop\n      jump\t// out\n        /* \"#utility.yul\":12087:12194   */\n    tag_111:\n        /* \"#utility.yul\":12131:12139   */\n      0x00\n        /* \"#utility.yul\":12181:12186   */\n      dup3\n        /* \"#utility.yul\":12175:12179   */\n      dup3\n        /* \"#utility.yul\":12171:12187   */\n      shl\n        /* \"#utility.yul\":12150:12187   */\n      swap1\n      pop\n        /* \"#utility.yul\":12087:12194   */\n      swap3\n      swap2\n      pop\n      pop\n      jump\t// out\n        /* \"#utility.yul\":12200:12593   */\n    tag_112:\n        /* \"#utility.yul\":12269:12275   */\n      0x00\n        /* \"#utility.yul\":12319:12320   */\n      0x08\n        /* \"#utility.yul\":12307:12317   */\n      dup4\n        /* \"#utility.yul\":12303:12321   */\n      mul\n        /* \"#utility.yul\":12342:12439   */\n      tag_240\n        /* \"#utility.yul\":12372:12438   */\n      0xffffffffffffffffffffffffffffffffffffffffffffffffffffffffffffffff\n        /* \"#utility.yul\":12361:12370   */\n      dup3\n        /* \"#utility.yul\":12342:12439   */\n      tag_111\n      jump\t// in\n    tag_240:\n        /* \"#utility.yul\":12460:12499   */\n      tag_241\n        /* \"#utility.yul\":12490:12498   */\n      dup7\n        /* \"#utility.yul\":12479:12488   */\n      dup4\n        /* \"#utility.yul\":12460:12499   */\n      tag_111\n      jump\t// in\n    tag_241:\n        /* \"#utility.yul\":12448:12499   */\n      swap6\n      pop\n        /* \"#utility.yul\":12532:12536   */\n      dup1\n        /* \"#utility.yul\":12528:12537   */\n      not\n        /* \"#utility.yul\":12521:12526   */\n      dup5\n        /* \"#utility.yul\":12517:12538   */\n      and\n        /* \"#utility.yul\":12508:12538   */\n      swap4\n      pop\n        /* \"#utility.yul\":12581:12585   */\n      dup1\n        /* \"#utility.yul\":12571:12579   */\n      dup7\n        /* \"#utility.yul\":12567:12586   */\n      and\n        /* \"#utility.yul\":12560:12565   */\n      dup5\n        /* \"#utility.yul\":12557:12587   */\n      or\n        /* \"#utility.yul\":12547:12587   */\n      swap3\n      pop\n        /* \"#utility.yul\":12276:12593   */\n      pop\n      pop\n        /* \"#utility.yul\":12200:12593   */\n      swap4\n      swap3\n      pop\n      pop\n      pop\n      jump\t// out\n        /* \"#utility.yul\":12599:12659   */\n    tag_113:\n        /* \"#utility.yul\":12627:12630   */\n      0x00\n        /* \"#utility.yul\":12648:12653   */\n      dup2\n        /* \"#utility.yul\":12641:12653   */\n      swap1\n      pop\n        /* \"#utility.yul\":12599:12659   */\n      swap2\n      swap1\n      pop\n      jump\t// out\n        /* \"#utility.yul\":12665:12807   */\n    tag_114:\n        /* \"#utility.yul\":12715:12724   */\n      0x00\n        /* \"#utility.yul\":12748:12801   */\n      tag_244\n        /* \"#utility.yul\":12766:12800   */\n      tag_245\n        /* \"#utility.yul\":12775:12799   */\n      tag_246\n        /* \"#utility.yul\":12793:12798   */\n      dup5\n        /* \"#utility.yul\":12775:12799   */\n      tag_71\n      jump\t// in\n    tag_246:\n        /* \"#utility.yul\":12766:12800   */\n      tag_113\n      jump\t// in\n    tag_245:\n        /* \"#utility.yul\":12748:12801   */\n      tag_71\n      jump\t// in\n    tag_244:\n        /* \"#utility.yul\":12735:12801   */\n      swap1\n      pop\n        /* \"#utility.yul\":12665:12807   */\n      swap2\n      swap1\n      pop\n      jump\t// out\n        /* \"#utility.yul\":12813:12888   */\n    tag_115:\n        /* \"#utility.yul\":12856:12859   */\n      0x00\n        /* \"#utility.yul\":12877:12882   */\n      dup2\n        /* \"#utility.yul\":12870:12882   */\n      swap1\n      pop\n        /* \"#utility.yul\":12813:12888   */\n      swap2\n      swap1\n      pop\n      jump\t// out\n        /* \"#utility.yul\":12894:13163   */\n    tag_116:\n        /* \"#utility.yul\":13004:13043   */\n      tag_249\n        /* \"#utility.yul\":13035:13042   */\n      dup4\n        /* \"#utility.yul\":13004:13043   */\n      tag_114\n      jump\t// in\n    tag_249:\n        /* \"#utility.yul\":13065:13156   */\n      tag_250\n        /* \"#utility.yul\":13114:13155   */\n      tag_251\n        /* \"#utility.yul\":13138:13154   */\n      dup3\n        /* \"#utility.yul\":13114:13155   */\n      tag_115\n      jump\t// in\n    tag_251:\n        /* \"#utility.yul\":13106:13112   */\n      dup5\n        /* \"#utility.yul\":13099:13103   */\n      dup5\n        /* \"#utility.yul\":13093:13104   */\n      sload\n        /* \"#utility.yul\":13065:13156   */\n      tag_112\n      jump\t// in\n    tag_250:\n        /* \"#utility.yul\":13059:13063   */\n      dup3\n        /* \"#utility.yul\":13052:13157   */\n      sstore\n        /* \"#utility.yul\":12970:13163   */\n      pop\n        /* \"#utility.yul\":12894:13163   */\n      pop\n      pop\n      pop\n      jump\t// out\n        /* \"#utility.yul\":13169:13242   */\n    tag_117:\n        /* \"#utility.yul\":13214:13217   */\n      0x00\n        /* \"#utility.yul\":13169:13242   */\n      swap1\n      jump\t// out\n        /* \"#utility.yul\":13248:13437   */\n    tag_118:\n        /* \"#utility.yul\":13325:13357   */\n      tag_254\n      tag_117\n      jump\t// in\n    tag_254:\n        /* \"#utility.yul\":13366:13431   */\n      tag_255\n        /* \"#utility.yul\":13424:13430   */\n      dup2\n        /* \"#utility.yul\":13416:13422   */\n      dup5\n        /* \"#utility.yul\":13410:13414   */\n      dup5\n        /* \"#utility.yul\":13366:13431   */\n      tag_116\n      jump\t// in\n    tag_255:\n        /* \"#utility.yul\":13301:13437   */\n      pop\n        /* \"#utility.yul\":13248:13437   */\n      pop\n      pop\n      jump\t// out\n        /* \"#utility.yul\":13443:13629   */\n    tag_119:\n        /* \"#utility.yul\":13503:13623   */\n    tag_257:\n        /* \"#utility.yul\":13520:13523   */\n      dup2\n        /* \"#utility.yul\":13513:13518   */\n      dup2\n        /* \"#utility.yul\":13510:13524   */\n      lt\n        /* \"#utility.yul\":13503:13623   */\n      iszero\n      tag_259\n      jumpi\n        /* \"#utility.yul\":13574:13613   */\n      tag_260\n        /* \"#utility.yul\":13611:13612   */\n      0x00\n        /* \"#utility.yul\":13604:13609   */\n      dup3\n        /* \"#utility.yul\":13574:13613   */\n      tag_118\n      jump\t// in\n    tag_260:\n        /* \"#utility.yul\":13547:13548   */\n      0x01\n        /* \"#utility.yul\":13540:13545   */\n      dup2\n        /* \"#utility.yul\":13536:13549   */\n      add\n        /* \"#utility.yul\":13527:13549   */\n      swap1\n      pop\n        /* \"#utility.yul\":13503:13623   */\n      jump(tag_257)\n    tag_259:\n        /* \"#utility.yul\":13443:13629   */\n      pop\n      pop\n      jump\t// out\n        /* \"#utility.yul\":13635:14178   */\n    tag_120:\n        /* \"#utility.yul\":13736:13738   */\n      0x1f\n        /* \"#utility.yul\":13731:13734   */\n      dup3\n        /* \"#utility.yul\":13728:13739   */\n      gt\n        /* \"#utility.yul\":13725:14171   */\n      iszero\n      tag_262\n      jumpi\n        /* \"#utility.yul\":13770:13808   */\n      tag_263\n        /* \"#utility.yul\":13802:13807   */\n      dup2\n        /* \"#utility.yul\":13770:13808   */\n      tag_109\n      jump\t// in\n    tag_263:\n        /* \"#utility.yul\":13854:13883   */\n      tag_264\n        /* \"#utility.yul\":13872:13882   */\n      dup5\n        /* \"#utility.yul\":13854:13883   */\n      tag_110\n      jump\t// in\n    tag_264:\n        /* \"#utility.yul\":13844:13852   */\n      dup2\n        /* \"#utility.yul\":13840:13884   */\n      add\n        /* \"#utility.yul\":14037:14039   */\n      0x20\n        /* \"#utility.yul\":14025:14035   */\n      dup6\n        /* \"#utility.yul\":14022:14040   */\n      lt\n        /* \"#utility.yul\":14019:14068   */\n      iszero\n      tag_265\n      jumpi\n        /* \"#utility.yul\":14058:14066   */\n      dup2\n        /* \"#utility.yul\":14043:14066   */\n      swap1\n      pop\n        /* \"#utility.yul\":14019:14068   */\n    tag_265:\n        /* \"#utility.yul\":14081:14161   */\n      tag_266\n        /* \"#utility.yul\":14137:14159   */\n      tag_267\n        /* \"#utility.yul\":14155:14158   */\n      dup6\n        /* \"#utility.yul\":14137:14159   */\n      tag_110\n      jump\t// in\n    tag_267:\n        /* \"#utility.yul\":14127:14135   */\n      dup4\n        /* \"#utility.yul\":14123:14160   */\n      add\n        /* \"#utility.yul\":14110:14121   */\n      dup3\n        /* \"#utility.yul\":14081:14161   */\n      tag_119\n      jump\t// in\n    tag_266:\n        /* \"#utility.yul\":13740:14171   */\n      pop\n      pop\n        /* \"#utility.yul\":13725:14171   */\n    tag_262:\n        /* \"#utility.yul\":13635:14178   */\n      pop\n      pop\n      pop\n      jump\t// out\n        /* \"#utility.yul\":14184:14301   */\n    tag_121:\n        /* \"#utility.yul\":14238:14246   */\n      0x00\n        /* \"#utility.yul\":14288:14293   */\n      dup3\n        /* \"#utility.yul\":14282:14286   */\n      dup3\n        /* \"#utility.yul\":14278:14294   */\n      shr\n        /* \"#utility.yul\":14257:14294   */\n      swap1\n      pop\n        /* \"#utility.yul\":14184:14301   */\n      swap3\n      swap2\n      pop\n      pop\n      jump\t// out\n        /* \"#utility.yul\":14307:14476   */\n    tag_122:\n        /* \"#utility.yul\":14351:14357   */\n      0x00\n        /* \"#utility.yul\":14384:14435   */\n      tag_270\n        /* \"#utility.yul\":14432:14433   */\n      0x00\n        /* \"#utility.yul\":14428:14434   */\n      not\n        /* \"#utility.yul\":14420:14425   */\n      dup5\n        /* \"#utility.yul\":14417:14418   */\n      0x08\n        /* \"#utility.yul\":14413:14426   */\n      mul\n        /* \"#utility.yul\":14384:14435   */\n      tag_121\n      jump\t// in\n    tag_270:\n        /* \"#utility.yul\":14380:14436   */\n      not\n        /* \"#utility.yul\":14465:14469   */\n      dup1\n        /* \"#utility.yul\":14459:14463   */\n      dup4\n        /* \"#utility.yul\":14455:14470   */\n      and\n        /* \"#utility.yul\":14445:14470   */\n      swap2\n      pop\n        /* \"#utility.yul\":14358:14476   */\n      pop\n        /* \"#utility.yul\":14307:14476   */\n      swap3\n      swap2\n      pop\n      pop\n      jump\t// out\n        /* \"#utility.yul\":14481:14776   */\n    tag_123:\n        /* \"#utility.yul\":14557:14561   */\n      0x00\n        /* \"#utility.yul\":14703:14732   */\n      tag_272\n        /* \"#utility.yul\":14728:14731   */\n      dup4\n        /* \"#utility.yul\":14722:14726   */\n      dup4\n        /* \"#utility.yul\":14703:14732   */\n      tag_122\n      jump\t// in\n    tag_272:\n        /* \"#utility.yul\":14695:14732   */\n      swap2\n      pop\n        /* \"#utility.yul\":14765:14768   */\n      dup3\n        /* \"#utility.yul\":14762:14763   */\n      0x02\n        /* \"#utility.yul\":14758:14769   */\n      mul\n        /* \"#utility.yul\":14752:14756   */\n      dup3\n        /* \"#utility.yul\":14749:14770   */\n      or\n        /* \"#utility.yul\":14741:14770   */\n      swap1\n      pop\n        /* \"#utility.yul\":14481:14776   */\n      swap3\n      swap2\n      pop\n      pop\n      jump\t// out\n        /* \"#utility.yul\":14781:16176   */\n    tag_66:\n        /* \"#utility.yul\":14898:14935   */\n      tag_274\n        /* \"#utility.yul\":14931:14934   */\n      dup3\n        /* \"#utility.yul\":14898:14935   */\n      tag_83\n      jump\t// in\n    tag_274:\n        /* \"#utility.yul\":15000:15018   */\n      0xffffffffffffffff\n        /* \"#utility.yul\":14992:14998   */\n      dup2\n        /* \"#utility.yul\":14989:15019   */\n      gt\n        /* \"#utility.yul\":14986:15042   */\n      iszero\n      tag_275\n      jumpi\n        /* \"#utility.yul\":15022:15040   */\n      tag_276\n      tag_90\n      jump\t// in\n    tag_276:\n        /* \"#utility.yul\":14986:15042   */\n    tag_275:\n        /* \"#utility.yul\":15066:15104   */\n      tag_277\n        /* \"#utility.yul\":15098:15102   */\n      dup3\n        /* \"#utility.yul\":15092:15103   */\n      sload\n        /* \"#utility.yul\":15066:15104   */\n      tag_33\n      jump\t// in\n    tag_277:\n        /* \"#utility.yul\":15151:15218   */\n      tag_278\n        /* \"#utility.yul\":15211:15217   */\n      dup3\n        /* \"#utility.yul\":15203:15209   */\n      dup3\n        /* \"#utility.yul\":15197:15201   */\n      dup6\n        /* \"#utility.yul\":15151:15218   */\n      tag_120\n      jump\t// in\n    tag_278:\n        /* \"#utility.yul\":15245:15246   */\n      0x00\n        /* \"#utility.yul\":15269:15273   */\n      0x20\n        /* \"#utility.yul\":15256:15273   */\n      swap1\n      pop\n        /* \"#utility.yul\":15301:15303   */\n      0x1f\n        /* \"#utility.yul\":15293:15299   */\n      dup4\n        /* \"#utility.yul\":15290:15304   */\n      gt\n        /* \"#utility.yul\":15318:15319   */\n      0x01\n        /* \"#utility.yul\":15313:15931   */\n      dup2\n      eq\n      tag_280\n      jumpi\n        /* \"#utility.yul\":15975:15976   */\n      0x00\n        /* \"#utility.yul\":15992:15998   */\n      dup5\n        /* \"#utility.yul\":15989:16066   */\n      iszero\n      tag_281\n      jumpi\n        /* \"#utility.yul\":16041:16050   */\n      dup3\n        /* \"#utility.yul\":16036:16039   */\n      dup8\n        /* \"#utility.yul\":16032:16051   */\n      add\n        /* \"#utility.yul\":16026:16052   */\n      mload\n        /* \"#utility.yul\":16017:16052   */\n      swap1\n      pop\n        /* \"#utility.yul\":15989:16066   */\n    tag_281:\n        /* \"#utility.yul\":16092:16159   */\n      tag_282\n        /* \"#utility.yul\":16152:16158   */\n      dup6\n        /* \"#utility.yul\":16145:16150   */\n      dup3\n        /* \"#utility.yul\":16092:16159   */\n      tag_123\n      jump\t// in\n    tag_282:\n        /* \"#utility.yul\":16086:16090   */\n      dup7\n        /* \"#utility.yul\":16079:16160   */\n      sstore\n        /* \"#utility.yul\":15948:16170   */\n      pop\n        /* \"#utility.yul\":15283:16170   */\n      jump(tag_279)\n        /* \"#utility.yul\":15313:15931   */\n    tag_280:\n        /* \"#utility.yul\":15365:15369   */\n      0x1f\n        /* \"#utility.yul\":15361:15370   */\n      not\n        /* \"#utility.yul\":15353:15359   */\n      dup5\n        /* \"#utility.yul\":15349:15371   */\n      and\n        /* \"#utility.yul\":15399:15436   */\n      tag_283\n        /* \"#utility.yul\":15431:15435   */\n      dup7\n        /* \"#utility.yul\":15399:15436   */\n      tag_109\n      jump\t// in\n    tag_283:\n        /* \"#utility.yul\":15458:15459   */\n      0x00\n        /* \"#utility.yul\":15472:15680   */\n    tag_284:\n        /* \"#utility.yul\":15486:15493   */\n      dup3\n        /* \"#utility.yul\":15483:15484   */\n      dup2\n        /* \"#utility.yul\":15480:15494   */\n      lt\n        /* \"#utility.yul\":15472:15680   */\n      iszero\n      tag_286\n      jumpi\n        /* \"#utility.yul\":15565:15574   */\n      dup5\n        /* \"#utility.yul\":15560:15563   */\n      dup10\n        /* \"#utility.yul\":15556:15575   */\n      add\n        /* \"#utility.yul\":15550:15576   */\n      mload\n        /* \"#utility.yul\":15542:15548   */\n      dup3\n        /* \"#utility.yul\":15535:15577   */\n      sstore\n        /* \"#utility.yul\":15616:15617   */\n      0x01\n        /* \"#utility.yul\":15608:15614   */\n      dup3\n        /* \"#utility.yul\":15604:15618   */\n      add\n        /* \"#utility.yul\":15594:15618   */\n      swap2\n      pop\n        /* \"#utility.yul\":15663:15665   */\n      0x20\n        /* \"#utility.yul\":15652:15661   */\n      dup6\n        /* \"#utility.yul\":15648:15666   */\n      add\n        /* \"#utility.yul\":15635:15666   */\n      swap5\n      pop\n        /* \"#utility.yul\":15509:15513   */\n      0x20\n        /* \"#utility.yul\":15506:15507   */\n      dup2\n        /* \"#utility.yul\":15502:15514   */\n      add\n        /* \"#utility.yul\":15497:15514   */\n      swap1\n      pop\n        /* \"#utility.yul\":15472:15680   */\n      jump(tag_284)\n    tag_286:\n        /* \"#utility.yul\":15708:15714   */\n      dup7\n        /* \"#utility.yul\":15699:15706   */\n      dup4\n        /* \"#utility.yul\":15696:15715   */\n      lt\n        /* \"#utility.yul\":15693:15872   */\n      iszero\n      tag_287\n      jumpi\n        /* \"#utility.yul\":15766:15775   */\n      dup5\n        /* \"#utility.yul\":15761:15764   */\n      dup10\n        /* \"#utility.yul\":15757:15776   */\n      add\n        /* \"#utility.yul\":15751:15777   */\n      mload\n        /* \"#utility.yul\":15809:15857   */\n      tag_288\n        /* \"#utility.yul\":15851:15855   */\n      0x1f\n        /* \"#utility.yul\":15843:15849   */\n      dup10\n        /* \"#utility.yul\":15839:15856   */\n      and\n        /* \"#utility.yul\":15828:15837   */\n      dup3\n        /* \"#utility.yul\":15809:15857   */\n      tag_122\n      jump\t// in\n    tag_288:\n        /* \"#utility.yul\":15801:15807   */\n      dup4\n        /* \"#utility.yul\":15794:15858   */\n      sstore\n        /* \"#utility.yul\":15716:15872   */\n      pop\n        /* \"#utility.yul\":15693:15872   */\n    tag_287:\n        /* \"#utility.yul\":15918:15919   */\n      0x01\n        /* \"#utility.yul\":15914:15915   */\n      0x02\n        /* \"#utility.yul\":15906:15912   */\n      dup9\n        /* \"#utility.yul\":15902:15916   */\n      mul\n        /* \"#utility.yul\":15898:15920   */\n      add\n        /* \"#utility.yul\":15892:15896   */\n      dup9\n        /* \"#utility.yul\":15885:15921   */\n      sstore\n        /* \"#utility.yul\":15320:15931   */\n      pop\n      pop\n      pop\n        /* \"#utility.yul\":15283:16170   */\n    tag_279:\n      pop\n        /* \"#utility.yul\":14873:16176   */\n      pop\n      pop\n      pop\n        /* \"#utility.yul\":14781:16176   */\n      pop\n      pop\n      jump\t// out\n        /* \"#utility.yul\":16182:16605   */\n    tag_68:\n        /* \"#utility.yul\":16323:16327   */\n      0x00\n        /* \"#utility.yul\":16361:16363   */\n      0x40\n        /* \"#utility.yul\":16350:16359   */\n      dup3\n        /* \"#utility.yul\":16346:16364   */\n      add\n        /* \"#utility.yul\":16338:16364   */\n      swap1\n      pop\n        /* \"#utility.yul\":16410:16419   */\n      dup2\n        /* \"#utility.yul\":16404:16408   */\n      dup2\n        /* \"#utility.yul\":16400:16420   */\n      sub\n        /* \"#utility.yul\":16396:16397   */\n      0x00\n        /* \"#utility.yul\":16385:16394   */\n      dup4\n        /* \"#utility.yul\":16381:16398   */\n      add\n        /* \"#utility.yul\":16374:16421   */\n      mstore\n        /* \"#utility.yul\":16438:16516   */\n      tag_290\n        /* \"#utility.yul\":16511:16515   */\n      dup2\n        /* \"#utility.yul\":16502:16508   */\n      dup6\n        /* \"#utility.yul\":16438:16516   */\n      tag_87\n      jump\t// in\n    tag_290:\n        /* \"#utility.yul\":16430:16516   */\n      swap1\n      pop\n        /* \"#utility.yul\":16526:16598   */\n      tag_291\n        /* \"#utility.yul\":16594:16596   */\n      0x20\n        /* \"#utility.yul\":16583:16592   */\n      dup4\n        /* \"#utility.yul\":16579:16597   */\n      add\n        /* \"#utility.yul\":16570:16576   */\n      dup5\n        /* \"#utility.yul\":16526:16598   */\n      tag_72\n      jump\t// in\n    tag_291:\n        /* \"#utility.yul\":16182:16605   */\n      swap4\n      swap3\n      pop\n      pop\n      pop\n      jump\t// out\n        /* \"#utility.yul\":16611:16791   */\n    tag_124:\n        /* \"#utility.yul\":16659:16736   */\n      0x4e487b7100000000000000000000000000000000000000000000000000000000\n        /* \"#utility.yul\":16656:16657   */\n      0x00\n        /* \"#utility.yul\":16649:16737   */\n      mstore\n        /* \"#utility.yul\":16756:16760   */\n      0x11\n        /* \"#utility.yul\":16753:16754   */\n      0x04\n        /* \"#utility.yul\":16746:16761   */\n      mstore\n        /* \"#utility.yul\":16780:16784   */\n      0x24\n        /* \"#utility.yul\":16777:16778   */\n      0x00\n        /* \"#utility.yul\":16770:16785   */\n      revert\n        /* \"#utility.yul\":16797:17030   */\n    tag_70:\n        /* \"#utility.yul\":16836:16839   */\n      0x00\n        /* \"#utility.yul\":16859:16883   */\n      tag_294\n        /* \"#utility.yul\":16877:16882   */\n      dup3\n        /* \"#utility.yul\":16859:16883   */\n      tag_71\n      jump\t// in\n    tag_294:\n        /* \"#utility.yul\":16850:16883   */\n      swap2\n      pop\n        /* \"#utility.yul\":16905:16971   */\n      0xffffffffffffffffffffffffffffffffffffffffffffffffffffffffffffffff\n        /* \"#utility.yul\":16898:16903   */\n      dup3\n        /* \"#utility.yul\":16895:16972   */\n      sub\n        /* \"#utility.yul\":16892:16995   */\n      tag_295\n      jumpi\n        /* \"#utility.yul\":16975:16993   */\n      tag_296\n      tag_124\n      jump\t// in\n    tag_296:\n        /* \"#utility.yul\":16892:16995   */\n    tag_295:\n        /* \"#utility.yul\":17022:17023   */\n      0x01\n        /* \"#utility.yul\":17015:17020   */\n      dup3\n        /* \"#utility.yul\":17011:17024   */\n      add\n        /* \"#utility.yul\":17004:17024   */\n      swap1\n      pop\n        /* \"#utility.yul\":16797:17030   */\n      swap2\n      swap1\n      pop\n      jump\t// out\n\n    auxdata: 0xa264697066735822122036ccc7b1c6ddfd048df61b3850b50b349222ebccf6c4f1b72832775fe96e378664736f6c63430008120033\n}\n",
				"bytecode": {
					"linkReferences": {},
					"object": "608060405234801561001057600080fd5b50600060018190555061109a806100286000396000f3fe60806040526004361061004a5760003560e01c80630a15e8e61461004f5780633e6093731461007a57806363a33b8c146100ba57806379d9c439146100fa578063f54e1aef14610116575b600080fd5b34801561005b57600080fd5b5061006461013f565b6040516100719190610798565b60405180910390f35b34801561008657600080fd5b506100a1600480360381019061009c91906107f3565b610145565b6040516100b1949392919061090c565b60405180910390f35b3480156100c657600080fd5b506100e160048036038101906100dc91906107f3565b61022a565b6040516100f1949392919061090c565b60405180910390f35b610114600480360381019061010f91906107f3565b6103c7565b005b34801561012257600080fd5b5061013d60048036038101906101389190610a8d565b610638565b005b60015481565b60006020528060005260406000206000915090508060000160009054906101000a900473ffffffffffffffffffffffffffffffffffffffff16908060000160149054906101000a900460ff16908060010180546101a190610b18565b80601f01602080910402602001604051908101604052809291908181526020018280546101cd90610b18565b801561021a5780601f106101ef5761010080835404028352916020019161021a565b820191906000526020600020905b8154815290600101906020018083116101fd57829003601f168201915b5050505050908060020154905084565b600080606060006001548510610275576040517f08c379a000000000000000000000000000000000000000000000000000000000815260040161026c90610b95565b60405180910390fd5b60008060008781526020019081526020016000206040518060800160405290816000820160009054906101000a900473ffffffffffffffffffffffffffffffffffffffff1673ffffffffffffffffffffffffffffffffffffffff1673ffffffffffffffffffffffffffffffffffffffff1681526020016000820160149054906101000a900460ff1615151515815260200160018201805461031590610b18565b80601f016020809104026020016040519081016040528092919081815260200182805461034190610b18565b801561038e5780601f106103635761010080835404028352916020019161038e565b820191906000526020600020905b81548152906001019060200180831161037157829003601f168201915b50505050508152602001600282015481525050905080600001519450806020015193508060400151925080606001519150509193509193565b600154811061040b576040517f08c379a000000000000000000000000000000000000000000000000000000000815260040161040290610b95565b60405180910390fd5b600080600083815260200190815260200160002090508060000160149054906101000a900460ff16610472576040517f08c379a000000000000000000000000000000000000000000000000000000000815260040161046990610c01565b60405180910390fd5b80600201543410156104b9576040517f08c379a00000000000000000000000000000000000000000000000000000000081526004016104b090610c6d565b60405180910390fd5b60008160000160009054906101000a900473ffffffffffffffffffffffffffffffffffffffff169050338260000160006101000a81548173ffffffffffffffffffffffffffffffffffffffff021916908373ffffffffffffffffffffffffffffffffffffffff16021790555060008260000160146101000a81548160ff02191690831515021790555060008173ffffffffffffffffffffffffffffffffffffffff163460405161056890610cbe565b60006040518083038185875af1925050503d80600081146105a5576040519150601f19603f3d011682016040523d82523d6000602084013e6105aa565b606091505b50509050806105ee576040517f08c379a00000000000000000000000000000000000000000000000000000000081526004016105e590610d1f565b60405180910390fd5b3373ffffffffffffffffffffffffffffffffffffffff16847f2ee884e099289b2a1e146cec54c3357ca82d951f7e05ac5580c69795f496762160405160405180910390a350505050565b60405180608001604052803373ffffffffffffffffffffffffffffffffffffffff16815260200160011515815260200183815260200182815250600080600154815260200190815260200160002060008201518160000160006101000a81548173ffffffffffffffffffffffffffffffffffffffff021916908373ffffffffffffffffffffffffffffffffffffffff16021790555060208201518160000160146101000a81548160ff02191690831515021790555060408201518160010190816107029190610eeb565b50606082015181600201559050503373ffffffffffffffffffffffffffffffffffffffff166001547f4ebad2aea85f9ad0f765671254af2876940430a206fcf61f3a7c1fe110523566848460405161075b929190610fbd565b60405180910390a3600160008154809291906107769061101c565b91905055505050565b6000819050919050565b6107928161077f565b82525050565b60006020820190506107ad6000830184610789565b92915050565b6000604051905090565b600080fd5b600080fd5b6107d08161077f565b81146107db57600080fd5b50565b6000813590506107ed816107c7565b92915050565b600060208284031215610809576108086107bd565b5b6000610817848285016107de565b91505092915050565b600073ffffffffffffffffffffffffffffffffffffffff82169050919050565b600061084b82610820565b9050919050565b61085b81610840565b82525050565b60008115159050919050565b61087681610861565b82525050565b600081519050919050565b600082825260208201905092915050565b60005b838110156108b657808201518184015260208101905061089b565b60008484015250505050565b6000601f19601f8301169050919050565b60006108de8261087c565b6108e88185610887565b93506108f8818560208601610898565b610901816108c2565b840191505092915050565b60006080820190506109216000830187610852565b61092e602083018661086d565b818103604083015261094081856108d3565b905061094f6060830184610789565b95945050505050565b600080fd5b600080fd5b7f4e487b7100000000000000000000000000000000000000000000000000000000600052604160045260246000fd5b61099a826108c2565b810181811067ffffffffffffffff821117156109b9576109b8610962565b5b80604052505050565b60006109cc6107b3565b90506109d88282610991565b919050565b600067ffffffffffffffff8211156109f8576109f7610962565b5b610a01826108c2565b9050602081019050919050565b82818337600083830152505050565b6000610a30610a2b846109dd565b6109c2565b905082815260208101848484011115610a4c57610a4b61095d565b5b610a57848285610a0e565b509392505050565b600082601f830112610a7457610a73610958565b5b8135610a84848260208601610a1d565b91505092915050565b60008060408385031215610aa457610aa36107bd565b5b600083013567ffffffffffffffff811115610ac257610ac16107c2565b5b610ace85828601610a5f565b9250506020610adf858286016107de565b9150509250929050565b7f4e487b7100000000000000000000000000000000000000000000000000000000600052602260045260246000fd5b60006002820490506001821680610b3057607f821691505b602082108103610b4357610b42610ae9565b5b50919050565b7f496e76616c69642070726f706572747920494400000000000000000000000000600082015250565b6000610b7f601383610887565b9150610b8a82610b49565b602082019050919050565b60006020820190508181036000830152610bae81610b72565b9050919050565b7f50726f7065727479206973206e6f7420617661696c61626c6500000000000000600082015250565b6000610beb601983610887565b9150610bf682610bb5565b602082019050919050565b60006020820190508181036000830152610c1a81610bde565b9050919050565b7f496e73756666696369656e742066756e64730000000000000000000000000000600082015250565b6000610c57601283610887565b9150610c6282610c21565b602082019050919050565b60006020820190508181036000830152610c8681610c4a565b9050919050565b600081905092915050565b50565b6000610ca8600083610c8d565b9150610cb382610c98565b600082019050919050565b6000610cc982610c9b565b9150819050919050565b7f5472616e73666572206661696c65640000000000000000000000000000000000600082015250565b6000610d09600f83610887565b9150610d1482610cd3565b602082019050919050565b60006020820190508181036000830152610d3881610cfc565b9050919050565b60008190508160005260206000209050919050565b60006020601f8301049050919050565b600082821b905092915050565b600060088302610da17fffffffffffffffffffffffffffffffffffffffffffffffffffffffffffffffff82610d64565b610dab8683610d64565b95508019841693508086168417925050509392505050565b6000819050919050565b6000610de8610de3610dde8461077f565b610dc3565b61077f565b9050919050565b6000819050919050565b610e0283610dcd565b610e16610e0e82610def565b848454610d71565b825550505050565b600090565b610e2b610e1e565b610e36818484610df9565b505050565b5b81811015610e5a57610e4f600082610e23565b600181019050610e3c565b5050565b601f821115610e9f57610e7081610d3f565b610e7984610d54565b81016020851015610e88578190505b610e9c610e9485610d54565b830182610e3b565b50505b505050565b600082821c905092915050565b6000610ec260001984600802610ea4565b1980831691505092915050565b6000610edb8383610eb1565b9150826002028217905092915050565b610ef48261087c565b67ffffffffffffffff811115610f0d57610f0c610962565b5b610f178254610b18565b610f22828285610e5e565b600060209050601f831160018114610f555760008415610f43578287015190505b610f4d8582610ecf565b865550610fb5565b601f198416610f6386610d3f565b60005b82811015610f8b57848901518255600182019150602085019450602081019050610f66565b86831015610fa85784890151610fa4601f891682610eb1565b8355505b6001600288020188555050505b505050505050565b60006040820190508181036000830152610fd781856108d3565b9050610fe66020830184610789565b9392505050565b7f4e487b7100000000000000000000000000000000000000000000000000000000600052601160045260246000fd5b60006110278261077f565b91507fffffffffffffffffffffffffffffffffffffffffffffffffffffffffffffffff820361105957611058610fed565b5b60018201905091905056fea264697066735822122036ccc7b1c6ddfd048df61b3850b50b349222ebccf6c4f1b72832775fe96e378664736f6c63430008120033",
					"opcodes": "PUSH1 0x80 PUSH1 0x40 MSTORE CALLVALUE DUP1 ISZERO PUSH2 0x10 JUMPI PUSH1 0x0 DUP1 REVERT JUMPDEST POP PUSH1 0x0 PUSH1 0x1 DUP2 SWAP1 SSTORE POP PUSH2 0x109A DUP1 PUSH2 0x28 PUSH1 0x0 CODECOPY PUSH1 0x0 RETURN INVALID PUSH1 0x80 PUSH1 0x40 MSTORE PUSH1 0x4 CALLDATASIZE LT PUSH2 0x4A JUMPI PUSH1 0x0 CALLDATALOAD PUSH1 0xE0 SHR DUP1 PUSH4 0xA15E8E6 EQ PUSH2 0x4F JUMPI DUP1 PUSH4 0x3E609373 EQ PUSH2 0x7A JUMPI DUP1 PUSH4 0x63A33B8C EQ PUSH2 0xBA JUMPI DUP1 PUSH4 0x79D9C439 EQ PUSH2 0xFA JUMPI DUP1 PUSH4 0xF54E1AEF EQ PUSH2 0x116 JUMPI JUMPDEST PUSH1 0x0 DUP1 REVERT JUMPDEST CALLVALUE DUP1 ISZERO PUSH2 0x5B JUMPI PUSH1 0x0 DUP1 REVERT JUMPDEST POP PUSH2 0x64 PUSH2 0x13F JUMP JUMPDEST PUSH1 0x40 MLOAD PUSH2 0x71 SWAP2 SWAP1 PUSH2 0x798 JUMP JUMPDEST PUSH1 0x40 MLOAD DUP1 SWAP2 SUB SWAP1 RETURN JUMPDEST CALLVALUE DUP1 ISZERO PUSH2 0x86 JUMPI PUSH1 0x0 DUP1 REVERT JUMPDEST POP PUSH2 0xA1 PUSH1 0x4 DUP1 CALLDATASIZE SUB DUP2 ADD SWAP1 PUSH2 0x9C SWAP2 SWAP1 PUSH2 0x7F3 JUMP JUMPDEST PUSH2 0x145 JUMP JUMPDEST PUSH1 0x40 MLOAD PUSH2 0xB1 SWAP5 SWAP4 SWAP3 SWAP2 SWAP1 PUSH2 0x90C JUMP JUMPDEST PUSH1 0x40 MLOAD DUP1 SWAP2 SUB SWAP1 RETURN JUMPDEST CALLVALUE DUP1 ISZERO PUSH2 0xC6 JUMPI PUSH1 0x0 DUP1 REVERT JUMPDEST POP PUSH2 0xE1 PUSH1 0x4 DUP1 CALLDATASIZE SUB DUP2 ADD SWAP1 PUSH2 0xDC SWAP2 SWAP1 PUSH2 0x7F3 JUMP JUMPDEST PUSH2 0x22A JUMP JUMPDEST PUSH1 0x40 MLOAD PUSH2 0xF1 SWAP5 SWAP4 SWAP3 SWAP2 SWAP1 PUSH2 0x90C JUMP JUMPDEST PUSH1 0x40 MLOAD DUP1 SWAP2 SUB SWAP1 RETURN JUMPDEST PUSH2 0x114 PUSH1 0x4 DUP1 CALLDATASIZE SUB DUP2 ADD SWAP1 PUSH2 0x10F SWAP2 SWAP1 PUSH2 0x7F3 JUMP JUMPDEST PUSH2 0x3C7 JUMP JUMPDEST STOP JUMPDEST CALLVALUE DUP1 ISZERO PUSH2 0x122 JUMPI PUSH1 0x0 DUP1 REVERT JUMPDEST POP PUSH2 0x13D PUSH1 0x4 DUP1 CALLDATASIZE SUB DUP2 ADD SWAP1 PUSH2 0x138 SWAP2 SWAP1 PUSH2 0xA8D JUMP JUMPDEST PUSH2 0x638 JUMP JUMPDEST STOP JUMPDEST PUSH1 0x1 SLOAD DUP2 JUMP JUMPDEST PUSH1 0x0 PUSH1 0x20 MSTORE DUP1 PUSH1 0x0 MSTORE PUSH1 0x40 PUSH1 0x0 KECCAK256 PUSH1 0x0 SWAP2 POP SWAP1 POP DUP1 PUSH1 0x0 ADD PUSH1 0x0 SWAP1 SLOAD SWAP1 PUSH2 0x100 EXP SWAP1 DIV PUSH20 0xFFFFFFFFFFFFFFFFFFFFFFFFFFFFFFFFFFFFFFFF AND SWAP1 DUP1 PUSH1 0x0 ADD PUSH1 0x14 SWAP1 SLOAD SWAP1 PUSH2 0x100 EXP SWAP1 DIV PUSH1 0xFF AND SWAP1 DUP1 PUSH1 0x1 ADD DUP1 SLOAD PUSH2 0x1A1 SWAP1 PUSH2 0xB18 JUMP JUMPDEST DUP1 PUSH1 0x1F ADD PUSH1 0x20 DUP1 SWAP2 DIV MUL PUSH1 0x20 ADD PUSH1 0x40 MLOAD SWAP1 DUP2 ADD PUSH1 0x40 MSTORE DUP1 SWAP3 SWAP2 SWAP1 DUP2 DUP2 MSTORE PUSH1 0x20 ADD DUP3 DUP1 SLOAD PUSH2 0x1CD SWAP1 PUSH2 0xB18 JUMP JUMPDEST DUP1 ISZERO PUSH2 0x21A JUMPI DUP1 PUSH1 0x1F LT PUSH2 0x1EF JUMPI PUSH2 0x100 DUP1 DUP4 SLOAD DIV MUL DUP4 MSTORE SWAP2 PUSH1 0x20 ADD SWAP2 PUSH2 0x21A JUMP JUMPDEST DUP3 ADD SWAP2 SWAP1 PUSH1 0x0 MSTORE PUSH1 0x20 PUSH1 0x0 KECCAK256 SWAP1 JUMPDEST DUP2 SLOAD DUP2 MSTORE SWAP1 PUSH1 0x1 ADD SWAP1 PUSH1 0x20 ADD DUP1 DUP4 GT PUSH2 0x1FD JUMPI DUP3 SWAP1 SUB PUSH1 0x1F AND DUP3 ADD SWAP2 JUMPDEST POP POP POP POP POP SWAP1 DUP1 PUSH1 0x2 ADD SLOAD SWAP1 POP DUP5 JUMP JUMPDEST PUSH1 0x0 DUP1 PUSH1 0x60 PUSH1 0x0 PUSH1 0x1 SLOAD DUP6 LT PUSH2 0x275 JUMPI PUSH1 0x40 MLOAD PUSH32 0x8C379A000000000000000000000000000000000000000000000000000000000 DUP2 MSTORE PUSH1 0x4 ADD PUSH2 0x26C SWAP1 PUSH2 0xB95 JUMP JUMPDEST PUSH1 0x40 MLOAD DUP1 SWAP2 SUB SWAP1 REVERT JUMPDEST PUSH1 0x0 DUP1 PUSH1 0x0 DUP8 DUP2 MSTORE PUSH1 0x20 ADD SWAP1 DUP2 MSTORE PUSH1 0x20 ADD PUSH1 0x0 KECCAK256 PUSH1 0x40 MLOAD DUP1 PUSH1 0x80 ADD PUSH1 0x40 MSTORE SWAP1 DUP2 PUSH1 0x0 DUP3 ADD PUSH1 0x0 SWAP1 SLOAD SWAP1 PUSH2 0x100 EXP SWAP1 DIV PUSH20 0xFFFFFFFFFFFFFFFFFFFFFFFFFFFFFFFFFFFFFFFF AND PUSH20 0xFFFFFFFFFFFFFFFFFFFFFFFFFFFFFFFFFFFFFFFF AND PUSH20 0xFFFFFFFFFFFFFFFFFFFFFFFFFFFFFFFFFFFFFFFF AND DUP2 MSTORE PUSH1 0x20 ADD PUSH1 0x0 DUP3 ADD PUSH1 0x14 SWAP1 SLOAD SWAP1 PUSH2 0x100 EXP SWAP1 DIV PUSH1 0xFF AND ISZERO ISZERO ISZERO ISZERO DUP2 MSTORE PUSH1 0x20 ADD PUSH1 0x1 DUP3 ADD DUP1 SLOAD PUSH2 0x315 SWAP1 PUSH2 0xB18 JUMP JUMPDEST DUP1 PUSH1 0x1F ADD PUSH1 0x20 DUP1 SWAP2 DIV MUL PUSH1 0x20 ADD PUSH1 0x40 MLOAD SWAP1 DUP2 ADD PUSH1 0x40 MSTORE DUP1 SWAP3 SWAP2 SWAP1 DUP2 DUP2 MSTORE PUSH1 0x20 ADD DUP3 DUP1 SLOAD PUSH2 0x341 SWAP1 PUSH2 0xB18 JUMP JUMPDEST DUP1 ISZERO PUSH2 0x38E JUMPI DUP1 PUSH1 0x1F LT PUSH2 0x363 JUMPI PUSH2 0x100 DUP1 DUP4 SLOAD DIV MUL DUP4 MSTORE SWAP2 PUSH1 0x20 ADD SWAP2 PUSH2 0x38E JUMP JUMPDEST DUP3 ADD SWAP2 SWAP1 PUSH1 0x0 MSTORE PUSH1 0x20 PUSH1 0x0 KECCAK256 SWAP1 JUMPDEST DUP2 SLOAD DUP2 MSTORE SWAP1 PUSH1 0x1 ADD SWAP1 PUSH1 0x20 ADD DUP1 DUP4 GT PUSH2 0x371 JUMPI DUP3 SWAP1 SUB PUSH1 0x1F AND DUP3 ADD SWAP2 JUMPDEST POP POP POP POP POP DUP2 MSTORE PUSH1 0x20 ADD PUSH1 0x2 DUP3 ADD SLOAD DUP2 MSTORE POP POP SWAP1 POP DUP1 PUSH1 0x0 ADD MLOAD SWAP5 POP DUP1 PUSH1 0x20 ADD MLOAD SWAP4 POP DUP1 PUSH1 0x40 ADD MLOAD SWAP3 POP DUP1 PUSH1 0x60 ADD MLOAD SWAP2 POP POP SWAP2 SWAP4 POP SWAP2 SWAP4 JUMP JUMPDEST PUSH1 0x1 SLOAD DUP2 LT PUSH2 0x40B JUMPI PUSH1 0x40 MLOAD PUSH32 0x8C379A000000000000000000000000000000000000000000000000000000000 DUP2 MSTORE PUSH1 0x4 ADD PUSH2 0x402 SWAP1 PUSH2 0xB95 JUMP JUMPDEST PUSH1 0x40 MLOAD DUP1 SWAP2 SUB SWAP1 REVERT JUMPDEST PUSH1 0x0 DUP1 PUSH1 0x0 DUP4 DUP2 MSTORE PUSH1 0x20 ADD SWAP1 DUP2 MSTORE PUSH1 0x20 ADD PUSH1 0x0 KECCAK256 SWAP1 POP DUP1 PUSH1 0x0 ADD PUSH1 0x14 SWAP1 SLOAD SWAP1 PUSH2 0x100 EXP SWAP1 DIV PUSH1 0xFF AND PUSH2 0x472 JUMPI PUSH1 0x40 MLOAD PUSH32 0x8C379A000000000000000000000000000000000000000000000000000000000 DUP2 MSTORE PUSH1 0x4 ADD PUSH2 0x469 SWAP1 PUSH2 0xC01 JUMP JUMPDEST PUSH1 0x40 MLOAD DUP1 SWAP2 SUB SWAP1 REVERT JUMPDEST DUP1 PUSH1 0x2 ADD SLOAD CALLVALUE LT ISZERO PUSH2 0x4B9 JUMPI PUSH1 0x40 MLOAD PUSH32 0x8C379A000000000000000000000000000000000000000000000000000000000 DUP2 MSTORE PUSH1 0x4 ADD PUSH2 0x4B0 SWAP1 PUSH2 0xC6D JUMP JUMPDEST PUSH1 0x40 MLOAD DUP1 SWAP2 SUB SWAP1 REVERT JUMPDEST PUSH1 0x0 DUP2 PUSH1 0x0 ADD PUSH1 0x0 SWAP1 SLOAD SWAP1 PUSH2 0x100 EXP SWAP1 DIV PUSH20 0xFFFFFFFFFFFFFFFFFFFFFFFFFFFFFFFFFFFFFFFF AND SWAP1 POP CALLER DUP3 PUSH1 0x0 ADD PUSH1 0x0 PUSH2 0x100 EXP DUP2 SLOAD DUP2 PUSH20 0xFFFFFFFFFFFFFFFFFFFFFFFFFFFFFFFFFFFFFFFF MUL NOT AND SWAP1 DUP4 PUSH20 0xFFFFFFFFFFFFFFFFFFFFFFFFFFFFFFFFFFFFFFFF AND MUL OR SWAP1 SSTORE POP PUSH1 0x0 DUP3 PUSH1 0x0 ADD PUSH1 0x14 PUSH2 0x100 EXP DUP2 SLOAD DUP2 PUSH1 0xFF MUL NOT AND SWAP1 DUP4 ISZERO ISZERO MUL OR SWAP1 SSTORE POP PUSH1 0x0 DUP2 PUSH20 0xFFFFFFFFFFFFFFFFFFFFFFFFFFFFFFFFFFFFFFFF AND CALLVALUE PUSH1 0x40 MLOAD PUSH2 0x568 SWAP1 PUSH2 0xCBE JUMP JUMPDEST PUSH1 0x0 PUSH1 0x40 MLOAD DUP1 DUP4 SUB DUP2 DUP6 DUP8 GAS CALL SWAP3 POP POP POP RETURNDATASIZE DUP1 PUSH1 0x0 DUP2 EQ PUSH2 0x5A5 JUMPI PUSH1 0x40 MLOAD SWAP2 POP PUSH1 0x1F NOT PUSH1 0x3F RETURNDATASIZE ADD AND DUP3 ADD PUSH1 0x40 MSTORE RETURNDATASIZE DUP3 MSTORE RETURNDATASIZE PUSH1 0x0 PUSH1 0x20 DUP5 ADD RETURNDATACOPY PUSH2 0x5AA JUMP JUMPDEST PUSH1 0x60 SWAP2 POP JUMPDEST POP POP SWAP1 POP DUP1 PUSH2 0x5EE JUMPI PUSH1 0x40 MLOAD PUSH32 0x8C379A000000000000000000000000000000000000000000000000000000000 DUP2 MSTORE PUSH1 0x4 ADD PUSH2 0x5E5 SWAP1 PUSH2 0xD1F JUMP JUMPDEST PUSH1 0x40 MLOAD DUP1 SWAP2 SUB SWAP1 REVERT JUMPDEST CALLER PUSH20 0xFFFFFFFFFFFFFFFFFFFFFFFFFFFFFFFFFFFFFFFF AND DUP5 PUSH32 0x2EE884E099289B2A1E146CEC54C3357CA82D951F7E05AC5580C69795F4967621 PUSH1 0x40 MLOAD PUSH1 0x40 MLOAD DUP1 SWAP2 SUB SWAP1 LOG3 POP POP POP POP JUMP JUMPDEST PUSH1 0x40 MLOAD DUP1 PUSH1 0x80 ADD PUSH1 0x40 MSTORE DUP1 CALLER PUSH20 0xFFFFFFFFFFFFFFFFFFFFFFFFFFFFFFFFFFFFFFFF AND DUP2 MSTORE PUSH1 0x20 ADD PUSH1 0x1 ISZERO ISZERO DUP2 MSTORE PUSH1 0x20 ADD DUP4 DUP2 MSTORE PUSH1 0x20 ADD DUP3 DUP2 MSTORE POP PUSH1 0x0 DUP1 PUSH1 0x1 SLOAD DUP2 MSTORE PUSH1 0x20 ADD SWAP1 DUP2 MSTORE PUSH1 0x20 ADD PUSH1 0x0 KECCAK256 PUSH1 0x0 DUP3 ADD MLOAD DUP2 PUSH1 0x0 ADD PUSH1 0x0 PUSH2 0x100 EXP DUP2 SLOAD DUP2 PUSH20 0xFFFFFFFFFFFFFFFFFFFFFFFFFFFFFFFFFFFFFFFF MUL NOT AND SWAP1 DUP4 PUSH20 0xFFFFFFFFFFFFFFFFFFFFFFFFFFFFFFFFFFFFFFFF AND MUL OR SWAP1 SSTORE POP PUSH1 0x20 DUP3 ADD MLOAD DUP2 PUSH1 0x0 ADD PUSH1 0x14 PUSH2 0x100 EXP DUP2 SLOAD DUP2 PUSH1 0xFF MUL NOT AND SWAP1 DUP4 ISZERO ISZERO MUL OR SWAP1 SSTORE POP PUSH1 0x40 DUP3 ADD MLOAD DUP2 PUSH1 0x1 ADD SWAP1 DUP2 PUSH2 0x702 SWAP2 SWAP1 PUSH2 0xEEB JUMP JUMPDEST POP PUSH1 0x60 DUP3 ADD MLOAD DUP2 PUSH1 0x2 ADD SSTORE SWAP1 POP POP CALLER PUSH20 0xFFFFFFFFFFFFFFFFFFFFFFFFFFFFFFFFFFFFFFFF AND PUSH1 0x1 SLOAD PUSH32 0x4EBAD2AEA85F9AD0F765671254AF2876940430A206FCF61F3A7C1FE110523566 DUP5 DUP5 PUSH1 0x40 MLOAD PUSH2 0x75B SWAP3 SWAP2 SWAP1 PUSH2 0xFBD JUMP JUMPDEST PUSH1 0x40 MLOAD DUP1 SWAP2 SUB SWAP1 LOG3 PUSH1 0x1 PUSH1 0x0 DUP2 SLOAD DUP1 SWAP3 SWAP2 SWAP1 PUSH2 0x776 SWAP1 PUSH2 0x101C JUMP JUMPDEST SWAP2 SWAP1 POP SSTORE POP POP POP JUMP JUMPDEST PUSH1 0x0 DUP2 SWAP1 POP SWAP2 SWAP1 POP JUMP JUMPDEST PUSH2 0x792 DUP2 PUSH2 0x77F JUMP JUMPDEST DUP3 MSTORE POP POP JUMP JUMPDEST PUSH1 0x0 PUSH1 0x20 DUP3 ADD SWAP1 POP PUSH2 0x7AD PUSH1 0x0 DUP4 ADD DUP5 PUSH2 0x789 JUMP JUMPDEST SWAP3 SWAP2 POP POP JUMP JUMPDEST PUSH1 0x0 PUSH1 0x40 MLOAD SWAP1 POP SWAP1 JUMP JUMPDEST PUSH1 0x0 DUP1 REVERT JUMPDEST PUSH1 0x0 DUP1 REVERT JUMPDEST PUSH2 0x7D0 DUP2 PUSH2 0x77F JUMP JUMPDEST DUP2 EQ PUSH2 0x7DB JUMPI PUSH1 0x0 DUP1 REVERT JUMPDEST POP JUMP JUMPDEST PUSH1 0x0 DUP2 CALLDATALOAD SWAP1 POP PUSH2 0x7ED DUP2 PUSH2 0x7C7 JUMP JUMPDEST SWAP3 SWAP2 POP POP JUMP JUMPDEST PUSH1 0x0 PUSH1 0x20 DUP3 DUP5 SUB SLT ISZERO PUSH2 0x809 JUMPI PUSH2 0x808 PUSH2 0x7BD JUMP JUMPDEST JUMPDEST PUSH1 0x0 PUSH2 0x817 DUP5 DUP3 DUP6 ADD PUSH2 0x7DE JUMP JUMPDEST SWAP2 POP POP SWAP3 SWAP2 POP POP JUMP JUMPDEST PUSH1 0x0 PUSH20 0xFFFFFFFFFFFFFFFFFFFFFFFFFFFFFFFFFFFFFFFF DUP3 AND SWAP1 POP SWAP2 SWAP1 POP JUMP JUMPDEST PUSH1 0x0 PUSH2 0x84B DUP3 PUSH2 0x820 JUMP JUMPDEST SWAP1 POP SWAP2 SWAP1 POP JUMP JUMPDEST PUSH2 0x85B DUP2 PUSH2 0x840 JUMP JUMPDEST DUP3 MSTORE POP POP JUMP JUMPDEST PUSH1 0x0 DUP2 ISZERO ISZERO SWAP1 POP SWAP2 SWAP1 POP JUMP JUMPDEST PUSH2 0x876 DUP2 PUSH2 0x861 JUMP JUMPDEST DUP3 MSTORE POP POP JUMP JUMPDEST PUSH1 0x0 DUP2 MLOAD SWAP1 POP SWAP2 SWAP1 POP JUMP JUMPDEST PUSH1 0x0 DUP3 DUP3 MSTORE PUSH1 0x20 DUP3 ADD SWAP1 POP SWAP3 SWAP2 POP POP JUMP JUMPDEST PUSH1 0x0 JUMPDEST DUP4 DUP2 LT ISZERO PUSH2 0x8B6 JUMPI DUP1 DUP3 ADD MLOAD DUP2 DUP5 ADD MSTORE PUSH1 0x20 DUP2 ADD SWAP1 POP PUSH2 0x89B JUMP JUMPDEST PUSH1 0x0 DUP5 DUP5 ADD MSTORE POP POP POP POP JUMP JUMPDEST PUSH1 0x0 PUSH1 0x1F NOT PUSH1 0x1F DUP4 ADD AND SWAP1 POP SWAP2 SWAP1 POP JUMP JUMPDEST PUSH1 0x0 PUSH2 0x8DE DUP3 PUSH2 0x87C JUMP JUMPDEST PUSH2 0x8E8 DUP2 DUP6 PUSH2 0x887 JUMP JUMPDEST SWAP4 POP PUSH2 0x8F8 DUP2 DUP6 PUSH1 0x20 DUP7 ADD PUSH2 0x898 JUMP JUMPDEST PUSH2 0x901 DUP2 PUSH2 0x8C2 JUMP JUMPDEST DUP5 ADD SWAP2 POP POP SWAP3 SWAP2 POP POP JUMP JUMPDEST PUSH1 0x0 PUSH1 0x80 DUP3 ADD SWAP1 POP PUSH2 0x921 PUSH1 0x0 DUP4 ADD DUP8 PUSH2 0x852 JUMP JUMPDEST PUSH2 0x92E PUSH1 0x20 DUP4 ADD DUP7 PUSH2 0x86D JUMP JUMPDEST DUP2 DUP2 SUB PUSH1 0x40 DUP4 ADD MSTORE PUSH2 0x940 DUP2 DUP6 PUSH2 0x8D3 JUMP JUMPDEST SWAP1 POP PUSH2 0x94F PUSH1 0x60 DUP4 ADD DUP5 PUSH2 0x789 JUMP JUMPDEST SWAP6 SWAP5 POP POP POP POP POP JUMP JUMPDEST PUSH1 0x0 DUP1 REVERT JUMPDEST PUSH1 0x0 DUP1 REVERT JUMPDEST PUSH32 0x4E487B7100000000000000000000000000000000000000000000000000000000 PUSH1 0x0 MSTORE PUSH1 0x41 PUSH1 0x4 MSTORE PUSH1 0x24 PUSH1 0x0 REVERT JUMPDEST PUSH2 0x99A DUP3 PUSH2 0x8C2 JUMP JUMPDEST DUP2 ADD DUP2 DUP2 LT PUSH8 0xFFFFFFFFFFFFFFFF DUP3 GT OR ISZERO PUSH2 0x9B9 JUMPI PUSH2 0x9B8 PUSH2 0x962 JUMP JUMPDEST JUMPDEST DUP1 PUSH1 0x40 MSTORE POP POP POP JUMP JUMPDEST PUSH1 0x0 PUSH2 0x9CC PUSH2 0x7B3 JUMP JUMPDEST SWAP1 POP PUSH2 0x9D8 DUP3 DUP3 PUSH2 0x991 JUMP JUMPDEST SWAP2 SWAP1 POP JUMP JUMPDEST PUSH1 0x0 PUSH8 0xFFFFFFFFFFFFFFFF DUP3 GT ISZERO PUSH2 0x9F8 JUMPI PUSH2 0x9F7 PUSH2 0x962 JUMP JUMPDEST JUMPDEST PUSH2 0xA01 DUP3 PUSH2 0x8C2 JUMP JUMPDEST SWAP1 POP PUSH1 0x20 DUP2 ADD SWAP1 POP SWAP2 SWAP1 POP JUMP JUMPDEST DUP3 DUP2 DUP4 CALLDATACOPY PUSH1 0x0 DUP4 DUP4 ADD MSTORE POP POP POP JUMP JUMPDEST PUSH1 0x0 PUSH2 0xA30 PUSH2 0xA2B DUP5 PUSH2 0x9DD JUMP JUMPDEST PUSH2 0x9C2 JUMP JUMPDEST SWAP1 POP DUP3 DUP2 MSTORE PUSH1 0x20 DUP2 ADD DUP5 DUP5 DUP5 ADD GT ISZERO PUSH2 0xA4C JUMPI PUSH2 0xA4B PUSH2 0x95D JUMP JUMPDEST JUMPDEST PUSH2 0xA57 DUP5 DUP3 DUP6 PUSH2 0xA0E JUMP JUMPDEST POP SWAP4 SWAP3 POP POP POP JUMP JUMPDEST PUSH1 0x0 DUP3 PUSH1 0x1F DUP4 ADD SLT PUSH2 0xA74 JUMPI PUSH2 0xA73 PUSH2 0x958 JUMP JUMPDEST JUMPDEST DUP2 CALLDATALOAD PUSH2 0xA84 DUP5 DUP3 PUSH1 0x20 DUP7 ADD PUSH2 0xA1D JUMP JUMPDEST SWAP2 POP POP SWAP3 SWAP2 POP POP JUMP JUMPDEST PUSH1 0x0 DUP1 PUSH1 0x40 DUP4 DUP6 SUB SLT ISZERO PUSH2 0xAA4 JUMPI PUSH2 0xAA3 PUSH2 0x7BD JUMP JUMPDEST JUMPDEST PUSH1 0x0 DUP4 ADD CALLDATALOAD PUSH8 0xFFFFFFFFFFFFFFFF DUP2 GT ISZERO PUSH2 0xAC2 JUMPI PUSH2 0xAC1 PUSH2 0x7C2 JUMP JUMPDEST JUMPDEST PUSH2 0xACE DUP6 DUP3 DUP7 ADD PUSH2 0xA5F JUMP JUMPDEST SWAP3 POP POP PUSH1 0x20 PUSH2 0xADF DUP6 DUP3 DUP7 ADD PUSH2 0x7DE JUMP JUMPDEST SWAP2 POP POP SWAP3 POP SWAP3 SWAP1 POP JUMP JUMPDEST PUSH32 0x4E487B7100000000000000000000000000000000000000000000000000000000 PUSH1 0x0 MSTORE PUSH1 0x22 PUSH1 0x4 MSTORE PUSH1 0x24 PUSH1 0x0 REVERT JUMPDEST PUSH1 0x0 PUSH1 0x2 DUP3 DIV SWAP1 POP PUSH1 0x1 DUP3 AND DUP1 PUSH2 0xB30 JUMPI PUSH1 0x7F DUP3 AND SWAP2 POP JUMPDEST PUSH1 0x20 DUP3 LT DUP2 SUB PUSH2 0xB43 JUMPI PUSH2 0xB42 PUSH2 0xAE9 JUMP JUMPDEST JUMPDEST POP SWAP2 SWAP1 POP JUMP JUMPDEST PUSH32 0x496E76616C69642070726F706572747920494400000000000000000000000000 PUSH1 0x0 DUP3 ADD MSTORE POP JUMP JUMPDEST PUSH1 0x0 PUSH2 0xB7F PUSH1 0x13 DUP4 PUSH2 0x887 JUMP JUMPDEST SWAP2 POP PUSH2 0xB8A DUP3 PUSH2 0xB49 JUMP JUMPDEST PUSH1 0x20 DUP3 ADD SWAP1 POP SWAP2 SWAP1 POP JUMP JUMPDEST PUSH1 0x0 PUSH1 0x20 DUP3 ADD SWAP1 POP DUP2 DUP2 SUB PUSH1 0x0 DUP4 ADD MSTORE PUSH2 0xBAE DUP2 PUSH2 0xB72 JUMP JUMPDEST SWAP1 POP SWAP2 SWAP1 POP JUMP JUMPDEST PUSH32 0x50726F7065727479206973206E6F7420617661696C61626C6500000000000000 PUSH1 0x0 DUP3 ADD MSTORE POP JUMP JUMPDEST PUSH1 0x0 PUSH2 0xBEB PUSH1 0x19 DUP4 PUSH2 0x887 JUMP JUMPDEST SWAP2 POP PUSH2 0xBF6 DUP3 PUSH2 0xBB5 JUMP JUMPDEST PUSH1 0x20 DUP3 ADD SWAP1 POP SWAP2 SWAP1 POP JUMP JUMPDEST PUSH1 0x0 PUSH1 0x20 DUP3 ADD SWAP1 POP DUP2 DUP2 SUB PUSH1 0x0 DUP4 ADD MSTORE PUSH2 0xC1A DUP2 PUSH2 0xBDE JUMP JUMPDEST SWAP1 POP SWAP2 SWAP1 POP JUMP JUMPDEST PUSH32 0x496E73756666696369656E742066756E64730000000000000000000000000000 PUSH1 0x0 DUP3 ADD MSTORE POP JUMP JUMPDEST PUSH1 0x0 PUSH2 0xC57 PUSH1 0x12 DUP4 PUSH2 0x887 JUMP JUMPDEST SWAP2 POP PUSH2 0xC62 DUP3 PUSH2 0xC21 JUMP JUMPDEST PUSH1 0x20 DUP3 ADD SWAP1 POP SWAP2 SWAP1 POP JUMP JUMPDEST PUSH1 0x0 PUSH1 0x20 DUP3 ADD SWAP1 POP DUP2 DUP2 SUB PUSH1 0x0 DUP4 ADD MSTORE PUSH2 0xC86 DUP2 PUSH2 0xC4A JUMP JUMPDEST SWAP1 POP SWAP2 SWAP1 POP JUMP JUMPDEST PUSH1 0x0 DUP2 SWAP1 POP SWAP3 SWAP2 POP POP JUMP JUMPDEST POP JUMP JUMPDEST PUSH1 0x0 PUSH2 0xCA8 PUSH1 0x0 DUP4 PUSH2 0xC8D JUMP JUMPDEST SWAP2 POP PUSH2 0xCB3 DUP3 PUSH2 0xC98 JUMP JUMPDEST PUSH1 0x0 DUP3 ADD SWAP1 POP SWAP2 SWAP1 POP JUMP JUMPDEST PUSH1 0x0 PUSH2 0xCC9 DUP3 PUSH2 0xC9B JUMP JUMPDEST SWAP2 POP DUP2 SWAP1 POP SWAP2 SWAP1 POP JUMP JUMPDEST PUSH32 0x5472616E73666572206661696C65640000000000000000000000000000000000 PUSH1 0x0 DUP3 ADD MSTORE POP JUMP JUMPDEST PUSH1 0x0 PUSH2 0xD09 PUSH1 0xF DUP4 PUSH2 0x887 JUMP JUMPDEST SWAP2 POP PUSH2 0xD14 DUP3 PUSH2 0xCD3 JUMP JUMPDEST PUSH1 0x20 DUP3 ADD SWAP1 POP SWAP2 SWAP1 POP JUMP JUMPDEST PUSH1 0x0 PUSH1 0x20 DUP3 ADD SWAP1 POP DUP2 DUP2 SUB PUSH1 0x0 DUP4 ADD MSTORE PUSH2 0xD38 DUP2 PUSH2 0xCFC JUMP JUMPDEST SWAP1 POP SWAP2 SWAP1 POP JUMP JUMPDEST PUSH1 0x0 DUP2 SWAP1 POP DUP2 PUSH1 0x0 MSTORE PUSH1 0x20 PUSH1 0x0 KECCAK256 SWAP1 POP SWAP2 SWAP1 POP JUMP JUMPDEST PUSH1 0x0 PUSH1 0x20 PUSH1 0x1F DUP4 ADD DIV SWAP1 POP SWAP2 SWAP1 POP JUMP JUMPDEST PUSH1 0x0 DUP3 DUP3 SHL SWAP1 POP SWAP3 SWAP2 POP POP JUMP JUMPDEST PUSH1 0x0 PUSH1 0x8 DUP4 MUL PUSH2 0xDA1 PUSH32 0xFFFFFFFFFFFFFFFFFFFFFFFFFFFFFFFFFFFFFFFFFFFFFFFFFFFFFFFFFFFFFFFF DUP3 PUSH2 0xD64 JUMP JUMPDEST PUSH2 0xDAB DUP7 DUP4 PUSH2 0xD64 JUMP JUMPDEST SWAP6 POP DUP1 NOT DUP5 AND SWAP4 POP DUP1 DUP7 AND DUP5 OR SWAP3 POP POP POP SWAP4 SWAP3 POP POP POP JUMP JUMPDEST PUSH1 0x0 DUP2 SWAP1 POP SWAP2 SWAP1 POP JUMP JUMPDEST PUSH1 0x0 PUSH2 0xDE8 PUSH2 0xDE3 PUSH2 0xDDE DUP5 PUSH2 0x77F JUMP JUMPDEST PUSH2 0xDC3 JUMP JUMPDEST PUSH2 0x77F JUMP JUMPDEST SWAP1 POP SWAP2 SWAP1 POP JUMP JUMPDEST PUSH1 0x0 DUP2 SWAP1 POP SWAP2 SWAP1 POP JUMP JUMPDEST PUSH2 0xE02 DUP4 PUSH2 0xDCD JUMP JUMPDEST PUSH2 0xE16 PUSH2 0xE0E DUP3 PUSH2 0xDEF JUMP JUMPDEST DUP5 DUP5 SLOAD PUSH2 0xD71 JUMP JUMPDEST DUP3 SSTORE POP POP POP POP JUMP JUMPDEST PUSH1 0x0 SWAP1 JUMP JUMPDEST PUSH2 0xE2B PUSH2 0xE1E JUMP JUMPDEST PUSH2 0xE36 DUP2 DUP5 DUP5 PUSH2 0xDF9 JUMP JUMPDEST POP POP POP JUMP JUMPDEST JUMPDEST DUP2 DUP2 LT ISZERO PUSH2 0xE5A JUMPI PUSH2 0xE4F PUSH1 0x0 DUP3 PUSH2 0xE23 JUMP JUMPDEST PUSH1 0x1 DUP2 ADD SWAP1 POP PUSH2 0xE3C JUMP JUMPDEST POP POP JUMP JUMPDEST PUSH1 0x1F DUP3 GT ISZERO PUSH2 0xE9F JUMPI PUSH2 0xE70 DUP2 PUSH2 0xD3F JUMP JUMPDEST PUSH2 0xE79 DUP5 PUSH2 0xD54 JUMP JUMPDEST DUP2 ADD PUSH1 0x20 DUP6 LT ISZERO PUSH2 0xE88 JUMPI DUP2 SWAP1 POP JUMPDEST PUSH2 0xE9C PUSH2 0xE94 DUP6 PUSH2 0xD54 JUMP JUMPDEST DUP4 ADD DUP3 PUSH2 0xE3B JUMP JUMPDEST POP POP JUMPDEST POP POP POP JUMP JUMPDEST PUSH1 0x0 DUP3 DUP3 SHR SWAP1 POP SWAP3 SWAP2 POP POP JUMP JUMPDEST PUSH1 0x0 PUSH2 0xEC2 PUSH1 0x0 NOT DUP5 PUSH1 0x8 MUL PUSH2 0xEA4 JUMP JUMPDEST NOT DUP1 DUP4 AND SWAP2 POP POP SWAP3 SWAP2 POP POP JUMP JUMPDEST PUSH1 0x0 PUSH2 0xEDB DUP4 DUP4 PUSH2 0xEB1 JUMP JUMPDEST SWAP2 POP DUP3 PUSH1 0x2 MUL DUP3 OR SWAP1 POP SWAP3 SWAP2 POP POP JUMP JUMPDEST PUSH2 0xEF4 DUP3 PUSH2 0x87C JUMP JUMPDEST PUSH8 0xFFFFFFFFFFFFFFFF DUP2 GT ISZERO PUSH2 0xF0D JUMPI PUSH2 0xF0C PUSH2 0x962 JUMP JUMPDEST JUMPDEST PUSH2 0xF17 DUP3 SLOAD PUSH2 0xB18 JUMP JUMPDEST PUSH2 0xF22 DUP3 DUP3 DUP6 PUSH2 0xE5E JUMP JUMPDEST PUSH1 0x0 PUSH1 0x20 SWAP1 POP PUSH1 0x1F DUP4 GT PUSH1 0x1 DUP2 EQ PUSH2 0xF55 JUMPI PUSH1 0x0 DUP5 ISZERO PUSH2 0xF43 JUMPI DUP3 DUP8 ADD MLOAD SWAP1 POP JUMPDEST PUSH2 0xF4D DUP6 DUP3 PUSH2 0xECF JUMP JUMPDEST DUP7 SSTORE POP PUSH2 0xFB5 JUMP JUMPDEST PUSH1 0x1F NOT DUP5 AND PUSH2 0xF63 DUP7 PUSH2 0xD3F JUMP JUMPDEST PUSH1 0x0 JUMPDEST DUP3 DUP2 LT ISZERO PUSH2 0xF8B JUMPI DUP5 DUP10 ADD MLOAD DUP3 SSTORE PUSH1 0x1 DUP3 ADD SWAP2 POP PUSH1 0x20 DUP6 ADD SWAP5 POP PUSH1 0x20 DUP2 ADD SWAP1 POP PUSH2 0xF66 JUMP JUMPDEST DUP7 DUP4 LT ISZERO PUSH2 0xFA8 JUMPI DUP5 DUP10 ADD MLOAD PUSH2 0xFA4 PUSH1 0x1F DUP10 AND DUP3 PUSH2 0xEB1 JUMP JUMPDEST DUP4 SSTORE POP JUMPDEST PUSH1 0x1 PUSH1 0x2 DUP9 MUL ADD DUP9 SSTORE POP POP POP JUMPDEST POP POP POP POP POP POP JUMP JUMPDEST PUSH1 0x0 PUSH1 0x40 DUP3 ADD SWAP1 POP DUP2 DUP2 SUB PUSH1 0x0 DUP4 ADD MSTORE PUSH2 0xFD7 DUP2 DUP6 PUSH2 0x8D3 JUMP JUMPDEST SWAP1 POP PUSH2 0xFE6 PUSH1 0x20 DUP4 ADD DUP5 PUSH2 0x789 JUMP JUMPDEST SWAP4 SWAP3 POP POP POP JUMP JUMPDEST PUSH32 0x4E487B7100000000000000000000000000000000000000000000000000000000 PUSH1 0x0 MSTORE PUSH1 0x11 PUSH1 0x4 MSTORE PUSH1 0x24 PUSH1 0x0 REVERT JUMPDEST PUSH1 0x0 PUSH2 0x1027 DUP3 PUSH2 0x77F JUMP JUMPDEST SWAP2 POP PUSH32 0xFFFFFFFFFFFFFFFFFFFFFFFFFFFFFFFFFFFFFFFFFFFFFFFFFFFFFFFFFFFFFFFF DUP3 SUB PUSH2 0x1059 JUMPI PUSH2 0x1058 PUSH2 0xFED JUMP JUMPDEST JUMPDEST PUSH1 0x1 DUP3 ADD SWAP1 POP SWAP2 SWAP1 POP JUMP INVALID LOG2 PUSH5 0x6970667358 0x22 SLT KECCAK256 CALLDATASIZE 0xCC 0xC7 0xB1 0xC6 0xDD REVERT DIV DUP14 0xF6 SHL CODESIZE POP 0xB5 SIGNEXTEND CALLVALUE SWAP3 0x22 0xEB 0xCC 0xF6 0xC4 CALL 0xB7 0x28 ORIGIN PUSH24 0x5FE96E378664736F6C634300081200330000000000000000 "
				},
				"gasEstimates": {
					"creation": {
						"codeDepositCost": "850000",
						"executionCost": "5897",
						"totalCost": "855897"
					},
					"external": {
						"Plots(uint256)": "infinite",
						"addProperty(string,uint256)": "infinite",
						"inquireProperty(uint256)": "infinite",
						"purchaseProperty(uint256)": "infinite",
						"totalNOfPlots()": "2407"
					}
				},
				"methodIdentifiers": {
					"Plots(uint256)": "3e609373",
					"addProperty(string,uint256)": "f54e1aef",
					"inquireProperty(uint256)": "63a33b8c",
					"purchaseProperty(uint256)": "79d9c439",
					"totalNOfPlots()": "0a15e8e6"
				}
			},
			"storageLayout": {
				"storage": [
					{
						"astId": 15,
						"contract": "inquiryandupdate.sol:PropertyInquiryAndSale",
						"label": "Plots",
						"offset": 0,
						"slot": "0",
						"type": "t_mapping(t_uint256,t_struct(Property)10_storage)"
					},
					{
						"astId": 17,
						"contract": "inquiryandupdate.sol:PropertyInquiryAndSale",
						"label": "totalNOfPlots",
						"offset": 0,
						"slot": "1",
						"type": "t_uint256"
					}
				],
				"types": {
					"t_address": {
						"encoding": "inplace",
						"label": "address",
						"numberOfBytes": "20"
					},
					"t_bool": {
						"encoding": "inplace",
						"label": "bool",
						"numberOfBytes": "1"
					},
					"t_mapping(t_uint256,t_struct(Property)10_storage)": {
						"encoding": "mapping",
						"key": "t_uint256",
						"label": "mapping(uint256 => struct PropertyInquiryAndSale.Property)",
						"numberOfBytes": "32",
						"value": "t_struct(Property)10_storage"
					},
					"t_string_storage": {
						"encoding": "bytes",
						"label": "string",
						"numberOfBytes": "32"
					},
					"t_struct(Property)10_storage": {
						"encoding": "inplace",
						"label": "struct PropertyInquiryAndSale.Property",
						"members": [
							{
								"astId": 3,
								"contract": "inquiryandupdate.sol:PropertyInquiryAndSale",
								"label": "owner",
								"offset": 0,
								"slot": "0",
								"type": "t_address"
							},
							{
								"astId": 5,
								"contract": "inquiryandupdate.sol:PropertyInquiryAndSale",
								"label": "isAvailable",
								"offset": 20,
								"slot": "0",
								"type": "t_bool"
							},
							{
								"astId": 7,
								"contract": "inquiryandupdate.sol:PropertyInquiryAndSale",
								"label": "location",
								"offset": 0,
								"slot": "1",
								"type": "t_string_storage"
							},
							{
								"astId": 9,
								"contract": "inquiryandupdate.sol:PropertyInquiryAndSale",
								"label": "price",
								"offset": 0,
								"slot": "2",
								"type": "t_uint256"
							}
						],
						"numberOfBytes": "96"
					},
					"t_uint256": {
						"encoding": "inplace",
						"label": "uint256",
						"numberOfBytes": "32"
					}
				}
			},
			"userdoc": {
				"kind": "user",
				"methods": {},
				"version": 1
			}
		}
	}
}