{
	"docter.sol": {
		"DoctorRecord": {
			"abi": [
				{
					"inputs": [
						{
							"internalType": "uint256",
							"name": "",
							"type": "uint256"
						}
					],
					"name": "record",
					"outputs": [
						{
							"internalType": "uint256",
							"name": "id",
							"type": "uint256"
						},
						{
							"internalType": "string",
							"name": "name",
							"type": "string"
						},
						{
							"internalType": "uint256",
							"name": "age",
							"type": "uint256"
						},
						{
							"internalType": "string",
							"name": "diagnosis",
							"type": "string"
						},
						{
							"internalType": "string",
							"name": "prescription",
							"type": "string"
						}
					],
					"stateMutability": "view",
					"type": "function"
				},
				{
					"inputs": [
						{
							"internalType": "uint256",
							"name": "_id",
							"type": "uint256"
						},
						{
							"internalType": "string",
							"name": "_name",
							"type": "string"
						},
						{
							"internalType": "uint256",
							"name": "_age",
							"type": "uint256"
						},
						{
							"internalType": "string",
							"name": "_diagnosis",
							"type": "string"
						},
						{
							"internalType": "string",
							"name": "_prescription",
							"type": "string"
						}
					],
					"name": "setter",
					"outputs": [],
					"stateMutability": "nonpayable",
					"type": "function"
				}
			],
			"devdoc": {
				"kind": "dev",
				"methods": {},
				"version": 1
			},
			"evm": {
				"assembly": "    /* \"docter.sol\":72:500  contract DoctorRecord {... */\n  mstore(0x40, 0x80)\n  callvalue\n  dup1\n  iszero\n  tag_1\n  jumpi\n  0x00\n  dup1\n  revert\ntag_1:\n  pop\n  dataSize(sub_0)\n  dup1\n  dataOffset(sub_0)\n  0x00\n  codecopy\n  0x00\n  return\nstop\n\nsub_0: assembly {\n        /* \"docter.sol\":72:500  contract DoctorRecord {... */\n      mstore(0x40, 0x80)\n      callvalue\n      dup1\n      iszero\n      tag_1\n      jumpi\n      0x00\n      dup1\n      revert\n    tag_1:\n      pop\n      jumpi(tag_2, lt(calldatasize, 0x04))\n      shr(0xe0, calldataload(0x00))\n      dup1\n      0x2c16cd8a\n      eq\n      tag_3\n      jumpi\n      dup1\n      0x4a466e9d\n      eq\n      tag_4\n      jumpi\n    tag_2:\n      0x00\n      dup1\n      revert\n        /* \"docter.sol\":251:287  mapping(uint=>Patient)public  record */\n    tag_3:\n      tag_5\n      0x04\n      dup1\n      calldatasize\n      sub\n      dup2\n      add\n      swap1\n      tag_6\n      swap2\n      swap1\n      tag_7\n      jump\t// in\n    tag_6:\n      tag_8\n      jump\t// in\n    tag_5:\n      mload(0x40)\n      tag_9\n      swap6\n      swap5\n      swap4\n      swap3\n      swap2\n      swap1\n      tag_10\n      jump\t// in\n    tag_9:\n      mload(0x40)\n      dup1\n      swap2\n      sub\n      swap1\n      return\n        /* \"docter.sol\":296:497  function setter(uint _id,string memory _name,uint _age,string memory _diagnosis,string memory _prescription)public ... */\n    tag_4:\n      tag_11\n      0x04\n      dup1\n      calldatasize\n      sub\n      dup2\n      add\n      swap1\n      tag_12\n      swap2\n      swap1\n      tag_13\n      jump\t// in\n    tag_12:\n      tag_14\n      jump\t// in\n    tag_11:\n      stop\n        /* \"docter.sol\":251:287  mapping(uint=>Patient)public  record */\n    tag_8:\n      mstore(0x20, 0x00)\n      dup1\n      0x00\n      mstore\n      keccak256(0x00, 0x40)\n      0x00\n      swap2\n      pop\n      swap1\n      pop\n      dup1\n      0x00\n      add\n      sload\n      swap1\n      dup1\n      0x01\n      add\n      dup1\n      sload\n      tag_15\n      swap1\n      tag_16\n      jump\t// in\n    tag_15:\n      dup1\n      0x1f\n      add\n      0x20\n      dup1\n      swap2\n      div\n      mul\n      0x20\n      add\n      mload(0x40)\n      swap1\n      dup2\n      add\n      0x40\n      mstore\n      dup1\n      swap3\n      swap2\n      swap1\n      dup2\n      dup2\n      mstore\n      0x20\n      add\n      dup3\n      dup1\n      sload\n      tag_17\n      swap1\n      tag_16\n      jump\t// in\n    tag_17:\n      dup1\n      iszero\n      tag_18\n      jumpi\n      dup1\n      0x1f\n      lt\n      tag_19\n      jumpi\n      0x0100\n      dup1\n      dup4\n      sload\n      div\n      mul\n      dup4\n      mstore\n      swap2\n      0x20\n      add\n      swap2\n      jump(tag_18)\n    tag_19:\n      dup3\n      add\n      swap2\n      swap1\n      0x00\n      mstore\n      keccak256(0x00, 0x20)\n      swap1\n    tag_20:\n      dup2\n      sload\n      dup2\n      mstore\n      swap1\n      0x01\n      add\n      swap1\n      0x20\n      add\n      dup1\n      dup4\n      gt\n      tag_20\n      jumpi\n      dup3\n      swap1\n      sub\n      0x1f\n      and\n      dup3\n      add\n      swap2\n    tag_18:\n      pop\n      pop\n      pop\n      pop\n      pop\n      swap1\n      dup1\n      0x02\n      add\n      sload\n      swap1\n      dup1\n      0x03\n      add\n      dup1\n      sload\n      tag_21\n      swap1\n      tag_16\n      jump\t// in\n    tag_21:\n      dup1\n      0x1f\n      add\n      0x20\n      dup1\n      swap2\n      div\n      mul\n      0x20\n      add\n      mload(0x40)\n      swap1\n      dup2\n      add\n      0x40\n      mstore\n      dup1\n      swap3\n      swap2\n      swap1\n      dup2\n      dup2\n      mstore\n      0x20\n      add\n      dup3\n      dup1\n      sload\n      tag_22\n      swap1\n      tag_16\n      jump\t// in\n    tag_22:\n      dup1\n      iszero\n      tag_23\n      jumpi\n      dup1\n      0x1f\n      lt\n      tag_24\n      jumpi\n      0x0100\n      dup1\n      dup4\n      sload\n      div\n      mul\n      dup4\n      mstore\n      swap2\n      0x20\n      add\n      swap2\n      jump(tag_23)\n    tag_24:\n      dup3\n      add\n      swap2\n      swap1\n      0x00\n      mstore\n      keccak256(0x00, 0x20)\n      swap1\n    tag_25:\n      dup2\n      sload\n      dup2\n      mstore\n      swap1\n      0x01\n      add\n      swap1\n      0x20\n      add\n      dup1\n      dup4\n      gt\n      tag_25\n      jumpi\n      dup3\n      swap1\n      sub\n      0x1f\n      and\n      dup3\n      add\n      swap2\n    tag_23:\n      pop\n      pop\n      pop\n      pop\n      pop\n      swap1\n      dup1\n      0x04\n      add\n      dup1\n      sload\n      tag_26\n      swap1\n      tag_16\n      jump\t// in\n    tag_26:\n      dup1\n      0x1f\n      add\n      0x20\n      dup1\n      swap2\n      div\n      mul\n      0x20\n      add\n      mload(0x40)\n      swap1\n      dup2\n      add\n      0x40\n      mstore\n      dup1\n      swap3\n      swap2\n      swap1\n      dup2\n      dup2\n      mstore\n      0x20\n      add\n      dup3\n      dup1\n      sload\n      tag_27\n      swap1\n      tag_16\n      jump\t// in\n    tag_27:\n      dup1\n      iszero\n      tag_28\n      jumpi\n      dup1\n      0x1f\n      lt\n      tag_29\n      jumpi\n      0x0100\n      dup1\n      dup4\n      sload\n      div\n      mul\n      dup4\n      mstore\n      swap2\n      0x20\n      add\n      swap2\n      jump(tag_28)\n    tag_29:\n      dup3\n      add\n      swap2\n      swap1\n      0x00\n      mstore\n      keccak256(0x00, 0x20)\n      swap1\n    tag_30:\n      dup2\n      sload\n      dup2\n      mstore\n      swap1\n      0x01\n      add\n      swap1\n      0x20\n      add\n      dup1\n      dup4\n      gt\n      tag_30\n      jumpi\n      dup3\n      swap1\n      sub\n      0x1f\n      and\n      dup3\n      add\n      swap2\n    tag_28:\n      pop\n      pop\n      pop\n      pop\n      pop\n      swap1\n      pop\n      dup6\n      jump\t// out\n        /* \"docter.sol\":296:497  function setter(uint _id,string memory _name,uint _age,string memory _diagnosis,string memory _prescription)public ... */\n    tag_14:\n        /* \"docter.sol\":441:489  Patient(_id,_name,_age,_diagnosis,_prescription) */\n      mload(0x40)\n      dup1\n      0xa0\n      add\n      0x40\n      mstore\n      dup1\n        /* \"docter.sol\":449:452  _id */\n      dup7\n        /* \"docter.sol\":441:489  Patient(_id,_name,_age,_diagnosis,_prescription) */\n      dup2\n      mstore\n      0x20\n      add\n        /* \"docter.sol\":453:458  _name */\n      dup6\n        /* \"docter.sol\":441:489  Patient(_id,_name,_age,_diagnosis,_prescription) */\n      dup2\n      mstore\n      0x20\n      add\n        /* \"docter.sol\":459:463  _age */\n      dup5\n        /* \"docter.sol\":441:489  Patient(_id,_name,_age,_diagnosis,_prescription) */\n      dup2\n      mstore\n      0x20\n      add\n        /* \"docter.sol\":464:474  _diagnosis */\n      dup4\n        /* \"docter.sol\":441:489  Patient(_id,_name,_age,_diagnosis,_prescription) */\n      dup2\n      mstore\n      0x20\n      add\n        /* \"docter.sol\":475:488  _prescription */\n      dup3\n        /* \"docter.sol\":441:489  Patient(_id,_name,_age,_diagnosis,_prescription) */\n      dup2\n      mstore\n      pop\n        /* \"docter.sol\":428:434  record */\n      0x00\n        /* \"docter.sol\":428:439  record[_id] */\n      dup1\n        /* \"docter.sol\":435:438  _id */\n      dup8\n        /* \"docter.sol\":428:439  record[_id] */\n      dup2\n      mstore\n      0x20\n      add\n      swap1\n      dup2\n      mstore\n      0x20\n      add\n      0x00\n      keccak256\n        /* \"docter.sol\":428:489  record[_id]= Patient(_id,_name,_age,_diagnosis,_prescription) */\n      0x00\n      dup3\n      add\n      mload\n      dup2\n      0x00\n      add\n      sstore\n      0x20\n      dup3\n      add\n      mload\n      dup2\n      0x01\n      add\n      swap1\n      dup2\n      tag_32\n      swap2\n      swap1\n      tag_33\n      jump\t// in\n    tag_32:\n      pop\n      0x40\n      dup3\n      add\n      mload\n      dup2\n      0x02\n      add\n      sstore\n      0x60\n      dup3\n      add\n      mload\n      dup2\n      0x03\n      add\n      swap1\n      dup2\n      tag_34\n      swap2\n      swap1\n      tag_33\n      jump\t// in\n    tag_34:\n      pop\n      0x80\n      dup3\n      add\n      mload\n      dup2\n      0x04\n      add\n      swap1\n      dup2\n      tag_35\n      swap2\n      swap1\n      tag_33\n      jump\t// in\n    tag_35:\n      pop\n      swap1\n      pop\n      pop\n        /* \"docter.sol\":296:497  function setter(uint _id,string memory _name,uint _age,string memory _diagnosis,string memory _prescription)public ... */\n      pop\n      pop\n      pop\n      pop\n      pop\n      jump\t// out\n        /* \"#utility.yul\":7:82   */\n    tag_36:\n        /* \"#utility.yul\":40:46   */\n      0x00\n        /* \"#utility.yul\":73:75   */\n      0x40\n        /* \"#utility.yul\":67:76   */\n      mload\n        /* \"#utility.yul\":57:76   */\n      swap1\n      pop\n        /* \"#utility.yul\":7:82   */\n      swap1\n      jump\t// out\n        /* \"#utility.yul\":88:205   */\n    tag_37:\n        /* \"#utility.yul\":197:198   */\n      0x00\n        /* \"#utility.yul\":194:195   */\n      dup1\n        /* \"#utility.yul\":187:199   */\n      revert\n        /* \"#utility.yul\":211:328   */\n    tag_38:\n        /* \"#utility.yul\":320:321   */\n      0x00\n        /* \"#utility.yul\":317:318   */\n      dup1\n        /* \"#utility.yul\":310:322   */\n      revert\n        /* \"#utility.yul\":334:411   */\n    tag_39:\n        /* \"#utility.yul\":371:378   */\n      0x00\n        /* \"#utility.yul\":400:405   */\n      dup2\n        /* \"#utility.yul\":389:405   */\n      swap1\n      pop\n        /* \"#utility.yul\":334:411   */\n      swap2\n      swap1\n      pop\n      jump\t// out\n        /* \"#utility.yul\":417:539   */\n    tag_40:\n        /* \"#utility.yul\":490:514   */\n      tag_79\n        /* \"#utility.yul\":508:513   */\n      dup2\n        /* \"#utility.yul\":490:514   */\n      tag_39\n      jump\t// in\n    tag_79:\n        /* \"#utility.yul\":483:488   */\n      dup2\n        /* \"#utility.yul\":480:515   */\n      eq\n        /* \"#utility.yul\":470:533   */\n      tag_80\n      jumpi\n        /* \"#utility.yul\":529:530   */\n      0x00\n        /* \"#utility.yul\":526:527   */\n      dup1\n        /* \"#utility.yul\":519:531   */\n      revert\n        /* \"#utility.yul\":470:533   */\n    tag_80:\n        /* \"#utility.yul\":417:539   */\n      pop\n      jump\t// out\n        /* \"#utility.yul\":545:684   */\n    tag_41:\n        /* \"#utility.yul\":591:596   */\n      0x00\n        /* \"#utility.yul\":629:635   */\n      dup2\n        /* \"#utility.yul\":616:636   */\n      calldataload\n        /* \"#utility.yul\":607:636   */\n      swap1\n      pop\n        /* \"#utility.yul\":645:678   */\n      tag_82\n        /* \"#utility.yul\":672:677   */\n      dup2\n        /* \"#utility.yul\":645:678   */\n      tag_40\n      jump\t// in\n    tag_82:\n        /* \"#utility.yul\":545:684   */\n      swap3\n      swap2\n      pop\n      pop\n      jump\t// out\n        /* \"#utility.yul\":690:1019   */\n    tag_7:\n        /* \"#utility.yul\":749:755   */\n      0x00\n        /* \"#utility.yul\":798:800   */\n      0x20\n        /* \"#utility.yul\":786:795   */\n      dup3\n        /* \"#utility.yul\":777:784   */\n      dup5\n        /* \"#utility.yul\":773:796   */\n      sub\n        /* \"#utility.yul\":769:801   */\n      slt\n        /* \"#utility.yul\":766:885   */\n      iszero\n      tag_84\n      jumpi\n        /* \"#utility.yul\":804:883   */\n      tag_85\n      tag_37\n      jump\t// in\n    tag_85:\n        /* \"#utility.yul\":766:885   */\n    tag_84:\n        /* \"#utility.yul\":924:925   */\n      0x00\n        /* \"#utility.yul\":949:1002   */\n      tag_86\n        /* \"#utility.yul\":994:1001   */\n      dup5\n        /* \"#utility.yul\":985:991   */\n      dup3\n        /* \"#utility.yul\":974:983   */\n      dup6\n        /* \"#utility.yul\":970:992   */\n      add\n        /* \"#utility.yul\":949:1002   */\n      tag_41\n      jump\t// in\n    tag_86:\n        /* \"#utility.yul\":939:1002   */\n      swap2\n      pop\n        /* \"#utility.yul\":895:1012   */\n      pop\n        /* \"#utility.yul\":690:1019   */\n      swap3\n      swap2\n      pop\n      pop\n      jump\t// out\n        /* \"#utility.yul\":1025:1143   */\n    tag_42:\n        /* \"#utility.yul\":1112:1136   */\n      tag_88\n        /* \"#utility.yul\":1130:1135   */\n      dup2\n        /* \"#utility.yul\":1112:1136   */\n      tag_39\n      jump\t// in\n    tag_88:\n        /* \"#utility.yul\":1107:1110   */\n      dup3\n        /* \"#utility.yul\":1100:1137   */\n      mstore\n        /* \"#utility.yul\":1025:1143   */\n      pop\n      pop\n      jump\t// out\n        /* \"#utility.yul\":1149:1248   */\n    tag_43:\n        /* \"#utility.yul\":1201:1207   */\n      0x00\n        /* \"#utility.yul\":1235:1240   */\n      dup2\n        /* \"#utility.yul\":1229:1241   */\n      mload\n        /* \"#utility.yul\":1219:1241   */\n      swap1\n      pop\n        /* \"#utility.yul\":1149:1248   */\n      swap2\n      swap1\n      pop\n      jump\t// out\n        /* \"#utility.yul\":1254:1423   */\n    tag_44:\n        /* \"#utility.yul\":1338:1349   */\n      0x00\n        /* \"#utility.yul\":1372:1378   */\n      dup3\n        /* \"#utility.yul\":1367:1370   */\n      dup3\n        /* \"#utility.yul\":1360:1379   */\n      mstore\n        /* \"#utility.yul\":1412:1416   */\n      0x20\n        /* \"#utility.yul\":1407:1410   */\n      dup3\n        /* \"#utility.yul\":1403:1417   */\n      add\n        /* \"#utility.yul\":1388:1417   */\n      swap1\n      pop\n        /* \"#utility.yul\":1254:1423   */\n      swap3\n      swap2\n      pop\n      pop\n      jump\t// out\n        /* \"#utility.yul\":1429:1675   */\n    tag_45:\n        /* \"#utility.yul\":1510:1511   */\n      0x00\n        /* \"#utility.yul\":1520:1633   */\n    tag_92:\n        /* \"#utility.yul\":1534:1540   */\n      dup4\n        /* \"#utility.yul\":1531:1532   */\n      dup2\n        /* \"#utility.yul\":1528:1541   */\n      lt\n        /* \"#utility.yul\":1520:1633   */\n      iszero\n      tag_94\n      jumpi\n        /* \"#utility.yul\":1619:1620   */\n      dup1\n        /* \"#utility.yul\":1614:1617   */\n      dup3\n        /* \"#utility.yul\":1610:1621   */\n      add\n        /* \"#utility.yul\":1604:1622   */\n      mload\n        /* \"#utility.yul\":1600:1601   */\n      dup2\n        /* \"#utility.yul\":1595:1598   */\n      dup5\n        /* \"#utility.yul\":1591:1602   */\n      add\n        /* \"#utility.yul\":1584:1623   */\n      mstore\n        /* \"#utility.yul\":1556:1558   */\n      0x20\n        /* \"#utility.yul\":1553:1554   */\n      dup2\n        /* \"#utility.yul\":1549:1559   */\n      add\n        /* \"#utility.yul\":1544:1559   */\n      swap1\n      pop\n        /* \"#utility.yul\":1520:1633   */\n      jump(tag_92)\n    tag_94:\n        /* \"#utility.yul\":1667:1668   */\n      0x00\n        /* \"#utility.yul\":1658:1664   */\n      dup5\n        /* \"#utility.yul\":1653:1656   */\n      dup5\n        /* \"#utility.yul\":1649:1665   */\n      add\n        /* \"#utility.yul\":1642:1669   */\n      mstore\n        /* \"#utility.yul\":1491:1675   */\n      pop\n        /* \"#utility.yul\":1429:1675   */\n      pop\n      pop\n      pop\n      jump\t// out\n        /* \"#utility.yul\":1681:1783   */\n    tag_46:\n        /* \"#utility.yul\":1722:1728   */\n      0x00\n        /* \"#utility.yul\":1773:1775   */\n      0x1f\n        /* \"#utility.yul\":1769:1776   */\n      not\n        /* \"#utility.yul\":1764:1766   */\n      0x1f\n        /* \"#utility.yul\":1757:1762   */\n      dup4\n        /* \"#utility.yul\":1753:1767   */\n      add\n        /* \"#utility.yul\":1749:1777   */\n      and\n        /* \"#utility.yul\":1739:1777   */\n      swap1\n      pop\n        /* \"#utility.yul\":1681:1783   */\n      swap2\n      swap1\n      pop\n      jump\t// out\n        /* \"#utility.yul\":1789:2166   */\n    tag_47:\n        /* \"#utility.yul\":1877:1880   */\n      0x00\n        /* \"#utility.yul\":1905:1944   */\n      tag_97\n        /* \"#utility.yul\":1938:1943   */\n      dup3\n        /* \"#utility.yul\":1905:1944   */\n      tag_43\n      jump\t// in\n    tag_97:\n        /* \"#utility.yul\":1960:2031   */\n      tag_98\n        /* \"#utility.yul\":2024:2030   */\n      dup2\n        /* \"#utility.yul\":2019:2022   */\n      dup6\n        /* \"#utility.yul\":1960:2031   */\n      tag_44\n      jump\t// in\n    tag_98:\n        /* \"#utility.yul\":1953:2031   */\n      swap4\n      pop\n        /* \"#utility.yul\":2040:2105   */\n      tag_99\n        /* \"#utility.yul\":2098:2104   */\n      dup2\n        /* \"#utility.yul\":2093:2096   */\n      dup6\n        /* \"#utility.yul\":2086:2090   */\n      0x20\n        /* \"#utility.yul\":2079:2084   */\n      dup7\n        /* \"#utility.yul\":2075:2091   */\n      add\n        /* \"#utility.yul\":2040:2105   */\n      tag_45\n      jump\t// in\n    tag_99:\n        /* \"#utility.yul\":2130:2159   */\n      tag_100\n        /* \"#utility.yul\":2152:2158   */\n      dup2\n        /* \"#utility.yul\":2130:2159   */\n      tag_46\n      jump\t// in\n    tag_100:\n        /* \"#utility.yul\":2125:2128   */\n      dup5\n        /* \"#utility.yul\":2121:2160   */\n      add\n        /* \"#utility.yul\":2114:2160   */\n      swap2\n      pop\n        /* \"#utility.yul\":1881:2166   */\n      pop\n        /* \"#utility.yul\":1789:2166   */\n      swap3\n      swap2\n      pop\n      pop\n      jump\t// out\n        /* \"#utility.yul\":2172:3109   */\n    tag_10:\n        /* \"#utility.yul\":2437:2441   */\n      0x00\n        /* \"#utility.yul\":2475:2478   */\n      0xa0\n        /* \"#utility.yul\":2464:2473   */\n      dup3\n        /* \"#utility.yul\":2460:2479   */\n      add\n        /* \"#utility.yul\":2452:2479   */\n      swap1\n      pop\n        /* \"#utility.yul\":2489:2560   */\n      tag_102\n        /* \"#utility.yul\":2557:2558   */\n      0x00\n        /* \"#utility.yul\":2546:2555   */\n      dup4\n        /* \"#utility.yul\":2542:2559   */\n      add\n        /* \"#utility.yul\":2533:2539   */\n      dup9\n        /* \"#utility.yul\":2489:2560   */\n      tag_42\n      jump\t// in\n    tag_102:\n        /* \"#utility.yul\":2607:2616   */\n      dup2\n        /* \"#utility.yul\":2601:2605   */\n      dup2\n        /* \"#utility.yul\":2597:2617   */\n      sub\n        /* \"#utility.yul\":2592:2594   */\n      0x20\n        /* \"#utility.yul\":2581:2590   */\n      dup4\n        /* \"#utility.yul\":2577:2595   */\n      add\n        /* \"#utility.yul\":2570:2618   */\n      mstore\n        /* \"#utility.yul\":2635:2713   */\n      tag_103\n        /* \"#utility.yul\":2708:2712   */\n      dup2\n        /* \"#utility.yul\":2699:2705   */\n      dup8\n        /* \"#utility.yul\":2635:2713   */\n      tag_47\n      jump\t// in\n    tag_103:\n        /* \"#utility.yul\":2627:2713   */\n      swap1\n      pop\n        /* \"#utility.yul\":2723:2795   */\n      tag_104\n        /* \"#utility.yul\":2791:2793   */\n      0x40\n        /* \"#utility.yul\":2780:2789   */\n      dup4\n        /* \"#utility.yul\":2776:2794   */\n      add\n        /* \"#utility.yul\":2767:2773   */\n      dup7\n        /* \"#utility.yul\":2723:2795   */\n      tag_42\n      jump\t// in\n    tag_104:\n        /* \"#utility.yul\":2842:2851   */\n      dup2\n        /* \"#utility.yul\":2836:2840   */\n      dup2\n        /* \"#utility.yul\":2832:2852   */\n      sub\n        /* \"#utility.yul\":2827:2829   */\n      0x60\n        /* \"#utility.yul\":2816:2825   */\n      dup4\n        /* \"#utility.yul\":2812:2830   */\n      add\n        /* \"#utility.yul\":2805:2853   */\n      mstore\n        /* \"#utility.yul\":2870:2948   */\n      tag_105\n        /* \"#utility.yul\":2943:2947   */\n      dup2\n        /* \"#utility.yul\":2934:2940   */\n      dup6\n        /* \"#utility.yul\":2870:2948   */\n      tag_47\n      jump\t// in\n    tag_105:\n        /* \"#utility.yul\":2862:2948   */\n      swap1\n      pop\n        /* \"#utility.yul\":2996:3005   */\n      dup2\n        /* \"#utility.yul\":2990:2994   */\n      dup2\n        /* \"#utility.yul\":2986:3006   */\n      sub\n        /* \"#utility.yul\":2980:2983   */\n      0x80\n        /* \"#utility.yul\":2969:2978   */\n      dup4\n        /* \"#utility.yul\":2965:2984   */\n      add\n        /* \"#utility.yul\":2958:3007   */\n      mstore\n        /* \"#utility.yul\":3024:3102   */\n      tag_106\n        /* \"#utility.yul\":3097:3101   */\n      dup2\n        /* \"#utility.yul\":3088:3094   */\n      dup5\n        /* \"#utility.yul\":3024:3102   */\n      tag_47\n      jump\t// in\n    tag_106:\n        /* \"#utility.yul\":3016:3102   */\n      swap1\n      pop\n        /* \"#utility.yul\":2172:3109   */\n      swap7\n      swap6\n      pop\n      pop\n      pop\n      pop\n      pop\n      pop\n      jump\t// out\n        /* \"#utility.yul\":3115:3232   */\n    tag_48:\n        /* \"#utility.yul\":3224:3225   */\n      0x00\n        /* \"#utility.yul\":3221:3222   */\n      dup1\n        /* \"#utility.yul\":3214:3226   */\n      revert\n        /* \"#utility.yul\":3238:3355   */\n    tag_49:\n        /* \"#utility.yul\":3347:3348   */\n      0x00\n        /* \"#utility.yul\":3344:3345   */\n      dup1\n        /* \"#utility.yul\":3337:3349   */\n      revert\n        /* \"#utility.yul\":3361:3541   */\n    tag_50:\n        /* \"#utility.yul\":3409:3486   */\n      0x4e487b7100000000000000000000000000000000000000000000000000000000\n        /* \"#utility.yul\":3406:3407   */\n      0x00\n        /* \"#utility.yul\":3399:3487   */\n      mstore\n        /* \"#utility.yul\":3506:3510   */\n      0x41\n        /* \"#utility.yul\":3503:3504   */\n      0x04\n        /* \"#utility.yul\":3496:3511   */\n      mstore\n        /* \"#utility.yul\":3530:3534   */\n      0x24\n        /* \"#utility.yul\":3527:3528   */\n      0x00\n        /* \"#utility.yul\":3520:3535   */\n      revert\n        /* \"#utility.yul\":3547:3828   */\n    tag_51:\n        /* \"#utility.yul\":3630:3657   */\n      tag_111\n        /* \"#utility.yul\":3652:3656   */\n      dup3\n        /* \"#utility.yul\":3630:3657   */\n      tag_46\n      jump\t// in\n    tag_111:\n        /* \"#utility.yul\":3622:3628   */\n      dup2\n        /* \"#utility.yul\":3618:3658   */\n      add\n        /* \"#utility.yul\":3760:3766   */\n      dup2\n        /* \"#utility.yul\":3748:3758   */\n      dup2\n        /* \"#utility.yul\":3745:3767   */\n      lt\n        /* \"#utility.yul\":3724:3742   */\n      0xffffffffffffffff\n        /* \"#utility.yul\":3712:3722   */\n      dup3\n        /* \"#utility.yul\":3709:3743   */\n      gt\n        /* \"#utility.yul\":3706:3768   */\n      or\n        /* \"#utility.yul\":3703:3791   */\n      iszero\n      tag_112\n      jumpi\n        /* \"#utility.yul\":3771:3789   */\n      tag_113\n      tag_50\n      jump\t// in\n    tag_113:\n        /* \"#utility.yul\":3703:3791   */\n    tag_112:\n        /* \"#utility.yul\":3811:3821   */\n      dup1\n        /* \"#utility.yul\":3807:3809   */\n      0x40\n        /* \"#utility.yul\":3800:3822   */\n      mstore\n        /* \"#utility.yul\":3590:3828   */\n      pop\n        /* \"#utility.yul\":3547:3828   */\n      pop\n      pop\n      jump\t// out\n        /* \"#utility.yul\":3834:3963   */\n    tag_52:\n        /* \"#utility.yul\":3868:3874   */\n      0x00\n        /* \"#utility.yul\":3895:3915   */\n      tag_115\n      tag_36\n      jump\t// in\n    tag_115:\n        /* \"#utility.yul\":3885:3915   */\n      swap1\n      pop\n        /* \"#utility.yul\":3924:3957   */\n      tag_116\n        /* \"#utility.yul\":3952:3956   */\n      dup3\n        /* \"#utility.yul\":3944:3950   */\n      dup3\n        /* \"#utility.yul\":3924:3957   */\n      tag_51\n      jump\t// in\n    tag_116:\n        /* \"#utility.yul\":3834:3963   */\n      swap2\n      swap1\n      pop\n      jump\t// out\n        /* \"#utility.yul\":3969:4277   */\n    tag_53:\n        /* \"#utility.yul\":4031:4035   */\n      0x00\n        /* \"#utility.yul\":4121:4139   */\n      0xffffffffffffffff\n        /* \"#utility.yul\":4113:4119   */\n      dup3\n        /* \"#utility.yul\":4110:4140   */\n      gt\n        /* \"#utility.yul\":4107:4163   */\n      iszero\n      tag_118\n      jumpi\n        /* \"#utility.yul\":4143:4161   */\n      tag_119\n      tag_50\n      jump\t// in\n    tag_119:\n        /* \"#utility.yul\":4107:4163   */\n    tag_118:\n        /* \"#utility.yul\":4181:4210   */\n      tag_120\n        /* \"#utility.yul\":4203:4209   */\n      dup3\n        /* \"#utility.yul\":4181:4210   */\n      tag_46\n      jump\t// in\n    tag_120:\n        /* \"#utility.yul\":4173:4210   */\n      swap1\n      pop\n        /* \"#utility.yul\":4265:4269   */\n      0x20\n        /* \"#utility.yul\":4259:4263   */\n      dup2\n        /* \"#utility.yul\":4255:4270   */\n      add\n        /* \"#utility.yul\":4247:4270   */\n      swap1\n      pop\n        /* \"#utility.yul\":3969:4277   */\n      swap2\n      swap1\n      pop\n      jump\t// out\n        /* \"#utility.yul\":4283:4429   */\n    tag_54:\n        /* \"#utility.yul\":4380:4386   */\n      dup3\n        /* \"#utility.yul\":4375:4378   */\n      dup2\n        /* \"#utility.yul\":4370:4373   */\n      dup4\n        /* \"#utility.yul\":4357:4387   */\n      calldatacopy\n        /* \"#utility.yul\":4421:4422   */\n      0x00\n        /* \"#utility.yul\":4412:4418   */\n      dup4\n        /* \"#utility.yul\":4407:4410   */\n      dup4\n        /* \"#utility.yul\":4403:4419   */\n      add\n        /* \"#utility.yul\":4396:4423   */\n      mstore\n        /* \"#utility.yul\":4283:4429   */\n      pop\n      pop\n      pop\n      jump\t// out\n        /* \"#utility.yul\":4435:4860   */\n    tag_55:\n        /* \"#utility.yul\":4513:4518   */\n      0x00\n        /* \"#utility.yul\":4538:4604   */\n      tag_123\n        /* \"#utility.yul\":4554:4603   */\n      tag_124\n        /* \"#utility.yul\":4596:4602   */\n      dup5\n        /* \"#utility.yul\":4554:4603   */\n      tag_53\n      jump\t// in\n    tag_124:\n        /* \"#utility.yul\":4538:4604   */\n      tag_52\n      jump\t// in\n    tag_123:\n        /* \"#utility.yul\":4529:4604   */\n      swap1\n      pop\n        /* \"#utility.yul\":4627:4633   */\n      dup3\n        /* \"#utility.yul\":4620:4625   */\n      dup2\n        /* \"#utility.yul\":4613:4634   */\n      mstore\n        /* \"#utility.yul\":4665:4669   */\n      0x20\n        /* \"#utility.yul\":4658:4663   */\n      dup2\n        /* \"#utility.yul\":4654:4670   */\n      add\n        /* \"#utility.yul\":4703:4706   */\n      dup5\n        /* \"#utility.yul\":4694:4700   */\n      dup5\n        /* \"#utility.yul\":4689:4692   */\n      dup5\n        /* \"#utility.yul\":4685:4701   */\n      add\n        /* \"#utility.yul\":4682:4707   */\n      gt\n        /* \"#utility.yul\":4679:4791   */\n      iszero\n      tag_125\n      jumpi\n        /* \"#utility.yul\":4710:4789   */\n      tag_126\n      tag_49\n      jump\t// in\n    tag_126:\n        /* \"#utility.yul\":4679:4791   */\n    tag_125:\n        /* \"#utility.yul\":4800:4854   */\n      tag_127\n        /* \"#utility.yul\":4847:4853   */\n      dup5\n        /* \"#utility.yul\":4842:4845   */\n      dup3\n        /* \"#utility.yul\":4837:4840   */\n      dup6\n        /* \"#utility.yul\":4800:4854   */\n      tag_54\n      jump\t// in\n    tag_127:\n        /* \"#utility.yul\":4519:4860   */\n      pop\n        /* \"#utility.yul\":4435:4860   */\n      swap4\n      swap3\n      pop\n      pop\n      pop\n      jump\t// out\n        /* \"#utility.yul\":4880:5220   */\n    tag_56:\n        /* \"#utility.yul\":4936:4941   */\n      0x00\n        /* \"#utility.yul\":4985:4988   */\n      dup3\n        /* \"#utility.yul\":4978:4982   */\n      0x1f\n        /* \"#utility.yul\":4970:4976   */\n      dup4\n        /* \"#utility.yul\":4966:4983   */\n      add\n        /* \"#utility.yul\":4962:4989   */\n      slt\n        /* \"#utility.yul\":4952:5074   */\n      tag_129\n      jumpi\n        /* \"#utility.yul\":4993:5072   */\n      tag_130\n      tag_48\n      jump\t// in\n    tag_130:\n        /* \"#utility.yul\":4952:5074   */\n    tag_129:\n        /* \"#utility.yul\":5110:5116   */\n      dup2\n        /* \"#utility.yul\":5097:5117   */\n      calldataload\n        /* \"#utility.yul\":5135:5214   */\n      tag_131\n        /* \"#utility.yul\":5210:5213   */\n      dup5\n        /* \"#utility.yul\":5202:5208   */\n      dup3\n        /* \"#utility.yul\":5195:5199   */\n      0x20\n        /* \"#utility.yul\":5187:5193   */\n      dup7\n        /* \"#utility.yul\":5183:5200   */\n      add\n        /* \"#utility.yul\":5135:5214   */\n      tag_55\n      jump\t// in\n    tag_131:\n        /* \"#utility.yul\":5126:5214   */\n      swap2\n      pop\n        /* \"#utility.yul\":4942:5220   */\n      pop\n        /* \"#utility.yul\":4880:5220   */\n      swap3\n      swap2\n      pop\n      pop\n      jump\t// out\n        /* \"#utility.yul\":5226:6677   */\n    tag_13:\n        /* \"#utility.yul\":5351:5357   */\n      0x00\n        /* \"#utility.yul\":5359:5365   */\n      dup1\n        /* \"#utility.yul\":5367:5373   */\n      0x00\n        /* \"#utility.yul\":5375:5381   */\n      dup1\n        /* \"#utility.yul\":5383:5389   */\n      0x00\n        /* \"#utility.yul\":5432:5435   */\n      0xa0\n        /* \"#utility.yul\":5420:5429   */\n      dup7\n        /* \"#utility.yul\":5411:5418   */\n      dup9\n        /* \"#utility.yul\":5407:5430   */\n      sub\n        /* \"#utility.yul\":5403:5436   */\n      slt\n        /* \"#utility.yul\":5400:5520   */\n      iszero\n      tag_133\n      jumpi\n        /* \"#utility.yul\":5439:5518   */\n      tag_134\n      tag_37\n      jump\t// in\n    tag_134:\n        /* \"#utility.yul\":5400:5520   */\n    tag_133:\n        /* \"#utility.yul\":5559:5560   */\n      0x00\n        /* \"#utility.yul\":5584:5637   */\n      tag_135\n        /* \"#utility.yul\":5629:5636   */\n      dup9\n        /* \"#utility.yul\":5620:5626   */\n      dup3\n        /* \"#utility.yul\":5609:5618   */\n      dup10\n        /* \"#utility.yul\":5605:5627   */\n      add\n        /* \"#utility.yul\":5584:5637   */\n      tag_41\n      jump\t// in\n    tag_135:\n        /* \"#utility.yul\":5574:5637   */\n      swap6\n      pop\n        /* \"#utility.yul\":5530:5647   */\n      pop\n        /* \"#utility.yul\":5714:5716   */\n      0x20\n        /* \"#utility.yul\":5703:5712   */\n      dup7\n        /* \"#utility.yul\":5699:5717   */\n      add\n        /* \"#utility.yul\":5686:5718   */\n      calldataload\n        /* \"#utility.yul\":5745:5763   */\n      0xffffffffffffffff\n        /* \"#utility.yul\":5737:5743   */\n      dup2\n        /* \"#utility.yul\":5734:5764   */\n      gt\n        /* \"#utility.yul\":5731:5848   */\n      iszero\n      tag_136\n      jumpi\n        /* \"#utility.yul\":5767:5846   */\n      tag_137\n      tag_38\n      jump\t// in\n    tag_137:\n        /* \"#utility.yul\":5731:5848   */\n    tag_136:\n        /* \"#utility.yul\":5872:5935   */\n      tag_138\n        /* \"#utility.yul\":5927:5934   */\n      dup9\n        /* \"#utility.yul\":5918:5924   */\n      dup3\n        /* \"#utility.yul\":5907:5916   */\n      dup10\n        /* \"#utility.yul\":5903:5925   */\n      add\n        /* \"#utility.yul\":5872:5935   */\n      tag_56\n      jump\t// in\n    tag_138:\n        /* \"#utility.yul\":5862:5935   */\n      swap5\n      pop\n        /* \"#utility.yul\":5657:5945   */\n      pop\n        /* \"#utility.yul\":5984:5986   */\n      0x40\n        /* \"#utility.yul\":6010:6063   */\n      tag_139\n        /* \"#utility.yul\":6055:6062   */\n      dup9\n        /* \"#utility.yul\":6046:6052   */\n      dup3\n        /* \"#utility.yul\":6035:6044   */\n      dup10\n        /* \"#utility.yul\":6031:6053   */\n      add\n        /* \"#utility.yul\":6010:6063   */\n      tag_41\n      jump\t// in\n    tag_139:\n        /* \"#utility.yul\":6000:6063   */\n      swap4\n      pop\n        /* \"#utility.yul\":5955:6073   */\n      pop\n        /* \"#utility.yul\":6140:6142   */\n      0x60\n        /* \"#utility.yul\":6129:6138   */\n      dup7\n        /* \"#utility.yul\":6125:6143   */\n      add\n        /* \"#utility.yul\":6112:6144   */\n      calldataload\n        /* \"#utility.yul\":6171:6189   */\n      0xffffffffffffffff\n        /* \"#utility.yul\":6163:6169   */\n      dup2\n        /* \"#utility.yul\":6160:6190   */\n      gt\n        /* \"#utility.yul\":6157:6274   */\n      iszero\n      tag_140\n      jumpi\n        /* \"#utility.yul\":6193:6272   */\n      tag_141\n      tag_38\n      jump\t// in\n    tag_141:\n        /* \"#utility.yul\":6157:6274   */\n    tag_140:\n        /* \"#utility.yul\":6298:6361   */\n      tag_142\n        /* \"#utility.yul\":6353:6360   */\n      dup9\n        /* \"#utility.yul\":6344:6350   */\n      dup3\n        /* \"#utility.yul\":6333:6342   */\n      dup10\n        /* \"#utility.yul\":6329:6351   */\n      add\n        /* \"#utility.yul\":6298:6361   */\n      tag_56\n      jump\t// in\n    tag_142:\n        /* \"#utility.yul\":6288:6361   */\n      swap3\n      pop\n        /* \"#utility.yul\":6083:6371   */\n      pop\n        /* \"#utility.yul\":6438:6441   */\n      0x80\n        /* \"#utility.yul\":6427:6436   */\n      dup7\n        /* \"#utility.yul\":6423:6442   */\n      add\n        /* \"#utility.yul\":6410:6443   */\n      calldataload\n        /* \"#utility.yul\":6470:6488   */\n      0xffffffffffffffff\n        /* \"#utility.yul\":6462:6468   */\n      dup2\n        /* \"#utility.yul\":6459:6489   */\n      gt\n        /* \"#utility.yul\":6456:6573   */\n      iszero\n      tag_143\n      jumpi\n        /* \"#utility.yul\":6492:6571   */\n      tag_144\n      tag_38\n      jump\t// in\n    tag_144:\n        /* \"#utility.yul\":6456:6573   */\n    tag_143:\n        /* \"#utility.yul\":6597:6660   */\n      tag_145\n        /* \"#utility.yul\":6652:6659   */\n      dup9\n        /* \"#utility.yul\":6643:6649   */\n      dup3\n        /* \"#utility.yul\":6632:6641   */\n      dup10\n        /* \"#utility.yul\":6628:6650   */\n      add\n        /* \"#utility.yul\":6597:6660   */\n      tag_56\n      jump\t// in\n    tag_145:\n        /* \"#utility.yul\":6587:6660   */\n      swap2\n      pop\n        /* \"#utility.yul\":6381:6670   */\n      pop\n        /* \"#utility.yul\":5226:6677   */\n      swap3\n      swap6\n      pop\n      swap3\n      swap6\n      swap1\n      swap4\n      pop\n      jump\t// out\n        /* \"#utility.yul\":6683:6863   */\n    tag_57:\n        /* \"#utility.yul\":6731:6808   */\n      0x4e487b7100000000000000000000000000000000000000000000000000000000\n        /* \"#utility.yul\":6728:6729   */\n      0x00\n        /* \"#utility.yul\":6721:6809   */\n      mstore\n        /* \"#utility.yul\":6828:6832   */\n      0x22\n        /* \"#utility.yul\":6825:6826   */\n      0x04\n        /* \"#utility.yul\":6818:6833   */\n      mstore\n        /* \"#utility.yul\":6852:6856   */\n      0x24\n        /* \"#utility.yul\":6849:6850   */\n      0x00\n        /* \"#utility.yul\":6842:6857   */\n      revert\n        /* \"#utility.yul\":6869:7189   */\n    tag_16:\n        /* \"#utility.yul\":6913:6919   */\n      0x00\n        /* \"#utility.yul\":6950:6951   */\n      0x02\n        /* \"#utility.yul\":6944:6948   */\n      dup3\n        /* \"#utility.yul\":6940:6952   */\n      div\n        /* \"#utility.yul\":6930:6952   */\n      swap1\n      pop\n        /* \"#utility.yul\":6997:6998   */\n      0x01\n        /* \"#utility.yul\":6991:6995   */\n      dup3\n        /* \"#utility.yul\":6987:6999   */\n      and\n        /* \"#utility.yul\":7018:7036   */\n      dup1\n        /* \"#utility.yul\":7008:7089   */\n      tag_148\n      jumpi\n        /* \"#utility.yul\":7074:7078   */\n      0x7f\n        /* \"#utility.yul\":7066:7072   */\n      dup3\n        /* \"#utility.yul\":7062:7079   */\n      and\n        /* \"#utility.yul\":7052:7079   */\n      swap2\n      pop\n        /* \"#utility.yul\":7008:7089   */\n    tag_148:\n        /* \"#utility.yul\":7136:7138   */\n      0x20\n        /* \"#utility.yul\":7128:7134   */\n      dup3\n        /* \"#utility.yul\":7125:7139   */\n      lt\n        /* \"#utility.yul\":7105:7123   */\n      dup2\n        /* \"#utility.yul\":7102:7140   */\n      sub\n        /* \"#utility.yul\":7099:7183   */\n      tag_149\n      jumpi\n        /* \"#utility.yul\":7155:7173   */\n      tag_150\n      tag_57\n      jump\t// in\n    tag_150:\n        /* \"#utility.yul\":7099:7183   */\n    tag_149:\n        /* \"#utility.yul\":6920:7189   */\n      pop\n        /* \"#utility.yul\":6869:7189   */\n      swap2\n      swap1\n      pop\n      jump\t// out\n        /* \"#utility.yul\":7195:7336   */\n    tag_58:\n        /* \"#utility.yul\":7244:7248   */\n      0x00\n        /* \"#utility.yul\":7267:7270   */\n      dup2\n        /* \"#utility.yul\":7259:7270   */\n      swap1\n      pop\n        /* \"#utility.yul\":7290:7293   */\n      dup2\n        /* \"#utility.yul\":7287:7288   */\n      0x00\n        /* \"#utility.yul\":7280:7294   */\n      mstore\n        /* \"#utility.yul\":7324:7328   */\n      0x20\n        /* \"#utility.yul\":7321:7322   */\n      0x00\n        /* \"#utility.yul\":7311:7329   */\n      keccak256\n        /* \"#utility.yul\":7303:7329   */\n      swap1\n      pop\n        /* \"#utility.yul\":7195:7336   */\n      swap2\n      swap1\n      pop\n      jump\t// out\n        /* \"#utility.yul\":7342:7435   */\n    tag_59:\n        /* \"#utility.yul\":7379:7385   */\n      0x00\n        /* \"#utility.yul\":7426:7428   */\n      0x20\n        /* \"#utility.yul\":7421:7423   */\n      0x1f\n        /* \"#utility.yul\":7414:7419   */\n      dup4\n        /* \"#utility.yul\":7410:7424   */\n      add\n        /* \"#utility.yul\":7406:7429   */\n      div\n        /* \"#utility.yul\":7396:7429   */\n      swap1\n      pop\n        /* \"#utility.yul\":7342:7435   */\n      swap2\n      swap1\n      pop\n      jump\t// out\n        /* \"#utility.yul\":7441:7548   */\n    tag_60:\n        /* \"#utility.yul\":7485:7493   */\n      0x00\n        /* \"#utility.yul\":7535:7540   */\n      dup3\n        /* \"#utility.yul\":7529:7533   */\n      dup3\n        /* \"#utility.yul\":7525:7541   */\n      shl\n        /* \"#utility.yul\":7504:7541   */\n      swap1\n      pop\n        /* \"#utility.yul\":7441:7548   */\n      swap3\n      swap2\n      pop\n      pop\n      jump\t// out\n        /* \"#utility.yul\":7554:7947   */\n    tag_61:\n        /* \"#utility.yul\":7623:7629   */\n      0x00\n        /* \"#utility.yul\":7673:7674   */\n      0x08\n        /* \"#utility.yul\":7661:7671   */\n      dup4\n        /* \"#utility.yul\":7657:7675   */\n      mul\n        /* \"#utility.yul\":7696:7793   */\n      tag_155\n        /* \"#utility.yul\":7726:7792   */\n      0xffffffffffffffffffffffffffffffffffffffffffffffffffffffffffffffff\n        /* \"#utility.yul\":7715:7724   */\n      dup3\n        /* \"#utility.yul\":7696:7793   */\n      tag_60\n      jump\t// in\n    tag_155:\n        /* \"#utility.yul\":7814:7853   */\n      tag_156\n        /* \"#utility.yul\":7844:7852   */\n      dup7\n        /* \"#utility.yul\":7833:7842   */\n      dup4\n        /* \"#utility.yul\":7814:7853   */\n      tag_60\n      jump\t// in\n    tag_156:\n        /* \"#utility.yul\":7802:7853   */\n      swap6\n      pop\n        /* \"#utility.yul\":7886:7890   */\n      dup1\n        /* \"#utility.yul\":7882:7891   */\n      not\n        /* \"#utility.yul\":7875:7880   */\n      dup5\n        /* \"#utility.yul\":7871:7892   */\n      and\n        /* \"#utility.yul\":7862:7892   */\n      swap4\n      pop\n        /* \"#utility.yul\":7935:7939   */\n      dup1\n        /* \"#utility.yul\":7925:7933   */\n      dup7\n        /* \"#utility.yul\":7921:7940   */\n      and\n        /* \"#utility.yul\":7914:7919   */\n      dup5\n        /* \"#utility.yul\":7911:7941   */\n      or\n        /* \"#utility.yul\":7901:7941   */\n      swap3\n      pop\n        /* \"#utility.yul\":7630:7947   */\n      pop\n      pop\n        /* \"#utility.yul\":7554:7947   */\n      swap4\n      swap3\n      pop\n      pop\n      pop\n      jump\t// out\n        /* \"#utility.yul\":7953:8013   */\n    tag_62:\n        /* \"#utility.yul\":7981:7984   */\n      0x00\n        /* \"#utility.yul\":8002:8007   */\n      dup2\n        /* \"#utility.yul\":7995:8007   */\n      swap1\n      pop\n        /* \"#utility.yul\":7953:8013   */\n      swap2\n      swap1\n      pop\n      jump\t// out\n        /* \"#utility.yul\":8019:8161   */\n    tag_63:\n        /* \"#utility.yul\":8069:8078   */\n      0x00\n        /* \"#utility.yul\":8102:8155   */\n      tag_159\n        /* \"#utility.yul\":8120:8154   */\n      tag_160\n        /* \"#utility.yul\":8129:8153   */\n      tag_161\n        /* \"#utility.yul\":8147:8152   */\n      dup5\n        /* \"#utility.yul\":8129:8153   */\n      tag_39\n      jump\t// in\n    tag_161:\n        /* \"#utility.yul\":8120:8154   */\n      tag_62\n      jump\t// in\n    tag_160:\n        /* \"#utility.yul\":8102:8155   */\n      tag_39\n      jump\t// in\n    tag_159:\n        /* \"#utility.yul\":8089:8155   */\n      swap1\n      pop\n        /* \"#utility.yul\":8019:8161   */\n      swap2\n      swap1\n      pop\n      jump\t// out\n        /* \"#utility.yul\":8167:8242   */\n    tag_64:\n        /* \"#utility.yul\":8210:8213   */\n      0x00\n        /* \"#utility.yul\":8231:8236   */\n      dup2\n        /* \"#utility.yul\":8224:8236   */\n      swap1\n      pop\n        /* \"#utility.yul\":8167:8242   */\n      swap2\n      swap1\n      pop\n      jump\t// out\n        /* \"#utility.yul\":8248:8517   */\n    tag_65:\n        /* \"#utility.yul\":8358:8397   */\n      tag_164\n        /* \"#utility.yul\":8389:8396   */\n      dup4\n        /* \"#utility.yul\":8358:8397   */\n      tag_63\n      jump\t// in\n    tag_164:\n        /* \"#utility.yul\":8419:8510   */\n      tag_165\n        /* \"#utility.yul\":8468:8509   */\n      tag_166\n        /* \"#utility.yul\":8492:8508   */\n      dup3\n        /* \"#utility.yul\":8468:8509   */\n      tag_64\n      jump\t// in\n    tag_166:\n        /* \"#utility.yul\":8460:8466   */\n      dup5\n        /* \"#utility.yul\":8453:8457   */\n      dup5\n        /* \"#utility.yul\":8447:8458   */\n      sload\n        /* \"#utility.yul\":8419:8510   */\n      tag_61\n      jump\t// in\n    tag_165:\n        /* \"#utility.yul\":8413:8417   */\n      dup3\n        /* \"#utility.yul\":8406:8511   */\n      sstore\n        /* \"#utility.yul\":8324:8517   */\n      pop\n        /* \"#utility.yul\":8248:8517   */\n      pop\n      pop\n      pop\n      jump\t// out\n        /* \"#utility.yul\":8523:8596   */\n    tag_66:\n        /* \"#utility.yul\":8568:8571   */\n      0x00\n        /* \"#utility.yul\":8523:8596   */\n      swap1\n      jump\t// out\n        /* \"#utility.yul\":8602:8791   */\n    tag_67:\n        /* \"#utility.yul\":8679:8711   */\n      tag_169\n      tag_66\n      jump\t// in\n    tag_169:\n        /* \"#utility.yul\":8720:8785   */\n      tag_170\n        /* \"#utility.yul\":8778:8784   */\n      dup2\n        /* \"#utility.yul\":8770:8776   */\n      dup5\n        /* \"#utility.yul\":8764:8768   */\n      dup5\n        /* \"#utility.yul\":8720:8785   */\n      tag_65\n      jump\t// in\n    tag_170:\n        /* \"#utility.yul\":8655:8791   */\n      pop\n        /* \"#utility.yul\":8602:8791   */\n      pop\n      pop\n      jump\t// out\n        /* \"#utility.yul\":8797:8983   */\n    tag_68:\n        /* \"#utility.yul\":8857:8977   */\n    tag_172:\n        /* \"#utility.yul\":8874:8877   */\n      dup2\n        /* \"#utility.yul\":8867:8872   */\n      dup2\n        /* \"#utility.yul\":8864:8878   */\n      lt\n        /* \"#utility.yul\":8857:8977   */\n      iszero\n      tag_174\n      jumpi\n        /* \"#utility.yul\":8928:8967   */\n      tag_175\n        /* \"#utility.yul\":8965:8966   */\n      0x00\n        /* \"#utility.yul\":8958:8963   */\n      dup3\n        /* \"#utility.yul\":8928:8967   */\n      tag_67\n      jump\t// in\n    tag_175:\n        /* \"#utility.yul\":8901:8902   */\n      0x01\n        /* \"#utility.yul\":8894:8899   */\n      dup2\n        /* \"#utility.yul\":8890:8903   */\n      add\n        /* \"#utility.yul\":8881:8903   */\n      swap1\n      pop\n        /* \"#utility.yul\":8857:8977   */\n      jump(tag_172)\n    tag_174:\n        /* \"#utility.yul\":8797:8983   */\n      pop\n      pop\n      jump\t// out\n        /* \"#utility.yul\":8989:9532   */\n    tag_69:\n        /* \"#utility.yul\":9090:9092   */\n      0x1f\n        /* \"#utility.yul\":9085:9088   */\n      dup3\n        /* \"#utility.yul\":9082:9093   */\n      gt\n        /* \"#utility.yul\":9079:9525   */\n      iszero\n      tag_177\n      jumpi\n        /* \"#utility.yul\":9124:9162   */\n      tag_178\n        /* \"#utility.yul\":9156:9161   */\n      dup2\n        /* \"#utility.yul\":9124:9162   */\n      tag_58\n      jump\t// in\n    tag_178:\n        /* \"#utility.yul\":9208:9237   */\n      tag_179\n        /* \"#utility.yul\":9226:9236   */\n      dup5\n        /* \"#utility.yul\":9208:9237   */\n      tag_59\n      jump\t// in\n    tag_179:\n        /* \"#utility.yul\":9198:9206   */\n      dup2\n        /* \"#utility.yul\":9194:9238   */\n      add\n        /* \"#utility.yul\":9391:9393   */\n      0x20\n        /* \"#utility.yul\":9379:9389   */\n      dup6\n        /* \"#utility.yul\":9376:9394   */\n      lt\n        /* \"#utility.yul\":9373:9422   */\n      iszero\n      tag_180\n      jumpi\n        /* \"#utility.yul\":9412:9420   */\n      dup2\n        /* \"#utility.yul\":9397:9420   */\n      swap1\n      pop\n        /* \"#utility.yul\":9373:9422   */\n    tag_180:\n        /* \"#utility.yul\":9435:9515   */\n      tag_181\n        /* \"#utility.yul\":9491:9513   */\n      tag_182\n        /* \"#utility.yul\":9509:9512   */\n      dup6\n        /* \"#utility.yul\":9491:9513   */\n      tag_59\n      jump\t// in\n    tag_182:\n        /* \"#utility.yul\":9481:9489   */\n      dup4\n        /* \"#utility.yul\":9477:9514   */\n      add\n        /* \"#utility.yul\":9464:9475   */\n      dup3\n        /* \"#utility.yul\":9435:9515   */\n      tag_68\n      jump\t// in\n    tag_181:\n        /* \"#utility.yul\":9094:9525   */\n      pop\n      pop\n        /* \"#utility.yul\":9079:9525   */\n    tag_177:\n        /* \"#utility.yul\":8989:9532   */\n      pop\n      pop\n      pop\n      jump\t// out\n        /* \"#utility.yul\":9538:9655   */\n    tag_70:\n        /* \"#utility.yul\":9592:9600   */\n      0x00\n        /* \"#utility.yul\":9642:9647   */\n      dup3\n        /* \"#utility.yul\":9636:9640   */\n      dup3\n        /* \"#utility.yul\":9632:9648   */\n      shr\n        /* \"#utility.yul\":9611:9648   */\n      swap1\n      pop\n        /* \"#utility.yul\":9538:9655   */\n      swap3\n      swap2\n      pop\n      pop\n      jump\t// out\n        /* \"#utility.yul\":9661:9830   */\n    tag_71:\n        /* \"#utility.yul\":9705:9711   */\n      0x00\n        /* \"#utility.yul\":9738:9789   */\n      tag_185\n        /* \"#utility.yul\":9786:9787   */\n      0x00\n        /* \"#utility.yul\":9782:9788   */\n      not\n        /* \"#utility.yul\":9774:9779   */\n      dup5\n        /* \"#utility.yul\":9771:9772   */\n      0x08\n        /* \"#utility.yul\":9767:9780   */\n      mul\n        /* \"#utility.yul\":9738:9789   */\n      tag_70\n      jump\t// in\n    tag_185:\n        /* \"#utility.yul\":9734:9790   */\n      not\n        /* \"#utility.yul\":9819:9823   */\n      dup1\n        /* \"#utility.yul\":9813:9817   */\n      dup4\n        /* \"#utility.yul\":9809:9824   */\n      and\n        /* \"#utility.yul\":9799:9824   */\n      swap2\n      pop\n        /* \"#utility.yul\":9712:9830   */\n      pop\n        /* \"#utility.yul\":9661:9830   */\n      swap3\n      swap2\n      pop\n      pop\n      jump\t// out\n        /* \"#utility.yul\":9835:10130   */\n    tag_72:\n        /* \"#utility.yul\":9911:9915   */\n      0x00\n        /* \"#utility.yul\":10057:10086   */\n      tag_187\n        /* \"#utility.yul\":10082:10085   */\n      dup4\n        /* \"#utility.yul\":10076:10080   */\n      dup4\n        /* \"#utility.yul\":10057:10086   */\n      tag_71\n      jump\t// in\n    tag_187:\n        /* \"#utility.yul\":10049:10086   */\n      swap2\n      pop\n        /* \"#utility.yul\":10119:10122   */\n      dup3\n        /* \"#utility.yul\":10116:10117   */\n      0x02\n        /* \"#utility.yul\":10112:10123   */\n      mul\n        /* \"#utility.yul\":10106:10110   */\n      dup3\n        /* \"#utility.yul\":10103:10124   */\n      or\n        /* \"#utility.yul\":10095:10124   */\n      swap1\n      pop\n        /* \"#utility.yul\":9835:10130   */\n      swap3\n      swap2\n      pop\n      pop\n      jump\t// out\n        /* \"#utility.yul\":10135:11530   */\n    tag_33:\n        /* \"#utility.yul\":10252:10289   */\n      tag_189\n        /* \"#utility.yul\":10285:10288   */\n      dup3\n        /* \"#utility.yul\":10252:10289   */\n      tag_43\n      jump\t// in\n    tag_189:\n        /* \"#utility.yul\":10354:10372   */\n      0xffffffffffffffff\n        /* \"#utility.yul\":10346:10352   */\n      dup2\n        /* \"#utility.yul\":10343:10373   */\n      gt\n        /* \"#utility.yul\":10340:10396   */\n      iszero\n      tag_190\n      jumpi\n        /* \"#utility.yul\":10376:10394   */\n      tag_191\n      tag_50\n      jump\t// in\n    tag_191:\n        /* \"#utility.yul\":10340:10396   */\n    tag_190:\n        /* \"#utility.yul\":10420:10458   */\n      tag_192\n        /* \"#utility.yul\":10452:10456   */\n      dup3\n        /* \"#utility.yul\":10446:10457   */\n      sload\n        /* \"#utility.yul\":10420:10458   */\n      tag_16\n      jump\t// in\n    tag_192:\n        /* \"#utility.yul\":10505:10572   */\n      tag_193\n        /* \"#utility.yul\":10565:10571   */\n      dup3\n        /* \"#utility.yul\":10557:10563   */\n      dup3\n        /* \"#utility.yul\":10551:10555   */\n      dup6\n        /* \"#utility.yul\":10505:10572   */\n      tag_69\n      jump\t// in\n    tag_193:\n        /* \"#utility.yul\":10599:10600   */\n      0x00\n        /* \"#utility.yul\":10623:10627   */\n      0x20\n        /* \"#utility.yul\":10610:10627   */\n      swap1\n      pop\n        /* \"#utility.yul\":10655:10657   */\n      0x1f\n        /* \"#utility.yul\":10647:10653   */\n      dup4\n        /* \"#utility.yul\":10644:10658   */\n      gt\n        /* \"#utility.yul\":10672:10673   */\n      0x01\n        /* \"#utility.yul\":10667:11285   */\n      dup2\n      eq\n      tag_195\n      jumpi\n        /* \"#utility.yul\":11329:11330   */\n      0x00\n        /* \"#utility.yul\":11346:11352   */\n      dup5\n        /* \"#utility.yul\":11343:11420   */\n      iszero\n      tag_196\n      jumpi\n        /* \"#utility.yul\":11395:11404   */\n      dup3\n        /* \"#utility.yul\":11390:11393   */\n      dup8\n        /* \"#utility.yul\":11386:11405   */\n      add\n        /* \"#utility.yul\":11380:11406   */\n      mload\n        /* \"#utility.yul\":11371:11406   */\n      swap1\n      pop\n        /* \"#utility.yul\":11343:11420   */\n    tag_196:\n        /* \"#utility.yul\":11446:11513   */\n      tag_197\n        /* \"#utility.yul\":11506:11512   */\n      dup6\n        /* \"#utility.yul\":11499:11504   */\n      dup3\n        /* \"#utility.yul\":11446:11513   */\n      tag_72\n      jump\t// in\n    tag_197:\n        /* \"#utility.yul\":11440:11444   */\n      dup7\n        /* \"#utility.yul\":11433:11514   */\n      sstore\n        /* \"#utility.yul\":11302:11524   */\n      pop\n        /* \"#utility.yul\":10637:11524   */\n      jump(tag_194)\n        /* \"#utility.yul\":10667:11285   */\n    tag_195:\n        /* \"#utility.yul\":10719:10723   */\n      0x1f\n        /* \"#utility.yul\":10715:10724   */\n      not\n        /* \"#utility.yul\":10707:10713   */\n      dup5\n        /* \"#utility.yul\":10703:10725   */\n      and\n        /* \"#utility.yul\":10753:10790   */\n      tag_198\n        /* \"#utility.yul\":10785:10789   */\n      dup7\n        /* \"#utility.yul\":10753:10790   */\n      tag_58\n      jump\t// in\n    tag_198:\n        /* \"#utility.yul\":10812:10813   */\n      0x00\n        /* \"#utility.yul\":10826:11034   */\n    tag_199:\n        /* \"#utility.yul\":10840:10847   */\n      dup3\n        /* \"#utility.yul\":10837:10838   */\n      dup2\n        /* \"#utility.yul\":10834:10848   */\n      lt\n        /* \"#utility.yul\":10826:11034   */\n      iszero\n      tag_201\n      jumpi\n        /* \"#utility.yul\":10919:10928   */\n      dup5\n        /* \"#utility.yul\":10914:10917   */\n      dup10\n        /* \"#utility.yul\":10910:10929   */\n      add\n        /* \"#utility.yul\":10904:10930   */\n      mload\n        /* \"#utility.yul\":10896:10902   */\n      dup3\n        /* \"#utility.yul\":10889:10931   */\n      sstore\n        /* \"#utility.yul\":10970:10971   */\n      0x01\n        /* \"#utility.yul\":10962:10968   */\n      dup3\n        /* \"#utility.yul\":10958:10972   */\n      add\n        /* \"#utility.yul\":10948:10972   */\n      swap2\n      pop\n        /* \"#utility.yul\":11017:11019   */\n      0x20\n        /* \"#utility.yul\":11006:11015   */\n      dup6\n        /* \"#utility.yul\":11002:11020   */\n      add\n        /* \"#utility.yul\":10989:11020   */\n      swap5\n      pop\n        /* \"#utility.yul\":10863:10867   */\n      0x20\n        /* \"#utility.yul\":10860:10861   */\n      dup2\n        /* \"#utility.yul\":10856:10868   */\n      add\n        /* \"#utility.yul\":10851:10868   */\n      swap1\n      pop\n        /* \"#utility.yul\":10826:11034   */\n      jump(tag_199)\n    tag_201:\n        /* \"#utility.yul\":11062:11068   */\n      dup7\n        /* \"#utility.yul\":11053:11060   */\n      dup4\n        /* \"#utility.yul\":11050:11069   */\n      lt\n        /* \"#utility.yul\":11047:11226   */\n      iszero\n      tag_202\n      jumpi\n        /* \"#utility.yul\":11120:11129   */\n      dup5\n        /* \"#utility.yul\":11115:11118   */\n      dup10\n        /* \"#utility.yul\":11111:11130   */\n      add\n        /* \"#utility.yul\":11105:11131   */\n      mload\n        /* \"#utility.yul\":11163:11211   */\n      tag_203\n        /* \"#utility.yul\":11205:11209   */\n      0x1f\n        /* \"#utility.yul\":11197:11203   */\n      dup10\n        /* \"#utility.yul\":11193:11210   */\n      and\n        /* \"#utility.yul\":11182:11191   */\n      dup3\n        /* \"#utility.yul\":11163:11211   */\n      tag_71\n      jump\t// in\n    tag_203:\n        /* \"#utility.yul\":11155:11161   */\n      dup4\n        /* \"#utility.yul\":11148:11212   */\n      sstore\n        /* \"#utility.yul\":11070:11226   */\n      pop\n        /* \"#utility.yul\":11047:11226   */\n    tag_202:\n        /* \"#utility.yul\":11272:11273   */\n      0x01\n        /* \"#utility.yul\":11268:11269   */\n      0x02\n        /* \"#utility.yul\":11260:11266   */\n      dup9\n        /* \"#utility.yul\":11256:11270   */\n      mul\n        /* \"#utility.yul\":11252:11274   */\n      add\n        /* \"#utility.yul\":11246:11250   */\n      dup9\n        /* \"#utility.yul\":11239:11275   */\n      sstore\n        /* \"#utility.yul\":10674:11285   */\n      pop\n      pop\n      pop\n        /* \"#utility.yul\":10637:11524   */\n    tag_194:\n      pop\n        /* \"#utility.yul\":10227:11530   */\n      pop\n      pop\n      pop\n        /* \"#utility.yul\":10135:11530   */\n      pop\n      pop\n      jump\t// out\n\n    auxdata: 0xa2646970667358221220f1591b9892d888013d21f561f9a57bdc71509e3776b2c9e0b1ebeb2a85e7e33564736f6c63430008120033\n}\n",
				"bytecode": {
					"linkReferences": {},
					"object": "608060405234801561001057600080fd5b50610988806100206000396000f3fe608060405234801561001057600080fd5b50600436106100365760003560e01c80632c16cd8a1461003b5780634a466e9d1461006f575b600080fd5b6100556004803603810190610050919061033c565b61008b565b604051610066959493929190610408565b60405180910390f35b610089600480360381019061008491906105a5565b610259565b005b60006020528060005260406000206000915090508060000154908060010180546100b4906106a3565b80601f01602080910402602001604051908101604052809291908181526020018280546100e0906106a3565b801561012d5780601f106101025761010080835404028352916020019161012d565b820191906000526020600020905b81548152906001019060200180831161011057829003601f168201915b505050505090806002015490806003018054610148906106a3565b80601f0160208091040260200160405190810160405280929190818152602001828054610174906106a3565b80156101c15780601f10610196576101008083540402835291602001916101c1565b820191906000526020600020905b8154815290600101906020018083116101a457829003601f168201915b5050505050908060040180546101d6906106a3565b80601f0160208091040260200160405190810160405280929190818152602001828054610202906106a3565b801561024f5780601f106102245761010080835404028352916020019161024f565b820191906000526020600020905b81548152906001019060200180831161023257829003601f168201915b5050505050905085565b6040518060a00160405280868152602001858152602001848152602001838152602001828152506000808781526020019081526020016000206000820151816000015560208201518160010190816102b19190610880565b506040820151816002015560608201518160030190816102d19190610880565b5060808201518160040190816102e79190610880565b509050505050505050565b6000604051905090565b600080fd5b600080fd5b6000819050919050565b61031981610306565b811461032457600080fd5b50565b60008135905061033681610310565b92915050565b600060208284031215610352576103516102fc565b5b600061036084828501610327565b91505092915050565b61037281610306565b82525050565b600081519050919050565b600082825260208201905092915050565b60005b838110156103b2578082015181840152602081019050610397565b60008484015250505050565b6000601f19601f8301169050919050565b60006103da82610378565b6103e48185610383565b93506103f4818560208601610394565b6103fd816103be565b840191505092915050565b600060a08201905061041d6000830188610369565b818103602083015261042f81876103cf565b905061043e6040830186610369565b818103606083015261045081856103cf565b9050818103608083015261046481846103cf565b90509695505050505050565b600080fd5b600080fd5b7f4e487b7100000000000000000000000000000000000000000000000000000000600052604160045260246000fd5b6104b2826103be565b810181811067ffffffffffffffff821117156104d1576104d061047a565b5b80604052505050565b60006104e46102f2565b90506104f082826104a9565b919050565b600067ffffffffffffffff8211156105105761050f61047a565b5b610519826103be565b9050602081019050919050565b82818337600083830152505050565b6000610548610543846104f5565b6104da565b90508281526020810184848401111561056457610563610475565b5b61056f848285610526565b509392505050565b600082601f83011261058c5761058b610470565b5b813561059c848260208601610535565b91505092915050565b600080600080600060a086880312156105c1576105c06102fc565b5b60006105cf88828901610327565b955050602086013567ffffffffffffffff8111156105f0576105ef610301565b5b6105fc88828901610577565b945050604061060d88828901610327565b935050606086013567ffffffffffffffff81111561062e5761062d610301565b5b61063a88828901610577565b925050608086013567ffffffffffffffff81111561065b5761065a610301565b5b61066788828901610577565b9150509295509295909350565b7f4e487b7100000000000000000000000000000000000000000000000000000000600052602260045260246000fd5b600060028204905060018216806106bb57607f821691505b6020821081036106ce576106cd610674565b5b50919050565b60008190508160005260206000209050919050565b60006020601f8301049050919050565b600082821b905092915050565b6000600883026107367fffffffffffffffffffffffffffffffffffffffffffffffffffffffffffffffff826106f9565b61074086836106f9565b95508019841693508086168417925050509392505050565b6000819050919050565b600061077d61077861077384610306565b610758565b610306565b9050919050565b6000819050919050565b61079783610762565b6107ab6107a382610784565b848454610706565b825550505050565b600090565b6107c06107b3565b6107cb81848461078e565b505050565b5b818110156107ef576107e46000826107b8565b6001810190506107d1565b5050565b601f82111561083457610805816106d4565b61080e846106e9565b8101602085101561081d578190505b610831610829856106e9565b8301826107d0565b50505b505050565b600082821c905092915050565b600061085760001984600802610839565b1980831691505092915050565b60006108708383610846565b9150826002028217905092915050565b61088982610378565b67ffffffffffffffff8111156108a2576108a161047a565b5b6108ac82546106a3565b6108b78282856107f3565b600060209050601f8311600181146108ea57600084156108d8578287015190505b6108e28582610864565b86555061094a565b601f1984166108f8866106d4565b60005b82811015610920578489015182556001820191506020850194506020810190506108fb565b8683101561093d5784890151610939601f891682610846565b8355505b6001600288020188555050505b50505050505056fea2646970667358221220f1591b9892d888013d21f561f9a57bdc71509e3776b2c9e0b1ebeb2a85e7e33564736f6c63430008120033",
					"opcodes": "PUSH1 0x80 PUSH1 0x40 MSTORE CALLVALUE DUP1 ISZERO PUSH2 0x10 JUMPI PUSH1 0x0 DUP1 REVERT JUMPDEST POP PUSH2 0x988 DUP1 PUSH2 0x20 PUSH1 0x0 CODECOPY PUSH1 0x0 RETURN INVALID PUSH1 0x80 PUSH1 0x40 MSTORE CALLVALUE DUP1 ISZERO PUSH2 0x10 JUMPI PUSH1 0x0 DUP1 REVERT JUMPDEST POP PUSH1 0x4 CALLDATASIZE LT PUSH2 0x36 JUMPI PUSH1 0x0 CALLDATALOAD PUSH1 0xE0 SHR DUP1 PUSH4 0x2C16CD8A EQ PUSH2 0x3B JUMPI DUP1 PUSH4 0x4A466E9D EQ PUSH2 0x6F JUMPI JUMPDEST PUSH1 0x0 DUP1 REVERT JUMPDEST PUSH2 0x55 PUSH1 0x4 DUP1 CALLDATASIZE SUB DUP2 ADD SWAP1 PUSH2 0x50 SWAP2 SWAP1 PUSH2 0x33C JUMP JUMPDEST PUSH2 0x8B JUMP JUMPDEST PUSH1 0x40 MLOAD PUSH2 0x66 SWAP6 SWAP5 SWAP4 SWAP3 SWAP2 SWAP1 PUSH2 0x408 JUMP JUMPDEST PUSH1 0x40 MLOAD DUP1 SWAP2 SUB SWAP1 RETURN JUMPDEST PUSH2 0x89 PUSH1 0x4 DUP1 CALLDATASIZE SUB DUP2 ADD SWAP1 PUSH2 0x84 SWAP2 SWAP1 PUSH2 0x5A5 JUMP JUMPDEST PUSH2 0x259 JUMP JUMPDEST STOP JUMPDEST PUSH1 0x0 PUSH1 0x20 MSTORE DUP1 PUSH1 0x0 MSTORE PUSH1 0x40 PUSH1 0x0 KECCAK256 PUSH1 0x0 SWAP2 POP SWAP1 POP DUP1 PUSH1 0x0 ADD SLOAD SWAP1 DUP1 PUSH1 0x1 ADD DUP1 SLOAD PUSH2 0xB4 SWAP1 PUSH2 0x6A3 JUMP JUMPDEST DUP1 PUSH1 0x1F ADD PUSH1 0x20 DUP1 SWAP2 DIV MUL PUSH1 0x20 ADD PUSH1 0x40 MLOAD SWAP1 DUP2 ADD PUSH1 0x40 MSTORE DUP1 SWAP3 SWAP2 SWAP1 DUP2 DUP2 MSTORE PUSH1 0x20 ADD DUP3 DUP1 SLOAD PUSH2 0xE0 SWAP1 PUSH2 0x6A3 JUMP JUMPDEST DUP1 ISZERO PUSH2 0x12D JUMPI DUP1 PUSH1 0x1F LT PUSH2 0x102 JUMPI PUSH2 0x100 DUP1 DUP4 SLOAD DIV MUL DUP4 MSTORE SWAP2 PUSH1 0x20 ADD SWAP2 PUSH2 0x12D JUMP JUMPDEST DUP3 ADD SWAP2 SWAP1 PUSH1 0x0 MSTORE PUSH1 0x20 PUSH1 0x0 KECCAK256 SWAP1 JUMPDEST DUP2 SLOAD DUP2 MSTORE SWAP1 PUSH1 0x1 ADD SWAP1 PUSH1 0x20 ADD DUP1 DUP4 GT PUSH2 0x110 JUMPI DUP3 SWAP1 SUB PUSH1 0x1F AND DUP3 ADD SWAP2 JUMPDEST POP POP POP POP POP SWAP1 DUP1 PUSH1 0x2 ADD SLOAD SWAP1 DUP1 PUSH1 0x3 ADD DUP1 SLOAD PUSH2 0x148 SWAP1 PUSH2 0x6A3 JUMP JUMPDEST DUP1 PUSH1 0x1F ADD PUSH1 0x20 DUP1 SWAP2 DIV MUL PUSH1 0x20 ADD PUSH1 0x40 MLOAD SWAP1 DUP2 ADD PUSH1 0x40 MSTORE DUP1 SWAP3 SWAP2 SWAP1 DUP2 DUP2 MSTORE PUSH1 0x20 ADD DUP3 DUP1 SLOAD PUSH2 0x174 SWAP1 PUSH2 0x6A3 JUMP JUMPDEST DUP1 ISZERO PUSH2 0x1C1 JUMPI DUP1 PUSH1 0x1F LT PUSH2 0x196 JUMPI PUSH2 0x100 DUP1 DUP4 SLOAD DIV MUL DUP4 MSTORE SWAP2 PUSH1 0x20 ADD SWAP2 PUSH2 0x1C1 JUMP JUMPDEST DUP3 ADD SWAP2 SWAP1 PUSH1 0x0 MSTORE PUSH1 0x20 PUSH1 0x0 KECCAK256 SWAP1 JUMPDEST DUP2 SLOAD DUP2 MSTORE SWAP1 PUSH1 0x1 ADD SWAP1 PUSH1 0x20 ADD DUP1 DUP4 GT PUSH2 0x1A4 JUMPI DUP3 SWAP1 SUB PUSH1 0x1F AND DUP3 ADD SWAP2 JUMPDEST POP POP POP POP POP SWAP1 DUP1 PUSH1 0x4 ADD DUP1 SLOAD PUSH2 0x1D6 SWAP1 PUSH2 0x6A3 JUMP JUMPDEST DUP1 PUSH1 0x1F ADD PUSH1 0x20 DUP1 SWAP2 DIV MUL PUSH1 0x20 ADD PUSH1 0x40 MLOAD SWAP1 DUP2 ADD PUSH1 0x40 MSTORE DUP1 SWAP3 SWAP2 SWAP1 DUP2 DUP2 MSTORE PUSH1 0x20 ADD DUP3 DUP1 SLOAD PUSH2 0x202 SWAP1 PUSH2 0x6A3 JUMP JUMPDEST DUP1 ISZERO PUSH2 0x24F JUMPI DUP1 PUSH1 0x1F LT PUSH2 0x224 JUMPI PUSH2 0x100 DUP1 DUP4 SLOAD DIV MUL DUP4 MSTORE SWAP2 PUSH1 0x20 ADD SWAP2 PUSH2 0x24F JUMP JUMPDEST DUP3 ADD SWAP2 SWAP1 PUSH1 0x0 MSTORE PUSH1 0x20 PUSH1 0x0 KECCAK256 SWAP1 JUMPDEST DUP2 SLOAD DUP2 MSTORE SWAP1 PUSH1 0x1 ADD SWAP1 PUSH1 0x20 ADD DUP1 DUP4 GT PUSH2 0x232 JUMPI DUP3 SWAP1 SUB PUSH1 0x1F AND DUP3 ADD SWAP2 JUMPDEST POP POP POP POP POP SWAP1 POP DUP6 JUMP JUMPDEST PUSH1 0x40 MLOAD DUP1 PUSH1 0xA0 ADD PUSH1 0x40 MSTORE DUP1 DUP7 DUP2 MSTORE PUSH1 0x20 ADD DUP6 DUP2 MSTORE PUSH1 0x20 ADD DUP5 DUP2 MSTORE PUSH1 0x20 ADD DUP4 DUP2 MSTORE PUSH1 0x20 ADD DUP3 DUP2 MSTORE POP PUSH1 0x0 DUP1 DUP8 DUP2 MSTORE PUSH1 0x20 ADD SWAP1 DUP2 MSTORE PUSH1 0x20 ADD PUSH1 0x0 KECCAK256 PUSH1 0x0 DUP3 ADD MLOAD DUP2 PUSH1 0x0 ADD SSTORE PUSH1 0x20 DUP3 ADD MLOAD DUP2 PUSH1 0x1 ADD SWAP1 DUP2 PUSH2 0x2B1 SWAP2 SWAP1 PUSH2 0x880 JUMP JUMPDEST POP PUSH1 0x40 DUP3 ADD MLOAD DUP2 PUSH1 0x2 ADD SSTORE PUSH1 0x60 DUP3 ADD MLOAD DUP2 PUSH1 0x3 ADD SWAP1 DUP2 PUSH2 0x2D1 SWAP2 SWAP1 PUSH2 0x880 JUMP JUMPDEST POP PUSH1 0x80 DUP3 ADD MLOAD DUP2 PUSH1 0x4 ADD SWAP1 DUP2 PUSH2 0x2E7 SWAP2 SWAP1 PUSH2 0x880 JUMP JUMPDEST POP SWAP1 POP POP POP POP POP POP POP JUMP JUMPDEST PUSH1 0x0 PUSH1 0x40 MLOAD SWAP1 POP SWAP1 JUMP JUMPDEST PUSH1 0x0 DUP1 REVERT JUMPDEST PUSH1 0x0 DUP1 REVERT JUMPDEST PUSH1 0x0 DUP2 SWAP1 POP SWAP2 SWAP1 POP JUMP JUMPDEST PUSH2 0x319 DUP2 PUSH2 0x306 JUMP JUMPDEST DUP2 EQ PUSH2 0x324 JUMPI PUSH1 0x0 DUP1 REVERT JUMPDEST POP JUMP JUMPDEST PUSH1 0x0 DUP2 CALLDATALOAD SWAP1 POP PUSH2 0x336 DUP2 PUSH2 0x310 JUMP JUMPDEST SWAP3 SWAP2 POP POP JUMP JUMPDEST PUSH1 0x0 PUSH1 0x20 DUP3 DUP5 SUB SLT ISZERO PUSH2 0x352 JUMPI PUSH2 0x351 PUSH2 0x2FC JUMP JUMPDEST JUMPDEST PUSH1 0x0 PUSH2 0x360 DUP5 DUP3 DUP6 ADD PUSH2 0x327 JUMP JUMPDEST SWAP2 POP POP SWAP3 SWAP2 POP POP JUMP JUMPDEST PUSH2 0x372 DUP2 PUSH2 0x306 JUMP JUMPDEST DUP3 MSTORE POP POP JUMP JUMPDEST PUSH1 0x0 DUP2 MLOAD SWAP1 POP SWAP2 SWAP1 POP JUMP JUMPDEST PUSH1 0x0 DUP3 DUP3 MSTORE PUSH1 0x20 DUP3 ADD SWAP1 POP SWAP3 SWAP2 POP POP JUMP JUMPDEST PUSH1 0x0 JUMPDEST DUP4 DUP2 LT ISZERO PUSH2 0x3B2 JUMPI DUP1 DUP3 ADD MLOAD DUP2 DUP5 ADD MSTORE PUSH1 0x20 DUP2 ADD SWAP1 POP PUSH2 0x397 JUMP JUMPDEST PUSH1 0x0 DUP5 DUP5 ADD MSTORE POP POP POP POP JUMP JUMPDEST PUSH1 0x0 PUSH1 0x1F NOT PUSH1 0x1F DUP4 ADD AND SWAP1 POP SWAP2 SWAP1 POP JUMP JUMPDEST PUSH1 0x0 PUSH2 0x3DA DUP3 PUSH2 0x378 JUMP JUMPDEST PUSH2 0x3E4 DUP2 DUP6 PUSH2 0x383 JUMP JUMPDEST SWAP4 POP PUSH2 0x3F4 DUP2 DUP6 PUSH1 0x20 DUP7 ADD PUSH2 0x394 JUMP JUMPDEST PUSH2 0x3FD DUP2 PUSH2 0x3BE JUMP JUMPDEST DUP5 ADD SWAP2 POP POP SWAP3 SWAP2 POP POP JUMP JUMPDEST PUSH1 0x0 PUSH1 0xA0 DUP3 ADD SWAP1 POP PUSH2 0x41D PUSH1 0x0 DUP4 ADD DUP9 PUSH2 0x369 JUMP JUMPDEST DUP2 DUP2 SUB PUSH1 0x20 DUP4 ADD MSTORE PUSH2 0x42F DUP2 DUP8 PUSH2 0x3CF JUMP JUMPDEST SWAP1 POP PUSH2 0x43E PUSH1 0x40 DUP4 ADD DUP7 PUSH2 0x369 JUMP JUMPDEST DUP2 DUP2 SUB PUSH1 0x60 DUP4 ADD MSTORE PUSH2 0x450 DUP2 DUP6 PUSH2 0x3CF JUMP JUMPDEST SWAP1 POP DUP2 DUP2 SUB PUSH1 0x80 DUP4 ADD MSTORE PUSH2 0x464 DUP2 DUP5 PUSH2 0x3CF JUMP JUMPDEST SWAP1 POP SWAP7 SWAP6 POP POP POP POP POP POP JUMP JUMPDEST PUSH1 0x0 DUP1 REVERT JUMPDEST PUSH1 0x0 DUP1 REVERT JUMPDEST PUSH32 0x4E487B7100000000000000000000000000000000000000000000000000000000 PUSH1 0x0 MSTORE PUSH1 0x41 PUSH1 0x4 MSTORE PUSH1 0x24 PUSH1 0x0 REVERT JUMPDEST PUSH2 0x4B2 DUP3 PUSH2 0x3BE JUMP JUMPDEST DUP2 ADD DUP2 DUP2 LT PUSH8 0xFFFFFFFFFFFFFFFF DUP3 GT OR ISZERO PUSH2 0x4D1 JUMPI PUSH2 0x4D0 PUSH2 0x47A JUMP JUMPDEST JUMPDEST DUP1 PUSH1 0x40 MSTORE POP POP POP JUMP JUMPDEST PUSH1 0x0 PUSH2 0x4E4 PUSH2 0x2F2 JUMP JUMPDEST SWAP1 POP PUSH2 0x4F0 DUP3 DUP3 PUSH2 0x4A9 JUMP JUMPDEST SWAP2 SWAP1 POP JUMP JUMPDEST PUSH1 0x0 PUSH8 0xFFFFFFFFFFFFFFFF DUP3 GT ISZERO PUSH2 0x510 JUMPI PUSH2 0x50F PUSH2 0x47A JUMP JUMPDEST JUMPDEST PUSH2 0x519 DUP3 PUSH2 0x3BE JUMP JUMPDEST SWAP1 POP PUSH1 0x20 DUP2 ADD SWAP1 POP SWAP2 SWAP1 POP JUMP JUMPDEST DUP3 DUP2 DUP4 CALLDATACOPY PUSH1 0x0 DUP4 DUP4 ADD MSTORE POP POP POP JUMP JUMPDEST PUSH1 0x0 PUSH2 0x548 PUSH2 0x543 DUP5 PUSH2 0x4F5 JUMP JUMPDEST PUSH2 0x4DA JUMP JUMPDEST SWAP1 POP DUP3 DUP2 MSTORE PUSH1 0x20 DUP2 ADD DUP5 DUP5 DUP5 ADD GT ISZERO PUSH2 0x564 JUMPI PUSH2 0x563 PUSH2 0x475 JUMP JUMPDEST JUMPDEST PUSH2 0x56F DUP5 DUP3 DUP6 PUSH2 0x526 JUMP JUMPDEST POP SWAP4 SWAP3 POP POP POP JUMP JUMPDEST PUSH1 0x0 DUP3 PUSH1 0x1F DUP4 ADD SLT PUSH2 0x58C JUMPI PUSH2 0x58B PUSH2 0x470 JUMP JUMPDEST JUMPDEST DUP2 CALLDATALOAD PUSH2 0x59C DUP5 DUP3 PUSH1 0x20 DUP7 ADD PUSH2 0x535 JUMP JUMPDEST SWAP2 POP POP SWAP3 SWAP2 POP POP JUMP JUMPDEST PUSH1 0x0 DUP1 PUSH1 0x0 DUP1 PUSH1 0x0 PUSH1 0xA0 DUP7 DUP9 SUB SLT ISZERO PUSH2 0x5C1 JUMPI PUSH2 0x5C0 PUSH2 0x2FC JUMP JUMPDEST JUMPDEST PUSH1 0x0 PUSH2 0x5CF DUP9 DUP3 DUP10 ADD PUSH2 0x327 JUMP JUMPDEST SWAP6 POP POP PUSH1 0x20 DUP7 ADD CALLDATALOAD PUSH8 0xFFFFFFFFFFFFFFFF DUP2 GT ISZERO PUSH2 0x5F0 JUMPI PUSH2 0x5EF PUSH2 0x301 JUMP JUMPDEST JUMPDEST PUSH2 0x5FC DUP9 DUP3 DUP10 ADD PUSH2 0x577 JUMP JUMPDEST SWAP5 POP POP PUSH1 0x40 PUSH2 0x60D DUP9 DUP3 DUP10 ADD PUSH2 0x327 JUMP JUMPDEST SWAP4 POP POP PUSH1 0x60 DUP7 ADD CALLDATALOAD PUSH8 0xFFFFFFFFFFFFFFFF DUP2 GT ISZERO PUSH2 0x62E JUMPI PUSH2 0x62D PUSH2 0x301 JUMP JUMPDEST JUMPDEST PUSH2 0x63A DUP9 DUP3 DUP10 ADD PUSH2 0x577 JUMP JUMPDEST SWAP3 POP POP PUSH1 0x80 DUP7 ADD CALLDATALOAD PUSH8 0xFFFFFFFFFFFFFFFF DUP2 GT ISZERO PUSH2 0x65B JUMPI PUSH2 0x65A PUSH2 0x301 JUMP JUMPDEST JUMPDEST PUSH2 0x667 DUP9 DUP3 DUP10 ADD PUSH2 0x577 JUMP JUMPDEST SWAP2 POP POP SWAP3 SWAP6 POP SWAP3 SWAP6 SWAP1 SWAP4 POP JUMP JUMPDEST PUSH32 0x4E487B7100000000000000000000000000000000000000000000000000000000 PUSH1 0x0 MSTORE PUSH1 0x22 PUSH1 0x4 MSTORE PUSH1 0x24 PUSH1 0x0 REVERT JUMPDEST PUSH1 0x0 PUSH1 0x2 DUP3 DIV SWAP1 POP PUSH1 0x1 DUP3 AND DUP1 PUSH2 0x6BB JUMPI PUSH1 0x7F DUP3 AND SWAP2 POP JUMPDEST PUSH1 0x20 DUP3 LT DUP2 SUB PUSH2 0x6CE JUMPI PUSH2 0x6CD PUSH2 0x674 JUMP JUMPDEST JUMPDEST POP SWAP2 SWAP1 POP JUMP JUMPDEST PUSH1 0x0 DUP2 SWAP1 POP DUP2 PUSH1 0x0 MSTORE PUSH1 0x20 PUSH1 0x0 KECCAK256 SWAP1 POP SWAP2 SWAP1 POP JUMP JUMPDEST PUSH1 0x0 PUSH1 0x20 PUSH1 0x1F DUP4 ADD DIV SWAP1 POP SWAP2 SWAP1 POP JUMP JUMPDEST PUSH1 0x0 DUP3 DUP3 SHL SWAP1 POP SWAP3 SWAP2 POP POP JUMP JUMPDEST PUSH1 0x0 PUSH1 0x8 DUP4 MUL PUSH2 0x736 PUSH32 0xFFFFFFFFFFFFFFFFFFFFFFFFFFFFFFFFFFFFFFFFFFFFFFFFFFFFFFFFFFFFFFFF DUP3 PUSH2 0x6F9 JUMP JUMPDEST PUSH2 0x740 DUP7 DUP4 PUSH2 0x6F9 JUMP JUMPDEST SWAP6 POP DUP1 NOT DUP5 AND SWAP4 POP DUP1 DUP7 AND DUP5 OR SWAP3 POP POP POP SWAP4 SWAP3 POP POP POP JUMP JUMPDEST PUSH1 0x0 DUP2 SWAP1 POP SWAP2 SWAP1 POP JUMP JUMPDEST PUSH1 0x0 PUSH2 0x77D PUSH2 0x778 PUSH2 0x773 DUP5 PUSH2 0x306 JUMP JUMPDEST PUSH2 0x758 JUMP JUMPDEST PUSH2 0x306 JUMP JUMPDEST SWAP1 POP SWAP2 SWAP1 POP JUMP JUMPDEST PUSH1 0x0 DUP2 SWAP1 POP SWAP2 SWAP1 POP JUMP JUMPDEST PUSH2 0x797 DUP4 PUSH2 0x762 JUMP JUMPDEST PUSH2 0x7AB PUSH2 0x7A3 DUP3 PUSH2 0x784 JUMP JUMPDEST DUP5 DUP5 SLOAD PUSH2 0x706 JUMP JUMPDEST DUP3 SSTORE POP POP POP POP JUMP JUMPDEST PUSH1 0x0 SWAP1 JUMP JUMPDEST PUSH2 0x7C0 PUSH2 0x7B3 JUMP JUMPDEST PUSH2 0x7CB DUP2 DUP5 DUP5 PUSH2 0x78E JUMP JUMPDEST POP POP POP JUMP JUMPDEST JUMPDEST DUP2 DUP2 LT ISZERO PUSH2 0x7EF JUMPI PUSH2 0x7E4 PUSH1 0x0 DUP3 PUSH2 0x7B8 JUMP JUMPDEST PUSH1 0x1 DUP2 ADD SWAP1 POP PUSH2 0x7D1 JUMP JUMPDEST POP POP JUMP JUMPDEST PUSH1 0x1F DUP3 GT ISZERO PUSH2 0x834 JUMPI PUSH2 0x805 DUP2 PUSH2 0x6D4 JUMP JUMPDEST PUSH2 0x80E DUP5 PUSH2 0x6E9 JUMP JUMPDEST DUP2 ADD PUSH1 0x20 DUP6 LT ISZERO PUSH2 0x81D JUMPI DUP2 SWAP1 POP JUMPDEST PUSH2 0x831 PUSH2 0x829 DUP6 PUSH2 0x6E9 JUMP JUMPDEST DUP4 ADD DUP3 PUSH2 0x7D0 JUMP JUMPDEST POP POP JUMPDEST POP POP POP JUMP JUMPDEST PUSH1 0x0 DUP3 DUP3 SHR SWAP1 POP SWAP3 SWAP2 POP POP JUMP JUMPDEST PUSH1 0x0 PUSH2 0x857 PUSH1 0x0 NOT DUP5 PUSH1 0x8 MUL PUSH2 0x839 JUMP JUMPDEST NOT DUP1 DUP4 AND SWAP2 POP POP SWAP3 SWAP2 POP POP JUMP JUMPDEST PUSH1 0x0 PUSH2 0x870 DUP4 DUP4 PUSH2 0x846 JUMP JUMPDEST SWAP2 POP DUP3 PUSH1 0x2 MUL DUP3 OR SWAP1 POP SWAP3 SWAP2 POP POP JUMP JUMPDEST PUSH2 0x889 DUP3 PUSH2 0x378 JUMP JUMPDEST PUSH8 0xFFFFFFFFFFFFFFFF DUP2 GT ISZERO PUSH2 0x8A2 JUMPI PUSH2 0x8A1 PUSH2 0x47A JUMP JUMPDEST JUMPDEST PUSH2 0x8AC DUP3 SLOAD PUSH2 0x6A3 JUMP JUMPDEST PUSH2 0x8B7 DUP3 DUP3 DUP6 PUSH2 0x7F3 JUMP JUMPDEST PUSH1 0x0 PUSH1 0x20 SWAP1 POP PUSH1 0x1F DUP4 GT PUSH1 0x1 DUP2 EQ PUSH2 0x8EA JUMPI PUSH1 0x0 DUP5 ISZERO PUSH2 0x8D8 JUMPI DUP3 DUP8 ADD MLOAD SWAP1 POP JUMPDEST PUSH2 0x8E2 DUP6 DUP3 PUSH2 0x864 JUMP JUMPDEST DUP7 SSTORE POP PUSH2 0x94A JUMP JUMPDEST PUSH1 0x1F NOT DUP5 AND PUSH2 0x8F8 DUP7 PUSH2 0x6D4 JUMP JUMPDEST PUSH1 0x0 JUMPDEST DUP3 DUP2 LT ISZERO PUSH2 0x920 JUMPI DUP5 DUP10 ADD MLOAD DUP3 SSTORE PUSH1 0x1 DUP3 ADD SWAP2 POP PUSH1 0x20 DUP6 ADD SWAP5 POP PUSH1 0x20 DUP2 ADD SWAP1 POP PUSH2 0x8FB JUMP JUMPDEST DUP7 DUP4 LT ISZERO PUSH2 0x93D JUMPI DUP5 DUP10 ADD MLOAD PUSH2 0x939 PUSH1 0x1F DUP10 AND DUP3 PUSH2 0x846 JUMP JUMPDEST DUP4 SSTORE POP JUMPDEST PUSH1 0x1 PUSH1 0x2 DUP9 MUL ADD DUP9 SSTORE POP POP POP JUMPDEST POP POP POP POP POP POP JUMP INVALID LOG2 PUSH5 0x6970667358 0x22 SLT KECCAK256 CALL MSIZE SHL SWAP9 SWAP3 0xD8 DUP9 ADD RETURNDATASIZE 0x21 CREATE2 PUSH2 0xF9A5 PUSH28 0xDC71509E3776B2C9E0B1EBEB2A85E7E33564736F6C63430008120033 "
				},
				"gasEstimates": {
					"creation": {
						"codeDepositCost": "488000",
						"executionCost": "524",
						"totalCost": "488524"
					},
					"external": {
						"record(uint256)": "infinite",
						"setter(uint256,string,uint256,string,string)": "infinite"
					}
				},
				"methodIdentifiers": {
					"record(uint256)": "2c16cd8a",
					"setter(uint256,string,uint256,string,string)": "4a466e9d"
				}
			},
			"storageLayout": {
				"storage": [
					{
						"astId": 17,
						"contract": "docter.sol:DoctorRecord",
						"label": "record",
						"offset": 0,
						"slot": "0",
						"type": "t_mapping(t_uint256,t_struct(Patient)12_storage)"
					}
				],
				"types": {
					"t_mapping(t_uint256,t_struct(Patient)12_storage)": {
						"encoding": "mapping",
						"key": "t_uint256",
						"label": "mapping(uint256 => struct DoctorRecord.Patient)",
						"numberOfBytes": "32",
						"value": "t_struct(Patient)12_storage"
					},
					"t_string_storage": {
						"encoding": "bytes",
						"label": "string",
						"numberOfBytes": "32"
					},
					"t_struct(Patient)12_storage": {
						"encoding": "inplace",
						"label": "struct DoctorRecord.Patient",
						"members": [
							{
								"astId": 3,
								"contract": "docter.sol:DoctorRecord",
								"label": "id",
								"offset": 0,
								"slot": "0",
								"type": "t_uint256"
							},
							{
								"astId": 5,
								"contract": "docter.sol:DoctorRecord",
								"label": "name",
								"offset": 0,
								"slot": "1",
								"type": "t_string_storage"
							},
							{
								"astId": 7,
								"contract": "docter.sol:DoctorRecord",
								"label": "age",
								"offset": 0,
								"slot": "2",
								"type": "t_uint256"
							},
							{
								"astId": 9,
								"contract": "docter.sol:DoctorRecord",
								"label": "diagnosis",
								"offset": 0,
								"slot": "3",
								"type": "t_string_storage"
							},
							{
								"astId": 11,
								"contract": "docter.sol:DoctorRecord",
								"label": "prescription",
								"offset": 0,
								"slot": "4",
								"type": "t_string_storage"
							}
						],
						"numberOfBytes": "160"
					},
					"t_uint256": {
						"encoding": "inplace",
						"label": "uint256",
						"numberOfBytes": "32"
					}
				}
			},
			"userdoc": {
				"kind": "user",
				"methods": {},
				"version": 1
			}
		}
	}
}