{
	"example.sol": {
		"Updater": {
			"abi": [
				{
					"inputs": [],
					"name": "updateBalance",
					"outputs": [
						{
							"internalType": "uint256",
							"name": "",
							"type": "uint256"
						}
					],
					"stateMutability": "nonpayable",
					"type": "function"
				}
			],
			"devdoc": {
				"kind": "dev",
				"methods": {},
				"version": 1
			},
			"evm": {
				"assembly": "    /* \"example.sol\":254:485  contract Updater {... */\n  mstore(0x40, 0x80)\n  callvalue\n  dup1\n  iszero\n  tag_1\n  jumpi\n  0x00\n  dup1\n  revert\ntag_1:\n  pop\n  dataSize(sub_0)\n  dup1\n  dataOffset(sub_0)\n  0x00\n  codecopy\n  0x00\n  return\nstop\n\nsub_0: assembly {\n        /* \"example.sol\":254:485  contract Updater {... */\n      mstore(0x40, 0x80)\n      callvalue\n      dup1\n      iszero\n      tag_1\n      jumpi\n      0x00\n      dup1\n      revert\n    tag_1:\n      pop\n      jumpi(tag_2, lt(calldatasize, 0x04))\n      shr(0xe0, calldataload(0x00))\n      dup1\n      0xa9559dd7\n      eq\n      tag_3\n      jumpi\n    tag_2:\n      0x00\n      dup1\n      revert\n        /* \"example.sol\":277:482  function updateBalance() public returns (uint) {... */\n    tag_3:\n      tag_4\n      tag_5\n      jump\t// in\n    tag_4:\n      mload(0x40)\n      tag_6\n      swap2\n      swap1\n      tag_7\n      jump\t// in\n    tag_6:\n      mload(0x40)\n      dup1\n      swap2\n      sub\n      swap1\n      return\n    tag_5:\n        /* \"example.sol\":318:322  uint */\n      0x00\n        /* \"example.sol\":333:360  LedgerBalance ledgerBalance */\n      dup1\n        /* \"example.sol\":363:382  new LedgerBalance() */\n      mload(0x40)\n      tag_9\n      swap1\n      tag_10\n      jump\t// in\n    tag_9:\n      mload(0x40)\n      dup1\n      swap2\n      sub\n      swap1\n      0x00\n      create\n      dup1\n      iszero\n      dup1\n      iszero\n      tag_11\n      jumpi\n      returndatasize\n      0x00\n      dup1\n      returndatacopy\n      revert(0x00, returndatasize)\n    tag_11:\n      pop\n        /* \"example.sol\":333:382  LedgerBalance ledgerBalance = new LedgerBalance() */\n      swap1\n      pop\n        /* \"example.sol\":391:404  ledgerBalance */\n      dup1\n        /* \"example.sol\":391:418  ledgerBalance.updateBalance */\n      0xffffffffffffffffffffffffffffffffffffffff\n      and\n      0xba7b37d4\n        /* \"example.sol\":419:421  10 */\n      0x0a\n        /* \"example.sol\":391:422  ledgerBalance.updateBalance(10) */\n      mload(0x40)\n      dup3\n      0xffffffff\n      and\n      0xe0\n      shl\n      dup2\n      mstore\n      0x04\n      add\n      tag_12\n      swap2\n      swap1\n      tag_13\n      jump\t// in\n    tag_12:\n      0x00\n      mload(0x40)\n      dup1\n      dup4\n      sub\n      dup2\n      0x00\n      dup8\n      dup1\n      extcodesize\n      iszero\n      dup1\n      iszero\n      tag_14\n      jumpi\n      0x00\n      dup1\n      revert\n    tag_14:\n      pop\n      gas\n      call\n      iszero\n      dup1\n      iszero\n      tag_16\n      jumpi\n      returndatasize\n      0x00\n      dup1\n      returndatacopy\n      revert(0x00, returndatasize)\n    tag_16:\n      pop\n      pop\n      pop\n      pop\n        /* \"example.sol\":438:451  ledgerBalance */\n      dup1\n        /* \"example.sol\":438:460  ledgerBalance.balances */\n      0xffffffffffffffffffffffffffffffffffffffff\n      and\n      0x27e235e3\n        /* \"example.sol\":469:473  this */\n      address\n        /* \"example.sol\":438:475  ledgerBalance.balances(address(this)) */\n      mload(0x40)\n      dup3\n      0xffffffff\n      and\n      0xe0\n      shl\n      dup2\n      mstore\n      0x04\n      add\n      tag_17\n      swap2\n      swap1\n      tag_18\n      jump\t// in\n    tag_17:\n      0x20\n      mload(0x40)\n      dup1\n      dup4\n      sub\n      dup2\n      dup7\n      gas\n      staticcall\n      iszero\n      dup1\n      iszero\n      tag_20\n      jumpi\n      returndatasize\n      0x00\n      dup1\n      returndatacopy\n      revert(0x00, returndatasize)\n    tag_20:\n      pop\n      pop\n      pop\n      pop\n      mload(0x40)\n      returndatasize\n      not(0x1f)\n      0x1f\n      dup3\n      add\n      and\n      dup3\n      add\n      dup1\n      0x40\n      mstore\n      pop\n      dup2\n      add\n      swap1\n      tag_21\n      swap2\n      swap1\n      tag_22\n      jump\t// in\n    tag_21:\n        /* \"example.sol\":431:475  return ledgerBalance.balances(address(this)) */\n      swap2\n      pop\n      pop\n        /* \"example.sol\":277:482  function updateBalance() public returns (uint) {... */\n      swap1\n      jump\t// out\n    tag_10:\n      dataSize(sub_0)\n      dup1\n      dataOffset(sub_0)\n      dup4\n      codecopy\n      add\n      swap1\n      jump\t// out\n        /* \"#utility.yul\":7:84   */\n    tag_23:\n        /* \"#utility.yul\":44:51   */\n      0x00\n        /* \"#utility.yul\":73:78   */\n      dup2\n        /* \"#utility.yul\":62:78   */\n      swap1\n      pop\n        /* \"#utility.yul\":7:84   */\n      swap2\n      swap1\n      pop\n      jump\t// out\n        /* \"#utility.yul\":90:208   */\n    tag_24:\n        /* \"#utility.yul\":177:201   */\n      tag_40\n        /* \"#utility.yul\":195:200   */\n      dup2\n        /* \"#utility.yul\":177:201   */\n      tag_23\n      jump\t// in\n    tag_40:\n        /* \"#utility.yul\":172:175   */\n      dup3\n        /* \"#utility.yul\":165:202   */\n      mstore\n        /* \"#utility.yul\":90:208   */\n      pop\n      pop\n      jump\t// out\n        /* \"#utility.yul\":214:436   */\n    tag_7:\n        /* \"#utility.yul\":307:311   */\n      0x00\n        /* \"#utility.yul\":345:347   */\n      0x20\n        /* \"#utility.yul\":334:343   */\n      dup3\n        /* \"#utility.yul\":330:348   */\n      add\n        /* \"#utility.yul\":322:348   */\n      swap1\n      pop\n        /* \"#utility.yul\":358:429   */\n      tag_42\n        /* \"#utility.yul\":426:427   */\n      0x00\n        /* \"#utility.yul\":415:424   */\n      dup4\n        /* \"#utility.yul\":411:428   */\n      add\n        /* \"#utility.yul\":402:408   */\n      dup5\n        /* \"#utility.yul\":358:429   */\n      tag_24\n      jump\t// in\n    tag_42:\n        /* \"#utility.yul\":214:436   */\n      swap3\n      swap2\n      pop\n      pop\n      jump\t// out\n        /* \"#utility.yul\":442:528   */\n    tag_25:\n        /* \"#utility.yul\":488:495   */\n      0x00\n        /* \"#utility.yul\":517:522   */\n      dup2\n        /* \"#utility.yul\":506:522   */\n      swap1\n      pop\n        /* \"#utility.yul\":442:528   */\n      swap2\n      swap1\n      pop\n      jump\t// out\n        /* \"#utility.yul\":534:594   */\n    tag_26:\n        /* \"#utility.yul\":562:565   */\n      0x00\n        /* \"#utility.yul\":583:588   */\n      dup2\n        /* \"#utility.yul\":576:588   */\n      swap1\n      pop\n        /* \"#utility.yul\":534:594   */\n      swap2\n      swap1\n      pop\n      jump\t// out\n        /* \"#utility.yul\":600:760   */\n    tag_27:\n        /* \"#utility.yul\":659:668   */\n      0x00\n        /* \"#utility.yul\":692:754   */\n      tag_46\n        /* \"#utility.yul\":710:753   */\n      tag_47\n        /* \"#utility.yul\":719:752   */\n      tag_48\n        /* \"#utility.yul\":746:751   */\n      dup5\n        /* \"#utility.yul\":719:752   */\n      tag_25\n      jump\t// in\n    tag_48:\n        /* \"#utility.yul\":710:753   */\n      tag_26\n      jump\t// in\n    tag_47:\n        /* \"#utility.yul\":692:754   */\n      tag_23\n      jump\t// in\n    tag_46:\n        /* \"#utility.yul\":679:754   */\n      swap1\n      pop\n        /* \"#utility.yul\":600:760   */\n      swap2\n      swap1\n      pop\n      jump\t// out\n        /* \"#utility.yul\":766:915   */\n    tag_28:\n        /* \"#utility.yul\":862:908   */\n      tag_50\n        /* \"#utility.yul\":902:907   */\n      dup2\n        /* \"#utility.yul\":862:908   */\n      tag_27\n      jump\t// in\n    tag_50:\n        /* \"#utility.yul\":857:860   */\n      dup3\n        /* \"#utility.yul\":850:909   */\n      mstore\n        /* \"#utility.yul\":766:915   */\n      pop\n      pop\n      jump\t// out\n        /* \"#utility.yul\":921:1161   */\n    tag_13:\n        /* \"#utility.yul\":1023:1027   */\n      0x00\n        /* \"#utility.yul\":1061:1063   */\n      0x20\n        /* \"#utility.yul\":1050:1059   */\n      dup3\n        /* \"#utility.yul\":1046:1064   */\n      add\n        /* \"#utility.yul\":1038:1064   */\n      swap1\n      pop\n        /* \"#utility.yul\":1074:1154   */\n      tag_52\n        /* \"#utility.yul\":1151:1152   */\n      0x00\n        /* \"#utility.yul\":1140:1149   */\n      dup4\n        /* \"#utility.yul\":1136:1153   */\n      add\n        /* \"#utility.yul\":1127:1133   */\n      dup5\n        /* \"#utility.yul\":1074:1154   */\n      tag_28\n      jump\t// in\n    tag_52:\n        /* \"#utility.yul\":921:1161   */\n      swap3\n      swap2\n      pop\n      pop\n      jump\t// out\n        /* \"#utility.yul\":1167:1293   */\n    tag_29:\n        /* \"#utility.yul\":1204:1211   */\n      0x00\n        /* \"#utility.yul\":1244:1286   */\n      0xffffffffffffffffffffffffffffffffffffffff\n        /* \"#utility.yul\":1237:1242   */\n      dup3\n        /* \"#utility.yul\":1233:1287   */\n      and\n        /* \"#utility.yul\":1222:1287   */\n      swap1\n      pop\n        /* \"#utility.yul\":1167:1293   */\n      swap2\n      swap1\n      pop\n      jump\t// out\n        /* \"#utility.yul\":1299:1395   */\n    tag_30:\n        /* \"#utility.yul\":1336:1343   */\n      0x00\n        /* \"#utility.yul\":1365:1389   */\n      tag_55\n        /* \"#utility.yul\":1383:1388   */\n      dup3\n        /* \"#utility.yul\":1365:1389   */\n      tag_29\n      jump\t// in\n    tag_55:\n        /* \"#utility.yul\":1354:1389   */\n      swap1\n      pop\n        /* \"#utility.yul\":1299:1395   */\n      swap2\n      swap1\n      pop\n      jump\t// out\n        /* \"#utility.yul\":1401:1519   */\n    tag_31:\n        /* \"#utility.yul\":1488:1512   */\n      tag_57\n        /* \"#utility.yul\":1506:1511   */\n      dup2\n        /* \"#utility.yul\":1488:1512   */\n      tag_30\n      jump\t// in\n    tag_57:\n        /* \"#utility.yul\":1483:1486   */\n      dup3\n        /* \"#utility.yul\":1476:1513   */\n      mstore\n        /* \"#utility.yul\":1401:1519   */\n      pop\n      pop\n      jump\t// out\n        /* \"#utility.yul\":1525:1747   */\n    tag_18:\n        /* \"#utility.yul\":1618:1622   */\n      0x00\n        /* \"#utility.yul\":1656:1658   */\n      0x20\n        /* \"#utility.yul\":1645:1654   */\n      dup3\n        /* \"#utility.yul\":1641:1659   */\n      add\n        /* \"#utility.yul\":1633:1659   */\n      swap1\n      pop\n        /* \"#utility.yul\":1669:1740   */\n      tag_59\n        /* \"#utility.yul\":1737:1738   */\n      0x00\n        /* \"#utility.yul\":1726:1735   */\n      dup4\n        /* \"#utility.yul\":1722:1739   */\n      add\n        /* \"#utility.yul\":1713:1719   */\n      dup5\n        /* \"#utility.yul\":1669:1740   */\n      tag_31\n      jump\t// in\n    tag_59:\n        /* \"#utility.yul\":1525:1747   */\n      swap3\n      swap2\n      pop\n      pop\n      jump\t// out\n        /* \"#utility.yul\":1834:1951   */\n    tag_33:\n        /* \"#utility.yul\":1943:1944   */\n      0x00\n        /* \"#utility.yul\":1940:1941   */\n      dup1\n        /* \"#utility.yul\":1933:1945   */\n      revert\n        /* \"#utility.yul\":2080:2202   */\n    tag_35:\n        /* \"#utility.yul\":2153:2177   */\n      tag_64\n        /* \"#utility.yul\":2171:2176   */\n      dup2\n        /* \"#utility.yul\":2153:2177   */\n      tag_23\n      jump\t// in\n    tag_64:\n        /* \"#utility.yul\":2146:2151   */\n      dup2\n        /* \"#utility.yul\":2143:2178   */\n      eq\n        /* \"#utility.yul\":2133:2196   */\n      tag_65\n      jumpi\n        /* \"#utility.yul\":2192:2193   */\n      0x00\n        /* \"#utility.yul\":2189:2190   */\n      dup1\n        /* \"#utility.yul\":2182:2194   */\n      revert\n        /* \"#utility.yul\":2133:2196   */\n    tag_65:\n        /* \"#utility.yul\":2080:2202   */\n      pop\n      jump\t// out\n        /* \"#utility.yul\":2208:2351   */\n    tag_36:\n        /* \"#utility.yul\":2265:2270   */\n      0x00\n        /* \"#utility.yul\":2296:2302   */\n      dup2\n        /* \"#utility.yul\":2290:2303   */\n      mload\n        /* \"#utility.yul\":2281:2303   */\n      swap1\n      pop\n        /* \"#utility.yul\":2312:2345   */\n      tag_67\n        /* \"#utility.yul\":2339:2344   */\n      dup2\n        /* \"#utility.yul\":2312:2345   */\n      tag_35\n      jump\t// in\n    tag_67:\n        /* \"#utility.yul\":2208:2351   */\n      swap3\n      swap2\n      pop\n      pop\n      jump\t// out\n        /* \"#utility.yul\":2357:2708   */\n    tag_22:\n        /* \"#utility.yul\":2427:2433   */\n      0x00\n        /* \"#utility.yul\":2476:2478   */\n      0x20\n        /* \"#utility.yul\":2464:2473   */\n      dup3\n        /* \"#utility.yul\":2455:2462   */\n      dup5\n        /* \"#utility.yul\":2451:2474   */\n      sub\n        /* \"#utility.yul\":2447:2479   */\n      slt\n        /* \"#utility.yul\":2444:2563   */\n      iszero\n      tag_69\n      jumpi\n        /* \"#utility.yul\":2482:2561   */\n      tag_70\n      tag_33\n      jump\t// in\n    tag_70:\n        /* \"#utility.yul\":2444:2563   */\n    tag_69:\n        /* \"#utility.yul\":2602:2603   */\n      0x00\n        /* \"#utility.yul\":2627:2691   */\n      tag_71\n        /* \"#utility.yul\":2683:2690   */\n      dup5\n        /* \"#utility.yul\":2674:2680   */\n      dup3\n        /* \"#utility.yul\":2663:2672   */\n      dup6\n        /* \"#utility.yul\":2659:2681   */\n      add\n        /* \"#utility.yul\":2627:2691   */\n      tag_36\n      jump\t// in\n    tag_71:\n        /* \"#utility.yul\":2617:2691   */\n      swap2\n      pop\n        /* \"#utility.yul\":2573:2701   */\n      pop\n        /* \"#utility.yul\":2357:2708   */\n      swap3\n      swap2\n      pop\n      pop\n      jump\t// out\n    stop\n\n    sub_0: assembly {\n            /* \"example.sol\":76:252  contract LedgerBalance {... */\n          mstore(0x40, 0x80)\n          callvalue\n          dup1\n          iszero\n          tag_1\n          jumpi\n          0x00\n          dup1\n          revert\n        tag_1:\n          pop\n          dataSize(sub_0)\n          dup1\n          dataOffset(sub_0)\n          0x00\n          codecopy\n          0x00\n          return\n        stop\n\n        sub_0: assembly {\n                /* \"example.sol\":76:252  contract LedgerBalance {... */\n              mstore(0x40, 0x80)\n              callvalue\n              dup1\n              iszero\n              tag_1\n              jumpi\n              0x00\n              dup1\n              revert\n            tag_1:\n              pop\n              jumpi(tag_2, lt(calldatasize, 0x04))\n              shr(0xe0, calldataload(0x00))\n              dup1\n              0x27e235e3\n              eq\n              tag_3\n              jumpi\n              dup1\n              0xba7b37d4\n              eq\n              tag_4\n              jumpi\n            tag_2:\n              0x00\n              dup1\n              revert\n                /* \"example.sol\":105:145  mapping(address => uint) public balances */\n            tag_3:\n              tag_5\n              0x04\n              dup1\n              calldatasize\n              sub\n              dup2\n              add\n              swap1\n              tag_6\n              swap2\n              swap1\n              tag_7\n              jump\t// in\n            tag_6:\n              tag_8\n              jump\t// in\n            tag_5:\n              mload(0x40)\n              tag_9\n              swap2\n              swap1\n              tag_10\n              jump\t// in\n            tag_9:\n              mload(0x40)\n              dup1\n              swap2\n              sub\n              swap1\n              return\n                /* \"example.sol\":153:249  function updateBalance(uint newBalance) public {... */\n            tag_4:\n              tag_11\n              0x04\n              dup1\n              calldatasize\n              sub\n              dup2\n              add\n              swap1\n              tag_12\n              swap2\n              swap1\n              tag_13\n              jump\t// in\n            tag_12:\n              tag_14\n              jump\t// in\n            tag_11:\n              stop\n                /* \"example.sol\":105:145  mapping(address => uint) public balances */\n            tag_8:\n              mstore(0x20, 0x00)\n              dup1\n              0x00\n              mstore\n              keccak256(0x00, 0x40)\n              0x00\n              swap2\n              pop\n              swap1\n              pop\n              sload\n              dup2\n              jump\t// out\n                /* \"example.sol\":153:249  function updateBalance(uint newBalance) public {... */\n            tag_14:\n                /* \"example.sol\":232:242  newBalance */\n              dup1\n                /* \"example.sol\":209:217  balances */\n              0x00\n                /* \"example.sol\":209:229  balances[msg.sender] */\n              dup1\n                /* \"example.sol\":218:228  msg.sender */\n              caller\n                /* \"example.sol\":209:229  balances[msg.sender] */\n              0xffffffffffffffffffffffffffffffffffffffff\n              and\n              0xffffffffffffffffffffffffffffffffffffffff\n              and\n              dup2\n              mstore\n              0x20\n              add\n              swap1\n              dup2\n              mstore\n              0x20\n              add\n              0x00\n              keccak256\n                /* \"example.sol\":209:242  balances[msg.sender] = newBalance */\n              dup2\n              swap1\n              sstore\n              pop\n                /* \"example.sol\":153:249  function updateBalance(uint newBalance) public {... */\n              pop\n              jump\t// out\n                /* \"#utility.yul\":88:205   */\n            tag_17:\n                /* \"#utility.yul\":197:198   */\n              0x00\n                /* \"#utility.yul\":194:195   */\n              dup1\n                /* \"#utility.yul\":187:199   */\n              revert\n                /* \"#utility.yul\":334:460   */\n            tag_19:\n                /* \"#utility.yul\":371:378   */\n              0x00\n                /* \"#utility.yul\":411:453   */\n              0xffffffffffffffffffffffffffffffffffffffff\n                /* \"#utility.yul\":404:409   */\n              dup3\n                /* \"#utility.yul\":400:454   */\n              and\n                /* \"#utility.yul\":389:454   */\n              swap1\n              pop\n                /* \"#utility.yul\":334:460   */\n              swap2\n              swap1\n              pop\n              jump\t// out\n                /* \"#utility.yul\":466:562   */\n            tag_20:\n                /* \"#utility.yul\":503:510   */\n              0x00\n                /* \"#utility.yul\":532:556   */\n              tag_33\n                /* \"#utility.yul\":550:555   */\n              dup3\n                /* \"#utility.yul\":532:556   */\n              tag_19\n              jump\t// in\n            tag_33:\n                /* \"#utility.yul\":521:556   */\n              swap1\n              pop\n                /* \"#utility.yul\":466:562   */\n              swap2\n              swap1\n              pop\n              jump\t// out\n                /* \"#utility.yul\":568:690   */\n            tag_21:\n                /* \"#utility.yul\":641:665   */\n              tag_35\n                /* \"#utility.yul\":659:664   */\n              dup2\n                /* \"#utility.yul\":641:665   */\n              tag_20\n              jump\t// in\n            tag_35:\n                /* \"#utility.yul\":634:639   */\n              dup2\n                /* \"#utility.yul\":631:666   */\n              eq\n                /* \"#utility.yul\":621:684   */\n              tag_36\n              jumpi\n                /* \"#utility.yul\":680:681   */\n              0x00\n                /* \"#utility.yul\":677:678   */\n              dup1\n                /* \"#utility.yul\":670:682   */\n              revert\n                /* \"#utility.yul\":621:684   */\n            tag_36:\n                /* \"#utility.yul\":568:690   */\n              pop\n              jump\t// out\n                /* \"#utility.yul\":696:835   */\n            tag_22:\n                /* \"#utility.yul\":742:747   */\n              0x00\n                /* \"#utility.yul\":780:786   */\n              dup2\n                /* \"#utility.yul\":767:787   */\n              calldataload\n                /* \"#utility.yul\":758:787   */\n              swap1\n              pop\n                /* \"#utility.yul\":796:829   */\n              tag_38\n                /* \"#utility.yul\":823:828   */\n              dup2\n                /* \"#utility.yul\":796:829   */\n              tag_21\n              jump\t// in\n            tag_38:\n                /* \"#utility.yul\":696:835   */\n              swap3\n              swap2\n              pop\n              pop\n              jump\t// out\n                /* \"#utility.yul\":841:1170   */\n            tag_7:\n                /* \"#utility.yul\":900:906   */\n              0x00\n                /* \"#utility.yul\":949:951   */\n              0x20\n                /* \"#utility.yul\":937:946   */\n              dup3\n                /* \"#utility.yul\":928:935   */\n              dup5\n                /* \"#utility.yul\":924:947   */\n              sub\n                /* \"#utility.yul\":920:952   */\n              slt\n                /* \"#utility.yul\":917:1036   */\n              iszero\n              tag_40\n              jumpi\n                /* \"#utility.yul\":955:1034   */\n              tag_41\n              tag_17\n              jump\t// in\n            tag_41:\n                /* \"#utility.yul\":917:1036   */\n            tag_40:\n                /* \"#utility.yul\":1075:1076   */\n              0x00\n                /* \"#utility.yul\":1100:1153   */\n              tag_42\n                /* \"#utility.yul\":1145:1152   */\n              dup5\n                /* \"#utility.yul\":1136:1142   */\n              dup3\n                /* \"#utility.yul\":1125:1134   */\n              dup6\n                /* \"#utility.yul\":1121:1143   */\n              add\n                /* \"#utility.yul\":1100:1153   */\n              tag_22\n              jump\t// in\n            tag_42:\n                /* \"#utility.yul\":1090:1153   */\n              swap2\n              pop\n                /* \"#utility.yul\":1046:1163   */\n              pop\n                /* \"#utility.yul\":841:1170   */\n              swap3\n              swap2\n              pop\n              pop\n              jump\t// out\n                /* \"#utility.yul\":1176:1253   */\n            tag_23:\n                /* \"#utility.yul\":1213:1220   */\n              0x00\n                /* \"#utility.yul\":1242:1247   */\n              dup2\n                /* \"#utility.yul\":1231:1247   */\n              swap1\n              pop\n                /* \"#utility.yul\":1176:1253   */\n              swap2\n              swap1\n              pop\n              jump\t// out\n                /* \"#utility.yul\":1259:1377   */\n            tag_24:\n                /* \"#utility.yul\":1346:1370   */\n              tag_45\n                /* \"#utility.yul\":1364:1369   */\n              dup2\n                /* \"#utility.yul\":1346:1370   */\n              tag_23\n              jump\t// in\n            tag_45:\n                /* \"#utility.yul\":1341:1344   */\n              dup3\n                /* \"#utility.yul\":1334:1371   */\n              mstore\n                /* \"#utility.yul\":1259:1377   */\n              pop\n              pop\n              jump\t// out\n                /* \"#utility.yul\":1383:1605   */\n            tag_10:\n                /* \"#utility.yul\":1476:1480   */\n              0x00\n                /* \"#utility.yul\":1514:1516   */\n              0x20\n                /* \"#utility.yul\":1503:1512   */\n              dup3\n                /* \"#utility.yul\":1499:1517   */\n              add\n                /* \"#utility.yul\":1491:1517   */\n              swap1\n              pop\n                /* \"#utility.yul\":1527:1598   */\n              tag_47\n                /* \"#utility.yul\":1595:1596   */\n              0x00\n                /* \"#utility.yul\":1584:1593   */\n              dup4\n                /* \"#utility.yul\":1580:1597   */\n              add\n                /* \"#utility.yul\":1571:1577   */\n              dup5\n                /* \"#utility.yul\":1527:1598   */\n              tag_24\n              jump\t// in\n            tag_47:\n                /* \"#utility.yul\":1383:1605   */\n              swap3\n              swap2\n              pop\n              pop\n              jump\t// out\n                /* \"#utility.yul\":1611:1733   */\n            tag_25:\n                /* \"#utility.yul\":1684:1708   */\n              tag_49\n                /* \"#utility.yul\":1702:1707   */\n              dup2\n                /* \"#utility.yul\":1684:1708   */\n              tag_23\n              jump\t// in\n            tag_49:\n                /* \"#utility.yul\":1677:1682   */\n              dup2\n                /* \"#utility.yul\":1674:1709   */\n              eq\n                /* \"#utility.yul\":1664:1727   */\n              tag_50\n              jumpi\n                /* \"#utility.yul\":1723:1724   */\n              0x00\n                /* \"#utility.yul\":1720:1721   */\n              dup1\n                /* \"#utility.yul\":1713:1725   */\n              revert\n                /* \"#utility.yul\":1664:1727   */\n            tag_50:\n                /* \"#utility.yul\":1611:1733   */\n              pop\n              jump\t// out\n                /* \"#utility.yul\":1739:1878   */\n            tag_26:\n                /* \"#utility.yul\":1785:1790   */\n              0x00\n                /* \"#utility.yul\":1823:1829   */\n              dup2\n                /* \"#utility.yul\":1810:1830   */\n              calldataload\n                /* \"#utility.yul\":1801:1830   */\n              swap1\n              pop\n                /* \"#utility.yul\":1839:1872   */\n              tag_52\n                /* \"#utility.yul\":1866:1871   */\n              dup2\n                /* \"#utility.yul\":1839:1872   */\n              tag_25\n              jump\t// in\n            tag_52:\n                /* \"#utility.yul\":1739:1878   */\n              swap3\n              swap2\n              pop\n              pop\n              jump\t// out\n                /* \"#utility.yul\":1884:2213   */\n            tag_13:\n                /* \"#utility.yul\":1943:1949   */\n              0x00\n                /* \"#utility.yul\":1992:1994   */\n              0x20\n                /* \"#utility.yul\":1980:1989   */\n              dup3\n                /* \"#utility.yul\":1971:1978   */\n              dup5\n                /* \"#utility.yul\":1967:1990   */\n              sub\n                /* \"#utility.yul\":1963:1995   */\n              slt\n                /* \"#utility.yul\":1960:2079   */\n              iszero\n              tag_54\n              jumpi\n                /* \"#utility.yul\":1998:2077   */\n              tag_55\n              tag_17\n              jump\t// in\n            tag_55:\n                /* \"#utility.yul\":1960:2079   */\n            tag_54:\n                /* \"#utility.yul\":2118:2119   */\n              0x00\n                /* \"#utility.yul\":2143:2196   */\n              tag_56\n                /* \"#utility.yul\":2188:2195   */\n              dup5\n                /* \"#utility.yul\":2179:2185   */\n              dup3\n                /* \"#utility.yul\":2168:2177   */\n              dup6\n                /* \"#utility.yul\":2164:2186   */\n              add\n                /* \"#utility.yul\":2143:2196   */\n              tag_26\n              jump\t// in\n            tag_56:\n                /* \"#utility.yul\":2133:2196   */\n              swap2\n              pop\n                /* \"#utility.yul\":2089:2206   */\n              pop\n                /* \"#utility.yul\":1884:2213   */\n              swap3\n              swap2\n              pop\n              pop\n              jump\t// out\n\n            auxdata: 0xa264697066735822122060233edad5e314d52133fb25f1f43a322a983eab59dbca4a4d0109dca047c73664736f6c63430008120033\n        }\n    }\n\n    auxdata: 0xa2646970667358221220bb7cc5d22e2799ea0de05d13b5eb05cd13e49aba062e2a39b7956ce7a25b57f464736f6c63430008120033\n}\n",
				"bytecode": {
					"linkReferences": {},
					"object": "608060405234801561001057600080fd5b50610551806100206000396000f3fe608060405234801561001057600080fd5b506004361061002b5760003560e01c8063a9559dd714610030575b600080fd5b61003861004e565b604051610045919061018e565b60405180910390f35b60008060405161005d90610168565b604051809103906000f080158015610079573d6000803e3d6000fd5b5090508073ffffffffffffffffffffffffffffffffffffffff1663ba7b37d4600a6040518263ffffffff1660e01b81526004016100b691906101ee565b600060405180830381600087803b1580156100d057600080fd5b505af11580156100e4573d6000803e3d6000fd5b505050508073ffffffffffffffffffffffffffffffffffffffff166327e235e3306040518263ffffffff1660e01b8152600401610121919061024a565b602060405180830381865afa15801561013e573d6000803e3d6000fd5b505050506040513d601f19601f820116820180604052508101906101629190610296565b91505090565b610258806102c483390190565b6000819050919050565b61018881610175565b82525050565b60006020820190506101a3600083018461017f565b92915050565b6000819050919050565b6000819050919050565b60006101d86101d36101ce846101a9565b6101b3565b610175565b9050919050565b6101e8816101bd565b82525050565b600060208201905061020360008301846101df565b92915050565b600073ffffffffffffffffffffffffffffffffffffffff82169050919050565b600061023482610209565b9050919050565b61024481610229565b82525050565b600060208201905061025f600083018461023b565b92915050565b600080fd5b61027381610175565b811461027e57600080fd5b50565b6000815190506102908161026a565b92915050565b6000602082840312156102ac576102ab610265565b5b60006102ba84828501610281565b9150509291505056fe608060405234801561001057600080fd5b50610238806100206000396000f3fe608060405234801561001057600080fd5b50600436106100365760003560e01c806327e235e31461003b578063ba7b37d41461006b575b600080fd5b61005560048036038101906100509190610148565b610087565b604051610062919061018e565b60405180910390f35b610085600480360381019061008091906101d5565b61009f565b005b60006020528060005260406000206000915090505481565b806000803373ffffffffffffffffffffffffffffffffffffffff1673ffffffffffffffffffffffffffffffffffffffff1681526020019081526020016000208190555050565b600080fd5b600073ffffffffffffffffffffffffffffffffffffffff82169050919050565b6000610115826100ea565b9050919050565b6101258161010a565b811461013057600080fd5b50565b6000813590506101428161011c565b92915050565b60006020828403121561015e5761015d6100e5565b5b600061016c84828501610133565b91505092915050565b6000819050919050565b61018881610175565b82525050565b60006020820190506101a3600083018461017f565b92915050565b6101b281610175565b81146101bd57600080fd5b50565b6000813590506101cf816101a9565b92915050565b6000602082840312156101eb576101ea6100e5565b5b60006101f9848285016101c0565b9150509291505056fea264697066735822122060233edad5e314d52133fb25f1f43a322a983eab59dbca4a4d0109dca047c73664736f6c63430008120033a2646970667358221220bb7cc5d22e2799ea0de05d13b5eb05cd13e49aba062e2a39b7956ce7a25b57f464736f6c63430008120033",
					"opcodes": "PUSH1 0x80 PUSH1 0x40 MSTORE CALLVALUE DUP1 ISZERO PUSH2 0x10 JUMPI PUSH1 0x0 DUP1 REVERT JUMPDEST POP PUSH2 0x551 DUP1 PUSH2 0x20 PUSH1 0x0 CODECOPY PUSH1 0x0 RETURN INVALID PUSH1 0x80 PUSH1 0x40 MSTORE CALLVALUE DUP1 ISZERO PUSH2 0x10 JUMPI PUSH1 0x0 DUP1 REVERT JUMPDEST POP PUSH1 0x4 CALLDATASIZE LT PUSH2 0x2B JUMPI PUSH1 0x0 CALLDATALOAD PUSH1 0xE0 SHR DUP1 PUSH4 0xA9559DD7 EQ PUSH2 0x30 JUMPI JUMPDEST PUSH1 0x0 DUP1 REVERT JUMPDEST PUSH2 0x38 PUSH2 0x4E JUMP JUMPDEST PUSH1 0x40 MLOAD PUSH2 0x45 SWAP2 SWAP1 PUSH2 0x18E JUMP JUMPDEST PUSH1 0x40 MLOAD DUP1 SWAP2 SUB SWAP1 RETURN JUMPDEST PUSH1 0x0 DUP1 PUSH1 0x40 MLOAD PUSH2 0x5D SWAP1 PUSH2 0x168 JUMP JUMPDEST PUSH1 0x40 MLOAD DUP1 SWAP2 SUB SWAP1 PUSH1 0x0 CREATE DUP1 ISZERO DUP1 ISZERO PUSH2 0x79 JUMPI RETURNDATASIZE PUSH1 0x0 DUP1 RETURNDATACOPY RETURNDATASIZE PUSH1 0x0 REVERT JUMPDEST POP SWAP1 POP DUP1 PUSH20 0xFFFFFFFFFFFFFFFFFFFFFFFFFFFFFFFFFFFFFFFF AND PUSH4 0xBA7B37D4 PUSH1 0xA PUSH1 0x40 MLOAD DUP3 PUSH4 0xFFFFFFFF AND PUSH1 0xE0 SHL DUP2 MSTORE PUSH1 0x4 ADD PUSH2 0xB6 SWAP2 SWAP1 PUSH2 0x1EE JUMP JUMPDEST PUSH1 0x0 PUSH1 0x40 MLOAD DUP1 DUP4 SUB DUP2 PUSH1 0x0 DUP8 DUP1 EXTCODESIZE ISZERO DUP1 ISZERO PUSH2 0xD0 JUMPI PUSH1 0x0 DUP1 REVERT JUMPDEST POP GAS CALL ISZERO DUP1 ISZERO PUSH2 0xE4 JUMPI RETURNDATASIZE PUSH1 0x0 DUP1 RETURNDATACOPY RETURNDATASIZE PUSH1 0x0 REVERT JUMPDEST POP POP POP POP DUP1 PUSH20 0xFFFFFFFFFFFFFFFFFFFFFFFFFFFFFFFFFFFFFFFF AND PUSH4 0x27E235E3 ADDRESS PUSH1 0x40 MLOAD DUP3 PUSH4 0xFFFFFFFF AND PUSH1 0xE0 SHL DUP2 MSTORE PUSH1 0x4 ADD PUSH2 0x121 SWAP2 SWAP1 PUSH2 0x24A JUMP JUMPDEST PUSH1 0x20 PUSH1 0x40 MLOAD DUP1 DUP4 SUB DUP2 DUP7 GAS STATICCALL ISZERO DUP1 ISZERO PUSH2 0x13E JUMPI RETURNDATASIZE PUSH1 0x0 DUP1 RETURNDATACOPY RETURNDATASIZE PUSH1 0x0 REVERT JUMPDEST POP POP POP POP PUSH1 0x40 MLOAD RETURNDATASIZE PUSH1 0x1F NOT PUSH1 0x1F DUP3 ADD AND DUP3 ADD DUP1 PUSH1 0x40 MSTORE POP DUP2 ADD SWAP1 PUSH2 0x162 SWAP2 SWAP1 PUSH2 0x296 JUMP JUMPDEST SWAP2 POP POP SWAP1 JUMP JUMPDEST PUSH2 0x258 DUP1 PUSH2 0x2C4 DUP4 CODECOPY ADD SWAP1 JUMP JUMPDEST PUSH1 0x0 DUP2 SWAP1 POP SWAP2 SWAP1 POP JUMP JUMPDEST PUSH2 0x188 DUP2 PUSH2 0x175 JUMP JUMPDEST DUP3 MSTORE POP POP JUMP JUMPDEST PUSH1 0x0 PUSH1 0x20 DUP3 ADD SWAP1 POP PUSH2 0x1A3 PUSH1 0x0 DUP4 ADD DUP5 PUSH2 0x17F JUMP JUMPDEST SWAP3 SWAP2 POP POP JUMP JUMPDEST PUSH1 0x0 DUP2 SWAP1 POP SWAP2 SWAP1 POP JUMP JUMPDEST PUSH1 0x0 DUP2 SWAP1 POP SWAP2 SWAP1 POP JUMP JUMPDEST PUSH1 0x0 PUSH2 0x1D8 PUSH2 0x1D3 PUSH2 0x1CE DUP5 PUSH2 0x1A9 JUMP JUMPDEST PUSH2 0x1B3 JUMP JUMPDEST PUSH2 0x175 JUMP JUMPDEST SWAP1 POP SWAP2 SWAP1 POP JUMP JUMPDEST PUSH2 0x1E8 DUP2 PUSH2 0x1BD JUMP JUMPDEST DUP3 MSTORE POP POP JUMP JUMPDEST PUSH1 0x0 PUSH1 0x20 DUP3 ADD SWAP1 POP PUSH2 0x203 PUSH1 0x0 DUP4 ADD DUP5 PUSH2 0x1DF JUMP JUMPDEST SWAP3 SWAP2 POP POP JUMP JUMPDEST PUSH1 0x0 PUSH20 0xFFFFFFFFFFFFFFFFFFFFFFFFFFFFFFFFFFFFFFFF DUP3 AND SWAP1 POP SWAP2 SWAP1 POP JUMP JUMPDEST PUSH1 0x0 PUSH2 0x234 DUP3 PUSH2 0x209 JUMP JUMPDEST SWAP1 POP SWAP2 SWAP1 POP JUMP JUMPDEST PUSH2 0x244 DUP2 PUSH2 0x229 JUMP JUMPDEST DUP3 MSTORE POP POP JUMP JUMPDEST PUSH1 0x0 PUSH1 0x20 DUP3 ADD SWAP1 POP PUSH2 0x25F PUSH1 0x0 DUP4 ADD DUP5 PUSH2 0x23B JUMP JUMPDEST SWAP3 SWAP2 POP POP JUMP JUMPDEST PUSH1 0x0 DUP1 REVERT JUMPDEST PUSH2 0x273 DUP2 PUSH2 0x175 JUMP JUMPDEST DUP2 EQ PUSH2 0x27E JUMPI PUSH1 0x0 DUP1 REVERT JUMPDEST POP JUMP JUMPDEST PUSH1 0x0 DUP2 MLOAD SWAP1 POP PUSH2 0x290 DUP2 PUSH2 0x26A JUMP JUMPDEST SWAP3 SWAP2 POP POP JUMP JUMPDEST PUSH1 0x0 PUSH1 0x20 DUP3 DUP5 SUB SLT ISZERO PUSH2 0x2AC JUMPI PUSH2 0x2AB PUSH2 0x265 JUMP JUMPDEST JUMPDEST PUSH1 0x0 PUSH2 0x2BA DUP5 DUP3 DUP6 ADD PUSH2 0x281 JUMP JUMPDEST SWAP2 POP POP SWAP3 SWAP2 POP POP JUMP INVALID PUSH1 0x80 PUSH1 0x40 MSTORE CALLVALUE DUP1 ISZERO PUSH2 0x10 JUMPI PUSH1 0x0 DUP1 REVERT JUMPDEST POP PUSH2 0x238 DUP1 PUSH2 0x20 PUSH1 0x0 CODECOPY PUSH1 0x0 RETURN INVALID PUSH1 0x80 PUSH1 0x40 MSTORE CALLVALUE DUP1 ISZERO PUSH2 0x10 JUMPI PUSH1 0x0 DUP1 REVERT JUMPDEST POP PUSH1 0x4 CALLDATASIZE LT PUSH2 0x36 JUMPI PUSH1 0x0 CALLDATALOAD PUSH1 0xE0 SHR DUP1 PUSH4 0x27E235E3 EQ PUSH2 0x3B JUMPI DUP1 PUSH4 0xBA7B37D4 EQ PUSH2 0x6B JUMPI JUMPDEST PUSH1 0x0 DUP1 REVERT JUMPDEST PUSH2 0x55 PUSH1 0x4 DUP1 CALLDATASIZE SUB DUP2 ADD SWAP1 PUSH2 0x50 SWAP2 SWAP1 PUSH2 0x148 JUMP JUMPDEST PUSH2 0x87 JUMP JUMPDEST PUSH1 0x40 MLOAD PUSH2 0x62 SWAP2 SWAP1 PUSH2 0x18E JUMP JUMPDEST PUSH1 0x40 MLOAD DUP1 SWAP2 SUB SWAP1 RETURN JUMPDEST PUSH2 0x85 PUSH1 0x4 DUP1 CALLDATASIZE SUB DUP2 ADD SWAP1 PUSH2 0x80 SWAP2 SWAP1 PUSH2 0x1D5 JUMP JUMPDEST PUSH2 0x9F JUMP JUMPDEST STOP JUMPDEST PUSH1 0x0 PUSH1 0x20 MSTORE DUP1 PUSH1 0x0 MSTORE PUSH1 0x40 PUSH1 0x0 KECCAK256 PUSH1 0x0 SWAP2 POP SWAP1 POP SLOAD DUP2 JUMP JUMPDEST DUP1 PUSH1 0x0 DUP1 CALLER PUSH20 0xFFFFFFFFFFFFFFFFFFFFFFFFFFFFFFFFFFFFFFFF AND PUSH20 0xFFFFFFFFFFFFFFFFFFFFFFFFFFFFFFFFFFFFFFFF AND DUP2 MSTORE PUSH1 0x20 ADD SWAP1 DUP2 MSTORE PUSH1 0x20 ADD PUSH1 0x0 KECCAK256 DUP2 SWAP1 SSTORE POP POP JUMP JUMPDEST PUSH1 0x0 DUP1 REVERT JUMPDEST PUSH1 0x0 PUSH20 0xFFFFFFFFFFFFFFFFFFFFFFFFFFFFFFFFFFFFFFFF DUP3 AND SWAP1 POP SWAP2 SWAP1 POP JUMP JUMPDEST PUSH1 0x0 PUSH2 0x115 DUP3 PUSH2 0xEA JUMP JUMPDEST SWAP1 POP SWAP2 SWAP1 POP JUMP JUMPDEST PUSH2 0x125 DUP2 PUSH2 0x10A JUMP JUMPDEST DUP2 EQ PUSH2 0x130 JUMPI PUSH1 0x0 DUP1 REVERT JUMPDEST POP JUMP JUMPDEST PUSH1 0x0 DUP2 CALLDATALOAD SWAP1 POP PUSH2 0x142 DUP2 PUSH2 0x11C JUMP JUMPDEST SWAP3 SWAP2 POP POP JUMP JUMPDEST PUSH1 0x0 PUSH1 0x20 DUP3 DUP5 SUB SLT ISZERO PUSH2 0x15E JUMPI PUSH2 0x15D PUSH2 0xE5 JUMP JUMPDEST JUMPDEST PUSH1 0x0 PUSH2 0x16C DUP5 DUP3 DUP6 ADD PUSH2 0x133 JUMP JUMPDEST SWAP2 POP POP SWAP3 SWAP2 POP POP JUMP JUMPDEST PUSH1 0x0 DUP2 SWAP1 POP SWAP2 SWAP1 POP JUMP JUMPDEST PUSH2 0x188 DUP2 PUSH2 0x175 JUMP JUMPDEST DUP3 MSTORE POP POP JUMP JUMPDEST PUSH1 0x0 PUSH1 0x20 DUP3 ADD SWAP1 POP PUSH2 0x1A3 PUSH1 0x0 DUP4 ADD DUP5 PUSH2 0x17F JUMP JUMPDEST SWAP3 SWAP2 POP POP JUMP JUMPDEST PUSH2 0x1B2 DUP2 PUSH2 0x175 JUMP JUMPDEST DUP2 EQ PUSH2 0x1BD JUMPI PUSH1 0x0 DUP1 REVERT JUMPDEST POP JUMP JUMPDEST PUSH1 0x0 DUP2 CALLDATALOAD SWAP1 POP PUSH2 0x1CF DUP2 PUSH2 0x1A9 JUMP JUMPDEST SWAP3 SWAP2 POP POP JUMP JUMPDEST PUSH1 0x0 PUSH1 0x20 DUP3 DUP5 SUB SLT ISZERO PUSH2 0x1EB JUMPI PUSH2 0x1EA PUSH2 0xE5 JUMP JUMPDEST JUMPDEST PUSH1 0x0 PUSH2 0x1F9 DUP5 DUP3 DUP6 ADD PUSH2 0x1C0 JUMP JUMPDEST SWAP2 POP POP SWAP3 SWAP2 POP POP JUMP INVALID LOG2 PUSH5 0x6970667358 0x22 SLT KECCAK256 PUSH1 0x23 RETURNDATACOPY 0xDA 0xD5 0xE3 EQ 0xD5 0x21 CALLER 0xFB 0x25 CALL DELEGATECALL GASPRICE ORIGIN 0x2A SWAP9 RETURNDATACOPY 0xAB MSIZE 0xDB 0xCA 0x4A 0x4D ADD MULMOD 0xDC LOG0 SELFBALANCE 0xC7 CALLDATASIZE PUSH5 0x736F6C6343 STOP ADDMOD SLT STOP CALLER LOG2 PUSH5 0x6970667358 0x22 SLT KECCAK256 0xBB PUSH29 0xC5D22E2799EA0DE05D13B5EB05CD13E49ABA062E2A39B7956CE7A25B57 DELEGATECALL PUSH5 0x736F6C6343 STOP ADDMOD SLT STOP CALLER "
				},
				"gasEstimates": {
					"creation": {
						"codeDepositCost": "272200",
						"executionCost": "312",
						"totalCost": "272512"
					},
					"external": {
						"updateBalance()": "infinite"
					}
				},
				"methodIdentifiers": {
					"updateBalance()": "a9559dd7"
				}
			},
			"storageLayout": {
				"storage": [],
				"types": null
			},
			"userdoc": {
				"kind": "user",
				"methods": {},
				"version": 1
			}
		}
	}
}