{
	"inheritance2.sol": {
		"Student": {
			"abi": [
				{
					"inputs": [
						{
							"internalType": "string",
							"name": "_name",
							"type": "string"
						},
						{
							"internalType": "uint256",
							"name": "_age",
							"type": "uint256"
						},
						{
							"internalType": "uint256",
							"name": "_rollNumber",
							"type": "uint256"
						}
					],
					"stateMutability": "nonpayable",
					"type": "constructor"
				},
				{
					"inputs": [],
					"name": "age",
					"outputs": [
						{
							"internalType": "uint256",
							"name": "",
							"type": "uint256"
						}
					],
					"stateMutability": "view",
					"type": "function"
				},
				{
					"inputs": [],
					"name": "name",
					"outputs": [
						{
							"internalType": "string",
							"name": "",
							"type": "string"
						}
					],
					"stateMutability": "view",
					"type": "function"
				},
				{
					"inputs": [],
					"name": "rollNumber",
					"outputs": [
						{
							"internalType": "uint256",
							"name": "",
							"type": "uint256"
						}
					],
					"stateMutability": "view",
					"type": "function"
				},
				{
					"inputs": [
						{
							"internalType": "string",
							"name": "_name",
							"type": "string"
						},
						{
							"internalType": "uint256",
							"name": "_age",
							"type": "uint256"
						}
					],
					"name": "updatePerson",
					"outputs": [],
					"stateMutability": "nonpayable",
					"type": "function"
				},
				{
					"inputs": [
						{
							"internalType": "string",
							"name": "_name",
							"type": "string"
						},
						{
							"internalType": "uint256",
							"name": "_age",
							"type": "uint256"
						},
						{
							"internalType": "uint256",
							"name": "_rollNumber",
							"type": "uint256"
						}
					],
					"name": "updateStudent",
					"outputs": [],
					"stateMutability": "nonpayable",
					"type": "function"
				}
			],
			"devdoc": {
				"kind": "dev",
				"methods": {},
				"version": 1
			},
			"evm": {
				"assembly": "    /* \"inheritance2.sol\":474:871  contract Student is Person {... */\n  mstore(0x40, 0x80)\n    /* \"inheritance2.sol\":542:687  constructor(string memory _name, uint256 _age, uint256 _rollNumber)... */\n  callvalue\n  dup1\n  iszero\n  tag_1\n  jumpi\n  0x00\n  dup1\n  revert\ntag_1:\n  pop\n  mload(0x40)\n  sub(codesize, bytecodeSize)\n  dup1\n  bytecodeSize\n  dup4\n  codecopy\n  dup2\n  dup2\n  add\n  0x40\n  mstore\n  dup2\n  add\n  swap1\n  tag_2\n  swap2\n  swap1\n  tag_3\n  jump\t// in\ntag_2:\n    /* \"inheritance2.sol\":626:631  _name */\n  dup3\n    /* \"inheritance2.sol\":633:637  _age */\n  dup3\n    /* \"inheritance2.sol\":247:252  _name */\n  dup2\n    /* \"inheritance2.sol\":240:244  name */\n  0x00\n    /* \"inheritance2.sol\":240:252  name = _name */\n  swap1\n  dup2\n  tag_7\n  swap2\n  swap1\n  tag_8\n  jump\t// in\ntag_7:\n  pop\n    /* \"inheritance2.sol\":269:273  _age */\n  dup1\n    /* \"inheritance2.sol\":263:266  age */\n  0x01\n    /* \"inheritance2.sol\":263:273  age = _age */\n  dup2\n  swap1\n  sstore\n  pop\n    /* \"inheritance2.sol\":182:281  constructor(string memory _name, uint256 _age) {... */\n  pop\n  pop\n    /* \"inheritance2.sol\":668:679  _rollNumber */\n  dup1\n    /* \"inheritance2.sol\":655:665  rollNumber */\n  0x02\n    /* \"inheritance2.sol\":655:679  rollNumber = _rollNumber */\n  dup2\n  swap1\n  sstore\n  pop\n    /* \"inheritance2.sol\":542:687  constructor(string memory _name, uint256 _age, uint256 _rollNumber)... */\n  pop\n  pop\n  pop\n    /* \"inheritance2.sol\":474:871  contract Student is Person {... */\n  jump(tag_10)\n    /* \"#utility.yul\":7:82   */\ntag_11:\n    /* \"#utility.yul\":40:46   */\n  0x00\n    /* \"#utility.yul\":73:75   */\n  0x40\n    /* \"#utility.yul\":67:76   */\n  mload\n    /* \"#utility.yul\":57:76   */\n  swap1\n  pop\n    /* \"#utility.yul\":7:82   */\n  swap1\n  jump\t// out\n    /* \"#utility.yul\":88:205   */\ntag_12:\n    /* \"#utility.yul\":197:198   */\n  0x00\n    /* \"#utility.yul\":194:195   */\n  dup1\n    /* \"#utility.yul\":187:199   */\n  revert\n    /* \"#utility.yul\":211:328   */\ntag_13:\n    /* \"#utility.yul\":320:321   */\n  0x00\n    /* \"#utility.yul\":317:318   */\n  dup1\n    /* \"#utility.yul\":310:322   */\n  revert\n    /* \"#utility.yul\":334:451   */\ntag_14:\n    /* \"#utility.yul\":443:444   */\n  0x00\n    /* \"#utility.yul\":440:441   */\n  dup1\n    /* \"#utility.yul\":433:445   */\n  revert\n    /* \"#utility.yul\":457:574   */\ntag_15:\n    /* \"#utility.yul\":566:567   */\n  0x00\n    /* \"#utility.yul\":563:564   */\n  dup1\n    /* \"#utility.yul\":556:568   */\n  revert\n    /* \"#utility.yul\":580:682   */\ntag_16:\n    /* \"#utility.yul\":621:627   */\n  0x00\n    /* \"#utility.yul\":672:674   */\n  0x1f\n    /* \"#utility.yul\":668:675   */\n  not\n    /* \"#utility.yul\":663:665   */\n  0x1f\n    /* \"#utility.yul\":656:661   */\n  dup4\n    /* \"#utility.yul\":652:666   */\n  add\n    /* \"#utility.yul\":648:676   */\n  and\n    /* \"#utility.yul\":638:676   */\n  swap1\n  pop\n    /* \"#utility.yul\":580:682   */\n  swap2\n  swap1\n  pop\n  jump\t// out\n    /* \"#utility.yul\":688:868   */\ntag_17:\n    /* \"#utility.yul\":736:813   */\n  0x4e487b7100000000000000000000000000000000000000000000000000000000\n    /* \"#utility.yul\":733:734   */\n  0x00\n    /* \"#utility.yul\":726:814   */\n  mstore\n    /* \"#utility.yul\":833:837   */\n  0x41\n    /* \"#utility.yul\":830:831   */\n  0x04\n    /* \"#utility.yul\":823:838   */\n  mstore\n    /* \"#utility.yul\":857:861   */\n  0x24\n    /* \"#utility.yul\":854:855   */\n  0x00\n    /* \"#utility.yul\":847:862   */\n  revert\n    /* \"#utility.yul\":874:1155   */\ntag_18:\n    /* \"#utility.yul\":957:984   */\n  tag_54\n    /* \"#utility.yul\":979:983   */\n  dup3\n    /* \"#utility.yul\":957:984   */\n  tag_16\n  jump\t// in\ntag_54:\n    /* \"#utility.yul\":949:955   */\n  dup2\n    /* \"#utility.yul\":945:985   */\n  add\n    /* \"#utility.yul\":1087:1093   */\n  dup2\n    /* \"#utility.yul\":1075:1085   */\n  dup2\n    /* \"#utility.yul\":1072:1094   */\n  lt\n    /* \"#utility.yul\":1051:1069   */\n  0xffffffffffffffff\n    /* \"#utility.yul\":1039:1049   */\n  dup3\n    /* \"#utility.yul\":1036:1070   */\n  gt\n    /* \"#utility.yul\":1033:1095   */\n  or\n    /* \"#utility.yul\":1030:1118   */\n  iszero\n  tag_55\n  jumpi\n    /* \"#utility.yul\":1098:1116   */\n  tag_56\n  tag_17\n  jump\t// in\ntag_56:\n    /* \"#utility.yul\":1030:1118   */\ntag_55:\n    /* \"#utility.yul\":1138:1148   */\n  dup1\n    /* \"#utility.yul\":1134:1136   */\n  0x40\n    /* \"#utility.yul\":1127:1149   */\n  mstore\n    /* \"#utility.yul\":917:1155   */\n  pop\n    /* \"#utility.yul\":874:1155   */\n  pop\n  pop\n  jump\t// out\n    /* \"#utility.yul\":1161:1290   */\ntag_19:\n    /* \"#utility.yul\":1195:1201   */\n  0x00\n    /* \"#utility.yul\":1222:1242   */\n  tag_58\n  tag_11\n  jump\t// in\ntag_58:\n    /* \"#utility.yul\":1212:1242   */\n  swap1\n  pop\n    /* \"#utility.yul\":1251:1284   */\n  tag_59\n    /* \"#utility.yul\":1279:1283   */\n  dup3\n    /* \"#utility.yul\":1271:1277   */\n  dup3\n    /* \"#utility.yul\":1251:1284   */\n  tag_18\n  jump\t// in\ntag_59:\n    /* \"#utility.yul\":1161:1290   */\n  swap2\n  swap1\n  pop\n  jump\t// out\n    /* \"#utility.yul\":1296:1604   */\ntag_20:\n    /* \"#utility.yul\":1358:1362   */\n  0x00\n    /* \"#utility.yul\":1448:1466   */\n  0xffffffffffffffff\n    /* \"#utility.yul\":1440:1446   */\n  dup3\n    /* \"#utility.yul\":1437:1467   */\n  gt\n    /* \"#utility.yul\":1434:1490   */\n  iszero\n  tag_61\n  jumpi\n    /* \"#utility.yul\":1470:1488   */\n  tag_62\n  tag_17\n  jump\t// in\ntag_62:\n    /* \"#utility.yul\":1434:1490   */\ntag_61:\n    /* \"#utility.yul\":1508:1537   */\n  tag_63\n    /* \"#utility.yul\":1530:1536   */\n  dup3\n    /* \"#utility.yul\":1508:1537   */\n  tag_16\n  jump\t// in\ntag_63:\n    /* \"#utility.yul\":1500:1537   */\n  swap1\n  pop\n    /* \"#utility.yul\":1592:1596   */\n  0x20\n    /* \"#utility.yul\":1586:1590   */\n  dup2\n    /* \"#utility.yul\":1582:1597   */\n  add\n    /* \"#utility.yul\":1574:1597   */\n  swap1\n  pop\n    /* \"#utility.yul\":1296:1604   */\n  swap2\n  swap1\n  pop\n  jump\t// out\n    /* \"#utility.yul\":1610:1856   */\ntag_21:\n    /* \"#utility.yul\":1691:1692   */\n  0x00\n    /* \"#utility.yul\":1701:1814   */\ntag_65:\n    /* \"#utility.yul\":1715:1721   */\n  dup4\n    /* \"#utility.yul\":1712:1713   */\n  dup2\n    /* \"#utility.yul\":1709:1722   */\n  lt\n    /* \"#utility.yul\":1701:1814   */\n  iszero\n  tag_67\n  jumpi\n    /* \"#utility.yul\":1800:1801   */\n  dup1\n    /* \"#utility.yul\":1795:1798   */\n  dup3\n    /* \"#utility.yul\":1791:1802   */\n  add\n    /* \"#utility.yul\":1785:1803   */\n  mload\n    /* \"#utility.yul\":1781:1782   */\n  dup2\n    /* \"#utility.yul\":1776:1779   */\n  dup5\n    /* \"#utility.yul\":1772:1783   */\n  add\n    /* \"#utility.yul\":1765:1804   */\n  mstore\n    /* \"#utility.yul\":1737:1739   */\n  0x20\n    /* \"#utility.yul\":1734:1735   */\n  dup2\n    /* \"#utility.yul\":1730:1740   */\n  add\n    /* \"#utility.yul\":1725:1740   */\n  swap1\n  pop\n    /* \"#utility.yul\":1701:1814   */\n  jump(tag_65)\ntag_67:\n    /* \"#utility.yul\":1848:1849   */\n  0x00\n    /* \"#utility.yul\":1839:1845   */\n  dup5\n    /* \"#utility.yul\":1834:1837   */\n  dup5\n    /* \"#utility.yul\":1830:1846   */\n  add\n    /* \"#utility.yul\":1823:1850   */\n  mstore\n    /* \"#utility.yul\":1672:1856   */\n  pop\n    /* \"#utility.yul\":1610:1856   */\n  pop\n  pop\n  pop\n  jump\t// out\n    /* \"#utility.yul\":1862:2296   */\ntag_22:\n    /* \"#utility.yul\":1951:1956   */\n  0x00\n    /* \"#utility.yul\":1976:2042   */\n  tag_69\n    /* \"#utility.yul\":1992:2041   */\n  tag_70\n    /* \"#utility.yul\":2034:2040   */\n  dup5\n    /* \"#utility.yul\":1992:2041   */\n  tag_20\n  jump\t// in\ntag_70:\n    /* \"#utility.yul\":1976:2042   */\n  tag_19\n  jump\t// in\ntag_69:\n    /* \"#utility.yul\":1967:2042   */\n  swap1\n  pop\n    /* \"#utility.yul\":2065:2071   */\n  dup3\n    /* \"#utility.yul\":2058:2063   */\n  dup2\n    /* \"#utility.yul\":2051:2072   */\n  mstore\n    /* \"#utility.yul\":2103:2107   */\n  0x20\n    /* \"#utility.yul\":2096:2101   */\n  dup2\n    /* \"#utility.yul\":2092:2108   */\n  add\n    /* \"#utility.yul\":2141:2144   */\n  dup5\n    /* \"#utility.yul\":2132:2138   */\n  dup5\n    /* \"#utility.yul\":2127:2130   */\n  dup5\n    /* \"#utility.yul\":2123:2139   */\n  add\n    /* \"#utility.yul\":2120:2145   */\n  gt\n    /* \"#utility.yul\":2117:2229   */\n  iszero\n  tag_71\n  jumpi\n    /* \"#utility.yul\":2148:2227   */\n  tag_72\n  tag_15\n  jump\t// in\ntag_72:\n    /* \"#utility.yul\":2117:2229   */\ntag_71:\n    /* \"#utility.yul\":2238:2290   */\n  tag_73\n    /* \"#utility.yul\":2283:2289   */\n  dup5\n    /* \"#utility.yul\":2278:2281   */\n  dup3\n    /* \"#utility.yul\":2273:2276   */\n  dup6\n    /* \"#utility.yul\":2238:2290   */\n  tag_21\n  jump\t// in\ntag_73:\n    /* \"#utility.yul\":1957:2296   */\n  pop\n    /* \"#utility.yul\":1862:2296   */\n  swap4\n  swap3\n  pop\n  pop\n  pop\n  jump\t// out\n    /* \"#utility.yul\":2316:2671   */\ntag_23:\n    /* \"#utility.yul\":2383:2388   */\n  0x00\n    /* \"#utility.yul\":2432:2435   */\n  dup3\n    /* \"#utility.yul\":2425:2429   */\n  0x1f\n    /* \"#utility.yul\":2417:2423   */\n  dup4\n    /* \"#utility.yul\":2413:2430   */\n  add\n    /* \"#utility.yul\":2409:2436   */\n  slt\n    /* \"#utility.yul\":2399:2521   */\n  tag_75\n  jumpi\n    /* \"#utility.yul\":2440:2519   */\n  tag_76\n  tag_14\n  jump\t// in\ntag_76:\n    /* \"#utility.yul\":2399:2521   */\ntag_75:\n    /* \"#utility.yul\":2550:2556   */\n  dup2\n    /* \"#utility.yul\":2544:2557   */\n  mload\n    /* \"#utility.yul\":2575:2665   */\n  tag_77\n    /* \"#utility.yul\":2661:2664   */\n  dup5\n    /* \"#utility.yul\":2653:2659   */\n  dup3\n    /* \"#utility.yul\":2646:2650   */\n  0x20\n    /* \"#utility.yul\":2638:2644   */\n  dup7\n    /* \"#utility.yul\":2634:2651   */\n  add\n    /* \"#utility.yul\":2575:2665   */\n  tag_22\n  jump\t// in\ntag_77:\n    /* \"#utility.yul\":2566:2665   */\n  swap2\n  pop\n    /* \"#utility.yul\":2389:2671   */\n  pop\n    /* \"#utility.yul\":2316:2671   */\n  swap3\n  swap2\n  pop\n  pop\n  jump\t// out\n    /* \"#utility.yul\":2677:2754   */\ntag_24:\n    /* \"#utility.yul\":2714:2721   */\n  0x00\n    /* \"#utility.yul\":2743:2748   */\n  dup2\n    /* \"#utility.yul\":2732:2748   */\n  swap1\n  pop\n    /* \"#utility.yul\":2677:2754   */\n  swap2\n  swap1\n  pop\n  jump\t// out\n    /* \"#utility.yul\":2760:2882   */\ntag_25:\n    /* \"#utility.yul\":2833:2857   */\n  tag_80\n    /* \"#utility.yul\":2851:2856   */\n  dup2\n    /* \"#utility.yul\":2833:2857   */\n  tag_24\n  jump\t// in\ntag_80:\n    /* \"#utility.yul\":2826:2831   */\n  dup2\n    /* \"#utility.yul\":2823:2858   */\n  eq\n    /* \"#utility.yul\":2813:2876   */\n  tag_81\n  jumpi\n    /* \"#utility.yul\":2872:2873   */\n  0x00\n    /* \"#utility.yul\":2869:2870   */\n  dup1\n    /* \"#utility.yul\":2862:2874   */\n  revert\n    /* \"#utility.yul\":2813:2876   */\ntag_81:\n    /* \"#utility.yul\":2760:2882   */\n  pop\n  jump\t// out\n    /* \"#utility.yul\":2888:3031   */\ntag_26:\n    /* \"#utility.yul\":2945:2950   */\n  0x00\n    /* \"#utility.yul\":2976:2982   */\n  dup2\n    /* \"#utility.yul\":2970:2983   */\n  mload\n    /* \"#utility.yul\":2961:2983   */\n  swap1\n  pop\n    /* \"#utility.yul\":2992:3025   */\n  tag_83\n    /* \"#utility.yul\":3019:3024   */\n  dup2\n    /* \"#utility.yul\":2992:3025   */\n  tag_25\n  jump\t// in\ntag_83:\n    /* \"#utility.yul\":2888:3031   */\n  swap3\n  swap2\n  pop\n  pop\n  jump\t// out\n    /* \"#utility.yul\":3037:3873   */\ntag_3:\n    /* \"#utility.yul\":3135:3141   */\n  0x00\n    /* \"#utility.yul\":3143:3149   */\n  dup1\n    /* \"#utility.yul\":3151:3157   */\n  0x00\n    /* \"#utility.yul\":3200:3202   */\n  0x60\n    /* \"#utility.yul\":3188:3197   */\n  dup5\n    /* \"#utility.yul\":3179:3186   */\n  dup7\n    /* \"#utility.yul\":3175:3198   */\n  sub\n    /* \"#utility.yul\":3171:3203   */\n  slt\n    /* \"#utility.yul\":3168:3287   */\n  iszero\n  tag_85\n  jumpi\n    /* \"#utility.yul\":3206:3285   */\n  tag_86\n  tag_12\n  jump\t// in\ntag_86:\n    /* \"#utility.yul\":3168:3287   */\ntag_85:\n    /* \"#utility.yul\":3347:3348   */\n  0x00\n    /* \"#utility.yul\":3336:3345   */\n  dup5\n    /* \"#utility.yul\":3332:3349   */\n  add\n    /* \"#utility.yul\":3326:3350   */\n  mload\n    /* \"#utility.yul\":3377:3395   */\n  0xffffffffffffffff\n    /* \"#utility.yul\":3369:3375   */\n  dup2\n    /* \"#utility.yul\":3366:3396   */\n  gt\n    /* \"#utility.yul\":3363:3480   */\n  iszero\n  tag_87\n  jumpi\n    /* \"#utility.yul\":3399:3478   */\n  tag_88\n  tag_13\n  jump\t// in\ntag_88:\n    /* \"#utility.yul\":3363:3480   */\ntag_87:\n    /* \"#utility.yul\":3504:3578   */\n  tag_89\n    /* \"#utility.yul\":3570:3577   */\n  dup7\n    /* \"#utility.yul\":3561:3567   */\n  dup3\n    /* \"#utility.yul\":3550:3559   */\n  dup8\n    /* \"#utility.yul\":3546:3568   */\n  add\n    /* \"#utility.yul\":3504:3578   */\n  tag_23\n  jump\t// in\ntag_89:\n    /* \"#utility.yul\":3494:3578   */\n  swap4\n  pop\n    /* \"#utility.yul\":3297:3588   */\n  pop\n    /* \"#utility.yul\":3627:3629   */\n  0x20\n    /* \"#utility.yul\":3653:3717   */\n  tag_90\n    /* \"#utility.yul\":3709:3716   */\n  dup7\n    /* \"#utility.yul\":3700:3706   */\n  dup3\n    /* \"#utility.yul\":3689:3698   */\n  dup8\n    /* \"#utility.yul\":3685:3707   */\n  add\n    /* \"#utility.yul\":3653:3717   */\n  tag_26\n  jump\t// in\ntag_90:\n    /* \"#utility.yul\":3643:3717   */\n  swap3\n  pop\n    /* \"#utility.yul\":3598:3727   */\n  pop\n    /* \"#utility.yul\":3766:3768   */\n  0x40\n    /* \"#utility.yul\":3792:3856   */\n  tag_91\n    /* \"#utility.yul\":3848:3855   */\n  dup7\n    /* \"#utility.yul\":3839:3845   */\n  dup3\n    /* \"#utility.yul\":3828:3837   */\n  dup8\n    /* \"#utility.yul\":3824:3846   */\n  add\n    /* \"#utility.yul\":3792:3856   */\n  tag_26\n  jump\t// in\ntag_91:\n    /* \"#utility.yul\":3782:3856   */\n  swap2\n  pop\n    /* \"#utility.yul\":3737:3866   */\n  pop\n    /* \"#utility.yul\":3037:3873   */\n  swap3\n  pop\n  swap3\n  pop\n  swap3\n  jump\t// out\n    /* \"#utility.yul\":3879:3978   */\ntag_27:\n    /* \"#utility.yul\":3931:3937   */\n  0x00\n    /* \"#utility.yul\":3965:3970   */\n  dup2\n    /* \"#utility.yul\":3959:3971   */\n  mload\n    /* \"#utility.yul\":3949:3971   */\n  swap1\n  pop\n    /* \"#utility.yul\":3879:3978   */\n  swap2\n  swap1\n  pop\n  jump\t// out\n    /* \"#utility.yul\":3984:4164   */\ntag_28:\n    /* \"#utility.yul\":4032:4109   */\n  0x4e487b7100000000000000000000000000000000000000000000000000000000\n    /* \"#utility.yul\":4029:4030   */\n  0x00\n    /* \"#utility.yul\":4022:4110   */\n  mstore\n    /* \"#utility.yul\":4129:4133   */\n  0x22\n    /* \"#utility.yul\":4126:4127   */\n  0x04\n    /* \"#utility.yul\":4119:4134   */\n  mstore\n    /* \"#utility.yul\":4153:4157   */\n  0x24\n    /* \"#utility.yul\":4150:4151   */\n  0x00\n    /* \"#utility.yul\":4143:4158   */\n  revert\n    /* \"#utility.yul\":4170:4490   */\ntag_29:\n    /* \"#utility.yul\":4214:4220   */\n  0x00\n    /* \"#utility.yul\":4251:4252   */\n  0x02\n    /* \"#utility.yul\":4245:4249   */\n  dup3\n    /* \"#utility.yul\":4241:4253   */\n  div\n    /* \"#utility.yul\":4231:4253   */\n  swap1\n  pop\n    /* \"#utility.yul\":4298:4299   */\n  0x01\n    /* \"#utility.yul\":4292:4296   */\n  dup3\n    /* \"#utility.yul\":4288:4300   */\n  and\n    /* \"#utility.yul\":4319:4337   */\n  dup1\n    /* \"#utility.yul\":4309:4390   */\n  tag_95\n  jumpi\n    /* \"#utility.yul\":4375:4379   */\n  0x7f\n    /* \"#utility.yul\":4367:4373   */\n  dup3\n    /* \"#utility.yul\":4363:4380   */\n  and\n    /* \"#utility.yul\":4353:4380   */\n  swap2\n  pop\n    /* \"#utility.yul\":4309:4390   */\ntag_95:\n    /* \"#utility.yul\":4437:4439   */\n  0x20\n    /* \"#utility.yul\":4429:4435   */\n  dup3\n    /* \"#utility.yul\":4426:4440   */\n  lt\n    /* \"#utility.yul\":4406:4424   */\n  dup2\n    /* \"#utility.yul\":4403:4441   */\n  sub\n    /* \"#utility.yul\":4400:4484   */\n  tag_96\n  jumpi\n    /* \"#utility.yul\":4456:4474   */\n  tag_97\n  tag_28\n  jump\t// in\ntag_97:\n    /* \"#utility.yul\":4400:4484   */\ntag_96:\n    /* \"#utility.yul\":4221:4490   */\n  pop\n    /* \"#utility.yul\":4170:4490   */\n  swap2\n  swap1\n  pop\n  jump\t// out\n    /* \"#utility.yul\":4496:4637   */\ntag_30:\n    /* \"#utility.yul\":4545:4549   */\n  0x00\n    /* \"#utility.yul\":4568:4571   */\n  dup2\n    /* \"#utility.yul\":4560:4571   */\n  swap1\n  pop\n    /* \"#utility.yul\":4591:4594   */\n  dup2\n    /* \"#utility.yul\":4588:4589   */\n  0x00\n    /* \"#utility.yul\":4581:4595   */\n  mstore\n    /* \"#utility.yul\":4625:4629   */\n  0x20\n    /* \"#utility.yul\":4622:4623   */\n  0x00\n    /* \"#utility.yul\":4612:4630   */\n  keccak256\n    /* \"#utility.yul\":4604:4630   */\n  swap1\n  pop\n    /* \"#utility.yul\":4496:4637   */\n  swap2\n  swap1\n  pop\n  jump\t// out\n    /* \"#utility.yul\":4643:4736   */\ntag_31:\n    /* \"#utility.yul\":4680:4686   */\n  0x00\n    /* \"#utility.yul\":4727:4729   */\n  0x20\n    /* \"#utility.yul\":4722:4724   */\n  0x1f\n    /* \"#utility.yul\":4715:4720   */\n  dup4\n    /* \"#utility.yul\":4711:4725   */\n  add\n    /* \"#utility.yul\":4707:4730   */\n  div\n    /* \"#utility.yul\":4697:4730   */\n  swap1\n  pop\n    /* \"#utility.yul\":4643:4736   */\n  swap2\n  swap1\n  pop\n  jump\t// out\n    /* \"#utility.yul\":4742:4849   */\ntag_32:\n    /* \"#utility.yul\":4786:4794   */\n  0x00\n    /* \"#utility.yul\":4836:4841   */\n  dup3\n    /* \"#utility.yul\":4830:4834   */\n  dup3\n    /* \"#utility.yul\":4826:4842   */\n  shl\n    /* \"#utility.yul\":4805:4842   */\n  swap1\n  pop\n    /* \"#utility.yul\":4742:4849   */\n  swap3\n  swap2\n  pop\n  pop\n  jump\t// out\n    /* \"#utility.yul\":4855:5248   */\ntag_33:\n    /* \"#utility.yul\":4924:4930   */\n  0x00\n    /* \"#utility.yul\":4974:4975   */\n  0x08\n    /* \"#utility.yul\":4962:4972   */\n  dup4\n    /* \"#utility.yul\":4958:4976   */\n  mul\n    /* \"#utility.yul\":4997:5094   */\n  tag_102\n    /* \"#utility.yul\":5027:5093   */\n  0xffffffffffffffffffffffffffffffffffffffffffffffffffffffffffffffff\n    /* \"#utility.yul\":5016:5025   */\n  dup3\n    /* \"#utility.yul\":4997:5094   */\n  tag_32\n  jump\t// in\ntag_102:\n    /* \"#utility.yul\":5115:5154   */\n  tag_103\n    /* \"#utility.yul\":5145:5153   */\n  dup7\n    /* \"#utility.yul\":5134:5143   */\n  dup4\n    /* \"#utility.yul\":5115:5154   */\n  tag_32\n  jump\t// in\ntag_103:\n    /* \"#utility.yul\":5103:5154   */\n  swap6\n  pop\n    /* \"#utility.yul\":5187:5191   */\n  dup1\n    /* \"#utility.yul\":5183:5192   */\n  not\n    /* \"#utility.yul\":5176:5181   */\n  dup5\n    /* \"#utility.yul\":5172:5193   */\n  and\n    /* \"#utility.yul\":5163:5193   */\n  swap4\n  pop\n    /* \"#utility.yul\":5236:5240   */\n  dup1\n    /* \"#utility.yul\":5226:5234   */\n  dup7\n    /* \"#utility.yul\":5222:5241   */\n  and\n    /* \"#utility.yul\":5215:5220   */\n  dup5\n    /* \"#utility.yul\":5212:5242   */\n  or\n    /* \"#utility.yul\":5202:5242   */\n  swap3\n  pop\n    /* \"#utility.yul\":4931:5248   */\n  pop\n  pop\n    /* \"#utility.yul\":4855:5248   */\n  swap4\n  swap3\n  pop\n  pop\n  pop\n  jump\t// out\n    /* \"#utility.yul\":5254:5314   */\ntag_34:\n    /* \"#utility.yul\":5282:5285   */\n  0x00\n    /* \"#utility.yul\":5303:5308   */\n  dup2\n    /* \"#utility.yul\":5296:5308   */\n  swap1\n  pop\n    /* \"#utility.yul\":5254:5314   */\n  swap2\n  swap1\n  pop\n  jump\t// out\n    /* \"#utility.yul\":5320:5462   */\ntag_35:\n    /* \"#utility.yul\":5370:5379   */\n  0x00\n    /* \"#utility.yul\":5403:5456   */\n  tag_106\n    /* \"#utility.yul\":5421:5455   */\n  tag_107\n    /* \"#utility.yul\":5430:5454   */\n  tag_108\n    /* \"#utility.yul\":5448:5453   */\n  dup5\n    /* \"#utility.yul\":5430:5454   */\n  tag_24\n  jump\t// in\ntag_108:\n    /* \"#utility.yul\":5421:5455   */\n  tag_34\n  jump\t// in\ntag_107:\n    /* \"#utility.yul\":5403:5456   */\n  tag_24\n  jump\t// in\ntag_106:\n    /* \"#utility.yul\":5390:5456   */\n  swap1\n  pop\n    /* \"#utility.yul\":5320:5462   */\n  swap2\n  swap1\n  pop\n  jump\t// out\n    /* \"#utility.yul\":5468:5543   */\ntag_36:\n    /* \"#utility.yul\":5511:5514   */\n  0x00\n    /* \"#utility.yul\":5532:5537   */\n  dup2\n    /* \"#utility.yul\":5525:5537   */\n  swap1\n  pop\n    /* \"#utility.yul\":5468:5543   */\n  swap2\n  swap1\n  pop\n  jump\t// out\n    /* \"#utility.yul\":5549:5818   */\ntag_37:\n    /* \"#utility.yul\":5659:5698   */\n  tag_111\n    /* \"#utility.yul\":5690:5697   */\n  dup4\n    /* \"#utility.yul\":5659:5698   */\n  tag_35\n  jump\t// in\ntag_111:\n    /* \"#utility.yul\":5720:5811   */\n  tag_112\n    /* \"#utility.yul\":5769:5810   */\n  tag_113\n    /* \"#utility.yul\":5793:5809   */\n  dup3\n    /* \"#utility.yul\":5769:5810   */\n  tag_36\n  jump\t// in\ntag_113:\n    /* \"#utility.yul\":5761:5767   */\n  dup5\n    /* \"#utility.yul\":5754:5758   */\n  dup5\n    /* \"#utility.yul\":5748:5759   */\n  sload\n    /* \"#utility.yul\":5720:5811   */\n  tag_33\n  jump\t// in\ntag_112:\n    /* \"#utility.yul\":5714:5718   */\n  dup3\n    /* \"#utility.yul\":5707:5812   */\n  sstore\n    /* \"#utility.yul\":5625:5818   */\n  pop\n    /* \"#utility.yul\":5549:5818   */\n  pop\n  pop\n  pop\n  jump\t// out\n    /* \"#utility.yul\":5824:5897   */\ntag_38:\n    /* \"#utility.yul\":5869:5872   */\n  0x00\n    /* \"#utility.yul\":5824:5897   */\n  swap1\n  jump\t// out\n    /* \"#utility.yul\":5903:6092   */\ntag_39:\n    /* \"#utility.yul\":5980:6012   */\n  tag_116\n  tag_38\n  jump\t// in\ntag_116:\n    /* \"#utility.yul\":6021:6086   */\n  tag_117\n    /* \"#utility.yul\":6079:6085   */\n  dup2\n    /* \"#utility.yul\":6071:6077   */\n  dup5\n    /* \"#utility.yul\":6065:6069   */\n  dup5\n    /* \"#utility.yul\":6021:6086   */\n  tag_37\n  jump\t// in\ntag_117:\n    /* \"#utility.yul\":5956:6092   */\n  pop\n    /* \"#utility.yul\":5903:6092   */\n  pop\n  pop\n  jump\t// out\n    /* \"#utility.yul\":6098:6284   */\ntag_40:\n    /* \"#utility.yul\":6158:6278   */\ntag_119:\n    /* \"#utility.yul\":6175:6178   */\n  dup2\n    /* \"#utility.yul\":6168:6173   */\n  dup2\n    /* \"#utility.yul\":6165:6179   */\n  lt\n    /* \"#utility.yul\":6158:6278   */\n  iszero\n  tag_121\n  jumpi\n    /* \"#utility.yul\":6229:6268   */\n  tag_122\n    /* \"#utility.yul\":6266:6267   */\n  0x00\n    /* \"#utility.yul\":6259:6264   */\n  dup3\n    /* \"#utility.yul\":6229:6268   */\n  tag_39\n  jump\t// in\ntag_122:\n    /* \"#utility.yul\":6202:6203   */\n  0x01\n    /* \"#utility.yul\":6195:6200   */\n  dup2\n    /* \"#utility.yul\":6191:6204   */\n  add\n    /* \"#utility.yul\":6182:6204   */\n  swap1\n  pop\n    /* \"#utility.yul\":6158:6278   */\n  jump(tag_119)\ntag_121:\n    /* \"#utility.yul\":6098:6284   */\n  pop\n  pop\n  jump\t// out\n    /* \"#utility.yul\":6290:6833   */\ntag_41:\n    /* \"#utility.yul\":6391:6393   */\n  0x1f\n    /* \"#utility.yul\":6386:6389   */\n  dup3\n    /* \"#utility.yul\":6383:6394   */\n  gt\n    /* \"#utility.yul\":6380:6826   */\n  iszero\n  tag_124\n  jumpi\n    /* \"#utility.yul\":6425:6463   */\n  tag_125\n    /* \"#utility.yul\":6457:6462   */\n  dup2\n    /* \"#utility.yul\":6425:6463   */\n  tag_30\n  jump\t// in\ntag_125:\n    /* \"#utility.yul\":6509:6538   */\n  tag_126\n    /* \"#utility.yul\":6527:6537   */\n  dup5\n    /* \"#utility.yul\":6509:6538   */\n  tag_31\n  jump\t// in\ntag_126:\n    /* \"#utility.yul\":6499:6507   */\n  dup2\n    /* \"#utility.yul\":6495:6539   */\n  add\n    /* \"#utility.yul\":6692:6694   */\n  0x20\n    /* \"#utility.yul\":6680:6690   */\n  dup6\n    /* \"#utility.yul\":6677:6695   */\n  lt\n    /* \"#utility.yul\":6674:6723   */\n  iszero\n  tag_127\n  jumpi\n    /* \"#utility.yul\":6713:6721   */\n  dup2\n    /* \"#utility.yul\":6698:6721   */\n  swap1\n  pop\n    /* \"#utility.yul\":6674:6723   */\ntag_127:\n    /* \"#utility.yul\":6736:6816   */\n  tag_128\n    /* \"#utility.yul\":6792:6814   */\n  tag_129\n    /* \"#utility.yul\":6810:6813   */\n  dup6\n    /* \"#utility.yul\":6792:6814   */\n  tag_31\n  jump\t// in\ntag_129:\n    /* \"#utility.yul\":6782:6790   */\n  dup4\n    /* \"#utility.yul\":6778:6815   */\n  add\n    /* \"#utility.yul\":6765:6776   */\n  dup3\n    /* \"#utility.yul\":6736:6816   */\n  tag_40\n  jump\t// in\ntag_128:\n    /* \"#utility.yul\":6395:6826   */\n  pop\n  pop\n    /* \"#utility.yul\":6380:6826   */\ntag_124:\n    /* \"#utility.yul\":6290:6833   */\n  pop\n  pop\n  pop\n  jump\t// out\n    /* \"#utility.yul\":6839:6956   */\ntag_42:\n    /* \"#utility.yul\":6893:6901   */\n  0x00\n    /* \"#utility.yul\":6943:6948   */\n  dup3\n    /* \"#utility.yul\":6937:6941   */\n  dup3\n    /* \"#utility.yul\":6933:6949   */\n  shr\n    /* \"#utility.yul\":6912:6949   */\n  swap1\n  pop\n    /* \"#utility.yul\":6839:6956   */\n  swap3\n  swap2\n  pop\n  pop\n  jump\t// out\n    /* \"#utility.yul\":6962:7131   */\ntag_43:\n    /* \"#utility.yul\":7006:7012   */\n  0x00\n    /* \"#utility.yul\":7039:7090   */\n  tag_132\n    /* \"#utility.yul\":7087:7088   */\n  0x00\n    /* \"#utility.yul\":7083:7089   */\n  not\n    /* \"#utility.yul\":7075:7080   */\n  dup5\n    /* \"#utility.yul\":7072:7073   */\n  0x08\n    /* \"#utility.yul\":7068:7081   */\n  mul\n    /* \"#utility.yul\":7039:7090   */\n  tag_42\n  jump\t// in\ntag_132:\n    /* \"#utility.yul\":7035:7091   */\n  not\n    /* \"#utility.yul\":7120:7124   */\n  dup1\n    /* \"#utility.yul\":7114:7118   */\n  dup4\n    /* \"#utility.yul\":7110:7125   */\n  and\n    /* \"#utility.yul\":7100:7125   */\n  swap2\n  pop\n    /* \"#utility.yul\":7013:7131   */\n  pop\n    /* \"#utility.yul\":6962:7131   */\n  swap3\n  swap2\n  pop\n  pop\n  jump\t// out\n    /* \"#utility.yul\":7136:7431   */\ntag_44:\n    /* \"#utility.yul\":7212:7216   */\n  0x00\n    /* \"#utility.yul\":7358:7387   */\n  tag_134\n    /* \"#utility.yul\":7383:7386   */\n  dup4\n    /* \"#utility.yul\":7377:7381   */\n  dup4\n    /* \"#utility.yul\":7358:7387   */\n  tag_43\n  jump\t// in\ntag_134:\n    /* \"#utility.yul\":7350:7387   */\n  swap2\n  pop\n    /* \"#utility.yul\":7420:7423   */\n  dup3\n    /* \"#utility.yul\":7417:7418   */\n  0x02\n    /* \"#utility.yul\":7413:7424   */\n  mul\n    /* \"#utility.yul\":7407:7411   */\n  dup3\n    /* \"#utility.yul\":7404:7425   */\n  or\n    /* \"#utility.yul\":7396:7425   */\n  swap1\n  pop\n    /* \"#utility.yul\":7136:7431   */\n  swap3\n  swap2\n  pop\n  pop\n  jump\t// out\n    /* \"#utility.yul\":7436:8831   */\ntag_8:\n    /* \"#utility.yul\":7553:7590   */\n  tag_136\n    /* \"#utility.yul\":7586:7589   */\n  dup3\n    /* \"#utility.yul\":7553:7590   */\n  tag_27\n  jump\t// in\ntag_136:\n    /* \"#utility.yul\":7655:7673   */\n  0xffffffffffffffff\n    /* \"#utility.yul\":7647:7653   */\n  dup2\n    /* \"#utility.yul\":7644:7674   */\n  gt\n    /* \"#utility.yul\":7641:7697   */\n  iszero\n  tag_137\n  jumpi\n    /* \"#utility.yul\":7677:7695   */\n  tag_138\n  tag_17\n  jump\t// in\ntag_138:\n    /* \"#utility.yul\":7641:7697   */\ntag_137:\n    /* \"#utility.yul\":7721:7759   */\n  tag_139\n    /* \"#utility.yul\":7753:7757   */\n  dup3\n    /* \"#utility.yul\":7747:7758   */\n  sload\n    /* \"#utility.yul\":7721:7759   */\n  tag_29\n  jump\t// in\ntag_139:\n    /* \"#utility.yul\":7806:7873   */\n  tag_140\n    /* \"#utility.yul\":7866:7872   */\n  dup3\n    /* \"#utility.yul\":7858:7864   */\n  dup3\n    /* \"#utility.yul\":7852:7856   */\n  dup6\n    /* \"#utility.yul\":7806:7873   */\n  tag_41\n  jump\t// in\ntag_140:\n    /* \"#utility.yul\":7900:7901   */\n  0x00\n    /* \"#utility.yul\":7924:7928   */\n  0x20\n    /* \"#utility.yul\":7911:7928   */\n  swap1\n  pop\n    /* \"#utility.yul\":7956:7958   */\n  0x1f\n    /* \"#utility.yul\":7948:7954   */\n  dup4\n    /* \"#utility.yul\":7945:7959   */\n  gt\n    /* \"#utility.yul\":7973:7974   */\n  0x01\n    /* \"#utility.yul\":7968:8586   */\n  dup2\n  eq\n  tag_142\n  jumpi\n    /* \"#utility.yul\":8630:8631   */\n  0x00\n    /* \"#utility.yul\":8647:8653   */\n  dup5\n    /* \"#utility.yul\":8644:8721   */\n  iszero\n  tag_143\n  jumpi\n    /* \"#utility.yul\":8696:8705   */\n  dup3\n    /* \"#utility.yul\":8691:8694   */\n  dup8\n    /* \"#utility.yul\":8687:8706   */\n  add\n    /* \"#utility.yul\":8681:8707   */\n  mload\n    /* \"#utility.yul\":8672:8707   */\n  swap1\n  pop\n    /* \"#utility.yul\":8644:8721   */\ntag_143:\n    /* \"#utility.yul\":8747:8814   */\n  tag_144\n    /* \"#utility.yul\":8807:8813   */\n  dup6\n    /* \"#utility.yul\":8800:8805   */\n  dup3\n    /* \"#utility.yul\":8747:8814   */\n  tag_44\n  jump\t// in\ntag_144:\n    /* \"#utility.yul\":8741:8745   */\n  dup7\n    /* \"#utility.yul\":8734:8815   */\n  sstore\n    /* \"#utility.yul\":8603:8825   */\n  pop\n    /* \"#utility.yul\":7938:8825   */\n  jump(tag_141)\n    /* \"#utility.yul\":7968:8586   */\ntag_142:\n    /* \"#utility.yul\":8020:8024   */\n  0x1f\n    /* \"#utility.yul\":8016:8025   */\n  not\n    /* \"#utility.yul\":8008:8014   */\n  dup5\n    /* \"#utility.yul\":8004:8026   */\n  and\n    /* \"#utility.yul\":8054:8091   */\n  tag_145\n    /* \"#utility.yul\":8086:8090   */\n  dup7\n    /* \"#utility.yul\":8054:8091   */\n  tag_30\n  jump\t// in\ntag_145:\n    /* \"#utility.yul\":8113:8114   */\n  0x00\n    /* \"#utility.yul\":8127:8335   */\ntag_146:\n    /* \"#utility.yul\":8141:8148   */\n  dup3\n    /* \"#utility.yul\":8138:8139   */\n  dup2\n    /* \"#utility.yul\":8135:8149   */\n  lt\n    /* \"#utility.yul\":8127:8335   */\n  iszero\n  tag_148\n  jumpi\n    /* \"#utility.yul\":8220:8229   */\n  dup5\n    /* \"#utility.yul\":8215:8218   */\n  dup10\n    /* \"#utility.yul\":8211:8230   */\n  add\n    /* \"#utility.yul\":8205:8231   */\n  mload\n    /* \"#utility.yul\":8197:8203   */\n  dup3\n    /* \"#utility.yul\":8190:8232   */\n  sstore\n    /* \"#utility.yul\":8271:8272   */\n  0x01\n    /* \"#utility.yul\":8263:8269   */\n  dup3\n    /* \"#utility.yul\":8259:8273   */\n  add\n    /* \"#utility.yul\":8249:8273   */\n  swap2\n  pop\n    /* \"#utility.yul\":8318:8320   */\n  0x20\n    /* \"#utility.yul\":8307:8316   */\n  dup6\n    /* \"#utility.yul\":8303:8321   */\n  add\n    /* \"#utility.yul\":8290:8321   */\n  swap5\n  pop\n    /* \"#utility.yul\":8164:8168   */\n  0x20\n    /* \"#utility.yul\":8161:8162   */\n  dup2\n    /* \"#utility.yul\":8157:8169   */\n  add\n    /* \"#utility.yul\":8152:8169   */\n  swap1\n  pop\n    /* \"#utility.yul\":8127:8335   */\n  jump(tag_146)\ntag_148:\n    /* \"#utility.yul\":8363:8369   */\n  dup7\n    /* \"#utility.yul\":8354:8361   */\n  dup4\n    /* \"#utility.yul\":8351:8370   */\n  lt\n    /* \"#utility.yul\":8348:8527   */\n  iszero\n  tag_149\n  jumpi\n    /* \"#utility.yul\":8421:8430   */\n  dup5\n    /* \"#utility.yul\":8416:8419   */\n  dup10\n    /* \"#utility.yul\":8412:8431   */\n  add\n    /* \"#utility.yul\":8406:8432   */\n  mload\n    /* \"#utility.yul\":8464:8512   */\n  tag_150\n    /* \"#utility.yul\":8506:8510   */\n  0x1f\n    /* \"#utility.yul\":8498:8504   */\n  dup10\n    /* \"#utility.yul\":8494:8511   */\n  and\n    /* \"#utility.yul\":8483:8492   */\n  dup3\n    /* \"#utility.yul\":8464:8512   */\n  tag_43\n  jump\t// in\ntag_150:\n    /* \"#utility.yul\":8456:8462   */\n  dup4\n    /* \"#utility.yul\":8449:8513   */\n  sstore\n    /* \"#utility.yul\":8371:8527   */\n  pop\n    /* \"#utility.yul\":8348:8527   */\ntag_149:\n    /* \"#utility.yul\":8573:8574   */\n  0x01\n    /* \"#utility.yul\":8569:8570   */\n  0x02\n    /* \"#utility.yul\":8561:8567   */\n  dup9\n    /* \"#utility.yul\":8557:8571   */\n  mul\n    /* \"#utility.yul\":8553:8575   */\n  add\n    /* \"#utility.yul\":8547:8551   */\n  dup9\n    /* \"#utility.yul\":8540:8576   */\n  sstore\n    /* \"#utility.yul\":7975:8586   */\n  pop\n  pop\n  pop\n    /* \"#utility.yul\":7938:8825   */\ntag_141:\n  pop\n    /* \"#utility.yul\":7528:8831   */\n  pop\n  pop\n  pop\n    /* \"#utility.yul\":7436:8831   */\n  pop\n  pop\n  jump\t// out\n    /* \"inheritance2.sol\":474:871  contract Student is Person {... */\ntag_10:\n  dataSize(sub_0)\n  dup1\n  dataOffset(sub_0)\n  0x00\n  codecopy\n  0x00\n  return\nstop\n\nsub_0: assembly {\n        /* \"inheritance2.sol\":474:871  contract Student is Person {... */\n      mstore(0x40, 0x80)\n      callvalue\n      dup1\n      iszero\n      tag_1\n      jumpi\n      0x00\n      dup1\n      revert\n    tag_1:\n      pop\n      jumpi(tag_2, lt(calldatasize, 0x04))\n      shr(0xe0, calldataload(0x00))\n      dup1\n      0x06fdde03\n      eq\n      tag_3\n      jumpi\n      dup1\n      0x262a9dff\n      eq\n      tag_4\n      jumpi\n      dup1\n      0xa883ba14\n      eq\n      tag_5\n      jumpi\n      dup1\n      0xac1bed58\n      eq\n      tag_6\n      jumpi\n      dup1\n      0xfd66e291\n      eq\n      tag_7\n      jumpi\n    tag_2:\n      0x00\n      dup1\n      revert\n        /* \"inheritance2.sol\":130:148  string public name */\n    tag_3:\n      tag_8\n      tag_9\n      jump\t// in\n    tag_8:\n      mload(0x40)\n      tag_10\n      swap2\n      swap1\n      tag_11\n      jump\t// in\n    tag_10:\n      mload(0x40)\n      dup1\n      swap2\n      sub\n      swap1\n      return\n        /* \"inheritance2.sol\":155:173  uint256 public age */\n    tag_4:\n      tag_12\n      tag_13\n      jump\t// in\n    tag_12:\n      mload(0x40)\n      tag_14\n      swap2\n      swap1\n      tag_15\n      jump\t// in\n    tag_14:\n      mload(0x40)\n      dup1\n      swap2\n      sub\n      swap1\n      return\n        /* \"inheritance2.sol\":289:405  function updatePerson(string memory _name, uint256 _age) public {... */\n    tag_5:\n      tag_16\n      0x04\n      dup1\n      calldatasize\n      sub\n      dup2\n      add\n      swap1\n      tag_17\n      swap2\n      swap1\n      tag_18\n      jump\t// in\n    tag_17:\n      tag_19\n      jump\t// in\n    tag_16:\n      stop\n        /* \"inheritance2.sol\":508:533  uint256 public rollNumber */\n    tag_6:\n      tag_20\n      tag_21\n      jump\t// in\n    tag_20:\n      mload(0x40)\n      tag_22\n      swap2\n      swap1\n      tag_15\n      jump\t// in\n    tag_22:\n      mload(0x40)\n      dup1\n      swap2\n      sub\n      swap1\n      return\n        /* \"inheritance2.sol\":695:868  function updateStudent( string memory _name, uint256 _age, uint256 _rollNumber ) public ... */\n    tag_7:\n      tag_23\n      0x04\n      dup1\n      calldatasize\n      sub\n      dup2\n      add\n      swap1\n      tag_24\n      swap2\n      swap1\n      tag_25\n      jump\t// in\n    tag_24:\n      tag_26\n      jump\t// in\n    tag_23:\n      stop\n        /* \"inheritance2.sol\":130:148  string public name */\n    tag_9:\n      0x00\n      dup1\n      sload\n      tag_27\n      swap1\n      tag_28\n      jump\t// in\n    tag_27:\n      dup1\n      0x1f\n      add\n      0x20\n      dup1\n      swap2\n      div\n      mul\n      0x20\n      add\n      mload(0x40)\n      swap1\n      dup2\n      add\n      0x40\n      mstore\n      dup1\n      swap3\n      swap2\n      swap1\n      dup2\n      dup2\n      mstore\n      0x20\n      add\n      dup3\n      dup1\n      sload\n      tag_29\n      swap1\n      tag_28\n      jump\t// in\n    tag_29:\n      dup1\n      iszero\n      tag_30\n      jumpi\n      dup1\n      0x1f\n      lt\n      tag_31\n      jumpi\n      0x0100\n      dup1\n      dup4\n      sload\n      div\n      mul\n      dup4\n      mstore\n      swap2\n      0x20\n      add\n      swap2\n      jump(tag_30)\n    tag_31:\n      dup3\n      add\n      swap2\n      swap1\n      0x00\n      mstore\n      keccak256(0x00, 0x20)\n      swap1\n    tag_32:\n      dup2\n      sload\n      dup2\n      mstore\n      swap1\n      0x01\n      add\n      swap1\n      0x20\n      add\n      dup1\n      dup4\n      gt\n      tag_32\n      jumpi\n      dup3\n      swap1\n      sub\n      0x1f\n      and\n      dup3\n      add\n      swap2\n    tag_30:\n      pop\n      pop\n      pop\n      pop\n      pop\n      dup2\n      jump\t// out\n        /* \"inheritance2.sol\":155:173  uint256 public age */\n    tag_13:\n      sload(0x01)\n      dup2\n      jump\t// out\n        /* \"inheritance2.sol\":289:405  function updatePerson(string memory _name, uint256 _age) public {... */\n    tag_19:\n        /* \"inheritance2.sol\":371:376  _name */\n      dup2\n        /* \"inheritance2.sol\":364:368  name */\n      0x00\n        /* \"inheritance2.sol\":364:376  name = _name */\n      swap1\n      dup2\n      tag_34\n      swap2\n      swap1\n      tag_35\n      jump\t// in\n    tag_34:\n      pop\n        /* \"inheritance2.sol\":393:397  _age */\n      dup1\n        /* \"inheritance2.sol\":387:390  age */\n      0x01\n        /* \"inheritance2.sol\":387:397  age = _age */\n      dup2\n      swap1\n      sstore\n      pop\n        /* \"inheritance2.sol\":289:405  function updatePerson(string memory _name, uint256 _age) public {... */\n      pop\n      pop\n      jump\t// out\n        /* \"inheritance2.sol\":508:533  uint256 public rollNumber */\n    tag_21:\n      sload(0x02)\n      dup2\n      jump\t// out\n        /* \"inheritance2.sol\":695:868  function updateStudent( string memory _name, uint256 _age, uint256 _rollNumber ) public ... */\n    tag_26:\n        /* \"inheritance2.sol\":800:825  updatePerson(_name, _age) */\n      tag_37\n        /* \"inheritance2.sol\":813:818  _name */\n      dup4\n        /* \"inheritance2.sol\":820:824  _age */\n      dup4\n        /* \"inheritance2.sol\":800:812  updatePerson */\n      tag_19\n        /* \"inheritance2.sol\":800:825  updatePerson(_name, _age) */\n      jump\t// in\n    tag_37:\n        /* \"inheritance2.sol\":849:860  _rollNumber */\n      dup1\n        /* \"inheritance2.sol\":836:846  rollNumber */\n      0x02\n        /* \"inheritance2.sol\":836:860  rollNumber = _rollNumber */\n      dup2\n      swap1\n      sstore\n      pop\n        /* \"inheritance2.sol\":695:868  function updateStudent( string memory _name, uint256 _age, uint256 _rollNumber ) public ... */\n      pop\n      pop\n      pop\n      jump\t// out\n        /* \"#utility.yul\":7:106   */\n    tag_38:\n        /* \"#utility.yul\":59:65   */\n      0x00\n        /* \"#utility.yul\":93:98   */\n      dup2\n        /* \"#utility.yul\":87:99   */\n      mload\n        /* \"#utility.yul\":77:99   */\n      swap1\n      pop\n        /* \"#utility.yul\":7:106   */\n      swap2\n      swap1\n      pop\n      jump\t// out\n        /* \"#utility.yul\":112:281   */\n    tag_39:\n        /* \"#utility.yul\":196:207   */\n      0x00\n        /* \"#utility.yul\":230:236   */\n      dup3\n        /* \"#utility.yul\":225:228   */\n      dup3\n        /* \"#utility.yul\":218:237   */\n      mstore\n        /* \"#utility.yul\":270:274   */\n      0x20\n        /* \"#utility.yul\":265:268   */\n      dup3\n        /* \"#utility.yul\":261:275   */\n      add\n        /* \"#utility.yul\":246:275   */\n      swap1\n      pop\n        /* \"#utility.yul\":112:281   */\n      swap3\n      swap2\n      pop\n      pop\n      jump\t// out\n        /* \"#utility.yul\":287:533   */\n    tag_40:\n        /* \"#utility.yul\":368:369   */\n      0x00\n        /* \"#utility.yul\":378:491   */\n    tag_79:\n        /* \"#utility.yul\":392:398   */\n      dup4\n        /* \"#utility.yul\":389:390   */\n      dup2\n        /* \"#utility.yul\":386:399   */\n      lt\n        /* \"#utility.yul\":378:491   */\n      iszero\n      tag_81\n      jumpi\n        /* \"#utility.yul\":477:478   */\n      dup1\n        /* \"#utility.yul\":472:475   */\n      dup3\n        /* \"#utility.yul\":468:479   */\n      add\n        /* \"#utility.yul\":462:480   */\n      mload\n        /* \"#utility.yul\":458:459   */\n      dup2\n        /* \"#utility.yul\":453:456   */\n      dup5\n        /* \"#utility.yul\":449:460   */\n      add\n        /* \"#utility.yul\":442:481   */\n      mstore\n        /* \"#utility.yul\":414:416   */\n      0x20\n        /* \"#utility.yul\":411:412   */\n      dup2\n        /* \"#utility.yul\":407:417   */\n      add\n        /* \"#utility.yul\":402:417   */\n      swap1\n      pop\n        /* \"#utility.yul\":378:491   */\n      jump(tag_79)\n    tag_81:\n        /* \"#utility.yul\":525:526   */\n      0x00\n        /* \"#utility.yul\":516:522   */\n      dup5\n        /* \"#utility.yul\":511:514   */\n      dup5\n        /* \"#utility.yul\":507:523   */\n      add\n        /* \"#utility.yul\":500:527   */\n      mstore\n        /* \"#utility.yul\":349:533   */\n      pop\n        /* \"#utility.yul\":287:533   */\n      pop\n      pop\n      pop\n      jump\t// out\n        /* \"#utility.yul\":539:641   */\n    tag_41:\n        /* \"#utility.yul\":580:586   */\n      0x00\n        /* \"#utility.yul\":631:633   */\n      0x1f\n        /* \"#utility.yul\":627:634   */\n      not\n        /* \"#utility.yul\":622:624   */\n      0x1f\n        /* \"#utility.yul\":615:620   */\n      dup4\n        /* \"#utility.yul\":611:625   */\n      add\n        /* \"#utility.yul\":607:635   */\n      and\n        /* \"#utility.yul\":597:635   */\n      swap1\n      pop\n        /* \"#utility.yul\":539:641   */\n      swap2\n      swap1\n      pop\n      jump\t// out\n        /* \"#utility.yul\":647:1024   */\n    tag_42:\n        /* \"#utility.yul\":735:738   */\n      0x00\n        /* \"#utility.yul\":763:802   */\n      tag_84\n        /* \"#utility.yul\":796:801   */\n      dup3\n        /* \"#utility.yul\":763:802   */\n      tag_38\n      jump\t// in\n    tag_84:\n        /* \"#utility.yul\":818:889   */\n      tag_85\n        /* \"#utility.yul\":882:888   */\n      dup2\n        /* \"#utility.yul\":877:880   */\n      dup6\n        /* \"#utility.yul\":818:889   */\n      tag_39\n      jump\t// in\n    tag_85:\n        /* \"#utility.yul\":811:889   */\n      swap4\n      pop\n        /* \"#utility.yul\":898:963   */\n      tag_86\n        /* \"#utility.yul\":956:962   */\n      dup2\n        /* \"#utility.yul\":951:954   */\n      dup6\n        /* \"#utility.yul\":944:948   */\n      0x20\n        /* \"#utility.yul\":937:942   */\n      dup7\n        /* \"#utility.yul\":933:949   */\n      add\n        /* \"#utility.yul\":898:963   */\n      tag_40\n      jump\t// in\n    tag_86:\n        /* \"#utility.yul\":988:1017   */\n      tag_87\n        /* \"#utility.yul\":1010:1016   */\n      dup2\n        /* \"#utility.yul\":988:1017   */\n      tag_41\n      jump\t// in\n    tag_87:\n        /* \"#utility.yul\":983:986   */\n      dup5\n        /* \"#utility.yul\":979:1018   */\n      add\n        /* \"#utility.yul\":972:1018   */\n      swap2\n      pop\n        /* \"#utility.yul\":739:1024   */\n      pop\n        /* \"#utility.yul\":647:1024   */\n      swap3\n      swap2\n      pop\n      pop\n      jump\t// out\n        /* \"#utility.yul\":1030:1343   */\n    tag_11:\n        /* \"#utility.yul\":1143:1147   */\n      0x00\n        /* \"#utility.yul\":1181:1183   */\n      0x20\n        /* \"#utility.yul\":1170:1179   */\n      dup3\n        /* \"#utility.yul\":1166:1184   */\n      add\n        /* \"#utility.yul\":1158:1184   */\n      swap1\n      pop\n        /* \"#utility.yul\":1230:1239   */\n      dup2\n        /* \"#utility.yul\":1224:1228   */\n      dup2\n        /* \"#utility.yul\":1220:1240   */\n      sub\n        /* \"#utility.yul\":1216:1217   */\n      0x00\n        /* \"#utility.yul\":1205:1214   */\n      dup4\n        /* \"#utility.yul\":1201:1218   */\n      add\n        /* \"#utility.yul\":1194:1241   */\n      mstore\n        /* \"#utility.yul\":1258:1336   */\n      tag_89\n        /* \"#utility.yul\":1331:1335   */\n      dup2\n        /* \"#utility.yul\":1322:1328   */\n      dup5\n        /* \"#utility.yul\":1258:1336   */\n      tag_42\n      jump\t// in\n    tag_89:\n        /* \"#utility.yul\":1250:1336   */\n      swap1\n      pop\n        /* \"#utility.yul\":1030:1343   */\n      swap3\n      swap2\n      pop\n      pop\n      jump\t// out\n        /* \"#utility.yul\":1349:1426   */\n    tag_43:\n        /* \"#utility.yul\":1386:1393   */\n      0x00\n        /* \"#utility.yul\":1415:1420   */\n      dup2\n        /* \"#utility.yul\":1404:1420   */\n      swap1\n      pop\n        /* \"#utility.yul\":1349:1426   */\n      swap2\n      swap1\n      pop\n      jump\t// out\n        /* \"#utility.yul\":1432:1550   */\n    tag_44:\n        /* \"#utility.yul\":1519:1543   */\n      tag_92\n        /* \"#utility.yul\":1537:1542   */\n      dup2\n        /* \"#utility.yul\":1519:1543   */\n      tag_43\n      jump\t// in\n    tag_92:\n        /* \"#utility.yul\":1514:1517   */\n      dup3\n        /* \"#utility.yul\":1507:1544   */\n      mstore\n        /* \"#utility.yul\":1432:1550   */\n      pop\n      pop\n      jump\t// out\n        /* \"#utility.yul\":1556:1778   */\n    tag_15:\n        /* \"#utility.yul\":1649:1653   */\n      0x00\n        /* \"#utility.yul\":1687:1689   */\n      0x20\n        /* \"#utility.yul\":1676:1685   */\n      dup3\n        /* \"#utility.yul\":1672:1690   */\n      add\n        /* \"#utility.yul\":1664:1690   */\n      swap1\n      pop\n        /* \"#utility.yul\":1700:1771   */\n      tag_94\n        /* \"#utility.yul\":1768:1769   */\n      0x00\n        /* \"#utility.yul\":1757:1766   */\n      dup4\n        /* \"#utility.yul\":1753:1770   */\n      add\n        /* \"#utility.yul\":1744:1750   */\n      dup5\n        /* \"#utility.yul\":1700:1771   */\n      tag_44\n      jump\t// in\n    tag_94:\n        /* \"#utility.yul\":1556:1778   */\n      swap3\n      swap2\n      pop\n      pop\n      jump\t// out\n        /* \"#utility.yul\":1784:1859   */\n    tag_45:\n        /* \"#utility.yul\":1817:1823   */\n      0x00\n        /* \"#utility.yul\":1850:1852   */\n      0x40\n        /* \"#utility.yul\":1844:1853   */\n      mload\n        /* \"#utility.yul\":1834:1853   */\n      swap1\n      pop\n        /* \"#utility.yul\":1784:1859   */\n      swap1\n      jump\t// out\n        /* \"#utility.yul\":1865:1982   */\n    tag_46:\n        /* \"#utility.yul\":1974:1975   */\n      0x00\n        /* \"#utility.yul\":1971:1972   */\n      dup1\n        /* \"#utility.yul\":1964:1976   */\n      revert\n        /* \"#utility.yul\":1988:2105   */\n    tag_47:\n        /* \"#utility.yul\":2097:2098   */\n      0x00\n        /* \"#utility.yul\":2094:2095   */\n      dup1\n        /* \"#utility.yul\":2087:2099   */\n      revert\n        /* \"#utility.yul\":2111:2228   */\n    tag_48:\n        /* \"#utility.yul\":2220:2221   */\n      0x00\n        /* \"#utility.yul\":2217:2218   */\n      dup1\n        /* \"#utility.yul\":2210:2222   */\n      revert\n        /* \"#utility.yul\":2234:2351   */\n    tag_49:\n        /* \"#utility.yul\":2343:2344   */\n      0x00\n        /* \"#utility.yul\":2340:2341   */\n      dup1\n        /* \"#utility.yul\":2333:2345   */\n      revert\n        /* \"#utility.yul\":2357:2537   */\n    tag_50:\n        /* \"#utility.yul\":2405:2482   */\n      0x4e487b7100000000000000000000000000000000000000000000000000000000\n        /* \"#utility.yul\":2402:2403   */\n      0x00\n        /* \"#utility.yul\":2395:2483   */\n      mstore\n        /* \"#utility.yul\":2502:2506   */\n      0x41\n        /* \"#utility.yul\":2499:2500   */\n      0x04\n        /* \"#utility.yul\":2492:2507   */\n      mstore\n        /* \"#utility.yul\":2526:2530   */\n      0x24\n        /* \"#utility.yul\":2523:2524   */\n      0x00\n        /* \"#utility.yul\":2516:2531   */\n      revert\n        /* \"#utility.yul\":2543:2824   */\n    tag_51:\n        /* \"#utility.yul\":2626:2653   */\n      tag_102\n        /* \"#utility.yul\":2648:2652   */\n      dup3\n        /* \"#utility.yul\":2626:2653   */\n      tag_41\n      jump\t// in\n    tag_102:\n        /* \"#utility.yul\":2618:2624   */\n      dup2\n        /* \"#utility.yul\":2614:2654   */\n      add\n        /* \"#utility.yul\":2756:2762   */\n      dup2\n        /* \"#utility.yul\":2744:2754   */\n      dup2\n        /* \"#utility.yul\":2741:2763   */\n      lt\n        /* \"#utility.yul\":2720:2738   */\n      0xffffffffffffffff\n        /* \"#utility.yul\":2708:2718   */\n      dup3\n        /* \"#utility.yul\":2705:2739   */\n      gt\n        /* \"#utility.yul\":2702:2764   */\n      or\n        /* \"#utility.yul\":2699:2787   */\n      iszero\n      tag_103\n      jumpi\n        /* \"#utility.yul\":2767:2785   */\n      tag_104\n      tag_50\n      jump\t// in\n    tag_104:\n        /* \"#utility.yul\":2699:2787   */\n    tag_103:\n        /* \"#utility.yul\":2807:2817   */\n      dup1\n        /* \"#utility.yul\":2803:2805   */\n      0x40\n        /* \"#utility.yul\":2796:2818   */\n      mstore\n        /* \"#utility.yul\":2586:2824   */\n      pop\n        /* \"#utility.yul\":2543:2824   */\n      pop\n      pop\n      jump\t// out\n        /* \"#utility.yul\":2830:2959   */\n    tag_52:\n        /* \"#utility.yul\":2864:2870   */\n      0x00\n        /* \"#utility.yul\":2891:2911   */\n      tag_106\n      tag_45\n      jump\t// in\n    tag_106:\n        /* \"#utility.yul\":2881:2911   */\n      swap1\n      pop\n        /* \"#utility.yul\":2920:2953   */\n      tag_107\n        /* \"#utility.yul\":2948:2952   */\n      dup3\n        /* \"#utility.yul\":2940:2946   */\n      dup3\n        /* \"#utility.yul\":2920:2953   */\n      tag_51\n      jump\t// in\n    tag_107:\n        /* \"#utility.yul\":2830:2959   */\n      swap2\n      swap1\n      pop\n      jump\t// out\n        /* \"#utility.yul\":2965:3273   */\n    tag_53:\n        /* \"#utility.yul\":3027:3031   */\n      0x00\n        /* \"#utility.yul\":3117:3135   */\n      0xffffffffffffffff\n        /* \"#utility.yul\":3109:3115   */\n      dup3\n        /* \"#utility.yul\":3106:3136   */\n      gt\n        /* \"#utility.yul\":3103:3159   */\n      iszero\n      tag_109\n      jumpi\n        /* \"#utility.yul\":3139:3157   */\n      tag_110\n      tag_50\n      jump\t// in\n    tag_110:\n        /* \"#utility.yul\":3103:3159   */\n    tag_109:\n        /* \"#utility.yul\":3177:3206   */\n      tag_111\n        /* \"#utility.yul\":3199:3205   */\n      dup3\n        /* \"#utility.yul\":3177:3206   */\n      tag_41\n      jump\t// in\n    tag_111:\n        /* \"#utility.yul\":3169:3206   */\n      swap1\n      pop\n        /* \"#utility.yul\":3261:3265   */\n      0x20\n        /* \"#utility.yul\":3255:3259   */\n      dup2\n        /* \"#utility.yul\":3251:3266   */\n      add\n        /* \"#utility.yul\":3243:3266   */\n      swap1\n      pop\n        /* \"#utility.yul\":2965:3273   */\n      swap2\n      swap1\n      pop\n      jump\t// out\n        /* \"#utility.yul\":3279:3425   */\n    tag_54:\n        /* \"#utility.yul\":3376:3382   */\n      dup3\n        /* \"#utility.yul\":3371:3374   */\n      dup2\n        /* \"#utility.yul\":3366:3369   */\n      dup4\n        /* \"#utility.yul\":3353:3383   */\n      calldatacopy\n        /* \"#utility.yul\":3417:3418   */\n      0x00\n        /* \"#utility.yul\":3408:3414   */\n      dup4\n        /* \"#utility.yul\":3403:3406   */\n      dup4\n        /* \"#utility.yul\":3399:3415   */\n      add\n        /* \"#utility.yul\":3392:3419   */\n      mstore\n        /* \"#utility.yul\":3279:3425   */\n      pop\n      pop\n      pop\n      jump\t// out\n        /* \"#utility.yul\":3431:3856   */\n    tag_55:\n        /* \"#utility.yul\":3509:3514   */\n      0x00\n        /* \"#utility.yul\":3534:3600   */\n      tag_114\n        /* \"#utility.yul\":3550:3599   */\n      tag_115\n        /* \"#utility.yul\":3592:3598   */\n      dup5\n        /* \"#utility.yul\":3550:3599   */\n      tag_53\n      jump\t// in\n    tag_115:\n        /* \"#utility.yul\":3534:3600   */\n      tag_52\n      jump\t// in\n    tag_114:\n        /* \"#utility.yul\":3525:3600   */\n      swap1\n      pop\n        /* \"#utility.yul\":3623:3629   */\n      dup3\n        /* \"#utility.yul\":3616:3621   */\n      dup2\n        /* \"#utility.yul\":3609:3630   */\n      mstore\n        /* \"#utility.yul\":3661:3665   */\n      0x20\n        /* \"#utility.yul\":3654:3659   */\n      dup2\n        /* \"#utility.yul\":3650:3666   */\n      add\n        /* \"#utility.yul\":3699:3702   */\n      dup5\n        /* \"#utility.yul\":3690:3696   */\n      dup5\n        /* \"#utility.yul\":3685:3688   */\n      dup5\n        /* \"#utility.yul\":3681:3697   */\n      add\n        /* \"#utility.yul\":3678:3703   */\n      gt\n        /* \"#utility.yul\":3675:3787   */\n      iszero\n      tag_116\n      jumpi\n        /* \"#utility.yul\":3706:3785   */\n      tag_117\n      tag_49\n      jump\t// in\n    tag_117:\n        /* \"#utility.yul\":3675:3787   */\n    tag_116:\n        /* \"#utility.yul\":3796:3850   */\n      tag_118\n        /* \"#utility.yul\":3843:3849   */\n      dup5\n        /* \"#utility.yul\":3838:3841   */\n      dup3\n        /* \"#utility.yul\":3833:3836   */\n      dup6\n        /* \"#utility.yul\":3796:3850   */\n      tag_54\n      jump\t// in\n    tag_118:\n        /* \"#utility.yul\":3515:3856   */\n      pop\n        /* \"#utility.yul\":3431:3856   */\n      swap4\n      swap3\n      pop\n      pop\n      pop\n      jump\t// out\n        /* \"#utility.yul\":3876:4216   */\n    tag_56:\n        /* \"#utility.yul\":3932:3937   */\n      0x00\n        /* \"#utility.yul\":3981:3984   */\n      dup3\n        /* \"#utility.yul\":3974:3978   */\n      0x1f\n        /* \"#utility.yul\":3966:3972   */\n      dup4\n        /* \"#utility.yul\":3962:3979   */\n      add\n        /* \"#utility.yul\":3958:3985   */\n      slt\n        /* \"#utility.yul\":3948:4070   */\n      tag_120\n      jumpi\n        /* \"#utility.yul\":3989:4068   */\n      tag_121\n      tag_48\n      jump\t// in\n    tag_121:\n        /* \"#utility.yul\":3948:4070   */\n    tag_120:\n        /* \"#utility.yul\":4106:4112   */\n      dup2\n        /* \"#utility.yul\":4093:4113   */\n      calldataload\n        /* \"#utility.yul\":4131:4210   */\n      tag_122\n        /* \"#utility.yul\":4206:4209   */\n      dup5\n        /* \"#utility.yul\":4198:4204   */\n      dup3\n        /* \"#utility.yul\":4191:4195   */\n      0x20\n        /* \"#utility.yul\":4183:4189   */\n      dup7\n        /* \"#utility.yul\":4179:4196   */\n      add\n        /* \"#utility.yul\":4131:4210   */\n      tag_55\n      jump\t// in\n    tag_122:\n        /* \"#utility.yul\":4122:4210   */\n      swap2\n      pop\n        /* \"#utility.yul\":3938:4216   */\n      pop\n        /* \"#utility.yul\":3876:4216   */\n      swap3\n      swap2\n      pop\n      pop\n      jump\t// out\n        /* \"#utility.yul\":4222:4344   */\n    tag_57:\n        /* \"#utility.yul\":4295:4319   */\n      tag_124\n        /* \"#utility.yul\":4313:4318   */\n      dup2\n        /* \"#utility.yul\":4295:4319   */\n      tag_43\n      jump\t// in\n    tag_124:\n        /* \"#utility.yul\":4288:4293   */\n      dup2\n        /* \"#utility.yul\":4285:4320   */\n      eq\n        /* \"#utility.yul\":4275:4338   */\n      tag_125\n      jumpi\n        /* \"#utility.yul\":4334:4335   */\n      0x00\n        /* \"#utility.yul\":4331:4332   */\n      dup1\n        /* \"#utility.yul\":4324:4336   */\n      revert\n        /* \"#utility.yul\":4275:4338   */\n    tag_125:\n        /* \"#utility.yul\":4222:4344   */\n      pop\n      jump\t// out\n        /* \"#utility.yul\":4350:4489   */\n    tag_58:\n        /* \"#utility.yul\":4396:4401   */\n      0x00\n        /* \"#utility.yul\":4434:4440   */\n      dup2\n        /* \"#utility.yul\":4421:4441   */\n      calldataload\n        /* \"#utility.yul\":4412:4441   */\n      swap1\n      pop\n        /* \"#utility.yul\":4450:4483   */\n      tag_127\n        /* \"#utility.yul\":4477:4482   */\n      dup2\n        /* \"#utility.yul\":4450:4483   */\n      tag_57\n      jump\t// in\n    tag_127:\n        /* \"#utility.yul\":4350:4489   */\n      swap3\n      swap2\n      pop\n      pop\n      jump\t// out\n        /* \"#utility.yul\":4495:5149   */\n    tag_18:\n        /* \"#utility.yul\":4573:4579   */\n      0x00\n        /* \"#utility.yul\":4581:4587   */\n      dup1\n        /* \"#utility.yul\":4630:4632   */\n      0x40\n        /* \"#utility.yul\":4618:4627   */\n      dup4\n        /* \"#utility.yul\":4609:4616   */\n      dup6\n        /* \"#utility.yul\":4605:4628   */\n      sub\n        /* \"#utility.yul\":4601:4633   */\n      slt\n        /* \"#utility.yul\":4598:4717   */\n      iszero\n      tag_129\n      jumpi\n        /* \"#utility.yul\":4636:4715   */\n      tag_130\n      tag_46\n      jump\t// in\n    tag_130:\n        /* \"#utility.yul\":4598:4717   */\n    tag_129:\n        /* \"#utility.yul\":4784:4785   */\n      0x00\n        /* \"#utility.yul\":4773:4782   */\n      dup4\n        /* \"#utility.yul\":4769:4786   */\n      add\n        /* \"#utility.yul\":4756:4787   */\n      calldataload\n        /* \"#utility.yul\":4814:4832   */\n      0xffffffffffffffff\n        /* \"#utility.yul\":4806:4812   */\n      dup2\n        /* \"#utility.yul\":4803:4833   */\n      gt\n        /* \"#utility.yul\":4800:4917   */\n      iszero\n      tag_131\n      jumpi\n        /* \"#utility.yul\":4836:4915   */\n      tag_132\n      tag_47\n      jump\t// in\n    tag_132:\n        /* \"#utility.yul\":4800:4917   */\n    tag_131:\n        /* \"#utility.yul\":4941:5004   */\n      tag_133\n        /* \"#utility.yul\":4996:5003   */\n      dup6\n        /* \"#utility.yul\":4987:4993   */\n      dup3\n        /* \"#utility.yul\":4976:4985   */\n      dup7\n        /* \"#utility.yul\":4972:4994   */\n      add\n        /* \"#utility.yul\":4941:5004   */\n      tag_56\n      jump\t// in\n    tag_133:\n        /* \"#utility.yul\":4931:5004   */\n      swap3\n      pop\n        /* \"#utility.yul\":4727:5014   */\n      pop\n        /* \"#utility.yul\":5053:5055   */\n      0x20\n        /* \"#utility.yul\":5079:5132   */\n      tag_134\n        /* \"#utility.yul\":5124:5131   */\n      dup6\n        /* \"#utility.yul\":5115:5121   */\n      dup3\n        /* \"#utility.yul\":5104:5113   */\n      dup7\n        /* \"#utility.yul\":5100:5122   */\n      add\n        /* \"#utility.yul\":5079:5132   */\n      tag_58\n      jump\t// in\n    tag_134:\n        /* \"#utility.yul\":5069:5132   */\n      swap2\n      pop\n        /* \"#utility.yul\":5024:5142   */\n      pop\n        /* \"#utility.yul\":4495:5149   */\n      swap3\n      pop\n      swap3\n      swap1\n      pop\n      jump\t// out\n        /* \"#utility.yul\":5155:5954   */\n    tag_25:\n        /* \"#utility.yul\":5242:5248   */\n      0x00\n        /* \"#utility.yul\":5250:5256   */\n      dup1\n        /* \"#utility.yul\":5258:5264   */\n      0x00\n        /* \"#utility.yul\":5307:5309   */\n      0x60\n        /* \"#utility.yul\":5295:5304   */\n      dup5\n        /* \"#utility.yul\":5286:5293   */\n      dup7\n        /* \"#utility.yul\":5282:5305   */\n      sub\n        /* \"#utility.yul\":5278:5310   */\n      slt\n        /* \"#utility.yul\":5275:5394   */\n      iszero\n      tag_136\n      jumpi\n        /* \"#utility.yul\":5313:5392   */\n      tag_137\n      tag_46\n      jump\t// in\n    tag_137:\n        /* \"#utility.yul\":5275:5394   */\n    tag_136:\n        /* \"#utility.yul\":5461:5462   */\n      0x00\n        /* \"#utility.yul\":5450:5459   */\n      dup5\n        /* \"#utility.yul\":5446:5463   */\n      add\n        /* \"#utility.yul\":5433:5464   */\n      calldataload\n        /* \"#utility.yul\":5491:5509   */\n      0xffffffffffffffff\n        /* \"#utility.yul\":5483:5489   */\n      dup2\n        /* \"#utility.yul\":5480:5510   */\n      gt\n        /* \"#utility.yul\":5477:5594   */\n      iszero\n      tag_138\n      jumpi\n        /* \"#utility.yul\":5513:5592   */\n      tag_139\n      tag_47\n      jump\t// in\n    tag_139:\n        /* \"#utility.yul\":5477:5594   */\n    tag_138:\n        /* \"#utility.yul\":5618:5681   */\n      tag_140\n        /* \"#utility.yul\":5673:5680   */\n      dup7\n        /* \"#utility.yul\":5664:5670   */\n      dup3\n        /* \"#utility.yul\":5653:5662   */\n      dup8\n        /* \"#utility.yul\":5649:5671   */\n      add\n        /* \"#utility.yul\":5618:5681   */\n      tag_56\n      jump\t// in\n    tag_140:\n        /* \"#utility.yul\":5608:5681   */\n      swap4\n      pop\n        /* \"#utility.yul\":5404:5691   */\n      pop\n        /* \"#utility.yul\":5730:5732   */\n      0x20\n        /* \"#utility.yul\":5756:5809   */\n      tag_141\n        /* \"#utility.yul\":5801:5808   */\n      dup7\n        /* \"#utility.yul\":5792:5798   */\n      dup3\n        /* \"#utility.yul\":5781:5790   */\n      dup8\n        /* \"#utility.yul\":5777:5799   */\n      add\n        /* \"#utility.yul\":5756:5809   */\n      tag_58\n      jump\t// in\n    tag_141:\n        /* \"#utility.yul\":5746:5809   */\n      swap3\n      pop\n        /* \"#utility.yul\":5701:5819   */\n      pop\n        /* \"#utility.yul\":5858:5860   */\n      0x40\n        /* \"#utility.yul\":5884:5937   */\n      tag_142\n        /* \"#utility.yul\":5929:5936   */\n      dup7\n        /* \"#utility.yul\":5920:5926   */\n      dup3\n        /* \"#utility.yul\":5909:5918   */\n      dup8\n        /* \"#utility.yul\":5905:5927   */\n      add\n        /* \"#utility.yul\":5884:5937   */\n      tag_58\n      jump\t// in\n    tag_142:\n        /* \"#utility.yul\":5874:5937   */\n      swap2\n      pop\n        /* \"#utility.yul\":5829:5947   */\n      pop\n        /* \"#utility.yul\":5155:5954   */\n      swap3\n      pop\n      swap3\n      pop\n      swap3\n      jump\t// out\n        /* \"#utility.yul\":5960:6140   */\n    tag_59:\n        /* \"#utility.yul\":6008:6085   */\n      0x4e487b7100000000000000000000000000000000000000000000000000000000\n        /* \"#utility.yul\":6005:6006   */\n      0x00\n        /* \"#utility.yul\":5998:6086   */\n      mstore\n        /* \"#utility.yul\":6105:6109   */\n      0x22\n        /* \"#utility.yul\":6102:6103   */\n      0x04\n        /* \"#utility.yul\":6095:6110   */\n      mstore\n        /* \"#utility.yul\":6129:6133   */\n      0x24\n        /* \"#utility.yul\":6126:6127   */\n      0x00\n        /* \"#utility.yul\":6119:6134   */\n      revert\n        /* \"#utility.yul\":6146:6466   */\n    tag_28:\n        /* \"#utility.yul\":6190:6196   */\n      0x00\n        /* \"#utility.yul\":6227:6228   */\n      0x02\n        /* \"#utility.yul\":6221:6225   */\n      dup3\n        /* \"#utility.yul\":6217:6229   */\n      div\n        /* \"#utility.yul\":6207:6229   */\n      swap1\n      pop\n        /* \"#utility.yul\":6274:6275   */\n      0x01\n        /* \"#utility.yul\":6268:6272   */\n      dup3\n        /* \"#utility.yul\":6264:6276   */\n      and\n        /* \"#utility.yul\":6295:6313   */\n      dup1\n        /* \"#utility.yul\":6285:6366   */\n      tag_145\n      jumpi\n        /* \"#utility.yul\":6351:6355   */\n      0x7f\n        /* \"#utility.yul\":6343:6349   */\n      dup3\n        /* \"#utility.yul\":6339:6356   */\n      and\n        /* \"#utility.yul\":6329:6356   */\n      swap2\n      pop\n        /* \"#utility.yul\":6285:6366   */\n    tag_145:\n        /* \"#utility.yul\":6413:6415   */\n      0x20\n        /* \"#utility.yul\":6405:6411   */\n      dup3\n        /* \"#utility.yul\":6402:6416   */\n      lt\n        /* \"#utility.yul\":6382:6400   */\n      dup2\n        /* \"#utility.yul\":6379:6417   */\n      sub\n        /* \"#utility.yul\":6376:6460   */\n      tag_146\n      jumpi\n        /* \"#utility.yul\":6432:6450   */\n      tag_147\n      tag_59\n      jump\t// in\n    tag_147:\n        /* \"#utility.yul\":6376:6460   */\n    tag_146:\n        /* \"#utility.yul\":6197:6466   */\n      pop\n        /* \"#utility.yul\":6146:6466   */\n      swap2\n      swap1\n      pop\n      jump\t// out\n        /* \"#utility.yul\":6472:6613   */\n    tag_60:\n        /* \"#utility.yul\":6521:6525   */\n      0x00\n        /* \"#utility.yul\":6544:6547   */\n      dup2\n        /* \"#utility.yul\":6536:6547   */\n      swap1\n      pop\n        /* \"#utility.yul\":6567:6570   */\n      dup2\n        /* \"#utility.yul\":6564:6565   */\n      0x00\n        /* \"#utility.yul\":6557:6571   */\n      mstore\n        /* \"#utility.yul\":6601:6605   */\n      0x20\n        /* \"#utility.yul\":6598:6599   */\n      0x00\n        /* \"#utility.yul\":6588:6606   */\n      keccak256\n        /* \"#utility.yul\":6580:6606   */\n      swap1\n      pop\n        /* \"#utility.yul\":6472:6613   */\n      swap2\n      swap1\n      pop\n      jump\t// out\n        /* \"#utility.yul\":6619:6712   */\n    tag_61:\n        /* \"#utility.yul\":6656:6662   */\n      0x00\n        /* \"#utility.yul\":6703:6705   */\n      0x20\n        /* \"#utility.yul\":6698:6700   */\n      0x1f\n        /* \"#utility.yul\":6691:6696   */\n      dup4\n        /* \"#utility.yul\":6687:6701   */\n      add\n        /* \"#utility.yul\":6683:6706   */\n      div\n        /* \"#utility.yul\":6673:6706   */\n      swap1\n      pop\n        /* \"#utility.yul\":6619:6712   */\n      swap2\n      swap1\n      pop\n      jump\t// out\n        /* \"#utility.yul\":6718:6825   */\n    tag_62:\n        /* \"#utility.yul\":6762:6770   */\n      0x00\n        /* \"#utility.yul\":6812:6817   */\n      dup3\n        /* \"#utility.yul\":6806:6810   */\n      dup3\n        /* \"#utility.yul\":6802:6818   */\n      shl\n        /* \"#utility.yul\":6781:6818   */\n      swap1\n      pop\n        /* \"#utility.yul\":6718:6825   */\n      swap3\n      swap2\n      pop\n      pop\n      jump\t// out\n        /* \"#utility.yul\":6831:7224   */\n    tag_63:\n        /* \"#utility.yul\":6900:6906   */\n      0x00\n        /* \"#utility.yul\":6950:6951   */\n      0x08\n        /* \"#utility.yul\":6938:6948   */\n      dup4\n        /* \"#utility.yul\":6934:6952   */\n      mul\n        /* \"#utility.yul\":6973:7070   */\n      tag_152\n        /* \"#utility.yul\":7003:7069   */\n      0xffffffffffffffffffffffffffffffffffffffffffffffffffffffffffffffff\n        /* \"#utility.yul\":6992:7001   */\n      dup3\n        /* \"#utility.yul\":6973:7070   */\n      tag_62\n      jump\t// in\n    tag_152:\n        /* \"#utility.yul\":7091:7130   */\n      tag_153\n        /* \"#utility.yul\":7121:7129   */\n      dup7\n        /* \"#utility.yul\":7110:7119   */\n      dup4\n        /* \"#utility.yul\":7091:7130   */\n      tag_62\n      jump\t// in\n    tag_153:\n        /* \"#utility.yul\":7079:7130   */\n      swap6\n      pop\n        /* \"#utility.yul\":7163:7167   */\n      dup1\n        /* \"#utility.yul\":7159:7168   */\n      not\n        /* \"#utility.yul\":7152:7157   */\n      dup5\n        /* \"#utility.yul\":7148:7169   */\n      and\n        /* \"#utility.yul\":7139:7169   */\n      swap4\n      pop\n        /* \"#utility.yul\":7212:7216   */\n      dup1\n        /* \"#utility.yul\":7202:7210   */\n      dup7\n        /* \"#utility.yul\":7198:7217   */\n      and\n        /* \"#utility.yul\":7191:7196   */\n      dup5\n        /* \"#utility.yul\":7188:7218   */\n      or\n        /* \"#utility.yul\":7178:7218   */\n      swap3\n      pop\n        /* \"#utility.yul\":6907:7224   */\n      pop\n      pop\n        /* \"#utility.yul\":6831:7224   */\n      swap4\n      swap3\n      pop\n      pop\n      pop\n      jump\t// out\n        /* \"#utility.yul\":7230:7290   */\n    tag_64:\n        /* \"#utility.yul\":7258:7261   */\n      0x00\n        /* \"#utility.yul\":7279:7284   */\n      dup2\n        /* \"#utility.yul\":7272:7284   */\n      swap1\n      pop\n        /* \"#utility.yul\":7230:7290   */\n      swap2\n      swap1\n      pop\n      jump\t// out\n        /* \"#utility.yul\":7296:7438   */\n    tag_65:\n        /* \"#utility.yul\":7346:7355   */\n      0x00\n        /* \"#utility.yul\":7379:7432   */\n      tag_156\n        /* \"#utility.yul\":7397:7431   */\n      tag_157\n        /* \"#utility.yul\":7406:7430   */\n      tag_158\n        /* \"#utility.yul\":7424:7429   */\n      dup5\n        /* \"#utility.yul\":7406:7430   */\n      tag_43\n      jump\t// in\n    tag_158:\n        /* \"#utility.yul\":7397:7431   */\n      tag_64\n      jump\t// in\n    tag_157:\n        /* \"#utility.yul\":7379:7432   */\n      tag_43\n      jump\t// in\n    tag_156:\n        /* \"#utility.yul\":7366:7432   */\n      swap1\n      pop\n        /* \"#utility.yul\":7296:7438   */\n      swap2\n      swap1\n      pop\n      jump\t// out\n        /* \"#utility.yul\":7444:7519   */\n    tag_66:\n        /* \"#utility.yul\":7487:7490   */\n      0x00\n        /* \"#utility.yul\":7508:7513   */\n      dup2\n        /* \"#utility.yul\":7501:7513   */\n      swap1\n      pop\n        /* \"#utility.yul\":7444:7519   */\n      swap2\n      swap1\n      pop\n      jump\t// out\n        /* \"#utility.yul\":7525:7794   */\n    tag_67:\n        /* \"#utility.yul\":7635:7674   */\n      tag_161\n        /* \"#utility.yul\":7666:7673   */\n      dup4\n        /* \"#utility.yul\":7635:7674   */\n      tag_65\n      jump\t// in\n    tag_161:\n        /* \"#utility.yul\":7696:7787   */\n      tag_162\n        /* \"#utility.yul\":7745:7786   */\n      tag_163\n        /* \"#utility.yul\":7769:7785   */\n      dup3\n        /* \"#utility.yul\":7745:7786   */\n      tag_66\n      jump\t// in\n    tag_163:\n        /* \"#utility.yul\":7737:7743   */\n      dup5\n        /* \"#utility.yul\":7730:7734   */\n      dup5\n        /* \"#utility.yul\":7724:7735   */\n      sload\n        /* \"#utility.yul\":7696:7787   */\n      tag_63\n      jump\t// in\n    tag_162:\n        /* \"#utility.yul\":7690:7694   */\n      dup3\n        /* \"#utility.yul\":7683:7788   */\n      sstore\n        /* \"#utility.yul\":7601:7794   */\n      pop\n        /* \"#utility.yul\":7525:7794   */\n      pop\n      pop\n      pop\n      jump\t// out\n        /* \"#utility.yul\":7800:7873   */\n    tag_68:\n        /* \"#utility.yul\":7845:7848   */\n      0x00\n        /* \"#utility.yul\":7800:7873   */\n      swap1\n      jump\t// out\n        /* \"#utility.yul\":7879:8068   */\n    tag_69:\n        /* \"#utility.yul\":7956:7988   */\n      tag_166\n      tag_68\n      jump\t// in\n    tag_166:\n        /* \"#utility.yul\":7997:8062   */\n      tag_167\n        /* \"#utility.yul\":8055:8061   */\n      dup2\n        /* \"#utility.yul\":8047:8053   */\n      dup5\n        /* \"#utility.yul\":8041:8045   */\n      dup5\n        /* \"#utility.yul\":7997:8062   */\n      tag_67\n      jump\t// in\n    tag_167:\n        /* \"#utility.yul\":7932:8068   */\n      pop\n        /* \"#utility.yul\":7879:8068   */\n      pop\n      pop\n      jump\t// out\n        /* \"#utility.yul\":8074:8260   */\n    tag_70:\n        /* \"#utility.yul\":8134:8254   */\n    tag_169:\n        /* \"#utility.yul\":8151:8154   */\n      dup2\n        /* \"#utility.yul\":8144:8149   */\n      dup2\n        /* \"#utility.yul\":8141:8155   */\n      lt\n        /* \"#utility.yul\":8134:8254   */\n      iszero\n      tag_171\n      jumpi\n        /* \"#utility.yul\":8205:8244   */\n      tag_172\n        /* \"#utility.yul\":8242:8243   */\n      0x00\n        /* \"#utility.yul\":8235:8240   */\n      dup3\n        /* \"#utility.yul\":8205:8244   */\n      tag_69\n      jump\t// in\n    tag_172:\n        /* \"#utility.yul\":8178:8179   */\n      0x01\n        /* \"#utility.yul\":8171:8176   */\n      dup2\n        /* \"#utility.yul\":8167:8180   */\n      add\n        /* \"#utility.yul\":8158:8180   */\n      swap1\n      pop\n        /* \"#utility.yul\":8134:8254   */\n      jump(tag_169)\n    tag_171:\n        /* \"#utility.yul\":8074:8260   */\n      pop\n      pop\n      jump\t// out\n        /* \"#utility.yul\":8266:8809   */\n    tag_71:\n        /* \"#utility.yul\":8367:8369   */\n      0x1f\n        /* \"#utility.yul\":8362:8365   */\n      dup3\n        /* \"#utility.yul\":8359:8370   */\n      gt\n        /* \"#utility.yul\":8356:8802   */\n      iszero\n      tag_174\n      jumpi\n        /* \"#utility.yul\":8401:8439   */\n      tag_175\n        /* \"#utility.yul\":8433:8438   */\n      dup2\n        /* \"#utility.yul\":8401:8439   */\n      tag_60\n      jump\t// in\n    tag_175:\n        /* \"#utility.yul\":8485:8514   */\n      tag_176\n        /* \"#utility.yul\":8503:8513   */\n      dup5\n        /* \"#utility.yul\":8485:8514   */\n      tag_61\n      jump\t// in\n    tag_176:\n        /* \"#utility.yul\":8475:8483   */\n      dup2\n        /* \"#utility.yul\":8471:8515   */\n      add\n        /* \"#utility.yul\":8668:8670   */\n      0x20\n        /* \"#utility.yul\":8656:8666   */\n      dup6\n        /* \"#utility.yul\":8653:8671   */\n      lt\n        /* \"#utility.yul\":8650:8699   */\n      iszero\n      tag_177\n      jumpi\n        /* \"#utility.yul\":8689:8697   */\n      dup2\n        /* \"#utility.yul\":8674:8697   */\n      swap1\n      pop\n        /* \"#utility.yul\":8650:8699   */\n    tag_177:\n        /* \"#utility.yul\":8712:8792   */\n      tag_178\n        /* \"#utility.yul\":8768:8790   */\n      tag_179\n        /* \"#utility.yul\":8786:8789   */\n      dup6\n        /* \"#utility.yul\":8768:8790   */\n      tag_61\n      jump\t// in\n    tag_179:\n        /* \"#utility.yul\":8758:8766   */\n      dup4\n        /* \"#utility.yul\":8754:8791   */\n      add\n        /* \"#utility.yul\":8741:8752   */\n      dup3\n        /* \"#utility.yul\":8712:8792   */\n      tag_70\n      jump\t// in\n    tag_178:\n        /* \"#utility.yul\":8371:8802   */\n      pop\n      pop\n        /* \"#utility.yul\":8356:8802   */\n    tag_174:\n        /* \"#utility.yul\":8266:8809   */\n      pop\n      pop\n      pop\n      jump\t// out\n        /* \"#utility.yul\":8815:8932   */\n    tag_72:\n        /* \"#utility.yul\":8869:8877   */\n      0x00\n        /* \"#utility.yul\":8919:8924   */\n      dup3\n        /* \"#utility.yul\":8913:8917   */\n      dup3\n        /* \"#utility.yul\":8909:8925   */\n      shr\n        /* \"#utility.yul\":8888:8925   */\n      swap1\n      pop\n        /* \"#utility.yul\":8815:8932   */\n      swap3\n      swap2\n      pop\n      pop\n      jump\t// out\n        /* \"#utility.yul\":8938:9107   */\n    tag_73:\n        /* \"#utility.yul\":8982:8988   */\n      0x00\n        /* \"#utility.yul\":9015:9066   */\n      tag_182\n        /* \"#utility.yul\":9063:9064   */\n      0x00\n        /* \"#utility.yul\":9059:9065   */\n      not\n        /* \"#utility.yul\":9051:9056   */\n      dup5\n        /* \"#utility.yul\":9048:9049   */\n      0x08\n        /* \"#utility.yul\":9044:9057   */\n      mul\n        /* \"#utility.yul\":9015:9066   */\n      tag_72\n      jump\t// in\n    tag_182:\n        /* \"#utility.yul\":9011:9067   */\n      not\n        /* \"#utility.yul\":9096:9100   */\n      dup1\n        /* \"#utility.yul\":9090:9094   */\n      dup4\n        /* \"#utility.yul\":9086:9101   */\n      and\n        /* \"#utility.yul\":9076:9101   */\n      swap2\n      pop\n        /* \"#utility.yul\":8989:9107   */\n      pop\n        /* \"#utility.yul\":8938:9107   */\n      swap3\n      swap2\n      pop\n      pop\n      jump\t// out\n        /* \"#utility.yul\":9112:9407   */\n    tag_74:\n        /* \"#utility.yul\":9188:9192   */\n      0x00\n        /* \"#utility.yul\":9334:9363   */\n      tag_184\n        /* \"#utility.yul\":9359:9362   */\n      dup4\n        /* \"#utility.yul\":9353:9357   */\n      dup4\n        /* \"#utility.yul\":9334:9363   */\n      tag_73\n      jump\t// in\n    tag_184:\n        /* \"#utility.yul\":9326:9363   */\n      swap2\n      pop\n        /* \"#utility.yul\":9396:9399   */\n      dup3\n        /* \"#utility.yul\":9393:9394   */\n      0x02\n        /* \"#utility.yul\":9389:9400   */\n      mul\n        /* \"#utility.yul\":9383:9387   */\n      dup3\n        /* \"#utility.yul\":9380:9401   */\n      or\n        /* \"#utility.yul\":9372:9401   */\n      swap1\n      pop\n        /* \"#utility.yul\":9112:9407   */\n      swap3\n      swap2\n      pop\n      pop\n      jump\t// out\n        /* \"#utility.yul\":9412:10807   */\n    tag_35:\n        /* \"#utility.yul\":9529:9566   */\n      tag_186\n        /* \"#utility.yul\":9562:9565   */\n      dup3\n        /* \"#utility.yul\":9529:9566   */\n      tag_38\n      jump\t// in\n    tag_186:\n        /* \"#utility.yul\":9631:9649   */\n      0xffffffffffffffff\n        /* \"#utility.yul\":9623:9629   */\n      dup2\n        /* \"#utility.yul\":9620:9650   */\n      gt\n        /* \"#utility.yul\":9617:9673   */\n      iszero\n      tag_187\n      jumpi\n        /* \"#utility.yul\":9653:9671   */\n      tag_188\n      tag_50\n      jump\t// in\n    tag_188:\n        /* \"#utility.yul\":9617:9673   */\n    tag_187:\n        /* \"#utility.yul\":9697:9735   */\n      tag_189\n        /* \"#utility.yul\":9729:9733   */\n      dup3\n        /* \"#utility.yul\":9723:9734   */\n      sload\n        /* \"#utility.yul\":9697:9735   */\n      tag_28\n      jump\t// in\n    tag_189:\n        /* \"#utility.yul\":9782:9849   */\n      tag_190\n        /* \"#utility.yul\":9842:9848   */\n      dup3\n        /* \"#utility.yul\":9834:9840   */\n      dup3\n        /* \"#utility.yul\":9828:9832   */\n      dup6\n        /* \"#utility.yul\":9782:9849   */\n      tag_71\n      jump\t// in\n    tag_190:\n        /* \"#utility.yul\":9876:9877   */\n      0x00\n        /* \"#utility.yul\":9900:9904   */\n      0x20\n        /* \"#utility.yul\":9887:9904   */\n      swap1\n      pop\n        /* \"#utility.yul\":9932:9934   */\n      0x1f\n        /* \"#utility.yul\":9924:9930   */\n      dup4\n        /* \"#utility.yul\":9921:9935   */\n      gt\n        /* \"#utility.yul\":9949:9950   */\n      0x01\n        /* \"#utility.yul\":9944:10562   */\n      dup2\n      eq\n      tag_192\n      jumpi\n        /* \"#utility.yul\":10606:10607   */\n      0x00\n        /* \"#utility.yul\":10623:10629   */\n      dup5\n        /* \"#utility.yul\":10620:10697   */\n      iszero\n      tag_193\n      jumpi\n        /* \"#utility.yul\":10672:10681   */\n      dup3\n        /* \"#utility.yul\":10667:10670   */\n      dup8\n        /* \"#utility.yul\":10663:10682   */\n      add\n        /* \"#utility.yul\":10657:10683   */\n      mload\n        /* \"#utility.yul\":10648:10683   */\n      swap1\n      pop\n        /* \"#utility.yul\":10620:10697   */\n    tag_193:\n        /* \"#utility.yul\":10723:10790   */\n      tag_194\n        /* \"#utility.yul\":10783:10789   */\n      dup6\n        /* \"#utility.yul\":10776:10781   */\n      dup3\n        /* \"#utility.yul\":10723:10790   */\n      tag_74\n      jump\t// in\n    tag_194:\n        /* \"#utility.yul\":10717:10721   */\n      dup7\n        /* \"#utility.yul\":10710:10791   */\n      sstore\n        /* \"#utility.yul\":10579:10801   */\n      pop\n        /* \"#utility.yul\":9914:10801   */\n      jump(tag_191)\n        /* \"#utility.yul\":9944:10562   */\n    tag_192:\n        /* \"#utility.yul\":9996:10000   */\n      0x1f\n        /* \"#utility.yul\":9992:10001   */\n      not\n        /* \"#utility.yul\":9984:9990   */\n      dup5\n        /* \"#utility.yul\":9980:10002   */\n      and\n        /* \"#utility.yul\":10030:10067   */\n      tag_195\n        /* \"#utility.yul\":10062:10066   */\n      dup7\n        /* \"#utility.yul\":10030:10067   */\n      tag_60\n      jump\t// in\n    tag_195:\n        /* \"#utility.yul\":10089:10090   */\n      0x00\n        /* \"#utility.yul\":10103:10311   */\n    tag_196:\n        /* \"#utility.yul\":10117:10124   */\n      dup3\n        /* \"#utility.yul\":10114:10115   */\n      dup2\n        /* \"#utility.yul\":10111:10125   */\n      lt\n        /* \"#utility.yul\":10103:10311   */\n      iszero\n      tag_198\n      jumpi\n        /* \"#utility.yul\":10196:10205   */\n      dup5\n        /* \"#utility.yul\":10191:10194   */\n      dup10\n        /* \"#utility.yul\":10187:10206   */\n      add\n        /* \"#utility.yul\":10181:10207   */\n      mload\n        /* \"#utility.yul\":10173:10179   */\n      dup3\n        /* \"#utility.yul\":10166:10208   */\n      sstore\n        /* \"#utility.yul\":10247:10248   */\n      0x01\n        /* \"#utility.yul\":10239:10245   */\n      dup3\n        /* \"#utility.yul\":10235:10249   */\n      add\n        /* \"#utility.yul\":10225:10249   */\n      swap2\n      pop\n        /* \"#utility.yul\":10294:10296   */\n      0x20\n        /* \"#utility.yul\":10283:10292   */\n      dup6\n        /* \"#utility.yul\":10279:10297   */\n      add\n        /* \"#utility.yul\":10266:10297   */\n      swap5\n      pop\n        /* \"#utility.yul\":10140:10144   */\n      0x20\n        /* \"#utility.yul\":10137:10138   */\n      dup2\n        /* \"#utility.yul\":10133:10145   */\n      add\n        /* \"#utility.yul\":10128:10145   */\n      swap1\n      pop\n        /* \"#utility.yul\":10103:10311   */\n      jump(tag_196)\n    tag_198:\n        /* \"#utility.yul\":10339:10345   */\n      dup7\n        /* \"#utility.yul\":10330:10337   */\n      dup4\n        /* \"#utility.yul\":10327:10346   */\n      lt\n        /* \"#utility.yul\":10324:10503   */\n      iszero\n      tag_199\n      jumpi\n        /* \"#utility.yul\":10397:10406   */\n      dup5\n        /* \"#utility.yul\":10392:10395   */\n      dup10\n        /* \"#utility.yul\":10388:10407   */\n      add\n        /* \"#utility.yul\":10382:10408   */\n      mload\n        /* \"#utility.yul\":10440:10488   */\n      tag_200\n        /* \"#utility.yul\":10482:10486   */\n      0x1f\n        /* \"#utility.yul\":10474:10480   */\n      dup10\n        /* \"#utility.yul\":10470:10487   */\n      and\n        /* \"#utility.yul\":10459:10468   */\n      dup3\n        /* \"#utility.yul\":10440:10488   */\n      tag_73\n      jump\t// in\n    tag_200:\n        /* \"#utility.yul\":10432:10438   */\n      dup4\n        /* \"#utility.yul\":10425:10489   */\n      sstore\n        /* \"#utility.yul\":10347:10503   */\n      pop\n        /* \"#utility.yul\":10324:10503   */\n    tag_199:\n        /* \"#utility.yul\":10549:10550   */\n      0x01\n        /* \"#utility.yul\":10545:10546   */\n      0x02\n        /* \"#utility.yul\":10537:10543   */\n      dup9\n        /* \"#utility.yul\":10533:10547   */\n      mul\n        /* \"#utility.yul\":10529:10551   */\n      add\n        /* \"#utility.yul\":10523:10527   */\n      dup9\n        /* \"#utility.yul\":10516:10552   */\n      sstore\n        /* \"#utility.yul\":9951:10562   */\n      pop\n      pop\n      pop\n        /* \"#utility.yul\":9914:10801   */\n    tag_191:\n      pop\n        /* \"#utility.yul\":9504:10807   */\n      pop\n      pop\n      pop\n        /* \"#utility.yul\":9412:10807   */\n      pop\n      pop\n      jump\t// out\n\n    auxdata: 0xa2646970667358221220011fdc30af43bcb813e7cbcca6d76a33ab27b1f5f67494fe46bf2fa96fdf0c4264736f6c63430008120033\n}\n",
				"bytecode": {
					"linkReferences": {},
					"object": "60806040523480156200001157600080fd5b5060405162000dd838038062000dd8833981810160405281019062000037919062000232565b828281600090816200004a9190620004ee565b5080600181905550505080600281905550505050620005d5565b6000604051905090565b600080fd5b600080fd5b600080fd5b600080fd5b6000601f19601f8301169050919050565b7f4e487b7100000000000000000000000000000000000000000000000000000000600052604160045260246000fd5b620000cd8262000082565b810181811067ffffffffffffffff82111715620000ef57620000ee62000093565b5b80604052505050565b60006200010462000064565b9050620001128282620000c2565b919050565b600067ffffffffffffffff82111562000135576200013462000093565b5b620001408262000082565b9050602081019050919050565b60005b838110156200016d57808201518184015260208101905062000150565b60008484015250505050565b6000620001906200018a8462000117565b620000f8565b905082815260208101848484011115620001af57620001ae6200007d565b5b620001bc8482856200014d565b509392505050565b600082601f830112620001dc57620001db62000078565b5b8151620001ee84826020860162000179565b91505092915050565b6000819050919050565b6200020c81620001f7565b81146200021857600080fd5b50565b6000815190506200022c8162000201565b92915050565b6000806000606084860312156200024e576200024d6200006e565b5b600084015167ffffffffffffffff8111156200026f576200026e62000073565b5b6200027d86828701620001c4565b935050602062000290868287016200021b565b9250506040620002a3868287016200021b565b9150509250925092565b600081519050919050565b7f4e487b7100000000000000000000000000000000000000000000000000000000600052602260045260246000fd5b600060028204905060018216806200030057607f821691505b602082108103620003165762000315620002b8565b5b50919050565b60008190508160005260206000209050919050565b60006020601f8301049050919050565b600082821b905092915050565b600060088302620003807fffffffffffffffffffffffffffffffffffffffffffffffffffffffffffffffff8262000341565b6200038c868362000341565b95508019841693508086168417925050509392505050565b6000819050919050565b6000620003cf620003c9620003c384620001f7565b620003a4565b620001f7565b9050919050565b6000819050919050565b620003eb83620003ae565b62000403620003fa82620003d6565b8484546200034e565b825550505050565b600090565b6200041a6200040b565b62000427818484620003e0565b505050565b5b818110156200044f576200044360008262000410565b6001810190506200042d565b5050565b601f8211156200049e5762000468816200031c565b620004738462000331565b8101602085101562000483578190505b6200049b620004928562000331565b8301826200042c565b50505b505050565b600082821c905092915050565b6000620004c360001984600802620004a3565b1980831691505092915050565b6000620004de8383620004b0565b9150826002028217905092915050565b620004f982620002ad565b67ffffffffffffffff81111562000515576200051462000093565b5b620005218254620002e7565b6200052e82828562000453565b600060209050601f83116001811462000566576000841562000551578287015190505b6200055d8582620004d0565b865550620005cd565b601f19841662000576866200031c565b60005b82811015620005a05784890151825560018201915060208501945060208101905062000579565b86831015620005c05784890151620005bc601f891682620004b0565b8355505b6001600288020188555050505b505050505050565b6107f380620005e56000396000f3fe608060405234801561001057600080fd5b50600436106100575760003560e01c806306fdde031461005c578063262a9dff1461007a578063a883ba1414610098578063ac1bed58146100b4578063fd66e291146100d2575b600080fd5b6100646100ee565b6040516100719190610249565b60405180910390f35b61008261017c565b60405161008f9190610284565b60405180910390f35b6100b260048036038101906100ad9190610414565b610182565b005b6100bc61019d565b6040516100c99190610284565b60405180910390f35b6100ec60048036038101906100e79190610470565b6101a3565b005b600080546100fb9061050e565b80601f01602080910402602001604051908101604052809291908181526020018280546101279061050e565b80156101745780601f1061014957610100808354040283529160200191610174565b820191906000526020600020905b81548152906001019060200180831161015757829003601f168201915b505050505081565b60015481565b816000908161019191906106eb565b50806001819055505050565b60025481565b6101ad8383610182565b80600281905550505050565b600081519050919050565b600082825260208201905092915050565b60005b838110156101f35780820151818401526020810190506101d8565b60008484015250505050565b6000601f19601f8301169050919050565b600061021b826101b9565b61022581856101c4565b93506102358185602086016101d5565b61023e816101ff565b840191505092915050565b600060208201905081810360008301526102638184610210565b905092915050565b6000819050919050565b61027e8161026b565b82525050565b60006020820190506102996000830184610275565b92915050565b6000604051905090565b600080fd5b600080fd5b600080fd5b600080fd5b7f4e487b7100000000000000000000000000000000000000000000000000000000600052604160045260246000fd5b6102f5826101ff565b810181811067ffffffffffffffff82111715610314576103136102bd565b5b80604052505050565b600061032761029f565b905061033382826102ec565b919050565b600067ffffffffffffffff821115610353576103526102bd565b5b61035c826101ff565b9050602081019050919050565b82818337600083830152505050565b600061038b61038684610338565b61031d565b9050828152602081018484840111156103a7576103a66102b8565b5b6103b2848285610369565b509392505050565b600082601f8301126103cf576103ce6102b3565b5b81356103df848260208601610378565b91505092915050565b6103f18161026b565b81146103fc57600080fd5b50565b60008135905061040e816103e8565b92915050565b6000806040838503121561042b5761042a6102a9565b5b600083013567ffffffffffffffff811115610449576104486102ae565b5b610455858286016103ba565b9250506020610466858286016103ff565b9150509250929050565b600080600060608486031215610489576104886102a9565b5b600084013567ffffffffffffffff8111156104a7576104a66102ae565b5b6104b3868287016103ba565b93505060206104c4868287016103ff565b92505060406104d5868287016103ff565b9150509250925092565b7f4e487b7100000000000000000000000000000000000000000000000000000000600052602260045260246000fd5b6000600282049050600182168061052657607f821691505b602082108103610539576105386104df565b5b50919050565b60008190508160005260206000209050919050565b60006020601f8301049050919050565b600082821b905092915050565b6000600883026105a17fffffffffffffffffffffffffffffffffffffffffffffffffffffffffffffffff82610564565b6105ab8683610564565b95508019841693508086168417925050509392505050565b6000819050919050565b60006105e86105e36105de8461026b565b6105c3565b61026b565b9050919050565b6000819050919050565b610602836105cd565b61061661060e826105ef565b848454610571565b825550505050565b600090565b61062b61061e565b6106368184846105f9565b505050565b5b8181101561065a5761064f600082610623565b60018101905061063c565b5050565b601f82111561069f576106708161053f565b61067984610554565b81016020851015610688578190505b61069c61069485610554565b83018261063b565b50505b505050565b600082821c905092915050565b60006106c2600019846008026106a4565b1980831691505092915050565b60006106db83836106b1565b9150826002028217905092915050565b6106f4826101b9565b67ffffffffffffffff81111561070d5761070c6102bd565b5b610717825461050e565b61072282828561065e565b600060209050601f8311600181146107555760008415610743578287015190505b61074d85826106cf565b8655506107b5565b601f1984166107638661053f565b60005b8281101561078b57848901518255600182019150602085019450602081019050610766565b868310156107a857848901516107a4601f8916826106b1565b8355505b6001600288020188555050505b50505050505056fea2646970667358221220011fdc30af43bcb813e7cbcca6d76a33ab27b1f5f67494fe46bf2fa96fdf0c4264736f6c63430008120033",
					"opcodes": "PUSH1 0x80 PUSH1 0x40 MSTORE CALLVALUE DUP1 ISZERO PUSH3 0x11 JUMPI PUSH1 0x0 DUP1 REVERT JUMPDEST POP PUSH1 0x40 MLOAD PUSH3 0xDD8 CODESIZE SUB DUP1 PUSH3 0xDD8 DUP4 CODECOPY DUP2 DUP2 ADD PUSH1 0x40 MSTORE DUP2 ADD SWAP1 PUSH3 0x37 SWAP2 SWAP1 PUSH3 0x232 JUMP JUMPDEST DUP3 DUP3 DUP2 PUSH1 0x0 SWAP1 DUP2 PUSH3 0x4A SWAP2 SWAP1 PUSH3 0x4EE JUMP JUMPDEST POP DUP1 PUSH1 0x1 DUP2 SWAP1 SSTORE POP POP POP DUP1 PUSH1 0x2 DUP2 SWAP1 SSTORE POP POP POP POP PUSH3 0x5D5 JUMP JUMPDEST PUSH1 0x0 PUSH1 0x40 MLOAD SWAP1 POP SWAP1 JUMP JUMPDEST PUSH1 0x0 DUP1 REVERT JUMPDEST PUSH1 0x0 DUP1 REVERT JUMPDEST PUSH1 0x0 DUP1 REVERT JUMPDEST PUSH1 0x0 DUP1 REVERT JUMPDEST PUSH1 0x0 PUSH1 0x1F NOT PUSH1 0x1F DUP4 ADD AND SWAP1 POP SWAP2 SWAP1 POP JUMP JUMPDEST PUSH32 0x4E487B7100000000000000000000000000000000000000000000000000000000 PUSH1 0x0 MSTORE PUSH1 0x41 PUSH1 0x4 MSTORE PUSH1 0x24 PUSH1 0x0 REVERT JUMPDEST PUSH3 0xCD DUP3 PUSH3 0x82 JUMP JUMPDEST DUP2 ADD DUP2 DUP2 LT PUSH8 0xFFFFFFFFFFFFFFFF DUP3 GT OR ISZERO PUSH3 0xEF JUMPI PUSH3 0xEE PUSH3 0x93 JUMP JUMPDEST JUMPDEST DUP1 PUSH1 0x40 MSTORE POP POP POP JUMP JUMPDEST PUSH1 0x0 PUSH3 0x104 PUSH3 0x64 JUMP JUMPDEST SWAP1 POP PUSH3 0x112 DUP3 DUP3 PUSH3 0xC2 JUMP JUMPDEST SWAP2 SWAP1 POP JUMP JUMPDEST PUSH1 0x0 PUSH8 0xFFFFFFFFFFFFFFFF DUP3 GT ISZERO PUSH3 0x135 JUMPI PUSH3 0x134 PUSH3 0x93 JUMP JUMPDEST JUMPDEST PUSH3 0x140 DUP3 PUSH3 0x82 JUMP JUMPDEST SWAP1 POP PUSH1 0x20 DUP2 ADD SWAP1 POP SWAP2 SWAP1 POP JUMP JUMPDEST PUSH1 0x0 JUMPDEST DUP4 DUP2 LT ISZERO PUSH3 0x16D JUMPI DUP1 DUP3 ADD MLOAD DUP2 DUP5 ADD MSTORE PUSH1 0x20 DUP2 ADD SWAP1 POP PUSH3 0x150 JUMP JUMPDEST PUSH1 0x0 DUP5 DUP5 ADD MSTORE POP POP POP POP JUMP JUMPDEST PUSH1 0x0 PUSH3 0x190 PUSH3 0x18A DUP5 PUSH3 0x117 JUMP JUMPDEST PUSH3 0xF8 JUMP JUMPDEST SWAP1 POP DUP3 DUP2 MSTORE PUSH1 0x20 DUP2 ADD DUP5 DUP5 DUP5 ADD GT ISZERO PUSH3 0x1AF JUMPI PUSH3 0x1AE PUSH3 0x7D JUMP JUMPDEST JUMPDEST PUSH3 0x1BC DUP5 DUP3 DUP6 PUSH3 0x14D JUMP JUMPDEST POP SWAP4 SWAP3 POP POP POP JUMP JUMPDEST PUSH1 0x0 DUP3 PUSH1 0x1F DUP4 ADD SLT PUSH3 0x1DC JUMPI PUSH3 0x1DB PUSH3 0x78 JUMP JUMPDEST JUMPDEST DUP2 MLOAD PUSH3 0x1EE DUP5 DUP3 PUSH1 0x20 DUP7 ADD PUSH3 0x179 JUMP JUMPDEST SWAP2 POP POP SWAP3 SWAP2 POP POP JUMP JUMPDEST PUSH1 0x0 DUP2 SWAP1 POP SWAP2 SWAP1 POP JUMP JUMPDEST PUSH3 0x20C DUP2 PUSH3 0x1F7 JUMP JUMPDEST DUP2 EQ PUSH3 0x218 JUMPI PUSH1 0x0 DUP1 REVERT JUMPDEST POP JUMP JUMPDEST PUSH1 0x0 DUP2 MLOAD SWAP1 POP PUSH3 0x22C DUP2 PUSH3 0x201 JUMP JUMPDEST SWAP3 SWAP2 POP POP JUMP JUMPDEST PUSH1 0x0 DUP1 PUSH1 0x0 PUSH1 0x60 DUP5 DUP7 SUB SLT ISZERO PUSH3 0x24E JUMPI PUSH3 0x24D PUSH3 0x6E JUMP JUMPDEST JUMPDEST PUSH1 0x0 DUP5 ADD MLOAD PUSH8 0xFFFFFFFFFFFFFFFF DUP2 GT ISZERO PUSH3 0x26F JUMPI PUSH3 0x26E PUSH3 0x73 JUMP JUMPDEST JUMPDEST PUSH3 0x27D DUP7 DUP3 DUP8 ADD PUSH3 0x1C4 JUMP JUMPDEST SWAP4 POP POP PUSH1 0x20 PUSH3 0x290 DUP7 DUP3 DUP8 ADD PUSH3 0x21B JUMP JUMPDEST SWAP3 POP POP PUSH1 0x40 PUSH3 0x2A3 DUP7 DUP3 DUP8 ADD PUSH3 0x21B JUMP JUMPDEST SWAP2 POP POP SWAP3 POP SWAP3 POP SWAP3 JUMP JUMPDEST PUSH1 0x0 DUP2 MLOAD SWAP1 POP SWAP2 SWAP1 POP JUMP JUMPDEST PUSH32 0x4E487B7100000000000000000000000000000000000000000000000000000000 PUSH1 0x0 MSTORE PUSH1 0x22 PUSH1 0x4 MSTORE PUSH1 0x24 PUSH1 0x0 REVERT JUMPDEST PUSH1 0x0 PUSH1 0x2 DUP3 DIV SWAP1 POP PUSH1 0x1 DUP3 AND DUP1 PUSH3 0x300 JUMPI PUSH1 0x7F DUP3 AND SWAP2 POP JUMPDEST PUSH1 0x20 DUP3 LT DUP2 SUB PUSH3 0x316 JUMPI PUSH3 0x315 PUSH3 0x2B8 JUMP JUMPDEST JUMPDEST POP SWAP2 SWAP1 POP JUMP JUMPDEST PUSH1 0x0 DUP2 SWAP1 POP DUP2 PUSH1 0x0 MSTORE PUSH1 0x20 PUSH1 0x0 KECCAK256 SWAP1 POP SWAP2 SWAP1 POP JUMP JUMPDEST PUSH1 0x0 PUSH1 0x20 PUSH1 0x1F DUP4 ADD DIV SWAP1 POP SWAP2 SWAP1 POP JUMP JUMPDEST PUSH1 0x0 DUP3 DUP3 SHL SWAP1 POP SWAP3 SWAP2 POP POP JUMP JUMPDEST PUSH1 0x0 PUSH1 0x8 DUP4 MUL PUSH3 0x380 PUSH32 0xFFFFFFFFFFFFFFFFFFFFFFFFFFFFFFFFFFFFFFFFFFFFFFFFFFFFFFFFFFFFFFFF DUP3 PUSH3 0x341 JUMP JUMPDEST PUSH3 0x38C DUP7 DUP4 PUSH3 0x341 JUMP JUMPDEST SWAP6 POP DUP1 NOT DUP5 AND SWAP4 POP DUP1 DUP7 AND DUP5 OR SWAP3 POP POP POP SWAP4 SWAP3 POP POP POP JUMP JUMPDEST PUSH1 0x0 DUP2 SWAP1 POP SWAP2 SWAP1 POP JUMP JUMPDEST PUSH1 0x0 PUSH3 0x3CF PUSH3 0x3C9 PUSH3 0x3C3 DUP5 PUSH3 0x1F7 JUMP JUMPDEST PUSH3 0x3A4 JUMP JUMPDEST PUSH3 0x1F7 JUMP JUMPDEST SWAP1 POP SWAP2 SWAP1 POP JUMP JUMPDEST PUSH1 0x0 DUP2 SWAP1 POP SWAP2 SWAP1 POP JUMP JUMPDEST PUSH3 0x3EB DUP4 PUSH3 0x3AE JUMP JUMPDEST PUSH3 0x403 PUSH3 0x3FA DUP3 PUSH3 0x3D6 JUMP JUMPDEST DUP5 DUP5 SLOAD PUSH3 0x34E JUMP JUMPDEST DUP3 SSTORE POP POP POP POP JUMP JUMPDEST PUSH1 0x0 SWAP1 JUMP JUMPDEST PUSH3 0x41A PUSH3 0x40B JUMP JUMPDEST PUSH3 0x427 DUP2 DUP5 DUP5 PUSH3 0x3E0 JUMP JUMPDEST POP POP POP JUMP JUMPDEST JUMPDEST DUP2 DUP2 LT ISZERO PUSH3 0x44F JUMPI PUSH3 0x443 PUSH1 0x0 DUP3 PUSH3 0x410 JUMP JUMPDEST PUSH1 0x1 DUP2 ADD SWAP1 POP PUSH3 0x42D JUMP JUMPDEST POP POP JUMP JUMPDEST PUSH1 0x1F DUP3 GT ISZERO PUSH3 0x49E JUMPI PUSH3 0x468 DUP2 PUSH3 0x31C JUMP JUMPDEST PUSH3 0x473 DUP5 PUSH3 0x331 JUMP JUMPDEST DUP2 ADD PUSH1 0x20 DUP6 LT ISZERO PUSH3 0x483 JUMPI DUP2 SWAP1 POP JUMPDEST PUSH3 0x49B PUSH3 0x492 DUP6 PUSH3 0x331 JUMP JUMPDEST DUP4 ADD DUP3 PUSH3 0x42C JUMP JUMPDEST POP POP JUMPDEST POP POP POP JUMP JUMPDEST PUSH1 0x0 DUP3 DUP3 SHR SWAP1 POP SWAP3 SWAP2 POP POP JUMP JUMPDEST PUSH1 0x0 PUSH3 0x4C3 PUSH1 0x0 NOT DUP5 PUSH1 0x8 MUL PUSH3 0x4A3 JUMP JUMPDEST NOT DUP1 DUP4 AND SWAP2 POP POP SWAP3 SWAP2 POP POP JUMP JUMPDEST PUSH1 0x0 PUSH3 0x4DE DUP4 DUP4 PUSH3 0x4B0 JUMP JUMPDEST SWAP2 POP DUP3 PUSH1 0x2 MUL DUP3 OR SWAP1 POP SWAP3 SWAP2 POP POP JUMP JUMPDEST PUSH3 0x4F9 DUP3 PUSH3 0x2AD JUMP JUMPDEST PUSH8 0xFFFFFFFFFFFFFFFF DUP2 GT ISZERO PUSH3 0x515 JUMPI PUSH3 0x514 PUSH3 0x93 JUMP JUMPDEST JUMPDEST PUSH3 0x521 DUP3 SLOAD PUSH3 0x2E7 JUMP JUMPDEST PUSH3 0x52E DUP3 DUP3 DUP6 PUSH3 0x453 JUMP JUMPDEST PUSH1 0x0 PUSH1 0x20 SWAP1 POP PUSH1 0x1F DUP4 GT PUSH1 0x1 DUP2 EQ PUSH3 0x566 JUMPI PUSH1 0x0 DUP5 ISZERO PUSH3 0x551 JUMPI DUP3 DUP8 ADD MLOAD SWAP1 POP JUMPDEST PUSH3 0x55D DUP6 DUP3 PUSH3 0x4D0 JUMP JUMPDEST DUP7 SSTORE POP PUSH3 0x5CD JUMP JUMPDEST PUSH1 0x1F NOT DUP5 AND PUSH3 0x576 DUP7 PUSH3 0x31C JUMP JUMPDEST PUSH1 0x0 JUMPDEST DUP3 DUP2 LT ISZERO PUSH3 0x5A0 JUMPI DUP5 DUP10 ADD MLOAD DUP3 SSTORE PUSH1 0x1 DUP3 ADD SWAP2 POP PUSH1 0x20 DUP6 ADD SWAP5 POP PUSH1 0x20 DUP2 ADD SWAP1 POP PUSH3 0x579 JUMP JUMPDEST DUP7 DUP4 LT ISZERO PUSH3 0x5C0 JUMPI DUP5 DUP10 ADD MLOAD PUSH3 0x5BC PUSH1 0x1F DUP10 AND DUP3 PUSH3 0x4B0 JUMP JUMPDEST DUP4 SSTORE POP JUMPDEST PUSH1 0x1 PUSH1 0x2 DUP9 MUL ADD DUP9 SSTORE POP POP POP JUMPDEST POP POP POP POP POP POP JUMP JUMPDEST PUSH2 0x7F3 DUP1 PUSH3 0x5E5 PUSH1 0x0 CODECOPY PUSH1 0x0 RETURN INVALID PUSH1 0x80 PUSH1 0x40 MSTORE CALLVALUE DUP1 ISZERO PUSH2 0x10 JUMPI PUSH1 0x0 DUP1 REVERT JUMPDEST POP PUSH1 0x4 CALLDATASIZE LT PUSH2 0x57 JUMPI PUSH1 0x0 CALLDATALOAD PUSH1 0xE0 SHR DUP1 PUSH4 0x6FDDE03 EQ PUSH2 0x5C JUMPI DUP1 PUSH4 0x262A9DFF EQ PUSH2 0x7A JUMPI DUP1 PUSH4 0xA883BA14 EQ PUSH2 0x98 JUMPI DUP1 PUSH4 0xAC1BED58 EQ PUSH2 0xB4 JUMPI DUP1 PUSH4 0xFD66E291 EQ PUSH2 0xD2 JUMPI JUMPDEST PUSH1 0x0 DUP1 REVERT JUMPDEST PUSH2 0x64 PUSH2 0xEE JUMP JUMPDEST PUSH1 0x40 MLOAD PUSH2 0x71 SWAP2 SWAP1 PUSH2 0x249 JUMP JUMPDEST PUSH1 0x40 MLOAD DUP1 SWAP2 SUB SWAP1 RETURN JUMPDEST PUSH2 0x82 PUSH2 0x17C JUMP JUMPDEST PUSH1 0x40 MLOAD PUSH2 0x8F SWAP2 SWAP1 PUSH2 0x284 JUMP JUMPDEST PUSH1 0x40 MLOAD DUP1 SWAP2 SUB SWAP1 RETURN JUMPDEST PUSH2 0xB2 PUSH1 0x4 DUP1 CALLDATASIZE SUB DUP2 ADD SWAP1 PUSH2 0xAD SWAP2 SWAP1 PUSH2 0x414 JUMP JUMPDEST PUSH2 0x182 JUMP JUMPDEST STOP JUMPDEST PUSH2 0xBC PUSH2 0x19D JUMP JUMPDEST PUSH1 0x40 MLOAD PUSH2 0xC9 SWAP2 SWAP1 PUSH2 0x284 JUMP JUMPDEST PUSH1 0x40 MLOAD DUP1 SWAP2 SUB SWAP1 RETURN JUMPDEST PUSH2 0xEC PUSH1 0x4 DUP1 CALLDATASIZE SUB DUP2 ADD SWAP1 PUSH2 0xE7 SWAP2 SWAP1 PUSH2 0x470 JUMP JUMPDEST PUSH2 0x1A3 JUMP JUMPDEST STOP JUMPDEST PUSH1 0x0 DUP1 SLOAD PUSH2 0xFB SWAP1 PUSH2 0x50E JUMP JUMPDEST DUP1 PUSH1 0x1F ADD PUSH1 0x20 DUP1 SWAP2 DIV MUL PUSH1 0x20 ADD PUSH1 0x40 MLOAD SWAP1 DUP2 ADD PUSH1 0x40 MSTORE DUP1 SWAP3 SWAP2 SWAP1 DUP2 DUP2 MSTORE PUSH1 0x20 ADD DUP3 DUP1 SLOAD PUSH2 0x127 SWAP1 PUSH2 0x50E JUMP JUMPDEST DUP1 ISZERO PUSH2 0x174 JUMPI DUP1 PUSH1 0x1F LT PUSH2 0x149 JUMPI PUSH2 0x100 DUP1 DUP4 SLOAD DIV MUL DUP4 MSTORE SWAP2 PUSH1 0x20 ADD SWAP2 PUSH2 0x174 JUMP JUMPDEST DUP3 ADD SWAP2 SWAP1 PUSH1 0x0 MSTORE PUSH1 0x20 PUSH1 0x0 KECCAK256 SWAP1 JUMPDEST DUP2 SLOAD DUP2 MSTORE SWAP1 PUSH1 0x1 ADD SWAP1 PUSH1 0x20 ADD DUP1 DUP4 GT PUSH2 0x157 JUMPI DUP3 SWAP1 SUB PUSH1 0x1F AND DUP3 ADD SWAP2 JUMPDEST POP POP POP POP POP DUP2 JUMP JUMPDEST PUSH1 0x1 SLOAD DUP2 JUMP JUMPDEST DUP2 PUSH1 0x0 SWAP1 DUP2 PUSH2 0x191 SWAP2 SWAP1 PUSH2 0x6EB JUMP JUMPDEST POP DUP1 PUSH1 0x1 DUP2 SWAP1 SSTORE POP POP POP JUMP JUMPDEST PUSH1 0x2 SLOAD DUP2 JUMP JUMPDEST PUSH2 0x1AD DUP4 DUP4 PUSH2 0x182 JUMP JUMPDEST DUP1 PUSH1 0x2 DUP2 SWAP1 SSTORE POP POP POP POP JUMP JUMPDEST PUSH1 0x0 DUP2 MLOAD SWAP1 POP SWAP2 SWAP1 POP JUMP JUMPDEST PUSH1 0x0 DUP3 DUP3 MSTORE PUSH1 0x20 DUP3 ADD SWAP1 POP SWAP3 SWAP2 POP POP JUMP JUMPDEST PUSH1 0x0 JUMPDEST DUP4 DUP2 LT ISZERO PUSH2 0x1F3 JUMPI DUP1 DUP3 ADD MLOAD DUP2 DUP5 ADD MSTORE PUSH1 0x20 DUP2 ADD SWAP1 POP PUSH2 0x1D8 JUMP JUMPDEST PUSH1 0x0 DUP5 DUP5 ADD MSTORE POP POP POP POP JUMP JUMPDEST PUSH1 0x0 PUSH1 0x1F NOT PUSH1 0x1F DUP4 ADD AND SWAP1 POP SWAP2 SWAP1 POP JUMP JUMPDEST PUSH1 0x0 PUSH2 0x21B DUP3 PUSH2 0x1B9 JUMP JUMPDEST PUSH2 0x225 DUP2 DUP6 PUSH2 0x1C4 JUMP JUMPDEST SWAP4 POP PUSH2 0x235 DUP2 DUP6 PUSH1 0x20 DUP7 ADD PUSH2 0x1D5 JUMP JUMPDEST PUSH2 0x23E DUP2 PUSH2 0x1FF JUMP JUMPDEST DUP5 ADD SWAP2 POP POP SWAP3 SWAP2 POP POP JUMP JUMPDEST PUSH1 0x0 PUSH1 0x20 DUP3 ADD SWAP1 POP DUP2 DUP2 SUB PUSH1 0x0 DUP4 ADD MSTORE PUSH2 0x263 DUP2 DUP5 PUSH2 0x210 JUMP JUMPDEST SWAP1 POP SWAP3 SWAP2 POP POP JUMP JUMPDEST PUSH1 0x0 DUP2 SWAP1 POP SWAP2 SWAP1 POP JUMP JUMPDEST PUSH2 0x27E DUP2 PUSH2 0x26B JUMP JUMPDEST DUP3 MSTORE POP POP JUMP JUMPDEST PUSH1 0x0 PUSH1 0x20 DUP3 ADD SWAP1 POP PUSH2 0x299 PUSH1 0x0 DUP4 ADD DUP5 PUSH2 0x275 JUMP JUMPDEST SWAP3 SWAP2 POP POP JUMP JUMPDEST PUSH1 0x0 PUSH1 0x40 MLOAD SWAP1 POP SWAP1 JUMP JUMPDEST PUSH1 0x0 DUP1 REVERT JUMPDEST PUSH1 0x0 DUP1 REVERT JUMPDEST PUSH1 0x0 DUP1 REVERT JUMPDEST PUSH1 0x0 DUP1 REVERT JUMPDEST PUSH32 0x4E487B7100000000000000000000000000000000000000000000000000000000 PUSH1 0x0 MSTORE PUSH1 0x41 PUSH1 0x4 MSTORE PUSH1 0x24 PUSH1 0x0 REVERT JUMPDEST PUSH2 0x2F5 DUP3 PUSH2 0x1FF JUMP JUMPDEST DUP2 ADD DUP2 DUP2 LT PUSH8 0xFFFFFFFFFFFFFFFF DUP3 GT OR ISZERO PUSH2 0x314 JUMPI PUSH2 0x313 PUSH2 0x2BD JUMP JUMPDEST JUMPDEST DUP1 PUSH1 0x40 MSTORE POP POP POP JUMP JUMPDEST PUSH1 0x0 PUSH2 0x327 PUSH2 0x29F JUMP JUMPDEST SWAP1 POP PUSH2 0x333 DUP3 DUP3 PUSH2 0x2EC JUMP JUMPDEST SWAP2 SWAP1 POP JUMP JUMPDEST PUSH1 0x0 PUSH8 0xFFFFFFFFFFFFFFFF DUP3 GT ISZERO PUSH2 0x353 JUMPI PUSH2 0x352 PUSH2 0x2BD JUMP JUMPDEST JUMPDEST PUSH2 0x35C DUP3 PUSH2 0x1FF JUMP JUMPDEST SWAP1 POP PUSH1 0x20 DUP2 ADD SWAP1 POP SWAP2 SWAP1 POP JUMP JUMPDEST DUP3 DUP2 DUP4 CALLDATACOPY PUSH1 0x0 DUP4 DUP4 ADD MSTORE POP POP POP JUMP JUMPDEST PUSH1 0x0 PUSH2 0x38B PUSH2 0x386 DUP5 PUSH2 0x338 JUMP JUMPDEST PUSH2 0x31D JUMP JUMPDEST SWAP1 POP DUP3 DUP2 MSTORE PUSH1 0x20 DUP2 ADD DUP5 DUP5 DUP5 ADD GT ISZERO PUSH2 0x3A7 JUMPI PUSH2 0x3A6 PUSH2 0x2B8 JUMP JUMPDEST JUMPDEST PUSH2 0x3B2 DUP5 DUP3 DUP6 PUSH2 0x369 JUMP JUMPDEST POP SWAP4 SWAP3 POP POP POP JUMP JUMPDEST PUSH1 0x0 DUP3 PUSH1 0x1F DUP4 ADD SLT PUSH2 0x3CF JUMPI PUSH2 0x3CE PUSH2 0x2B3 JUMP JUMPDEST JUMPDEST DUP2 CALLDATALOAD PUSH2 0x3DF DUP5 DUP3 PUSH1 0x20 DUP7 ADD PUSH2 0x378 JUMP JUMPDEST SWAP2 POP POP SWAP3 SWAP2 POP POP JUMP JUMPDEST PUSH2 0x3F1 DUP2 PUSH2 0x26B JUMP JUMPDEST DUP2 EQ PUSH2 0x3FC JUMPI PUSH1 0x0 DUP1 REVERT JUMPDEST POP JUMP JUMPDEST PUSH1 0x0 DUP2 CALLDATALOAD SWAP1 POP PUSH2 0x40E DUP2 PUSH2 0x3E8 JUMP JUMPDEST SWAP3 SWAP2 POP POP JUMP JUMPDEST PUSH1 0x0 DUP1 PUSH1 0x40 DUP4 DUP6 SUB SLT ISZERO PUSH2 0x42B JUMPI PUSH2 0x42A PUSH2 0x2A9 JUMP JUMPDEST JUMPDEST PUSH1 0x0 DUP4 ADD CALLDATALOAD PUSH8 0xFFFFFFFFFFFFFFFF DUP2 GT ISZERO PUSH2 0x449 JUMPI PUSH2 0x448 PUSH2 0x2AE JUMP JUMPDEST JUMPDEST PUSH2 0x455 DUP6 DUP3 DUP7 ADD PUSH2 0x3BA JUMP JUMPDEST SWAP3 POP POP PUSH1 0x20 PUSH2 0x466 DUP6 DUP3 DUP7 ADD PUSH2 0x3FF JUMP JUMPDEST SWAP2 POP POP SWAP3 POP SWAP3 SWAP1 POP JUMP JUMPDEST PUSH1 0x0 DUP1 PUSH1 0x0 PUSH1 0x60 DUP5 DUP7 SUB SLT ISZERO PUSH2 0x489 JUMPI PUSH2 0x488 PUSH2 0x2A9 JUMP JUMPDEST JUMPDEST PUSH1 0x0 DUP5 ADD CALLDATALOAD PUSH8 0xFFFFFFFFFFFFFFFF DUP2 GT ISZERO PUSH2 0x4A7 JUMPI PUSH2 0x4A6 PUSH2 0x2AE JUMP JUMPDEST JUMPDEST PUSH2 0x4B3 DUP7 DUP3 DUP8 ADD PUSH2 0x3BA JUMP JUMPDEST SWAP4 POP POP PUSH1 0x20 PUSH2 0x4C4 DUP7 DUP3 DUP8 ADD PUSH2 0x3FF JUMP JUMPDEST SWAP3 POP POP PUSH1 0x40 PUSH2 0x4D5 DUP7 DUP3 DUP8 ADD PUSH2 0x3FF JUMP JUMPDEST SWAP2 POP POP SWAP3 POP SWAP3 POP SWAP3 JUMP JUMPDEST PUSH32 0x4E487B7100000000000000000000000000000000000000000000000000000000 PUSH1 0x0 MSTORE PUSH1 0x22 PUSH1 0x4 MSTORE PUSH1 0x24 PUSH1 0x0 REVERT JUMPDEST PUSH1 0x0 PUSH1 0x2 DUP3 DIV SWAP1 POP PUSH1 0x1 DUP3 AND DUP1 PUSH2 0x526 JUMPI PUSH1 0x7F DUP3 AND SWAP2 POP JUMPDEST PUSH1 0x20 DUP3 LT DUP2 SUB PUSH2 0x539 JUMPI PUSH2 0x538 PUSH2 0x4DF JUMP JUMPDEST JUMPDEST POP SWAP2 SWAP1 POP JUMP JUMPDEST PUSH1 0x0 DUP2 SWAP1 POP DUP2 PUSH1 0x0 MSTORE PUSH1 0x20 PUSH1 0x0 KECCAK256 SWAP1 POP SWAP2 SWAP1 POP JUMP JUMPDEST PUSH1 0x0 PUSH1 0x20 PUSH1 0x1F DUP4 ADD DIV SWAP1 POP SWAP2 SWAP1 POP JUMP JUMPDEST PUSH1 0x0 DUP3 DUP3 SHL SWAP1 POP SWAP3 SWAP2 POP POP JUMP JUMPDEST PUSH1 0x0 PUSH1 0x8 DUP4 MUL PUSH2 0x5A1 PUSH32 0xFFFFFFFFFFFFFFFFFFFFFFFFFFFFFFFFFFFFFFFFFFFFFFFFFFFFFFFFFFFFFFFF DUP3 PUSH2 0x564 JUMP JUMPDEST PUSH2 0x5AB DUP7 DUP4 PUSH2 0x564 JUMP JUMPDEST SWAP6 POP DUP1 NOT DUP5 AND SWAP4 POP DUP1 DUP7 AND DUP5 OR SWAP3 POP POP POP SWAP4 SWAP3 POP POP POP JUMP JUMPDEST PUSH1 0x0 DUP2 SWAP1 POP SWAP2 SWAP1 POP JUMP JUMPDEST PUSH1 0x0 PUSH2 0x5E8 PUSH2 0x5E3 PUSH2 0x5DE DUP5 PUSH2 0x26B JUMP JUMPDEST PUSH2 0x5C3 JUMP JUMPDEST PUSH2 0x26B JUMP JUMPDEST SWAP1 POP SWAP2 SWAP1 POP JUMP JUMPDEST PUSH1 0x0 DUP2 SWAP1 POP SWAP2 SWAP1 POP JUMP JUMPDEST PUSH2 0x602 DUP4 PUSH2 0x5CD JUMP JUMPDEST PUSH2 0x616 PUSH2 0x60E DUP3 PUSH2 0x5EF JUMP JUMPDEST DUP5 DUP5 SLOAD PUSH2 0x571 JUMP JUMPDEST DUP3 SSTORE POP POP POP POP JUMP JUMPDEST PUSH1 0x0 SWAP1 JUMP JUMPDEST PUSH2 0x62B PUSH2 0x61E JUMP JUMPDEST PUSH2 0x636 DUP2 DUP5 DUP5 PUSH2 0x5F9 JUMP JUMPDEST POP POP POP JUMP JUMPDEST JUMPDEST DUP2 DUP2 LT ISZERO PUSH2 0x65A JUMPI PUSH2 0x64F PUSH1 0x0 DUP3 PUSH2 0x623 JUMP JUMPDEST PUSH1 0x1 DUP2 ADD SWAP1 POP PUSH2 0x63C JUMP JUMPDEST POP POP JUMP JUMPDEST PUSH1 0x1F DUP3 GT ISZERO PUSH2 0x69F JUMPI PUSH2 0x670 DUP2 PUSH2 0x53F JUMP JUMPDEST PUSH2 0x679 DUP5 PUSH2 0x554 JUMP JUMPDEST DUP2 ADD PUSH1 0x20 DUP6 LT ISZERO PUSH2 0x688 JUMPI DUP2 SWAP1 POP JUMPDEST PUSH2 0x69C PUSH2 0x694 DUP6 PUSH2 0x554 JUMP JUMPDEST DUP4 ADD DUP3 PUSH2 0x63B JUMP JUMPDEST POP POP JUMPDEST POP POP POP JUMP JUMPDEST PUSH1 0x0 DUP3 DUP3 SHR SWAP1 POP SWAP3 SWAP2 POP POP JUMP JUMPDEST PUSH1 0x0 PUSH2 0x6C2 PUSH1 0x0 NOT DUP5 PUSH1 0x8 MUL PUSH2 0x6A4 JUMP JUMPDEST NOT DUP1 DUP4 AND SWAP2 POP POP SWAP3 SWAP2 POP POP JUMP JUMPDEST PUSH1 0x0 PUSH2 0x6DB DUP4 DUP4 PUSH2 0x6B1 JUMP JUMPDEST SWAP2 POP DUP3 PUSH1 0x2 MUL DUP3 OR SWAP1 POP SWAP3 SWAP2 POP POP JUMP JUMPDEST PUSH2 0x6F4 DUP3 PUSH2 0x1B9 JUMP JUMPDEST PUSH8 0xFFFFFFFFFFFFFFFF DUP2 GT ISZERO PUSH2 0x70D JUMPI PUSH2 0x70C PUSH2 0x2BD JUMP JUMPDEST JUMPDEST PUSH2 0x717 DUP3 SLOAD PUSH2 0x50E JUMP JUMPDEST PUSH2 0x722 DUP3 DUP3 DUP6 PUSH2 0x65E JUMP JUMPDEST PUSH1 0x0 PUSH1 0x20 SWAP1 POP PUSH1 0x1F DUP4 GT PUSH1 0x1 DUP2 EQ PUSH2 0x755 JUMPI PUSH1 0x0 DUP5 ISZERO PUSH2 0x743 JUMPI DUP3 DUP8 ADD MLOAD SWAP1 POP JUMPDEST PUSH2 0x74D DUP6 DUP3 PUSH2 0x6CF JUMP JUMPDEST DUP7 SSTORE POP PUSH2 0x7B5 JUMP JUMPDEST PUSH1 0x1F NOT DUP5 AND PUSH2 0x763 DUP7 PUSH2 0x53F JUMP JUMPDEST PUSH1 0x0 JUMPDEST DUP3 DUP2 LT ISZERO PUSH2 0x78B JUMPI DUP5 DUP10 ADD MLOAD DUP3 SSTORE PUSH1 0x1 DUP3 ADD SWAP2 POP PUSH1 0x20 DUP6 ADD SWAP5 POP PUSH1 0x20 DUP2 ADD SWAP1 POP PUSH2 0x766 JUMP JUMPDEST DUP7 DUP4 LT ISZERO PUSH2 0x7A8 JUMPI DUP5 DUP10 ADD MLOAD PUSH2 0x7A4 PUSH1 0x1F DUP10 AND DUP3 PUSH2 0x6B1 JUMP JUMPDEST DUP4 SSTORE POP JUMPDEST PUSH1 0x1 PUSH1 0x2 DUP9 MUL ADD DUP9 SSTORE POP POP POP JUMPDEST POP POP POP POP POP POP JUMP INVALID LOG2 PUSH5 0x6970667358 0x22 SLT KECCAK256 ADD 0x1F 0xDC ADDRESS 0xAF NUMBER 0xBC 0xB8 SGT 0xE7 0xCB 0xCC 0xA6 0xD7 PUSH11 0x33AB27B1F5F67494FE46BF 0x2F 0xA9 PUSH16 0xDF0C4264736F6C634300081200330000 "
				},
				"gasEstimates": {
					"creation": {
						"codeDepositCost": "407000",
						"executionCost": "infinite",
						"totalCost": "infinite"
					},
					"external": {
						"age()": "2429",
						"name()": "infinite",
						"rollNumber()": "2473",
						"updatePerson(string,uint256)": "infinite",
						"updateStudent(string,uint256,uint256)": "infinite"
					}
				},
				"methodIdentifiers": {
					"age()": "262a9dff",
					"name()": "06fdde03",
					"rollNumber()": "ac1bed58",
					"updatePerson(string,uint256)": "a883ba14",
					"updateStudent(string,uint256,uint256)": "fd66e291"
				}
			},
			"storageLayout": {
				"storage": [
					{
						"astId": 3,
						"contract": "inheritance2.sol:Student",
						"label": "name",
						"offset": 0,
						"slot": "0",
						"type": "t_string_storage"
					},
					{
						"astId": 5,
						"contract": "inheritance2.sol:Student",
						"label": "age",
						"offset": 0,
						"slot": "1",
						"type": "t_uint256"
					},
					{
						"astId": 42,
						"contract": "inheritance2.sol:Student",
						"label": "rollNumber",
						"offset": 0,
						"slot": "2",
						"type": "t_uint256"
					}
				],
				"types": {
					"t_string_storage": {
						"encoding": "bytes",
						"label": "string",
						"numberOfBytes": "32"
					},
					"t_uint256": {
						"encoding": "inplace",
						"label": "uint256",
						"numberOfBytes": "32"
					}
				}
			},
			"userdoc": {
				"kind": "user",
				"methods": {},
				"version": 1
			}
		}
	}
}