{
	"structstudent.sol": {
		"studentrecord": {
			"abi": [
				{
					"inputs": [
						{
							"internalType": "uint256",
							"name": "_rollno",
							"type": "uint256"
						},
						{
							"internalType": "string",
							"name": "_name",
							"type": "string"
						},
						{
							"internalType": "uint256",
							"name": "_age",
							"type": "uint256"
						},
						{
							"internalType": "string",
							"name": "_class",
							"type": "string"
						}
					],
					"stateMutability": "nonpayable",
					"type": "constructor"
				},
				{
					"inputs": [
						{
							"internalType": "uint256",
							"name": "_rollno",
							"type": "uint256"
						},
						{
							"internalType": "string",
							"name": "_name",
							"type": "string"
						},
						{
							"internalType": "uint256",
							"name": "_age",
							"type": "uint256"
						},
						{
							"internalType": "string",
							"name": "_class",
							"type": "string"
						}
					],
					"name": "change",
					"outputs": [],
					"stateMutability": "nonpayable",
					"type": "function"
				},
				{
					"inputs": [],
					"name": "s1",
					"outputs": [
						{
							"internalType": "uint256",
							"name": "rollno",
							"type": "uint256"
						},
						{
							"internalType": "string",
							"name": "name",
							"type": "string"
						},
						{
							"internalType": "uint256",
							"name": "age",
							"type": "uint256"
						},
						{
							"internalType": "string",
							"name": "class",
							"type": "string"
						}
					],
					"stateMutability": "view",
					"type": "function"
				}
			],
			"devdoc": {
				"kind": "dev",
				"methods": {},
				"version": 1
			},
			"evm": {
				"assembly": "    /* \"structstudent.sol\":164:654  contract studentrecord... */\n  mstore(0x40, 0x80)\n    /* \"structstudent.sol\":221:402  constructor(uint _rollno, string memory _name, uint _age, string memory _class)... */\n  callvalue\n  dup1\n  iszero\n  tag_1\n  jumpi\n  0x00\n  dup1\n  revert\ntag_1:\n  pop\n  mload(0x40)\n  sub(codesize, bytecodeSize)\n  dup1\n  bytecodeSize\n  dup4\n  codecopy\n  dup2\n  dup2\n  add\n  0x40\n  mstore\n  dup2\n  add\n  swap1\n  tag_2\n  swap2\n  swap1\n  tag_3\n  jump\t// in\ntag_2:\n    /* \"structstudent.sol\":324:331  _rollno */\n  dup4\n    /* \"structstudent.sol\":313:315  s1 */\n  0x00\n    /* \"structstudent.sol\":313:322  s1.rollno */\n  dup1\n  add\n    /* \"structstudent.sol\":313:331  s1.rollno =_rollno */\n  dup2\n  swap1\n  sstore\n  pop\n    /* \"structstudent.sol\":347:352  _name */\n  dup3\n    /* \"structstudent.sol\":338:340  s1 */\n  0x00\n    /* \"structstudent.sol\":338:345  s1.name */\n  0x01\n  add\n    /* \"structstudent.sol\":338:352  s1.name =_name */\n  swap1\n  dup2\n  tag_6\n  swap2\n  swap1\n  tag_7\n  jump\t// in\ntag_6:\n  pop\n    /* \"structstudent.sol\":367:371  _age */\n  dup2\n    /* \"structstudent.sol\":359:361  s1 */\n  0x00\n    /* \"structstudent.sol\":359:365  s1.age */\n  0x02\n  add\n    /* \"structstudent.sol\":359:371  s1.age =_age */\n  dup2\n  swap1\n  sstore\n  pop\n    /* \"structstudent.sol\":388:394  _class */\n  dup1\n    /* \"structstudent.sol\":378:380  s1 */\n  0x00\n    /* \"structstudent.sol\":378:386  s1.class */\n  0x03\n  add\n    /* \"structstudent.sol\":378:394  s1.class =_class */\n  swap1\n  dup2\n  tag_8\n  swap2\n  swap1\n  tag_7\n  jump\t// in\ntag_8:\n  pop\n    /* \"structstudent.sol\":221:402  constructor(uint _rollno, string memory _name, uint _age, string memory _class)... */\n  pop\n  pop\n  pop\n  pop\n    /* \"structstudent.sol\":164:654  contract studentrecord... */\n  jump(tag_9)\n    /* \"#utility.yul\":7:82   */\ntag_10:\n    /* \"#utility.yul\":40:46   */\n  0x00\n    /* \"#utility.yul\":73:75   */\n  0x40\n    /* \"#utility.yul\":67:76   */\n  mload\n    /* \"#utility.yul\":57:76   */\n  swap1\n  pop\n    /* \"#utility.yul\":7:82   */\n  swap1\n  jump\t// out\n    /* \"#utility.yul\":88:205   */\ntag_11:\n    /* \"#utility.yul\":197:198   */\n  0x00\n    /* \"#utility.yul\":194:195   */\n  dup1\n    /* \"#utility.yul\":187:199   */\n  revert\n    /* \"#utility.yul\":211:328   */\ntag_12:\n    /* \"#utility.yul\":320:321   */\n  0x00\n    /* \"#utility.yul\":317:318   */\n  dup1\n    /* \"#utility.yul\":310:322   */\n  revert\n    /* \"#utility.yul\":334:411   */\ntag_13:\n    /* \"#utility.yul\":371:378   */\n  0x00\n    /* \"#utility.yul\":400:405   */\n  dup2\n    /* \"#utility.yul\":389:405   */\n  swap1\n  pop\n    /* \"#utility.yul\":334:411   */\n  swap2\n  swap1\n  pop\n  jump\t// out\n    /* \"#utility.yul\":417:539   */\ntag_14:\n    /* \"#utility.yul\":490:514   */\n  tag_50\n    /* \"#utility.yul\":508:513   */\n  dup2\n    /* \"#utility.yul\":490:514   */\n  tag_13\n  jump\t// in\ntag_50:\n    /* \"#utility.yul\":483:488   */\n  dup2\n    /* \"#utility.yul\":480:515   */\n  eq\n    /* \"#utility.yul\":470:533   */\n  tag_51\n  jumpi\n    /* \"#utility.yul\":529:530   */\n  0x00\n    /* \"#utility.yul\":526:527   */\n  dup1\n    /* \"#utility.yul\":519:531   */\n  revert\n    /* \"#utility.yul\":470:533   */\ntag_51:\n    /* \"#utility.yul\":417:539   */\n  pop\n  jump\t// out\n    /* \"#utility.yul\":545:688   */\ntag_15:\n    /* \"#utility.yul\":602:607   */\n  0x00\n    /* \"#utility.yul\":633:639   */\n  dup2\n    /* \"#utility.yul\":627:640   */\n  mload\n    /* \"#utility.yul\":618:640   */\n  swap1\n  pop\n    /* \"#utility.yul\":649:682   */\n  tag_53\n    /* \"#utility.yul\":676:681   */\n  dup2\n    /* \"#utility.yul\":649:682   */\n  tag_14\n  jump\t// in\ntag_53:\n    /* \"#utility.yul\":545:688   */\n  swap3\n  swap2\n  pop\n  pop\n  jump\t// out\n    /* \"#utility.yul\":694:811   */\ntag_16:\n    /* \"#utility.yul\":803:804   */\n  0x00\n    /* \"#utility.yul\":800:801   */\n  dup1\n    /* \"#utility.yul\":793:805   */\n  revert\n    /* \"#utility.yul\":817:934   */\ntag_17:\n    /* \"#utility.yul\":926:927   */\n  0x00\n    /* \"#utility.yul\":923:924   */\n  dup1\n    /* \"#utility.yul\":916:928   */\n  revert\n    /* \"#utility.yul\":940:1042   */\ntag_18:\n    /* \"#utility.yul\":981:987   */\n  0x00\n    /* \"#utility.yul\":1032:1034   */\n  0x1f\n    /* \"#utility.yul\":1028:1035   */\n  not\n    /* \"#utility.yul\":1023:1025   */\n  0x1f\n    /* \"#utility.yul\":1016:1021   */\n  dup4\n    /* \"#utility.yul\":1012:1026   */\n  add\n    /* \"#utility.yul\":1008:1036   */\n  and\n    /* \"#utility.yul\":998:1036   */\n  swap1\n  pop\n    /* \"#utility.yul\":940:1042   */\n  swap2\n  swap1\n  pop\n  jump\t// out\n    /* \"#utility.yul\":1048:1228   */\ntag_19:\n    /* \"#utility.yul\":1096:1173   */\n  0x4e487b7100000000000000000000000000000000000000000000000000000000\n    /* \"#utility.yul\":1093:1094   */\n  0x00\n    /* \"#utility.yul\":1086:1174   */\n  mstore\n    /* \"#utility.yul\":1193:1197   */\n  0x41\n    /* \"#utility.yul\":1190:1191   */\n  0x04\n    /* \"#utility.yul\":1183:1198   */\n  mstore\n    /* \"#utility.yul\":1217:1221   */\n  0x24\n    /* \"#utility.yul\":1214:1215   */\n  0x00\n    /* \"#utility.yul\":1207:1222   */\n  revert\n    /* \"#utility.yul\":1234:1515   */\ntag_20:\n    /* \"#utility.yul\":1317:1344   */\n  tag_59\n    /* \"#utility.yul\":1339:1343   */\n  dup3\n    /* \"#utility.yul\":1317:1344   */\n  tag_18\n  jump\t// in\ntag_59:\n    /* \"#utility.yul\":1309:1315   */\n  dup2\n    /* \"#utility.yul\":1305:1345   */\n  add\n    /* \"#utility.yul\":1447:1453   */\n  dup2\n    /* \"#utility.yul\":1435:1445   */\n  dup2\n    /* \"#utility.yul\":1432:1454   */\n  lt\n    /* \"#utility.yul\":1411:1429   */\n  0xffffffffffffffff\n    /* \"#utility.yul\":1399:1409   */\n  dup3\n    /* \"#utility.yul\":1396:1430   */\n  gt\n    /* \"#utility.yul\":1393:1455   */\n  or\n    /* \"#utility.yul\":1390:1478   */\n  iszero\n  tag_60\n  jumpi\n    /* \"#utility.yul\":1458:1476   */\n  tag_61\n  tag_19\n  jump\t// in\ntag_61:\n    /* \"#utility.yul\":1390:1478   */\ntag_60:\n    /* \"#utility.yul\":1498:1508   */\n  dup1\n    /* \"#utility.yul\":1494:1496   */\n  0x40\n    /* \"#utility.yul\":1487:1509   */\n  mstore\n    /* \"#utility.yul\":1277:1515   */\n  pop\n    /* \"#utility.yul\":1234:1515   */\n  pop\n  pop\n  jump\t// out\n    /* \"#utility.yul\":1521:1650   */\ntag_21:\n    /* \"#utility.yul\":1555:1561   */\n  0x00\n    /* \"#utility.yul\":1582:1602   */\n  tag_63\n  tag_10\n  jump\t// in\ntag_63:\n    /* \"#utility.yul\":1572:1602   */\n  swap1\n  pop\n    /* \"#utility.yul\":1611:1644   */\n  tag_64\n    /* \"#utility.yul\":1639:1643   */\n  dup3\n    /* \"#utility.yul\":1631:1637   */\n  dup3\n    /* \"#utility.yul\":1611:1644   */\n  tag_20\n  jump\t// in\ntag_64:\n    /* \"#utility.yul\":1521:1650   */\n  swap2\n  swap1\n  pop\n  jump\t// out\n    /* \"#utility.yul\":1656:1964   */\ntag_22:\n    /* \"#utility.yul\":1718:1722   */\n  0x00\n    /* \"#utility.yul\":1808:1826   */\n  0xffffffffffffffff\n    /* \"#utility.yul\":1800:1806   */\n  dup3\n    /* \"#utility.yul\":1797:1827   */\n  gt\n    /* \"#utility.yul\":1794:1850   */\n  iszero\n  tag_66\n  jumpi\n    /* \"#utility.yul\":1830:1848   */\n  tag_67\n  tag_19\n  jump\t// in\ntag_67:\n    /* \"#utility.yul\":1794:1850   */\ntag_66:\n    /* \"#utility.yul\":1868:1897   */\n  tag_68\n    /* \"#utility.yul\":1890:1896   */\n  dup3\n    /* \"#utility.yul\":1868:1897   */\n  tag_18\n  jump\t// in\ntag_68:\n    /* \"#utility.yul\":1860:1897   */\n  swap1\n  pop\n    /* \"#utility.yul\":1952:1956   */\n  0x20\n    /* \"#utility.yul\":1946:1950   */\n  dup2\n    /* \"#utility.yul\":1942:1957   */\n  add\n    /* \"#utility.yul\":1934:1957   */\n  swap1\n  pop\n    /* \"#utility.yul\":1656:1964   */\n  swap2\n  swap1\n  pop\n  jump\t// out\n    /* \"#utility.yul\":1970:2216   */\ntag_23:\n    /* \"#utility.yul\":2051:2052   */\n  0x00\n    /* \"#utility.yul\":2061:2174   */\ntag_70:\n    /* \"#utility.yul\":2075:2081   */\n  dup4\n    /* \"#utility.yul\":2072:2073   */\n  dup2\n    /* \"#utility.yul\":2069:2082   */\n  lt\n    /* \"#utility.yul\":2061:2174   */\n  iszero\n  tag_72\n  jumpi\n    /* \"#utility.yul\":2160:2161   */\n  dup1\n    /* \"#utility.yul\":2155:2158   */\n  dup3\n    /* \"#utility.yul\":2151:2162   */\n  add\n    /* \"#utility.yul\":2145:2163   */\n  mload\n    /* \"#utility.yul\":2141:2142   */\n  dup2\n    /* \"#utility.yul\":2136:2139   */\n  dup5\n    /* \"#utility.yul\":2132:2143   */\n  add\n    /* \"#utility.yul\":2125:2164   */\n  mstore\n    /* \"#utility.yul\":2097:2099   */\n  0x20\n    /* \"#utility.yul\":2094:2095   */\n  dup2\n    /* \"#utility.yul\":2090:2100   */\n  add\n    /* \"#utility.yul\":2085:2100   */\n  swap1\n  pop\n    /* \"#utility.yul\":2061:2174   */\n  jump(tag_70)\ntag_72:\n    /* \"#utility.yul\":2208:2209   */\n  0x00\n    /* \"#utility.yul\":2199:2205   */\n  dup5\n    /* \"#utility.yul\":2194:2197   */\n  dup5\n    /* \"#utility.yul\":2190:2206   */\n  add\n    /* \"#utility.yul\":2183:2210   */\n  mstore\n    /* \"#utility.yul\":2032:2216   */\n  pop\n    /* \"#utility.yul\":1970:2216   */\n  pop\n  pop\n  pop\n  jump\t// out\n    /* \"#utility.yul\":2222:2656   */\ntag_24:\n    /* \"#utility.yul\":2311:2316   */\n  0x00\n    /* \"#utility.yul\":2336:2402   */\n  tag_74\n    /* \"#utility.yul\":2352:2401   */\n  tag_75\n    /* \"#utility.yul\":2394:2400   */\n  dup5\n    /* \"#utility.yul\":2352:2401   */\n  tag_22\n  jump\t// in\ntag_75:\n    /* \"#utility.yul\":2336:2402   */\n  tag_21\n  jump\t// in\ntag_74:\n    /* \"#utility.yul\":2327:2402   */\n  swap1\n  pop\n    /* \"#utility.yul\":2425:2431   */\n  dup3\n    /* \"#utility.yul\":2418:2423   */\n  dup2\n    /* \"#utility.yul\":2411:2432   */\n  mstore\n    /* \"#utility.yul\":2463:2467   */\n  0x20\n    /* \"#utility.yul\":2456:2461   */\n  dup2\n    /* \"#utility.yul\":2452:2468   */\n  add\n    /* \"#utility.yul\":2501:2504   */\n  dup5\n    /* \"#utility.yul\":2492:2498   */\n  dup5\n    /* \"#utility.yul\":2487:2490   */\n  dup5\n    /* \"#utility.yul\":2483:2499   */\n  add\n    /* \"#utility.yul\":2480:2505   */\n  gt\n    /* \"#utility.yul\":2477:2589   */\n  iszero\n  tag_76\n  jumpi\n    /* \"#utility.yul\":2508:2587   */\n  tag_77\n  tag_17\n  jump\t// in\ntag_77:\n    /* \"#utility.yul\":2477:2589   */\ntag_76:\n    /* \"#utility.yul\":2598:2650   */\n  tag_78\n    /* \"#utility.yul\":2643:2649   */\n  dup5\n    /* \"#utility.yul\":2638:2641   */\n  dup3\n    /* \"#utility.yul\":2633:2636   */\n  dup6\n    /* \"#utility.yul\":2598:2650   */\n  tag_23\n  jump\t// in\ntag_78:\n    /* \"#utility.yul\":2317:2656   */\n  pop\n    /* \"#utility.yul\":2222:2656   */\n  swap4\n  swap3\n  pop\n  pop\n  pop\n  jump\t// out\n    /* \"#utility.yul\":2676:3031   */\ntag_25:\n    /* \"#utility.yul\":2743:2748   */\n  0x00\n    /* \"#utility.yul\":2792:2795   */\n  dup3\n    /* \"#utility.yul\":2785:2789   */\n  0x1f\n    /* \"#utility.yul\":2777:2783   */\n  dup4\n    /* \"#utility.yul\":2773:2790   */\n  add\n    /* \"#utility.yul\":2769:2796   */\n  slt\n    /* \"#utility.yul\":2759:2881   */\n  tag_80\n  jumpi\n    /* \"#utility.yul\":2800:2879   */\n  tag_81\n  tag_16\n  jump\t// in\ntag_81:\n    /* \"#utility.yul\":2759:2881   */\ntag_80:\n    /* \"#utility.yul\":2910:2916   */\n  dup2\n    /* \"#utility.yul\":2904:2917   */\n  mload\n    /* \"#utility.yul\":2935:3025   */\n  tag_82\n    /* \"#utility.yul\":3021:3024   */\n  dup5\n    /* \"#utility.yul\":3013:3019   */\n  dup3\n    /* \"#utility.yul\":3006:3010   */\n  0x20\n    /* \"#utility.yul\":2998:3004   */\n  dup7\n    /* \"#utility.yul\":2994:3011   */\n  add\n    /* \"#utility.yul\":2935:3025   */\n  tag_24\n  jump\t// in\ntag_82:\n    /* \"#utility.yul\":2926:3025   */\n  swap2\n  pop\n    /* \"#utility.yul\":2749:3031   */\n  pop\n    /* \"#utility.yul\":2676:3031   */\n  swap3\n  swap2\n  pop\n  pop\n  jump\t// out\n    /* \"#utility.yul\":3037:4203   */\ntag_3:\n    /* \"#utility.yul\":3154:3160   */\n  0x00\n    /* \"#utility.yul\":3162:3168   */\n  dup1\n    /* \"#utility.yul\":3170:3176   */\n  0x00\n    /* \"#utility.yul\":3178:3184   */\n  dup1\n    /* \"#utility.yul\":3227:3230   */\n  0x80\n    /* \"#utility.yul\":3215:3224   */\n  dup6\n    /* \"#utility.yul\":3206:3213   */\n  dup8\n    /* \"#utility.yul\":3202:3225   */\n  sub\n    /* \"#utility.yul\":3198:3231   */\n  slt\n    /* \"#utility.yul\":3195:3315   */\n  iszero\n  tag_84\n  jumpi\n    /* \"#utility.yul\":3234:3313   */\n  tag_85\n  tag_11\n  jump\t// in\ntag_85:\n    /* \"#utility.yul\":3195:3315   */\ntag_84:\n    /* \"#utility.yul\":3354:3355   */\n  0x00\n    /* \"#utility.yul\":3379:3443   */\n  tag_86\n    /* \"#utility.yul\":3435:3442   */\n  dup8\n    /* \"#utility.yul\":3426:3432   */\n  dup3\n    /* \"#utility.yul\":3415:3424   */\n  dup9\n    /* \"#utility.yul\":3411:3433   */\n  add\n    /* \"#utility.yul\":3379:3443   */\n  tag_15\n  jump\t// in\ntag_86:\n    /* \"#utility.yul\":3369:3443   */\n  swap5\n  pop\n    /* \"#utility.yul\":3325:3453   */\n  pop\n    /* \"#utility.yul\":3513:3515   */\n  0x20\n    /* \"#utility.yul\":3502:3511   */\n  dup6\n    /* \"#utility.yul\":3498:3516   */\n  add\n    /* \"#utility.yul\":3492:3517   */\n  mload\n    /* \"#utility.yul\":3544:3562   */\n  0xffffffffffffffff\n    /* \"#utility.yul\":3536:3542   */\n  dup2\n    /* \"#utility.yul\":3533:3563   */\n  gt\n    /* \"#utility.yul\":3530:3647   */\n  iszero\n  tag_87\n  jumpi\n    /* \"#utility.yul\":3566:3645   */\n  tag_88\n  tag_12\n  jump\t// in\ntag_88:\n    /* \"#utility.yul\":3530:3647   */\ntag_87:\n    /* \"#utility.yul\":3671:3745   */\n  tag_89\n    /* \"#utility.yul\":3737:3744   */\n  dup8\n    /* \"#utility.yul\":3728:3734   */\n  dup3\n    /* \"#utility.yul\":3717:3726   */\n  dup9\n    /* \"#utility.yul\":3713:3735   */\n  add\n    /* \"#utility.yul\":3671:3745   */\n  tag_25\n  jump\t// in\ntag_89:\n    /* \"#utility.yul\":3661:3745   */\n  swap4\n  pop\n    /* \"#utility.yul\":3463:3755   */\n  pop\n    /* \"#utility.yul\":3794:3796   */\n  0x40\n    /* \"#utility.yul\":3820:3884   */\n  tag_90\n    /* \"#utility.yul\":3876:3883   */\n  dup8\n    /* \"#utility.yul\":3867:3873   */\n  dup3\n    /* \"#utility.yul\":3856:3865   */\n  dup9\n    /* \"#utility.yul\":3852:3874   */\n  add\n    /* \"#utility.yul\":3820:3884   */\n  tag_15\n  jump\t// in\ntag_90:\n    /* \"#utility.yul\":3810:3884   */\n  swap3\n  pop\n    /* \"#utility.yul\":3765:3894   */\n  pop\n    /* \"#utility.yul\":3954:3956   */\n  0x60\n    /* \"#utility.yul\":3943:3952   */\n  dup6\n    /* \"#utility.yul\":3939:3957   */\n  add\n    /* \"#utility.yul\":3933:3958   */\n  mload\n    /* \"#utility.yul\":3985:4003   */\n  0xffffffffffffffff\n    /* \"#utility.yul\":3977:3983   */\n  dup2\n    /* \"#utility.yul\":3974:4004   */\n  gt\n    /* \"#utility.yul\":3971:4088   */\n  iszero\n  tag_91\n  jumpi\n    /* \"#utility.yul\":4007:4086   */\n  tag_92\n  tag_12\n  jump\t// in\ntag_92:\n    /* \"#utility.yul\":3971:4088   */\ntag_91:\n    /* \"#utility.yul\":4112:4186   */\n  tag_93\n    /* \"#utility.yul\":4178:4185   */\n  dup8\n    /* \"#utility.yul\":4169:4175   */\n  dup3\n    /* \"#utility.yul\":4158:4167   */\n  dup9\n    /* \"#utility.yul\":4154:4176   */\n  add\n    /* \"#utility.yul\":4112:4186   */\n  tag_25\n  jump\t// in\ntag_93:\n    /* \"#utility.yul\":4102:4186   */\n  swap2\n  pop\n    /* \"#utility.yul\":3904:4196   */\n  pop\n    /* \"#utility.yul\":3037:4203   */\n  swap3\n  swap6\n  swap2\n  swap5\n  pop\n  swap3\n  pop\n  jump\t// out\n    /* \"#utility.yul\":4209:4308   */\ntag_26:\n    /* \"#utility.yul\":4261:4267   */\n  0x00\n    /* \"#utility.yul\":4295:4300   */\n  dup2\n    /* \"#utility.yul\":4289:4301   */\n  mload\n    /* \"#utility.yul\":4279:4301   */\n  swap1\n  pop\n    /* \"#utility.yul\":4209:4308   */\n  swap2\n  swap1\n  pop\n  jump\t// out\n    /* \"#utility.yul\":4314:4494   */\ntag_27:\n    /* \"#utility.yul\":4362:4439   */\n  0x4e487b7100000000000000000000000000000000000000000000000000000000\n    /* \"#utility.yul\":4359:4360   */\n  0x00\n    /* \"#utility.yul\":4352:4440   */\n  mstore\n    /* \"#utility.yul\":4459:4463   */\n  0x22\n    /* \"#utility.yul\":4456:4457   */\n  0x04\n    /* \"#utility.yul\":4449:4464   */\n  mstore\n    /* \"#utility.yul\":4483:4487   */\n  0x24\n    /* \"#utility.yul\":4480:4481   */\n  0x00\n    /* \"#utility.yul\":4473:4488   */\n  revert\n    /* \"#utility.yul\":4500:4820   */\ntag_28:\n    /* \"#utility.yul\":4544:4550   */\n  0x00\n    /* \"#utility.yul\":4581:4582   */\n  0x02\n    /* \"#utility.yul\":4575:4579   */\n  dup3\n    /* \"#utility.yul\":4571:4583   */\n  div\n    /* \"#utility.yul\":4561:4583   */\n  swap1\n  pop\n    /* \"#utility.yul\":4628:4629   */\n  0x01\n    /* \"#utility.yul\":4622:4626   */\n  dup3\n    /* \"#utility.yul\":4618:4630   */\n  and\n    /* \"#utility.yul\":4649:4667   */\n  dup1\n    /* \"#utility.yul\":4639:4720   */\n  tag_97\n  jumpi\n    /* \"#utility.yul\":4705:4709   */\n  0x7f\n    /* \"#utility.yul\":4697:4703   */\n  dup3\n    /* \"#utility.yul\":4693:4710   */\n  and\n    /* \"#utility.yul\":4683:4710   */\n  swap2\n  pop\n    /* \"#utility.yul\":4639:4720   */\ntag_97:\n    /* \"#utility.yul\":4767:4769   */\n  0x20\n    /* \"#utility.yul\":4759:4765   */\n  dup3\n    /* \"#utility.yul\":4756:4770   */\n  lt\n    /* \"#utility.yul\":4736:4754   */\n  dup2\n    /* \"#utility.yul\":4733:4771   */\n  sub\n    /* \"#utility.yul\":4730:4814   */\n  tag_98\n  jumpi\n    /* \"#utility.yul\":4786:4804   */\n  tag_99\n  tag_27\n  jump\t// in\ntag_99:\n    /* \"#utility.yul\":4730:4814   */\ntag_98:\n    /* \"#utility.yul\":4551:4820   */\n  pop\n    /* \"#utility.yul\":4500:4820   */\n  swap2\n  swap1\n  pop\n  jump\t// out\n    /* \"#utility.yul\":4826:4967   */\ntag_29:\n    /* \"#utility.yul\":4875:4879   */\n  0x00\n    /* \"#utility.yul\":4898:4901   */\n  dup2\n    /* \"#utility.yul\":4890:4901   */\n  swap1\n  pop\n    /* \"#utility.yul\":4921:4924   */\n  dup2\n    /* \"#utility.yul\":4918:4919   */\n  0x00\n    /* \"#utility.yul\":4911:4925   */\n  mstore\n    /* \"#utility.yul\":4955:4959   */\n  0x20\n    /* \"#utility.yul\":4952:4953   */\n  0x00\n    /* \"#utility.yul\":4942:4960   */\n  keccak256\n    /* \"#utility.yul\":4934:4960   */\n  swap1\n  pop\n    /* \"#utility.yul\":4826:4967   */\n  swap2\n  swap1\n  pop\n  jump\t// out\n    /* \"#utility.yul\":4973:5066   */\ntag_30:\n    /* \"#utility.yul\":5010:5016   */\n  0x00\n    /* \"#utility.yul\":5057:5059   */\n  0x20\n    /* \"#utility.yul\":5052:5054   */\n  0x1f\n    /* \"#utility.yul\":5045:5050   */\n  dup4\n    /* \"#utility.yul\":5041:5055   */\n  add\n    /* \"#utility.yul\":5037:5060   */\n  div\n    /* \"#utility.yul\":5027:5060   */\n  swap1\n  pop\n    /* \"#utility.yul\":4973:5066   */\n  swap2\n  swap1\n  pop\n  jump\t// out\n    /* \"#utility.yul\":5072:5179   */\ntag_31:\n    /* \"#utility.yul\":5116:5124   */\n  0x00\n    /* \"#utility.yul\":5166:5171   */\n  dup3\n    /* \"#utility.yul\":5160:5164   */\n  dup3\n    /* \"#utility.yul\":5156:5172   */\n  shl\n    /* \"#utility.yul\":5135:5172   */\n  swap1\n  pop\n    /* \"#utility.yul\":5072:5179   */\n  swap3\n  swap2\n  pop\n  pop\n  jump\t// out\n    /* \"#utility.yul\":5185:5578   */\ntag_32:\n    /* \"#utility.yul\":5254:5260   */\n  0x00\n    /* \"#utility.yul\":5304:5305   */\n  0x08\n    /* \"#utility.yul\":5292:5302   */\n  dup4\n    /* \"#utility.yul\":5288:5306   */\n  mul\n    /* \"#utility.yul\":5327:5424   */\n  tag_104\n    /* \"#utility.yul\":5357:5423   */\n  0xffffffffffffffffffffffffffffffffffffffffffffffffffffffffffffffff\n    /* \"#utility.yul\":5346:5355   */\n  dup3\n    /* \"#utility.yul\":5327:5424   */\n  tag_31\n  jump\t// in\ntag_104:\n    /* \"#utility.yul\":5445:5484   */\n  tag_105\n    /* \"#utility.yul\":5475:5483   */\n  dup7\n    /* \"#utility.yul\":5464:5473   */\n  dup4\n    /* \"#utility.yul\":5445:5484   */\n  tag_31\n  jump\t// in\ntag_105:\n    /* \"#utility.yul\":5433:5484   */\n  swap6\n  pop\n    /* \"#utility.yul\":5517:5521   */\n  dup1\n    /* \"#utility.yul\":5513:5522   */\n  not\n    /* \"#utility.yul\":5506:5511   */\n  dup5\n    /* \"#utility.yul\":5502:5523   */\n  and\n    /* \"#utility.yul\":5493:5523   */\n  swap4\n  pop\n    /* \"#utility.yul\":5566:5570   */\n  dup1\n    /* \"#utility.yul\":5556:5564   */\n  dup7\n    /* \"#utility.yul\":5552:5571   */\n  and\n    /* \"#utility.yul\":5545:5550   */\n  dup5\n    /* \"#utility.yul\":5542:5572   */\n  or\n    /* \"#utility.yul\":5532:5572   */\n  swap3\n  pop\n    /* \"#utility.yul\":5261:5578   */\n  pop\n  pop\n    /* \"#utility.yul\":5185:5578   */\n  swap4\n  swap3\n  pop\n  pop\n  pop\n  jump\t// out\n    /* \"#utility.yul\":5584:5644   */\ntag_33:\n    /* \"#utility.yul\":5612:5615   */\n  0x00\n    /* \"#utility.yul\":5633:5638   */\n  dup2\n    /* \"#utility.yul\":5626:5638   */\n  swap1\n  pop\n    /* \"#utility.yul\":5584:5644   */\n  swap2\n  swap1\n  pop\n  jump\t// out\n    /* \"#utility.yul\":5650:5792   */\ntag_34:\n    /* \"#utility.yul\":5700:5709   */\n  0x00\n    /* \"#utility.yul\":5733:5786   */\n  tag_108\n    /* \"#utility.yul\":5751:5785   */\n  tag_109\n    /* \"#utility.yul\":5760:5784   */\n  tag_110\n    /* \"#utility.yul\":5778:5783   */\n  dup5\n    /* \"#utility.yul\":5760:5784   */\n  tag_13\n  jump\t// in\ntag_110:\n    /* \"#utility.yul\":5751:5785   */\n  tag_33\n  jump\t// in\ntag_109:\n    /* \"#utility.yul\":5733:5786   */\n  tag_13\n  jump\t// in\ntag_108:\n    /* \"#utility.yul\":5720:5786   */\n  swap1\n  pop\n    /* \"#utility.yul\":5650:5792   */\n  swap2\n  swap1\n  pop\n  jump\t// out\n    /* \"#utility.yul\":5798:5873   */\ntag_35:\n    /* \"#utility.yul\":5841:5844   */\n  0x00\n    /* \"#utility.yul\":5862:5867   */\n  dup2\n    /* \"#utility.yul\":5855:5867   */\n  swap1\n  pop\n    /* \"#utility.yul\":5798:5873   */\n  swap2\n  swap1\n  pop\n  jump\t// out\n    /* \"#utility.yul\":5879:6148   */\ntag_36:\n    /* \"#utility.yul\":5989:6028   */\n  tag_113\n    /* \"#utility.yul\":6020:6027   */\n  dup4\n    /* \"#utility.yul\":5989:6028   */\n  tag_34\n  jump\t// in\ntag_113:\n    /* \"#utility.yul\":6050:6141   */\n  tag_114\n    /* \"#utility.yul\":6099:6140   */\n  tag_115\n    /* \"#utility.yul\":6123:6139   */\n  dup3\n    /* \"#utility.yul\":6099:6140   */\n  tag_35\n  jump\t// in\ntag_115:\n    /* \"#utility.yul\":6091:6097   */\n  dup5\n    /* \"#utility.yul\":6084:6088   */\n  dup5\n    /* \"#utility.yul\":6078:6089   */\n  sload\n    /* \"#utility.yul\":6050:6141   */\n  tag_32\n  jump\t// in\ntag_114:\n    /* \"#utility.yul\":6044:6048   */\n  dup3\n    /* \"#utility.yul\":6037:6142   */\n  sstore\n    /* \"#utility.yul\":5955:6148   */\n  pop\n    /* \"#utility.yul\":5879:6148   */\n  pop\n  pop\n  pop\n  jump\t// out\n    /* \"#utility.yul\":6154:6227   */\ntag_37:\n    /* \"#utility.yul\":6199:6202   */\n  0x00\n    /* \"#utility.yul\":6154:6227   */\n  swap1\n  jump\t// out\n    /* \"#utility.yul\":6233:6422   */\ntag_38:\n    /* \"#utility.yul\":6310:6342   */\n  tag_118\n  tag_37\n  jump\t// in\ntag_118:\n    /* \"#utility.yul\":6351:6416   */\n  tag_119\n    /* \"#utility.yul\":6409:6415   */\n  dup2\n    /* \"#utility.yul\":6401:6407   */\n  dup5\n    /* \"#utility.yul\":6395:6399   */\n  dup5\n    /* \"#utility.yul\":6351:6416   */\n  tag_36\n  jump\t// in\ntag_119:\n    /* \"#utility.yul\":6286:6422   */\n  pop\n    /* \"#utility.yul\":6233:6422   */\n  pop\n  pop\n  jump\t// out\n    /* \"#utility.yul\":6428:6614   */\ntag_39:\n    /* \"#utility.yul\":6488:6608   */\ntag_121:\n    /* \"#utility.yul\":6505:6508   */\n  dup2\n    /* \"#utility.yul\":6498:6503   */\n  dup2\n    /* \"#utility.yul\":6495:6509   */\n  lt\n    /* \"#utility.yul\":6488:6608   */\n  iszero\n  tag_123\n  jumpi\n    /* \"#utility.yul\":6559:6598   */\n  tag_124\n    /* \"#utility.yul\":6596:6597   */\n  0x00\n    /* \"#utility.yul\":6589:6594   */\n  dup3\n    /* \"#utility.yul\":6559:6598   */\n  tag_38\n  jump\t// in\ntag_124:\n    /* \"#utility.yul\":6532:6533   */\n  0x01\n    /* \"#utility.yul\":6525:6530   */\n  dup2\n    /* \"#utility.yul\":6521:6534   */\n  add\n    /* \"#utility.yul\":6512:6534   */\n  swap1\n  pop\n    /* \"#utility.yul\":6488:6608   */\n  jump(tag_121)\ntag_123:\n    /* \"#utility.yul\":6428:6614   */\n  pop\n  pop\n  jump\t// out\n    /* \"#utility.yul\":6620:7163   */\ntag_40:\n    /* \"#utility.yul\":6721:6723   */\n  0x1f\n    /* \"#utility.yul\":6716:6719   */\n  dup3\n    /* \"#utility.yul\":6713:6724   */\n  gt\n    /* \"#utility.yul\":6710:7156   */\n  iszero\n  tag_126\n  jumpi\n    /* \"#utility.yul\":6755:6793   */\n  tag_127\n    /* \"#utility.yul\":6787:6792   */\n  dup2\n    /* \"#utility.yul\":6755:6793   */\n  tag_29\n  jump\t// in\ntag_127:\n    /* \"#utility.yul\":6839:6868   */\n  tag_128\n    /* \"#utility.yul\":6857:6867   */\n  dup5\n    /* \"#utility.yul\":6839:6868   */\n  tag_30\n  jump\t// in\ntag_128:\n    /* \"#utility.yul\":6829:6837   */\n  dup2\n    /* \"#utility.yul\":6825:6869   */\n  add\n    /* \"#utility.yul\":7022:7024   */\n  0x20\n    /* \"#utility.yul\":7010:7020   */\n  dup6\n    /* \"#utility.yul\":7007:7025   */\n  lt\n    /* \"#utility.yul\":7004:7053   */\n  iszero\n  tag_129\n  jumpi\n    /* \"#utility.yul\":7043:7051   */\n  dup2\n    /* \"#utility.yul\":7028:7051   */\n  swap1\n  pop\n    /* \"#utility.yul\":7004:7053   */\ntag_129:\n    /* \"#utility.yul\":7066:7146   */\n  tag_130\n    /* \"#utility.yul\":7122:7144   */\n  tag_131\n    /* \"#utility.yul\":7140:7143   */\n  dup6\n    /* \"#utility.yul\":7122:7144   */\n  tag_30\n  jump\t// in\ntag_131:\n    /* \"#utility.yul\":7112:7120   */\n  dup4\n    /* \"#utility.yul\":7108:7145   */\n  add\n    /* \"#utility.yul\":7095:7106   */\n  dup3\n    /* \"#utility.yul\":7066:7146   */\n  tag_39\n  jump\t// in\ntag_130:\n    /* \"#utility.yul\":6725:7156   */\n  pop\n  pop\n    /* \"#utility.yul\":6710:7156   */\ntag_126:\n    /* \"#utility.yul\":6620:7163   */\n  pop\n  pop\n  pop\n  jump\t// out\n    /* \"#utility.yul\":7169:7286   */\ntag_41:\n    /* \"#utility.yul\":7223:7231   */\n  0x00\n    /* \"#utility.yul\":7273:7278   */\n  dup3\n    /* \"#utility.yul\":7267:7271   */\n  dup3\n    /* \"#utility.yul\":7263:7279   */\n  shr\n    /* \"#utility.yul\":7242:7279   */\n  swap1\n  pop\n    /* \"#utility.yul\":7169:7286   */\n  swap3\n  swap2\n  pop\n  pop\n  jump\t// out\n    /* \"#utility.yul\":7292:7461   */\ntag_42:\n    /* \"#utility.yul\":7336:7342   */\n  0x00\n    /* \"#utility.yul\":7369:7420   */\n  tag_134\n    /* \"#utility.yul\":7417:7418   */\n  0x00\n    /* \"#utility.yul\":7413:7419   */\n  not\n    /* \"#utility.yul\":7405:7410   */\n  dup5\n    /* \"#utility.yul\":7402:7403   */\n  0x08\n    /* \"#utility.yul\":7398:7411   */\n  mul\n    /* \"#utility.yul\":7369:7420   */\n  tag_41\n  jump\t// in\ntag_134:\n    /* \"#utility.yul\":7365:7421   */\n  not\n    /* \"#utility.yul\":7450:7454   */\n  dup1\n    /* \"#utility.yul\":7444:7448   */\n  dup4\n    /* \"#utility.yul\":7440:7455   */\n  and\n    /* \"#utility.yul\":7430:7455   */\n  swap2\n  pop\n    /* \"#utility.yul\":7343:7461   */\n  pop\n    /* \"#utility.yul\":7292:7461   */\n  swap3\n  swap2\n  pop\n  pop\n  jump\t// out\n    /* \"#utility.yul\":7466:7761   */\ntag_43:\n    /* \"#utility.yul\":7542:7546   */\n  0x00\n    /* \"#utility.yul\":7688:7717   */\n  tag_136\n    /* \"#utility.yul\":7713:7716   */\n  dup4\n    /* \"#utility.yul\":7707:7711   */\n  dup4\n    /* \"#utility.yul\":7688:7717   */\n  tag_42\n  jump\t// in\ntag_136:\n    /* \"#utility.yul\":7680:7717   */\n  swap2\n  pop\n    /* \"#utility.yul\":7750:7753   */\n  dup3\n    /* \"#utility.yul\":7747:7748   */\n  0x02\n    /* \"#utility.yul\":7743:7754   */\n  mul\n    /* \"#utility.yul\":7737:7741   */\n  dup3\n    /* \"#utility.yul\":7734:7755   */\n  or\n    /* \"#utility.yul\":7726:7755   */\n  swap1\n  pop\n    /* \"#utility.yul\":7466:7761   */\n  swap3\n  swap2\n  pop\n  pop\n  jump\t// out\n    /* \"#utility.yul\":7766:9161   */\ntag_7:\n    /* \"#utility.yul\":7883:7920   */\n  tag_138\n    /* \"#utility.yul\":7916:7919   */\n  dup3\n    /* \"#utility.yul\":7883:7920   */\n  tag_26\n  jump\t// in\ntag_138:\n    /* \"#utility.yul\":7985:8003   */\n  0xffffffffffffffff\n    /* \"#utility.yul\":7977:7983   */\n  dup2\n    /* \"#utility.yul\":7974:8004   */\n  gt\n    /* \"#utility.yul\":7971:8027   */\n  iszero\n  tag_139\n  jumpi\n    /* \"#utility.yul\":8007:8025   */\n  tag_140\n  tag_19\n  jump\t// in\ntag_140:\n    /* \"#utility.yul\":7971:8027   */\ntag_139:\n    /* \"#utility.yul\":8051:8089   */\n  tag_141\n    /* \"#utility.yul\":8083:8087   */\n  dup3\n    /* \"#utility.yul\":8077:8088   */\n  sload\n    /* \"#utility.yul\":8051:8089   */\n  tag_28\n  jump\t// in\ntag_141:\n    /* \"#utility.yul\":8136:8203   */\n  tag_142\n    /* \"#utility.yul\":8196:8202   */\n  dup3\n    /* \"#utility.yul\":8188:8194   */\n  dup3\n    /* \"#utility.yul\":8182:8186   */\n  dup6\n    /* \"#utility.yul\":8136:8203   */\n  tag_40\n  jump\t// in\ntag_142:\n    /* \"#utility.yul\":8230:8231   */\n  0x00\n    /* \"#utility.yul\":8254:8258   */\n  0x20\n    /* \"#utility.yul\":8241:8258   */\n  swap1\n  pop\n    /* \"#utility.yul\":8286:8288   */\n  0x1f\n    /* \"#utility.yul\":8278:8284   */\n  dup4\n    /* \"#utility.yul\":8275:8289   */\n  gt\n    /* \"#utility.yul\":8303:8304   */\n  0x01\n    /* \"#utility.yul\":8298:8916   */\n  dup2\n  eq\n  tag_144\n  jumpi\n    /* \"#utility.yul\":8960:8961   */\n  0x00\n    /* \"#utility.yul\":8977:8983   */\n  dup5\n    /* \"#utility.yul\":8974:9051   */\n  iszero\n  tag_145\n  jumpi\n    /* \"#utility.yul\":9026:9035   */\n  dup3\n    /* \"#utility.yul\":9021:9024   */\n  dup8\n    /* \"#utility.yul\":9017:9036   */\n  add\n    /* \"#utility.yul\":9011:9037   */\n  mload\n    /* \"#utility.yul\":9002:9037   */\n  swap1\n  pop\n    /* \"#utility.yul\":8974:9051   */\ntag_145:\n    /* \"#utility.yul\":9077:9144   */\n  tag_146\n    /* \"#utility.yul\":9137:9143   */\n  dup6\n    /* \"#utility.yul\":9130:9135   */\n  dup3\n    /* \"#utility.yul\":9077:9144   */\n  tag_43\n  jump\t// in\ntag_146:\n    /* \"#utility.yul\":9071:9075   */\n  dup7\n    /* \"#utility.yul\":9064:9145   */\n  sstore\n    /* \"#utility.yul\":8933:9155   */\n  pop\n    /* \"#utility.yul\":8268:9155   */\n  jump(tag_143)\n    /* \"#utility.yul\":8298:8916   */\ntag_144:\n    /* \"#utility.yul\":8350:8354   */\n  0x1f\n    /* \"#utility.yul\":8346:8355   */\n  not\n    /* \"#utility.yul\":8338:8344   */\n  dup5\n    /* \"#utility.yul\":8334:8356   */\n  and\n    /* \"#utility.yul\":8384:8421   */\n  tag_147\n    /* \"#utility.yul\":8416:8420   */\n  dup7\n    /* \"#utility.yul\":8384:8421   */\n  tag_29\n  jump\t// in\ntag_147:\n    /* \"#utility.yul\":8443:8444   */\n  0x00\n    /* \"#utility.yul\":8457:8665   */\ntag_148:\n    /* \"#utility.yul\":8471:8478   */\n  dup3\n    /* \"#utility.yul\":8468:8469   */\n  dup2\n    /* \"#utility.yul\":8465:8479   */\n  lt\n    /* \"#utility.yul\":8457:8665   */\n  iszero\n  tag_150\n  jumpi\n    /* \"#utility.yul\":8550:8559   */\n  dup5\n    /* \"#utility.yul\":8545:8548   */\n  dup10\n    /* \"#utility.yul\":8541:8560   */\n  add\n    /* \"#utility.yul\":8535:8561   */\n  mload\n    /* \"#utility.yul\":8527:8533   */\n  dup3\n    /* \"#utility.yul\":8520:8562   */\n  sstore\n    /* \"#utility.yul\":8601:8602   */\n  0x01\n    /* \"#utility.yul\":8593:8599   */\n  dup3\n    /* \"#utility.yul\":8589:8603   */\n  add\n    /* \"#utility.yul\":8579:8603   */\n  swap2\n  pop\n    /* \"#utility.yul\":8648:8650   */\n  0x20\n    /* \"#utility.yul\":8637:8646   */\n  dup6\n    /* \"#utility.yul\":8633:8651   */\n  add\n    /* \"#utility.yul\":8620:8651   */\n  swap5\n  pop\n    /* \"#utility.yul\":8494:8498   */\n  0x20\n    /* \"#utility.yul\":8491:8492   */\n  dup2\n    /* \"#utility.yul\":8487:8499   */\n  add\n    /* \"#utility.yul\":8482:8499   */\n  swap1\n  pop\n    /* \"#utility.yul\":8457:8665   */\n  jump(tag_148)\ntag_150:\n    /* \"#utility.yul\":8693:8699   */\n  dup7\n    /* \"#utility.yul\":8684:8691   */\n  dup4\n    /* \"#utility.yul\":8681:8700   */\n  lt\n    /* \"#utility.yul\":8678:8857   */\n  iszero\n  tag_151\n  jumpi\n    /* \"#utility.yul\":8751:8760   */\n  dup5\n    /* \"#utility.yul\":8746:8749   */\n  dup10\n    /* \"#utility.yul\":8742:8761   */\n  add\n    /* \"#utility.yul\":8736:8762   */\n  mload\n    /* \"#utility.yul\":8794:8842   */\n  tag_152\n    /* \"#utility.yul\":8836:8840   */\n  0x1f\n    /* \"#utility.yul\":8828:8834   */\n  dup10\n    /* \"#utility.yul\":8824:8841   */\n  and\n    /* \"#utility.yul\":8813:8822   */\n  dup3\n    /* \"#utility.yul\":8794:8842   */\n  tag_42\n  jump\t// in\ntag_152:\n    /* \"#utility.yul\":8786:8792   */\n  dup4\n    /* \"#utility.yul\":8779:8843   */\n  sstore\n    /* \"#utility.yul\":8701:8857   */\n  pop\n    /* \"#utility.yul\":8678:8857   */\ntag_151:\n    /* \"#utility.yul\":8903:8904   */\n  0x01\n    /* \"#utility.yul\":8899:8900   */\n  0x02\n    /* \"#utility.yul\":8891:8897   */\n  dup9\n    /* \"#utility.yul\":8887:8901   */\n  mul\n    /* \"#utility.yul\":8883:8905   */\n  add\n    /* \"#utility.yul\":8877:8881   */\n  dup9\n    /* \"#utility.yul\":8870:8906   */\n  sstore\n    /* \"#utility.yul\":8305:8916   */\n  pop\n  pop\n  pop\n    /* \"#utility.yul\":8268:9155   */\ntag_143:\n  pop\n    /* \"#utility.yul\":7858:9161   */\n  pop\n  pop\n  pop\n    /* \"#utility.yul\":7766:9161   */\n  pop\n  pop\n  jump\t// out\n    /* \"structstudent.sol\":164:654  contract studentrecord... */\ntag_9:\n  dataSize(sub_0)\n  dup1\n  dataOffset(sub_0)\n  0x00\n  codecopy\n  0x00\n  return\nstop\n\nsub_0: assembly {\n        /* \"structstudent.sol\":164:654  contract studentrecord... */\n      mstore(0x40, 0x80)\n      callvalue\n      dup1\n      iszero\n      tag_1\n      jumpi\n      0x00\n      dup1\n      revert\n    tag_1:\n      pop\n      jumpi(tag_2, lt(calldatasize, 0x04))\n      shr(0xe0, calldataload(0x00))\n      dup1\n      0x31d9582f\n      eq\n      tag_3\n      jumpi\n      dup1\n      0x6cc014de\n      eq\n      tag_4\n      jumpi\n    tag_2:\n      0x00\n      dup1\n      revert\n        /* \"structstudent.sol\":408:651  function change(uint _rollno, string memory _name, uint _age, string memory _class)public ... */\n    tag_3:\n      tag_5\n      0x04\n      dup1\n      calldatasize\n      sub\n      dup2\n      add\n      swap1\n      tag_6\n      swap2\n      swap1\n      tag_7\n      jump\t// in\n    tag_6:\n      tag_8\n      jump\t// in\n    tag_5:\n      stop\n        /* \"structstudent.sol\":195:212  student public s1 */\n    tag_4:\n      tag_9\n      tag_10\n      jump\t// in\n    tag_9:\n      mload(0x40)\n      tag_11\n      swap5\n      swap4\n      swap3\n      swap2\n      swap1\n      tag_12\n      jump\t// in\n    tag_11:\n      mload(0x40)\n      dup1\n      swap2\n      sub\n      swap1\n      return\n        /* \"structstudent.sol\":408:651  function change(uint _rollno, string memory _name, uint _age, string memory _class)public ... */\n    tag_8:\n        /* \"structstudent.sol\":507:533  student memory new_student */\n      0x00\n        /* \"structstudent.sol\":534:624  student({... */\n      mload(0x40)\n      dup1\n      0x80\n      add\n      0x40\n      mstore\n      dup1\n        /* \"structstudent.sol\":558:565  _rollno */\n      dup7\n        /* \"structstudent.sol\":534:624  student({... */\n      dup2\n      mstore\n      0x20\n      add\n        /* \"structstudent.sol\":577:582  _name */\n      dup6\n        /* \"structstudent.sol\":534:624  student({... */\n      dup2\n      mstore\n      0x20\n      add\n        /* \"structstudent.sol\":593:597  _age */\n      dup5\n        /* \"structstudent.sol\":534:624  student({... */\n      dup2\n      mstore\n      0x20\n      add\n        /* \"structstudent.sol\":610:616  _class */\n      dup4\n        /* \"structstudent.sol\":534:624  student({... */\n      dup2\n      mstore\n      pop\n        /* \"structstudent.sol\":507:624  student memory new_student=student({... */\n      swap1\n      pop\n        /* \"structstudent.sol\":636:647  new_student */\n      dup1\n        /* \"structstudent.sol\":633:635  s1 */\n      0x00\n        /* \"structstudent.sol\":633:647  s1=new_student */\n      dup1\n      dup3\n      add\n      mload\n      dup2\n      0x00\n      add\n      sstore\n      0x20\n      dup3\n      add\n      mload\n      dup2\n      0x01\n      add\n      swap1\n      dup2\n      tag_14\n      swap2\n      swap1\n      tag_15\n      jump\t// in\n    tag_14:\n      pop\n      0x40\n      dup3\n      add\n      mload\n      dup2\n      0x02\n      add\n      sstore\n      0x60\n      dup3\n      add\n      mload\n      dup2\n      0x03\n      add\n      swap1\n      dup2\n      tag_16\n      swap2\n      swap1\n      tag_15\n      jump\t// in\n    tag_16:\n      pop\n      swap1\n      pop\n      pop\n        /* \"structstudent.sol\":500:651  {... */\n      pop\n        /* \"structstudent.sol\":408:651  function change(uint _rollno, string memory _name, uint _age, string memory _class)public ... */\n      pop\n      pop\n      pop\n      pop\n      jump\t// out\n        /* \"structstudent.sol\":195:212  student public s1 */\n    tag_10:\n      0x00\n      dup1\n      0x00\n      add\n      sload\n      swap1\n      dup1\n      0x01\n      add\n      dup1\n      sload\n      tag_17\n      swap1\n      tag_18\n      jump\t// in\n    tag_17:\n      dup1\n      0x1f\n      add\n      0x20\n      dup1\n      swap2\n      div\n      mul\n      0x20\n      add\n      mload(0x40)\n      swap1\n      dup2\n      add\n      0x40\n      mstore\n      dup1\n      swap3\n      swap2\n      swap1\n      dup2\n      dup2\n      mstore\n      0x20\n      add\n      dup3\n      dup1\n      sload\n      tag_19\n      swap1\n      tag_18\n      jump\t// in\n    tag_19:\n      dup1\n      iszero\n      tag_20\n      jumpi\n      dup1\n      0x1f\n      lt\n      tag_21\n      jumpi\n      0x0100\n      dup1\n      dup4\n      sload\n      div\n      mul\n      dup4\n      mstore\n      swap2\n      0x20\n      add\n      swap2\n      jump(tag_20)\n    tag_21:\n      dup3\n      add\n      swap2\n      swap1\n      0x00\n      mstore\n      keccak256(0x00, 0x20)\n      swap1\n    tag_22:\n      dup2\n      sload\n      dup2\n      mstore\n      swap1\n      0x01\n      add\n      swap1\n      0x20\n      add\n      dup1\n      dup4\n      gt\n      tag_22\n      jumpi\n      dup3\n      swap1\n      sub\n      0x1f\n      and\n      dup3\n      add\n      swap2\n    tag_20:\n      pop\n      pop\n      pop\n      pop\n      pop\n      swap1\n      dup1\n      0x02\n      add\n      sload\n      swap1\n      dup1\n      0x03\n      add\n      dup1\n      sload\n      tag_23\n      swap1\n      tag_18\n      jump\t// in\n    tag_23:\n      dup1\n      0x1f\n      add\n      0x20\n      dup1\n      swap2\n      div\n      mul\n      0x20\n      add\n      mload(0x40)\n      swap1\n      dup2\n      add\n      0x40\n      mstore\n      dup1\n      swap3\n      swap2\n      swap1\n      dup2\n      dup2\n      mstore\n      0x20\n      add\n      dup3\n      dup1\n      sload\n      tag_24\n      swap1\n      tag_18\n      jump\t// in\n    tag_24:\n      dup1\n      iszero\n      tag_25\n      jumpi\n      dup1\n      0x1f\n      lt\n      tag_26\n      jumpi\n      0x0100\n      dup1\n      dup4\n      sload\n      div\n      mul\n      dup4\n      mstore\n      swap2\n      0x20\n      add\n      swap2\n      jump(tag_25)\n    tag_26:\n      dup3\n      add\n      swap2\n      swap1\n      0x00\n      mstore\n      keccak256(0x00, 0x20)\n      swap1\n    tag_27:\n      dup2\n      sload\n      dup2\n      mstore\n      swap1\n      0x01\n      add\n      swap1\n      0x20\n      add\n      dup1\n      dup4\n      gt\n      tag_27\n      jumpi\n      dup3\n      swap1\n      sub\n      0x1f\n      and\n      dup3\n      add\n      swap2\n    tag_25:\n      pop\n      pop\n      pop\n      pop\n      pop\n      swap1\n      pop\n      dup5\n      jump\t// out\n        /* \"#utility.yul\":7:82   */\n    tag_28:\n        /* \"#utility.yul\":40:46   */\n      0x00\n        /* \"#utility.yul\":73:75   */\n      0x40\n        /* \"#utility.yul\":67:76   */\n      mload\n        /* \"#utility.yul\":57:76   */\n      swap1\n      pop\n        /* \"#utility.yul\":7:82   */\n      swap1\n      jump\t// out\n        /* \"#utility.yul\":88:205   */\n    tag_29:\n        /* \"#utility.yul\":197:198   */\n      0x00\n        /* \"#utility.yul\":194:195   */\n      dup1\n        /* \"#utility.yul\":187:199   */\n      revert\n        /* \"#utility.yul\":211:328   */\n    tag_30:\n        /* \"#utility.yul\":320:321   */\n      0x00\n        /* \"#utility.yul\":317:318   */\n      dup1\n        /* \"#utility.yul\":310:322   */\n      revert\n        /* \"#utility.yul\":334:411   */\n    tag_31:\n        /* \"#utility.yul\":371:378   */\n      0x00\n        /* \"#utility.yul\":400:405   */\n      dup2\n        /* \"#utility.yul\":389:405   */\n      swap1\n      pop\n        /* \"#utility.yul\":334:411   */\n      swap2\n      swap1\n      pop\n      jump\t// out\n        /* \"#utility.yul\":417:539   */\n    tag_32:\n        /* \"#utility.yul\":490:514   */\n      tag_71\n        /* \"#utility.yul\":508:513   */\n      dup2\n        /* \"#utility.yul\":490:514   */\n      tag_31\n      jump\t// in\n    tag_71:\n        /* \"#utility.yul\":483:488   */\n      dup2\n        /* \"#utility.yul\":480:515   */\n      eq\n        /* \"#utility.yul\":470:533   */\n      tag_72\n      jumpi\n        /* \"#utility.yul\":529:530   */\n      0x00\n        /* \"#utility.yul\":526:527   */\n      dup1\n        /* \"#utility.yul\":519:531   */\n      revert\n        /* \"#utility.yul\":470:533   */\n    tag_72:\n        /* \"#utility.yul\":417:539   */\n      pop\n      jump\t// out\n        /* \"#utility.yul\":545:684   */\n    tag_33:\n        /* \"#utility.yul\":591:596   */\n      0x00\n        /* \"#utility.yul\":629:635   */\n      dup2\n        /* \"#utility.yul\":616:636   */\n      calldataload\n        /* \"#utility.yul\":607:636   */\n      swap1\n      pop\n        /* \"#utility.yul\":645:678   */\n      tag_74\n        /* \"#utility.yul\":672:677   */\n      dup2\n        /* \"#utility.yul\":645:678   */\n      tag_32\n      jump\t// in\n    tag_74:\n        /* \"#utility.yul\":545:684   */\n      swap3\n      swap2\n      pop\n      pop\n      jump\t// out\n        /* \"#utility.yul\":690:807   */\n    tag_34:\n        /* \"#utility.yul\":799:800   */\n      0x00\n        /* \"#utility.yul\":796:797   */\n      dup1\n        /* \"#utility.yul\":789:801   */\n      revert\n        /* \"#utility.yul\":813:930   */\n    tag_35:\n        /* \"#utility.yul\":922:923   */\n      0x00\n        /* \"#utility.yul\":919:920   */\n      dup1\n        /* \"#utility.yul\":912:924   */\n      revert\n        /* \"#utility.yul\":936:1038   */\n    tag_36:\n        /* \"#utility.yul\":977:983   */\n      0x00\n        /* \"#utility.yul\":1028:1030   */\n      0x1f\n        /* \"#utility.yul\":1024:1031   */\n      not\n        /* \"#utility.yul\":1019:1021   */\n      0x1f\n        /* \"#utility.yul\":1012:1017   */\n      dup4\n        /* \"#utility.yul\":1008:1022   */\n      add\n        /* \"#utility.yul\":1004:1032   */\n      and\n        /* \"#utility.yul\":994:1032   */\n      swap1\n      pop\n        /* \"#utility.yul\":936:1038   */\n      swap2\n      swap1\n      pop\n      jump\t// out\n        /* \"#utility.yul\":1044:1224   */\n    tag_37:\n        /* \"#utility.yul\":1092:1169   */\n      0x4e487b7100000000000000000000000000000000000000000000000000000000\n        /* \"#utility.yul\":1089:1090   */\n      0x00\n        /* \"#utility.yul\":1082:1170   */\n      mstore\n        /* \"#utility.yul\":1189:1193   */\n      0x41\n        /* \"#utility.yul\":1186:1187   */\n      0x04\n        /* \"#utility.yul\":1179:1194   */\n      mstore\n        /* \"#utility.yul\":1213:1217   */\n      0x24\n        /* \"#utility.yul\":1210:1211   */\n      0x00\n        /* \"#utility.yul\":1203:1218   */\n      revert\n        /* \"#utility.yul\":1230:1511   */\n    tag_38:\n        /* \"#utility.yul\":1313:1340   */\n      tag_80\n        /* \"#utility.yul\":1335:1339   */\n      dup3\n        /* \"#utility.yul\":1313:1340   */\n      tag_36\n      jump\t// in\n    tag_80:\n        /* \"#utility.yul\":1305:1311   */\n      dup2\n        /* \"#utility.yul\":1301:1341   */\n      add\n        /* \"#utility.yul\":1443:1449   */\n      dup2\n        /* \"#utility.yul\":1431:1441   */\n      dup2\n        /* \"#utility.yul\":1428:1450   */\n      lt\n        /* \"#utility.yul\":1407:1425   */\n      0xffffffffffffffff\n        /* \"#utility.yul\":1395:1405   */\n      dup3\n        /* \"#utility.yul\":1392:1426   */\n      gt\n        /* \"#utility.yul\":1389:1451   */\n      or\n        /* \"#utility.yul\":1386:1474   */\n      iszero\n      tag_81\n      jumpi\n        /* \"#utility.yul\":1454:1472   */\n      tag_82\n      tag_37\n      jump\t// in\n    tag_82:\n        /* \"#utility.yul\":1386:1474   */\n    tag_81:\n        /* \"#utility.yul\":1494:1504   */\n      dup1\n        /* \"#utility.yul\":1490:1492   */\n      0x40\n        /* \"#utility.yul\":1483:1505   */\n      mstore\n        /* \"#utility.yul\":1273:1511   */\n      pop\n        /* \"#utility.yul\":1230:1511   */\n      pop\n      pop\n      jump\t// out\n        /* \"#utility.yul\":1517:1646   */\n    tag_39:\n        /* \"#utility.yul\":1551:1557   */\n      0x00\n        /* \"#utility.yul\":1578:1598   */\n      tag_84\n      tag_28\n      jump\t// in\n    tag_84:\n        /* \"#utility.yul\":1568:1598   */\n      swap1\n      pop\n        /* \"#utility.yul\":1607:1640   */\n      tag_85\n        /* \"#utility.yul\":1635:1639   */\n      dup3\n        /* \"#utility.yul\":1627:1633   */\n      dup3\n        /* \"#utility.yul\":1607:1640   */\n      tag_38\n      jump\t// in\n    tag_85:\n        /* \"#utility.yul\":1517:1646   */\n      swap2\n      swap1\n      pop\n      jump\t// out\n        /* \"#utility.yul\":1652:1960   */\n    tag_40:\n        /* \"#utility.yul\":1714:1718   */\n      0x00\n        /* \"#utility.yul\":1804:1822   */\n      0xffffffffffffffff\n        /* \"#utility.yul\":1796:1802   */\n      dup3\n        /* \"#utility.yul\":1793:1823   */\n      gt\n        /* \"#utility.yul\":1790:1846   */\n      iszero\n      tag_87\n      jumpi\n        /* \"#utility.yul\":1826:1844   */\n      tag_88\n      tag_37\n      jump\t// in\n    tag_88:\n        /* \"#utility.yul\":1790:1846   */\n    tag_87:\n        /* \"#utility.yul\":1864:1893   */\n      tag_89\n        /* \"#utility.yul\":1886:1892   */\n      dup3\n        /* \"#utility.yul\":1864:1893   */\n      tag_36\n      jump\t// in\n    tag_89:\n        /* \"#utility.yul\":1856:1893   */\n      swap1\n      pop\n        /* \"#utility.yul\":1948:1952   */\n      0x20\n        /* \"#utility.yul\":1942:1946   */\n      dup2\n        /* \"#utility.yul\":1938:1953   */\n      add\n        /* \"#utility.yul\":1930:1953   */\n      swap1\n      pop\n        /* \"#utility.yul\":1652:1960   */\n      swap2\n      swap1\n      pop\n      jump\t// out\n        /* \"#utility.yul\":1966:2112   */\n    tag_41:\n        /* \"#utility.yul\":2063:2069   */\n      dup3\n        /* \"#utility.yul\":2058:2061   */\n      dup2\n        /* \"#utility.yul\":2053:2056   */\n      dup4\n        /* \"#utility.yul\":2040:2070   */\n      calldatacopy\n        /* \"#utility.yul\":2104:2105   */\n      0x00\n        /* \"#utility.yul\":2095:2101   */\n      dup4\n        /* \"#utility.yul\":2090:2093   */\n      dup4\n        /* \"#utility.yul\":2086:2102   */\n      add\n        /* \"#utility.yul\":2079:2106   */\n      mstore\n        /* \"#utility.yul\":1966:2112   */\n      pop\n      pop\n      pop\n      jump\t// out\n        /* \"#utility.yul\":2118:2543   */\n    tag_42:\n        /* \"#utility.yul\":2196:2201   */\n      0x00\n        /* \"#utility.yul\":2221:2287   */\n      tag_92\n        /* \"#utility.yul\":2237:2286   */\n      tag_93\n        /* \"#utility.yul\":2279:2285   */\n      dup5\n        /* \"#utility.yul\":2237:2286   */\n      tag_40\n      jump\t// in\n    tag_93:\n        /* \"#utility.yul\":2221:2287   */\n      tag_39\n      jump\t// in\n    tag_92:\n        /* \"#utility.yul\":2212:2287   */\n      swap1\n      pop\n        /* \"#utility.yul\":2310:2316   */\n      dup3\n        /* \"#utility.yul\":2303:2308   */\n      dup2\n        /* \"#utility.yul\":2296:2317   */\n      mstore\n        /* \"#utility.yul\":2348:2352   */\n      0x20\n        /* \"#utility.yul\":2341:2346   */\n      dup2\n        /* \"#utility.yul\":2337:2353   */\n      add\n        /* \"#utility.yul\":2386:2389   */\n      dup5\n        /* \"#utility.yul\":2377:2383   */\n      dup5\n        /* \"#utility.yul\":2372:2375   */\n      dup5\n        /* \"#utility.yul\":2368:2384   */\n      add\n        /* \"#utility.yul\":2365:2390   */\n      gt\n        /* \"#utility.yul\":2362:2474   */\n      iszero\n      tag_94\n      jumpi\n        /* \"#utility.yul\":2393:2472   */\n      tag_95\n      tag_35\n      jump\t// in\n    tag_95:\n        /* \"#utility.yul\":2362:2474   */\n    tag_94:\n        /* \"#utility.yul\":2483:2537   */\n      tag_96\n        /* \"#utility.yul\":2530:2536   */\n      dup5\n        /* \"#utility.yul\":2525:2528   */\n      dup3\n        /* \"#utility.yul\":2520:2523   */\n      dup6\n        /* \"#utility.yul\":2483:2537   */\n      tag_41\n      jump\t// in\n    tag_96:\n        /* \"#utility.yul\":2202:2543   */\n      pop\n        /* \"#utility.yul\":2118:2543   */\n      swap4\n      swap3\n      pop\n      pop\n      pop\n      jump\t// out\n        /* \"#utility.yul\":2563:2903   */\n    tag_43:\n        /* \"#utility.yul\":2619:2624   */\n      0x00\n        /* \"#utility.yul\":2668:2671   */\n      dup3\n        /* \"#utility.yul\":2661:2665   */\n      0x1f\n        /* \"#utility.yul\":2653:2659   */\n      dup4\n        /* \"#utility.yul\":2649:2666   */\n      add\n        /* \"#utility.yul\":2645:2672   */\n      slt\n        /* \"#utility.yul\":2635:2757   */\n      tag_98\n      jumpi\n        /* \"#utility.yul\":2676:2755   */\n      tag_99\n      tag_34\n      jump\t// in\n    tag_99:\n        /* \"#utility.yul\":2635:2757   */\n    tag_98:\n        /* \"#utility.yul\":2793:2799   */\n      dup2\n        /* \"#utility.yul\":2780:2800   */\n      calldataload\n        /* \"#utility.yul\":2818:2897   */\n      tag_100\n        /* \"#utility.yul\":2893:2896   */\n      dup5\n        /* \"#utility.yul\":2885:2891   */\n      dup3\n        /* \"#utility.yul\":2878:2882   */\n      0x20\n        /* \"#utility.yul\":2870:2876   */\n      dup7\n        /* \"#utility.yul\":2866:2883   */\n      add\n        /* \"#utility.yul\":2818:2897   */\n      tag_42\n      jump\t// in\n    tag_100:\n        /* \"#utility.yul\":2809:2897   */\n      swap2\n      pop\n        /* \"#utility.yul\":2625:2903   */\n      pop\n        /* \"#utility.yul\":2563:2903   */\n      swap3\n      swap2\n      pop\n      pop\n      jump\t// out\n        /* \"#utility.yul\":2909:4034   */\n    tag_7:\n        /* \"#utility.yul\":3015:3021   */\n      0x00\n        /* \"#utility.yul\":3023:3029   */\n      dup1\n        /* \"#utility.yul\":3031:3037   */\n      0x00\n        /* \"#utility.yul\":3039:3045   */\n      dup1\n        /* \"#utility.yul\":3088:3091   */\n      0x80\n        /* \"#utility.yul\":3076:3085   */\n      dup6\n        /* \"#utility.yul\":3067:3074   */\n      dup8\n        /* \"#utility.yul\":3063:3086   */\n      sub\n        /* \"#utility.yul\":3059:3092   */\n      slt\n        /* \"#utility.yul\":3056:3176   */\n      iszero\n      tag_102\n      jumpi\n        /* \"#utility.yul\":3095:3174   */\n      tag_103\n      tag_29\n      jump\t// in\n    tag_103:\n        /* \"#utility.yul\":3056:3176   */\n    tag_102:\n        /* \"#utility.yul\":3215:3216   */\n      0x00\n        /* \"#utility.yul\":3240:3293   */\n      tag_104\n        /* \"#utility.yul\":3285:3292   */\n      dup8\n        /* \"#utility.yul\":3276:3282   */\n      dup3\n        /* \"#utility.yul\":3265:3274   */\n      dup9\n        /* \"#utility.yul\":3261:3283   */\n      add\n        /* \"#utility.yul\":3240:3293   */\n      tag_33\n      jump\t// in\n    tag_104:\n        /* \"#utility.yul\":3230:3293   */\n      swap5\n      pop\n        /* \"#utility.yul\":3186:3303   */\n      pop\n        /* \"#utility.yul\":3370:3372   */\n      0x20\n        /* \"#utility.yul\":3359:3368   */\n      dup6\n        /* \"#utility.yul\":3355:3373   */\n      add\n        /* \"#utility.yul\":3342:3374   */\n      calldataload\n        /* \"#utility.yul\":3401:3419   */\n      0xffffffffffffffff\n        /* \"#utility.yul\":3393:3399   */\n      dup2\n        /* \"#utility.yul\":3390:3420   */\n      gt\n        /* \"#utility.yul\":3387:3504   */\n      iszero\n      tag_105\n      jumpi\n        /* \"#utility.yul\":3423:3502   */\n      tag_106\n      tag_30\n      jump\t// in\n    tag_106:\n        /* \"#utility.yul\":3387:3504   */\n    tag_105:\n        /* \"#utility.yul\":3528:3591   */\n      tag_107\n        /* \"#utility.yul\":3583:3590   */\n      dup8\n        /* \"#utility.yul\":3574:3580   */\n      dup3\n        /* \"#utility.yul\":3563:3572   */\n      dup9\n        /* \"#utility.yul\":3559:3581   */\n      add\n        /* \"#utility.yul\":3528:3591   */\n      tag_43\n      jump\t// in\n    tag_107:\n        /* \"#utility.yul\":3518:3591   */\n      swap4\n      pop\n        /* \"#utility.yul\":3313:3601   */\n      pop\n        /* \"#utility.yul\":3640:3642   */\n      0x40\n        /* \"#utility.yul\":3666:3719   */\n      tag_108\n        /* \"#utility.yul\":3711:3718   */\n      dup8\n        /* \"#utility.yul\":3702:3708   */\n      dup3\n        /* \"#utility.yul\":3691:3700   */\n      dup9\n        /* \"#utility.yul\":3687:3709   */\n      add\n        /* \"#utility.yul\":3666:3719   */\n      tag_33\n      jump\t// in\n    tag_108:\n        /* \"#utility.yul\":3656:3719   */\n      swap3\n      pop\n        /* \"#utility.yul\":3611:3729   */\n      pop\n        /* \"#utility.yul\":3796:3798   */\n      0x60\n        /* \"#utility.yul\":3785:3794   */\n      dup6\n        /* \"#utility.yul\":3781:3799   */\n      add\n        /* \"#utility.yul\":3768:3800   */\n      calldataload\n        /* \"#utility.yul\":3827:3845   */\n      0xffffffffffffffff\n        /* \"#utility.yul\":3819:3825   */\n      dup2\n        /* \"#utility.yul\":3816:3846   */\n      gt\n        /* \"#utility.yul\":3813:3930   */\n      iszero\n      tag_109\n      jumpi\n        /* \"#utility.yul\":3849:3928   */\n      tag_110\n      tag_30\n      jump\t// in\n    tag_110:\n        /* \"#utility.yul\":3813:3930   */\n    tag_109:\n        /* \"#utility.yul\":3954:4017   */\n      tag_111\n        /* \"#utility.yul\":4009:4016   */\n      dup8\n        /* \"#utility.yul\":4000:4006   */\n      dup3\n        /* \"#utility.yul\":3989:3998   */\n      dup9\n        /* \"#utility.yul\":3985:4007   */\n      add\n        /* \"#utility.yul\":3954:4017   */\n      tag_43\n      jump\t// in\n    tag_111:\n        /* \"#utility.yul\":3944:4017   */\n      swap2\n      pop\n        /* \"#utility.yul\":3739:4027   */\n      pop\n        /* \"#utility.yul\":2909:4034   */\n      swap3\n      swap6\n      swap2\n      swap5\n      pop\n      swap3\n      pop\n      jump\t// out\n        /* \"#utility.yul\":4040:4158   */\n    tag_44:\n        /* \"#utility.yul\":4127:4151   */\n      tag_113\n        /* \"#utility.yul\":4145:4150   */\n      dup2\n        /* \"#utility.yul\":4127:4151   */\n      tag_31\n      jump\t// in\n    tag_113:\n        /* \"#utility.yul\":4122:4125   */\n      dup3\n        /* \"#utility.yul\":4115:4152   */\n      mstore\n        /* \"#utility.yul\":4040:4158   */\n      pop\n      pop\n      jump\t// out\n        /* \"#utility.yul\":4164:4263   */\n    tag_45:\n        /* \"#utility.yul\":4216:4222   */\n      0x00\n        /* \"#utility.yul\":4250:4255   */\n      dup2\n        /* \"#utility.yul\":4244:4256   */\n      mload\n        /* \"#utility.yul\":4234:4256   */\n      swap1\n      pop\n        /* \"#utility.yul\":4164:4263   */\n      swap2\n      swap1\n      pop\n      jump\t// out\n        /* \"#utility.yul\":4269:4438   */\n    tag_46:\n        /* \"#utility.yul\":4353:4364   */\n      0x00\n        /* \"#utility.yul\":4387:4393   */\n      dup3\n        /* \"#utility.yul\":4382:4385   */\n      dup3\n        /* \"#utility.yul\":4375:4394   */\n      mstore\n        /* \"#utility.yul\":4427:4431   */\n      0x20\n        /* \"#utility.yul\":4422:4425   */\n      dup3\n        /* \"#utility.yul\":4418:4432   */\n      add\n        /* \"#utility.yul\":4403:4432   */\n      swap1\n      pop\n        /* \"#utility.yul\":4269:4438   */\n      swap3\n      swap2\n      pop\n      pop\n      jump\t// out\n        /* \"#utility.yul\":4444:4690   */\n    tag_47:\n        /* \"#utility.yul\":4525:4526   */\n      0x00\n        /* \"#utility.yul\":4535:4648   */\n    tag_117:\n        /* \"#utility.yul\":4549:4555   */\n      dup4\n        /* \"#utility.yul\":4546:4547   */\n      dup2\n        /* \"#utility.yul\":4543:4556   */\n      lt\n        /* \"#utility.yul\":4535:4648   */\n      iszero\n      tag_119\n      jumpi\n        /* \"#utility.yul\":4634:4635   */\n      dup1\n        /* \"#utility.yul\":4629:4632   */\n      dup3\n        /* \"#utility.yul\":4625:4636   */\n      add\n        /* \"#utility.yul\":4619:4637   */\n      mload\n        /* \"#utility.yul\":4615:4616   */\n      dup2\n        /* \"#utility.yul\":4610:4613   */\n      dup5\n        /* \"#utility.yul\":4606:4617   */\n      add\n        /* \"#utility.yul\":4599:4638   */\n      mstore\n        /* \"#utility.yul\":4571:4573   */\n      0x20\n        /* \"#utility.yul\":4568:4569   */\n      dup2\n        /* \"#utility.yul\":4564:4574   */\n      add\n        /* \"#utility.yul\":4559:4574   */\n      swap1\n      pop\n        /* \"#utility.yul\":4535:4648   */\n      jump(tag_117)\n    tag_119:\n        /* \"#utility.yul\":4682:4683   */\n      0x00\n        /* \"#utility.yul\":4673:4679   */\n      dup5\n        /* \"#utility.yul\":4668:4671   */\n      dup5\n        /* \"#utility.yul\":4664:4680   */\n      add\n        /* \"#utility.yul\":4657:4684   */\n      mstore\n        /* \"#utility.yul\":4506:4690   */\n      pop\n        /* \"#utility.yul\":4444:4690   */\n      pop\n      pop\n      pop\n      jump\t// out\n        /* \"#utility.yul\":4696:5073   */\n    tag_48:\n        /* \"#utility.yul\":4784:4787   */\n      0x00\n        /* \"#utility.yul\":4812:4851   */\n      tag_121\n        /* \"#utility.yul\":4845:4850   */\n      dup3\n        /* \"#utility.yul\":4812:4851   */\n      tag_45\n      jump\t// in\n    tag_121:\n        /* \"#utility.yul\":4867:4938   */\n      tag_122\n        /* \"#utility.yul\":4931:4937   */\n      dup2\n        /* \"#utility.yul\":4926:4929   */\n      dup6\n        /* \"#utility.yul\":4867:4938   */\n      tag_46\n      jump\t// in\n    tag_122:\n        /* \"#utility.yul\":4860:4938   */\n      swap4\n      pop\n        /* \"#utility.yul\":4947:5012   */\n      tag_123\n        /* \"#utility.yul\":5005:5011   */\n      dup2\n        /* \"#utility.yul\":5000:5003   */\n      dup6\n        /* \"#utility.yul\":4993:4997   */\n      0x20\n        /* \"#utility.yul\":4986:4991   */\n      dup7\n        /* \"#utility.yul\":4982:4998   */\n      add\n        /* \"#utility.yul\":4947:5012   */\n      tag_47\n      jump\t// in\n    tag_123:\n        /* \"#utility.yul\":5037:5066   */\n      tag_124\n        /* \"#utility.yul\":5059:5065   */\n      dup2\n        /* \"#utility.yul\":5037:5066   */\n      tag_36\n      jump\t// in\n    tag_124:\n        /* \"#utility.yul\":5032:5035   */\n      dup5\n        /* \"#utility.yul\":5028:5067   */\n      add\n        /* \"#utility.yul\":5021:5067   */\n      swap2\n      pop\n        /* \"#utility.yul\":4788:5073   */\n      pop\n        /* \"#utility.yul\":4696:5073   */\n      swap3\n      swap2\n      pop\n      pop\n      jump\t// out\n        /* \"#utility.yul\":5079:5814   */\n    tag_12:\n        /* \"#utility.yul\":5296:5300   */\n      0x00\n        /* \"#utility.yul\":5334:5337   */\n      0x80\n        /* \"#utility.yul\":5323:5332   */\n      dup3\n        /* \"#utility.yul\":5319:5338   */\n      add\n        /* \"#utility.yul\":5311:5338   */\n      swap1\n      pop\n        /* \"#utility.yul\":5348:5419   */\n      tag_126\n        /* \"#utility.yul\":5416:5417   */\n      0x00\n        /* \"#utility.yul\":5405:5414   */\n      dup4\n        /* \"#utility.yul\":5401:5418   */\n      add\n        /* \"#utility.yul\":5392:5398   */\n      dup8\n        /* \"#utility.yul\":5348:5419   */\n      tag_44\n      jump\t// in\n    tag_126:\n        /* \"#utility.yul\":5466:5475   */\n      dup2\n        /* \"#utility.yul\":5460:5464   */\n      dup2\n        /* \"#utility.yul\":5456:5476   */\n      sub\n        /* \"#utility.yul\":5451:5453   */\n      0x20\n        /* \"#utility.yul\":5440:5449   */\n      dup4\n        /* \"#utility.yul\":5436:5454   */\n      add\n        /* \"#utility.yul\":5429:5477   */\n      mstore\n        /* \"#utility.yul\":5494:5572   */\n      tag_127\n        /* \"#utility.yul\":5567:5571   */\n      dup2\n        /* \"#utility.yul\":5558:5564   */\n      dup7\n        /* \"#utility.yul\":5494:5572   */\n      tag_48\n      jump\t// in\n    tag_127:\n        /* \"#utility.yul\":5486:5572   */\n      swap1\n      pop\n        /* \"#utility.yul\":5582:5654   */\n      tag_128\n        /* \"#utility.yul\":5650:5652   */\n      0x40\n        /* \"#utility.yul\":5639:5648   */\n      dup4\n        /* \"#utility.yul\":5635:5653   */\n      add\n        /* \"#utility.yul\":5626:5632   */\n      dup6\n        /* \"#utility.yul\":5582:5654   */\n      tag_44\n      jump\t// in\n    tag_128:\n        /* \"#utility.yul\":5701:5710   */\n      dup2\n        /* \"#utility.yul\":5695:5699   */\n      dup2\n        /* \"#utility.yul\":5691:5711   */\n      sub\n        /* \"#utility.yul\":5686:5688   */\n      0x60\n        /* \"#utility.yul\":5675:5684   */\n      dup4\n        /* \"#utility.yul\":5671:5689   */\n      add\n        /* \"#utility.yul\":5664:5712   */\n      mstore\n        /* \"#utility.yul\":5729:5807   */\n      tag_129\n        /* \"#utility.yul\":5802:5806   */\n      dup2\n        /* \"#utility.yul\":5793:5799   */\n      dup5\n        /* \"#utility.yul\":5729:5807   */\n      tag_48\n      jump\t// in\n    tag_129:\n        /* \"#utility.yul\":5721:5807   */\n      swap1\n      pop\n        /* \"#utility.yul\":5079:5814   */\n      swap6\n      swap5\n      pop\n      pop\n      pop\n      pop\n      pop\n      jump\t// out\n        /* \"#utility.yul\":5820:6000   */\n    tag_49:\n        /* \"#utility.yul\":5868:5945   */\n      0x4e487b7100000000000000000000000000000000000000000000000000000000\n        /* \"#utility.yul\":5865:5866   */\n      0x00\n        /* \"#utility.yul\":5858:5946   */\n      mstore\n        /* \"#utility.yul\":5965:5969   */\n      0x22\n        /* \"#utility.yul\":5962:5963   */\n      0x04\n        /* \"#utility.yul\":5955:5970   */\n      mstore\n        /* \"#utility.yul\":5989:5993   */\n      0x24\n        /* \"#utility.yul\":5986:5987   */\n      0x00\n        /* \"#utility.yul\":5979:5994   */\n      revert\n        /* \"#utility.yul\":6006:6326   */\n    tag_18:\n        /* \"#utility.yul\":6050:6056   */\n      0x00\n        /* \"#utility.yul\":6087:6088   */\n      0x02\n        /* \"#utility.yul\":6081:6085   */\n      dup3\n        /* \"#utility.yul\":6077:6089   */\n      div\n        /* \"#utility.yul\":6067:6089   */\n      swap1\n      pop\n        /* \"#utility.yul\":6134:6135   */\n      0x01\n        /* \"#utility.yul\":6128:6132   */\n      dup3\n        /* \"#utility.yul\":6124:6136   */\n      and\n        /* \"#utility.yul\":6155:6173   */\n      dup1\n        /* \"#utility.yul\":6145:6226   */\n      tag_132\n      jumpi\n        /* \"#utility.yul\":6211:6215   */\n      0x7f\n        /* \"#utility.yul\":6203:6209   */\n      dup3\n        /* \"#utility.yul\":6199:6216   */\n      and\n        /* \"#utility.yul\":6189:6216   */\n      swap2\n      pop\n        /* \"#utility.yul\":6145:6226   */\n    tag_132:\n        /* \"#utility.yul\":6273:6275   */\n      0x20\n        /* \"#utility.yul\":6265:6271   */\n      dup3\n        /* \"#utility.yul\":6262:6276   */\n      lt\n        /* \"#utility.yul\":6242:6260   */\n      dup2\n        /* \"#utility.yul\":6239:6277   */\n      sub\n        /* \"#utility.yul\":6236:6320   */\n      tag_133\n      jumpi\n        /* \"#utility.yul\":6292:6310   */\n      tag_134\n      tag_49\n      jump\t// in\n    tag_134:\n        /* \"#utility.yul\":6236:6320   */\n    tag_133:\n        /* \"#utility.yul\":6057:6326   */\n      pop\n        /* \"#utility.yul\":6006:6326   */\n      swap2\n      swap1\n      pop\n      jump\t// out\n        /* \"#utility.yul\":6332:6473   */\n    tag_50:\n        /* \"#utility.yul\":6381:6385   */\n      0x00\n        /* \"#utility.yul\":6404:6407   */\n      dup2\n        /* \"#utility.yul\":6396:6407   */\n      swap1\n      pop\n        /* \"#utility.yul\":6427:6430   */\n      dup2\n        /* \"#utility.yul\":6424:6425   */\n      0x00\n        /* \"#utility.yul\":6417:6431   */\n      mstore\n        /* \"#utility.yul\":6461:6465   */\n      0x20\n        /* \"#utility.yul\":6458:6459   */\n      0x00\n        /* \"#utility.yul\":6448:6466   */\n      keccak256\n        /* \"#utility.yul\":6440:6466   */\n      swap1\n      pop\n        /* \"#utility.yul\":6332:6473   */\n      swap2\n      swap1\n      pop\n      jump\t// out\n        /* \"#utility.yul\":6479:6572   */\n    tag_51:\n        /* \"#utility.yul\":6516:6522   */\n      0x00\n        /* \"#utility.yul\":6563:6565   */\n      0x20\n        /* \"#utility.yul\":6558:6560   */\n      0x1f\n        /* \"#utility.yul\":6551:6556   */\n      dup4\n        /* \"#utility.yul\":6547:6561   */\n      add\n        /* \"#utility.yul\":6543:6566   */\n      div\n        /* \"#utility.yul\":6533:6566   */\n      swap1\n      pop\n        /* \"#utility.yul\":6479:6572   */\n      swap2\n      swap1\n      pop\n      jump\t// out\n        /* \"#utility.yul\":6578:6685   */\n    tag_52:\n        /* \"#utility.yul\":6622:6630   */\n      0x00\n        /* \"#utility.yul\":6672:6677   */\n      dup3\n        /* \"#utility.yul\":6666:6670   */\n      dup3\n        /* \"#utility.yul\":6662:6678   */\n      shl\n        /* \"#utility.yul\":6641:6678   */\n      swap1\n      pop\n        /* \"#utility.yul\":6578:6685   */\n      swap3\n      swap2\n      pop\n      pop\n      jump\t// out\n        /* \"#utility.yul\":6691:7084   */\n    tag_53:\n        /* \"#utility.yul\":6760:6766   */\n      0x00\n        /* \"#utility.yul\":6810:6811   */\n      0x08\n        /* \"#utility.yul\":6798:6808   */\n      dup4\n        /* \"#utility.yul\":6794:6812   */\n      mul\n        /* \"#utility.yul\":6833:6930   */\n      tag_139\n        /* \"#utility.yul\":6863:6929   */\n      0xffffffffffffffffffffffffffffffffffffffffffffffffffffffffffffffff\n        /* \"#utility.yul\":6852:6861   */\n      dup3\n        /* \"#utility.yul\":6833:6930   */\n      tag_52\n      jump\t// in\n    tag_139:\n        /* \"#utility.yul\":6951:6990   */\n      tag_140\n        /* \"#utility.yul\":6981:6989   */\n      dup7\n        /* \"#utility.yul\":6970:6979   */\n      dup4\n        /* \"#utility.yul\":6951:6990   */\n      tag_52\n      jump\t// in\n    tag_140:\n        /* \"#utility.yul\":6939:6990   */\n      swap6\n      pop\n        /* \"#utility.yul\":7023:7027   */\n      dup1\n        /* \"#utility.yul\":7019:7028   */\n      not\n        /* \"#utility.yul\":7012:7017   */\n      dup5\n        /* \"#utility.yul\":7008:7029   */\n      and\n        /* \"#utility.yul\":6999:7029   */\n      swap4\n      pop\n        /* \"#utility.yul\":7072:7076   */\n      dup1\n        /* \"#utility.yul\":7062:7070   */\n      dup7\n        /* \"#utility.yul\":7058:7077   */\n      and\n        /* \"#utility.yul\":7051:7056   */\n      dup5\n        /* \"#utility.yul\":7048:7078   */\n      or\n        /* \"#utility.yul\":7038:7078   */\n      swap3\n      pop\n        /* \"#utility.yul\":6767:7084   */\n      pop\n      pop\n        /* \"#utility.yul\":6691:7084   */\n      swap4\n      swap3\n      pop\n      pop\n      pop\n      jump\t// out\n        /* \"#utility.yul\":7090:7150   */\n    tag_54:\n        /* \"#utility.yul\":7118:7121   */\n      0x00\n        /* \"#utility.yul\":7139:7144   */\n      dup2\n        /* \"#utility.yul\":7132:7144   */\n      swap1\n      pop\n        /* \"#utility.yul\":7090:7150   */\n      swap2\n      swap1\n      pop\n      jump\t// out\n        /* \"#utility.yul\":7156:7298   */\n    tag_55:\n        /* \"#utility.yul\":7206:7215   */\n      0x00\n        /* \"#utility.yul\":7239:7292   */\n      tag_143\n        /* \"#utility.yul\":7257:7291   */\n      tag_144\n        /* \"#utility.yul\":7266:7290   */\n      tag_145\n        /* \"#utility.yul\":7284:7289   */\n      dup5\n        /* \"#utility.yul\":7266:7290   */\n      tag_31\n      jump\t// in\n    tag_145:\n        /* \"#utility.yul\":7257:7291   */\n      tag_54\n      jump\t// in\n    tag_144:\n        /* \"#utility.yul\":7239:7292   */\n      tag_31\n      jump\t// in\n    tag_143:\n        /* \"#utility.yul\":7226:7292   */\n      swap1\n      pop\n        /* \"#utility.yul\":7156:7298   */\n      swap2\n      swap1\n      pop\n      jump\t// out\n        /* \"#utility.yul\":7304:7379   */\n    tag_56:\n        /* \"#utility.yul\":7347:7350   */\n      0x00\n        /* \"#utility.yul\":7368:7373   */\n      dup2\n        /* \"#utility.yul\":7361:7373   */\n      swap1\n      pop\n        /* \"#utility.yul\":7304:7379   */\n      swap2\n      swap1\n      pop\n      jump\t// out\n        /* \"#utility.yul\":7385:7654   */\n    tag_57:\n        /* \"#utility.yul\":7495:7534   */\n      tag_148\n        /* \"#utility.yul\":7526:7533   */\n      dup4\n        /* \"#utility.yul\":7495:7534   */\n      tag_55\n      jump\t// in\n    tag_148:\n        /* \"#utility.yul\":7556:7647   */\n      tag_149\n        /* \"#utility.yul\":7605:7646   */\n      tag_150\n        /* \"#utility.yul\":7629:7645   */\n      dup3\n        /* \"#utility.yul\":7605:7646   */\n      tag_56\n      jump\t// in\n    tag_150:\n        /* \"#utility.yul\":7597:7603   */\n      dup5\n        /* \"#utility.yul\":7590:7594   */\n      dup5\n        /* \"#utility.yul\":7584:7595   */\n      sload\n        /* \"#utility.yul\":7556:7647   */\n      tag_53\n      jump\t// in\n    tag_149:\n        /* \"#utility.yul\":7550:7554   */\n      dup3\n        /* \"#utility.yul\":7543:7648   */\n      sstore\n        /* \"#utility.yul\":7461:7654   */\n      pop\n        /* \"#utility.yul\":7385:7654   */\n      pop\n      pop\n      pop\n      jump\t// out\n        /* \"#utility.yul\":7660:7733   */\n    tag_58:\n        /* \"#utility.yul\":7705:7708   */\n      0x00\n        /* \"#utility.yul\":7660:7733   */\n      swap1\n      jump\t// out\n        /* \"#utility.yul\":7739:7928   */\n    tag_59:\n        /* \"#utility.yul\":7816:7848   */\n      tag_153\n      tag_58\n      jump\t// in\n    tag_153:\n        /* \"#utility.yul\":7857:7922   */\n      tag_154\n        /* \"#utility.yul\":7915:7921   */\n      dup2\n        /* \"#utility.yul\":7907:7913   */\n      dup5\n        /* \"#utility.yul\":7901:7905   */\n      dup5\n        /* \"#utility.yul\":7857:7922   */\n      tag_57\n      jump\t// in\n    tag_154:\n        /* \"#utility.yul\":7792:7928   */\n      pop\n        /* \"#utility.yul\":7739:7928   */\n      pop\n      pop\n      jump\t// out\n        /* \"#utility.yul\":7934:8120   */\n    tag_60:\n        /* \"#utility.yul\":7994:8114   */\n    tag_156:\n        /* \"#utility.yul\":8011:8014   */\n      dup2\n        /* \"#utility.yul\":8004:8009   */\n      dup2\n        /* \"#utility.yul\":8001:8015   */\n      lt\n        /* \"#utility.yul\":7994:8114   */\n      iszero\n      tag_158\n      jumpi\n        /* \"#utility.yul\":8065:8104   */\n      tag_159\n        /* \"#utility.yul\":8102:8103   */\n      0x00\n        /* \"#utility.yul\":8095:8100   */\n      dup3\n        /* \"#utility.yul\":8065:8104   */\n      tag_59\n      jump\t// in\n    tag_159:\n        /* \"#utility.yul\":8038:8039   */\n      0x01\n        /* \"#utility.yul\":8031:8036   */\n      dup2\n        /* \"#utility.yul\":8027:8040   */\n      add\n        /* \"#utility.yul\":8018:8040   */\n      swap1\n      pop\n        /* \"#utility.yul\":7994:8114   */\n      jump(tag_156)\n    tag_158:\n        /* \"#utility.yul\":7934:8120   */\n      pop\n      pop\n      jump\t// out\n        /* \"#utility.yul\":8126:8669   */\n    tag_61:\n        /* \"#utility.yul\":8227:8229   */\n      0x1f\n        /* \"#utility.yul\":8222:8225   */\n      dup3\n        /* \"#utility.yul\":8219:8230   */\n      gt\n        /* \"#utility.yul\":8216:8662   */\n      iszero\n      tag_161\n      jumpi\n        /* \"#utility.yul\":8261:8299   */\n      tag_162\n        /* \"#utility.yul\":8293:8298   */\n      dup2\n        /* \"#utility.yul\":8261:8299   */\n      tag_50\n      jump\t// in\n    tag_162:\n        /* \"#utility.yul\":8345:8374   */\n      tag_163\n        /* \"#utility.yul\":8363:8373   */\n      dup5\n        /* \"#utility.yul\":8345:8374   */\n      tag_51\n      jump\t// in\n    tag_163:\n        /* \"#utility.yul\":8335:8343   */\n      dup2\n        /* \"#utility.yul\":8331:8375   */\n      add\n        /* \"#utility.yul\":8528:8530   */\n      0x20\n        /* \"#utility.yul\":8516:8526   */\n      dup6\n        /* \"#utility.yul\":8513:8531   */\n      lt\n        /* \"#utility.yul\":8510:8559   */\n      iszero\n      tag_164\n      jumpi\n        /* \"#utility.yul\":8549:8557   */\n      dup2\n        /* \"#utility.yul\":8534:8557   */\n      swap1\n      pop\n        /* \"#utility.yul\":8510:8559   */\n    tag_164:\n        /* \"#utility.yul\":8572:8652   */\n      tag_165\n        /* \"#utility.yul\":8628:8650   */\n      tag_166\n        /* \"#utility.yul\":8646:8649   */\n      dup6\n        /* \"#utility.yul\":8628:8650   */\n      tag_51\n      jump\t// in\n    tag_166:\n        /* \"#utility.yul\":8618:8626   */\n      dup4\n        /* \"#utility.yul\":8614:8651   */\n      add\n        /* \"#utility.yul\":8601:8612   */\n      dup3\n        /* \"#utility.yul\":8572:8652   */\n      tag_60\n      jump\t// in\n    tag_165:\n        /* \"#utility.yul\":8231:8662   */\n      pop\n      pop\n        /* \"#utility.yul\":8216:8662   */\n    tag_161:\n        /* \"#utility.yul\":8126:8669   */\n      pop\n      pop\n      pop\n      jump\t// out\n        /* \"#utility.yul\":8675:8792   */\n    tag_62:\n        /* \"#utility.yul\":8729:8737   */\n      0x00\n        /* \"#utility.yul\":8779:8784   */\n      dup3\n        /* \"#utility.yul\":8773:8777   */\n      dup3\n        /* \"#utility.yul\":8769:8785   */\n      shr\n        /* \"#utility.yul\":8748:8785   */\n      swap1\n      pop\n        /* \"#utility.yul\":8675:8792   */\n      swap3\n      swap2\n      pop\n      pop\n      jump\t// out\n        /* \"#utility.yul\":8798:8967   */\n    tag_63:\n        /* \"#utility.yul\":8842:8848   */\n      0x00\n        /* \"#utility.yul\":8875:8926   */\n      tag_169\n        /* \"#utility.yul\":8923:8924   */\n      0x00\n        /* \"#utility.yul\":8919:8925   */\n      not\n        /* \"#utility.yul\":8911:8916   */\n      dup5\n        /* \"#utility.yul\":8908:8909   */\n      0x08\n        /* \"#utility.yul\":8904:8917   */\n      mul\n        /* \"#utility.yul\":8875:8926   */\n      tag_62\n      jump\t// in\n    tag_169:\n        /* \"#utility.yul\":8871:8927   */\n      not\n        /* \"#utility.yul\":8956:8960   */\n      dup1\n        /* \"#utility.yul\":8950:8954   */\n      dup4\n        /* \"#utility.yul\":8946:8961   */\n      and\n        /* \"#utility.yul\":8936:8961   */\n      swap2\n      pop\n        /* \"#utility.yul\":8849:8967   */\n      pop\n        /* \"#utility.yul\":8798:8967   */\n      swap3\n      swap2\n      pop\n      pop\n      jump\t// out\n        /* \"#utility.yul\":8972:9267   */\n    tag_64:\n        /* \"#utility.yul\":9048:9052   */\n      0x00\n        /* \"#utility.yul\":9194:9223   */\n      tag_171\n        /* \"#utility.yul\":9219:9222   */\n      dup4\n        /* \"#utility.yul\":9213:9217   */\n      dup4\n        /* \"#utility.yul\":9194:9223   */\n      tag_63\n      jump\t// in\n    tag_171:\n        /* \"#utility.yul\":9186:9223   */\n      swap2\n      pop\n        /* \"#utility.yul\":9256:9259   */\n      dup3\n        /* \"#utility.yul\":9253:9254   */\n      0x02\n        /* \"#utility.yul\":9249:9260   */\n      mul\n        /* \"#utility.yul\":9243:9247   */\n      dup3\n        /* \"#utility.yul\":9240:9261   */\n      or\n        /* \"#utility.yul\":9232:9261   */\n      swap1\n      pop\n        /* \"#utility.yul\":8972:9267   */\n      swap3\n      swap2\n      pop\n      pop\n      jump\t// out\n        /* \"#utility.yul\":9272:10667   */\n    tag_15:\n        /* \"#utility.yul\":9389:9426   */\n      tag_173\n        /* \"#utility.yul\":9422:9425   */\n      dup3\n        /* \"#utility.yul\":9389:9426   */\n      tag_45\n      jump\t// in\n    tag_173:\n        /* \"#utility.yul\":9491:9509   */\n      0xffffffffffffffff\n        /* \"#utility.yul\":9483:9489   */\n      dup2\n        /* \"#utility.yul\":9480:9510   */\n      gt\n        /* \"#utility.yul\":9477:9533   */\n      iszero\n      tag_174\n      jumpi\n        /* \"#utility.yul\":9513:9531   */\n      tag_175\n      tag_37\n      jump\t// in\n    tag_175:\n        /* \"#utility.yul\":9477:9533   */\n    tag_174:\n        /* \"#utility.yul\":9557:9595   */\n      tag_176\n        /* \"#utility.yul\":9589:9593   */\n      dup3\n        /* \"#utility.yul\":9583:9594   */\n      sload\n        /* \"#utility.yul\":9557:9595   */\n      tag_18\n      jump\t// in\n    tag_176:\n        /* \"#utility.yul\":9642:9709   */\n      tag_177\n        /* \"#utility.yul\":9702:9708   */\n      dup3\n        /* \"#utility.yul\":9694:9700   */\n      dup3\n        /* \"#utility.yul\":9688:9692   */\n      dup6\n        /* \"#utility.yul\":9642:9709   */\n      tag_61\n      jump\t// in\n    tag_177:\n        /* \"#utility.yul\":9736:9737   */\n      0x00\n        /* \"#utility.yul\":9760:9764   */\n      0x20\n        /* \"#utility.yul\":9747:9764   */\n      swap1\n      pop\n        /* \"#utility.yul\":9792:9794   */\n      0x1f\n        /* \"#utility.yul\":9784:9790   */\n      dup4\n        /* \"#utility.yul\":9781:9795   */\n      gt\n        /* \"#utility.yul\":9809:9810   */\n      0x01\n        /* \"#utility.yul\":9804:10422   */\n      dup2\n      eq\n      tag_179\n      jumpi\n        /* \"#utility.yul\":10466:10467   */\n      0x00\n        /* \"#utility.yul\":10483:10489   */\n      dup5\n        /* \"#utility.yul\":10480:10557   */\n      iszero\n      tag_180\n      jumpi\n        /* \"#utility.yul\":10532:10541   */\n      dup3\n        /* \"#utility.yul\":10527:10530   */\n      dup8\n        /* \"#utility.yul\":10523:10542   */\n      add\n        /* \"#utility.yul\":10517:10543   */\n      mload\n        /* \"#utility.yul\":10508:10543   */\n      swap1\n      pop\n        /* \"#utility.yul\":10480:10557   */\n    tag_180:\n        /* \"#utility.yul\":10583:10650   */\n      tag_181\n        /* \"#utility.yul\":10643:10649   */\n      dup6\n        /* \"#utility.yul\":10636:10641   */\n      dup3\n        /* \"#utility.yul\":10583:10650   */\n      tag_64\n      jump\t// in\n    tag_181:\n        /* \"#utility.yul\":10577:10581   */\n      dup7\n        /* \"#utility.yul\":10570:10651   */\n      sstore\n        /* \"#utility.yul\":10439:10661   */\n      pop\n        /* \"#utility.yul\":9774:10661   */\n      jump(tag_178)\n        /* \"#utility.yul\":9804:10422   */\n    tag_179:\n        /* \"#utility.yul\":9856:9860   */\n      0x1f\n        /* \"#utility.yul\":9852:9861   */\n      not\n        /* \"#utility.yul\":9844:9850   */\n      dup5\n        /* \"#utility.yul\":9840:9862   */\n      and\n        /* \"#utility.yul\":9890:9927   */\n      tag_182\n        /* \"#utility.yul\":9922:9926   */\n      dup7\n        /* \"#utility.yul\":9890:9927   */\n      tag_50\n      jump\t// in\n    tag_182:\n        /* \"#utility.yul\":9949:9950   */\n      0x00\n        /* \"#utility.yul\":9963:10171   */\n    tag_183:\n        /* \"#utility.yul\":9977:9984   */\n      dup3\n        /* \"#utility.yul\":9974:9975   */\n      dup2\n        /* \"#utility.yul\":9971:9985   */\n      lt\n        /* \"#utility.yul\":9963:10171   */\n      iszero\n      tag_185\n      jumpi\n        /* \"#utility.yul\":10056:10065   */\n      dup5\n        /* \"#utility.yul\":10051:10054   */\n      dup10\n        /* \"#utility.yul\":10047:10066   */\n      add\n        /* \"#utility.yul\":10041:10067   */\n      mload\n        /* \"#utility.yul\":10033:10039   */\n      dup3\n        /* \"#utility.yul\":10026:10068   */\n      sstore\n        /* \"#utility.yul\":10107:10108   */\n      0x01\n        /* \"#utility.yul\":10099:10105   */\n      dup3\n        /* \"#utility.yul\":10095:10109   */\n      add\n        /* \"#utility.yul\":10085:10109   */\n      swap2\n      pop\n        /* \"#utility.yul\":10154:10156   */\n      0x20\n        /* \"#utility.yul\":10143:10152   */\n      dup6\n        /* \"#utility.yul\":10139:10157   */\n      add\n        /* \"#utility.yul\":10126:10157   */\n      swap5\n      pop\n        /* \"#utility.yul\":10000:10004   */\n      0x20\n        /* \"#utility.yul\":9997:9998   */\n      dup2\n        /* \"#utility.yul\":9993:10005   */\n      add\n        /* \"#utility.yul\":9988:10005   */\n      swap1\n      pop\n        /* \"#utility.yul\":9963:10171   */\n      jump(tag_183)\n    tag_185:\n        /* \"#utility.yul\":10199:10205   */\n      dup7\n        /* \"#utility.yul\":10190:10197   */\n      dup4\n        /* \"#utility.yul\":10187:10206   */\n      lt\n        /* \"#utility.yul\":10184:10363   */\n      iszero\n      tag_186\n      jumpi\n        /* \"#utility.yul\":10257:10266   */\n      dup5\n        /* \"#utility.yul\":10252:10255   */\n      dup10\n        /* \"#utility.yul\":10248:10267   */\n      add\n        /* \"#utility.yul\":10242:10268   */\n      mload\n        /* \"#utility.yul\":10300:10348   */\n      tag_187\n        /* \"#utility.yul\":10342:10346   */\n      0x1f\n        /* \"#utility.yul\":10334:10340   */\n      dup10\n        /* \"#utility.yul\":10330:10347   */\n      and\n        /* \"#utility.yul\":10319:10328   */\n      dup3\n        /* \"#utility.yul\":10300:10348   */\n      tag_63\n      jump\t// in\n    tag_187:\n        /* \"#utility.yul\":10292:10298   */\n      dup4\n        /* \"#utility.yul\":10285:10349   */\n      sstore\n        /* \"#utility.yul\":10207:10363   */\n      pop\n        /* \"#utility.yul\":10184:10363   */\n    tag_186:\n        /* \"#utility.yul\":10409:10410   */\n      0x01\n        /* \"#utility.yul\":10405:10406   */\n      0x02\n        /* \"#utility.yul\":10397:10403   */\n      dup9\n        /* \"#utility.yul\":10393:10407   */\n      mul\n        /* \"#utility.yul\":10389:10411   */\n      add\n        /* \"#utility.yul\":10383:10387   */\n      dup9\n        /* \"#utility.yul\":10376:10412   */\n      sstore\n        /* \"#utility.yul\":9811:10422   */\n      pop\n      pop\n      pop\n        /* \"#utility.yul\":9774:10661   */\n    tag_178:\n      pop\n        /* \"#utility.yul\":9364:10667   */\n      pop\n      pop\n      pop\n        /* \"#utility.yul\":9272:10667   */\n      pop\n      pop\n      jump\t// out\n\n    auxdata: 0xa264697066735822122008f49248ff2b2cf72e1461f275b3ca40aada1a1dbf49faef11dcc182f888ea2264736f6c63430008120033\n}\n",
				"bytecode": {
					"linkReferences": {},
					"object": "60806040523480156200001157600080fd5b5060405162000e6f38038062000e6f83398181016040528101906200003791906200024c565b83600080018190555082600060010190816200005491906200053d565b508160006002018190555080600060030190816200007391906200053d565b505050505062000624565b6000604051905090565b600080fd5b600080fd5b6000819050919050565b620000a78162000092565b8114620000b357600080fd5b50565b600081519050620000c7816200009c565b92915050565b600080fd5b600080fd5b6000601f19601f8301169050919050565b7f4e487b7100000000000000000000000000000000000000000000000000000000600052604160045260246000fd5b6200012282620000d7565b810181811067ffffffffffffffff82111715620001445762000143620000e8565b5b80604052505050565b6000620001596200007e565b905062000167828262000117565b919050565b600067ffffffffffffffff8211156200018a5762000189620000e8565b5b6200019582620000d7565b9050602081019050919050565b60005b83811015620001c2578082015181840152602081019050620001a5565b60008484015250505050565b6000620001e5620001df846200016c565b6200014d565b905082815260208101848484011115620002045762000203620000d2565b5b62000211848285620001a2565b509392505050565b600082601f830112620002315762000230620000cd565b5b815162000243848260208601620001ce565b91505092915050565b6000806000806080858703121562000269576200026862000088565b5b60006200027987828801620000b6565b945050602085015167ffffffffffffffff8111156200029d576200029c6200008d565b5b620002ab8782880162000219565b9350506040620002be87828801620000b6565b925050606085015167ffffffffffffffff811115620002e257620002e16200008d565b5b620002f08782880162000219565b91505092959194509250565b600081519050919050565b7f4e487b7100000000000000000000000000000000000000000000000000000000600052602260045260246000fd5b600060028204905060018216806200034f57607f821691505b60208210810362000365576200036462000307565b5b50919050565b60008190508160005260206000209050919050565b60006020601f8301049050919050565b600082821b905092915050565b600060088302620003cf7fffffffffffffffffffffffffffffffffffffffffffffffffffffffffffffffff8262000390565b620003db868362000390565b95508019841693508086168417925050509392505050565b6000819050919050565b60006200041e62000418620004128462000092565b620003f3565b62000092565b9050919050565b6000819050919050565b6200043a83620003fd565b62000452620004498262000425565b8484546200039d565b825550505050565b600090565b620004696200045a565b620004768184846200042f565b505050565b5b818110156200049e57620004926000826200045f565b6001810190506200047c565b5050565b601f821115620004ed57620004b7816200036b565b620004c28462000380565b81016020851015620004d2578190505b620004ea620004e18562000380565b8301826200047b565b50505b505050565b600082821c905092915050565b60006200051260001984600802620004f2565b1980831691505092915050565b60006200052d8383620004ff565b9150826002028217905092915050565b6200054882620002fc565b67ffffffffffffffff811115620005645762000563620000e8565b5b62000570825462000336565b6200057d828285620004a2565b600060209050601f831160018114620005b55760008415620005a0578287015190505b620005ac85826200051f565b8655506200061c565b601f198416620005c5866200036b565b60005b82811015620005ef57848901518255600182019150602085019450602081019050620005c8565b868310156200060f57848901516200060b601f891682620004ff565b8355505b6001600288020188555050505b505050505050565b61083b80620006346000396000f3fe608060405234801561001057600080fd5b50600436106100365760003560e01c806331d9582f1461003b5780636cc014de14610057575b600080fd5b610055600480360381019061005091906103a7565b610078565b005b61005f6100e9565b60405161006f94939291906104d4565b60405180910390f35b6000604051806080016040528086815260200185815260200184815260200183815250905080600080820151816000015560208201518160010190816100be9190610733565b506040820151816002015560608201518160030190816100de9190610733565b509050505050505050565b600080600001549080600101805461010090610556565b80601f016020809104026020016040519081016040528092919081815260200182805461012c90610556565b80156101795780601f1061014e57610100808354040283529160200191610179565b820191906000526020600020905b81548152906001019060200180831161015c57829003601f168201915b50505050509080600201549080600301805461019490610556565b80601f01602080910402602001604051908101604052809291908181526020018280546101c090610556565b801561020d5780601f106101e25761010080835404028352916020019161020d565b820191906000526020600020905b8154815290600101906020018083116101f057829003601f168201915b5050505050905084565b6000604051905090565b600080fd5b600080fd5b6000819050919050565b61023e8161022b565b811461024957600080fd5b50565b60008135905061025b81610235565b92915050565b600080fd5b600080fd5b6000601f19601f8301169050919050565b7f4e487b7100000000000000000000000000000000000000000000000000000000600052604160045260246000fd5b6102b48261026b565b810181811067ffffffffffffffff821117156102d3576102d261027c565b5b80604052505050565b60006102e6610217565b90506102f282826102ab565b919050565b600067ffffffffffffffff8211156103125761031161027c565b5b61031b8261026b565b9050602081019050919050565b82818337600083830152505050565b600061034a610345846102f7565b6102dc565b90508281526020810184848401111561036657610365610266565b5b610371848285610328565b509392505050565b600082601f83011261038e5761038d610261565b5b813561039e848260208601610337565b91505092915050565b600080600080608085870312156103c1576103c0610221565b5b60006103cf8782880161024c565b945050602085013567ffffffffffffffff8111156103f0576103ef610226565b5b6103fc87828801610379565b935050604061040d8782880161024c565b925050606085013567ffffffffffffffff81111561042e5761042d610226565b5b61043a87828801610379565b91505092959194509250565b61044f8161022b565b82525050565b600081519050919050565b600082825260208201905092915050565b60005b8381101561048f578082015181840152602081019050610474565b60008484015250505050565b60006104a682610455565b6104b08185610460565b93506104c0818560208601610471565b6104c98161026b565b840191505092915050565b60006080820190506104e96000830187610446565b81810360208301526104fb818661049b565b905061050a6040830185610446565b818103606083015261051c818461049b565b905095945050505050565b7f4e487b7100000000000000000000000000000000000000000000000000000000600052602260045260246000fd5b6000600282049050600182168061056e57607f821691505b60208210810361058157610580610527565b5b50919050565b60008190508160005260206000209050919050565b60006020601f8301049050919050565b600082821b905092915050565b6000600883026105e97fffffffffffffffffffffffffffffffffffffffffffffffffffffffffffffffff826105ac565b6105f386836105ac565b95508019841693508086168417925050509392505050565b6000819050919050565b600061063061062b6106268461022b565b61060b565b61022b565b9050919050565b6000819050919050565b61064a83610615565b61065e61065682610637565b8484546105b9565b825550505050565b600090565b610673610666565b61067e818484610641565b505050565b5b818110156106a25761069760008261066b565b600181019050610684565b5050565b601f8211156106e7576106b881610587565b6106c18461059c565b810160208510156106d0578190505b6106e46106dc8561059c565b830182610683565b50505b505050565b600082821c905092915050565b600061070a600019846008026106ec565b1980831691505092915050565b600061072383836106f9565b9150826002028217905092915050565b61073c82610455565b67ffffffffffffffff8111156107555761075461027c565b5b61075f8254610556565b61076a8282856106a6565b600060209050601f83116001811461079d576000841561078b578287015190505b6107958582610717565b8655506107fd565b601f1984166107ab86610587565b60005b828110156107d3578489015182556001820191506020850194506020810190506107ae565b868310156107f057848901516107ec601f8916826106f9565b8355505b6001600288020188555050505b50505050505056fea264697066735822122008f49248ff2b2cf72e1461f275b3ca40aada1a1dbf49faef11dcc182f888ea2264736f6c63430008120033",
					"opcodes": "PUSH1 0x80 PUSH1 0x40 MSTORE CALLVALUE DUP1 ISZERO PUSH3 0x11 JUMPI PUSH1 0x0 DUP1 REVERT JUMPDEST POP PUSH1 0x40 MLOAD PUSH3 0xE6F CODESIZE SUB DUP1 PUSH3 0xE6F DUP4 CODECOPY DUP2 DUP2 ADD PUSH1 0x40 MSTORE DUP2 ADD SWAP1 PUSH3 0x37 SWAP2 SWAP1 PUSH3 0x24C JUMP JUMPDEST DUP4 PUSH1 0x0 DUP1 ADD DUP2 SWAP1 SSTORE POP DUP3 PUSH1 0x0 PUSH1 0x1 ADD SWAP1 DUP2 PUSH3 0x54 SWAP2 SWAP1 PUSH3 0x53D JUMP JUMPDEST POP DUP2 PUSH1 0x0 PUSH1 0x2 ADD DUP2 SWAP1 SSTORE POP DUP1 PUSH1 0x0 PUSH1 0x3 ADD SWAP1 DUP2 PUSH3 0x73 SWAP2 SWAP1 PUSH3 0x53D JUMP JUMPDEST POP POP POP POP POP PUSH3 0x624 JUMP JUMPDEST PUSH1 0x0 PUSH1 0x40 MLOAD SWAP1 POP SWAP1 JUMP JUMPDEST PUSH1 0x0 DUP1 REVERT JUMPDEST PUSH1 0x0 DUP1 REVERT JUMPDEST PUSH1 0x0 DUP2 SWAP1 POP SWAP2 SWAP1 POP JUMP JUMPDEST PUSH3 0xA7 DUP2 PUSH3 0x92 JUMP JUMPDEST DUP2 EQ PUSH3 0xB3 JUMPI PUSH1 0x0 DUP1 REVERT JUMPDEST POP JUMP JUMPDEST PUSH1 0x0 DUP2 MLOAD SWAP1 POP PUSH3 0xC7 DUP2 PUSH3 0x9C JUMP JUMPDEST SWAP3 SWAP2 POP POP JUMP JUMPDEST PUSH1 0x0 DUP1 REVERT JUMPDEST PUSH1 0x0 DUP1 REVERT JUMPDEST PUSH1 0x0 PUSH1 0x1F NOT PUSH1 0x1F DUP4 ADD AND SWAP1 POP SWAP2 SWAP1 POP JUMP JUMPDEST PUSH32 0x4E487B7100000000000000000000000000000000000000000000000000000000 PUSH1 0x0 MSTORE PUSH1 0x41 PUSH1 0x4 MSTORE PUSH1 0x24 PUSH1 0x0 REVERT JUMPDEST PUSH3 0x122 DUP3 PUSH3 0xD7 JUMP JUMPDEST DUP2 ADD DUP2 DUP2 LT PUSH8 0xFFFFFFFFFFFFFFFF DUP3 GT OR ISZERO PUSH3 0x144 JUMPI PUSH3 0x143 PUSH3 0xE8 JUMP JUMPDEST JUMPDEST DUP1 PUSH1 0x40 MSTORE POP POP POP JUMP JUMPDEST PUSH1 0x0 PUSH3 0x159 PUSH3 0x7E JUMP JUMPDEST SWAP1 POP PUSH3 0x167 DUP3 DUP3 PUSH3 0x117 JUMP JUMPDEST SWAP2 SWAP1 POP JUMP JUMPDEST PUSH1 0x0 PUSH8 0xFFFFFFFFFFFFFFFF DUP3 GT ISZERO PUSH3 0x18A JUMPI PUSH3 0x189 PUSH3 0xE8 JUMP JUMPDEST JUMPDEST PUSH3 0x195 DUP3 PUSH3 0xD7 JUMP JUMPDEST SWAP1 POP PUSH1 0x20 DUP2 ADD SWAP1 POP SWAP2 SWAP1 POP JUMP JUMPDEST PUSH1 0x0 JUMPDEST DUP4 DUP2 LT ISZERO PUSH3 0x1C2 JUMPI DUP1 DUP3 ADD MLOAD DUP2 DUP5 ADD MSTORE PUSH1 0x20 DUP2 ADD SWAP1 POP PUSH3 0x1A5 JUMP JUMPDEST PUSH1 0x0 DUP5 DUP5 ADD MSTORE POP POP POP POP JUMP JUMPDEST PUSH1 0x0 PUSH3 0x1E5 PUSH3 0x1DF DUP5 PUSH3 0x16C JUMP JUMPDEST PUSH3 0x14D JUMP JUMPDEST SWAP1 POP DUP3 DUP2 MSTORE PUSH1 0x20 DUP2 ADD DUP5 DUP5 DUP5 ADD GT ISZERO PUSH3 0x204 JUMPI PUSH3 0x203 PUSH3 0xD2 JUMP JUMPDEST JUMPDEST PUSH3 0x211 DUP5 DUP3 DUP6 PUSH3 0x1A2 JUMP JUMPDEST POP SWAP4 SWAP3 POP POP POP JUMP JUMPDEST PUSH1 0x0 DUP3 PUSH1 0x1F DUP4 ADD SLT PUSH3 0x231 JUMPI PUSH3 0x230 PUSH3 0xCD JUMP JUMPDEST JUMPDEST DUP2 MLOAD PUSH3 0x243 DUP5 DUP3 PUSH1 0x20 DUP7 ADD PUSH3 0x1CE JUMP JUMPDEST SWAP2 POP POP SWAP3 SWAP2 POP POP JUMP JUMPDEST PUSH1 0x0 DUP1 PUSH1 0x0 DUP1 PUSH1 0x80 DUP6 DUP8 SUB SLT ISZERO PUSH3 0x269 JUMPI PUSH3 0x268 PUSH3 0x88 JUMP JUMPDEST JUMPDEST PUSH1 0x0 PUSH3 0x279 DUP8 DUP3 DUP9 ADD PUSH3 0xB6 JUMP JUMPDEST SWAP5 POP POP PUSH1 0x20 DUP6 ADD MLOAD PUSH8 0xFFFFFFFFFFFFFFFF DUP2 GT ISZERO PUSH3 0x29D JUMPI PUSH3 0x29C PUSH3 0x8D JUMP JUMPDEST JUMPDEST PUSH3 0x2AB DUP8 DUP3 DUP9 ADD PUSH3 0x219 JUMP JUMPDEST SWAP4 POP POP PUSH1 0x40 PUSH3 0x2BE DUP8 DUP3 DUP9 ADD PUSH3 0xB6 JUMP JUMPDEST SWAP3 POP POP PUSH1 0x60 DUP6 ADD MLOAD PUSH8 0xFFFFFFFFFFFFFFFF DUP2 GT ISZERO PUSH3 0x2E2 JUMPI PUSH3 0x2E1 PUSH3 0x8D JUMP JUMPDEST JUMPDEST PUSH3 0x2F0 DUP8 DUP3 DUP9 ADD PUSH3 0x219 JUMP JUMPDEST SWAP2 POP POP SWAP3 SWAP6 SWAP2 SWAP5 POP SWAP3 POP JUMP JUMPDEST PUSH1 0x0 DUP2 MLOAD SWAP1 POP SWAP2 SWAP1 POP JUMP JUMPDEST PUSH32 0x4E487B7100000000000000000000000000000000000000000000000000000000 PUSH1 0x0 MSTORE PUSH1 0x22 PUSH1 0x4 MSTORE PUSH1 0x24 PUSH1 0x0 REVERT JUMPDEST PUSH1 0x0 PUSH1 0x2 DUP3 DIV SWAP1 POP PUSH1 0x1 DUP3 AND DUP1 PUSH3 0x34F JUMPI PUSH1 0x7F DUP3 AND SWAP2 POP JUMPDEST PUSH1 0x20 DUP3 LT DUP2 SUB PUSH3 0x365 JUMPI PUSH3 0x364 PUSH3 0x307 JUMP JUMPDEST JUMPDEST POP SWAP2 SWAP1 POP JUMP JUMPDEST PUSH1 0x0 DUP2 SWAP1 POP DUP2 PUSH1 0x0 MSTORE PUSH1 0x20 PUSH1 0x0 KECCAK256 SWAP1 POP SWAP2 SWAP1 POP JUMP JUMPDEST PUSH1 0x0 PUSH1 0x20 PUSH1 0x1F DUP4 ADD DIV SWAP1 POP SWAP2 SWAP1 POP JUMP JUMPDEST PUSH1 0x0 DUP3 DUP3 SHL SWAP1 POP SWAP3 SWAP2 POP POP JUMP JUMPDEST PUSH1 0x0 PUSH1 0x8 DUP4 MUL PUSH3 0x3CF PUSH32 0xFFFFFFFFFFFFFFFFFFFFFFFFFFFFFFFFFFFFFFFFFFFFFFFFFFFFFFFFFFFFFFFF DUP3 PUSH3 0x390 JUMP JUMPDEST PUSH3 0x3DB DUP7 DUP4 PUSH3 0x390 JUMP JUMPDEST SWAP6 POP DUP1 NOT DUP5 AND SWAP4 POP DUP1 DUP7 AND DUP5 OR SWAP3 POP POP POP SWAP4 SWAP3 POP POP POP JUMP JUMPDEST PUSH1 0x0 DUP2 SWAP1 POP SWAP2 SWAP1 POP JUMP JUMPDEST PUSH1 0x0 PUSH3 0x41E PUSH3 0x418 PUSH3 0x412 DUP5 PUSH3 0x92 JUMP JUMPDEST PUSH3 0x3F3 JUMP JUMPDEST PUSH3 0x92 JUMP JUMPDEST SWAP1 POP SWAP2 SWAP1 POP JUMP JUMPDEST PUSH1 0x0 DUP2 SWAP1 POP SWAP2 SWAP1 POP JUMP JUMPDEST PUSH3 0x43A DUP4 PUSH3 0x3FD JUMP JUMPDEST PUSH3 0x452 PUSH3 0x449 DUP3 PUSH3 0x425 JUMP JUMPDEST DUP5 DUP5 SLOAD PUSH3 0x39D JUMP JUMPDEST DUP3 SSTORE POP POP POP POP JUMP JUMPDEST PUSH1 0x0 SWAP1 JUMP JUMPDEST PUSH3 0x469 PUSH3 0x45A JUMP JUMPDEST PUSH3 0x476 DUP2 DUP5 DUP5 PUSH3 0x42F JUMP JUMPDEST POP POP POP JUMP JUMPDEST JUMPDEST DUP2 DUP2 LT ISZERO PUSH3 0x49E JUMPI PUSH3 0x492 PUSH1 0x0 DUP3 PUSH3 0x45F JUMP JUMPDEST PUSH1 0x1 DUP2 ADD SWAP1 POP PUSH3 0x47C JUMP JUMPDEST POP POP JUMP JUMPDEST PUSH1 0x1F DUP3 GT ISZERO PUSH3 0x4ED JUMPI PUSH3 0x4B7 DUP2 PUSH3 0x36B JUMP JUMPDEST PUSH3 0x4C2 DUP5 PUSH3 0x380 JUMP JUMPDEST DUP2 ADD PUSH1 0x20 DUP6 LT ISZERO PUSH3 0x4D2 JUMPI DUP2 SWAP1 POP JUMPDEST PUSH3 0x4EA PUSH3 0x4E1 DUP6 PUSH3 0x380 JUMP JUMPDEST DUP4 ADD DUP3 PUSH3 0x47B JUMP JUMPDEST POP POP JUMPDEST POP POP POP JUMP JUMPDEST PUSH1 0x0 DUP3 DUP3 SHR SWAP1 POP SWAP3 SWAP2 POP POP JUMP JUMPDEST PUSH1 0x0 PUSH3 0x512 PUSH1 0x0 NOT DUP5 PUSH1 0x8 MUL PUSH3 0x4F2 JUMP JUMPDEST NOT DUP1 DUP4 AND SWAP2 POP POP SWAP3 SWAP2 POP POP JUMP JUMPDEST PUSH1 0x0 PUSH3 0x52D DUP4 DUP4 PUSH3 0x4FF JUMP JUMPDEST SWAP2 POP DUP3 PUSH1 0x2 MUL DUP3 OR SWAP1 POP SWAP3 SWAP2 POP POP JUMP JUMPDEST PUSH3 0x548 DUP3 PUSH3 0x2FC JUMP JUMPDEST PUSH8 0xFFFFFFFFFFFFFFFF DUP2 GT ISZERO PUSH3 0x564 JUMPI PUSH3 0x563 PUSH3 0xE8 JUMP JUMPDEST JUMPDEST PUSH3 0x570 DUP3 SLOAD PUSH3 0x336 JUMP JUMPDEST PUSH3 0x57D DUP3 DUP3 DUP6 PUSH3 0x4A2 JUMP JUMPDEST PUSH1 0x0 PUSH1 0x20 SWAP1 POP PUSH1 0x1F DUP4 GT PUSH1 0x1 DUP2 EQ PUSH3 0x5B5 JUMPI PUSH1 0x0 DUP5 ISZERO PUSH3 0x5A0 JUMPI DUP3 DUP8 ADD MLOAD SWAP1 POP JUMPDEST PUSH3 0x5AC DUP6 DUP3 PUSH3 0x51F JUMP JUMPDEST DUP7 SSTORE POP PUSH3 0x61C JUMP JUMPDEST PUSH1 0x1F NOT DUP5 AND PUSH3 0x5C5 DUP7 PUSH3 0x36B JUMP JUMPDEST PUSH1 0x0 JUMPDEST DUP3 DUP2 LT ISZERO PUSH3 0x5EF JUMPI DUP5 DUP10 ADD MLOAD DUP3 SSTORE PUSH1 0x1 DUP3 ADD SWAP2 POP PUSH1 0x20 DUP6 ADD SWAP5 POP PUSH1 0x20 DUP2 ADD SWAP1 POP PUSH3 0x5C8 JUMP JUMPDEST DUP7 DUP4 LT ISZERO PUSH3 0x60F JUMPI DUP5 DUP10 ADD MLOAD PUSH3 0x60B PUSH1 0x1F DUP10 AND DUP3 PUSH3 0x4FF JUMP JUMPDEST DUP4 SSTORE POP JUMPDEST PUSH1 0x1 PUSH1 0x2 DUP9 MUL ADD DUP9 SSTORE POP POP POP JUMPDEST POP POP POP POP POP POP JUMP JUMPDEST PUSH2 0x83B DUP1 PUSH3 0x634 PUSH1 0x0 CODECOPY PUSH1 0x0 RETURN INVALID PUSH1 0x80 PUSH1 0x40 MSTORE CALLVALUE DUP1 ISZERO PUSH2 0x10 JUMPI PUSH1 0x0 DUP1 REVERT JUMPDEST POP PUSH1 0x4 CALLDATASIZE LT PUSH2 0x36 JUMPI PUSH1 0x0 CALLDATALOAD PUSH1 0xE0 SHR DUP1 PUSH4 0x31D9582F EQ PUSH2 0x3B JUMPI DUP1 PUSH4 0x6CC014DE EQ PUSH2 0x57 JUMPI JUMPDEST PUSH1 0x0 DUP1 REVERT JUMPDEST PUSH2 0x55 PUSH1 0x4 DUP1 CALLDATASIZE SUB DUP2 ADD SWAP1 PUSH2 0x50 SWAP2 SWAP1 PUSH2 0x3A7 JUMP JUMPDEST PUSH2 0x78 JUMP JUMPDEST STOP JUMPDEST PUSH2 0x5F PUSH2 0xE9 JUMP JUMPDEST PUSH1 0x40 MLOAD PUSH2 0x6F SWAP5 SWAP4 SWAP3 SWAP2 SWAP1 PUSH2 0x4D4 JUMP JUMPDEST PUSH1 0x40 MLOAD DUP1 SWAP2 SUB SWAP1 RETURN JUMPDEST PUSH1 0x0 PUSH1 0x40 MLOAD DUP1 PUSH1 0x80 ADD PUSH1 0x40 MSTORE DUP1 DUP7 DUP2 MSTORE PUSH1 0x20 ADD DUP6 DUP2 MSTORE PUSH1 0x20 ADD DUP5 DUP2 MSTORE PUSH1 0x20 ADD DUP4 DUP2 MSTORE POP SWAP1 POP DUP1 PUSH1 0x0 DUP1 DUP3 ADD MLOAD DUP2 PUSH1 0x0 ADD SSTORE PUSH1 0x20 DUP3 ADD MLOAD DUP2 PUSH1 0x1 ADD SWAP1 DUP2 PUSH2 0xBE SWAP2 SWAP1 PUSH2 0x733 JUMP JUMPDEST POP PUSH1 0x40 DUP3 ADD MLOAD DUP2 PUSH1 0x2 ADD SSTORE PUSH1 0x60 DUP3 ADD MLOAD DUP2 PUSH1 0x3 ADD SWAP1 DUP2 PUSH2 0xDE SWAP2 SWAP1 PUSH2 0x733 JUMP JUMPDEST POP SWAP1 POP POP POP POP POP POP POP JUMP JUMPDEST PUSH1 0x0 DUP1 PUSH1 0x0 ADD SLOAD SWAP1 DUP1 PUSH1 0x1 ADD DUP1 SLOAD PUSH2 0x100 SWAP1 PUSH2 0x556 JUMP JUMPDEST DUP1 PUSH1 0x1F ADD PUSH1 0x20 DUP1 SWAP2 DIV MUL PUSH1 0x20 ADD PUSH1 0x40 MLOAD SWAP1 DUP2 ADD PUSH1 0x40 MSTORE DUP1 SWAP3 SWAP2 SWAP1 DUP2 DUP2 MSTORE PUSH1 0x20 ADD DUP3 DUP1 SLOAD PUSH2 0x12C SWAP1 PUSH2 0x556 JUMP JUMPDEST DUP1 ISZERO PUSH2 0x179 JUMPI DUP1 PUSH1 0x1F LT PUSH2 0x14E JUMPI PUSH2 0x100 DUP1 DUP4 SLOAD DIV MUL DUP4 MSTORE SWAP2 PUSH1 0x20 ADD SWAP2 PUSH2 0x179 JUMP JUMPDEST DUP3 ADD SWAP2 SWAP1 PUSH1 0x0 MSTORE PUSH1 0x20 PUSH1 0x0 KECCAK256 SWAP1 JUMPDEST DUP2 SLOAD DUP2 MSTORE SWAP1 PUSH1 0x1 ADD SWAP1 PUSH1 0x20 ADD DUP1 DUP4 GT PUSH2 0x15C JUMPI DUP3 SWAP1 SUB PUSH1 0x1F AND DUP3 ADD SWAP2 JUMPDEST POP POP POP POP POP SWAP1 DUP1 PUSH1 0x2 ADD SLOAD SWAP1 DUP1 PUSH1 0x3 ADD DUP1 SLOAD PUSH2 0x194 SWAP1 PUSH2 0x556 JUMP JUMPDEST DUP1 PUSH1 0x1F ADD PUSH1 0x20 DUP1 SWAP2 DIV MUL PUSH1 0x20 ADD PUSH1 0x40 MLOAD SWAP1 DUP2 ADD PUSH1 0x40 MSTORE DUP1 SWAP3 SWAP2 SWAP1 DUP2 DUP2 MSTORE PUSH1 0x20 ADD DUP3 DUP1 SLOAD PUSH2 0x1C0 SWAP1 PUSH2 0x556 JUMP JUMPDEST DUP1 ISZERO PUSH2 0x20D JUMPI DUP1 PUSH1 0x1F LT PUSH2 0x1E2 JUMPI PUSH2 0x100 DUP1 DUP4 SLOAD DIV MUL DUP4 MSTORE SWAP2 PUSH1 0x20 ADD SWAP2 PUSH2 0x20D JUMP JUMPDEST DUP3 ADD SWAP2 SWAP1 PUSH1 0x0 MSTORE PUSH1 0x20 PUSH1 0x0 KECCAK256 SWAP1 JUMPDEST DUP2 SLOAD DUP2 MSTORE SWAP1 PUSH1 0x1 ADD SWAP1 PUSH1 0x20 ADD DUP1 DUP4 GT PUSH2 0x1F0 JUMPI DUP3 SWAP1 SUB PUSH1 0x1F AND DUP3 ADD SWAP2 JUMPDEST POP POP POP POP POP SWAP1 POP DUP5 JUMP JUMPDEST PUSH1 0x0 PUSH1 0x40 MLOAD SWAP1 POP SWAP1 JUMP JUMPDEST PUSH1 0x0 DUP1 REVERT JUMPDEST PUSH1 0x0 DUP1 REVERT JUMPDEST PUSH1 0x0 DUP2 SWAP1 POP SWAP2 SWAP1 POP JUMP JUMPDEST PUSH2 0x23E DUP2 PUSH2 0x22B JUMP JUMPDEST DUP2 EQ PUSH2 0x249 JUMPI PUSH1 0x0 DUP1 REVERT JUMPDEST POP JUMP JUMPDEST PUSH1 0x0 DUP2 CALLDATALOAD SWAP1 POP PUSH2 0x25B DUP2 PUSH2 0x235 JUMP JUMPDEST SWAP3 SWAP2 POP POP JUMP JUMPDEST PUSH1 0x0 DUP1 REVERT JUMPDEST PUSH1 0x0 DUP1 REVERT JUMPDEST PUSH1 0x0 PUSH1 0x1F NOT PUSH1 0x1F DUP4 ADD AND SWAP1 POP SWAP2 SWAP1 POP JUMP JUMPDEST PUSH32 0x4E487B7100000000000000000000000000000000000000000000000000000000 PUSH1 0x0 MSTORE PUSH1 0x41 PUSH1 0x4 MSTORE PUSH1 0x24 PUSH1 0x0 REVERT JUMPDEST PUSH2 0x2B4 DUP3 PUSH2 0x26B JUMP JUMPDEST DUP2 ADD DUP2 DUP2 LT PUSH8 0xFFFFFFFFFFFFFFFF DUP3 GT OR ISZERO PUSH2 0x2D3 JUMPI PUSH2 0x2D2 PUSH2 0x27C JUMP JUMPDEST JUMPDEST DUP1 PUSH1 0x40 MSTORE POP POP POP JUMP JUMPDEST PUSH1 0x0 PUSH2 0x2E6 PUSH2 0x217 JUMP JUMPDEST SWAP1 POP PUSH2 0x2F2 DUP3 DUP3 PUSH2 0x2AB JUMP JUMPDEST SWAP2 SWAP1 POP JUMP JUMPDEST PUSH1 0x0 PUSH8 0xFFFFFFFFFFFFFFFF DUP3 GT ISZERO PUSH2 0x312 JUMPI PUSH2 0x311 PUSH2 0x27C JUMP JUMPDEST JUMPDEST PUSH2 0x31B DUP3 PUSH2 0x26B JUMP JUMPDEST SWAP1 POP PUSH1 0x20 DUP2 ADD SWAP1 POP SWAP2 SWAP1 POP JUMP JUMPDEST DUP3 DUP2 DUP4 CALLDATACOPY PUSH1 0x0 DUP4 DUP4 ADD MSTORE POP POP POP JUMP JUMPDEST PUSH1 0x0 PUSH2 0x34A PUSH2 0x345 DUP5 PUSH2 0x2F7 JUMP JUMPDEST PUSH2 0x2DC JUMP JUMPDEST SWAP1 POP DUP3 DUP2 MSTORE PUSH1 0x20 DUP2 ADD DUP5 DUP5 DUP5 ADD GT ISZERO PUSH2 0x366 JUMPI PUSH2 0x365 PUSH2 0x266 JUMP JUMPDEST JUMPDEST PUSH2 0x371 DUP5 DUP3 DUP6 PUSH2 0x328 JUMP JUMPDEST POP SWAP4 SWAP3 POP POP POP JUMP JUMPDEST PUSH1 0x0 DUP3 PUSH1 0x1F DUP4 ADD SLT PUSH2 0x38E JUMPI PUSH2 0x38D PUSH2 0x261 JUMP JUMPDEST JUMPDEST DUP2 CALLDATALOAD PUSH2 0x39E DUP5 DUP3 PUSH1 0x20 DUP7 ADD PUSH2 0x337 JUMP JUMPDEST SWAP2 POP POP SWAP3 SWAP2 POP POP JUMP JUMPDEST PUSH1 0x0 DUP1 PUSH1 0x0 DUP1 PUSH1 0x80 DUP6 DUP8 SUB SLT ISZERO PUSH2 0x3C1 JUMPI PUSH2 0x3C0 PUSH2 0x221 JUMP JUMPDEST JUMPDEST PUSH1 0x0 PUSH2 0x3CF DUP8 DUP3 DUP9 ADD PUSH2 0x24C JUMP JUMPDEST SWAP5 POP POP PUSH1 0x20 DUP6 ADD CALLDATALOAD PUSH8 0xFFFFFFFFFFFFFFFF DUP2 GT ISZERO PUSH2 0x3F0 JUMPI PUSH2 0x3EF PUSH2 0x226 JUMP JUMPDEST JUMPDEST PUSH2 0x3FC DUP8 DUP3 DUP9 ADD PUSH2 0x379 JUMP JUMPDEST SWAP4 POP POP PUSH1 0x40 PUSH2 0x40D DUP8 DUP3 DUP9 ADD PUSH2 0x24C JUMP JUMPDEST SWAP3 POP POP PUSH1 0x60 DUP6 ADD CALLDATALOAD PUSH8 0xFFFFFFFFFFFFFFFF DUP2 GT ISZERO PUSH2 0x42E JUMPI PUSH2 0x42D PUSH2 0x226 JUMP JUMPDEST JUMPDEST PUSH2 0x43A DUP8 DUP3 DUP9 ADD PUSH2 0x379 JUMP JUMPDEST SWAP2 POP POP SWAP3 SWAP6 SWAP2 SWAP5 POP SWAP3 POP JUMP JUMPDEST PUSH2 0x44F DUP2 PUSH2 0x22B JUMP JUMPDEST DUP3 MSTORE POP POP JUMP JUMPDEST PUSH1 0x0 DUP2 MLOAD SWAP1 POP SWAP2 SWAP1 POP JUMP JUMPDEST PUSH1 0x0 DUP3 DUP3 MSTORE PUSH1 0x20 DUP3 ADD SWAP1 POP SWAP3 SWAP2 POP POP JUMP JUMPDEST PUSH1 0x0 JUMPDEST DUP4 DUP2 LT ISZERO PUSH2 0x48F JUMPI DUP1 DUP3 ADD MLOAD DUP2 DUP5 ADD MSTORE PUSH1 0x20 DUP2 ADD SWAP1 POP PUSH2 0x474 JUMP JUMPDEST PUSH1 0x0 DUP5 DUP5 ADD MSTORE POP POP POP POP JUMP JUMPDEST PUSH1 0x0 PUSH2 0x4A6 DUP3 PUSH2 0x455 JUMP JUMPDEST PUSH2 0x4B0 DUP2 DUP6 PUSH2 0x460 JUMP JUMPDEST SWAP4 POP PUSH2 0x4C0 DUP2 DUP6 PUSH1 0x20 DUP7 ADD PUSH2 0x471 JUMP JUMPDEST PUSH2 0x4C9 DUP2 PUSH2 0x26B JUMP JUMPDEST DUP5 ADD SWAP2 POP POP SWAP3 SWAP2 POP POP JUMP JUMPDEST PUSH1 0x0 PUSH1 0x80 DUP3 ADD SWAP1 POP PUSH2 0x4E9 PUSH1 0x0 DUP4 ADD DUP8 PUSH2 0x446 JUMP JUMPDEST DUP2 DUP2 SUB PUSH1 0x20 DUP4 ADD MSTORE PUSH2 0x4FB DUP2 DUP7 PUSH2 0x49B JUMP JUMPDEST SWAP1 POP PUSH2 0x50A PUSH1 0x40 DUP4 ADD DUP6 PUSH2 0x446 JUMP JUMPDEST DUP2 DUP2 SUB PUSH1 0x60 DUP4 ADD MSTORE PUSH2 0x51C DUP2 DUP5 PUSH2 0x49B JUMP JUMPDEST SWAP1 POP SWAP6 SWAP5 POP POP POP POP POP JUMP JUMPDEST PUSH32 0x4E487B7100000000000000000000000000000000000000000000000000000000 PUSH1 0x0 MSTORE PUSH1 0x22 PUSH1 0x4 MSTORE PUSH1 0x24 PUSH1 0x0 REVERT JUMPDEST PUSH1 0x0 PUSH1 0x2 DUP3 DIV SWAP1 POP PUSH1 0x1 DUP3 AND DUP1 PUSH2 0x56E JUMPI PUSH1 0x7F DUP3 AND SWAP2 POP JUMPDEST PUSH1 0x20 DUP3 LT DUP2 SUB PUSH2 0x581 JUMPI PUSH2 0x580 PUSH2 0x527 JUMP JUMPDEST JUMPDEST POP SWAP2 SWAP1 POP JUMP JUMPDEST PUSH1 0x0 DUP2 SWAP1 POP DUP2 PUSH1 0x0 MSTORE PUSH1 0x20 PUSH1 0x0 KECCAK256 SWAP1 POP SWAP2 SWAP1 POP JUMP JUMPDEST PUSH1 0x0 PUSH1 0x20 PUSH1 0x1F DUP4 ADD DIV SWAP1 POP SWAP2 SWAP1 POP JUMP JUMPDEST PUSH1 0x0 DUP3 DUP3 SHL SWAP1 POP SWAP3 SWAP2 POP POP JUMP JUMPDEST PUSH1 0x0 PUSH1 0x8 DUP4 MUL PUSH2 0x5E9 PUSH32 0xFFFFFFFFFFFFFFFFFFFFFFFFFFFFFFFFFFFFFFFFFFFFFFFFFFFFFFFFFFFFFFFF DUP3 PUSH2 0x5AC JUMP JUMPDEST PUSH2 0x5F3 DUP7 DUP4 PUSH2 0x5AC JUMP JUMPDEST SWAP6 POP DUP1 NOT DUP5 AND SWAP4 POP DUP1 DUP7 AND DUP5 OR SWAP3 POP POP POP SWAP4 SWAP3 POP POP POP JUMP JUMPDEST PUSH1 0x0 DUP2 SWAP1 POP SWAP2 SWAP1 POP JUMP JUMPDEST PUSH1 0x0 PUSH2 0x630 PUSH2 0x62B PUSH2 0x626 DUP5 PUSH2 0x22B JUMP JUMPDEST PUSH2 0x60B JUMP JUMPDEST PUSH2 0x22B JUMP JUMPDEST SWAP1 POP SWAP2 SWAP1 POP JUMP JUMPDEST PUSH1 0x0 DUP2 SWAP1 POP SWAP2 SWAP1 POP JUMP JUMPDEST PUSH2 0x64A DUP4 PUSH2 0x615 JUMP JUMPDEST PUSH2 0x65E PUSH2 0x656 DUP3 PUSH2 0x637 JUMP JUMPDEST DUP5 DUP5 SLOAD PUSH2 0x5B9 JUMP JUMPDEST DUP3 SSTORE POP POP POP POP JUMP JUMPDEST PUSH1 0x0 SWAP1 JUMP JUMPDEST PUSH2 0x673 PUSH2 0x666 JUMP JUMPDEST PUSH2 0x67E DUP2 DUP5 DUP5 PUSH2 0x641 JUMP JUMPDEST POP POP POP JUMP JUMPDEST JUMPDEST DUP2 DUP2 LT ISZERO PUSH2 0x6A2 JUMPI PUSH2 0x697 PUSH1 0x0 DUP3 PUSH2 0x66B JUMP JUMPDEST PUSH1 0x1 DUP2 ADD SWAP1 POP PUSH2 0x684 JUMP JUMPDEST POP POP JUMP JUMPDEST PUSH1 0x1F DUP3 GT ISZERO PUSH2 0x6E7 JUMPI PUSH2 0x6B8 DUP2 PUSH2 0x587 JUMP JUMPDEST PUSH2 0x6C1 DUP5 PUSH2 0x59C JUMP JUMPDEST DUP2 ADD PUSH1 0x20 DUP6 LT ISZERO PUSH2 0x6D0 JUMPI DUP2 SWAP1 POP JUMPDEST PUSH2 0x6E4 PUSH2 0x6DC DUP6 PUSH2 0x59C JUMP JUMPDEST DUP4 ADD DUP3 PUSH2 0x683 JUMP JUMPDEST POP POP JUMPDEST POP POP POP JUMP JUMPDEST PUSH1 0x0 DUP3 DUP3 SHR SWAP1 POP SWAP3 SWAP2 POP POP JUMP JUMPDEST PUSH1 0x0 PUSH2 0x70A PUSH1 0x0 NOT DUP5 PUSH1 0x8 MUL PUSH2 0x6EC JUMP JUMPDEST NOT DUP1 DUP4 AND SWAP2 POP POP SWAP3 SWAP2 POP POP JUMP JUMPDEST PUSH1 0x0 PUSH2 0x723 DUP4 DUP4 PUSH2 0x6F9 JUMP JUMPDEST SWAP2 POP DUP3 PUSH1 0x2 MUL DUP3 OR SWAP1 POP SWAP3 SWAP2 POP POP JUMP JUMPDEST PUSH2 0x73C DUP3 PUSH2 0x455 JUMP JUMPDEST PUSH8 0xFFFFFFFFFFFFFFFF DUP2 GT ISZERO PUSH2 0x755 JUMPI PUSH2 0x754 PUSH2 0x27C JUMP JUMPDEST JUMPDEST PUSH2 0x75F DUP3 SLOAD PUSH2 0x556 JUMP JUMPDEST PUSH2 0x76A DUP3 DUP3 DUP6 PUSH2 0x6A6 JUMP JUMPDEST PUSH1 0x0 PUSH1 0x20 SWAP1 POP PUSH1 0x1F DUP4 GT PUSH1 0x1 DUP2 EQ PUSH2 0x79D JUMPI PUSH1 0x0 DUP5 ISZERO PUSH2 0x78B JUMPI DUP3 DUP8 ADD MLOAD SWAP1 POP JUMPDEST PUSH2 0x795 DUP6 DUP3 PUSH2 0x717 JUMP JUMPDEST DUP7 SSTORE POP PUSH2 0x7FD JUMP JUMPDEST PUSH1 0x1F NOT DUP5 AND PUSH2 0x7AB DUP7 PUSH2 0x587 JUMP JUMPDEST PUSH1 0x0 JUMPDEST DUP3 DUP2 LT ISZERO PUSH2 0x7D3 JUMPI DUP5 DUP10 ADD MLOAD DUP3 SSTORE PUSH1 0x1 DUP3 ADD SWAP2 POP PUSH1 0x20 DUP6 ADD SWAP5 POP PUSH1 0x20 DUP2 ADD SWAP1 POP PUSH2 0x7AE JUMP JUMPDEST DUP7 DUP4 LT ISZERO PUSH2 0x7F0 JUMPI DUP5 DUP10 ADD MLOAD PUSH2 0x7EC PUSH1 0x1F DUP10 AND DUP3 PUSH2 0x6F9 JUMP JUMPDEST DUP4 SSTORE POP JUMPDEST PUSH1 0x1 PUSH1 0x2 DUP9 MUL ADD DUP9 SSTORE POP POP POP JUMPDEST POP POP POP POP POP POP JUMP INVALID LOG2 PUSH5 0x6970667358 0x22 SLT KECCAK256 ADDMOD DELEGATECALL SWAP3 BASEFEE SELFDESTRUCT 0x2B 0x2C 0xF7 0x2E EQ PUSH2 0xF275 0xB3 0xCA BLOCKHASH 0xAA 0xDA BYTE SAR 0xBF 0x49 STATICCALL 0xEF GT 0xDC 0xC1 DUP3 0xF8 DUP9 0xEA 0x22 PUSH5 0x736F6C6343 STOP ADDMOD SLT STOP CALLER "
				},
				"gasEstimates": {
					"creation": {
						"codeDepositCost": "421400",
						"executionCost": "infinite",
						"totalCost": "infinite"
					},
					"external": {
						"change(uint256,string,uint256,string)": "infinite",
						"s1()": "infinite"
					}
				},
				"methodIdentifiers": {
					"change(uint256,string,uint256,string)": "31d9582f",
					"s1()": "6cc014de"
				}
			},
			"storageLayout": {
				"storage": [
					{
						"astId": 13,
						"contract": "structstudent.sol:studentrecord",
						"label": "s1",
						"offset": 0,
						"slot": "0",
						"type": "t_struct(student)10_storage"
					}
				],
				"types": {
					"t_string_storage": {
						"encoding": "bytes",
						"label": "string",
						"numberOfBytes": "32"
					},
					"t_struct(student)10_storage": {
						"encoding": "inplace",
						"label": "struct student",
						"members": [
							{
								"astId": 3,
								"contract": "structstudent.sol:studentrecord",
								"label": "rollno",
								"offset": 0,
								"slot": "0",
								"type": "t_uint256"
							},
							{
								"astId": 5,
								"contract": "structstudent.sol:studentrecord",
								"label": "name",
								"offset": 0,
								"slot": "1",
								"type": "t_string_storage"
							},
							{
								"astId": 7,
								"contract": "structstudent.sol:studentrecord",
								"label": "age",
								"offset": 0,
								"slot": "2",
								"type": "t_uint256"
							},
							{
								"astId": 9,
								"contract": "structstudent.sol:studentrecord",
								"label": "class",
								"offset": 0,
								"slot": "3",
								"type": "t_string_storage"
							}
						],
						"numberOfBytes": "128"
					},
					"t_uint256": {
						"encoding": "inplace",
						"label": "uint256",
						"numberOfBytes": "32"
					}
				}
			},
			"userdoc": {
				"kind": "user",
				"methods": {},
				"version": 1
			}
		}
	}
}