{
	"admincanonlyaccessuserdata.sol": {
		"UserDataContract": {
			"abi": [
				{
					"inputs": [],
					"stateMutability": "nonpayable",
					"type": "constructor"
				},
				{
					"inputs": [],
					"name": "admin",
					"outputs": [
						{
							"internalType": "address",
							"name": "",
							"type": "address"
						}
					],
					"stateMutability": "view",
					"type": "function"
				},
				{
					"inputs": [
						{
							"internalType": "address",
							"name": "user",
							"type": "address"
						}
					],
					"name": "getUserData",
					"outputs": [
						{
							"internalType": "string",
							"name": "",
							"type": "string"
						}
					],
					"stateMutability": "view",
					"type": "function"
				},
				{
					"inputs": [
						{
							"internalType": "string",
							"name": "data",
							"type": "string"
						}
					],
					"name": "setUserData",
					"outputs": [],
					"stateMutability": "nonpayable",
					"type": "function"
				}
			],
			"devdoc": {
				"kind": "dev",
				"methods": {},
				"version": 1
			},
			"evm": {
				"assembly": "    /* \"admincanonlyaccessuserdata.sol\":59:692  contract UserDataContract {... */\n  mstore(0x40, 0x80)\n    /* \"admincanonlyaccessuserdata.sol\":173:224  constructor() {... */\n  callvalue\n  dup1\n  iszero\n  tag_1\n  jumpi\n  0x00\n  dup1\n  revert\ntag_1:\n  pop\n    /* \"admincanonlyaccessuserdata.sol\":206:216  msg.sender */\n  caller\n    /* \"admincanonlyaccessuserdata.sol\":198:203  admin */\n  0x00\n  dup1\n    /* \"admincanonlyaccessuserdata.sol\":198:216  admin = msg.sender */\n  0x0100\n  exp\n  dup2\n  sload\n  dup2\n  0xffffffffffffffffffffffffffffffffffffffff\n  mul\n  not\n  and\n  swap1\n  dup4\n  0xffffffffffffffffffffffffffffffffffffffff\n  and\n  mul\n  or\n  swap1\n  sstore\n  pop\n    /* \"admincanonlyaccessuserdata.sol\":59:692  contract UserDataContract {... */\n  dataSize(sub_0)\n  dup1\n  dataOffset(sub_0)\n  0x00\n  codecopy\n  0x00\n  return\nstop\n\nsub_0: assembly {\n        /* \"admincanonlyaccessuserdata.sol\":59:692  contract UserDataContract {... */\n      mstore(0x40, 0x80)\n      callvalue\n      dup1\n      iszero\n      tag_1\n      jumpi\n      0x00\n      dup1\n      revert\n    tag_1:\n      pop\n      jumpi(tag_2, lt(calldatasize, 0x04))\n      shr(0xe0, calldataload(0x00))\n      dup1\n      0x50aed379\n      eq\n      tag_3\n      jumpi\n      dup1\n      0xf851a440\n      eq\n      tag_4\n      jumpi\n      dup1\n      0xffc9896b\n      eq\n      tag_5\n      jumpi\n    tag_2:\n      0x00\n      dup1\n      revert\n        /* \"admincanonlyaccessuserdata.sol\":359:463  function setUserData(string memory data) public onlyAdmin {... */\n    tag_3:\n      tag_6\n      0x04\n      dup1\n      calldatasize\n      sub\n      dup2\n      add\n      swap1\n      tag_7\n      swap2\n      swap1\n      tag_8\n      jump\t// in\n    tag_7:\n      tag_9\n      jump\t// in\n    tag_6:\n      stop\n        /* \"admincanonlyaccessuserdata.sol\":92:112  address public admin */\n    tag_4:\n      tag_10\n      tag_11\n      jump\t// in\n    tag_10:\n      mload(0x40)\n      tag_12\n      swap2\n      swap1\n      tag_13\n      jump\t// in\n    tag_12:\n      mload(0x40)\n      dup1\n      swap2\n      sub\n      swap1\n      return\n        /* \"admincanonlyaccessuserdata.sol\":471:689  function getUserData(address user) public view returns (string memory) {... */\n    tag_5:\n      tag_14\n      0x04\n      dup1\n      calldatasize\n      sub\n      dup2\n      add\n      swap1\n      tag_15\n      swap2\n      swap1\n      tag_16\n      jump\t// in\n    tag_15:\n      tag_17\n      jump\t// in\n    tag_14:\n      mload(0x40)\n      tag_18\n      swap2\n      swap1\n      tag_19\n      jump\t// in\n    tag_18:\n      mload(0x40)\n      dup1\n      swap2\n      sub\n      swap1\n      return\n        /* \"admincanonlyaccessuserdata.sol\":359:463  function setUserData(string memory data) public onlyAdmin {... */\n    tag_9:\n        /* \"admincanonlyaccessuserdata.sol\":286:291  admin */\n      0x00\n      dup1\n      sload\n      swap1\n      0x0100\n      exp\n      swap1\n      div\n      0xffffffffffffffffffffffffffffffffffffffff\n      and\n        /* \"admincanonlyaccessuserdata.sol\":272:291  msg.sender == admin */\n      0xffffffffffffffffffffffffffffffffffffffff\n      and\n        /* \"admincanonlyaccessuserdata.sol\":272:282  msg.sender */\n      caller\n        /* \"admincanonlyaccessuserdata.sol\":272:291  msg.sender == admin */\n      0xffffffffffffffffffffffffffffffffffffffff\n      and\n      eq\n        /* \"admincanonlyaccessuserdata.sol\":264:331  require(msg.sender == admin, \"Only admin can access this function\") */\n      tag_21\n      jumpi\n      mload(0x40)\n      0x08c379a000000000000000000000000000000000000000000000000000000000\n      dup2\n      mstore\n      0x04\n      add\n      tag_22\n      swap1\n      tag_23\n      jump\t// in\n    tag_22:\n      mload(0x40)\n      dup1\n      swap2\n      sub\n      swap1\n      revert\n    tag_21:\n        /* \"admincanonlyaccessuserdata.sol\":451:455  data */\n      dup1\n        /* \"admincanonlyaccessuserdata.sol\":428:436  userData */\n      0x01\n        /* \"admincanonlyaccessuserdata.sol\":428:448  userData[msg.sender] */\n      0x00\n        /* \"admincanonlyaccessuserdata.sol\":437:447  msg.sender */\n      caller\n        /* \"admincanonlyaccessuserdata.sol\":428:448  userData[msg.sender] */\n      0xffffffffffffffffffffffffffffffffffffffff\n      and\n      0xffffffffffffffffffffffffffffffffffffffff\n      and\n      dup2\n      mstore\n      0x20\n      add\n      swap1\n      dup2\n      mstore\n      0x20\n      add\n      0x00\n      keccak256\n        /* \"admincanonlyaccessuserdata.sol\":428:455  userData[msg.sender] = data */\n      swap1\n      dup2\n      tag_25\n      swap2\n      swap1\n      tag_26\n      jump\t// in\n    tag_25:\n      pop\n        /* \"admincanonlyaccessuserdata.sol\":359:463  function setUserData(string memory data) public onlyAdmin {... */\n      pop\n      jump\t// out\n        /* \"admincanonlyaccessuserdata.sol\":92:112  address public admin */\n    tag_11:\n      0x00\n      dup1\n      sload\n      swap1\n      0x0100\n      exp\n      swap1\n      div\n      0xffffffffffffffffffffffffffffffffffffffff\n      and\n      dup2\n      jump\t// out\n        /* \"admincanonlyaccessuserdata.sol\":471:689  function getUserData(address user) public view returns (string memory) {... */\n    tag_17:\n        /* \"admincanonlyaccessuserdata.sol\":527:540  string memory */\n      0x60\n        /* \"admincanonlyaccessuserdata.sol\":575:579  user */\n      dup2\n        /* \"admincanonlyaccessuserdata.sol\":561:579  msg.sender == user */\n      0xffffffffffffffffffffffffffffffffffffffff\n      and\n        /* \"admincanonlyaccessuserdata.sol\":561:571  msg.sender */\n      caller\n        /* \"admincanonlyaccessuserdata.sol\":561:579  msg.sender == user */\n      0xffffffffffffffffffffffffffffffffffffffff\n      and\n      eq\n        /* \"admincanonlyaccessuserdata.sol\":561:602  msg.sender == user || msg.sender == admin */\n      dup1\n      tag_28\n      jumpi\n      pop\n        /* \"admincanonlyaccessuserdata.sol\":597:602  admin */\n      0x00\n      dup1\n      sload\n      swap1\n      0x0100\n      exp\n      swap1\n      div\n      0xffffffffffffffffffffffffffffffffffffffff\n      and\n        /* \"admincanonlyaccessuserdata.sol\":583:602  msg.sender == admin */\n      0xffffffffffffffffffffffffffffffffffffffff\n      and\n        /* \"admincanonlyaccessuserdata.sol\":583:593  msg.sender */\n      caller\n        /* \"admincanonlyaccessuserdata.sol\":583:602  msg.sender == admin */\n      0xffffffffffffffffffffffffffffffffffffffff\n      and\n      eq\n        /* \"admincanonlyaccessuserdata.sol\":561:602  msg.sender == user || msg.sender == admin */\n    tag_28:\n        /* \"admincanonlyaccessuserdata.sol\":553:649  require(msg.sender == user || msg.sender == admin, \"You are not authorized to access this data\") */\n      tag_29\n      jumpi\n      mload(0x40)\n      0x08c379a000000000000000000000000000000000000000000000000000000000\n      dup2\n      mstore\n      0x04\n      add\n      tag_30\n      swap1\n      tag_31\n      jump\t// in\n    tag_30:\n      mload(0x40)\n      dup1\n      swap2\n      sub\n      swap1\n      revert\n    tag_29:\n        /* \"admincanonlyaccessuserdata.sol\":667:675  userData */\n      0x01\n        /* \"admincanonlyaccessuserdata.sol\":667:681  userData[user] */\n      0x00\n        /* \"admincanonlyaccessuserdata.sol\":676:680  user */\n      dup4\n        /* \"admincanonlyaccessuserdata.sol\":667:681  userData[user] */\n      0xffffffffffffffffffffffffffffffffffffffff\n      and\n      0xffffffffffffffffffffffffffffffffffffffff\n      and\n      dup2\n      mstore\n      0x20\n      add\n      swap1\n      dup2\n      mstore\n      0x20\n      add\n      0x00\n      keccak256\n        /* \"admincanonlyaccessuserdata.sol\":660:681  return userData[user] */\n      dup1\n      sload\n      tag_32\n      swap1\n      tag_33\n      jump\t// in\n    tag_32:\n      dup1\n      0x1f\n      add\n      0x20\n      dup1\n      swap2\n      div\n      mul\n      0x20\n      add\n      mload(0x40)\n      swap1\n      dup2\n      add\n      0x40\n      mstore\n      dup1\n      swap3\n      swap2\n      swap1\n      dup2\n      dup2\n      mstore\n      0x20\n      add\n      dup3\n      dup1\n      sload\n      tag_34\n      swap1\n      tag_33\n      jump\t// in\n    tag_34:\n      dup1\n      iszero\n      tag_35\n      jumpi\n      dup1\n      0x1f\n      lt\n      tag_36\n      jumpi\n      0x0100\n      dup1\n      dup4\n      sload\n      div\n      mul\n      dup4\n      mstore\n      swap2\n      0x20\n      add\n      swap2\n      jump(tag_35)\n    tag_36:\n      dup3\n      add\n      swap2\n      swap1\n      0x00\n      mstore\n      keccak256(0x00, 0x20)\n      swap1\n    tag_37:\n      dup2\n      sload\n      dup2\n      mstore\n      swap1\n      0x01\n      add\n      swap1\n      0x20\n      add\n      dup1\n      dup4\n      gt\n      tag_37\n      jumpi\n      dup3\n      swap1\n      sub\n      0x1f\n      and\n      dup3\n      add\n      swap2\n    tag_35:\n      pop\n      pop\n      pop\n      pop\n      pop\n      swap1\n      pop\n        /* \"admincanonlyaccessuserdata.sol\":471:689  function getUserData(address user) public view returns (string memory) {... */\n      swap2\n      swap1\n      pop\n      jump\t// out\n        /* \"#utility.yul\":7:82   */\n    tag_38:\n        /* \"#utility.yul\":40:46   */\n      0x00\n        /* \"#utility.yul\":73:75   */\n      0x40\n        /* \"#utility.yul\":67:76   */\n      mload\n        /* \"#utility.yul\":57:76   */\n      swap1\n      pop\n        /* \"#utility.yul\":7:82   */\n      swap1\n      jump\t// out\n        /* \"#utility.yul\":88:205   */\n    tag_39:\n        /* \"#utility.yul\":197:198   */\n      0x00\n        /* \"#utility.yul\":194:195   */\n      dup1\n        /* \"#utility.yul\":187:199   */\n      revert\n        /* \"#utility.yul\":211:328   */\n    tag_40:\n        /* \"#utility.yul\":320:321   */\n      0x00\n        /* \"#utility.yul\":317:318   */\n      dup1\n        /* \"#utility.yul\":310:322   */\n      revert\n        /* \"#utility.yul\":334:451   */\n    tag_41:\n        /* \"#utility.yul\":443:444   */\n      0x00\n        /* \"#utility.yul\":440:441   */\n      dup1\n        /* \"#utility.yul\":433:445   */\n      revert\n        /* \"#utility.yul\":457:574   */\n    tag_42:\n        /* \"#utility.yul\":566:567   */\n      0x00\n        /* \"#utility.yul\":563:564   */\n      dup1\n        /* \"#utility.yul\":556:568   */\n      revert\n        /* \"#utility.yul\":580:682   */\n    tag_43:\n        /* \"#utility.yul\":621:627   */\n      0x00\n        /* \"#utility.yul\":672:674   */\n      0x1f\n        /* \"#utility.yul\":668:675   */\n      not\n        /* \"#utility.yul\":663:665   */\n      0x1f\n        /* \"#utility.yul\":656:661   */\n      dup4\n        /* \"#utility.yul\":652:666   */\n      add\n        /* \"#utility.yul\":648:676   */\n      and\n        /* \"#utility.yul\":638:676   */\n      swap1\n      pop\n        /* \"#utility.yul\":580:682   */\n      swap2\n      swap1\n      pop\n      jump\t// out\n        /* \"#utility.yul\":688:868   */\n    tag_44:\n        /* \"#utility.yul\":736:813   */\n      0x4e487b7100000000000000000000000000000000000000000000000000000000\n        /* \"#utility.yul\":733:734   */\n      0x00\n        /* \"#utility.yul\":726:814   */\n      mstore\n        /* \"#utility.yul\":833:837   */\n      0x41\n        /* \"#utility.yul\":830:831   */\n      0x04\n        /* \"#utility.yul\":823:838   */\n      mstore\n        /* \"#utility.yul\":857:861   */\n      0x24\n        /* \"#utility.yul\":854:855   */\n      0x00\n        /* \"#utility.yul\":847:862   */\n      revert\n        /* \"#utility.yul\":874:1155   */\n    tag_45:\n        /* \"#utility.yul\":957:984   */\n      tag_90\n        /* \"#utility.yul\":979:983   */\n      dup3\n        /* \"#utility.yul\":957:984   */\n      tag_43\n      jump\t// in\n    tag_90:\n        /* \"#utility.yul\":949:955   */\n      dup2\n        /* \"#utility.yul\":945:985   */\n      add\n        /* \"#utility.yul\":1087:1093   */\n      dup2\n        /* \"#utility.yul\":1075:1085   */\n      dup2\n        /* \"#utility.yul\":1072:1094   */\n      lt\n        /* \"#utility.yul\":1051:1069   */\n      0xffffffffffffffff\n        /* \"#utility.yul\":1039:1049   */\n      dup3\n        /* \"#utility.yul\":1036:1070   */\n      gt\n        /* \"#utility.yul\":1033:1095   */\n      or\n        /* \"#utility.yul\":1030:1118   */\n      iszero\n      tag_91\n      jumpi\n        /* \"#utility.yul\":1098:1116   */\n      tag_92\n      tag_44\n      jump\t// in\n    tag_92:\n        /* \"#utility.yul\":1030:1118   */\n    tag_91:\n        /* \"#utility.yul\":1138:1148   */\n      dup1\n        /* \"#utility.yul\":1134:1136   */\n      0x40\n        /* \"#utility.yul\":1127:1149   */\n      mstore\n        /* \"#utility.yul\":917:1155   */\n      pop\n        /* \"#utility.yul\":874:1155   */\n      pop\n      pop\n      jump\t// out\n        /* \"#utility.yul\":1161:1290   */\n    tag_46:\n        /* \"#utility.yul\":1195:1201   */\n      0x00\n        /* \"#utility.yul\":1222:1242   */\n      tag_94\n      tag_38\n      jump\t// in\n    tag_94:\n        /* \"#utility.yul\":1212:1242   */\n      swap1\n      pop\n        /* \"#utility.yul\":1251:1284   */\n      tag_95\n        /* \"#utility.yul\":1279:1283   */\n      dup3\n        /* \"#utility.yul\":1271:1277   */\n      dup3\n        /* \"#utility.yul\":1251:1284   */\n      tag_45\n      jump\t// in\n    tag_95:\n        /* \"#utility.yul\":1161:1290   */\n      swap2\n      swap1\n      pop\n      jump\t// out\n        /* \"#utility.yul\":1296:1604   */\n    tag_47:\n        /* \"#utility.yul\":1358:1362   */\n      0x00\n        /* \"#utility.yul\":1448:1466   */\n      0xffffffffffffffff\n        /* \"#utility.yul\":1440:1446   */\n      dup3\n        /* \"#utility.yul\":1437:1467   */\n      gt\n        /* \"#utility.yul\":1434:1490   */\n      iszero\n      tag_97\n      jumpi\n        /* \"#utility.yul\":1470:1488   */\n      tag_98\n      tag_44\n      jump\t// in\n    tag_98:\n        /* \"#utility.yul\":1434:1490   */\n    tag_97:\n        /* \"#utility.yul\":1508:1537   */\n      tag_99\n        /* \"#utility.yul\":1530:1536   */\n      dup3\n        /* \"#utility.yul\":1508:1537   */\n      tag_43\n      jump\t// in\n    tag_99:\n        /* \"#utility.yul\":1500:1537   */\n      swap1\n      pop\n        /* \"#utility.yul\":1592:1596   */\n      0x20\n        /* \"#utility.yul\":1586:1590   */\n      dup2\n        /* \"#utility.yul\":1582:1597   */\n      add\n        /* \"#utility.yul\":1574:1597   */\n      swap1\n      pop\n        /* \"#utility.yul\":1296:1604   */\n      swap2\n      swap1\n      pop\n      jump\t// out\n        /* \"#utility.yul\":1610:1756   */\n    tag_48:\n        /* \"#utility.yul\":1707:1713   */\n      dup3\n        /* \"#utility.yul\":1702:1705   */\n      dup2\n        /* \"#utility.yul\":1697:1700   */\n      dup4\n        /* \"#utility.yul\":1684:1714   */\n      calldatacopy\n        /* \"#utility.yul\":1748:1749   */\n      0x00\n        /* \"#utility.yul\":1739:1745   */\n      dup4\n        /* \"#utility.yul\":1734:1737   */\n      dup4\n        /* \"#utility.yul\":1730:1746   */\n      add\n        /* \"#utility.yul\":1723:1750   */\n      mstore\n        /* \"#utility.yul\":1610:1756   */\n      pop\n      pop\n      pop\n      jump\t// out\n        /* \"#utility.yul\":1762:2187   */\n    tag_49:\n        /* \"#utility.yul\":1840:1845   */\n      0x00\n        /* \"#utility.yul\":1865:1931   */\n      tag_102\n        /* \"#utility.yul\":1881:1930   */\n      tag_103\n        /* \"#utility.yul\":1923:1929   */\n      dup5\n        /* \"#utility.yul\":1881:1930   */\n      tag_47\n      jump\t// in\n    tag_103:\n        /* \"#utility.yul\":1865:1931   */\n      tag_46\n      jump\t// in\n    tag_102:\n        /* \"#utility.yul\":1856:1931   */\n      swap1\n      pop\n        /* \"#utility.yul\":1954:1960   */\n      dup3\n        /* \"#utility.yul\":1947:1952   */\n      dup2\n        /* \"#utility.yul\":1940:1961   */\n      mstore\n        /* \"#utility.yul\":1992:1996   */\n      0x20\n        /* \"#utility.yul\":1985:1990   */\n      dup2\n        /* \"#utility.yul\":1981:1997   */\n      add\n        /* \"#utility.yul\":2030:2033   */\n      dup5\n        /* \"#utility.yul\":2021:2027   */\n      dup5\n        /* \"#utility.yul\":2016:2019   */\n      dup5\n        /* \"#utility.yul\":2012:2028   */\n      add\n        /* \"#utility.yul\":2009:2034   */\n      gt\n        /* \"#utility.yul\":2006:2118   */\n      iszero\n      tag_104\n      jumpi\n        /* \"#utility.yul\":2037:2116   */\n      tag_105\n      tag_42\n      jump\t// in\n    tag_105:\n        /* \"#utility.yul\":2006:2118   */\n    tag_104:\n        /* \"#utility.yul\":2127:2181   */\n      tag_106\n        /* \"#utility.yul\":2174:2180   */\n      dup5\n        /* \"#utility.yul\":2169:2172   */\n      dup3\n        /* \"#utility.yul\":2164:2167   */\n      dup6\n        /* \"#utility.yul\":2127:2181   */\n      tag_48\n      jump\t// in\n    tag_106:\n        /* \"#utility.yul\":1846:2187   */\n      pop\n        /* \"#utility.yul\":1762:2187   */\n      swap4\n      swap3\n      pop\n      pop\n      pop\n      jump\t// out\n        /* \"#utility.yul\":2207:2547   */\n    tag_50:\n        /* \"#utility.yul\":2263:2268   */\n      0x00\n        /* \"#utility.yul\":2312:2315   */\n      dup3\n        /* \"#utility.yul\":2305:2309   */\n      0x1f\n        /* \"#utility.yul\":2297:2303   */\n      dup4\n        /* \"#utility.yul\":2293:2310   */\n      add\n        /* \"#utility.yul\":2289:2316   */\n      slt\n        /* \"#utility.yul\":2279:2401   */\n      tag_108\n      jumpi\n        /* \"#utility.yul\":2320:2399   */\n      tag_109\n      tag_41\n      jump\t// in\n    tag_109:\n        /* \"#utility.yul\":2279:2401   */\n    tag_108:\n        /* \"#utility.yul\":2437:2443   */\n      dup2\n        /* \"#utility.yul\":2424:2444   */\n      calldataload\n        /* \"#utility.yul\":2462:2541   */\n      tag_110\n        /* \"#utility.yul\":2537:2540   */\n      dup5\n        /* \"#utility.yul\":2529:2535   */\n      dup3\n        /* \"#utility.yul\":2522:2526   */\n      0x20\n        /* \"#utility.yul\":2514:2520   */\n      dup7\n        /* \"#utility.yul\":2510:2527   */\n      add\n        /* \"#utility.yul\":2462:2541   */\n      tag_49\n      jump\t// in\n    tag_110:\n        /* \"#utility.yul\":2453:2541   */\n      swap2\n      pop\n        /* \"#utility.yul\":2269:2547   */\n      pop\n        /* \"#utility.yul\":2207:2547   */\n      swap3\n      swap2\n      pop\n      pop\n      jump\t// out\n        /* \"#utility.yul\":2553:3062   */\n    tag_8:\n        /* \"#utility.yul\":2622:2628   */\n      0x00\n        /* \"#utility.yul\":2671:2673   */\n      0x20\n        /* \"#utility.yul\":2659:2668   */\n      dup3\n        /* \"#utility.yul\":2650:2657   */\n      dup5\n        /* \"#utility.yul\":2646:2669   */\n      sub\n        /* \"#utility.yul\":2642:2674   */\n      slt\n        /* \"#utility.yul\":2639:2758   */\n      iszero\n      tag_112\n      jumpi\n        /* \"#utility.yul\":2677:2756   */\n      tag_113\n      tag_39\n      jump\t// in\n    tag_113:\n        /* \"#utility.yul\":2639:2758   */\n    tag_112:\n        /* \"#utility.yul\":2825:2826   */\n      0x00\n        /* \"#utility.yul\":2814:2823   */\n      dup3\n        /* \"#utility.yul\":2810:2827   */\n      add\n        /* \"#utility.yul\":2797:2828   */\n      calldataload\n        /* \"#utility.yul\":2855:2873   */\n      0xffffffffffffffff\n        /* \"#utility.yul\":2847:2853   */\n      dup2\n        /* \"#utility.yul\":2844:2874   */\n      gt\n        /* \"#utility.yul\":2841:2958   */\n      iszero\n      tag_114\n      jumpi\n        /* \"#utility.yul\":2877:2956   */\n      tag_115\n      tag_40\n      jump\t// in\n    tag_115:\n        /* \"#utility.yul\":2841:2958   */\n    tag_114:\n        /* \"#utility.yul\":2982:3045   */\n      tag_116\n        /* \"#utility.yul\":3037:3044   */\n      dup5\n        /* \"#utility.yul\":3028:3034   */\n      dup3\n        /* \"#utility.yul\":3017:3026   */\n      dup6\n        /* \"#utility.yul\":3013:3035   */\n      add\n        /* \"#utility.yul\":2982:3045   */\n      tag_50\n      jump\t// in\n    tag_116:\n        /* \"#utility.yul\":2972:3045   */\n      swap2\n      pop\n        /* \"#utility.yul\":2768:3055   */\n      pop\n        /* \"#utility.yul\":2553:3062   */\n      swap3\n      swap2\n      pop\n      pop\n      jump\t// out\n        /* \"#utility.yul\":3068:3194   */\n    tag_51:\n        /* \"#utility.yul\":3105:3112   */\n      0x00\n        /* \"#utility.yul\":3145:3187   */\n      0xffffffffffffffffffffffffffffffffffffffff\n        /* \"#utility.yul\":3138:3143   */\n      dup3\n        /* \"#utility.yul\":3134:3188   */\n      and\n        /* \"#utility.yul\":3123:3188   */\n      swap1\n      pop\n        /* \"#utility.yul\":3068:3194   */\n      swap2\n      swap1\n      pop\n      jump\t// out\n        /* \"#utility.yul\":3200:3296   */\n    tag_52:\n        /* \"#utility.yul\":3237:3244   */\n      0x00\n        /* \"#utility.yul\":3266:3290   */\n      tag_119\n        /* \"#utility.yul\":3284:3289   */\n      dup3\n        /* \"#utility.yul\":3266:3290   */\n      tag_51\n      jump\t// in\n    tag_119:\n        /* \"#utility.yul\":3255:3290   */\n      swap1\n      pop\n        /* \"#utility.yul\":3200:3296   */\n      swap2\n      swap1\n      pop\n      jump\t// out\n        /* \"#utility.yul\":3302:3420   */\n    tag_53:\n        /* \"#utility.yul\":3389:3413   */\n      tag_121\n        /* \"#utility.yul\":3407:3412   */\n      dup2\n        /* \"#utility.yul\":3389:3413   */\n      tag_52\n      jump\t// in\n    tag_121:\n        /* \"#utility.yul\":3384:3387   */\n      dup3\n        /* \"#utility.yul\":3377:3414   */\n      mstore\n        /* \"#utility.yul\":3302:3420   */\n      pop\n      pop\n      jump\t// out\n        /* \"#utility.yul\":3426:3648   */\n    tag_13:\n        /* \"#utility.yul\":3519:3523   */\n      0x00\n        /* \"#utility.yul\":3557:3559   */\n      0x20\n        /* \"#utility.yul\":3546:3555   */\n      dup3\n        /* \"#utility.yul\":3542:3560   */\n      add\n        /* \"#utility.yul\":3534:3560   */\n      swap1\n      pop\n        /* \"#utility.yul\":3570:3641   */\n      tag_123\n        /* \"#utility.yul\":3638:3639   */\n      0x00\n        /* \"#utility.yul\":3627:3636   */\n      dup4\n        /* \"#utility.yul\":3623:3640   */\n      add\n        /* \"#utility.yul\":3614:3620   */\n      dup5\n        /* \"#utility.yul\":3570:3641   */\n      tag_53\n      jump\t// in\n    tag_123:\n        /* \"#utility.yul\":3426:3648   */\n      swap3\n      swap2\n      pop\n      pop\n      jump\t// out\n        /* \"#utility.yul\":3654:3776   */\n    tag_54:\n        /* \"#utility.yul\":3727:3751   */\n      tag_125\n        /* \"#utility.yul\":3745:3750   */\n      dup2\n        /* \"#utility.yul\":3727:3751   */\n      tag_52\n      jump\t// in\n    tag_125:\n        /* \"#utility.yul\":3720:3725   */\n      dup2\n        /* \"#utility.yul\":3717:3752   */\n      eq\n        /* \"#utility.yul\":3707:3770   */\n      tag_126\n      jumpi\n        /* \"#utility.yul\":3766:3767   */\n      0x00\n        /* \"#utility.yul\":3763:3764   */\n      dup1\n        /* \"#utility.yul\":3756:3768   */\n      revert\n        /* \"#utility.yul\":3707:3770   */\n    tag_126:\n        /* \"#utility.yul\":3654:3776   */\n      pop\n      jump\t// out\n        /* \"#utility.yul\":3782:3921   */\n    tag_55:\n        /* \"#utility.yul\":3828:3833   */\n      0x00\n        /* \"#utility.yul\":3866:3872   */\n      dup2\n        /* \"#utility.yul\":3853:3873   */\n      calldataload\n        /* \"#utility.yul\":3844:3873   */\n      swap1\n      pop\n        /* \"#utility.yul\":3882:3915   */\n      tag_128\n        /* \"#utility.yul\":3909:3914   */\n      dup2\n        /* \"#utility.yul\":3882:3915   */\n      tag_54\n      jump\t// in\n    tag_128:\n        /* \"#utility.yul\":3782:3921   */\n      swap3\n      swap2\n      pop\n      pop\n      jump\t// out\n        /* \"#utility.yul\":3927:4256   */\n    tag_16:\n        /* \"#utility.yul\":3986:3992   */\n      0x00\n        /* \"#utility.yul\":4035:4037   */\n      0x20\n        /* \"#utility.yul\":4023:4032   */\n      dup3\n        /* \"#utility.yul\":4014:4021   */\n      dup5\n        /* \"#utility.yul\":4010:4033   */\n      sub\n        /* \"#utility.yul\":4006:4038   */\n      slt\n        /* \"#utility.yul\":4003:4122   */\n      iszero\n      tag_130\n      jumpi\n        /* \"#utility.yul\":4041:4120   */\n      tag_131\n      tag_39\n      jump\t// in\n    tag_131:\n        /* \"#utility.yul\":4003:4122   */\n    tag_130:\n        /* \"#utility.yul\":4161:4162   */\n      0x00\n        /* \"#utility.yul\":4186:4239   */\n      tag_132\n        /* \"#utility.yul\":4231:4238   */\n      dup5\n        /* \"#utility.yul\":4222:4228   */\n      dup3\n        /* \"#utility.yul\":4211:4220   */\n      dup6\n        /* \"#utility.yul\":4207:4229   */\n      add\n        /* \"#utility.yul\":4186:4239   */\n      tag_55\n      jump\t// in\n    tag_132:\n        /* \"#utility.yul\":4176:4239   */\n      swap2\n      pop\n        /* \"#utility.yul\":4132:4249   */\n      pop\n        /* \"#utility.yul\":3927:4256   */\n      swap3\n      swap2\n      pop\n      pop\n      jump\t// out\n        /* \"#utility.yul\":4262:4361   */\n    tag_56:\n        /* \"#utility.yul\":4314:4320   */\n      0x00\n        /* \"#utility.yul\":4348:4353   */\n      dup2\n        /* \"#utility.yul\":4342:4354   */\n      mload\n        /* \"#utility.yul\":4332:4354   */\n      swap1\n      pop\n        /* \"#utility.yul\":4262:4361   */\n      swap2\n      swap1\n      pop\n      jump\t// out\n        /* \"#utility.yul\":4367:4536   */\n    tag_57:\n        /* \"#utility.yul\":4451:4462   */\n      0x00\n        /* \"#utility.yul\":4485:4491   */\n      dup3\n        /* \"#utility.yul\":4480:4483   */\n      dup3\n        /* \"#utility.yul\":4473:4492   */\n      mstore\n        /* \"#utility.yul\":4525:4529   */\n      0x20\n        /* \"#utility.yul\":4520:4523   */\n      dup3\n        /* \"#utility.yul\":4516:4530   */\n      add\n        /* \"#utility.yul\":4501:4530   */\n      swap1\n      pop\n        /* \"#utility.yul\":4367:4536   */\n      swap3\n      swap2\n      pop\n      pop\n      jump\t// out\n        /* \"#utility.yul\":4542:4788   */\n    tag_58:\n        /* \"#utility.yul\":4623:4624   */\n      0x00\n        /* \"#utility.yul\":4633:4746   */\n    tag_136:\n        /* \"#utility.yul\":4647:4653   */\n      dup4\n        /* \"#utility.yul\":4644:4645   */\n      dup2\n        /* \"#utility.yul\":4641:4654   */\n      lt\n        /* \"#utility.yul\":4633:4746   */\n      iszero\n      tag_138\n      jumpi\n        /* \"#utility.yul\":4732:4733   */\n      dup1\n        /* \"#utility.yul\":4727:4730   */\n      dup3\n        /* \"#utility.yul\":4723:4734   */\n      add\n        /* \"#utility.yul\":4717:4735   */\n      mload\n        /* \"#utility.yul\":4713:4714   */\n      dup2\n        /* \"#utility.yul\":4708:4711   */\n      dup5\n        /* \"#utility.yul\":4704:4715   */\n      add\n        /* \"#utility.yul\":4697:4736   */\n      mstore\n        /* \"#utility.yul\":4669:4671   */\n      0x20\n        /* \"#utility.yul\":4666:4667   */\n      dup2\n        /* \"#utility.yul\":4662:4672   */\n      add\n        /* \"#utility.yul\":4657:4672   */\n      swap1\n      pop\n        /* \"#utility.yul\":4633:4746   */\n      jump(tag_136)\n    tag_138:\n        /* \"#utility.yul\":4780:4781   */\n      0x00\n        /* \"#utility.yul\":4771:4777   */\n      dup5\n        /* \"#utility.yul\":4766:4769   */\n      dup5\n        /* \"#utility.yul\":4762:4778   */\n      add\n        /* \"#utility.yul\":4755:4782   */\n      mstore\n        /* \"#utility.yul\":4604:4788   */\n      pop\n        /* \"#utility.yul\":4542:4788   */\n      pop\n      pop\n      pop\n      jump\t// out\n        /* \"#utility.yul\":4794:5171   */\n    tag_59:\n        /* \"#utility.yul\":4882:4885   */\n      0x00\n        /* \"#utility.yul\":4910:4949   */\n      tag_140\n        /* \"#utility.yul\":4943:4948   */\n      dup3\n        /* \"#utility.yul\":4910:4949   */\n      tag_56\n      jump\t// in\n    tag_140:\n        /* \"#utility.yul\":4965:5036   */\n      tag_141\n        /* \"#utility.yul\":5029:5035   */\n      dup2\n        /* \"#utility.yul\":5024:5027   */\n      dup6\n        /* \"#utility.yul\":4965:5036   */\n      tag_57\n      jump\t// in\n    tag_141:\n        /* \"#utility.yul\":4958:5036   */\n      swap4\n      pop\n        /* \"#utility.yul\":5045:5110   */\n      tag_142\n        /* \"#utility.yul\":5103:5109   */\n      dup2\n        /* \"#utility.yul\":5098:5101   */\n      dup6\n        /* \"#utility.yul\":5091:5095   */\n      0x20\n        /* \"#utility.yul\":5084:5089   */\n      dup7\n        /* \"#utility.yul\":5080:5096   */\n      add\n        /* \"#utility.yul\":5045:5110   */\n      tag_58\n      jump\t// in\n    tag_142:\n        /* \"#utility.yul\":5135:5164   */\n      tag_143\n        /* \"#utility.yul\":5157:5163   */\n      dup2\n        /* \"#utility.yul\":5135:5164   */\n      tag_43\n      jump\t// in\n    tag_143:\n        /* \"#utility.yul\":5130:5133   */\n      dup5\n        /* \"#utility.yul\":5126:5165   */\n      add\n        /* \"#utility.yul\":5119:5165   */\n      swap2\n      pop\n        /* \"#utility.yul\":4886:5171   */\n      pop\n        /* \"#utility.yul\":4794:5171   */\n      swap3\n      swap2\n      pop\n      pop\n      jump\t// out\n        /* \"#utility.yul\":5177:5490   */\n    tag_19:\n        /* \"#utility.yul\":5290:5294   */\n      0x00\n        /* \"#utility.yul\":5328:5330   */\n      0x20\n        /* \"#utility.yul\":5317:5326   */\n      dup3\n        /* \"#utility.yul\":5313:5331   */\n      add\n        /* \"#utility.yul\":5305:5331   */\n      swap1\n      pop\n        /* \"#utility.yul\":5377:5386   */\n      dup2\n        /* \"#utility.yul\":5371:5375   */\n      dup2\n        /* \"#utility.yul\":5367:5387   */\n      sub\n        /* \"#utility.yul\":5363:5364   */\n      0x00\n        /* \"#utility.yul\":5352:5361   */\n      dup4\n        /* \"#utility.yul\":5348:5365   */\n      add\n        /* \"#utility.yul\":5341:5388   */\n      mstore\n        /* \"#utility.yul\":5405:5483   */\n      tag_145\n        /* \"#utility.yul\":5478:5482   */\n      dup2\n        /* \"#utility.yul\":5469:5475   */\n      dup5\n        /* \"#utility.yul\":5405:5483   */\n      tag_59\n      jump\t// in\n    tag_145:\n        /* \"#utility.yul\":5397:5483   */\n      swap1\n      pop\n        /* \"#utility.yul\":5177:5490   */\n      swap3\n      swap2\n      pop\n      pop\n      jump\t// out\n        /* \"#utility.yul\":5496:5718   */\n    tag_60:\n        /* \"#utility.yul\":5636:5670   */\n      0x4f6e6c792061646d696e2063616e2061636365737320746869732066756e6374\n        /* \"#utility.yul\":5632:5633   */\n      0x00\n        /* \"#utility.yul\":5624:5630   */\n      dup3\n        /* \"#utility.yul\":5620:5634   */\n      add\n        /* \"#utility.yul\":5613:5671   */\n      mstore\n        /* \"#utility.yul\":5705:5710   */\n      0x696f6e0000000000000000000000000000000000000000000000000000000000\n        /* \"#utility.yul\":5700:5702   */\n      0x20\n        /* \"#utility.yul\":5692:5698   */\n      dup3\n        /* \"#utility.yul\":5688:5703   */\n      add\n        /* \"#utility.yul\":5681:5711   */\n      mstore\n        /* \"#utility.yul\":5496:5718   */\n      pop\n      jump\t// out\n        /* \"#utility.yul\":5724:6090   */\n    tag_61:\n        /* \"#utility.yul\":5866:5869   */\n      0x00\n        /* \"#utility.yul\":5887:5954   */\n      tag_148\n        /* \"#utility.yul\":5951:5953   */\n      0x23\n        /* \"#utility.yul\":5946:5949   */\n      dup4\n        /* \"#utility.yul\":5887:5954   */\n      tag_57\n      jump\t// in\n    tag_148:\n        /* \"#utility.yul\":5880:5954   */\n      swap2\n      pop\n        /* \"#utility.yul\":5963:6056   */\n      tag_149\n        /* \"#utility.yul\":6052:6055   */\n      dup3\n        /* \"#utility.yul\":5963:6056   */\n      tag_60\n      jump\t// in\n    tag_149:\n        /* \"#utility.yul\":6081:6083   */\n      0x40\n        /* \"#utility.yul\":6076:6079   */\n      dup3\n        /* \"#utility.yul\":6072:6084   */\n      add\n        /* \"#utility.yul\":6065:6084   */\n      swap1\n      pop\n        /* \"#utility.yul\":5724:6090   */\n      swap2\n      swap1\n      pop\n      jump\t// out\n        /* \"#utility.yul\":6096:6515   */\n    tag_23:\n        /* \"#utility.yul\":6262:6266   */\n      0x00\n        /* \"#utility.yul\":6300:6302   */\n      0x20\n        /* \"#utility.yul\":6289:6298   */\n      dup3\n        /* \"#utility.yul\":6285:6303   */\n      add\n        /* \"#utility.yul\":6277:6303   */\n      swap1\n      pop\n        /* \"#utility.yul\":6349:6358   */\n      dup2\n        /* \"#utility.yul\":6343:6347   */\n      dup2\n        /* \"#utility.yul\":6339:6359   */\n      sub\n        /* \"#utility.yul\":6335:6336   */\n      0x00\n        /* \"#utility.yul\":6324:6333   */\n      dup4\n        /* \"#utility.yul\":6320:6337   */\n      add\n        /* \"#utility.yul\":6313:6360   */\n      mstore\n        /* \"#utility.yul\":6377:6508   */\n      tag_151\n        /* \"#utility.yul\":6503:6507   */\n      dup2\n        /* \"#utility.yul\":6377:6508   */\n      tag_61\n      jump\t// in\n    tag_151:\n        /* \"#utility.yul\":6369:6508   */\n      swap1\n      pop\n        /* \"#utility.yul\":6096:6515   */\n      swap2\n      swap1\n      pop\n      jump\t// out\n        /* \"#utility.yul\":6521:6701   */\n    tag_62:\n        /* \"#utility.yul\":6569:6646   */\n      0x4e487b7100000000000000000000000000000000000000000000000000000000\n        /* \"#utility.yul\":6566:6567   */\n      0x00\n        /* \"#utility.yul\":6559:6647   */\n      mstore\n        /* \"#utility.yul\":6666:6670   */\n      0x22\n        /* \"#utility.yul\":6663:6664   */\n      0x04\n        /* \"#utility.yul\":6656:6671   */\n      mstore\n        /* \"#utility.yul\":6690:6694   */\n      0x24\n        /* \"#utility.yul\":6687:6688   */\n      0x00\n        /* \"#utility.yul\":6680:6695   */\n      revert\n        /* \"#utility.yul\":6707:7027   */\n    tag_33:\n        /* \"#utility.yul\":6751:6757   */\n      0x00\n        /* \"#utility.yul\":6788:6789   */\n      0x02\n        /* \"#utility.yul\":6782:6786   */\n      dup3\n        /* \"#utility.yul\":6778:6790   */\n      div\n        /* \"#utility.yul\":6768:6790   */\n      swap1\n      pop\n        /* \"#utility.yul\":6835:6836   */\n      0x01\n        /* \"#utility.yul\":6829:6833   */\n      dup3\n        /* \"#utility.yul\":6825:6837   */\n      and\n        /* \"#utility.yul\":6856:6874   */\n      dup1\n        /* \"#utility.yul\":6846:6927   */\n      tag_154\n      jumpi\n        /* \"#utility.yul\":6912:6916   */\n      0x7f\n        /* \"#utility.yul\":6904:6910   */\n      dup3\n        /* \"#utility.yul\":6900:6917   */\n      and\n        /* \"#utility.yul\":6890:6917   */\n      swap2\n      pop\n        /* \"#utility.yul\":6846:6927   */\n    tag_154:\n        /* \"#utility.yul\":6974:6976   */\n      0x20\n        /* \"#utility.yul\":6966:6972   */\n      dup3\n        /* \"#utility.yul\":6963:6977   */\n      lt\n        /* \"#utility.yul\":6943:6961   */\n      dup2\n        /* \"#utility.yul\":6940:6978   */\n      sub\n        /* \"#utility.yul\":6937:7021   */\n      tag_155\n      jumpi\n        /* \"#utility.yul\":6993:7011   */\n      tag_156\n      tag_62\n      jump\t// in\n    tag_156:\n        /* \"#utility.yul\":6937:7021   */\n    tag_155:\n        /* \"#utility.yul\":6758:7027   */\n      pop\n        /* \"#utility.yul\":6707:7027   */\n      swap2\n      swap1\n      pop\n      jump\t// out\n        /* \"#utility.yul\":7033:7174   */\n    tag_63:\n        /* \"#utility.yul\":7082:7086   */\n      0x00\n        /* \"#utility.yul\":7105:7108   */\n      dup2\n        /* \"#utility.yul\":7097:7108   */\n      swap1\n      pop\n        /* \"#utility.yul\":7128:7131   */\n      dup2\n        /* \"#utility.yul\":7125:7126   */\n      0x00\n        /* \"#utility.yul\":7118:7132   */\n      mstore\n        /* \"#utility.yul\":7162:7166   */\n      0x20\n        /* \"#utility.yul\":7159:7160   */\n      0x00\n        /* \"#utility.yul\":7149:7167   */\n      keccak256\n        /* \"#utility.yul\":7141:7167   */\n      swap1\n      pop\n        /* \"#utility.yul\":7033:7174   */\n      swap2\n      swap1\n      pop\n      jump\t// out\n        /* \"#utility.yul\":7180:7273   */\n    tag_64:\n        /* \"#utility.yul\":7217:7223   */\n      0x00\n        /* \"#utility.yul\":7264:7266   */\n      0x20\n        /* \"#utility.yul\":7259:7261   */\n      0x1f\n        /* \"#utility.yul\":7252:7257   */\n      dup4\n        /* \"#utility.yul\":7248:7262   */\n      add\n        /* \"#utility.yul\":7244:7267   */\n      div\n        /* \"#utility.yul\":7234:7267   */\n      swap1\n      pop\n        /* \"#utility.yul\":7180:7273   */\n      swap2\n      swap1\n      pop\n      jump\t// out\n        /* \"#utility.yul\":7279:7386   */\n    tag_65:\n        /* \"#utility.yul\":7323:7331   */\n      0x00\n        /* \"#utility.yul\":7373:7378   */\n      dup3\n        /* \"#utility.yul\":7367:7371   */\n      dup3\n        /* \"#utility.yul\":7363:7379   */\n      shl\n        /* \"#utility.yul\":7342:7379   */\n      swap1\n      pop\n        /* \"#utility.yul\":7279:7386   */\n      swap3\n      swap2\n      pop\n      pop\n      jump\t// out\n        /* \"#utility.yul\":7392:7785   */\n    tag_66:\n        /* \"#utility.yul\":7461:7467   */\n      0x00\n        /* \"#utility.yul\":7511:7512   */\n      0x08\n        /* \"#utility.yul\":7499:7509   */\n      dup4\n        /* \"#utility.yul\":7495:7513   */\n      mul\n        /* \"#utility.yul\":7534:7631   */\n      tag_161\n        /* \"#utility.yul\":7564:7630   */\n      0xffffffffffffffffffffffffffffffffffffffffffffffffffffffffffffffff\n        /* \"#utility.yul\":7553:7562   */\n      dup3\n        /* \"#utility.yul\":7534:7631   */\n      tag_65\n      jump\t// in\n    tag_161:\n        /* \"#utility.yul\":7652:7691   */\n      tag_162\n        /* \"#utility.yul\":7682:7690   */\n      dup7\n        /* \"#utility.yul\":7671:7680   */\n      dup4\n        /* \"#utility.yul\":7652:7691   */\n      tag_65\n      jump\t// in\n    tag_162:\n        /* \"#utility.yul\":7640:7691   */\n      swap6\n      pop\n        /* \"#utility.yul\":7724:7728   */\n      dup1\n        /* \"#utility.yul\":7720:7729   */\n      not\n        /* \"#utility.yul\":7713:7718   */\n      dup5\n        /* \"#utility.yul\":7709:7730   */\n      and\n        /* \"#utility.yul\":7700:7730   */\n      swap4\n      pop\n        /* \"#utility.yul\":7773:7777   */\n      dup1\n        /* \"#utility.yul\":7763:7771   */\n      dup7\n        /* \"#utility.yul\":7759:7778   */\n      and\n        /* \"#utility.yul\":7752:7757   */\n      dup5\n        /* \"#utility.yul\":7749:7779   */\n      or\n        /* \"#utility.yul\":7739:7779   */\n      swap3\n      pop\n        /* \"#utility.yul\":7468:7785   */\n      pop\n      pop\n        /* \"#utility.yul\":7392:7785   */\n      swap4\n      swap3\n      pop\n      pop\n      pop\n      jump\t// out\n        /* \"#utility.yul\":7791:7868   */\n    tag_67:\n        /* \"#utility.yul\":7828:7835   */\n      0x00\n        /* \"#utility.yul\":7857:7862   */\n      dup2\n        /* \"#utility.yul\":7846:7862   */\n      swap1\n      pop\n        /* \"#utility.yul\":7791:7868   */\n      swap2\n      swap1\n      pop\n      jump\t// out\n        /* \"#utility.yul\":7874:7934   */\n    tag_68:\n        /* \"#utility.yul\":7902:7905   */\n      0x00\n        /* \"#utility.yul\":7923:7928   */\n      dup2\n        /* \"#utility.yul\":7916:7928   */\n      swap1\n      pop\n        /* \"#utility.yul\":7874:7934   */\n      swap2\n      swap1\n      pop\n      jump\t// out\n        /* \"#utility.yul\":7940:8082   */\n    tag_69:\n        /* \"#utility.yul\":7990:7999   */\n      0x00\n        /* \"#utility.yul\":8023:8076   */\n      tag_166\n        /* \"#utility.yul\":8041:8075   */\n      tag_167\n        /* \"#utility.yul\":8050:8074   */\n      tag_168\n        /* \"#utility.yul\":8068:8073   */\n      dup5\n        /* \"#utility.yul\":8050:8074   */\n      tag_67\n      jump\t// in\n    tag_168:\n        /* \"#utility.yul\":8041:8075   */\n      tag_68\n      jump\t// in\n    tag_167:\n        /* \"#utility.yul\":8023:8076   */\n      tag_67\n      jump\t// in\n    tag_166:\n        /* \"#utility.yul\":8010:8076   */\n      swap1\n      pop\n        /* \"#utility.yul\":7940:8082   */\n      swap2\n      swap1\n      pop\n      jump\t// out\n        /* \"#utility.yul\":8088:8163   */\n    tag_70:\n        /* \"#utility.yul\":8131:8134   */\n      0x00\n        /* \"#utility.yul\":8152:8157   */\n      dup2\n        /* \"#utility.yul\":8145:8157   */\n      swap1\n      pop\n        /* \"#utility.yul\":8088:8163   */\n      swap2\n      swap1\n      pop\n      jump\t// out\n        /* \"#utility.yul\":8169:8438   */\n    tag_71:\n        /* \"#utility.yul\":8279:8318   */\n      tag_171\n        /* \"#utility.yul\":8310:8317   */\n      dup4\n        /* \"#utility.yul\":8279:8318   */\n      tag_69\n      jump\t// in\n    tag_171:\n        /* \"#utility.yul\":8340:8431   */\n      tag_172\n        /* \"#utility.yul\":8389:8430   */\n      tag_173\n        /* \"#utility.yul\":8413:8429   */\n      dup3\n        /* \"#utility.yul\":8389:8430   */\n      tag_70\n      jump\t// in\n    tag_173:\n        /* \"#utility.yul\":8381:8387   */\n      dup5\n        /* \"#utility.yul\":8374:8378   */\n      dup5\n        /* \"#utility.yul\":8368:8379   */\n      sload\n        /* \"#utility.yul\":8340:8431   */\n      tag_66\n      jump\t// in\n    tag_172:\n        /* \"#utility.yul\":8334:8338   */\n      dup3\n        /* \"#utility.yul\":8327:8432   */\n      sstore\n        /* \"#utility.yul\":8245:8438   */\n      pop\n        /* \"#utility.yul\":8169:8438   */\n      pop\n      pop\n      pop\n      jump\t// out\n        /* \"#utility.yul\":8444:8517   */\n    tag_72:\n        /* \"#utility.yul\":8489:8492   */\n      0x00\n        /* \"#utility.yul\":8444:8517   */\n      swap1\n      jump\t// out\n        /* \"#utility.yul\":8523:8712   */\n    tag_73:\n        /* \"#utility.yul\":8600:8632   */\n      tag_176\n      tag_72\n      jump\t// in\n    tag_176:\n        /* \"#utility.yul\":8641:8706   */\n      tag_177\n        /* \"#utility.yul\":8699:8705   */\n      dup2\n        /* \"#utility.yul\":8691:8697   */\n      dup5\n        /* \"#utility.yul\":8685:8689   */\n      dup5\n        /* \"#utility.yul\":8641:8706   */\n      tag_71\n      jump\t// in\n    tag_177:\n        /* \"#utility.yul\":8576:8712   */\n      pop\n        /* \"#utility.yul\":8523:8712   */\n      pop\n      pop\n      jump\t// out\n        /* \"#utility.yul\":8718:8904   */\n    tag_74:\n        /* \"#utility.yul\":8778:8898   */\n    tag_179:\n        /* \"#utility.yul\":8795:8798   */\n      dup2\n        /* \"#utility.yul\":8788:8793   */\n      dup2\n        /* \"#utility.yul\":8785:8799   */\n      lt\n        /* \"#utility.yul\":8778:8898   */\n      iszero\n      tag_181\n      jumpi\n        /* \"#utility.yul\":8849:8888   */\n      tag_182\n        /* \"#utility.yul\":8886:8887   */\n      0x00\n        /* \"#utility.yul\":8879:8884   */\n      dup3\n        /* \"#utility.yul\":8849:8888   */\n      tag_73\n      jump\t// in\n    tag_182:\n        /* \"#utility.yul\":8822:8823   */\n      0x01\n        /* \"#utility.yul\":8815:8820   */\n      dup2\n        /* \"#utility.yul\":8811:8824   */\n      add\n        /* \"#utility.yul\":8802:8824   */\n      swap1\n      pop\n        /* \"#utility.yul\":8778:8898   */\n      jump(tag_179)\n    tag_181:\n        /* \"#utility.yul\":8718:8904   */\n      pop\n      pop\n      jump\t// out\n        /* \"#utility.yul\":8910:9453   */\n    tag_75:\n        /* \"#utility.yul\":9011:9013   */\n      0x1f\n        /* \"#utility.yul\":9006:9009   */\n      dup3\n        /* \"#utility.yul\":9003:9014   */\n      gt\n        /* \"#utility.yul\":9000:9446   */\n      iszero\n      tag_184\n      jumpi\n        /* \"#utility.yul\":9045:9083   */\n      tag_185\n        /* \"#utility.yul\":9077:9082   */\n      dup2\n        /* \"#utility.yul\":9045:9083   */\n      tag_63\n      jump\t// in\n    tag_185:\n        /* \"#utility.yul\":9129:9158   */\n      tag_186\n        /* \"#utility.yul\":9147:9157   */\n      dup5\n        /* \"#utility.yul\":9129:9158   */\n      tag_64\n      jump\t// in\n    tag_186:\n        /* \"#utility.yul\":9119:9127   */\n      dup2\n        /* \"#utility.yul\":9115:9159   */\n      add\n        /* \"#utility.yul\":9312:9314   */\n      0x20\n        /* \"#utility.yul\":9300:9310   */\n      dup6\n        /* \"#utility.yul\":9297:9315   */\n      lt\n        /* \"#utility.yul\":9294:9343   */\n      iszero\n      tag_187\n      jumpi\n        /* \"#utility.yul\":9333:9341   */\n      dup2\n        /* \"#utility.yul\":9318:9341   */\n      swap1\n      pop\n        /* \"#utility.yul\":9294:9343   */\n    tag_187:\n        /* \"#utility.yul\":9356:9436   */\n      tag_188\n        /* \"#utility.yul\":9412:9434   */\n      tag_189\n        /* \"#utility.yul\":9430:9433   */\n      dup6\n        /* \"#utility.yul\":9412:9434   */\n      tag_64\n      jump\t// in\n    tag_189:\n        /* \"#utility.yul\":9402:9410   */\n      dup4\n        /* \"#utility.yul\":9398:9435   */\n      add\n        /* \"#utility.yul\":9385:9396   */\n      dup3\n        /* \"#utility.yul\":9356:9436   */\n      tag_74\n      jump\t// in\n    tag_188:\n        /* \"#utility.yul\":9015:9446   */\n      pop\n      pop\n        /* \"#utility.yul\":9000:9446   */\n    tag_184:\n        /* \"#utility.yul\":8910:9453   */\n      pop\n      pop\n      pop\n      jump\t// out\n        /* \"#utility.yul\":9459:9576   */\n    tag_76:\n        /* \"#utility.yul\":9513:9521   */\n      0x00\n        /* \"#utility.yul\":9563:9568   */\n      dup3\n        /* \"#utility.yul\":9557:9561   */\n      dup3\n        /* \"#utility.yul\":9553:9569   */\n      shr\n        /* \"#utility.yul\":9532:9569   */\n      swap1\n      pop\n        /* \"#utility.yul\":9459:9576   */\n      swap3\n      swap2\n      pop\n      pop\n      jump\t// out\n        /* \"#utility.yul\":9582:9751   */\n    tag_77:\n        /* \"#utility.yul\":9626:9632   */\n      0x00\n        /* \"#utility.yul\":9659:9710   */\n      tag_192\n        /* \"#utility.yul\":9707:9708   */\n      0x00\n        /* \"#utility.yul\":9703:9709   */\n      not\n        /* \"#utility.yul\":9695:9700   */\n      dup5\n        /* \"#utility.yul\":9692:9693   */\n      0x08\n        /* \"#utility.yul\":9688:9701   */\n      mul\n        /* \"#utility.yul\":9659:9710   */\n      tag_76\n      jump\t// in\n    tag_192:\n        /* \"#utility.yul\":9655:9711   */\n      not\n        /* \"#utility.yul\":9740:9744   */\n      dup1\n        /* \"#utility.yul\":9734:9738   */\n      dup4\n        /* \"#utility.yul\":9730:9745   */\n      and\n        /* \"#utility.yul\":9720:9745   */\n      swap2\n      pop\n        /* \"#utility.yul\":9633:9751   */\n      pop\n        /* \"#utility.yul\":9582:9751   */\n      swap3\n      swap2\n      pop\n      pop\n      jump\t// out\n        /* \"#utility.yul\":9756:10051   */\n    tag_78:\n        /* \"#utility.yul\":9832:9836   */\n      0x00\n        /* \"#utility.yul\":9978:10007   */\n      tag_194\n        /* \"#utility.yul\":10003:10006   */\n      dup4\n        /* \"#utility.yul\":9997:10001   */\n      dup4\n        /* \"#utility.yul\":9978:10007   */\n      tag_77\n      jump\t// in\n    tag_194:\n        /* \"#utility.yul\":9970:10007   */\n      swap2\n      pop\n        /* \"#utility.yul\":10040:10043   */\n      dup3\n        /* \"#utility.yul\":10037:10038   */\n      0x02\n        /* \"#utility.yul\":10033:10044   */\n      mul\n        /* \"#utility.yul\":10027:10031   */\n      dup3\n        /* \"#utility.yul\":10024:10045   */\n      or\n        /* \"#utility.yul\":10016:10045   */\n      swap1\n      pop\n        /* \"#utility.yul\":9756:10051   */\n      swap3\n      swap2\n      pop\n      pop\n      jump\t// out\n        /* \"#utility.yul\":10056:11451   */\n    tag_26:\n        /* \"#utility.yul\":10173:10210   */\n      tag_196\n        /* \"#utility.yul\":10206:10209   */\n      dup3\n        /* \"#utility.yul\":10173:10210   */\n      tag_56\n      jump\t// in\n    tag_196:\n        /* \"#utility.yul\":10275:10293   */\n      0xffffffffffffffff\n        /* \"#utility.yul\":10267:10273   */\n      dup2\n        /* \"#utility.yul\":10264:10294   */\n      gt\n        /* \"#utility.yul\":10261:10317   */\n      iszero\n      tag_197\n      jumpi\n        /* \"#utility.yul\":10297:10315   */\n      tag_198\n      tag_44\n      jump\t// in\n    tag_198:\n        /* \"#utility.yul\":10261:10317   */\n    tag_197:\n        /* \"#utility.yul\":10341:10379   */\n      tag_199\n        /* \"#utility.yul\":10373:10377   */\n      dup3\n        /* \"#utility.yul\":10367:10378   */\n      sload\n        /* \"#utility.yul\":10341:10379   */\n      tag_33\n      jump\t// in\n    tag_199:\n        /* \"#utility.yul\":10426:10493   */\n      tag_200\n        /* \"#utility.yul\":10486:10492   */\n      dup3\n        /* \"#utility.yul\":10478:10484   */\n      dup3\n        /* \"#utility.yul\":10472:10476   */\n      dup6\n        /* \"#utility.yul\":10426:10493   */\n      tag_75\n      jump\t// in\n    tag_200:\n        /* \"#utility.yul\":10520:10521   */\n      0x00\n        /* \"#utility.yul\":10544:10548   */\n      0x20\n        /* \"#utility.yul\":10531:10548   */\n      swap1\n      pop\n        /* \"#utility.yul\":10576:10578   */\n      0x1f\n        /* \"#utility.yul\":10568:10574   */\n      dup4\n        /* \"#utility.yul\":10565:10579   */\n      gt\n        /* \"#utility.yul\":10593:10594   */\n      0x01\n        /* \"#utility.yul\":10588:11206   */\n      dup2\n      eq\n      tag_202\n      jumpi\n        /* \"#utility.yul\":11250:11251   */\n      0x00\n        /* \"#utility.yul\":11267:11273   */\n      dup5\n        /* \"#utility.yul\":11264:11341   */\n      iszero\n      tag_203\n      jumpi\n        /* \"#utility.yul\":11316:11325   */\n      dup3\n        /* \"#utility.yul\":11311:11314   */\n      dup8\n        /* \"#utility.yul\":11307:11326   */\n      add\n        /* \"#utility.yul\":11301:11327   */\n      mload\n        /* \"#utility.yul\":11292:11327   */\n      swap1\n      pop\n        /* \"#utility.yul\":11264:11341   */\n    tag_203:\n        /* \"#utility.yul\":11367:11434   */\n      tag_204\n        /* \"#utility.yul\":11427:11433   */\n      dup6\n        /* \"#utility.yul\":11420:11425   */\n      dup3\n        /* \"#utility.yul\":11367:11434   */\n      tag_78\n      jump\t// in\n    tag_204:\n        /* \"#utility.yul\":11361:11365   */\n      dup7\n        /* \"#utility.yul\":11354:11435   */\n      sstore\n        /* \"#utility.yul\":11223:11445   */\n      pop\n        /* \"#utility.yul\":10558:11445   */\n      jump(tag_201)\n        /* \"#utility.yul\":10588:11206   */\n    tag_202:\n        /* \"#utility.yul\":10640:10644   */\n      0x1f\n        /* \"#utility.yul\":10636:10645   */\n      not\n        /* \"#utility.yul\":10628:10634   */\n      dup5\n        /* \"#utility.yul\":10624:10646   */\n      and\n        /* \"#utility.yul\":10674:10711   */\n      tag_205\n        /* \"#utility.yul\":10706:10710   */\n      dup7\n        /* \"#utility.yul\":10674:10711   */\n      tag_63\n      jump\t// in\n    tag_205:\n        /* \"#utility.yul\":10733:10734   */\n      0x00\n        /* \"#utility.yul\":10747:10955   */\n    tag_206:\n        /* \"#utility.yul\":10761:10768   */\n      dup3\n        /* \"#utility.yul\":10758:10759   */\n      dup2\n        /* \"#utility.yul\":10755:10769   */\n      lt\n        /* \"#utility.yul\":10747:10955   */\n      iszero\n      tag_208\n      jumpi\n        /* \"#utility.yul\":10840:10849   */\n      dup5\n        /* \"#utility.yul\":10835:10838   */\n      dup10\n        /* \"#utility.yul\":10831:10850   */\n      add\n        /* \"#utility.yul\":10825:10851   */\n      mload\n        /* \"#utility.yul\":10817:10823   */\n      dup3\n        /* \"#utility.yul\":10810:10852   */\n      sstore\n        /* \"#utility.yul\":10891:10892   */\n      0x01\n        /* \"#utility.yul\":10883:10889   */\n      dup3\n        /* \"#utility.yul\":10879:10893   */\n      add\n        /* \"#utility.yul\":10869:10893   */\n      swap2\n      pop\n        /* \"#utility.yul\":10938:10940   */\n      0x20\n        /* \"#utility.yul\":10927:10936   */\n      dup6\n        /* \"#utility.yul\":10923:10941   */\n      add\n        /* \"#utility.yul\":10910:10941   */\n      swap5\n      pop\n        /* \"#utility.yul\":10784:10788   */\n      0x20\n        /* \"#utility.yul\":10781:10782   */\n      dup2\n        /* \"#utility.yul\":10777:10789   */\n      add\n        /* \"#utility.yul\":10772:10789   */\n      swap1\n      pop\n        /* \"#utility.yul\":10747:10955   */\n      jump(tag_206)\n    tag_208:\n        /* \"#utility.yul\":10983:10989   */\n      dup7\n        /* \"#utility.yul\":10974:10981   */\n      dup4\n        /* \"#utility.yul\":10971:10990   */\n      lt\n        /* \"#utility.yul\":10968:11147   */\n      iszero\n      tag_209\n      jumpi\n        /* \"#utility.yul\":11041:11050   */\n      dup5\n        /* \"#utility.yul\":11036:11039   */\n      dup10\n        /* \"#utility.yul\":11032:11051   */\n      add\n        /* \"#utility.yul\":11026:11052   */\n      mload\n        /* \"#utility.yul\":11084:11132   */\n      tag_210\n        /* \"#utility.yul\":11126:11130   */\n      0x1f\n        /* \"#utility.yul\":11118:11124   */\n      dup10\n        /* \"#utility.yul\":11114:11131   */\n      and\n        /* \"#utility.yul\":11103:11112   */\n      dup3\n        /* \"#utility.yul\":11084:11132   */\n      tag_77\n      jump\t// in\n    tag_210:\n        /* \"#utility.yul\":11076:11082   */\n      dup4\n        /* \"#utility.yul\":11069:11133   */\n      sstore\n        /* \"#utility.yul\":10991:11147   */\n      pop\n        /* \"#utility.yul\":10968:11147   */\n    tag_209:\n        /* \"#utility.yul\":11193:11194   */\n      0x01\n        /* \"#utility.yul\":11189:11190   */\n      0x02\n        /* \"#utility.yul\":11181:11187   */\n      dup9\n        /* \"#utility.yul\":11177:11191   */\n      mul\n        /* \"#utility.yul\":11173:11195   */\n      add\n        /* \"#utility.yul\":11167:11171   */\n      dup9\n        /* \"#utility.yul\":11160:11196   */\n      sstore\n        /* \"#utility.yul\":10595:11206   */\n      pop\n      pop\n      pop\n        /* \"#utility.yul\":10558:11445   */\n    tag_201:\n      pop\n        /* \"#utility.yul\":10148:11451   */\n      pop\n      pop\n      pop\n        /* \"#utility.yul\":10056:11451   */\n      pop\n      pop\n      jump\t// out\n        /* \"#utility.yul\":11457:11686   */\n    tag_79:\n        /* \"#utility.yul\":11597:11631   */\n      0x596f7520617265206e6f7420617574686f72697a656420746f20616363657373\n        /* \"#utility.yul\":11593:11594   */\n      0x00\n        /* \"#utility.yul\":11585:11591   */\n      dup3\n        /* \"#utility.yul\":11581:11595   */\n      add\n        /* \"#utility.yul\":11574:11632   */\n      mstore\n        /* \"#utility.yul\":11666:11678   */\n      0x2074686973206461746100000000000000000000000000000000000000000000\n        /* \"#utility.yul\":11661:11663   */\n      0x20\n        /* \"#utility.yul\":11653:11659   */\n      dup3\n        /* \"#utility.yul\":11649:11664   */\n      add\n        /* \"#utility.yul\":11642:11679   */\n      mstore\n        /* \"#utility.yul\":11457:11686   */\n      pop\n      jump\t// out\n        /* \"#utility.yul\":11692:12058   */\n    tag_80:\n        /* \"#utility.yul\":11834:11837   */\n      0x00\n        /* \"#utility.yul\":11855:11922   */\n      tag_213\n        /* \"#utility.yul\":11919:11921   */\n      0x2a\n        /* \"#utility.yul\":11914:11917   */\n      dup4\n        /* \"#utility.yul\":11855:11922   */\n      tag_57\n      jump\t// in\n    tag_213:\n        /* \"#utility.yul\":11848:11922   */\n      swap2\n      pop\n        /* \"#utility.yul\":11931:12024   */\n      tag_214\n        /* \"#utility.yul\":12020:12023   */\n      dup3\n        /* \"#utility.yul\":11931:12024   */\n      tag_79\n      jump\t// in\n    tag_214:\n        /* \"#utility.yul\":12049:12051   */\n      0x40\n        /* \"#utility.yul\":12044:12047   */\n      dup3\n        /* \"#utility.yul\":12040:12052   */\n      add\n        /* \"#utility.yul\":12033:12052   */\n      swap1\n      pop\n        /* \"#utility.yul\":11692:12058   */\n      swap2\n      swap1\n      pop\n      jump\t// out\n        /* \"#utility.yul\":12064:12483   */\n    tag_31:\n        /* \"#utility.yul\":12230:12234   */\n      0x00\n        /* \"#utility.yul\":12268:12270   */\n      0x20\n        /* \"#utility.yul\":12257:12266   */\n      dup3\n        /* \"#utility.yul\":12253:12271   */\n      add\n        /* \"#utility.yul\":12245:12271   */\n      swap1\n      pop\n        /* \"#utility.yul\":12317:12326   */\n      dup2\n        /* \"#utility.yul\":12311:12315   */\n      dup2\n        /* \"#utility.yul\":12307:12327   */\n      sub\n        /* \"#utility.yul\":12303:12304   */\n      0x00\n        /* \"#utility.yul\":12292:12301   */\n      dup4\n        /* \"#utility.yul\":12288:12305   */\n      add\n        /* \"#utility.yul\":12281:12328   */\n      mstore\n        /* \"#utility.yul\":12345:12476   */\n      tag_216\n        /* \"#utility.yul\":12471:12475   */\n      dup2\n        /* \"#utility.yul\":12345:12476   */\n      tag_80\n      jump\t// in\n    tag_216:\n        /* \"#utility.yul\":12337:12476   */\n      swap1\n      pop\n        /* \"#utility.yul\":12064:12483   */\n      swap2\n      swap1\n      pop\n      jump\t// out\n\n    auxdata: 0xa26469706673582212204c9cd722b6797f93bfd808d59c65dd755619aba1d091443cf86062a14f7ada8764736f6c63430008120033\n}\n",
				"bytecode": {
					"linkReferences": {},
					"object": "608060405234801561001057600080fd5b50336000806101000a81548173ffffffffffffffffffffffffffffffffffffffff021916908373ffffffffffffffffffffffffffffffffffffffff160217905550610a82806100606000396000f3fe608060405234801561001057600080fd5b50600436106100415760003560e01c806350aed37914610046578063f851a44014610062578063ffc9896b14610080575b600080fd5b610060600480360381019061005b91906104a1565b6100b0565b005b61006a61018e565b604051610077919061052b565b60405180910390f35b61009a60048036038101906100959190610572565b6101b2565b6040516100a7919061061e565b60405180910390f35b60008054906101000a900473ffffffffffffffffffffffffffffffffffffffff1673ffffffffffffffffffffffffffffffffffffffff163373ffffffffffffffffffffffffffffffffffffffff161461013e576040517f08c379a0000000000000000000000000000000000000000000000000000000008152600401610135906106b2565b60405180910390fd5b80600160003373ffffffffffffffffffffffffffffffffffffffff1673ffffffffffffffffffffffffffffffffffffffff168152602001908152602001600020908161018a91906108e8565b5050565b60008054906101000a900473ffffffffffffffffffffffffffffffffffffffff1681565b60608173ffffffffffffffffffffffffffffffffffffffff163373ffffffffffffffffffffffffffffffffffffffff161480610239575060008054906101000a900473ffffffffffffffffffffffffffffffffffffffff1673ffffffffffffffffffffffffffffffffffffffff163373ffffffffffffffffffffffffffffffffffffffff16145b610278576040517f08c379a000000000000000000000000000000000000000000000000000000000815260040161026f90610a2c565b60405180910390fd5b600160008373ffffffffffffffffffffffffffffffffffffffff1673ffffffffffffffffffffffffffffffffffffffff16815260200190815260200160002080546102c290610701565b80601f01602080910402602001604051908101604052809291908181526020018280546102ee90610701565b801561033b5780601f106103105761010080835404028352916020019161033b565b820191906000526020600020905b81548152906001019060200180831161031e57829003601f168201915b50505050509050919050565b6000604051905090565b600080fd5b600080fd5b600080fd5b600080fd5b6000601f19601f8301169050919050565b7f4e487b7100000000000000000000000000000000000000000000000000000000600052604160045260246000fd5b6103ae82610365565b810181811067ffffffffffffffff821117156103cd576103cc610376565b5b80604052505050565b60006103e0610347565b90506103ec82826103a5565b919050565b600067ffffffffffffffff82111561040c5761040b610376565b5b61041582610365565b9050602081019050919050565b82818337600083830152505050565b600061044461043f846103f1565b6103d6565b9050828152602081018484840111156104605761045f610360565b5b61046b848285610422565b509392505050565b600082601f8301126104885761048761035b565b5b8135610498848260208601610431565b91505092915050565b6000602082840312156104b7576104b6610351565b5b600082013567ffffffffffffffff8111156104d5576104d4610356565b5b6104e184828501610473565b91505092915050565b600073ffffffffffffffffffffffffffffffffffffffff82169050919050565b6000610515826104ea565b9050919050565b6105258161050a565b82525050565b6000602082019050610540600083018461051c565b92915050565b61054f8161050a565b811461055a57600080fd5b50565b60008135905061056c81610546565b92915050565b60006020828403121561058857610587610351565b5b60006105968482850161055d565b91505092915050565b600081519050919050565b600082825260208201905092915050565b60005b838110156105d95780820151818401526020810190506105be565b60008484015250505050565b60006105f08261059f565b6105fa81856105aa565b935061060a8185602086016105bb565b61061381610365565b840191505092915050565b6000602082019050818103600083015261063881846105e5565b905092915050565b7f4f6e6c792061646d696e2063616e2061636365737320746869732066756e637460008201527f696f6e0000000000000000000000000000000000000000000000000000000000602082015250565b600061069c6023836105aa565b91506106a782610640565b604082019050919050565b600060208201905081810360008301526106cb8161068f565b9050919050565b7f4e487b7100000000000000000000000000000000000000000000000000000000600052602260045260246000fd5b6000600282049050600182168061071957607f821691505b60208210810361072c5761072b6106d2565b5b50919050565b60008190508160005260206000209050919050565b60006020601f8301049050919050565b600082821b905092915050565b6000600883026107947fffffffffffffffffffffffffffffffffffffffffffffffffffffffffffffffff82610757565b61079e8683610757565b95508019841693508086168417925050509392505050565b6000819050919050565b6000819050919050565b60006107e56107e06107db846107b6565b6107c0565b6107b6565b9050919050565b6000819050919050565b6107ff836107ca565b61081361080b826107ec565b848454610764565b825550505050565b600090565b61082861081b565b6108338184846107f6565b505050565b5b818110156108575761084c600082610820565b600181019050610839565b5050565b601f82111561089c5761086d81610732565b61087684610747565b81016020851015610885578190505b61089961089185610747565b830182610838565b50505b505050565b600082821c905092915050565b60006108bf600019846008026108a1565b1980831691505092915050565b60006108d883836108ae565b9150826002028217905092915050565b6108f18261059f565b67ffffffffffffffff81111561090a57610909610376565b5b6109148254610701565b61091f82828561085b565b600060209050601f8311600181146109525760008415610940578287015190505b61094a85826108cc565b8655506109b2565b601f19841661096086610732565b60005b8281101561098857848901518255600182019150602085019450602081019050610963565b868310156109a557848901516109a1601f8916826108ae565b8355505b6001600288020188555050505b505050505050565b7f596f7520617265206e6f7420617574686f72697a656420746f2061636365737360008201527f2074686973206461746100000000000000000000000000000000000000000000602082015250565b6000610a16602a836105aa565b9150610a21826109ba565b604082019050919050565b60006020820190508181036000830152610a4581610a09565b905091905056fea26469706673582212204c9cd722b6797f93bfd808d59c65dd755619aba1d091443cf86062a14f7ada8764736f6c63430008120033",
					"opcodes": "PUSH1 0x80 PUSH1 0x40 MSTORE CALLVALUE DUP1 ISZERO PUSH2 0x10 JUMPI PUSH1 0x0 DUP1 REVERT JUMPDEST POP CALLER PUSH1 0x0 DUP1 PUSH2 0x100 EXP DUP2 SLOAD DUP2 PUSH20 0xFFFFFFFFFFFFFFFFFFFFFFFFFFFFFFFFFFFFFFFF MUL NOT AND SWAP1 DUP4 PUSH20 0xFFFFFFFFFFFFFFFFFFFFFFFFFFFFFFFFFFFFFFFF AND MUL OR SWAP1 SSTORE POP PUSH2 0xA82 DUP1 PUSH2 0x60 PUSH1 0x0 CODECOPY PUSH1 0x0 RETURN INVALID PUSH1 0x80 PUSH1 0x40 MSTORE CALLVALUE DUP1 ISZERO PUSH2 0x10 JUMPI PUSH1 0x0 DUP1 REVERT JUMPDEST POP PUSH1 0x4 CALLDATASIZE LT PUSH2 0x41 JUMPI PUSH1 0x0 CALLDATALOAD PUSH1 0xE0 SHR DUP1 PUSH4 0x50AED379 EQ PUSH2 0x46 JUMPI DUP1 PUSH4 0xF851A440 EQ PUSH2 0x62 JUMPI DUP1 PUSH4 0xFFC9896B EQ PUSH2 0x80 JUMPI JUMPDEST PUSH1 0x0 DUP1 REVERT JUMPDEST PUSH2 0x60 PUSH1 0x4 DUP1 CALLDATASIZE SUB DUP2 ADD SWAP1 PUSH2 0x5B SWAP2 SWAP1 PUSH2 0x4A1 JUMP JUMPDEST PUSH2 0xB0 JUMP JUMPDEST STOP JUMPDEST PUSH2 0x6A PUSH2 0x18E JUMP JUMPDEST PUSH1 0x40 MLOAD PUSH2 0x77 SWAP2 SWAP1 PUSH2 0x52B JUMP JUMPDEST PUSH1 0x40 MLOAD DUP1 SWAP2 SUB SWAP1 RETURN JUMPDEST PUSH2 0x9A PUSH1 0x4 DUP1 CALLDATASIZE SUB DUP2 ADD SWAP1 PUSH2 0x95 SWAP2 SWAP1 PUSH2 0x572 JUMP JUMPDEST PUSH2 0x1B2 JUMP JUMPDEST PUSH1 0x40 MLOAD PUSH2 0xA7 SWAP2 SWAP1 PUSH2 0x61E JUMP JUMPDEST PUSH1 0x40 MLOAD DUP1 SWAP2 SUB SWAP1 RETURN JUMPDEST PUSH1 0x0 DUP1 SLOAD SWAP1 PUSH2 0x100 EXP SWAP1 DIV PUSH20 0xFFFFFFFFFFFFFFFFFFFFFFFFFFFFFFFFFFFFFFFF AND PUSH20 0xFFFFFFFFFFFFFFFFFFFFFFFFFFFFFFFFFFFFFFFF AND CALLER PUSH20 0xFFFFFFFFFFFFFFFFFFFFFFFFFFFFFFFFFFFFFFFF AND EQ PUSH2 0x13E JUMPI PUSH1 0x40 MLOAD PUSH32 0x8C379A000000000000000000000000000000000000000000000000000000000 DUP2 MSTORE PUSH1 0x4 ADD PUSH2 0x135 SWAP1 PUSH2 0x6B2 JUMP JUMPDEST PUSH1 0x40 MLOAD DUP1 SWAP2 SUB SWAP1 REVERT JUMPDEST DUP1 PUSH1 0x1 PUSH1 0x0 CALLER PUSH20 0xFFFFFFFFFFFFFFFFFFFFFFFFFFFFFFFFFFFFFFFF AND PUSH20 0xFFFFFFFFFFFFFFFFFFFFFFFFFFFFFFFFFFFFFFFF AND DUP2 MSTORE PUSH1 0x20 ADD SWAP1 DUP2 MSTORE PUSH1 0x20 ADD PUSH1 0x0 KECCAK256 SWAP1 DUP2 PUSH2 0x18A SWAP2 SWAP1 PUSH2 0x8E8 JUMP JUMPDEST POP POP JUMP JUMPDEST PUSH1 0x0 DUP1 SLOAD SWAP1 PUSH2 0x100 EXP SWAP1 DIV PUSH20 0xFFFFFFFFFFFFFFFFFFFFFFFFFFFFFFFFFFFFFFFF AND DUP2 JUMP JUMPDEST PUSH1 0x60 DUP2 PUSH20 0xFFFFFFFFFFFFFFFFFFFFFFFFFFFFFFFFFFFFFFFF AND CALLER PUSH20 0xFFFFFFFFFFFFFFFFFFFFFFFFFFFFFFFFFFFFFFFF AND EQ DUP1 PUSH2 0x239 JUMPI POP PUSH1 0x0 DUP1 SLOAD SWAP1 PUSH2 0x100 EXP SWAP1 DIV PUSH20 0xFFFFFFFFFFFFFFFFFFFFFFFFFFFFFFFFFFFFFFFF AND PUSH20 0xFFFFFFFFFFFFFFFFFFFFFFFFFFFFFFFFFFFFFFFF AND CALLER PUSH20 0xFFFFFFFFFFFFFFFFFFFFFFFFFFFFFFFFFFFFFFFF AND EQ JUMPDEST PUSH2 0x278 JUMPI PUSH1 0x40 MLOAD PUSH32 0x8C379A000000000000000000000000000000000000000000000000000000000 DUP2 MSTORE PUSH1 0x4 ADD PUSH2 0x26F SWAP1 PUSH2 0xA2C JUMP JUMPDEST PUSH1 0x40 MLOAD DUP1 SWAP2 SUB SWAP1 REVERT JUMPDEST PUSH1 0x1 PUSH1 0x0 DUP4 PUSH20 0xFFFFFFFFFFFFFFFFFFFFFFFFFFFFFFFFFFFFFFFF AND PUSH20 0xFFFFFFFFFFFFFFFFFFFFFFFFFFFFFFFFFFFFFFFF AND DUP2 MSTORE PUSH1 0x20 ADD SWAP1 DUP2 MSTORE PUSH1 0x20 ADD PUSH1 0x0 KECCAK256 DUP1 SLOAD PUSH2 0x2C2 SWAP1 PUSH2 0x701 JUMP JUMPDEST DUP1 PUSH1 0x1F ADD PUSH1 0x20 DUP1 SWAP2 DIV MUL PUSH1 0x20 ADD PUSH1 0x40 MLOAD SWAP1 DUP2 ADD PUSH1 0x40 MSTORE DUP1 SWAP3 SWAP2 SWAP1 DUP2 DUP2 MSTORE PUSH1 0x20 ADD DUP3 DUP1 SLOAD PUSH2 0x2EE SWAP1 PUSH2 0x701 JUMP JUMPDEST DUP1 ISZERO PUSH2 0x33B JUMPI DUP1 PUSH1 0x1F LT PUSH2 0x310 JUMPI PUSH2 0x100 DUP1 DUP4 SLOAD DIV MUL DUP4 MSTORE SWAP2 PUSH1 0x20 ADD SWAP2 PUSH2 0x33B JUMP JUMPDEST DUP3 ADD SWAP2 SWAP1 PUSH1 0x0 MSTORE PUSH1 0x20 PUSH1 0x0 KECCAK256 SWAP1 JUMPDEST DUP2 SLOAD DUP2 MSTORE SWAP1 PUSH1 0x1 ADD SWAP1 PUSH1 0x20 ADD DUP1 DUP4 GT PUSH2 0x31E JUMPI DUP3 SWAP1 SUB PUSH1 0x1F AND DUP3 ADD SWAP2 JUMPDEST POP POP POP POP POP SWAP1 POP SWAP2 SWAP1 POP JUMP JUMPDEST PUSH1 0x0 PUSH1 0x40 MLOAD SWAP1 POP SWAP1 JUMP JUMPDEST PUSH1 0x0 DUP1 REVERT JUMPDEST PUSH1 0x0 DUP1 REVERT JUMPDEST PUSH1 0x0 DUP1 REVERT JUMPDEST PUSH1 0x0 DUP1 REVERT JUMPDEST PUSH1 0x0 PUSH1 0x1F NOT PUSH1 0x1F DUP4 ADD AND SWAP1 POP SWAP2 SWAP1 POP JUMP JUMPDEST PUSH32 0x4E487B7100000000000000000000000000000000000000000000000000000000 PUSH1 0x0 MSTORE PUSH1 0x41 PUSH1 0x4 MSTORE PUSH1 0x24 PUSH1 0x0 REVERT JUMPDEST PUSH2 0x3AE DUP3 PUSH2 0x365 JUMP JUMPDEST DUP2 ADD DUP2 DUP2 LT PUSH8 0xFFFFFFFFFFFFFFFF DUP3 GT OR ISZERO PUSH2 0x3CD JUMPI PUSH2 0x3CC PUSH2 0x376 JUMP JUMPDEST JUMPDEST DUP1 PUSH1 0x40 MSTORE POP POP POP JUMP JUMPDEST PUSH1 0x0 PUSH2 0x3E0 PUSH2 0x347 JUMP JUMPDEST SWAP1 POP PUSH2 0x3EC DUP3 DUP3 PUSH2 0x3A5 JUMP JUMPDEST SWAP2 SWAP1 POP JUMP JUMPDEST PUSH1 0x0 PUSH8 0xFFFFFFFFFFFFFFFF DUP3 GT ISZERO PUSH2 0x40C JUMPI PUSH2 0x40B PUSH2 0x376 JUMP JUMPDEST JUMPDEST PUSH2 0x415 DUP3 PUSH2 0x365 JUMP JUMPDEST SWAP1 POP PUSH1 0x20 DUP2 ADD SWAP1 POP SWAP2 SWAP1 POP JUMP JUMPDEST DUP3 DUP2 DUP4 CALLDATACOPY PUSH1 0x0 DUP4 DUP4 ADD MSTORE POP POP POP JUMP JUMPDEST PUSH1 0x0 PUSH2 0x444 PUSH2 0x43F DUP5 PUSH2 0x3F1 JUMP JUMPDEST PUSH2 0x3D6 JUMP JUMPDEST SWAP1 POP DUP3 DUP2 MSTORE PUSH1 0x20 DUP2 ADD DUP5 DUP5 DUP5 ADD GT ISZERO PUSH2 0x460 JUMPI PUSH2 0x45F PUSH2 0x360 JUMP JUMPDEST JUMPDEST PUSH2 0x46B DUP5 DUP3 DUP6 PUSH2 0x422 JUMP JUMPDEST POP SWAP4 SWAP3 POP POP POP JUMP JUMPDEST PUSH1 0x0 DUP3 PUSH1 0x1F DUP4 ADD SLT PUSH2 0x488 JUMPI PUSH2 0x487 PUSH2 0x35B JUMP JUMPDEST JUMPDEST DUP2 CALLDATALOAD PUSH2 0x498 DUP5 DUP3 PUSH1 0x20 DUP7 ADD PUSH2 0x431 JUMP JUMPDEST SWAP2 POP POP SWAP3 SWAP2 POP POP JUMP JUMPDEST PUSH1 0x0 PUSH1 0x20 DUP3 DUP5 SUB SLT ISZERO PUSH2 0x4B7 JUMPI PUSH2 0x4B6 PUSH2 0x351 JUMP JUMPDEST JUMPDEST PUSH1 0x0 DUP3 ADD CALLDATALOAD PUSH8 0xFFFFFFFFFFFFFFFF DUP2 GT ISZERO PUSH2 0x4D5 JUMPI PUSH2 0x4D4 PUSH2 0x356 JUMP JUMPDEST JUMPDEST PUSH2 0x4E1 DUP5 DUP3 DUP6 ADD PUSH2 0x473 JUMP JUMPDEST SWAP2 POP POP SWAP3 SWAP2 POP POP JUMP JUMPDEST PUSH1 0x0 PUSH20 0xFFFFFFFFFFFFFFFFFFFFFFFFFFFFFFFFFFFFFFFF DUP3 AND SWAP1 POP SWAP2 SWAP1 POP JUMP JUMPDEST PUSH1 0x0 PUSH2 0x515 DUP3 PUSH2 0x4EA JUMP JUMPDEST SWAP1 POP SWAP2 SWAP1 POP JUMP JUMPDEST PUSH2 0x525 DUP2 PUSH2 0x50A JUMP JUMPDEST DUP3 MSTORE POP POP JUMP JUMPDEST PUSH1 0x0 PUSH1 0x20 DUP3 ADD SWAP1 POP PUSH2 0x540 PUSH1 0x0 DUP4 ADD DUP5 PUSH2 0x51C JUMP JUMPDEST SWAP3 SWAP2 POP POP JUMP JUMPDEST PUSH2 0x54F DUP2 PUSH2 0x50A JUMP JUMPDEST DUP2 EQ PUSH2 0x55A JUMPI PUSH1 0x0 DUP1 REVERT JUMPDEST POP JUMP JUMPDEST PUSH1 0x0 DUP2 CALLDATALOAD SWAP1 POP PUSH2 0x56C DUP2 PUSH2 0x546 JUMP JUMPDEST SWAP3 SWAP2 POP POP JUMP JUMPDEST PUSH1 0x0 PUSH1 0x20 DUP3 DUP5 SUB SLT ISZERO PUSH2 0x588 JUMPI PUSH2 0x587 PUSH2 0x351 JUMP JUMPDEST JUMPDEST PUSH1 0x0 PUSH2 0x596 DUP5 DUP3 DUP6 ADD PUSH2 0x55D JUMP JUMPDEST SWAP2 POP POP SWAP3 SWAP2 POP POP JUMP JUMPDEST PUSH1 0x0 DUP2 MLOAD SWAP1 POP SWAP2 SWAP1 POP JUMP JUMPDEST PUSH1 0x0 DUP3 DUP3 MSTORE PUSH1 0x20 DUP3 ADD SWAP1 POP SWAP3 SWAP2 POP POP JUMP JUMPDEST PUSH1 0x0 JUMPDEST DUP4 DUP2 LT ISZERO PUSH2 0x5D9 JUMPI DUP1 DUP3 ADD MLOAD DUP2 DUP5 ADD MSTORE PUSH1 0x20 DUP2 ADD SWAP1 POP PUSH2 0x5BE JUMP JUMPDEST PUSH1 0x0 DUP5 DUP5 ADD MSTORE POP POP POP POP JUMP JUMPDEST PUSH1 0x0 PUSH2 0x5F0 DUP3 PUSH2 0x59F JUMP JUMPDEST PUSH2 0x5FA DUP2 DUP6 PUSH2 0x5AA JUMP JUMPDEST SWAP4 POP PUSH2 0x60A DUP2 DUP6 PUSH1 0x20 DUP7 ADD PUSH2 0x5BB JUMP JUMPDEST PUSH2 0x613 DUP2 PUSH2 0x365 JUMP JUMPDEST DUP5 ADD SWAP2 POP POP SWAP3 SWAP2 POP POP JUMP JUMPDEST PUSH1 0x0 PUSH1 0x20 DUP3 ADD SWAP1 POP DUP2 DUP2 SUB PUSH1 0x0 DUP4 ADD MSTORE PUSH2 0x638 DUP2 DUP5 PUSH2 0x5E5 JUMP JUMPDEST SWAP1 POP SWAP3 SWAP2 POP POP JUMP JUMPDEST PUSH32 0x4F6E6C792061646D696E2063616E2061636365737320746869732066756E6374 PUSH1 0x0 DUP3 ADD MSTORE PUSH32 0x696F6E0000000000000000000000000000000000000000000000000000000000 PUSH1 0x20 DUP3 ADD MSTORE POP JUMP JUMPDEST PUSH1 0x0 PUSH2 0x69C PUSH1 0x23 DUP4 PUSH2 0x5AA JUMP JUMPDEST SWAP2 POP PUSH2 0x6A7 DUP3 PUSH2 0x640 JUMP JUMPDEST PUSH1 0x40 DUP3 ADD SWAP1 POP SWAP2 SWAP1 POP JUMP JUMPDEST PUSH1 0x0 PUSH1 0x20 DUP3 ADD SWAP1 POP DUP2 DUP2 SUB PUSH1 0x0 DUP4 ADD MSTORE PUSH2 0x6CB DUP2 PUSH2 0x68F JUMP JUMPDEST SWAP1 POP SWAP2 SWAP1 POP JUMP JUMPDEST PUSH32 0x4E487B7100000000000000000000000000000000000000000000000000000000 PUSH1 0x0 MSTORE PUSH1 0x22 PUSH1 0x4 MSTORE PUSH1 0x24 PUSH1 0x0 REVERT JUMPDEST PUSH1 0x0 PUSH1 0x2 DUP3 DIV SWAP1 POP PUSH1 0x1 DUP3 AND DUP1 PUSH2 0x719 JUMPI PUSH1 0x7F DUP3 AND SWAP2 POP JUMPDEST PUSH1 0x20 DUP3 LT DUP2 SUB PUSH2 0x72C JUMPI PUSH2 0x72B PUSH2 0x6D2 JUMP JUMPDEST JUMPDEST POP SWAP2 SWAP1 POP JUMP JUMPDEST PUSH1 0x0 DUP2 SWAP1 POP DUP2 PUSH1 0x0 MSTORE PUSH1 0x20 PUSH1 0x0 KECCAK256 SWAP1 POP SWAP2 SWAP1 POP JUMP JUMPDEST PUSH1 0x0 PUSH1 0x20 PUSH1 0x1F DUP4 ADD DIV SWAP1 POP SWAP2 SWAP1 POP JUMP JUMPDEST PUSH1 0x0 DUP3 DUP3 SHL SWAP1 POP SWAP3 SWAP2 POP POP JUMP JUMPDEST PUSH1 0x0 PUSH1 0x8 DUP4 MUL PUSH2 0x794 PUSH32 0xFFFFFFFFFFFFFFFFFFFFFFFFFFFFFFFFFFFFFFFFFFFFFFFFFFFFFFFFFFFFFFFF DUP3 PUSH2 0x757 JUMP JUMPDEST PUSH2 0x79E DUP7 DUP4 PUSH2 0x757 JUMP JUMPDEST SWAP6 POP DUP1 NOT DUP5 AND SWAP4 POP DUP1 DUP7 AND DUP5 OR SWAP3 POP POP POP SWAP4 SWAP3 POP POP POP JUMP JUMPDEST PUSH1 0x0 DUP2 SWAP1 POP SWAP2 SWAP1 POP JUMP JUMPDEST PUSH1 0x0 DUP2 SWAP1 POP SWAP2 SWAP1 POP JUMP JUMPDEST PUSH1 0x0 PUSH2 0x7E5 PUSH2 0x7E0 PUSH2 0x7DB DUP5 PUSH2 0x7B6 JUMP JUMPDEST PUSH2 0x7C0 JUMP JUMPDEST PUSH2 0x7B6 JUMP JUMPDEST SWAP1 POP SWAP2 SWAP1 POP JUMP JUMPDEST PUSH1 0x0 DUP2 SWAP1 POP SWAP2 SWAP1 POP JUMP JUMPDEST PUSH2 0x7FF DUP4 PUSH2 0x7CA JUMP JUMPDEST PUSH2 0x813 PUSH2 0x80B DUP3 PUSH2 0x7EC JUMP JUMPDEST DUP5 DUP5 SLOAD PUSH2 0x764 JUMP JUMPDEST DUP3 SSTORE POP POP POP POP JUMP JUMPDEST PUSH1 0x0 SWAP1 JUMP JUMPDEST PUSH2 0x828 PUSH2 0x81B JUMP JUMPDEST PUSH2 0x833 DUP2 DUP5 DUP5 PUSH2 0x7F6 JUMP JUMPDEST POP POP POP JUMP JUMPDEST JUMPDEST DUP2 DUP2 LT ISZERO PUSH2 0x857 JUMPI PUSH2 0x84C PUSH1 0x0 DUP3 PUSH2 0x820 JUMP JUMPDEST PUSH1 0x1 DUP2 ADD SWAP1 POP PUSH2 0x839 JUMP JUMPDEST POP POP JUMP JUMPDEST PUSH1 0x1F DUP3 GT ISZERO PUSH2 0x89C JUMPI PUSH2 0x86D DUP2 PUSH2 0x732 JUMP JUMPDEST PUSH2 0x876 DUP5 PUSH2 0x747 JUMP JUMPDEST DUP2 ADD PUSH1 0x20 DUP6 LT ISZERO PUSH2 0x885 JUMPI DUP2 SWAP1 POP JUMPDEST PUSH2 0x899 PUSH2 0x891 DUP6 PUSH2 0x747 JUMP JUMPDEST DUP4 ADD DUP3 PUSH2 0x838 JUMP JUMPDEST POP POP JUMPDEST POP POP POP JUMP JUMPDEST PUSH1 0x0 DUP3 DUP3 SHR SWAP1 POP SWAP3 SWAP2 POP POP JUMP JUMPDEST PUSH1 0x0 PUSH2 0x8BF PUSH1 0x0 NOT DUP5 PUSH1 0x8 MUL PUSH2 0x8A1 JUMP JUMPDEST NOT DUP1 DUP4 AND SWAP2 POP POP SWAP3 SWAP2 POP POP JUMP JUMPDEST PUSH1 0x0 PUSH2 0x8D8 DUP4 DUP4 PUSH2 0x8AE JUMP JUMPDEST SWAP2 POP DUP3 PUSH1 0x2 MUL DUP3 OR SWAP1 POP SWAP3 SWAP2 POP POP JUMP JUMPDEST PUSH2 0x8F1 DUP3 PUSH2 0x59F JUMP JUMPDEST PUSH8 0xFFFFFFFFFFFFFFFF DUP2 GT ISZERO PUSH2 0x90A JUMPI PUSH2 0x909 PUSH2 0x376 JUMP JUMPDEST JUMPDEST PUSH2 0x914 DUP3 SLOAD PUSH2 0x701 JUMP JUMPDEST PUSH2 0x91F DUP3 DUP3 DUP6 PUSH2 0x85B JUMP JUMPDEST PUSH1 0x0 PUSH1 0x20 SWAP1 POP PUSH1 0x1F DUP4 GT PUSH1 0x1 DUP2 EQ PUSH2 0x952 JUMPI PUSH1 0x0 DUP5 ISZERO PUSH2 0x940 JUMPI DUP3 DUP8 ADD MLOAD SWAP1 POP JUMPDEST PUSH2 0x94A DUP6 DUP3 PUSH2 0x8CC JUMP JUMPDEST DUP7 SSTORE POP PUSH2 0x9B2 JUMP JUMPDEST PUSH1 0x1F NOT DUP5 AND PUSH2 0x960 DUP7 PUSH2 0x732 JUMP JUMPDEST PUSH1 0x0 JUMPDEST DUP3 DUP2 LT ISZERO PUSH2 0x988 JUMPI DUP5 DUP10 ADD MLOAD DUP3 SSTORE PUSH1 0x1 DUP3 ADD SWAP2 POP PUSH1 0x20 DUP6 ADD SWAP5 POP PUSH1 0x20 DUP2 ADD SWAP1 POP PUSH2 0x963 JUMP JUMPDEST DUP7 DUP4 LT ISZERO PUSH2 0x9A5 JUMPI DUP5 DUP10 ADD MLOAD PUSH2 0x9A1 PUSH1 0x1F DUP10 AND DUP3 PUSH2 0x8AE JUMP JUMPDEST DUP4 SSTORE POP JUMPDEST PUSH1 0x1 PUSH1 0x2 DUP9 MUL ADD DUP9 SSTORE POP POP POP JUMPDEST POP POP POP POP POP POP JUMP JUMPDEST PUSH32 0x596F7520617265206E6F7420617574686F72697A656420746F20616363657373 PUSH1 0x0 DUP3 ADD MSTORE PUSH32 0x2074686973206461746100000000000000000000000000000000000000000000 PUSH1 0x20 DUP3 ADD MSTORE POP JUMP JUMPDEST PUSH1 0x0 PUSH2 0xA16 PUSH1 0x2A DUP4 PUSH2 0x5AA JUMP JUMPDEST SWAP2 POP PUSH2 0xA21 DUP3 PUSH2 0x9BA JUMP JUMPDEST PUSH1 0x40 DUP3 ADD SWAP1 POP SWAP2 SWAP1 POP JUMP JUMPDEST PUSH1 0x0 PUSH1 0x20 DUP3 ADD SWAP1 POP DUP2 DUP2 SUB PUSH1 0x0 DUP4 ADD MSTORE PUSH2 0xA45 DUP2 PUSH2 0xA09 JUMP JUMPDEST SWAP1 POP SWAP2 SWAP1 POP JUMP INVALID LOG2 PUSH5 0x6970667358 0x22 SLT KECCAK256 0x4C SWAP13 0xD7 0x22 0xB6 PUSH26 0x7F93BFD808D59C65DD755619ABA1D091443CF86062A14F7ADA87 PUSH5 0x736F6C6343 STOP ADDMOD SLT STOP CALLER "
				},
				"gasEstimates": {
					"creation": {
						"codeDepositCost": "538000",
						"executionCost": "24841",
						"totalCost": "562841"
					},
					"external": {
						"admin()": "2511",
						"getUserData(address)": "infinite",
						"setUserData(string)": "infinite"
					}
				},
				"methodIdentifiers": {
					"admin()": "f851a440",
					"getUserData(address)": "ffc9896b",
					"setUserData(string)": "50aed379"
				}
			},
			"storageLayout": {
				"storage": [
					{
						"astId": 3,
						"contract": "admincanonlyaccessuserdata.sol:UserDataContract",
						"label": "admin",
						"offset": 0,
						"slot": "0",
						"type": "t_address"
					},
					{
						"astId": 7,
						"contract": "admincanonlyaccessuserdata.sol:UserDataContract",
						"label": "userData",
						"offset": 0,
						"slot": "1",
						"type": "t_mapping(t_address,t_string_storage)"
					}
				],
				"types": {
					"t_address": {
						"encoding": "inplace",
						"label": "address",
						"numberOfBytes": "20"
					},
					"t_mapping(t_address,t_string_storage)": {
						"encoding": "mapping",
						"key": "t_address",
						"label": "mapping(address => string)",
						"numberOfBytes": "32",
						"value": "t_string_storage"
					},
					"t_string_storage": {
						"encoding": "bytes",
						"label": "string",
						"numberOfBytes": "32"
					}
				}
			},
			"userdoc": {
				"kind": "user",
				"methods": {},
				"version": 1
			}
		}
	}
}