{
	"mapping.sol": {
		"demo": {
			"abi": [
				{
					"inputs": [
						{
							"internalType": "uint256",
							"name": "",
							"type": "uint256"
						}
					],
					"name": "data",
					"outputs": [
						{
							"internalType": "uint256",
							"name": "roll",
							"type": "uint256"
						},
						{
							"internalType": "string",
							"name": "name",
							"type": "string"
						},
						{
							"internalType": "string",
							"name": "father_name",
							"type": "string"
						},
						{
							"internalType": "uint256",
							"name": "class",
							"type": "uint256"
						}
					],
					"stateMutability": "view",
					"type": "function"
				},
				{
					"inputs": [
						{
							"internalType": "uint256",
							"name": "_roll",
							"type": "uint256"
						},
						{
							"internalType": "string",
							"name": "_name",
							"type": "string"
						},
						{
							"internalType": "string",
							"name": "father_name",
							"type": "string"
						},
						{
							"internalType": "uint256",
							"name": "_class",
							"type": "uint256"
						}
					],
					"name": "setter",
					"outputs": [],
					"stateMutability": "nonpayable",
					"type": "function"
				}
			],
			"devdoc": {
				"kind": "dev",
				"methods": {},
				"version": 1
			},
			"evm": {
				"assembly": "    /* \"mapping.sol\":72:432  contract demo... */\n  mstore(0x40, 0x80)\n  callvalue\n  dup1\n  iszero\n  tag_1\n  jumpi\n  0x00\n  dup1\n  revert\ntag_1:\n  pop\n  dataSize(sub_0)\n  dup1\n  dataOffset(sub_0)\n  0x00\n  codecopy\n  0x00\n  return\nstop\n\nsub_0: assembly {\n        /* \"mapping.sol\":72:432  contract demo... */\n      mstore(0x40, 0x80)\n      callvalue\n      dup1\n      iszero\n      tag_1\n      jumpi\n      0x00\n      dup1\n      revert\n    tag_1:\n      pop\n      jumpi(tag_2, lt(calldatasize, 0x04))\n      shr(0xe0, calldataload(0x00))\n      dup1\n      0x4fa1fc67\n      eq\n      tag_3\n      jumpi\n      dup1\n      0xf0ba8440\n      eq\n      tag_4\n      jumpi\n    tag_2:\n      0x00\n      dup1\n      revert\n        /* \"mapping.sol\":260:429  function setter(uint _roll,string memory _name,string memory father_name,uint _class)public ... */\n    tag_3:\n      tag_5\n      0x04\n      dup1\n      calldatasize\n      sub\n      dup2\n      add\n      swap1\n      tag_6\n      swap2\n      swap1\n      tag_7\n      jump\t// in\n    tag_6:\n      tag_8\n      jump\t// in\n    tag_5:\n      stop\n        /* \"mapping.sol\":218:251  mapping(uint=>student)public data */\n    tag_4:\n      tag_9\n      0x04\n      dup1\n      calldatasize\n      sub\n      dup2\n      add\n      swap1\n      tag_10\n      swap2\n      swap1\n      tag_11\n      jump\t// in\n    tag_10:\n      tag_12\n      jump\t// in\n    tag_9:\n      mload(0x40)\n      tag_13\n      swap5\n      swap4\n      swap3\n      swap2\n      swap1\n      tag_14\n      jump\t// in\n    tag_13:\n      mload(0x40)\n      dup1\n      swap2\n      sub\n      swap1\n      return\n        /* \"mapping.sol\":260:429  function setter(uint _roll,string memory _name,string memory father_name,uint _class)public ... */\n    tag_8:\n        /* \"mapping.sol\":382:421  student(_roll,_name,father_name,_class) */\n      mload(0x40)\n      dup1\n      0x80\n      add\n      0x40\n      mstore\n      dup1\n        /* \"mapping.sol\":390:395  _roll */\n      dup6\n        /* \"mapping.sol\":382:421  student(_roll,_name,father_name,_class) */\n      dup2\n      mstore\n      0x20\n      add\n        /* \"mapping.sol\":396:401  _name */\n      dup5\n        /* \"mapping.sol\":382:421  student(_roll,_name,father_name,_class) */\n      dup2\n      mstore\n      0x20\n      add\n        /* \"mapping.sol\":402:413  father_name */\n      dup4\n        /* \"mapping.sol\":382:421  student(_roll,_name,father_name,_class) */\n      dup2\n      mstore\n      0x20\n      add\n        /* \"mapping.sol\":414:420  _class */\n      dup3\n        /* \"mapping.sol\":382:421  student(_roll,_name,father_name,_class) */\n      dup2\n      mstore\n      pop\n        /* \"mapping.sol\":369:373  data */\n      0x00\n        /* \"mapping.sol\":369:380  data[_roll] */\n      dup1\n        /* \"mapping.sol\":374:379  _roll */\n      dup7\n        /* \"mapping.sol\":369:380  data[_roll] */\n      dup2\n      mstore\n      0x20\n      add\n      swap1\n      dup2\n      mstore\n      0x20\n      add\n      0x00\n      keccak256\n        /* \"mapping.sol\":369:421  data[_roll]= student(_roll,_name,father_name,_class) */\n      0x00\n      dup3\n      add\n      mload\n      dup2\n      0x00\n      add\n      sstore\n      0x20\n      dup3\n      add\n      mload\n      dup2\n      0x01\n      add\n      swap1\n      dup2\n      tag_16\n      swap2\n      swap1\n      tag_17\n      jump\t// in\n    tag_16:\n      pop\n      0x40\n      dup3\n      add\n      mload\n      dup2\n      0x02\n      add\n      swap1\n      dup2\n      tag_18\n      swap2\n      swap1\n      tag_17\n      jump\t// in\n    tag_18:\n      pop\n      0x60\n      dup3\n      add\n      mload\n      dup2\n      0x03\n      add\n      sstore\n      swap1\n      pop\n      pop\n        /* \"mapping.sol\":260:429  function setter(uint _roll,string memory _name,string memory father_name,uint _class)public ... */\n      pop\n      pop\n      pop\n      pop\n      jump\t// out\n        /* \"mapping.sol\":218:251  mapping(uint=>student)public data */\n    tag_12:\n      mstore(0x20, 0x00)\n      dup1\n      0x00\n      mstore\n      keccak256(0x00, 0x40)\n      0x00\n      swap2\n      pop\n      swap1\n      pop\n      dup1\n      0x00\n      add\n      sload\n      swap1\n      dup1\n      0x01\n      add\n      dup1\n      sload\n      tag_19\n      swap1\n      tag_20\n      jump\t// in\n    tag_19:\n      dup1\n      0x1f\n      add\n      0x20\n      dup1\n      swap2\n      div\n      mul\n      0x20\n      add\n      mload(0x40)\n      swap1\n      dup2\n      add\n      0x40\n      mstore\n      dup1\n      swap3\n      swap2\n      swap1\n      dup2\n      dup2\n      mstore\n      0x20\n      add\n      dup3\n      dup1\n      sload\n      tag_21\n      swap1\n      tag_20\n      jump\t// in\n    tag_21:\n      dup1\n      iszero\n      tag_22\n      jumpi\n      dup1\n      0x1f\n      lt\n      tag_23\n      jumpi\n      0x0100\n      dup1\n      dup4\n      sload\n      div\n      mul\n      dup4\n      mstore\n      swap2\n      0x20\n      add\n      swap2\n      jump(tag_22)\n    tag_23:\n      dup3\n      add\n      swap2\n      swap1\n      0x00\n      mstore\n      keccak256(0x00, 0x20)\n      swap1\n    tag_24:\n      dup2\n      sload\n      dup2\n      mstore\n      swap1\n      0x01\n      add\n      swap1\n      0x20\n      add\n      dup1\n      dup4\n      gt\n      tag_24\n      jumpi\n      dup3\n      swap1\n      sub\n      0x1f\n      and\n      dup3\n      add\n      swap2\n    tag_22:\n      pop\n      pop\n      pop\n      pop\n      pop\n      swap1\n      dup1\n      0x02\n      add\n      dup1\n      sload\n      tag_25\n      swap1\n      tag_20\n      jump\t// in\n    tag_25:\n      dup1\n      0x1f\n      add\n      0x20\n      dup1\n      swap2\n      div\n      mul\n      0x20\n      add\n      mload(0x40)\n      swap1\n      dup2\n      add\n      0x40\n      mstore\n      dup1\n      swap3\n      swap2\n      swap1\n      dup2\n      dup2\n      mstore\n      0x20\n      add\n      dup3\n      dup1\n      sload\n      tag_26\n      swap1\n      tag_20\n      jump\t// in\n    tag_26:\n      dup1\n      iszero\n      tag_27\n      jumpi\n      dup1\n      0x1f\n      lt\n      tag_28\n      jumpi\n      0x0100\n      dup1\n      dup4\n      sload\n      div\n      mul\n      dup4\n      mstore\n      swap2\n      0x20\n      add\n      swap2\n      jump(tag_27)\n    tag_28:\n      dup3\n      add\n      swap2\n      swap1\n      0x00\n      mstore\n      keccak256(0x00, 0x20)\n      swap1\n    tag_29:\n      dup2\n      sload\n      dup2\n      mstore\n      swap1\n      0x01\n      add\n      swap1\n      0x20\n      add\n      dup1\n      dup4\n      gt\n      tag_29\n      jumpi\n      dup3\n      swap1\n      sub\n      0x1f\n      and\n      dup3\n      add\n      swap2\n    tag_27:\n      pop\n      pop\n      pop\n      pop\n      pop\n      swap1\n      dup1\n      0x03\n      add\n      sload\n      swap1\n      pop\n      dup5\n      jump\t// out\n        /* \"#utility.yul\":7:82   */\n    tag_30:\n        /* \"#utility.yul\":40:46   */\n      0x00\n        /* \"#utility.yul\":73:75   */\n      0x40\n        /* \"#utility.yul\":67:76   */\n      mload\n        /* \"#utility.yul\":57:76   */\n      swap1\n      pop\n        /* \"#utility.yul\":7:82   */\n      swap1\n      jump\t// out\n        /* \"#utility.yul\":88:205   */\n    tag_31:\n        /* \"#utility.yul\":197:198   */\n      0x00\n        /* \"#utility.yul\":194:195   */\n      dup1\n        /* \"#utility.yul\":187:199   */\n      revert\n        /* \"#utility.yul\":211:328   */\n    tag_32:\n        /* \"#utility.yul\":320:321   */\n      0x00\n        /* \"#utility.yul\":317:318   */\n      dup1\n        /* \"#utility.yul\":310:322   */\n      revert\n        /* \"#utility.yul\":334:411   */\n    tag_33:\n        /* \"#utility.yul\":371:378   */\n      0x00\n        /* \"#utility.yul\":400:405   */\n      dup2\n        /* \"#utility.yul\":389:405   */\n      swap1\n      pop\n        /* \"#utility.yul\":334:411   */\n      swap2\n      swap1\n      pop\n      jump\t// out\n        /* \"#utility.yul\":417:539   */\n    tag_34:\n        /* \"#utility.yul\":490:514   */\n      tag_73\n        /* \"#utility.yul\":508:513   */\n      dup2\n        /* \"#utility.yul\":490:514   */\n      tag_33\n      jump\t// in\n    tag_73:\n        /* \"#utility.yul\":483:488   */\n      dup2\n        /* \"#utility.yul\":480:515   */\n      eq\n        /* \"#utility.yul\":470:533   */\n      tag_74\n      jumpi\n        /* \"#utility.yul\":529:530   */\n      0x00\n        /* \"#utility.yul\":526:527   */\n      dup1\n        /* \"#utility.yul\":519:531   */\n      revert\n        /* \"#utility.yul\":470:533   */\n    tag_74:\n        /* \"#utility.yul\":417:539   */\n      pop\n      jump\t// out\n        /* \"#utility.yul\":545:684   */\n    tag_35:\n        /* \"#utility.yul\":591:596   */\n      0x00\n        /* \"#utility.yul\":629:635   */\n      dup2\n        /* \"#utility.yul\":616:636   */\n      calldataload\n        /* \"#utility.yul\":607:636   */\n      swap1\n      pop\n        /* \"#utility.yul\":645:678   */\n      tag_76\n        /* \"#utility.yul\":672:677   */\n      dup2\n        /* \"#utility.yul\":645:678   */\n      tag_34\n      jump\t// in\n    tag_76:\n        /* \"#utility.yul\":545:684   */\n      swap3\n      swap2\n      pop\n      pop\n      jump\t// out\n        /* \"#utility.yul\":690:807   */\n    tag_36:\n        /* \"#utility.yul\":799:800   */\n      0x00\n        /* \"#utility.yul\":796:797   */\n      dup1\n        /* \"#utility.yul\":789:801   */\n      revert\n        /* \"#utility.yul\":813:930   */\n    tag_37:\n        /* \"#utility.yul\":922:923   */\n      0x00\n        /* \"#utility.yul\":919:920   */\n      dup1\n        /* \"#utility.yul\":912:924   */\n      revert\n        /* \"#utility.yul\":936:1038   */\n    tag_38:\n        /* \"#utility.yul\":977:983   */\n      0x00\n        /* \"#utility.yul\":1028:1030   */\n      0x1f\n        /* \"#utility.yul\":1024:1031   */\n      not\n        /* \"#utility.yul\":1019:1021   */\n      0x1f\n        /* \"#utility.yul\":1012:1017   */\n      dup4\n        /* \"#utility.yul\":1008:1022   */\n      add\n        /* \"#utility.yul\":1004:1032   */\n      and\n        /* \"#utility.yul\":994:1032   */\n      swap1\n      pop\n        /* \"#utility.yul\":936:1038   */\n      swap2\n      swap1\n      pop\n      jump\t// out\n        /* \"#utility.yul\":1044:1224   */\n    tag_39:\n        /* \"#utility.yul\":1092:1169   */\n      0x4e487b7100000000000000000000000000000000000000000000000000000000\n        /* \"#utility.yul\":1089:1090   */\n      0x00\n        /* \"#utility.yul\":1082:1170   */\n      mstore\n        /* \"#utility.yul\":1189:1193   */\n      0x41\n        /* \"#utility.yul\":1186:1187   */\n      0x04\n        /* \"#utility.yul\":1179:1194   */\n      mstore\n        /* \"#utility.yul\":1213:1217   */\n      0x24\n        /* \"#utility.yul\":1210:1211   */\n      0x00\n        /* \"#utility.yul\":1203:1218   */\n      revert\n        /* \"#utility.yul\":1230:1511   */\n    tag_40:\n        /* \"#utility.yul\":1313:1340   */\n      tag_82\n        /* \"#utility.yul\":1335:1339   */\n      dup3\n        /* \"#utility.yul\":1313:1340   */\n      tag_38\n      jump\t// in\n    tag_82:\n        /* \"#utility.yul\":1305:1311   */\n      dup2\n        /* \"#utility.yul\":1301:1341   */\n      add\n        /* \"#utility.yul\":1443:1449   */\n      dup2\n        /* \"#utility.yul\":1431:1441   */\n      dup2\n        /* \"#utility.yul\":1428:1450   */\n      lt\n        /* \"#utility.yul\":1407:1425   */\n      0xffffffffffffffff\n        /* \"#utility.yul\":1395:1405   */\n      dup3\n        /* \"#utility.yul\":1392:1426   */\n      gt\n        /* \"#utility.yul\":1389:1451   */\n      or\n        /* \"#utility.yul\":1386:1474   */\n      iszero\n      tag_83\n      jumpi\n        /* \"#utility.yul\":1454:1472   */\n      tag_84\n      tag_39\n      jump\t// in\n    tag_84:\n        /* \"#utility.yul\":1386:1474   */\n    tag_83:\n        /* \"#utility.yul\":1494:1504   */\n      dup1\n        /* \"#utility.yul\":1490:1492   */\n      0x40\n        /* \"#utility.yul\":1483:1505   */\n      mstore\n        /* \"#utility.yul\":1273:1511   */\n      pop\n        /* \"#utility.yul\":1230:1511   */\n      pop\n      pop\n      jump\t// out\n        /* \"#utility.yul\":1517:1646   */\n    tag_41:\n        /* \"#utility.yul\":1551:1557   */\n      0x00\n        /* \"#utility.yul\":1578:1598   */\n      tag_86\n      tag_30\n      jump\t// in\n    tag_86:\n        /* \"#utility.yul\":1568:1598   */\n      swap1\n      pop\n        /* \"#utility.yul\":1607:1640   */\n      tag_87\n        /* \"#utility.yul\":1635:1639   */\n      dup3\n        /* \"#utility.yul\":1627:1633   */\n      dup3\n        /* \"#utility.yul\":1607:1640   */\n      tag_40\n      jump\t// in\n    tag_87:\n        /* \"#utility.yul\":1517:1646   */\n      swap2\n      swap1\n      pop\n      jump\t// out\n        /* \"#utility.yul\":1652:1960   */\n    tag_42:\n        /* \"#utility.yul\":1714:1718   */\n      0x00\n        /* \"#utility.yul\":1804:1822   */\n      0xffffffffffffffff\n        /* \"#utility.yul\":1796:1802   */\n      dup3\n        /* \"#utility.yul\":1793:1823   */\n      gt\n        /* \"#utility.yul\":1790:1846   */\n      iszero\n      tag_89\n      jumpi\n        /* \"#utility.yul\":1826:1844   */\n      tag_90\n      tag_39\n      jump\t// in\n    tag_90:\n        /* \"#utility.yul\":1790:1846   */\n    tag_89:\n        /* \"#utility.yul\":1864:1893   */\n      tag_91\n        /* \"#utility.yul\":1886:1892   */\n      dup3\n        /* \"#utility.yul\":1864:1893   */\n      tag_38\n      jump\t// in\n    tag_91:\n        /* \"#utility.yul\":1856:1893   */\n      swap1\n      pop\n        /* \"#utility.yul\":1948:1952   */\n      0x20\n        /* \"#utility.yul\":1942:1946   */\n      dup2\n        /* \"#utility.yul\":1938:1953   */\n      add\n        /* \"#utility.yul\":1930:1953   */\n      swap1\n      pop\n        /* \"#utility.yul\":1652:1960   */\n      swap2\n      swap1\n      pop\n      jump\t// out\n        /* \"#utility.yul\":1966:2112   */\n    tag_43:\n        /* \"#utility.yul\":2063:2069   */\n      dup3\n        /* \"#utility.yul\":2058:2061   */\n      dup2\n        /* \"#utility.yul\":2053:2056   */\n      dup4\n        /* \"#utility.yul\":2040:2070   */\n      calldatacopy\n        /* \"#utility.yul\":2104:2105   */\n      0x00\n        /* \"#utility.yul\":2095:2101   */\n      dup4\n        /* \"#utility.yul\":2090:2093   */\n      dup4\n        /* \"#utility.yul\":2086:2102   */\n      add\n        /* \"#utility.yul\":2079:2106   */\n      mstore\n        /* \"#utility.yul\":1966:2112   */\n      pop\n      pop\n      pop\n      jump\t// out\n        /* \"#utility.yul\":2118:2543   */\n    tag_44:\n        /* \"#utility.yul\":2196:2201   */\n      0x00\n        /* \"#utility.yul\":2221:2287   */\n      tag_94\n        /* \"#utility.yul\":2237:2286   */\n      tag_95\n        /* \"#utility.yul\":2279:2285   */\n      dup5\n        /* \"#utility.yul\":2237:2286   */\n      tag_42\n      jump\t// in\n    tag_95:\n        /* \"#utility.yul\":2221:2287   */\n      tag_41\n      jump\t// in\n    tag_94:\n        /* \"#utility.yul\":2212:2287   */\n      swap1\n      pop\n        /* \"#utility.yul\":2310:2316   */\n      dup3\n        /* \"#utility.yul\":2303:2308   */\n      dup2\n        /* \"#utility.yul\":2296:2317   */\n      mstore\n        /* \"#utility.yul\":2348:2352   */\n      0x20\n        /* \"#utility.yul\":2341:2346   */\n      dup2\n        /* \"#utility.yul\":2337:2353   */\n      add\n        /* \"#utility.yul\":2386:2389   */\n      dup5\n        /* \"#utility.yul\":2377:2383   */\n      dup5\n        /* \"#utility.yul\":2372:2375   */\n      dup5\n        /* \"#utility.yul\":2368:2384   */\n      add\n        /* \"#utility.yul\":2365:2390   */\n      gt\n        /* \"#utility.yul\":2362:2474   */\n      iszero\n      tag_96\n      jumpi\n        /* \"#utility.yul\":2393:2472   */\n      tag_97\n      tag_37\n      jump\t// in\n    tag_97:\n        /* \"#utility.yul\":2362:2474   */\n    tag_96:\n        /* \"#utility.yul\":2483:2537   */\n      tag_98\n        /* \"#utility.yul\":2530:2536   */\n      dup5\n        /* \"#utility.yul\":2525:2528   */\n      dup3\n        /* \"#utility.yul\":2520:2523   */\n      dup6\n        /* \"#utility.yul\":2483:2537   */\n      tag_43\n      jump\t// in\n    tag_98:\n        /* \"#utility.yul\":2202:2543   */\n      pop\n        /* \"#utility.yul\":2118:2543   */\n      swap4\n      swap3\n      pop\n      pop\n      pop\n      jump\t// out\n        /* \"#utility.yul\":2563:2903   */\n    tag_45:\n        /* \"#utility.yul\":2619:2624   */\n      0x00\n        /* \"#utility.yul\":2668:2671   */\n      dup3\n        /* \"#utility.yul\":2661:2665   */\n      0x1f\n        /* \"#utility.yul\":2653:2659   */\n      dup4\n        /* \"#utility.yul\":2649:2666   */\n      add\n        /* \"#utility.yul\":2645:2672   */\n      slt\n        /* \"#utility.yul\":2635:2757   */\n      tag_100\n      jumpi\n        /* \"#utility.yul\":2676:2755   */\n      tag_101\n      tag_36\n      jump\t// in\n    tag_101:\n        /* \"#utility.yul\":2635:2757   */\n    tag_100:\n        /* \"#utility.yul\":2793:2799   */\n      dup2\n        /* \"#utility.yul\":2780:2800   */\n      calldataload\n        /* \"#utility.yul\":2818:2897   */\n      tag_102\n        /* \"#utility.yul\":2893:2896   */\n      dup5\n        /* \"#utility.yul\":2885:2891   */\n      dup3\n        /* \"#utility.yul\":2878:2882   */\n      0x20\n        /* \"#utility.yul\":2870:2876   */\n      dup7\n        /* \"#utility.yul\":2866:2883   */\n      add\n        /* \"#utility.yul\":2818:2897   */\n      tag_44\n      jump\t// in\n    tag_102:\n        /* \"#utility.yul\":2809:2897   */\n      swap2\n      pop\n        /* \"#utility.yul\":2625:2903   */\n      pop\n        /* \"#utility.yul\":2563:2903   */\n      swap3\n      swap2\n      pop\n      pop\n      jump\t// out\n        /* \"#utility.yul\":2909:4034   */\n    tag_7:\n        /* \"#utility.yul\":3015:3021   */\n      0x00\n        /* \"#utility.yul\":3023:3029   */\n      dup1\n        /* \"#utility.yul\":3031:3037   */\n      0x00\n        /* \"#utility.yul\":3039:3045   */\n      dup1\n        /* \"#utility.yul\":3088:3091   */\n      0x80\n        /* \"#utility.yul\":3076:3085   */\n      dup6\n        /* \"#utility.yul\":3067:3074   */\n      dup8\n        /* \"#utility.yul\":3063:3086   */\n      sub\n        /* \"#utility.yul\":3059:3092   */\n      slt\n        /* \"#utility.yul\":3056:3176   */\n      iszero\n      tag_104\n      jumpi\n        /* \"#utility.yul\":3095:3174   */\n      tag_105\n      tag_31\n      jump\t// in\n    tag_105:\n        /* \"#utility.yul\":3056:3176   */\n    tag_104:\n        /* \"#utility.yul\":3215:3216   */\n      0x00\n        /* \"#utility.yul\":3240:3293   */\n      tag_106\n        /* \"#utility.yul\":3285:3292   */\n      dup8\n        /* \"#utility.yul\":3276:3282   */\n      dup3\n        /* \"#utility.yul\":3265:3274   */\n      dup9\n        /* \"#utility.yul\":3261:3283   */\n      add\n        /* \"#utility.yul\":3240:3293   */\n      tag_35\n      jump\t// in\n    tag_106:\n        /* \"#utility.yul\":3230:3293   */\n      swap5\n      pop\n        /* \"#utility.yul\":3186:3303   */\n      pop\n        /* \"#utility.yul\":3370:3372   */\n      0x20\n        /* \"#utility.yul\":3359:3368   */\n      dup6\n        /* \"#utility.yul\":3355:3373   */\n      add\n        /* \"#utility.yul\":3342:3374   */\n      calldataload\n        /* \"#utility.yul\":3401:3419   */\n      0xffffffffffffffff\n        /* \"#utility.yul\":3393:3399   */\n      dup2\n        /* \"#utility.yul\":3390:3420   */\n      gt\n        /* \"#utility.yul\":3387:3504   */\n      iszero\n      tag_107\n      jumpi\n        /* \"#utility.yul\":3423:3502   */\n      tag_108\n      tag_32\n      jump\t// in\n    tag_108:\n        /* \"#utility.yul\":3387:3504   */\n    tag_107:\n        /* \"#utility.yul\":3528:3591   */\n      tag_109\n        /* \"#utility.yul\":3583:3590   */\n      dup8\n        /* \"#utility.yul\":3574:3580   */\n      dup3\n        /* \"#utility.yul\":3563:3572   */\n      dup9\n        /* \"#utility.yul\":3559:3581   */\n      add\n        /* \"#utility.yul\":3528:3591   */\n      tag_45\n      jump\t// in\n    tag_109:\n        /* \"#utility.yul\":3518:3591   */\n      swap4\n      pop\n        /* \"#utility.yul\":3313:3601   */\n      pop\n        /* \"#utility.yul\":3668:3670   */\n      0x40\n        /* \"#utility.yul\":3657:3666   */\n      dup6\n        /* \"#utility.yul\":3653:3671   */\n      add\n        /* \"#utility.yul\":3640:3672   */\n      calldataload\n        /* \"#utility.yul\":3699:3717   */\n      0xffffffffffffffff\n        /* \"#utility.yul\":3691:3697   */\n      dup2\n        /* \"#utility.yul\":3688:3718   */\n      gt\n        /* \"#utility.yul\":3685:3802   */\n      iszero\n      tag_110\n      jumpi\n        /* \"#utility.yul\":3721:3800   */\n      tag_111\n      tag_32\n      jump\t// in\n    tag_111:\n        /* \"#utility.yul\":3685:3802   */\n    tag_110:\n        /* \"#utility.yul\":3826:3889   */\n      tag_112\n        /* \"#utility.yul\":3881:3888   */\n      dup8\n        /* \"#utility.yul\":3872:3878   */\n      dup3\n        /* \"#utility.yul\":3861:3870   */\n      dup9\n        /* \"#utility.yul\":3857:3879   */\n      add\n        /* \"#utility.yul\":3826:3889   */\n      tag_45\n      jump\t// in\n    tag_112:\n        /* \"#utility.yul\":3816:3889   */\n      swap3\n      pop\n        /* \"#utility.yul\":3611:3899   */\n      pop\n        /* \"#utility.yul\":3938:3940   */\n      0x60\n        /* \"#utility.yul\":3964:4017   */\n      tag_113\n        /* \"#utility.yul\":4009:4016   */\n      dup8\n        /* \"#utility.yul\":4000:4006   */\n      dup3\n        /* \"#utility.yul\":3989:3998   */\n      dup9\n        /* \"#utility.yul\":3985:4007   */\n      add\n        /* \"#utility.yul\":3964:4017   */\n      tag_35\n      jump\t// in\n    tag_113:\n        /* \"#utility.yul\":3954:4017   */\n      swap2\n      pop\n        /* \"#utility.yul\":3909:4027   */\n      pop\n        /* \"#utility.yul\":2909:4034   */\n      swap3\n      swap6\n      swap2\n      swap5\n      pop\n      swap3\n      pop\n      jump\t// out\n        /* \"#utility.yul\":4040:4369   */\n    tag_11:\n        /* \"#utility.yul\":4099:4105   */\n      0x00\n        /* \"#utility.yul\":4148:4150   */\n      0x20\n        /* \"#utility.yul\":4136:4145   */\n      dup3\n        /* \"#utility.yul\":4127:4134   */\n      dup5\n        /* \"#utility.yul\":4123:4146   */\n      sub\n        /* \"#utility.yul\":4119:4151   */\n      slt\n        /* \"#utility.yul\":4116:4235   */\n      iszero\n      tag_115\n      jumpi\n        /* \"#utility.yul\":4154:4233   */\n      tag_116\n      tag_31\n      jump\t// in\n    tag_116:\n        /* \"#utility.yul\":4116:4235   */\n    tag_115:\n        /* \"#utility.yul\":4274:4275   */\n      0x00\n        /* \"#utility.yul\":4299:4352   */\n      tag_117\n        /* \"#utility.yul\":4344:4351   */\n      dup5\n        /* \"#utility.yul\":4335:4341   */\n      dup3\n        /* \"#utility.yul\":4324:4333   */\n      dup6\n        /* \"#utility.yul\":4320:4342   */\n      add\n        /* \"#utility.yul\":4299:4352   */\n      tag_35\n      jump\t// in\n    tag_117:\n        /* \"#utility.yul\":4289:4352   */\n      swap2\n      pop\n        /* \"#utility.yul\":4245:4362   */\n      pop\n        /* \"#utility.yul\":4040:4369   */\n      swap3\n      swap2\n      pop\n      pop\n      jump\t// out\n        /* \"#utility.yul\":4375:4493   */\n    tag_46:\n        /* \"#utility.yul\":4462:4486   */\n      tag_119\n        /* \"#utility.yul\":4480:4485   */\n      dup2\n        /* \"#utility.yul\":4462:4486   */\n      tag_33\n      jump\t// in\n    tag_119:\n        /* \"#utility.yul\":4457:4460   */\n      dup3\n        /* \"#utility.yul\":4450:4487   */\n      mstore\n        /* \"#utility.yul\":4375:4493   */\n      pop\n      pop\n      jump\t// out\n        /* \"#utility.yul\":4499:4598   */\n    tag_47:\n        /* \"#utility.yul\":4551:4557   */\n      0x00\n        /* \"#utility.yul\":4585:4590   */\n      dup2\n        /* \"#utility.yul\":4579:4591   */\n      mload\n        /* \"#utility.yul\":4569:4591   */\n      swap1\n      pop\n        /* \"#utility.yul\":4499:4598   */\n      swap2\n      swap1\n      pop\n      jump\t// out\n        /* \"#utility.yul\":4604:4773   */\n    tag_48:\n        /* \"#utility.yul\":4688:4699   */\n      0x00\n        /* \"#utility.yul\":4722:4728   */\n      dup3\n        /* \"#utility.yul\":4717:4720   */\n      dup3\n        /* \"#utility.yul\":4710:4729   */\n      mstore\n        /* \"#utility.yul\":4762:4766   */\n      0x20\n        /* \"#utility.yul\":4757:4760   */\n      dup3\n        /* \"#utility.yul\":4753:4767   */\n      add\n        /* \"#utility.yul\":4738:4767   */\n      swap1\n      pop\n        /* \"#utility.yul\":4604:4773   */\n      swap3\n      swap2\n      pop\n      pop\n      jump\t// out\n        /* \"#utility.yul\":4779:5025   */\n    tag_49:\n        /* \"#utility.yul\":4860:4861   */\n      0x00\n        /* \"#utility.yul\":4870:4983   */\n    tag_123:\n        /* \"#utility.yul\":4884:4890   */\n      dup4\n        /* \"#utility.yul\":4881:4882   */\n      dup2\n        /* \"#utility.yul\":4878:4891   */\n      lt\n        /* \"#utility.yul\":4870:4983   */\n      iszero\n      tag_125\n      jumpi\n        /* \"#utility.yul\":4969:4970   */\n      dup1\n        /* \"#utility.yul\":4964:4967   */\n      dup3\n        /* \"#utility.yul\":4960:4971   */\n      add\n        /* \"#utility.yul\":4954:4972   */\n      mload\n        /* \"#utility.yul\":4950:4951   */\n      dup2\n        /* \"#utility.yul\":4945:4948   */\n      dup5\n        /* \"#utility.yul\":4941:4952   */\n      add\n        /* \"#utility.yul\":4934:4973   */\n      mstore\n        /* \"#utility.yul\":4906:4908   */\n      0x20\n        /* \"#utility.yul\":4903:4904   */\n      dup2\n        /* \"#utility.yul\":4899:4909   */\n      add\n        /* \"#utility.yul\":4894:4909   */\n      swap1\n      pop\n        /* \"#utility.yul\":4870:4983   */\n      jump(tag_123)\n    tag_125:\n        /* \"#utility.yul\":5017:5018   */\n      0x00\n        /* \"#utility.yul\":5008:5014   */\n      dup5\n        /* \"#utility.yul\":5003:5006   */\n      dup5\n        /* \"#utility.yul\":4999:5015   */\n      add\n        /* \"#utility.yul\":4992:5019   */\n      mstore\n        /* \"#utility.yul\":4841:5025   */\n      pop\n        /* \"#utility.yul\":4779:5025   */\n      pop\n      pop\n      pop\n      jump\t// out\n        /* \"#utility.yul\":5031:5408   */\n    tag_50:\n        /* \"#utility.yul\":5119:5122   */\n      0x00\n        /* \"#utility.yul\":5147:5186   */\n      tag_127\n        /* \"#utility.yul\":5180:5185   */\n      dup3\n        /* \"#utility.yul\":5147:5186   */\n      tag_47\n      jump\t// in\n    tag_127:\n        /* \"#utility.yul\":5202:5273   */\n      tag_128\n        /* \"#utility.yul\":5266:5272   */\n      dup2\n        /* \"#utility.yul\":5261:5264   */\n      dup6\n        /* \"#utility.yul\":5202:5273   */\n      tag_48\n      jump\t// in\n    tag_128:\n        /* \"#utility.yul\":5195:5273   */\n      swap4\n      pop\n        /* \"#utility.yul\":5282:5347   */\n      tag_129\n        /* \"#utility.yul\":5340:5346   */\n      dup2\n        /* \"#utility.yul\":5335:5338   */\n      dup6\n        /* \"#utility.yul\":5328:5332   */\n      0x20\n        /* \"#utility.yul\":5321:5326   */\n      dup7\n        /* \"#utility.yul\":5317:5333   */\n      add\n        /* \"#utility.yul\":5282:5347   */\n      tag_49\n      jump\t// in\n    tag_129:\n        /* \"#utility.yul\":5372:5401   */\n      tag_130\n        /* \"#utility.yul\":5394:5400   */\n      dup2\n        /* \"#utility.yul\":5372:5401   */\n      tag_38\n      jump\t// in\n    tag_130:\n        /* \"#utility.yul\":5367:5370   */\n      dup5\n        /* \"#utility.yul\":5363:5402   */\n      add\n        /* \"#utility.yul\":5356:5402   */\n      swap2\n      pop\n        /* \"#utility.yul\":5123:5408   */\n      pop\n        /* \"#utility.yul\":5031:5408   */\n      swap3\n      swap2\n      pop\n      pop\n      jump\t// out\n        /* \"#utility.yul\":5414:6149   */\n    tag_14:\n        /* \"#utility.yul\":5631:5635   */\n      0x00\n        /* \"#utility.yul\":5669:5672   */\n      0x80\n        /* \"#utility.yul\":5658:5667   */\n      dup3\n        /* \"#utility.yul\":5654:5673   */\n      add\n        /* \"#utility.yul\":5646:5673   */\n      swap1\n      pop\n        /* \"#utility.yul\":5683:5754   */\n      tag_132\n        /* \"#utility.yul\":5751:5752   */\n      0x00\n        /* \"#utility.yul\":5740:5749   */\n      dup4\n        /* \"#utility.yul\":5736:5753   */\n      add\n        /* \"#utility.yul\":5727:5733   */\n      dup8\n        /* \"#utility.yul\":5683:5754   */\n      tag_46\n      jump\t// in\n    tag_132:\n        /* \"#utility.yul\":5801:5810   */\n      dup2\n        /* \"#utility.yul\":5795:5799   */\n      dup2\n        /* \"#utility.yul\":5791:5811   */\n      sub\n        /* \"#utility.yul\":5786:5788   */\n      0x20\n        /* \"#utility.yul\":5775:5784   */\n      dup4\n        /* \"#utility.yul\":5771:5789   */\n      add\n        /* \"#utility.yul\":5764:5812   */\n      mstore\n        /* \"#utility.yul\":5829:5907   */\n      tag_133\n        /* \"#utility.yul\":5902:5906   */\n      dup2\n        /* \"#utility.yul\":5893:5899   */\n      dup7\n        /* \"#utility.yul\":5829:5907   */\n      tag_50\n      jump\t// in\n    tag_133:\n        /* \"#utility.yul\":5821:5907   */\n      swap1\n      pop\n        /* \"#utility.yul\":5954:5963   */\n      dup2\n        /* \"#utility.yul\":5948:5952   */\n      dup2\n        /* \"#utility.yul\":5944:5964   */\n      sub\n        /* \"#utility.yul\":5939:5941   */\n      0x40\n        /* \"#utility.yul\":5928:5937   */\n      dup4\n        /* \"#utility.yul\":5924:5942   */\n      add\n        /* \"#utility.yul\":5917:5965   */\n      mstore\n        /* \"#utility.yul\":5982:6060   */\n      tag_134\n        /* \"#utility.yul\":6055:6059   */\n      dup2\n        /* \"#utility.yul\":6046:6052   */\n      dup6\n        /* \"#utility.yul\":5982:6060   */\n      tag_50\n      jump\t// in\n    tag_134:\n        /* \"#utility.yul\":5974:6060   */\n      swap1\n      pop\n        /* \"#utility.yul\":6070:6142   */\n      tag_135\n        /* \"#utility.yul\":6138:6140   */\n      0x60\n        /* \"#utility.yul\":6127:6136   */\n      dup4\n        /* \"#utility.yul\":6123:6141   */\n      add\n        /* \"#utility.yul\":6114:6120   */\n      dup5\n        /* \"#utility.yul\":6070:6142   */\n      tag_46\n      jump\t// in\n    tag_135:\n        /* \"#utility.yul\":5414:6149   */\n      swap6\n      swap5\n      pop\n      pop\n      pop\n      pop\n      pop\n      jump\t// out\n        /* \"#utility.yul\":6155:6335   */\n    tag_51:\n        /* \"#utility.yul\":6203:6280   */\n      0x4e487b7100000000000000000000000000000000000000000000000000000000\n        /* \"#utility.yul\":6200:6201   */\n      0x00\n        /* \"#utility.yul\":6193:6281   */\n      mstore\n        /* \"#utility.yul\":6300:6304   */\n      0x22\n        /* \"#utility.yul\":6297:6298   */\n      0x04\n        /* \"#utility.yul\":6290:6305   */\n      mstore\n        /* \"#utility.yul\":6324:6328   */\n      0x24\n        /* \"#utility.yul\":6321:6322   */\n      0x00\n        /* \"#utility.yul\":6314:6329   */\n      revert\n        /* \"#utility.yul\":6341:6661   */\n    tag_20:\n        /* \"#utility.yul\":6385:6391   */\n      0x00\n        /* \"#utility.yul\":6422:6423   */\n      0x02\n        /* \"#utility.yul\":6416:6420   */\n      dup3\n        /* \"#utility.yul\":6412:6424   */\n      div\n        /* \"#utility.yul\":6402:6424   */\n      swap1\n      pop\n        /* \"#utility.yul\":6469:6470   */\n      0x01\n        /* \"#utility.yul\":6463:6467   */\n      dup3\n        /* \"#utility.yul\":6459:6471   */\n      and\n        /* \"#utility.yul\":6490:6508   */\n      dup1\n        /* \"#utility.yul\":6480:6561   */\n      tag_138\n      jumpi\n        /* \"#utility.yul\":6546:6550   */\n      0x7f\n        /* \"#utility.yul\":6538:6544   */\n      dup3\n        /* \"#utility.yul\":6534:6551   */\n      and\n        /* \"#utility.yul\":6524:6551   */\n      swap2\n      pop\n        /* \"#utility.yul\":6480:6561   */\n    tag_138:\n        /* \"#utility.yul\":6608:6610   */\n      0x20\n        /* \"#utility.yul\":6600:6606   */\n      dup3\n        /* \"#utility.yul\":6597:6611   */\n      lt\n        /* \"#utility.yul\":6577:6595   */\n      dup2\n        /* \"#utility.yul\":6574:6612   */\n      sub\n        /* \"#utility.yul\":6571:6655   */\n      tag_139\n      jumpi\n        /* \"#utility.yul\":6627:6645   */\n      tag_140\n      tag_51\n      jump\t// in\n    tag_140:\n        /* \"#utility.yul\":6571:6655   */\n    tag_139:\n        /* \"#utility.yul\":6392:6661   */\n      pop\n        /* \"#utility.yul\":6341:6661   */\n      swap2\n      swap1\n      pop\n      jump\t// out\n        /* \"#utility.yul\":6667:6808   */\n    tag_52:\n        /* \"#utility.yul\":6716:6720   */\n      0x00\n        /* \"#utility.yul\":6739:6742   */\n      dup2\n        /* \"#utility.yul\":6731:6742   */\n      swap1\n      pop\n        /* \"#utility.yul\":6762:6765   */\n      dup2\n        /* \"#utility.yul\":6759:6760   */\n      0x00\n        /* \"#utility.yul\":6752:6766   */\n      mstore\n        /* \"#utility.yul\":6796:6800   */\n      0x20\n        /* \"#utility.yul\":6793:6794   */\n      0x00\n        /* \"#utility.yul\":6783:6801   */\n      keccak256\n        /* \"#utility.yul\":6775:6801   */\n      swap1\n      pop\n        /* \"#utility.yul\":6667:6808   */\n      swap2\n      swap1\n      pop\n      jump\t// out\n        /* \"#utility.yul\":6814:6907   */\n    tag_53:\n        /* \"#utility.yul\":6851:6857   */\n      0x00\n        /* \"#utility.yul\":6898:6900   */\n      0x20\n        /* \"#utility.yul\":6893:6895   */\n      0x1f\n        /* \"#utility.yul\":6886:6891   */\n      dup4\n        /* \"#utility.yul\":6882:6896   */\n      add\n        /* \"#utility.yul\":6878:6901   */\n      div\n        /* \"#utility.yul\":6868:6901   */\n      swap1\n      pop\n        /* \"#utility.yul\":6814:6907   */\n      swap2\n      swap1\n      pop\n      jump\t// out\n        /* \"#utility.yul\":6913:7020   */\n    tag_54:\n        /* \"#utility.yul\":6957:6965   */\n      0x00\n        /* \"#utility.yul\":7007:7012   */\n      dup3\n        /* \"#utility.yul\":7001:7005   */\n      dup3\n        /* \"#utility.yul\":6997:7013   */\n      shl\n        /* \"#utility.yul\":6976:7013   */\n      swap1\n      pop\n        /* \"#utility.yul\":6913:7020   */\n      swap3\n      swap2\n      pop\n      pop\n      jump\t// out\n        /* \"#utility.yul\":7026:7419   */\n    tag_55:\n        /* \"#utility.yul\":7095:7101   */\n      0x00\n        /* \"#utility.yul\":7145:7146   */\n      0x08\n        /* \"#utility.yul\":7133:7143   */\n      dup4\n        /* \"#utility.yul\":7129:7147   */\n      mul\n        /* \"#utility.yul\":7168:7265   */\n      tag_145\n        /* \"#utility.yul\":7198:7264   */\n      0xffffffffffffffffffffffffffffffffffffffffffffffffffffffffffffffff\n        /* \"#utility.yul\":7187:7196   */\n      dup3\n        /* \"#utility.yul\":7168:7265   */\n      tag_54\n      jump\t// in\n    tag_145:\n        /* \"#utility.yul\":7286:7325   */\n      tag_146\n        /* \"#utility.yul\":7316:7324   */\n      dup7\n        /* \"#utility.yul\":7305:7314   */\n      dup4\n        /* \"#utility.yul\":7286:7325   */\n      tag_54\n      jump\t// in\n    tag_146:\n        /* \"#utility.yul\":7274:7325   */\n      swap6\n      pop\n        /* \"#utility.yul\":7358:7362   */\n      dup1\n        /* \"#utility.yul\":7354:7363   */\n      not\n        /* \"#utility.yul\":7347:7352   */\n      dup5\n        /* \"#utility.yul\":7343:7364   */\n      and\n        /* \"#utility.yul\":7334:7364   */\n      swap4\n      pop\n        /* \"#utility.yul\":7407:7411   */\n      dup1\n        /* \"#utility.yul\":7397:7405   */\n      dup7\n        /* \"#utility.yul\":7393:7412   */\n      and\n        /* \"#utility.yul\":7386:7391   */\n      dup5\n        /* \"#utility.yul\":7383:7413   */\n      or\n        /* \"#utility.yul\":7373:7413   */\n      swap3\n      pop\n        /* \"#utility.yul\":7102:7419   */\n      pop\n      pop\n        /* \"#utility.yul\":7026:7419   */\n      swap4\n      swap3\n      pop\n      pop\n      pop\n      jump\t// out\n        /* \"#utility.yul\":7425:7485   */\n    tag_56:\n        /* \"#utility.yul\":7453:7456   */\n      0x00\n        /* \"#utility.yul\":7474:7479   */\n      dup2\n        /* \"#utility.yul\":7467:7479   */\n      swap1\n      pop\n        /* \"#utility.yul\":7425:7485   */\n      swap2\n      swap1\n      pop\n      jump\t// out\n        /* \"#utility.yul\":7491:7633   */\n    tag_57:\n        /* \"#utility.yul\":7541:7550   */\n      0x00\n        /* \"#utility.yul\":7574:7627   */\n      tag_149\n        /* \"#utility.yul\":7592:7626   */\n      tag_150\n        /* \"#utility.yul\":7601:7625   */\n      tag_151\n        /* \"#utility.yul\":7619:7624   */\n      dup5\n        /* \"#utility.yul\":7601:7625   */\n      tag_33\n      jump\t// in\n    tag_151:\n        /* \"#utility.yul\":7592:7626   */\n      tag_56\n      jump\t// in\n    tag_150:\n        /* \"#utility.yul\":7574:7627   */\n      tag_33\n      jump\t// in\n    tag_149:\n        /* \"#utility.yul\":7561:7627   */\n      swap1\n      pop\n        /* \"#utility.yul\":7491:7633   */\n      swap2\n      swap1\n      pop\n      jump\t// out\n        /* \"#utility.yul\":7639:7714   */\n    tag_58:\n        /* \"#utility.yul\":7682:7685   */\n      0x00\n        /* \"#utility.yul\":7703:7708   */\n      dup2\n        /* \"#utility.yul\":7696:7708   */\n      swap1\n      pop\n        /* \"#utility.yul\":7639:7714   */\n      swap2\n      swap1\n      pop\n      jump\t// out\n        /* \"#utility.yul\":7720:7989   */\n    tag_59:\n        /* \"#utility.yul\":7830:7869   */\n      tag_154\n        /* \"#utility.yul\":7861:7868   */\n      dup4\n        /* \"#utility.yul\":7830:7869   */\n      tag_57\n      jump\t// in\n    tag_154:\n        /* \"#utility.yul\":7891:7982   */\n      tag_155\n        /* \"#utility.yul\":7940:7981   */\n      tag_156\n        /* \"#utility.yul\":7964:7980   */\n      dup3\n        /* \"#utility.yul\":7940:7981   */\n      tag_58\n      jump\t// in\n    tag_156:\n        /* \"#utility.yul\":7932:7938   */\n      dup5\n        /* \"#utility.yul\":7925:7929   */\n      dup5\n        /* \"#utility.yul\":7919:7930   */\n      sload\n        /* \"#utility.yul\":7891:7982   */\n      tag_55\n      jump\t// in\n    tag_155:\n        /* \"#utility.yul\":7885:7889   */\n      dup3\n        /* \"#utility.yul\":7878:7983   */\n      sstore\n        /* \"#utility.yul\":7796:7989   */\n      pop\n        /* \"#utility.yul\":7720:7989   */\n      pop\n      pop\n      pop\n      jump\t// out\n        /* \"#utility.yul\":7995:8068   */\n    tag_60:\n        /* \"#utility.yul\":8040:8043   */\n      0x00\n        /* \"#utility.yul\":7995:8068   */\n      swap1\n      jump\t// out\n        /* \"#utility.yul\":8074:8263   */\n    tag_61:\n        /* \"#utility.yul\":8151:8183   */\n      tag_159\n      tag_60\n      jump\t// in\n    tag_159:\n        /* \"#utility.yul\":8192:8257   */\n      tag_160\n        /* \"#utility.yul\":8250:8256   */\n      dup2\n        /* \"#utility.yul\":8242:8248   */\n      dup5\n        /* \"#utility.yul\":8236:8240   */\n      dup5\n        /* \"#utility.yul\":8192:8257   */\n      tag_59\n      jump\t// in\n    tag_160:\n        /* \"#utility.yul\":8127:8263   */\n      pop\n        /* \"#utility.yul\":8074:8263   */\n      pop\n      pop\n      jump\t// out\n        /* \"#utility.yul\":8269:8455   */\n    tag_62:\n        /* \"#utility.yul\":8329:8449   */\n    tag_162:\n        /* \"#utility.yul\":8346:8349   */\n      dup2\n        /* \"#utility.yul\":8339:8344   */\n      dup2\n        /* \"#utility.yul\":8336:8350   */\n      lt\n        /* \"#utility.yul\":8329:8449   */\n      iszero\n      tag_164\n      jumpi\n        /* \"#utility.yul\":8400:8439   */\n      tag_165\n        /* \"#utility.yul\":8437:8438   */\n      0x00\n        /* \"#utility.yul\":8430:8435   */\n      dup3\n        /* \"#utility.yul\":8400:8439   */\n      tag_61\n      jump\t// in\n    tag_165:\n        /* \"#utility.yul\":8373:8374   */\n      0x01\n        /* \"#utility.yul\":8366:8371   */\n      dup2\n        /* \"#utility.yul\":8362:8375   */\n      add\n        /* \"#utility.yul\":8353:8375   */\n      swap1\n      pop\n        /* \"#utility.yul\":8329:8449   */\n      jump(tag_162)\n    tag_164:\n        /* \"#utility.yul\":8269:8455   */\n      pop\n      pop\n      jump\t// out\n        /* \"#utility.yul\":8461:9004   */\n    tag_63:\n        /* \"#utility.yul\":8562:8564   */\n      0x1f\n        /* \"#utility.yul\":8557:8560   */\n      dup3\n        /* \"#utility.yul\":8554:8565   */\n      gt\n        /* \"#utility.yul\":8551:8997   */\n      iszero\n      tag_167\n      jumpi\n        /* \"#utility.yul\":8596:8634   */\n      tag_168\n        /* \"#utility.yul\":8628:8633   */\n      dup2\n        /* \"#utility.yul\":8596:8634   */\n      tag_52\n      jump\t// in\n    tag_168:\n        /* \"#utility.yul\":8680:8709   */\n      tag_169\n        /* \"#utility.yul\":8698:8708   */\n      dup5\n        /* \"#utility.yul\":8680:8709   */\n      tag_53\n      jump\t// in\n    tag_169:\n        /* \"#utility.yul\":8670:8678   */\n      dup2\n        /* \"#utility.yul\":8666:8710   */\n      add\n        /* \"#utility.yul\":8863:8865   */\n      0x20\n        /* \"#utility.yul\":8851:8861   */\n      dup6\n        /* \"#utility.yul\":8848:8866   */\n      lt\n        /* \"#utility.yul\":8845:8894   */\n      iszero\n      tag_170\n      jumpi\n        /* \"#utility.yul\":8884:8892   */\n      dup2\n        /* \"#utility.yul\":8869:8892   */\n      swap1\n      pop\n        /* \"#utility.yul\":8845:8894   */\n    tag_170:\n        /* \"#utility.yul\":8907:8987   */\n      tag_171\n        /* \"#utility.yul\":8963:8985   */\n      tag_172\n        /* \"#utility.yul\":8981:8984   */\n      dup6\n        /* \"#utility.yul\":8963:8985   */\n      tag_53\n      jump\t// in\n    tag_172:\n        /* \"#utility.yul\":8953:8961   */\n      dup4\n        /* \"#utility.yul\":8949:8986   */\n      add\n        /* \"#utility.yul\":8936:8947   */\n      dup3\n        /* \"#utility.yul\":8907:8987   */\n      tag_62\n      jump\t// in\n    tag_171:\n        /* \"#utility.yul\":8566:8997   */\n      pop\n      pop\n        /* \"#utility.yul\":8551:8997   */\n    tag_167:\n        /* \"#utility.yul\":8461:9004   */\n      pop\n      pop\n      pop\n      jump\t// out\n        /* \"#utility.yul\":9010:9127   */\n    tag_64:\n        /* \"#utility.yul\":9064:9072   */\n      0x00\n        /* \"#utility.yul\":9114:9119   */\n      dup3\n        /* \"#utility.yul\":9108:9112   */\n      dup3\n        /* \"#utility.yul\":9104:9120   */\n      shr\n        /* \"#utility.yul\":9083:9120   */\n      swap1\n      pop\n        /* \"#utility.yul\":9010:9127   */\n      swap3\n      swap2\n      pop\n      pop\n      jump\t// out\n        /* \"#utility.yul\":9133:9302   */\n    tag_65:\n        /* \"#utility.yul\":9177:9183   */\n      0x00\n        /* \"#utility.yul\":9210:9261   */\n      tag_175\n        /* \"#utility.yul\":9258:9259   */\n      0x00\n        /* \"#utility.yul\":9254:9260   */\n      not\n        /* \"#utility.yul\":9246:9251   */\n      dup5\n        /* \"#utility.yul\":9243:9244   */\n      0x08\n        /* \"#utility.yul\":9239:9252   */\n      mul\n        /* \"#utility.yul\":9210:9261   */\n      tag_64\n      jump\t// in\n    tag_175:\n        /* \"#utility.yul\":9206:9262   */\n      not\n        /* \"#utility.yul\":9291:9295   */\n      dup1\n        /* \"#utility.yul\":9285:9289   */\n      dup4\n        /* \"#utility.yul\":9281:9296   */\n      and\n        /* \"#utility.yul\":9271:9296   */\n      swap2\n      pop\n        /* \"#utility.yul\":9184:9302   */\n      pop\n        /* \"#utility.yul\":9133:9302   */\n      swap3\n      swap2\n      pop\n      pop\n      jump\t// out\n        /* \"#utility.yul\":9307:9602   */\n    tag_66:\n        /* \"#utility.yul\":9383:9387   */\n      0x00\n        /* \"#utility.yul\":9529:9558   */\n      tag_177\n        /* \"#utility.yul\":9554:9557   */\n      dup4\n        /* \"#utility.yul\":9548:9552   */\n      dup4\n        /* \"#utility.yul\":9529:9558   */\n      tag_65\n      jump\t// in\n    tag_177:\n        /* \"#utility.yul\":9521:9558   */\n      swap2\n      pop\n        /* \"#utility.yul\":9591:9594   */\n      dup3\n        /* \"#utility.yul\":9588:9589   */\n      0x02\n        /* \"#utility.yul\":9584:9595   */\n      mul\n        /* \"#utility.yul\":9578:9582   */\n      dup3\n        /* \"#utility.yul\":9575:9596   */\n      or\n        /* \"#utility.yul\":9567:9596   */\n      swap1\n      pop\n        /* \"#utility.yul\":9307:9602   */\n      swap3\n      swap2\n      pop\n      pop\n      jump\t// out\n        /* \"#utility.yul\":9607:11002   */\n    tag_17:\n        /* \"#utility.yul\":9724:9761   */\n      tag_179\n        /* \"#utility.yul\":9757:9760   */\n      dup3\n        /* \"#utility.yul\":9724:9761   */\n      tag_47\n      jump\t// in\n    tag_179:\n        /* \"#utility.yul\":9826:9844   */\n      0xffffffffffffffff\n        /* \"#utility.yul\":9818:9824   */\n      dup2\n        /* \"#utility.yul\":9815:9845   */\n      gt\n        /* \"#utility.yul\":9812:9868   */\n      iszero\n      tag_180\n      jumpi\n        /* \"#utility.yul\":9848:9866   */\n      tag_181\n      tag_39\n      jump\t// in\n    tag_181:\n        /* \"#utility.yul\":9812:9868   */\n    tag_180:\n        /* \"#utility.yul\":9892:9930   */\n      tag_182\n        /* \"#utility.yul\":9924:9928   */\n      dup3\n        /* \"#utility.yul\":9918:9929   */\n      sload\n        /* \"#utility.yul\":9892:9930   */\n      tag_20\n      jump\t// in\n    tag_182:\n        /* \"#utility.yul\":9977:10044   */\n      tag_183\n        /* \"#utility.yul\":10037:10043   */\n      dup3\n        /* \"#utility.yul\":10029:10035   */\n      dup3\n        /* \"#utility.yul\":10023:10027   */\n      dup6\n        /* \"#utility.yul\":9977:10044   */\n      tag_63\n      jump\t// in\n    tag_183:\n        /* \"#utility.yul\":10071:10072   */\n      0x00\n        /* \"#utility.yul\":10095:10099   */\n      0x20\n        /* \"#utility.yul\":10082:10099   */\n      swap1\n      pop\n        /* \"#utility.yul\":10127:10129   */\n      0x1f\n        /* \"#utility.yul\":10119:10125   */\n      dup4\n        /* \"#utility.yul\":10116:10130   */\n      gt\n        /* \"#utility.yul\":10144:10145   */\n      0x01\n        /* \"#utility.yul\":10139:10757   */\n      dup2\n      eq\n      tag_185\n      jumpi\n        /* \"#utility.yul\":10801:10802   */\n      0x00\n        /* \"#utility.yul\":10818:10824   */\n      dup5\n        /* \"#utility.yul\":10815:10892   */\n      iszero\n      tag_186\n      jumpi\n        /* \"#utility.yul\":10867:10876   */\n      dup3\n        /* \"#utility.yul\":10862:10865   */\n      dup8\n        /* \"#utility.yul\":10858:10877   */\n      add\n        /* \"#utility.yul\":10852:10878   */\n      mload\n        /* \"#utility.yul\":10843:10878   */\n      swap1\n      pop\n        /* \"#utility.yul\":10815:10892   */\n    tag_186:\n        /* \"#utility.yul\":10918:10985   */\n      tag_187\n        /* \"#utility.yul\":10978:10984   */\n      dup6\n        /* \"#utility.yul\":10971:10976   */\n      dup3\n        /* \"#utility.yul\":10918:10985   */\n      tag_66\n      jump\t// in\n    tag_187:\n        /* \"#utility.yul\":10912:10916   */\n      dup7\n        /* \"#utility.yul\":10905:10986   */\n      sstore\n        /* \"#utility.yul\":10774:10996   */\n      pop\n        /* \"#utility.yul\":10109:10996   */\n      jump(tag_184)\n        /* \"#utility.yul\":10139:10757   */\n    tag_185:\n        /* \"#utility.yul\":10191:10195   */\n      0x1f\n        /* \"#utility.yul\":10187:10196   */\n      not\n        /* \"#utility.yul\":10179:10185   */\n      dup5\n        /* \"#utility.yul\":10175:10197   */\n      and\n        /* \"#utility.yul\":10225:10262   */\n      tag_188\n        /* \"#utility.yul\":10257:10261   */\n      dup7\n        /* \"#utility.yul\":10225:10262   */\n      tag_52\n      jump\t// in\n    tag_188:\n        /* \"#utility.yul\":10284:10285   */\n      0x00\n        /* \"#utility.yul\":10298:10506   */\n    tag_189:\n        /* \"#utility.yul\":10312:10319   */\n      dup3\n        /* \"#utility.yul\":10309:10310   */\n      dup2\n        /* \"#utility.yul\":10306:10320   */\n      lt\n        /* \"#utility.yul\":10298:10506   */\n      iszero\n      tag_191\n      jumpi\n        /* \"#utility.yul\":10391:10400   */\n      dup5\n        /* \"#utility.yul\":10386:10389   */\n      dup10\n        /* \"#utility.yul\":10382:10401   */\n      add\n        /* \"#utility.yul\":10376:10402   */\n      mload\n        /* \"#utility.yul\":10368:10374   */\n      dup3\n        /* \"#utility.yul\":10361:10403   */\n      sstore\n        /* \"#utility.yul\":10442:10443   */\n      0x01\n        /* \"#utility.yul\":10434:10440   */\n      dup3\n        /* \"#utility.yul\":10430:10444   */\n      add\n        /* \"#utility.yul\":10420:10444   */\n      swap2\n      pop\n        /* \"#utility.yul\":10489:10491   */\n      0x20\n        /* \"#utility.yul\":10478:10487   */\n      dup6\n        /* \"#utility.yul\":10474:10492   */\n      add\n        /* \"#utility.yul\":10461:10492   */\n      swap5\n      pop\n        /* \"#utility.yul\":10335:10339   */\n      0x20\n        /* \"#utility.yul\":10332:10333   */\n      dup2\n        /* \"#utility.yul\":10328:10340   */\n      add\n        /* \"#utility.yul\":10323:10340   */\n      swap1\n      pop\n        /* \"#utility.yul\":10298:10506   */\n      jump(tag_189)\n    tag_191:\n        /* \"#utility.yul\":10534:10540   */\n      dup7\n        /* \"#utility.yul\":10525:10532   */\n      dup4\n        /* \"#utility.yul\":10522:10541   */\n      lt\n        /* \"#utility.yul\":10519:10698   */\n      iszero\n      tag_192\n      jumpi\n        /* \"#utility.yul\":10592:10601   */\n      dup5\n        /* \"#utility.yul\":10587:10590   */\n      dup10\n        /* \"#utility.yul\":10583:10602   */\n      add\n        /* \"#utility.yul\":10577:10603   */\n      mload\n        /* \"#utility.yul\":10635:10683   */\n      tag_193\n        /* \"#utility.yul\":10677:10681   */\n      0x1f\n        /* \"#utility.yul\":10669:10675   */\n      dup10\n        /* \"#utility.yul\":10665:10682   */\n      and\n        /* \"#utility.yul\":10654:10663   */\n      dup3\n        /* \"#utility.yul\":10635:10683   */\n      tag_65\n      jump\t// in\n    tag_193:\n        /* \"#utility.yul\":10627:10633   */\n      dup4\n        /* \"#utility.yul\":10620:10684   */\n      sstore\n        /* \"#utility.yul\":10542:10698   */\n      pop\n        /* \"#utility.yul\":10519:10698   */\n    tag_192:\n        /* \"#utility.yul\":10744:10745   */\n      0x01\n        /* \"#utility.yul\":10740:10741   */\n      0x02\n        /* \"#utility.yul\":10732:10738   */\n      dup9\n        /* \"#utility.yul\":10728:10742   */\n      mul\n        /* \"#utility.yul\":10724:10746   */\n      add\n        /* \"#utility.yul\":10718:10722   */\n      dup9\n        /* \"#utility.yul\":10711:10747   */\n      sstore\n        /* \"#utility.yul\":10146:10757   */\n      pop\n      pop\n      pop\n        /* \"#utility.yul\":10109:10996   */\n    tag_184:\n      pop\n        /* \"#utility.yul\":9699:11002   */\n      pop\n      pop\n      pop\n        /* \"#utility.yul\":9607:11002   */\n      pop\n      pop\n      jump\t// out\n\n    auxdata: 0xa2646970667358221220dd8428e6b5b37e6acbe6b83061ba6d57753ec54c08b3c7a911934678dc02493864736f6c63430008120033\n}\n",
				"bytecode": {
					"linkReferences": {},
					"object": "608060405234801561001057600080fd5b50610897806100206000396000f3fe608060405234801561001057600080fd5b50600436106100365760003560e01c80634fa1fc671461003b578063f0ba844014610057575b600080fd5b610055600480360381019061005091906103d6565b61008a565b005b610071600480360381019061006c9190610475565b610106565b6040516100819493929190610530565b60405180910390f35b6040518060800160405280858152602001848152602001838152602001828152506000808681526020019081526020016000206000820151816000015560208201518160010190816100dc919061078f565b5060408201518160020190816100f2919061078f565b506060820151816003015590505050505050565b600060205280600052604060002060009150905080600001549080600101805461012f906105b2565b80601f016020809104026020016040519081016040528092919081815260200182805461015b906105b2565b80156101a85780601f1061017d576101008083540402835291602001916101a8565b820191906000526020600020905b81548152906001019060200180831161018b57829003601f168201915b5050505050908060020180546101bd906105b2565b80601f01602080910402602001604051908101604052809291908181526020018280546101e9906105b2565b80156102365780601f1061020b57610100808354040283529160200191610236565b820191906000526020600020905b81548152906001019060200180831161021957829003601f168201915b5050505050908060030154905084565b6000604051905090565b600080fd5b600080fd5b6000819050919050565b61026d8161025a565b811461027857600080fd5b50565b60008135905061028a81610264565b92915050565b600080fd5b600080fd5b6000601f19601f8301169050919050565b7f4e487b7100000000000000000000000000000000000000000000000000000000600052604160045260246000fd5b6102e38261029a565b810181811067ffffffffffffffff82111715610302576103016102ab565b5b80604052505050565b6000610315610246565b905061032182826102da565b919050565b600067ffffffffffffffff821115610341576103406102ab565b5b61034a8261029a565b9050602081019050919050565b82818337600083830152505050565b600061037961037484610326565b61030b565b90508281526020810184848401111561039557610394610295565b5b6103a0848285610357565b509392505050565b600082601f8301126103bd576103bc610290565b5b81356103cd848260208601610366565b91505092915050565b600080600080608085870312156103f0576103ef610250565b5b60006103fe8782880161027b565b945050602085013567ffffffffffffffff81111561041f5761041e610255565b5b61042b878288016103a8565b935050604085013567ffffffffffffffff81111561044c5761044b610255565b5b610458878288016103a8565b92505060606104698782880161027b565b91505092959194509250565b60006020828403121561048b5761048a610250565b5b60006104998482850161027b565b91505092915050565b6104ab8161025a565b82525050565b600081519050919050565b600082825260208201905092915050565b60005b838110156104eb5780820151818401526020810190506104d0565b60008484015250505050565b6000610502826104b1565b61050c81856104bc565b935061051c8185602086016104cd565b6105258161029a565b840191505092915050565b600060808201905061054560008301876104a2565b818103602083015261055781866104f7565b9050818103604083015261056b81856104f7565b905061057a60608301846104a2565b95945050505050565b7f4e487b7100000000000000000000000000000000000000000000000000000000600052602260045260246000fd5b600060028204905060018216806105ca57607f821691505b6020821081036105dd576105dc610583565b5b50919050565b60008190508160005260206000209050919050565b60006020601f8301049050919050565b600082821b905092915050565b6000600883026106457fffffffffffffffffffffffffffffffffffffffffffffffffffffffffffffffff82610608565b61064f8683610608565b95508019841693508086168417925050509392505050565b6000819050919050565b600061068c6106876106828461025a565b610667565b61025a565b9050919050565b6000819050919050565b6106a683610671565b6106ba6106b282610693565b848454610615565b825550505050565b600090565b6106cf6106c2565b6106da81848461069d565b505050565b5b818110156106fe576106f36000826106c7565b6001810190506106e0565b5050565b601f82111561074357610714816105e3565b61071d846105f8565b8101602085101561072c578190505b610740610738856105f8565b8301826106df565b50505b505050565b600082821c905092915050565b600061076660001984600802610748565b1980831691505092915050565b600061077f8383610755565b9150826002028217905092915050565b610798826104b1565b67ffffffffffffffff8111156107b1576107b06102ab565b5b6107bb82546105b2565b6107c6828285610702565b600060209050601f8311600181146107f957600084156107e7578287015190505b6107f18582610773565b865550610859565b601f198416610807866105e3565b60005b8281101561082f5784890151825560018201915060208501945060208101905061080a565b8683101561084c5784890151610848601f891682610755565b8355505b6001600288020188555050505b50505050505056fea2646970667358221220dd8428e6b5b37e6acbe6b83061ba6d57753ec54c08b3c7a911934678dc02493864736f6c63430008120033",
					"opcodes": "PUSH1 0x80 PUSH1 0x40 MSTORE CALLVALUE DUP1 ISZERO PUSH2 0x10 JUMPI PUSH1 0x0 DUP1 REVERT JUMPDEST POP PUSH2 0x897 DUP1 PUSH2 0x20 PUSH1 0x0 CODECOPY PUSH1 0x0 RETURN INVALID PUSH1 0x80 PUSH1 0x40 MSTORE CALLVALUE DUP1 ISZERO PUSH2 0x10 JUMPI PUSH1 0x0 DUP1 REVERT JUMPDEST POP PUSH1 0x4 CALLDATASIZE LT PUSH2 0x36 JUMPI PUSH1 0x0 CALLDATALOAD PUSH1 0xE0 SHR DUP1 PUSH4 0x4FA1FC67 EQ PUSH2 0x3B JUMPI DUP1 PUSH4 0xF0BA8440 EQ PUSH2 0x57 JUMPI JUMPDEST PUSH1 0x0 DUP1 REVERT JUMPDEST PUSH2 0x55 PUSH1 0x4 DUP1 CALLDATASIZE SUB DUP2 ADD SWAP1 PUSH2 0x50 SWAP2 SWAP1 PUSH2 0x3D6 JUMP JUMPDEST PUSH2 0x8A JUMP JUMPDEST STOP JUMPDEST PUSH2 0x71 PUSH1 0x4 DUP1 CALLDATASIZE SUB DUP2 ADD SWAP1 PUSH2 0x6C SWAP2 SWAP1 PUSH2 0x475 JUMP JUMPDEST PUSH2 0x106 JUMP JUMPDEST PUSH1 0x40 MLOAD PUSH2 0x81 SWAP5 SWAP4 SWAP3 SWAP2 SWAP1 PUSH2 0x530 JUMP JUMPDEST PUSH1 0x40 MLOAD DUP1 SWAP2 SUB SWAP1 RETURN JUMPDEST PUSH1 0x40 MLOAD DUP1 PUSH1 0x80 ADD PUSH1 0x40 MSTORE DUP1 DUP6 DUP2 MSTORE PUSH1 0x20 ADD DUP5 DUP2 MSTORE PUSH1 0x20 ADD DUP4 DUP2 MSTORE PUSH1 0x20 ADD DUP3 DUP2 MSTORE POP PUSH1 0x0 DUP1 DUP7 DUP2 MSTORE PUSH1 0x20 ADD SWAP1 DUP2 MSTORE PUSH1 0x20 ADD PUSH1 0x0 KECCAK256 PUSH1 0x0 DUP3 ADD MLOAD DUP2 PUSH1 0x0 ADD SSTORE PUSH1 0x20 DUP3 ADD MLOAD DUP2 PUSH1 0x1 ADD SWAP1 DUP2 PUSH2 0xDC SWAP2 SWAP1 PUSH2 0x78F JUMP JUMPDEST POP PUSH1 0x40 DUP3 ADD MLOAD DUP2 PUSH1 0x2 ADD SWAP1 DUP2 PUSH2 0xF2 SWAP2 SWAP1 PUSH2 0x78F JUMP JUMPDEST POP PUSH1 0x60 DUP3 ADD MLOAD DUP2 PUSH1 0x3 ADD SSTORE SWAP1 POP POP POP POP POP POP JUMP JUMPDEST PUSH1 0x0 PUSH1 0x20 MSTORE DUP1 PUSH1 0x0 MSTORE PUSH1 0x40 PUSH1 0x0 KECCAK256 PUSH1 0x0 SWAP2 POP SWAP1 POP DUP1 PUSH1 0x0 ADD SLOAD SWAP1 DUP1 PUSH1 0x1 ADD DUP1 SLOAD PUSH2 0x12F SWAP1 PUSH2 0x5B2 JUMP JUMPDEST DUP1 PUSH1 0x1F ADD PUSH1 0x20 DUP1 SWAP2 DIV MUL PUSH1 0x20 ADD PUSH1 0x40 MLOAD SWAP1 DUP2 ADD PUSH1 0x40 MSTORE DUP1 SWAP3 SWAP2 SWAP1 DUP2 DUP2 MSTORE PUSH1 0x20 ADD DUP3 DUP1 SLOAD PUSH2 0x15B SWAP1 PUSH2 0x5B2 JUMP JUMPDEST DUP1 ISZERO PUSH2 0x1A8 JUMPI DUP1 PUSH1 0x1F LT PUSH2 0x17D JUMPI PUSH2 0x100 DUP1 DUP4 SLOAD DIV MUL DUP4 MSTORE SWAP2 PUSH1 0x20 ADD SWAP2 PUSH2 0x1A8 JUMP JUMPDEST DUP3 ADD SWAP2 SWAP1 PUSH1 0x0 MSTORE PUSH1 0x20 PUSH1 0x0 KECCAK256 SWAP1 JUMPDEST DUP2 SLOAD DUP2 MSTORE SWAP1 PUSH1 0x1 ADD SWAP1 PUSH1 0x20 ADD DUP1 DUP4 GT PUSH2 0x18B JUMPI DUP3 SWAP1 SUB PUSH1 0x1F AND DUP3 ADD SWAP2 JUMPDEST POP POP POP POP POP SWAP1 DUP1 PUSH1 0x2 ADD DUP1 SLOAD PUSH2 0x1BD SWAP1 PUSH2 0x5B2 JUMP JUMPDEST DUP1 PUSH1 0x1F ADD PUSH1 0x20 DUP1 SWAP2 DIV MUL PUSH1 0x20 ADD PUSH1 0x40 MLOAD SWAP1 DUP2 ADD PUSH1 0x40 MSTORE DUP1 SWAP3 SWAP2 SWAP1 DUP2 DUP2 MSTORE PUSH1 0x20 ADD DUP3 DUP1 SLOAD PUSH2 0x1E9 SWAP1 PUSH2 0x5B2 JUMP JUMPDEST DUP1 ISZERO PUSH2 0x236 JUMPI DUP1 PUSH1 0x1F LT PUSH2 0x20B JUMPI PUSH2 0x100 DUP1 DUP4 SLOAD DIV MUL DUP4 MSTORE SWAP2 PUSH1 0x20 ADD SWAP2 PUSH2 0x236 JUMP JUMPDEST DUP3 ADD SWAP2 SWAP1 PUSH1 0x0 MSTORE PUSH1 0x20 PUSH1 0x0 KECCAK256 SWAP1 JUMPDEST DUP2 SLOAD DUP2 MSTORE SWAP1 PUSH1 0x1 ADD SWAP1 PUSH1 0x20 ADD DUP1 DUP4 GT PUSH2 0x219 JUMPI DUP3 SWAP1 SUB PUSH1 0x1F AND DUP3 ADD SWAP2 JUMPDEST POP POP POP POP POP SWAP1 DUP1 PUSH1 0x3 ADD SLOAD SWAP1 POP DUP5 JUMP JUMPDEST PUSH1 0x0 PUSH1 0x40 MLOAD SWAP1 POP SWAP1 JUMP JUMPDEST PUSH1 0x0 DUP1 REVERT JUMPDEST PUSH1 0x0 DUP1 REVERT JUMPDEST PUSH1 0x0 DUP2 SWAP1 POP SWAP2 SWAP1 POP JUMP JUMPDEST PUSH2 0x26D DUP2 PUSH2 0x25A JUMP JUMPDEST DUP2 EQ PUSH2 0x278 JUMPI PUSH1 0x0 DUP1 REVERT JUMPDEST POP JUMP JUMPDEST PUSH1 0x0 DUP2 CALLDATALOAD SWAP1 POP PUSH2 0x28A DUP2 PUSH2 0x264 JUMP JUMPDEST SWAP3 SWAP2 POP POP JUMP JUMPDEST PUSH1 0x0 DUP1 REVERT JUMPDEST PUSH1 0x0 DUP1 REVERT JUMPDEST PUSH1 0x0 PUSH1 0x1F NOT PUSH1 0x1F DUP4 ADD AND SWAP1 POP SWAP2 SWAP1 POP JUMP JUMPDEST PUSH32 0x4E487B7100000000000000000000000000000000000000000000000000000000 PUSH1 0x0 MSTORE PUSH1 0x41 PUSH1 0x4 MSTORE PUSH1 0x24 PUSH1 0x0 REVERT JUMPDEST PUSH2 0x2E3 DUP3 PUSH2 0x29A JUMP JUMPDEST DUP2 ADD DUP2 DUP2 LT PUSH8 0xFFFFFFFFFFFFFFFF DUP3 GT OR ISZERO PUSH2 0x302 JUMPI PUSH2 0x301 PUSH2 0x2AB JUMP JUMPDEST JUMPDEST DUP1 PUSH1 0x40 MSTORE POP POP POP JUMP JUMPDEST PUSH1 0x0 PUSH2 0x315 PUSH2 0x246 JUMP JUMPDEST SWAP1 POP PUSH2 0x321 DUP3 DUP3 PUSH2 0x2DA JUMP JUMPDEST SWAP2 SWAP1 POP JUMP JUMPDEST PUSH1 0x0 PUSH8 0xFFFFFFFFFFFFFFFF DUP3 GT ISZERO PUSH2 0x341 JUMPI PUSH2 0x340 PUSH2 0x2AB JUMP JUMPDEST JUMPDEST PUSH2 0x34A DUP3 PUSH2 0x29A JUMP JUMPDEST SWAP1 POP PUSH1 0x20 DUP2 ADD SWAP1 POP SWAP2 SWAP1 POP JUMP JUMPDEST DUP3 DUP2 DUP4 CALLDATACOPY PUSH1 0x0 DUP4 DUP4 ADD MSTORE POP POP POP JUMP JUMPDEST PUSH1 0x0 PUSH2 0x379 PUSH2 0x374 DUP5 PUSH2 0x326 JUMP JUMPDEST PUSH2 0x30B JUMP JUMPDEST SWAP1 POP DUP3 DUP2 MSTORE PUSH1 0x20 DUP2 ADD DUP5 DUP5 DUP5 ADD GT ISZERO PUSH2 0x395 JUMPI PUSH2 0x394 PUSH2 0x295 JUMP JUMPDEST JUMPDEST PUSH2 0x3A0 DUP5 DUP3 DUP6 PUSH2 0x357 JUMP JUMPDEST POP SWAP4 SWAP3 POP POP POP JUMP JUMPDEST PUSH1 0x0 DUP3 PUSH1 0x1F DUP4 ADD SLT PUSH2 0x3BD JUMPI PUSH2 0x3BC PUSH2 0x290 JUMP JUMPDEST JUMPDEST DUP2 CALLDATALOAD PUSH2 0x3CD DUP5 DUP3 PUSH1 0x20 DUP7 ADD PUSH2 0x366 JUMP JUMPDEST SWAP2 POP POP SWAP3 SWAP2 POP POP JUMP JUMPDEST PUSH1 0x0 DUP1 PUSH1 0x0 DUP1 PUSH1 0x80 DUP6 DUP8 SUB SLT ISZERO PUSH2 0x3F0 JUMPI PUSH2 0x3EF PUSH2 0x250 JUMP JUMPDEST JUMPDEST PUSH1 0x0 PUSH2 0x3FE DUP8 DUP3 DUP9 ADD PUSH2 0x27B JUMP JUMPDEST SWAP5 POP POP PUSH1 0x20 DUP6 ADD CALLDATALOAD PUSH8 0xFFFFFFFFFFFFFFFF DUP2 GT ISZERO PUSH2 0x41F JUMPI PUSH2 0x41E PUSH2 0x255 JUMP JUMPDEST JUMPDEST PUSH2 0x42B DUP8 DUP3 DUP9 ADD PUSH2 0x3A8 JUMP JUMPDEST SWAP4 POP POP PUSH1 0x40 DUP6 ADD CALLDATALOAD PUSH8 0xFFFFFFFFFFFFFFFF DUP2 GT ISZERO PUSH2 0x44C JUMPI PUSH2 0x44B PUSH2 0x255 JUMP JUMPDEST JUMPDEST PUSH2 0x458 DUP8 DUP3 DUP9 ADD PUSH2 0x3A8 JUMP JUMPDEST SWAP3 POP POP PUSH1 0x60 PUSH2 0x469 DUP8 DUP3 DUP9 ADD PUSH2 0x27B JUMP JUMPDEST SWAP2 POP POP SWAP3 SWAP6 SWAP2 SWAP5 POP SWAP3 POP JUMP JUMPDEST PUSH1 0x0 PUSH1 0x20 DUP3 DUP5 SUB SLT ISZERO PUSH2 0x48B JUMPI PUSH2 0x48A PUSH2 0x250 JUMP JUMPDEST JUMPDEST PUSH1 0x0 PUSH2 0x499 DUP5 DUP3 DUP6 ADD PUSH2 0x27B JUMP JUMPDEST SWAP2 POP POP SWAP3 SWAP2 POP POP JUMP JUMPDEST PUSH2 0x4AB DUP2 PUSH2 0x25A JUMP JUMPDEST DUP3 MSTORE POP POP JUMP JUMPDEST PUSH1 0x0 DUP2 MLOAD SWAP1 POP SWAP2 SWAP1 POP JUMP JUMPDEST PUSH1 0x0 DUP3 DUP3 MSTORE PUSH1 0x20 DUP3 ADD SWAP1 POP SWAP3 SWAP2 POP POP JUMP JUMPDEST PUSH1 0x0 JUMPDEST DUP4 DUP2 LT ISZERO PUSH2 0x4EB JUMPI DUP1 DUP3 ADD MLOAD DUP2 DUP5 ADD MSTORE PUSH1 0x20 DUP2 ADD SWAP1 POP PUSH2 0x4D0 JUMP JUMPDEST PUSH1 0x0 DUP5 DUP5 ADD MSTORE POP POP POP POP JUMP JUMPDEST PUSH1 0x0 PUSH2 0x502 DUP3 PUSH2 0x4B1 JUMP JUMPDEST PUSH2 0x50C DUP2 DUP6 PUSH2 0x4BC JUMP JUMPDEST SWAP4 POP PUSH2 0x51C DUP2 DUP6 PUSH1 0x20 DUP7 ADD PUSH2 0x4CD JUMP JUMPDEST PUSH2 0x525 DUP2 PUSH2 0x29A JUMP JUMPDEST DUP5 ADD SWAP2 POP POP SWAP3 SWAP2 POP POP JUMP JUMPDEST PUSH1 0x0 PUSH1 0x80 DUP3 ADD SWAP1 POP PUSH2 0x545 PUSH1 0x0 DUP4 ADD DUP8 PUSH2 0x4A2 JUMP JUMPDEST DUP2 DUP2 SUB PUSH1 0x20 DUP4 ADD MSTORE PUSH2 0x557 DUP2 DUP7 PUSH2 0x4F7 JUMP JUMPDEST SWAP1 POP DUP2 DUP2 SUB PUSH1 0x40 DUP4 ADD MSTORE PUSH2 0x56B DUP2 DUP6 PUSH2 0x4F7 JUMP JUMPDEST SWAP1 POP PUSH2 0x57A PUSH1 0x60 DUP4 ADD DUP5 PUSH2 0x4A2 JUMP JUMPDEST SWAP6 SWAP5 POP POP POP POP POP JUMP JUMPDEST PUSH32 0x4E487B7100000000000000000000000000000000000000000000000000000000 PUSH1 0x0 MSTORE PUSH1 0x22 PUSH1 0x4 MSTORE PUSH1 0x24 PUSH1 0x0 REVERT JUMPDEST PUSH1 0x0 PUSH1 0x2 DUP3 DIV SWAP1 POP PUSH1 0x1 DUP3 AND DUP1 PUSH2 0x5CA JUMPI PUSH1 0x7F DUP3 AND SWAP2 POP JUMPDEST PUSH1 0x20 DUP3 LT DUP2 SUB PUSH2 0x5DD JUMPI PUSH2 0x5DC PUSH2 0x583 JUMP JUMPDEST JUMPDEST POP SWAP2 SWAP1 POP JUMP JUMPDEST PUSH1 0x0 DUP2 SWAP1 POP DUP2 PUSH1 0x0 MSTORE PUSH1 0x20 PUSH1 0x0 KECCAK256 SWAP1 POP SWAP2 SWAP1 POP JUMP JUMPDEST PUSH1 0x0 PUSH1 0x20 PUSH1 0x1F DUP4 ADD DIV SWAP1 POP SWAP2 SWAP1 POP JUMP JUMPDEST PUSH1 0x0 DUP3 DUP3 SHL SWAP1 POP SWAP3 SWAP2 POP POP JUMP JUMPDEST PUSH1 0x0 PUSH1 0x8 DUP4 MUL PUSH2 0x645 PUSH32 0xFFFFFFFFFFFFFFFFFFFFFFFFFFFFFFFFFFFFFFFFFFFFFFFFFFFFFFFFFFFFFFFF DUP3 PUSH2 0x608 JUMP JUMPDEST PUSH2 0x64F DUP7 DUP4 PUSH2 0x608 JUMP JUMPDEST SWAP6 POP DUP1 NOT DUP5 AND SWAP4 POP DUP1 DUP7 AND DUP5 OR SWAP3 POP POP POP SWAP4 SWAP3 POP POP POP JUMP JUMPDEST PUSH1 0x0 DUP2 SWAP1 POP SWAP2 SWAP1 POP JUMP JUMPDEST PUSH1 0x0 PUSH2 0x68C PUSH2 0x687 PUSH2 0x682 DUP5 PUSH2 0x25A JUMP JUMPDEST PUSH2 0x667 JUMP JUMPDEST PUSH2 0x25A JUMP JUMPDEST SWAP1 POP SWAP2 SWAP1 POP JUMP JUMPDEST PUSH1 0x0 DUP2 SWAP1 POP SWAP2 SWAP1 POP JUMP JUMPDEST PUSH2 0x6A6 DUP4 PUSH2 0x671 JUMP JUMPDEST PUSH2 0x6BA PUSH2 0x6B2 DUP3 PUSH2 0x693 JUMP JUMPDEST DUP5 DUP5 SLOAD PUSH2 0x615 JUMP JUMPDEST DUP3 SSTORE POP POP POP POP JUMP JUMPDEST PUSH1 0x0 SWAP1 JUMP JUMPDEST PUSH2 0x6CF PUSH2 0x6C2 JUMP JUMPDEST PUSH2 0x6DA DUP2 DUP5 DUP5 PUSH2 0x69D JUMP JUMPDEST POP POP POP JUMP JUMPDEST JUMPDEST DUP2 DUP2 LT ISZERO PUSH2 0x6FE JUMPI PUSH2 0x6F3 PUSH1 0x0 DUP3 PUSH2 0x6C7 JUMP JUMPDEST PUSH1 0x1 DUP2 ADD SWAP1 POP PUSH2 0x6E0 JUMP JUMPDEST POP POP JUMP JUMPDEST PUSH1 0x1F DUP3 GT ISZERO PUSH2 0x743 JUMPI PUSH2 0x714 DUP2 PUSH2 0x5E3 JUMP JUMPDEST PUSH2 0x71D DUP5 PUSH2 0x5F8 JUMP JUMPDEST DUP2 ADD PUSH1 0x20 DUP6 LT ISZERO PUSH2 0x72C JUMPI DUP2 SWAP1 POP JUMPDEST PUSH2 0x740 PUSH2 0x738 DUP6 PUSH2 0x5F8 JUMP JUMPDEST DUP4 ADD DUP3 PUSH2 0x6DF JUMP JUMPDEST POP POP JUMPDEST POP POP POP JUMP JUMPDEST PUSH1 0x0 DUP3 DUP3 SHR SWAP1 POP SWAP3 SWAP2 POP POP JUMP JUMPDEST PUSH1 0x0 PUSH2 0x766 PUSH1 0x0 NOT DUP5 PUSH1 0x8 MUL PUSH2 0x748 JUMP JUMPDEST NOT DUP1 DUP4 AND SWAP2 POP POP SWAP3 SWAP2 POP POP JUMP JUMPDEST PUSH1 0x0 PUSH2 0x77F DUP4 DUP4 PUSH2 0x755 JUMP JUMPDEST SWAP2 POP DUP3 PUSH1 0x2 MUL DUP3 OR SWAP1 POP SWAP3 SWAP2 POP POP JUMP JUMPDEST PUSH2 0x798 DUP3 PUSH2 0x4B1 JUMP JUMPDEST PUSH8 0xFFFFFFFFFFFFFFFF DUP2 GT ISZERO PUSH2 0x7B1 JUMPI PUSH2 0x7B0 PUSH2 0x2AB JUMP JUMPDEST JUMPDEST PUSH2 0x7BB DUP3 SLOAD PUSH2 0x5B2 JUMP JUMPDEST PUSH2 0x7C6 DUP3 DUP3 DUP6 PUSH2 0x702 JUMP JUMPDEST PUSH1 0x0 PUSH1 0x20 SWAP1 POP PUSH1 0x1F DUP4 GT PUSH1 0x1 DUP2 EQ PUSH2 0x7F9 JUMPI PUSH1 0x0 DUP5 ISZERO PUSH2 0x7E7 JUMPI DUP3 DUP8 ADD MLOAD SWAP1 POP JUMPDEST PUSH2 0x7F1 DUP6 DUP3 PUSH2 0x773 JUMP JUMPDEST DUP7 SSTORE POP PUSH2 0x859 JUMP JUMPDEST PUSH1 0x1F NOT DUP5 AND PUSH2 0x807 DUP7 PUSH2 0x5E3 JUMP JUMPDEST PUSH1 0x0 JUMPDEST DUP3 DUP2 LT ISZERO PUSH2 0x82F JUMPI DUP5 DUP10 ADD MLOAD DUP3 SSTORE PUSH1 0x1 DUP3 ADD SWAP2 POP PUSH1 0x20 DUP6 ADD SWAP5 POP PUSH1 0x20 DUP2 ADD SWAP1 POP PUSH2 0x80A JUMP JUMPDEST DUP7 DUP4 LT ISZERO PUSH2 0x84C JUMPI DUP5 DUP10 ADD MLOAD PUSH2 0x848 PUSH1 0x1F DUP10 AND DUP3 PUSH2 0x755 JUMP JUMPDEST DUP4 SSTORE POP JUMPDEST PUSH1 0x1 PUSH1 0x2 DUP9 MUL ADD DUP9 SSTORE POP POP POP JUMPDEST POP POP POP POP POP POP JUMP INVALID LOG2 PUSH5 0x6970667358 0x22 SLT KECCAK256 0xDD DUP5 0x28 0xE6 0xB5 0xB3 PUSH31 0x6ACBE6B83061BA6D57753EC54C08B3C7A911934678DC02493864736F6C6343 STOP ADDMOD SLT STOP CALLER "
				},
				"gasEstimates": {
					"creation": {
						"codeDepositCost": "439800",
						"executionCost": "474",
						"totalCost": "440274"
					},
					"external": {
						"data(uint256)": "infinite",
						"setter(uint256,string,string,uint256)": "infinite"
					}
				},
				"methodIdentifiers": {
					"data(uint256)": "f0ba8440",
					"setter(uint256,string,string,uint256)": "4fa1fc67"
				}
			},
			"storageLayout": {
				"storage": [
					{
						"astId": 15,
						"contract": "mapping.sol:demo",
						"label": "data",
						"offset": 0,
						"slot": "0",
						"type": "t_mapping(t_uint256,t_struct(student)10_storage)"
					}
				],
				"types": {
					"t_mapping(t_uint256,t_struct(student)10_storage)": {
						"encoding": "mapping",
						"key": "t_uint256",
						"label": "mapping(uint256 => struct demo.student)",
						"numberOfBytes": "32",
						"value": "t_struct(student)10_storage"
					},
					"t_string_storage": {
						"encoding": "bytes",
						"label": "string",
						"numberOfBytes": "32"
					},
					"t_struct(student)10_storage": {
						"encoding": "inplace",
						"label": "struct demo.student",
						"members": [
							{
								"astId": 3,
								"contract": "mapping.sol:demo",
								"label": "roll",
								"offset": 0,
								"slot": "0",
								"type": "t_uint256"
							},
							{
								"astId": 5,
								"contract": "mapping.sol:demo",
								"label": "name",
								"offset": 0,
								"slot": "1",
								"type": "t_string_storage"
							},
							{
								"astId": 7,
								"contract": "mapping.sol:demo",
								"label": "father_name",
								"offset": 0,
								"slot": "2",
								"type": "t_string_storage"
							},
							{
								"astId": 9,
								"contract": "mapping.sol:demo",
								"label": "class",
								"offset": 0,
								"slot": "3",
								"type": "t_uint256"
							}
						],
						"numberOfBytes": "128"
					},
					"t_uint256": {
						"encoding": "inplace",
						"label": "uint256",
						"numberOfBytes": "32"
					}
				}
			},
			"userdoc": {
				"kind": "user",
				"methods": {},
				"version": 1
			}
		}
	}
}