{
	"3studentgetdataatonetime.sol": {
		"StudentRegistry": {
			"abi": [
				{
					"inputs": [
						{
							"internalType": "uint256",
							"name": "_studentId",
							"type": "uint256"
						},
						{
							"internalType": "string",
							"name": "_name",
							"type": "string"
						},
						{
							"internalType": "uint256",
							"name": "_age",
							"type": "uint256"
						}
					],
					"name": "addStudent",
					"outputs": [],
					"stateMutability": "nonpayable",
					"type": "function"
				},
				{
					"inputs": [
						{
							"internalType": "uint256",
							"name": "index",
							"type": "uint256"
						}
					],
					"name": "getStudent",
					"outputs": [
						{
							"internalType": "uint256",
							"name": "",
							"type": "uint256"
						},
						{
							"internalType": "string",
							"name": "",
							"type": "string"
						},
						{
							"internalType": "uint256",
							"name": "",
							"type": "uint256"
						}
					],
					"stateMutability": "view",
					"type": "function"
				},
				{
					"inputs": [],
					"name": "getStudentCount",
					"outputs": [
						{
							"internalType": "uint256",
							"name": "",
							"type": "uint256"
						}
					],
					"stateMutability": "view",
					"type": "function"
				},
				{
					"inputs": [
						{
							"internalType": "uint256",
							"name": "",
							"type": "uint256"
						}
					],
					"name": "students",
					"outputs": [
						{
							"internalType": "uint256",
							"name": "studentId",
							"type": "uint256"
						},
						{
							"internalType": "string",
							"name": "name",
							"type": "string"
						},
						{
							"internalType": "uint256",
							"name": "age",
							"type": "uint256"
						}
					],
					"stateMutability": "view",
					"type": "function"
				}
			],
			"devdoc": {
				"kind": "dev",
				"methods": {},
				"version": 1
			},
			"evm": {
				"assembly": "    /* \"3studentgetdataatonetime.sol\":60:825  contract StudentRegistry {... */\n  mstore(0x40, 0x80)\n  callvalue\n  dup1\n  iszero\n  tag_1\n  jumpi\n  0x00\n  dup1\n  revert\ntag_1:\n  pop\n  dataSize(sub_0)\n  dup1\n  dataOffset(sub_0)\n  0x00\n  codecopy\n  0x00\n  return\nstop\n\nsub_0: assembly {\n        /* \"3studentgetdataatonetime.sol\":60:825  contract StudentRegistry {... */\n      mstore(0x40, 0x80)\n      callvalue\n      dup1\n      iszero\n      tag_1\n      jumpi\n      0x00\n      dup1\n      revert\n    tag_1:\n      pop\n      jumpi(tag_2, lt(calldatasize, 0x04))\n      shr(0xe0, calldataload(0x00))\n      dup1\n      0x06ead22e\n      eq\n      tag_3\n      jumpi\n      dup1\n      0x41e0c407\n      eq\n      tag_4\n      jumpi\n      dup1\n      0x642f9163\n      eq\n      tag_5\n      jumpi\n      dup1\n      0xc1bea1db\n      eq\n      tag_6\n      jumpi\n    tag_2:\n      0x00\n      dup1\n      revert\n        /* \"3studentgetdataatonetime.sol\":199:224  Student[] public students */\n    tag_3:\n      tag_7\n      0x04\n      dup1\n      calldatasize\n      sub\n      dup2\n      add\n      swap1\n      tag_8\n      swap2\n      swap1\n      tag_9\n      jump\t// in\n    tag_8:\n      tag_10\n      jump\t// in\n    tag_7:\n      mload(0x40)\n      tag_11\n      swap4\n      swap3\n      swap2\n      swap1\n      tag_12\n      jump\t// in\n    tag_11:\n      mload(0x40)\n      dup1\n      swap2\n      sub\n      swap1\n      return\n        /* \"3studentgetdataatonetime.sol\":438:536  function getStudentCount() public view returns (uint256) {... */\n    tag_4:\n      tag_13\n      tag_14\n      jump\t// in\n    tag_13:\n      mload(0x40)\n      tag_15\n      swap2\n      swap1\n      tag_16\n      jump\t// in\n    tag_15:\n      mload(0x40)\n      dup1\n      swap2\n      sub\n      swap1\n      return\n        /* \"3studentgetdataatonetime.sol\":544:822  function getStudent(uint256 index) public view returns (uint256, string memory, uint256) {... */\n    tag_5:\n      tag_17\n      0x04\n      dup1\n      calldatasize\n      sub\n      dup2\n      add\n      swap1\n      tag_18\n      swap2\n      swap1\n      tag_9\n      jump\t// in\n    tag_18:\n      tag_19\n      jump\t// in\n    tag_17:\n      mload(0x40)\n      tag_20\n      swap4\n      swap3\n      swap2\n      swap1\n      tag_12\n      jump\t// in\n    tag_20:\n      mload(0x40)\n      dup1\n      swap2\n      sub\n      swap1\n      return\n        /* \"3studentgetdataatonetime.sol\":233:430  function addStudent(uint256 _studentId, string memory _name, uint256 _age) public {... */\n    tag_6:\n      tag_21\n      0x04\n      dup1\n      calldatasize\n      sub\n      dup2\n      add\n      swap1\n      tag_22\n      swap2\n      swap1\n      tag_23\n      jump\t// in\n    tag_22:\n      tag_24\n      jump\t// in\n    tag_21:\n      stop\n        /* \"3studentgetdataatonetime.sol\":199:224  Student[] public students */\n    tag_10:\n      0x00\n      dup2\n      dup2\n      sload\n      dup2\n      lt\n      tag_25\n      jumpi\n      0x00\n      dup1\n      revert\n    tag_25:\n      swap1\n      0x00\n      mstore\n      keccak256(0x00, 0x20)\n      swap1\n      0x03\n      mul\n      add\n      0x00\n      swap2\n      pop\n      swap1\n      pop\n      dup1\n      0x00\n      add\n      sload\n      swap1\n      dup1\n      0x01\n      add\n      dup1\n      sload\n      tag_27\n      swap1\n      tag_28\n      jump\t// in\n    tag_27:\n      dup1\n      0x1f\n      add\n      0x20\n      dup1\n      swap2\n      div\n      mul\n      0x20\n      add\n      mload(0x40)\n      swap1\n      dup2\n      add\n      0x40\n      mstore\n      dup1\n      swap3\n      swap2\n      swap1\n      dup2\n      dup2\n      mstore\n      0x20\n      add\n      dup3\n      dup1\n      sload\n      tag_29\n      swap1\n      tag_28\n      jump\t// in\n    tag_29:\n      dup1\n      iszero\n      tag_30\n      jumpi\n      dup1\n      0x1f\n      lt\n      tag_31\n      jumpi\n      0x0100\n      dup1\n      dup4\n      sload\n      div\n      mul\n      dup4\n      mstore\n      swap2\n      0x20\n      add\n      swap2\n      jump(tag_30)\n    tag_31:\n      dup3\n      add\n      swap2\n      swap1\n      0x00\n      mstore\n      keccak256(0x00, 0x20)\n      swap1\n    tag_32:\n      dup2\n      sload\n      dup2\n      mstore\n      swap1\n      0x01\n      add\n      swap1\n      0x20\n      add\n      dup1\n      dup4\n      gt\n      tag_32\n      jumpi\n      dup3\n      swap1\n      sub\n      0x1f\n      and\n      dup3\n      add\n      swap2\n    tag_30:\n      pop\n      pop\n      pop\n      pop\n      pop\n      swap1\n      dup1\n      0x02\n      add\n      sload\n      swap1\n      pop\n      dup4\n      jump\t// out\n        /* \"3studentgetdataatonetime.sol\":438:536  function getStudentCount() public view returns (uint256) {... */\n    tag_14:\n        /* \"3studentgetdataatonetime.sol\":486:493  uint256 */\n      0x00\n        /* \"3studentgetdataatonetime.sol\":513:521  students */\n      dup1\n        /* \"3studentgetdataatonetime.sol\":513:528  students.length */\n      dup1\n      sload\n      swap1\n      pop\n        /* \"3studentgetdataatonetime.sol\":506:528  return students.length */\n      swap1\n      pop\n        /* \"3studentgetdataatonetime.sol\":438:536  function getStudentCount() public view returns (uint256) {... */\n      swap1\n      jump\t// out\n        /* \"3studentgetdataatonetime.sol\":544:822  function getStudent(uint256 index) public view returns (uint256, string memory, uint256) {... */\n    tag_19:\n        /* \"3studentgetdataatonetime.sol\":600:607  uint256 */\n      0x00\n        /* \"3studentgetdataatonetime.sol\":609:622  string memory */\n      0x60\n        /* \"3studentgetdataatonetime.sol\":624:631  uint256 */\n      0x00\n        /* \"3studentgetdataatonetime.sol\":660:668  students */\n      dup1\n        /* \"3studentgetdataatonetime.sol\":660:675  students.length */\n      dup1\n      sload\n      swap1\n      pop\n        /* \"3studentgetdataatonetime.sol\":652:657  index */\n      dup5\n        /* \"3studentgetdataatonetime.sol\":652:675  index < students.length */\n      lt\n        /* \"3studentgetdataatonetime.sol\":644:699  require(index < students.length, \"Index out of bounds\") */\n      tag_35\n      jumpi\n      mload(0x40)\n      0x08c379a000000000000000000000000000000000000000000000000000000000\n      dup2\n      mstore\n      0x04\n      add\n      tag_36\n      swap1\n      tag_37\n      jump\t// in\n    tag_36:\n      mload(0x40)\n      dup1\n      swap2\n      sub\n      swap1\n      revert\n    tag_35:\n        /* \"3studentgetdataatonetime.sol\":710:732  Student memory student */\n      0x00\n        /* \"3studentgetdataatonetime.sol\":735:743  students */\n      dup1\n        /* \"3studentgetdataatonetime.sol\":744:749  index */\n      dup6\n        /* \"3studentgetdataatonetime.sol\":735:750  students[index] */\n      dup2\n      sload\n      dup2\n      lt\n      tag_38\n      jumpi\n      tag_39\n      tag_40\n      jump\t// in\n    tag_39:\n    tag_38:\n      swap1\n      0x00\n      mstore\n      keccak256(0x00, 0x20)\n      swap1\n      0x03\n      mul\n      add\n        /* \"3studentgetdataatonetime.sol\":710:750  Student memory student = students[index] */\n      mload(0x40)\n      dup1\n      0x60\n      add\n      0x40\n      mstore\n      swap1\n      dup2\n      0x00\n      dup3\n      add\n      sload\n      dup2\n      mstore\n      0x20\n      add\n      0x01\n      dup3\n      add\n      dup1\n      sload\n      tag_42\n      swap1\n      tag_28\n      jump\t// in\n    tag_42:\n      dup1\n      0x1f\n      add\n      0x20\n      dup1\n      swap2\n      div\n      mul\n      0x20\n      add\n      mload(0x40)\n      swap1\n      dup2\n      add\n      0x40\n      mstore\n      dup1\n      swap3\n      swap2\n      swap1\n      dup2\n      dup2\n      mstore\n      0x20\n      add\n      dup3\n      dup1\n      sload\n      tag_43\n      swap1\n      tag_28\n      jump\t// in\n    tag_43:\n      dup1\n      iszero\n      tag_44\n      jumpi\n      dup1\n      0x1f\n      lt\n      tag_45\n      jumpi\n      0x0100\n      dup1\n      dup4\n      sload\n      div\n      mul\n      dup4\n      mstore\n      swap2\n      0x20\n      add\n      swap2\n      jump(tag_44)\n    tag_45:\n      dup3\n      add\n      swap2\n      swap1\n      0x00\n      mstore\n      keccak256(0x00, 0x20)\n      swap1\n    tag_46:\n      dup2\n      sload\n      dup2\n      mstore\n      swap1\n      0x01\n      add\n      swap1\n      0x20\n      add\n      dup1\n      dup4\n      gt\n      tag_46\n      jumpi\n      dup3\n      swap1\n      sub\n      0x1f\n      and\n      dup3\n      add\n      swap2\n    tag_44:\n      pop\n      pop\n      pop\n      pop\n      pop\n      dup2\n      mstore\n      0x20\n      add\n      0x02\n      dup3\n      add\n      sload\n      dup2\n      mstore\n      pop\n      pop\n      swap1\n      pop\n        /* \"3studentgetdataatonetime.sol\":769:776  student */\n      dup1\n        /* \"3studentgetdataatonetime.sol\":769:786  student.studentId */\n      0x00\n      add\n      mload\n        /* \"3studentgetdataatonetime.sol\":788:795  student */\n      dup2\n        /* \"3studentgetdataatonetime.sol\":788:800  student.name */\n      0x20\n      add\n      mload\n        /* \"3studentgetdataatonetime.sol\":802:809  student */\n      dup3\n        /* \"3studentgetdataatonetime.sol\":802:813  student.age */\n      0x40\n      add\n      mload\n        /* \"3studentgetdataatonetime.sol\":761:814  return (student.studentId, student.name, student.age) */\n      swap4\n      pop\n      swap4\n      pop\n      swap4\n      pop\n      pop\n        /* \"3studentgetdataatonetime.sol\":544:822  function getStudent(uint256 index) public view returns (uint256, string memory, uint256) {... */\n      swap2\n      swap4\n      swap1\n      swap3\n      pop\n      jump\t// out\n        /* \"3studentgetdataatonetime.sol\":233:430  function addStudent(uint256 _studentId, string memory _name, uint256 _age) public {... */\n    tag_24:\n        /* \"3studentgetdataatonetime.sol\":326:351  Student memory newStudent */\n      0x00\n        /* \"3studentgetdataatonetime.sol\":354:386  Student(_studentId, _name, _age) */\n      mload(0x40)\n      dup1\n      0x60\n      add\n      0x40\n      mstore\n      dup1\n        /* \"3studentgetdataatonetime.sol\":362:372  _studentId */\n      dup6\n        /* \"3studentgetdataatonetime.sol\":354:386  Student(_studentId, _name, _age) */\n      dup2\n      mstore\n      0x20\n      add\n        /* \"3studentgetdataatonetime.sol\":374:379  _name */\n      dup5\n        /* \"3studentgetdataatonetime.sol\":354:386  Student(_studentId, _name, _age) */\n      dup2\n      mstore\n      0x20\n      add\n        /* \"3studentgetdataatonetime.sol\":381:385  _age */\n      dup4\n        /* \"3studentgetdataatonetime.sol\":354:386  Student(_studentId, _name, _age) */\n      dup2\n      mstore\n      pop\n        /* \"3studentgetdataatonetime.sol\":326:386  Student memory newStudent = Student(_studentId, _name, _age) */\n      swap1\n      pop\n        /* \"3studentgetdataatonetime.sol\":397:405  students */\n      0x00\n        /* \"3studentgetdataatonetime.sol\":411:421  newStudent */\n      dup2\n        /* \"3studentgetdataatonetime.sol\":397:422  students.push(newStudent) */\n      swap1\n      dup1\n      0x01\n      dup2\n      sload\n      add\n      dup1\n      dup3\n      sstore\n      dup1\n      swap2\n      pop\n      pop\n      0x01\n      swap1\n      sub\n      swap1\n      0x00\n      mstore\n      keccak256(0x00, 0x20)\n      swap1\n      0x03\n      mul\n      add\n      0x00\n      swap1\n      swap2\n      swap1\n      swap2\n      swap1\n      swap2\n      pop\n      0x00\n      dup3\n      add\n      mload\n      dup2\n      0x00\n      add\n      sstore\n      0x20\n      dup3\n      add\n      mload\n      dup2\n      0x01\n      add\n      swap1\n      dup2\n      tag_49\n      swap2\n      swap1\n      tag_50\n      jump\t// in\n    tag_49:\n      pop\n      0x40\n      dup3\n      add\n      mload\n      dup2\n      0x02\n      add\n      sstore\n      pop\n      pop\n        /* \"3studentgetdataatonetime.sol\":315:430  {... */\n      pop\n        /* \"3studentgetdataatonetime.sol\":233:430  function addStudent(uint256 _studentId, string memory _name, uint256 _age) public {... */\n      pop\n      pop\n      pop\n      jump\t// out\n        /* \"#utility.yul\":7:82   */\n    tag_51:\n        /* \"#utility.yul\":40:46   */\n      0x00\n        /* \"#utility.yul\":73:75   */\n      0x40\n        /* \"#utility.yul\":67:76   */\n      mload\n        /* \"#utility.yul\":57:76   */\n      swap1\n      pop\n        /* \"#utility.yul\":7:82   */\n      swap1\n      jump\t// out\n        /* \"#utility.yul\":88:205   */\n    tag_52:\n        /* \"#utility.yul\":197:198   */\n      0x00\n        /* \"#utility.yul\":194:195   */\n      dup1\n        /* \"#utility.yul\":187:199   */\n      revert\n        /* \"#utility.yul\":211:328   */\n    tag_53:\n        /* \"#utility.yul\":320:321   */\n      0x00\n        /* \"#utility.yul\":317:318   */\n      dup1\n        /* \"#utility.yul\":310:322   */\n      revert\n        /* \"#utility.yul\":334:411   */\n    tag_54:\n        /* \"#utility.yul\":371:378   */\n      0x00\n        /* \"#utility.yul\":400:405   */\n      dup2\n        /* \"#utility.yul\":389:405   */\n      swap1\n      pop\n        /* \"#utility.yul\":334:411   */\n      swap2\n      swap1\n      pop\n      jump\t// out\n        /* \"#utility.yul\":417:539   */\n    tag_55:\n        /* \"#utility.yul\":490:514   */\n      tag_96\n        /* \"#utility.yul\":508:513   */\n      dup2\n        /* \"#utility.yul\":490:514   */\n      tag_54\n      jump\t// in\n    tag_96:\n        /* \"#utility.yul\":483:488   */\n      dup2\n        /* \"#utility.yul\":480:515   */\n      eq\n        /* \"#utility.yul\":470:533   */\n      tag_97\n      jumpi\n        /* \"#utility.yul\":529:530   */\n      0x00\n        /* \"#utility.yul\":526:527   */\n      dup1\n        /* \"#utility.yul\":519:531   */\n      revert\n        /* \"#utility.yul\":470:533   */\n    tag_97:\n        /* \"#utility.yul\":417:539   */\n      pop\n      jump\t// out\n        /* \"#utility.yul\":545:684   */\n    tag_56:\n        /* \"#utility.yul\":591:596   */\n      0x00\n        /* \"#utility.yul\":629:635   */\n      dup2\n        /* \"#utility.yul\":616:636   */\n      calldataload\n        /* \"#utility.yul\":607:636   */\n      swap1\n      pop\n        /* \"#utility.yul\":645:678   */\n      tag_99\n        /* \"#utility.yul\":672:677   */\n      dup2\n        /* \"#utility.yul\":645:678   */\n      tag_55\n      jump\t// in\n    tag_99:\n        /* \"#utility.yul\":545:684   */\n      swap3\n      swap2\n      pop\n      pop\n      jump\t// out\n        /* \"#utility.yul\":690:1019   */\n    tag_9:\n        /* \"#utility.yul\":749:755   */\n      0x00\n        /* \"#utility.yul\":798:800   */\n      0x20\n        /* \"#utility.yul\":786:795   */\n      dup3\n        /* \"#utility.yul\":777:784   */\n      dup5\n        /* \"#utility.yul\":773:796   */\n      sub\n        /* \"#utility.yul\":769:801   */\n      slt\n        /* \"#utility.yul\":766:885   */\n      iszero\n      tag_101\n      jumpi\n        /* \"#utility.yul\":804:883   */\n      tag_102\n      tag_52\n      jump\t// in\n    tag_102:\n        /* \"#utility.yul\":766:885   */\n    tag_101:\n        /* \"#utility.yul\":924:925   */\n      0x00\n        /* \"#utility.yul\":949:1002   */\n      tag_103\n        /* \"#utility.yul\":994:1001   */\n      dup5\n        /* \"#utility.yul\":985:991   */\n      dup3\n        /* \"#utility.yul\":974:983   */\n      dup6\n        /* \"#utility.yul\":970:992   */\n      add\n        /* \"#utility.yul\":949:1002   */\n      tag_56\n      jump\t// in\n    tag_103:\n        /* \"#utility.yul\":939:1002   */\n      swap2\n      pop\n        /* \"#utility.yul\":895:1012   */\n      pop\n        /* \"#utility.yul\":690:1019   */\n      swap3\n      swap2\n      pop\n      pop\n      jump\t// out\n        /* \"#utility.yul\":1025:1143   */\n    tag_57:\n        /* \"#utility.yul\":1112:1136   */\n      tag_105\n        /* \"#utility.yul\":1130:1135   */\n      dup2\n        /* \"#utility.yul\":1112:1136   */\n      tag_54\n      jump\t// in\n    tag_105:\n        /* \"#utility.yul\":1107:1110   */\n      dup3\n        /* \"#utility.yul\":1100:1137   */\n      mstore\n        /* \"#utility.yul\":1025:1143   */\n      pop\n      pop\n      jump\t// out\n        /* \"#utility.yul\":1149:1248   */\n    tag_58:\n        /* \"#utility.yul\":1201:1207   */\n      0x00\n        /* \"#utility.yul\":1235:1240   */\n      dup2\n        /* \"#utility.yul\":1229:1241   */\n      mload\n        /* \"#utility.yul\":1219:1241   */\n      swap1\n      pop\n        /* \"#utility.yul\":1149:1248   */\n      swap2\n      swap1\n      pop\n      jump\t// out\n        /* \"#utility.yul\":1254:1423   */\n    tag_59:\n        /* \"#utility.yul\":1338:1349   */\n      0x00\n        /* \"#utility.yul\":1372:1378   */\n      dup3\n        /* \"#utility.yul\":1367:1370   */\n      dup3\n        /* \"#utility.yul\":1360:1379   */\n      mstore\n        /* \"#utility.yul\":1412:1416   */\n      0x20\n        /* \"#utility.yul\":1407:1410   */\n      dup3\n        /* \"#utility.yul\":1403:1417   */\n      add\n        /* \"#utility.yul\":1388:1417   */\n      swap1\n      pop\n        /* \"#utility.yul\":1254:1423   */\n      swap3\n      swap2\n      pop\n      pop\n      jump\t// out\n        /* \"#utility.yul\":1429:1675   */\n    tag_60:\n        /* \"#utility.yul\":1510:1511   */\n      0x00\n        /* \"#utility.yul\":1520:1633   */\n    tag_109:\n        /* \"#utility.yul\":1534:1540   */\n      dup4\n        /* \"#utility.yul\":1531:1532   */\n      dup2\n        /* \"#utility.yul\":1528:1541   */\n      lt\n        /* \"#utility.yul\":1520:1633   */\n      iszero\n      tag_111\n      jumpi\n        /* \"#utility.yul\":1619:1620   */\n      dup1\n        /* \"#utility.yul\":1614:1617   */\n      dup3\n        /* \"#utility.yul\":1610:1621   */\n      add\n        /* \"#utility.yul\":1604:1622   */\n      mload\n        /* \"#utility.yul\":1600:1601   */\n      dup2\n        /* \"#utility.yul\":1595:1598   */\n      dup5\n        /* \"#utility.yul\":1591:1602   */\n      add\n        /* \"#utility.yul\":1584:1623   */\n      mstore\n        /* \"#utility.yul\":1556:1558   */\n      0x20\n        /* \"#utility.yul\":1553:1554   */\n      dup2\n        /* \"#utility.yul\":1549:1559   */\n      add\n        /* \"#utility.yul\":1544:1559   */\n      swap1\n      pop\n        /* \"#utility.yul\":1520:1633   */\n      jump(tag_109)\n    tag_111:\n        /* \"#utility.yul\":1667:1668   */\n      0x00\n        /* \"#utility.yul\":1658:1664   */\n      dup5\n        /* \"#utility.yul\":1653:1656   */\n      dup5\n        /* \"#utility.yul\":1649:1665   */\n      add\n        /* \"#utility.yul\":1642:1669   */\n      mstore\n        /* \"#utility.yul\":1491:1675   */\n      pop\n        /* \"#utility.yul\":1429:1675   */\n      pop\n      pop\n      pop\n      jump\t// out\n        /* \"#utility.yul\":1681:1783   */\n    tag_61:\n        /* \"#utility.yul\":1722:1728   */\n      0x00\n        /* \"#utility.yul\":1773:1775   */\n      0x1f\n        /* \"#utility.yul\":1769:1776   */\n      not\n        /* \"#utility.yul\":1764:1766   */\n      0x1f\n        /* \"#utility.yul\":1757:1762   */\n      dup4\n        /* \"#utility.yul\":1753:1767   */\n      add\n        /* \"#utility.yul\":1749:1777   */\n      and\n        /* \"#utility.yul\":1739:1777   */\n      swap1\n      pop\n        /* \"#utility.yul\":1681:1783   */\n      swap2\n      swap1\n      pop\n      jump\t// out\n        /* \"#utility.yul\":1789:2166   */\n    tag_62:\n        /* \"#utility.yul\":1877:1880   */\n      0x00\n        /* \"#utility.yul\":1905:1944   */\n      tag_114\n        /* \"#utility.yul\":1938:1943   */\n      dup3\n        /* \"#utility.yul\":1905:1944   */\n      tag_58\n      jump\t// in\n    tag_114:\n        /* \"#utility.yul\":1960:2031   */\n      tag_115\n        /* \"#utility.yul\":2024:2030   */\n      dup2\n        /* \"#utility.yul\":2019:2022   */\n      dup6\n        /* \"#utility.yul\":1960:2031   */\n      tag_59\n      jump\t// in\n    tag_115:\n        /* \"#utility.yul\":1953:2031   */\n      swap4\n      pop\n        /* \"#utility.yul\":2040:2105   */\n      tag_116\n        /* \"#utility.yul\":2098:2104   */\n      dup2\n        /* \"#utility.yul\":2093:2096   */\n      dup6\n        /* \"#utility.yul\":2086:2090   */\n      0x20\n        /* \"#utility.yul\":2079:2084   */\n      dup7\n        /* \"#utility.yul\":2075:2091   */\n      add\n        /* \"#utility.yul\":2040:2105   */\n      tag_60\n      jump\t// in\n    tag_116:\n        /* \"#utility.yul\":2130:2159   */\n      tag_117\n        /* \"#utility.yul\":2152:2158   */\n      dup2\n        /* \"#utility.yul\":2130:2159   */\n      tag_61\n      jump\t// in\n    tag_117:\n        /* \"#utility.yul\":2125:2128   */\n      dup5\n        /* \"#utility.yul\":2121:2160   */\n      add\n        /* \"#utility.yul\":2114:2160   */\n      swap2\n      pop\n        /* \"#utility.yul\":1881:2166   */\n      pop\n        /* \"#utility.yul\":1789:2166   */\n      swap3\n      swap2\n      pop\n      pop\n      jump\t// out\n        /* \"#utility.yul\":2172:2705   */\n    tag_12:\n        /* \"#utility.yul\":2341:2345   */\n      0x00\n        /* \"#utility.yul\":2379:2381   */\n      0x60\n        /* \"#utility.yul\":2368:2377   */\n      dup3\n        /* \"#utility.yul\":2364:2382   */\n      add\n        /* \"#utility.yul\":2356:2382   */\n      swap1\n      pop\n        /* \"#utility.yul\":2392:2463   */\n      tag_119\n        /* \"#utility.yul\":2460:2461   */\n      0x00\n        /* \"#utility.yul\":2449:2458   */\n      dup4\n        /* \"#utility.yul\":2445:2462   */\n      add\n        /* \"#utility.yul\":2436:2442   */\n      dup7\n        /* \"#utility.yul\":2392:2463   */\n      tag_57\n      jump\t// in\n    tag_119:\n        /* \"#utility.yul\":2510:2519   */\n      dup2\n        /* \"#utility.yul\":2504:2508   */\n      dup2\n        /* \"#utility.yul\":2500:2520   */\n      sub\n        /* \"#utility.yul\":2495:2497   */\n      0x20\n        /* \"#utility.yul\":2484:2493   */\n      dup4\n        /* \"#utility.yul\":2480:2498   */\n      add\n        /* \"#utility.yul\":2473:2521   */\n      mstore\n        /* \"#utility.yul\":2538:2616   */\n      tag_120\n        /* \"#utility.yul\":2611:2615   */\n      dup2\n        /* \"#utility.yul\":2602:2608   */\n      dup6\n        /* \"#utility.yul\":2538:2616   */\n      tag_62\n      jump\t// in\n    tag_120:\n        /* \"#utility.yul\":2530:2616   */\n      swap1\n      pop\n        /* \"#utility.yul\":2626:2698   */\n      tag_121\n        /* \"#utility.yul\":2694:2696   */\n      0x40\n        /* \"#utility.yul\":2683:2692   */\n      dup4\n        /* \"#utility.yul\":2679:2697   */\n      add\n        /* \"#utility.yul\":2670:2676   */\n      dup5\n        /* \"#utility.yul\":2626:2698   */\n      tag_57\n      jump\t// in\n    tag_121:\n        /* \"#utility.yul\":2172:2705   */\n      swap5\n      swap4\n      pop\n      pop\n      pop\n      pop\n      jump\t// out\n        /* \"#utility.yul\":2711:2933   */\n    tag_16:\n        /* \"#utility.yul\":2804:2808   */\n      0x00\n        /* \"#utility.yul\":2842:2844   */\n      0x20\n        /* \"#utility.yul\":2831:2840   */\n      dup3\n        /* \"#utility.yul\":2827:2845   */\n      add\n        /* \"#utility.yul\":2819:2845   */\n      swap1\n      pop\n        /* \"#utility.yul\":2855:2926   */\n      tag_123\n        /* \"#utility.yul\":2923:2924   */\n      0x00\n        /* \"#utility.yul\":2912:2921   */\n      dup4\n        /* \"#utility.yul\":2908:2925   */\n      add\n        /* \"#utility.yul\":2899:2905   */\n      dup5\n        /* \"#utility.yul\":2855:2926   */\n      tag_57\n      jump\t// in\n    tag_123:\n        /* \"#utility.yul\":2711:2933   */\n      swap3\n      swap2\n      pop\n      pop\n      jump\t// out\n        /* \"#utility.yul\":2939:3056   */\n    tag_63:\n        /* \"#utility.yul\":3048:3049   */\n      0x00\n        /* \"#utility.yul\":3045:3046   */\n      dup1\n        /* \"#utility.yul\":3038:3050   */\n      revert\n        /* \"#utility.yul\":3062:3179   */\n    tag_64:\n        /* \"#utility.yul\":3171:3172   */\n      0x00\n        /* \"#utility.yul\":3168:3169   */\n      dup1\n        /* \"#utility.yul\":3161:3173   */\n      revert\n        /* \"#utility.yul\":3185:3365   */\n    tag_65:\n        /* \"#utility.yul\":3233:3310   */\n      0x4e487b7100000000000000000000000000000000000000000000000000000000\n        /* \"#utility.yul\":3230:3231   */\n      0x00\n        /* \"#utility.yul\":3223:3311   */\n      mstore\n        /* \"#utility.yul\":3330:3334   */\n      0x41\n        /* \"#utility.yul\":3327:3328   */\n      0x04\n        /* \"#utility.yul\":3320:3335   */\n      mstore\n        /* \"#utility.yul\":3354:3358   */\n      0x24\n        /* \"#utility.yul\":3351:3352   */\n      0x00\n        /* \"#utility.yul\":3344:3359   */\n      revert\n        /* \"#utility.yul\":3371:3652   */\n    tag_66:\n        /* \"#utility.yul\":3454:3481   */\n      tag_128\n        /* \"#utility.yul\":3476:3480   */\n      dup3\n        /* \"#utility.yul\":3454:3481   */\n      tag_61\n      jump\t// in\n    tag_128:\n        /* \"#utility.yul\":3446:3452   */\n      dup2\n        /* \"#utility.yul\":3442:3482   */\n      add\n        /* \"#utility.yul\":3584:3590   */\n      dup2\n        /* \"#utility.yul\":3572:3582   */\n      dup2\n        /* \"#utility.yul\":3569:3591   */\n      lt\n        /* \"#utility.yul\":3548:3566   */\n      0xffffffffffffffff\n        /* \"#utility.yul\":3536:3546   */\n      dup3\n        /* \"#utility.yul\":3533:3567   */\n      gt\n        /* \"#utility.yul\":3530:3592   */\n      or\n        /* \"#utility.yul\":3527:3615   */\n      iszero\n      tag_129\n      jumpi\n        /* \"#utility.yul\":3595:3613   */\n      tag_130\n      tag_65\n      jump\t// in\n    tag_130:\n        /* \"#utility.yul\":3527:3615   */\n    tag_129:\n        /* \"#utility.yul\":3635:3645   */\n      dup1\n        /* \"#utility.yul\":3631:3633   */\n      0x40\n        /* \"#utility.yul\":3624:3646   */\n      mstore\n        /* \"#utility.yul\":3414:3652   */\n      pop\n        /* \"#utility.yul\":3371:3652   */\n      pop\n      pop\n      jump\t// out\n        /* \"#utility.yul\":3658:3787   */\n    tag_67:\n        /* \"#utility.yul\":3692:3698   */\n      0x00\n        /* \"#utility.yul\":3719:3739   */\n      tag_132\n      tag_51\n      jump\t// in\n    tag_132:\n        /* \"#utility.yul\":3709:3739   */\n      swap1\n      pop\n        /* \"#utility.yul\":3748:3781   */\n      tag_133\n        /* \"#utility.yul\":3776:3780   */\n      dup3\n        /* \"#utility.yul\":3768:3774   */\n      dup3\n        /* \"#utility.yul\":3748:3781   */\n      tag_66\n      jump\t// in\n    tag_133:\n        /* \"#utility.yul\":3658:3787   */\n      swap2\n      swap1\n      pop\n      jump\t// out\n        /* \"#utility.yul\":3793:4101   */\n    tag_68:\n        /* \"#utility.yul\":3855:3859   */\n      0x00\n        /* \"#utility.yul\":3945:3963   */\n      0xffffffffffffffff\n        /* \"#utility.yul\":3937:3943   */\n      dup3\n        /* \"#utility.yul\":3934:3964   */\n      gt\n        /* \"#utility.yul\":3931:3987   */\n      iszero\n      tag_135\n      jumpi\n        /* \"#utility.yul\":3967:3985   */\n      tag_136\n      tag_65\n      jump\t// in\n    tag_136:\n        /* \"#utility.yul\":3931:3987   */\n    tag_135:\n        /* \"#utility.yul\":4005:4034   */\n      tag_137\n        /* \"#utility.yul\":4027:4033   */\n      dup3\n        /* \"#utility.yul\":4005:4034   */\n      tag_61\n      jump\t// in\n    tag_137:\n        /* \"#utility.yul\":3997:4034   */\n      swap1\n      pop\n        /* \"#utility.yul\":4089:4093   */\n      0x20\n        /* \"#utility.yul\":4083:4087   */\n      dup2\n        /* \"#utility.yul\":4079:4094   */\n      add\n        /* \"#utility.yul\":4071:4094   */\n      swap1\n      pop\n        /* \"#utility.yul\":3793:4101   */\n      swap2\n      swap1\n      pop\n      jump\t// out\n        /* \"#utility.yul\":4107:4253   */\n    tag_69:\n        /* \"#utility.yul\":4204:4210   */\n      dup3\n        /* \"#utility.yul\":4199:4202   */\n      dup2\n        /* \"#utility.yul\":4194:4197   */\n      dup4\n        /* \"#utility.yul\":4181:4211   */\n      calldatacopy\n        /* \"#utility.yul\":4245:4246   */\n      0x00\n        /* \"#utility.yul\":4236:4242   */\n      dup4\n        /* \"#utility.yul\":4231:4234   */\n      dup4\n        /* \"#utility.yul\":4227:4243   */\n      add\n        /* \"#utility.yul\":4220:4247   */\n      mstore\n        /* \"#utility.yul\":4107:4253   */\n      pop\n      pop\n      pop\n      jump\t// out\n        /* \"#utility.yul\":4259:4684   */\n    tag_70:\n        /* \"#utility.yul\":4337:4342   */\n      0x00\n        /* \"#utility.yul\":4362:4428   */\n      tag_140\n        /* \"#utility.yul\":4378:4427   */\n      tag_141\n        /* \"#utility.yul\":4420:4426   */\n      dup5\n        /* \"#utility.yul\":4378:4427   */\n      tag_68\n      jump\t// in\n    tag_141:\n        /* \"#utility.yul\":4362:4428   */\n      tag_67\n      jump\t// in\n    tag_140:\n        /* \"#utility.yul\":4353:4428   */\n      swap1\n      pop\n        /* \"#utility.yul\":4451:4457   */\n      dup3\n        /* \"#utility.yul\":4444:4449   */\n      dup2\n        /* \"#utility.yul\":4437:4458   */\n      mstore\n        /* \"#utility.yul\":4489:4493   */\n      0x20\n        /* \"#utility.yul\":4482:4487   */\n      dup2\n        /* \"#utility.yul\":4478:4494   */\n      add\n        /* \"#utility.yul\":4527:4530   */\n      dup5\n        /* \"#utility.yul\":4518:4524   */\n      dup5\n        /* \"#utility.yul\":4513:4516   */\n      dup5\n        /* \"#utility.yul\":4509:4525   */\n      add\n        /* \"#utility.yul\":4506:4531   */\n      gt\n        /* \"#utility.yul\":4503:4615   */\n      iszero\n      tag_142\n      jumpi\n        /* \"#utility.yul\":4534:4613   */\n      tag_143\n      tag_64\n      jump\t// in\n    tag_143:\n        /* \"#utility.yul\":4503:4615   */\n    tag_142:\n        /* \"#utility.yul\":4624:4678   */\n      tag_144\n        /* \"#utility.yul\":4671:4677   */\n      dup5\n        /* \"#utility.yul\":4666:4669   */\n      dup3\n        /* \"#utility.yul\":4661:4664   */\n      dup6\n        /* \"#utility.yul\":4624:4678   */\n      tag_69\n      jump\t// in\n    tag_144:\n        /* \"#utility.yul\":4343:4684   */\n      pop\n        /* \"#utility.yul\":4259:4684   */\n      swap4\n      swap3\n      pop\n      pop\n      pop\n      jump\t// out\n        /* \"#utility.yul\":4704:5044   */\n    tag_71:\n        /* \"#utility.yul\":4760:4765   */\n      0x00\n        /* \"#utility.yul\":4809:4812   */\n      dup3\n        /* \"#utility.yul\":4802:4806   */\n      0x1f\n        /* \"#utility.yul\":4794:4800   */\n      dup4\n        /* \"#utility.yul\":4790:4807   */\n      add\n        /* \"#utility.yul\":4786:4813   */\n      slt\n        /* \"#utility.yul\":4776:4898   */\n      tag_146\n      jumpi\n        /* \"#utility.yul\":4817:4896   */\n      tag_147\n      tag_63\n      jump\t// in\n    tag_147:\n        /* \"#utility.yul\":4776:4898   */\n    tag_146:\n        /* \"#utility.yul\":4934:4940   */\n      dup2\n        /* \"#utility.yul\":4921:4941   */\n      calldataload\n        /* \"#utility.yul\":4959:5038   */\n      tag_148\n        /* \"#utility.yul\":5034:5037   */\n      dup5\n        /* \"#utility.yul\":5026:5032   */\n      dup3\n        /* \"#utility.yul\":5019:5023   */\n      0x20\n        /* \"#utility.yul\":5011:5017   */\n      dup7\n        /* \"#utility.yul\":5007:5024   */\n      add\n        /* \"#utility.yul\":4959:5038   */\n      tag_70\n      jump\t// in\n    tag_148:\n        /* \"#utility.yul\":4950:5038   */\n      swap2\n      pop\n        /* \"#utility.yul\":4766:5044   */\n      pop\n        /* \"#utility.yul\":4704:5044   */\n      swap3\n      swap2\n      pop\n      pop\n      jump\t// out\n        /* \"#utility.yul\":5050:5849   */\n    tag_23:\n        /* \"#utility.yul\":5137:5143   */\n      0x00\n        /* \"#utility.yul\":5145:5151   */\n      dup1\n        /* \"#utility.yul\":5153:5159   */\n      0x00\n        /* \"#utility.yul\":5202:5204   */\n      0x60\n        /* \"#utility.yul\":5190:5199   */\n      dup5\n        /* \"#utility.yul\":5181:5188   */\n      dup7\n        /* \"#utility.yul\":5177:5200   */\n      sub\n        /* \"#utility.yul\":5173:5205   */\n      slt\n        /* \"#utility.yul\":5170:5289   */\n      iszero\n      tag_150\n      jumpi\n        /* \"#utility.yul\":5208:5287   */\n      tag_151\n      tag_52\n      jump\t// in\n    tag_151:\n        /* \"#utility.yul\":5170:5289   */\n    tag_150:\n        /* \"#utility.yul\":5328:5329   */\n      0x00\n        /* \"#utility.yul\":5353:5406   */\n      tag_152\n        /* \"#utility.yul\":5398:5405   */\n      dup7\n        /* \"#utility.yul\":5389:5395   */\n      dup3\n        /* \"#utility.yul\":5378:5387   */\n      dup8\n        /* \"#utility.yul\":5374:5396   */\n      add\n        /* \"#utility.yul\":5353:5406   */\n      tag_56\n      jump\t// in\n    tag_152:\n        /* \"#utility.yul\":5343:5406   */\n      swap4\n      pop\n        /* \"#utility.yul\":5299:5416   */\n      pop\n        /* \"#utility.yul\":5483:5485   */\n      0x20\n        /* \"#utility.yul\":5472:5481   */\n      dup5\n        /* \"#utility.yul\":5468:5486   */\n      add\n        /* \"#utility.yul\":5455:5487   */\n      calldataload\n        /* \"#utility.yul\":5514:5532   */\n      0xffffffffffffffff\n        /* \"#utility.yul\":5506:5512   */\n      dup2\n        /* \"#utility.yul\":5503:5533   */\n      gt\n        /* \"#utility.yul\":5500:5617   */\n      iszero\n      tag_153\n      jumpi\n        /* \"#utility.yul\":5536:5615   */\n      tag_154\n      tag_53\n      jump\t// in\n    tag_154:\n        /* \"#utility.yul\":5500:5617   */\n    tag_153:\n        /* \"#utility.yul\":5641:5704   */\n      tag_155\n        /* \"#utility.yul\":5696:5703   */\n      dup7\n        /* \"#utility.yul\":5687:5693   */\n      dup3\n        /* \"#utility.yul\":5676:5685   */\n      dup8\n        /* \"#utility.yul\":5672:5694   */\n      add\n        /* \"#utility.yul\":5641:5704   */\n      tag_71\n      jump\t// in\n    tag_155:\n        /* \"#utility.yul\":5631:5704   */\n      swap3\n      pop\n        /* \"#utility.yul\":5426:5714   */\n      pop\n        /* \"#utility.yul\":5753:5755   */\n      0x40\n        /* \"#utility.yul\":5779:5832   */\n      tag_156\n        /* \"#utility.yul\":5824:5831   */\n      dup7\n        /* \"#utility.yul\":5815:5821   */\n      dup3\n        /* \"#utility.yul\":5804:5813   */\n      dup8\n        /* \"#utility.yul\":5800:5822   */\n      add\n        /* \"#utility.yul\":5779:5832   */\n      tag_56\n      jump\t// in\n    tag_156:\n        /* \"#utility.yul\":5769:5832   */\n      swap2\n      pop\n        /* \"#utility.yul\":5724:5842   */\n      pop\n        /* \"#utility.yul\":5050:5849   */\n      swap3\n      pop\n      swap3\n      pop\n      swap3\n      jump\t// out\n        /* \"#utility.yul\":5855:6035   */\n    tag_72:\n        /* \"#utility.yul\":5903:5980   */\n      0x4e487b7100000000000000000000000000000000000000000000000000000000\n        /* \"#utility.yul\":5900:5901   */\n      0x00\n        /* \"#utility.yul\":5893:5981   */\n      mstore\n        /* \"#utility.yul\":6000:6004   */\n      0x22\n        /* \"#utility.yul\":5997:5998   */\n      0x04\n        /* \"#utility.yul\":5990:6005   */\n      mstore\n        /* \"#utility.yul\":6024:6028   */\n      0x24\n        /* \"#utility.yul\":6021:6022   */\n      0x00\n        /* \"#utility.yul\":6014:6029   */\n      revert\n        /* \"#utility.yul\":6041:6361   */\n    tag_28:\n        /* \"#utility.yul\":6085:6091   */\n      0x00\n        /* \"#utility.yul\":6122:6123   */\n      0x02\n        /* \"#utility.yul\":6116:6120   */\n      dup3\n        /* \"#utility.yul\":6112:6124   */\n      div\n        /* \"#utility.yul\":6102:6124   */\n      swap1\n      pop\n        /* \"#utility.yul\":6169:6170   */\n      0x01\n        /* \"#utility.yul\":6163:6167   */\n      dup3\n        /* \"#utility.yul\":6159:6171   */\n      and\n        /* \"#utility.yul\":6190:6208   */\n      dup1\n        /* \"#utility.yul\":6180:6261   */\n      tag_159\n      jumpi\n        /* \"#utility.yul\":6246:6250   */\n      0x7f\n        /* \"#utility.yul\":6238:6244   */\n      dup3\n        /* \"#utility.yul\":6234:6251   */\n      and\n        /* \"#utility.yul\":6224:6251   */\n      swap2\n      pop\n        /* \"#utility.yul\":6180:6261   */\n    tag_159:\n        /* \"#utility.yul\":6308:6310   */\n      0x20\n        /* \"#utility.yul\":6300:6306   */\n      dup3\n        /* \"#utility.yul\":6297:6311   */\n      lt\n        /* \"#utility.yul\":6277:6295   */\n      dup2\n        /* \"#utility.yul\":6274:6312   */\n      sub\n        /* \"#utility.yul\":6271:6355   */\n      tag_160\n      jumpi\n        /* \"#utility.yul\":6327:6345   */\n      tag_161\n      tag_72\n      jump\t// in\n    tag_161:\n        /* \"#utility.yul\":6271:6355   */\n    tag_160:\n        /* \"#utility.yul\":6092:6361   */\n      pop\n        /* \"#utility.yul\":6041:6361   */\n      swap2\n      swap1\n      pop\n      jump\t// out\n        /* \"#utility.yul\":6367:6536   */\n    tag_73:\n        /* \"#utility.yul\":6507:6528   */\n      0x496e646578206f7574206f6620626f756e647300000000000000000000000000\n        /* \"#utility.yul\":6503:6504   */\n      0x00\n        /* \"#utility.yul\":6495:6501   */\n      dup3\n        /* \"#utility.yul\":6491:6505   */\n      add\n        /* \"#utility.yul\":6484:6529   */\n      mstore\n        /* \"#utility.yul\":6367:6536   */\n      pop\n      jump\t// out\n        /* \"#utility.yul\":6542:6908   */\n    tag_74:\n        /* \"#utility.yul\":6684:6687   */\n      0x00\n        /* \"#utility.yul\":6705:6772   */\n      tag_164\n        /* \"#utility.yul\":6769:6771   */\n      0x13\n        /* \"#utility.yul\":6764:6767   */\n      dup4\n        /* \"#utility.yul\":6705:6772   */\n      tag_59\n      jump\t// in\n    tag_164:\n        /* \"#utility.yul\":6698:6772   */\n      swap2\n      pop\n        /* \"#utility.yul\":6781:6874   */\n      tag_165\n        /* \"#utility.yul\":6870:6873   */\n      dup3\n        /* \"#utility.yul\":6781:6874   */\n      tag_73\n      jump\t// in\n    tag_165:\n        /* \"#utility.yul\":6899:6901   */\n      0x20\n        /* \"#utility.yul\":6894:6897   */\n      dup3\n        /* \"#utility.yul\":6890:6902   */\n      add\n        /* \"#utility.yul\":6883:6902   */\n      swap1\n      pop\n        /* \"#utility.yul\":6542:6908   */\n      swap2\n      swap1\n      pop\n      jump\t// out\n        /* \"#utility.yul\":6914:7333   */\n    tag_37:\n        /* \"#utility.yul\":7080:7084   */\n      0x00\n        /* \"#utility.yul\":7118:7120   */\n      0x20\n        /* \"#utility.yul\":7107:7116   */\n      dup3\n        /* \"#utility.yul\":7103:7121   */\n      add\n        /* \"#utility.yul\":7095:7121   */\n      swap1\n      pop\n        /* \"#utility.yul\":7167:7176   */\n      dup2\n        /* \"#utility.yul\":7161:7165   */\n      dup2\n        /* \"#utility.yul\":7157:7177   */\n      sub\n        /* \"#utility.yul\":7153:7154   */\n      0x00\n        /* \"#utility.yul\":7142:7151   */\n      dup4\n        /* \"#utility.yul\":7138:7155   */\n      add\n        /* \"#utility.yul\":7131:7178   */\n      mstore\n        /* \"#utility.yul\":7195:7326   */\n      tag_167\n        /* \"#utility.yul\":7321:7325   */\n      dup2\n        /* \"#utility.yul\":7195:7326   */\n      tag_74\n      jump\t// in\n    tag_167:\n        /* \"#utility.yul\":7187:7326   */\n      swap1\n      pop\n        /* \"#utility.yul\":6914:7333   */\n      swap2\n      swap1\n      pop\n      jump\t// out\n        /* \"#utility.yul\":7339:7519   */\n    tag_40:\n        /* \"#utility.yul\":7387:7464   */\n      0x4e487b7100000000000000000000000000000000000000000000000000000000\n        /* \"#utility.yul\":7384:7385   */\n      0x00\n        /* \"#utility.yul\":7377:7465   */\n      mstore\n        /* \"#utility.yul\":7484:7488   */\n      0x32\n        /* \"#utility.yul\":7481:7482   */\n      0x04\n        /* \"#utility.yul\":7474:7489   */\n      mstore\n        /* \"#utility.yul\":7508:7512   */\n      0x24\n        /* \"#utility.yul\":7505:7506   */\n      0x00\n        /* \"#utility.yul\":7498:7513   */\n      revert\n        /* \"#utility.yul\":7525:7666   */\n    tag_75:\n        /* \"#utility.yul\":7574:7578   */\n      0x00\n        /* \"#utility.yul\":7597:7600   */\n      dup2\n        /* \"#utility.yul\":7589:7600   */\n      swap1\n      pop\n        /* \"#utility.yul\":7620:7623   */\n      dup2\n        /* \"#utility.yul\":7617:7618   */\n      0x00\n        /* \"#utility.yul\":7610:7624   */\n      mstore\n        /* \"#utility.yul\":7654:7658   */\n      0x20\n        /* \"#utility.yul\":7651:7652   */\n      0x00\n        /* \"#utility.yul\":7641:7659   */\n      keccak256\n        /* \"#utility.yul\":7633:7659   */\n      swap1\n      pop\n        /* \"#utility.yul\":7525:7666   */\n      swap2\n      swap1\n      pop\n      jump\t// out\n        /* \"#utility.yul\":7672:7765   */\n    tag_76:\n        /* \"#utility.yul\":7709:7715   */\n      0x00\n        /* \"#utility.yul\":7756:7758   */\n      0x20\n        /* \"#utility.yul\":7751:7753   */\n      0x1f\n        /* \"#utility.yul\":7744:7749   */\n      dup4\n        /* \"#utility.yul\":7740:7754   */\n      add\n        /* \"#utility.yul\":7736:7759   */\n      div\n        /* \"#utility.yul\":7726:7759   */\n      swap1\n      pop\n        /* \"#utility.yul\":7672:7765   */\n      swap2\n      swap1\n      pop\n      jump\t// out\n        /* \"#utility.yul\":7771:7878   */\n    tag_77:\n        /* \"#utility.yul\":7815:7823   */\n      0x00\n        /* \"#utility.yul\":7865:7870   */\n      dup3\n        /* \"#utility.yul\":7859:7863   */\n      dup3\n        /* \"#utility.yul\":7855:7871   */\n      shl\n        /* \"#utility.yul\":7834:7871   */\n      swap1\n      pop\n        /* \"#utility.yul\":7771:7878   */\n      swap3\n      swap2\n      pop\n      pop\n      jump\t// out\n        /* \"#utility.yul\":7884:8277   */\n    tag_78:\n        /* \"#utility.yul\":7953:7959   */\n      0x00\n        /* \"#utility.yul\":8003:8004   */\n      0x08\n        /* \"#utility.yul\":7991:8001   */\n      dup4\n        /* \"#utility.yul\":7987:8005   */\n      mul\n        /* \"#utility.yul\":8026:8123   */\n      tag_173\n        /* \"#utility.yul\":8056:8122   */\n      0xffffffffffffffffffffffffffffffffffffffffffffffffffffffffffffffff\n        /* \"#utility.yul\":8045:8054   */\n      dup3\n        /* \"#utility.yul\":8026:8123   */\n      tag_77\n      jump\t// in\n    tag_173:\n        /* \"#utility.yul\":8144:8183   */\n      tag_174\n        /* \"#utility.yul\":8174:8182   */\n      dup7\n        /* \"#utility.yul\":8163:8172   */\n      dup4\n        /* \"#utility.yul\":8144:8183   */\n      tag_77\n      jump\t// in\n    tag_174:\n        /* \"#utility.yul\":8132:8183   */\n      swap6\n      pop\n        /* \"#utility.yul\":8216:8220   */\n      dup1\n        /* \"#utility.yul\":8212:8221   */\n      not\n        /* \"#utility.yul\":8205:8210   */\n      dup5\n        /* \"#utility.yul\":8201:8222   */\n      and\n        /* \"#utility.yul\":8192:8222   */\n      swap4\n      pop\n        /* \"#utility.yul\":8265:8269   */\n      dup1\n        /* \"#utility.yul\":8255:8263   */\n      dup7\n        /* \"#utility.yul\":8251:8270   */\n      and\n        /* \"#utility.yul\":8244:8249   */\n      dup5\n        /* \"#utility.yul\":8241:8271   */\n      or\n        /* \"#utility.yul\":8231:8271   */\n      swap3\n      pop\n        /* \"#utility.yul\":7960:8277   */\n      pop\n      pop\n        /* \"#utility.yul\":7884:8277   */\n      swap4\n      swap3\n      pop\n      pop\n      pop\n      jump\t// out\n        /* \"#utility.yul\":8283:8343   */\n    tag_79:\n        /* \"#utility.yul\":8311:8314   */\n      0x00\n        /* \"#utility.yul\":8332:8337   */\n      dup2\n        /* \"#utility.yul\":8325:8337   */\n      swap1\n      pop\n        /* \"#utility.yul\":8283:8343   */\n      swap2\n      swap1\n      pop\n      jump\t// out\n        /* \"#utility.yul\":8349:8491   */\n    tag_80:\n        /* \"#utility.yul\":8399:8408   */\n      0x00\n        /* \"#utility.yul\":8432:8485   */\n      tag_177\n        /* \"#utility.yul\":8450:8484   */\n      tag_178\n        /* \"#utility.yul\":8459:8483   */\n      tag_179\n        /* \"#utility.yul\":8477:8482   */\n      dup5\n        /* \"#utility.yul\":8459:8483   */\n      tag_54\n      jump\t// in\n    tag_179:\n        /* \"#utility.yul\":8450:8484   */\n      tag_79\n      jump\t// in\n    tag_178:\n        /* \"#utility.yul\":8432:8485   */\n      tag_54\n      jump\t// in\n    tag_177:\n        /* \"#utility.yul\":8419:8485   */\n      swap1\n      pop\n        /* \"#utility.yul\":8349:8491   */\n      swap2\n      swap1\n      pop\n      jump\t// out\n        /* \"#utility.yul\":8497:8572   */\n    tag_81:\n        /* \"#utility.yul\":8540:8543   */\n      0x00\n        /* \"#utility.yul\":8561:8566   */\n      dup2\n        /* \"#utility.yul\":8554:8566   */\n      swap1\n      pop\n        /* \"#utility.yul\":8497:8572   */\n      swap2\n      swap1\n      pop\n      jump\t// out\n        /* \"#utility.yul\":8578:8847   */\n    tag_82:\n        /* \"#utility.yul\":8688:8727   */\n      tag_182\n        /* \"#utility.yul\":8719:8726   */\n      dup4\n        /* \"#utility.yul\":8688:8727   */\n      tag_80\n      jump\t// in\n    tag_182:\n        /* \"#utility.yul\":8749:8840   */\n      tag_183\n        /* \"#utility.yul\":8798:8839   */\n      tag_184\n        /* \"#utility.yul\":8822:8838   */\n      dup3\n        /* \"#utility.yul\":8798:8839   */\n      tag_81\n      jump\t// in\n    tag_184:\n        /* \"#utility.yul\":8790:8796   */\n      dup5\n        /* \"#utility.yul\":8783:8787   */\n      dup5\n        /* \"#utility.yul\":8777:8788   */\n      sload\n        /* \"#utility.yul\":8749:8840   */\n      tag_78\n      jump\t// in\n    tag_183:\n        /* \"#utility.yul\":8743:8747   */\n      dup3\n        /* \"#utility.yul\":8736:8841   */\n      sstore\n        /* \"#utility.yul\":8654:8847   */\n      pop\n        /* \"#utility.yul\":8578:8847   */\n      pop\n      pop\n      pop\n      jump\t// out\n        /* \"#utility.yul\":8853:8926   */\n    tag_83:\n        /* \"#utility.yul\":8898:8901   */\n      0x00\n        /* \"#utility.yul\":8853:8926   */\n      swap1\n      jump\t// out\n        /* \"#utility.yul\":8932:9121   */\n    tag_84:\n        /* \"#utility.yul\":9009:9041   */\n      tag_187\n      tag_83\n      jump\t// in\n    tag_187:\n        /* \"#utility.yul\":9050:9115   */\n      tag_188\n        /* \"#utility.yul\":9108:9114   */\n      dup2\n        /* \"#utility.yul\":9100:9106   */\n      dup5\n        /* \"#utility.yul\":9094:9098   */\n      dup5\n        /* \"#utility.yul\":9050:9115   */\n      tag_82\n      jump\t// in\n    tag_188:\n        /* \"#utility.yul\":8985:9121   */\n      pop\n        /* \"#utility.yul\":8932:9121   */\n      pop\n      pop\n      jump\t// out\n        /* \"#utility.yul\":9127:9313   */\n    tag_85:\n        /* \"#utility.yul\":9187:9307   */\n    tag_190:\n        /* \"#utility.yul\":9204:9207   */\n      dup2\n        /* \"#utility.yul\":9197:9202   */\n      dup2\n        /* \"#utility.yul\":9194:9208   */\n      lt\n        /* \"#utility.yul\":9187:9307   */\n      iszero\n      tag_192\n      jumpi\n        /* \"#utility.yul\":9258:9297   */\n      tag_193\n        /* \"#utility.yul\":9295:9296   */\n      0x00\n        /* \"#utility.yul\":9288:9293   */\n      dup3\n        /* \"#utility.yul\":9258:9297   */\n      tag_84\n      jump\t// in\n    tag_193:\n        /* \"#utility.yul\":9231:9232   */\n      0x01\n        /* \"#utility.yul\":9224:9229   */\n      dup2\n        /* \"#utility.yul\":9220:9233   */\n      add\n        /* \"#utility.yul\":9211:9233   */\n      swap1\n      pop\n        /* \"#utility.yul\":9187:9307   */\n      jump(tag_190)\n    tag_192:\n        /* \"#utility.yul\":9127:9313   */\n      pop\n      pop\n      jump\t// out\n        /* \"#utility.yul\":9319:9862   */\n    tag_86:\n        /* \"#utility.yul\":9420:9422   */\n      0x1f\n        /* \"#utility.yul\":9415:9418   */\n      dup3\n        /* \"#utility.yul\":9412:9423   */\n      gt\n        /* \"#utility.yul\":9409:9855   */\n      iszero\n      tag_195\n      jumpi\n        /* \"#utility.yul\":9454:9492   */\n      tag_196\n        /* \"#utility.yul\":9486:9491   */\n      dup2\n        /* \"#utility.yul\":9454:9492   */\n      tag_75\n      jump\t// in\n    tag_196:\n        /* \"#utility.yul\":9538:9567   */\n      tag_197\n        /* \"#utility.yul\":9556:9566   */\n      dup5\n        /* \"#utility.yul\":9538:9567   */\n      tag_76\n      jump\t// in\n    tag_197:\n        /* \"#utility.yul\":9528:9536   */\n      dup2\n        /* \"#utility.yul\":9524:9568   */\n      add\n        /* \"#utility.yul\":9721:9723   */\n      0x20\n        /* \"#utility.yul\":9709:9719   */\n      dup6\n        /* \"#utility.yul\":9706:9724   */\n      lt\n        /* \"#utility.yul\":9703:9752   */\n      iszero\n      tag_198\n      jumpi\n        /* \"#utility.yul\":9742:9750   */\n      dup2\n        /* \"#utility.yul\":9727:9750   */\n      swap1\n      pop\n        /* \"#utility.yul\":9703:9752   */\n    tag_198:\n        /* \"#utility.yul\":9765:9845   */\n      tag_199\n        /* \"#utility.yul\":9821:9843   */\n      tag_200\n        /* \"#utility.yul\":9839:9842   */\n      dup6\n        /* \"#utility.yul\":9821:9843   */\n      tag_76\n      jump\t// in\n    tag_200:\n        /* \"#utility.yul\":9811:9819   */\n      dup4\n        /* \"#utility.yul\":9807:9844   */\n      add\n        /* \"#utility.yul\":9794:9805   */\n      dup3\n        /* \"#utility.yul\":9765:9845   */\n      tag_85\n      jump\t// in\n    tag_199:\n        /* \"#utility.yul\":9424:9855   */\n      pop\n      pop\n        /* \"#utility.yul\":9409:9855   */\n    tag_195:\n        /* \"#utility.yul\":9319:9862   */\n      pop\n      pop\n      pop\n      jump\t// out\n        /* \"#utility.yul\":9868:9985   */\n    tag_87:\n        /* \"#utility.yul\":9922:9930   */\n      0x00\n        /* \"#utility.yul\":9972:9977   */\n      dup3\n        /* \"#utility.yul\":9966:9970   */\n      dup3\n        /* \"#utility.yul\":9962:9978   */\n      shr\n        /* \"#utility.yul\":9941:9978   */\n      swap1\n      pop\n        /* \"#utility.yul\":9868:9985   */\n      swap3\n      swap2\n      pop\n      pop\n      jump\t// out\n        /* \"#utility.yul\":9991:10160   */\n    tag_88:\n        /* \"#utility.yul\":10035:10041   */\n      0x00\n        /* \"#utility.yul\":10068:10119   */\n      tag_203\n        /* \"#utility.yul\":10116:10117   */\n      0x00\n        /* \"#utility.yul\":10112:10118   */\n      not\n        /* \"#utility.yul\":10104:10109   */\n      dup5\n        /* \"#utility.yul\":10101:10102   */\n      0x08\n        /* \"#utility.yul\":10097:10110   */\n      mul\n        /* \"#utility.yul\":10068:10119   */\n      tag_87\n      jump\t// in\n    tag_203:\n        /* \"#utility.yul\":10064:10120   */\n      not\n        /* \"#utility.yul\":10149:10153   */\n      dup1\n        /* \"#utility.yul\":10143:10147   */\n      dup4\n        /* \"#utility.yul\":10139:10154   */\n      and\n        /* \"#utility.yul\":10129:10154   */\n      swap2\n      pop\n        /* \"#utility.yul\":10042:10160   */\n      pop\n        /* \"#utility.yul\":9991:10160   */\n      swap3\n      swap2\n      pop\n      pop\n      jump\t// out\n        /* \"#utility.yul\":10165:10460   */\n    tag_89:\n        /* \"#utility.yul\":10241:10245   */\n      0x00\n        /* \"#utility.yul\":10387:10416   */\n      tag_205\n        /* \"#utility.yul\":10412:10415   */\n      dup4\n        /* \"#utility.yul\":10406:10410   */\n      dup4\n        /* \"#utility.yul\":10387:10416   */\n      tag_88\n      jump\t// in\n    tag_205:\n        /* \"#utility.yul\":10379:10416   */\n      swap2\n      pop\n        /* \"#utility.yul\":10449:10452   */\n      dup3\n        /* \"#utility.yul\":10446:10447   */\n      0x02\n        /* \"#utility.yul\":10442:10453   */\n      mul\n        /* \"#utility.yul\":10436:10440   */\n      dup3\n        /* \"#utility.yul\":10433:10454   */\n      or\n        /* \"#utility.yul\":10425:10454   */\n      swap1\n      pop\n        /* \"#utility.yul\":10165:10460   */\n      swap3\n      swap2\n      pop\n      pop\n      jump\t// out\n        /* \"#utility.yul\":10465:11860   */\n    tag_50:\n        /* \"#utility.yul\":10582:10619   */\n      tag_207\n        /* \"#utility.yul\":10615:10618   */\n      dup3\n        /* \"#utility.yul\":10582:10619   */\n      tag_58\n      jump\t// in\n    tag_207:\n        /* \"#utility.yul\":10684:10702   */\n      0xffffffffffffffff\n        /* \"#utility.yul\":10676:10682   */\n      dup2\n        /* \"#utility.yul\":10673:10703   */\n      gt\n        /* \"#utility.yul\":10670:10726   */\n      iszero\n      tag_208\n      jumpi\n        /* \"#utility.yul\":10706:10724   */\n      tag_209\n      tag_65\n      jump\t// in\n    tag_209:\n        /* \"#utility.yul\":10670:10726   */\n    tag_208:\n        /* \"#utility.yul\":10750:10788   */\n      tag_210\n        /* \"#utility.yul\":10782:10786   */\n      dup3\n        /* \"#utility.yul\":10776:10787   */\n      sload\n        /* \"#utility.yul\":10750:10788   */\n      tag_28\n      jump\t// in\n    tag_210:\n        /* \"#utility.yul\":10835:10902   */\n      tag_211\n        /* \"#utility.yul\":10895:10901   */\n      dup3\n        /* \"#utility.yul\":10887:10893   */\n      dup3\n        /* \"#utility.yul\":10881:10885   */\n      dup6\n        /* \"#utility.yul\":10835:10902   */\n      tag_86\n      jump\t// in\n    tag_211:\n        /* \"#utility.yul\":10929:10930   */\n      0x00\n        /* \"#utility.yul\":10953:10957   */\n      0x20\n        /* \"#utility.yul\":10940:10957   */\n      swap1\n      pop\n        /* \"#utility.yul\":10985:10987   */\n      0x1f\n        /* \"#utility.yul\":10977:10983   */\n      dup4\n        /* \"#utility.yul\":10974:10988   */\n      gt\n        /* \"#utility.yul\":11002:11003   */\n      0x01\n        /* \"#utility.yul\":10997:11615   */\n      dup2\n      eq\n      tag_213\n      jumpi\n        /* \"#utility.yul\":11659:11660   */\n      0x00\n        /* \"#utility.yul\":11676:11682   */\n      dup5\n        /* \"#utility.yul\":11673:11750   */\n      iszero\n      tag_214\n      jumpi\n        /* \"#utility.yul\":11725:11734   */\n      dup3\n        /* \"#utility.yul\":11720:11723   */\n      dup8\n        /* \"#utility.yul\":11716:11735   */\n      add\n        /* \"#utility.yul\":11710:11736   */\n      mload\n        /* \"#utility.yul\":11701:11736   */\n      swap1\n      pop\n        /* \"#utility.yul\":11673:11750   */\n    tag_214:\n        /* \"#utility.yul\":11776:11843   */\n      tag_215\n        /* \"#utility.yul\":11836:11842   */\n      dup6\n        /* \"#utility.yul\":11829:11834   */\n      dup3\n        /* \"#utility.yul\":11776:11843   */\n      tag_89\n      jump\t// in\n    tag_215:\n        /* \"#utility.yul\":11770:11774   */\n      dup7\n        /* \"#utility.yul\":11763:11844   */\n      sstore\n        /* \"#utility.yul\":11632:11854   */\n      pop\n        /* \"#utility.yul\":10967:11854   */\n      jump(tag_212)\n        /* \"#utility.yul\":10997:11615   */\n    tag_213:\n        /* \"#utility.yul\":11049:11053   */\n      0x1f\n        /* \"#utility.yul\":11045:11054   */\n      not\n        /* \"#utility.yul\":11037:11043   */\n      dup5\n        /* \"#utility.yul\":11033:11055   */\n      and\n        /* \"#utility.yul\":11083:11120   */\n      tag_216\n        /* \"#utility.yul\":11115:11119   */\n      dup7\n        /* \"#utility.yul\":11083:11120   */\n      tag_75\n      jump\t// in\n    tag_216:\n        /* \"#utility.yul\":11142:11143   */\n      0x00\n        /* \"#utility.yul\":11156:11364   */\n    tag_217:\n        /* \"#utility.yul\":11170:11177   */\n      dup3\n        /* \"#utility.yul\":11167:11168   */\n      dup2\n        /* \"#utility.yul\":11164:11178   */\n      lt\n        /* \"#utility.yul\":11156:11364   */\n      iszero\n      tag_219\n      jumpi\n        /* \"#utility.yul\":11249:11258   */\n      dup5\n        /* \"#utility.yul\":11244:11247   */\n      dup10\n        /* \"#utility.yul\":11240:11259   */\n      add\n        /* \"#utility.yul\":11234:11260   */\n      mload\n        /* \"#utility.yul\":11226:11232   */\n      dup3\n        /* \"#utility.yul\":11219:11261   */\n      sstore\n        /* \"#utility.yul\":11300:11301   */\n      0x01\n        /* \"#utility.yul\":11292:11298   */\n      dup3\n        /* \"#utility.yul\":11288:11302   */\n      add\n        /* \"#utility.yul\":11278:11302   */\n      swap2\n      pop\n        /* \"#utility.yul\":11347:11349   */\n      0x20\n        /* \"#utility.yul\":11336:11345   */\n      dup6\n        /* \"#utility.yul\":11332:11350   */\n      add\n        /* \"#utility.yul\":11319:11350   */\n      swap5\n      pop\n        /* \"#utility.yul\":11193:11197   */\n      0x20\n        /* \"#utility.yul\":11190:11191   */\n      dup2\n        /* \"#utility.yul\":11186:11198   */\n      add\n        /* \"#utility.yul\":11181:11198   */\n      swap1\n      pop\n        /* \"#utility.yul\":11156:11364   */\n      jump(tag_217)\n    tag_219:\n        /* \"#utility.yul\":11392:11398   */\n      dup7\n        /* \"#utility.yul\":11383:11390   */\n      dup4\n        /* \"#utility.yul\":11380:11399   */\n      lt\n        /* \"#utility.yul\":11377:11556   */\n      iszero\n      tag_220\n      jumpi\n        /* \"#utility.yul\":11450:11459   */\n      dup5\n        /* \"#utility.yul\":11445:11448   */\n      dup10\n        /* \"#utility.yul\":11441:11460   */\n      add\n        /* \"#utility.yul\":11435:11461   */\n      mload\n        /* \"#utility.yul\":11493:11541   */\n      tag_221\n        /* \"#utility.yul\":11535:11539   */\n      0x1f\n        /* \"#utility.yul\":11527:11533   */\n      dup10\n        /* \"#utility.yul\":11523:11540   */\n      and\n        /* \"#utility.yul\":11512:11521   */\n      dup3\n        /* \"#utility.yul\":11493:11541   */\n      tag_88\n      jump\t// in\n    tag_221:\n        /* \"#utility.yul\":11485:11491   */\n      dup4\n        /* \"#utility.yul\":11478:11542   */\n      sstore\n        /* \"#utility.yul\":11400:11556   */\n      pop\n        /* \"#utility.yul\":11377:11556   */\n    tag_220:\n        /* \"#utility.yul\":11602:11603   */\n      0x01\n        /* \"#utility.yul\":11598:11599   */\n      0x02\n        /* \"#utility.yul\":11590:11596   */\n      dup9\n        /* \"#utility.yul\":11586:11600   */\n      mul\n        /* \"#utility.yul\":11582:11604   */\n      add\n        /* \"#utility.yul\":11576:11580   */\n      dup9\n        /* \"#utility.yul\":11569:11605   */\n      sstore\n        /* \"#utility.yul\":11004:11615   */\n      pop\n      pop\n      pop\n        /* \"#utility.yul\":10967:11854   */\n    tag_212:\n      pop\n        /* \"#utility.yul\":10557:11860   */\n      pop\n      pop\n      pop\n        /* \"#utility.yul\":10465:11860   */\n      pop\n      pop\n      jump\t// out\n\n    auxdata: 0xa264697066735822122029c1ca1cc1f54fb785098d71c197f005640e8c2f5c0024309e6ffa57f7df0f8764736f6c63430008120033\n}\n",
				"bytecode": {
					"linkReferences": {},
					"object": "608060405234801561001057600080fd5b50610a3b806100206000396000f3fe608060405234801561001057600080fd5b506004361061004c5760003560e01c806306ead22e1461005157806341e0c40714610083578063642f9163146100a1578063c1bea1db146100d3575b600080fd5b61006b600480360381019061006691906103c3565b6100ef565b60405161007a9392919061048f565b60405180910390f35b61008b6101b1565b60405161009891906104cd565b60405180910390f35b6100bb60048036038101906100b691906103c3565b6101bd565b6040516100ca9392919061048f565b60405180910390f35b6100ed60048036038101906100e8919061061d565b6102fc565b005b600081815481106100ff57600080fd5b9060005260206000209060030201600091509050806000015490806001018054610128906106bb565b80601f0160208091040260200160405190810160405280929190818152602001828054610154906106bb565b80156101a15780601f10610176576101008083540402835291602001916101a1565b820191906000526020600020905b81548152906001019060200180831161018457829003601f168201915b5050505050908060020154905083565b60008080549050905090565b60006060600080805490508410610209576040517f08c379a000000000000000000000000000000000000000000000000000000000815260040161020090610738565b60405180910390fd5b600080858154811061021e5761021d610758565b5b906000526020600020906003020160405180606001604052908160008201548152602001600182018054610251906106bb565b80601f016020809104026020016040519081016040528092919081815260200182805461027d906106bb565b80156102ca5780601f1061029f576101008083540402835291602001916102ca565b820191906000526020600020905b8154815290600101906020018083116102ad57829003601f168201915b505050505081526020016002820154815250509050806000015181602001518260400151935093509350509193909250565b6000604051806060016040528085815260200184815260200183815250905060008190806001815401808255809150506001900390600052602060002090600302016000909190919091506000820151816000015560208201518160010190816103669190610933565b5060408201518160020155505050505050565b6000604051905090565b600080fd5b600080fd5b6000819050919050565b6103a08161038d565b81146103ab57600080fd5b50565b6000813590506103bd81610397565b92915050565b6000602082840312156103d9576103d8610383565b5b60006103e7848285016103ae565b91505092915050565b6103f98161038d565b82525050565b600081519050919050565b600082825260208201905092915050565b60005b8381101561043957808201518184015260208101905061041e565b60008484015250505050565b6000601f19601f8301169050919050565b6000610461826103ff565b61046b818561040a565b935061047b81856020860161041b565b61048481610445565b840191505092915050565b60006060820190506104a460008301866103f0565b81810360208301526104b68185610456565b90506104c560408301846103f0565b949350505050565b60006020820190506104e260008301846103f0565b92915050565b600080fd5b600080fd5b7f4e487b7100000000000000000000000000000000000000000000000000000000600052604160045260246000fd5b61052a82610445565b810181811067ffffffffffffffff82111715610549576105486104f2565b5b80604052505050565b600061055c610379565b90506105688282610521565b919050565b600067ffffffffffffffff821115610588576105876104f2565b5b61059182610445565b9050602081019050919050565b82818337600083830152505050565b60006105c06105bb8461056d565b610552565b9050828152602081018484840111156105dc576105db6104ed565b5b6105e784828561059e565b509392505050565b600082601f830112610604576106036104e8565b5b81356106148482602086016105ad565b91505092915050565b60008060006060848603121561063657610635610383565b5b6000610644868287016103ae565b935050602084013567ffffffffffffffff81111561066557610664610388565b5b610671868287016105ef565b9250506040610682868287016103ae565b9150509250925092565b7f4e487b7100000000000000000000000000000000000000000000000000000000600052602260045260246000fd5b600060028204905060018216806106d357607f821691505b6020821081036106e6576106e561068c565b5b50919050565b7f496e646578206f7574206f6620626f756e647300000000000000000000000000600082015250565b600061072260138361040a565b915061072d826106ec565b602082019050919050565b6000602082019050818103600083015261075181610715565b9050919050565b7f4e487b7100000000000000000000000000000000000000000000000000000000600052603260045260246000fd5b60008190508160005260206000209050919050565b60006020601f8301049050919050565b600082821b905092915050565b6000600883026107e97fffffffffffffffffffffffffffffffffffffffffffffffffffffffffffffffff826107ac565b6107f386836107ac565b95508019841693508086168417925050509392505050565b6000819050919050565b600061083061082b6108268461038d565b61080b565b61038d565b9050919050565b6000819050919050565b61084a83610815565b61085e61085682610837565b8484546107b9565b825550505050565b600090565b610873610866565b61087e818484610841565b505050565b5b818110156108a25761089760008261086b565b600181019050610884565b5050565b601f8211156108e7576108b881610787565b6108c18461079c565b810160208510156108d0578190505b6108e46108dc8561079c565b830182610883565b50505b505050565b600082821c905092915050565b600061090a600019846008026108ec565b1980831691505092915050565b600061092383836108f9565b9150826002028217905092915050565b61093c826103ff565b67ffffffffffffffff811115610955576109546104f2565b5b61095f82546106bb565b61096a8282856108a6565b600060209050601f83116001811461099d576000841561098b578287015190505b6109958582610917565b8655506109fd565b601f1984166109ab86610787565b60005b828110156109d3578489015182556001820191506020850194506020810190506109ae565b868310156109f057848901516109ec601f8916826108f9565b8355505b6001600288020188555050505b50505050505056fea264697066735822122029c1ca1cc1f54fb785098d71c197f005640e8c2f5c0024309e6ffa57f7df0f8764736f6c63430008120033",
					"opcodes": "PUSH1 0x80 PUSH1 0x40 MSTORE CALLVALUE DUP1 ISZERO PUSH2 0x10 JUMPI PUSH1 0x0 DUP1 REVERT JUMPDEST POP PUSH2 0xA3B DUP1 PUSH2 0x20 PUSH1 0x0 CODECOPY PUSH1 0x0 RETURN INVALID PUSH1 0x80 PUSH1 0x40 MSTORE CALLVALUE DUP1 ISZERO PUSH2 0x10 JUMPI PUSH1 0x0 DUP1 REVERT JUMPDEST POP PUSH1 0x4 CALLDATASIZE LT PUSH2 0x4C JUMPI PUSH1 0x0 CALLDATALOAD PUSH1 0xE0 SHR DUP1 PUSH4 0x6EAD22E EQ PUSH2 0x51 JUMPI DUP1 PUSH4 0x41E0C407 EQ PUSH2 0x83 JUMPI DUP1 PUSH4 0x642F9163 EQ PUSH2 0xA1 JUMPI DUP1 PUSH4 0xC1BEA1DB EQ PUSH2 0xD3 JUMPI JUMPDEST PUSH1 0x0 DUP1 REVERT JUMPDEST PUSH2 0x6B PUSH1 0x4 DUP1 CALLDATASIZE SUB DUP2 ADD SWAP1 PUSH2 0x66 SWAP2 SWAP1 PUSH2 0x3C3 JUMP JUMPDEST PUSH2 0xEF JUMP JUMPDEST PUSH1 0x40 MLOAD PUSH2 0x7A SWAP4 SWAP3 SWAP2 SWAP1 PUSH2 0x48F JUMP JUMPDEST PUSH1 0x40 MLOAD DUP1 SWAP2 SUB SWAP1 RETURN JUMPDEST PUSH2 0x8B PUSH2 0x1B1 JUMP JUMPDEST PUSH1 0x40 MLOAD PUSH2 0x98 SWAP2 SWAP1 PUSH2 0x4CD JUMP JUMPDEST PUSH1 0x40 MLOAD DUP1 SWAP2 SUB SWAP1 RETURN JUMPDEST PUSH2 0xBB PUSH1 0x4 DUP1 CALLDATASIZE SUB DUP2 ADD SWAP1 PUSH2 0xB6 SWAP2 SWAP1 PUSH2 0x3C3 JUMP JUMPDEST PUSH2 0x1BD JUMP JUMPDEST PUSH1 0x40 MLOAD PUSH2 0xCA SWAP4 SWAP3 SWAP2 SWAP1 PUSH2 0x48F JUMP JUMPDEST PUSH1 0x40 MLOAD DUP1 SWAP2 SUB SWAP1 RETURN JUMPDEST PUSH2 0xED PUSH1 0x4 DUP1 CALLDATASIZE SUB DUP2 ADD SWAP1 PUSH2 0xE8 SWAP2 SWAP1 PUSH2 0x61D JUMP JUMPDEST PUSH2 0x2FC JUMP JUMPDEST STOP JUMPDEST PUSH1 0x0 DUP2 DUP2 SLOAD DUP2 LT PUSH2 0xFF JUMPI PUSH1 0x0 DUP1 REVERT JUMPDEST SWAP1 PUSH1 0x0 MSTORE PUSH1 0x20 PUSH1 0x0 KECCAK256 SWAP1 PUSH1 0x3 MUL ADD PUSH1 0x0 SWAP2 POP SWAP1 POP DUP1 PUSH1 0x0 ADD SLOAD SWAP1 DUP1 PUSH1 0x1 ADD DUP1 SLOAD PUSH2 0x128 SWAP1 PUSH2 0x6BB JUMP JUMPDEST DUP1 PUSH1 0x1F ADD PUSH1 0x20 DUP1 SWAP2 DIV MUL PUSH1 0x20 ADD PUSH1 0x40 MLOAD SWAP1 DUP2 ADD PUSH1 0x40 MSTORE DUP1 SWAP3 SWAP2 SWAP1 DUP2 DUP2 MSTORE PUSH1 0x20 ADD DUP3 DUP1 SLOAD PUSH2 0x154 SWAP1 PUSH2 0x6BB JUMP JUMPDEST DUP1 ISZERO PUSH2 0x1A1 JUMPI DUP1 PUSH1 0x1F LT PUSH2 0x176 JUMPI PUSH2 0x100 DUP1 DUP4 SLOAD DIV MUL DUP4 MSTORE SWAP2 PUSH1 0x20 ADD SWAP2 PUSH2 0x1A1 JUMP JUMPDEST DUP3 ADD SWAP2 SWAP1 PUSH1 0x0 MSTORE PUSH1 0x20 PUSH1 0x0 KECCAK256 SWAP1 JUMPDEST DUP2 SLOAD DUP2 MSTORE SWAP1 PUSH1 0x1 ADD SWAP1 PUSH1 0x20 ADD DUP1 DUP4 GT PUSH2 0x184 JUMPI DUP3 SWAP1 SUB PUSH1 0x1F AND DUP3 ADD SWAP2 JUMPDEST POP POP POP POP POP SWAP1 DUP1 PUSH1 0x2 ADD SLOAD SWAP1 POP DUP4 JUMP JUMPDEST PUSH1 0x0 DUP1 DUP1 SLOAD SWAP1 POP SWAP1 POP SWAP1 JUMP JUMPDEST PUSH1 0x0 PUSH1 0x60 PUSH1 0x0 DUP1 DUP1 SLOAD SWAP1 POP DUP5 LT PUSH2 0x209 JUMPI PUSH1 0x40 MLOAD PUSH32 0x8C379A000000000000000000000000000000000000000000000000000000000 DUP2 MSTORE PUSH1 0x4 ADD PUSH2 0x200 SWAP1 PUSH2 0x738 JUMP JUMPDEST PUSH1 0x40 MLOAD DUP1 SWAP2 SUB SWAP1 REVERT JUMPDEST PUSH1 0x0 DUP1 DUP6 DUP2 SLOAD DUP2 LT PUSH2 0x21E JUMPI PUSH2 0x21D PUSH2 0x758 JUMP JUMPDEST JUMPDEST SWAP1 PUSH1 0x0 MSTORE PUSH1 0x20 PUSH1 0x0 KECCAK256 SWAP1 PUSH1 0x3 MUL ADD PUSH1 0x40 MLOAD DUP1 PUSH1 0x60 ADD PUSH1 0x40 MSTORE SWAP1 DUP2 PUSH1 0x0 DUP3 ADD SLOAD DUP2 MSTORE PUSH1 0x20 ADD PUSH1 0x1 DUP3 ADD DUP1 SLOAD PUSH2 0x251 SWAP1 PUSH2 0x6BB JUMP JUMPDEST DUP1 PUSH1 0x1F ADD PUSH1 0x20 DUP1 SWAP2 DIV MUL PUSH1 0x20 ADD PUSH1 0x40 MLOAD SWAP1 DUP2 ADD PUSH1 0x40 MSTORE DUP1 SWAP3 SWAP2 SWAP1 DUP2 DUP2 MSTORE PUSH1 0x20 ADD DUP3 DUP1 SLOAD PUSH2 0x27D SWAP1 PUSH2 0x6BB JUMP JUMPDEST DUP1 ISZERO PUSH2 0x2CA JUMPI DUP1 PUSH1 0x1F LT PUSH2 0x29F JUMPI PUSH2 0x100 DUP1 DUP4 SLOAD DIV MUL DUP4 MSTORE SWAP2 PUSH1 0x20 ADD SWAP2 PUSH2 0x2CA JUMP JUMPDEST DUP3 ADD SWAP2 SWAP1 PUSH1 0x0 MSTORE PUSH1 0x20 PUSH1 0x0 KECCAK256 SWAP1 JUMPDEST DUP2 SLOAD DUP2 MSTORE SWAP1 PUSH1 0x1 ADD SWAP1 PUSH1 0x20 ADD DUP1 DUP4 GT PUSH2 0x2AD JUMPI DUP3 SWAP1 SUB PUSH1 0x1F AND DUP3 ADD SWAP2 JUMPDEST POP POP POP POP POP DUP2 MSTORE PUSH1 0x20 ADD PUSH1 0x2 DUP3 ADD SLOAD DUP2 MSTORE POP POP SWAP1 POP DUP1 PUSH1 0x0 ADD MLOAD DUP2 PUSH1 0x20 ADD MLOAD DUP3 PUSH1 0x40 ADD MLOAD SWAP4 POP SWAP4 POP SWAP4 POP POP SWAP2 SWAP4 SWAP1 SWAP3 POP JUMP JUMPDEST PUSH1 0x0 PUSH1 0x40 MLOAD DUP1 PUSH1 0x60 ADD PUSH1 0x40 MSTORE DUP1 DUP6 DUP2 MSTORE PUSH1 0x20 ADD DUP5 DUP2 MSTORE PUSH1 0x20 ADD DUP4 DUP2 MSTORE POP SWAP1 POP PUSH1 0x0 DUP2 SWAP1 DUP1 PUSH1 0x1 DUP2 SLOAD ADD DUP1 DUP3 SSTORE DUP1 SWAP2 POP POP PUSH1 0x1 SWAP1 SUB SWAP1 PUSH1 0x0 MSTORE PUSH1 0x20 PUSH1 0x0 KECCAK256 SWAP1 PUSH1 0x3 MUL ADD PUSH1 0x0 SWAP1 SWAP2 SWAP1 SWAP2 SWAP1 SWAP2 POP PUSH1 0x0 DUP3 ADD MLOAD DUP2 PUSH1 0x0 ADD SSTORE PUSH1 0x20 DUP3 ADD MLOAD DUP2 PUSH1 0x1 ADD SWAP1 DUP2 PUSH2 0x366 SWAP2 SWAP1 PUSH2 0x933 JUMP JUMPDEST POP PUSH1 0x40 DUP3 ADD MLOAD DUP2 PUSH1 0x2 ADD SSTORE POP POP POP POP POP POP JUMP JUMPDEST PUSH1 0x0 PUSH1 0x40 MLOAD SWAP1 POP SWAP1 JUMP JUMPDEST PUSH1 0x0 DUP1 REVERT JUMPDEST PUSH1 0x0 DUP1 REVERT JUMPDEST PUSH1 0x0 DUP2 SWAP1 POP SWAP2 SWAP1 POP JUMP JUMPDEST PUSH2 0x3A0 DUP2 PUSH2 0x38D JUMP JUMPDEST DUP2 EQ PUSH2 0x3AB JUMPI PUSH1 0x0 DUP1 REVERT JUMPDEST POP JUMP JUMPDEST PUSH1 0x0 DUP2 CALLDATALOAD SWAP1 POP PUSH2 0x3BD DUP2 PUSH2 0x397 JUMP JUMPDEST SWAP3 SWAP2 POP POP JUMP JUMPDEST PUSH1 0x0 PUSH1 0x20 DUP3 DUP5 SUB SLT ISZERO PUSH2 0x3D9 JUMPI PUSH2 0x3D8 PUSH2 0x383 JUMP JUMPDEST JUMPDEST PUSH1 0x0 PUSH2 0x3E7 DUP5 DUP3 DUP6 ADD PUSH2 0x3AE JUMP JUMPDEST SWAP2 POP POP SWAP3 SWAP2 POP POP JUMP JUMPDEST PUSH2 0x3F9 DUP2 PUSH2 0x38D JUMP JUMPDEST DUP3 MSTORE POP POP JUMP JUMPDEST PUSH1 0x0 DUP2 MLOAD SWAP1 POP SWAP2 SWAP1 POP JUMP JUMPDEST PUSH1 0x0 DUP3 DUP3 MSTORE PUSH1 0x20 DUP3 ADD SWAP1 POP SWAP3 SWAP2 POP POP JUMP JUMPDEST PUSH1 0x0 JUMPDEST DUP4 DUP2 LT ISZERO PUSH2 0x439 JUMPI DUP1 DUP3 ADD MLOAD DUP2 DUP5 ADD MSTORE PUSH1 0x20 DUP2 ADD SWAP1 POP PUSH2 0x41E JUMP JUMPDEST PUSH1 0x0 DUP5 DUP5 ADD MSTORE POP POP POP POP JUMP JUMPDEST PUSH1 0x0 PUSH1 0x1F NOT PUSH1 0x1F DUP4 ADD AND SWAP1 POP SWAP2 SWAP1 POP JUMP JUMPDEST PUSH1 0x0 PUSH2 0x461 DUP3 PUSH2 0x3FF JUMP JUMPDEST PUSH2 0x46B DUP2 DUP6 PUSH2 0x40A JUMP JUMPDEST SWAP4 POP PUSH2 0x47B DUP2 DUP6 PUSH1 0x20 DUP7 ADD PUSH2 0x41B JUMP JUMPDEST PUSH2 0x484 DUP2 PUSH2 0x445 JUMP JUMPDEST DUP5 ADD SWAP2 POP POP SWAP3 SWAP2 POP POP JUMP JUMPDEST PUSH1 0x0 PUSH1 0x60 DUP3 ADD SWAP1 POP PUSH2 0x4A4 PUSH1 0x0 DUP4 ADD DUP7 PUSH2 0x3F0 JUMP JUMPDEST DUP2 DUP2 SUB PUSH1 0x20 DUP4 ADD MSTORE PUSH2 0x4B6 DUP2 DUP6 PUSH2 0x456 JUMP JUMPDEST SWAP1 POP PUSH2 0x4C5 PUSH1 0x40 DUP4 ADD DUP5 PUSH2 0x3F0 JUMP JUMPDEST SWAP5 SWAP4 POP POP POP POP JUMP JUMPDEST PUSH1 0x0 PUSH1 0x20 DUP3 ADD SWAP1 POP PUSH2 0x4E2 PUSH1 0x0 DUP4 ADD DUP5 PUSH2 0x3F0 JUMP JUMPDEST SWAP3 SWAP2 POP POP JUMP JUMPDEST PUSH1 0x0 DUP1 REVERT JUMPDEST PUSH1 0x0 DUP1 REVERT JUMPDEST PUSH32 0x4E487B7100000000000000000000000000000000000000000000000000000000 PUSH1 0x0 MSTORE PUSH1 0x41 PUSH1 0x4 MSTORE PUSH1 0x24 PUSH1 0x0 REVERT JUMPDEST PUSH2 0x52A DUP3 PUSH2 0x445 JUMP JUMPDEST DUP2 ADD DUP2 DUP2 LT PUSH8 0xFFFFFFFFFFFFFFFF DUP3 GT OR ISZERO PUSH2 0x549 JUMPI PUSH2 0x548 PUSH2 0x4F2 JUMP JUMPDEST JUMPDEST DUP1 PUSH1 0x40 MSTORE POP POP POP JUMP JUMPDEST PUSH1 0x0 PUSH2 0x55C PUSH2 0x379 JUMP JUMPDEST SWAP1 POP PUSH2 0x568 DUP3 DUP3 PUSH2 0x521 JUMP JUMPDEST SWAP2 SWAP1 POP JUMP JUMPDEST PUSH1 0x0 PUSH8 0xFFFFFFFFFFFFFFFF DUP3 GT ISZERO PUSH2 0x588 JUMPI PUSH2 0x587 PUSH2 0x4F2 JUMP JUMPDEST JUMPDEST PUSH2 0x591 DUP3 PUSH2 0x445 JUMP JUMPDEST SWAP1 POP PUSH1 0x20 DUP2 ADD SWAP1 POP SWAP2 SWAP1 POP JUMP JUMPDEST DUP3 DUP2 DUP4 CALLDATACOPY PUSH1 0x0 DUP4 DUP4 ADD MSTORE POP POP POP JUMP JUMPDEST PUSH1 0x0 PUSH2 0x5C0 PUSH2 0x5BB DUP5 PUSH2 0x56D JUMP JUMPDEST PUSH2 0x552 JUMP JUMPDEST SWAP1 POP DUP3 DUP2 MSTORE PUSH1 0x20 DUP2 ADD DUP5 DUP5 DUP5 ADD GT ISZERO PUSH2 0x5DC JUMPI PUSH2 0x5DB PUSH2 0x4ED JUMP JUMPDEST JUMPDEST PUSH2 0x5E7 DUP5 DUP3 DUP6 PUSH2 0x59E JUMP JUMPDEST POP SWAP4 SWAP3 POP POP POP JUMP JUMPDEST PUSH1 0x0 DUP3 PUSH1 0x1F DUP4 ADD SLT PUSH2 0x604 JUMPI PUSH2 0x603 PUSH2 0x4E8 JUMP JUMPDEST JUMPDEST DUP2 CALLDATALOAD PUSH2 0x614 DUP5 DUP3 PUSH1 0x20 DUP7 ADD PUSH2 0x5AD JUMP JUMPDEST SWAP2 POP POP SWAP3 SWAP2 POP POP JUMP JUMPDEST PUSH1 0x0 DUP1 PUSH1 0x0 PUSH1 0x60 DUP5 DUP7 SUB SLT ISZERO PUSH2 0x636 JUMPI PUSH2 0x635 PUSH2 0x383 JUMP JUMPDEST JUMPDEST PUSH1 0x0 PUSH2 0x644 DUP7 DUP3 DUP8 ADD PUSH2 0x3AE JUMP JUMPDEST SWAP4 POP POP PUSH1 0x20 DUP5 ADD CALLDATALOAD PUSH8 0xFFFFFFFFFFFFFFFF DUP2 GT ISZERO PUSH2 0x665 JUMPI PUSH2 0x664 PUSH2 0x388 JUMP JUMPDEST JUMPDEST PUSH2 0x671 DUP7 DUP3 DUP8 ADD PUSH2 0x5EF JUMP JUMPDEST SWAP3 POP POP PUSH1 0x40 PUSH2 0x682 DUP7 DUP3 DUP8 ADD PUSH2 0x3AE JUMP JUMPDEST SWAP2 POP POP SWAP3 POP SWAP3 POP SWAP3 JUMP JUMPDEST PUSH32 0x4E487B7100000000000000000000000000000000000000000000000000000000 PUSH1 0x0 MSTORE PUSH1 0x22 PUSH1 0x4 MSTORE PUSH1 0x24 PUSH1 0x0 REVERT JUMPDEST PUSH1 0x0 PUSH1 0x2 DUP3 DIV SWAP1 POP PUSH1 0x1 DUP3 AND DUP1 PUSH2 0x6D3 JUMPI PUSH1 0x7F DUP3 AND SWAP2 POP JUMPDEST PUSH1 0x20 DUP3 LT DUP2 SUB PUSH2 0x6E6 JUMPI PUSH2 0x6E5 PUSH2 0x68C JUMP JUMPDEST JUMPDEST POP SWAP2 SWAP1 POP JUMP JUMPDEST PUSH32 0x496E646578206F7574206F6620626F756E647300000000000000000000000000 PUSH1 0x0 DUP3 ADD MSTORE POP JUMP JUMPDEST PUSH1 0x0 PUSH2 0x722 PUSH1 0x13 DUP4 PUSH2 0x40A JUMP JUMPDEST SWAP2 POP PUSH2 0x72D DUP3 PUSH2 0x6EC JUMP JUMPDEST PUSH1 0x20 DUP3 ADD SWAP1 POP SWAP2 SWAP1 POP JUMP JUMPDEST PUSH1 0x0 PUSH1 0x20 DUP3 ADD SWAP1 POP DUP2 DUP2 SUB PUSH1 0x0 DUP4 ADD MSTORE PUSH2 0x751 DUP2 PUSH2 0x715 JUMP JUMPDEST SWAP1 POP SWAP2 SWAP1 POP JUMP JUMPDEST PUSH32 0x4E487B7100000000000000000000000000000000000000000000000000000000 PUSH1 0x0 MSTORE PUSH1 0x32 PUSH1 0x4 MSTORE PUSH1 0x24 PUSH1 0x0 REVERT JUMPDEST PUSH1 0x0 DUP2 SWAP1 POP DUP2 PUSH1 0x0 MSTORE PUSH1 0x20 PUSH1 0x0 KECCAK256 SWAP1 POP SWAP2 SWAP1 POP JUMP JUMPDEST PUSH1 0x0 PUSH1 0x20 PUSH1 0x1F DUP4 ADD DIV SWAP1 POP SWAP2 SWAP1 POP JUMP JUMPDEST PUSH1 0x0 DUP3 DUP3 SHL SWAP1 POP SWAP3 SWAP2 POP POP JUMP JUMPDEST PUSH1 0x0 PUSH1 0x8 DUP4 MUL PUSH2 0x7E9 PUSH32 0xFFFFFFFFFFFFFFFFFFFFFFFFFFFFFFFFFFFFFFFFFFFFFFFFFFFFFFFFFFFFFFFF DUP3 PUSH2 0x7AC JUMP JUMPDEST PUSH2 0x7F3 DUP7 DUP4 PUSH2 0x7AC JUMP JUMPDEST SWAP6 POP DUP1 NOT DUP5 AND SWAP4 POP DUP1 DUP7 AND DUP5 OR SWAP3 POP POP POP SWAP4 SWAP3 POP POP POP JUMP JUMPDEST PUSH1 0x0 DUP2 SWAP1 POP SWAP2 SWAP1 POP JUMP JUMPDEST PUSH1 0x0 PUSH2 0x830 PUSH2 0x82B PUSH2 0x826 DUP5 PUSH2 0x38D JUMP JUMPDEST PUSH2 0x80B JUMP JUMPDEST PUSH2 0x38D JUMP JUMPDEST SWAP1 POP SWAP2 SWAP1 POP JUMP JUMPDEST PUSH1 0x0 DUP2 SWAP1 POP SWAP2 SWAP1 POP JUMP JUMPDEST PUSH2 0x84A DUP4 PUSH2 0x815 JUMP JUMPDEST PUSH2 0x85E PUSH2 0x856 DUP3 PUSH2 0x837 JUMP JUMPDEST DUP5 DUP5 SLOAD PUSH2 0x7B9 JUMP JUMPDEST DUP3 SSTORE POP POP POP POP JUMP JUMPDEST PUSH1 0x0 SWAP1 JUMP JUMPDEST PUSH2 0x873 PUSH2 0x866 JUMP JUMPDEST PUSH2 0x87E DUP2 DUP5 DUP5 PUSH2 0x841 JUMP JUMPDEST POP POP POP JUMP JUMPDEST JUMPDEST DUP2 DUP2 LT ISZERO PUSH2 0x8A2 JUMPI PUSH2 0x897 PUSH1 0x0 DUP3 PUSH2 0x86B JUMP JUMPDEST PUSH1 0x1 DUP2 ADD SWAP1 POP PUSH2 0x884 JUMP JUMPDEST POP POP JUMP JUMPDEST PUSH1 0x1F DUP3 GT ISZERO PUSH2 0x8E7 JUMPI PUSH2 0x8B8 DUP2 PUSH2 0x787 JUMP JUMPDEST PUSH2 0x8C1 DUP5 PUSH2 0x79C JUMP JUMPDEST DUP2 ADD PUSH1 0x20 DUP6 LT ISZERO PUSH2 0x8D0 JUMPI DUP2 SWAP1 POP JUMPDEST PUSH2 0x8E4 PUSH2 0x8DC DUP6 PUSH2 0x79C JUMP JUMPDEST DUP4 ADD DUP3 PUSH2 0x883 JUMP JUMPDEST POP POP JUMPDEST POP POP POP JUMP JUMPDEST PUSH1 0x0 DUP3 DUP3 SHR SWAP1 POP SWAP3 SWAP2 POP POP JUMP JUMPDEST PUSH1 0x0 PUSH2 0x90A PUSH1 0x0 NOT DUP5 PUSH1 0x8 MUL PUSH2 0x8EC JUMP JUMPDEST NOT DUP1 DUP4 AND SWAP2 POP POP SWAP3 SWAP2 POP POP JUMP JUMPDEST PUSH1 0x0 PUSH2 0x923 DUP4 DUP4 PUSH2 0x8F9 JUMP JUMPDEST SWAP2 POP DUP3 PUSH1 0x2 MUL DUP3 OR SWAP1 POP SWAP3 SWAP2 POP POP JUMP JUMPDEST PUSH2 0x93C DUP3 PUSH2 0x3FF JUMP JUMPDEST PUSH8 0xFFFFFFFFFFFFFFFF DUP2 GT ISZERO PUSH2 0x955 JUMPI PUSH2 0x954 PUSH2 0x4F2 JUMP JUMPDEST JUMPDEST PUSH2 0x95F DUP3 SLOAD PUSH2 0x6BB JUMP JUMPDEST PUSH2 0x96A DUP3 DUP3 DUP6 PUSH2 0x8A6 JUMP JUMPDEST PUSH1 0x0 PUSH1 0x20 SWAP1 POP PUSH1 0x1F DUP4 GT PUSH1 0x1 DUP2 EQ PUSH2 0x99D JUMPI PUSH1 0x0 DUP5 ISZERO PUSH2 0x98B JUMPI DUP3 DUP8 ADD MLOAD SWAP1 POP JUMPDEST PUSH2 0x995 DUP6 DUP3 PUSH2 0x917 JUMP JUMPDEST DUP7 SSTORE POP PUSH2 0x9FD JUMP JUMPDEST PUSH1 0x1F NOT DUP5 AND PUSH2 0x9AB DUP7 PUSH2 0x787 JUMP JUMPDEST PUSH1 0x0 JUMPDEST DUP3 DUP2 LT ISZERO PUSH2 0x9D3 JUMPI DUP5 DUP10 ADD MLOAD DUP3 SSTORE PUSH1 0x1 DUP3 ADD SWAP2 POP PUSH1 0x20 DUP6 ADD SWAP5 POP PUSH1 0x20 DUP2 ADD SWAP1 POP PUSH2 0x9AE JUMP JUMPDEST DUP7 DUP4 LT ISZERO PUSH2 0x9F0 JUMPI DUP5 DUP10 ADD MLOAD PUSH2 0x9EC PUSH1 0x1F DUP10 AND DUP3 PUSH2 0x8F9 JUMP JUMPDEST DUP4 SSTORE POP JUMPDEST PUSH1 0x1 PUSH1 0x2 DUP9 MUL ADD DUP9 SSTORE POP POP POP JUMPDEST POP POP POP POP POP POP JUMP INVALID LOG2 PUSH5 0x6970667358 0x22 SLT KECCAK256 0x29 0xC1 0xCA SHR 0xC1 CREATE2 0x4F 0xB7 DUP6 MULMOD DUP14 PUSH18 0xC197F005640E8C2F5C0024309E6FFA57F7DF 0xF DUP8 PUSH5 0x736F6C6343 STOP ADDMOD SLT STOP CALLER "
				},
				"gasEstimates": {
					"creation": {
						"codeDepositCost": "523800",
						"executionCost": "556",
						"totalCost": "524356"
					},
					"external": {
						"addStudent(uint256,string,uint256)": "infinite",
						"getStudent(uint256)": "infinite",
						"getStudentCount()": "2445",
						"students(uint256)": "infinite"
					}
				},
				"methodIdentifiers": {
					"addStudent(uint256,string,uint256)": "c1bea1db",
					"getStudent(uint256)": "642f9163",
					"getStudentCount()": "41e0c407",
					"students(uint256)": "06ead22e"
				}
			},
			"storageLayout": {
				"storage": [
					{
						"astId": 12,
						"contract": "3studentgetdataatonetime.sol:StudentRegistry",
						"label": "students",
						"offset": 0,
						"slot": "0",
						"type": "t_array(t_struct(Student)8_storage)dyn_storage"
					}
				],
				"types": {
					"t_array(t_struct(Student)8_storage)dyn_storage": {
						"base": "t_struct(Student)8_storage",
						"encoding": "dynamic_array",
						"label": "struct StudentRegistry.Student[]",
						"numberOfBytes": "32"
					},
					"t_string_storage": {
						"encoding": "bytes",
						"label": "string",
						"numberOfBytes": "32"
					},
					"t_struct(Student)8_storage": {
						"encoding": "inplace",
						"label": "struct StudentRegistry.Student",
						"members": [
							{
								"astId": 3,
								"contract": "3studentgetdataatonetime.sol:StudentRegistry",
								"label": "studentId",
								"offset": 0,
								"slot": "0",
								"type": "t_uint256"
							},
							{
								"astId": 5,
								"contract": "3studentgetdataatonetime.sol:StudentRegistry",
								"label": "name",
								"offset": 0,
								"slot": "1",
								"type": "t_string_storage"
							},
							{
								"astId": 7,
								"contract": "3studentgetdataatonetime.sol:StudentRegistry",
								"label": "age",
								"offset": 0,
								"slot": "2",
								"type": "t_uint256"
							}
						],
						"numberOfBytes": "96"
					},
					"t_uint256": {
						"encoding": "inplace",
						"label": "uint256",
						"numberOfBytes": "32"
					}
				}
			},
			"userdoc": {
				"kind": "user",
				"methods": {},
				"version": 1
			}
		}
	}
}