{
	"arraymapingthroughthokenid.sol": {
		"StudentTokenization": {
			"abi": [
				{
					"inputs": [],
					"name": "getStudentTokenId",
					"outputs": [
						{
							"internalType": "bytes32",
							"name": "",
							"type": "bytes32"
						}
					],
					"stateMutability": "view",
					"type": "function"
				},
				{
					"inputs": [
						{
							"internalType": "address",
							"name": "",
							"type": "address"
						}
					],
					"name": "students",
					"outputs": [
						{
							"internalType": "string",
							"name": "name",
							"type": "string"
						},
						{
							"internalType": "uint256",
							"name": "age",
							"type": "uint256"
						},
						{
							"internalType": "string",
							"name": "grade",
							"type": "string"
						},
						{
							"internalType": "bytes32",
							"name": "tokenId",
							"type": "bytes32"
						}
					],
					"stateMutability": "view",
					"type": "function"
				},
				{
					"inputs": [
						{
							"internalType": "string",
							"name": "name",
							"type": "string"
						},
						{
							"internalType": "uint256",
							"name": "age",
							"type": "uint256"
						},
						{
							"internalType": "string",
							"name": "grade",
							"type": "string"
						}
					],
					"name": "tokenizeStudent",
					"outputs": [
						{
							"internalType": "bytes32",
							"name": "",
							"type": "bytes32"
						}
					],
					"stateMutability": "nonpayable",
					"type": "function"
				}
			],
			"devdoc": {
				"kind": "dev",
				"methods": {},
				"version": 1
			},
			"evm": {
				"assembly": "    /* \"arraymapingthroughthokenid.sol\":63:678  contract StudentTokenization {... */\n  mstore(0x40, 0x80)\n  callvalue\n  dup1\n  iszero\n  tag_1\n  jumpi\n  0x00\n  dup1\n  revert\ntag_1:\n  pop\n  dataSize(sub_0)\n  dup1\n  dataOffset(sub_0)\n  0x00\n  codecopy\n  0x00\n  return\nstop\n\nsub_0: assembly {\n        /* \"arraymapingthroughthokenid.sol\":63:678  contract StudentTokenization {... */\n      mstore(0x40, 0x80)\n      callvalue\n      dup1\n      iszero\n      tag_1\n      jumpi\n      0x00\n      dup1\n      revert\n    tag_1:\n      pop\n      jumpi(tag_2, lt(calldatasize, 0x04))\n      shr(0xe0, calldataload(0x00))\n      dup1\n      0x27d3282e\n      eq\n      tag_3\n      jumpi\n      dup1\n      0xa6c807a9\n      eq\n      tag_4\n      jumpi\n      dup1\n      0xf220c40e\n      eq\n      tag_5\n      jumpi\n    tag_2:\n      0x00\n      dup1\n      revert\n        /* \"arraymapingthroughthokenid.sol\":275:554  function tokenizeStudent(string memory name, uint256 age, string memory grade) public returns (bytes32) {... */\n    tag_3:\n      tag_6\n      0x04\n      dup1\n      calldatasize\n      sub\n      dup2\n      add\n      swap1\n      tag_7\n      swap2\n      swap1\n      tag_8\n      jump\t// in\n    tag_7:\n      tag_9\n      jump\t// in\n    tag_6:\n      mload(0x40)\n      tag_10\n      swap2\n      swap1\n      tag_11\n      jump\t// in\n    tag_10:\n      mload(0x40)\n      dup1\n      swap2\n      sub\n      swap1\n      return\n        /* \"arraymapingthroughthokenid.sol\":223:266  mapping(address => Student) public students */\n    tag_4:\n      tag_12\n      0x04\n      dup1\n      calldatasize\n      sub\n      dup2\n      add\n      swap1\n      tag_13\n      swap2\n      swap1\n      tag_14\n      jump\t// in\n    tag_13:\n      tag_15\n      jump\t// in\n    tag_12:\n      mload(0x40)\n      tag_16\n      swap5\n      swap4\n      swap3\n      swap2\n      swap1\n      tag_17\n      jump\t// in\n    tag_16:\n      mload(0x40)\n      dup1\n      swap2\n      sub\n      swap1\n      return\n        /* \"arraymapingthroughthokenid.sol\":562:675  function getStudentTokenId() public view returns (bytes32) {... */\n    tag_5:\n      tag_18\n      tag_19\n      jump\t// in\n    tag_18:\n      mload(0x40)\n      tag_20\n      swap2\n      swap1\n      tag_11\n      jump\t// in\n    tag_20:\n      mload(0x40)\n      dup1\n      swap2\n      sub\n      swap1\n      return\n        /* \"arraymapingthroughthokenid.sol\":275:554  function tokenizeStudent(string memory name, uint256 age, string memory grade) public returns (bytes32) {... */\n    tag_9:\n        /* \"arraymapingthroughthokenid.sol\":370:377  bytes32 */\n      0x00\n        /* \"arraymapingthroughthokenid.sol\":390:405  bytes32 tokenId */\n      dup1\n        /* \"arraymapingthroughthokenid.sol\":435:439  name */\n      dup5\n        /* \"arraymapingthroughthokenid.sol\":441:444  age */\n      dup5\n        /* \"arraymapingthroughthokenid.sol\":446:451  grade */\n      dup5\n        /* \"arraymapingthroughthokenid.sol\":418:452  abi.encodePacked(name, age, grade) */\n      add(0x20, mload(0x40))\n      tag_22\n      swap4\n      swap3\n      swap2\n      swap1\n      tag_23\n      jump\t// in\n    tag_22:\n      mload(0x40)\n      0x20\n      dup2\n      dup4\n      sub\n      sub\n      dup2\n      mstore\n      swap1\n      0x40\n      mstore\n        /* \"arraymapingthroughthokenid.sol\":408:453  keccak256(abi.encodePacked(name, age, grade)) */\n      dup1\n      mload\n      swap1\n      0x20\n      add\n      keccak256\n        /* \"arraymapingthroughthokenid.sol\":390:453  bytes32 tokenId = keccak256(abi.encodePacked(name, age, grade)) */\n      swap1\n      pop\n        /* \"arraymapingthroughthokenid.sol\":487:521  Student(name, age, grade, tokenId) */\n      mload(0x40)\n      dup1\n      0x80\n      add\n      0x40\n      mstore\n      dup1\n        /* \"arraymapingthroughthokenid.sol\":495:499  name */\n      dup7\n        /* \"arraymapingthroughthokenid.sol\":487:521  Student(name, age, grade, tokenId) */\n      dup2\n      mstore\n      0x20\n      add\n        /* \"arraymapingthroughthokenid.sol\":501:504  age */\n      dup6\n        /* \"arraymapingthroughthokenid.sol\":487:521  Student(name, age, grade, tokenId) */\n      dup2\n      mstore\n      0x20\n      add\n        /* \"arraymapingthroughthokenid.sol\":506:511  grade */\n      dup5\n        /* \"arraymapingthroughthokenid.sol\":487:521  Student(name, age, grade, tokenId) */\n      dup2\n      mstore\n      0x20\n      add\n        /* \"arraymapingthroughthokenid.sol\":513:520  tokenId */\n      dup3\n        /* \"arraymapingthroughthokenid.sol\":487:521  Student(name, age, grade, tokenId) */\n      dup2\n      mstore\n      pop\n        /* \"arraymapingthroughthokenid.sol\":464:472  students */\n      0x00\n        /* \"arraymapingthroughthokenid.sol\":464:484  students[msg.sender] */\n      dup1\n        /* \"arraymapingthroughthokenid.sol\":473:483  msg.sender */\n      caller\n        /* \"arraymapingthroughthokenid.sol\":464:484  students[msg.sender] */\n      0xffffffffffffffffffffffffffffffffffffffff\n      and\n      0xffffffffffffffffffffffffffffffffffffffff\n      and\n      dup2\n      mstore\n      0x20\n      add\n      swap1\n      dup2\n      mstore\n      0x20\n      add\n      0x00\n      keccak256\n        /* \"arraymapingthroughthokenid.sol\":464:521  students[msg.sender] = Student(name, age, grade, tokenId) */\n      0x00\n      dup3\n      add\n      mload\n      dup2\n      0x00\n      add\n      swap1\n      dup2\n      tag_24\n      swap2\n      swap1\n      tag_25\n      jump\t// in\n    tag_24:\n      pop\n      0x20\n      dup3\n      add\n      mload\n      dup2\n      0x01\n      add\n      sstore\n      0x40\n      dup3\n      add\n      mload\n      dup2\n      0x02\n      add\n      swap1\n      dup2\n      tag_26\n      swap2\n      swap1\n      tag_25\n      jump\t// in\n    tag_26:\n      pop\n      0x60\n      dup3\n      add\n      mload\n      dup2\n      0x03\n      add\n      sstore\n      swap1\n      pop\n      pop\n        /* \"arraymapingthroughthokenid.sol\":539:546  tokenId */\n      dup1\n        /* \"arraymapingthroughthokenid.sol\":532:546  return tokenId */\n      swap2\n      pop\n      pop\n        /* \"arraymapingthroughthokenid.sol\":275:554  function tokenizeStudent(string memory name, uint256 age, string memory grade) public returns (bytes32) {... */\n      swap4\n      swap3\n      pop\n      pop\n      pop\n      jump\t// out\n        /* \"arraymapingthroughthokenid.sol\":223:266  mapping(address => Student) public students */\n    tag_15:\n      mstore(0x20, 0x00)\n      dup1\n      0x00\n      mstore\n      keccak256(0x00, 0x40)\n      0x00\n      swap2\n      pop\n      swap1\n      pop\n      dup1\n      0x00\n      add\n      dup1\n      sload\n      tag_27\n      swap1\n      tag_28\n      jump\t// in\n    tag_27:\n      dup1\n      0x1f\n      add\n      0x20\n      dup1\n      swap2\n      div\n      mul\n      0x20\n      add\n      mload(0x40)\n      swap1\n      dup2\n      add\n      0x40\n      mstore\n      dup1\n      swap3\n      swap2\n      swap1\n      dup2\n      dup2\n      mstore\n      0x20\n      add\n      dup3\n      dup1\n      sload\n      tag_29\n      swap1\n      tag_28\n      jump\t// in\n    tag_29:\n      dup1\n      iszero\n      tag_30\n      jumpi\n      dup1\n      0x1f\n      lt\n      tag_31\n      jumpi\n      0x0100\n      dup1\n      dup4\n      sload\n      div\n      mul\n      dup4\n      mstore\n      swap2\n      0x20\n      add\n      swap2\n      jump(tag_30)\n    tag_31:\n      dup3\n      add\n      swap2\n      swap1\n      0x00\n      mstore\n      keccak256(0x00, 0x20)\n      swap1\n    tag_32:\n      dup2\n      sload\n      dup2\n      mstore\n      swap1\n      0x01\n      add\n      swap1\n      0x20\n      add\n      dup1\n      dup4\n      gt\n      tag_32\n      jumpi\n      dup3\n      swap1\n      sub\n      0x1f\n      and\n      dup3\n      add\n      swap2\n    tag_30:\n      pop\n      pop\n      pop\n      pop\n      pop\n      swap1\n      dup1\n      0x01\n      add\n      sload\n      swap1\n      dup1\n      0x02\n      add\n      dup1\n      sload\n      tag_33\n      swap1\n      tag_28\n      jump\t// in\n    tag_33:\n      dup1\n      0x1f\n      add\n      0x20\n      dup1\n      swap2\n      div\n      mul\n      0x20\n      add\n      mload(0x40)\n      swap1\n      dup2\n      add\n      0x40\n      mstore\n      dup1\n      swap3\n      swap2\n      swap1\n      dup2\n      dup2\n      mstore\n      0x20\n      add\n      dup3\n      dup1\n      sload\n      tag_34\n      swap1\n      tag_28\n      jump\t// in\n    tag_34:\n      dup1\n      iszero\n      tag_35\n      jumpi\n      dup1\n      0x1f\n      lt\n      tag_36\n      jumpi\n      0x0100\n      dup1\n      dup4\n      sload\n      div\n      mul\n      dup4\n      mstore\n      swap2\n      0x20\n      add\n      swap2\n      jump(tag_35)\n    tag_36:\n      dup3\n      add\n      swap2\n      swap1\n      0x00\n      mstore\n      keccak256(0x00, 0x20)\n      swap1\n    tag_37:\n      dup2\n      sload\n      dup2\n      mstore\n      swap1\n      0x01\n      add\n      swap1\n      0x20\n      add\n      dup1\n      dup4\n      gt\n      tag_37\n      jumpi\n      dup3\n      swap1\n      sub\n      0x1f\n      and\n      dup3\n      add\n      swap2\n    tag_35:\n      pop\n      pop\n      pop\n      pop\n      pop\n      swap1\n      dup1\n      0x03\n      add\n      sload\n      swap1\n      pop\n      dup5\n      jump\t// out\n        /* \"arraymapingthroughthokenid.sol\":562:675  function getStudentTokenId() public view returns (bytes32) {... */\n    tag_19:\n        /* \"arraymapingthroughthokenid.sol\":612:619  bytes32 */\n      0x00\n        /* \"arraymapingthroughthokenid.sol\":639:647  students */\n      dup1\n        /* \"arraymapingthroughthokenid.sol\":639:659  students[msg.sender] */\n      0x00\n        /* \"arraymapingthroughthokenid.sol\":648:658  msg.sender */\n      caller\n        /* \"arraymapingthroughthokenid.sol\":639:659  students[msg.sender] */\n      0xffffffffffffffffffffffffffffffffffffffff\n      and\n      0xffffffffffffffffffffffffffffffffffffffff\n      and\n      dup2\n      mstore\n      0x20\n      add\n      swap1\n      dup2\n      mstore\n      0x20\n      add\n      0x00\n      keccak256\n        /* \"arraymapingthroughthokenid.sol\":639:667  students[msg.sender].tokenId */\n      0x03\n      add\n      sload\n        /* \"arraymapingthroughthokenid.sol\":632:667  return students[msg.sender].tokenId */\n      swap1\n      pop\n        /* \"arraymapingthroughthokenid.sol\":562:675  function getStudentTokenId() public view returns (bytes32) {... */\n      swap1\n      jump\t// out\n        /* \"#utility.yul\":7:82   */\n    tag_39:\n        /* \"#utility.yul\":40:46   */\n      0x00\n        /* \"#utility.yul\":73:75   */\n      0x40\n        /* \"#utility.yul\":67:76   */\n      mload\n        /* \"#utility.yul\":57:76   */\n      swap1\n      pop\n        /* \"#utility.yul\":7:82   */\n      swap1\n      jump\t// out\n        /* \"#utility.yul\":88:205   */\n    tag_40:\n        /* \"#utility.yul\":197:198   */\n      0x00\n        /* \"#utility.yul\":194:195   */\n      dup1\n        /* \"#utility.yul\":187:199   */\n      revert\n        /* \"#utility.yul\":211:328   */\n    tag_41:\n        /* \"#utility.yul\":320:321   */\n      0x00\n        /* \"#utility.yul\":317:318   */\n      dup1\n        /* \"#utility.yul\":310:322   */\n      revert\n        /* \"#utility.yul\":334:451   */\n    tag_42:\n        /* \"#utility.yul\":443:444   */\n      0x00\n        /* \"#utility.yul\":440:441   */\n      dup1\n        /* \"#utility.yul\":433:445   */\n      revert\n        /* \"#utility.yul\":457:574   */\n    tag_43:\n        /* \"#utility.yul\":566:567   */\n      0x00\n        /* \"#utility.yul\":563:564   */\n      dup1\n        /* \"#utility.yul\":556:568   */\n      revert\n        /* \"#utility.yul\":580:682   */\n    tag_44:\n        /* \"#utility.yul\":621:627   */\n      0x00\n        /* \"#utility.yul\":672:674   */\n      0x1f\n        /* \"#utility.yul\":668:675   */\n      not\n        /* \"#utility.yul\":663:665   */\n      0x1f\n        /* \"#utility.yul\":656:661   */\n      dup4\n        /* \"#utility.yul\":652:666   */\n      add\n        /* \"#utility.yul\":648:676   */\n      and\n        /* \"#utility.yul\":638:676   */\n      swap1\n      pop\n        /* \"#utility.yul\":580:682   */\n      swap2\n      swap1\n      pop\n      jump\t// out\n        /* \"#utility.yul\":688:868   */\n    tag_45:\n        /* \"#utility.yul\":736:813   */\n      0x4e487b7100000000000000000000000000000000000000000000000000000000\n        /* \"#utility.yul\":733:734   */\n      0x00\n        /* \"#utility.yul\":726:814   */\n      mstore\n        /* \"#utility.yul\":833:837   */\n      0x41\n        /* \"#utility.yul\":830:831   */\n      0x04\n        /* \"#utility.yul\":823:838   */\n      mstore\n        /* \"#utility.yul\":857:861   */\n      0x24\n        /* \"#utility.yul\":854:855   */\n      0x00\n        /* \"#utility.yul\":847:862   */\n      revert\n        /* \"#utility.yul\":874:1155   */\n    tag_46:\n        /* \"#utility.yul\":957:984   */\n      tag_95\n        /* \"#utility.yul\":979:983   */\n      dup3\n        /* \"#utility.yul\":957:984   */\n      tag_44\n      jump\t// in\n    tag_95:\n        /* \"#utility.yul\":949:955   */\n      dup2\n        /* \"#utility.yul\":945:985   */\n      add\n        /* \"#utility.yul\":1087:1093   */\n      dup2\n        /* \"#utility.yul\":1075:1085   */\n      dup2\n        /* \"#utility.yul\":1072:1094   */\n      lt\n        /* \"#utility.yul\":1051:1069   */\n      0xffffffffffffffff\n        /* \"#utility.yul\":1039:1049   */\n      dup3\n        /* \"#utility.yul\":1036:1070   */\n      gt\n        /* \"#utility.yul\":1033:1095   */\n      or\n        /* \"#utility.yul\":1030:1118   */\n      iszero\n      tag_96\n      jumpi\n        /* \"#utility.yul\":1098:1116   */\n      tag_97\n      tag_45\n      jump\t// in\n    tag_97:\n        /* \"#utility.yul\":1030:1118   */\n    tag_96:\n        /* \"#utility.yul\":1138:1148   */\n      dup1\n        /* \"#utility.yul\":1134:1136   */\n      0x40\n        /* \"#utility.yul\":1127:1149   */\n      mstore\n        /* \"#utility.yul\":917:1155   */\n      pop\n        /* \"#utility.yul\":874:1155   */\n      pop\n      pop\n      jump\t// out\n        /* \"#utility.yul\":1161:1290   */\n    tag_47:\n        /* \"#utility.yul\":1195:1201   */\n      0x00\n        /* \"#utility.yul\":1222:1242   */\n      tag_99\n      tag_39\n      jump\t// in\n    tag_99:\n        /* \"#utility.yul\":1212:1242   */\n      swap1\n      pop\n        /* \"#utility.yul\":1251:1284   */\n      tag_100\n        /* \"#utility.yul\":1279:1283   */\n      dup3\n        /* \"#utility.yul\":1271:1277   */\n      dup3\n        /* \"#utility.yul\":1251:1284   */\n      tag_46\n      jump\t// in\n    tag_100:\n        /* \"#utility.yul\":1161:1290   */\n      swap2\n      swap1\n      pop\n      jump\t// out\n        /* \"#utility.yul\":1296:1604   */\n    tag_48:\n        /* \"#utility.yul\":1358:1362   */\n      0x00\n        /* \"#utility.yul\":1448:1466   */\n      0xffffffffffffffff\n        /* \"#utility.yul\":1440:1446   */\n      dup3\n        /* \"#utility.yul\":1437:1467   */\n      gt\n        /* \"#utility.yul\":1434:1490   */\n      iszero\n      tag_102\n      jumpi\n        /* \"#utility.yul\":1470:1488   */\n      tag_103\n      tag_45\n      jump\t// in\n    tag_103:\n        /* \"#utility.yul\":1434:1490   */\n    tag_102:\n        /* \"#utility.yul\":1508:1537   */\n      tag_104\n        /* \"#utility.yul\":1530:1536   */\n      dup3\n        /* \"#utility.yul\":1508:1537   */\n      tag_44\n      jump\t// in\n    tag_104:\n        /* \"#utility.yul\":1500:1537   */\n      swap1\n      pop\n        /* \"#utility.yul\":1592:1596   */\n      0x20\n        /* \"#utility.yul\":1586:1590   */\n      dup2\n        /* \"#utility.yul\":1582:1597   */\n      add\n        /* \"#utility.yul\":1574:1597   */\n      swap1\n      pop\n        /* \"#utility.yul\":1296:1604   */\n      swap2\n      swap1\n      pop\n      jump\t// out\n        /* \"#utility.yul\":1610:1756   */\n    tag_49:\n        /* \"#utility.yul\":1707:1713   */\n      dup3\n        /* \"#utility.yul\":1702:1705   */\n      dup2\n        /* \"#utility.yul\":1697:1700   */\n      dup4\n        /* \"#utility.yul\":1684:1714   */\n      calldatacopy\n        /* \"#utility.yul\":1748:1749   */\n      0x00\n        /* \"#utility.yul\":1739:1745   */\n      dup4\n        /* \"#utility.yul\":1734:1737   */\n      dup4\n        /* \"#utility.yul\":1730:1746   */\n      add\n        /* \"#utility.yul\":1723:1750   */\n      mstore\n        /* \"#utility.yul\":1610:1756   */\n      pop\n      pop\n      pop\n      jump\t// out\n        /* \"#utility.yul\":1762:2187   */\n    tag_50:\n        /* \"#utility.yul\":1840:1845   */\n      0x00\n        /* \"#utility.yul\":1865:1931   */\n      tag_107\n        /* \"#utility.yul\":1881:1930   */\n      tag_108\n        /* \"#utility.yul\":1923:1929   */\n      dup5\n        /* \"#utility.yul\":1881:1930   */\n      tag_48\n      jump\t// in\n    tag_108:\n        /* \"#utility.yul\":1865:1931   */\n      tag_47\n      jump\t// in\n    tag_107:\n        /* \"#utility.yul\":1856:1931   */\n      swap1\n      pop\n        /* \"#utility.yul\":1954:1960   */\n      dup3\n        /* \"#utility.yul\":1947:1952   */\n      dup2\n        /* \"#utility.yul\":1940:1961   */\n      mstore\n        /* \"#utility.yul\":1992:1996   */\n      0x20\n        /* \"#utility.yul\":1985:1990   */\n      dup2\n        /* \"#utility.yul\":1981:1997   */\n      add\n        /* \"#utility.yul\":2030:2033   */\n      dup5\n        /* \"#utility.yul\":2021:2027   */\n      dup5\n        /* \"#utility.yul\":2016:2019   */\n      dup5\n        /* \"#utility.yul\":2012:2028   */\n      add\n        /* \"#utility.yul\":2009:2034   */\n      gt\n        /* \"#utility.yul\":2006:2118   */\n      iszero\n      tag_109\n      jumpi\n        /* \"#utility.yul\":2037:2116   */\n      tag_110\n      tag_43\n      jump\t// in\n    tag_110:\n        /* \"#utility.yul\":2006:2118   */\n    tag_109:\n        /* \"#utility.yul\":2127:2181   */\n      tag_111\n        /* \"#utility.yul\":2174:2180   */\n      dup5\n        /* \"#utility.yul\":2169:2172   */\n      dup3\n        /* \"#utility.yul\":2164:2167   */\n      dup6\n        /* \"#utility.yul\":2127:2181   */\n      tag_49\n      jump\t// in\n    tag_111:\n        /* \"#utility.yul\":1846:2187   */\n      pop\n        /* \"#utility.yul\":1762:2187   */\n      swap4\n      swap3\n      pop\n      pop\n      pop\n      jump\t// out\n        /* \"#utility.yul\":2207:2547   */\n    tag_51:\n        /* \"#utility.yul\":2263:2268   */\n      0x00\n        /* \"#utility.yul\":2312:2315   */\n      dup3\n        /* \"#utility.yul\":2305:2309   */\n      0x1f\n        /* \"#utility.yul\":2297:2303   */\n      dup4\n        /* \"#utility.yul\":2293:2310   */\n      add\n        /* \"#utility.yul\":2289:2316   */\n      slt\n        /* \"#utility.yul\":2279:2401   */\n      tag_113\n      jumpi\n        /* \"#utility.yul\":2320:2399   */\n      tag_114\n      tag_42\n      jump\t// in\n    tag_114:\n        /* \"#utility.yul\":2279:2401   */\n    tag_113:\n        /* \"#utility.yul\":2437:2443   */\n      dup2\n        /* \"#utility.yul\":2424:2444   */\n      calldataload\n        /* \"#utility.yul\":2462:2541   */\n      tag_115\n        /* \"#utility.yul\":2537:2540   */\n      dup5\n        /* \"#utility.yul\":2529:2535   */\n      dup3\n        /* \"#utility.yul\":2522:2526   */\n      0x20\n        /* \"#utility.yul\":2514:2520   */\n      dup7\n        /* \"#utility.yul\":2510:2527   */\n      add\n        /* \"#utility.yul\":2462:2541   */\n      tag_50\n      jump\t// in\n    tag_115:\n        /* \"#utility.yul\":2453:2541   */\n      swap2\n      pop\n        /* \"#utility.yul\":2269:2547   */\n      pop\n        /* \"#utility.yul\":2207:2547   */\n      swap3\n      swap2\n      pop\n      pop\n      jump\t// out\n        /* \"#utility.yul\":2553:2630   */\n    tag_52:\n        /* \"#utility.yul\":2590:2597   */\n      0x00\n        /* \"#utility.yul\":2619:2624   */\n      dup2\n        /* \"#utility.yul\":2608:2624   */\n      swap1\n      pop\n        /* \"#utility.yul\":2553:2630   */\n      swap2\n      swap1\n      pop\n      jump\t// out\n        /* \"#utility.yul\":2636:2758   */\n    tag_53:\n        /* \"#utility.yul\":2709:2733   */\n      tag_118\n        /* \"#utility.yul\":2727:2732   */\n      dup2\n        /* \"#utility.yul\":2709:2733   */\n      tag_52\n      jump\t// in\n    tag_118:\n        /* \"#utility.yul\":2702:2707   */\n      dup2\n        /* \"#utility.yul\":2699:2734   */\n      eq\n        /* \"#utility.yul\":2689:2752   */\n      tag_119\n      jumpi\n        /* \"#utility.yul\":2748:2749   */\n      0x00\n        /* \"#utility.yul\":2745:2746   */\n      dup1\n        /* \"#utility.yul\":2738:2750   */\n      revert\n        /* \"#utility.yul\":2689:2752   */\n    tag_119:\n        /* \"#utility.yul\":2636:2758   */\n      pop\n      jump\t// out\n        /* \"#utility.yul\":2764:2903   */\n    tag_54:\n        /* \"#utility.yul\":2810:2815   */\n      0x00\n        /* \"#utility.yul\":2848:2854   */\n      dup2\n        /* \"#utility.yul\":2835:2855   */\n      calldataload\n        /* \"#utility.yul\":2826:2855   */\n      swap1\n      pop\n        /* \"#utility.yul\":2864:2897   */\n      tag_121\n        /* \"#utility.yul\":2891:2896   */\n      dup2\n        /* \"#utility.yul\":2864:2897   */\n      tag_53\n      jump\t// in\n    tag_121:\n        /* \"#utility.yul\":2764:2903   */\n      swap3\n      swap2\n      pop\n      pop\n      jump\t// out\n        /* \"#utility.yul\":2909:3888   */\n    tag_8:\n        /* \"#utility.yul\":3006:3012   */\n      0x00\n        /* \"#utility.yul\":3014:3020   */\n      dup1\n        /* \"#utility.yul\":3022:3028   */\n      0x00\n        /* \"#utility.yul\":3071:3073   */\n      0x60\n        /* \"#utility.yul\":3059:3068   */\n      dup5\n        /* \"#utility.yul\":3050:3057   */\n      dup7\n        /* \"#utility.yul\":3046:3069   */\n      sub\n        /* \"#utility.yul\":3042:3074   */\n      slt\n        /* \"#utility.yul\":3039:3158   */\n      iszero\n      tag_123\n      jumpi\n        /* \"#utility.yul\":3077:3156   */\n      tag_124\n      tag_40\n      jump\t// in\n    tag_124:\n        /* \"#utility.yul\":3039:3158   */\n    tag_123:\n        /* \"#utility.yul\":3225:3226   */\n      0x00\n        /* \"#utility.yul\":3214:3223   */\n      dup5\n        /* \"#utility.yul\":3210:3227   */\n      add\n        /* \"#utility.yul\":3197:3228   */\n      calldataload\n        /* \"#utility.yul\":3255:3273   */\n      0xffffffffffffffff\n        /* \"#utility.yul\":3247:3253   */\n      dup2\n        /* \"#utility.yul\":3244:3274   */\n      gt\n        /* \"#utility.yul\":3241:3358   */\n      iszero\n      tag_125\n      jumpi\n        /* \"#utility.yul\":3277:3356   */\n      tag_126\n      tag_41\n      jump\t// in\n    tag_126:\n        /* \"#utility.yul\":3241:3358   */\n    tag_125:\n        /* \"#utility.yul\":3382:3445   */\n      tag_127\n        /* \"#utility.yul\":3437:3444   */\n      dup7\n        /* \"#utility.yul\":3428:3434   */\n      dup3\n        /* \"#utility.yul\":3417:3426   */\n      dup8\n        /* \"#utility.yul\":3413:3435   */\n      add\n        /* \"#utility.yul\":3382:3445   */\n      tag_51\n      jump\t// in\n    tag_127:\n        /* \"#utility.yul\":3372:3445   */\n      swap4\n      pop\n        /* \"#utility.yul\":3168:3455   */\n      pop\n        /* \"#utility.yul\":3494:3496   */\n      0x20\n        /* \"#utility.yul\":3520:3573   */\n      tag_128\n        /* \"#utility.yul\":3565:3572   */\n      dup7\n        /* \"#utility.yul\":3556:3562   */\n      dup3\n        /* \"#utility.yul\":3545:3554   */\n      dup8\n        /* \"#utility.yul\":3541:3563   */\n      add\n        /* \"#utility.yul\":3520:3573   */\n      tag_54\n      jump\t// in\n    tag_128:\n        /* \"#utility.yul\":3510:3573   */\n      swap3\n      pop\n        /* \"#utility.yul\":3465:3583   */\n      pop\n        /* \"#utility.yul\":3650:3652   */\n      0x40\n        /* \"#utility.yul\":3639:3648   */\n      dup5\n        /* \"#utility.yul\":3635:3653   */\n      add\n        /* \"#utility.yul\":3622:3654   */\n      calldataload\n        /* \"#utility.yul\":3681:3699   */\n      0xffffffffffffffff\n        /* \"#utility.yul\":3673:3679   */\n      dup2\n        /* \"#utility.yul\":3670:3700   */\n      gt\n        /* \"#utility.yul\":3667:3784   */\n      iszero\n      tag_129\n      jumpi\n        /* \"#utility.yul\":3703:3782   */\n      tag_130\n      tag_41\n      jump\t// in\n    tag_130:\n        /* \"#utility.yul\":3667:3784   */\n    tag_129:\n        /* \"#utility.yul\":3808:3871   */\n      tag_131\n        /* \"#utility.yul\":3863:3870   */\n      dup7\n        /* \"#utility.yul\":3854:3860   */\n      dup3\n        /* \"#utility.yul\":3843:3852   */\n      dup8\n        /* \"#utility.yul\":3839:3861   */\n      add\n        /* \"#utility.yul\":3808:3871   */\n      tag_51\n      jump\t// in\n    tag_131:\n        /* \"#utility.yul\":3798:3871   */\n      swap2\n      pop\n        /* \"#utility.yul\":3593:3881   */\n      pop\n        /* \"#utility.yul\":2909:3888   */\n      swap3\n      pop\n      swap3\n      pop\n      swap3\n      jump\t// out\n        /* \"#utility.yul\":3894:3971   */\n    tag_55:\n        /* \"#utility.yul\":3931:3938   */\n      0x00\n        /* \"#utility.yul\":3960:3965   */\n      dup2\n        /* \"#utility.yul\":3949:3965   */\n      swap1\n      pop\n        /* \"#utility.yul\":3894:3971   */\n      swap2\n      swap1\n      pop\n      jump\t// out\n        /* \"#utility.yul\":3977:4095   */\n    tag_56:\n        /* \"#utility.yul\":4064:4088   */\n      tag_134\n        /* \"#utility.yul\":4082:4087   */\n      dup2\n        /* \"#utility.yul\":4064:4088   */\n      tag_55\n      jump\t// in\n    tag_134:\n        /* \"#utility.yul\":4059:4062   */\n      dup3\n        /* \"#utility.yul\":4052:4089   */\n      mstore\n        /* \"#utility.yul\":3977:4095   */\n      pop\n      pop\n      jump\t// out\n        /* \"#utility.yul\":4101:4323   */\n    tag_11:\n        /* \"#utility.yul\":4194:4198   */\n      0x00\n        /* \"#utility.yul\":4232:4234   */\n      0x20\n        /* \"#utility.yul\":4221:4230   */\n      dup3\n        /* \"#utility.yul\":4217:4235   */\n      add\n        /* \"#utility.yul\":4209:4235   */\n      swap1\n      pop\n        /* \"#utility.yul\":4245:4316   */\n      tag_136\n        /* \"#utility.yul\":4313:4314   */\n      0x00\n        /* \"#utility.yul\":4302:4311   */\n      dup4\n        /* \"#utility.yul\":4298:4315   */\n      add\n        /* \"#utility.yul\":4289:4295   */\n      dup5\n        /* \"#utility.yul\":4245:4316   */\n      tag_56\n      jump\t// in\n    tag_136:\n        /* \"#utility.yul\":4101:4323   */\n      swap3\n      swap2\n      pop\n      pop\n      jump\t// out\n        /* \"#utility.yul\":4329:4455   */\n    tag_57:\n        /* \"#utility.yul\":4366:4373   */\n      0x00\n        /* \"#utility.yul\":4406:4448   */\n      0xffffffffffffffffffffffffffffffffffffffff\n        /* \"#utility.yul\":4399:4404   */\n      dup3\n        /* \"#utility.yul\":4395:4449   */\n      and\n        /* \"#utility.yul\":4384:4449   */\n      swap1\n      pop\n        /* \"#utility.yul\":4329:4455   */\n      swap2\n      swap1\n      pop\n      jump\t// out\n        /* \"#utility.yul\":4461:4557   */\n    tag_58:\n        /* \"#utility.yul\":4498:4505   */\n      0x00\n        /* \"#utility.yul\":4527:4551   */\n      tag_139\n        /* \"#utility.yul\":4545:4550   */\n      dup3\n        /* \"#utility.yul\":4527:4551   */\n      tag_57\n      jump\t// in\n    tag_139:\n        /* \"#utility.yul\":4516:4551   */\n      swap1\n      pop\n        /* \"#utility.yul\":4461:4557   */\n      swap2\n      swap1\n      pop\n      jump\t// out\n        /* \"#utility.yul\":4563:4685   */\n    tag_59:\n        /* \"#utility.yul\":4636:4660   */\n      tag_141\n        /* \"#utility.yul\":4654:4659   */\n      dup2\n        /* \"#utility.yul\":4636:4660   */\n      tag_58\n      jump\t// in\n    tag_141:\n        /* \"#utility.yul\":4629:4634   */\n      dup2\n        /* \"#utility.yul\":4626:4661   */\n      eq\n        /* \"#utility.yul\":4616:4679   */\n      tag_142\n      jumpi\n        /* \"#utility.yul\":4675:4676   */\n      0x00\n        /* \"#utility.yul\":4672:4673   */\n      dup1\n        /* \"#utility.yul\":4665:4677   */\n      revert\n        /* \"#utility.yul\":4616:4679   */\n    tag_142:\n        /* \"#utility.yul\":4563:4685   */\n      pop\n      jump\t// out\n        /* \"#utility.yul\":4691:4830   */\n    tag_60:\n        /* \"#utility.yul\":4737:4742   */\n      0x00\n        /* \"#utility.yul\":4775:4781   */\n      dup2\n        /* \"#utility.yul\":4762:4782   */\n      calldataload\n        /* \"#utility.yul\":4753:4782   */\n      swap1\n      pop\n        /* \"#utility.yul\":4791:4824   */\n      tag_144\n        /* \"#utility.yul\":4818:4823   */\n      dup2\n        /* \"#utility.yul\":4791:4824   */\n      tag_59\n      jump\t// in\n    tag_144:\n        /* \"#utility.yul\":4691:4830   */\n      swap3\n      swap2\n      pop\n      pop\n      jump\t// out\n        /* \"#utility.yul\":4836:5165   */\n    tag_14:\n        /* \"#utility.yul\":4895:4901   */\n      0x00\n        /* \"#utility.yul\":4944:4946   */\n      0x20\n        /* \"#utility.yul\":4932:4941   */\n      dup3\n        /* \"#utility.yul\":4923:4930   */\n      dup5\n        /* \"#utility.yul\":4919:4942   */\n      sub\n        /* \"#utility.yul\":4915:4947   */\n      slt\n        /* \"#utility.yul\":4912:5031   */\n      iszero\n      tag_146\n      jumpi\n        /* \"#utility.yul\":4950:5029   */\n      tag_147\n      tag_40\n      jump\t// in\n    tag_147:\n        /* \"#utility.yul\":4912:5031   */\n    tag_146:\n        /* \"#utility.yul\":5070:5071   */\n      0x00\n        /* \"#utility.yul\":5095:5148   */\n      tag_148\n        /* \"#utility.yul\":5140:5147   */\n      dup5\n        /* \"#utility.yul\":5131:5137   */\n      dup3\n        /* \"#utility.yul\":5120:5129   */\n      dup6\n        /* \"#utility.yul\":5116:5138   */\n      add\n        /* \"#utility.yul\":5095:5148   */\n      tag_60\n      jump\t// in\n    tag_148:\n        /* \"#utility.yul\":5085:5148   */\n      swap2\n      pop\n        /* \"#utility.yul\":5041:5158   */\n      pop\n        /* \"#utility.yul\":4836:5165   */\n      swap3\n      swap2\n      pop\n      pop\n      jump\t// out\n        /* \"#utility.yul\":5171:5270   */\n    tag_61:\n        /* \"#utility.yul\":5223:5229   */\n      0x00\n        /* \"#utility.yul\":5257:5262   */\n      dup2\n        /* \"#utility.yul\":5251:5263   */\n      mload\n        /* \"#utility.yul\":5241:5263   */\n      swap1\n      pop\n        /* \"#utility.yul\":5171:5270   */\n      swap2\n      swap1\n      pop\n      jump\t// out\n        /* \"#utility.yul\":5276:5445   */\n    tag_62:\n        /* \"#utility.yul\":5360:5371   */\n      0x00\n        /* \"#utility.yul\":5394:5400   */\n      dup3\n        /* \"#utility.yul\":5389:5392   */\n      dup3\n        /* \"#utility.yul\":5382:5401   */\n      mstore\n        /* \"#utility.yul\":5434:5438   */\n      0x20\n        /* \"#utility.yul\":5429:5432   */\n      dup3\n        /* \"#utility.yul\":5425:5439   */\n      add\n        /* \"#utility.yul\":5410:5439   */\n      swap1\n      pop\n        /* \"#utility.yul\":5276:5445   */\n      swap3\n      swap2\n      pop\n      pop\n      jump\t// out\n        /* \"#utility.yul\":5451:5697   */\n    tag_63:\n        /* \"#utility.yul\":5532:5533   */\n      0x00\n        /* \"#utility.yul\":5542:5655   */\n    tag_152:\n        /* \"#utility.yul\":5556:5562   */\n      dup4\n        /* \"#utility.yul\":5553:5554   */\n      dup2\n        /* \"#utility.yul\":5550:5563   */\n      lt\n        /* \"#utility.yul\":5542:5655   */\n      iszero\n      tag_154\n      jumpi\n        /* \"#utility.yul\":5641:5642   */\n      dup1\n        /* \"#utility.yul\":5636:5639   */\n      dup3\n        /* \"#utility.yul\":5632:5643   */\n      add\n        /* \"#utility.yul\":5626:5644   */\n      mload\n        /* \"#utility.yul\":5622:5623   */\n      dup2\n        /* \"#utility.yul\":5617:5620   */\n      dup5\n        /* \"#utility.yul\":5613:5624   */\n      add\n        /* \"#utility.yul\":5606:5645   */\n      mstore\n        /* \"#utility.yul\":5578:5580   */\n      0x20\n        /* \"#utility.yul\":5575:5576   */\n      dup2\n        /* \"#utility.yul\":5571:5581   */\n      add\n        /* \"#utility.yul\":5566:5581   */\n      swap1\n      pop\n        /* \"#utility.yul\":5542:5655   */\n      jump(tag_152)\n    tag_154:\n        /* \"#utility.yul\":5689:5690   */\n      0x00\n        /* \"#utility.yul\":5680:5686   */\n      dup5\n        /* \"#utility.yul\":5675:5678   */\n      dup5\n        /* \"#utility.yul\":5671:5687   */\n      add\n        /* \"#utility.yul\":5664:5691   */\n      mstore\n        /* \"#utility.yul\":5513:5697   */\n      pop\n        /* \"#utility.yul\":5451:5697   */\n      pop\n      pop\n      pop\n      jump\t// out\n        /* \"#utility.yul\":5703:6080   */\n    tag_64:\n        /* \"#utility.yul\":5791:5794   */\n      0x00\n        /* \"#utility.yul\":5819:5858   */\n      tag_156\n        /* \"#utility.yul\":5852:5857   */\n      dup3\n        /* \"#utility.yul\":5819:5858   */\n      tag_61\n      jump\t// in\n    tag_156:\n        /* \"#utility.yul\":5874:5945   */\n      tag_157\n        /* \"#utility.yul\":5938:5944   */\n      dup2\n        /* \"#utility.yul\":5933:5936   */\n      dup6\n        /* \"#utility.yul\":5874:5945   */\n      tag_62\n      jump\t// in\n    tag_157:\n        /* \"#utility.yul\":5867:5945   */\n      swap4\n      pop\n        /* \"#utility.yul\":5954:6019   */\n      tag_158\n        /* \"#utility.yul\":6012:6018   */\n      dup2\n        /* \"#utility.yul\":6007:6010   */\n      dup6\n        /* \"#utility.yul\":6000:6004   */\n      0x20\n        /* \"#utility.yul\":5993:5998   */\n      dup7\n        /* \"#utility.yul\":5989:6005   */\n      add\n        /* \"#utility.yul\":5954:6019   */\n      tag_63\n      jump\t// in\n    tag_158:\n        /* \"#utility.yul\":6044:6073   */\n      tag_159\n        /* \"#utility.yul\":6066:6072   */\n      dup2\n        /* \"#utility.yul\":6044:6073   */\n      tag_44\n      jump\t// in\n    tag_159:\n        /* \"#utility.yul\":6039:6042   */\n      dup5\n        /* \"#utility.yul\":6035:6074   */\n      add\n        /* \"#utility.yul\":6028:6074   */\n      swap2\n      pop\n        /* \"#utility.yul\":5795:6080   */\n      pop\n        /* \"#utility.yul\":5703:6080   */\n      swap3\n      swap2\n      pop\n      pop\n      jump\t// out\n        /* \"#utility.yul\":6086:6204   */\n    tag_65:\n        /* \"#utility.yul\":6173:6197   */\n      tag_161\n        /* \"#utility.yul\":6191:6196   */\n      dup2\n        /* \"#utility.yul\":6173:6197   */\n      tag_52\n      jump\t// in\n    tag_161:\n        /* \"#utility.yul\":6168:6171   */\n      dup3\n        /* \"#utility.yul\":6161:6198   */\n      mstore\n        /* \"#utility.yul\":6086:6204   */\n      pop\n      pop\n      jump\t// out\n        /* \"#utility.yul\":6210:6945   */\n    tag_17:\n        /* \"#utility.yul\":6427:6431   */\n      0x00\n        /* \"#utility.yul\":6465:6468   */\n      0x80\n        /* \"#utility.yul\":6454:6463   */\n      dup3\n        /* \"#utility.yul\":6450:6469   */\n      add\n        /* \"#utility.yul\":6442:6469   */\n      swap1\n      pop\n        /* \"#utility.yul\":6515:6524   */\n      dup2\n        /* \"#utility.yul\":6509:6513   */\n      dup2\n        /* \"#utility.yul\":6505:6525   */\n      sub\n        /* \"#utility.yul\":6501:6502   */\n      0x00\n        /* \"#utility.yul\":6490:6499   */\n      dup4\n        /* \"#utility.yul\":6486:6503   */\n      add\n        /* \"#utility.yul\":6479:6526   */\n      mstore\n        /* \"#utility.yul\":6543:6621   */\n      tag_163\n        /* \"#utility.yul\":6616:6620   */\n      dup2\n        /* \"#utility.yul\":6607:6613   */\n      dup8\n        /* \"#utility.yul\":6543:6621   */\n      tag_64\n      jump\t// in\n    tag_163:\n        /* \"#utility.yul\":6535:6621   */\n      swap1\n      pop\n        /* \"#utility.yul\":6631:6703   */\n      tag_164\n        /* \"#utility.yul\":6699:6701   */\n      0x20\n        /* \"#utility.yul\":6688:6697   */\n      dup4\n        /* \"#utility.yul\":6684:6702   */\n      add\n        /* \"#utility.yul\":6675:6681   */\n      dup7\n        /* \"#utility.yul\":6631:6703   */\n      tag_65\n      jump\t// in\n    tag_164:\n        /* \"#utility.yul\":6750:6759   */\n      dup2\n        /* \"#utility.yul\":6744:6748   */\n      dup2\n        /* \"#utility.yul\":6740:6760   */\n      sub\n        /* \"#utility.yul\":6735:6737   */\n      0x40\n        /* \"#utility.yul\":6724:6733   */\n      dup4\n        /* \"#utility.yul\":6720:6738   */\n      add\n        /* \"#utility.yul\":6713:6761   */\n      mstore\n        /* \"#utility.yul\":6778:6856   */\n      tag_165\n        /* \"#utility.yul\":6851:6855   */\n      dup2\n        /* \"#utility.yul\":6842:6848   */\n      dup6\n        /* \"#utility.yul\":6778:6856   */\n      tag_64\n      jump\t// in\n    tag_165:\n        /* \"#utility.yul\":6770:6856   */\n      swap1\n      pop\n        /* \"#utility.yul\":6866:6938   */\n      tag_166\n        /* \"#utility.yul\":6934:6936   */\n      0x60\n        /* \"#utility.yul\":6923:6932   */\n      dup4\n        /* \"#utility.yul\":6919:6937   */\n      add\n        /* \"#utility.yul\":6910:6916   */\n      dup5\n        /* \"#utility.yul\":6866:6938   */\n      tag_56\n      jump\t// in\n    tag_166:\n        /* \"#utility.yul\":6210:6945   */\n      swap6\n      swap5\n      pop\n      pop\n      pop\n      pop\n      pop\n      jump\t// out\n        /* \"#utility.yul\":6951:7099   */\n    tag_66:\n        /* \"#utility.yul\":7053:7064   */\n      0x00\n        /* \"#utility.yul\":7090:7093   */\n      dup2\n        /* \"#utility.yul\":7075:7093   */\n      swap1\n      pop\n        /* \"#utility.yul\":6951:7099   */\n      swap3\n      swap2\n      pop\n      pop\n      jump\t// out\n        /* \"#utility.yul\":7105:7495   */\n    tag_67:\n        /* \"#utility.yul\":7211:7214   */\n      0x00\n        /* \"#utility.yul\":7239:7278   */\n      tag_169\n        /* \"#utility.yul\":7272:7277   */\n      dup3\n        /* \"#utility.yul\":7239:7278   */\n      tag_61\n      jump\t// in\n    tag_169:\n        /* \"#utility.yul\":7294:7383   */\n      tag_170\n        /* \"#utility.yul\":7376:7382   */\n      dup2\n        /* \"#utility.yul\":7371:7374   */\n      dup6\n        /* \"#utility.yul\":7294:7383   */\n      tag_66\n      jump\t// in\n    tag_170:\n        /* \"#utility.yul\":7287:7383   */\n      swap4\n      pop\n        /* \"#utility.yul\":7392:7457   */\n      tag_171\n        /* \"#utility.yul\":7450:7456   */\n      dup2\n        /* \"#utility.yul\":7445:7448   */\n      dup6\n        /* \"#utility.yul\":7438:7442   */\n      0x20\n        /* \"#utility.yul\":7431:7436   */\n      dup7\n        /* \"#utility.yul\":7427:7443   */\n      add\n        /* \"#utility.yul\":7392:7457   */\n      tag_63\n      jump\t// in\n    tag_171:\n        /* \"#utility.yul\":7482:7488   */\n      dup1\n        /* \"#utility.yul\":7477:7480   */\n      dup5\n        /* \"#utility.yul\":7473:7489   */\n      add\n        /* \"#utility.yul\":7466:7489   */\n      swap2\n      pop\n        /* \"#utility.yul\":7215:7495   */\n      pop\n        /* \"#utility.yul\":7105:7495   */\n      swap3\n      swap2\n      pop\n      pop\n      jump\t// out\n        /* \"#utility.yul\":7501:7580   */\n    tag_68:\n        /* \"#utility.yul\":7540:7547   */\n      0x00\n        /* \"#utility.yul\":7569:7574   */\n      dup2\n        /* \"#utility.yul\":7558:7574   */\n      swap1\n      pop\n        /* \"#utility.yul\":7501:7580   */\n      swap2\n      swap1\n      pop\n      jump\t// out\n        /* \"#utility.yul\":7586:7743   */\n    tag_69:\n        /* \"#utility.yul\":7691:7736   */\n      tag_174\n        /* \"#utility.yul\":7711:7735   */\n      tag_175\n        /* \"#utility.yul\":7729:7734   */\n      dup3\n        /* \"#utility.yul\":7711:7735   */\n      tag_52\n      jump\t// in\n    tag_175:\n        /* \"#utility.yul\":7691:7736   */\n      tag_68\n      jump\t// in\n    tag_174:\n        /* \"#utility.yul\":7686:7689   */\n      dup3\n        /* \"#utility.yul\":7679:7737   */\n      mstore\n        /* \"#utility.yul\":7586:7743   */\n      pop\n      pop\n      jump\t// out\n        /* \"#utility.yul\":7749:8325   */\n    tag_23:\n        /* \"#utility.yul\":7957:7960   */\n      0x00\n        /* \"#utility.yul\":7979:8074   */\n      tag_177\n        /* \"#utility.yul\":8070:8073   */\n      dup3\n        /* \"#utility.yul\":8061:8067   */\n      dup7\n        /* \"#utility.yul\":7979:8074   */\n      tag_67\n      jump\t// in\n    tag_177:\n        /* \"#utility.yul\":7972:8074   */\n      swap2\n      pop\n        /* \"#utility.yul\":8084:8159   */\n      tag_178\n        /* \"#utility.yul\":8155:8158   */\n      dup3\n        /* \"#utility.yul\":8146:8152   */\n      dup6\n        /* \"#utility.yul\":8084:8159   */\n      tag_69\n      jump\t// in\n    tag_178:\n        /* \"#utility.yul\":8184:8186   */\n      0x20\n        /* \"#utility.yul\":8179:8182   */\n      dup3\n        /* \"#utility.yul\":8175:8187   */\n      add\n        /* \"#utility.yul\":8168:8187   */\n      swap2\n      pop\n        /* \"#utility.yul\":8204:8299   */\n      tag_179\n        /* \"#utility.yul\":8295:8298   */\n      dup3\n        /* \"#utility.yul\":8286:8292   */\n      dup5\n        /* \"#utility.yul\":8204:8299   */\n      tag_67\n      jump\t// in\n    tag_179:\n        /* \"#utility.yul\":8197:8299   */\n      swap2\n      pop\n        /* \"#utility.yul\":8316:8319   */\n      dup2\n        /* \"#utility.yul\":8309:8319   */\n      swap1\n      pop\n        /* \"#utility.yul\":7749:8325   */\n      swap5\n      swap4\n      pop\n      pop\n      pop\n      pop\n      jump\t// out\n        /* \"#utility.yul\":8331:8511   */\n    tag_70:\n        /* \"#utility.yul\":8379:8456   */\n      0x4e487b7100000000000000000000000000000000000000000000000000000000\n        /* \"#utility.yul\":8376:8377   */\n      0x00\n        /* \"#utility.yul\":8369:8457   */\n      mstore\n        /* \"#utility.yul\":8476:8480   */\n      0x22\n        /* \"#utility.yul\":8473:8474   */\n      0x04\n        /* \"#utility.yul\":8466:8481   */\n      mstore\n        /* \"#utility.yul\":8500:8504   */\n      0x24\n        /* \"#utility.yul\":8497:8498   */\n      0x00\n        /* \"#utility.yul\":8490:8505   */\n      revert\n        /* \"#utility.yul\":8517:8837   */\n    tag_28:\n        /* \"#utility.yul\":8561:8567   */\n      0x00\n        /* \"#utility.yul\":8598:8599   */\n      0x02\n        /* \"#utility.yul\":8592:8596   */\n      dup3\n        /* \"#utility.yul\":8588:8600   */\n      div\n        /* \"#utility.yul\":8578:8600   */\n      swap1\n      pop\n        /* \"#utility.yul\":8645:8646   */\n      0x01\n        /* \"#utility.yul\":8639:8643   */\n      dup3\n        /* \"#utility.yul\":8635:8647   */\n      and\n        /* \"#utility.yul\":8666:8684   */\n      dup1\n        /* \"#utility.yul\":8656:8737   */\n      tag_182\n      jumpi\n        /* \"#utility.yul\":8722:8726   */\n      0x7f\n        /* \"#utility.yul\":8714:8720   */\n      dup3\n        /* \"#utility.yul\":8710:8727   */\n      and\n        /* \"#utility.yul\":8700:8727   */\n      swap2\n      pop\n        /* \"#utility.yul\":8656:8737   */\n    tag_182:\n        /* \"#utility.yul\":8784:8786   */\n      0x20\n        /* \"#utility.yul\":8776:8782   */\n      dup3\n        /* \"#utility.yul\":8773:8787   */\n      lt\n        /* \"#utility.yul\":8753:8771   */\n      dup2\n        /* \"#utility.yul\":8750:8788   */\n      sub\n        /* \"#utility.yul\":8747:8831   */\n      tag_183\n      jumpi\n        /* \"#utility.yul\":8803:8821   */\n      tag_184\n      tag_70\n      jump\t// in\n    tag_184:\n        /* \"#utility.yul\":8747:8831   */\n    tag_183:\n        /* \"#utility.yul\":8568:8837   */\n      pop\n        /* \"#utility.yul\":8517:8837   */\n      swap2\n      swap1\n      pop\n      jump\t// out\n        /* \"#utility.yul\":8843:8984   */\n    tag_71:\n        /* \"#utility.yul\":8892:8896   */\n      0x00\n        /* \"#utility.yul\":8915:8918   */\n      dup2\n        /* \"#utility.yul\":8907:8918   */\n      swap1\n      pop\n        /* \"#utility.yul\":8938:8941   */\n      dup2\n        /* \"#utility.yul\":8935:8936   */\n      0x00\n        /* \"#utility.yul\":8928:8942   */\n      mstore\n        /* \"#utility.yul\":8972:8976   */\n      0x20\n        /* \"#utility.yul\":8969:8970   */\n      0x00\n        /* \"#utility.yul\":8959:8977   */\n      keccak256\n        /* \"#utility.yul\":8951:8977   */\n      swap1\n      pop\n        /* \"#utility.yul\":8843:8984   */\n      swap2\n      swap1\n      pop\n      jump\t// out\n        /* \"#utility.yul\":8990:9083   */\n    tag_72:\n        /* \"#utility.yul\":9027:9033   */\n      0x00\n        /* \"#utility.yul\":9074:9076   */\n      0x20\n        /* \"#utility.yul\":9069:9071   */\n      0x1f\n        /* \"#utility.yul\":9062:9067   */\n      dup4\n        /* \"#utility.yul\":9058:9072   */\n      add\n        /* \"#utility.yul\":9054:9077   */\n      div\n        /* \"#utility.yul\":9044:9077   */\n      swap1\n      pop\n        /* \"#utility.yul\":8990:9083   */\n      swap2\n      swap1\n      pop\n      jump\t// out\n        /* \"#utility.yul\":9089:9196   */\n    tag_73:\n        /* \"#utility.yul\":9133:9141   */\n      0x00\n        /* \"#utility.yul\":9183:9188   */\n      dup3\n        /* \"#utility.yul\":9177:9181   */\n      dup3\n        /* \"#utility.yul\":9173:9189   */\n      shl\n        /* \"#utility.yul\":9152:9189   */\n      swap1\n      pop\n        /* \"#utility.yul\":9089:9196   */\n      swap3\n      swap2\n      pop\n      pop\n      jump\t// out\n        /* \"#utility.yul\":9202:9595   */\n    tag_74:\n        /* \"#utility.yul\":9271:9277   */\n      0x00\n        /* \"#utility.yul\":9321:9322   */\n      0x08\n        /* \"#utility.yul\":9309:9319   */\n      dup4\n        /* \"#utility.yul\":9305:9323   */\n      mul\n        /* \"#utility.yul\":9344:9441   */\n      tag_189\n        /* \"#utility.yul\":9374:9440   */\n      0xffffffffffffffffffffffffffffffffffffffffffffffffffffffffffffffff\n        /* \"#utility.yul\":9363:9372   */\n      dup3\n        /* \"#utility.yul\":9344:9441   */\n      tag_73\n      jump\t// in\n    tag_189:\n        /* \"#utility.yul\":9462:9501   */\n      tag_190\n        /* \"#utility.yul\":9492:9500   */\n      dup7\n        /* \"#utility.yul\":9481:9490   */\n      dup4\n        /* \"#utility.yul\":9462:9501   */\n      tag_73\n      jump\t// in\n    tag_190:\n        /* \"#utility.yul\":9450:9501   */\n      swap6\n      pop\n        /* \"#utility.yul\":9534:9538   */\n      dup1\n        /* \"#utility.yul\":9530:9539   */\n      not\n        /* \"#utility.yul\":9523:9528   */\n      dup5\n        /* \"#utility.yul\":9519:9540   */\n      and\n        /* \"#utility.yul\":9510:9540   */\n      swap4\n      pop\n        /* \"#utility.yul\":9583:9587   */\n      dup1\n        /* \"#utility.yul\":9573:9581   */\n      dup7\n        /* \"#utility.yul\":9569:9588   */\n      and\n        /* \"#utility.yul\":9562:9567   */\n      dup5\n        /* \"#utility.yul\":9559:9589   */\n      or\n        /* \"#utility.yul\":9549:9589   */\n      swap3\n      pop\n        /* \"#utility.yul\":9278:9595   */\n      pop\n      pop\n        /* \"#utility.yul\":9202:9595   */\n      swap4\n      swap3\n      pop\n      pop\n      pop\n      jump\t// out\n        /* \"#utility.yul\":9601:9661   */\n    tag_75:\n        /* \"#utility.yul\":9629:9632   */\n      0x00\n        /* \"#utility.yul\":9650:9655   */\n      dup2\n        /* \"#utility.yul\":9643:9655   */\n      swap1\n      pop\n        /* \"#utility.yul\":9601:9661   */\n      swap2\n      swap1\n      pop\n      jump\t// out\n        /* \"#utility.yul\":9667:9809   */\n    tag_76:\n        /* \"#utility.yul\":9717:9726   */\n      0x00\n        /* \"#utility.yul\":9750:9803   */\n      tag_193\n        /* \"#utility.yul\":9768:9802   */\n      tag_194\n        /* \"#utility.yul\":9777:9801   */\n      tag_195\n        /* \"#utility.yul\":9795:9800   */\n      dup5\n        /* \"#utility.yul\":9777:9801   */\n      tag_52\n      jump\t// in\n    tag_195:\n        /* \"#utility.yul\":9768:9802   */\n      tag_75\n      jump\t// in\n    tag_194:\n        /* \"#utility.yul\":9750:9803   */\n      tag_52\n      jump\t// in\n    tag_193:\n        /* \"#utility.yul\":9737:9803   */\n      swap1\n      pop\n        /* \"#utility.yul\":9667:9809   */\n      swap2\n      swap1\n      pop\n      jump\t// out\n        /* \"#utility.yul\":9815:9890   */\n    tag_77:\n        /* \"#utility.yul\":9858:9861   */\n      0x00\n        /* \"#utility.yul\":9879:9884   */\n      dup2\n        /* \"#utility.yul\":9872:9884   */\n      swap1\n      pop\n        /* \"#utility.yul\":9815:9890   */\n      swap2\n      swap1\n      pop\n      jump\t// out\n        /* \"#utility.yul\":9896:10165   */\n    tag_78:\n        /* \"#utility.yul\":10006:10045   */\n      tag_198\n        /* \"#utility.yul\":10037:10044   */\n      dup4\n        /* \"#utility.yul\":10006:10045   */\n      tag_76\n      jump\t// in\n    tag_198:\n        /* \"#utility.yul\":10067:10158   */\n      tag_199\n        /* \"#utility.yul\":10116:10157   */\n      tag_200\n        /* \"#utility.yul\":10140:10156   */\n      dup3\n        /* \"#utility.yul\":10116:10157   */\n      tag_77\n      jump\t// in\n    tag_200:\n        /* \"#utility.yul\":10108:10114   */\n      dup5\n        /* \"#utility.yul\":10101:10105   */\n      dup5\n        /* \"#utility.yul\":10095:10106   */\n      sload\n        /* \"#utility.yul\":10067:10158   */\n      tag_74\n      jump\t// in\n    tag_199:\n        /* \"#utility.yul\":10061:10065   */\n      dup3\n        /* \"#utility.yul\":10054:10159   */\n      sstore\n        /* \"#utility.yul\":9972:10165   */\n      pop\n        /* \"#utility.yul\":9896:10165   */\n      pop\n      pop\n      pop\n      jump\t// out\n        /* \"#utility.yul\":10171:10244   */\n    tag_79:\n        /* \"#utility.yul\":10216:10219   */\n      0x00\n        /* \"#utility.yul\":10171:10244   */\n      swap1\n      jump\t// out\n        /* \"#utility.yul\":10250:10439   */\n    tag_80:\n        /* \"#utility.yul\":10327:10359   */\n      tag_203\n      tag_79\n      jump\t// in\n    tag_203:\n        /* \"#utility.yul\":10368:10433   */\n      tag_204\n        /* \"#utility.yul\":10426:10432   */\n      dup2\n        /* \"#utility.yul\":10418:10424   */\n      dup5\n        /* \"#utility.yul\":10412:10416   */\n      dup5\n        /* \"#utility.yul\":10368:10433   */\n      tag_78\n      jump\t// in\n    tag_204:\n        /* \"#utility.yul\":10303:10439   */\n      pop\n        /* \"#utility.yul\":10250:10439   */\n      pop\n      pop\n      jump\t// out\n        /* \"#utility.yul\":10445:10631   */\n    tag_81:\n        /* \"#utility.yul\":10505:10625   */\n    tag_206:\n        /* \"#utility.yul\":10522:10525   */\n      dup2\n        /* \"#utility.yul\":10515:10520   */\n      dup2\n        /* \"#utility.yul\":10512:10526   */\n      lt\n        /* \"#utility.yul\":10505:10625   */\n      iszero\n      tag_208\n      jumpi\n        /* \"#utility.yul\":10576:10615   */\n      tag_209\n        /* \"#utility.yul\":10613:10614   */\n      0x00\n        /* \"#utility.yul\":10606:10611   */\n      dup3\n        /* \"#utility.yul\":10576:10615   */\n      tag_80\n      jump\t// in\n    tag_209:\n        /* \"#utility.yul\":10549:10550   */\n      0x01\n        /* \"#utility.yul\":10542:10547   */\n      dup2\n        /* \"#utility.yul\":10538:10551   */\n      add\n        /* \"#utility.yul\":10529:10551   */\n      swap1\n      pop\n        /* \"#utility.yul\":10505:10625   */\n      jump(tag_206)\n    tag_208:\n        /* \"#utility.yul\":10445:10631   */\n      pop\n      pop\n      jump\t// out\n        /* \"#utility.yul\":10637:11180   */\n    tag_82:\n        /* \"#utility.yul\":10738:10740   */\n      0x1f\n        /* \"#utility.yul\":10733:10736   */\n      dup3\n        /* \"#utility.yul\":10730:10741   */\n      gt\n        /* \"#utility.yul\":10727:11173   */\n      iszero\n      tag_211\n      jumpi\n        /* \"#utility.yul\":10772:10810   */\n      tag_212\n        /* \"#utility.yul\":10804:10809   */\n      dup2\n        /* \"#utility.yul\":10772:10810   */\n      tag_71\n      jump\t// in\n    tag_212:\n        /* \"#utility.yul\":10856:10885   */\n      tag_213\n        /* \"#utility.yul\":10874:10884   */\n      dup5\n        /* \"#utility.yul\":10856:10885   */\n      tag_72\n      jump\t// in\n    tag_213:\n        /* \"#utility.yul\":10846:10854   */\n      dup2\n        /* \"#utility.yul\":10842:10886   */\n      add\n        /* \"#utility.yul\":11039:11041   */\n      0x20\n        /* \"#utility.yul\":11027:11037   */\n      dup6\n        /* \"#utility.yul\":11024:11042   */\n      lt\n        /* \"#utility.yul\":11021:11070   */\n      iszero\n      tag_214\n      jumpi\n        /* \"#utility.yul\":11060:11068   */\n      dup2\n        /* \"#utility.yul\":11045:11068   */\n      swap1\n      pop\n        /* \"#utility.yul\":11021:11070   */\n    tag_214:\n        /* \"#utility.yul\":11083:11163   */\n      tag_215\n        /* \"#utility.yul\":11139:11161   */\n      tag_216\n        /* \"#utility.yul\":11157:11160   */\n      dup6\n        /* \"#utility.yul\":11139:11161   */\n      tag_72\n      jump\t// in\n    tag_216:\n        /* \"#utility.yul\":11129:11137   */\n      dup4\n        /* \"#utility.yul\":11125:11162   */\n      add\n        /* \"#utility.yul\":11112:11123   */\n      dup3\n        /* \"#utility.yul\":11083:11163   */\n      tag_81\n      jump\t// in\n    tag_215:\n        /* \"#utility.yul\":10742:11173   */\n      pop\n      pop\n        /* \"#utility.yul\":10727:11173   */\n    tag_211:\n        /* \"#utility.yul\":10637:11180   */\n      pop\n      pop\n      pop\n      jump\t// out\n        /* \"#utility.yul\":11186:11303   */\n    tag_83:\n        /* \"#utility.yul\":11240:11248   */\n      0x00\n        /* \"#utility.yul\":11290:11295   */\n      dup3\n        /* \"#utility.yul\":11284:11288   */\n      dup3\n        /* \"#utility.yul\":11280:11296   */\n      shr\n        /* \"#utility.yul\":11259:11296   */\n      swap1\n      pop\n        /* \"#utility.yul\":11186:11303   */\n      swap3\n      swap2\n      pop\n      pop\n      jump\t// out\n        /* \"#utility.yul\":11309:11478   */\n    tag_84:\n        /* \"#utility.yul\":11353:11359   */\n      0x00\n        /* \"#utility.yul\":11386:11437   */\n      tag_219\n        /* \"#utility.yul\":11434:11435   */\n      0x00\n        /* \"#utility.yul\":11430:11436   */\n      not\n        /* \"#utility.yul\":11422:11427   */\n      dup5\n        /* \"#utility.yul\":11419:11420   */\n      0x08\n        /* \"#utility.yul\":11415:11428   */\n      mul\n        /* \"#utility.yul\":11386:11437   */\n      tag_83\n      jump\t// in\n    tag_219:\n        /* \"#utility.yul\":11382:11438   */\n      not\n        /* \"#utility.yul\":11467:11471   */\n      dup1\n        /* \"#utility.yul\":11461:11465   */\n      dup4\n        /* \"#utility.yul\":11457:11472   */\n      and\n        /* \"#utility.yul\":11447:11472   */\n      swap2\n      pop\n        /* \"#utility.yul\":11360:11478   */\n      pop\n        /* \"#utility.yul\":11309:11478   */\n      swap3\n      swap2\n      pop\n      pop\n      jump\t// out\n        /* \"#utility.yul\":11483:11778   */\n    tag_85:\n        /* \"#utility.yul\":11559:11563   */\n      0x00\n        /* \"#utility.yul\":11705:11734   */\n      tag_221\n        /* \"#utility.yul\":11730:11733   */\n      dup4\n        /* \"#utility.yul\":11724:11728   */\n      dup4\n        /* \"#utility.yul\":11705:11734   */\n      tag_84\n      jump\t// in\n    tag_221:\n        /* \"#utility.yul\":11697:11734   */\n      swap2\n      pop\n        /* \"#utility.yul\":11767:11770   */\n      dup3\n        /* \"#utility.yul\":11764:11765   */\n      0x02\n        /* \"#utility.yul\":11760:11771   */\n      mul\n        /* \"#utility.yul\":11754:11758   */\n      dup3\n        /* \"#utility.yul\":11751:11772   */\n      or\n        /* \"#utility.yul\":11743:11772   */\n      swap1\n      pop\n        /* \"#utility.yul\":11483:11778   */\n      swap3\n      swap2\n      pop\n      pop\n      jump\t// out\n        /* \"#utility.yul\":11783:13178   */\n    tag_25:\n        /* \"#utility.yul\":11900:11937   */\n      tag_223\n        /* \"#utility.yul\":11933:11936   */\n      dup3\n        /* \"#utility.yul\":11900:11937   */\n      tag_61\n      jump\t// in\n    tag_223:\n        /* \"#utility.yul\":12002:12020   */\n      0xffffffffffffffff\n        /* \"#utility.yul\":11994:12000   */\n      dup2\n        /* \"#utility.yul\":11991:12021   */\n      gt\n        /* \"#utility.yul\":11988:12044   */\n      iszero\n      tag_224\n      jumpi\n        /* \"#utility.yul\":12024:12042   */\n      tag_225\n      tag_45\n      jump\t// in\n    tag_225:\n        /* \"#utility.yul\":11988:12044   */\n    tag_224:\n        /* \"#utility.yul\":12068:12106   */\n      tag_226\n        /* \"#utility.yul\":12100:12104   */\n      dup3\n        /* \"#utility.yul\":12094:12105   */\n      sload\n        /* \"#utility.yul\":12068:12106   */\n      tag_28\n      jump\t// in\n    tag_226:\n        /* \"#utility.yul\":12153:12220   */\n      tag_227\n        /* \"#utility.yul\":12213:12219   */\n      dup3\n        /* \"#utility.yul\":12205:12211   */\n      dup3\n        /* \"#utility.yul\":12199:12203   */\n      dup6\n        /* \"#utility.yul\":12153:12220   */\n      tag_82\n      jump\t// in\n    tag_227:\n        /* \"#utility.yul\":12247:12248   */\n      0x00\n        /* \"#utility.yul\":12271:12275   */\n      0x20\n        /* \"#utility.yul\":12258:12275   */\n      swap1\n      pop\n        /* \"#utility.yul\":12303:12305   */\n      0x1f\n        /* \"#utility.yul\":12295:12301   */\n      dup4\n        /* \"#utility.yul\":12292:12306   */\n      gt\n        /* \"#utility.yul\":12320:12321   */\n      0x01\n        /* \"#utility.yul\":12315:12933   */\n      dup2\n      eq\n      tag_229\n      jumpi\n        /* \"#utility.yul\":12977:12978   */\n      0x00\n        /* \"#utility.yul\":12994:13000   */\n      dup5\n        /* \"#utility.yul\":12991:13068   */\n      iszero\n      tag_230\n      jumpi\n        /* \"#utility.yul\":13043:13052   */\n      dup3\n        /* \"#utility.yul\":13038:13041   */\n      dup8\n        /* \"#utility.yul\":13034:13053   */\n      add\n        /* \"#utility.yul\":13028:13054   */\n      mload\n        /* \"#utility.yul\":13019:13054   */\n      swap1\n      pop\n        /* \"#utility.yul\":12991:13068   */\n    tag_230:\n        /* \"#utility.yul\":13094:13161   */\n      tag_231\n        /* \"#utility.yul\":13154:13160   */\n      dup6\n        /* \"#utility.yul\":13147:13152   */\n      dup3\n        /* \"#utility.yul\":13094:13161   */\n      tag_85\n      jump\t// in\n    tag_231:\n        /* \"#utility.yul\":13088:13092   */\n      dup7\n        /* \"#utility.yul\":13081:13162   */\n      sstore\n        /* \"#utility.yul\":12950:13172   */\n      pop\n        /* \"#utility.yul\":12285:13172   */\n      jump(tag_228)\n        /* \"#utility.yul\":12315:12933   */\n    tag_229:\n        /* \"#utility.yul\":12367:12371   */\n      0x1f\n        /* \"#utility.yul\":12363:12372   */\n      not\n        /* \"#utility.yul\":12355:12361   */\n      dup5\n        /* \"#utility.yul\":12351:12373   */\n      and\n        /* \"#utility.yul\":12401:12438   */\n      tag_232\n        /* \"#utility.yul\":12433:12437   */\n      dup7\n        /* \"#utility.yul\":12401:12438   */\n      tag_71\n      jump\t// in\n    tag_232:\n        /* \"#utility.yul\":12460:12461   */\n      0x00\n        /* \"#utility.yul\":12474:12682   */\n    tag_233:\n        /* \"#utility.yul\":12488:12495   */\n      dup3\n        /* \"#utility.yul\":12485:12486   */\n      dup2\n        /* \"#utility.yul\":12482:12496   */\n      lt\n        /* \"#utility.yul\":12474:12682   */\n      iszero\n      tag_235\n      jumpi\n        /* \"#utility.yul\":12567:12576   */\n      dup5\n        /* \"#utility.yul\":12562:12565   */\n      dup10\n        /* \"#utility.yul\":12558:12577   */\n      add\n        /* \"#utility.yul\":12552:12578   */\n      mload\n        /* \"#utility.yul\":12544:12550   */\n      dup3\n        /* \"#utility.yul\":12537:12579   */\n      sstore\n        /* \"#utility.yul\":12618:12619   */\n      0x01\n        /* \"#utility.yul\":12610:12616   */\n      dup3\n        /* \"#utility.yul\":12606:12620   */\n      add\n        /* \"#utility.yul\":12596:12620   */\n      swap2\n      pop\n        /* \"#utility.yul\":12665:12667   */\n      0x20\n        /* \"#utility.yul\":12654:12663   */\n      dup6\n        /* \"#utility.yul\":12650:12668   */\n      add\n        /* \"#utility.yul\":12637:12668   */\n      swap5\n      pop\n        /* \"#utility.yul\":12511:12515   */\n      0x20\n        /* \"#utility.yul\":12508:12509   */\n      dup2\n        /* \"#utility.yul\":12504:12516   */\n      add\n        /* \"#utility.yul\":12499:12516   */\n      swap1\n      pop\n        /* \"#utility.yul\":12474:12682   */\n      jump(tag_233)\n    tag_235:\n        /* \"#utility.yul\":12710:12716   */\n      dup7\n        /* \"#utility.yul\":12701:12708   */\n      dup4\n        /* \"#utility.yul\":12698:12717   */\n      lt\n        /* \"#utility.yul\":12695:12874   */\n      iszero\n      tag_236\n      jumpi\n        /* \"#utility.yul\":12768:12777   */\n      dup5\n        /* \"#utility.yul\":12763:12766   */\n      dup10\n        /* \"#utility.yul\":12759:12778   */\n      add\n        /* \"#utility.yul\":12753:12779   */\n      mload\n        /* \"#utility.yul\":12811:12859   */\n      tag_237\n        /* \"#utility.yul\":12853:12857   */\n      0x1f\n        /* \"#utility.yul\":12845:12851   */\n      dup10\n        /* \"#utility.yul\":12841:12858   */\n      and\n        /* \"#utility.yul\":12830:12839   */\n      dup3\n        /* \"#utility.yul\":12811:12859   */\n      tag_84\n      jump\t// in\n    tag_237:\n        /* \"#utility.yul\":12803:12809   */\n      dup4\n        /* \"#utility.yul\":12796:12860   */\n      sstore\n        /* \"#utility.yul\":12718:12874   */\n      pop\n        /* \"#utility.yul\":12695:12874   */\n    tag_236:\n        /* \"#utility.yul\":12920:12921   */\n      0x01\n        /* \"#utility.yul\":12916:12917   */\n      0x02\n        /* \"#utility.yul\":12908:12914   */\n      dup9\n        /* \"#utility.yul\":12904:12918   */\n      mul\n        /* \"#utility.yul\":12900:12922   */\n      add\n        /* \"#utility.yul\":12894:12898   */\n      dup9\n        /* \"#utility.yul\":12887:12923   */\n      sstore\n        /* \"#utility.yul\":12322:12933   */\n      pop\n      pop\n      pop\n        /* \"#utility.yul\":12285:13172   */\n    tag_228:\n      pop\n        /* \"#utility.yul\":11875:13178   */\n      pop\n      pop\n      pop\n        /* \"#utility.yul\":11783:13178   */\n      pop\n      pop\n      jump\t// out\n\n    auxdata: 0xa264697066735822122045453ebed598209c67b457b42cd1b43e6cfacc3830766404fb3ae8d015cee29664736f6c63430008120033\n}\n",
				"bytecode": {
					"linkReferences": {},
					"object": "608060405234801561001057600080fd5b50610a8e806100206000396000f3fe608060405234801561001057600080fd5b50600436106100415760003560e01c806327d3282e14610046578063a6c807a914610076578063f220c40e146100a9575b600080fd5b610060600480360381019061005b91906104bd565b6100c7565b60405161006d9190610561565b60405180910390f35b610090600480360381019061008b91906105da565b6101a4565b6040516100a09493929190610695565b60405180910390f35b6100b16102e4565b6040516100be9190610561565b60405180910390f35b6000808484846040516020016100df93929190610745565b6040516020818303038152906040528051906020012090506040518060800160405280868152602001858152602001848152602001828152506000803373ffffffffffffffffffffffffffffffffffffffff1673ffffffffffffffffffffffffffffffffffffffff168152602001908152602001600020600082015181600001908161016b9190610986565b5060208201518160010155604082015181600201908161018b9190610986565b5060608201518160030155905050809150509392505050565b60006020528060005260406000206000915090508060000180546101c7906107a9565b80601f01602080910402602001604051908101604052809291908181526020018280546101f3906107a9565b80156102405780601f1061021557610100808354040283529160200191610240565b820191906000526020600020905b81548152906001019060200180831161022357829003601f168201915b50505050509080600101549080600201805461025b906107a9565b80601f0160208091040260200160405190810160405280929190818152602001828054610287906107a9565b80156102d45780601f106102a9576101008083540402835291602001916102d4565b820191906000526020600020905b8154815290600101906020018083116102b757829003601f168201915b5050505050908060030154905084565b60008060003373ffffffffffffffffffffffffffffffffffffffff1673ffffffffffffffffffffffffffffffffffffffff16815260200190815260200160002060030154905090565b6000604051905090565b600080fd5b600080fd5b600080fd5b600080fd5b6000601f19601f8301169050919050565b7f4e487b7100000000000000000000000000000000000000000000000000000000600052604160045260246000fd5b6103948261034b565b810181811067ffffffffffffffff821117156103b3576103b261035c565b5b80604052505050565b60006103c661032d565b90506103d2828261038b565b919050565b600067ffffffffffffffff8211156103f2576103f161035c565b5b6103fb8261034b565b9050602081019050919050565b82818337600083830152505050565b600061042a610425846103d7565b6103bc565b90508281526020810184848401111561044657610445610346565b5b610451848285610408565b509392505050565b600082601f83011261046e5761046d610341565b5b813561047e848260208601610417565b91505092915050565b6000819050919050565b61049a81610487565b81146104a557600080fd5b50565b6000813590506104b781610491565b92915050565b6000806000606084860312156104d6576104d5610337565b5b600084013567ffffffffffffffff8111156104f4576104f361033c565b5b61050086828701610459565b9350506020610511868287016104a8565b925050604084013567ffffffffffffffff8111156105325761053161033c565b5b61053e86828701610459565b9150509250925092565b6000819050919050565b61055b81610548565b82525050565b60006020820190506105766000830184610552565b92915050565b600073ffffffffffffffffffffffffffffffffffffffff82169050919050565b60006105a78261057c565b9050919050565b6105b78161059c565b81146105c257600080fd5b50565b6000813590506105d4816105ae565b92915050565b6000602082840312156105f0576105ef610337565b5b60006105fe848285016105c5565b91505092915050565b600081519050919050565b600082825260208201905092915050565b60005b83811015610641578082015181840152602081019050610626565b60008484015250505050565b600061065882610607565b6106628185610612565b9350610672818560208601610623565b61067b8161034b565b840191505092915050565b61068f81610487565b82525050565b600060808201905081810360008301526106af818761064d565b90506106be6020830186610686565b81810360408301526106d0818561064d565b90506106df6060830184610552565b95945050505050565b600081905092915050565b60006106fe82610607565b61070881856106e8565b9350610718818560208601610623565b80840191505092915050565b6000819050919050565b61073f61073a82610487565b610724565b82525050565b600061075182866106f3565b915061075d828561072e565b60208201915061076d82846106f3565b9150819050949350505050565b7f4e487b7100000000000000000000000000000000000000000000000000000000600052602260045260246000fd5b600060028204905060018216806107c157607f821691505b6020821081036107d4576107d361077a565b5b50919050565b60008190508160005260206000209050919050565b60006020601f8301049050919050565b600082821b905092915050565b60006008830261083c7fffffffffffffffffffffffffffffffffffffffffffffffffffffffffffffffff826107ff565b61084686836107ff565b95508019841693508086168417925050509392505050565b6000819050919050565b600061088361087e61087984610487565b61085e565b610487565b9050919050565b6000819050919050565b61089d83610868565b6108b16108a98261088a565b84845461080c565b825550505050565b600090565b6108c66108b9565b6108d1818484610894565b505050565b5b818110156108f5576108ea6000826108be565b6001810190506108d7565b5050565b601f82111561093a5761090b816107da565b610914846107ef565b81016020851015610923578190505b61093761092f856107ef565b8301826108d6565b50505b505050565b600082821c905092915050565b600061095d6000198460080261093f565b1980831691505092915050565b6000610976838361094c565b9150826002028217905092915050565b61098f82610607565b67ffffffffffffffff8111156109a8576109a761035c565b5b6109b282546107a9565b6109bd8282856108f9565b600060209050601f8311600181146109f057600084156109de578287015190505b6109e8858261096a565b865550610a50565b601f1984166109fe866107da565b60005b82811015610a2657848901518255600182019150602085019450602081019050610a01565b86831015610a435784890151610a3f601f89168261094c565b8355505b6001600288020188555050505b50505050505056fea264697066735822122045453ebed598209c67b457b42cd1b43e6cfacc3830766404fb3ae8d015cee29664736f6c63430008120033",
					"opcodes": "PUSH1 0x80 PUSH1 0x40 MSTORE CALLVALUE DUP1 ISZERO PUSH2 0x10 JUMPI PUSH1 0x0 DUP1 REVERT JUMPDEST POP PUSH2 0xA8E DUP1 PUSH2 0x20 PUSH1 0x0 CODECOPY PUSH1 0x0 RETURN INVALID PUSH1 0x80 PUSH1 0x40 MSTORE CALLVALUE DUP1 ISZERO PUSH2 0x10 JUMPI PUSH1 0x0 DUP1 REVERT JUMPDEST POP PUSH1 0x4 CALLDATASIZE LT PUSH2 0x41 JUMPI PUSH1 0x0 CALLDATALOAD PUSH1 0xE0 SHR DUP1 PUSH4 0x27D3282E EQ PUSH2 0x46 JUMPI DUP1 PUSH4 0xA6C807A9 EQ PUSH2 0x76 JUMPI DUP1 PUSH4 0xF220C40E EQ PUSH2 0xA9 JUMPI JUMPDEST PUSH1 0x0 DUP1 REVERT JUMPDEST PUSH2 0x60 PUSH1 0x4 DUP1 CALLDATASIZE SUB DUP2 ADD SWAP1 PUSH2 0x5B SWAP2 SWAP1 PUSH2 0x4BD JUMP JUMPDEST PUSH2 0xC7 JUMP JUMPDEST PUSH1 0x40 MLOAD PUSH2 0x6D SWAP2 SWAP1 PUSH2 0x561 JUMP JUMPDEST PUSH1 0x40 MLOAD DUP1 SWAP2 SUB SWAP1 RETURN JUMPDEST PUSH2 0x90 PUSH1 0x4 DUP1 CALLDATASIZE SUB DUP2 ADD SWAP1 PUSH2 0x8B SWAP2 SWAP1 PUSH2 0x5DA JUMP JUMPDEST PUSH2 0x1A4 JUMP JUMPDEST PUSH1 0x40 MLOAD PUSH2 0xA0 SWAP5 SWAP4 SWAP3 SWAP2 SWAP1 PUSH2 0x695 JUMP JUMPDEST PUSH1 0x40 MLOAD DUP1 SWAP2 SUB SWAP1 RETURN JUMPDEST PUSH2 0xB1 PUSH2 0x2E4 JUMP JUMPDEST PUSH1 0x40 MLOAD PUSH2 0xBE SWAP2 SWAP1 PUSH2 0x561 JUMP JUMPDEST PUSH1 0x40 MLOAD DUP1 SWAP2 SUB SWAP1 RETURN JUMPDEST PUSH1 0x0 DUP1 DUP5 DUP5 DUP5 PUSH1 0x40 MLOAD PUSH1 0x20 ADD PUSH2 0xDF SWAP4 SWAP3 SWAP2 SWAP1 PUSH2 0x745 JUMP JUMPDEST PUSH1 0x40 MLOAD PUSH1 0x20 DUP2 DUP4 SUB SUB DUP2 MSTORE SWAP1 PUSH1 0x40 MSTORE DUP1 MLOAD SWAP1 PUSH1 0x20 ADD KECCAK256 SWAP1 POP PUSH1 0x40 MLOAD DUP1 PUSH1 0x80 ADD PUSH1 0x40 MSTORE DUP1 DUP7 DUP2 MSTORE PUSH1 0x20 ADD DUP6 DUP2 MSTORE PUSH1 0x20 ADD DUP5 DUP2 MSTORE PUSH1 0x20 ADD DUP3 DUP2 MSTORE POP PUSH1 0x0 DUP1 CALLER PUSH20 0xFFFFFFFFFFFFFFFFFFFFFFFFFFFFFFFFFFFFFFFF AND PUSH20 0xFFFFFFFFFFFFFFFFFFFFFFFFFFFFFFFFFFFFFFFF AND DUP2 MSTORE PUSH1 0x20 ADD SWAP1 DUP2 MSTORE PUSH1 0x20 ADD PUSH1 0x0 KECCAK256 PUSH1 0x0 DUP3 ADD MLOAD DUP2 PUSH1 0x0 ADD SWAP1 DUP2 PUSH2 0x16B SWAP2 SWAP1 PUSH2 0x986 JUMP JUMPDEST POP PUSH1 0x20 DUP3 ADD MLOAD DUP2 PUSH1 0x1 ADD SSTORE PUSH1 0x40 DUP3 ADD MLOAD DUP2 PUSH1 0x2 ADD SWAP1 DUP2 PUSH2 0x18B SWAP2 SWAP1 PUSH2 0x986 JUMP JUMPDEST POP PUSH1 0x60 DUP3 ADD MLOAD DUP2 PUSH1 0x3 ADD SSTORE SWAP1 POP POP DUP1 SWAP2 POP POP SWAP4 SWAP3 POP POP POP JUMP JUMPDEST PUSH1 0x0 PUSH1 0x20 MSTORE DUP1 PUSH1 0x0 MSTORE PUSH1 0x40 PUSH1 0x0 KECCAK256 PUSH1 0x0 SWAP2 POP SWAP1 POP DUP1 PUSH1 0x0 ADD DUP1 SLOAD PUSH2 0x1C7 SWAP1 PUSH2 0x7A9 JUMP JUMPDEST DUP1 PUSH1 0x1F ADD PUSH1 0x20 DUP1 SWAP2 DIV MUL PUSH1 0x20 ADD PUSH1 0x40 MLOAD SWAP1 DUP2 ADD PUSH1 0x40 MSTORE DUP1 SWAP3 SWAP2 SWAP1 DUP2 DUP2 MSTORE PUSH1 0x20 ADD DUP3 DUP1 SLOAD PUSH2 0x1F3 SWAP1 PUSH2 0x7A9 JUMP JUMPDEST DUP1 ISZERO PUSH2 0x240 JUMPI DUP1 PUSH1 0x1F LT PUSH2 0x215 JUMPI PUSH2 0x100 DUP1 DUP4 SLOAD DIV MUL DUP4 MSTORE SWAP2 PUSH1 0x20 ADD SWAP2 PUSH2 0x240 JUMP JUMPDEST DUP3 ADD SWAP2 SWAP1 PUSH1 0x0 MSTORE PUSH1 0x20 PUSH1 0x0 KECCAK256 SWAP1 JUMPDEST DUP2 SLOAD DUP2 MSTORE SWAP1 PUSH1 0x1 ADD SWAP1 PUSH1 0x20 ADD DUP1 DUP4 GT PUSH2 0x223 JUMPI DUP3 SWAP1 SUB PUSH1 0x1F AND DUP3 ADD SWAP2 JUMPDEST POP POP POP POP POP SWAP1 DUP1 PUSH1 0x1 ADD SLOAD SWAP1 DUP1 PUSH1 0x2 ADD DUP1 SLOAD PUSH2 0x25B SWAP1 PUSH2 0x7A9 JUMP JUMPDEST DUP1 PUSH1 0x1F ADD PUSH1 0x20 DUP1 SWAP2 DIV MUL PUSH1 0x20 ADD PUSH1 0x40 MLOAD SWAP1 DUP2 ADD PUSH1 0x40 MSTORE DUP1 SWAP3 SWAP2 SWAP1 DUP2 DUP2 MSTORE PUSH1 0x20 ADD DUP3 DUP1 SLOAD PUSH2 0x287 SWAP1 PUSH2 0x7A9 JUMP JUMPDEST DUP1 ISZERO PUSH2 0x2D4 JUMPI DUP1 PUSH1 0x1F LT PUSH2 0x2A9 JUMPI PUSH2 0x100 DUP1 DUP4 SLOAD DIV MUL DUP4 MSTORE SWAP2 PUSH1 0x20 ADD SWAP2 PUSH2 0x2D4 JUMP JUMPDEST DUP3 ADD SWAP2 SWAP1 PUSH1 0x0 MSTORE PUSH1 0x20 PUSH1 0x0 KECCAK256 SWAP1 JUMPDEST DUP2 SLOAD DUP2 MSTORE SWAP1 PUSH1 0x1 ADD SWAP1 PUSH1 0x20 ADD DUP1 DUP4 GT PUSH2 0x2B7 JUMPI DUP3 SWAP1 SUB PUSH1 0x1F AND DUP3 ADD SWAP2 JUMPDEST POP POP POP POP POP SWAP1 DUP1 PUSH1 0x3 ADD SLOAD SWAP1 POP DUP5 JUMP JUMPDEST PUSH1 0x0 DUP1 PUSH1 0x0 CALLER PUSH20 0xFFFFFFFFFFFFFFFFFFFFFFFFFFFFFFFFFFFFFFFF AND PUSH20 0xFFFFFFFFFFFFFFFFFFFFFFFFFFFFFFFFFFFFFFFF AND DUP2 MSTORE PUSH1 0x20 ADD SWAP1 DUP2 MSTORE PUSH1 0x20 ADD PUSH1 0x0 KECCAK256 PUSH1 0x3 ADD SLOAD SWAP1 POP SWAP1 JUMP JUMPDEST PUSH1 0x0 PUSH1 0x40 MLOAD SWAP1 POP SWAP1 JUMP JUMPDEST PUSH1 0x0 DUP1 REVERT JUMPDEST PUSH1 0x0 DUP1 REVERT JUMPDEST PUSH1 0x0 DUP1 REVERT JUMPDEST PUSH1 0x0 DUP1 REVERT JUMPDEST PUSH1 0x0 PUSH1 0x1F NOT PUSH1 0x1F DUP4 ADD AND SWAP1 POP SWAP2 SWAP1 POP JUMP JUMPDEST PUSH32 0x4E487B7100000000000000000000000000000000000000000000000000000000 PUSH1 0x0 MSTORE PUSH1 0x41 PUSH1 0x4 MSTORE PUSH1 0x24 PUSH1 0x0 REVERT JUMPDEST PUSH2 0x394 DUP3 PUSH2 0x34B JUMP JUMPDEST DUP2 ADD DUP2 DUP2 LT PUSH8 0xFFFFFFFFFFFFFFFF DUP3 GT OR ISZERO PUSH2 0x3B3 JUMPI PUSH2 0x3B2 PUSH2 0x35C JUMP JUMPDEST JUMPDEST DUP1 PUSH1 0x40 MSTORE POP POP POP JUMP JUMPDEST PUSH1 0x0 PUSH2 0x3C6 PUSH2 0x32D JUMP JUMPDEST SWAP1 POP PUSH2 0x3D2 DUP3 DUP3 PUSH2 0x38B JUMP JUMPDEST SWAP2 SWAP1 POP JUMP JUMPDEST PUSH1 0x0 PUSH8 0xFFFFFFFFFFFFFFFF DUP3 GT ISZERO PUSH2 0x3F2 JUMPI PUSH2 0x3F1 PUSH2 0x35C JUMP JUMPDEST JUMPDEST PUSH2 0x3FB DUP3 PUSH2 0x34B JUMP JUMPDEST SWAP1 POP PUSH1 0x20 DUP2 ADD SWAP1 POP SWAP2 SWAP1 POP JUMP JUMPDEST DUP3 DUP2 DUP4 CALLDATACOPY PUSH1 0x0 DUP4 DUP4 ADD MSTORE POP POP POP JUMP JUMPDEST PUSH1 0x0 PUSH2 0x42A PUSH2 0x425 DUP5 PUSH2 0x3D7 JUMP JUMPDEST PUSH2 0x3BC JUMP JUMPDEST SWAP1 POP DUP3 DUP2 MSTORE PUSH1 0x20 DUP2 ADD DUP5 DUP5 DUP5 ADD GT ISZERO PUSH2 0x446 JUMPI PUSH2 0x445 PUSH2 0x346 JUMP JUMPDEST JUMPDEST PUSH2 0x451 DUP5 DUP3 DUP6 PUSH2 0x408 JUMP JUMPDEST POP SWAP4 SWAP3 POP POP POP JUMP JUMPDEST PUSH1 0x0 DUP3 PUSH1 0x1F DUP4 ADD SLT PUSH2 0x46E JUMPI PUSH2 0x46D PUSH2 0x341 JUMP JUMPDEST JUMPDEST DUP2 CALLDATALOAD PUSH2 0x47E DUP5 DUP3 PUSH1 0x20 DUP7 ADD PUSH2 0x417 JUMP JUMPDEST SWAP2 POP POP SWAP3 SWAP2 POP POP JUMP JUMPDEST PUSH1 0x0 DUP2 SWAP1 POP SWAP2 SWAP1 POP JUMP JUMPDEST PUSH2 0x49A DUP2 PUSH2 0x487 JUMP JUMPDEST DUP2 EQ PUSH2 0x4A5 JUMPI PUSH1 0x0 DUP1 REVERT JUMPDEST POP JUMP JUMPDEST PUSH1 0x0 DUP2 CALLDATALOAD SWAP1 POP PUSH2 0x4B7 DUP2 PUSH2 0x491 JUMP JUMPDEST SWAP3 SWAP2 POP POP JUMP JUMPDEST PUSH1 0x0 DUP1 PUSH1 0x0 PUSH1 0x60 DUP5 DUP7 SUB SLT ISZERO PUSH2 0x4D6 JUMPI PUSH2 0x4D5 PUSH2 0x337 JUMP JUMPDEST JUMPDEST PUSH1 0x0 DUP5 ADD CALLDATALOAD PUSH8 0xFFFFFFFFFFFFFFFF DUP2 GT ISZERO PUSH2 0x4F4 JUMPI PUSH2 0x4F3 PUSH2 0x33C JUMP JUMPDEST JUMPDEST PUSH2 0x500 DUP7 DUP3 DUP8 ADD PUSH2 0x459 JUMP JUMPDEST SWAP4 POP POP PUSH1 0x20 PUSH2 0x511 DUP7 DUP3 DUP8 ADD PUSH2 0x4A8 JUMP JUMPDEST SWAP3 POP POP PUSH1 0x40 DUP5 ADD CALLDATALOAD PUSH8 0xFFFFFFFFFFFFFFFF DUP2 GT ISZERO PUSH2 0x532 JUMPI PUSH2 0x531 PUSH2 0x33C JUMP JUMPDEST JUMPDEST PUSH2 0x53E DUP7 DUP3 DUP8 ADD PUSH2 0x459 JUMP JUMPDEST SWAP2 POP POP SWAP3 POP SWAP3 POP SWAP3 JUMP JUMPDEST PUSH1 0x0 DUP2 SWAP1 POP SWAP2 SWAP1 POP JUMP JUMPDEST PUSH2 0x55B DUP2 PUSH2 0x548 JUMP JUMPDEST DUP3 MSTORE POP POP JUMP JUMPDEST PUSH1 0x0 PUSH1 0x20 DUP3 ADD SWAP1 POP PUSH2 0x576 PUSH1 0x0 DUP4 ADD DUP5 PUSH2 0x552 JUMP JUMPDEST SWAP3 SWAP2 POP POP JUMP JUMPDEST PUSH1 0x0 PUSH20 0xFFFFFFFFFFFFFFFFFFFFFFFFFFFFFFFFFFFFFFFF DUP3 AND SWAP1 POP SWAP2 SWAP1 POP JUMP JUMPDEST PUSH1 0x0 PUSH2 0x5A7 DUP3 PUSH2 0x57C JUMP JUMPDEST SWAP1 POP SWAP2 SWAP1 POP JUMP JUMPDEST PUSH2 0x5B7 DUP2 PUSH2 0x59C JUMP JUMPDEST DUP2 EQ PUSH2 0x5C2 JUMPI PUSH1 0x0 DUP1 REVERT JUMPDEST POP JUMP JUMPDEST PUSH1 0x0 DUP2 CALLDATALOAD SWAP1 POP PUSH2 0x5D4 DUP2 PUSH2 0x5AE JUMP JUMPDEST SWAP3 SWAP2 POP POP JUMP JUMPDEST PUSH1 0x0 PUSH1 0x20 DUP3 DUP5 SUB SLT ISZERO PUSH2 0x5F0 JUMPI PUSH2 0x5EF PUSH2 0x337 JUMP JUMPDEST JUMPDEST PUSH1 0x0 PUSH2 0x5FE DUP5 DUP3 DUP6 ADD PUSH2 0x5C5 JUMP JUMPDEST SWAP2 POP POP SWAP3 SWAP2 POP POP JUMP JUMPDEST PUSH1 0x0 DUP2 MLOAD SWAP1 POP SWAP2 SWAP1 POP JUMP JUMPDEST PUSH1 0x0 DUP3 DUP3 MSTORE PUSH1 0x20 DUP3 ADD SWAP1 POP SWAP3 SWAP2 POP POP JUMP JUMPDEST PUSH1 0x0 JUMPDEST DUP4 DUP2 LT ISZERO PUSH2 0x641 JUMPI DUP1 DUP3 ADD MLOAD DUP2 DUP5 ADD MSTORE PUSH1 0x20 DUP2 ADD SWAP1 POP PUSH2 0x626 JUMP JUMPDEST PUSH1 0x0 DUP5 DUP5 ADD MSTORE POP POP POP POP JUMP JUMPDEST PUSH1 0x0 PUSH2 0x658 DUP3 PUSH2 0x607 JUMP JUMPDEST PUSH2 0x662 DUP2 DUP6 PUSH2 0x612 JUMP JUMPDEST SWAP4 POP PUSH2 0x672 DUP2 DUP6 PUSH1 0x20 DUP7 ADD PUSH2 0x623 JUMP JUMPDEST PUSH2 0x67B DUP2 PUSH2 0x34B JUMP JUMPDEST DUP5 ADD SWAP2 POP POP SWAP3 SWAP2 POP POP JUMP JUMPDEST PUSH2 0x68F DUP2 PUSH2 0x487 JUMP JUMPDEST DUP3 MSTORE POP POP JUMP JUMPDEST PUSH1 0x0 PUSH1 0x80 DUP3 ADD SWAP1 POP DUP2 DUP2 SUB PUSH1 0x0 DUP4 ADD MSTORE PUSH2 0x6AF DUP2 DUP8 PUSH2 0x64D JUMP JUMPDEST SWAP1 POP PUSH2 0x6BE PUSH1 0x20 DUP4 ADD DUP7 PUSH2 0x686 JUMP JUMPDEST DUP2 DUP2 SUB PUSH1 0x40 DUP4 ADD MSTORE PUSH2 0x6D0 DUP2 DUP6 PUSH2 0x64D JUMP JUMPDEST SWAP1 POP PUSH2 0x6DF PUSH1 0x60 DUP4 ADD DUP5 PUSH2 0x552 JUMP JUMPDEST SWAP6 SWAP5 POP POP POP POP POP JUMP JUMPDEST PUSH1 0x0 DUP2 SWAP1 POP SWAP3 SWAP2 POP POP JUMP JUMPDEST PUSH1 0x0 PUSH2 0x6FE DUP3 PUSH2 0x607 JUMP JUMPDEST PUSH2 0x708 DUP2 DUP6 PUSH2 0x6E8 JUMP JUMPDEST SWAP4 POP PUSH2 0x718 DUP2 DUP6 PUSH1 0x20 DUP7 ADD PUSH2 0x623 JUMP JUMPDEST DUP1 DUP5 ADD SWAP2 POP POP SWAP3 SWAP2 POP POP JUMP JUMPDEST PUSH1 0x0 DUP2 SWAP1 POP SWAP2 SWAP1 POP JUMP JUMPDEST PUSH2 0x73F PUSH2 0x73A DUP3 PUSH2 0x487 JUMP JUMPDEST PUSH2 0x724 JUMP JUMPDEST DUP3 MSTORE POP POP JUMP JUMPDEST PUSH1 0x0 PUSH2 0x751 DUP3 DUP7 PUSH2 0x6F3 JUMP JUMPDEST SWAP2 POP PUSH2 0x75D DUP3 DUP6 PUSH2 0x72E JUMP JUMPDEST PUSH1 0x20 DUP3 ADD SWAP2 POP PUSH2 0x76D DUP3 DUP5 PUSH2 0x6F3 JUMP JUMPDEST SWAP2 POP DUP2 SWAP1 POP SWAP5 SWAP4 POP POP POP POP JUMP JUMPDEST PUSH32 0x4E487B7100000000000000000000000000000000000000000000000000000000 PUSH1 0x0 MSTORE PUSH1 0x22 PUSH1 0x4 MSTORE PUSH1 0x24 PUSH1 0x0 REVERT JUMPDEST PUSH1 0x0 PUSH1 0x2 DUP3 DIV SWAP1 POP PUSH1 0x1 DUP3 AND DUP1 PUSH2 0x7C1 JUMPI PUSH1 0x7F DUP3 AND SWAP2 POP JUMPDEST PUSH1 0x20 DUP3 LT DUP2 SUB PUSH2 0x7D4 JUMPI PUSH2 0x7D3 PUSH2 0x77A JUMP JUMPDEST JUMPDEST POP SWAP2 SWAP1 POP JUMP JUMPDEST PUSH1 0x0 DUP2 SWAP1 POP DUP2 PUSH1 0x0 MSTORE PUSH1 0x20 PUSH1 0x0 KECCAK256 SWAP1 POP SWAP2 SWAP1 POP JUMP JUMPDEST PUSH1 0x0 PUSH1 0x20 PUSH1 0x1F DUP4 ADD DIV SWAP1 POP SWAP2 SWAP1 POP JUMP JUMPDEST PUSH1 0x0 DUP3 DUP3 SHL SWAP1 POP SWAP3 SWAP2 POP POP JUMP JUMPDEST PUSH1 0x0 PUSH1 0x8 DUP4 MUL PUSH2 0x83C PUSH32 0xFFFFFFFFFFFFFFFFFFFFFFFFFFFFFFFFFFFFFFFFFFFFFFFFFFFFFFFFFFFFFFFF DUP3 PUSH2 0x7FF JUMP JUMPDEST PUSH2 0x846 DUP7 DUP4 PUSH2 0x7FF JUMP JUMPDEST SWAP6 POP DUP1 NOT DUP5 AND SWAP4 POP DUP1 DUP7 AND DUP5 OR SWAP3 POP POP POP SWAP4 SWAP3 POP POP POP JUMP JUMPDEST PUSH1 0x0 DUP2 SWAP1 POP SWAP2 SWAP1 POP JUMP JUMPDEST PUSH1 0x0 PUSH2 0x883 PUSH2 0x87E PUSH2 0x879 DUP5 PUSH2 0x487 JUMP JUMPDEST PUSH2 0x85E JUMP JUMPDEST PUSH2 0x487 JUMP JUMPDEST SWAP1 POP SWAP2 SWAP1 POP JUMP JUMPDEST PUSH1 0x0 DUP2 SWAP1 POP SWAP2 SWAP1 POP JUMP JUMPDEST PUSH2 0x89D DUP4 PUSH2 0x868 JUMP JUMPDEST PUSH2 0x8B1 PUSH2 0x8A9 DUP3 PUSH2 0x88A JUMP JUMPDEST DUP5 DUP5 SLOAD PUSH2 0x80C JUMP JUMPDEST DUP3 SSTORE POP POP POP POP JUMP JUMPDEST PUSH1 0x0 SWAP1 JUMP JUMPDEST PUSH2 0x8C6 PUSH2 0x8B9 JUMP JUMPDEST PUSH2 0x8D1 DUP2 DUP5 DUP5 PUSH2 0x894 JUMP JUMPDEST POP POP POP JUMP JUMPDEST JUMPDEST DUP2 DUP2 LT ISZERO PUSH2 0x8F5 JUMPI PUSH2 0x8EA PUSH1 0x0 DUP3 PUSH2 0x8BE JUMP JUMPDEST PUSH1 0x1 DUP2 ADD SWAP1 POP PUSH2 0x8D7 JUMP JUMPDEST POP POP JUMP JUMPDEST PUSH1 0x1F DUP3 GT ISZERO PUSH2 0x93A JUMPI PUSH2 0x90B DUP2 PUSH2 0x7DA JUMP JUMPDEST PUSH2 0x914 DUP5 PUSH2 0x7EF JUMP JUMPDEST DUP2 ADD PUSH1 0x20 DUP6 LT ISZERO PUSH2 0x923 JUMPI DUP2 SWAP1 POP JUMPDEST PUSH2 0x937 PUSH2 0x92F DUP6 PUSH2 0x7EF JUMP JUMPDEST DUP4 ADD DUP3 PUSH2 0x8D6 JUMP JUMPDEST POP POP JUMPDEST POP POP POP JUMP JUMPDEST PUSH1 0x0 DUP3 DUP3 SHR SWAP1 POP SWAP3 SWAP2 POP POP JUMP JUMPDEST PUSH1 0x0 PUSH2 0x95D PUSH1 0x0 NOT DUP5 PUSH1 0x8 MUL PUSH2 0x93F JUMP JUMPDEST NOT DUP1 DUP4 AND SWAP2 POP POP SWAP3 SWAP2 POP POP JUMP JUMPDEST PUSH1 0x0 PUSH2 0x976 DUP4 DUP4 PUSH2 0x94C JUMP JUMPDEST SWAP2 POP DUP3 PUSH1 0x2 MUL DUP3 OR SWAP1 POP SWAP3 SWAP2 POP POP JUMP JUMPDEST PUSH2 0x98F DUP3 PUSH2 0x607 JUMP JUMPDEST PUSH8 0xFFFFFFFFFFFFFFFF DUP2 GT ISZERO PUSH2 0x9A8 JUMPI PUSH2 0x9A7 PUSH2 0x35C JUMP JUMPDEST JUMPDEST PUSH2 0x9B2 DUP3 SLOAD PUSH2 0x7A9 JUMP JUMPDEST PUSH2 0x9BD DUP3 DUP3 DUP6 PUSH2 0x8F9 JUMP JUMPDEST PUSH1 0x0 PUSH1 0x20 SWAP1 POP PUSH1 0x1F DUP4 GT PUSH1 0x1 DUP2 EQ PUSH2 0x9F0 JUMPI PUSH1 0x0 DUP5 ISZERO PUSH2 0x9DE JUMPI DUP3 DUP8 ADD MLOAD SWAP1 POP JUMPDEST PUSH2 0x9E8 DUP6 DUP3 PUSH2 0x96A JUMP JUMPDEST DUP7 SSTORE POP PUSH2 0xA50 JUMP JUMPDEST PUSH1 0x1F NOT DUP5 AND PUSH2 0x9FE DUP7 PUSH2 0x7DA JUMP JUMPDEST PUSH1 0x0 JUMPDEST DUP3 DUP2 LT ISZERO PUSH2 0xA26 JUMPI DUP5 DUP10 ADD MLOAD DUP3 SSTORE PUSH1 0x1 DUP3 ADD SWAP2 POP PUSH1 0x20 DUP6 ADD SWAP5 POP PUSH1 0x20 DUP2 ADD SWAP1 POP PUSH2 0xA01 JUMP JUMPDEST DUP7 DUP4 LT ISZERO PUSH2 0xA43 JUMPI DUP5 DUP10 ADD MLOAD PUSH2 0xA3F PUSH1 0x1F DUP10 AND DUP3 PUSH2 0x94C JUMP JUMPDEST DUP4 SSTORE POP JUMPDEST PUSH1 0x1 PUSH1 0x2 DUP9 MUL ADD DUP9 SSTORE POP POP POP JUMPDEST POP POP POP POP POP POP JUMP INVALID LOG2 PUSH5 0x6970667358 0x22 SLT KECCAK256 GASLIMIT GASLIMIT RETURNDATACOPY 0xBE 0xD5 SWAP9 KECCAK256 SWAP13 PUSH8 0xB457B42CD1B43E6C STATICCALL 0xCC CODESIZE ADDRESS PUSH23 0x6404FB3AE8D015CEE29664736F6C634300081200330000 "
				},
				"gasEstimates": {
					"creation": {
						"codeDepositCost": "540400",
						"executionCost": "575",
						"totalCost": "540975"
					},
					"external": {
						"getStudentTokenId()": "2554",
						"students(address)": "infinite",
						"tokenizeStudent(string,uint256,string)": "infinite"
					}
				},
				"methodIdentifiers": {
					"getStudentTokenId()": "f220c40e",
					"students(address)": "a6c807a9",
					"tokenizeStudent(string,uint256,string)": "27d3282e"
				}
			},
			"storageLayout": {
				"storage": [
					{
						"astId": 15,
						"contract": "arraymapingthroughthokenid.sol:StudentTokenization",
						"label": "students",
						"offset": 0,
						"slot": "0",
						"type": "t_mapping(t_address,t_struct(Student)10_storage)"
					}
				],
				"types": {
					"t_address": {
						"encoding": "inplace",
						"label": "address",
						"numberOfBytes": "20"
					},
					"t_bytes32": {
						"encoding": "inplace",
						"label": "bytes32",
						"numberOfBytes": "32"
					},
					"t_mapping(t_address,t_struct(Student)10_storage)": {
						"encoding": "mapping",
						"key": "t_address",
						"label": "mapping(address => struct StudentTokenization.Student)",
						"numberOfBytes": "32",
						"value": "t_struct(Student)10_storage"
					},
					"t_string_storage": {
						"encoding": "bytes",
						"label": "string",
						"numberOfBytes": "32"
					},
					"t_struct(Student)10_storage": {
						"encoding": "inplace",
						"label": "struct StudentTokenization.Student",
						"members": [
							{
								"astId": 3,
								"contract": "arraymapingthroughthokenid.sol:StudentTokenization",
								"label": "name",
								"offset": 0,
								"slot": "0",
								"type": "t_string_storage"
							},
							{
								"astId": 5,
								"contract": "arraymapingthroughthokenid.sol:StudentTokenization",
								"label": "age",
								"offset": 0,
								"slot": "1",
								"type": "t_uint256"
							},
							{
								"astId": 7,
								"contract": "arraymapingthroughthokenid.sol:StudentTokenization",
								"label": "grade",
								"offset": 0,
								"slot": "2",
								"type": "t_string_storage"
							},
							{
								"astId": 9,
								"contract": "arraymapingthroughthokenid.sol:StudentTokenization",
								"label": "tokenId",
								"offset": 0,
								"slot": "3",
								"type": "t_bytes32"
							}
						],
						"numberOfBytes": "128"
					},
					"t_uint256": {
						"encoding": "inplace",
						"label": "uint256",
						"numberOfBytes": "32"
					}
				}
			},
			"userdoc": {
				"kind": "user",
				"methods": {},
				"version": 1
			}
		}
	}
}