{
	"structarray.sol": {
		"demo": {
			"abi": [
				{
					"inputs": [
						{
							"internalType": "uint256",
							"name": "index",
							"type": "uint256"
						},
						{
							"internalType": "string",
							"name": "_name",
							"type": "string"
						},
						{
							"internalType": "uint256",
							"name": "_roll",
							"type": "uint256"
						},
						{
							"internalType": "bool",
							"name": "_pass",
							"type": "bool"
						},
						{
							"internalType": "address",
							"name": "_wallet",
							"type": "address"
						}
					],
					"name": "insertstudent",
					"outputs": [],
					"stateMutability": "nonpayable",
					"type": "function"
				},
				{
					"inputs": [
						{
							"internalType": "uint256",
							"name": "index",
							"type": "uint256"
						}
					],
					"name": "returnstudent",
					"outputs": [
						{
							"components": [
								{
									"internalType": "string",
									"name": "name",
									"type": "string"
								},
								{
									"internalType": "uint256",
									"name": "roll",
									"type": "uint256"
								},
								{
									"internalType": "bool",
									"name": "pass",
									"type": "bool"
								},
								{
									"internalType": "address",
									"name": "wallet",
									"type": "address"
								}
							],
							"internalType": "struct demo.student",
							"name": "",
							"type": "tuple"
						}
					],
					"stateMutability": "view",
					"type": "function"
				},
				{
					"inputs": [
						{
							"internalType": "uint256",
							"name": "",
							"type": "uint256"
						}
					],
					"name": "s",
					"outputs": [
						{
							"internalType": "string",
							"name": "name",
							"type": "string"
						},
						{
							"internalType": "uint256",
							"name": "roll",
							"type": "uint256"
						},
						{
							"internalType": "bool",
							"name": "pass",
							"type": "bool"
						},
						{
							"internalType": "address",
							"name": "wallet",
							"type": "address"
						}
					],
					"stateMutability": "view",
					"type": "function"
				}
			],
			"devdoc": {
				"kind": "dev",
				"methods": {},
				"version": 1
			},
			"evm": {
				"assembly": "    /* \"structarray.sol\":73:508  contract demo{... */\n  mstore(0x40, 0x80)\n  callvalue\n  dup1\n  iszero\n  tag_1\n  jumpi\n  0x00\n  dup1\n  revert\ntag_1:\n  pop\n  dataSize(sub_0)\n  dup1\n  dataOffset(sub_0)\n  0x00\n  codecopy\n  0x00\n  return\nstop\n\nsub_0: assembly {\n        /* \"structarray.sol\":73:508  contract demo{... */\n      mstore(0x40, 0x80)\n      callvalue\n      dup1\n      iszero\n      tag_1\n      jumpi\n      0x00\n      dup1\n      revert\n    tag_1:\n      pop\n      jumpi(tag_2, lt(calldatasize, 0x04))\n      shr(0xe0, calldataload(0x00))\n      dup1\n      0x52efd685\n      eq\n      tag_3\n      jumpi\n      dup1\n      0x670e3392\n      eq\n      tag_4\n      jumpi\n      dup1\n      0x9bce9ec1\n      eq\n      tag_5\n      jumpi\n    tag_2:\n      0x00\n      dup1\n      revert\n        /* \"structarray.sol\":208:226  student[5]public s */\n    tag_3:\n      tag_6\n      0x04\n      dup1\n      calldatasize\n      sub\n      dup2\n      add\n      swap1\n      tag_7\n      swap2\n      swap1\n      tag_8\n      jump\t// in\n    tag_7:\n      tag_9\n      jump\t// in\n    tag_6:\n      mload(0x40)\n      tag_10\n      swap5\n      swap4\n      swap3\n      swap2\n      swap1\n      tag_11\n      jump\t// in\n    tag_10:\n      mload(0x40)\n      dup1\n      swap2\n      sub\n      swap1\n      return\n        /* \"structarray.sol\":402:505  function returnstudent(uint index)public view returns(student memory){... */\n    tag_4:\n      tag_12\n      0x04\n      dup1\n      calldatasize\n      sub\n      dup2\n      add\n      swap1\n      tag_13\n      swap2\n      swap1\n      tag_8\n      jump\t// in\n    tag_13:\n      tag_14\n      jump\t// in\n    tag_12:\n      mload(0x40)\n      tag_15\n      swap2\n      swap1\n      tag_16\n      jump\t// in\n    tag_15:\n      mload(0x40)\n      dup1\n      swap2\n      sub\n      swap1\n      return\n        /* \"structarray.sol\":235:396  function insertstudent(uint index,string memory _name,uint _roll,bool _pass,address _wallet)public {... */\n    tag_5:\n      tag_17\n      0x04\n      dup1\n      calldatasize\n      sub\n      dup2\n      add\n      swap1\n      tag_18\n      swap2\n      swap1\n      tag_19\n      jump\t// in\n    tag_18:\n      tag_20\n      jump\t// in\n    tag_17:\n      stop\n        /* \"structarray.sol\":208:226  student[5]public s */\n    tag_9:\n      0x00\n      dup2\n      0x05\n      dup2\n      lt\n      tag_21\n      jumpi\n      0x00\n      dup1\n      revert\n    tag_21:\n      0x03\n      mul\n      add\n      0x00\n      swap2\n      pop\n      swap1\n      pop\n      dup1\n      0x00\n      add\n      dup1\n      sload\n      tag_23\n      swap1\n      tag_24\n      jump\t// in\n    tag_23:\n      dup1\n      0x1f\n      add\n      0x20\n      dup1\n      swap2\n      div\n      mul\n      0x20\n      add\n      mload(0x40)\n      swap1\n      dup2\n      add\n      0x40\n      mstore\n      dup1\n      swap3\n      swap2\n      swap1\n      dup2\n      dup2\n      mstore\n      0x20\n      add\n      dup3\n      dup1\n      sload\n      tag_25\n      swap1\n      tag_24\n      jump\t// in\n    tag_25:\n      dup1\n      iszero\n      tag_26\n      jumpi\n      dup1\n      0x1f\n      lt\n      tag_27\n      jumpi\n      0x0100\n      dup1\n      dup4\n      sload\n      div\n      mul\n      dup4\n      mstore\n      swap2\n      0x20\n      add\n      swap2\n      jump(tag_26)\n    tag_27:\n      dup3\n      add\n      swap2\n      swap1\n      0x00\n      mstore\n      keccak256(0x00, 0x20)\n      swap1\n    tag_28:\n      dup2\n      sload\n      dup2\n      mstore\n      swap1\n      0x01\n      add\n      swap1\n      0x20\n      add\n      dup1\n      dup4\n      gt\n      tag_28\n      jumpi\n      dup3\n      swap1\n      sub\n      0x1f\n      and\n      dup3\n      add\n      swap2\n    tag_26:\n      pop\n      pop\n      pop\n      pop\n      pop\n      swap1\n      dup1\n      0x01\n      add\n      sload\n      swap1\n      dup1\n      0x02\n      add\n      0x00\n      swap1\n      sload\n      swap1\n      0x0100\n      exp\n      swap1\n      div\n      0xff\n      and\n      swap1\n      dup1\n      0x02\n      add\n      0x01\n      swap1\n      sload\n      swap1\n      0x0100\n      exp\n      swap1\n      div\n      0xffffffffffffffffffffffffffffffffffffffff\n      and\n      swap1\n      pop\n      dup5\n      jump\t// out\n        /* \"structarray.sol\":402:505  function returnstudent(uint index)public view returns(student memory){... */\n    tag_14:\n        /* \"structarray.sol\":456:470  student memory */\n      tag_29\n      tag_30\n      jump\t// in\n    tag_29:\n        /* \"structarray.sol\":489:490  s */\n      0x00\n        /* \"structarray.sol\":491:496  index */\n      dup3\n        /* \"structarray.sol\":489:497  s[index] */\n      0x05\n      dup2\n      lt\n      tag_32\n      jumpi\n      tag_33\n      tag_34\n      jump\t// in\n    tag_33:\n    tag_32:\n      0x03\n      mul\n      add\n        /* \"structarray.sol\":482:497  return s[index] */\n      mload(0x40)\n      dup1\n      0x80\n      add\n      0x40\n      mstore\n      swap1\n      dup2\n      0x00\n      dup3\n      add\n      dup1\n      sload\n      tag_36\n      swap1\n      tag_24\n      jump\t// in\n    tag_36:\n      dup1\n      0x1f\n      add\n      0x20\n      dup1\n      swap2\n      div\n      mul\n      0x20\n      add\n      mload(0x40)\n      swap1\n      dup2\n      add\n      0x40\n      mstore\n      dup1\n      swap3\n      swap2\n      swap1\n      dup2\n      dup2\n      mstore\n      0x20\n      add\n      dup3\n      dup1\n      sload\n      tag_37\n      swap1\n      tag_24\n      jump\t// in\n    tag_37:\n      dup1\n      iszero\n      tag_38\n      jumpi\n      dup1\n      0x1f\n      lt\n      tag_39\n      jumpi\n      0x0100\n      dup1\n      dup4\n      sload\n      div\n      mul\n      dup4\n      mstore\n      swap2\n      0x20\n      add\n      swap2\n      jump(tag_38)\n    tag_39:\n      dup3\n      add\n      swap2\n      swap1\n      0x00\n      mstore\n      keccak256(0x00, 0x20)\n      swap1\n    tag_40:\n      dup2\n      sload\n      dup2\n      mstore\n      swap1\n      0x01\n      add\n      swap1\n      0x20\n      add\n      dup1\n      dup4\n      gt\n      tag_40\n      jumpi\n      dup3\n      swap1\n      sub\n      0x1f\n      and\n      dup3\n      add\n      swap2\n    tag_38:\n      pop\n      pop\n      pop\n      pop\n      pop\n      dup2\n      mstore\n      0x20\n      add\n      0x01\n      dup3\n      add\n      sload\n      dup2\n      mstore\n      0x20\n      add\n      0x02\n      dup3\n      add\n      0x00\n      swap1\n      sload\n      swap1\n      0x0100\n      exp\n      swap1\n      div\n      0xff\n      and\n      iszero\n      iszero\n      iszero\n      iszero\n      dup2\n      mstore\n      0x20\n      add\n      0x02\n      dup3\n      add\n      0x01\n      swap1\n      sload\n      swap1\n      0x0100\n      exp\n      swap1\n      div\n      0xffffffffffffffffffffffffffffffffffffffff\n      and\n      0xffffffffffffffffffffffffffffffffffffffff\n      and\n      0xffffffffffffffffffffffffffffffffffffffff\n      and\n      dup2\n      mstore\n      pop\n      pop\n      swap1\n      pop\n        /* \"structarray.sol\":402:505  function returnstudent(uint index)public view returns(student memory){... */\n      swap2\n      swap1\n      pop\n      jump\t// out\n        /* \"structarray.sol\":235:396  function insertstudent(uint index,string memory _name,uint _roll,bool _pass,address _wallet)public {... */\n    tag_20:\n        /* \"structarray.sol\":354:388  student(_name,_roll,_pass,_wallet) */\n      mload(0x40)\n      dup1\n      0x80\n      add\n      0x40\n      mstore\n      dup1\n        /* \"structarray.sol\":362:367  _name */\n      dup6\n        /* \"structarray.sol\":354:388  student(_name,_roll,_pass,_wallet) */\n      dup2\n      mstore\n      0x20\n      add\n        /* \"structarray.sol\":368:373  _roll */\n      dup5\n        /* \"structarray.sol\":354:388  student(_name,_roll,_pass,_wallet) */\n      dup2\n      mstore\n      0x20\n      add\n        /* \"structarray.sol\":374:379  _pass */\n      dup4\n        /* \"structarray.sol\":354:388  student(_name,_roll,_pass,_wallet) */\n      iszero\n      iszero\n      dup2\n      mstore\n      0x20\n      add\n        /* \"structarray.sol\":380:387  _wallet */\n      dup3\n        /* \"structarray.sol\":354:388  student(_name,_roll,_pass,_wallet) */\n      0xffffffffffffffffffffffffffffffffffffffff\n      and\n      dup2\n      mstore\n      pop\n        /* \"structarray.sol\":345:346  s */\n      0x00\n        /* \"structarray.sol\":347:352  index */\n      dup7\n        /* \"structarray.sol\":345:353  s[index] */\n      0x05\n      dup2\n      lt\n      tag_42\n      jumpi\n      tag_43\n      tag_34\n      jump\t// in\n    tag_43:\n    tag_42:\n      0x03\n      mul\n      add\n        /* \"structarray.sol\":345:388  s[index]=student(_name,_roll,_pass,_wallet) */\n      0x00\n      dup3\n      add\n      mload\n      dup2\n      0x00\n      add\n      swap1\n      dup2\n      tag_45\n      swap2\n      swap1\n      tag_46\n      jump\t// in\n    tag_45:\n      pop\n      0x20\n      dup3\n      add\n      mload\n      dup2\n      0x01\n      add\n      sstore\n      0x40\n      dup3\n      add\n      mload\n      dup2\n      0x02\n      add\n      exp(0x0100, 0x00)\n      dup2\n      sload\n      dup2\n      0xff\n      mul\n      not\n      and\n      swap1\n      dup4\n      iszero\n      iszero\n      mul\n      or\n      swap1\n      sstore\n      pop\n      0x60\n      dup3\n      add\n      mload\n      dup2\n      0x02\n      add\n      exp(0x0100, 0x01)\n      dup2\n      sload\n      dup2\n      0xffffffffffffffffffffffffffffffffffffffff\n      mul\n      not\n      and\n      swap1\n      dup4\n      0xffffffffffffffffffffffffffffffffffffffff\n      and\n      mul\n      or\n      swap1\n      sstore\n      pop\n      swap1\n      pop\n      pop\n        /* \"structarray.sol\":235:396  function insertstudent(uint index,string memory _name,uint _roll,bool _pass,address _wallet)public {... */\n      pop\n      pop\n      pop\n      pop\n      pop\n      jump\t// out\n    tag_30:\n      mload(0x40)\n      dup1\n      0x80\n      add\n      0x40\n      mstore\n      dup1\n      0x60\n      dup2\n      mstore\n      0x20\n      add\n      0x00\n      dup2\n      mstore\n      0x20\n      add\n      iszero(iszero(0x00))\n      dup2\n      mstore\n      0x20\n      add\n      and(0xffffffffffffffffffffffffffffffffffffffff, 0x00)\n      dup2\n      mstore\n      pop\n      swap1\n      jump\t// out\n        /* \"#utility.yul\":7:82   */\n    tag_47:\n        /* \"#utility.yul\":40:46   */\n      0x00\n        /* \"#utility.yul\":73:75   */\n      0x40\n        /* \"#utility.yul\":67:76   */\n      mload\n        /* \"#utility.yul\":57:76   */\n      swap1\n      pop\n        /* \"#utility.yul\":7:82   */\n      swap1\n      jump\t// out\n        /* \"#utility.yul\":88:205   */\n    tag_48:\n        /* \"#utility.yul\":197:198   */\n      0x00\n        /* \"#utility.yul\":194:195   */\n      dup1\n        /* \"#utility.yul\":187:199   */\n      revert\n        /* \"#utility.yul\":211:328   */\n    tag_49:\n        /* \"#utility.yul\":320:321   */\n      0x00\n        /* \"#utility.yul\":317:318   */\n      dup1\n        /* \"#utility.yul\":310:322   */\n      revert\n        /* \"#utility.yul\":334:411   */\n    tag_50:\n        /* \"#utility.yul\":371:378   */\n      0x00\n        /* \"#utility.yul\":400:405   */\n      dup2\n        /* \"#utility.yul\":389:405   */\n      swap1\n      pop\n        /* \"#utility.yul\":334:411   */\n      swap2\n      swap1\n      pop\n      jump\t// out\n        /* \"#utility.yul\":417:539   */\n    tag_51:\n        /* \"#utility.yul\":490:514   */\n      tag_105\n        /* \"#utility.yul\":508:513   */\n      dup2\n        /* \"#utility.yul\":490:514   */\n      tag_50\n      jump\t// in\n    tag_105:\n        /* \"#utility.yul\":483:488   */\n      dup2\n        /* \"#utility.yul\":480:515   */\n      eq\n        /* \"#utility.yul\":470:533   */\n      tag_106\n      jumpi\n        /* \"#utility.yul\":529:530   */\n      0x00\n        /* \"#utility.yul\":526:527   */\n      dup1\n        /* \"#utility.yul\":519:531   */\n      revert\n        /* \"#utility.yul\":470:533   */\n    tag_106:\n        /* \"#utility.yul\":417:539   */\n      pop\n      jump\t// out\n        /* \"#utility.yul\":545:684   */\n    tag_52:\n        /* \"#utility.yul\":591:596   */\n      0x00\n        /* \"#utility.yul\":629:635   */\n      dup2\n        /* \"#utility.yul\":616:636   */\n      calldataload\n        /* \"#utility.yul\":607:636   */\n      swap1\n      pop\n        /* \"#utility.yul\":645:678   */\n      tag_108\n        /* \"#utility.yul\":672:677   */\n      dup2\n        /* \"#utility.yul\":645:678   */\n      tag_51\n      jump\t// in\n    tag_108:\n        /* \"#utility.yul\":545:684   */\n      swap3\n      swap2\n      pop\n      pop\n      jump\t// out\n        /* \"#utility.yul\":690:1019   */\n    tag_8:\n        /* \"#utility.yul\":749:755   */\n      0x00\n        /* \"#utility.yul\":798:800   */\n      0x20\n        /* \"#utility.yul\":786:795   */\n      dup3\n        /* \"#utility.yul\":777:784   */\n      dup5\n        /* \"#utility.yul\":773:796   */\n      sub\n        /* \"#utility.yul\":769:801   */\n      slt\n        /* \"#utility.yul\":766:885   */\n      iszero\n      tag_110\n      jumpi\n        /* \"#utility.yul\":804:883   */\n      tag_111\n      tag_48\n      jump\t// in\n    tag_111:\n        /* \"#utility.yul\":766:885   */\n    tag_110:\n        /* \"#utility.yul\":924:925   */\n      0x00\n        /* \"#utility.yul\":949:1002   */\n      tag_112\n        /* \"#utility.yul\":994:1001   */\n      dup5\n        /* \"#utility.yul\":985:991   */\n      dup3\n        /* \"#utility.yul\":974:983   */\n      dup6\n        /* \"#utility.yul\":970:992   */\n      add\n        /* \"#utility.yul\":949:1002   */\n      tag_52\n      jump\t// in\n    tag_112:\n        /* \"#utility.yul\":939:1002   */\n      swap2\n      pop\n        /* \"#utility.yul\":895:1012   */\n      pop\n        /* \"#utility.yul\":690:1019   */\n      swap3\n      swap2\n      pop\n      pop\n      jump\t// out\n        /* \"#utility.yul\":1025:1124   */\n    tag_53:\n        /* \"#utility.yul\":1077:1083   */\n      0x00\n        /* \"#utility.yul\":1111:1116   */\n      dup2\n        /* \"#utility.yul\":1105:1117   */\n      mload\n        /* \"#utility.yul\":1095:1117   */\n      swap1\n      pop\n        /* \"#utility.yul\":1025:1124   */\n      swap2\n      swap1\n      pop\n      jump\t// out\n        /* \"#utility.yul\":1130:1299   */\n    tag_54:\n        /* \"#utility.yul\":1214:1225   */\n      0x00\n        /* \"#utility.yul\":1248:1254   */\n      dup3\n        /* \"#utility.yul\":1243:1246   */\n      dup3\n        /* \"#utility.yul\":1236:1255   */\n      mstore\n        /* \"#utility.yul\":1288:1292   */\n      0x20\n        /* \"#utility.yul\":1283:1286   */\n      dup3\n        /* \"#utility.yul\":1279:1293   */\n      add\n        /* \"#utility.yul\":1264:1293   */\n      swap1\n      pop\n        /* \"#utility.yul\":1130:1299   */\n      swap3\n      swap2\n      pop\n      pop\n      jump\t// out\n        /* \"#utility.yul\":1305:1551   */\n    tag_55:\n        /* \"#utility.yul\":1386:1387   */\n      0x00\n        /* \"#utility.yul\":1396:1509   */\n    tag_116:\n        /* \"#utility.yul\":1410:1416   */\n      dup4\n        /* \"#utility.yul\":1407:1408   */\n      dup2\n        /* \"#utility.yul\":1404:1417   */\n      lt\n        /* \"#utility.yul\":1396:1509   */\n      iszero\n      tag_118\n      jumpi\n        /* \"#utility.yul\":1495:1496   */\n      dup1\n        /* \"#utility.yul\":1490:1493   */\n      dup3\n        /* \"#utility.yul\":1486:1497   */\n      add\n        /* \"#utility.yul\":1480:1498   */\n      mload\n        /* \"#utility.yul\":1476:1477   */\n      dup2\n        /* \"#utility.yul\":1471:1474   */\n      dup5\n        /* \"#utility.yul\":1467:1478   */\n      add\n        /* \"#utility.yul\":1460:1499   */\n      mstore\n        /* \"#utility.yul\":1432:1434   */\n      0x20\n        /* \"#utility.yul\":1429:1430   */\n      dup2\n        /* \"#utility.yul\":1425:1435   */\n      add\n        /* \"#utility.yul\":1420:1435   */\n      swap1\n      pop\n        /* \"#utility.yul\":1396:1509   */\n      jump(tag_116)\n    tag_118:\n        /* \"#utility.yul\":1543:1544   */\n      0x00\n        /* \"#utility.yul\":1534:1540   */\n      dup5\n        /* \"#utility.yul\":1529:1532   */\n      dup5\n        /* \"#utility.yul\":1525:1541   */\n      add\n        /* \"#utility.yul\":1518:1545   */\n      mstore\n        /* \"#utility.yul\":1367:1551   */\n      pop\n        /* \"#utility.yul\":1305:1551   */\n      pop\n      pop\n      pop\n      jump\t// out\n        /* \"#utility.yul\":1557:1659   */\n    tag_56:\n        /* \"#utility.yul\":1598:1604   */\n      0x00\n        /* \"#utility.yul\":1649:1651   */\n      0x1f\n        /* \"#utility.yul\":1645:1652   */\n      not\n        /* \"#utility.yul\":1640:1642   */\n      0x1f\n        /* \"#utility.yul\":1633:1638   */\n      dup4\n        /* \"#utility.yul\":1629:1643   */\n      add\n        /* \"#utility.yul\":1625:1653   */\n      and\n        /* \"#utility.yul\":1615:1653   */\n      swap1\n      pop\n        /* \"#utility.yul\":1557:1659   */\n      swap2\n      swap1\n      pop\n      jump\t// out\n        /* \"#utility.yul\":1665:2042   */\n    tag_57:\n        /* \"#utility.yul\":1753:1756   */\n      0x00\n        /* \"#utility.yul\":1781:1820   */\n      tag_121\n        /* \"#utility.yul\":1814:1819   */\n      dup3\n        /* \"#utility.yul\":1781:1820   */\n      tag_53\n      jump\t// in\n    tag_121:\n        /* \"#utility.yul\":1836:1907   */\n      tag_122\n        /* \"#utility.yul\":1900:1906   */\n      dup2\n        /* \"#utility.yul\":1895:1898   */\n      dup6\n        /* \"#utility.yul\":1836:1907   */\n      tag_54\n      jump\t// in\n    tag_122:\n        /* \"#utility.yul\":1829:1907   */\n      swap4\n      pop\n        /* \"#utility.yul\":1916:1981   */\n      tag_123\n        /* \"#utility.yul\":1974:1980   */\n      dup2\n        /* \"#utility.yul\":1969:1972   */\n      dup6\n        /* \"#utility.yul\":1962:1966   */\n      0x20\n        /* \"#utility.yul\":1955:1960   */\n      dup7\n        /* \"#utility.yul\":1951:1967   */\n      add\n        /* \"#utility.yul\":1916:1981   */\n      tag_55\n      jump\t// in\n    tag_123:\n        /* \"#utility.yul\":2006:2035   */\n      tag_124\n        /* \"#utility.yul\":2028:2034   */\n      dup2\n        /* \"#utility.yul\":2006:2035   */\n      tag_56\n      jump\t// in\n    tag_124:\n        /* \"#utility.yul\":2001:2004   */\n      dup5\n        /* \"#utility.yul\":1997:2036   */\n      add\n        /* \"#utility.yul\":1990:2036   */\n      swap2\n      pop\n        /* \"#utility.yul\":1757:2042   */\n      pop\n        /* \"#utility.yul\":1665:2042   */\n      swap3\n      swap2\n      pop\n      pop\n      jump\t// out\n        /* \"#utility.yul\":2048:2166   */\n    tag_58:\n        /* \"#utility.yul\":2135:2159   */\n      tag_126\n        /* \"#utility.yul\":2153:2158   */\n      dup2\n        /* \"#utility.yul\":2135:2159   */\n      tag_50\n      jump\t// in\n    tag_126:\n        /* \"#utility.yul\":2130:2133   */\n      dup3\n        /* \"#utility.yul\":2123:2160   */\n      mstore\n        /* \"#utility.yul\":2048:2166   */\n      pop\n      pop\n      jump\t// out\n        /* \"#utility.yul\":2172:2262   */\n    tag_59:\n        /* \"#utility.yul\":2206:2213   */\n      0x00\n        /* \"#utility.yul\":2249:2254   */\n      dup2\n        /* \"#utility.yul\":2242:2255   */\n      iszero\n        /* \"#utility.yul\":2235:2256   */\n      iszero\n        /* \"#utility.yul\":2224:2256   */\n      swap1\n      pop\n        /* \"#utility.yul\":2172:2262   */\n      swap2\n      swap1\n      pop\n      jump\t// out\n        /* \"#utility.yul\":2268:2377   */\n    tag_60:\n        /* \"#utility.yul\":2349:2370   */\n      tag_129\n        /* \"#utility.yul\":2364:2369   */\n      dup2\n        /* \"#utility.yul\":2349:2370   */\n      tag_59\n      jump\t// in\n    tag_129:\n        /* \"#utility.yul\":2344:2347   */\n      dup3\n        /* \"#utility.yul\":2337:2371   */\n      mstore\n        /* \"#utility.yul\":2268:2377   */\n      pop\n      pop\n      jump\t// out\n        /* \"#utility.yul\":2383:2509   */\n    tag_61:\n        /* \"#utility.yul\":2420:2427   */\n      0x00\n        /* \"#utility.yul\":2460:2502   */\n      0xffffffffffffffffffffffffffffffffffffffff\n        /* \"#utility.yul\":2453:2458   */\n      dup3\n        /* \"#utility.yul\":2449:2503   */\n      and\n        /* \"#utility.yul\":2438:2503   */\n      swap1\n      pop\n        /* \"#utility.yul\":2383:2509   */\n      swap2\n      swap1\n      pop\n      jump\t// out\n        /* \"#utility.yul\":2515:2611   */\n    tag_62:\n        /* \"#utility.yul\":2552:2559   */\n      0x00\n        /* \"#utility.yul\":2581:2605   */\n      tag_132\n        /* \"#utility.yul\":2599:2604   */\n      dup3\n        /* \"#utility.yul\":2581:2605   */\n      tag_61\n      jump\t// in\n    tag_132:\n        /* \"#utility.yul\":2570:2605   */\n      swap1\n      pop\n        /* \"#utility.yul\":2515:2611   */\n      swap2\n      swap1\n      pop\n      jump\t// out\n        /* \"#utility.yul\":2617:2735   */\n    tag_63:\n        /* \"#utility.yul\":2704:2728   */\n      tag_134\n        /* \"#utility.yul\":2722:2727   */\n      dup2\n        /* \"#utility.yul\":2704:2728   */\n      tag_62\n      jump\t// in\n    tag_134:\n        /* \"#utility.yul\":2699:2702   */\n      dup3\n        /* \"#utility.yul\":2692:2729   */\n      mstore\n        /* \"#utility.yul\":2617:2735   */\n      pop\n      pop\n      jump\t// out\n        /* \"#utility.yul\":2741:3373   */\n    tag_11:\n        /* \"#utility.yul\":2932:2936   */\n      0x00\n        /* \"#utility.yul\":2970:2973   */\n      0x80\n        /* \"#utility.yul\":2959:2968   */\n      dup3\n        /* \"#utility.yul\":2955:2974   */\n      add\n        /* \"#utility.yul\":2947:2974   */\n      swap1\n      pop\n        /* \"#utility.yul\":3020:3029   */\n      dup2\n        /* \"#utility.yul\":3014:3018   */\n      dup2\n        /* \"#utility.yul\":3010:3030   */\n      sub\n        /* \"#utility.yul\":3006:3007   */\n      0x00\n        /* \"#utility.yul\":2995:3004   */\n      dup4\n        /* \"#utility.yul\":2991:3008   */\n      add\n        /* \"#utility.yul\":2984:3031   */\n      mstore\n        /* \"#utility.yul\":3048:3126   */\n      tag_136\n        /* \"#utility.yul\":3121:3125   */\n      dup2\n        /* \"#utility.yul\":3112:3118   */\n      dup8\n        /* \"#utility.yul\":3048:3126   */\n      tag_57\n      jump\t// in\n    tag_136:\n        /* \"#utility.yul\":3040:3126   */\n      swap1\n      pop\n        /* \"#utility.yul\":3136:3208   */\n      tag_137\n        /* \"#utility.yul\":3204:3206   */\n      0x20\n        /* \"#utility.yul\":3193:3202   */\n      dup4\n        /* \"#utility.yul\":3189:3207   */\n      add\n        /* \"#utility.yul\":3180:3186   */\n      dup7\n        /* \"#utility.yul\":3136:3208   */\n      tag_58\n      jump\t// in\n    tag_137:\n        /* \"#utility.yul\":3218:3284   */\n      tag_138\n        /* \"#utility.yul\":3280:3282   */\n      0x40\n        /* \"#utility.yul\":3269:3278   */\n      dup4\n        /* \"#utility.yul\":3265:3283   */\n      add\n        /* \"#utility.yul\":3256:3262   */\n      dup6\n        /* \"#utility.yul\":3218:3284   */\n      tag_60\n      jump\t// in\n    tag_138:\n        /* \"#utility.yul\":3294:3366   */\n      tag_139\n        /* \"#utility.yul\":3362:3364   */\n      0x60\n        /* \"#utility.yul\":3351:3360   */\n      dup4\n        /* \"#utility.yul\":3347:3365   */\n      add\n        /* \"#utility.yul\":3338:3344   */\n      dup5\n        /* \"#utility.yul\":3294:3366   */\n      tag_63\n      jump\t// in\n    tag_139:\n        /* \"#utility.yul\":2741:3373   */\n      swap6\n      swap5\n      pop\n      pop\n      pop\n      pop\n      pop\n      jump\t// out\n        /* \"#utility.yul\":3379:3538   */\n    tag_64:\n        /* \"#utility.yul\":3453:3464   */\n      0x00\n        /* \"#utility.yul\":3487:3493   */\n      dup3\n        /* \"#utility.yul\":3482:3485   */\n      dup3\n        /* \"#utility.yul\":3475:3494   */\n      mstore\n        /* \"#utility.yul\":3527:3531   */\n      0x20\n        /* \"#utility.yul\":3522:3525   */\n      dup3\n        /* \"#utility.yul\":3518:3532   */\n      add\n        /* \"#utility.yul\":3503:3532   */\n      swap1\n      pop\n        /* \"#utility.yul\":3379:3538   */\n      swap3\n      swap2\n      pop\n      pop\n      jump\t// out\n        /* \"#utility.yul\":3544:3901   */\n    tag_65:\n        /* \"#utility.yul\":3622:3625   */\n      0x00\n        /* \"#utility.yul\":3650:3689   */\n      tag_142\n        /* \"#utility.yul\":3683:3688   */\n      dup3\n        /* \"#utility.yul\":3650:3689   */\n      tag_53\n      jump\t// in\n    tag_142:\n        /* \"#utility.yul\":3705:3766   */\n      tag_143\n        /* \"#utility.yul\":3759:3765   */\n      dup2\n        /* \"#utility.yul\":3754:3757   */\n      dup6\n        /* \"#utility.yul\":3705:3766   */\n      tag_64\n      jump\t// in\n    tag_143:\n        /* \"#utility.yul\":3698:3766   */\n      swap4\n      pop\n        /* \"#utility.yul\":3775:3840   */\n      tag_144\n        /* \"#utility.yul\":3833:3839   */\n      dup2\n        /* \"#utility.yul\":3828:3831   */\n      dup6\n        /* \"#utility.yul\":3821:3825   */\n      0x20\n        /* \"#utility.yul\":3814:3819   */\n      dup7\n        /* \"#utility.yul\":3810:3826   */\n      add\n        /* \"#utility.yul\":3775:3840   */\n      tag_55\n      jump\t// in\n    tag_144:\n        /* \"#utility.yul\":3865:3894   */\n      tag_145\n        /* \"#utility.yul\":3887:3893   */\n      dup2\n        /* \"#utility.yul\":3865:3894   */\n      tag_56\n      jump\t// in\n    tag_145:\n        /* \"#utility.yul\":3860:3863   */\n      dup5\n        /* \"#utility.yul\":3856:3895   */\n      add\n        /* \"#utility.yul\":3849:3895   */\n      swap2\n      pop\n        /* \"#utility.yul\":3626:3901   */\n      pop\n        /* \"#utility.yul\":3544:3901   */\n      swap3\n      swap2\n      pop\n      pop\n      jump\t// out\n        /* \"#utility.yul\":3907:4015   */\n    tag_66:\n        /* \"#utility.yul\":3984:4008   */\n      tag_147\n        /* \"#utility.yul\":4002:4007   */\n      dup2\n        /* \"#utility.yul\":3984:4008   */\n      tag_50\n      jump\t// in\n    tag_147:\n        /* \"#utility.yul\":3979:3982   */\n      dup3\n        /* \"#utility.yul\":3972:4009   */\n      mstore\n        /* \"#utility.yul\":3907:4015   */\n      pop\n      pop\n      jump\t// out\n        /* \"#utility.yul\":4021:4120   */\n    tag_67:\n        /* \"#utility.yul\":4092:4113   */\n      tag_149\n        /* \"#utility.yul\":4107:4112   */\n      dup2\n        /* \"#utility.yul\":4092:4113   */\n      tag_59\n      jump\t// in\n    tag_149:\n        /* \"#utility.yul\":4087:4090   */\n      dup3\n        /* \"#utility.yul\":4080:4114   */\n      mstore\n        /* \"#utility.yul\":4021:4120   */\n      pop\n      pop\n      jump\t// out\n        /* \"#utility.yul\":4126:4234   */\n    tag_68:\n        /* \"#utility.yul\":4203:4227   */\n      tag_151\n        /* \"#utility.yul\":4221:4226   */\n      dup2\n        /* \"#utility.yul\":4203:4227   */\n      tag_62\n      jump\t// in\n    tag_151:\n        /* \"#utility.yul\":4198:4201   */\n      dup3\n        /* \"#utility.yul\":4191:4228   */\n      mstore\n        /* \"#utility.yul\":4126:4234   */\n      pop\n      pop\n      jump\t// out\n        /* \"#utility.yul\":4290:5236   */\n    tag_69:\n        /* \"#utility.yul\":4405:4408   */\n      0x00\n        /* \"#utility.yul\":4441:4445   */\n      0x80\n        /* \"#utility.yul\":4436:4439   */\n      dup4\n        /* \"#utility.yul\":4432:4446   */\n      add\n        /* \"#utility.yul\":4528:4532   */\n      0x00\n        /* \"#utility.yul\":4521:4526   */\n      dup4\n        /* \"#utility.yul\":4517:4533   */\n      add\n        /* \"#utility.yul\":4511:4534   */\n      mload\n        /* \"#utility.yul\":4581:4584   */\n      dup5\n        /* \"#utility.yul\":4575:4579   */\n      dup3\n        /* \"#utility.yul\":4571:4585   */\n      sub\n        /* \"#utility.yul\":4564:4568   */\n      0x00\n        /* \"#utility.yul\":4559:4562   */\n      dup7\n        /* \"#utility.yul\":4555:4569   */\n      add\n        /* \"#utility.yul\":4548:4586   */\n      mstore\n        /* \"#utility.yul\":4607:4680   */\n      tag_153\n        /* \"#utility.yul\":4675:4679   */\n      dup3\n        /* \"#utility.yul\":4661:4673   */\n      dup3\n        /* \"#utility.yul\":4607:4680   */\n      tag_65\n      jump\t// in\n    tag_153:\n        /* \"#utility.yul\":4599:4680   */\n      swap2\n      pop\n        /* \"#utility.yul\":4456:4691   */\n      pop\n        /* \"#utility.yul\":4773:4777   */\n      0x20\n        /* \"#utility.yul\":4766:4771   */\n      dup4\n        /* \"#utility.yul\":4762:4778   */\n      add\n        /* \"#utility.yul\":4756:4779   */\n      mload\n        /* \"#utility.yul\":4792:4855   */\n      tag_154\n        /* \"#utility.yul\":4849:4853   */\n      0x20\n        /* \"#utility.yul\":4844:4847   */\n      dup7\n        /* \"#utility.yul\":4840:4854   */\n      add\n        /* \"#utility.yul\":4826:4838   */\n      dup3\n        /* \"#utility.yul\":4792:4855   */\n      tag_66\n      jump\t// in\n    tag_154:\n        /* \"#utility.yul\":4701:4865   */\n      pop\n        /* \"#utility.yul\":4947:4951   */\n      0x40\n        /* \"#utility.yul\":4940:4945   */\n      dup4\n        /* \"#utility.yul\":4936:4952   */\n      add\n        /* \"#utility.yul\":4930:4953   */\n      mload\n        /* \"#utility.yul\":4966:5023   */\n      tag_155\n        /* \"#utility.yul\":5017:5021   */\n      0x40\n        /* \"#utility.yul\":5012:5015   */\n      dup7\n        /* \"#utility.yul\":5008:5022   */\n      add\n        /* \"#utility.yul\":4994:5006   */\n      dup3\n        /* \"#utility.yul\":4966:5023   */\n      tag_67\n      jump\t// in\n    tag_155:\n        /* \"#utility.yul\":4875:5033   */\n      pop\n        /* \"#utility.yul\":5117:5121   */\n      0x60\n        /* \"#utility.yul\":5110:5115   */\n      dup4\n        /* \"#utility.yul\":5106:5122   */\n      add\n        /* \"#utility.yul\":5100:5123   */\n      mload\n        /* \"#utility.yul\":5136:5199   */\n      tag_156\n        /* \"#utility.yul\":5193:5197   */\n      0x60\n        /* \"#utility.yul\":5188:5191   */\n      dup7\n        /* \"#utility.yul\":5184:5198   */\n      add\n        /* \"#utility.yul\":5170:5182   */\n      dup3\n        /* \"#utility.yul\":5136:5199   */\n      tag_68\n      jump\t// in\n    tag_156:\n        /* \"#utility.yul\":5043:5209   */\n      pop\n        /* \"#utility.yul\":5226:5230   */\n      dup1\n        /* \"#utility.yul\":5219:5230   */\n      swap2\n      pop\n        /* \"#utility.yul\":4410:5236   */\n      pop\n        /* \"#utility.yul\":4290:5236   */\n      swap3\n      swap2\n      pop\n      pop\n      jump\t// out\n        /* \"#utility.yul\":5242:5607   */\n    tag_16:\n        /* \"#utility.yul\":5381:5385   */\n      0x00\n        /* \"#utility.yul\":5419:5421   */\n      0x20\n        /* \"#utility.yul\":5408:5417   */\n      dup3\n        /* \"#utility.yul\":5404:5422   */\n      add\n        /* \"#utility.yul\":5396:5422   */\n      swap1\n      pop\n        /* \"#utility.yul\":5468:5477   */\n      dup2\n        /* \"#utility.yul\":5462:5466   */\n      dup2\n        /* \"#utility.yul\":5458:5478   */\n      sub\n        /* \"#utility.yul\":5454:5455   */\n      0x00\n        /* \"#utility.yul\":5443:5452   */\n      dup4\n        /* \"#utility.yul\":5439:5456   */\n      add\n        /* \"#utility.yul\":5432:5479   */\n      mstore\n        /* \"#utility.yul\":5496:5600   */\n      tag_158\n        /* \"#utility.yul\":5595:5599   */\n      dup2\n        /* \"#utility.yul\":5586:5592   */\n      dup5\n        /* \"#utility.yul\":5496:5600   */\n      tag_69\n      jump\t// in\n    tag_158:\n        /* \"#utility.yul\":5488:5600   */\n      swap1\n      pop\n        /* \"#utility.yul\":5242:5607   */\n      swap3\n      swap2\n      pop\n      pop\n      jump\t// out\n        /* \"#utility.yul\":5613:5730   */\n    tag_70:\n        /* \"#utility.yul\":5722:5723   */\n      0x00\n        /* \"#utility.yul\":5719:5720   */\n      dup1\n        /* \"#utility.yul\":5712:5724   */\n      revert\n        /* \"#utility.yul\":5736:5853   */\n    tag_71:\n        /* \"#utility.yul\":5845:5846   */\n      0x00\n        /* \"#utility.yul\":5842:5843   */\n      dup1\n        /* \"#utility.yul\":5835:5847   */\n      revert\n        /* \"#utility.yul\":5859:6039   */\n    tag_72:\n        /* \"#utility.yul\":5907:5984   */\n      0x4e487b7100000000000000000000000000000000000000000000000000000000\n        /* \"#utility.yul\":5904:5905   */\n      0x00\n        /* \"#utility.yul\":5897:5985   */\n      mstore\n        /* \"#utility.yul\":6004:6008   */\n      0x41\n        /* \"#utility.yul\":6001:6002   */\n      0x04\n        /* \"#utility.yul\":5994:6009   */\n      mstore\n        /* \"#utility.yul\":6028:6032   */\n      0x24\n        /* \"#utility.yul\":6025:6026   */\n      0x00\n        /* \"#utility.yul\":6018:6033   */\n      revert\n        /* \"#utility.yul\":6045:6326   */\n    tag_73:\n        /* \"#utility.yul\":6128:6155   */\n      tag_163\n        /* \"#utility.yul\":6150:6154   */\n      dup3\n        /* \"#utility.yul\":6128:6155   */\n      tag_56\n      jump\t// in\n    tag_163:\n        /* \"#utility.yul\":6120:6126   */\n      dup2\n        /* \"#utility.yul\":6116:6156   */\n      add\n        /* \"#utility.yul\":6258:6264   */\n      dup2\n        /* \"#utility.yul\":6246:6256   */\n      dup2\n        /* \"#utility.yul\":6243:6265   */\n      lt\n        /* \"#utility.yul\":6222:6240   */\n      0xffffffffffffffff\n        /* \"#utility.yul\":6210:6220   */\n      dup3\n        /* \"#utility.yul\":6207:6241   */\n      gt\n        /* \"#utility.yul\":6204:6266   */\n      or\n        /* \"#utility.yul\":6201:6289   */\n      iszero\n      tag_164\n      jumpi\n        /* \"#utility.yul\":6269:6287   */\n      tag_165\n      tag_72\n      jump\t// in\n    tag_165:\n        /* \"#utility.yul\":6201:6289   */\n    tag_164:\n        /* \"#utility.yul\":6309:6319   */\n      dup1\n        /* \"#utility.yul\":6305:6307   */\n      0x40\n        /* \"#utility.yul\":6298:6320   */\n      mstore\n        /* \"#utility.yul\":6088:6326   */\n      pop\n        /* \"#utility.yul\":6045:6326   */\n      pop\n      pop\n      jump\t// out\n        /* \"#utility.yul\":6332:6461   */\n    tag_74:\n        /* \"#utility.yul\":6366:6372   */\n      0x00\n        /* \"#utility.yul\":6393:6413   */\n      tag_167\n      tag_47\n      jump\t// in\n    tag_167:\n        /* \"#utility.yul\":6383:6413   */\n      swap1\n      pop\n        /* \"#utility.yul\":6422:6455   */\n      tag_168\n        /* \"#utility.yul\":6450:6454   */\n      dup3\n        /* \"#utility.yul\":6442:6448   */\n      dup3\n        /* \"#utility.yul\":6422:6455   */\n      tag_73\n      jump\t// in\n    tag_168:\n        /* \"#utility.yul\":6332:6461   */\n      swap2\n      swap1\n      pop\n      jump\t// out\n        /* \"#utility.yul\":6467:6775   */\n    tag_75:\n        /* \"#utility.yul\":6529:6533   */\n      0x00\n        /* \"#utility.yul\":6619:6637   */\n      0xffffffffffffffff\n        /* \"#utility.yul\":6611:6617   */\n      dup3\n        /* \"#utility.yul\":6608:6638   */\n      gt\n        /* \"#utility.yul\":6605:6661   */\n      iszero\n      tag_170\n      jumpi\n        /* \"#utility.yul\":6641:6659   */\n      tag_171\n      tag_72\n      jump\t// in\n    tag_171:\n        /* \"#utility.yul\":6605:6661   */\n    tag_170:\n        /* \"#utility.yul\":6679:6708   */\n      tag_172\n        /* \"#utility.yul\":6701:6707   */\n      dup3\n        /* \"#utility.yul\":6679:6708   */\n      tag_56\n      jump\t// in\n    tag_172:\n        /* \"#utility.yul\":6671:6708   */\n      swap1\n      pop\n        /* \"#utility.yul\":6763:6767   */\n      0x20\n        /* \"#utility.yul\":6757:6761   */\n      dup2\n        /* \"#utility.yul\":6753:6768   */\n      add\n        /* \"#utility.yul\":6745:6768   */\n      swap1\n      pop\n        /* \"#utility.yul\":6467:6775   */\n      swap2\n      swap1\n      pop\n      jump\t// out\n        /* \"#utility.yul\":6781:6927   */\n    tag_76:\n        /* \"#utility.yul\":6878:6884   */\n      dup3\n        /* \"#utility.yul\":6873:6876   */\n      dup2\n        /* \"#utility.yul\":6868:6871   */\n      dup4\n        /* \"#utility.yul\":6855:6885   */\n      calldatacopy\n        /* \"#utility.yul\":6919:6920   */\n      0x00\n        /* \"#utility.yul\":6910:6916   */\n      dup4\n        /* \"#utility.yul\":6905:6908   */\n      dup4\n        /* \"#utility.yul\":6901:6917   */\n      add\n        /* \"#utility.yul\":6894:6921   */\n      mstore\n        /* \"#utility.yul\":6781:6927   */\n      pop\n      pop\n      pop\n      jump\t// out\n        /* \"#utility.yul\":6933:7358   */\n    tag_77:\n        /* \"#utility.yul\":7011:7016   */\n      0x00\n        /* \"#utility.yul\":7036:7102   */\n      tag_175\n        /* \"#utility.yul\":7052:7101   */\n      tag_176\n        /* \"#utility.yul\":7094:7100   */\n      dup5\n        /* \"#utility.yul\":7052:7101   */\n      tag_75\n      jump\t// in\n    tag_176:\n        /* \"#utility.yul\":7036:7102   */\n      tag_74\n      jump\t// in\n    tag_175:\n        /* \"#utility.yul\":7027:7102   */\n      swap1\n      pop\n        /* \"#utility.yul\":7125:7131   */\n      dup3\n        /* \"#utility.yul\":7118:7123   */\n      dup2\n        /* \"#utility.yul\":7111:7132   */\n      mstore\n        /* \"#utility.yul\":7163:7167   */\n      0x20\n        /* \"#utility.yul\":7156:7161   */\n      dup2\n        /* \"#utility.yul\":7152:7168   */\n      add\n        /* \"#utility.yul\":7201:7204   */\n      dup5\n        /* \"#utility.yul\":7192:7198   */\n      dup5\n        /* \"#utility.yul\":7187:7190   */\n      dup5\n        /* \"#utility.yul\":7183:7199   */\n      add\n        /* \"#utility.yul\":7180:7205   */\n      gt\n        /* \"#utility.yul\":7177:7289   */\n      iszero\n      tag_177\n      jumpi\n        /* \"#utility.yul\":7208:7287   */\n      tag_178\n      tag_71\n      jump\t// in\n    tag_178:\n        /* \"#utility.yul\":7177:7289   */\n    tag_177:\n        /* \"#utility.yul\":7298:7352   */\n      tag_179\n        /* \"#utility.yul\":7345:7351   */\n      dup5\n        /* \"#utility.yul\":7340:7343   */\n      dup3\n        /* \"#utility.yul\":7335:7338   */\n      dup6\n        /* \"#utility.yul\":7298:7352   */\n      tag_76\n      jump\t// in\n    tag_179:\n        /* \"#utility.yul\":7017:7358   */\n      pop\n        /* \"#utility.yul\":6933:7358   */\n      swap4\n      swap3\n      pop\n      pop\n      pop\n      jump\t// out\n        /* \"#utility.yul\":7378:7718   */\n    tag_78:\n        /* \"#utility.yul\":7434:7439   */\n      0x00\n        /* \"#utility.yul\":7483:7486   */\n      dup3\n        /* \"#utility.yul\":7476:7480   */\n      0x1f\n        /* \"#utility.yul\":7468:7474   */\n      dup4\n        /* \"#utility.yul\":7464:7481   */\n      add\n        /* \"#utility.yul\":7460:7487   */\n      slt\n        /* \"#utility.yul\":7450:7572   */\n      tag_181\n      jumpi\n        /* \"#utility.yul\":7491:7570   */\n      tag_182\n      tag_70\n      jump\t// in\n    tag_182:\n        /* \"#utility.yul\":7450:7572   */\n    tag_181:\n        /* \"#utility.yul\":7608:7614   */\n      dup2\n        /* \"#utility.yul\":7595:7615   */\n      calldataload\n        /* \"#utility.yul\":7633:7712   */\n      tag_183\n        /* \"#utility.yul\":7708:7711   */\n      dup5\n        /* \"#utility.yul\":7700:7706   */\n      dup3\n        /* \"#utility.yul\":7693:7697   */\n      0x20\n        /* \"#utility.yul\":7685:7691   */\n      dup7\n        /* \"#utility.yul\":7681:7698   */\n      add\n        /* \"#utility.yul\":7633:7712   */\n      tag_77\n      jump\t// in\n    tag_183:\n        /* \"#utility.yul\":7624:7712   */\n      swap2\n      pop\n        /* \"#utility.yul\":7440:7718   */\n      pop\n        /* \"#utility.yul\":7378:7718   */\n      swap3\n      swap2\n      pop\n      pop\n      jump\t// out\n        /* \"#utility.yul\":7724:7840   */\n    tag_79:\n        /* \"#utility.yul\":7794:7815   */\n      tag_185\n        /* \"#utility.yul\":7809:7814   */\n      dup2\n        /* \"#utility.yul\":7794:7815   */\n      tag_59\n      jump\t// in\n    tag_185:\n        /* \"#utility.yul\":7787:7792   */\n      dup2\n        /* \"#utility.yul\":7784:7816   */\n      eq\n        /* \"#utility.yul\":7774:7834   */\n      tag_186\n      jumpi\n        /* \"#utility.yul\":7830:7831   */\n      0x00\n        /* \"#utility.yul\":7827:7828   */\n      dup1\n        /* \"#utility.yul\":7820:7832   */\n      revert\n        /* \"#utility.yul\":7774:7834   */\n    tag_186:\n        /* \"#utility.yul\":7724:7840   */\n      pop\n      jump\t// out\n        /* \"#utility.yul\":7846:7979   */\n    tag_80:\n        /* \"#utility.yul\":7889:7894   */\n      0x00\n        /* \"#utility.yul\":7927:7933   */\n      dup2\n        /* \"#utility.yul\":7914:7934   */\n      calldataload\n        /* \"#utility.yul\":7905:7934   */\n      swap1\n      pop\n        /* \"#utility.yul\":7943:7973   */\n      tag_188\n        /* \"#utility.yul\":7967:7972   */\n      dup2\n        /* \"#utility.yul\":7943:7973   */\n      tag_79\n      jump\t// in\n    tag_188:\n        /* \"#utility.yul\":7846:7979   */\n      swap3\n      swap2\n      pop\n      pop\n      jump\t// out\n        /* \"#utility.yul\":7985:8107   */\n    tag_81:\n        /* \"#utility.yul\":8058:8082   */\n      tag_190\n        /* \"#utility.yul\":8076:8081   */\n      dup2\n        /* \"#utility.yul\":8058:8082   */\n      tag_62\n      jump\t// in\n    tag_190:\n        /* \"#utility.yul\":8051:8056   */\n      dup2\n        /* \"#utility.yul\":8048:8083   */\n      eq\n        /* \"#utility.yul\":8038:8101   */\n      tag_191\n      jumpi\n        /* \"#utility.yul\":8097:8098   */\n      0x00\n        /* \"#utility.yul\":8094:8095   */\n      dup1\n        /* \"#utility.yul\":8087:8099   */\n      revert\n        /* \"#utility.yul\":8038:8101   */\n    tag_191:\n        /* \"#utility.yul\":7985:8107   */\n      pop\n      jump\t// out\n        /* \"#utility.yul\":8113:8252   */\n    tag_82:\n        /* \"#utility.yul\":8159:8164   */\n      0x00\n        /* \"#utility.yul\":8197:8203   */\n      dup2\n        /* \"#utility.yul\":8184:8204   */\n      calldataload\n        /* \"#utility.yul\":8175:8204   */\n      swap1\n      pop\n        /* \"#utility.yul\":8213:8246   */\n      tag_193\n        /* \"#utility.yul\":8240:8245   */\n      dup2\n        /* \"#utility.yul\":8213:8246   */\n      tag_81\n      jump\t// in\n    tag_193:\n        /* \"#utility.yul\":8113:8252   */\n      swap3\n      swap2\n      pop\n      pop\n      jump\t// out\n        /* \"#utility.yul\":8258:9343   */\n    tag_19:\n        /* \"#utility.yul\":8360:8366   */\n      0x00\n        /* \"#utility.yul\":8368:8374   */\n      dup1\n        /* \"#utility.yul\":8376:8382   */\n      0x00\n        /* \"#utility.yul\":8384:8390   */\n      dup1\n        /* \"#utility.yul\":8392:8398   */\n      0x00\n        /* \"#utility.yul\":8441:8444   */\n      0xa0\n        /* \"#utility.yul\":8429:8438   */\n      dup7\n        /* \"#utility.yul\":8420:8427   */\n      dup9\n        /* \"#utility.yul\":8416:8439   */\n      sub\n        /* \"#utility.yul\":8412:8445   */\n      slt\n        /* \"#utility.yul\":8409:8529   */\n      iszero\n      tag_195\n      jumpi\n        /* \"#utility.yul\":8448:8527   */\n      tag_196\n      tag_48\n      jump\t// in\n    tag_196:\n        /* \"#utility.yul\":8409:8529   */\n    tag_195:\n        /* \"#utility.yul\":8568:8569   */\n      0x00\n        /* \"#utility.yul\":8593:8646   */\n      tag_197\n        /* \"#utility.yul\":8638:8645   */\n      dup9\n        /* \"#utility.yul\":8629:8635   */\n      dup3\n        /* \"#utility.yul\":8618:8627   */\n      dup10\n        /* \"#utility.yul\":8614:8636   */\n      add\n        /* \"#utility.yul\":8593:8646   */\n      tag_52\n      jump\t// in\n    tag_197:\n        /* \"#utility.yul\":8583:8646   */\n      swap6\n      pop\n        /* \"#utility.yul\":8539:8656   */\n      pop\n        /* \"#utility.yul\":8723:8725   */\n      0x20\n        /* \"#utility.yul\":8712:8721   */\n      dup7\n        /* \"#utility.yul\":8708:8726   */\n      add\n        /* \"#utility.yul\":8695:8727   */\n      calldataload\n        /* \"#utility.yul\":8754:8772   */\n      0xffffffffffffffff\n        /* \"#utility.yul\":8746:8752   */\n      dup2\n        /* \"#utility.yul\":8743:8773   */\n      gt\n        /* \"#utility.yul\":8740:8857   */\n      iszero\n      tag_198\n      jumpi\n        /* \"#utility.yul\":8776:8855   */\n      tag_199\n      tag_49\n      jump\t// in\n    tag_199:\n        /* \"#utility.yul\":8740:8857   */\n    tag_198:\n        /* \"#utility.yul\":8881:8944   */\n      tag_200\n        /* \"#utility.yul\":8936:8943   */\n      dup9\n        /* \"#utility.yul\":8927:8933   */\n      dup3\n        /* \"#utility.yul\":8916:8925   */\n      dup10\n        /* \"#utility.yul\":8912:8934   */\n      add\n        /* \"#utility.yul\":8881:8944   */\n      tag_78\n      jump\t// in\n    tag_200:\n        /* \"#utility.yul\":8871:8944   */\n      swap5\n      pop\n        /* \"#utility.yul\":8666:8954   */\n      pop\n        /* \"#utility.yul\":8993:8995   */\n      0x40\n        /* \"#utility.yul\":9019:9072   */\n      tag_201\n        /* \"#utility.yul\":9064:9071   */\n      dup9\n        /* \"#utility.yul\":9055:9061   */\n      dup3\n        /* \"#utility.yul\":9044:9053   */\n      dup10\n        /* \"#utility.yul\":9040:9062   */\n      add\n        /* \"#utility.yul\":9019:9072   */\n      tag_52\n      jump\t// in\n    tag_201:\n        /* \"#utility.yul\":9009:9072   */\n      swap4\n      pop\n        /* \"#utility.yul\":8964:9082   */\n      pop\n        /* \"#utility.yul\":9121:9123   */\n      0x60\n        /* \"#utility.yul\":9147:9197   */\n      tag_202\n        /* \"#utility.yul\":9189:9196   */\n      dup9\n        /* \"#utility.yul\":9180:9186   */\n      dup3\n        /* \"#utility.yul\":9169:9178   */\n      dup10\n        /* \"#utility.yul\":9165:9187   */\n      add\n        /* \"#utility.yul\":9147:9197   */\n      tag_80\n      jump\t// in\n    tag_202:\n        /* \"#utility.yul\":9137:9197   */\n      swap3\n      pop\n        /* \"#utility.yul\":9092:9207   */\n      pop\n        /* \"#utility.yul\":9246:9249   */\n      0x80\n        /* \"#utility.yul\":9273:9326   */\n      tag_203\n        /* \"#utility.yul\":9318:9325   */\n      dup9\n        /* \"#utility.yul\":9309:9315   */\n      dup3\n        /* \"#utility.yul\":9298:9307   */\n      dup10\n        /* \"#utility.yul\":9294:9316   */\n      add\n        /* \"#utility.yul\":9273:9326   */\n      tag_82\n      jump\t// in\n    tag_203:\n        /* \"#utility.yul\":9263:9326   */\n      swap2\n      pop\n        /* \"#utility.yul\":9217:9336   */\n      pop\n        /* \"#utility.yul\":8258:9343   */\n      swap3\n      swap6\n      pop\n      swap3\n      swap6\n      swap1\n      swap4\n      pop\n      jump\t// out\n        /* \"#utility.yul\":9349:9529   */\n    tag_83:\n        /* \"#utility.yul\":9397:9474   */\n      0x4e487b7100000000000000000000000000000000000000000000000000000000\n        /* \"#utility.yul\":9394:9395   */\n      0x00\n        /* \"#utility.yul\":9387:9475   */\n      mstore\n        /* \"#utility.yul\":9494:9498   */\n      0x22\n        /* \"#utility.yul\":9491:9492   */\n      0x04\n        /* \"#utility.yul\":9484:9499   */\n      mstore\n        /* \"#utility.yul\":9518:9522   */\n      0x24\n        /* \"#utility.yul\":9515:9516   */\n      0x00\n        /* \"#utility.yul\":9508:9523   */\n      revert\n        /* \"#utility.yul\":9535:9855   */\n    tag_24:\n        /* \"#utility.yul\":9579:9585   */\n      0x00\n        /* \"#utility.yul\":9616:9617   */\n      0x02\n        /* \"#utility.yul\":9610:9614   */\n      dup3\n        /* \"#utility.yul\":9606:9618   */\n      div\n        /* \"#utility.yul\":9596:9618   */\n      swap1\n      pop\n        /* \"#utility.yul\":9663:9664   */\n      0x01\n        /* \"#utility.yul\":9657:9661   */\n      dup3\n        /* \"#utility.yul\":9653:9665   */\n      and\n        /* \"#utility.yul\":9684:9702   */\n      dup1\n        /* \"#utility.yul\":9674:9755   */\n      tag_206\n      jumpi\n        /* \"#utility.yul\":9740:9744   */\n      0x7f\n        /* \"#utility.yul\":9732:9738   */\n      dup3\n        /* \"#utility.yul\":9728:9745   */\n      and\n        /* \"#utility.yul\":9718:9745   */\n      swap2\n      pop\n        /* \"#utility.yul\":9674:9755   */\n    tag_206:\n        /* \"#utility.yul\":9802:9804   */\n      0x20\n        /* \"#utility.yul\":9794:9800   */\n      dup3\n        /* \"#utility.yul\":9791:9805   */\n      lt\n        /* \"#utility.yul\":9771:9789   */\n      dup2\n        /* \"#utility.yul\":9768:9806   */\n      sub\n        /* \"#utility.yul\":9765:9849   */\n      tag_207\n      jumpi\n        /* \"#utility.yul\":9821:9839   */\n      tag_208\n      tag_83\n      jump\t// in\n    tag_208:\n        /* \"#utility.yul\":9765:9849   */\n    tag_207:\n        /* \"#utility.yul\":9586:9855   */\n      pop\n        /* \"#utility.yul\":9535:9855   */\n      swap2\n      swap1\n      pop\n      jump\t// out\n        /* \"#utility.yul\":9861:10041   */\n    tag_34:\n        /* \"#utility.yul\":9909:9986   */\n      0x4e487b7100000000000000000000000000000000000000000000000000000000\n        /* \"#utility.yul\":9906:9907   */\n      0x00\n        /* \"#utility.yul\":9899:9987   */\n      mstore\n        /* \"#utility.yul\":10006:10010   */\n      0x32\n        /* \"#utility.yul\":10003:10004   */\n      0x04\n        /* \"#utility.yul\":9996:10011   */\n      mstore\n        /* \"#utility.yul\":10030:10034   */\n      0x24\n        /* \"#utility.yul\":10027:10028   */\n      0x00\n        /* \"#utility.yul\":10020:10035   */\n      revert\n        /* \"#utility.yul\":10047:10188   */\n    tag_84:\n        /* \"#utility.yul\":10096:10100   */\n      0x00\n        /* \"#utility.yul\":10119:10122   */\n      dup2\n        /* \"#utility.yul\":10111:10122   */\n      swap1\n      pop\n        /* \"#utility.yul\":10142:10145   */\n      dup2\n        /* \"#utility.yul\":10139:10140   */\n      0x00\n        /* \"#utility.yul\":10132:10146   */\n      mstore\n        /* \"#utility.yul\":10176:10180   */\n      0x20\n        /* \"#utility.yul\":10173:10174   */\n      0x00\n        /* \"#utility.yul\":10163:10181   */\n      keccak256\n        /* \"#utility.yul\":10155:10181   */\n      swap1\n      pop\n        /* \"#utility.yul\":10047:10188   */\n      swap2\n      swap1\n      pop\n      jump\t// out\n        /* \"#utility.yul\":10194:10287   */\n    tag_85:\n        /* \"#utility.yul\":10231:10237   */\n      0x00\n        /* \"#utility.yul\":10278:10280   */\n      0x20\n        /* \"#utility.yul\":10273:10275   */\n      0x1f\n        /* \"#utility.yul\":10266:10271   */\n      dup4\n        /* \"#utility.yul\":10262:10276   */\n      add\n        /* \"#utility.yul\":10258:10281   */\n      div\n        /* \"#utility.yul\":10248:10281   */\n      swap1\n      pop\n        /* \"#utility.yul\":10194:10287   */\n      swap2\n      swap1\n      pop\n      jump\t// out\n        /* \"#utility.yul\":10293:10400   */\n    tag_86:\n        /* \"#utility.yul\":10337:10345   */\n      0x00\n        /* \"#utility.yul\":10387:10392   */\n      dup3\n        /* \"#utility.yul\":10381:10385   */\n      dup3\n        /* \"#utility.yul\":10377:10393   */\n      shl\n        /* \"#utility.yul\":10356:10393   */\n      swap1\n      pop\n        /* \"#utility.yul\":10293:10400   */\n      swap3\n      swap2\n      pop\n      pop\n      jump\t// out\n        /* \"#utility.yul\":10406:10799   */\n    tag_87:\n        /* \"#utility.yul\":10475:10481   */\n      0x00\n        /* \"#utility.yul\":10525:10526   */\n      0x08\n        /* \"#utility.yul\":10513:10523   */\n      dup4\n        /* \"#utility.yul\":10509:10527   */\n      mul\n        /* \"#utility.yul\":10548:10645   */\n      tag_214\n        /* \"#utility.yul\":10578:10644   */\n      0xffffffffffffffffffffffffffffffffffffffffffffffffffffffffffffffff\n        /* \"#utility.yul\":10567:10576   */\n      dup3\n        /* \"#utility.yul\":10548:10645   */\n      tag_86\n      jump\t// in\n    tag_214:\n        /* \"#utility.yul\":10666:10705   */\n      tag_215\n        /* \"#utility.yul\":10696:10704   */\n      dup7\n        /* \"#utility.yul\":10685:10694   */\n      dup4\n        /* \"#utility.yul\":10666:10705   */\n      tag_86\n      jump\t// in\n    tag_215:\n        /* \"#utility.yul\":10654:10705   */\n      swap6\n      pop\n        /* \"#utility.yul\":10738:10742   */\n      dup1\n        /* \"#utility.yul\":10734:10743   */\n      not\n        /* \"#utility.yul\":10727:10732   */\n      dup5\n        /* \"#utility.yul\":10723:10744   */\n      and\n        /* \"#utility.yul\":10714:10744   */\n      swap4\n      pop\n        /* \"#utility.yul\":10787:10791   */\n      dup1\n        /* \"#utility.yul\":10777:10785   */\n      dup7\n        /* \"#utility.yul\":10773:10792   */\n      and\n        /* \"#utility.yul\":10766:10771   */\n      dup5\n        /* \"#utility.yul\":10763:10793   */\n      or\n        /* \"#utility.yul\":10753:10793   */\n      swap3\n      pop\n        /* \"#utility.yul\":10482:10799   */\n      pop\n      pop\n        /* \"#utility.yul\":10406:10799   */\n      swap4\n      swap3\n      pop\n      pop\n      pop\n      jump\t// out\n        /* \"#utility.yul\":10805:10865   */\n    tag_88:\n        /* \"#utility.yul\":10833:10836   */\n      0x00\n        /* \"#utility.yul\":10854:10859   */\n      dup2\n        /* \"#utility.yul\":10847:10859   */\n      swap1\n      pop\n        /* \"#utility.yul\":10805:10865   */\n      swap2\n      swap1\n      pop\n      jump\t// out\n        /* \"#utility.yul\":10871:11013   */\n    tag_89:\n        /* \"#utility.yul\":10921:10930   */\n      0x00\n        /* \"#utility.yul\":10954:11007   */\n      tag_218\n        /* \"#utility.yul\":10972:11006   */\n      tag_219\n        /* \"#utility.yul\":10981:11005   */\n      tag_220\n        /* \"#utility.yul\":10999:11004   */\n      dup5\n        /* \"#utility.yul\":10981:11005   */\n      tag_50\n      jump\t// in\n    tag_220:\n        /* \"#utility.yul\":10972:11006   */\n      tag_88\n      jump\t// in\n    tag_219:\n        /* \"#utility.yul\":10954:11007   */\n      tag_50\n      jump\t// in\n    tag_218:\n        /* \"#utility.yul\":10941:11007   */\n      swap1\n      pop\n        /* \"#utility.yul\":10871:11013   */\n      swap2\n      swap1\n      pop\n      jump\t// out\n        /* \"#utility.yul\":11019:11094   */\n    tag_90:\n        /* \"#utility.yul\":11062:11065   */\n      0x00\n        /* \"#utility.yul\":11083:11088   */\n      dup2\n        /* \"#utility.yul\":11076:11088   */\n      swap1\n      pop\n        /* \"#utility.yul\":11019:11094   */\n      swap2\n      swap1\n      pop\n      jump\t// out\n        /* \"#utility.yul\":11100:11369   */\n    tag_91:\n        /* \"#utility.yul\":11210:11249   */\n      tag_223\n        /* \"#utility.yul\":11241:11248   */\n      dup4\n        /* \"#utility.yul\":11210:11249   */\n      tag_89\n      jump\t// in\n    tag_223:\n        /* \"#utility.yul\":11271:11362   */\n      tag_224\n        /* \"#utility.yul\":11320:11361   */\n      tag_225\n        /* \"#utility.yul\":11344:11360   */\n      dup3\n        /* \"#utility.yul\":11320:11361   */\n      tag_90\n      jump\t// in\n    tag_225:\n        /* \"#utility.yul\":11312:11318   */\n      dup5\n        /* \"#utility.yul\":11305:11309   */\n      dup5\n        /* \"#utility.yul\":11299:11310   */\n      sload\n        /* \"#utility.yul\":11271:11362   */\n      tag_87\n      jump\t// in\n    tag_224:\n        /* \"#utility.yul\":11265:11269   */\n      dup3\n        /* \"#utility.yul\":11258:11363   */\n      sstore\n        /* \"#utility.yul\":11176:11369   */\n      pop\n        /* \"#utility.yul\":11100:11369   */\n      pop\n      pop\n      pop\n      jump\t// out\n        /* \"#utility.yul\":11375:11448   */\n    tag_92:\n        /* \"#utility.yul\":11420:11423   */\n      0x00\n        /* \"#utility.yul\":11375:11448   */\n      swap1\n      jump\t// out\n        /* \"#utility.yul\":11454:11643   */\n    tag_93:\n        /* \"#utility.yul\":11531:11563   */\n      tag_228\n      tag_92\n      jump\t// in\n    tag_228:\n        /* \"#utility.yul\":11572:11637   */\n      tag_229\n        /* \"#utility.yul\":11630:11636   */\n      dup2\n        /* \"#utility.yul\":11622:11628   */\n      dup5\n        /* \"#utility.yul\":11616:11620   */\n      dup5\n        /* \"#utility.yul\":11572:11637   */\n      tag_91\n      jump\t// in\n    tag_229:\n        /* \"#utility.yul\":11507:11643   */\n      pop\n        /* \"#utility.yul\":11454:11643   */\n      pop\n      pop\n      jump\t// out\n        /* \"#utility.yul\":11649:11835   */\n    tag_94:\n        /* \"#utility.yul\":11709:11829   */\n    tag_231:\n        /* \"#utility.yul\":11726:11729   */\n      dup2\n        /* \"#utility.yul\":11719:11724   */\n      dup2\n        /* \"#utility.yul\":11716:11730   */\n      lt\n        /* \"#utility.yul\":11709:11829   */\n      iszero\n      tag_233\n      jumpi\n        /* \"#utility.yul\":11780:11819   */\n      tag_234\n        /* \"#utility.yul\":11817:11818   */\n      0x00\n        /* \"#utility.yul\":11810:11815   */\n      dup3\n        /* \"#utility.yul\":11780:11819   */\n      tag_93\n      jump\t// in\n    tag_234:\n        /* \"#utility.yul\":11753:11754   */\n      0x01\n        /* \"#utility.yul\":11746:11751   */\n      dup2\n        /* \"#utility.yul\":11742:11755   */\n      add\n        /* \"#utility.yul\":11733:11755   */\n      swap1\n      pop\n        /* \"#utility.yul\":11709:11829   */\n      jump(tag_231)\n    tag_233:\n        /* \"#utility.yul\":11649:11835   */\n      pop\n      pop\n      jump\t// out\n        /* \"#utility.yul\":11841:12384   */\n    tag_95:\n        /* \"#utility.yul\":11942:11944   */\n      0x1f\n        /* \"#utility.yul\":11937:11940   */\n      dup3\n        /* \"#utility.yul\":11934:11945   */\n      gt\n        /* \"#utility.yul\":11931:12377   */\n      iszero\n      tag_236\n      jumpi\n        /* \"#utility.yul\":11976:12014   */\n      tag_237\n        /* \"#utility.yul\":12008:12013   */\n      dup2\n        /* \"#utility.yul\":11976:12014   */\n      tag_84\n      jump\t// in\n    tag_237:\n        /* \"#utility.yul\":12060:12089   */\n      tag_238\n        /* \"#utility.yul\":12078:12088   */\n      dup5\n        /* \"#utility.yul\":12060:12089   */\n      tag_85\n      jump\t// in\n    tag_238:\n        /* \"#utility.yul\":12050:12058   */\n      dup2\n        /* \"#utility.yul\":12046:12090   */\n      add\n        /* \"#utility.yul\":12243:12245   */\n      0x20\n        /* \"#utility.yul\":12231:12241   */\n      dup6\n        /* \"#utility.yul\":12228:12246   */\n      lt\n        /* \"#utility.yul\":12225:12274   */\n      iszero\n      tag_239\n      jumpi\n        /* \"#utility.yul\":12264:12272   */\n      dup2\n        /* \"#utility.yul\":12249:12272   */\n      swap1\n      pop\n        /* \"#utility.yul\":12225:12274   */\n    tag_239:\n        /* \"#utility.yul\":12287:12367   */\n      tag_240\n        /* \"#utility.yul\":12343:12365   */\n      tag_241\n        /* \"#utility.yul\":12361:12364   */\n      dup6\n        /* \"#utility.yul\":12343:12365   */\n      tag_85\n      jump\t// in\n    tag_241:\n        /* \"#utility.yul\":12333:12341   */\n      dup4\n        /* \"#utility.yul\":12329:12366   */\n      add\n        /* \"#utility.yul\":12316:12327   */\n      dup3\n        /* \"#utility.yul\":12287:12367   */\n      tag_94\n      jump\t// in\n    tag_240:\n        /* \"#utility.yul\":11946:12377   */\n      pop\n      pop\n        /* \"#utility.yul\":11931:12377   */\n    tag_236:\n        /* \"#utility.yul\":11841:12384   */\n      pop\n      pop\n      pop\n      jump\t// out\n        /* \"#utility.yul\":12390:12507   */\n    tag_96:\n        /* \"#utility.yul\":12444:12452   */\n      0x00\n        /* \"#utility.yul\":12494:12499   */\n      dup3\n        /* \"#utility.yul\":12488:12492   */\n      dup3\n        /* \"#utility.yul\":12484:12500   */\n      shr\n        /* \"#utility.yul\":12463:12500   */\n      swap1\n      pop\n        /* \"#utility.yul\":12390:12507   */\n      swap3\n      swap2\n      pop\n      pop\n      jump\t// out\n        /* \"#utility.yul\":12513:12682   */\n    tag_97:\n        /* \"#utility.yul\":12557:12563   */\n      0x00\n        /* \"#utility.yul\":12590:12641   */\n      tag_244\n        /* \"#utility.yul\":12638:12639   */\n      0x00\n        /* \"#utility.yul\":12634:12640   */\n      not\n        /* \"#utility.yul\":12626:12631   */\n      dup5\n        /* \"#utility.yul\":12623:12624   */\n      0x08\n        /* \"#utility.yul\":12619:12632   */\n      mul\n        /* \"#utility.yul\":12590:12641   */\n      tag_96\n      jump\t// in\n    tag_244:\n        /* \"#utility.yul\":12586:12642   */\n      not\n        /* \"#utility.yul\":12671:12675   */\n      dup1\n        /* \"#utility.yul\":12665:12669   */\n      dup4\n        /* \"#utility.yul\":12661:12676   */\n      and\n        /* \"#utility.yul\":12651:12676   */\n      swap2\n      pop\n        /* \"#utility.yul\":12564:12682   */\n      pop\n        /* \"#utility.yul\":12513:12682   */\n      swap3\n      swap2\n      pop\n      pop\n      jump\t// out\n        /* \"#utility.yul\":12687:12982   */\n    tag_98:\n        /* \"#utility.yul\":12763:12767   */\n      0x00\n        /* \"#utility.yul\":12909:12938   */\n      tag_246\n        /* \"#utility.yul\":12934:12937   */\n      dup4\n        /* \"#utility.yul\":12928:12932   */\n      dup4\n        /* \"#utility.yul\":12909:12938   */\n      tag_97\n      jump\t// in\n    tag_246:\n        /* \"#utility.yul\":12901:12938   */\n      swap2\n      pop\n        /* \"#utility.yul\":12971:12974   */\n      dup3\n        /* \"#utility.yul\":12968:12969   */\n      0x02\n        /* \"#utility.yul\":12964:12975   */\n      mul\n        /* \"#utility.yul\":12958:12962   */\n      dup3\n        /* \"#utility.yul\":12955:12976   */\n      or\n        /* \"#utility.yul\":12947:12976   */\n      swap1\n      pop\n        /* \"#utility.yul\":12687:12982   */\n      swap3\n      swap2\n      pop\n      pop\n      jump\t// out\n        /* \"#utility.yul\":12987:14382   */\n    tag_46:\n        /* \"#utility.yul\":13104:13141   */\n      tag_248\n        /* \"#utility.yul\":13137:13140   */\n      dup3\n        /* \"#utility.yul\":13104:13141   */\n      tag_53\n      jump\t// in\n    tag_248:\n        /* \"#utility.yul\":13206:13224   */\n      0xffffffffffffffff\n        /* \"#utility.yul\":13198:13204   */\n      dup2\n        /* \"#utility.yul\":13195:13225   */\n      gt\n        /* \"#utility.yul\":13192:13248   */\n      iszero\n      tag_249\n      jumpi\n        /* \"#utility.yul\":13228:13246   */\n      tag_250\n      tag_72\n      jump\t// in\n    tag_250:\n        /* \"#utility.yul\":13192:13248   */\n    tag_249:\n        /* \"#utility.yul\":13272:13310   */\n      tag_251\n        /* \"#utility.yul\":13304:13308   */\n      dup3\n        /* \"#utility.yul\":13298:13309   */\n      sload\n        /* \"#utility.yul\":13272:13310   */\n      tag_24\n      jump\t// in\n    tag_251:\n        /* \"#utility.yul\":13357:13424   */\n      tag_252\n        /* \"#utility.yul\":13417:13423   */\n      dup3\n        /* \"#utility.yul\":13409:13415   */\n      dup3\n        /* \"#utility.yul\":13403:13407   */\n      dup6\n        /* \"#utility.yul\":13357:13424   */\n      tag_95\n      jump\t// in\n    tag_252:\n        /* \"#utility.yul\":13451:13452   */\n      0x00\n        /* \"#utility.yul\":13475:13479   */\n      0x20\n        /* \"#utility.yul\":13462:13479   */\n      swap1\n      pop\n        /* \"#utility.yul\":13507:13509   */\n      0x1f\n        /* \"#utility.yul\":13499:13505   */\n      dup4\n        /* \"#utility.yul\":13496:13510   */\n      gt\n        /* \"#utility.yul\":13524:13525   */\n      0x01\n        /* \"#utility.yul\":13519:14137   */\n      dup2\n      eq\n      tag_254\n      jumpi\n        /* \"#utility.yul\":14181:14182   */\n      0x00\n        /* \"#utility.yul\":14198:14204   */\n      dup5\n        /* \"#utility.yul\":14195:14272   */\n      iszero\n      tag_255\n      jumpi\n        /* \"#utility.yul\":14247:14256   */\n      dup3\n        /* \"#utility.yul\":14242:14245   */\n      dup8\n        /* \"#utility.yul\":14238:14257   */\n      add\n        /* \"#utility.yul\":14232:14258   */\n      mload\n        /* \"#utility.yul\":14223:14258   */\n      swap1\n      pop\n        /* \"#utility.yul\":14195:14272   */\n    tag_255:\n        /* \"#utility.yul\":14298:14365   */\n      tag_256\n        /* \"#utility.yul\":14358:14364   */\n      dup6\n        /* \"#utility.yul\":14351:14356   */\n      dup3\n        /* \"#utility.yul\":14298:14365   */\n      tag_98\n      jump\t// in\n    tag_256:\n        /* \"#utility.yul\":14292:14296   */\n      dup7\n        /* \"#utility.yul\":14285:14366   */\n      sstore\n        /* \"#utility.yul\":14154:14376   */\n      pop\n        /* \"#utility.yul\":13489:14376   */\n      jump(tag_253)\n        /* \"#utility.yul\":13519:14137   */\n    tag_254:\n        /* \"#utility.yul\":13571:13575   */\n      0x1f\n        /* \"#utility.yul\":13567:13576   */\n      not\n        /* \"#utility.yul\":13559:13565   */\n      dup5\n        /* \"#utility.yul\":13555:13577   */\n      and\n        /* \"#utility.yul\":13605:13642   */\n      tag_257\n        /* \"#utility.yul\":13637:13641   */\n      dup7\n        /* \"#utility.yul\":13605:13642   */\n      tag_84\n      jump\t// in\n    tag_257:\n        /* \"#utility.yul\":13664:13665   */\n      0x00\n        /* \"#utility.yul\":13678:13886   */\n    tag_258:\n        /* \"#utility.yul\":13692:13699   */\n      dup3\n        /* \"#utility.yul\":13689:13690   */\n      dup2\n        /* \"#utility.yul\":13686:13700   */\n      lt\n        /* \"#utility.yul\":13678:13886   */\n      iszero\n      tag_260\n      jumpi\n        /* \"#utility.yul\":13771:13780   */\n      dup5\n        /* \"#utility.yul\":13766:13769   */\n      dup10\n        /* \"#utility.yul\":13762:13781   */\n      add\n        /* \"#utility.yul\":13756:13782   */\n      mload\n        /* \"#utility.yul\":13748:13754   */\n      dup3\n        /* \"#utility.yul\":13741:13783   */\n      sstore\n        /* \"#utility.yul\":13822:13823   */\n      0x01\n        /* \"#utility.yul\":13814:13820   */\n      dup3\n        /* \"#utility.yul\":13810:13824   */\n      add\n        /* \"#utility.yul\":13800:13824   */\n      swap2\n      pop\n        /* \"#utility.yul\":13869:13871   */\n      0x20\n        /* \"#utility.yul\":13858:13867   */\n      dup6\n        /* \"#utility.yul\":13854:13872   */\n      add\n        /* \"#utility.yul\":13841:13872   */\n      swap5\n      pop\n        /* \"#utility.yul\":13715:13719   */\n      0x20\n        /* \"#utility.yul\":13712:13713   */\n      dup2\n        /* \"#utility.yul\":13708:13720   */\n      add\n        /* \"#utility.yul\":13703:13720   */\n      swap1\n      pop\n        /* \"#utility.yul\":13678:13886   */\n      jump(tag_258)\n    tag_260:\n        /* \"#utility.yul\":13914:13920   */\n      dup7\n        /* \"#utility.yul\":13905:13912   */\n      dup4\n        /* \"#utility.yul\":13902:13921   */\n      lt\n        /* \"#utility.yul\":13899:14078   */\n      iszero\n      tag_261\n      jumpi\n        /* \"#utility.yul\":13972:13981   */\n      dup5\n        /* \"#utility.yul\":13967:13970   */\n      dup10\n        /* \"#utility.yul\":13963:13982   */\n      add\n        /* \"#utility.yul\":13957:13983   */\n      mload\n        /* \"#utility.yul\":14015:14063   */\n      tag_262\n        /* \"#utility.yul\":14057:14061   */\n      0x1f\n        /* \"#utility.yul\":14049:14055   */\n      dup10\n        /* \"#utility.yul\":14045:14062   */\n      and\n        /* \"#utility.yul\":14034:14043   */\n      dup3\n        /* \"#utility.yul\":14015:14063   */\n      tag_97\n      jump\t// in\n    tag_262:\n        /* \"#utility.yul\":14007:14013   */\n      dup4\n        /* \"#utility.yul\":14000:14064   */\n      sstore\n        /* \"#utility.yul\":13922:14078   */\n      pop\n        /* \"#utility.yul\":13899:14078   */\n    tag_261:\n        /* \"#utility.yul\":14124:14125   */\n      0x01\n        /* \"#utility.yul\":14120:14121   */\n      0x02\n        /* \"#utility.yul\":14112:14118   */\n      dup9\n        /* \"#utility.yul\":14108:14122   */\n      mul\n        /* \"#utility.yul\":14104:14126   */\n      add\n        /* \"#utility.yul\":14098:14102   */\n      dup9\n        /* \"#utility.yul\":14091:14127   */\n      sstore\n        /* \"#utility.yul\":13526:14137   */\n      pop\n      pop\n      pop\n        /* \"#utility.yul\":13489:14376   */\n    tag_253:\n      pop\n        /* \"#utility.yul\":13079:14382   */\n      pop\n      pop\n      pop\n        /* \"#utility.yul\":12987:14382   */\n      pop\n      pop\n      jump\t// out\n\n    auxdata: 0xa2646970667358221220923e16941ccd4643dfb7b3db4ccc8c4723cf6937cd96362f8b4c82fca783154864736f6c63430008120033\n}\n",
				"bytecode": {
					"linkReferences": {},
					"object": "608060405234801561001057600080fd5b50610c32806100206000396000f3fe608060405234801561001057600080fd5b50600436106100415760003560e01c806352efd68514610046578063670e3392146100795780639bce9ec1146100a9575b600080fd5b610060600480360381019061005b919061045b565b6100c5565b6040516100709493929190610583565b60405180910390f35b610093600480360381019061008e919061045b565b6101b0565b6040516100a091906106a9565b60405180910390f35b6100c360048036038101906100be9190610858565b6102ef565b005b600081600581106100d557600080fd5b600302016000915090508060000180546100ee9061091e565b80601f016020809104026020016040519081016040528092919081815260200182805461011a9061091e565b80156101675780601f1061013c57610100808354040283529160200191610167565b820191906000526020600020905b81548152906001019060200180831161014a57829003601f168201915b5050505050908060010154908060020160009054906101000a900460ff16908060020160019054906101000a900473ffffffffffffffffffffffffffffffffffffffff16905084565b6101b86103d1565b600082600581106101cc576101cb61094f565b5b600302016040518060800160405290816000820180546101eb9061091e565b80601f01602080910402602001604051908101604052809291908181526020018280546102179061091e565b80156102645780601f1061023957610100808354040283529160200191610264565b820191906000526020600020905b81548152906001019060200180831161024757829003601f168201915b50505050508152602001600182015481526020016002820160009054906101000a900460ff161515151581526020016002820160019054906101000a900473ffffffffffffffffffffffffffffffffffffffff1673ffffffffffffffffffffffffffffffffffffffff1673ffffffffffffffffffffffffffffffffffffffff16815250509050919050565b604051806080016040528085815260200184815260200183151581526020018273ffffffffffffffffffffffffffffffffffffffff168152506000866005811061033c5761033b61094f565b5b6003020160008201518160000190816103559190610b2a565b506020820151816001015560408201518160020160006101000a81548160ff02191690831515021790555060608201518160020160016101000a81548173ffffffffffffffffffffffffffffffffffffffff021916908373ffffffffffffffffffffffffffffffffffffffff1602179055509050505050505050565b60405180608001604052806060815260200160008152602001600015158152602001600073ffffffffffffffffffffffffffffffffffffffff1681525090565b6000604051905090565b600080fd5b600080fd5b6000819050919050565b61043881610425565b811461044357600080fd5b50565b6000813590506104558161042f565b92915050565b6000602082840312156104715761047061041b565b5b600061047f84828501610446565b91505092915050565b600081519050919050565b600082825260208201905092915050565b60005b838110156104c25780820151818401526020810190506104a7565b60008484015250505050565b6000601f19601f8301169050919050565b60006104ea82610488565b6104f48185610493565b93506105048185602086016104a4565b61050d816104ce565b840191505092915050565b61052181610425565b82525050565b60008115159050919050565b61053c81610527565b82525050565b600073ffffffffffffffffffffffffffffffffffffffff82169050919050565b600061056d82610542565b9050919050565b61057d81610562565b82525050565b6000608082019050818103600083015261059d81876104df565b90506105ac6020830186610518565b6105b96040830185610533565b6105c66060830184610574565b95945050505050565b600082825260208201905092915050565b60006105eb82610488565b6105f581856105cf565b93506106058185602086016104a4565b61060e816104ce565b840191505092915050565b61062281610425565b82525050565b61063181610527565b82525050565b61064081610562565b82525050565b6000608083016000830151848203600086015261066382826105e0565b91505060208301516106786020860182610619565b50604083015161068b6040860182610628565b50606083015161069e6060860182610637565b508091505092915050565b600060208201905081810360008301526106c38184610646565b905092915050565b600080fd5b600080fd5b7f4e487b7100000000000000000000000000000000000000000000000000000000600052604160045260246000fd5b61070d826104ce565b810181811067ffffffffffffffff8211171561072c5761072b6106d5565b5b80604052505050565b600061073f610411565b905061074b8282610704565b919050565b600067ffffffffffffffff82111561076b5761076a6106d5565b5b610774826104ce565b9050602081019050919050565b82818337600083830152505050565b60006107a361079e84610750565b610735565b9050828152602081018484840111156107bf576107be6106d0565b5b6107ca848285610781565b509392505050565b600082601f8301126107e7576107e66106cb565b5b81356107f7848260208601610790565b91505092915050565b61080981610527565b811461081457600080fd5b50565b60008135905061082681610800565b92915050565b61083581610562565b811461084057600080fd5b50565b6000813590506108528161082c565b92915050565b600080600080600060a086880312156108745761087361041b565b5b600061088288828901610446565b955050602086013567ffffffffffffffff8111156108a3576108a2610420565b5b6108af888289016107d2565b94505060406108c088828901610446565b93505060606108d188828901610817565b92505060806108e288828901610843565b9150509295509295909350565b7f4e487b7100000000000000000000000000000000000000000000000000000000600052602260045260246000fd5b6000600282049050600182168061093657607f821691505b602082108103610949576109486108ef565b5b50919050565b7f4e487b7100000000000000000000000000000000000000000000000000000000600052603260045260246000fd5b60008190508160005260206000209050919050565b60006020601f8301049050919050565b600082821b905092915050565b6000600883026109e07fffffffffffffffffffffffffffffffffffffffffffffffffffffffffffffffff826109a3565b6109ea86836109a3565b95508019841693508086168417925050509392505050565b6000819050919050565b6000610a27610a22610a1d84610425565b610a02565b610425565b9050919050565b6000819050919050565b610a4183610a0c565b610a55610a4d82610a2e565b8484546109b0565b825550505050565b600090565b610a6a610a5d565b610a75818484610a38565b505050565b5b81811015610a9957610a8e600082610a62565b600181019050610a7b565b5050565b601f821115610ade57610aaf8161097e565b610ab884610993565b81016020851015610ac7578190505b610adb610ad385610993565b830182610a7a565b50505b505050565b600082821c905092915050565b6000610b0160001984600802610ae3565b1980831691505092915050565b6000610b1a8383610af0565b9150826002028217905092915050565b610b3382610488565b67ffffffffffffffff811115610b4c57610b4b6106d5565b5b610b56825461091e565b610b61828285610a9d565b600060209050601f831160018114610b945760008415610b82578287015190505b610b8c8582610b0e565b865550610bf4565b601f198416610ba28661097e565b60005b82811015610bca57848901518255600182019150602085019450602081019050610ba5565b86831015610be75784890151610be3601f891682610af0565b8355505b6001600288020188555050505b50505050505056fea2646970667358221220923e16941ccd4643dfb7b3db4ccc8c4723cf6937cd96362f8b4c82fca783154864736f6c63430008120033",
					"opcodes": "PUSH1 0x80 PUSH1 0x40 MSTORE CALLVALUE DUP1 ISZERO PUSH2 0x10 JUMPI PUSH1 0x0 DUP1 REVERT JUMPDEST POP PUSH2 0xC32 DUP1 PUSH2 0x20 PUSH1 0x0 CODECOPY PUSH1 0x0 RETURN INVALID PUSH1 0x80 PUSH1 0x40 MSTORE CALLVALUE DUP1 ISZERO PUSH2 0x10 JUMPI PUSH1 0x0 DUP1 REVERT JUMPDEST POP PUSH1 0x4 CALLDATASIZE LT PUSH2 0x41 JUMPI PUSH1 0x0 CALLDATALOAD PUSH1 0xE0 SHR DUP1 PUSH4 0x52EFD685 EQ PUSH2 0x46 JUMPI DUP1 PUSH4 0x670E3392 EQ PUSH2 0x79 JUMPI DUP1 PUSH4 0x9BCE9EC1 EQ PUSH2 0xA9 JUMPI JUMPDEST PUSH1 0x0 DUP1 REVERT JUMPDEST PUSH2 0x60 PUSH1 0x4 DUP1 CALLDATASIZE SUB DUP2 ADD SWAP1 PUSH2 0x5B SWAP2 SWAP1 PUSH2 0x45B JUMP JUMPDEST PUSH2 0xC5 JUMP JUMPDEST PUSH1 0x40 MLOAD PUSH2 0x70 SWAP5 SWAP4 SWAP3 SWAP2 SWAP1 PUSH2 0x583 JUMP JUMPDEST PUSH1 0x40 MLOAD DUP1 SWAP2 SUB SWAP1 RETURN JUMPDEST PUSH2 0x93 PUSH1 0x4 DUP1 CALLDATASIZE SUB DUP2 ADD SWAP1 PUSH2 0x8E SWAP2 SWAP1 PUSH2 0x45B JUMP JUMPDEST PUSH2 0x1B0 JUMP JUMPDEST PUSH1 0x40 MLOAD PUSH2 0xA0 SWAP2 SWAP1 PUSH2 0x6A9 JUMP JUMPDEST PUSH1 0x40 MLOAD DUP1 SWAP2 SUB SWAP1 RETURN JUMPDEST PUSH2 0xC3 PUSH1 0x4 DUP1 CALLDATASIZE SUB DUP2 ADD SWAP1 PUSH2 0xBE SWAP2 SWAP1 PUSH2 0x858 JUMP JUMPDEST PUSH2 0x2EF JUMP JUMPDEST STOP JUMPDEST PUSH1 0x0 DUP2 PUSH1 0x5 DUP2 LT PUSH2 0xD5 JUMPI PUSH1 0x0 DUP1 REVERT JUMPDEST PUSH1 0x3 MUL ADD PUSH1 0x0 SWAP2 POP SWAP1 POP DUP1 PUSH1 0x0 ADD DUP1 SLOAD PUSH2 0xEE SWAP1 PUSH2 0x91E JUMP JUMPDEST DUP1 PUSH1 0x1F ADD PUSH1 0x20 DUP1 SWAP2 DIV MUL PUSH1 0x20 ADD PUSH1 0x40 MLOAD SWAP1 DUP2 ADD PUSH1 0x40 MSTORE DUP1 SWAP3 SWAP2 SWAP1 DUP2 DUP2 MSTORE PUSH1 0x20 ADD DUP3 DUP1 SLOAD PUSH2 0x11A SWAP1 PUSH2 0x91E JUMP JUMPDEST DUP1 ISZERO PUSH2 0x167 JUMPI DUP1 PUSH1 0x1F LT PUSH2 0x13C JUMPI PUSH2 0x100 DUP1 DUP4 SLOAD DIV MUL DUP4 MSTORE SWAP2 PUSH1 0x20 ADD SWAP2 PUSH2 0x167 JUMP JUMPDEST DUP3 ADD SWAP2 SWAP1 PUSH1 0x0 MSTORE PUSH1 0x20 PUSH1 0x0 KECCAK256 SWAP1 JUMPDEST DUP2 SLOAD DUP2 MSTORE SWAP1 PUSH1 0x1 ADD SWAP1 PUSH1 0x20 ADD DUP1 DUP4 GT PUSH2 0x14A JUMPI DUP3 SWAP1 SUB PUSH1 0x1F AND DUP3 ADD SWAP2 JUMPDEST POP POP POP POP POP SWAP1 DUP1 PUSH1 0x1 ADD SLOAD SWAP1 DUP1 PUSH1 0x2 ADD PUSH1 0x0 SWAP1 SLOAD SWAP1 PUSH2 0x100 EXP SWAP1 DIV PUSH1 0xFF AND SWAP1 DUP1 PUSH1 0x2 ADD PUSH1 0x1 SWAP1 SLOAD SWAP1 PUSH2 0x100 EXP SWAP1 DIV PUSH20 0xFFFFFFFFFFFFFFFFFFFFFFFFFFFFFFFFFFFFFFFF AND SWAP1 POP DUP5 JUMP JUMPDEST PUSH2 0x1B8 PUSH2 0x3D1 JUMP JUMPDEST PUSH1 0x0 DUP3 PUSH1 0x5 DUP2 LT PUSH2 0x1CC JUMPI PUSH2 0x1CB PUSH2 0x94F JUMP JUMPDEST JUMPDEST PUSH1 0x3 MUL ADD PUSH1 0x40 MLOAD DUP1 PUSH1 0x80 ADD PUSH1 0x40 MSTORE SWAP1 DUP2 PUSH1 0x0 DUP3 ADD DUP1 SLOAD PUSH2 0x1EB SWAP1 PUSH2 0x91E JUMP JUMPDEST DUP1 PUSH1 0x1F ADD PUSH1 0x20 DUP1 SWAP2 DIV MUL PUSH1 0x20 ADD PUSH1 0x40 MLOAD SWAP1 DUP2 ADD PUSH1 0x40 MSTORE DUP1 SWAP3 SWAP2 SWAP1 DUP2 DUP2 MSTORE PUSH1 0x20 ADD DUP3 DUP1 SLOAD PUSH2 0x217 SWAP1 PUSH2 0x91E JUMP JUMPDEST DUP1 ISZERO PUSH2 0x264 JUMPI DUP1 PUSH1 0x1F LT PUSH2 0x239 JUMPI PUSH2 0x100 DUP1 DUP4 SLOAD DIV MUL DUP4 MSTORE SWAP2 PUSH1 0x20 ADD SWAP2 PUSH2 0x264 JUMP JUMPDEST DUP3 ADD SWAP2 SWAP1 PUSH1 0x0 MSTORE PUSH1 0x20 PUSH1 0x0 KECCAK256 SWAP1 JUMPDEST DUP2 SLOAD DUP2 MSTORE SWAP1 PUSH1 0x1 ADD SWAP1 PUSH1 0x20 ADD DUP1 DUP4 GT PUSH2 0x247 JUMPI DUP3 SWAP1 SUB PUSH1 0x1F AND DUP3 ADD SWAP2 JUMPDEST POP POP POP POP POP DUP2 MSTORE PUSH1 0x20 ADD PUSH1 0x1 DUP3 ADD SLOAD DUP2 MSTORE PUSH1 0x20 ADD PUSH1 0x2 DUP3 ADD PUSH1 0x0 SWAP1 SLOAD SWAP1 PUSH2 0x100 EXP SWAP1 DIV PUSH1 0xFF AND ISZERO ISZERO ISZERO ISZERO DUP2 MSTORE PUSH1 0x20 ADD PUSH1 0x2 DUP3 ADD PUSH1 0x1 SWAP1 SLOAD SWAP1 PUSH2 0x100 EXP SWAP1 DIV PUSH20 0xFFFFFFFFFFFFFFFFFFFFFFFFFFFFFFFFFFFFFFFF AND PUSH20 0xFFFFFFFFFFFFFFFFFFFFFFFFFFFFFFFFFFFFFFFF AND PUSH20 0xFFFFFFFFFFFFFFFFFFFFFFFFFFFFFFFFFFFFFFFF AND DUP2 MSTORE POP POP SWAP1 POP SWAP2 SWAP1 POP JUMP JUMPDEST PUSH1 0x40 MLOAD DUP1 PUSH1 0x80 ADD PUSH1 0x40 MSTORE DUP1 DUP6 DUP2 MSTORE PUSH1 0x20 ADD DUP5 DUP2 MSTORE PUSH1 0x20 ADD DUP4 ISZERO ISZERO DUP2 MSTORE PUSH1 0x20 ADD DUP3 PUSH20 0xFFFFFFFFFFFFFFFFFFFFFFFFFFFFFFFFFFFFFFFF AND DUP2 MSTORE POP PUSH1 0x0 DUP7 PUSH1 0x5 DUP2 LT PUSH2 0x33C JUMPI PUSH2 0x33B PUSH2 0x94F JUMP JUMPDEST JUMPDEST PUSH1 0x3 MUL ADD PUSH1 0x0 DUP3 ADD MLOAD DUP2 PUSH1 0x0 ADD SWAP1 DUP2 PUSH2 0x355 SWAP2 SWAP1 PUSH2 0xB2A JUMP JUMPDEST POP PUSH1 0x20 DUP3 ADD MLOAD DUP2 PUSH1 0x1 ADD SSTORE PUSH1 0x40 DUP3 ADD MLOAD DUP2 PUSH1 0x2 ADD PUSH1 0x0 PUSH2 0x100 EXP DUP2 SLOAD DUP2 PUSH1 0xFF MUL NOT AND SWAP1 DUP4 ISZERO ISZERO MUL OR SWAP1 SSTORE POP PUSH1 0x60 DUP3 ADD MLOAD DUP2 PUSH1 0x2 ADD PUSH1 0x1 PUSH2 0x100 EXP DUP2 SLOAD DUP2 PUSH20 0xFFFFFFFFFFFFFFFFFFFFFFFFFFFFFFFFFFFFFFFF MUL NOT AND SWAP1 DUP4 PUSH20 0xFFFFFFFFFFFFFFFFFFFFFFFFFFFFFFFFFFFFFFFF AND MUL OR SWAP1 SSTORE POP SWAP1 POP POP POP POP POP POP POP JUMP JUMPDEST PUSH1 0x40 MLOAD DUP1 PUSH1 0x80 ADD PUSH1 0x40 MSTORE DUP1 PUSH1 0x60 DUP2 MSTORE PUSH1 0x20 ADD PUSH1 0x0 DUP2 MSTORE PUSH1 0x20 ADD PUSH1 0x0 ISZERO ISZERO DUP2 MSTORE PUSH1 0x20 ADD PUSH1 0x0 PUSH20 0xFFFFFFFFFFFFFFFFFFFFFFFFFFFFFFFFFFFFFFFF AND DUP2 MSTORE POP SWAP1 JUMP JUMPDEST PUSH1 0x0 PUSH1 0x40 MLOAD SWAP1 POP SWAP1 JUMP JUMPDEST PUSH1 0x0 DUP1 REVERT JUMPDEST PUSH1 0x0 DUP1 REVERT JUMPDEST PUSH1 0x0 DUP2 SWAP1 POP SWAP2 SWAP1 POP JUMP JUMPDEST PUSH2 0x438 DUP2 PUSH2 0x425 JUMP JUMPDEST DUP2 EQ PUSH2 0x443 JUMPI PUSH1 0x0 DUP1 REVERT JUMPDEST POP JUMP JUMPDEST PUSH1 0x0 DUP2 CALLDATALOAD SWAP1 POP PUSH2 0x455 DUP2 PUSH2 0x42F JUMP JUMPDEST SWAP3 SWAP2 POP POP JUMP JUMPDEST PUSH1 0x0 PUSH1 0x20 DUP3 DUP5 SUB SLT ISZERO PUSH2 0x471 JUMPI PUSH2 0x470 PUSH2 0x41B JUMP JUMPDEST JUMPDEST PUSH1 0x0 PUSH2 0x47F DUP5 DUP3 DUP6 ADD PUSH2 0x446 JUMP JUMPDEST SWAP2 POP POP SWAP3 SWAP2 POP POP JUMP JUMPDEST PUSH1 0x0 DUP2 MLOAD SWAP1 POP SWAP2 SWAP1 POP JUMP JUMPDEST PUSH1 0x0 DUP3 DUP3 MSTORE PUSH1 0x20 DUP3 ADD SWAP1 POP SWAP3 SWAP2 POP POP JUMP JUMPDEST PUSH1 0x0 JUMPDEST DUP4 DUP2 LT ISZERO PUSH2 0x4C2 JUMPI DUP1 DUP3 ADD MLOAD DUP2 DUP5 ADD MSTORE PUSH1 0x20 DUP2 ADD SWAP1 POP PUSH2 0x4A7 JUMP JUMPDEST PUSH1 0x0 DUP5 DUP5 ADD MSTORE POP POP POP POP JUMP JUMPDEST PUSH1 0x0 PUSH1 0x1F NOT PUSH1 0x1F DUP4 ADD AND SWAP1 POP SWAP2 SWAP1 POP JUMP JUMPDEST PUSH1 0x0 PUSH2 0x4EA DUP3 PUSH2 0x488 JUMP JUMPDEST PUSH2 0x4F4 DUP2 DUP6 PUSH2 0x493 JUMP JUMPDEST SWAP4 POP PUSH2 0x504 DUP2 DUP6 PUSH1 0x20 DUP7 ADD PUSH2 0x4A4 JUMP JUMPDEST PUSH2 0x50D DUP2 PUSH2 0x4CE JUMP JUMPDEST DUP5 ADD SWAP2 POP POP SWAP3 SWAP2 POP POP JUMP JUMPDEST PUSH2 0x521 DUP2 PUSH2 0x425 JUMP JUMPDEST DUP3 MSTORE POP POP JUMP JUMPDEST PUSH1 0x0 DUP2 ISZERO ISZERO SWAP1 POP SWAP2 SWAP1 POP JUMP JUMPDEST PUSH2 0x53C DUP2 PUSH2 0x527 JUMP JUMPDEST DUP3 MSTORE POP POP JUMP JUMPDEST PUSH1 0x0 PUSH20 0xFFFFFFFFFFFFFFFFFFFFFFFFFFFFFFFFFFFFFFFF DUP3 AND SWAP1 POP SWAP2 SWAP1 POP JUMP JUMPDEST PUSH1 0x0 PUSH2 0x56D DUP3 PUSH2 0x542 JUMP JUMPDEST SWAP1 POP SWAP2 SWAP1 POP JUMP JUMPDEST PUSH2 0x57D DUP2 PUSH2 0x562 JUMP JUMPDEST DUP3 MSTORE POP POP JUMP JUMPDEST PUSH1 0x0 PUSH1 0x80 DUP3 ADD SWAP1 POP DUP2 DUP2 SUB PUSH1 0x0 DUP4 ADD MSTORE PUSH2 0x59D DUP2 DUP8 PUSH2 0x4DF JUMP JUMPDEST SWAP1 POP PUSH2 0x5AC PUSH1 0x20 DUP4 ADD DUP7 PUSH2 0x518 JUMP JUMPDEST PUSH2 0x5B9 PUSH1 0x40 DUP4 ADD DUP6 PUSH2 0x533 JUMP JUMPDEST PUSH2 0x5C6 PUSH1 0x60 DUP4 ADD DUP5 PUSH2 0x574 JUMP JUMPDEST SWAP6 SWAP5 POP POP POP POP POP JUMP JUMPDEST PUSH1 0x0 DUP3 DUP3 MSTORE PUSH1 0x20 DUP3 ADD SWAP1 POP SWAP3 SWAP2 POP POP JUMP JUMPDEST PUSH1 0x0 PUSH2 0x5EB DUP3 PUSH2 0x488 JUMP JUMPDEST PUSH2 0x5F5 DUP2 DUP6 PUSH2 0x5CF JUMP JUMPDEST SWAP4 POP PUSH2 0x605 DUP2 DUP6 PUSH1 0x20 DUP7 ADD PUSH2 0x4A4 JUMP JUMPDEST PUSH2 0x60E DUP2 PUSH2 0x4CE JUMP JUMPDEST DUP5 ADD SWAP2 POP POP SWAP3 SWAP2 POP POP JUMP JUMPDEST PUSH2 0x622 DUP2 PUSH2 0x425 JUMP JUMPDEST DUP3 MSTORE POP POP JUMP JUMPDEST PUSH2 0x631 DUP2 PUSH2 0x527 JUMP JUMPDEST DUP3 MSTORE POP POP JUMP JUMPDEST PUSH2 0x640 DUP2 PUSH2 0x562 JUMP JUMPDEST DUP3 MSTORE POP POP JUMP JUMPDEST PUSH1 0x0 PUSH1 0x80 DUP4 ADD PUSH1 0x0 DUP4 ADD MLOAD DUP5 DUP3 SUB PUSH1 0x0 DUP7 ADD MSTORE PUSH2 0x663 DUP3 DUP3 PUSH2 0x5E0 JUMP JUMPDEST SWAP2 POP POP PUSH1 0x20 DUP4 ADD MLOAD PUSH2 0x678 PUSH1 0x20 DUP7 ADD DUP3 PUSH2 0x619 JUMP JUMPDEST POP PUSH1 0x40 DUP4 ADD MLOAD PUSH2 0x68B PUSH1 0x40 DUP7 ADD DUP3 PUSH2 0x628 JUMP JUMPDEST POP PUSH1 0x60 DUP4 ADD MLOAD PUSH2 0x69E PUSH1 0x60 DUP7 ADD DUP3 PUSH2 0x637 JUMP JUMPDEST POP DUP1 SWAP2 POP POP SWAP3 SWAP2 POP POP JUMP JUMPDEST PUSH1 0x0 PUSH1 0x20 DUP3 ADD SWAP1 POP DUP2 DUP2 SUB PUSH1 0x0 DUP4 ADD MSTORE PUSH2 0x6C3 DUP2 DUP5 PUSH2 0x646 JUMP JUMPDEST SWAP1 POP SWAP3 SWAP2 POP POP JUMP JUMPDEST PUSH1 0x0 DUP1 REVERT JUMPDEST PUSH1 0x0 DUP1 REVERT JUMPDEST PUSH32 0x4E487B7100000000000000000000000000000000000000000000000000000000 PUSH1 0x0 MSTORE PUSH1 0x41 PUSH1 0x4 MSTORE PUSH1 0x24 PUSH1 0x0 REVERT JUMPDEST PUSH2 0x70D DUP3 PUSH2 0x4CE JUMP JUMPDEST DUP2 ADD DUP2 DUP2 LT PUSH8 0xFFFFFFFFFFFFFFFF DUP3 GT OR ISZERO PUSH2 0x72C JUMPI PUSH2 0x72B PUSH2 0x6D5 JUMP JUMPDEST JUMPDEST DUP1 PUSH1 0x40 MSTORE POP POP POP JUMP JUMPDEST PUSH1 0x0 PUSH2 0x73F PUSH2 0x411 JUMP JUMPDEST SWAP1 POP PUSH2 0x74B DUP3 DUP3 PUSH2 0x704 JUMP JUMPDEST SWAP2 SWAP1 POP JUMP JUMPDEST PUSH1 0x0 PUSH8 0xFFFFFFFFFFFFFFFF DUP3 GT ISZERO PUSH2 0x76B JUMPI PUSH2 0x76A PUSH2 0x6D5 JUMP JUMPDEST JUMPDEST PUSH2 0x774 DUP3 PUSH2 0x4CE JUMP JUMPDEST SWAP1 POP PUSH1 0x20 DUP2 ADD SWAP1 POP SWAP2 SWAP1 POP JUMP JUMPDEST DUP3 DUP2 DUP4 CALLDATACOPY PUSH1 0x0 DUP4 DUP4 ADD MSTORE POP POP POP JUMP JUMPDEST PUSH1 0x0 PUSH2 0x7A3 PUSH2 0x79E DUP5 PUSH2 0x750 JUMP JUMPDEST PUSH2 0x735 JUMP JUMPDEST SWAP1 POP DUP3 DUP2 MSTORE PUSH1 0x20 DUP2 ADD DUP5 DUP5 DUP5 ADD GT ISZERO PUSH2 0x7BF JUMPI PUSH2 0x7BE PUSH2 0x6D0 JUMP JUMPDEST JUMPDEST PUSH2 0x7CA DUP5 DUP3 DUP6 PUSH2 0x781 JUMP JUMPDEST POP SWAP4 SWAP3 POP POP POP JUMP JUMPDEST PUSH1 0x0 DUP3 PUSH1 0x1F DUP4 ADD SLT PUSH2 0x7E7 JUMPI PUSH2 0x7E6 PUSH2 0x6CB JUMP JUMPDEST JUMPDEST DUP2 CALLDATALOAD PUSH2 0x7F7 DUP5 DUP3 PUSH1 0x20 DUP7 ADD PUSH2 0x790 JUMP JUMPDEST SWAP2 POP POP SWAP3 SWAP2 POP POP JUMP JUMPDEST PUSH2 0x809 DUP2 PUSH2 0x527 JUMP JUMPDEST DUP2 EQ PUSH2 0x814 JUMPI PUSH1 0x0 DUP1 REVERT JUMPDEST POP JUMP JUMPDEST PUSH1 0x0 DUP2 CALLDATALOAD SWAP1 POP PUSH2 0x826 DUP2 PUSH2 0x800 JUMP JUMPDEST SWAP3 SWAP2 POP POP JUMP JUMPDEST PUSH2 0x835 DUP2 PUSH2 0x562 JUMP JUMPDEST DUP2 EQ PUSH2 0x840 JUMPI PUSH1 0x0 DUP1 REVERT JUMPDEST POP JUMP JUMPDEST PUSH1 0x0 DUP2 CALLDATALOAD SWAP1 POP PUSH2 0x852 DUP2 PUSH2 0x82C JUMP JUMPDEST SWAP3 SWAP2 POP POP JUMP JUMPDEST PUSH1 0x0 DUP1 PUSH1 0x0 DUP1 PUSH1 0x0 PUSH1 0xA0 DUP7 DUP9 SUB SLT ISZERO PUSH2 0x874 JUMPI PUSH2 0x873 PUSH2 0x41B JUMP JUMPDEST JUMPDEST PUSH1 0x0 PUSH2 0x882 DUP9 DUP3 DUP10 ADD PUSH2 0x446 JUMP JUMPDEST SWAP6 POP POP PUSH1 0x20 DUP7 ADD CALLDATALOAD PUSH8 0xFFFFFFFFFFFFFFFF DUP2 GT ISZERO PUSH2 0x8A3 JUMPI PUSH2 0x8A2 PUSH2 0x420 JUMP JUMPDEST JUMPDEST PUSH2 0x8AF DUP9 DUP3 DUP10 ADD PUSH2 0x7D2 JUMP JUMPDEST SWAP5 POP POP PUSH1 0x40 PUSH2 0x8C0 DUP9 DUP3 DUP10 ADD PUSH2 0x446 JUMP JUMPDEST SWAP4 POP POP PUSH1 0x60 PUSH2 0x8D1 DUP9 DUP3 DUP10 ADD PUSH2 0x817 JUMP JUMPDEST SWAP3 POP POP PUSH1 0x80 PUSH2 0x8E2 DUP9 DUP3 DUP10 ADD PUSH2 0x843 JUMP JUMPDEST SWAP2 POP POP SWAP3 SWAP6 POP SWAP3 SWAP6 SWAP1 SWAP4 POP JUMP JUMPDEST PUSH32 0x4E487B7100000000000000000000000000000000000000000000000000000000 PUSH1 0x0 MSTORE PUSH1 0x22 PUSH1 0x4 MSTORE PUSH1 0x24 PUSH1 0x0 REVERT JUMPDEST PUSH1 0x0 PUSH1 0x2 DUP3 DIV SWAP1 POP PUSH1 0x1 DUP3 AND DUP1 PUSH2 0x936 JUMPI PUSH1 0x7F DUP3 AND SWAP2 POP JUMPDEST PUSH1 0x20 DUP3 LT DUP2 SUB PUSH2 0x949 JUMPI PUSH2 0x948 PUSH2 0x8EF JUMP JUMPDEST JUMPDEST POP SWAP2 SWAP1 POP JUMP JUMPDEST PUSH32 0x4E487B7100000000000000000000000000000000000000000000000000000000 PUSH1 0x0 MSTORE PUSH1 0x32 PUSH1 0x4 MSTORE PUSH1 0x24 PUSH1 0x0 REVERT JUMPDEST PUSH1 0x0 DUP2 SWAP1 POP DUP2 PUSH1 0x0 MSTORE PUSH1 0x20 PUSH1 0x0 KECCAK256 SWAP1 POP SWAP2 SWAP1 POP JUMP JUMPDEST PUSH1 0x0 PUSH1 0x20 PUSH1 0x1F DUP4 ADD DIV SWAP1 POP SWAP2 SWAP1 POP JUMP JUMPDEST PUSH1 0x0 DUP3 DUP3 SHL SWAP1 POP SWAP3 SWAP2 POP POP JUMP JUMPDEST PUSH1 0x0 PUSH1 0x8 DUP4 MUL PUSH2 0x9E0 PUSH32 0xFFFFFFFFFFFFFFFFFFFFFFFFFFFFFFFFFFFFFFFFFFFFFFFFFFFFFFFFFFFFFFFF DUP3 PUSH2 0x9A3 JUMP JUMPDEST PUSH2 0x9EA DUP7 DUP4 PUSH2 0x9A3 JUMP JUMPDEST SWAP6 POP DUP1 NOT DUP5 AND SWAP4 POP DUP1 DUP7 AND DUP5 OR SWAP3 POP POP POP SWAP4 SWAP3 POP POP POP JUMP JUMPDEST PUSH1 0x0 DUP2 SWAP1 POP SWAP2 SWAP1 POP JUMP JUMPDEST PUSH1 0x0 PUSH2 0xA27 PUSH2 0xA22 PUSH2 0xA1D DUP5 PUSH2 0x425 JUMP JUMPDEST PUSH2 0xA02 JUMP JUMPDEST PUSH2 0x425 JUMP JUMPDEST SWAP1 POP SWAP2 SWAP1 POP JUMP JUMPDEST PUSH1 0x0 DUP2 SWAP1 POP SWAP2 SWAP1 POP JUMP JUMPDEST PUSH2 0xA41 DUP4 PUSH2 0xA0C JUMP JUMPDEST PUSH2 0xA55 PUSH2 0xA4D DUP3 PUSH2 0xA2E JUMP JUMPDEST DUP5 DUP5 SLOAD PUSH2 0x9B0 JUMP JUMPDEST DUP3 SSTORE POP POP POP POP JUMP JUMPDEST PUSH1 0x0 SWAP1 JUMP JUMPDEST PUSH2 0xA6A PUSH2 0xA5D JUMP JUMPDEST PUSH2 0xA75 DUP2 DUP5 DUP5 PUSH2 0xA38 JUMP JUMPDEST POP POP POP JUMP JUMPDEST JUMPDEST DUP2 DUP2 LT ISZERO PUSH2 0xA99 JUMPI PUSH2 0xA8E PUSH1 0x0 DUP3 PUSH2 0xA62 JUMP JUMPDEST PUSH1 0x1 DUP2 ADD SWAP1 POP PUSH2 0xA7B JUMP JUMPDEST POP POP JUMP JUMPDEST PUSH1 0x1F DUP3 GT ISZERO PUSH2 0xADE JUMPI PUSH2 0xAAF DUP2 PUSH2 0x97E JUMP JUMPDEST PUSH2 0xAB8 DUP5 PUSH2 0x993 JUMP JUMPDEST DUP2 ADD PUSH1 0x20 DUP6 LT ISZERO PUSH2 0xAC7 JUMPI DUP2 SWAP1 POP JUMPDEST PUSH2 0xADB PUSH2 0xAD3 DUP6 PUSH2 0x993 JUMP JUMPDEST DUP4 ADD DUP3 PUSH2 0xA7A JUMP JUMPDEST POP POP JUMPDEST POP POP POP JUMP JUMPDEST PUSH1 0x0 DUP3 DUP3 SHR SWAP1 POP SWAP3 SWAP2 POP POP JUMP JUMPDEST PUSH1 0x0 PUSH2 0xB01 PUSH1 0x0 NOT DUP5 PUSH1 0x8 MUL PUSH2 0xAE3 JUMP JUMPDEST NOT DUP1 DUP4 AND SWAP2 POP POP SWAP3 SWAP2 POP POP JUMP JUMPDEST PUSH1 0x0 PUSH2 0xB1A DUP4 DUP4 PUSH2 0xAF0 JUMP JUMPDEST SWAP2 POP DUP3 PUSH1 0x2 MUL DUP3 OR SWAP1 POP SWAP3 SWAP2 POP POP JUMP JUMPDEST PUSH2 0xB33 DUP3 PUSH2 0x488 JUMP JUMPDEST PUSH8 0xFFFFFFFFFFFFFFFF DUP2 GT ISZERO PUSH2 0xB4C JUMPI PUSH2 0xB4B PUSH2 0x6D5 JUMP JUMPDEST JUMPDEST PUSH2 0xB56 DUP3 SLOAD PUSH2 0x91E JUMP JUMPDEST PUSH2 0xB61 DUP3 DUP3 DUP6 PUSH2 0xA9D JUMP JUMPDEST PUSH1 0x0 PUSH1 0x20 SWAP1 POP PUSH1 0x1F DUP4 GT PUSH1 0x1 DUP2 EQ PUSH2 0xB94 JUMPI PUSH1 0x0 DUP5 ISZERO PUSH2 0xB82 JUMPI DUP3 DUP8 ADD MLOAD SWAP1 POP JUMPDEST PUSH2 0xB8C DUP6 DUP3 PUSH2 0xB0E JUMP JUMPDEST DUP7 SSTORE POP PUSH2 0xBF4 JUMP JUMPDEST PUSH1 0x1F NOT DUP5 AND PUSH2 0xBA2 DUP7 PUSH2 0x97E JUMP JUMPDEST PUSH1 0x0 JUMPDEST DUP3 DUP2 LT ISZERO PUSH2 0xBCA JUMPI DUP5 DUP10 ADD MLOAD DUP3 SSTORE PUSH1 0x1 DUP3 ADD SWAP2 POP PUSH1 0x20 DUP6 ADD SWAP5 POP PUSH1 0x20 DUP2 ADD SWAP1 POP PUSH2 0xBA5 JUMP JUMPDEST DUP7 DUP4 LT ISZERO PUSH2 0xBE7 JUMPI DUP5 DUP10 ADD MLOAD PUSH2 0xBE3 PUSH1 0x1F DUP10 AND DUP3 PUSH2 0xAF0 JUMP JUMPDEST DUP4 SSTORE POP JUMPDEST PUSH1 0x1 PUSH1 0x2 DUP9 MUL ADD DUP9 SSTORE POP POP POP JUMPDEST POP POP POP POP POP POP JUMP INVALID LOG2 PUSH5 0x6970667358 0x22 SLT KECCAK256 SWAP3 RETURNDATACOPY AND SWAP5 SHR 0xCD CHAINID NUMBER 0xDF 0xB7 0xB3 0xDB 0x4C 0xCC DUP13 SELFBALANCE 0x23 0xCF PUSH10 0x37CD96362F8B4C82FCA7 DUP4 ISZERO BASEFEE PUSH5 0x736F6C6343 STOP ADDMOD SLT STOP CALLER "
				},
				"gasEstimates": {
					"creation": {
						"codeDepositCost": "624400",
						"executionCost": "657",
						"totalCost": "625057"
					},
					"external": {
						"insertstudent(uint256,string,uint256,bool,address)": "infinite",
						"returnstudent(uint256)": "infinite",
						"s(uint256)": "infinite"
					}
				},
				"methodIdentifiers": {
					"insertstudent(uint256,string,uint256,bool,address)": "9bce9ec1",
					"returnstudent(uint256)": "670e3392",
					"s(uint256)": "52efd685"
				}
			},
			"storageLayout": {
				"storage": [
					{
						"astId": 15,
						"contract": "structarray.sol:demo",
						"label": "s",
						"offset": 0,
						"slot": "0",
						"type": "t_array(t_struct(student)10_storage)5_storage"
					}
				],
				"types": {
					"t_address": {
						"encoding": "inplace",
						"label": "address",
						"numberOfBytes": "20"
					},
					"t_array(t_struct(student)10_storage)5_storage": {
						"base": "t_struct(student)10_storage",
						"encoding": "inplace",
						"label": "struct demo.student[5]",
						"numberOfBytes": "480"
					},
					"t_bool": {
						"encoding": "inplace",
						"label": "bool",
						"numberOfBytes": "1"
					},
					"t_string_storage": {
						"encoding": "bytes",
						"label": "string",
						"numberOfBytes": "32"
					},
					"t_struct(student)10_storage": {
						"encoding": "inplace",
						"label": "struct demo.student",
						"members": [
							{
								"astId": 3,
								"contract": "structarray.sol:demo",
								"label": "name",
								"offset": 0,
								"slot": "0",
								"type": "t_string_storage"
							},
							{
								"astId": 5,
								"contract": "structarray.sol:demo",
								"label": "roll",
								"offset": 0,
								"slot": "1",
								"type": "t_uint256"
							},
							{
								"astId": 7,
								"contract": "structarray.sol:demo",
								"label": "pass",
								"offset": 0,
								"slot": "2",
								"type": "t_bool"
							},
							{
								"astId": 9,
								"contract": "structarray.sol:demo",
								"label": "wallet",
								"offset": 1,
								"slot": "2",
								"type": "t_address"
							}
						],
						"numberOfBytes": "96"
					},
					"t_uint256": {
						"encoding": "inplace",
						"label": "uint256",
						"numberOfBytes": "32"
					}
				}
			},
			"userdoc": {
				"kind": "user",
				"methods": {},
				"version": 1
			}
		}
	}
}