{
	"sturecord.sol": {
		"StudentRecord": {
			"abi": [
				{
					"inputs": [
						{
							"internalType": "uint256",
							"name": "_rollNumber",
							"type": "uint256"
						},
						{
							"internalType": "string",
							"name": "_name",
							"type": "string"
						},
						{
							"internalType": "uint8",
							"name": "_age",
							"type": "uint8"
						},
						{
							"internalType": "string",
							"name": "_department",
							"type": "string"
						}
					],
					"name": "addStudent",
					"outputs": [],
					"stateMutability": "nonpayable",
					"type": "function"
				},
				{
					"inputs": [],
					"name": "getNumberOfStudents",
					"outputs": [
						{
							"internalType": "uint256",
							"name": "",
							"type": "uint256"
						}
					],
					"stateMutability": "view",
					"type": "function"
				},
				{
					"inputs": [
						{
							"internalType": "uint256",
							"name": "index",
							"type": "uint256"
						}
					],
					"name": "getStudent",
					"outputs": [
						{
							"internalType": "uint256",
							"name": "rollNumber",
							"type": "uint256"
						},
						{
							"internalType": "string",
							"name": "name",
							"type": "string"
						},
						{
							"internalType": "uint8",
							"name": "age",
							"type": "uint8"
						},
						{
							"internalType": "string",
							"name": "department",
							"type": "string"
						}
					],
					"stateMutability": "view",
					"type": "function"
				},
				{
					"inputs": [
						{
							"internalType": "uint256",
							"name": "",
							"type": "uint256"
						}
					],
					"name": "students",
					"outputs": [
						{
							"internalType": "uint256",
							"name": "rollNumber",
							"type": "uint256"
						},
						{
							"internalType": "string",
							"name": "name",
							"type": "string"
						},
						{
							"internalType": "uint8",
							"name": "age",
							"type": "uint8"
						},
						{
							"internalType": "string",
							"name": "department",
							"type": "string"
						}
					],
					"stateMutability": "view",
					"type": "function"
				}
			],
			"devdoc": {
				"kind": "dev",
				"methods": {},
				"version": 1
			},
			"evm": {
				"assembly": "    /* \"sturecord.sol\":60:1290  contract StudentRecord {... */\n  mstore(0x40, 0x80)\n  callvalue\n  dup1\n  iszero\n  tag_1\n  jumpi\n  0x00\n  dup1\n  revert\ntag_1:\n  pop\n  dataSize(sub_0)\n  dup1\n  dataOffset(sub_0)\n  0x00\n  codecopy\n  0x00\n  return\nstop\n\nsub_0: assembly {\n        /* \"sturecord.sol\":60:1290  contract StudentRecord {... */\n      mstore(0x40, 0x80)\n      callvalue\n      dup1\n      iszero\n      tag_1\n      jumpi\n      0x00\n      dup1\n      revert\n    tag_1:\n      pop\n      jumpi(tag_2, lt(calldatasize, 0x04))\n      shr(0xe0, calldataload(0x00))\n      dup1\n      0x06ead22e\n      eq\n      tag_3\n      jumpi\n      dup1\n      0x4c567ee6\n      eq\n      tag_4\n      jumpi\n      dup1\n      0x642f9163\n      eq\n      tag_5\n      jumpi\n      dup1\n      0x945b7bd6\n      eq\n      tag_6\n      jumpi\n    tag_2:\n      0x00\n      dup1\n      revert\n        /* \"sturecord.sol\":302:327  Student[] public students */\n    tag_3:\n      tag_7\n      0x04\n      dup1\n      calldatasize\n      sub\n      dup2\n      add\n      swap1\n      tag_8\n      swap2\n      swap1\n      tag_9\n      jump\t// in\n    tag_8:\n      tag_10\n      jump\t// in\n    tag_7:\n      mload(0x40)\n      tag_11\n      swap5\n      swap4\n      swap3\n      swap2\n      swap1\n      tag_12\n      jump\t// in\n    tag_11:\n      mload(0x40)\n      dup1\n      swap2\n      sub\n      swap1\n      return\n        /* \"sturecord.sol\":381:720  function addStudent(uint256 _rollNumber, string memory _name, uint8 _age, string memory _department) public {... */\n    tag_4:\n      tag_13\n      0x04\n      dup1\n      calldatasize\n      sub\n      dup2\n      add\n      swap1\n      tag_14\n      swap2\n      swap1\n      tag_15\n      jump\t// in\n    tag_14:\n      tag_16\n      jump\t// in\n    tag_13:\n      stop\n        /* \"sturecord.sol\":948:1287  function getStudent(uint256 index) public view returns (uint256 rollNumber, string memory name, uint8 age, string memory department) {... */\n    tag_5:\n      tag_17\n      0x04\n      dup1\n      calldatasize\n      sub\n      dup2\n      add\n      swap1\n      tag_18\n      swap2\n      swap1\n      tag_9\n      jump\t// in\n    tag_18:\n      tag_19\n      jump\t// in\n    tag_17:\n      mload(0x40)\n      tag_20\n      swap5\n      swap4\n      swap3\n      swap2\n      swap1\n      tag_12\n      jump\t// in\n    tag_20:\n      mload(0x40)\n      dup1\n      swap2\n      sub\n      swap1\n      return\n        /* \"sturecord.sol\":788:890  function getNumberOfStudents() public view returns (uint256) {... */\n    tag_6:\n      tag_21\n      tag_22\n      jump\t// in\n    tag_21:\n      mload(0x40)\n      tag_23\n      swap2\n      swap1\n      tag_24\n      jump\t// in\n    tag_23:\n      mload(0x40)\n      dup1\n      swap2\n      sub\n      swap1\n      return\n        /* \"sturecord.sol\":302:327  Student[] public students */\n    tag_10:\n      0x00\n      dup2\n      dup2\n      sload\n      dup2\n      lt\n      tag_25\n      jumpi\n      0x00\n      dup1\n      revert\n    tag_25:\n      swap1\n      0x00\n      mstore\n      keccak256(0x00, 0x20)\n      swap1\n      0x04\n      mul\n      add\n      0x00\n      swap2\n      pop\n      swap1\n      pop\n      dup1\n      0x00\n      add\n      sload\n      swap1\n      dup1\n      0x01\n      add\n      dup1\n      sload\n      tag_27\n      swap1\n      tag_28\n      jump\t// in\n    tag_27:\n      dup1\n      0x1f\n      add\n      0x20\n      dup1\n      swap2\n      div\n      mul\n      0x20\n      add\n      mload(0x40)\n      swap1\n      dup2\n      add\n      0x40\n      mstore\n      dup1\n      swap3\n      swap2\n      swap1\n      dup2\n      dup2\n      mstore\n      0x20\n      add\n      dup3\n      dup1\n      sload\n      tag_29\n      swap1\n      tag_28\n      jump\t// in\n    tag_29:\n      dup1\n      iszero\n      tag_30\n      jumpi\n      dup1\n      0x1f\n      lt\n      tag_31\n      jumpi\n      0x0100\n      dup1\n      dup4\n      sload\n      div\n      mul\n      dup4\n      mstore\n      swap2\n      0x20\n      add\n      swap2\n      jump(tag_30)\n    tag_31:\n      dup3\n      add\n      swap2\n      swap1\n      0x00\n      mstore\n      keccak256(0x00, 0x20)\n      swap1\n    tag_32:\n      dup2\n      sload\n      dup2\n      mstore\n      swap1\n      0x01\n      add\n      swap1\n      0x20\n      add\n      dup1\n      dup4\n      gt\n      tag_32\n      jumpi\n      dup3\n      swap1\n      sub\n      0x1f\n      and\n      dup3\n      add\n      swap2\n    tag_30:\n      pop\n      pop\n      pop\n      pop\n      pop\n      swap1\n      dup1\n      0x02\n      add\n      0x00\n      swap1\n      sload\n      swap1\n      0x0100\n      exp\n      swap1\n      div\n      0xff\n      and\n      swap1\n      dup1\n      0x03\n      add\n      dup1\n      sload\n      tag_33\n      swap1\n      tag_28\n      jump\t// in\n    tag_33:\n      dup1\n      0x1f\n      add\n      0x20\n      dup1\n      swap2\n      div\n      mul\n      0x20\n      add\n      mload(0x40)\n      swap1\n      dup2\n      add\n      0x40\n      mstore\n      dup1\n      swap3\n      swap2\n      swap1\n      dup2\n      dup2\n      mstore\n      0x20\n      add\n      dup3\n      dup1\n      sload\n      tag_34\n      swap1\n      tag_28\n      jump\t// in\n    tag_34:\n      dup1\n      iszero\n      tag_35\n      jumpi\n      dup1\n      0x1f\n      lt\n      tag_36\n      jumpi\n      0x0100\n      dup1\n      dup4\n      sload\n      div\n      mul\n      dup4\n      mstore\n      swap2\n      0x20\n      add\n      swap2\n      jump(tag_35)\n    tag_36:\n      dup3\n      add\n      swap2\n      swap1\n      0x00\n      mstore\n      keccak256(0x00, 0x20)\n      swap1\n    tag_37:\n      dup2\n      sload\n      dup2\n      mstore\n      swap1\n      0x01\n      add\n      swap1\n      0x20\n      add\n      dup1\n      dup4\n      gt\n      tag_37\n      jumpi\n      dup3\n      swap1\n      sub\n      0x1f\n      and\n      dup3\n      add\n      swap2\n    tag_35:\n      pop\n      pop\n      pop\n      pop\n      pop\n      swap1\n      pop\n      dup5\n      jump\t// out\n        /* \"sturecord.sol\":381:720  function addStudent(uint256 _rollNumber, string memory _name, uint8 _age, string memory _department) public {... */\n    tag_16:\n        /* \"sturecord.sol\":500:525  Student memory newStudent */\n      0x00\n        /* \"sturecord.sol\":528:674  Student({... */\n      mload(0x40)\n      dup1\n      0x80\n      add\n      0x40\n      mstore\n      dup1\n        /* \"sturecord.sol\":563:574  _rollNumber */\n      dup7\n        /* \"sturecord.sol\":528:674  Student({... */\n      dup2\n      mstore\n      0x20\n      add\n        /* \"sturecord.sol\":595:600  _name */\n      dup6\n        /* \"sturecord.sol\":528:674  Student({... */\n      dup2\n      mstore\n      0x20\n      add\n        /* \"sturecord.sol\":620:624  _age */\n      dup5\n        /* \"sturecord.sol\":528:674  Student({... */\n      0xff\n      and\n      dup2\n      mstore\n      0x20\n      add\n        /* \"sturecord.sol\":651:662  _department */\n      dup4\n        /* \"sturecord.sol\":528:674  Student({... */\n      dup2\n      mstore\n      pop\n        /* \"sturecord.sol\":500:674  Student memory newStudent = Student({... */\n      swap1\n      pop\n        /* \"sturecord.sol\":687:695  students */\n      0x00\n        /* \"sturecord.sol\":701:711  newStudent */\n      dup2\n        /* \"sturecord.sol\":687:712  students.push(newStudent) */\n      swap1\n      dup1\n      0x01\n      dup2\n      sload\n      add\n      dup1\n      dup3\n      sstore\n      dup1\n      swap2\n      pop\n      pop\n      0x01\n      swap1\n      sub\n      swap1\n      0x00\n      mstore\n      keccak256(0x00, 0x20)\n      swap1\n      0x04\n      mul\n      add\n      0x00\n      swap1\n      swap2\n      swap1\n      swap2\n      swap1\n      swap2\n      pop\n      0x00\n      dup3\n      add\n      mload\n      dup2\n      0x00\n      add\n      sstore\n      0x20\n      dup3\n      add\n      mload\n      dup2\n      0x01\n      add\n      swap1\n      dup2\n      tag_40\n      swap2\n      swap1\n      tag_41\n      jump\t// in\n    tag_40:\n      pop\n      0x40\n      dup3\n      add\n      mload\n      dup2\n      0x02\n      add\n      exp(0x0100, 0x00)\n      dup2\n      sload\n      dup2\n      0xff\n      mul\n      not\n      and\n      swap1\n      dup4\n      0xff\n      and\n      mul\n      or\n      swap1\n      sstore\n      pop\n      0x60\n      dup3\n      add\n      mload\n      dup2\n      0x03\n      add\n      swap1\n      dup2\n      tag_42\n      swap2\n      swap1\n      tag_41\n      jump\t// in\n    tag_42:\n      pop\n      pop\n      pop\n        /* \"sturecord.sol\":489:720  {... */\n      pop\n        /* \"sturecord.sol\":381:720  function addStudent(uint256 _rollNumber, string memory _name, uint8 _age, string memory _department) public {... */\n      pop\n      pop\n      pop\n      pop\n      jump\t// out\n        /* \"sturecord.sol\":948:1287  function getStudent(uint256 index) public view returns (uint256 rollNumber, string memory name, uint8 age, string memory department) {... */\n    tag_19:\n        /* \"sturecord.sol\":1004:1022  uint256 rollNumber */\n      0x00\n        /* \"sturecord.sol\":1024:1042  string memory name */\n      0x60\n        /* \"sturecord.sol\":1044:1053  uint8 age */\n      0x00\n        /* \"sturecord.sol\":1055:1079  string memory department */\n      0x60\n        /* \"sturecord.sol\":1108:1116  students */\n      0x00\n        /* \"sturecord.sol\":1108:1123  students.length */\n      dup1\n      sload\n      swap1\n      pop\n        /* \"sturecord.sol\":1100:1105  index */\n      dup6\n        /* \"sturecord.sol\":1100:1123  index < students.length */\n      lt\n        /* \"sturecord.sol\":1092:1141  require(index < students.length, \"Invalid index\") */\n      tag_44\n      jumpi\n      mload(0x40)\n      0x08c379a000000000000000000000000000000000000000000000000000000000\n      dup2\n      mstore\n      0x04\n      add\n      tag_45\n      swap1\n      tag_46\n      jump\t// in\n    tag_45:\n      mload(0x40)\n      dup1\n      swap2\n      sub\n      swap1\n      revert\n    tag_44:\n        /* \"sturecord.sol\":1154:1176  Student memory student */\n      0x00\n        /* \"sturecord.sol\":1179:1187  students */\n      dup1\n        /* \"sturecord.sol\":1188:1193  index */\n      dup7\n        /* \"sturecord.sol\":1179:1194  students[index] */\n      dup2\n      sload\n      dup2\n      lt\n      tag_47\n      jumpi\n      tag_48\n      tag_49\n      jump\t// in\n    tag_48:\n    tag_47:\n      swap1\n      0x00\n      mstore\n      keccak256(0x00, 0x20)\n      swap1\n      0x04\n      mul\n      add\n        /* \"sturecord.sol\":1154:1194  Student memory student = students[index] */\n      mload(0x40)\n      dup1\n      0x80\n      add\n      0x40\n      mstore\n      swap1\n      dup2\n      0x00\n      dup3\n      add\n      sload\n      dup2\n      mstore\n      0x20\n      add\n      0x01\n      dup3\n      add\n      dup1\n      sload\n      tag_51\n      swap1\n      tag_28\n      jump\t// in\n    tag_51:\n      dup1\n      0x1f\n      add\n      0x20\n      dup1\n      swap2\n      div\n      mul\n      0x20\n      add\n      mload(0x40)\n      swap1\n      dup2\n      add\n      0x40\n      mstore\n      dup1\n      swap3\n      swap2\n      swap1\n      dup2\n      dup2\n      mstore\n      0x20\n      add\n      dup3\n      dup1\n      sload\n      tag_52\n      swap1\n      tag_28\n      jump\t// in\n    tag_52:\n      dup1\n      iszero\n      tag_53\n      jumpi\n      dup1\n      0x1f\n      lt\n      tag_54\n      jumpi\n      0x0100\n      dup1\n      dup4\n      sload\n      div\n      mul\n      dup4\n      mstore\n      swap2\n      0x20\n      add\n      swap2\n      jump(tag_53)\n    tag_54:\n      dup3\n      add\n      swap2\n      swap1\n      0x00\n      mstore\n      keccak256(0x00, 0x20)\n      swap1\n    tag_55:\n      dup2\n      sload\n      dup2\n      mstore\n      swap1\n      0x01\n      add\n      swap1\n      0x20\n      add\n      dup1\n      dup4\n      gt\n      tag_55\n      jumpi\n      dup3\n      swap1\n      sub\n      0x1f\n      and\n      dup3\n      add\n      swap2\n    tag_53:\n      pop\n      pop\n      pop\n      pop\n      pop\n      dup2\n      mstore\n      0x20\n      add\n      0x02\n      dup3\n      add\n      0x00\n      swap1\n      sload\n      swap1\n      0x0100\n      exp\n      swap1\n      div\n      0xff\n      and\n      0xff\n      and\n      0xff\n      and\n      dup2\n      mstore\n      0x20\n      add\n      0x03\n      dup3\n      add\n      dup1\n      sload\n      tag_56\n      swap1\n      tag_28\n      jump\t// in\n    tag_56:\n      dup1\n      0x1f\n      add\n      0x20\n      dup1\n      swap2\n      div\n      mul\n      0x20\n      add\n      mload(0x40)\n      swap1\n      dup2\n      add\n      0x40\n      mstore\n      dup1\n      swap3\n      swap2\n      swap1\n      dup2\n      dup2\n      mstore\n      0x20\n      add\n      dup3\n      dup1\n      sload\n      tag_57\n      swap1\n      tag_28\n      jump\t// in\n    tag_57:\n      dup1\n      iszero\n      tag_58\n      jumpi\n      dup1\n      0x1f\n      lt\n      tag_59\n      jumpi\n      0x0100\n      dup1\n      dup4\n      sload\n      div\n      mul\n      dup4\n      mstore\n      swap2\n      0x20\n      add\n      swap2\n      jump(tag_58)\n    tag_59:\n      dup3\n      add\n      swap2\n      swap1\n      0x00\n      mstore\n      keccak256(0x00, 0x20)\n      swap1\n    tag_60:\n      dup2\n      sload\n      dup2\n      mstore\n      swap1\n      0x01\n      add\n      swap1\n      0x20\n      add\n      dup1\n      dup4\n      gt\n      tag_60\n      jumpi\n      dup3\n      swap1\n      sub\n      0x1f\n      and\n      dup3\n      add\n      swap2\n    tag_58:\n      pop\n      pop\n      pop\n      pop\n      pop\n      dup2\n      mstore\n      pop\n      pop\n      swap1\n      pop\n        /* \"sturecord.sol\":1213:1220  student */\n      dup1\n        /* \"sturecord.sol\":1213:1231  student.rollNumber */\n      0x00\n      add\n      mload\n        /* \"sturecord.sol\":1233:1240  student */\n      dup2\n        /* \"sturecord.sol\":1233:1245  student.name */\n      0x20\n      add\n      mload\n        /* \"sturecord.sol\":1247:1254  student */\n      dup3\n        /* \"sturecord.sol\":1247:1258  student.age */\n      0x40\n      add\n      mload\n        /* \"sturecord.sol\":1260:1267  student */\n      dup4\n        /* \"sturecord.sol\":1260:1278  student.department */\n      0x60\n      add\n      mload\n        /* \"sturecord.sol\":1205:1279  return (student.rollNumber, student.name, student.age, student.department) */\n      swap5\n      pop\n      swap5\n      pop\n      swap5\n      pop\n      swap5\n      pop\n      pop\n        /* \"sturecord.sol\":948:1287  function getStudent(uint256 index) public view returns (uint256 rollNumber, string memory name, uint8 age, string memory department) {... */\n      swap2\n      swap4\n      pop\n      swap2\n      swap4\n      jump\t// out\n        /* \"sturecord.sol\":788:890  function getNumberOfStudents() public view returns (uint256) {... */\n    tag_22:\n        /* \"sturecord.sol\":840:847  uint256 */\n      0x00\n        /* \"sturecord.sol\":867:875  students */\n      dup1\n        /* \"sturecord.sol\":867:882  students.length */\n      dup1\n      sload\n      swap1\n      pop\n        /* \"sturecord.sol\":860:882  return students.length */\n      swap1\n      pop\n        /* \"sturecord.sol\":788:890  function getNumberOfStudents() public view returns (uint256) {... */\n      swap1\n      jump\t// out\n        /* \"#utility.yul\":7:82   */\n    tag_62:\n        /* \"#utility.yul\":40:46   */\n      0x00\n        /* \"#utility.yul\":73:75   */\n      0x40\n        /* \"#utility.yul\":67:76   */\n      mload\n        /* \"#utility.yul\":57:76   */\n      swap1\n      pop\n        /* \"#utility.yul\":7:82   */\n      swap1\n      jump\t// out\n        /* \"#utility.yul\":88:205   */\n    tag_63:\n        /* \"#utility.yul\":197:198   */\n      0x00\n        /* \"#utility.yul\":194:195   */\n      dup1\n        /* \"#utility.yul\":187:199   */\n      revert\n        /* \"#utility.yul\":211:328   */\n    tag_64:\n        /* \"#utility.yul\":320:321   */\n      0x00\n        /* \"#utility.yul\":317:318   */\n      dup1\n        /* \"#utility.yul\":310:322   */\n      revert\n        /* \"#utility.yul\":334:411   */\n    tag_65:\n        /* \"#utility.yul\":371:378   */\n      0x00\n        /* \"#utility.yul\":400:405   */\n      dup2\n        /* \"#utility.yul\":389:405   */\n      swap1\n      pop\n        /* \"#utility.yul\":334:411   */\n      swap2\n      swap1\n      pop\n      jump\t// out\n        /* \"#utility.yul\":417:539   */\n    tag_66:\n        /* \"#utility.yul\":490:514   */\n      tag_111\n        /* \"#utility.yul\":508:513   */\n      dup2\n        /* \"#utility.yul\":490:514   */\n      tag_65\n      jump\t// in\n    tag_111:\n        /* \"#utility.yul\":483:488   */\n      dup2\n        /* \"#utility.yul\":480:515   */\n      eq\n        /* \"#utility.yul\":470:533   */\n      tag_112\n      jumpi\n        /* \"#utility.yul\":529:530   */\n      0x00\n        /* \"#utility.yul\":526:527   */\n      dup1\n        /* \"#utility.yul\":519:531   */\n      revert\n        /* \"#utility.yul\":470:533   */\n    tag_112:\n        /* \"#utility.yul\":417:539   */\n      pop\n      jump\t// out\n        /* \"#utility.yul\":545:684   */\n    tag_67:\n        /* \"#utility.yul\":591:596   */\n      0x00\n        /* \"#utility.yul\":629:635   */\n      dup2\n        /* \"#utility.yul\":616:636   */\n      calldataload\n        /* \"#utility.yul\":607:636   */\n      swap1\n      pop\n        /* \"#utility.yul\":645:678   */\n      tag_114\n        /* \"#utility.yul\":672:677   */\n      dup2\n        /* \"#utility.yul\":645:678   */\n      tag_66\n      jump\t// in\n    tag_114:\n        /* \"#utility.yul\":545:684   */\n      swap3\n      swap2\n      pop\n      pop\n      jump\t// out\n        /* \"#utility.yul\":690:1019   */\n    tag_9:\n        /* \"#utility.yul\":749:755   */\n      0x00\n        /* \"#utility.yul\":798:800   */\n      0x20\n        /* \"#utility.yul\":786:795   */\n      dup3\n        /* \"#utility.yul\":777:784   */\n      dup5\n        /* \"#utility.yul\":773:796   */\n      sub\n        /* \"#utility.yul\":769:801   */\n      slt\n        /* \"#utility.yul\":766:885   */\n      iszero\n      tag_116\n      jumpi\n        /* \"#utility.yul\":804:883   */\n      tag_117\n      tag_63\n      jump\t// in\n    tag_117:\n        /* \"#utility.yul\":766:885   */\n    tag_116:\n        /* \"#utility.yul\":924:925   */\n      0x00\n        /* \"#utility.yul\":949:1002   */\n      tag_118\n        /* \"#utility.yul\":994:1001   */\n      dup5\n        /* \"#utility.yul\":985:991   */\n      dup3\n        /* \"#utility.yul\":974:983   */\n      dup6\n        /* \"#utility.yul\":970:992   */\n      add\n        /* \"#utility.yul\":949:1002   */\n      tag_67\n      jump\t// in\n    tag_118:\n        /* \"#utility.yul\":939:1002   */\n      swap2\n      pop\n        /* \"#utility.yul\":895:1012   */\n      pop\n        /* \"#utility.yul\":690:1019   */\n      swap3\n      swap2\n      pop\n      pop\n      jump\t// out\n        /* \"#utility.yul\":1025:1143   */\n    tag_68:\n        /* \"#utility.yul\":1112:1136   */\n      tag_120\n        /* \"#utility.yul\":1130:1135   */\n      dup2\n        /* \"#utility.yul\":1112:1136   */\n      tag_65\n      jump\t// in\n    tag_120:\n        /* \"#utility.yul\":1107:1110   */\n      dup3\n        /* \"#utility.yul\":1100:1137   */\n      mstore\n        /* \"#utility.yul\":1025:1143   */\n      pop\n      pop\n      jump\t// out\n        /* \"#utility.yul\":1149:1248   */\n    tag_69:\n        /* \"#utility.yul\":1201:1207   */\n      0x00\n        /* \"#utility.yul\":1235:1240   */\n      dup2\n        /* \"#utility.yul\":1229:1241   */\n      mload\n        /* \"#utility.yul\":1219:1241   */\n      swap1\n      pop\n        /* \"#utility.yul\":1149:1248   */\n      swap2\n      swap1\n      pop\n      jump\t// out\n        /* \"#utility.yul\":1254:1423   */\n    tag_70:\n        /* \"#utility.yul\":1338:1349   */\n      0x00\n        /* \"#utility.yul\":1372:1378   */\n      dup3\n        /* \"#utility.yul\":1367:1370   */\n      dup3\n        /* \"#utility.yul\":1360:1379   */\n      mstore\n        /* \"#utility.yul\":1412:1416   */\n      0x20\n        /* \"#utility.yul\":1407:1410   */\n      dup3\n        /* \"#utility.yul\":1403:1417   */\n      add\n        /* \"#utility.yul\":1388:1417   */\n      swap1\n      pop\n        /* \"#utility.yul\":1254:1423   */\n      swap3\n      swap2\n      pop\n      pop\n      jump\t// out\n        /* \"#utility.yul\":1429:1675   */\n    tag_71:\n        /* \"#utility.yul\":1510:1511   */\n      0x00\n        /* \"#utility.yul\":1520:1633   */\n    tag_124:\n        /* \"#utility.yul\":1534:1540   */\n      dup4\n        /* \"#utility.yul\":1531:1532   */\n      dup2\n        /* \"#utility.yul\":1528:1541   */\n      lt\n        /* \"#utility.yul\":1520:1633   */\n      iszero\n      tag_126\n      jumpi\n        /* \"#utility.yul\":1619:1620   */\n      dup1\n        /* \"#utility.yul\":1614:1617   */\n      dup3\n        /* \"#utility.yul\":1610:1621   */\n      add\n        /* \"#utility.yul\":1604:1622   */\n      mload\n        /* \"#utility.yul\":1600:1601   */\n      dup2\n        /* \"#utility.yul\":1595:1598   */\n      dup5\n        /* \"#utility.yul\":1591:1602   */\n      add\n        /* \"#utility.yul\":1584:1623   */\n      mstore\n        /* \"#utility.yul\":1556:1558   */\n      0x20\n        /* \"#utility.yul\":1553:1554   */\n      dup2\n        /* \"#utility.yul\":1549:1559   */\n      add\n        /* \"#utility.yul\":1544:1559   */\n      swap1\n      pop\n        /* \"#utility.yul\":1520:1633   */\n      jump(tag_124)\n    tag_126:\n        /* \"#utility.yul\":1667:1668   */\n      0x00\n        /* \"#utility.yul\":1658:1664   */\n      dup5\n        /* \"#utility.yul\":1653:1656   */\n      dup5\n        /* \"#utility.yul\":1649:1665   */\n      add\n        /* \"#utility.yul\":1642:1669   */\n      mstore\n        /* \"#utility.yul\":1491:1675   */\n      pop\n        /* \"#utility.yul\":1429:1675   */\n      pop\n      pop\n      pop\n      jump\t// out\n        /* \"#utility.yul\":1681:1783   */\n    tag_72:\n        /* \"#utility.yul\":1722:1728   */\n      0x00\n        /* \"#utility.yul\":1773:1775   */\n      0x1f\n        /* \"#utility.yul\":1769:1776   */\n      not\n        /* \"#utility.yul\":1764:1766   */\n      0x1f\n        /* \"#utility.yul\":1757:1762   */\n      dup4\n        /* \"#utility.yul\":1753:1767   */\n      add\n        /* \"#utility.yul\":1749:1777   */\n      and\n        /* \"#utility.yul\":1739:1777   */\n      swap1\n      pop\n        /* \"#utility.yul\":1681:1783   */\n      swap2\n      swap1\n      pop\n      jump\t// out\n        /* \"#utility.yul\":1789:2166   */\n    tag_73:\n        /* \"#utility.yul\":1877:1880   */\n      0x00\n        /* \"#utility.yul\":1905:1944   */\n      tag_129\n        /* \"#utility.yul\":1938:1943   */\n      dup3\n        /* \"#utility.yul\":1905:1944   */\n      tag_69\n      jump\t// in\n    tag_129:\n        /* \"#utility.yul\":1960:2031   */\n      tag_130\n        /* \"#utility.yul\":2024:2030   */\n      dup2\n        /* \"#utility.yul\":2019:2022   */\n      dup6\n        /* \"#utility.yul\":1960:2031   */\n      tag_70\n      jump\t// in\n    tag_130:\n        /* \"#utility.yul\":1953:2031   */\n      swap4\n      pop\n        /* \"#utility.yul\":2040:2105   */\n      tag_131\n        /* \"#utility.yul\":2098:2104   */\n      dup2\n        /* \"#utility.yul\":2093:2096   */\n      dup6\n        /* \"#utility.yul\":2086:2090   */\n      0x20\n        /* \"#utility.yul\":2079:2084   */\n      dup7\n        /* \"#utility.yul\":2075:2091   */\n      add\n        /* \"#utility.yul\":2040:2105   */\n      tag_71\n      jump\t// in\n    tag_131:\n        /* \"#utility.yul\":2130:2159   */\n      tag_132\n        /* \"#utility.yul\":2152:2158   */\n      dup2\n        /* \"#utility.yul\":2130:2159   */\n      tag_72\n      jump\t// in\n    tag_132:\n        /* \"#utility.yul\":2125:2128   */\n      dup5\n        /* \"#utility.yul\":2121:2160   */\n      add\n        /* \"#utility.yul\":2114:2160   */\n      swap2\n      pop\n        /* \"#utility.yul\":1881:2166   */\n      pop\n        /* \"#utility.yul\":1789:2166   */\n      swap3\n      swap2\n      pop\n      pop\n      jump\t// out\n        /* \"#utility.yul\":2172:2258   */\n    tag_74:\n        /* \"#utility.yul\":2207:2214   */\n      0x00\n        /* \"#utility.yul\":2247:2251   */\n      0xff\n        /* \"#utility.yul\":2240:2245   */\n      dup3\n        /* \"#utility.yul\":2236:2252   */\n      and\n        /* \"#utility.yul\":2225:2252   */\n      swap1\n      pop\n        /* \"#utility.yul\":2172:2258   */\n      swap2\n      swap1\n      pop\n      jump\t// out\n        /* \"#utility.yul\":2264:2376   */\n    tag_75:\n        /* \"#utility.yul\":2347:2369   */\n      tag_135\n        /* \"#utility.yul\":2363:2368   */\n      dup2\n        /* \"#utility.yul\":2347:2369   */\n      tag_74\n      jump\t// in\n    tag_135:\n        /* \"#utility.yul\":2342:2345   */\n      dup3\n        /* \"#utility.yul\":2335:2370   */\n      mstore\n        /* \"#utility.yul\":2264:2376   */\n      pop\n      pop\n      jump\t// out\n        /* \"#utility.yul\":2382:3109   */\n    tag_12:\n        /* \"#utility.yul\":2595:2599   */\n      0x00\n        /* \"#utility.yul\":2633:2636   */\n      0x80\n        /* \"#utility.yul\":2622:2631   */\n      dup3\n        /* \"#utility.yul\":2618:2637   */\n      add\n        /* \"#utility.yul\":2610:2637   */\n      swap1\n      pop\n        /* \"#utility.yul\":2647:2718   */\n      tag_137\n        /* \"#utility.yul\":2715:2716   */\n      0x00\n        /* \"#utility.yul\":2704:2713   */\n      dup4\n        /* \"#utility.yul\":2700:2717   */\n      add\n        /* \"#utility.yul\":2691:2697   */\n      dup8\n        /* \"#utility.yul\":2647:2718   */\n      tag_68\n      jump\t// in\n    tag_137:\n        /* \"#utility.yul\":2765:2774   */\n      dup2\n        /* \"#utility.yul\":2759:2763   */\n      dup2\n        /* \"#utility.yul\":2755:2775   */\n      sub\n        /* \"#utility.yul\":2750:2752   */\n      0x20\n        /* \"#utility.yul\":2739:2748   */\n      dup4\n        /* \"#utility.yul\":2735:2753   */\n      add\n        /* \"#utility.yul\":2728:2776   */\n      mstore\n        /* \"#utility.yul\":2793:2871   */\n      tag_138\n        /* \"#utility.yul\":2866:2870   */\n      dup2\n        /* \"#utility.yul\":2857:2863   */\n      dup7\n        /* \"#utility.yul\":2793:2871   */\n      tag_73\n      jump\t// in\n    tag_138:\n        /* \"#utility.yul\":2785:2871   */\n      swap1\n      pop\n        /* \"#utility.yul\":2881:2949   */\n      tag_139\n        /* \"#utility.yul\":2945:2947   */\n      0x40\n        /* \"#utility.yul\":2934:2943   */\n      dup4\n        /* \"#utility.yul\":2930:2948   */\n      add\n        /* \"#utility.yul\":2921:2927   */\n      dup6\n        /* \"#utility.yul\":2881:2949   */\n      tag_75\n      jump\t// in\n    tag_139:\n        /* \"#utility.yul\":2996:3005   */\n      dup2\n        /* \"#utility.yul\":2990:2994   */\n      dup2\n        /* \"#utility.yul\":2986:3006   */\n      sub\n        /* \"#utility.yul\":2981:2983   */\n      0x60\n        /* \"#utility.yul\":2970:2979   */\n      dup4\n        /* \"#utility.yul\":2966:2984   */\n      add\n        /* \"#utility.yul\":2959:3007   */\n      mstore\n        /* \"#utility.yul\":3024:3102   */\n      tag_140\n        /* \"#utility.yul\":3097:3101   */\n      dup2\n        /* \"#utility.yul\":3088:3094   */\n      dup5\n        /* \"#utility.yul\":3024:3102   */\n      tag_73\n      jump\t// in\n    tag_140:\n        /* \"#utility.yul\":3016:3102   */\n      swap1\n      pop\n        /* \"#utility.yul\":2382:3109   */\n      swap6\n      swap5\n      pop\n      pop\n      pop\n      pop\n      pop\n      jump\t// out\n        /* \"#utility.yul\":3115:3232   */\n    tag_76:\n        /* \"#utility.yul\":3224:3225   */\n      0x00\n        /* \"#utility.yul\":3221:3222   */\n      dup1\n        /* \"#utility.yul\":3214:3226   */\n      revert\n        /* \"#utility.yul\":3238:3355   */\n    tag_77:\n        /* \"#utility.yul\":3347:3348   */\n      0x00\n        /* \"#utility.yul\":3344:3345   */\n      dup1\n        /* \"#utility.yul\":3337:3349   */\n      revert\n        /* \"#utility.yul\":3361:3541   */\n    tag_78:\n        /* \"#utility.yul\":3409:3486   */\n      0x4e487b7100000000000000000000000000000000000000000000000000000000\n        /* \"#utility.yul\":3406:3407   */\n      0x00\n        /* \"#utility.yul\":3399:3487   */\n      mstore\n        /* \"#utility.yul\":3506:3510   */\n      0x41\n        /* \"#utility.yul\":3503:3504   */\n      0x04\n        /* \"#utility.yul\":3496:3511   */\n      mstore\n        /* \"#utility.yul\":3530:3534   */\n      0x24\n        /* \"#utility.yul\":3527:3528   */\n      0x00\n        /* \"#utility.yul\":3520:3535   */\n      revert\n        /* \"#utility.yul\":3547:3828   */\n    tag_79:\n        /* \"#utility.yul\":3630:3657   */\n      tag_145\n        /* \"#utility.yul\":3652:3656   */\n      dup3\n        /* \"#utility.yul\":3630:3657   */\n      tag_72\n      jump\t// in\n    tag_145:\n        /* \"#utility.yul\":3622:3628   */\n      dup2\n        /* \"#utility.yul\":3618:3658   */\n      add\n        /* \"#utility.yul\":3760:3766   */\n      dup2\n        /* \"#utility.yul\":3748:3758   */\n      dup2\n        /* \"#utility.yul\":3745:3767   */\n      lt\n        /* \"#utility.yul\":3724:3742   */\n      0xffffffffffffffff\n        /* \"#utility.yul\":3712:3722   */\n      dup3\n        /* \"#utility.yul\":3709:3743   */\n      gt\n        /* \"#utility.yul\":3706:3768   */\n      or\n        /* \"#utility.yul\":3703:3791   */\n      iszero\n      tag_146\n      jumpi\n        /* \"#utility.yul\":3771:3789   */\n      tag_147\n      tag_78\n      jump\t// in\n    tag_147:\n        /* \"#utility.yul\":3703:3791   */\n    tag_146:\n        /* \"#utility.yul\":3811:3821   */\n      dup1\n        /* \"#utility.yul\":3807:3809   */\n      0x40\n        /* \"#utility.yul\":3800:3822   */\n      mstore\n        /* \"#utility.yul\":3590:3828   */\n      pop\n        /* \"#utility.yul\":3547:3828   */\n      pop\n      pop\n      jump\t// out\n        /* \"#utility.yul\":3834:3963   */\n    tag_80:\n        /* \"#utility.yul\":3868:3874   */\n      0x00\n        /* \"#utility.yul\":3895:3915   */\n      tag_149\n      tag_62\n      jump\t// in\n    tag_149:\n        /* \"#utility.yul\":3885:3915   */\n      swap1\n      pop\n        /* \"#utility.yul\":3924:3957   */\n      tag_150\n        /* \"#utility.yul\":3952:3956   */\n      dup3\n        /* \"#utility.yul\":3944:3950   */\n      dup3\n        /* \"#utility.yul\":3924:3957   */\n      tag_79\n      jump\t// in\n    tag_150:\n        /* \"#utility.yul\":3834:3963   */\n      swap2\n      swap1\n      pop\n      jump\t// out\n        /* \"#utility.yul\":3969:4277   */\n    tag_81:\n        /* \"#utility.yul\":4031:4035   */\n      0x00\n        /* \"#utility.yul\":4121:4139   */\n      0xffffffffffffffff\n        /* \"#utility.yul\":4113:4119   */\n      dup3\n        /* \"#utility.yul\":4110:4140   */\n      gt\n        /* \"#utility.yul\":4107:4163   */\n      iszero\n      tag_152\n      jumpi\n        /* \"#utility.yul\":4143:4161   */\n      tag_153\n      tag_78\n      jump\t// in\n    tag_153:\n        /* \"#utility.yul\":4107:4163   */\n    tag_152:\n        /* \"#utility.yul\":4181:4210   */\n      tag_154\n        /* \"#utility.yul\":4203:4209   */\n      dup3\n        /* \"#utility.yul\":4181:4210   */\n      tag_72\n      jump\t// in\n    tag_154:\n        /* \"#utility.yul\":4173:4210   */\n      swap1\n      pop\n        /* \"#utility.yul\":4265:4269   */\n      0x20\n        /* \"#utility.yul\":4259:4263   */\n      dup2\n        /* \"#utility.yul\":4255:4270   */\n      add\n        /* \"#utility.yul\":4247:4270   */\n      swap1\n      pop\n        /* \"#utility.yul\":3969:4277   */\n      swap2\n      swap1\n      pop\n      jump\t// out\n        /* \"#utility.yul\":4283:4429   */\n    tag_82:\n        /* \"#utility.yul\":4380:4386   */\n      dup3\n        /* \"#utility.yul\":4375:4378   */\n      dup2\n        /* \"#utility.yul\":4370:4373   */\n      dup4\n        /* \"#utility.yul\":4357:4387   */\n      calldatacopy\n        /* \"#utility.yul\":4421:4422   */\n      0x00\n        /* \"#utility.yul\":4412:4418   */\n      dup4\n        /* \"#utility.yul\":4407:4410   */\n      dup4\n        /* \"#utility.yul\":4403:4419   */\n      add\n        /* \"#utility.yul\":4396:4423   */\n      mstore\n        /* \"#utility.yul\":4283:4429   */\n      pop\n      pop\n      pop\n      jump\t// out\n        /* \"#utility.yul\":4435:4860   */\n    tag_83:\n        /* \"#utility.yul\":4513:4518   */\n      0x00\n        /* \"#utility.yul\":4538:4604   */\n      tag_157\n        /* \"#utility.yul\":4554:4603   */\n      tag_158\n        /* \"#utility.yul\":4596:4602   */\n      dup5\n        /* \"#utility.yul\":4554:4603   */\n      tag_81\n      jump\t// in\n    tag_158:\n        /* \"#utility.yul\":4538:4604   */\n      tag_80\n      jump\t// in\n    tag_157:\n        /* \"#utility.yul\":4529:4604   */\n      swap1\n      pop\n        /* \"#utility.yul\":4627:4633   */\n      dup3\n        /* \"#utility.yul\":4620:4625   */\n      dup2\n        /* \"#utility.yul\":4613:4634   */\n      mstore\n        /* \"#utility.yul\":4665:4669   */\n      0x20\n        /* \"#utility.yul\":4658:4663   */\n      dup2\n        /* \"#utility.yul\":4654:4670   */\n      add\n        /* \"#utility.yul\":4703:4706   */\n      dup5\n        /* \"#utility.yul\":4694:4700   */\n      dup5\n        /* \"#utility.yul\":4689:4692   */\n      dup5\n        /* \"#utility.yul\":4685:4701   */\n      add\n        /* \"#utility.yul\":4682:4707   */\n      gt\n        /* \"#utility.yul\":4679:4791   */\n      iszero\n      tag_159\n      jumpi\n        /* \"#utility.yul\":4710:4789   */\n      tag_160\n      tag_77\n      jump\t// in\n    tag_160:\n        /* \"#utility.yul\":4679:4791   */\n    tag_159:\n        /* \"#utility.yul\":4800:4854   */\n      tag_161\n        /* \"#utility.yul\":4847:4853   */\n      dup5\n        /* \"#utility.yul\":4842:4845   */\n      dup3\n        /* \"#utility.yul\":4837:4840   */\n      dup6\n        /* \"#utility.yul\":4800:4854   */\n      tag_82\n      jump\t// in\n    tag_161:\n        /* \"#utility.yul\":4519:4860   */\n      pop\n        /* \"#utility.yul\":4435:4860   */\n      swap4\n      swap3\n      pop\n      pop\n      pop\n      jump\t// out\n        /* \"#utility.yul\":4880:5220   */\n    tag_84:\n        /* \"#utility.yul\":4936:4941   */\n      0x00\n        /* \"#utility.yul\":4985:4988   */\n      dup3\n        /* \"#utility.yul\":4978:4982   */\n      0x1f\n        /* \"#utility.yul\":4970:4976   */\n      dup4\n        /* \"#utility.yul\":4966:4983   */\n      add\n        /* \"#utility.yul\":4962:4989   */\n      slt\n        /* \"#utility.yul\":4952:5074   */\n      tag_163\n      jumpi\n        /* \"#utility.yul\":4993:5072   */\n      tag_164\n      tag_76\n      jump\t// in\n    tag_164:\n        /* \"#utility.yul\":4952:5074   */\n    tag_163:\n        /* \"#utility.yul\":5110:5116   */\n      dup2\n        /* \"#utility.yul\":5097:5117   */\n      calldataload\n        /* \"#utility.yul\":5135:5214   */\n      tag_165\n        /* \"#utility.yul\":5210:5213   */\n      dup5\n        /* \"#utility.yul\":5202:5208   */\n      dup3\n        /* \"#utility.yul\":5195:5199   */\n      0x20\n        /* \"#utility.yul\":5187:5193   */\n      dup7\n        /* \"#utility.yul\":5183:5200   */\n      add\n        /* \"#utility.yul\":5135:5214   */\n      tag_83\n      jump\t// in\n    tag_165:\n        /* \"#utility.yul\":5126:5214   */\n      swap2\n      pop\n        /* \"#utility.yul\":4942:5220   */\n      pop\n        /* \"#utility.yul\":4880:5220   */\n      swap3\n      swap2\n      pop\n      pop\n      jump\t// out\n        /* \"#utility.yul\":5226:5344   */\n    tag_85:\n        /* \"#utility.yul\":5297:5319   */\n      tag_167\n        /* \"#utility.yul\":5313:5318   */\n      dup2\n        /* \"#utility.yul\":5297:5319   */\n      tag_74\n      jump\t// in\n    tag_167:\n        /* \"#utility.yul\":5290:5295   */\n      dup2\n        /* \"#utility.yul\":5287:5320   */\n      eq\n        /* \"#utility.yul\":5277:5338   */\n      tag_168\n      jumpi\n        /* \"#utility.yul\":5334:5335   */\n      0x00\n        /* \"#utility.yul\":5331:5332   */\n      dup1\n        /* \"#utility.yul\":5324:5336   */\n      revert\n        /* \"#utility.yul\":5277:5338   */\n    tag_168:\n        /* \"#utility.yul\":5226:5344   */\n      pop\n      jump\t// out\n        /* \"#utility.yul\":5350:5485   */\n    tag_86:\n        /* \"#utility.yul\":5394:5399   */\n      0x00\n        /* \"#utility.yul\":5432:5438   */\n      dup2\n        /* \"#utility.yul\":5419:5439   */\n      calldataload\n        /* \"#utility.yul\":5410:5439   */\n      swap1\n      pop\n        /* \"#utility.yul\":5448:5479   */\n      tag_170\n        /* \"#utility.yul\":5473:5478   */\n      dup2\n        /* \"#utility.yul\":5448:5479   */\n      tag_85\n      jump\t// in\n    tag_170:\n        /* \"#utility.yul\":5350:5485   */\n      swap3\n      swap2\n      pop\n      pop\n      jump\t// out\n        /* \"#utility.yul\":5491:6612   */\n    tag_15:\n        /* \"#utility.yul\":5595:5601   */\n      0x00\n        /* \"#utility.yul\":5603:5609   */\n      dup1\n        /* \"#utility.yul\":5611:5617   */\n      0x00\n        /* \"#utility.yul\":5619:5625   */\n      dup1\n        /* \"#utility.yul\":5668:5671   */\n      0x80\n        /* \"#utility.yul\":5656:5665   */\n      dup6\n        /* \"#utility.yul\":5647:5654   */\n      dup8\n        /* \"#utility.yul\":5643:5666   */\n      sub\n        /* \"#utility.yul\":5639:5672   */\n      slt\n        /* \"#utility.yul\":5636:5756   */\n      iszero\n      tag_172\n      jumpi\n        /* \"#utility.yul\":5675:5754   */\n      tag_173\n      tag_63\n      jump\t// in\n    tag_173:\n        /* \"#utility.yul\":5636:5756   */\n    tag_172:\n        /* \"#utility.yul\":5795:5796   */\n      0x00\n        /* \"#utility.yul\":5820:5873   */\n      tag_174\n        /* \"#utility.yul\":5865:5872   */\n      dup8\n        /* \"#utility.yul\":5856:5862   */\n      dup3\n        /* \"#utility.yul\":5845:5854   */\n      dup9\n        /* \"#utility.yul\":5841:5863   */\n      add\n        /* \"#utility.yul\":5820:5873   */\n      tag_67\n      jump\t// in\n    tag_174:\n        /* \"#utility.yul\":5810:5873   */\n      swap5\n      pop\n        /* \"#utility.yul\":5766:5883   */\n      pop\n        /* \"#utility.yul\":5950:5952   */\n      0x20\n        /* \"#utility.yul\":5939:5948   */\n      dup6\n        /* \"#utility.yul\":5935:5953   */\n      add\n        /* \"#utility.yul\":5922:5954   */\n      calldataload\n        /* \"#utility.yul\":5981:5999   */\n      0xffffffffffffffff\n        /* \"#utility.yul\":5973:5979   */\n      dup2\n        /* \"#utility.yul\":5970:6000   */\n      gt\n        /* \"#utility.yul\":5967:6084   */\n      iszero\n      tag_175\n      jumpi\n        /* \"#utility.yul\":6003:6082   */\n      tag_176\n      tag_64\n      jump\t// in\n    tag_176:\n        /* \"#utility.yul\":5967:6084   */\n    tag_175:\n        /* \"#utility.yul\":6108:6171   */\n      tag_177\n        /* \"#utility.yul\":6163:6170   */\n      dup8\n        /* \"#utility.yul\":6154:6160   */\n      dup3\n        /* \"#utility.yul\":6143:6152   */\n      dup9\n        /* \"#utility.yul\":6139:6161   */\n      add\n        /* \"#utility.yul\":6108:6171   */\n      tag_84\n      jump\t// in\n    tag_177:\n        /* \"#utility.yul\":6098:6171   */\n      swap4\n      pop\n        /* \"#utility.yul\":5893:6181   */\n      pop\n        /* \"#utility.yul\":6220:6222   */\n      0x40\n        /* \"#utility.yul\":6246:6297   */\n      tag_178\n        /* \"#utility.yul\":6289:6296   */\n      dup8\n        /* \"#utility.yul\":6280:6286   */\n      dup3\n        /* \"#utility.yul\":6269:6278   */\n      dup9\n        /* \"#utility.yul\":6265:6287   */\n      add\n        /* \"#utility.yul\":6246:6297   */\n      tag_86\n      jump\t// in\n    tag_178:\n        /* \"#utility.yul\":6236:6297   */\n      swap3\n      pop\n        /* \"#utility.yul\":6191:6307   */\n      pop\n        /* \"#utility.yul\":6374:6376   */\n      0x60\n        /* \"#utility.yul\":6363:6372   */\n      dup6\n        /* \"#utility.yul\":6359:6377   */\n      add\n        /* \"#utility.yul\":6346:6378   */\n      calldataload\n        /* \"#utility.yul\":6405:6423   */\n      0xffffffffffffffff\n        /* \"#utility.yul\":6397:6403   */\n      dup2\n        /* \"#utility.yul\":6394:6424   */\n      gt\n        /* \"#utility.yul\":6391:6508   */\n      iszero\n      tag_179\n      jumpi\n        /* \"#utility.yul\":6427:6506   */\n      tag_180\n      tag_64\n      jump\t// in\n    tag_180:\n        /* \"#utility.yul\":6391:6508   */\n    tag_179:\n        /* \"#utility.yul\":6532:6595   */\n      tag_181\n        /* \"#utility.yul\":6587:6594   */\n      dup8\n        /* \"#utility.yul\":6578:6584   */\n      dup3\n        /* \"#utility.yul\":6567:6576   */\n      dup9\n        /* \"#utility.yul\":6563:6585   */\n      add\n        /* \"#utility.yul\":6532:6595   */\n      tag_84\n      jump\t// in\n    tag_181:\n        /* \"#utility.yul\":6522:6595   */\n      swap2\n      pop\n        /* \"#utility.yul\":6317:6605   */\n      pop\n        /* \"#utility.yul\":5491:6612   */\n      swap3\n      swap6\n      swap2\n      swap5\n      pop\n      swap3\n      pop\n      jump\t// out\n        /* \"#utility.yul\":6618:6840   */\n    tag_24:\n        /* \"#utility.yul\":6711:6715   */\n      0x00\n        /* \"#utility.yul\":6749:6751   */\n      0x20\n        /* \"#utility.yul\":6738:6747   */\n      dup3\n        /* \"#utility.yul\":6734:6752   */\n      add\n        /* \"#utility.yul\":6726:6752   */\n      swap1\n      pop\n        /* \"#utility.yul\":6762:6833   */\n      tag_183\n        /* \"#utility.yul\":6830:6831   */\n      0x00\n        /* \"#utility.yul\":6819:6828   */\n      dup4\n        /* \"#utility.yul\":6815:6832   */\n      add\n        /* \"#utility.yul\":6806:6812   */\n      dup5\n        /* \"#utility.yul\":6762:6833   */\n      tag_68\n      jump\t// in\n    tag_183:\n        /* \"#utility.yul\":6618:6840   */\n      swap3\n      swap2\n      pop\n      pop\n      jump\t// out\n        /* \"#utility.yul\":6846:7026   */\n    tag_87:\n        /* \"#utility.yul\":6894:6971   */\n      0x4e487b7100000000000000000000000000000000000000000000000000000000\n        /* \"#utility.yul\":6891:6892   */\n      0x00\n        /* \"#utility.yul\":6884:6972   */\n      mstore\n        /* \"#utility.yul\":6991:6995   */\n      0x22\n        /* \"#utility.yul\":6988:6989   */\n      0x04\n        /* \"#utility.yul\":6981:6996   */\n      mstore\n        /* \"#utility.yul\":7015:7019   */\n      0x24\n        /* \"#utility.yul\":7012:7013   */\n      0x00\n        /* \"#utility.yul\":7005:7020   */\n      revert\n        /* \"#utility.yul\":7032:7352   */\n    tag_28:\n        /* \"#utility.yul\":7076:7082   */\n      0x00\n        /* \"#utility.yul\":7113:7114   */\n      0x02\n        /* \"#utility.yul\":7107:7111   */\n      dup3\n        /* \"#utility.yul\":7103:7115   */\n      div\n        /* \"#utility.yul\":7093:7115   */\n      swap1\n      pop\n        /* \"#utility.yul\":7160:7161   */\n      0x01\n        /* \"#utility.yul\":7154:7158   */\n      dup3\n        /* \"#utility.yul\":7150:7162   */\n      and\n        /* \"#utility.yul\":7181:7199   */\n      dup1\n        /* \"#utility.yul\":7171:7252   */\n      tag_186\n      jumpi\n        /* \"#utility.yul\":7237:7241   */\n      0x7f\n        /* \"#utility.yul\":7229:7235   */\n      dup3\n        /* \"#utility.yul\":7225:7242   */\n      and\n        /* \"#utility.yul\":7215:7242   */\n      swap2\n      pop\n        /* \"#utility.yul\":7171:7252   */\n    tag_186:\n        /* \"#utility.yul\":7299:7301   */\n      0x20\n        /* \"#utility.yul\":7291:7297   */\n      dup3\n        /* \"#utility.yul\":7288:7302   */\n      lt\n        /* \"#utility.yul\":7268:7286   */\n      dup2\n        /* \"#utility.yul\":7265:7303   */\n      sub\n        /* \"#utility.yul\":7262:7346   */\n      tag_187\n      jumpi\n        /* \"#utility.yul\":7318:7336   */\n      tag_188\n      tag_87\n      jump\t// in\n    tag_188:\n        /* \"#utility.yul\":7262:7346   */\n    tag_187:\n        /* \"#utility.yul\":7083:7352   */\n      pop\n        /* \"#utility.yul\":7032:7352   */\n      swap2\n      swap1\n      pop\n      jump\t// out\n        /* \"#utility.yul\":7358:7499   */\n    tag_88:\n        /* \"#utility.yul\":7407:7411   */\n      0x00\n        /* \"#utility.yul\":7430:7433   */\n      dup2\n        /* \"#utility.yul\":7422:7433   */\n      swap1\n      pop\n        /* \"#utility.yul\":7453:7456   */\n      dup2\n        /* \"#utility.yul\":7450:7451   */\n      0x00\n        /* \"#utility.yul\":7443:7457   */\n      mstore\n        /* \"#utility.yul\":7487:7491   */\n      0x20\n        /* \"#utility.yul\":7484:7485   */\n      0x00\n        /* \"#utility.yul\":7474:7492   */\n      keccak256\n        /* \"#utility.yul\":7466:7492   */\n      swap1\n      pop\n        /* \"#utility.yul\":7358:7499   */\n      swap2\n      swap1\n      pop\n      jump\t// out\n        /* \"#utility.yul\":7505:7598   */\n    tag_89:\n        /* \"#utility.yul\":7542:7548   */\n      0x00\n        /* \"#utility.yul\":7589:7591   */\n      0x20\n        /* \"#utility.yul\":7584:7586   */\n      0x1f\n        /* \"#utility.yul\":7577:7582   */\n      dup4\n        /* \"#utility.yul\":7573:7587   */\n      add\n        /* \"#utility.yul\":7569:7592   */\n      div\n        /* \"#utility.yul\":7559:7592   */\n      swap1\n      pop\n        /* \"#utility.yul\":7505:7598   */\n      swap2\n      swap1\n      pop\n      jump\t// out\n        /* \"#utility.yul\":7604:7711   */\n    tag_90:\n        /* \"#utility.yul\":7648:7656   */\n      0x00\n        /* \"#utility.yul\":7698:7703   */\n      dup3\n        /* \"#utility.yul\":7692:7696   */\n      dup3\n        /* \"#utility.yul\":7688:7704   */\n      shl\n        /* \"#utility.yul\":7667:7704   */\n      swap1\n      pop\n        /* \"#utility.yul\":7604:7711   */\n      swap3\n      swap2\n      pop\n      pop\n      jump\t// out\n        /* \"#utility.yul\":7717:8110   */\n    tag_91:\n        /* \"#utility.yul\":7786:7792   */\n      0x00\n        /* \"#utility.yul\":7836:7837   */\n      0x08\n        /* \"#utility.yul\":7824:7834   */\n      dup4\n        /* \"#utility.yul\":7820:7838   */\n      mul\n        /* \"#utility.yul\":7859:7956   */\n      tag_193\n        /* \"#utility.yul\":7889:7955   */\n      0xffffffffffffffffffffffffffffffffffffffffffffffffffffffffffffffff\n        /* \"#utility.yul\":7878:7887   */\n      dup3\n        /* \"#utility.yul\":7859:7956   */\n      tag_90\n      jump\t// in\n    tag_193:\n        /* \"#utility.yul\":7977:8016   */\n      tag_194\n        /* \"#utility.yul\":8007:8015   */\n      dup7\n        /* \"#utility.yul\":7996:8005   */\n      dup4\n        /* \"#utility.yul\":7977:8016   */\n      tag_90\n      jump\t// in\n    tag_194:\n        /* \"#utility.yul\":7965:8016   */\n      swap6\n      pop\n        /* \"#utility.yul\":8049:8053   */\n      dup1\n        /* \"#utility.yul\":8045:8054   */\n      not\n        /* \"#utility.yul\":8038:8043   */\n      dup5\n        /* \"#utility.yul\":8034:8055   */\n      and\n        /* \"#utility.yul\":8025:8055   */\n      swap4\n      pop\n        /* \"#utility.yul\":8098:8102   */\n      dup1\n        /* \"#utility.yul\":8088:8096   */\n      dup7\n        /* \"#utility.yul\":8084:8103   */\n      and\n        /* \"#utility.yul\":8077:8082   */\n      dup5\n        /* \"#utility.yul\":8074:8104   */\n      or\n        /* \"#utility.yul\":8064:8104   */\n      swap3\n      pop\n        /* \"#utility.yul\":7793:8110   */\n      pop\n      pop\n        /* \"#utility.yul\":7717:8110   */\n      swap4\n      swap3\n      pop\n      pop\n      pop\n      jump\t// out\n        /* \"#utility.yul\":8116:8176   */\n    tag_92:\n        /* \"#utility.yul\":8144:8147   */\n      0x00\n        /* \"#utility.yul\":8165:8170   */\n      dup2\n        /* \"#utility.yul\":8158:8170   */\n      swap1\n      pop\n        /* \"#utility.yul\":8116:8176   */\n      swap2\n      swap1\n      pop\n      jump\t// out\n        /* \"#utility.yul\":8182:8324   */\n    tag_93:\n        /* \"#utility.yul\":8232:8241   */\n      0x00\n        /* \"#utility.yul\":8265:8318   */\n      tag_197\n        /* \"#utility.yul\":8283:8317   */\n      tag_198\n        /* \"#utility.yul\":8292:8316   */\n      tag_199\n        /* \"#utility.yul\":8310:8315   */\n      dup5\n        /* \"#utility.yul\":8292:8316   */\n      tag_65\n      jump\t// in\n    tag_199:\n        /* \"#utility.yul\":8283:8317   */\n      tag_92\n      jump\t// in\n    tag_198:\n        /* \"#utility.yul\":8265:8318   */\n      tag_65\n      jump\t// in\n    tag_197:\n        /* \"#utility.yul\":8252:8318   */\n      swap1\n      pop\n        /* \"#utility.yul\":8182:8324   */\n      swap2\n      swap1\n      pop\n      jump\t// out\n        /* \"#utility.yul\":8330:8405   */\n    tag_94:\n        /* \"#utility.yul\":8373:8376   */\n      0x00\n        /* \"#utility.yul\":8394:8399   */\n      dup2\n        /* \"#utility.yul\":8387:8399   */\n      swap1\n      pop\n        /* \"#utility.yul\":8330:8405   */\n      swap2\n      swap1\n      pop\n      jump\t// out\n        /* \"#utility.yul\":8411:8680   */\n    tag_95:\n        /* \"#utility.yul\":8521:8560   */\n      tag_202\n        /* \"#utility.yul\":8552:8559   */\n      dup4\n        /* \"#utility.yul\":8521:8560   */\n      tag_93\n      jump\t// in\n    tag_202:\n        /* \"#utility.yul\":8582:8673   */\n      tag_203\n        /* \"#utility.yul\":8631:8672   */\n      tag_204\n        /* \"#utility.yul\":8655:8671   */\n      dup3\n        /* \"#utility.yul\":8631:8672   */\n      tag_94\n      jump\t// in\n    tag_204:\n        /* \"#utility.yul\":8623:8629   */\n      dup5\n        /* \"#utility.yul\":8616:8620   */\n      dup5\n        /* \"#utility.yul\":8610:8621   */\n      sload\n        /* \"#utility.yul\":8582:8673   */\n      tag_91\n      jump\t// in\n    tag_203:\n        /* \"#utility.yul\":8576:8580   */\n      dup3\n        /* \"#utility.yul\":8569:8674   */\n      sstore\n        /* \"#utility.yul\":8487:8680   */\n      pop\n        /* \"#utility.yul\":8411:8680   */\n      pop\n      pop\n      pop\n      jump\t// out\n        /* \"#utility.yul\":8686:8759   */\n    tag_96:\n        /* \"#utility.yul\":8731:8734   */\n      0x00\n        /* \"#utility.yul\":8686:8759   */\n      swap1\n      jump\t// out\n        /* \"#utility.yul\":8765:8954   */\n    tag_97:\n        /* \"#utility.yul\":8842:8874   */\n      tag_207\n      tag_96\n      jump\t// in\n    tag_207:\n        /* \"#utility.yul\":8883:8948   */\n      tag_208\n        /* \"#utility.yul\":8941:8947   */\n      dup2\n        /* \"#utility.yul\":8933:8939   */\n      dup5\n        /* \"#utility.yul\":8927:8931   */\n      dup5\n        /* \"#utility.yul\":8883:8948   */\n      tag_95\n      jump\t// in\n    tag_208:\n        /* \"#utility.yul\":8818:8954   */\n      pop\n        /* \"#utility.yul\":8765:8954   */\n      pop\n      pop\n      jump\t// out\n        /* \"#utility.yul\":8960:9146   */\n    tag_98:\n        /* \"#utility.yul\":9020:9140   */\n    tag_210:\n        /* \"#utility.yul\":9037:9040   */\n      dup2\n        /* \"#utility.yul\":9030:9035   */\n      dup2\n        /* \"#utility.yul\":9027:9041   */\n      lt\n        /* \"#utility.yul\":9020:9140   */\n      iszero\n      tag_212\n      jumpi\n        /* \"#utility.yul\":9091:9130   */\n      tag_213\n        /* \"#utility.yul\":9128:9129   */\n      0x00\n        /* \"#utility.yul\":9121:9126   */\n      dup3\n        /* \"#utility.yul\":9091:9130   */\n      tag_97\n      jump\t// in\n    tag_213:\n        /* \"#utility.yul\":9064:9065   */\n      0x01\n        /* \"#utility.yul\":9057:9062   */\n      dup2\n        /* \"#utility.yul\":9053:9066   */\n      add\n        /* \"#utility.yul\":9044:9066   */\n      swap1\n      pop\n        /* \"#utility.yul\":9020:9140   */\n      jump(tag_210)\n    tag_212:\n        /* \"#utility.yul\":8960:9146   */\n      pop\n      pop\n      jump\t// out\n        /* \"#utility.yul\":9152:9695   */\n    tag_99:\n        /* \"#utility.yul\":9253:9255   */\n      0x1f\n        /* \"#utility.yul\":9248:9251   */\n      dup3\n        /* \"#utility.yul\":9245:9256   */\n      gt\n        /* \"#utility.yul\":9242:9688   */\n      iszero\n      tag_215\n      jumpi\n        /* \"#utility.yul\":9287:9325   */\n      tag_216\n        /* \"#utility.yul\":9319:9324   */\n      dup2\n        /* \"#utility.yul\":9287:9325   */\n      tag_88\n      jump\t// in\n    tag_216:\n        /* \"#utility.yul\":9371:9400   */\n      tag_217\n        /* \"#utility.yul\":9389:9399   */\n      dup5\n        /* \"#utility.yul\":9371:9400   */\n      tag_89\n      jump\t// in\n    tag_217:\n        /* \"#utility.yul\":9361:9369   */\n      dup2\n        /* \"#utility.yul\":9357:9401   */\n      add\n        /* \"#utility.yul\":9554:9556   */\n      0x20\n        /* \"#utility.yul\":9542:9552   */\n      dup6\n        /* \"#utility.yul\":9539:9557   */\n      lt\n        /* \"#utility.yul\":9536:9585   */\n      iszero\n      tag_218\n      jumpi\n        /* \"#utility.yul\":9575:9583   */\n      dup2\n        /* \"#utility.yul\":9560:9583   */\n      swap1\n      pop\n        /* \"#utility.yul\":9536:9585   */\n    tag_218:\n        /* \"#utility.yul\":9598:9678   */\n      tag_219\n        /* \"#utility.yul\":9654:9676   */\n      tag_220\n        /* \"#utility.yul\":9672:9675   */\n      dup6\n        /* \"#utility.yul\":9654:9676   */\n      tag_89\n      jump\t// in\n    tag_220:\n        /* \"#utility.yul\":9644:9652   */\n      dup4\n        /* \"#utility.yul\":9640:9677   */\n      add\n        /* \"#utility.yul\":9627:9638   */\n      dup3\n        /* \"#utility.yul\":9598:9678   */\n      tag_98\n      jump\t// in\n    tag_219:\n        /* \"#utility.yul\":9257:9688   */\n      pop\n      pop\n        /* \"#utility.yul\":9242:9688   */\n    tag_215:\n        /* \"#utility.yul\":9152:9695   */\n      pop\n      pop\n      pop\n      jump\t// out\n        /* \"#utility.yul\":9701:9818   */\n    tag_100:\n        /* \"#utility.yul\":9755:9763   */\n      0x00\n        /* \"#utility.yul\":9805:9810   */\n      dup3\n        /* \"#utility.yul\":9799:9803   */\n      dup3\n        /* \"#utility.yul\":9795:9811   */\n      shr\n        /* \"#utility.yul\":9774:9811   */\n      swap1\n      pop\n        /* \"#utility.yul\":9701:9818   */\n      swap3\n      swap2\n      pop\n      pop\n      jump\t// out\n        /* \"#utility.yul\":9824:9993   */\n    tag_101:\n        /* \"#utility.yul\":9868:9874   */\n      0x00\n        /* \"#utility.yul\":9901:9952   */\n      tag_223\n        /* \"#utility.yul\":9949:9950   */\n      0x00\n        /* \"#utility.yul\":9945:9951   */\n      not\n        /* \"#utility.yul\":9937:9942   */\n      dup5\n        /* \"#utility.yul\":9934:9935   */\n      0x08\n        /* \"#utility.yul\":9930:9943   */\n      mul\n        /* \"#utility.yul\":9901:9952   */\n      tag_100\n      jump\t// in\n    tag_223:\n        /* \"#utility.yul\":9897:9953   */\n      not\n        /* \"#utility.yul\":9982:9986   */\n      dup1\n        /* \"#utility.yul\":9976:9980   */\n      dup4\n        /* \"#utility.yul\":9972:9987   */\n      and\n        /* \"#utility.yul\":9962:9987   */\n      swap2\n      pop\n        /* \"#utility.yul\":9875:9993   */\n      pop\n        /* \"#utility.yul\":9824:9993   */\n      swap3\n      swap2\n      pop\n      pop\n      jump\t// out\n        /* \"#utility.yul\":9998:10293   */\n    tag_102:\n        /* \"#utility.yul\":10074:10078   */\n      0x00\n        /* \"#utility.yul\":10220:10249   */\n      tag_225\n        /* \"#utility.yul\":10245:10248   */\n      dup4\n        /* \"#utility.yul\":10239:10243   */\n      dup4\n        /* \"#utility.yul\":10220:10249   */\n      tag_101\n      jump\t// in\n    tag_225:\n        /* \"#utility.yul\":10212:10249   */\n      swap2\n      pop\n        /* \"#utility.yul\":10282:10285   */\n      dup3\n        /* \"#utility.yul\":10279:10280   */\n      0x02\n        /* \"#utility.yul\":10275:10286   */\n      mul\n        /* \"#utility.yul\":10269:10273   */\n      dup3\n        /* \"#utility.yul\":10266:10287   */\n      or\n        /* \"#utility.yul\":10258:10287   */\n      swap1\n      pop\n        /* \"#utility.yul\":9998:10293   */\n      swap3\n      swap2\n      pop\n      pop\n      jump\t// out\n        /* \"#utility.yul\":10298:11693   */\n    tag_41:\n        /* \"#utility.yul\":10415:10452   */\n      tag_227\n        /* \"#utility.yul\":10448:10451   */\n      dup3\n        /* \"#utility.yul\":10415:10452   */\n      tag_69\n      jump\t// in\n    tag_227:\n        /* \"#utility.yul\":10517:10535   */\n      0xffffffffffffffff\n        /* \"#utility.yul\":10509:10515   */\n      dup2\n        /* \"#utility.yul\":10506:10536   */\n      gt\n        /* \"#utility.yul\":10503:10559   */\n      iszero\n      tag_228\n      jumpi\n        /* \"#utility.yul\":10539:10557   */\n      tag_229\n      tag_78\n      jump\t// in\n    tag_229:\n        /* \"#utility.yul\":10503:10559   */\n    tag_228:\n        /* \"#utility.yul\":10583:10621   */\n      tag_230\n        /* \"#utility.yul\":10615:10619   */\n      dup3\n        /* \"#utility.yul\":10609:10620   */\n      sload\n        /* \"#utility.yul\":10583:10621   */\n      tag_28\n      jump\t// in\n    tag_230:\n        /* \"#utility.yul\":10668:10735   */\n      tag_231\n        /* \"#utility.yul\":10728:10734   */\n      dup3\n        /* \"#utility.yul\":10720:10726   */\n      dup3\n        /* \"#utility.yul\":10714:10718   */\n      dup6\n        /* \"#utility.yul\":10668:10735   */\n      tag_99\n      jump\t// in\n    tag_231:\n        /* \"#utility.yul\":10762:10763   */\n      0x00\n        /* \"#utility.yul\":10786:10790   */\n      0x20\n        /* \"#utility.yul\":10773:10790   */\n      swap1\n      pop\n        /* \"#utility.yul\":10818:10820   */\n      0x1f\n        /* \"#utility.yul\":10810:10816   */\n      dup4\n        /* \"#utility.yul\":10807:10821   */\n      gt\n        /* \"#utility.yul\":10835:10836   */\n      0x01\n        /* \"#utility.yul\":10830:11448   */\n      dup2\n      eq\n      tag_233\n      jumpi\n        /* \"#utility.yul\":11492:11493   */\n      0x00\n        /* \"#utility.yul\":11509:11515   */\n      dup5\n        /* \"#utility.yul\":11506:11583   */\n      iszero\n      tag_234\n      jumpi\n        /* \"#utility.yul\":11558:11567   */\n      dup3\n        /* \"#utility.yul\":11553:11556   */\n      dup8\n        /* \"#utility.yul\":11549:11568   */\n      add\n        /* \"#utility.yul\":11543:11569   */\n      mload\n        /* \"#utility.yul\":11534:11569   */\n      swap1\n      pop\n        /* \"#utility.yul\":11506:11583   */\n    tag_234:\n        /* \"#utility.yul\":11609:11676   */\n      tag_235\n        /* \"#utility.yul\":11669:11675   */\n      dup6\n        /* \"#utility.yul\":11662:11667   */\n      dup3\n        /* \"#utility.yul\":11609:11676   */\n      tag_102\n      jump\t// in\n    tag_235:\n        /* \"#utility.yul\":11603:11607   */\n      dup7\n        /* \"#utility.yul\":11596:11677   */\n      sstore\n        /* \"#utility.yul\":11465:11687   */\n      pop\n        /* \"#utility.yul\":10800:11687   */\n      jump(tag_232)\n        /* \"#utility.yul\":10830:11448   */\n    tag_233:\n        /* \"#utility.yul\":10882:10886   */\n      0x1f\n        /* \"#utility.yul\":10878:10887   */\n      not\n        /* \"#utility.yul\":10870:10876   */\n      dup5\n        /* \"#utility.yul\":10866:10888   */\n      and\n        /* \"#utility.yul\":10916:10953   */\n      tag_236\n        /* \"#utility.yul\":10948:10952   */\n      dup7\n        /* \"#utility.yul\":10916:10953   */\n      tag_88\n      jump\t// in\n    tag_236:\n        /* \"#utility.yul\":10975:10976   */\n      0x00\n        /* \"#utility.yul\":10989:11197   */\n    tag_237:\n        /* \"#utility.yul\":11003:11010   */\n      dup3\n        /* \"#utility.yul\":11000:11001   */\n      dup2\n        /* \"#utility.yul\":10997:11011   */\n      lt\n        /* \"#utility.yul\":10989:11197   */\n      iszero\n      tag_239\n      jumpi\n        /* \"#utility.yul\":11082:11091   */\n      dup5\n        /* \"#utility.yul\":11077:11080   */\n      dup10\n        /* \"#utility.yul\":11073:11092   */\n      add\n        /* \"#utility.yul\":11067:11093   */\n      mload\n        /* \"#utility.yul\":11059:11065   */\n      dup3\n        /* \"#utility.yul\":11052:11094   */\n      sstore\n        /* \"#utility.yul\":11133:11134   */\n      0x01\n        /* \"#utility.yul\":11125:11131   */\n      dup3\n        /* \"#utility.yul\":11121:11135   */\n      add\n        /* \"#utility.yul\":11111:11135   */\n      swap2\n      pop\n        /* \"#utility.yul\":11180:11182   */\n      0x20\n        /* \"#utility.yul\":11169:11178   */\n      dup6\n        /* \"#utility.yul\":11165:11183   */\n      add\n        /* \"#utility.yul\":11152:11183   */\n      swap5\n      pop\n        /* \"#utility.yul\":11026:11030   */\n      0x20\n        /* \"#utility.yul\":11023:11024   */\n      dup2\n        /* \"#utility.yul\":11019:11031   */\n      add\n        /* \"#utility.yul\":11014:11031   */\n      swap1\n      pop\n        /* \"#utility.yul\":10989:11197   */\n      jump(tag_237)\n    tag_239:\n        /* \"#utility.yul\":11225:11231   */\n      dup7\n        /* \"#utility.yul\":11216:11223   */\n      dup4\n        /* \"#utility.yul\":11213:11232   */\n      lt\n        /* \"#utility.yul\":11210:11389   */\n      iszero\n      tag_240\n      jumpi\n        /* \"#utility.yul\":11283:11292   */\n      dup5\n        /* \"#utility.yul\":11278:11281   */\n      dup10\n        /* \"#utility.yul\":11274:11293   */\n      add\n        /* \"#utility.yul\":11268:11294   */\n      mload\n        /* \"#utility.yul\":11326:11374   */\n      tag_241\n        /* \"#utility.yul\":11368:11372   */\n      0x1f\n        /* \"#utility.yul\":11360:11366   */\n      dup10\n        /* \"#utility.yul\":11356:11373   */\n      and\n        /* \"#utility.yul\":11345:11354   */\n      dup3\n        /* \"#utility.yul\":11326:11374   */\n      tag_101\n      jump\t// in\n    tag_241:\n        /* \"#utility.yul\":11318:11324   */\n      dup4\n        /* \"#utility.yul\":11311:11375   */\n      sstore\n        /* \"#utility.yul\":11233:11389   */\n      pop\n        /* \"#utility.yul\":11210:11389   */\n    tag_240:\n        /* \"#utility.yul\":11435:11436   */\n      0x01\n        /* \"#utility.yul\":11431:11432   */\n      0x02\n        /* \"#utility.yul\":11423:11429   */\n      dup9\n        /* \"#utility.yul\":11419:11433   */\n      mul\n        /* \"#utility.yul\":11415:11437   */\n      add\n        /* \"#utility.yul\":11409:11413   */\n      dup9\n        /* \"#utility.yul\":11402:11438   */\n      sstore\n        /* \"#utility.yul\":10837:11448   */\n      pop\n      pop\n      pop\n        /* \"#utility.yul\":10800:11687   */\n    tag_232:\n      pop\n        /* \"#utility.yul\":10390:11693   */\n      pop\n      pop\n      pop\n        /* \"#utility.yul\":10298:11693   */\n      pop\n      pop\n      jump\t// out\n        /* \"#utility.yul\":11699:11862   */\n    tag_103:\n        /* \"#utility.yul\":11839:11854   */\n      0x496e76616c696420696e64657800000000000000000000000000000000000000\n        /* \"#utility.yul\":11835:11836   */\n      0x00\n        /* \"#utility.yul\":11827:11833   */\n      dup3\n        /* \"#utility.yul\":11823:11837   */\n      add\n        /* \"#utility.yul\":11816:11855   */\n      mstore\n        /* \"#utility.yul\":11699:11862   */\n      pop\n      jump\t// out\n        /* \"#utility.yul\":11868:12234   */\n    tag_104:\n        /* \"#utility.yul\":12010:12013   */\n      0x00\n        /* \"#utility.yul\":12031:12098   */\n      tag_244\n        /* \"#utility.yul\":12095:12097   */\n      0x0d\n        /* \"#utility.yul\":12090:12093   */\n      dup4\n        /* \"#utility.yul\":12031:12098   */\n      tag_70\n      jump\t// in\n    tag_244:\n        /* \"#utility.yul\":12024:12098   */\n      swap2\n      pop\n        /* \"#utility.yul\":12107:12200   */\n      tag_245\n        /* \"#utility.yul\":12196:12199   */\n      dup3\n        /* \"#utility.yul\":12107:12200   */\n      tag_103\n      jump\t// in\n    tag_245:\n        /* \"#utility.yul\":12225:12227   */\n      0x20\n        /* \"#utility.yul\":12220:12223   */\n      dup3\n        /* \"#utility.yul\":12216:12228   */\n      add\n        /* \"#utility.yul\":12209:12228   */\n      swap1\n      pop\n        /* \"#utility.yul\":11868:12234   */\n      swap2\n      swap1\n      pop\n      jump\t// out\n        /* \"#utility.yul\":12240:12659   */\n    tag_46:\n        /* \"#utility.yul\":12406:12410   */\n      0x00\n        /* \"#utility.yul\":12444:12446   */\n      0x20\n        /* \"#utility.yul\":12433:12442   */\n      dup3\n        /* \"#utility.yul\":12429:12447   */\n      add\n        /* \"#utility.yul\":12421:12447   */\n      swap1\n      pop\n        /* \"#utility.yul\":12493:12502   */\n      dup2\n        /* \"#utility.yul\":12487:12491   */\n      dup2\n        /* \"#utility.yul\":12483:12503   */\n      sub\n        /* \"#utility.yul\":12479:12480   */\n      0x00\n        /* \"#utility.yul\":12468:12477   */\n      dup4\n        /* \"#utility.yul\":12464:12481   */\n      add\n        /* \"#utility.yul\":12457:12504   */\n      mstore\n        /* \"#utility.yul\":12521:12652   */\n      tag_247\n        /* \"#utility.yul\":12647:12651   */\n      dup2\n        /* \"#utility.yul\":12521:12652   */\n      tag_104\n      jump\t// in\n    tag_247:\n        /* \"#utility.yul\":12513:12652   */\n      swap1\n      pop\n        /* \"#utility.yul\":12240:12659   */\n      swap2\n      swap1\n      pop\n      jump\t// out\n        /* \"#utility.yul\":12665:12845   */\n    tag_49:\n        /* \"#utility.yul\":12713:12790   */\n      0x4e487b7100000000000000000000000000000000000000000000000000000000\n        /* \"#utility.yul\":12710:12711   */\n      0x00\n        /* \"#utility.yul\":12703:12791   */\n      mstore\n        /* \"#utility.yul\":12810:12814   */\n      0x32\n        /* \"#utility.yul\":12807:12808   */\n      0x04\n        /* \"#utility.yul\":12800:12815   */\n      mstore\n        /* \"#utility.yul\":12834:12838   */\n      0x24\n        /* \"#utility.yul\":12831:12832   */\n      0x00\n        /* \"#utility.yul\":12824:12839   */\n      revert\n\n    auxdata: 0xa2646970667358221220351b8339021f3cdb11e1a367546264b976d95a20add9ed4229b41813e76ce9cf64736f6c63430008120033\n}\n",
				"bytecode": {
					"linkReferences": {},
					"object": "608060405234801561001057600080fd5b50610c4b806100206000396000f3fe608060405234801561001057600080fd5b506004361061004c5760003560e01c806306ead22e146100515780634c567ee614610084578063642f9163146100a0578063945b7bd6146100d3575b600080fd5b61006b60048036038101906100669190610546565b6100f1565b60405161007b949392919061062e565b60405180910390f35b61009e600480360381019061009991906107e2565b61024e565b005b6100ba60048036038101906100b59190610546565b610302565b6040516100ca949392919061062e565b60405180910390f35b6100db6104f0565b6040516100e89190610881565b60405180910390f35b6000818154811061010157600080fd5b906000526020600020906004020160009150905080600001549080600101805461012a906108cb565b80601f0160208091040260200160405190810160405280929190818152602001828054610156906108cb565b80156101a35780601f10610178576101008083540402835291602001916101a3565b820191906000526020600020905b81548152906001019060200180831161018657829003601f168201915b5050505050908060020160009054906101000a900460ff16908060030180546101cb906108cb565b80601f01602080910402602001604051908101604052809291908181526020018280546101f7906108cb565b80156102445780601f1061021957610100808354040283529160200191610244565b820191906000526020600020905b81548152906001019060200180831161022757829003601f168201915b5050505050905084565b600060405180608001604052808681526020018581526020018460ff16815260200183815250905060008190806001815401808255809150506001900390600052602060002090600402016000909190919091506000820151816000015560208201518160010190816102c19190610aa8565b5060408201518160020160006101000a81548160ff021916908360ff16021790555060608201518160030190816102f89190610aa8565b5050505050505050565b60006060600060606000805490508510610351576040517f08c379a000000000000000000000000000000000000000000000000000000000815260040161034890610bc6565b60405180910390fd5b600080868154811061036657610365610be6565b5b906000526020600020906004020160405180608001604052908160008201548152602001600182018054610399906108cb565b80601f01602080910402602001604051908101604052809291908181526020018280546103c5906108cb565b80156104125780601f106103e757610100808354040283529160200191610412565b820191906000526020600020905b8154815290600101906020018083116103f557829003601f168201915b505050505081526020016002820160009054906101000a900460ff1660ff1660ff168152602001600382018054610448906108cb565b80601f0160208091040260200160405190810160405280929190818152602001828054610474906108cb565b80156104c15780601f10610496576101008083540402835291602001916104c1565b820191906000526020600020905b8154815290600101906020018083116104a457829003601f168201915b505050505081525050905080600001518160200151826040015183606001519450945094509450509193509193565b60008080549050905090565b6000604051905090565b600080fd5b600080fd5b6000819050919050565b61052381610510565b811461052e57600080fd5b50565b6000813590506105408161051a565b92915050565b60006020828403121561055c5761055b610506565b5b600061056a84828501610531565b91505092915050565b61057c81610510565b82525050565b600081519050919050565b600082825260208201905092915050565b60005b838110156105bc5780820151818401526020810190506105a1565b60008484015250505050565b6000601f19601f8301169050919050565b60006105e482610582565b6105ee818561058d565b93506105fe81856020860161059e565b610607816105c8565b840191505092915050565b600060ff82169050919050565b61062881610612565b82525050565b60006080820190506106436000830187610573565b818103602083015261065581866105d9565b9050610664604083018561061f565b818103606083015261067681846105d9565b905095945050505050565b600080fd5b600080fd5b7f4e487b7100000000000000000000000000000000000000000000000000000000600052604160045260246000fd5b6106c3826105c8565b810181811067ffffffffffffffff821117156106e2576106e161068b565b5b80604052505050565b60006106f56104fc565b905061070182826106ba565b919050565b600067ffffffffffffffff8211156107215761072061068b565b5b61072a826105c8565b9050602081019050919050565b82818337600083830152505050565b600061075961075484610706565b6106eb565b90508281526020810184848401111561077557610774610686565b5b610780848285610737565b509392505050565b600082601f83011261079d5761079c610681565b5b81356107ad848260208601610746565b91505092915050565b6107bf81610612565b81146107ca57600080fd5b50565b6000813590506107dc816107b6565b92915050565b600080600080608085870312156107fc576107fb610506565b5b600061080a87828801610531565b945050602085013567ffffffffffffffff81111561082b5761082a61050b565b5b61083787828801610788565b9350506040610848878288016107cd565b925050606085013567ffffffffffffffff8111156108695761086861050b565b5b61087587828801610788565b91505092959194509250565b60006020820190506108966000830184610573565b92915050565b7f4e487b7100000000000000000000000000000000000000000000000000000000600052602260045260246000fd5b600060028204905060018216806108e357607f821691505b6020821081036108f6576108f561089c565b5b50919050565b60008190508160005260206000209050919050565b60006020601f8301049050919050565b600082821b905092915050565b60006008830261095e7fffffffffffffffffffffffffffffffffffffffffffffffffffffffffffffffff82610921565b6109688683610921565b95508019841693508086168417925050509392505050565b6000819050919050565b60006109a56109a061099b84610510565b610980565b610510565b9050919050565b6000819050919050565b6109bf8361098a565b6109d36109cb826109ac565b84845461092e565b825550505050565b600090565b6109e86109db565b6109f38184846109b6565b505050565b5b81811015610a1757610a0c6000826109e0565b6001810190506109f9565b5050565b601f821115610a5c57610a2d816108fc565b610a3684610911565b81016020851015610a45578190505b610a59610a5185610911565b8301826109f8565b50505b505050565b600082821c905092915050565b6000610a7f60001984600802610a61565b1980831691505092915050565b6000610a988383610a6e565b9150826002028217905092915050565b610ab182610582565b67ffffffffffffffff811115610aca57610ac961068b565b5b610ad482546108cb565b610adf828285610a1b565b600060209050601f831160018114610b125760008415610b00578287015190505b610b0a8582610a8c565b865550610b72565b601f198416610b20866108fc565b60005b82811015610b4857848901518255600182019150602085019450602081019050610b23565b86831015610b655784890151610b61601f891682610a6e565b8355505b6001600288020188555050505b505050505050565b7f496e76616c696420696e64657800000000000000000000000000000000000000600082015250565b6000610bb0600d8361058d565b9150610bbb82610b7a565b602082019050919050565b60006020820190508181036000830152610bdf81610ba3565b9050919050565b7f4e487b7100000000000000000000000000000000000000000000000000000000600052603260045260246000fdfea2646970667358221220351b8339021f3cdb11e1a367546264b976d95a20add9ed4229b41813e76ce9cf64736f6c63430008120033",
					"opcodes": "PUSH1 0x80 PUSH1 0x40 MSTORE CALLVALUE DUP1 ISZERO PUSH2 0x10 JUMPI PUSH1 0x0 DUP1 REVERT JUMPDEST POP PUSH2 0xC4B DUP1 PUSH2 0x20 PUSH1 0x0 CODECOPY PUSH1 0x0 RETURN INVALID PUSH1 0x80 PUSH1 0x40 MSTORE CALLVALUE DUP1 ISZERO PUSH2 0x10 JUMPI PUSH1 0x0 DUP1 REVERT JUMPDEST POP PUSH1 0x4 CALLDATASIZE LT PUSH2 0x4C JUMPI PUSH1 0x0 CALLDATALOAD PUSH1 0xE0 SHR DUP1 PUSH4 0x6EAD22E EQ PUSH2 0x51 JUMPI DUP1 PUSH4 0x4C567EE6 EQ PUSH2 0x84 JUMPI DUP1 PUSH4 0x642F9163 EQ PUSH2 0xA0 JUMPI DUP1 PUSH4 0x945B7BD6 EQ PUSH2 0xD3 JUMPI JUMPDEST PUSH1 0x0 DUP1 REVERT JUMPDEST PUSH2 0x6B PUSH1 0x4 DUP1 CALLDATASIZE SUB DUP2 ADD SWAP1 PUSH2 0x66 SWAP2 SWAP1 PUSH2 0x546 JUMP JUMPDEST PUSH2 0xF1 JUMP JUMPDEST PUSH1 0x40 MLOAD PUSH2 0x7B SWAP5 SWAP4 SWAP3 SWAP2 SWAP1 PUSH2 0x62E JUMP JUMPDEST PUSH1 0x40 MLOAD DUP1 SWAP2 SUB SWAP1 RETURN JUMPDEST PUSH2 0x9E PUSH1 0x4 DUP1 CALLDATASIZE SUB DUP2 ADD SWAP1 PUSH2 0x99 SWAP2 SWAP1 PUSH2 0x7E2 JUMP JUMPDEST PUSH2 0x24E JUMP JUMPDEST STOP JUMPDEST PUSH2 0xBA PUSH1 0x4 DUP1 CALLDATASIZE SUB DUP2 ADD SWAP1 PUSH2 0xB5 SWAP2 SWAP1 PUSH2 0x546 JUMP JUMPDEST PUSH2 0x302 JUMP JUMPDEST PUSH1 0x40 MLOAD PUSH2 0xCA SWAP5 SWAP4 SWAP3 SWAP2 SWAP1 PUSH2 0x62E JUMP JUMPDEST PUSH1 0x40 MLOAD DUP1 SWAP2 SUB SWAP1 RETURN JUMPDEST PUSH2 0xDB PUSH2 0x4F0 JUMP JUMPDEST PUSH1 0x40 MLOAD PUSH2 0xE8 SWAP2 SWAP1 PUSH2 0x881 JUMP JUMPDEST PUSH1 0x40 MLOAD DUP1 SWAP2 SUB SWAP1 RETURN JUMPDEST PUSH1 0x0 DUP2 DUP2 SLOAD DUP2 LT PUSH2 0x101 JUMPI PUSH1 0x0 DUP1 REVERT JUMPDEST SWAP1 PUSH1 0x0 MSTORE PUSH1 0x20 PUSH1 0x0 KECCAK256 SWAP1 PUSH1 0x4 MUL ADD PUSH1 0x0 SWAP2 POP SWAP1 POP DUP1 PUSH1 0x0 ADD SLOAD SWAP1 DUP1 PUSH1 0x1 ADD DUP1 SLOAD PUSH2 0x12A SWAP1 PUSH2 0x8CB JUMP JUMPDEST DUP1 PUSH1 0x1F ADD PUSH1 0x20 DUP1 SWAP2 DIV MUL PUSH1 0x20 ADD PUSH1 0x40 MLOAD SWAP1 DUP2 ADD PUSH1 0x40 MSTORE DUP1 SWAP3 SWAP2 SWAP1 DUP2 DUP2 MSTORE PUSH1 0x20 ADD DUP3 DUP1 SLOAD PUSH2 0x156 SWAP1 PUSH2 0x8CB JUMP JUMPDEST DUP1 ISZERO PUSH2 0x1A3 JUMPI DUP1 PUSH1 0x1F LT PUSH2 0x178 JUMPI PUSH2 0x100 DUP1 DUP4 SLOAD DIV MUL DUP4 MSTORE SWAP2 PUSH1 0x20 ADD SWAP2 PUSH2 0x1A3 JUMP JUMPDEST DUP3 ADD SWAP2 SWAP1 PUSH1 0x0 MSTORE PUSH1 0x20 PUSH1 0x0 KECCAK256 SWAP1 JUMPDEST DUP2 SLOAD DUP2 MSTORE SWAP1 PUSH1 0x1 ADD SWAP1 PUSH1 0x20 ADD DUP1 DUP4 GT PUSH2 0x186 JUMPI DUP3 SWAP1 SUB PUSH1 0x1F AND DUP3 ADD SWAP2 JUMPDEST POP POP POP POP POP SWAP1 DUP1 PUSH1 0x2 ADD PUSH1 0x0 SWAP1 SLOAD SWAP1 PUSH2 0x100 EXP SWAP1 DIV PUSH1 0xFF AND SWAP1 DUP1 PUSH1 0x3 ADD DUP1 SLOAD PUSH2 0x1CB SWAP1 PUSH2 0x8CB JUMP JUMPDEST DUP1 PUSH1 0x1F ADD PUSH1 0x20 DUP1 SWAP2 DIV MUL PUSH1 0x20 ADD PUSH1 0x40 MLOAD SWAP1 DUP2 ADD PUSH1 0x40 MSTORE DUP1 SWAP3 SWAP2 SWAP1 DUP2 DUP2 MSTORE PUSH1 0x20 ADD DUP3 DUP1 SLOAD PUSH2 0x1F7 SWAP1 PUSH2 0x8CB JUMP JUMPDEST DUP1 ISZERO PUSH2 0x244 JUMPI DUP1 PUSH1 0x1F LT PUSH2 0x219 JUMPI PUSH2 0x100 DUP1 DUP4 SLOAD DIV MUL DUP4 MSTORE SWAP2 PUSH1 0x20 ADD SWAP2 PUSH2 0x244 JUMP JUMPDEST DUP3 ADD SWAP2 SWAP1 PUSH1 0x0 MSTORE PUSH1 0x20 PUSH1 0x0 KECCAK256 SWAP1 JUMPDEST DUP2 SLOAD DUP2 MSTORE SWAP1 PUSH1 0x1 ADD SWAP1 PUSH1 0x20 ADD DUP1 DUP4 GT PUSH2 0x227 JUMPI DUP3 SWAP1 SUB PUSH1 0x1F AND DUP3 ADD SWAP2 JUMPDEST POP POP POP POP POP SWAP1 POP DUP5 JUMP JUMPDEST PUSH1 0x0 PUSH1 0x40 MLOAD DUP1 PUSH1 0x80 ADD PUSH1 0x40 MSTORE DUP1 DUP7 DUP2 MSTORE PUSH1 0x20 ADD DUP6 DUP2 MSTORE PUSH1 0x20 ADD DUP5 PUSH1 0xFF AND DUP2 MSTORE PUSH1 0x20 ADD DUP4 DUP2 MSTORE POP SWAP1 POP PUSH1 0x0 DUP2 SWAP1 DUP1 PUSH1 0x1 DUP2 SLOAD ADD DUP1 DUP3 SSTORE DUP1 SWAP2 POP POP PUSH1 0x1 SWAP1 SUB SWAP1 PUSH1 0x0 MSTORE PUSH1 0x20 PUSH1 0x0 KECCAK256 SWAP1 PUSH1 0x4 MUL ADD PUSH1 0x0 SWAP1 SWAP2 SWAP1 SWAP2 SWAP1 SWAP2 POP PUSH1 0x0 DUP3 ADD MLOAD DUP2 PUSH1 0x0 ADD SSTORE PUSH1 0x20 DUP3 ADD MLOAD DUP2 PUSH1 0x1 ADD SWAP1 DUP2 PUSH2 0x2C1 SWAP2 SWAP1 PUSH2 0xAA8 JUMP JUMPDEST POP PUSH1 0x40 DUP3 ADD MLOAD DUP2 PUSH1 0x2 ADD PUSH1 0x0 PUSH2 0x100 EXP DUP2 SLOAD DUP2 PUSH1 0xFF MUL NOT AND SWAP1 DUP4 PUSH1 0xFF AND MUL OR SWAP1 SSTORE POP PUSH1 0x60 DUP3 ADD MLOAD DUP2 PUSH1 0x3 ADD SWAP1 DUP2 PUSH2 0x2F8 SWAP2 SWAP1 PUSH2 0xAA8 JUMP JUMPDEST POP POP POP POP POP POP POP POP JUMP JUMPDEST PUSH1 0x0 PUSH1 0x60 PUSH1 0x0 PUSH1 0x60 PUSH1 0x0 DUP1 SLOAD SWAP1 POP DUP6 LT PUSH2 0x351 JUMPI PUSH1 0x40 MLOAD PUSH32 0x8C379A000000000000000000000000000000000000000000000000000000000 DUP2 MSTORE PUSH1 0x4 ADD PUSH2 0x348 SWAP1 PUSH2 0xBC6 JUMP JUMPDEST PUSH1 0x40 MLOAD DUP1 SWAP2 SUB SWAP1 REVERT JUMPDEST PUSH1 0x0 DUP1 DUP7 DUP2 SLOAD DUP2 LT PUSH2 0x366 JUMPI PUSH2 0x365 PUSH2 0xBE6 JUMP JUMPDEST JUMPDEST SWAP1 PUSH1 0x0 MSTORE PUSH1 0x20 PUSH1 0x0 KECCAK256 SWAP1 PUSH1 0x4 MUL ADD PUSH1 0x40 MLOAD DUP1 PUSH1 0x80 ADD PUSH1 0x40 MSTORE SWAP1 DUP2 PUSH1 0x0 DUP3 ADD SLOAD DUP2 MSTORE PUSH1 0x20 ADD PUSH1 0x1 DUP3 ADD DUP1 SLOAD PUSH2 0x399 SWAP1 PUSH2 0x8CB JUMP JUMPDEST DUP1 PUSH1 0x1F ADD PUSH1 0x20 DUP1 SWAP2 DIV MUL PUSH1 0x20 ADD PUSH1 0x40 MLOAD SWAP1 DUP2 ADD PUSH1 0x40 MSTORE DUP1 SWAP3 SWAP2 SWAP1 DUP2 DUP2 MSTORE PUSH1 0x20 ADD DUP3 DUP1 SLOAD PUSH2 0x3C5 SWAP1 PUSH2 0x8CB JUMP JUMPDEST DUP1 ISZERO PUSH2 0x412 JUMPI DUP1 PUSH1 0x1F LT PUSH2 0x3E7 JUMPI PUSH2 0x100 DUP1 DUP4 SLOAD DIV MUL DUP4 MSTORE SWAP2 PUSH1 0x20 ADD SWAP2 PUSH2 0x412 JUMP JUMPDEST DUP3 ADD SWAP2 SWAP1 PUSH1 0x0 MSTORE PUSH1 0x20 PUSH1 0x0 KECCAK256 SWAP1 JUMPDEST DUP2 SLOAD DUP2 MSTORE SWAP1 PUSH1 0x1 ADD SWAP1 PUSH1 0x20 ADD DUP1 DUP4 GT PUSH2 0x3F5 JUMPI DUP3 SWAP1 SUB PUSH1 0x1F AND DUP3 ADD SWAP2 JUMPDEST POP POP POP POP POP DUP2 MSTORE PUSH1 0x20 ADD PUSH1 0x2 DUP3 ADD PUSH1 0x0 SWAP1 SLOAD SWAP1 PUSH2 0x100 EXP SWAP1 DIV PUSH1 0xFF AND PUSH1 0xFF AND PUSH1 0xFF AND DUP2 MSTORE PUSH1 0x20 ADD PUSH1 0x3 DUP3 ADD DUP1 SLOAD PUSH2 0x448 SWAP1 PUSH2 0x8CB JUMP JUMPDEST DUP1 PUSH1 0x1F ADD PUSH1 0x20 DUP1 SWAP2 DIV MUL PUSH1 0x20 ADD PUSH1 0x40 MLOAD SWAP1 DUP2 ADD PUSH1 0x40 MSTORE DUP1 SWAP3 SWAP2 SWAP1 DUP2 DUP2 MSTORE PUSH1 0x20 ADD DUP3 DUP1 SLOAD PUSH2 0x474 SWAP1 PUSH2 0x8CB JUMP JUMPDEST DUP1 ISZERO PUSH2 0x4C1 JUMPI DUP1 PUSH1 0x1F LT PUSH2 0x496 JUMPI PUSH2 0x100 DUP1 DUP4 SLOAD DIV MUL DUP4 MSTORE SWAP2 PUSH1 0x20 ADD SWAP2 PUSH2 0x4C1 JUMP JUMPDEST DUP3 ADD SWAP2 SWAP1 PUSH1 0x0 MSTORE PUSH1 0x20 PUSH1 0x0 KECCAK256 SWAP1 JUMPDEST DUP2 SLOAD DUP2 MSTORE SWAP1 PUSH1 0x1 ADD SWAP1 PUSH1 0x20 ADD DUP1 DUP4 GT PUSH2 0x4A4 JUMPI DUP3 SWAP1 SUB PUSH1 0x1F AND DUP3 ADD SWAP2 JUMPDEST POP POP POP POP POP DUP2 MSTORE POP POP SWAP1 POP DUP1 PUSH1 0x0 ADD MLOAD DUP2 PUSH1 0x20 ADD MLOAD DUP3 PUSH1 0x40 ADD MLOAD DUP4 PUSH1 0x60 ADD MLOAD SWAP5 POP SWAP5 POP SWAP5 POP SWAP5 POP POP SWAP2 SWAP4 POP SWAP2 SWAP4 JUMP JUMPDEST PUSH1 0x0 DUP1 DUP1 SLOAD SWAP1 POP SWAP1 POP SWAP1 JUMP JUMPDEST PUSH1 0x0 PUSH1 0x40 MLOAD SWAP1 POP SWAP1 JUMP JUMPDEST PUSH1 0x0 DUP1 REVERT JUMPDEST PUSH1 0x0 DUP1 REVERT JUMPDEST PUSH1 0x0 DUP2 SWAP1 POP SWAP2 SWAP1 POP JUMP JUMPDEST PUSH2 0x523 DUP2 PUSH2 0x510 JUMP JUMPDEST DUP2 EQ PUSH2 0x52E JUMPI PUSH1 0x0 DUP1 REVERT JUMPDEST POP JUMP JUMPDEST PUSH1 0x0 DUP2 CALLDATALOAD SWAP1 POP PUSH2 0x540 DUP2 PUSH2 0x51A JUMP JUMPDEST SWAP3 SWAP2 POP POP JUMP JUMPDEST PUSH1 0x0 PUSH1 0x20 DUP3 DUP5 SUB SLT ISZERO PUSH2 0x55C JUMPI PUSH2 0x55B PUSH2 0x506 JUMP JUMPDEST JUMPDEST PUSH1 0x0 PUSH2 0x56A DUP5 DUP3 DUP6 ADD PUSH2 0x531 JUMP JUMPDEST SWAP2 POP POP SWAP3 SWAP2 POP POP JUMP JUMPDEST PUSH2 0x57C DUP2 PUSH2 0x510 JUMP JUMPDEST DUP3 MSTORE POP POP JUMP JUMPDEST PUSH1 0x0 DUP2 MLOAD SWAP1 POP SWAP2 SWAP1 POP JUMP JUMPDEST PUSH1 0x0 DUP3 DUP3 MSTORE PUSH1 0x20 DUP3 ADD SWAP1 POP SWAP3 SWAP2 POP POP JUMP JUMPDEST PUSH1 0x0 JUMPDEST DUP4 DUP2 LT ISZERO PUSH2 0x5BC JUMPI DUP1 DUP3 ADD MLOAD DUP2 DUP5 ADD MSTORE PUSH1 0x20 DUP2 ADD SWAP1 POP PUSH2 0x5A1 JUMP JUMPDEST PUSH1 0x0 DUP5 DUP5 ADD MSTORE POP POP POP POP JUMP JUMPDEST PUSH1 0x0 PUSH1 0x1F NOT PUSH1 0x1F DUP4 ADD AND SWAP1 POP SWAP2 SWAP1 POP JUMP JUMPDEST PUSH1 0x0 PUSH2 0x5E4 DUP3 PUSH2 0x582 JUMP JUMPDEST PUSH2 0x5EE DUP2 DUP6 PUSH2 0x58D JUMP JUMPDEST SWAP4 POP PUSH2 0x5FE DUP2 DUP6 PUSH1 0x20 DUP7 ADD PUSH2 0x59E JUMP JUMPDEST PUSH2 0x607 DUP2 PUSH2 0x5C8 JUMP JUMPDEST DUP5 ADD SWAP2 POP POP SWAP3 SWAP2 POP POP JUMP JUMPDEST PUSH1 0x0 PUSH1 0xFF DUP3 AND SWAP1 POP SWAP2 SWAP1 POP JUMP JUMPDEST PUSH2 0x628 DUP2 PUSH2 0x612 JUMP JUMPDEST DUP3 MSTORE POP POP JUMP JUMPDEST PUSH1 0x0 PUSH1 0x80 DUP3 ADD SWAP1 POP PUSH2 0x643 PUSH1 0x0 DUP4 ADD DUP8 PUSH2 0x573 JUMP JUMPDEST DUP2 DUP2 SUB PUSH1 0x20 DUP4 ADD MSTORE PUSH2 0x655 DUP2 DUP7 PUSH2 0x5D9 JUMP JUMPDEST SWAP1 POP PUSH2 0x664 PUSH1 0x40 DUP4 ADD DUP6 PUSH2 0x61F JUMP JUMPDEST DUP2 DUP2 SUB PUSH1 0x60 DUP4 ADD MSTORE PUSH2 0x676 DUP2 DUP5 PUSH2 0x5D9 JUMP JUMPDEST SWAP1 POP SWAP6 SWAP5 POP POP POP POP POP JUMP JUMPDEST PUSH1 0x0 DUP1 REVERT JUMPDEST PUSH1 0x0 DUP1 REVERT JUMPDEST PUSH32 0x4E487B7100000000000000000000000000000000000000000000000000000000 PUSH1 0x0 MSTORE PUSH1 0x41 PUSH1 0x4 MSTORE PUSH1 0x24 PUSH1 0x0 REVERT JUMPDEST PUSH2 0x6C3 DUP3 PUSH2 0x5C8 JUMP JUMPDEST DUP2 ADD DUP2 DUP2 LT PUSH8 0xFFFFFFFFFFFFFFFF DUP3 GT OR ISZERO PUSH2 0x6E2 JUMPI PUSH2 0x6E1 PUSH2 0x68B JUMP JUMPDEST JUMPDEST DUP1 PUSH1 0x40 MSTORE POP POP POP JUMP JUMPDEST PUSH1 0x0 PUSH2 0x6F5 PUSH2 0x4FC JUMP JUMPDEST SWAP1 POP PUSH2 0x701 DUP3 DUP3 PUSH2 0x6BA JUMP JUMPDEST SWAP2 SWAP1 POP JUMP JUMPDEST PUSH1 0x0 PUSH8 0xFFFFFFFFFFFFFFFF DUP3 GT ISZERO PUSH2 0x721 JUMPI PUSH2 0x720 PUSH2 0x68B JUMP JUMPDEST JUMPDEST PUSH2 0x72A DUP3 PUSH2 0x5C8 JUMP JUMPDEST SWAP1 POP PUSH1 0x20 DUP2 ADD SWAP1 POP SWAP2 SWAP1 POP JUMP JUMPDEST DUP3 DUP2 DUP4 CALLDATACOPY PUSH1 0x0 DUP4 DUP4 ADD MSTORE POP POP POP JUMP JUMPDEST PUSH1 0x0 PUSH2 0x759 PUSH2 0x754 DUP5 PUSH2 0x706 JUMP JUMPDEST PUSH2 0x6EB JUMP JUMPDEST SWAP1 POP DUP3 DUP2 MSTORE PUSH1 0x20 DUP2 ADD DUP5 DUP5 DUP5 ADD GT ISZERO PUSH2 0x775 JUMPI PUSH2 0x774 PUSH2 0x686 JUMP JUMPDEST JUMPDEST PUSH2 0x780 DUP5 DUP3 DUP6 PUSH2 0x737 JUMP JUMPDEST POP SWAP4 SWAP3 POP POP POP JUMP JUMPDEST PUSH1 0x0 DUP3 PUSH1 0x1F DUP4 ADD SLT PUSH2 0x79D JUMPI PUSH2 0x79C PUSH2 0x681 JUMP JUMPDEST JUMPDEST DUP2 CALLDATALOAD PUSH2 0x7AD DUP5 DUP3 PUSH1 0x20 DUP7 ADD PUSH2 0x746 JUMP JUMPDEST SWAP2 POP POP SWAP3 SWAP2 POP POP JUMP JUMPDEST PUSH2 0x7BF DUP2 PUSH2 0x612 JUMP JUMPDEST DUP2 EQ PUSH2 0x7CA JUMPI PUSH1 0x0 DUP1 REVERT JUMPDEST POP JUMP JUMPDEST PUSH1 0x0 DUP2 CALLDATALOAD SWAP1 POP PUSH2 0x7DC DUP2 PUSH2 0x7B6 JUMP JUMPDEST SWAP3 SWAP2 POP POP JUMP JUMPDEST PUSH1 0x0 DUP1 PUSH1 0x0 DUP1 PUSH1 0x80 DUP6 DUP8 SUB SLT ISZERO PUSH2 0x7FC JUMPI PUSH2 0x7FB PUSH2 0x506 JUMP JUMPDEST JUMPDEST PUSH1 0x0 PUSH2 0x80A DUP8 DUP3 DUP9 ADD PUSH2 0x531 JUMP JUMPDEST SWAP5 POP POP PUSH1 0x20 DUP6 ADD CALLDATALOAD PUSH8 0xFFFFFFFFFFFFFFFF DUP2 GT ISZERO PUSH2 0x82B JUMPI PUSH2 0x82A PUSH2 0x50B JUMP JUMPDEST JUMPDEST PUSH2 0x837 DUP8 DUP3 DUP9 ADD PUSH2 0x788 JUMP JUMPDEST SWAP4 POP POP PUSH1 0x40 PUSH2 0x848 DUP8 DUP3 DUP9 ADD PUSH2 0x7CD JUMP JUMPDEST SWAP3 POP POP PUSH1 0x60 DUP6 ADD CALLDATALOAD PUSH8 0xFFFFFFFFFFFFFFFF DUP2 GT ISZERO PUSH2 0x869 JUMPI PUSH2 0x868 PUSH2 0x50B JUMP JUMPDEST JUMPDEST PUSH2 0x875 DUP8 DUP3 DUP9 ADD PUSH2 0x788 JUMP JUMPDEST SWAP2 POP POP SWAP3 SWAP6 SWAP2 SWAP5 POP SWAP3 POP JUMP JUMPDEST PUSH1 0x0 PUSH1 0x20 DUP3 ADD SWAP1 POP PUSH2 0x896 PUSH1 0x0 DUP4 ADD DUP5 PUSH2 0x573 JUMP JUMPDEST SWAP3 SWAP2 POP POP JUMP JUMPDEST PUSH32 0x4E487B7100000000000000000000000000000000000000000000000000000000 PUSH1 0x0 MSTORE PUSH1 0x22 PUSH1 0x4 MSTORE PUSH1 0x24 PUSH1 0x0 REVERT JUMPDEST PUSH1 0x0 PUSH1 0x2 DUP3 DIV SWAP1 POP PUSH1 0x1 DUP3 AND DUP1 PUSH2 0x8E3 JUMPI PUSH1 0x7F DUP3 AND SWAP2 POP JUMPDEST PUSH1 0x20 DUP3 LT DUP2 SUB PUSH2 0x8F6 JUMPI PUSH2 0x8F5 PUSH2 0x89C JUMP JUMPDEST JUMPDEST POP SWAP2 SWAP1 POP JUMP JUMPDEST PUSH1 0x0 DUP2 SWAP1 POP DUP2 PUSH1 0x0 MSTORE PUSH1 0x20 PUSH1 0x0 KECCAK256 SWAP1 POP SWAP2 SWAP1 POP JUMP JUMPDEST PUSH1 0x0 PUSH1 0x20 PUSH1 0x1F DUP4 ADD DIV SWAP1 POP SWAP2 SWAP1 POP JUMP JUMPDEST PUSH1 0x0 DUP3 DUP3 SHL SWAP1 POP SWAP3 SWAP2 POP POP JUMP JUMPDEST PUSH1 0x0 PUSH1 0x8 DUP4 MUL PUSH2 0x95E PUSH32 0xFFFFFFFFFFFFFFFFFFFFFFFFFFFFFFFFFFFFFFFFFFFFFFFFFFFFFFFFFFFFFFFF DUP3 PUSH2 0x921 JUMP JUMPDEST PUSH2 0x968 DUP7 DUP4 PUSH2 0x921 JUMP JUMPDEST SWAP6 POP DUP1 NOT DUP5 AND SWAP4 POP DUP1 DUP7 AND DUP5 OR SWAP3 POP POP POP SWAP4 SWAP3 POP POP POP JUMP JUMPDEST PUSH1 0x0 DUP2 SWAP1 POP SWAP2 SWAP1 POP JUMP JUMPDEST PUSH1 0x0 PUSH2 0x9A5 PUSH2 0x9A0 PUSH2 0x99B DUP5 PUSH2 0x510 JUMP JUMPDEST PUSH2 0x980 JUMP JUMPDEST PUSH2 0x510 JUMP JUMPDEST SWAP1 POP SWAP2 SWAP1 POP JUMP JUMPDEST PUSH1 0x0 DUP2 SWAP1 POP SWAP2 SWAP1 POP JUMP JUMPDEST PUSH2 0x9BF DUP4 PUSH2 0x98A JUMP JUMPDEST PUSH2 0x9D3 PUSH2 0x9CB DUP3 PUSH2 0x9AC JUMP JUMPDEST DUP5 DUP5 SLOAD PUSH2 0x92E JUMP JUMPDEST DUP3 SSTORE POP POP POP POP JUMP JUMPDEST PUSH1 0x0 SWAP1 JUMP JUMPDEST PUSH2 0x9E8 PUSH2 0x9DB JUMP JUMPDEST PUSH2 0x9F3 DUP2 DUP5 DUP5 PUSH2 0x9B6 JUMP JUMPDEST POP POP POP JUMP JUMPDEST JUMPDEST DUP2 DUP2 LT ISZERO PUSH2 0xA17 JUMPI PUSH2 0xA0C PUSH1 0x0 DUP3 PUSH2 0x9E0 JUMP JUMPDEST PUSH1 0x1 DUP2 ADD SWAP1 POP PUSH2 0x9F9 JUMP JUMPDEST POP POP JUMP JUMPDEST PUSH1 0x1F DUP3 GT ISZERO PUSH2 0xA5C JUMPI PUSH2 0xA2D DUP2 PUSH2 0x8FC JUMP JUMPDEST PUSH2 0xA36 DUP5 PUSH2 0x911 JUMP JUMPDEST DUP2 ADD PUSH1 0x20 DUP6 LT ISZERO PUSH2 0xA45 JUMPI DUP2 SWAP1 POP JUMPDEST PUSH2 0xA59 PUSH2 0xA51 DUP6 PUSH2 0x911 JUMP JUMPDEST DUP4 ADD DUP3 PUSH2 0x9F8 JUMP JUMPDEST POP POP JUMPDEST POP POP POP JUMP JUMPDEST PUSH1 0x0 DUP3 DUP3 SHR SWAP1 POP SWAP3 SWAP2 POP POP JUMP JUMPDEST PUSH1 0x0 PUSH2 0xA7F PUSH1 0x0 NOT DUP5 PUSH1 0x8 MUL PUSH2 0xA61 JUMP JUMPDEST NOT DUP1 DUP4 AND SWAP2 POP POP SWAP3 SWAP2 POP POP JUMP JUMPDEST PUSH1 0x0 PUSH2 0xA98 DUP4 DUP4 PUSH2 0xA6E JUMP JUMPDEST SWAP2 POP DUP3 PUSH1 0x2 MUL DUP3 OR SWAP1 POP SWAP3 SWAP2 POP POP JUMP JUMPDEST PUSH2 0xAB1 DUP3 PUSH2 0x582 JUMP JUMPDEST PUSH8 0xFFFFFFFFFFFFFFFF DUP2 GT ISZERO PUSH2 0xACA JUMPI PUSH2 0xAC9 PUSH2 0x68B JUMP JUMPDEST JUMPDEST PUSH2 0xAD4 DUP3 SLOAD PUSH2 0x8CB JUMP JUMPDEST PUSH2 0xADF DUP3 DUP3 DUP6 PUSH2 0xA1B JUMP JUMPDEST PUSH1 0x0 PUSH1 0x20 SWAP1 POP PUSH1 0x1F DUP4 GT PUSH1 0x1 DUP2 EQ PUSH2 0xB12 JUMPI PUSH1 0x0 DUP5 ISZERO PUSH2 0xB00 JUMPI DUP3 DUP8 ADD MLOAD SWAP1 POP JUMPDEST PUSH2 0xB0A DUP6 DUP3 PUSH2 0xA8C JUMP JUMPDEST DUP7 SSTORE POP PUSH2 0xB72 JUMP JUMPDEST PUSH1 0x1F NOT DUP5 AND PUSH2 0xB20 DUP7 PUSH2 0x8FC JUMP JUMPDEST PUSH1 0x0 JUMPDEST DUP3 DUP2 LT ISZERO PUSH2 0xB48 JUMPI DUP5 DUP10 ADD MLOAD DUP3 SSTORE PUSH1 0x1 DUP3 ADD SWAP2 POP PUSH1 0x20 DUP6 ADD SWAP5 POP PUSH1 0x20 DUP2 ADD SWAP1 POP PUSH2 0xB23 JUMP JUMPDEST DUP7 DUP4 LT ISZERO PUSH2 0xB65 JUMPI DUP5 DUP10 ADD MLOAD PUSH2 0xB61 PUSH1 0x1F DUP10 AND DUP3 PUSH2 0xA6E JUMP JUMPDEST DUP4 SSTORE POP JUMPDEST PUSH1 0x1 PUSH1 0x2 DUP9 MUL ADD DUP9 SSTORE POP POP POP JUMPDEST POP POP POP POP POP POP JUMP JUMPDEST PUSH32 0x496E76616C696420696E64657800000000000000000000000000000000000000 PUSH1 0x0 DUP3 ADD MSTORE POP JUMP JUMPDEST PUSH1 0x0 PUSH2 0xBB0 PUSH1 0xD DUP4 PUSH2 0x58D JUMP JUMPDEST SWAP2 POP PUSH2 0xBBB DUP3 PUSH2 0xB7A JUMP JUMPDEST PUSH1 0x20 DUP3 ADD SWAP1 POP SWAP2 SWAP1 POP JUMP JUMPDEST PUSH1 0x0 PUSH1 0x20 DUP3 ADD SWAP1 POP DUP2 DUP2 SUB PUSH1 0x0 DUP4 ADD MSTORE PUSH2 0xBDF DUP2 PUSH2 0xBA3 JUMP JUMPDEST SWAP1 POP SWAP2 SWAP1 POP JUMP JUMPDEST PUSH32 0x4E487B7100000000000000000000000000000000000000000000000000000000 PUSH1 0x0 MSTORE PUSH1 0x32 PUSH1 0x4 MSTORE PUSH1 0x24 PUSH1 0x0 REVERT INVALID LOG2 PUSH5 0x6970667358 0x22 SLT KECCAK256 CALLDATALOAD SHL DUP4 CODECOPY MUL 0x1F EXTCODECOPY 0xDB GT 0xE1 LOG3 PUSH8 0x546264B976D95A20 0xAD 0xD9 0xED TIMESTAMP 0x29 0xB4 XOR SGT 0xE7 PUSH13 0xE9CF64736F6C63430008120033 "
				},
				"gasEstimates": {
					"creation": {
						"codeDepositCost": "629400",
						"executionCost": "664",
						"totalCost": "630064"
					},
					"external": {
						"addStudent(uint256,string,uint8,string)": "infinite",
						"getNumberOfStudents()": "2489",
						"getStudent(uint256)": "infinite",
						"students(uint256)": "infinite"
					}
				},
				"methodIdentifiers": {
					"addStudent(uint256,string,uint8,string)": "4c567ee6",
					"getNumberOfStudents()": "945b7bd6",
					"getStudent(uint256)": "642f9163",
					"students(uint256)": "06ead22e"
				}
			},
			"storageLayout": {
				"storage": [
					{
						"astId": 14,
						"contract": "sturecord.sol:StudentRecord",
						"label": "students",
						"offset": 0,
						"slot": "0",
						"type": "t_array(t_struct(Student)10_storage)dyn_storage"
					}
				],
				"types": {
					"t_array(t_struct(Student)10_storage)dyn_storage": {
						"base": "t_struct(Student)10_storage",
						"encoding": "dynamic_array",
						"label": "struct StudentRecord.Student[]",
						"numberOfBytes": "32"
					},
					"t_string_storage": {
						"encoding": "bytes",
						"label": "string",
						"numberOfBytes": "32"
					},
					"t_struct(Student)10_storage": {
						"encoding": "inplace",
						"label": "struct StudentRecord.Student",
						"members": [
							{
								"astId": 3,
								"contract": "sturecord.sol:StudentRecord",
								"label": "rollNumber",
								"offset": 0,
								"slot": "0",
								"type": "t_uint256"
							},
							{
								"astId": 5,
								"contract": "sturecord.sol:StudentRecord",
								"label": "name",
								"offset": 0,
								"slot": "1",
								"type": "t_string_storage"
							},
							{
								"astId": 7,
								"contract": "sturecord.sol:StudentRecord",
								"label": "age",
								"offset": 0,
								"slot": "2",
								"type": "t_uint8"
							},
							{
								"astId": 9,
								"contract": "sturecord.sol:StudentRecord",
								"label": "department",
								"offset": 0,
								"slot": "3",
								"type": "t_string_storage"
							}
						],
						"numberOfBytes": "128"
					},
					"t_uint256": {
						"encoding": "inplace",
						"label": "uint256",
						"numberOfBytes": "32"
					},
					"t_uint8": {
						"encoding": "inplace",
						"label": "uint8",
						"numberOfBytes": "1"
					}
				}
			},
			"userdoc": {
				"kind": "user",
				"methods": {},
				"version": 1
			}
		}
	}
}