{
	"multiplestudentrecord.sol": {
		"StudentRecord": {
			"abi": [
				{
					"anonymous": false,
					"inputs": [
						{
							"indexed": true,
							"internalType": "address",
							"name": "studentAddress",
							"type": "address"
						},
						{
							"indexed": false,
							"internalType": "string",
							"name": "name",
							"type": "string"
						},
						{
							"indexed": false,
							"internalType": "uint256",
							"name": "age",
							"type": "uint256"
						},
						{
							"indexed": false,
							"internalType": "string",
							"name": "major",
							"type": "string"
						}
					],
					"name": "StudentAdded",
					"type": "event"
				},
				{
					"anonymous": false,
					"inputs": [
						{
							"indexed": true,
							"internalType": "address",
							"name": "studentAddress",
							"type": "address"
						},
						{
							"indexed": false,
							"internalType": "string",
							"name": "name",
							"type": "string"
						},
						{
							"indexed": false,
							"internalType": "uint256",
							"name": "age",
							"type": "uint256"
						},
						{
							"indexed": false,
							"internalType": "string",
							"name": "major",
							"type": "string"
						}
					],
					"name": "StudentUpdated",
					"type": "event"
				},
				{
					"inputs": [
						{
							"internalType": "string",
							"name": "name",
							"type": "string"
						},
						{
							"internalType": "uint256",
							"name": "age",
							"type": "uint256"
						},
						{
							"internalType": "string",
							"name": "major",
							"type": "string"
						}
					],
					"name": "addStudent",
					"outputs": [],
					"stateMutability": "nonpayable",
					"type": "function"
				},
				{
					"inputs": [],
					"name": "getNumberOfStudents",
					"outputs": [
						{
							"internalType": "uint256",
							"name": "",
							"type": "uint256"
						}
					],
					"stateMutability": "view",
					"type": "function"
				},
				{
					"inputs": [
						{
							"internalType": "uint256",
							"name": "",
							"type": "uint256"
						}
					],
					"name": "studentAddresses",
					"outputs": [
						{
							"internalType": "address",
							"name": "",
							"type": "address"
						}
					],
					"stateMutability": "view",
					"type": "function"
				},
				{
					"inputs": [
						{
							"internalType": "address",
							"name": "",
							"type": "address"
						}
					],
					"name": "students",
					"outputs": [
						{
							"internalType": "string",
							"name": "name",
							"type": "string"
						},
						{
							"internalType": "uint256",
							"name": "age",
							"type": "uint256"
						},
						{
							"internalType": "string",
							"name": "major",
							"type": "string"
						}
					],
					"stateMutability": "view",
					"type": "function"
				},
				{
					"inputs": [
						{
							"internalType": "string",
							"name": "name",
							"type": "string"
						},
						{
							"internalType": "uint256",
							"name": "age",
							"type": "uint256"
						},
						{
							"internalType": "string",
							"name": "major",
							"type": "string"
						}
					],
					"name": "updateStudent",
					"outputs": [],
					"stateMutability": "nonpayable",
					"type": "function"
				}
			],
			"devdoc": {
				"kind": "dev",
				"methods": {},
				"version": 1
			},
			"evm": {
				"assembly": "    /* \"multiplestudentrecord.sol\":70:1503  contract StudentRecord {... */\n  mstore(0x40, 0x80)\n  callvalue\n  dup1\n  iszero\n  tag_1\n  jumpi\n  0x00\n  dup1\n  revert\ntag_1:\n  pop\n  dataSize(sub_0)\n  dup1\n  dataOffset(sub_0)\n  0x00\n  codecopy\n  0x00\n  return\nstop\n\nsub_0: assembly {\n        /* \"multiplestudentrecord.sol\":70:1503  contract StudentRecord {... */\n      mstore(0x40, 0x80)\n      callvalue\n      dup1\n      iszero\n      tag_1\n      jumpi\n      0x00\n      dup1\n      revert\n    tag_1:\n      pop\n      jumpi(tag_2, lt(calldatasize, 0x04))\n      shr(0xe0, calldataload(0x00))\n      dup1\n      0x12232cb0\n      eq\n      tag_3\n      jumpi\n      dup1\n      0x945b7bd6\n      eq\n      tag_4\n      jumpi\n      dup1\n      0xa6c807a9\n      eq\n      tag_5\n      jumpi\n      dup1\n      0xb5ab682d\n      eq\n      tag_6\n      jumpi\n      dup1\n      0xed32a8a1\n      eq\n      tag_7\n      jumpi\n    tag_2:\n      0x00\n      dup1\n      revert\n        /* \"multiplestudentrecord.sol\":912:1382  function updateStudent(string memory name, uint256 age, string memory major) public {... */\n    tag_3:\n      tag_8\n      0x04\n      dup1\n      calldatasize\n      sub\n      dup2\n      add\n      swap1\n      tag_9\n      swap2\n      swap1\n      tag_10\n      jump\t// in\n    tag_9:\n      tag_11\n      jump\t// in\n    tag_8:\n      stop\n        /* \"multiplestudentrecord.sol\":1390:1500  function getNumberOfStudents() public view returns (uint256) {... */\n    tag_4:\n      tag_12\n      tag_13\n      jump\t// in\n    tag_12:\n      mload(0x40)\n      tag_14\n      swap2\n      swap1\n      tag_15\n      jump\t// in\n    tag_14:\n      mload(0x40)\n      dup1\n      swap2\n      sub\n      swap1\n      return\n        /* \"multiplestudentrecord.sol\":198:241  mapping(address => Student) public students */\n    tag_5:\n      tag_16\n      0x04\n      dup1\n      calldatasize\n      sub\n      dup2\n      add\n      swap1\n      tag_17\n      swap2\n      swap1\n      tag_18\n      jump\t// in\n    tag_17:\n      tag_19\n      jump\t// in\n    tag_16:\n      mload(0x40)\n      tag_20\n      swap4\n      swap3\n      swap2\n      swap1\n      tag_21\n      jump\t// in\n    tag_20:\n      mload(0x40)\n      dup1\n      swap2\n      sub\n      swap1\n      return\n        /* \"multiplestudentrecord.sol\":248:281  address[] public studentAddresses */\n    tag_6:\n      tag_22\n      0x04\n      dup1\n      calldatasize\n      sub\n      dup2\n      add\n      swap1\n      tag_23\n      swap2\n      swap1\n      tag_24\n      jump\t// in\n    tag_23:\n      tag_25\n      jump\t// in\n    tag_22:\n      mload(0x40)\n      tag_26\n      swap2\n      swap1\n      tag_27\n      jump\t// in\n    tag_26:\n      mload(0x40)\n      dup1\n      swap2\n      sub\n      swap1\n      return\n        /* \"multiplestudentrecord.sol\":488:904  function addStudent(string memory name, uint256 age, string memory major) public {... */\n    tag_7:\n      tag_28\n      0x04\n      dup1\n      calldatasize\n      sub\n      dup2\n      add\n      swap1\n      tag_29\n      swap2\n      swap1\n      tag_10\n      jump\t// in\n    tag_29:\n      tag_30\n      jump\t// in\n    tag_28:\n      stop\n        /* \"multiplestudentrecord.sol\":912:1382  function updateStudent(string memory name, uint256 age, string memory major) public {... */\n    tag_11:\n        /* \"multiplestudentrecord.sol\":1021:1022  0 */\n      0x00\n        /* \"multiplestudentrecord.sol\":1015:1018  age */\n      dup3\n        /* \"multiplestudentrecord.sol\":1015:1022  age > 0 */\n      gt\n        /* \"multiplestudentrecord.sol\":1007:1056  require(age > 0, \"Age must be greater than zero\") */\n      tag_32\n      jumpi\n      mload(0x40)\n      0x08c379a000000000000000000000000000000000000000000000000000000000\n      dup2\n      mstore\n      0x04\n      add\n      tag_33\n      swap1\n      tag_34\n      jump\t// in\n    tag_33:\n      mload(0x40)\n      dup1\n      swap2\n      sub\n      swap1\n      revert\n    tag_32:\n        /* \"multiplestudentrecord.sol\":1102:1103  0 */\n      0x00\n        /* \"multiplestudentrecord.sol\":1075:1083  students */\n      dup1\n        /* \"multiplestudentrecord.sol\":1075:1095  students[msg.sender] */\n      0x00\n        /* \"multiplestudentrecord.sol\":1084:1094  msg.sender */\n      caller\n        /* \"multiplestudentrecord.sol\":1075:1095  students[msg.sender] */\n      0xffffffffffffffffffffffffffffffffffffffff\n      and\n      0xffffffffffffffffffffffffffffffffffffffff\n      and\n      dup2\n      mstore\n      0x20\n      add\n      swap1\n      dup2\n      mstore\n      0x20\n      add\n      0x00\n      keccak256\n        /* \"multiplestudentrecord.sol\":1075:1099  students[msg.sender].age */\n      0x01\n      add\n      sload\n        /* \"multiplestudentrecord.sol\":1075:1103  students[msg.sender].age > 0 */\n      gt\n        /* \"multiplestudentrecord.sol\":1067:1135  require(students[msg.sender].age > 0, \"Student data does not exist\") */\n      tag_35\n      jumpi\n      mload(0x40)\n      0x08c379a000000000000000000000000000000000000000000000000000000000\n      dup2\n      mstore\n      0x04\n      add\n      tag_36\n      swap1\n      tag_37\n      jump\t// in\n    tag_36:\n      mload(0x40)\n      dup1\n      swap2\n      sub\n      swap1\n      revert\n    tag_35:\n        /* \"multiplestudentrecord.sol\":1148:1178  Student storage updatedStudent */\n      0x00\n        /* \"multiplestudentrecord.sol\":1181:1189  students */\n      dup1\n        /* \"multiplestudentrecord.sol\":1181:1201  students[msg.sender] */\n      0x00\n        /* \"multiplestudentrecord.sol\":1190:1200  msg.sender */\n      caller\n        /* \"multiplestudentrecord.sol\":1181:1201  students[msg.sender] */\n      0xffffffffffffffffffffffffffffffffffffffff\n      and\n      0xffffffffffffffffffffffffffffffffffffffff\n      and\n      dup2\n      mstore\n      0x20\n      add\n      swap1\n      dup2\n      mstore\n      0x20\n      add\n      0x00\n      keccak256\n        /* \"multiplestudentrecord.sol\":1148:1201  Student storage updatedStudent = students[msg.sender] */\n      swap1\n      pop\n        /* \"multiplestudentrecord.sol\":1234:1238  name */\n      dup4\n        /* \"multiplestudentrecord.sol\":1212:1226  updatedStudent */\n      dup2\n        /* \"multiplestudentrecord.sol\":1212:1231  updatedStudent.name */\n      0x00\n      add\n        /* \"multiplestudentrecord.sol\":1212:1238  updatedStudent.name = name */\n      swap1\n      dup2\n      tag_38\n      swap2\n      swap1\n      tag_39\n      jump\t// in\n    tag_38:\n      pop\n        /* \"multiplestudentrecord.sol\":1270:1273  age */\n      dup3\n        /* \"multiplestudentrecord.sol\":1249:1263  updatedStudent */\n      dup2\n        /* \"multiplestudentrecord.sol\":1249:1267  updatedStudent.age */\n      0x01\n      add\n        /* \"multiplestudentrecord.sol\":1249:1273  updatedStudent.age = age */\n      dup2\n      swap1\n      sstore\n      pop\n        /* \"multiplestudentrecord.sol\":1307:1312  major */\n      dup2\n        /* \"multiplestudentrecord.sol\":1284:1298  updatedStudent */\n      dup2\n        /* \"multiplestudentrecord.sol\":1284:1304  updatedStudent.major */\n      0x02\n      add\n        /* \"multiplestudentrecord.sol\":1284:1312  updatedStudent.major = major */\n      swap1\n      dup2\n      tag_40\n      swap2\n      swap1\n      tag_39\n      jump\t// in\n    tag_40:\n      pop\n        /* \"multiplestudentrecord.sol\":1345:1355  msg.sender */\n      caller\n        /* \"multiplestudentrecord.sol\":1330:1374  StudentUpdated(msg.sender, name, age, major) */\n      0xffffffffffffffffffffffffffffffffffffffff\n      and\n      0x4f12d6a1772884d123779fa51cb51a01a5d5fd2fb9ddaab239d0d568c1f3277f\n        /* \"multiplestudentrecord.sol\":1357:1361  name */\n      dup6\n        /* \"multiplestudentrecord.sol\":1363:1366  age */\n      dup6\n        /* \"multiplestudentrecord.sol\":1368:1373  major */\n      dup6\n        /* \"multiplestudentrecord.sol\":1330:1374  StudentUpdated(msg.sender, name, age, major) */\n      mload(0x40)\n      tag_41\n      swap4\n      swap3\n      swap2\n      swap1\n      tag_21\n      jump\t// in\n    tag_41:\n      mload(0x40)\n      dup1\n      swap2\n      sub\n      swap1\n      log2\n        /* \"multiplestudentrecord.sol\":996:1382  {... */\n      pop\n        /* \"multiplestudentrecord.sol\":912:1382  function updateStudent(string memory name, uint256 age, string memory major) public {... */\n      pop\n      pop\n      pop\n      jump\t// out\n        /* \"multiplestudentrecord.sol\":1390:1500  function getNumberOfStudents() public view returns (uint256) {... */\n    tag_13:\n        /* \"multiplestudentrecord.sol\":1442:1449  uint256 */\n      0x00\n        /* \"multiplestudentrecord.sol\":1469:1485  studentAddresses */\n      0x01\n        /* \"multiplestudentrecord.sol\":1469:1492  studentAddresses.length */\n      dup1\n      sload\n      swap1\n      pop\n        /* \"multiplestudentrecord.sol\":1462:1492  return studentAddresses.length */\n      swap1\n      pop\n        /* \"multiplestudentrecord.sol\":1390:1500  function getNumberOfStudents() public view returns (uint256) {... */\n      swap1\n      jump\t// out\n        /* \"multiplestudentrecord.sol\":198:241  mapping(address => Student) public students */\n    tag_19:\n      mstore(0x20, 0x00)\n      dup1\n      0x00\n      mstore\n      keccak256(0x00, 0x40)\n      0x00\n      swap2\n      pop\n      swap1\n      pop\n      dup1\n      0x00\n      add\n      dup1\n      sload\n      tag_43\n      swap1\n      tag_44\n      jump\t// in\n    tag_43:\n      dup1\n      0x1f\n      add\n      0x20\n      dup1\n      swap2\n      div\n      mul\n      0x20\n      add\n      mload(0x40)\n      swap1\n      dup2\n      add\n      0x40\n      mstore\n      dup1\n      swap3\n      swap2\n      swap1\n      dup2\n      dup2\n      mstore\n      0x20\n      add\n      dup3\n      dup1\n      sload\n      tag_45\n      swap1\n      tag_44\n      jump\t// in\n    tag_45:\n      dup1\n      iszero\n      tag_46\n      jumpi\n      dup1\n      0x1f\n      lt\n      tag_47\n      jumpi\n      0x0100\n      dup1\n      dup4\n      sload\n      div\n      mul\n      dup4\n      mstore\n      swap2\n      0x20\n      add\n      swap2\n      jump(tag_46)\n    tag_47:\n      dup3\n      add\n      swap2\n      swap1\n      0x00\n      mstore\n      keccak256(0x00, 0x20)\n      swap1\n    tag_48:\n      dup2\n      sload\n      dup2\n      mstore\n      swap1\n      0x01\n      add\n      swap1\n      0x20\n      add\n      dup1\n      dup4\n      gt\n      tag_48\n      jumpi\n      dup3\n      swap1\n      sub\n      0x1f\n      and\n      dup3\n      add\n      swap2\n    tag_46:\n      pop\n      pop\n      pop\n      pop\n      pop\n      swap1\n      dup1\n      0x01\n      add\n      sload\n      swap1\n      dup1\n      0x02\n      add\n      dup1\n      sload\n      tag_49\n      swap1\n      tag_44\n      jump\t// in\n    tag_49:\n      dup1\n      0x1f\n      add\n      0x20\n      dup1\n      swap2\n      div\n      mul\n      0x20\n      add\n      mload(0x40)\n      swap1\n      dup2\n      add\n      0x40\n      mstore\n      dup1\n      swap3\n      swap2\n      swap1\n      dup2\n      dup2\n      mstore\n      0x20\n      add\n      dup3\n      dup1\n      sload\n      tag_50\n      swap1\n      tag_44\n      jump\t// in\n    tag_50:\n      dup1\n      iszero\n      tag_51\n      jumpi\n      dup1\n      0x1f\n      lt\n      tag_52\n      jumpi\n      0x0100\n      dup1\n      dup4\n      sload\n      div\n      mul\n      dup4\n      mstore\n      swap2\n      0x20\n      add\n      swap2\n      jump(tag_51)\n    tag_52:\n      dup3\n      add\n      swap2\n      swap1\n      0x00\n      mstore\n      keccak256(0x00, 0x20)\n      swap1\n    tag_53:\n      dup2\n      sload\n      dup2\n      mstore\n      swap1\n      0x01\n      add\n      swap1\n      0x20\n      add\n      dup1\n      dup4\n      gt\n      tag_53\n      jumpi\n      dup3\n      swap1\n      sub\n      0x1f\n      and\n      dup3\n      add\n      swap2\n    tag_51:\n      pop\n      pop\n      pop\n      pop\n      pop\n      swap1\n      pop\n      dup4\n      jump\t// out\n        /* \"multiplestudentrecord.sol\":248:281  address[] public studentAddresses */\n    tag_25:\n      0x01\n      dup2\n      dup2\n      sload\n      dup2\n      lt\n      tag_54\n      jumpi\n      0x00\n      dup1\n      revert\n    tag_54:\n      swap1\n      0x00\n      mstore\n      keccak256(0x00, 0x20)\n      add\n      0x00\n      swap2\n      pop\n      sload\n      swap1\n      0x0100\n      exp\n      swap1\n      div\n      0xffffffffffffffffffffffffffffffffffffffff\n      and\n      dup2\n      jump\t// out\n        /* \"multiplestudentrecord.sol\":488:904  function addStudent(string memory name, uint256 age, string memory major) public {... */\n    tag_30:\n        /* \"multiplestudentrecord.sol\":594:595  0 */\n      0x00\n        /* \"multiplestudentrecord.sol\":588:591  age */\n      dup3\n        /* \"multiplestudentrecord.sol\":588:595  age > 0 */\n      gt\n        /* \"multiplestudentrecord.sol\":580:629  require(age > 0, \"Age must be greater than zero\") */\n      tag_57\n      jumpi\n      mload(0x40)\n      0x08c379a000000000000000000000000000000000000000000000000000000000\n      dup2\n      mstore\n      0x04\n      add\n      tag_58\n      swap1\n      tag_34\n      jump\t// in\n    tag_58:\n      mload(0x40)\n      dup1\n      swap2\n      sub\n      swap1\n      revert\n    tag_57:\n        /* \"multiplestudentrecord.sol\":642:668  Student storage newStudent */\n      0x00\n        /* \"multiplestudentrecord.sol\":671:679  students */\n      dup1\n        /* \"multiplestudentrecord.sol\":671:691  students[msg.sender] */\n      0x00\n        /* \"multiplestudentrecord.sol\":680:690  msg.sender */\n      caller\n        /* \"multiplestudentrecord.sol\":671:691  students[msg.sender] */\n      0xffffffffffffffffffffffffffffffffffffffff\n      and\n      0xffffffffffffffffffffffffffffffffffffffff\n      and\n      dup2\n      mstore\n      0x20\n      add\n      swap1\n      dup2\n      mstore\n      0x20\n      add\n      0x00\n      keccak256\n        /* \"multiplestudentrecord.sol\":642:691  Student storage newStudent = students[msg.sender] */\n      swap1\n      pop\n        /* \"multiplestudentrecord.sol\":720:724  name */\n      dup4\n        /* \"multiplestudentrecord.sol\":702:712  newStudent */\n      dup2\n        /* \"multiplestudentrecord.sol\":702:717  newStudent.name */\n      0x00\n      add\n        /* \"multiplestudentrecord.sol\":702:724  newStudent.name = name */\n      swap1\n      dup2\n      tag_59\n      swap2\n      swap1\n      tag_39\n      jump\t// in\n    tag_59:\n      pop\n        /* \"multiplestudentrecord.sol\":752:755  age */\n      dup3\n        /* \"multiplestudentrecord.sol\":735:745  newStudent */\n      dup2\n        /* \"multiplestudentrecord.sol\":735:749  newStudent.age */\n      0x01\n      add\n        /* \"multiplestudentrecord.sol\":735:755  newStudent.age = age */\n      dup2\n      swap1\n      sstore\n      pop\n        /* \"multiplestudentrecord.sol\":785:790  major */\n      dup2\n        /* \"multiplestudentrecord.sol\":766:776  newStudent */\n      dup2\n        /* \"multiplestudentrecord.sol\":766:782  newStudent.major */\n      0x02\n      add\n        /* \"multiplestudentrecord.sol\":766:790  newStudent.major = major */\n      swap1\n      dup2\n      tag_60\n      swap2\n      swap1\n      tag_39\n      jump\t// in\n    tag_60:\n      pop\n        /* \"multiplestudentrecord.sol\":803:819  studentAddresses */\n      0x01\n        /* \"multiplestudentrecord.sol\":825:835  msg.sender */\n      caller\n        /* \"multiplestudentrecord.sol\":803:836  studentAddresses.push(msg.sender) */\n      swap1\n      dup1\n      0x01\n      dup2\n      sload\n      add\n      dup1\n      dup3\n      sstore\n      dup1\n      swap2\n      pop\n      pop\n      0x01\n      swap1\n      sub\n      swap1\n      0x00\n      mstore\n      keccak256(0x00, 0x20)\n      add\n      0x00\n      swap1\n      swap2\n      swap1\n      swap2\n      swap1\n      swap2\n      0x0100\n      exp\n      dup2\n      sload\n      dup2\n      0xffffffffffffffffffffffffffffffffffffffff\n      mul\n      not\n      and\n      swap1\n      dup4\n      0xffffffffffffffffffffffffffffffffffffffff\n      and\n      mul\n      or\n      swap1\n      sstore\n      pop\n        /* \"multiplestudentrecord.sol\":867:877  msg.sender */\n      caller\n        /* \"multiplestudentrecord.sol\":854:896  StudentAdded(msg.sender, name, age, major) */\n      0xffffffffffffffffffffffffffffffffffffffff\n      and\n      0xb700696102ea0451dd02efc3bb9e9be0c2fb39813035063fbb3483104037463d\n        /* \"multiplestudentrecord.sol\":879:883  name */\n      dup6\n        /* \"multiplestudentrecord.sol\":885:888  age */\n      dup6\n        /* \"multiplestudentrecord.sol\":890:895  major */\n      dup6\n        /* \"multiplestudentrecord.sol\":854:896  StudentAdded(msg.sender, name, age, major) */\n      mload(0x40)\n      tag_62\n      swap4\n      swap3\n      swap2\n      swap1\n      tag_21\n      jump\t// in\n    tag_62:\n      mload(0x40)\n      dup1\n      swap2\n      sub\n      swap1\n      log2\n        /* \"multiplestudentrecord.sol\":569:904  {... */\n      pop\n        /* \"multiplestudentrecord.sol\":488:904  function addStudent(string memory name, uint256 age, string memory major) public {... */\n      pop\n      pop\n      pop\n      jump\t// out\n        /* \"#utility.yul\":7:82   */\n    tag_63:\n        /* \"#utility.yul\":40:46   */\n      0x00\n        /* \"#utility.yul\":73:75   */\n      0x40\n        /* \"#utility.yul\":67:76   */\n      mload\n        /* \"#utility.yul\":57:76   */\n      swap1\n      pop\n        /* \"#utility.yul\":7:82   */\n      swap1\n      jump\t// out\n        /* \"#utility.yul\":88:205   */\n    tag_64:\n        /* \"#utility.yul\":197:198   */\n      0x00\n        /* \"#utility.yul\":194:195   */\n      dup1\n        /* \"#utility.yul\":187:199   */\n      revert\n        /* \"#utility.yul\":211:328   */\n    tag_65:\n        /* \"#utility.yul\":320:321   */\n      0x00\n        /* \"#utility.yul\":317:318   */\n      dup1\n        /* \"#utility.yul\":310:322   */\n      revert\n        /* \"#utility.yul\":334:451   */\n    tag_66:\n        /* \"#utility.yul\":443:444   */\n      0x00\n        /* \"#utility.yul\":440:441   */\n      dup1\n        /* \"#utility.yul\":433:445   */\n      revert\n        /* \"#utility.yul\":457:574   */\n    tag_67:\n        /* \"#utility.yul\":566:567   */\n      0x00\n        /* \"#utility.yul\":563:564   */\n      dup1\n        /* \"#utility.yul\":556:568   */\n      revert\n        /* \"#utility.yul\":580:682   */\n    tag_68:\n        /* \"#utility.yul\":621:627   */\n      0x00\n        /* \"#utility.yul\":672:674   */\n      0x1f\n        /* \"#utility.yul\":668:675   */\n      not\n        /* \"#utility.yul\":663:665   */\n      0x1f\n        /* \"#utility.yul\":656:661   */\n      dup4\n        /* \"#utility.yul\":652:666   */\n      add\n        /* \"#utility.yul\":648:676   */\n      and\n        /* \"#utility.yul\":638:676   */\n      swap1\n      pop\n        /* \"#utility.yul\":580:682   */\n      swap2\n      swap1\n      pop\n      jump\t// out\n        /* \"#utility.yul\":688:868   */\n    tag_69:\n        /* \"#utility.yul\":736:813   */\n      0x4e487b7100000000000000000000000000000000000000000000000000000000\n        /* \"#utility.yul\":733:734   */\n      0x00\n        /* \"#utility.yul\":726:814   */\n      mstore\n        /* \"#utility.yul\":833:837   */\n      0x41\n        /* \"#utility.yul\":830:831   */\n      0x04\n        /* \"#utility.yul\":823:838   */\n      mstore\n        /* \"#utility.yul\":857:861   */\n      0x24\n        /* \"#utility.yul\":854:855   */\n      0x00\n        /* \"#utility.yul\":847:862   */\n      revert\n        /* \"#utility.yul\":874:1155   */\n    tag_70:\n        /* \"#utility.yul\":957:984   */\n      tag_118\n        /* \"#utility.yul\":979:983   */\n      dup3\n        /* \"#utility.yul\":957:984   */\n      tag_68\n      jump\t// in\n    tag_118:\n        /* \"#utility.yul\":949:955   */\n      dup2\n        /* \"#utility.yul\":945:985   */\n      add\n        /* \"#utility.yul\":1087:1093   */\n      dup2\n        /* \"#utility.yul\":1075:1085   */\n      dup2\n        /* \"#utility.yul\":1072:1094   */\n      lt\n        /* \"#utility.yul\":1051:1069   */\n      0xffffffffffffffff\n        /* \"#utility.yul\":1039:1049   */\n      dup3\n        /* \"#utility.yul\":1036:1070   */\n      gt\n        /* \"#utility.yul\":1033:1095   */\n      or\n        /* \"#utility.yul\":1030:1118   */\n      iszero\n      tag_119\n      jumpi\n        /* \"#utility.yul\":1098:1116   */\n      tag_120\n      tag_69\n      jump\t// in\n    tag_120:\n        /* \"#utility.yul\":1030:1118   */\n    tag_119:\n        /* \"#utility.yul\":1138:1148   */\n      dup1\n        /* \"#utility.yul\":1134:1136   */\n      0x40\n        /* \"#utility.yul\":1127:1149   */\n      mstore\n        /* \"#utility.yul\":917:1155   */\n      pop\n        /* \"#utility.yul\":874:1155   */\n      pop\n      pop\n      jump\t// out\n        /* \"#utility.yul\":1161:1290   */\n    tag_71:\n        /* \"#utility.yul\":1195:1201   */\n      0x00\n        /* \"#utility.yul\":1222:1242   */\n      tag_122\n      tag_63\n      jump\t// in\n    tag_122:\n        /* \"#utility.yul\":1212:1242   */\n      swap1\n      pop\n        /* \"#utility.yul\":1251:1284   */\n      tag_123\n        /* \"#utility.yul\":1279:1283   */\n      dup3\n        /* \"#utility.yul\":1271:1277   */\n      dup3\n        /* \"#utility.yul\":1251:1284   */\n      tag_70\n      jump\t// in\n    tag_123:\n        /* \"#utility.yul\":1161:1290   */\n      swap2\n      swap1\n      pop\n      jump\t// out\n        /* \"#utility.yul\":1296:1604   */\n    tag_72:\n        /* \"#utility.yul\":1358:1362   */\n      0x00\n        /* \"#utility.yul\":1448:1466   */\n      0xffffffffffffffff\n        /* \"#utility.yul\":1440:1446   */\n      dup3\n        /* \"#utility.yul\":1437:1467   */\n      gt\n        /* \"#utility.yul\":1434:1490   */\n      iszero\n      tag_125\n      jumpi\n        /* \"#utility.yul\":1470:1488   */\n      tag_126\n      tag_69\n      jump\t// in\n    tag_126:\n        /* \"#utility.yul\":1434:1490   */\n    tag_125:\n        /* \"#utility.yul\":1508:1537   */\n      tag_127\n        /* \"#utility.yul\":1530:1536   */\n      dup3\n        /* \"#utility.yul\":1508:1537   */\n      tag_68\n      jump\t// in\n    tag_127:\n        /* \"#utility.yul\":1500:1537   */\n      swap1\n      pop\n        /* \"#utility.yul\":1592:1596   */\n      0x20\n        /* \"#utility.yul\":1586:1590   */\n      dup2\n        /* \"#utility.yul\":1582:1597   */\n      add\n        /* \"#utility.yul\":1574:1597   */\n      swap1\n      pop\n        /* \"#utility.yul\":1296:1604   */\n      swap2\n      swap1\n      pop\n      jump\t// out\n        /* \"#utility.yul\":1610:1756   */\n    tag_73:\n        /* \"#utility.yul\":1707:1713   */\n      dup3\n        /* \"#utility.yul\":1702:1705   */\n      dup2\n        /* \"#utility.yul\":1697:1700   */\n      dup4\n        /* \"#utility.yul\":1684:1714   */\n      calldatacopy\n        /* \"#utility.yul\":1748:1749   */\n      0x00\n        /* \"#utility.yul\":1739:1745   */\n      dup4\n        /* \"#utility.yul\":1734:1737   */\n      dup4\n        /* \"#utility.yul\":1730:1746   */\n      add\n        /* \"#utility.yul\":1723:1750   */\n      mstore\n        /* \"#utility.yul\":1610:1756   */\n      pop\n      pop\n      pop\n      jump\t// out\n        /* \"#utility.yul\":1762:2187   */\n    tag_74:\n        /* \"#utility.yul\":1840:1845   */\n      0x00\n        /* \"#utility.yul\":1865:1931   */\n      tag_130\n        /* \"#utility.yul\":1881:1930   */\n      tag_131\n        /* \"#utility.yul\":1923:1929   */\n      dup5\n        /* \"#utility.yul\":1881:1930   */\n      tag_72\n      jump\t// in\n    tag_131:\n        /* \"#utility.yul\":1865:1931   */\n      tag_71\n      jump\t// in\n    tag_130:\n        /* \"#utility.yul\":1856:1931   */\n      swap1\n      pop\n        /* \"#utility.yul\":1954:1960   */\n      dup3\n        /* \"#utility.yul\":1947:1952   */\n      dup2\n        /* \"#utility.yul\":1940:1961   */\n      mstore\n        /* \"#utility.yul\":1992:1996   */\n      0x20\n        /* \"#utility.yul\":1985:1990   */\n      dup2\n        /* \"#utility.yul\":1981:1997   */\n      add\n        /* \"#utility.yul\":2030:2033   */\n      dup5\n        /* \"#utility.yul\":2021:2027   */\n      dup5\n        /* \"#utility.yul\":2016:2019   */\n      dup5\n        /* \"#utility.yul\":2012:2028   */\n      add\n        /* \"#utility.yul\":2009:2034   */\n      gt\n        /* \"#utility.yul\":2006:2118   */\n      iszero\n      tag_132\n      jumpi\n        /* \"#utility.yul\":2037:2116   */\n      tag_133\n      tag_67\n      jump\t// in\n    tag_133:\n        /* \"#utility.yul\":2006:2118   */\n    tag_132:\n        /* \"#utility.yul\":2127:2181   */\n      tag_134\n        /* \"#utility.yul\":2174:2180   */\n      dup5\n        /* \"#utility.yul\":2169:2172   */\n      dup3\n        /* \"#utility.yul\":2164:2167   */\n      dup6\n        /* \"#utility.yul\":2127:2181   */\n      tag_73\n      jump\t// in\n    tag_134:\n        /* \"#utility.yul\":1846:2187   */\n      pop\n        /* \"#utility.yul\":1762:2187   */\n      swap4\n      swap3\n      pop\n      pop\n      pop\n      jump\t// out\n        /* \"#utility.yul\":2207:2547   */\n    tag_75:\n        /* \"#utility.yul\":2263:2268   */\n      0x00\n        /* \"#utility.yul\":2312:2315   */\n      dup3\n        /* \"#utility.yul\":2305:2309   */\n      0x1f\n        /* \"#utility.yul\":2297:2303   */\n      dup4\n        /* \"#utility.yul\":2293:2310   */\n      add\n        /* \"#utility.yul\":2289:2316   */\n      slt\n        /* \"#utility.yul\":2279:2401   */\n      tag_136\n      jumpi\n        /* \"#utility.yul\":2320:2399   */\n      tag_137\n      tag_66\n      jump\t// in\n    tag_137:\n        /* \"#utility.yul\":2279:2401   */\n    tag_136:\n        /* \"#utility.yul\":2437:2443   */\n      dup2\n        /* \"#utility.yul\":2424:2444   */\n      calldataload\n        /* \"#utility.yul\":2462:2541   */\n      tag_138\n        /* \"#utility.yul\":2537:2540   */\n      dup5\n        /* \"#utility.yul\":2529:2535   */\n      dup3\n        /* \"#utility.yul\":2522:2526   */\n      0x20\n        /* \"#utility.yul\":2514:2520   */\n      dup7\n        /* \"#utility.yul\":2510:2527   */\n      add\n        /* \"#utility.yul\":2462:2541   */\n      tag_74\n      jump\t// in\n    tag_138:\n        /* \"#utility.yul\":2453:2541   */\n      swap2\n      pop\n        /* \"#utility.yul\":2269:2547   */\n      pop\n        /* \"#utility.yul\":2207:2547   */\n      swap3\n      swap2\n      pop\n      pop\n      jump\t// out\n        /* \"#utility.yul\":2553:2630   */\n    tag_76:\n        /* \"#utility.yul\":2590:2597   */\n      0x00\n        /* \"#utility.yul\":2619:2624   */\n      dup2\n        /* \"#utility.yul\":2608:2624   */\n      swap1\n      pop\n        /* \"#utility.yul\":2553:2630   */\n      swap2\n      swap1\n      pop\n      jump\t// out\n        /* \"#utility.yul\":2636:2758   */\n    tag_77:\n        /* \"#utility.yul\":2709:2733   */\n      tag_141\n        /* \"#utility.yul\":2727:2732   */\n      dup2\n        /* \"#utility.yul\":2709:2733   */\n      tag_76\n      jump\t// in\n    tag_141:\n        /* \"#utility.yul\":2702:2707   */\n      dup2\n        /* \"#utility.yul\":2699:2734   */\n      eq\n        /* \"#utility.yul\":2689:2752   */\n      tag_142\n      jumpi\n        /* \"#utility.yul\":2748:2749   */\n      0x00\n        /* \"#utility.yul\":2745:2746   */\n      dup1\n        /* \"#utility.yul\":2738:2750   */\n      revert\n        /* \"#utility.yul\":2689:2752   */\n    tag_142:\n        /* \"#utility.yul\":2636:2758   */\n      pop\n      jump\t// out\n        /* \"#utility.yul\":2764:2903   */\n    tag_78:\n        /* \"#utility.yul\":2810:2815   */\n      0x00\n        /* \"#utility.yul\":2848:2854   */\n      dup2\n        /* \"#utility.yul\":2835:2855   */\n      calldataload\n        /* \"#utility.yul\":2826:2855   */\n      swap1\n      pop\n        /* \"#utility.yul\":2864:2897   */\n      tag_144\n        /* \"#utility.yul\":2891:2896   */\n      dup2\n        /* \"#utility.yul\":2864:2897   */\n      tag_77\n      jump\t// in\n    tag_144:\n        /* \"#utility.yul\":2764:2903   */\n      swap3\n      swap2\n      pop\n      pop\n      jump\t// out\n        /* \"#utility.yul\":2909:3888   */\n    tag_10:\n        /* \"#utility.yul\":3006:3012   */\n      0x00\n        /* \"#utility.yul\":3014:3020   */\n      dup1\n        /* \"#utility.yul\":3022:3028   */\n      0x00\n        /* \"#utility.yul\":3071:3073   */\n      0x60\n        /* \"#utility.yul\":3059:3068   */\n      dup5\n        /* \"#utility.yul\":3050:3057   */\n      dup7\n        /* \"#utility.yul\":3046:3069   */\n      sub\n        /* \"#utility.yul\":3042:3074   */\n      slt\n        /* \"#utility.yul\":3039:3158   */\n      iszero\n      tag_146\n      jumpi\n        /* \"#utility.yul\":3077:3156   */\n      tag_147\n      tag_64\n      jump\t// in\n    tag_147:\n        /* \"#utility.yul\":3039:3158   */\n    tag_146:\n        /* \"#utility.yul\":3225:3226   */\n      0x00\n        /* \"#utility.yul\":3214:3223   */\n      dup5\n        /* \"#utility.yul\":3210:3227   */\n      add\n        /* \"#utility.yul\":3197:3228   */\n      calldataload\n        /* \"#utility.yul\":3255:3273   */\n      0xffffffffffffffff\n        /* \"#utility.yul\":3247:3253   */\n      dup2\n        /* \"#utility.yul\":3244:3274   */\n      gt\n        /* \"#utility.yul\":3241:3358   */\n      iszero\n      tag_148\n      jumpi\n        /* \"#utility.yul\":3277:3356   */\n      tag_149\n      tag_65\n      jump\t// in\n    tag_149:\n        /* \"#utility.yul\":3241:3358   */\n    tag_148:\n        /* \"#utility.yul\":3382:3445   */\n      tag_150\n        /* \"#utility.yul\":3437:3444   */\n      dup7\n        /* \"#utility.yul\":3428:3434   */\n      dup3\n        /* \"#utility.yul\":3417:3426   */\n      dup8\n        /* \"#utility.yul\":3413:3435   */\n      add\n        /* \"#utility.yul\":3382:3445   */\n      tag_75\n      jump\t// in\n    tag_150:\n        /* \"#utility.yul\":3372:3445   */\n      swap4\n      pop\n        /* \"#utility.yul\":3168:3455   */\n      pop\n        /* \"#utility.yul\":3494:3496   */\n      0x20\n        /* \"#utility.yul\":3520:3573   */\n      tag_151\n        /* \"#utility.yul\":3565:3572   */\n      dup7\n        /* \"#utility.yul\":3556:3562   */\n      dup3\n        /* \"#utility.yul\":3545:3554   */\n      dup8\n        /* \"#utility.yul\":3541:3563   */\n      add\n        /* \"#utility.yul\":3520:3573   */\n      tag_78\n      jump\t// in\n    tag_151:\n        /* \"#utility.yul\":3510:3573   */\n      swap3\n      pop\n        /* \"#utility.yul\":3465:3583   */\n      pop\n        /* \"#utility.yul\":3650:3652   */\n      0x40\n        /* \"#utility.yul\":3639:3648   */\n      dup5\n        /* \"#utility.yul\":3635:3653   */\n      add\n        /* \"#utility.yul\":3622:3654   */\n      calldataload\n        /* \"#utility.yul\":3681:3699   */\n      0xffffffffffffffff\n        /* \"#utility.yul\":3673:3679   */\n      dup2\n        /* \"#utility.yul\":3670:3700   */\n      gt\n        /* \"#utility.yul\":3667:3784   */\n      iszero\n      tag_152\n      jumpi\n        /* \"#utility.yul\":3703:3782   */\n      tag_153\n      tag_65\n      jump\t// in\n    tag_153:\n        /* \"#utility.yul\":3667:3784   */\n    tag_152:\n        /* \"#utility.yul\":3808:3871   */\n      tag_154\n        /* \"#utility.yul\":3863:3870   */\n      dup7\n        /* \"#utility.yul\":3854:3860   */\n      dup3\n        /* \"#utility.yul\":3843:3852   */\n      dup8\n        /* \"#utility.yul\":3839:3861   */\n      add\n        /* \"#utility.yul\":3808:3871   */\n      tag_75\n      jump\t// in\n    tag_154:\n        /* \"#utility.yul\":3798:3871   */\n      swap2\n      pop\n        /* \"#utility.yul\":3593:3881   */\n      pop\n        /* \"#utility.yul\":2909:3888   */\n      swap3\n      pop\n      swap3\n      pop\n      swap3\n      jump\t// out\n        /* \"#utility.yul\":3894:4012   */\n    tag_79:\n        /* \"#utility.yul\":3981:4005   */\n      tag_156\n        /* \"#utility.yul\":3999:4004   */\n      dup2\n        /* \"#utility.yul\":3981:4005   */\n      tag_76\n      jump\t// in\n    tag_156:\n        /* \"#utility.yul\":3976:3979   */\n      dup3\n        /* \"#utility.yul\":3969:4006   */\n      mstore\n        /* \"#utility.yul\":3894:4012   */\n      pop\n      pop\n      jump\t// out\n        /* \"#utility.yul\":4018:4240   */\n    tag_15:\n        /* \"#utility.yul\":4111:4115   */\n      0x00\n        /* \"#utility.yul\":4149:4151   */\n      0x20\n        /* \"#utility.yul\":4138:4147   */\n      dup3\n        /* \"#utility.yul\":4134:4152   */\n      add\n        /* \"#utility.yul\":4126:4152   */\n      swap1\n      pop\n        /* \"#utility.yul\":4162:4233   */\n      tag_158\n        /* \"#utility.yul\":4230:4231   */\n      0x00\n        /* \"#utility.yul\":4219:4228   */\n      dup4\n        /* \"#utility.yul\":4215:4232   */\n      add\n        /* \"#utility.yul\":4206:4212   */\n      dup5\n        /* \"#utility.yul\":4162:4233   */\n      tag_79\n      jump\t// in\n    tag_158:\n        /* \"#utility.yul\":4018:4240   */\n      swap3\n      swap2\n      pop\n      pop\n      jump\t// out\n        /* \"#utility.yul\":4246:4372   */\n    tag_80:\n        /* \"#utility.yul\":4283:4290   */\n      0x00\n        /* \"#utility.yul\":4323:4365   */\n      0xffffffffffffffffffffffffffffffffffffffff\n        /* \"#utility.yul\":4316:4321   */\n      dup3\n        /* \"#utility.yul\":4312:4366   */\n      and\n        /* \"#utility.yul\":4301:4366   */\n      swap1\n      pop\n        /* \"#utility.yul\":4246:4372   */\n      swap2\n      swap1\n      pop\n      jump\t// out\n        /* \"#utility.yul\":4378:4474   */\n    tag_81:\n        /* \"#utility.yul\":4415:4422   */\n      0x00\n        /* \"#utility.yul\":4444:4468   */\n      tag_161\n        /* \"#utility.yul\":4462:4467   */\n      dup3\n        /* \"#utility.yul\":4444:4468   */\n      tag_80\n      jump\t// in\n    tag_161:\n        /* \"#utility.yul\":4433:4468   */\n      swap1\n      pop\n        /* \"#utility.yul\":4378:4474   */\n      swap2\n      swap1\n      pop\n      jump\t// out\n        /* \"#utility.yul\":4480:4602   */\n    tag_82:\n        /* \"#utility.yul\":4553:4577   */\n      tag_163\n        /* \"#utility.yul\":4571:4576   */\n      dup2\n        /* \"#utility.yul\":4553:4577   */\n      tag_81\n      jump\t// in\n    tag_163:\n        /* \"#utility.yul\":4546:4551   */\n      dup2\n        /* \"#utility.yul\":4543:4578   */\n      eq\n        /* \"#utility.yul\":4533:4596   */\n      tag_164\n      jumpi\n        /* \"#utility.yul\":4592:4593   */\n      0x00\n        /* \"#utility.yul\":4589:4590   */\n      dup1\n        /* \"#utility.yul\":4582:4594   */\n      revert\n        /* \"#utility.yul\":4533:4596   */\n    tag_164:\n        /* \"#utility.yul\":4480:4602   */\n      pop\n      jump\t// out\n        /* \"#utility.yul\":4608:4747   */\n    tag_83:\n        /* \"#utility.yul\":4654:4659   */\n      0x00\n        /* \"#utility.yul\":4692:4698   */\n      dup2\n        /* \"#utility.yul\":4679:4699   */\n      calldataload\n        /* \"#utility.yul\":4670:4699   */\n      swap1\n      pop\n        /* \"#utility.yul\":4708:4741   */\n      tag_166\n        /* \"#utility.yul\":4735:4740   */\n      dup2\n        /* \"#utility.yul\":4708:4741   */\n      tag_82\n      jump\t// in\n    tag_166:\n        /* \"#utility.yul\":4608:4747   */\n      swap3\n      swap2\n      pop\n      pop\n      jump\t// out\n        /* \"#utility.yul\":4753:5082   */\n    tag_18:\n        /* \"#utility.yul\":4812:4818   */\n      0x00\n        /* \"#utility.yul\":4861:4863   */\n      0x20\n        /* \"#utility.yul\":4849:4858   */\n      dup3\n        /* \"#utility.yul\":4840:4847   */\n      dup5\n        /* \"#utility.yul\":4836:4859   */\n      sub\n        /* \"#utility.yul\":4832:4864   */\n      slt\n        /* \"#utility.yul\":4829:4948   */\n      iszero\n      tag_168\n      jumpi\n        /* \"#utility.yul\":4867:4946   */\n      tag_169\n      tag_64\n      jump\t// in\n    tag_169:\n        /* \"#utility.yul\":4829:4948   */\n    tag_168:\n        /* \"#utility.yul\":4987:4988   */\n      0x00\n        /* \"#utility.yul\":5012:5065   */\n      tag_170\n        /* \"#utility.yul\":5057:5064   */\n      dup5\n        /* \"#utility.yul\":5048:5054   */\n      dup3\n        /* \"#utility.yul\":5037:5046   */\n      dup6\n        /* \"#utility.yul\":5033:5055   */\n      add\n        /* \"#utility.yul\":5012:5065   */\n      tag_83\n      jump\t// in\n    tag_170:\n        /* \"#utility.yul\":5002:5065   */\n      swap2\n      pop\n        /* \"#utility.yul\":4958:5075   */\n      pop\n        /* \"#utility.yul\":4753:5082   */\n      swap3\n      swap2\n      pop\n      pop\n      jump\t// out\n        /* \"#utility.yul\":5088:5187   */\n    tag_84:\n        /* \"#utility.yul\":5140:5146   */\n      0x00\n        /* \"#utility.yul\":5174:5179   */\n      dup2\n        /* \"#utility.yul\":5168:5180   */\n      mload\n        /* \"#utility.yul\":5158:5180   */\n      swap1\n      pop\n        /* \"#utility.yul\":5088:5187   */\n      swap2\n      swap1\n      pop\n      jump\t// out\n        /* \"#utility.yul\":5193:5362   */\n    tag_85:\n        /* \"#utility.yul\":5277:5288   */\n      0x00\n        /* \"#utility.yul\":5311:5317   */\n      dup3\n        /* \"#utility.yul\":5306:5309   */\n      dup3\n        /* \"#utility.yul\":5299:5318   */\n      mstore\n        /* \"#utility.yul\":5351:5355   */\n      0x20\n        /* \"#utility.yul\":5346:5349   */\n      dup3\n        /* \"#utility.yul\":5342:5356   */\n      add\n        /* \"#utility.yul\":5327:5356   */\n      swap1\n      pop\n        /* \"#utility.yul\":5193:5362   */\n      swap3\n      swap2\n      pop\n      pop\n      jump\t// out\n        /* \"#utility.yul\":5368:5614   */\n    tag_86:\n        /* \"#utility.yul\":5449:5450   */\n      0x00\n        /* \"#utility.yul\":5459:5572   */\n    tag_174:\n        /* \"#utility.yul\":5473:5479   */\n      dup4\n        /* \"#utility.yul\":5470:5471   */\n      dup2\n        /* \"#utility.yul\":5467:5480   */\n      lt\n        /* \"#utility.yul\":5459:5572   */\n      iszero\n      tag_176\n      jumpi\n        /* \"#utility.yul\":5558:5559   */\n      dup1\n        /* \"#utility.yul\":5553:5556   */\n      dup3\n        /* \"#utility.yul\":5549:5560   */\n      add\n        /* \"#utility.yul\":5543:5561   */\n      mload\n        /* \"#utility.yul\":5539:5540   */\n      dup2\n        /* \"#utility.yul\":5534:5537   */\n      dup5\n        /* \"#utility.yul\":5530:5541   */\n      add\n        /* \"#utility.yul\":5523:5562   */\n      mstore\n        /* \"#utility.yul\":5495:5497   */\n      0x20\n        /* \"#utility.yul\":5492:5493   */\n      dup2\n        /* \"#utility.yul\":5488:5498   */\n      add\n        /* \"#utility.yul\":5483:5498   */\n      swap1\n      pop\n        /* \"#utility.yul\":5459:5572   */\n      jump(tag_174)\n    tag_176:\n        /* \"#utility.yul\":5606:5607   */\n      0x00\n        /* \"#utility.yul\":5597:5603   */\n      dup5\n        /* \"#utility.yul\":5592:5595   */\n      dup5\n        /* \"#utility.yul\":5588:5604   */\n      add\n        /* \"#utility.yul\":5581:5608   */\n      mstore\n        /* \"#utility.yul\":5430:5614   */\n      pop\n        /* \"#utility.yul\":5368:5614   */\n      pop\n      pop\n      pop\n      jump\t// out\n        /* \"#utility.yul\":5620:5997   */\n    tag_87:\n        /* \"#utility.yul\":5708:5711   */\n      0x00\n        /* \"#utility.yul\":5736:5775   */\n      tag_178\n        /* \"#utility.yul\":5769:5774   */\n      dup3\n        /* \"#utility.yul\":5736:5775   */\n      tag_84\n      jump\t// in\n    tag_178:\n        /* \"#utility.yul\":5791:5862   */\n      tag_179\n        /* \"#utility.yul\":5855:5861   */\n      dup2\n        /* \"#utility.yul\":5850:5853   */\n      dup6\n        /* \"#utility.yul\":5791:5862   */\n      tag_85\n      jump\t// in\n    tag_179:\n        /* \"#utility.yul\":5784:5862   */\n      swap4\n      pop\n        /* \"#utility.yul\":5871:5936   */\n      tag_180\n        /* \"#utility.yul\":5929:5935   */\n      dup2\n        /* \"#utility.yul\":5924:5927   */\n      dup6\n        /* \"#utility.yul\":5917:5921   */\n      0x20\n        /* \"#utility.yul\":5910:5915   */\n      dup7\n        /* \"#utility.yul\":5906:5922   */\n      add\n        /* \"#utility.yul\":5871:5936   */\n      tag_86\n      jump\t// in\n    tag_180:\n        /* \"#utility.yul\":5961:5990   */\n      tag_181\n        /* \"#utility.yul\":5983:5989   */\n      dup2\n        /* \"#utility.yul\":5961:5990   */\n      tag_68\n      jump\t// in\n    tag_181:\n        /* \"#utility.yul\":5956:5959   */\n      dup5\n        /* \"#utility.yul\":5952:5991   */\n      add\n        /* \"#utility.yul\":5945:5991   */\n      swap2\n      pop\n        /* \"#utility.yul\":5712:5997   */\n      pop\n        /* \"#utility.yul\":5620:5997   */\n      swap3\n      swap2\n      pop\n      pop\n      jump\t// out\n        /* \"#utility.yul\":6003:6627   */\n    tag_21:\n        /* \"#utility.yul\":6192:6196   */\n      0x00\n        /* \"#utility.yul\":6230:6232   */\n      0x60\n        /* \"#utility.yul\":6219:6228   */\n      dup3\n        /* \"#utility.yul\":6215:6233   */\n      add\n        /* \"#utility.yul\":6207:6233   */\n      swap1\n      pop\n        /* \"#utility.yul\":6279:6288   */\n      dup2\n        /* \"#utility.yul\":6273:6277   */\n      dup2\n        /* \"#utility.yul\":6269:6289   */\n      sub\n        /* \"#utility.yul\":6265:6266   */\n      0x00\n        /* \"#utility.yul\":6254:6263   */\n      dup4\n        /* \"#utility.yul\":6250:6267   */\n      add\n        /* \"#utility.yul\":6243:6290   */\n      mstore\n        /* \"#utility.yul\":6307:6385   */\n      tag_183\n        /* \"#utility.yul\":6380:6384   */\n      dup2\n        /* \"#utility.yul\":6371:6377   */\n      dup7\n        /* \"#utility.yul\":6307:6385   */\n      tag_87\n      jump\t// in\n    tag_183:\n        /* \"#utility.yul\":6299:6385   */\n      swap1\n      pop\n        /* \"#utility.yul\":6395:6467   */\n      tag_184\n        /* \"#utility.yul\":6463:6465   */\n      0x20\n        /* \"#utility.yul\":6452:6461   */\n      dup4\n        /* \"#utility.yul\":6448:6466   */\n      add\n        /* \"#utility.yul\":6439:6445   */\n      dup6\n        /* \"#utility.yul\":6395:6467   */\n      tag_79\n      jump\t// in\n    tag_184:\n        /* \"#utility.yul\":6514:6523   */\n      dup2\n        /* \"#utility.yul\":6508:6512   */\n      dup2\n        /* \"#utility.yul\":6504:6524   */\n      sub\n        /* \"#utility.yul\":6499:6501   */\n      0x40\n        /* \"#utility.yul\":6488:6497   */\n      dup4\n        /* \"#utility.yul\":6484:6502   */\n      add\n        /* \"#utility.yul\":6477:6525   */\n      mstore\n        /* \"#utility.yul\":6542:6620   */\n      tag_185\n        /* \"#utility.yul\":6615:6619   */\n      dup2\n        /* \"#utility.yul\":6606:6612   */\n      dup5\n        /* \"#utility.yul\":6542:6620   */\n      tag_87\n      jump\t// in\n    tag_185:\n        /* \"#utility.yul\":6534:6620   */\n      swap1\n      pop\n        /* \"#utility.yul\":6003:6627   */\n      swap5\n      swap4\n      pop\n      pop\n      pop\n      pop\n      jump\t// out\n        /* \"#utility.yul\":6633:6962   */\n    tag_24:\n        /* \"#utility.yul\":6692:6698   */\n      0x00\n        /* \"#utility.yul\":6741:6743   */\n      0x20\n        /* \"#utility.yul\":6729:6738   */\n      dup3\n        /* \"#utility.yul\":6720:6727   */\n      dup5\n        /* \"#utility.yul\":6716:6739   */\n      sub\n        /* \"#utility.yul\":6712:6744   */\n      slt\n        /* \"#utility.yul\":6709:6828   */\n      iszero\n      tag_187\n      jumpi\n        /* \"#utility.yul\":6747:6826   */\n      tag_188\n      tag_64\n      jump\t// in\n    tag_188:\n        /* \"#utility.yul\":6709:6828   */\n    tag_187:\n        /* \"#utility.yul\":6867:6868   */\n      0x00\n        /* \"#utility.yul\":6892:6945   */\n      tag_189\n        /* \"#utility.yul\":6937:6944   */\n      dup5\n        /* \"#utility.yul\":6928:6934   */\n      dup3\n        /* \"#utility.yul\":6917:6926   */\n      dup6\n        /* \"#utility.yul\":6913:6935   */\n      add\n        /* \"#utility.yul\":6892:6945   */\n      tag_78\n      jump\t// in\n    tag_189:\n        /* \"#utility.yul\":6882:6945   */\n      swap2\n      pop\n        /* \"#utility.yul\":6838:6955   */\n      pop\n        /* \"#utility.yul\":6633:6962   */\n      swap3\n      swap2\n      pop\n      pop\n      jump\t// out\n        /* \"#utility.yul\":6968:7086   */\n    tag_88:\n        /* \"#utility.yul\":7055:7079   */\n      tag_191\n        /* \"#utility.yul\":7073:7078   */\n      dup2\n        /* \"#utility.yul\":7055:7079   */\n      tag_81\n      jump\t// in\n    tag_191:\n        /* \"#utility.yul\":7050:7053   */\n      dup3\n        /* \"#utility.yul\":7043:7080   */\n      mstore\n        /* \"#utility.yul\":6968:7086   */\n      pop\n      pop\n      jump\t// out\n        /* \"#utility.yul\":7092:7314   */\n    tag_27:\n        /* \"#utility.yul\":7185:7189   */\n      0x00\n        /* \"#utility.yul\":7223:7225   */\n      0x20\n        /* \"#utility.yul\":7212:7221   */\n      dup3\n        /* \"#utility.yul\":7208:7226   */\n      add\n        /* \"#utility.yul\":7200:7226   */\n      swap1\n      pop\n        /* \"#utility.yul\":7236:7307   */\n      tag_193\n        /* \"#utility.yul\":7304:7305   */\n      0x00\n        /* \"#utility.yul\":7293:7302   */\n      dup4\n        /* \"#utility.yul\":7289:7306   */\n      add\n        /* \"#utility.yul\":7280:7286   */\n      dup5\n        /* \"#utility.yul\":7236:7307   */\n      tag_88\n      jump\t// in\n    tag_193:\n        /* \"#utility.yul\":7092:7314   */\n      swap3\n      swap2\n      pop\n      pop\n      jump\t// out\n        /* \"#utility.yul\":7320:7499   */\n    tag_89:\n        /* \"#utility.yul\":7460:7491   */\n      0x416765206d7573742062652067726561746572207468616e207a65726f000000\n        /* \"#utility.yul\":7456:7457   */\n      0x00\n        /* \"#utility.yul\":7448:7454   */\n      dup3\n        /* \"#utility.yul\":7444:7458   */\n      add\n        /* \"#utility.yul\":7437:7492   */\n      mstore\n        /* \"#utility.yul\":7320:7499   */\n      pop\n      jump\t// out\n        /* \"#utility.yul\":7505:7871   */\n    tag_90:\n        /* \"#utility.yul\":7647:7650   */\n      0x00\n        /* \"#utility.yul\":7668:7735   */\n      tag_196\n        /* \"#utility.yul\":7732:7734   */\n      0x1d\n        /* \"#utility.yul\":7727:7730   */\n      dup4\n        /* \"#utility.yul\":7668:7735   */\n      tag_85\n      jump\t// in\n    tag_196:\n        /* \"#utility.yul\":7661:7735   */\n      swap2\n      pop\n        /* \"#utility.yul\":7744:7837   */\n      tag_197\n        /* \"#utility.yul\":7833:7836   */\n      dup3\n        /* \"#utility.yul\":7744:7837   */\n      tag_89\n      jump\t// in\n    tag_197:\n        /* \"#utility.yul\":7862:7864   */\n      0x20\n        /* \"#utility.yul\":7857:7860   */\n      dup3\n        /* \"#utility.yul\":7853:7865   */\n      add\n        /* \"#utility.yul\":7846:7865   */\n      swap1\n      pop\n        /* \"#utility.yul\":7505:7871   */\n      swap2\n      swap1\n      pop\n      jump\t// out\n        /* \"#utility.yul\":7877:8296   */\n    tag_34:\n        /* \"#utility.yul\":8043:8047   */\n      0x00\n        /* \"#utility.yul\":8081:8083   */\n      0x20\n        /* \"#utility.yul\":8070:8079   */\n      dup3\n        /* \"#utility.yul\":8066:8084   */\n      add\n        /* \"#utility.yul\":8058:8084   */\n      swap1\n      pop\n        /* \"#utility.yul\":8130:8139   */\n      dup2\n        /* \"#utility.yul\":8124:8128   */\n      dup2\n        /* \"#utility.yul\":8120:8140   */\n      sub\n        /* \"#utility.yul\":8116:8117   */\n      0x00\n        /* \"#utility.yul\":8105:8114   */\n      dup4\n        /* \"#utility.yul\":8101:8118   */\n      add\n        /* \"#utility.yul\":8094:8141   */\n      mstore\n        /* \"#utility.yul\":8158:8289   */\n      tag_199\n        /* \"#utility.yul\":8284:8288   */\n      dup2\n        /* \"#utility.yul\":8158:8289   */\n      tag_90\n      jump\t// in\n    tag_199:\n        /* \"#utility.yul\":8150:8289   */\n      swap1\n      pop\n        /* \"#utility.yul\":7877:8296   */\n      swap2\n      swap1\n      pop\n      jump\t// out\n        /* \"#utility.yul\":8302:8479   */\n    tag_91:\n        /* \"#utility.yul\":8442:8471   */\n      0x53747564656e74206461746120646f6573206e6f742065786973740000000000\n        /* \"#utility.yul\":8438:8439   */\n      0x00\n        /* \"#utility.yul\":8430:8436   */\n      dup3\n        /* \"#utility.yul\":8426:8440   */\n      add\n        /* \"#utility.yul\":8419:8472   */\n      mstore\n        /* \"#utility.yul\":8302:8479   */\n      pop\n      jump\t// out\n        /* \"#utility.yul\":8485:8851   */\n    tag_92:\n        /* \"#utility.yul\":8627:8630   */\n      0x00\n        /* \"#utility.yul\":8648:8715   */\n      tag_202\n        /* \"#utility.yul\":8712:8714   */\n      0x1b\n        /* \"#utility.yul\":8707:8710   */\n      dup4\n        /* \"#utility.yul\":8648:8715   */\n      tag_85\n      jump\t// in\n    tag_202:\n        /* \"#utility.yul\":8641:8715   */\n      swap2\n      pop\n        /* \"#utility.yul\":8724:8817   */\n      tag_203\n        /* \"#utility.yul\":8813:8816   */\n      dup3\n        /* \"#utility.yul\":8724:8817   */\n      tag_91\n      jump\t// in\n    tag_203:\n        /* \"#utility.yul\":8842:8844   */\n      0x20\n        /* \"#utility.yul\":8837:8840   */\n      dup3\n        /* \"#utility.yul\":8833:8845   */\n      add\n        /* \"#utility.yul\":8826:8845   */\n      swap1\n      pop\n        /* \"#utility.yul\":8485:8851   */\n      swap2\n      swap1\n      pop\n      jump\t// out\n        /* \"#utility.yul\":8857:9276   */\n    tag_37:\n        /* \"#utility.yul\":9023:9027   */\n      0x00\n        /* \"#utility.yul\":9061:9063   */\n      0x20\n        /* \"#utility.yul\":9050:9059   */\n      dup3\n        /* \"#utility.yul\":9046:9064   */\n      add\n        /* \"#utility.yul\":9038:9064   */\n      swap1\n      pop\n        /* \"#utility.yul\":9110:9119   */\n      dup2\n        /* \"#utility.yul\":9104:9108   */\n      dup2\n        /* \"#utility.yul\":9100:9120   */\n      sub\n        /* \"#utility.yul\":9096:9097   */\n      0x00\n        /* \"#utility.yul\":9085:9094   */\n      dup4\n        /* \"#utility.yul\":9081:9098   */\n      add\n        /* \"#utility.yul\":9074:9121   */\n      mstore\n        /* \"#utility.yul\":9138:9269   */\n      tag_205\n        /* \"#utility.yul\":9264:9268   */\n      dup2\n        /* \"#utility.yul\":9138:9269   */\n      tag_92\n      jump\t// in\n    tag_205:\n        /* \"#utility.yul\":9130:9269   */\n      swap1\n      pop\n        /* \"#utility.yul\":8857:9276   */\n      swap2\n      swap1\n      pop\n      jump\t// out\n        /* \"#utility.yul\":9282:9462   */\n    tag_93:\n        /* \"#utility.yul\":9330:9407   */\n      0x4e487b7100000000000000000000000000000000000000000000000000000000\n        /* \"#utility.yul\":9327:9328   */\n      0x00\n        /* \"#utility.yul\":9320:9408   */\n      mstore\n        /* \"#utility.yul\":9427:9431   */\n      0x22\n        /* \"#utility.yul\":9424:9425   */\n      0x04\n        /* \"#utility.yul\":9417:9432   */\n      mstore\n        /* \"#utility.yul\":9451:9455   */\n      0x24\n        /* \"#utility.yul\":9448:9449   */\n      0x00\n        /* \"#utility.yul\":9441:9456   */\n      revert\n        /* \"#utility.yul\":9468:9788   */\n    tag_44:\n        /* \"#utility.yul\":9512:9518   */\n      0x00\n        /* \"#utility.yul\":9549:9550   */\n      0x02\n        /* \"#utility.yul\":9543:9547   */\n      dup3\n        /* \"#utility.yul\":9539:9551   */\n      div\n        /* \"#utility.yul\":9529:9551   */\n      swap1\n      pop\n        /* \"#utility.yul\":9596:9597   */\n      0x01\n        /* \"#utility.yul\":9590:9594   */\n      dup3\n        /* \"#utility.yul\":9586:9598   */\n      and\n        /* \"#utility.yul\":9617:9635   */\n      dup1\n        /* \"#utility.yul\":9607:9688   */\n      tag_208\n      jumpi\n        /* \"#utility.yul\":9673:9677   */\n      0x7f\n        /* \"#utility.yul\":9665:9671   */\n      dup3\n        /* \"#utility.yul\":9661:9678   */\n      and\n        /* \"#utility.yul\":9651:9678   */\n      swap2\n      pop\n        /* \"#utility.yul\":9607:9688   */\n    tag_208:\n        /* \"#utility.yul\":9735:9737   */\n      0x20\n        /* \"#utility.yul\":9727:9733   */\n      dup3\n        /* \"#utility.yul\":9724:9738   */\n      lt\n        /* \"#utility.yul\":9704:9722   */\n      dup2\n        /* \"#utility.yul\":9701:9739   */\n      sub\n        /* \"#utility.yul\":9698:9782   */\n      tag_209\n      jumpi\n        /* \"#utility.yul\":9754:9772   */\n      tag_210\n      tag_93\n      jump\t// in\n    tag_210:\n        /* \"#utility.yul\":9698:9782   */\n    tag_209:\n        /* \"#utility.yul\":9519:9788   */\n      pop\n        /* \"#utility.yul\":9468:9788   */\n      swap2\n      swap1\n      pop\n      jump\t// out\n        /* \"#utility.yul\":9794:9935   */\n    tag_94:\n        /* \"#utility.yul\":9843:9847   */\n      0x00\n        /* \"#utility.yul\":9866:9869   */\n      dup2\n        /* \"#utility.yul\":9858:9869   */\n      swap1\n      pop\n        /* \"#utility.yul\":9889:9892   */\n      dup2\n        /* \"#utility.yul\":9886:9887   */\n      0x00\n        /* \"#utility.yul\":9879:9893   */\n      mstore\n        /* \"#utility.yul\":9923:9927   */\n      0x20\n        /* \"#utility.yul\":9920:9921   */\n      0x00\n        /* \"#utility.yul\":9910:9928   */\n      keccak256\n        /* \"#utility.yul\":9902:9928   */\n      swap1\n      pop\n        /* \"#utility.yul\":9794:9935   */\n      swap2\n      swap1\n      pop\n      jump\t// out\n        /* \"#utility.yul\":9941:10034   */\n    tag_95:\n        /* \"#utility.yul\":9978:9984   */\n      0x00\n        /* \"#utility.yul\":10025:10027   */\n      0x20\n        /* \"#utility.yul\":10020:10022   */\n      0x1f\n        /* \"#utility.yul\":10013:10018   */\n      dup4\n        /* \"#utility.yul\":10009:10023   */\n      add\n        /* \"#utility.yul\":10005:10028   */\n      div\n        /* \"#utility.yul\":9995:10028   */\n      swap1\n      pop\n        /* \"#utility.yul\":9941:10034   */\n      swap2\n      swap1\n      pop\n      jump\t// out\n        /* \"#utility.yul\":10040:10147   */\n    tag_96:\n        /* \"#utility.yul\":10084:10092   */\n      0x00\n        /* \"#utility.yul\":10134:10139   */\n      dup3\n        /* \"#utility.yul\":10128:10132   */\n      dup3\n        /* \"#utility.yul\":10124:10140   */\n      shl\n        /* \"#utility.yul\":10103:10140   */\n      swap1\n      pop\n        /* \"#utility.yul\":10040:10147   */\n      swap3\n      swap2\n      pop\n      pop\n      jump\t// out\n        /* \"#utility.yul\":10153:10546   */\n    tag_97:\n        /* \"#utility.yul\":10222:10228   */\n      0x00\n        /* \"#utility.yul\":10272:10273   */\n      0x08\n        /* \"#utility.yul\":10260:10270   */\n      dup4\n        /* \"#utility.yul\":10256:10274   */\n      mul\n        /* \"#utility.yul\":10295:10392   */\n      tag_215\n        /* \"#utility.yul\":10325:10391   */\n      0xffffffffffffffffffffffffffffffffffffffffffffffffffffffffffffffff\n        /* \"#utility.yul\":10314:10323   */\n      dup3\n        /* \"#utility.yul\":10295:10392   */\n      tag_96\n      jump\t// in\n    tag_215:\n        /* \"#utility.yul\":10413:10452   */\n      tag_216\n        /* \"#utility.yul\":10443:10451   */\n      dup7\n        /* \"#utility.yul\":10432:10441   */\n      dup4\n        /* \"#utility.yul\":10413:10452   */\n      tag_96\n      jump\t// in\n    tag_216:\n        /* \"#utility.yul\":10401:10452   */\n      swap6\n      pop\n        /* \"#utility.yul\":10485:10489   */\n      dup1\n        /* \"#utility.yul\":10481:10490   */\n      not\n        /* \"#utility.yul\":10474:10479   */\n      dup5\n        /* \"#utility.yul\":10470:10491   */\n      and\n        /* \"#utility.yul\":10461:10491   */\n      swap4\n      pop\n        /* \"#utility.yul\":10534:10538   */\n      dup1\n        /* \"#utility.yul\":10524:10532   */\n      dup7\n        /* \"#utility.yul\":10520:10539   */\n      and\n        /* \"#utility.yul\":10513:10518   */\n      dup5\n        /* \"#utility.yul\":10510:10540   */\n      or\n        /* \"#utility.yul\":10500:10540   */\n      swap3\n      pop\n        /* \"#utility.yul\":10229:10546   */\n      pop\n      pop\n        /* \"#utility.yul\":10153:10546   */\n      swap4\n      swap3\n      pop\n      pop\n      pop\n      jump\t// out\n        /* \"#utility.yul\":10552:10612   */\n    tag_98:\n        /* \"#utility.yul\":10580:10583   */\n      0x00\n        /* \"#utility.yul\":10601:10606   */\n      dup2\n        /* \"#utility.yul\":10594:10606   */\n      swap1\n      pop\n        /* \"#utility.yul\":10552:10612   */\n      swap2\n      swap1\n      pop\n      jump\t// out\n        /* \"#utility.yul\":10618:10760   */\n    tag_99:\n        /* \"#utility.yul\":10668:10677   */\n      0x00\n        /* \"#utility.yul\":10701:10754   */\n      tag_219\n        /* \"#utility.yul\":10719:10753   */\n      tag_220\n        /* \"#utility.yul\":10728:10752   */\n      tag_221\n        /* \"#utility.yul\":10746:10751   */\n      dup5\n        /* \"#utility.yul\":10728:10752   */\n      tag_76\n      jump\t// in\n    tag_221:\n        /* \"#utility.yul\":10719:10753   */\n      tag_98\n      jump\t// in\n    tag_220:\n        /* \"#utility.yul\":10701:10754   */\n      tag_76\n      jump\t// in\n    tag_219:\n        /* \"#utility.yul\":10688:10754   */\n      swap1\n      pop\n        /* \"#utility.yul\":10618:10760   */\n      swap2\n      swap1\n      pop\n      jump\t// out\n        /* \"#utility.yul\":10766:10841   */\n    tag_100:\n        /* \"#utility.yul\":10809:10812   */\n      0x00\n        /* \"#utility.yul\":10830:10835   */\n      dup2\n        /* \"#utility.yul\":10823:10835   */\n      swap1\n      pop\n        /* \"#utility.yul\":10766:10841   */\n      swap2\n      swap1\n      pop\n      jump\t// out\n        /* \"#utility.yul\":10847:11116   */\n    tag_101:\n        /* \"#utility.yul\":10957:10996   */\n      tag_224\n        /* \"#utility.yul\":10988:10995   */\n      dup4\n        /* \"#utility.yul\":10957:10996   */\n      tag_99\n      jump\t// in\n    tag_224:\n        /* \"#utility.yul\":11018:11109   */\n      tag_225\n        /* \"#utility.yul\":11067:11108   */\n      tag_226\n        /* \"#utility.yul\":11091:11107   */\n      dup3\n        /* \"#utility.yul\":11067:11108   */\n      tag_100\n      jump\t// in\n    tag_226:\n        /* \"#utility.yul\":11059:11065   */\n      dup5\n        /* \"#utility.yul\":11052:11056   */\n      dup5\n        /* \"#utility.yul\":11046:11057   */\n      sload\n        /* \"#utility.yul\":11018:11109   */\n      tag_97\n      jump\t// in\n    tag_225:\n        /* \"#utility.yul\":11012:11016   */\n      dup3\n        /* \"#utility.yul\":11005:11110   */\n      sstore\n        /* \"#utility.yul\":10923:11116   */\n      pop\n        /* \"#utility.yul\":10847:11116   */\n      pop\n      pop\n      pop\n      jump\t// out\n        /* \"#utility.yul\":11122:11195   */\n    tag_102:\n        /* \"#utility.yul\":11167:11170   */\n      0x00\n        /* \"#utility.yul\":11122:11195   */\n      swap1\n      jump\t// out\n        /* \"#utility.yul\":11201:11390   */\n    tag_103:\n        /* \"#utility.yul\":11278:11310   */\n      tag_229\n      tag_102\n      jump\t// in\n    tag_229:\n        /* \"#utility.yul\":11319:11384   */\n      tag_230\n        /* \"#utility.yul\":11377:11383   */\n      dup2\n        /* \"#utility.yul\":11369:11375   */\n      dup5\n        /* \"#utility.yul\":11363:11367   */\n      dup5\n        /* \"#utility.yul\":11319:11384   */\n      tag_101\n      jump\t// in\n    tag_230:\n        /* \"#utility.yul\":11254:11390   */\n      pop\n        /* \"#utility.yul\":11201:11390   */\n      pop\n      pop\n      jump\t// out\n        /* \"#utility.yul\":11396:11582   */\n    tag_104:\n        /* \"#utility.yul\":11456:11576   */\n    tag_232:\n        /* \"#utility.yul\":11473:11476   */\n      dup2\n        /* \"#utility.yul\":11466:11471   */\n      dup2\n        /* \"#utility.yul\":11463:11477   */\n      lt\n        /* \"#utility.yul\":11456:11576   */\n      iszero\n      tag_234\n      jumpi\n        /* \"#utility.yul\":11527:11566   */\n      tag_235\n        /* \"#utility.yul\":11564:11565   */\n      0x00\n        /* \"#utility.yul\":11557:11562   */\n      dup3\n        /* \"#utility.yul\":11527:11566   */\n      tag_103\n      jump\t// in\n    tag_235:\n        /* \"#utility.yul\":11500:11501   */\n      0x01\n        /* \"#utility.yul\":11493:11498   */\n      dup2\n        /* \"#utility.yul\":11489:11502   */\n      add\n        /* \"#utility.yul\":11480:11502   */\n      swap1\n      pop\n        /* \"#utility.yul\":11456:11576   */\n      jump(tag_232)\n    tag_234:\n        /* \"#utility.yul\":11396:11582   */\n      pop\n      pop\n      jump\t// out\n        /* \"#utility.yul\":11588:12131   */\n    tag_105:\n        /* \"#utility.yul\":11689:11691   */\n      0x1f\n        /* \"#utility.yul\":11684:11687   */\n      dup3\n        /* \"#utility.yul\":11681:11692   */\n      gt\n        /* \"#utility.yul\":11678:12124   */\n      iszero\n      tag_237\n      jumpi\n        /* \"#utility.yul\":11723:11761   */\n      tag_238\n        /* \"#utility.yul\":11755:11760   */\n      dup2\n        /* \"#utility.yul\":11723:11761   */\n      tag_94\n      jump\t// in\n    tag_238:\n        /* \"#utility.yul\":11807:11836   */\n      tag_239\n        /* \"#utility.yul\":11825:11835   */\n      dup5\n        /* \"#utility.yul\":11807:11836   */\n      tag_95\n      jump\t// in\n    tag_239:\n        /* \"#utility.yul\":11797:11805   */\n      dup2\n        /* \"#utility.yul\":11793:11837   */\n      add\n        /* \"#utility.yul\":11990:11992   */\n      0x20\n        /* \"#utility.yul\":11978:11988   */\n      dup6\n        /* \"#utility.yul\":11975:11993   */\n      lt\n        /* \"#utility.yul\":11972:12021   */\n      iszero\n      tag_240\n      jumpi\n        /* \"#utility.yul\":12011:12019   */\n      dup2\n        /* \"#utility.yul\":11996:12019   */\n      swap1\n      pop\n        /* \"#utility.yul\":11972:12021   */\n    tag_240:\n        /* \"#utility.yul\":12034:12114   */\n      tag_241\n        /* \"#utility.yul\":12090:12112   */\n      tag_242\n        /* \"#utility.yul\":12108:12111   */\n      dup6\n        /* \"#utility.yul\":12090:12112   */\n      tag_95\n      jump\t// in\n    tag_242:\n        /* \"#utility.yul\":12080:12088   */\n      dup4\n        /* \"#utility.yul\":12076:12113   */\n      add\n        /* \"#utility.yul\":12063:12074   */\n      dup3\n        /* \"#utility.yul\":12034:12114   */\n      tag_104\n      jump\t// in\n    tag_241:\n        /* \"#utility.yul\":11693:12124   */\n      pop\n      pop\n        /* \"#utility.yul\":11678:12124   */\n    tag_237:\n        /* \"#utility.yul\":11588:12131   */\n      pop\n      pop\n      pop\n      jump\t// out\n        /* \"#utility.yul\":12137:12254   */\n    tag_106:\n        /* \"#utility.yul\":12191:12199   */\n      0x00\n        /* \"#utility.yul\":12241:12246   */\n      dup3\n        /* \"#utility.yul\":12235:12239   */\n      dup3\n        /* \"#utility.yul\":12231:12247   */\n      shr\n        /* \"#utility.yul\":12210:12247   */\n      swap1\n      pop\n        /* \"#utility.yul\":12137:12254   */\n      swap3\n      swap2\n      pop\n      pop\n      jump\t// out\n        /* \"#utility.yul\":12260:12429   */\n    tag_107:\n        /* \"#utility.yul\":12304:12310   */\n      0x00\n        /* \"#utility.yul\":12337:12388   */\n      tag_245\n        /* \"#utility.yul\":12385:12386   */\n      0x00\n        /* \"#utility.yul\":12381:12387   */\n      not\n        /* \"#utility.yul\":12373:12378   */\n      dup5\n        /* \"#utility.yul\":12370:12371   */\n      0x08\n        /* \"#utility.yul\":12366:12379   */\n      mul\n        /* \"#utility.yul\":12337:12388   */\n      tag_106\n      jump\t// in\n    tag_245:\n        /* \"#utility.yul\":12333:12389   */\n      not\n        /* \"#utility.yul\":12418:12422   */\n      dup1\n        /* \"#utility.yul\":12412:12416   */\n      dup4\n        /* \"#utility.yul\":12408:12423   */\n      and\n        /* \"#utility.yul\":12398:12423   */\n      swap2\n      pop\n        /* \"#utility.yul\":12311:12429   */\n      pop\n        /* \"#utility.yul\":12260:12429   */\n      swap3\n      swap2\n      pop\n      pop\n      jump\t// out\n        /* \"#utility.yul\":12434:12729   */\n    tag_108:\n        /* \"#utility.yul\":12510:12514   */\n      0x00\n        /* \"#utility.yul\":12656:12685   */\n      tag_247\n        /* \"#utility.yul\":12681:12684   */\n      dup4\n        /* \"#utility.yul\":12675:12679   */\n      dup4\n        /* \"#utility.yul\":12656:12685   */\n      tag_107\n      jump\t// in\n    tag_247:\n        /* \"#utility.yul\":12648:12685   */\n      swap2\n      pop\n        /* \"#utility.yul\":12718:12721   */\n      dup3\n        /* \"#utility.yul\":12715:12716   */\n      0x02\n        /* \"#utility.yul\":12711:12722   */\n      mul\n        /* \"#utility.yul\":12705:12709   */\n      dup3\n        /* \"#utility.yul\":12702:12723   */\n      or\n        /* \"#utility.yul\":12694:12723   */\n      swap1\n      pop\n        /* \"#utility.yul\":12434:12729   */\n      swap3\n      swap2\n      pop\n      pop\n      jump\t// out\n        /* \"#utility.yul\":12734:14129   */\n    tag_39:\n        /* \"#utility.yul\":12851:12888   */\n      tag_249\n        /* \"#utility.yul\":12884:12887   */\n      dup3\n        /* \"#utility.yul\":12851:12888   */\n      tag_84\n      jump\t// in\n    tag_249:\n        /* \"#utility.yul\":12953:12971   */\n      0xffffffffffffffff\n        /* \"#utility.yul\":12945:12951   */\n      dup2\n        /* \"#utility.yul\":12942:12972   */\n      gt\n        /* \"#utility.yul\":12939:12995   */\n      iszero\n      tag_250\n      jumpi\n        /* \"#utility.yul\":12975:12993   */\n      tag_251\n      tag_69\n      jump\t// in\n    tag_251:\n        /* \"#utility.yul\":12939:12995   */\n    tag_250:\n        /* \"#utility.yul\":13019:13057   */\n      tag_252\n        /* \"#utility.yul\":13051:13055   */\n      dup3\n        /* \"#utility.yul\":13045:13056   */\n      sload\n        /* \"#utility.yul\":13019:13057   */\n      tag_44\n      jump\t// in\n    tag_252:\n        /* \"#utility.yul\":13104:13171   */\n      tag_253\n        /* \"#utility.yul\":13164:13170   */\n      dup3\n        /* \"#utility.yul\":13156:13162   */\n      dup3\n        /* \"#utility.yul\":13150:13154   */\n      dup6\n        /* \"#utility.yul\":13104:13171   */\n      tag_105\n      jump\t// in\n    tag_253:\n        /* \"#utility.yul\":13198:13199   */\n      0x00\n        /* \"#utility.yul\":13222:13226   */\n      0x20\n        /* \"#utility.yul\":13209:13226   */\n      swap1\n      pop\n        /* \"#utility.yul\":13254:13256   */\n      0x1f\n        /* \"#utility.yul\":13246:13252   */\n      dup4\n        /* \"#utility.yul\":13243:13257   */\n      gt\n        /* \"#utility.yul\":13271:13272   */\n      0x01\n        /* \"#utility.yul\":13266:13884   */\n      dup2\n      eq\n      tag_255\n      jumpi\n        /* \"#utility.yul\":13928:13929   */\n      0x00\n        /* \"#utility.yul\":13945:13951   */\n      dup5\n        /* \"#utility.yul\":13942:14019   */\n      iszero\n      tag_256\n      jumpi\n        /* \"#utility.yul\":13994:14003   */\n      dup3\n        /* \"#utility.yul\":13989:13992   */\n      dup8\n        /* \"#utility.yul\":13985:14004   */\n      add\n        /* \"#utility.yul\":13979:14005   */\n      mload\n        /* \"#utility.yul\":13970:14005   */\n      swap1\n      pop\n        /* \"#utility.yul\":13942:14019   */\n    tag_256:\n        /* \"#utility.yul\":14045:14112   */\n      tag_257\n        /* \"#utility.yul\":14105:14111   */\n      dup6\n        /* \"#utility.yul\":14098:14103   */\n      dup3\n        /* \"#utility.yul\":14045:14112   */\n      tag_108\n      jump\t// in\n    tag_257:\n        /* \"#utility.yul\":14039:14043   */\n      dup7\n        /* \"#utility.yul\":14032:14113   */\n      sstore\n        /* \"#utility.yul\":13901:14123   */\n      pop\n        /* \"#utility.yul\":13236:14123   */\n      jump(tag_254)\n        /* \"#utility.yul\":13266:13884   */\n    tag_255:\n        /* \"#utility.yul\":13318:13322   */\n      0x1f\n        /* \"#utility.yul\":13314:13323   */\n      not\n        /* \"#utility.yul\":13306:13312   */\n      dup5\n        /* \"#utility.yul\":13302:13324   */\n      and\n        /* \"#utility.yul\":13352:13389   */\n      tag_258\n        /* \"#utility.yul\":13384:13388   */\n      dup7\n        /* \"#utility.yul\":13352:13389   */\n      tag_94\n      jump\t// in\n    tag_258:\n        /* \"#utility.yul\":13411:13412   */\n      0x00\n        /* \"#utility.yul\":13425:13633   */\n    tag_259:\n        /* \"#utility.yul\":13439:13446   */\n      dup3\n        /* \"#utility.yul\":13436:13437   */\n      dup2\n        /* \"#utility.yul\":13433:13447   */\n      lt\n        /* \"#utility.yul\":13425:13633   */\n      iszero\n      tag_261\n      jumpi\n        /* \"#utility.yul\":13518:13527   */\n      dup5\n        /* \"#utility.yul\":13513:13516   */\n      dup10\n        /* \"#utility.yul\":13509:13528   */\n      add\n        /* \"#utility.yul\":13503:13529   */\n      mload\n        /* \"#utility.yul\":13495:13501   */\n      dup3\n        /* \"#utility.yul\":13488:13530   */\n      sstore\n        /* \"#utility.yul\":13569:13570   */\n      0x01\n        /* \"#utility.yul\":13561:13567   */\n      dup3\n        /* \"#utility.yul\":13557:13571   */\n      add\n        /* \"#utility.yul\":13547:13571   */\n      swap2\n      pop\n        /* \"#utility.yul\":13616:13618   */\n      0x20\n        /* \"#utility.yul\":13605:13614   */\n      dup6\n        /* \"#utility.yul\":13601:13619   */\n      add\n        /* \"#utility.yul\":13588:13619   */\n      swap5\n      pop\n        /* \"#utility.yul\":13462:13466   */\n      0x20\n        /* \"#utility.yul\":13459:13460   */\n      dup2\n        /* \"#utility.yul\":13455:13467   */\n      add\n        /* \"#utility.yul\":13450:13467   */\n      swap1\n      pop\n        /* \"#utility.yul\":13425:13633   */\n      jump(tag_259)\n    tag_261:\n        /* \"#utility.yul\":13661:13667   */\n      dup7\n        /* \"#utility.yul\":13652:13659   */\n      dup4\n        /* \"#utility.yul\":13649:13668   */\n      lt\n        /* \"#utility.yul\":13646:13825   */\n      iszero\n      tag_262\n      jumpi\n        /* \"#utility.yul\":13719:13728   */\n      dup5\n        /* \"#utility.yul\":13714:13717   */\n      dup10\n        /* \"#utility.yul\":13710:13729   */\n      add\n        /* \"#utility.yul\":13704:13730   */\n      mload\n        /* \"#utility.yul\":13762:13810   */\n      tag_263\n        /* \"#utility.yul\":13804:13808   */\n      0x1f\n        /* \"#utility.yul\":13796:13802   */\n      dup10\n        /* \"#utility.yul\":13792:13809   */\n      and\n        /* \"#utility.yul\":13781:13790   */\n      dup3\n        /* \"#utility.yul\":13762:13810   */\n      tag_107\n      jump\t// in\n    tag_263:\n        /* \"#utility.yul\":13754:13760   */\n      dup4\n        /* \"#utility.yul\":13747:13811   */\n      sstore\n        /* \"#utility.yul\":13669:13825   */\n      pop\n        /* \"#utility.yul\":13646:13825   */\n    tag_262:\n        /* \"#utility.yul\":13871:13872   */\n      0x01\n        /* \"#utility.yul\":13867:13868   */\n      0x02\n        /* \"#utility.yul\":13859:13865   */\n      dup9\n        /* \"#utility.yul\":13855:13869   */\n      mul\n        /* \"#utility.yul\":13851:13873   */\n      add\n        /* \"#utility.yul\":13845:13849   */\n      dup9\n        /* \"#utility.yul\":13838:13874   */\n      sstore\n        /* \"#utility.yul\":13273:13884   */\n      pop\n      pop\n      pop\n        /* \"#utility.yul\":13236:14123   */\n    tag_254:\n      pop\n        /* \"#utility.yul\":12826:14129   */\n      pop\n      pop\n      pop\n        /* \"#utility.yul\":12734:14129   */\n      pop\n      pop\n      jump\t// out\n\n    auxdata: 0xa2646970667358221220b285c37b3bd8399836cc2150a92ff25593d801950abf9f39182fa508124d0c0d64736f6c63430008120033\n}\n",
				"bytecode": {
					"linkReferences": {},
					"object": "608060405234801561001057600080fd5b50610d6c806100206000396000f3fe608060405234801561001057600080fd5b50600436106100575760003560e01c806312232cb01461005c578063945b7bd614610078578063a6c807a914610096578063b5ab682d146100c8578063ed32a8a1146100f8575b600080fd5b61007660048036038101906100719190610725565b610114565b005b6100806102a2565b60405161008d91906107bf565b60405180910390f35b6100b060048036038101906100ab9190610838565b6102af565b6040516100bf939291906108e4565b60405180910390f35b6100e260048036038101906100dd9190610929565b6103e9565b6040516100ef9190610965565b60405180910390f35b610112600480360381019061010d9190610725565b610428565b005b60008211610157576040517f08c379a000000000000000000000000000000000000000000000000000000000815260040161014e906109cc565b60405180910390fd5b60008060003373ffffffffffffffffffffffffffffffffffffffff1673ffffffffffffffffffffffffffffffffffffffff16815260200190815260200160002060010154116101db576040517f08c379a00000000000000000000000000000000000000000000000000000000081526004016101d290610a38565b60405180910390fd5b60008060003373ffffffffffffffffffffffffffffffffffffffff1673ffffffffffffffffffffffffffffffffffffffff16815260200190815260200160002090508381600001908161022e9190610c64565b50828160010181905550818160020190816102499190610c64565b503373ffffffffffffffffffffffffffffffffffffffff167f4f12d6a1772884d123779fa51cb51a01a5d5fd2fb9ddaab239d0d568c1f3277f858585604051610294939291906108e4565b60405180910390a250505050565b6000600180549050905090565b60006020528060005260406000206000915090508060000180546102d290610a87565b80601f01602080910402602001604051908101604052809291908181526020018280546102fe90610a87565b801561034b5780601f106103205761010080835404028352916020019161034b565b820191906000526020600020905b81548152906001019060200180831161032e57829003601f168201915b50505050509080600101549080600201805461036690610a87565b80601f016020809104026020016040519081016040528092919081815260200182805461039290610a87565b80156103df5780601f106103b4576101008083540402835291602001916103df565b820191906000526020600020905b8154815290600101906020018083116103c257829003601f168201915b5050505050905083565b600181815481106103f957600080fd5b906000526020600020016000915054906101000a900473ffffffffffffffffffffffffffffffffffffffff1681565b6000821161046b576040517f08c379a0000000000000000000000000000000000000000000000000000000008152600401610462906109cc565b60405180910390fd5b60008060003373ffffffffffffffffffffffffffffffffffffffff1673ffffffffffffffffffffffffffffffffffffffff1681526020019081526020016000209050838160000190816104be9190610c64565b50828160010181905550818160020190816104d99190610c64565b506001339080600181540180825580915050600190039060005260206000200160009091909190916101000a81548173ffffffffffffffffffffffffffffffffffffffff021916908373ffffffffffffffffffffffffffffffffffffffff1602179055503373ffffffffffffffffffffffffffffffffffffffff167fb700696102ea0451dd02efc3bb9e9be0c2fb39813035063fbb3483104037463d858585604051610587939291906108e4565b60405180910390a250505050565b6000604051905090565b600080fd5b600080fd5b600080fd5b600080fd5b6000601f19601f8301169050919050565b7f4e487b7100000000000000000000000000000000000000000000000000000000600052604160045260246000fd5b6105fc826105b3565b810181811067ffffffffffffffff8211171561061b5761061a6105c4565b5b80604052505050565b600061062e610595565b905061063a82826105f3565b919050565b600067ffffffffffffffff82111561065a576106596105c4565b5b610663826105b3565b9050602081019050919050565b82818337600083830152505050565b600061069261068d8461063f565b610624565b9050828152602081018484840111156106ae576106ad6105ae565b5b6106b9848285610670565b509392505050565b600082601f8301126106d6576106d56105a9565b5b81356106e684826020860161067f565b91505092915050565b6000819050919050565b610702816106ef565b811461070d57600080fd5b50565b60008135905061071f816106f9565b92915050565b60008060006060848603121561073e5761073d61059f565b5b600084013567ffffffffffffffff81111561075c5761075b6105a4565b5b610768868287016106c1565b935050602061077986828701610710565b925050604084013567ffffffffffffffff81111561079a576107996105a4565b5b6107a6868287016106c1565b9150509250925092565b6107b9816106ef565b82525050565b60006020820190506107d460008301846107b0565b92915050565b600073ffffffffffffffffffffffffffffffffffffffff82169050919050565b6000610805826107da565b9050919050565b610815816107fa565b811461082057600080fd5b50565b6000813590506108328161080c565b92915050565b60006020828403121561084e5761084d61059f565b5b600061085c84828501610823565b91505092915050565b600081519050919050565b600082825260208201905092915050565b60005b8381101561089f578082015181840152602081019050610884565b60008484015250505050565b60006108b682610865565b6108c08185610870565b93506108d0818560208601610881565b6108d9816105b3565b840191505092915050565b600060608201905081810360008301526108fe81866108ab565b905061090d60208301856107b0565b818103604083015261091f81846108ab565b9050949350505050565b60006020828403121561093f5761093e61059f565b5b600061094d84828501610710565b91505092915050565b61095f816107fa565b82525050565b600060208201905061097a6000830184610956565b92915050565b7f416765206d7573742062652067726561746572207468616e207a65726f000000600082015250565b60006109b6601d83610870565b91506109c182610980565b602082019050919050565b600060208201905081810360008301526109e5816109a9565b9050919050565b7f53747564656e74206461746120646f6573206e6f742065786973740000000000600082015250565b6000610a22601b83610870565b9150610a2d826109ec565b602082019050919050565b60006020820190508181036000830152610a5181610a15565b9050919050565b7f4e487b7100000000000000000000000000000000000000000000000000000000600052602260045260246000fd5b60006002820490506001821680610a9f57607f821691505b602082108103610ab257610ab1610a58565b5b50919050565b60008190508160005260206000209050919050565b60006020601f8301049050919050565b600082821b905092915050565b600060088302610b1a7fffffffffffffffffffffffffffffffffffffffffffffffffffffffffffffffff82610add565b610b248683610add565b95508019841693508086168417925050509392505050565b6000819050919050565b6000610b61610b5c610b57846106ef565b610b3c565b6106ef565b9050919050565b6000819050919050565b610b7b83610b46565b610b8f610b8782610b68565b848454610aea565b825550505050565b600090565b610ba4610b97565b610baf818484610b72565b505050565b5b81811015610bd357610bc8600082610b9c565b600181019050610bb5565b5050565b601f821115610c1857610be981610ab8565b610bf284610acd565b81016020851015610c01578190505b610c15610c0d85610acd565b830182610bb4565b50505b505050565b600082821c905092915050565b6000610c3b60001984600802610c1d565b1980831691505092915050565b6000610c548383610c2a565b9150826002028217905092915050565b610c6d82610865565b67ffffffffffffffff811115610c8657610c856105c4565b5b610c908254610a87565b610c9b828285610bd7565b600060209050601f831160018114610cce5760008415610cbc578287015190505b610cc68582610c48565b865550610d2e565b601f198416610cdc86610ab8565b60005b82811015610d0457848901518255600182019150602085019450602081019050610cdf565b86831015610d215784890151610d1d601f891682610c2a565b8355505b6001600288020188555050505b50505050505056fea2646970667358221220b285c37b3bd8399836cc2150a92ff25593d801950abf9f39182fa508124d0c0d64736f6c63430008120033",
					"opcodes": "PUSH1 0x80 PUSH1 0x40 MSTORE CALLVALUE DUP1 ISZERO PUSH2 0x10 JUMPI PUSH1 0x0 DUP1 REVERT JUMPDEST POP PUSH2 0xD6C DUP1 PUSH2 0x20 PUSH1 0x0 CODECOPY PUSH1 0x0 RETURN INVALID PUSH1 0x80 PUSH1 0x40 MSTORE CALLVALUE DUP1 ISZERO PUSH2 0x10 JUMPI PUSH1 0x0 DUP1 REVERT JUMPDEST POP PUSH1 0x4 CALLDATASIZE LT PUSH2 0x57 JUMPI PUSH1 0x0 CALLDATALOAD PUSH1 0xE0 SHR DUP1 PUSH4 0x12232CB0 EQ PUSH2 0x5C JUMPI DUP1 PUSH4 0x945B7BD6 EQ PUSH2 0x78 JUMPI DUP1 PUSH4 0xA6C807A9 EQ PUSH2 0x96 JUMPI DUP1 PUSH4 0xB5AB682D EQ PUSH2 0xC8 JUMPI DUP1 PUSH4 0xED32A8A1 EQ PUSH2 0xF8 JUMPI JUMPDEST PUSH1 0x0 DUP1 REVERT JUMPDEST PUSH2 0x76 PUSH1 0x4 DUP1 CALLDATASIZE SUB DUP2 ADD SWAP1 PUSH2 0x71 SWAP2 SWAP1 PUSH2 0x725 JUMP JUMPDEST PUSH2 0x114 JUMP JUMPDEST STOP JUMPDEST PUSH2 0x80 PUSH2 0x2A2 JUMP JUMPDEST PUSH1 0x40 MLOAD PUSH2 0x8D SWAP2 SWAP1 PUSH2 0x7BF JUMP JUMPDEST PUSH1 0x40 MLOAD DUP1 SWAP2 SUB SWAP1 RETURN JUMPDEST PUSH2 0xB0 PUSH1 0x4 DUP1 CALLDATASIZE SUB DUP2 ADD SWAP1 PUSH2 0xAB SWAP2 SWAP1 PUSH2 0x838 JUMP JUMPDEST PUSH2 0x2AF JUMP JUMPDEST PUSH1 0x40 MLOAD PUSH2 0xBF SWAP4 SWAP3 SWAP2 SWAP1 PUSH2 0x8E4 JUMP JUMPDEST PUSH1 0x40 MLOAD DUP1 SWAP2 SUB SWAP1 RETURN JUMPDEST PUSH2 0xE2 PUSH1 0x4 DUP1 CALLDATASIZE SUB DUP2 ADD SWAP1 PUSH2 0xDD SWAP2 SWAP1 PUSH2 0x929 JUMP JUMPDEST PUSH2 0x3E9 JUMP JUMPDEST PUSH1 0x40 MLOAD PUSH2 0xEF SWAP2 SWAP1 PUSH2 0x965 JUMP JUMPDEST PUSH1 0x40 MLOAD DUP1 SWAP2 SUB SWAP1 RETURN JUMPDEST PUSH2 0x112 PUSH1 0x4 DUP1 CALLDATASIZE SUB DUP2 ADD SWAP1 PUSH2 0x10D SWAP2 SWAP1 PUSH2 0x725 JUMP JUMPDEST PUSH2 0x428 JUMP JUMPDEST STOP JUMPDEST PUSH1 0x0 DUP3 GT PUSH2 0x157 JUMPI PUSH1 0x40 MLOAD PUSH32 0x8C379A000000000000000000000000000000000000000000000000000000000 DUP2 MSTORE PUSH1 0x4 ADD PUSH2 0x14E SWAP1 PUSH2 0x9CC JUMP JUMPDEST PUSH1 0x40 MLOAD DUP1 SWAP2 SUB SWAP1 REVERT JUMPDEST PUSH1 0x0 DUP1 PUSH1 0x0 CALLER PUSH20 0xFFFFFFFFFFFFFFFFFFFFFFFFFFFFFFFFFFFFFFFF AND PUSH20 0xFFFFFFFFFFFFFFFFFFFFFFFFFFFFFFFFFFFFFFFF AND DUP2 MSTORE PUSH1 0x20 ADD SWAP1 DUP2 MSTORE PUSH1 0x20 ADD PUSH1 0x0 KECCAK256 PUSH1 0x1 ADD SLOAD GT PUSH2 0x1DB JUMPI PUSH1 0x40 MLOAD PUSH32 0x8C379A000000000000000000000000000000000000000000000000000000000 DUP2 MSTORE PUSH1 0x4 ADD PUSH2 0x1D2 SWAP1 PUSH2 0xA38 JUMP JUMPDEST PUSH1 0x40 MLOAD DUP1 SWAP2 SUB SWAP1 REVERT JUMPDEST PUSH1 0x0 DUP1 PUSH1 0x0 CALLER PUSH20 0xFFFFFFFFFFFFFFFFFFFFFFFFFFFFFFFFFFFFFFFF AND PUSH20 0xFFFFFFFFFFFFFFFFFFFFFFFFFFFFFFFFFFFFFFFF AND DUP2 MSTORE PUSH1 0x20 ADD SWAP1 DUP2 MSTORE PUSH1 0x20 ADD PUSH1 0x0 KECCAK256 SWAP1 POP DUP4 DUP2 PUSH1 0x0 ADD SWAP1 DUP2 PUSH2 0x22E SWAP2 SWAP1 PUSH2 0xC64 JUMP JUMPDEST POP DUP3 DUP2 PUSH1 0x1 ADD DUP2 SWAP1 SSTORE POP DUP2 DUP2 PUSH1 0x2 ADD SWAP1 DUP2 PUSH2 0x249 SWAP2 SWAP1 PUSH2 0xC64 JUMP JUMPDEST POP CALLER PUSH20 0xFFFFFFFFFFFFFFFFFFFFFFFFFFFFFFFFFFFFFFFF AND PUSH32 0x4F12D6A1772884D123779FA51CB51A01A5D5FD2FB9DDAAB239D0D568C1F3277F DUP6 DUP6 DUP6 PUSH1 0x40 MLOAD PUSH2 0x294 SWAP4 SWAP3 SWAP2 SWAP1 PUSH2 0x8E4 JUMP JUMPDEST PUSH1 0x40 MLOAD DUP1 SWAP2 SUB SWAP1 LOG2 POP POP POP POP JUMP JUMPDEST PUSH1 0x0 PUSH1 0x1 DUP1 SLOAD SWAP1 POP SWAP1 POP SWAP1 JUMP JUMPDEST PUSH1 0x0 PUSH1 0x20 MSTORE DUP1 PUSH1 0x0 MSTORE PUSH1 0x40 PUSH1 0x0 KECCAK256 PUSH1 0x0 SWAP2 POP SWAP1 POP DUP1 PUSH1 0x0 ADD DUP1 SLOAD PUSH2 0x2D2 SWAP1 PUSH2 0xA87 JUMP JUMPDEST DUP1 PUSH1 0x1F ADD PUSH1 0x20 DUP1 SWAP2 DIV MUL PUSH1 0x20 ADD PUSH1 0x40 MLOAD SWAP1 DUP2 ADD PUSH1 0x40 MSTORE DUP1 SWAP3 SWAP2 SWAP1 DUP2 DUP2 MSTORE PUSH1 0x20 ADD DUP3 DUP1 SLOAD PUSH2 0x2FE SWAP1 PUSH2 0xA87 JUMP JUMPDEST DUP1 ISZERO PUSH2 0x34B JUMPI DUP1 PUSH1 0x1F LT PUSH2 0x320 JUMPI PUSH2 0x100 DUP1 DUP4 SLOAD DIV MUL DUP4 MSTORE SWAP2 PUSH1 0x20 ADD SWAP2 PUSH2 0x34B JUMP JUMPDEST DUP3 ADD SWAP2 SWAP1 PUSH1 0x0 MSTORE PUSH1 0x20 PUSH1 0x0 KECCAK256 SWAP1 JUMPDEST DUP2 SLOAD DUP2 MSTORE SWAP1 PUSH1 0x1 ADD SWAP1 PUSH1 0x20 ADD DUP1 DUP4 GT PUSH2 0x32E JUMPI DUP3 SWAP1 SUB PUSH1 0x1F AND DUP3 ADD SWAP2 JUMPDEST POP POP POP POP POP SWAP1 DUP1 PUSH1 0x1 ADD SLOAD SWAP1 DUP1 PUSH1 0x2 ADD DUP1 SLOAD PUSH2 0x366 SWAP1 PUSH2 0xA87 JUMP JUMPDEST DUP1 PUSH1 0x1F ADD PUSH1 0x20 DUP1 SWAP2 DIV MUL PUSH1 0x20 ADD PUSH1 0x40 MLOAD SWAP1 DUP2 ADD PUSH1 0x40 MSTORE DUP1 SWAP3 SWAP2 SWAP1 DUP2 DUP2 MSTORE PUSH1 0x20 ADD DUP3 DUP1 SLOAD PUSH2 0x392 SWAP1 PUSH2 0xA87 JUMP JUMPDEST DUP1 ISZERO PUSH2 0x3DF JUMPI DUP1 PUSH1 0x1F LT PUSH2 0x3B4 JUMPI PUSH2 0x100 DUP1 DUP4 SLOAD DIV MUL DUP4 MSTORE SWAP2 PUSH1 0x20 ADD SWAP2 PUSH2 0x3DF JUMP JUMPDEST DUP3 ADD SWAP2 SWAP1 PUSH1 0x0 MSTORE PUSH1 0x20 PUSH1 0x0 KECCAK256 SWAP1 JUMPDEST DUP2 SLOAD DUP2 MSTORE SWAP1 PUSH1 0x1 ADD SWAP1 PUSH1 0x20 ADD DUP1 DUP4 GT PUSH2 0x3C2 JUMPI DUP3 SWAP1 SUB PUSH1 0x1F AND DUP3 ADD SWAP2 JUMPDEST POP POP POP POP POP SWAP1 POP DUP4 JUMP JUMPDEST PUSH1 0x1 DUP2 DUP2 SLOAD DUP2 LT PUSH2 0x3F9 JUMPI PUSH1 0x0 DUP1 REVERT JUMPDEST SWAP1 PUSH1 0x0 MSTORE PUSH1 0x20 PUSH1 0x0 KECCAK256 ADD PUSH1 0x0 SWAP2 POP SLOAD SWAP1 PUSH2 0x100 EXP SWAP1 DIV PUSH20 0xFFFFFFFFFFFFFFFFFFFFFFFFFFFFFFFFFFFFFFFF AND DUP2 JUMP JUMPDEST PUSH1 0x0 DUP3 GT PUSH2 0x46B JUMPI PUSH1 0x40 MLOAD PUSH32 0x8C379A000000000000000000000000000000000000000000000000000000000 DUP2 MSTORE PUSH1 0x4 ADD PUSH2 0x462 SWAP1 PUSH2 0x9CC JUMP JUMPDEST PUSH1 0x40 MLOAD DUP1 SWAP2 SUB SWAP1 REVERT JUMPDEST PUSH1 0x0 DUP1 PUSH1 0x0 CALLER PUSH20 0xFFFFFFFFFFFFFFFFFFFFFFFFFFFFFFFFFFFFFFFF AND PUSH20 0xFFFFFFFFFFFFFFFFFFFFFFFFFFFFFFFFFFFFFFFF AND DUP2 MSTORE PUSH1 0x20 ADD SWAP1 DUP2 MSTORE PUSH1 0x20 ADD PUSH1 0x0 KECCAK256 SWAP1 POP DUP4 DUP2 PUSH1 0x0 ADD SWAP1 DUP2 PUSH2 0x4BE SWAP2 SWAP1 PUSH2 0xC64 JUMP JUMPDEST POP DUP3 DUP2 PUSH1 0x1 ADD DUP2 SWAP1 SSTORE POP DUP2 DUP2 PUSH1 0x2 ADD SWAP1 DUP2 PUSH2 0x4D9 SWAP2 SWAP1 PUSH2 0xC64 JUMP JUMPDEST POP PUSH1 0x1 CALLER SWAP1 DUP1 PUSH1 0x1 DUP2 SLOAD ADD DUP1 DUP3 SSTORE DUP1 SWAP2 POP POP PUSH1 0x1 SWAP1 SUB SWAP1 PUSH1 0x0 MSTORE PUSH1 0x20 PUSH1 0x0 KECCAK256 ADD PUSH1 0x0 SWAP1 SWAP2 SWAP1 SWAP2 SWAP1 SWAP2 PUSH2 0x100 EXP DUP2 SLOAD DUP2 PUSH20 0xFFFFFFFFFFFFFFFFFFFFFFFFFFFFFFFFFFFFFFFF MUL NOT AND SWAP1 DUP4 PUSH20 0xFFFFFFFFFFFFFFFFFFFFFFFFFFFFFFFFFFFFFFFF AND MUL OR SWAP1 SSTORE POP CALLER PUSH20 0xFFFFFFFFFFFFFFFFFFFFFFFFFFFFFFFFFFFFFFFF AND PUSH32 0xB700696102EA0451DD02EFC3BB9E9BE0C2FB39813035063FBB3483104037463D DUP6 DUP6 DUP6 PUSH1 0x40 MLOAD PUSH2 0x587 SWAP4 SWAP3 SWAP2 SWAP1 PUSH2 0x8E4 JUMP JUMPDEST PUSH1 0x40 MLOAD DUP1 SWAP2 SUB SWAP1 LOG2 POP POP POP POP JUMP JUMPDEST PUSH1 0x0 PUSH1 0x40 MLOAD SWAP1 POP SWAP1 JUMP JUMPDEST PUSH1 0x0 DUP1 REVERT JUMPDEST PUSH1 0x0 DUP1 REVERT JUMPDEST PUSH1 0x0 DUP1 REVERT JUMPDEST PUSH1 0x0 DUP1 REVERT JUMPDEST PUSH1 0x0 PUSH1 0x1F NOT PUSH1 0x1F DUP4 ADD AND SWAP1 POP SWAP2 SWAP1 POP JUMP JUMPDEST PUSH32 0x4E487B7100000000000000000000000000000000000000000000000000000000 PUSH1 0x0 MSTORE PUSH1 0x41 PUSH1 0x4 MSTORE PUSH1 0x24 PUSH1 0x0 REVERT JUMPDEST PUSH2 0x5FC DUP3 PUSH2 0x5B3 JUMP JUMPDEST DUP2 ADD DUP2 DUP2 LT PUSH8 0xFFFFFFFFFFFFFFFF DUP3 GT OR ISZERO PUSH2 0x61B JUMPI PUSH2 0x61A PUSH2 0x5C4 JUMP JUMPDEST JUMPDEST DUP1 PUSH1 0x40 MSTORE POP POP POP JUMP JUMPDEST PUSH1 0x0 PUSH2 0x62E PUSH2 0x595 JUMP JUMPDEST SWAP1 POP PUSH2 0x63A DUP3 DUP3 PUSH2 0x5F3 JUMP JUMPDEST SWAP2 SWAP1 POP JUMP JUMPDEST PUSH1 0x0 PUSH8 0xFFFFFFFFFFFFFFFF DUP3 GT ISZERO PUSH2 0x65A JUMPI PUSH2 0x659 PUSH2 0x5C4 JUMP JUMPDEST JUMPDEST PUSH2 0x663 DUP3 PUSH2 0x5B3 JUMP JUMPDEST SWAP1 POP PUSH1 0x20 DUP2 ADD SWAP1 POP SWAP2 SWAP1 POP JUMP JUMPDEST DUP3 DUP2 DUP4 CALLDATACOPY PUSH1 0x0 DUP4 DUP4 ADD MSTORE POP POP POP JUMP JUMPDEST PUSH1 0x0 PUSH2 0x692 PUSH2 0x68D DUP5 PUSH2 0x63F JUMP JUMPDEST PUSH2 0x624 JUMP JUMPDEST SWAP1 POP DUP3 DUP2 MSTORE PUSH1 0x20 DUP2 ADD DUP5 DUP5 DUP5 ADD GT ISZERO PUSH2 0x6AE JUMPI PUSH2 0x6AD PUSH2 0x5AE JUMP JUMPDEST JUMPDEST PUSH2 0x6B9 DUP5 DUP3 DUP6 PUSH2 0x670 JUMP JUMPDEST POP SWAP4 SWAP3 POP POP POP JUMP JUMPDEST PUSH1 0x0 DUP3 PUSH1 0x1F DUP4 ADD SLT PUSH2 0x6D6 JUMPI PUSH2 0x6D5 PUSH2 0x5A9 JUMP JUMPDEST JUMPDEST DUP2 CALLDATALOAD PUSH2 0x6E6 DUP5 DUP3 PUSH1 0x20 DUP7 ADD PUSH2 0x67F JUMP JUMPDEST SWAP2 POP POP SWAP3 SWAP2 POP POP JUMP JUMPDEST PUSH1 0x0 DUP2 SWAP1 POP SWAP2 SWAP1 POP JUMP JUMPDEST PUSH2 0x702 DUP2 PUSH2 0x6EF JUMP JUMPDEST DUP2 EQ PUSH2 0x70D JUMPI PUSH1 0x0 DUP1 REVERT JUMPDEST POP JUMP JUMPDEST PUSH1 0x0 DUP2 CALLDATALOAD SWAP1 POP PUSH2 0x71F DUP2 PUSH2 0x6F9 JUMP JUMPDEST SWAP3 SWAP2 POP POP JUMP JUMPDEST PUSH1 0x0 DUP1 PUSH1 0x0 PUSH1 0x60 DUP5 DUP7 SUB SLT ISZERO PUSH2 0x73E JUMPI PUSH2 0x73D PUSH2 0x59F JUMP JUMPDEST JUMPDEST PUSH1 0x0 DUP5 ADD CALLDATALOAD PUSH8 0xFFFFFFFFFFFFFFFF DUP2 GT ISZERO PUSH2 0x75C JUMPI PUSH2 0x75B PUSH2 0x5A4 JUMP JUMPDEST JUMPDEST PUSH2 0x768 DUP7 DUP3 DUP8 ADD PUSH2 0x6C1 JUMP JUMPDEST SWAP4 POP POP PUSH1 0x20 PUSH2 0x779 DUP7 DUP3 DUP8 ADD PUSH2 0x710 JUMP JUMPDEST SWAP3 POP POP PUSH1 0x40 DUP5 ADD CALLDATALOAD PUSH8 0xFFFFFFFFFFFFFFFF DUP2 GT ISZERO PUSH2 0x79A JUMPI PUSH2 0x799 PUSH2 0x5A4 JUMP JUMPDEST JUMPDEST PUSH2 0x7A6 DUP7 DUP3 DUP8 ADD PUSH2 0x6C1 JUMP JUMPDEST SWAP2 POP POP SWAP3 POP SWAP3 POP SWAP3 JUMP JUMPDEST PUSH2 0x7B9 DUP2 PUSH2 0x6EF JUMP JUMPDEST DUP3 MSTORE POP POP JUMP JUMPDEST PUSH1 0x0 PUSH1 0x20 DUP3 ADD SWAP1 POP PUSH2 0x7D4 PUSH1 0x0 DUP4 ADD DUP5 PUSH2 0x7B0 JUMP JUMPDEST SWAP3 SWAP2 POP POP JUMP JUMPDEST PUSH1 0x0 PUSH20 0xFFFFFFFFFFFFFFFFFFFFFFFFFFFFFFFFFFFFFFFF DUP3 AND SWAP1 POP SWAP2 SWAP1 POP JUMP JUMPDEST PUSH1 0x0 PUSH2 0x805 DUP3 PUSH2 0x7DA JUMP JUMPDEST SWAP1 POP SWAP2 SWAP1 POP JUMP JUMPDEST PUSH2 0x815 DUP2 PUSH2 0x7FA JUMP JUMPDEST DUP2 EQ PUSH2 0x820 JUMPI PUSH1 0x0 DUP1 REVERT JUMPDEST POP JUMP JUMPDEST PUSH1 0x0 DUP2 CALLDATALOAD SWAP1 POP PUSH2 0x832 DUP2 PUSH2 0x80C JUMP JUMPDEST SWAP3 SWAP2 POP POP JUMP JUMPDEST PUSH1 0x0 PUSH1 0x20 DUP3 DUP5 SUB SLT ISZERO PUSH2 0x84E JUMPI PUSH2 0x84D PUSH2 0x59F JUMP JUMPDEST JUMPDEST PUSH1 0x0 PUSH2 0x85C DUP5 DUP3 DUP6 ADD PUSH2 0x823 JUMP JUMPDEST SWAP2 POP POP SWAP3 SWAP2 POP POP JUMP JUMPDEST PUSH1 0x0 DUP2 MLOAD SWAP1 POP SWAP2 SWAP1 POP JUMP JUMPDEST PUSH1 0x0 DUP3 DUP3 MSTORE PUSH1 0x20 DUP3 ADD SWAP1 POP SWAP3 SWAP2 POP POP JUMP JUMPDEST PUSH1 0x0 JUMPDEST DUP4 DUP2 LT ISZERO PUSH2 0x89F JUMPI DUP1 DUP3 ADD MLOAD DUP2 DUP5 ADD MSTORE PUSH1 0x20 DUP2 ADD SWAP1 POP PUSH2 0x884 JUMP JUMPDEST PUSH1 0x0 DUP5 DUP5 ADD MSTORE POP POP POP POP JUMP JUMPDEST PUSH1 0x0 PUSH2 0x8B6 DUP3 PUSH2 0x865 JUMP JUMPDEST PUSH2 0x8C0 DUP2 DUP6 PUSH2 0x870 JUMP JUMPDEST SWAP4 POP PUSH2 0x8D0 DUP2 DUP6 PUSH1 0x20 DUP7 ADD PUSH2 0x881 JUMP JUMPDEST PUSH2 0x8D9 DUP2 PUSH2 0x5B3 JUMP JUMPDEST DUP5 ADD SWAP2 POP POP SWAP3 SWAP2 POP POP JUMP JUMPDEST PUSH1 0x0 PUSH1 0x60 DUP3 ADD SWAP1 POP DUP2 DUP2 SUB PUSH1 0x0 DUP4 ADD MSTORE PUSH2 0x8FE DUP2 DUP7 PUSH2 0x8AB JUMP JUMPDEST SWAP1 POP PUSH2 0x90D PUSH1 0x20 DUP4 ADD DUP6 PUSH2 0x7B0 JUMP JUMPDEST DUP2 DUP2 SUB PUSH1 0x40 DUP4 ADD MSTORE PUSH2 0x91F DUP2 DUP5 PUSH2 0x8AB JUMP JUMPDEST SWAP1 POP SWAP5 SWAP4 POP POP POP POP JUMP JUMPDEST PUSH1 0x0 PUSH1 0x20 DUP3 DUP5 SUB SLT ISZERO PUSH2 0x93F JUMPI PUSH2 0x93E PUSH2 0x59F JUMP JUMPDEST JUMPDEST PUSH1 0x0 PUSH2 0x94D DUP5 DUP3 DUP6 ADD PUSH2 0x710 JUMP JUMPDEST SWAP2 POP POP SWAP3 SWAP2 POP POP JUMP JUMPDEST PUSH2 0x95F DUP2 PUSH2 0x7FA JUMP JUMPDEST DUP3 MSTORE POP POP JUMP JUMPDEST PUSH1 0x0 PUSH1 0x20 DUP3 ADD SWAP1 POP PUSH2 0x97A PUSH1 0x0 DUP4 ADD DUP5 PUSH2 0x956 JUMP JUMPDEST SWAP3 SWAP2 POP POP JUMP JUMPDEST PUSH32 0x416765206D7573742062652067726561746572207468616E207A65726F000000 PUSH1 0x0 DUP3 ADD MSTORE POP JUMP JUMPDEST PUSH1 0x0 PUSH2 0x9B6 PUSH1 0x1D DUP4 PUSH2 0x870 JUMP JUMPDEST SWAP2 POP PUSH2 0x9C1 DUP3 PUSH2 0x980 JUMP JUMPDEST PUSH1 0x20 DUP3 ADD SWAP1 POP SWAP2 SWAP1 POP JUMP JUMPDEST PUSH1 0x0 PUSH1 0x20 DUP3 ADD SWAP1 POP DUP2 DUP2 SUB PUSH1 0x0 DUP4 ADD MSTORE PUSH2 0x9E5 DUP2 PUSH2 0x9A9 JUMP JUMPDEST SWAP1 POP SWAP2 SWAP1 POP JUMP JUMPDEST PUSH32 0x53747564656E74206461746120646F6573206E6F742065786973740000000000 PUSH1 0x0 DUP3 ADD MSTORE POP JUMP JUMPDEST PUSH1 0x0 PUSH2 0xA22 PUSH1 0x1B DUP4 PUSH2 0x870 JUMP JUMPDEST SWAP2 POP PUSH2 0xA2D DUP3 PUSH2 0x9EC JUMP JUMPDEST PUSH1 0x20 DUP3 ADD SWAP1 POP SWAP2 SWAP1 POP JUMP JUMPDEST PUSH1 0x0 PUSH1 0x20 DUP3 ADD SWAP1 POP DUP2 DUP2 SUB PUSH1 0x0 DUP4 ADD MSTORE PUSH2 0xA51 DUP2 PUSH2 0xA15 JUMP JUMPDEST SWAP1 POP SWAP2 SWAP1 POP JUMP JUMPDEST PUSH32 0x4E487B7100000000000000000000000000000000000000000000000000000000 PUSH1 0x0 MSTORE PUSH1 0x22 PUSH1 0x4 MSTORE PUSH1 0x24 PUSH1 0x0 REVERT JUMPDEST PUSH1 0x0 PUSH1 0x2 DUP3 DIV SWAP1 POP PUSH1 0x1 DUP3 AND DUP1 PUSH2 0xA9F JUMPI PUSH1 0x7F DUP3 AND SWAP2 POP JUMPDEST PUSH1 0x20 DUP3 LT DUP2 SUB PUSH2 0xAB2 JUMPI PUSH2 0xAB1 PUSH2 0xA58 JUMP JUMPDEST JUMPDEST POP SWAP2 SWAP1 POP JUMP JUMPDEST PUSH1 0x0 DUP2 SWAP1 POP DUP2 PUSH1 0x0 MSTORE PUSH1 0x20 PUSH1 0x0 KECCAK256 SWAP1 POP SWAP2 SWAP1 POP JUMP JUMPDEST PUSH1 0x0 PUSH1 0x20 PUSH1 0x1F DUP4 ADD DIV SWAP1 POP SWAP2 SWAP1 POP JUMP JUMPDEST PUSH1 0x0 DUP3 DUP3 SHL SWAP1 POP SWAP3 SWAP2 POP POP JUMP JUMPDEST PUSH1 0x0 PUSH1 0x8 DUP4 MUL PUSH2 0xB1A PUSH32 0xFFFFFFFFFFFFFFFFFFFFFFFFFFFFFFFFFFFFFFFFFFFFFFFFFFFFFFFFFFFFFFFF DUP3 PUSH2 0xADD JUMP JUMPDEST PUSH2 0xB24 DUP7 DUP4 PUSH2 0xADD JUMP JUMPDEST SWAP6 POP DUP1 NOT DUP5 AND SWAP4 POP DUP1 DUP7 AND DUP5 OR SWAP3 POP POP POP SWAP4 SWAP3 POP POP POP JUMP JUMPDEST PUSH1 0x0 DUP2 SWAP1 POP SWAP2 SWAP1 POP JUMP JUMPDEST PUSH1 0x0 PUSH2 0xB61 PUSH2 0xB5C PUSH2 0xB57 DUP5 PUSH2 0x6EF JUMP JUMPDEST PUSH2 0xB3C JUMP JUMPDEST PUSH2 0x6EF JUMP JUMPDEST SWAP1 POP SWAP2 SWAP1 POP JUMP JUMPDEST PUSH1 0x0 DUP2 SWAP1 POP SWAP2 SWAP1 POP JUMP JUMPDEST PUSH2 0xB7B DUP4 PUSH2 0xB46 JUMP JUMPDEST PUSH2 0xB8F PUSH2 0xB87 DUP3 PUSH2 0xB68 JUMP JUMPDEST DUP5 DUP5 SLOAD PUSH2 0xAEA JUMP JUMPDEST DUP3 SSTORE POP POP POP POP JUMP JUMPDEST PUSH1 0x0 SWAP1 JUMP JUMPDEST PUSH2 0xBA4 PUSH2 0xB97 JUMP JUMPDEST PUSH2 0xBAF DUP2 DUP5 DUP5 PUSH2 0xB72 JUMP JUMPDEST POP POP POP JUMP JUMPDEST JUMPDEST DUP2 DUP2 LT ISZERO PUSH2 0xBD3 JUMPI PUSH2 0xBC8 PUSH1 0x0 DUP3 PUSH2 0xB9C JUMP JUMPDEST PUSH1 0x1 DUP2 ADD SWAP1 POP PUSH2 0xBB5 JUMP JUMPDEST POP POP JUMP JUMPDEST PUSH1 0x1F DUP3 GT ISZERO PUSH2 0xC18 JUMPI PUSH2 0xBE9 DUP2 PUSH2 0xAB8 JUMP JUMPDEST PUSH2 0xBF2 DUP5 PUSH2 0xACD JUMP JUMPDEST DUP2 ADD PUSH1 0x20 DUP6 LT ISZERO PUSH2 0xC01 JUMPI DUP2 SWAP1 POP JUMPDEST PUSH2 0xC15 PUSH2 0xC0D DUP6 PUSH2 0xACD JUMP JUMPDEST DUP4 ADD DUP3 PUSH2 0xBB4 JUMP JUMPDEST POP POP JUMPDEST POP POP POP JUMP JUMPDEST PUSH1 0x0 DUP3 DUP3 SHR SWAP1 POP SWAP3 SWAP2 POP POP JUMP JUMPDEST PUSH1 0x0 PUSH2 0xC3B PUSH1 0x0 NOT DUP5 PUSH1 0x8 MUL PUSH2 0xC1D JUMP JUMPDEST NOT DUP1 DUP4 AND SWAP2 POP POP SWAP3 SWAP2 POP POP JUMP JUMPDEST PUSH1 0x0 PUSH2 0xC54 DUP4 DUP4 PUSH2 0xC2A JUMP JUMPDEST SWAP2 POP DUP3 PUSH1 0x2 MUL DUP3 OR SWAP1 POP SWAP3 SWAP2 POP POP JUMP JUMPDEST PUSH2 0xC6D DUP3 PUSH2 0x865 JUMP JUMPDEST PUSH8 0xFFFFFFFFFFFFFFFF DUP2 GT ISZERO PUSH2 0xC86 JUMPI PUSH2 0xC85 PUSH2 0x5C4 JUMP JUMPDEST JUMPDEST PUSH2 0xC90 DUP3 SLOAD PUSH2 0xA87 JUMP JUMPDEST PUSH2 0xC9B DUP3 DUP3 DUP6 PUSH2 0xBD7 JUMP JUMPDEST PUSH1 0x0 PUSH1 0x20 SWAP1 POP PUSH1 0x1F DUP4 GT PUSH1 0x1 DUP2 EQ PUSH2 0xCCE JUMPI PUSH1 0x0 DUP5 ISZERO PUSH2 0xCBC JUMPI DUP3 DUP8 ADD MLOAD SWAP1 POP JUMPDEST PUSH2 0xCC6 DUP6 DUP3 PUSH2 0xC48 JUMP JUMPDEST DUP7 SSTORE POP PUSH2 0xD2E JUMP JUMPDEST PUSH1 0x1F NOT DUP5 AND PUSH2 0xCDC DUP7 PUSH2 0xAB8 JUMP JUMPDEST PUSH1 0x0 JUMPDEST DUP3 DUP2 LT ISZERO PUSH2 0xD04 JUMPI DUP5 DUP10 ADD MLOAD DUP3 SSTORE PUSH1 0x1 DUP3 ADD SWAP2 POP PUSH1 0x20 DUP6 ADD SWAP5 POP PUSH1 0x20 DUP2 ADD SWAP1 POP PUSH2 0xCDF JUMP JUMPDEST DUP7 DUP4 LT ISZERO PUSH2 0xD21 JUMPI DUP5 DUP10 ADD MLOAD PUSH2 0xD1D PUSH1 0x1F DUP10 AND DUP3 PUSH2 0xC2A JUMP JUMPDEST DUP4 SSTORE POP JUMPDEST PUSH1 0x1 PUSH1 0x2 DUP9 MUL ADD DUP9 SSTORE POP POP POP JUMPDEST POP POP POP POP POP POP JUMP INVALID LOG2 PUSH5 0x6970667358 0x22 SLT KECCAK256 0xB2 DUP6 0xC3 PUSH28 0x3BD8399836CC2150A92FF25593D801950ABF9F39182FA508124D0C0D PUSH5 0x736F6C6343 STOP ADDMOD SLT STOP CALLER "
				},
				"gasEstimates": {
					"creation": {
						"codeDepositCost": "687200",
						"executionCost": "721",
						"totalCost": "687921"
					},
					"external": {
						"addStudent(string,uint256,string)": "infinite",
						"getNumberOfStudents()": "2445",
						"studentAddresses(uint256)": "5000",
						"students(address)": "infinite",
						"updateStudent(string,uint256,string)": "infinite"
					}
				},
				"methodIdentifiers": {
					"addStudent(string,uint256,string)": "ed32a8a1",
					"getNumberOfStudents()": "945b7bd6",
					"studentAddresses(uint256)": "b5ab682d",
					"students(address)": "a6c807a9",
					"updateStudent(string,uint256,string)": "12232cb0"
				}
			},
			"storageLayout": {
				"storage": [
					{
						"astId": 13,
						"contract": "multiplestudentrecord.sol:StudentRecord",
						"label": "students",
						"offset": 0,
						"slot": "0",
						"type": "t_mapping(t_address,t_struct(Student)8_storage)"
					},
					{
						"astId": 16,
						"contract": "multiplestudentrecord.sol:StudentRecord",
						"label": "studentAddresses",
						"offset": 0,
						"slot": "1",
						"type": "t_array(t_address)dyn_storage"
					}
				],
				"types": {
					"t_address": {
						"encoding": "inplace",
						"label": "address",
						"numberOfBytes": "20"
					},
					"t_array(t_address)dyn_storage": {
						"base": "t_address",
						"encoding": "dynamic_array",
						"label": "address[]",
						"numberOfBytes": "32"
					},
					"t_mapping(t_address,t_struct(Student)8_storage)": {
						"encoding": "mapping",
						"key": "t_address",
						"label": "mapping(address => struct StudentRecord.Student)",
						"numberOfBytes": "32",
						"value": "t_struct(Student)8_storage"
					},
					"t_string_storage": {
						"encoding": "bytes",
						"label": "string",
						"numberOfBytes": "32"
					},
					"t_struct(Student)8_storage": {
						"encoding": "inplace",
						"label": "struct StudentRecord.Student",
						"members": [
							{
								"astId": 3,
								"contract": "multiplestudentrecord.sol:StudentRecord",
								"label": "name",
								"offset": 0,
								"slot": "0",
								"type": "t_string_storage"
							},
							{
								"astId": 5,
								"contract": "multiplestudentrecord.sol:StudentRecord",
								"label": "age",
								"offset": 0,
								"slot": "1",
								"type": "t_uint256"
							},
							{
								"astId": 7,
								"contract": "multiplestudentrecord.sol:StudentRecord",
								"label": "major",
								"offset": 0,
								"slot": "2",
								"type": "t_string_storage"
							}
						],
						"numberOfBytes": "96"
					},
					"t_uint256": {
						"encoding": "inplace",
						"label": "uint256",
						"numberOfBytes": "32"
					}
				}
			},
			"userdoc": {
				"kind": "user",
				"methods": {},
				"version": 1
			}
		}
	}
}