{
	"whileloop.sol": {
		"Wlloop": {
			"abi": [
				{
					"inputs": [
						{
							"internalType": "uint256",
							"name": "",
							"type": "uint256"
						}
					],
					"name": "arr",
					"outputs": [
						{
							"internalType": "uint256",
							"name": "",
							"type": "uint256"
						}
					],
					"stateMutability": "view",
					"type": "function"
				},
				{
					"inputs": [],
					"name": "count",
					"outputs": [
						{
							"internalType": "uint256",
							"name": "",
							"type": "uint256"
						}
					],
					"stateMutability": "view",
					"type": "function"
				},
				{
					"inputs": [],
					"name": "loop",
					"outputs": [],
					"stateMutability": "nonpayable",
					"type": "function"
				}
			],
			"devdoc": {
				"kind": "dev",
				"methods": {},
				"version": 1
			},
			"evm": {
				"assembly": "    /* \"whileloop.sol\":76:237  contract Wlloop{... */\n  mstore(0x40, 0x80)\n  callvalue\n  dup1\n  iszero\n  tag_1\n  jumpi\n  0x00\n  dup1\n  revert\ntag_1:\n  pop\n  dataSize(sub_0)\n  dup1\n  dataOffset(sub_0)\n  0x00\n  codecopy\n  0x00\n  return\nstop\n\nsub_0: assembly {\n        /* \"whileloop.sol\":76:237  contract Wlloop{... */\n      mstore(0x40, 0x80)\n      callvalue\n      dup1\n      iszero\n      tag_1\n      jumpi\n      0x00\n      dup1\n      revert\n    tag_1:\n      pop\n      jumpi(tag_2, lt(calldatasize, 0x04))\n      shr(0xe0, calldataload(0x00))\n      dup1\n      0x06661abd\n      eq\n      tag_3\n      jumpi\n      dup1\n      0x71e5ee5f\n      eq\n      tag_4\n      jumpi\n      dup1\n      0xa92100cb\n      eq\n      tag_5\n      jumpi\n    tag_2:\n      0x00\n      dup1\n      revert\n        /* \"whileloop.sol\":115:132  uint public count */\n    tag_3:\n      tag_6\n      tag_7\n      jump\t// in\n    tag_6:\n      mload(0x40)\n      tag_8\n      swap2\n      swap1\n      tag_9\n      jump\t// in\n    tag_8:\n      mload(0x40)\n      dup1\n      swap2\n      sub\n      swap1\n      return\n        /* \"whileloop.sol\":94:112  uint[3] public arr */\n    tag_4:\n      tag_10\n      0x04\n      dup1\n      calldatasize\n      sub\n      dup2\n      add\n      swap1\n      tag_11\n      swap2\n      swap1\n      tag_12\n      jump\t// in\n    tag_11:\n      tag_13\n      jump\t// in\n    tag_10:\n      mload(0x40)\n      tag_14\n      swap2\n      swap1\n      tag_9\n      jump\t// in\n    tag_14:\n      mload(0x40)\n      dup1\n      swap2\n      sub\n      swap1\n      return\n        /* \"whileloop.sol\":137:234  function loop() public ... */\n    tag_5:\n      tag_15\n      tag_16\n      jump\t// in\n    tag_15:\n      stop\n        /* \"whileloop.sol\":115:132  uint public count */\n    tag_7:\n      sload(0x03)\n      dup2\n      jump\t// out\n        /* \"whileloop.sol\":94:112  uint[3] public arr */\n    tag_13:\n      0x00\n      dup2\n      0x03\n      dup2\n      lt\n      tag_17\n      jumpi\n      0x00\n      dup1\n      revert\n    tag_17:\n      add\n      0x00\n      swap2\n      pop\n      swap1\n      pop\n      sload\n      dup2\n      jump\t// out\n        /* \"whileloop.sol\":137:234  function loop() public ... */\n    tag_16:\n        /* \"whileloop.sol\":165:231  while(count < arr.length){... */\n    tag_20:\n        /* \"whileloop.sol\":179:189  arr.length */\n      0x03\n        /* \"whileloop.sol\":171:176  count */\n      dup1\n      sload\n        /* \"whileloop.sol\":171:189  count < arr.length */\n      lt\n        /* \"whileloop.sol\":165:231  while(count < arr.length){... */\n      iszero\n      tag_21\n      jumpi\n        /* \"whileloop.sol\":208:213  count */\n      sload(0x03)\n        /* \"whileloop.sol\":197:200  arr */\n      0x00\n        /* \"whileloop.sol\":201:206  count */\n      sload(0x03)\n        /* \"whileloop.sol\":197:207  arr[count] */\n      0x03\n      dup2\n      lt\n      tag_22\n      jumpi\n      tag_23\n      tag_24\n      jump\t// in\n    tag_23:\n    tag_22:\n      add\n        /* \"whileloop.sol\":197:213  arr[count]=count */\n      dup2\n      swap1\n      sstore\n      pop\n        /* \"whileloop.sol\":220:225  count */\n      0x03\n      0x00\n        /* \"whileloop.sol\":220:227  count++ */\n      dup2\n      sload\n      dup1\n      swap3\n      swap2\n      swap1\n      tag_26\n      swap1\n      tag_27\n      jump\t// in\n    tag_26:\n      swap2\n      swap1\n      pop\n      sstore\n      pop\n        /* \"whileloop.sol\":165:231  while(count < arr.length){... */\n      jump(tag_20)\n    tag_21:\n        /* \"whileloop.sol\":137:234  function loop() public ... */\n      jump\t// out\n        /* \"#utility.yul\":7:84   */\n    tag_28:\n        /* \"#utility.yul\":44:51   */\n      0x00\n        /* \"#utility.yul\":73:78   */\n      dup2\n        /* \"#utility.yul\":62:78   */\n      swap1\n      pop\n        /* \"#utility.yul\":7:84   */\n      swap2\n      swap1\n      pop\n      jump\t// out\n        /* \"#utility.yul\":90:208   */\n    tag_29:\n        /* \"#utility.yul\":177:201   */\n      tag_39\n        /* \"#utility.yul\":195:200   */\n      dup2\n        /* \"#utility.yul\":177:201   */\n      tag_28\n      jump\t// in\n    tag_39:\n        /* \"#utility.yul\":172:175   */\n      dup3\n        /* \"#utility.yul\":165:202   */\n      mstore\n        /* \"#utility.yul\":90:208   */\n      pop\n      pop\n      jump\t// out\n        /* \"#utility.yul\":214:436   */\n    tag_9:\n        /* \"#utility.yul\":307:311   */\n      0x00\n        /* \"#utility.yul\":345:347   */\n      0x20\n        /* \"#utility.yul\":334:343   */\n      dup3\n        /* \"#utility.yul\":330:348   */\n      add\n        /* \"#utility.yul\":322:348   */\n      swap1\n      pop\n        /* \"#utility.yul\":358:429   */\n      tag_41\n        /* \"#utility.yul\":426:427   */\n      0x00\n        /* \"#utility.yul\":415:424   */\n      dup4\n        /* \"#utility.yul\":411:428   */\n      add\n        /* \"#utility.yul\":402:408   */\n      dup5\n        /* \"#utility.yul\":358:429   */\n      tag_29\n      jump\t// in\n    tag_41:\n        /* \"#utility.yul\":214:436   */\n      swap3\n      swap2\n      pop\n      pop\n      jump\t// out\n        /* \"#utility.yul\":523:640   */\n    tag_31:\n        /* \"#utility.yul\":632:633   */\n      0x00\n        /* \"#utility.yul\":629:630   */\n      dup1\n        /* \"#utility.yul\":622:634   */\n      revert\n        /* \"#utility.yul\":769:891   */\n    tag_33:\n        /* \"#utility.yul\":842:866   */\n      tag_46\n        /* \"#utility.yul\":860:865   */\n      dup2\n        /* \"#utility.yul\":842:866   */\n      tag_28\n      jump\t// in\n    tag_46:\n        /* \"#utility.yul\":835:840   */\n      dup2\n        /* \"#utility.yul\":832:867   */\n      eq\n        /* \"#utility.yul\":822:885   */\n      tag_47\n      jumpi\n        /* \"#utility.yul\":881:882   */\n      0x00\n        /* \"#utility.yul\":878:879   */\n      dup1\n        /* \"#utility.yul\":871:883   */\n      revert\n        /* \"#utility.yul\":822:885   */\n    tag_47:\n        /* \"#utility.yul\":769:891   */\n      pop\n      jump\t// out\n        /* \"#utility.yul\":897:1036   */\n    tag_34:\n        /* \"#utility.yul\":943:948   */\n      0x00\n        /* \"#utility.yul\":981:987   */\n      dup2\n        /* \"#utility.yul\":968:988   */\n      calldataload\n        /* \"#utility.yul\":959:988   */\n      swap1\n      pop\n        /* \"#utility.yul\":997:1030   */\n      tag_49\n        /* \"#utility.yul\":1024:1029   */\n      dup2\n        /* \"#utility.yul\":997:1030   */\n      tag_33\n      jump\t// in\n    tag_49:\n        /* \"#utility.yul\":897:1036   */\n      swap3\n      swap2\n      pop\n      pop\n      jump\t// out\n        /* \"#utility.yul\":1042:1371   */\n    tag_12:\n        /* \"#utility.yul\":1101:1107   */\n      0x00\n        /* \"#utility.yul\":1150:1152   */\n      0x20\n        /* \"#utility.yul\":1138:1147   */\n      dup3\n        /* \"#utility.yul\":1129:1136   */\n      dup5\n        /* \"#utility.yul\":1125:1148   */\n      sub\n        /* \"#utility.yul\":1121:1153   */\n      slt\n        /* \"#utility.yul\":1118:1237   */\n      iszero\n      tag_51\n      jumpi\n        /* \"#utility.yul\":1156:1235   */\n      tag_52\n      tag_31\n      jump\t// in\n    tag_52:\n        /* \"#utility.yul\":1118:1237   */\n    tag_51:\n        /* \"#utility.yul\":1276:1277   */\n      0x00\n        /* \"#utility.yul\":1301:1354   */\n      tag_53\n        /* \"#utility.yul\":1346:1353   */\n      dup5\n        /* \"#utility.yul\":1337:1343   */\n      dup3\n        /* \"#utility.yul\":1326:1335   */\n      dup6\n        /* \"#utility.yul\":1322:1344   */\n      add\n        /* \"#utility.yul\":1301:1354   */\n      tag_34\n      jump\t// in\n    tag_53:\n        /* \"#utility.yul\":1291:1354   */\n      swap2\n      pop\n        /* \"#utility.yul\":1247:1364   */\n      pop\n        /* \"#utility.yul\":1042:1371   */\n      swap3\n      swap2\n      pop\n      pop\n      jump\t// out\n        /* \"#utility.yul\":1377:1557   */\n    tag_24:\n        /* \"#utility.yul\":1425:1502   */\n      0x4e487b7100000000000000000000000000000000000000000000000000000000\n        /* \"#utility.yul\":1422:1423   */\n      0x00\n        /* \"#utility.yul\":1415:1503   */\n      mstore\n        /* \"#utility.yul\":1522:1526   */\n      0x32\n        /* \"#utility.yul\":1519:1520   */\n      0x04\n        /* \"#utility.yul\":1512:1527   */\n      mstore\n        /* \"#utility.yul\":1546:1550   */\n      0x24\n        /* \"#utility.yul\":1543:1544   */\n      0x00\n        /* \"#utility.yul\":1536:1551   */\n      revert\n        /* \"#utility.yul\":1563:1743   */\n    tag_35:\n        /* \"#utility.yul\":1611:1688   */\n      0x4e487b7100000000000000000000000000000000000000000000000000000000\n        /* \"#utility.yul\":1608:1609   */\n      0x00\n        /* \"#utility.yul\":1601:1689   */\n      mstore\n        /* \"#utility.yul\":1708:1712   */\n      0x11\n        /* \"#utility.yul\":1705:1706   */\n      0x04\n        /* \"#utility.yul\":1698:1713   */\n      mstore\n        /* \"#utility.yul\":1732:1736   */\n      0x24\n        /* \"#utility.yul\":1729:1730   */\n      0x00\n        /* \"#utility.yul\":1722:1737   */\n      revert\n        /* \"#utility.yul\":1749:1982   */\n    tag_27:\n        /* \"#utility.yul\":1788:1791   */\n      0x00\n        /* \"#utility.yul\":1811:1835   */\n      tag_57\n        /* \"#utility.yul\":1829:1834   */\n      dup3\n        /* \"#utility.yul\":1811:1835   */\n      tag_28\n      jump\t// in\n    tag_57:\n        /* \"#utility.yul\":1802:1835   */\n      swap2\n      pop\n        /* \"#utility.yul\":1857:1923   */\n      0xffffffffffffffffffffffffffffffffffffffffffffffffffffffffffffffff\n        /* \"#utility.yul\":1850:1855   */\n      dup3\n        /* \"#utility.yul\":1847:1924   */\n      sub\n        /* \"#utility.yul\":1844:1947   */\n      tag_58\n      jumpi\n        /* \"#utility.yul\":1927:1945   */\n      tag_59\n      tag_35\n      jump\t// in\n    tag_59:\n        /* \"#utility.yul\":1844:1947   */\n    tag_58:\n        /* \"#utility.yul\":1974:1975   */\n      0x01\n        /* \"#utility.yul\":1967:1972   */\n      dup3\n        /* \"#utility.yul\":1963:1976   */\n      add\n        /* \"#utility.yul\":1956:1976   */\n      swap1\n      pop\n        /* \"#utility.yul\":1749:1982   */\n      swap2\n      swap1\n      pop\n      jump\t// out\n\n    auxdata: 0xa2646970667358221220424790ba253fb36a8eb929e62d110d5853f6246d78f79477789fa8446ef0bc4864736f6c63430008120033\n}\n",
				"bytecode": {
					"linkReferences": {},
					"object": "608060405234801561001057600080fd5b50610275806100206000396000f3fe608060405234801561001057600080fd5b50600436106100415760003560e01c806306661abd1461004657806371e5ee5f14610064578063a92100cb14610094575b600080fd5b61004e61009e565b60405161005b9190610120565b60405180910390f35b61007e6004803603810190610079919061016c565b6100a4565b60405161008b9190610120565b60405180910390f35b61009c6100bf565b005b60035481565b600081600381106100b457600080fd5b016000915090505481565b5b600380541015610105576003546000600354600381106100e3576100e2610199565b5b0181905550600360008154809291906100fb906101f7565b91905055506100c0565b565b6000819050919050565b61011a81610107565b82525050565b60006020820190506101356000830184610111565b92915050565b600080fd5b61014981610107565b811461015457600080fd5b50565b60008135905061016681610140565b92915050565b6000602082840312156101825761018161013b565b5b600061019084828501610157565b91505092915050565b7f4e487b7100000000000000000000000000000000000000000000000000000000600052603260045260246000fd5b7f4e487b7100000000000000000000000000000000000000000000000000000000600052601160045260246000fd5b600061020282610107565b91507fffffffffffffffffffffffffffffffffffffffffffffffffffffffffffffffff8203610234576102336101c8565b5b60018201905091905056fea2646970667358221220424790ba253fb36a8eb929e62d110d5853f6246d78f79477789fa8446ef0bc4864736f6c63430008120033",
					"opcodes": "PUSH1 0x80 PUSH1 0x40 MSTORE CALLVALUE DUP1 ISZERO PUSH2 0x10 JUMPI PUSH1 0x0 DUP1 REVERT JUMPDEST POP PUSH2 0x275 DUP1 PUSH2 0x20 PUSH1 0x0 CODECOPY PUSH1 0x0 RETURN INVALID PUSH1 0x80 PUSH1 0x40 MSTORE CALLVALUE DUP1 ISZERO PUSH2 0x10 JUMPI PUSH1 0x0 DUP1 REVERT JUMPDEST POP PUSH1 0x4 CALLDATASIZE LT PUSH2 0x41 JUMPI PUSH1 0x0 CALLDATALOAD PUSH1 0xE0 SHR DUP1 PUSH4 0x6661ABD EQ PUSH2 0x46 JUMPI DUP1 PUSH4 0x71E5EE5F EQ PUSH2 0x64 JUMPI DUP1 PUSH4 0xA92100CB EQ PUSH2 0x94 JUMPI JUMPDEST PUSH1 0x0 DUP1 REVERT JUMPDEST PUSH2 0x4E PUSH2 0x9E JUMP JUMPDEST PUSH1 0x40 MLOAD PUSH2 0x5B SWAP2 SWAP1 PUSH2 0x120 JUMP JUMPDEST PUSH1 0x40 MLOAD DUP1 SWAP2 SUB SWAP1 RETURN JUMPDEST PUSH2 0x7E PUSH1 0x4 DUP1 CALLDATASIZE SUB DUP2 ADD SWAP1 PUSH2 0x79 SWAP2 SWAP1 PUSH2 0x16C JUMP JUMPDEST PUSH2 0xA4 JUMP JUMPDEST PUSH1 0x40 MLOAD PUSH2 0x8B SWAP2 SWAP1 PUSH2 0x120 JUMP JUMPDEST PUSH1 0x40 MLOAD DUP1 SWAP2 SUB SWAP1 RETURN JUMPDEST PUSH2 0x9C PUSH2 0xBF JUMP JUMPDEST STOP JUMPDEST PUSH1 0x3 SLOAD DUP2 JUMP JUMPDEST PUSH1 0x0 DUP2 PUSH1 0x3 DUP2 LT PUSH2 0xB4 JUMPI PUSH1 0x0 DUP1 REVERT JUMPDEST ADD PUSH1 0x0 SWAP2 POP SWAP1 POP SLOAD DUP2 JUMP JUMPDEST JUMPDEST PUSH1 0x3 DUP1 SLOAD LT ISZERO PUSH2 0x105 JUMPI PUSH1 0x3 SLOAD PUSH1 0x0 PUSH1 0x3 SLOAD PUSH1 0x3 DUP2 LT PUSH2 0xE3 JUMPI PUSH2 0xE2 PUSH2 0x199 JUMP JUMPDEST JUMPDEST ADD DUP2 SWAP1 SSTORE POP PUSH1 0x3 PUSH1 0x0 DUP2 SLOAD DUP1 SWAP3 SWAP2 SWAP1 PUSH2 0xFB SWAP1 PUSH2 0x1F7 JUMP JUMPDEST SWAP2 SWAP1 POP SSTORE POP PUSH2 0xC0 JUMP JUMPDEST JUMP JUMPDEST PUSH1 0x0 DUP2 SWAP1 POP SWAP2 SWAP1 POP JUMP JUMPDEST PUSH2 0x11A DUP2 PUSH2 0x107 JUMP JUMPDEST DUP3 MSTORE POP POP JUMP JUMPDEST PUSH1 0x0 PUSH1 0x20 DUP3 ADD SWAP1 POP PUSH2 0x135 PUSH1 0x0 DUP4 ADD DUP5 PUSH2 0x111 JUMP JUMPDEST SWAP3 SWAP2 POP POP JUMP JUMPDEST PUSH1 0x0 DUP1 REVERT JUMPDEST PUSH2 0x149 DUP2 PUSH2 0x107 JUMP JUMPDEST DUP2 EQ PUSH2 0x154 JUMPI PUSH1 0x0 DUP1 REVERT JUMPDEST POP JUMP JUMPDEST PUSH1 0x0 DUP2 CALLDATALOAD SWAP1 POP PUSH2 0x166 DUP2 PUSH2 0x140 JUMP JUMPDEST SWAP3 SWAP2 POP POP JUMP JUMPDEST PUSH1 0x0 PUSH1 0x20 DUP3 DUP5 SUB SLT ISZERO PUSH2 0x182 JUMPI PUSH2 0x181 PUSH2 0x13B JUMP JUMPDEST JUMPDEST PUSH1 0x0 PUSH2 0x190 DUP5 DUP3 DUP6 ADD PUSH2 0x157 JUMP JUMPDEST SWAP2 POP POP SWAP3 SWAP2 POP POP JUMP JUMPDEST PUSH32 0x4E487B7100000000000000000000000000000000000000000000000000000000 PUSH1 0x0 MSTORE PUSH1 0x32 PUSH1 0x4 MSTORE PUSH1 0x24 PUSH1 0x0 REVERT JUMPDEST PUSH32 0x4E487B7100000000000000000000000000000000000000000000000000000000 PUSH1 0x0 MSTORE PUSH1 0x11 PUSH1 0x4 MSTORE PUSH1 0x24 PUSH1 0x0 REVERT JUMPDEST PUSH1 0x0 PUSH2 0x202 DUP3 PUSH2 0x107 JUMP JUMPDEST SWAP2 POP PUSH32 0xFFFFFFFFFFFFFFFFFFFFFFFFFFFFFFFFFFFFFFFFFFFFFFFFFFFFFFFFFFFFFFFF DUP3 SUB PUSH2 0x234 JUMPI PUSH2 0x233 PUSH2 0x1C8 JUMP JUMPDEST JUMPDEST PUSH1 0x1 DUP3 ADD SWAP1 POP SWAP2 SWAP1 POP JUMP INVALID LOG2 PUSH5 0x6970667358 0x22 SLT KECCAK256 TIMESTAMP SELFBALANCE SWAP1 0xBA 0x25 EXTCODEHASH 0xB3 PUSH11 0x8EB929E62D110D5853F624 PUSH14 0x78F79477789FA8446EF0BC486473 PUSH16 0x6C634300081200330000000000000000 "
				},
				"gasEstimates": {
					"creation": {
						"codeDepositCost": "125800",
						"executionCost": "171",
						"totalCost": "125971"
					},
					"external": {
						"arr(uint256)": "infinite",
						"count()": "2407",
						"loop()": "infinite"
					}
				},
				"methodIdentifiers": {
					"arr(uint256)": "71e5ee5f",
					"count()": "06661abd",
					"loop()": "a92100cb"
				}
			},
			"storageLayout": {
				"storage": [
					{
						"astId": 5,
						"contract": "whileloop.sol:Wlloop",
						"label": "arr",
						"offset": 0,
						"slot": "0",
						"type": "t_array(t_uint256)3_storage"
					},
					{
						"astId": 7,
						"contract": "whileloop.sol:Wlloop",
						"label": "count",
						"offset": 0,
						"slot": "3",
						"type": "t_uint256"
					}
				],
				"types": {
					"t_array(t_uint256)3_storage": {
						"base": "t_uint256",
						"encoding": "inplace",
						"label": "uint256[3]",
						"numberOfBytes": "96"
					},
					"t_uint256": {
						"encoding": "inplace",
						"label": "uint256",
						"numberOfBytes": "32"
					}
				}
			},
			"userdoc": {
				"kind": "user",
				"methods": {},
				"version": 1
			}
		}
	}
}