{
	"studentconstcator.sol": {
		"StudentRecords": {
			"abi": [
				{
					"inputs": [],
					"stateMutability": "nonpayable",
					"type": "constructor"
				},
				{
					"inputs": [
						{
							"internalType": "uint256",
							"name": "_id",
							"type": "uint256"
						},
						{
							"internalType": "string",
							"name": "_name",
							"type": "string"
						},
						{
							"internalType": "uint256",
							"name": "_age",
							"type": "uint256"
						}
					],
					"name": "addStudent",
					"outputs": [],
					"stateMutability": "nonpayable",
					"type": "function"
				},
				{
					"inputs": [
						{
							"internalType": "uint256",
							"name": "_id",
							"type": "uint256"
						}
					],
					"name": "deletestudent",
					"outputs": [],
					"stateMutability": "nonpayable",
					"type": "function"
				},
				{
					"inputs": [
						{
							"internalType": "uint256",
							"name": "_id",
							"type": "uint256"
						}
					],
					"name": "getStudent",
					"outputs": [
						{
							"internalType": "uint256",
							"name": "",
							"type": "uint256"
						},
						{
							"internalType": "string",
							"name": "",
							"type": "string"
						},
						{
							"internalType": "uint256",
							"name": "",
							"type": "uint256"
						}
					],
					"stateMutability": "view",
					"type": "function"
				},
				{
					"inputs": [
						{
							"internalType": "uint256",
							"name": "",
							"type": "uint256"
						}
					],
					"name": "students",
					"outputs": [
						{
							"internalType": "uint256",
							"name": "id",
							"type": "uint256"
						},
						{
							"internalType": "string",
							"name": "name",
							"type": "string"
						},
						{
							"internalType": "uint256",
							"name": "age",
							"type": "uint256"
						}
					],
					"stateMutability": "view",
					"type": "function"
				},
				{
					"inputs": [],
					"name": "totalStudents",
					"outputs": [
						{
							"internalType": "uint256",
							"name": "",
							"type": "uint256"
						}
					],
					"stateMutability": "view",
					"type": "function"
				}
			],
			"devdoc": {
				"kind": "dev",
				"methods": {},
				"version": 1
			},
			"evm": {
				"assembly": "    /* \"studentconstcator.sol\":60:1334  contract StudentRecords {... */\n  mstore(0x40, 0x80)\n    /* \"studentconstcator.sol\":356:552  constructor() {... */\n  callvalue\n  dup1\n  iszero\n  tag_1\n  jumpi\n  0x00\n  dup1\n  revert\ntag_1:\n  pop\n    /* \"studentconstcator.sol\":444:470  addStudent(1, \"Alice\", 20) */\n  tag_4\n    /* \"studentconstcator.sol\":455:456  1 */\n  0x01\n    /* \"studentconstcator.sol\":444:470  addStudent(1, \"Alice\", 20) */\n  mload(0x40)\n  dup1\n  0x40\n  add\n  0x40\n  mstore\n  dup1\n  0x05\n  dup2\n  mstore\n  0x20\n  add\n  0x416c696365000000000000000000000000000000000000000000000000000000\n  dup2\n  mstore\n  pop\n    /* \"studentconstcator.sol\":467:469  20 */\n  0x14\n    /* \"studentconstcator.sol\":444:454  addStudent */\n  shl(0x20, tag_5)\n    /* \"studentconstcator.sol\":444:470  addStudent(1, \"Alice\", 20) */\n  0x20\n  shr\n  jump\t// in\ntag_4:\n    /* \"studentconstcator.sol\":481:505  addStudent(2, \"Bob\", 22) */\n  tag_6\n    /* \"studentconstcator.sol\":492:493  2 */\n  0x02\n    /* \"studentconstcator.sol\":481:505  addStudent(2, \"Bob\", 22) */\n  mload(0x40)\n  dup1\n  0x40\n  add\n  0x40\n  mstore\n  dup1\n  0x03\n  dup2\n  mstore\n  0x20\n  add\n  0x426f620000000000000000000000000000000000000000000000000000000000\n  dup2\n  mstore\n  pop\n    /* \"studentconstcator.sol\":502:504  22 */\n  0x16\n    /* \"studentconstcator.sol\":481:491  addStudent */\n  shl(0x20, tag_5)\n    /* \"studentconstcator.sol\":481:505  addStudent(2, \"Bob\", 22) */\n  0x20\n  shr\n  jump\t// in\ntag_6:\n    /* \"studentconstcator.sol\":516:544  addStudent(3, \"Charlie\", 21) */\n  tag_7\n    /* \"studentconstcator.sol\":527:528  3 */\n  0x03\n    /* \"studentconstcator.sol\":516:544  addStudent(3, \"Charlie\", 21) */\n  mload(0x40)\n  dup1\n  0x40\n  add\n  0x40\n  mstore\n  dup1\n  0x07\n  dup2\n  mstore\n  0x20\n  add\n  0x436861726c696500000000000000000000000000000000000000000000000000\n  dup2\n  mstore\n  pop\n    /* \"studentconstcator.sol\":541:543  21 */\n  0x15\n    /* \"studentconstcator.sol\":516:526  addStudent */\n  shl(0x20, tag_5)\n    /* \"studentconstcator.sol\":516:544  addStudent(3, \"Charlie\", 21) */\n  0x20\n  shr\n  jump\t// in\ntag_7:\n    /* \"studentconstcator.sol\":60:1334  contract StudentRecords {... */\n  jump(tag_8)\n    /* \"studentconstcator.sol\":560:944  function addStudent(uint _id, string memory _name, uint _age) public {... */\ntag_5:\n    /* \"studentconstcator.sol\":669:670  0 */\n  0x00\n    /* \"studentconstcator.sol\":648:656  students */\n  dup1\n    /* \"studentconstcator.sol\":648:661  students[_id] */\n  0x00\n    /* \"studentconstcator.sol\":657:660  _id */\n  dup6\n    /* \"studentconstcator.sol\":648:661  students[_id] */\n  dup2\n  mstore\n  0x20\n  add\n  swap1\n  dup2\n  mstore\n  0x20\n  add\n  0x00\n  keccak256\n    /* \"studentconstcator.sol\":648:665  students[_id].age */\n  0x02\n  add\n  sload\n    /* \"studentconstcator.sol\":648:670  students[_id].age == 0 */\n  eq\n    /* \"studentconstcator.sol\":640:714  require(students[_id].age == 0, \"Student with the same ID already exists\") */\n  tag_10\n  jumpi\n  mload(0x40)\n  0x08c379a000000000000000000000000000000000000000000000000000000000\n  dup2\n  mstore\n  0x04\n  add\n  tag_11\n  swap1\n  tag_12\n  jump\t// in\ntag_11:\n  mload(0x40)\n  dup1\n  swap2\n  sub\n  swap1\n  revert\ntag_10:\n    /* \"studentconstcator.sol\":735:760  Student memory newStudent */\n  0x00\n    /* \"studentconstcator.sol\":763:788  Student(_id, _name, _age) */\n  mload(0x40)\n  dup1\n  0x60\n  add\n  0x40\n  mstore\n  dup1\n    /* \"studentconstcator.sol\":771:774  _id */\n  dup6\n    /* \"studentconstcator.sol\":763:788  Student(_id, _name, _age) */\n  dup2\n  mstore\n  0x20\n  add\n    /* \"studentconstcator.sol\":776:781  _name */\n  dup5\n    /* \"studentconstcator.sol\":763:788  Student(_id, _name, _age) */\n  dup2\n  mstore\n  0x20\n  add\n    /* \"studentconstcator.sol\":783:787  _age */\n  dup4\n    /* \"studentconstcator.sol\":763:788  Student(_id, _name, _age) */\n  dup2\n  mstore\n  pop\n    /* \"studentconstcator.sol\":735:788  Student memory newStudent = Student(_id, _name, _age) */\n  swap1\n  pop\n    /* \"studentconstcator.sol\":815:825  newStudent */\n  dup1\n    /* \"studentconstcator.sol\":799:807  students */\n  0x00\n    /* \"studentconstcator.sol\":799:812  students[_id] */\n  dup1\n    /* \"studentconstcator.sol\":808:811  _id */\n  dup7\n    /* \"studentconstcator.sol\":799:812  students[_id] */\n  dup2\n  mstore\n  0x20\n  add\n  swap1\n  dup2\n  mstore\n  0x20\n  add\n  0x00\n  keccak256\n    /* \"studentconstcator.sol\":799:825  students[_id] = newStudent */\n  0x00\n  dup3\n  add\n  mload\n  dup2\n  0x00\n  add\n  sstore\n  0x20\n  dup3\n  add\n  mload\n  dup2\n  0x01\n  add\n  swap1\n  dup2\n  tag_13\n  swap2\n  swap1\n  tag_14\n  jump\t// in\ntag_13:\n  pop\n  0x40\n  dup3\n  add\n  mload\n  dup2\n  0x02\n  add\n  sstore\n  swap1\n  pop\n  pop\n    /* \"studentconstcator.sol\":879:892  totalStudents */\n  0x01\n  0x00\n    /* \"studentconstcator.sol\":879:894  totalStudents++ */\n  dup2\n  sload\n  dup1\n  swap3\n  swap2\n  swap1\n  tag_15\n  swap1\n  tag_16\n  jump\t// in\ntag_15:\n  swap2\n  swap1\n  pop\n  sstore\n  pop\n    /* \"studentconstcator.sol\":629:944  {... */\n  pop\n    /* \"studentconstcator.sol\":560:944  function addStudent(uint _id, string memory _name, uint _age) public {... */\n  pop\n  pop\n  pop\n  jump\t// out\n    /* \"#utility.yul\":7:176   */\ntag_17:\n    /* \"#utility.yul\":91:102   */\n  0x00\n    /* \"#utility.yul\":125:131   */\n  dup3\n    /* \"#utility.yul\":120:123   */\n  dup3\n    /* \"#utility.yul\":113:132   */\n  mstore\n    /* \"#utility.yul\":165:169   */\n  0x20\n    /* \"#utility.yul\":160:163   */\n  dup3\n    /* \"#utility.yul\":156:170   */\n  add\n    /* \"#utility.yul\":141:170   */\n  swap1\n  pop\n    /* \"#utility.yul\":7:176   */\n  swap3\n  swap2\n  pop\n  pop\n  jump\t// out\n    /* \"#utility.yul\":182:408   */\ntag_18:\n    /* \"#utility.yul\":322:356   */\n  0x53747564656e742077697468207468652073616d6520494420616c7265616479\n    /* \"#utility.yul\":318:319   */\n  0x00\n    /* \"#utility.yul\":310:316   */\n  dup3\n    /* \"#utility.yul\":306:320   */\n  add\n    /* \"#utility.yul\":299:357   */\n  mstore\n    /* \"#utility.yul\":391:400   */\n  0x2065786973747300000000000000000000000000000000000000000000000000\n    /* \"#utility.yul\":386:388   */\n  0x20\n    /* \"#utility.yul\":378:384   */\n  dup3\n    /* \"#utility.yul\":374:389   */\n  add\n    /* \"#utility.yul\":367:401   */\n  mstore\n    /* \"#utility.yul\":182:408   */\n  pop\n  jump\t// out\n    /* \"#utility.yul\":414:780   */\ntag_19:\n    /* \"#utility.yul\":556:559   */\n  0x00\n    /* \"#utility.yul\":577:644   */\n  tag_45\n    /* \"#utility.yul\":641:643   */\n  0x27\n    /* \"#utility.yul\":636:639   */\n  dup4\n    /* \"#utility.yul\":577:644   */\n  tag_17\n  jump\t// in\ntag_45:\n    /* \"#utility.yul\":570:644   */\n  swap2\n  pop\n    /* \"#utility.yul\":653:746   */\n  tag_46\n    /* \"#utility.yul\":742:745   */\n  dup3\n    /* \"#utility.yul\":653:746   */\n  tag_18\n  jump\t// in\ntag_46:\n    /* \"#utility.yul\":771:773   */\n  0x40\n    /* \"#utility.yul\":766:769   */\n  dup3\n    /* \"#utility.yul\":762:774   */\n  add\n    /* \"#utility.yul\":755:774   */\n  swap1\n  pop\n    /* \"#utility.yul\":414:780   */\n  swap2\n  swap1\n  pop\n  jump\t// out\n    /* \"#utility.yul\":786:1205   */\ntag_12:\n    /* \"#utility.yul\":952:956   */\n  0x00\n    /* \"#utility.yul\":990:992   */\n  0x20\n    /* \"#utility.yul\":979:988   */\n  dup3\n    /* \"#utility.yul\":975:993   */\n  add\n    /* \"#utility.yul\":967:993   */\n  swap1\n  pop\n    /* \"#utility.yul\":1039:1048   */\n  dup2\n    /* \"#utility.yul\":1033:1037   */\n  dup2\n    /* \"#utility.yul\":1029:1049   */\n  sub\n    /* \"#utility.yul\":1025:1026   */\n  0x00\n    /* \"#utility.yul\":1014:1023   */\n  dup4\n    /* \"#utility.yul\":1010:1027   */\n  add\n    /* \"#utility.yul\":1003:1050   */\n  mstore\n    /* \"#utility.yul\":1067:1198   */\n  tag_48\n    /* \"#utility.yul\":1193:1197   */\n  dup2\n    /* \"#utility.yul\":1067:1198   */\n  tag_19\n  jump\t// in\ntag_48:\n    /* \"#utility.yul\":1059:1198   */\n  swap1\n  pop\n    /* \"#utility.yul\":786:1205   */\n  swap2\n  swap1\n  pop\n  jump\t// out\n    /* \"#utility.yul\":1211:1310   */\ntag_20:\n    /* \"#utility.yul\":1263:1269   */\n  0x00\n    /* \"#utility.yul\":1297:1302   */\n  dup2\n    /* \"#utility.yul\":1291:1303   */\n  mload\n    /* \"#utility.yul\":1281:1303   */\n  swap1\n  pop\n    /* \"#utility.yul\":1211:1310   */\n  swap2\n  swap1\n  pop\n  jump\t// out\n    /* \"#utility.yul\":1316:1496   */\ntag_21:\n    /* \"#utility.yul\":1364:1441   */\n  0x4e487b7100000000000000000000000000000000000000000000000000000000\n    /* \"#utility.yul\":1361:1362   */\n  0x00\n    /* \"#utility.yul\":1354:1442   */\n  mstore\n    /* \"#utility.yul\":1461:1465   */\n  0x41\n    /* \"#utility.yul\":1458:1459   */\n  0x04\n    /* \"#utility.yul\":1451:1466   */\n  mstore\n    /* \"#utility.yul\":1485:1489   */\n  0x24\n    /* \"#utility.yul\":1482:1483   */\n  0x00\n    /* \"#utility.yul\":1475:1490   */\n  revert\n    /* \"#utility.yul\":1502:1682   */\ntag_22:\n    /* \"#utility.yul\":1550:1627   */\n  0x4e487b7100000000000000000000000000000000000000000000000000000000\n    /* \"#utility.yul\":1547:1548   */\n  0x00\n    /* \"#utility.yul\":1540:1628   */\n  mstore\n    /* \"#utility.yul\":1647:1651   */\n  0x22\n    /* \"#utility.yul\":1644:1645   */\n  0x04\n    /* \"#utility.yul\":1637:1652   */\n  mstore\n    /* \"#utility.yul\":1671:1675   */\n  0x24\n    /* \"#utility.yul\":1668:1669   */\n  0x00\n    /* \"#utility.yul\":1661:1676   */\n  revert\n    /* \"#utility.yul\":1688:2008   */\ntag_23:\n    /* \"#utility.yul\":1732:1738   */\n  0x00\n    /* \"#utility.yul\":1769:1770   */\n  0x02\n    /* \"#utility.yul\":1763:1767   */\n  dup3\n    /* \"#utility.yul\":1759:1771   */\n  div\n    /* \"#utility.yul\":1749:1771   */\n  swap1\n  pop\n    /* \"#utility.yul\":1816:1817   */\n  0x01\n    /* \"#utility.yul\":1810:1814   */\n  dup3\n    /* \"#utility.yul\":1806:1818   */\n  and\n    /* \"#utility.yul\":1837:1855   */\n  dup1\n    /* \"#utility.yul\":1827:1908   */\n  tag_53\n  jumpi\n    /* \"#utility.yul\":1893:1897   */\n  0x7f\n    /* \"#utility.yul\":1885:1891   */\n  dup3\n    /* \"#utility.yul\":1881:1898   */\n  and\n    /* \"#utility.yul\":1871:1898   */\n  swap2\n  pop\n    /* \"#utility.yul\":1827:1908   */\ntag_53:\n    /* \"#utility.yul\":1955:1957   */\n  0x20\n    /* \"#utility.yul\":1947:1953   */\n  dup3\n    /* \"#utility.yul\":1944:1958   */\n  lt\n    /* \"#utility.yul\":1924:1942   */\n  dup2\n    /* \"#utility.yul\":1921:1959   */\n  sub\n    /* \"#utility.yul\":1918:2002   */\n  tag_54\n  jumpi\n    /* \"#utility.yul\":1974:1992   */\n  tag_55\n  tag_22\n  jump\t// in\ntag_55:\n    /* \"#utility.yul\":1918:2002   */\ntag_54:\n    /* \"#utility.yul\":1739:2008   */\n  pop\n    /* \"#utility.yul\":1688:2008   */\n  swap2\n  swap1\n  pop\n  jump\t// out\n    /* \"#utility.yul\":2014:2155   */\ntag_24:\n    /* \"#utility.yul\":2063:2067   */\n  0x00\n    /* \"#utility.yul\":2086:2089   */\n  dup2\n    /* \"#utility.yul\":2078:2089   */\n  swap1\n  pop\n    /* \"#utility.yul\":2109:2112   */\n  dup2\n    /* \"#utility.yul\":2106:2107   */\n  0x00\n    /* \"#utility.yul\":2099:2113   */\n  mstore\n    /* \"#utility.yul\":2143:2147   */\n  0x20\n    /* \"#utility.yul\":2140:2141   */\n  0x00\n    /* \"#utility.yul\":2130:2148   */\n  keccak256\n    /* \"#utility.yul\":2122:2148   */\n  swap1\n  pop\n    /* \"#utility.yul\":2014:2155   */\n  swap2\n  swap1\n  pop\n  jump\t// out\n    /* \"#utility.yul\":2161:2254   */\ntag_25:\n    /* \"#utility.yul\":2198:2204   */\n  0x00\n    /* \"#utility.yul\":2245:2247   */\n  0x20\n    /* \"#utility.yul\":2240:2242   */\n  0x1f\n    /* \"#utility.yul\":2233:2238   */\n  dup4\n    /* \"#utility.yul\":2229:2243   */\n  add\n    /* \"#utility.yul\":2225:2248   */\n  div\n    /* \"#utility.yul\":2215:2248   */\n  swap1\n  pop\n    /* \"#utility.yul\":2161:2254   */\n  swap2\n  swap1\n  pop\n  jump\t// out\n    /* \"#utility.yul\":2260:2367   */\ntag_26:\n    /* \"#utility.yul\":2304:2312   */\n  0x00\n    /* \"#utility.yul\":2354:2359   */\n  dup3\n    /* \"#utility.yul\":2348:2352   */\n  dup3\n    /* \"#utility.yul\":2344:2360   */\n  shl\n    /* \"#utility.yul\":2323:2360   */\n  swap1\n  pop\n    /* \"#utility.yul\":2260:2367   */\n  swap3\n  swap2\n  pop\n  pop\n  jump\t// out\n    /* \"#utility.yul\":2373:2766   */\ntag_27:\n    /* \"#utility.yul\":2442:2448   */\n  0x00\n    /* \"#utility.yul\":2492:2493   */\n  0x08\n    /* \"#utility.yul\":2480:2490   */\n  dup4\n    /* \"#utility.yul\":2476:2494   */\n  mul\n    /* \"#utility.yul\":2515:2612   */\n  tag_60\n    /* \"#utility.yul\":2545:2611   */\n  0xffffffffffffffffffffffffffffffffffffffffffffffffffffffffffffffff\n    /* \"#utility.yul\":2534:2543   */\n  dup3\n    /* \"#utility.yul\":2515:2612   */\n  tag_26\n  jump\t// in\ntag_60:\n    /* \"#utility.yul\":2633:2672   */\n  tag_61\n    /* \"#utility.yul\":2663:2671   */\n  dup7\n    /* \"#utility.yul\":2652:2661   */\n  dup4\n    /* \"#utility.yul\":2633:2672   */\n  tag_26\n  jump\t// in\ntag_61:\n    /* \"#utility.yul\":2621:2672   */\n  swap6\n  pop\n    /* \"#utility.yul\":2705:2709   */\n  dup1\n    /* \"#utility.yul\":2701:2710   */\n  not\n    /* \"#utility.yul\":2694:2699   */\n  dup5\n    /* \"#utility.yul\":2690:2711   */\n  and\n    /* \"#utility.yul\":2681:2711   */\n  swap4\n  pop\n    /* \"#utility.yul\":2754:2758   */\n  dup1\n    /* \"#utility.yul\":2744:2752   */\n  dup7\n    /* \"#utility.yul\":2740:2759   */\n  and\n    /* \"#utility.yul\":2733:2738   */\n  dup5\n    /* \"#utility.yul\":2730:2760   */\n  or\n    /* \"#utility.yul\":2720:2760   */\n  swap3\n  pop\n    /* \"#utility.yul\":2449:2766   */\n  pop\n  pop\n    /* \"#utility.yul\":2373:2766   */\n  swap4\n  swap3\n  pop\n  pop\n  pop\n  jump\t// out\n    /* \"#utility.yul\":2772:2849   */\ntag_28:\n    /* \"#utility.yul\":2809:2816   */\n  0x00\n    /* \"#utility.yul\":2838:2843   */\n  dup2\n    /* \"#utility.yul\":2827:2843   */\n  swap1\n  pop\n    /* \"#utility.yul\":2772:2849   */\n  swap2\n  swap1\n  pop\n  jump\t// out\n    /* \"#utility.yul\":2855:2915   */\ntag_29:\n    /* \"#utility.yul\":2883:2886   */\n  0x00\n    /* \"#utility.yul\":2904:2909   */\n  dup2\n    /* \"#utility.yul\":2897:2909   */\n  swap1\n  pop\n    /* \"#utility.yul\":2855:2915   */\n  swap2\n  swap1\n  pop\n  jump\t// out\n    /* \"#utility.yul\":2921:3063   */\ntag_30:\n    /* \"#utility.yul\":2971:2980   */\n  0x00\n    /* \"#utility.yul\":3004:3057   */\n  tag_65\n    /* \"#utility.yul\":3022:3056   */\n  tag_66\n    /* \"#utility.yul\":3031:3055   */\n  tag_67\n    /* \"#utility.yul\":3049:3054   */\n  dup5\n    /* \"#utility.yul\":3031:3055   */\n  tag_28\n  jump\t// in\ntag_67:\n    /* \"#utility.yul\":3022:3056   */\n  tag_29\n  jump\t// in\ntag_66:\n    /* \"#utility.yul\":3004:3057   */\n  tag_28\n  jump\t// in\ntag_65:\n    /* \"#utility.yul\":2991:3057   */\n  swap1\n  pop\n    /* \"#utility.yul\":2921:3063   */\n  swap2\n  swap1\n  pop\n  jump\t// out\n    /* \"#utility.yul\":3069:3144   */\ntag_31:\n    /* \"#utility.yul\":3112:3115   */\n  0x00\n    /* \"#utility.yul\":3133:3138   */\n  dup2\n    /* \"#utility.yul\":3126:3138   */\n  swap1\n  pop\n    /* \"#utility.yul\":3069:3144   */\n  swap2\n  swap1\n  pop\n  jump\t// out\n    /* \"#utility.yul\":3150:3419   */\ntag_32:\n    /* \"#utility.yul\":3260:3299   */\n  tag_70\n    /* \"#utility.yul\":3291:3298   */\n  dup4\n    /* \"#utility.yul\":3260:3299   */\n  tag_30\n  jump\t// in\ntag_70:\n    /* \"#utility.yul\":3321:3412   */\n  tag_71\n    /* \"#utility.yul\":3370:3411   */\n  tag_72\n    /* \"#utility.yul\":3394:3410   */\n  dup3\n    /* \"#utility.yul\":3370:3411   */\n  tag_31\n  jump\t// in\ntag_72:\n    /* \"#utility.yul\":3362:3368   */\n  dup5\n    /* \"#utility.yul\":3355:3359   */\n  dup5\n    /* \"#utility.yul\":3349:3360   */\n  sload\n    /* \"#utility.yul\":3321:3412   */\n  tag_27\n  jump\t// in\ntag_71:\n    /* \"#utility.yul\":3315:3319   */\n  dup3\n    /* \"#utility.yul\":3308:3413   */\n  sstore\n    /* \"#utility.yul\":3226:3419   */\n  pop\n    /* \"#utility.yul\":3150:3419   */\n  pop\n  pop\n  pop\n  jump\t// out\n    /* \"#utility.yul\":3425:3498   */\ntag_33:\n    /* \"#utility.yul\":3470:3473   */\n  0x00\n    /* \"#utility.yul\":3425:3498   */\n  swap1\n  jump\t// out\n    /* \"#utility.yul\":3504:3693   */\ntag_34:\n    /* \"#utility.yul\":3581:3613   */\n  tag_75\n  tag_33\n  jump\t// in\ntag_75:\n    /* \"#utility.yul\":3622:3687   */\n  tag_76\n    /* \"#utility.yul\":3680:3686   */\n  dup2\n    /* \"#utility.yul\":3672:3678   */\n  dup5\n    /* \"#utility.yul\":3666:3670   */\n  dup5\n    /* \"#utility.yul\":3622:3687   */\n  tag_32\n  jump\t// in\ntag_76:\n    /* \"#utility.yul\":3557:3693   */\n  pop\n    /* \"#utility.yul\":3504:3693   */\n  pop\n  pop\n  jump\t// out\n    /* \"#utility.yul\":3699:3885   */\ntag_35:\n    /* \"#utility.yul\":3759:3879   */\ntag_78:\n    /* \"#utility.yul\":3776:3779   */\n  dup2\n    /* \"#utility.yul\":3769:3774   */\n  dup2\n    /* \"#utility.yul\":3766:3780   */\n  lt\n    /* \"#utility.yul\":3759:3879   */\n  iszero\n  tag_80\n  jumpi\n    /* \"#utility.yul\":3830:3869   */\n  tag_81\n    /* \"#utility.yul\":3867:3868   */\n  0x00\n    /* \"#utility.yul\":3860:3865   */\n  dup3\n    /* \"#utility.yul\":3830:3869   */\n  tag_34\n  jump\t// in\ntag_81:\n    /* \"#utility.yul\":3803:3804   */\n  0x01\n    /* \"#utility.yul\":3796:3801   */\n  dup2\n    /* \"#utility.yul\":3792:3805   */\n  add\n    /* \"#utility.yul\":3783:3805   */\n  swap1\n  pop\n    /* \"#utility.yul\":3759:3879   */\n  jump(tag_78)\ntag_80:\n    /* \"#utility.yul\":3699:3885   */\n  pop\n  pop\n  jump\t// out\n    /* \"#utility.yul\":3891:4434   */\ntag_36:\n    /* \"#utility.yul\":3992:3994   */\n  0x1f\n    /* \"#utility.yul\":3987:3990   */\n  dup3\n    /* \"#utility.yul\":3984:3995   */\n  gt\n    /* \"#utility.yul\":3981:4427   */\n  iszero\n  tag_83\n  jumpi\n    /* \"#utility.yul\":4026:4064   */\n  tag_84\n    /* \"#utility.yul\":4058:4063   */\n  dup2\n    /* \"#utility.yul\":4026:4064   */\n  tag_24\n  jump\t// in\ntag_84:\n    /* \"#utility.yul\":4110:4139   */\n  tag_85\n    /* \"#utility.yul\":4128:4138   */\n  dup5\n    /* \"#utility.yul\":4110:4139   */\n  tag_25\n  jump\t// in\ntag_85:\n    /* \"#utility.yul\":4100:4108   */\n  dup2\n    /* \"#utility.yul\":4096:4140   */\n  add\n    /* \"#utility.yul\":4293:4295   */\n  0x20\n    /* \"#utility.yul\":4281:4291   */\n  dup6\n    /* \"#utility.yul\":4278:4296   */\n  lt\n    /* \"#utility.yul\":4275:4324   */\n  iszero\n  tag_86\n  jumpi\n    /* \"#utility.yul\":4314:4322   */\n  dup2\n    /* \"#utility.yul\":4299:4322   */\n  swap1\n  pop\n    /* \"#utility.yul\":4275:4324   */\ntag_86:\n    /* \"#utility.yul\":4337:4417   */\n  tag_87\n    /* \"#utility.yul\":4393:4415   */\n  tag_88\n    /* \"#utility.yul\":4411:4414   */\n  dup6\n    /* \"#utility.yul\":4393:4415   */\n  tag_25\n  jump\t// in\ntag_88:\n    /* \"#utility.yul\":4383:4391   */\n  dup4\n    /* \"#utility.yul\":4379:4416   */\n  add\n    /* \"#utility.yul\":4366:4377   */\n  dup3\n    /* \"#utility.yul\":4337:4417   */\n  tag_35\n  jump\t// in\ntag_87:\n    /* \"#utility.yul\":3996:4427   */\n  pop\n  pop\n    /* \"#utility.yul\":3981:4427   */\ntag_83:\n    /* \"#utility.yul\":3891:4434   */\n  pop\n  pop\n  pop\n  jump\t// out\n    /* \"#utility.yul\":4440:4557   */\ntag_37:\n    /* \"#utility.yul\":4494:4502   */\n  0x00\n    /* \"#utility.yul\":4544:4549   */\n  dup3\n    /* \"#utility.yul\":4538:4542   */\n  dup3\n    /* \"#utility.yul\":4534:4550   */\n  shr\n    /* \"#utility.yul\":4513:4550   */\n  swap1\n  pop\n    /* \"#utility.yul\":4440:4557   */\n  swap3\n  swap2\n  pop\n  pop\n  jump\t// out\n    /* \"#utility.yul\":4563:4732   */\ntag_38:\n    /* \"#utility.yul\":4607:4613   */\n  0x00\n    /* \"#utility.yul\":4640:4691   */\n  tag_91\n    /* \"#utility.yul\":4688:4689   */\n  0x00\n    /* \"#utility.yul\":4684:4690   */\n  not\n    /* \"#utility.yul\":4676:4681   */\n  dup5\n    /* \"#utility.yul\":4673:4674   */\n  0x08\n    /* \"#utility.yul\":4669:4682   */\n  mul\n    /* \"#utility.yul\":4640:4691   */\n  tag_37\n  jump\t// in\ntag_91:\n    /* \"#utility.yul\":4636:4692   */\n  not\n    /* \"#utility.yul\":4721:4725   */\n  dup1\n    /* \"#utility.yul\":4715:4719   */\n  dup4\n    /* \"#utility.yul\":4711:4726   */\n  and\n    /* \"#utility.yul\":4701:4726   */\n  swap2\n  pop\n    /* \"#utility.yul\":4614:4732   */\n  pop\n    /* \"#utility.yul\":4563:4732   */\n  swap3\n  swap2\n  pop\n  pop\n  jump\t// out\n    /* \"#utility.yul\":4737:5032   */\ntag_39:\n    /* \"#utility.yul\":4813:4817   */\n  0x00\n    /* \"#utility.yul\":4959:4988   */\n  tag_93\n    /* \"#utility.yul\":4984:4987   */\n  dup4\n    /* \"#utility.yul\":4978:4982   */\n  dup4\n    /* \"#utility.yul\":4959:4988   */\n  tag_38\n  jump\t// in\ntag_93:\n    /* \"#utility.yul\":4951:4988   */\n  swap2\n  pop\n    /* \"#utility.yul\":5021:5024   */\n  dup3\n    /* \"#utility.yul\":5018:5019   */\n  0x02\n    /* \"#utility.yul\":5014:5025   */\n  mul\n    /* \"#utility.yul\":5008:5012   */\n  dup3\n    /* \"#utility.yul\":5005:5026   */\n  or\n    /* \"#utility.yul\":4997:5026   */\n  swap1\n  pop\n    /* \"#utility.yul\":4737:5032   */\n  swap3\n  swap2\n  pop\n  pop\n  jump\t// out\n    /* \"#utility.yul\":5037:6432   */\ntag_14:\n    /* \"#utility.yul\":5154:5191   */\n  tag_95\n    /* \"#utility.yul\":5187:5190   */\n  dup3\n    /* \"#utility.yul\":5154:5191   */\n  tag_20\n  jump\t// in\ntag_95:\n    /* \"#utility.yul\":5256:5274   */\n  0xffffffffffffffff\n    /* \"#utility.yul\":5248:5254   */\n  dup2\n    /* \"#utility.yul\":5245:5275   */\n  gt\n    /* \"#utility.yul\":5242:5298   */\n  iszero\n  tag_96\n  jumpi\n    /* \"#utility.yul\":5278:5296   */\n  tag_97\n  tag_21\n  jump\t// in\ntag_97:\n    /* \"#utility.yul\":5242:5298   */\ntag_96:\n    /* \"#utility.yul\":5322:5360   */\n  tag_98\n    /* \"#utility.yul\":5354:5358   */\n  dup3\n    /* \"#utility.yul\":5348:5359   */\n  sload\n    /* \"#utility.yul\":5322:5360   */\n  tag_23\n  jump\t// in\ntag_98:\n    /* \"#utility.yul\":5407:5474   */\n  tag_99\n    /* \"#utility.yul\":5467:5473   */\n  dup3\n    /* \"#utility.yul\":5459:5465   */\n  dup3\n    /* \"#utility.yul\":5453:5457   */\n  dup6\n    /* \"#utility.yul\":5407:5474   */\n  tag_36\n  jump\t// in\ntag_99:\n    /* \"#utility.yul\":5501:5502   */\n  0x00\n    /* \"#utility.yul\":5525:5529   */\n  0x20\n    /* \"#utility.yul\":5512:5529   */\n  swap1\n  pop\n    /* \"#utility.yul\":5557:5559   */\n  0x1f\n    /* \"#utility.yul\":5549:5555   */\n  dup4\n    /* \"#utility.yul\":5546:5560   */\n  gt\n    /* \"#utility.yul\":5574:5575   */\n  0x01\n    /* \"#utility.yul\":5569:6187   */\n  dup2\n  eq\n  tag_101\n  jumpi\n    /* \"#utility.yul\":6231:6232   */\n  0x00\n    /* \"#utility.yul\":6248:6254   */\n  dup5\n    /* \"#utility.yul\":6245:6322   */\n  iszero\n  tag_102\n  jumpi\n    /* \"#utility.yul\":6297:6306   */\n  dup3\n    /* \"#utility.yul\":6292:6295   */\n  dup8\n    /* \"#utility.yul\":6288:6307   */\n  add\n    /* \"#utility.yul\":6282:6308   */\n  mload\n    /* \"#utility.yul\":6273:6308   */\n  swap1\n  pop\n    /* \"#utility.yul\":6245:6322   */\ntag_102:\n    /* \"#utility.yul\":6348:6415   */\n  tag_103\n    /* \"#utility.yul\":6408:6414   */\n  dup6\n    /* \"#utility.yul\":6401:6406   */\n  dup3\n    /* \"#utility.yul\":6348:6415   */\n  tag_39\n  jump\t// in\ntag_103:\n    /* \"#utility.yul\":6342:6346   */\n  dup7\n    /* \"#utility.yul\":6335:6416   */\n  sstore\n    /* \"#utility.yul\":6204:6426   */\n  pop\n    /* \"#utility.yul\":5539:6426   */\n  jump(tag_100)\n    /* \"#utility.yul\":5569:6187   */\ntag_101:\n    /* \"#utility.yul\":5621:5625   */\n  0x1f\n    /* \"#utility.yul\":5617:5626   */\n  not\n    /* \"#utility.yul\":5609:5615   */\n  dup5\n    /* \"#utility.yul\":5605:5627   */\n  and\n    /* \"#utility.yul\":5655:5692   */\n  tag_104\n    /* \"#utility.yul\":5687:5691   */\n  dup7\n    /* \"#utility.yul\":5655:5692   */\n  tag_24\n  jump\t// in\ntag_104:\n    /* \"#utility.yul\":5714:5715   */\n  0x00\n    /* \"#utility.yul\":5728:5936   */\ntag_105:\n    /* \"#utility.yul\":5742:5749   */\n  dup3\n    /* \"#utility.yul\":5739:5740   */\n  dup2\n    /* \"#utility.yul\":5736:5750   */\n  lt\n    /* \"#utility.yul\":5728:5936   */\n  iszero\n  tag_107\n  jumpi\n    /* \"#utility.yul\":5821:5830   */\n  dup5\n    /* \"#utility.yul\":5816:5819   */\n  dup10\n    /* \"#utility.yul\":5812:5831   */\n  add\n    /* \"#utility.yul\":5806:5832   */\n  mload\n    /* \"#utility.yul\":5798:5804   */\n  dup3\n    /* \"#utility.yul\":5791:5833   */\n  sstore\n    /* \"#utility.yul\":5872:5873   */\n  0x01\n    /* \"#utility.yul\":5864:5870   */\n  dup3\n    /* \"#utility.yul\":5860:5874   */\n  add\n    /* \"#utility.yul\":5850:5874   */\n  swap2\n  pop\n    /* \"#utility.yul\":5919:5921   */\n  0x20\n    /* \"#utility.yul\":5908:5917   */\n  dup6\n    /* \"#utility.yul\":5904:5922   */\n  add\n    /* \"#utility.yul\":5891:5922   */\n  swap5\n  pop\n    /* \"#utility.yul\":5765:5769   */\n  0x20\n    /* \"#utility.yul\":5762:5763   */\n  dup2\n    /* \"#utility.yul\":5758:5770   */\n  add\n    /* \"#utility.yul\":5753:5770   */\n  swap1\n  pop\n    /* \"#utility.yul\":5728:5936   */\n  jump(tag_105)\ntag_107:\n    /* \"#utility.yul\":5964:5970   */\n  dup7\n    /* \"#utility.yul\":5955:5962   */\n  dup4\n    /* \"#utility.yul\":5952:5971   */\n  lt\n    /* \"#utility.yul\":5949:6128   */\n  iszero\n  tag_108\n  jumpi\n    /* \"#utility.yul\":6022:6031   */\n  dup5\n    /* \"#utility.yul\":6017:6020   */\n  dup10\n    /* \"#utility.yul\":6013:6032   */\n  add\n    /* \"#utility.yul\":6007:6033   */\n  mload\n    /* \"#utility.yul\":6065:6113   */\n  tag_109\n    /* \"#utility.yul\":6107:6111   */\n  0x1f\n    /* \"#utility.yul\":6099:6105   */\n  dup10\n    /* \"#utility.yul\":6095:6112   */\n  and\n    /* \"#utility.yul\":6084:6093   */\n  dup3\n    /* \"#utility.yul\":6065:6113   */\n  tag_38\n  jump\t// in\ntag_109:\n    /* \"#utility.yul\":6057:6063   */\n  dup4\n    /* \"#utility.yul\":6050:6114   */\n  sstore\n    /* \"#utility.yul\":5972:6128   */\n  pop\n    /* \"#utility.yul\":5949:6128   */\ntag_108:\n    /* \"#utility.yul\":6174:6175   */\n  0x01\n    /* \"#utility.yul\":6170:6171   */\n  0x02\n    /* \"#utility.yul\":6162:6168   */\n  dup9\n    /* \"#utility.yul\":6158:6172   */\n  mul\n    /* \"#utility.yul\":6154:6176   */\n  add\n    /* \"#utility.yul\":6148:6152   */\n  dup9\n    /* \"#utility.yul\":6141:6177   */\n  sstore\n    /* \"#utility.yul\":5576:6187   */\n  pop\n  pop\n  pop\n    /* \"#utility.yul\":5539:6426   */\ntag_100:\n  pop\n    /* \"#utility.yul\":5129:6432   */\n  pop\n  pop\n  pop\n    /* \"#utility.yul\":5037:6432   */\n  pop\n  pop\n  jump\t// out\n    /* \"#utility.yul\":6438:6618   */\ntag_40:\n    /* \"#utility.yul\":6486:6563   */\n  0x4e487b7100000000000000000000000000000000000000000000000000000000\n    /* \"#utility.yul\":6483:6484   */\n  0x00\n    /* \"#utility.yul\":6476:6564   */\n  mstore\n    /* \"#utility.yul\":6583:6587   */\n  0x11\n    /* \"#utility.yul\":6580:6581   */\n  0x04\n    /* \"#utility.yul\":6573:6588   */\n  mstore\n    /* \"#utility.yul\":6607:6611   */\n  0x24\n    /* \"#utility.yul\":6604:6605   */\n  0x00\n    /* \"#utility.yul\":6597:6612   */\n  revert\n    /* \"#utility.yul\":6624:6857   */\ntag_16:\n    /* \"#utility.yul\":6663:6666   */\n  0x00\n    /* \"#utility.yul\":6686:6710   */\n  tag_112\n    /* \"#utility.yul\":6704:6709   */\n  dup3\n    /* \"#utility.yul\":6686:6710   */\n  tag_28\n  jump\t// in\ntag_112:\n    /* \"#utility.yul\":6677:6710   */\n  swap2\n  pop\n    /* \"#utility.yul\":6732:6798   */\n  0xffffffffffffffffffffffffffffffffffffffffffffffffffffffffffffffff\n    /* \"#utility.yul\":6725:6730   */\n  dup3\n    /* \"#utility.yul\":6722:6799   */\n  sub\n    /* \"#utility.yul\":6719:6822   */\n  tag_113\n  jumpi\n    /* \"#utility.yul\":6802:6820   */\n  tag_114\n  tag_40\n  jump\t// in\ntag_114:\n    /* \"#utility.yul\":6719:6822   */\ntag_113:\n    /* \"#utility.yul\":6849:6850   */\n  0x01\n    /* \"#utility.yul\":6842:6847   */\n  dup3\n    /* \"#utility.yul\":6838:6851   */\n  add\n    /* \"#utility.yul\":6831:6851   */\n  swap1\n  pop\n    /* \"#utility.yul\":6624:6857   */\n  swap2\n  swap1\n  pop\n  jump\t// out\n    /* \"studentconstcator.sol\":60:1334  contract StudentRecords {... */\ntag_8:\n  dataSize(sub_0)\n  dup1\n  dataOffset(sub_0)\n  0x00\n  codecopy\n  0x00\n  return\nstop\n\nsub_0: assembly {\n        /* \"studentconstcator.sol\":60:1334  contract StudentRecords {... */\n      mstore(0x40, 0x80)\n      callvalue\n      dup1\n      iszero\n      tag_1\n      jumpi\n      0x00\n      dup1\n      revert\n    tag_1:\n      pop\n      jumpi(tag_2, lt(calldatasize, 0x04))\n      shr(0xe0, calldataload(0x00))\n      dup1\n      0x06ead22e\n      eq\n      tag_3\n      jumpi\n      dup1\n      0x5bca8951\n      eq\n      tag_4\n      jumpi\n      dup1\n      0x642f9163\n      eq\n      tag_5\n      jumpi\n      dup1\n      0x9852bf8e\n      eq\n      tag_6\n      jumpi\n      dup1\n      0xc1bea1db\n      eq\n      tag_7\n      jumpi\n    tag_2:\n      0x00\n      dup1\n      revert\n        /* \"studentconstcator.sol\":181:221  mapping(uint => Student) public students */\n    tag_3:\n      tag_8\n      0x04\n      dup1\n      calldatasize\n      sub\n      dup2\n      add\n      swap1\n      tag_9\n      swap2\n      swap1\n      tag_10\n      jump\t// in\n    tag_9:\n      tag_11\n      jump\t// in\n    tag_8:\n      mload(0x40)\n      tag_12\n      swap4\n      swap3\n      swap2\n      swap1\n      tag_13\n      jump\t// in\n    tag_12:\n      mload(0x40)\n      dup1\n      swap2\n      sub\n      swap1\n      return\n        /* \"studentconstcator.sol\":1252:1331  function deletestudent(uint _id) public {... */\n    tag_4:\n      tag_14\n      0x04\n      dup1\n      calldatasize\n      sub\n      dup2\n      add\n      swap1\n      tag_15\n      swap2\n      swap1\n      tag_10\n      jump\t// in\n    tag_15:\n      tag_16\n      jump\t// in\n    tag_14:\n      stop\n        /* \"studentconstcator.sol\":952:1246  function getStudent(uint _id) public view returns (uint, string memory, uint) {... */\n    tag_5:\n      tag_17\n      0x04\n      dup1\n      calldatasize\n      sub\n      dup2\n      add\n      swap1\n      tag_18\n      swap2\n      swap1\n      tag_10\n      jump\t// in\n    tag_18:\n      tag_19\n      jump\t// in\n    tag_17:\n      mload(0x40)\n      tag_20\n      swap4\n      swap3\n      swap2\n      swap1\n      tag_13\n      jump\t// in\n    tag_20:\n      mload(0x40)\n      dup1\n      swap2\n      sub\n      swap1\n      return\n        /* \"studentconstcator.sol\":264:289  uint public totalStudents */\n    tag_6:\n      tag_21\n      tag_22\n      jump\t// in\n    tag_21:\n      mload(0x40)\n      tag_23\n      swap2\n      swap1\n      tag_24\n      jump\t// in\n    tag_23:\n      mload(0x40)\n      dup1\n      swap2\n      sub\n      swap1\n      return\n        /* \"studentconstcator.sol\":560:944  function addStudent(uint _id, string memory _name, uint _age) public {... */\n    tag_7:\n      tag_25\n      0x04\n      dup1\n      calldatasize\n      sub\n      dup2\n      add\n      swap1\n      tag_26\n      swap2\n      swap1\n      tag_27\n      jump\t// in\n    tag_26:\n      tag_28\n      jump\t// in\n    tag_25:\n      stop\n        /* \"studentconstcator.sol\":181:221  mapping(uint => Student) public students */\n    tag_11:\n      mstore(0x20, 0x00)\n      dup1\n      0x00\n      mstore\n      keccak256(0x00, 0x40)\n      0x00\n      swap2\n      pop\n      swap1\n      pop\n      dup1\n      0x00\n      add\n      sload\n      swap1\n      dup1\n      0x01\n      add\n      dup1\n      sload\n      tag_29\n      swap1\n      tag_30\n      jump\t// in\n    tag_29:\n      dup1\n      0x1f\n      add\n      0x20\n      dup1\n      swap2\n      div\n      mul\n      0x20\n      add\n      mload(0x40)\n      swap1\n      dup2\n      add\n      0x40\n      mstore\n      dup1\n      swap3\n      swap2\n      swap1\n      dup2\n      dup2\n      mstore\n      0x20\n      add\n      dup3\n      dup1\n      sload\n      tag_31\n      swap1\n      tag_30\n      jump\t// in\n    tag_31:\n      dup1\n      iszero\n      tag_32\n      jumpi\n      dup1\n      0x1f\n      lt\n      tag_33\n      jumpi\n      0x0100\n      dup1\n      dup4\n      sload\n      div\n      mul\n      dup4\n      mstore\n      swap2\n      0x20\n      add\n      swap2\n      jump(tag_32)\n    tag_33:\n      dup3\n      add\n      swap2\n      swap1\n      0x00\n      mstore\n      keccak256(0x00, 0x20)\n      swap1\n    tag_34:\n      dup2\n      sload\n      dup2\n      mstore\n      swap1\n      0x01\n      add\n      swap1\n      0x20\n      add\n      dup1\n      dup4\n      gt\n      tag_34\n      jumpi\n      dup3\n      swap1\n      sub\n      0x1f\n      and\n      dup3\n      add\n      swap2\n    tag_32:\n      pop\n      pop\n      pop\n      pop\n      pop\n      swap1\n      dup1\n      0x02\n      add\n      sload\n      swap1\n      pop\n      dup4\n      jump\t// out\n        /* \"studentconstcator.sol\":1252:1331  function deletestudent(uint _id) public {... */\n    tag_16:\n        /* \"studentconstcator.sol\":1310:1318  students */\n      0x00\n        /* \"studentconstcator.sol\":1310:1323  students[_id] */\n      dup1\n        /* \"studentconstcator.sol\":1319:1322  _id */\n      dup3\n        /* \"studentconstcator.sol\":1310:1323  students[_id] */\n      dup2\n      mstore\n      0x20\n      add\n      swap1\n      dup2\n      mstore\n      0x20\n      add\n      0x00\n      keccak256\n      0x00\n        /* \"studentconstcator.sol\":1303:1323  delete students[_id] */\n      dup1\n      dup3\n      add\n      0x00\n      swap1\n      sstore\n      0x01\n      dup3\n      add\n      0x00\n      tag_36\n      swap2\n      swap1\n      tag_37\n      jump\t// in\n    tag_36:\n      0x02\n      dup3\n      add\n      0x00\n      swap1\n      sstore\n      pop\n      pop\n        /* \"studentconstcator.sol\":1252:1331  function deletestudent(uint _id) public {... */\n      pop\n      jump\t// out\n        /* \"studentconstcator.sol\":952:1246  function getStudent(uint _id) public view returns (uint, string memory, uint) {... */\n    tag_19:\n        /* \"studentconstcator.sol\":1003:1007  uint */\n      0x00\n        /* \"studentconstcator.sol\":1009:1022  string memory */\n      0x60\n        /* \"studentconstcator.sol\":1024:1028  uint */\n      0x00\n        /* \"studentconstcator.sol\":1070:1071  0 */\n      dup1\n        /* \"studentconstcator.sol\":1049:1057  students */\n      0x00\n        /* \"studentconstcator.sol\":1049:1062  students[_id] */\n      dup1\n        /* \"studentconstcator.sol\":1058:1061  _id */\n      dup7\n        /* \"studentconstcator.sol\":1049:1062  students[_id] */\n      dup2\n      mstore\n      0x20\n      add\n      swap1\n      dup2\n      mstore\n      0x20\n      add\n      0x00\n      keccak256\n        /* \"studentconstcator.sol\":1049:1066  students[_id].age */\n      0x02\n      add\n      sload\n        /* \"studentconstcator.sol\":1049:1071  students[_id].age != 0 */\n      sub\n        /* \"studentconstcator.sol\":1041:1100  require(students[_id].age != 0, \"Student record not found\") */\n      tag_39\n      jumpi\n      mload(0x40)\n      0x08c379a000000000000000000000000000000000000000000000000000000000\n      dup2\n      mstore\n      0x04\n      add\n      tag_40\n      swap1\n      tag_41\n      jump\t// in\n    tag_40:\n      mload(0x40)\n      dup1\n      swap2\n      sub\n      swap1\n      revert\n    tag_39:\n        /* \"studentconstcator.sol\":1111:1133  Student memory student */\n      0x00\n        /* \"studentconstcator.sol\":1136:1144  students */\n      dup1\n        /* \"studentconstcator.sol\":1136:1149  students[_id] */\n      0x00\n        /* \"studentconstcator.sol\":1145:1148  _id */\n      dup7\n        /* \"studentconstcator.sol\":1136:1149  students[_id] */\n      dup2\n      mstore\n      0x20\n      add\n      swap1\n      dup2\n      mstore\n      0x20\n      add\n      0x00\n      keccak256\n        /* \"studentconstcator.sol\":1111:1149  Student memory student = students[_id] */\n      mload(0x40)\n      dup1\n      0x60\n      add\n      0x40\n      mstore\n      swap1\n      dup2\n      0x00\n      dup3\n      add\n      sload\n      dup2\n      mstore\n      0x20\n      add\n      0x01\n      dup3\n      add\n      dup1\n      sload\n      tag_42\n      swap1\n      tag_30\n      jump\t// in\n    tag_42:\n      dup1\n      0x1f\n      add\n      0x20\n      dup1\n      swap2\n      div\n      mul\n      0x20\n      add\n      mload(0x40)\n      swap1\n      dup2\n      add\n      0x40\n      mstore\n      dup1\n      swap3\n      swap2\n      swap1\n      dup2\n      dup2\n      mstore\n      0x20\n      add\n      dup3\n      dup1\n      sload\n      tag_43\n      swap1\n      tag_30\n      jump\t// in\n    tag_43:\n      dup1\n      iszero\n      tag_44\n      jumpi\n      dup1\n      0x1f\n      lt\n      tag_45\n      jumpi\n      0x0100\n      dup1\n      dup4\n      sload\n      div\n      mul\n      dup4\n      mstore\n      swap2\n      0x20\n      add\n      swap2\n      jump(tag_44)\n    tag_45:\n      dup3\n      add\n      swap2\n      swap1\n      0x00\n      mstore\n      keccak256(0x00, 0x20)\n      swap1\n    tag_46:\n      dup2\n      sload\n      dup2\n      mstore\n      swap1\n      0x01\n      add\n      swap1\n      0x20\n      add\n      dup1\n      dup4\n      gt\n      tag_46\n      jumpi\n      dup3\n      swap1\n      sub\n      0x1f\n      and\n      dup3\n      add\n      swap2\n    tag_44:\n      pop\n      pop\n      pop\n      pop\n      pop\n      dup2\n      mstore\n      0x20\n      add\n      0x02\n      dup3\n      add\n      sload\n      dup2\n      mstore\n      pop\n      pop\n      swap1\n      pop\n        /* \"studentconstcator.sol\":1168:1175  student */\n      dup1\n        /* \"studentconstcator.sol\":1168:1178  student.id */\n      0x00\n      add\n      mload\n        /* \"studentconstcator.sol\":1180:1187  student */\n      dup2\n        /* \"studentconstcator.sol\":1180:1192  student.name */\n      0x20\n      add\n      mload\n        /* \"studentconstcator.sol\":1194:1201  student */\n      dup3\n        /* \"studentconstcator.sol\":1194:1205  student.age */\n      0x40\n      add\n      mload\n        /* \"studentconstcator.sol\":1160:1206  return (student.id, student.name, student.age) */\n      swap4\n      pop\n      swap4\n      pop\n      swap4\n      pop\n      pop\n        /* \"studentconstcator.sol\":952:1246  function getStudent(uint _id) public view returns (uint, string memory, uint) {... */\n      swap2\n      swap4\n      swap1\n      swap3\n      pop\n      jump\t// out\n        /* \"studentconstcator.sol\":264:289  uint public totalStudents */\n    tag_22:\n      sload(0x01)\n      dup2\n      jump\t// out\n        /* \"studentconstcator.sol\":560:944  function addStudent(uint _id, string memory _name, uint _age) public {... */\n    tag_28:\n        /* \"studentconstcator.sol\":669:670  0 */\n      0x00\n        /* \"studentconstcator.sol\":648:656  students */\n      dup1\n        /* \"studentconstcator.sol\":648:661  students[_id] */\n      0x00\n        /* \"studentconstcator.sol\":657:660  _id */\n      dup6\n        /* \"studentconstcator.sol\":648:661  students[_id] */\n      dup2\n      mstore\n      0x20\n      add\n      swap1\n      dup2\n      mstore\n      0x20\n      add\n      0x00\n      keccak256\n        /* \"studentconstcator.sol\":648:665  students[_id].age */\n      0x02\n      add\n      sload\n        /* \"studentconstcator.sol\":648:670  students[_id].age == 0 */\n      eq\n        /* \"studentconstcator.sol\":640:714  require(students[_id].age == 0, \"Student with the same ID already exists\") */\n      tag_48\n      jumpi\n      mload(0x40)\n      0x08c379a000000000000000000000000000000000000000000000000000000000\n      dup2\n      mstore\n      0x04\n      add\n      tag_49\n      swap1\n      tag_50\n      jump\t// in\n    tag_49:\n      mload(0x40)\n      dup1\n      swap2\n      sub\n      swap1\n      revert\n    tag_48:\n        /* \"studentconstcator.sol\":735:760  Student memory newStudent */\n      0x00\n        /* \"studentconstcator.sol\":763:788  Student(_id, _name, _age) */\n      mload(0x40)\n      dup1\n      0x60\n      add\n      0x40\n      mstore\n      dup1\n        /* \"studentconstcator.sol\":771:774  _id */\n      dup6\n        /* \"studentconstcator.sol\":763:788  Student(_id, _name, _age) */\n      dup2\n      mstore\n      0x20\n      add\n        /* \"studentconstcator.sol\":776:781  _name */\n      dup5\n        /* \"studentconstcator.sol\":763:788  Student(_id, _name, _age) */\n      dup2\n      mstore\n      0x20\n      add\n        /* \"studentconstcator.sol\":783:787  _age */\n      dup4\n        /* \"studentconstcator.sol\":763:788  Student(_id, _name, _age) */\n      dup2\n      mstore\n      pop\n        /* \"studentconstcator.sol\":735:788  Student memory newStudent = Student(_id, _name, _age) */\n      swap1\n      pop\n        /* \"studentconstcator.sol\":815:825  newStudent */\n      dup1\n        /* \"studentconstcator.sol\":799:807  students */\n      0x00\n        /* \"studentconstcator.sol\":799:812  students[_id] */\n      dup1\n        /* \"studentconstcator.sol\":808:811  _id */\n      dup7\n        /* \"studentconstcator.sol\":799:812  students[_id] */\n      dup2\n      mstore\n      0x20\n      add\n      swap1\n      dup2\n      mstore\n      0x20\n      add\n      0x00\n      keccak256\n        /* \"studentconstcator.sol\":799:825  students[_id] = newStudent */\n      0x00\n      dup3\n      add\n      mload\n      dup2\n      0x00\n      add\n      sstore\n      0x20\n      dup3\n      add\n      mload\n      dup2\n      0x01\n      add\n      swap1\n      dup2\n      tag_51\n      swap2\n      swap1\n      tag_52\n      jump\t// in\n    tag_51:\n      pop\n      0x40\n      dup3\n      add\n      mload\n      dup2\n      0x02\n      add\n      sstore\n      swap1\n      pop\n      pop\n        /* \"studentconstcator.sol\":879:892  totalStudents */\n      0x01\n      0x00\n        /* \"studentconstcator.sol\":879:894  totalStudents++ */\n      dup2\n      sload\n      dup1\n      swap3\n      swap2\n      swap1\n      tag_53\n      swap1\n      tag_54\n      jump\t// in\n    tag_53:\n      swap2\n      swap1\n      pop\n      sstore\n      pop\n        /* \"studentconstcator.sol\":629:944  {... */\n      pop\n        /* \"studentconstcator.sol\":560:944  function addStudent(uint _id, string memory _name, uint _age) public {... */\n      pop\n      pop\n      pop\n      jump\t// out\n    tag_37:\n      pop\n      dup1\n      sload\n      tag_55\n      swap1\n      tag_30\n      jump\t// in\n    tag_55:\n      0x00\n      dup3\n      sstore\n      dup1\n      0x1f\n      lt\n      tag_57\n      jumpi\n      pop\n      jump(tag_56)\n    tag_57:\n      0x1f\n      add\n      0x20\n      swap1\n      div\n      swap1\n      0x00\n      mstore\n      keccak256(0x00, 0x20)\n      swap1\n      dup2\n      add\n      swap1\n      tag_58\n      swap2\n      swap1\n      tag_59\n      jump\t// in\n    tag_58:\n    tag_56:\n      pop\n      jump\t// out\n    tag_59:\n    tag_60:\n      dup1\n      dup3\n      gt\n      iszero\n      tag_61\n      jumpi\n      0x00\n      dup2\n      0x00\n      swap1\n      sstore\n      pop\n      0x01\n      add\n      jump(tag_60)\n    tag_61:\n      pop\n      swap1\n      jump\t// out\n        /* \"#utility.yul\":7:82   */\n    tag_62:\n        /* \"#utility.yul\":40:46   */\n      0x00\n        /* \"#utility.yul\":73:75   */\n      0x40\n        /* \"#utility.yul\":67:76   */\n      mload\n        /* \"#utility.yul\":57:76   */\n      swap1\n      pop\n        /* \"#utility.yul\":7:82   */\n      swap1\n      jump\t// out\n        /* \"#utility.yul\":88:205   */\n    tag_63:\n        /* \"#utility.yul\":197:198   */\n      0x00\n        /* \"#utility.yul\":194:195   */\n      dup1\n        /* \"#utility.yul\":187:199   */\n      revert\n        /* \"#utility.yul\":211:328   */\n    tag_64:\n        /* \"#utility.yul\":320:321   */\n      0x00\n        /* \"#utility.yul\":317:318   */\n      dup1\n        /* \"#utility.yul\":310:322   */\n      revert\n        /* \"#utility.yul\":334:411   */\n    tag_65:\n        /* \"#utility.yul\":371:378   */\n      0x00\n        /* \"#utility.yul\":400:405   */\n      dup2\n        /* \"#utility.yul\":389:405   */\n      swap1\n      pop\n        /* \"#utility.yul\":334:411   */\n      swap2\n      swap1\n      pop\n      jump\t// out\n        /* \"#utility.yul\":417:539   */\n    tag_66:\n        /* \"#utility.yul\":490:514   */\n      tag_110\n        /* \"#utility.yul\":508:513   */\n      dup2\n        /* \"#utility.yul\":490:514   */\n      tag_65\n      jump\t// in\n    tag_110:\n        /* \"#utility.yul\":483:488   */\n      dup2\n        /* \"#utility.yul\":480:515   */\n      eq\n        /* \"#utility.yul\":470:533   */\n      tag_111\n      jumpi\n        /* \"#utility.yul\":529:530   */\n      0x00\n        /* \"#utility.yul\":526:527   */\n      dup1\n        /* \"#utility.yul\":519:531   */\n      revert\n        /* \"#utility.yul\":470:533   */\n    tag_111:\n        /* \"#utility.yul\":417:539   */\n      pop\n      jump\t// out\n        /* \"#utility.yul\":545:684   */\n    tag_67:\n        /* \"#utility.yul\":591:596   */\n      0x00\n        /* \"#utility.yul\":629:635   */\n      dup2\n        /* \"#utility.yul\":616:636   */\n      calldataload\n        /* \"#utility.yul\":607:636   */\n      swap1\n      pop\n        /* \"#utility.yul\":645:678   */\n      tag_113\n        /* \"#utility.yul\":672:677   */\n      dup2\n        /* \"#utility.yul\":645:678   */\n      tag_66\n      jump\t// in\n    tag_113:\n        /* \"#utility.yul\":545:684   */\n      swap3\n      swap2\n      pop\n      pop\n      jump\t// out\n        /* \"#utility.yul\":690:1019   */\n    tag_10:\n        /* \"#utility.yul\":749:755   */\n      0x00\n        /* \"#utility.yul\":798:800   */\n      0x20\n        /* \"#utility.yul\":786:795   */\n      dup3\n        /* \"#utility.yul\":777:784   */\n      dup5\n        /* \"#utility.yul\":773:796   */\n      sub\n        /* \"#utility.yul\":769:801   */\n      slt\n        /* \"#utility.yul\":766:885   */\n      iszero\n      tag_115\n      jumpi\n        /* \"#utility.yul\":804:883   */\n      tag_116\n      tag_63\n      jump\t// in\n    tag_116:\n        /* \"#utility.yul\":766:885   */\n    tag_115:\n        /* \"#utility.yul\":924:925   */\n      0x00\n        /* \"#utility.yul\":949:1002   */\n      tag_117\n        /* \"#utility.yul\":994:1001   */\n      dup5\n        /* \"#utility.yul\":985:991   */\n      dup3\n        /* \"#utility.yul\":974:983   */\n      dup6\n        /* \"#utility.yul\":970:992   */\n      add\n        /* \"#utility.yul\":949:1002   */\n      tag_67\n      jump\t// in\n    tag_117:\n        /* \"#utility.yul\":939:1002   */\n      swap2\n      pop\n        /* \"#utility.yul\":895:1012   */\n      pop\n        /* \"#utility.yul\":690:1019   */\n      swap3\n      swap2\n      pop\n      pop\n      jump\t// out\n        /* \"#utility.yul\":1025:1143   */\n    tag_68:\n        /* \"#utility.yul\":1112:1136   */\n      tag_119\n        /* \"#utility.yul\":1130:1135   */\n      dup2\n        /* \"#utility.yul\":1112:1136   */\n      tag_65\n      jump\t// in\n    tag_119:\n        /* \"#utility.yul\":1107:1110   */\n      dup3\n        /* \"#utility.yul\":1100:1137   */\n      mstore\n        /* \"#utility.yul\":1025:1143   */\n      pop\n      pop\n      jump\t// out\n        /* \"#utility.yul\":1149:1248   */\n    tag_69:\n        /* \"#utility.yul\":1201:1207   */\n      0x00\n        /* \"#utility.yul\":1235:1240   */\n      dup2\n        /* \"#utility.yul\":1229:1241   */\n      mload\n        /* \"#utility.yul\":1219:1241   */\n      swap1\n      pop\n        /* \"#utility.yul\":1149:1248   */\n      swap2\n      swap1\n      pop\n      jump\t// out\n        /* \"#utility.yul\":1254:1423   */\n    tag_70:\n        /* \"#utility.yul\":1338:1349   */\n      0x00\n        /* \"#utility.yul\":1372:1378   */\n      dup3\n        /* \"#utility.yul\":1367:1370   */\n      dup3\n        /* \"#utility.yul\":1360:1379   */\n      mstore\n        /* \"#utility.yul\":1412:1416   */\n      0x20\n        /* \"#utility.yul\":1407:1410   */\n      dup3\n        /* \"#utility.yul\":1403:1417   */\n      add\n        /* \"#utility.yul\":1388:1417   */\n      swap1\n      pop\n        /* \"#utility.yul\":1254:1423   */\n      swap3\n      swap2\n      pop\n      pop\n      jump\t// out\n        /* \"#utility.yul\":1429:1675   */\n    tag_71:\n        /* \"#utility.yul\":1510:1511   */\n      0x00\n        /* \"#utility.yul\":1520:1633   */\n    tag_123:\n        /* \"#utility.yul\":1534:1540   */\n      dup4\n        /* \"#utility.yul\":1531:1532   */\n      dup2\n        /* \"#utility.yul\":1528:1541   */\n      lt\n        /* \"#utility.yul\":1520:1633   */\n      iszero\n      tag_125\n      jumpi\n        /* \"#utility.yul\":1619:1620   */\n      dup1\n        /* \"#utility.yul\":1614:1617   */\n      dup3\n        /* \"#utility.yul\":1610:1621   */\n      add\n        /* \"#utility.yul\":1604:1622   */\n      mload\n        /* \"#utility.yul\":1600:1601   */\n      dup2\n        /* \"#utility.yul\":1595:1598   */\n      dup5\n        /* \"#utility.yul\":1591:1602   */\n      add\n        /* \"#utility.yul\":1584:1623   */\n      mstore\n        /* \"#utility.yul\":1556:1558   */\n      0x20\n        /* \"#utility.yul\":1553:1554   */\n      dup2\n        /* \"#utility.yul\":1549:1559   */\n      add\n        /* \"#utility.yul\":1544:1559   */\n      swap1\n      pop\n        /* \"#utility.yul\":1520:1633   */\n      jump(tag_123)\n    tag_125:\n        /* \"#utility.yul\":1667:1668   */\n      0x00\n        /* \"#utility.yul\":1658:1664   */\n      dup5\n        /* \"#utility.yul\":1653:1656   */\n      dup5\n        /* \"#utility.yul\":1649:1665   */\n      add\n        /* \"#utility.yul\":1642:1669   */\n      mstore\n        /* \"#utility.yul\":1491:1675   */\n      pop\n        /* \"#utility.yul\":1429:1675   */\n      pop\n      pop\n      pop\n      jump\t// out\n        /* \"#utility.yul\":1681:1783   */\n    tag_72:\n        /* \"#utility.yul\":1722:1728   */\n      0x00\n        /* \"#utility.yul\":1773:1775   */\n      0x1f\n        /* \"#utility.yul\":1769:1776   */\n      not\n        /* \"#utility.yul\":1764:1766   */\n      0x1f\n        /* \"#utility.yul\":1757:1762   */\n      dup4\n        /* \"#utility.yul\":1753:1767   */\n      add\n        /* \"#utility.yul\":1749:1777   */\n      and\n        /* \"#utility.yul\":1739:1777   */\n      swap1\n      pop\n        /* \"#utility.yul\":1681:1783   */\n      swap2\n      swap1\n      pop\n      jump\t// out\n        /* \"#utility.yul\":1789:2166   */\n    tag_73:\n        /* \"#utility.yul\":1877:1880   */\n      0x00\n        /* \"#utility.yul\":1905:1944   */\n      tag_128\n        /* \"#utility.yul\":1938:1943   */\n      dup3\n        /* \"#utility.yul\":1905:1944   */\n      tag_69\n      jump\t// in\n    tag_128:\n        /* \"#utility.yul\":1960:2031   */\n      tag_129\n        /* \"#utility.yul\":2024:2030   */\n      dup2\n        /* \"#utility.yul\":2019:2022   */\n      dup6\n        /* \"#utility.yul\":1960:2031   */\n      tag_70\n      jump\t// in\n    tag_129:\n        /* \"#utility.yul\":1953:2031   */\n      swap4\n      pop\n        /* \"#utility.yul\":2040:2105   */\n      tag_130\n        /* \"#utility.yul\":2098:2104   */\n      dup2\n        /* \"#utility.yul\":2093:2096   */\n      dup6\n        /* \"#utility.yul\":2086:2090   */\n      0x20\n        /* \"#utility.yul\":2079:2084   */\n      dup7\n        /* \"#utility.yul\":2075:2091   */\n      add\n        /* \"#utility.yul\":2040:2105   */\n      tag_71\n      jump\t// in\n    tag_130:\n        /* \"#utility.yul\":2130:2159   */\n      tag_131\n        /* \"#utility.yul\":2152:2158   */\n      dup2\n        /* \"#utility.yul\":2130:2159   */\n      tag_72\n      jump\t// in\n    tag_131:\n        /* \"#utility.yul\":2125:2128   */\n      dup5\n        /* \"#utility.yul\":2121:2160   */\n      add\n        /* \"#utility.yul\":2114:2160   */\n      swap2\n      pop\n        /* \"#utility.yul\":1881:2166   */\n      pop\n        /* \"#utility.yul\":1789:2166   */\n      swap3\n      swap2\n      pop\n      pop\n      jump\t// out\n        /* \"#utility.yul\":2172:2705   */\n    tag_13:\n        /* \"#utility.yul\":2341:2345   */\n      0x00\n        /* \"#utility.yul\":2379:2381   */\n      0x60\n        /* \"#utility.yul\":2368:2377   */\n      dup3\n        /* \"#utility.yul\":2364:2382   */\n      add\n        /* \"#utility.yul\":2356:2382   */\n      swap1\n      pop\n        /* \"#utility.yul\":2392:2463   */\n      tag_133\n        /* \"#utility.yul\":2460:2461   */\n      0x00\n        /* \"#utility.yul\":2449:2458   */\n      dup4\n        /* \"#utility.yul\":2445:2462   */\n      add\n        /* \"#utility.yul\":2436:2442   */\n      dup7\n        /* \"#utility.yul\":2392:2463   */\n      tag_68\n      jump\t// in\n    tag_133:\n        /* \"#utility.yul\":2510:2519   */\n      dup2\n        /* \"#utility.yul\":2504:2508   */\n      dup2\n        /* \"#utility.yul\":2500:2520   */\n      sub\n        /* \"#utility.yul\":2495:2497   */\n      0x20\n        /* \"#utility.yul\":2484:2493   */\n      dup4\n        /* \"#utility.yul\":2480:2498   */\n      add\n        /* \"#utility.yul\":2473:2521   */\n      mstore\n        /* \"#utility.yul\":2538:2616   */\n      tag_134\n        /* \"#utility.yul\":2611:2615   */\n      dup2\n        /* \"#utility.yul\":2602:2608   */\n      dup6\n        /* \"#utility.yul\":2538:2616   */\n      tag_73\n      jump\t// in\n    tag_134:\n        /* \"#utility.yul\":2530:2616   */\n      swap1\n      pop\n        /* \"#utility.yul\":2626:2698   */\n      tag_135\n        /* \"#utility.yul\":2694:2696   */\n      0x40\n        /* \"#utility.yul\":2683:2692   */\n      dup4\n        /* \"#utility.yul\":2679:2697   */\n      add\n        /* \"#utility.yul\":2670:2676   */\n      dup5\n        /* \"#utility.yul\":2626:2698   */\n      tag_68\n      jump\t// in\n    tag_135:\n        /* \"#utility.yul\":2172:2705   */\n      swap5\n      swap4\n      pop\n      pop\n      pop\n      pop\n      jump\t// out\n        /* \"#utility.yul\":2711:2933   */\n    tag_24:\n        /* \"#utility.yul\":2804:2808   */\n      0x00\n        /* \"#utility.yul\":2842:2844   */\n      0x20\n        /* \"#utility.yul\":2831:2840   */\n      dup3\n        /* \"#utility.yul\":2827:2845   */\n      add\n        /* \"#utility.yul\":2819:2845   */\n      swap1\n      pop\n        /* \"#utility.yul\":2855:2926   */\n      tag_137\n        /* \"#utility.yul\":2923:2924   */\n      0x00\n        /* \"#utility.yul\":2912:2921   */\n      dup4\n        /* \"#utility.yul\":2908:2925   */\n      add\n        /* \"#utility.yul\":2899:2905   */\n      dup5\n        /* \"#utility.yul\":2855:2926   */\n      tag_68\n      jump\t// in\n    tag_137:\n        /* \"#utility.yul\":2711:2933   */\n      swap3\n      swap2\n      pop\n      pop\n      jump\t// out\n        /* \"#utility.yul\":2939:3056   */\n    tag_74:\n        /* \"#utility.yul\":3048:3049   */\n      0x00\n        /* \"#utility.yul\":3045:3046   */\n      dup1\n        /* \"#utility.yul\":3038:3050   */\n      revert\n        /* \"#utility.yul\":3062:3179   */\n    tag_75:\n        /* \"#utility.yul\":3171:3172   */\n      0x00\n        /* \"#utility.yul\":3168:3169   */\n      dup1\n        /* \"#utility.yul\":3161:3173   */\n      revert\n        /* \"#utility.yul\":3185:3365   */\n    tag_76:\n        /* \"#utility.yul\":3233:3310   */\n      0x4e487b7100000000000000000000000000000000000000000000000000000000\n        /* \"#utility.yul\":3230:3231   */\n      0x00\n        /* \"#utility.yul\":3223:3311   */\n      mstore\n        /* \"#utility.yul\":3330:3334   */\n      0x41\n        /* \"#utility.yul\":3327:3328   */\n      0x04\n        /* \"#utility.yul\":3320:3335   */\n      mstore\n        /* \"#utility.yul\":3354:3358   */\n      0x24\n        /* \"#utility.yul\":3351:3352   */\n      0x00\n        /* \"#utility.yul\":3344:3359   */\n      revert\n        /* \"#utility.yul\":3371:3652   */\n    tag_77:\n        /* \"#utility.yul\":3454:3481   */\n      tag_142\n        /* \"#utility.yul\":3476:3480   */\n      dup3\n        /* \"#utility.yul\":3454:3481   */\n      tag_72\n      jump\t// in\n    tag_142:\n        /* \"#utility.yul\":3446:3452   */\n      dup2\n        /* \"#utility.yul\":3442:3482   */\n      add\n        /* \"#utility.yul\":3584:3590   */\n      dup2\n        /* \"#utility.yul\":3572:3582   */\n      dup2\n        /* \"#utility.yul\":3569:3591   */\n      lt\n        /* \"#utility.yul\":3548:3566   */\n      0xffffffffffffffff\n        /* \"#utility.yul\":3536:3546   */\n      dup3\n        /* \"#utility.yul\":3533:3567   */\n      gt\n        /* \"#utility.yul\":3530:3592   */\n      or\n        /* \"#utility.yul\":3527:3615   */\n      iszero\n      tag_143\n      jumpi\n        /* \"#utility.yul\":3595:3613   */\n      tag_144\n      tag_76\n      jump\t// in\n    tag_144:\n        /* \"#utility.yul\":3527:3615   */\n    tag_143:\n        /* \"#utility.yul\":3635:3645   */\n      dup1\n        /* \"#utility.yul\":3631:3633   */\n      0x40\n        /* \"#utility.yul\":3624:3646   */\n      mstore\n        /* \"#utility.yul\":3414:3652   */\n      pop\n        /* \"#utility.yul\":3371:3652   */\n      pop\n      pop\n      jump\t// out\n        /* \"#utility.yul\":3658:3787   */\n    tag_78:\n        /* \"#utility.yul\":3692:3698   */\n      0x00\n        /* \"#utility.yul\":3719:3739   */\n      tag_146\n      tag_62\n      jump\t// in\n    tag_146:\n        /* \"#utility.yul\":3709:3739   */\n      swap1\n      pop\n        /* \"#utility.yul\":3748:3781   */\n      tag_147\n        /* \"#utility.yul\":3776:3780   */\n      dup3\n        /* \"#utility.yul\":3768:3774   */\n      dup3\n        /* \"#utility.yul\":3748:3781   */\n      tag_77\n      jump\t// in\n    tag_147:\n        /* \"#utility.yul\":3658:3787   */\n      swap2\n      swap1\n      pop\n      jump\t// out\n        /* \"#utility.yul\":3793:4101   */\n    tag_79:\n        /* \"#utility.yul\":3855:3859   */\n      0x00\n        /* \"#utility.yul\":3945:3963   */\n      0xffffffffffffffff\n        /* \"#utility.yul\":3937:3943   */\n      dup3\n        /* \"#utility.yul\":3934:3964   */\n      gt\n        /* \"#utility.yul\":3931:3987   */\n      iszero\n      tag_149\n      jumpi\n        /* \"#utility.yul\":3967:3985   */\n      tag_150\n      tag_76\n      jump\t// in\n    tag_150:\n        /* \"#utility.yul\":3931:3987   */\n    tag_149:\n        /* \"#utility.yul\":4005:4034   */\n      tag_151\n        /* \"#utility.yul\":4027:4033   */\n      dup3\n        /* \"#utility.yul\":4005:4034   */\n      tag_72\n      jump\t// in\n    tag_151:\n        /* \"#utility.yul\":3997:4034   */\n      swap1\n      pop\n        /* \"#utility.yul\":4089:4093   */\n      0x20\n        /* \"#utility.yul\":4083:4087   */\n      dup2\n        /* \"#utility.yul\":4079:4094   */\n      add\n        /* \"#utility.yul\":4071:4094   */\n      swap1\n      pop\n        /* \"#utility.yul\":3793:4101   */\n      swap2\n      swap1\n      pop\n      jump\t// out\n        /* \"#utility.yul\":4107:4253   */\n    tag_80:\n        /* \"#utility.yul\":4204:4210   */\n      dup3\n        /* \"#utility.yul\":4199:4202   */\n      dup2\n        /* \"#utility.yul\":4194:4197   */\n      dup4\n        /* \"#utility.yul\":4181:4211   */\n      calldatacopy\n        /* \"#utility.yul\":4245:4246   */\n      0x00\n        /* \"#utility.yul\":4236:4242   */\n      dup4\n        /* \"#utility.yul\":4231:4234   */\n      dup4\n        /* \"#utility.yul\":4227:4243   */\n      add\n        /* \"#utility.yul\":4220:4247   */\n      mstore\n        /* \"#utility.yul\":4107:4253   */\n      pop\n      pop\n      pop\n      jump\t// out\n        /* \"#utility.yul\":4259:4684   */\n    tag_81:\n        /* \"#utility.yul\":4337:4342   */\n      0x00\n        /* \"#utility.yul\":4362:4428   */\n      tag_154\n        /* \"#utility.yul\":4378:4427   */\n      tag_155\n        /* \"#utility.yul\":4420:4426   */\n      dup5\n        /* \"#utility.yul\":4378:4427   */\n      tag_79\n      jump\t// in\n    tag_155:\n        /* \"#utility.yul\":4362:4428   */\n      tag_78\n      jump\t// in\n    tag_154:\n        /* \"#utility.yul\":4353:4428   */\n      swap1\n      pop\n        /* \"#utility.yul\":4451:4457   */\n      dup3\n        /* \"#utility.yul\":4444:4449   */\n      dup2\n        /* \"#utility.yul\":4437:4458   */\n      mstore\n        /* \"#utility.yul\":4489:4493   */\n      0x20\n        /* \"#utility.yul\":4482:4487   */\n      dup2\n        /* \"#utility.yul\":4478:4494   */\n      add\n        /* \"#utility.yul\":4527:4530   */\n      dup5\n        /* \"#utility.yul\":4518:4524   */\n      dup5\n        /* \"#utility.yul\":4513:4516   */\n      dup5\n        /* \"#utility.yul\":4509:4525   */\n      add\n        /* \"#utility.yul\":4506:4531   */\n      gt\n        /* \"#utility.yul\":4503:4615   */\n      iszero\n      tag_156\n      jumpi\n        /* \"#utility.yul\":4534:4613   */\n      tag_157\n      tag_75\n      jump\t// in\n    tag_157:\n        /* \"#utility.yul\":4503:4615   */\n    tag_156:\n        /* \"#utility.yul\":4624:4678   */\n      tag_158\n        /* \"#utility.yul\":4671:4677   */\n      dup5\n        /* \"#utility.yul\":4666:4669   */\n      dup3\n        /* \"#utility.yul\":4661:4664   */\n      dup6\n        /* \"#utility.yul\":4624:4678   */\n      tag_80\n      jump\t// in\n    tag_158:\n        /* \"#utility.yul\":4343:4684   */\n      pop\n        /* \"#utility.yul\":4259:4684   */\n      swap4\n      swap3\n      pop\n      pop\n      pop\n      jump\t// out\n        /* \"#utility.yul\":4704:5044   */\n    tag_82:\n        /* \"#utility.yul\":4760:4765   */\n      0x00\n        /* \"#utility.yul\":4809:4812   */\n      dup3\n        /* \"#utility.yul\":4802:4806   */\n      0x1f\n        /* \"#utility.yul\":4794:4800   */\n      dup4\n        /* \"#utility.yul\":4790:4807   */\n      add\n        /* \"#utility.yul\":4786:4813   */\n      slt\n        /* \"#utility.yul\":4776:4898   */\n      tag_160\n      jumpi\n        /* \"#utility.yul\":4817:4896   */\n      tag_161\n      tag_74\n      jump\t// in\n    tag_161:\n        /* \"#utility.yul\":4776:4898   */\n    tag_160:\n        /* \"#utility.yul\":4934:4940   */\n      dup2\n        /* \"#utility.yul\":4921:4941   */\n      calldataload\n        /* \"#utility.yul\":4959:5038   */\n      tag_162\n        /* \"#utility.yul\":5034:5037   */\n      dup5\n        /* \"#utility.yul\":5026:5032   */\n      dup3\n        /* \"#utility.yul\":5019:5023   */\n      0x20\n        /* \"#utility.yul\":5011:5017   */\n      dup7\n        /* \"#utility.yul\":5007:5024   */\n      add\n        /* \"#utility.yul\":4959:5038   */\n      tag_81\n      jump\t// in\n    tag_162:\n        /* \"#utility.yul\":4950:5038   */\n      swap2\n      pop\n        /* \"#utility.yul\":4766:5044   */\n      pop\n        /* \"#utility.yul\":4704:5044   */\n      swap3\n      swap2\n      pop\n      pop\n      jump\t// out\n        /* \"#utility.yul\":5050:5849   */\n    tag_27:\n        /* \"#utility.yul\":5137:5143   */\n      0x00\n        /* \"#utility.yul\":5145:5151   */\n      dup1\n        /* \"#utility.yul\":5153:5159   */\n      0x00\n        /* \"#utility.yul\":5202:5204   */\n      0x60\n        /* \"#utility.yul\":5190:5199   */\n      dup5\n        /* \"#utility.yul\":5181:5188   */\n      dup7\n        /* \"#utility.yul\":5177:5200   */\n      sub\n        /* \"#utility.yul\":5173:5205   */\n      slt\n        /* \"#utility.yul\":5170:5289   */\n      iszero\n      tag_164\n      jumpi\n        /* \"#utility.yul\":5208:5287   */\n      tag_165\n      tag_63\n      jump\t// in\n    tag_165:\n        /* \"#utility.yul\":5170:5289   */\n    tag_164:\n        /* \"#utility.yul\":5328:5329   */\n      0x00\n        /* \"#utility.yul\":5353:5406   */\n      tag_166\n        /* \"#utility.yul\":5398:5405   */\n      dup7\n        /* \"#utility.yul\":5389:5395   */\n      dup3\n        /* \"#utility.yul\":5378:5387   */\n      dup8\n        /* \"#utility.yul\":5374:5396   */\n      add\n        /* \"#utility.yul\":5353:5406   */\n      tag_67\n      jump\t// in\n    tag_166:\n        /* \"#utility.yul\":5343:5406   */\n      swap4\n      pop\n        /* \"#utility.yul\":5299:5416   */\n      pop\n        /* \"#utility.yul\":5483:5485   */\n      0x20\n        /* \"#utility.yul\":5472:5481   */\n      dup5\n        /* \"#utility.yul\":5468:5486   */\n      add\n        /* \"#utility.yul\":5455:5487   */\n      calldataload\n        /* \"#utility.yul\":5514:5532   */\n      0xffffffffffffffff\n        /* \"#utility.yul\":5506:5512   */\n      dup2\n        /* \"#utility.yul\":5503:5533   */\n      gt\n        /* \"#utility.yul\":5500:5617   */\n      iszero\n      tag_167\n      jumpi\n        /* \"#utility.yul\":5536:5615   */\n      tag_168\n      tag_64\n      jump\t// in\n    tag_168:\n        /* \"#utility.yul\":5500:5617   */\n    tag_167:\n        /* \"#utility.yul\":5641:5704   */\n      tag_169\n        /* \"#utility.yul\":5696:5703   */\n      dup7\n        /* \"#utility.yul\":5687:5693   */\n      dup3\n        /* \"#utility.yul\":5676:5685   */\n      dup8\n        /* \"#utility.yul\":5672:5694   */\n      add\n        /* \"#utility.yul\":5641:5704   */\n      tag_82\n      jump\t// in\n    tag_169:\n        /* \"#utility.yul\":5631:5704   */\n      swap3\n      pop\n        /* \"#utility.yul\":5426:5714   */\n      pop\n        /* \"#utility.yul\":5753:5755   */\n      0x40\n        /* \"#utility.yul\":5779:5832   */\n      tag_170\n        /* \"#utility.yul\":5824:5831   */\n      dup7\n        /* \"#utility.yul\":5815:5821   */\n      dup3\n        /* \"#utility.yul\":5804:5813   */\n      dup8\n        /* \"#utility.yul\":5800:5822   */\n      add\n        /* \"#utility.yul\":5779:5832   */\n      tag_67\n      jump\t// in\n    tag_170:\n        /* \"#utility.yul\":5769:5832   */\n      swap2\n      pop\n        /* \"#utility.yul\":5724:5842   */\n      pop\n        /* \"#utility.yul\":5050:5849   */\n      swap3\n      pop\n      swap3\n      pop\n      swap3\n      jump\t// out\n        /* \"#utility.yul\":5855:6035   */\n    tag_83:\n        /* \"#utility.yul\":5903:5980   */\n      0x4e487b7100000000000000000000000000000000000000000000000000000000\n        /* \"#utility.yul\":5900:5901   */\n      0x00\n        /* \"#utility.yul\":5893:5981   */\n      mstore\n        /* \"#utility.yul\":6000:6004   */\n      0x22\n        /* \"#utility.yul\":5997:5998   */\n      0x04\n        /* \"#utility.yul\":5990:6005   */\n      mstore\n        /* \"#utility.yul\":6024:6028   */\n      0x24\n        /* \"#utility.yul\":6021:6022   */\n      0x00\n        /* \"#utility.yul\":6014:6029   */\n      revert\n        /* \"#utility.yul\":6041:6361   */\n    tag_30:\n        /* \"#utility.yul\":6085:6091   */\n      0x00\n        /* \"#utility.yul\":6122:6123   */\n      0x02\n        /* \"#utility.yul\":6116:6120   */\n      dup3\n        /* \"#utility.yul\":6112:6124   */\n      div\n        /* \"#utility.yul\":6102:6124   */\n      swap1\n      pop\n        /* \"#utility.yul\":6169:6170   */\n      0x01\n        /* \"#utility.yul\":6163:6167   */\n      dup3\n        /* \"#utility.yul\":6159:6171   */\n      and\n        /* \"#utility.yul\":6190:6208   */\n      dup1\n        /* \"#utility.yul\":6180:6261   */\n      tag_173\n      jumpi\n        /* \"#utility.yul\":6246:6250   */\n      0x7f\n        /* \"#utility.yul\":6238:6244   */\n      dup3\n        /* \"#utility.yul\":6234:6251   */\n      and\n        /* \"#utility.yul\":6224:6251   */\n      swap2\n      pop\n        /* \"#utility.yul\":6180:6261   */\n    tag_173:\n        /* \"#utility.yul\":6308:6310   */\n      0x20\n        /* \"#utility.yul\":6300:6306   */\n      dup3\n        /* \"#utility.yul\":6297:6311   */\n      lt\n        /* \"#utility.yul\":6277:6295   */\n      dup2\n        /* \"#utility.yul\":6274:6312   */\n      sub\n        /* \"#utility.yul\":6271:6355   */\n      tag_174\n      jumpi\n        /* \"#utility.yul\":6327:6345   */\n      tag_175\n      tag_83\n      jump\t// in\n    tag_175:\n        /* \"#utility.yul\":6271:6355   */\n    tag_174:\n        /* \"#utility.yul\":6092:6361   */\n      pop\n        /* \"#utility.yul\":6041:6361   */\n      swap2\n      swap1\n      pop\n      jump\t// out\n        /* \"#utility.yul\":6367:6541   */\n    tag_84:\n        /* \"#utility.yul\":6507:6533   */\n      0x53747564656e74207265636f7264206e6f7420666f756e640000000000000000\n        /* \"#utility.yul\":6503:6504   */\n      0x00\n        /* \"#utility.yul\":6495:6501   */\n      dup3\n        /* \"#utility.yul\":6491:6505   */\n      add\n        /* \"#utility.yul\":6484:6534   */\n      mstore\n        /* \"#utility.yul\":6367:6541   */\n      pop\n      jump\t// out\n        /* \"#utility.yul\":6547:6913   */\n    tag_85:\n        /* \"#utility.yul\":6689:6692   */\n      0x00\n        /* \"#utility.yul\":6710:6777   */\n      tag_178\n        /* \"#utility.yul\":6774:6776   */\n      0x18\n        /* \"#utility.yul\":6769:6772   */\n      dup4\n        /* \"#utility.yul\":6710:6777   */\n      tag_70\n      jump\t// in\n    tag_178:\n        /* \"#utility.yul\":6703:6777   */\n      swap2\n      pop\n        /* \"#utility.yul\":6786:6879   */\n      tag_179\n        /* \"#utility.yul\":6875:6878   */\n      dup3\n        /* \"#utility.yul\":6786:6879   */\n      tag_84\n      jump\t// in\n    tag_179:\n        /* \"#utility.yul\":6904:6906   */\n      0x20\n        /* \"#utility.yul\":6899:6902   */\n      dup3\n        /* \"#utility.yul\":6895:6907   */\n      add\n        /* \"#utility.yul\":6888:6907   */\n      swap1\n      pop\n        /* \"#utility.yul\":6547:6913   */\n      swap2\n      swap1\n      pop\n      jump\t// out\n        /* \"#utility.yul\":6919:7338   */\n    tag_41:\n        /* \"#utility.yul\":7085:7089   */\n      0x00\n        /* \"#utility.yul\":7123:7125   */\n      0x20\n        /* \"#utility.yul\":7112:7121   */\n      dup3\n        /* \"#utility.yul\":7108:7126   */\n      add\n        /* \"#utility.yul\":7100:7126   */\n      swap1\n      pop\n        /* \"#utility.yul\":7172:7181   */\n      dup2\n        /* \"#utility.yul\":7166:7170   */\n      dup2\n        /* \"#utility.yul\":7162:7182   */\n      sub\n        /* \"#utility.yul\":7158:7159   */\n      0x00\n        /* \"#utility.yul\":7147:7156   */\n      dup4\n        /* \"#utility.yul\":7143:7160   */\n      add\n        /* \"#utility.yul\":7136:7183   */\n      mstore\n        /* \"#utility.yul\":7200:7331   */\n      tag_181\n        /* \"#utility.yul\":7326:7330   */\n      dup2\n        /* \"#utility.yul\":7200:7331   */\n      tag_85\n      jump\t// in\n    tag_181:\n        /* \"#utility.yul\":7192:7331   */\n      swap1\n      pop\n        /* \"#utility.yul\":6919:7338   */\n      swap2\n      swap1\n      pop\n      jump\t// out\n        /* \"#utility.yul\":7344:7570   */\n    tag_86:\n        /* \"#utility.yul\":7484:7518   */\n      0x53747564656e742077697468207468652073616d6520494420616c7265616479\n        /* \"#utility.yul\":7480:7481   */\n      0x00\n        /* \"#utility.yul\":7472:7478   */\n      dup3\n        /* \"#utility.yul\":7468:7482   */\n      add\n        /* \"#utility.yul\":7461:7519   */\n      mstore\n        /* \"#utility.yul\":7553:7562   */\n      0x2065786973747300000000000000000000000000000000000000000000000000\n        /* \"#utility.yul\":7548:7550   */\n      0x20\n        /* \"#utility.yul\":7540:7546   */\n      dup3\n        /* \"#utility.yul\":7536:7551   */\n      add\n        /* \"#utility.yul\":7529:7563   */\n      mstore\n        /* \"#utility.yul\":7344:7570   */\n      pop\n      jump\t// out\n        /* \"#utility.yul\":7576:7942   */\n    tag_87:\n        /* \"#utility.yul\":7718:7721   */\n      0x00\n        /* \"#utility.yul\":7739:7806   */\n      tag_184\n        /* \"#utility.yul\":7803:7805   */\n      0x27\n        /* \"#utility.yul\":7798:7801   */\n      dup4\n        /* \"#utility.yul\":7739:7806   */\n      tag_70\n      jump\t// in\n    tag_184:\n        /* \"#utility.yul\":7732:7806   */\n      swap2\n      pop\n        /* \"#utility.yul\":7815:7908   */\n      tag_185\n        /* \"#utility.yul\":7904:7907   */\n      dup3\n        /* \"#utility.yul\":7815:7908   */\n      tag_86\n      jump\t// in\n    tag_185:\n        /* \"#utility.yul\":7933:7935   */\n      0x40\n        /* \"#utility.yul\":7928:7931   */\n      dup3\n        /* \"#utility.yul\":7924:7936   */\n      add\n        /* \"#utility.yul\":7917:7936   */\n      swap1\n      pop\n        /* \"#utility.yul\":7576:7942   */\n      swap2\n      swap1\n      pop\n      jump\t// out\n        /* \"#utility.yul\":7948:8367   */\n    tag_50:\n        /* \"#utility.yul\":8114:8118   */\n      0x00\n        /* \"#utility.yul\":8152:8154   */\n      0x20\n        /* \"#utility.yul\":8141:8150   */\n      dup3\n        /* \"#utility.yul\":8137:8155   */\n      add\n        /* \"#utility.yul\":8129:8155   */\n      swap1\n      pop\n        /* \"#utility.yul\":8201:8210   */\n      dup2\n        /* \"#utility.yul\":8195:8199   */\n      dup2\n        /* \"#utility.yul\":8191:8211   */\n      sub\n        /* \"#utility.yul\":8187:8188   */\n      0x00\n        /* \"#utility.yul\":8176:8185   */\n      dup4\n        /* \"#utility.yul\":8172:8189   */\n      add\n        /* \"#utility.yul\":8165:8212   */\n      mstore\n        /* \"#utility.yul\":8229:8360   */\n      tag_187\n        /* \"#utility.yul\":8355:8359   */\n      dup2\n        /* \"#utility.yul\":8229:8360   */\n      tag_87\n      jump\t// in\n    tag_187:\n        /* \"#utility.yul\":8221:8360   */\n      swap1\n      pop\n        /* \"#utility.yul\":7948:8367   */\n      swap2\n      swap1\n      pop\n      jump\t// out\n        /* \"#utility.yul\":8373:8514   */\n    tag_88:\n        /* \"#utility.yul\":8422:8426   */\n      0x00\n        /* \"#utility.yul\":8445:8448   */\n      dup2\n        /* \"#utility.yul\":8437:8448   */\n      swap1\n      pop\n        /* \"#utility.yul\":8468:8471   */\n      dup2\n        /* \"#utility.yul\":8465:8466   */\n      0x00\n        /* \"#utility.yul\":8458:8472   */\n      mstore\n        /* \"#utility.yul\":8502:8506   */\n      0x20\n        /* \"#utility.yul\":8499:8500   */\n      0x00\n        /* \"#utility.yul\":8489:8507   */\n      keccak256\n        /* \"#utility.yul\":8481:8507   */\n      swap1\n      pop\n        /* \"#utility.yul\":8373:8514   */\n      swap2\n      swap1\n      pop\n      jump\t// out\n        /* \"#utility.yul\":8520:8613   */\n    tag_89:\n        /* \"#utility.yul\":8557:8563   */\n      0x00\n        /* \"#utility.yul\":8604:8606   */\n      0x20\n        /* \"#utility.yul\":8599:8601   */\n      0x1f\n        /* \"#utility.yul\":8592:8597   */\n      dup4\n        /* \"#utility.yul\":8588:8602   */\n      add\n        /* \"#utility.yul\":8584:8607   */\n      div\n        /* \"#utility.yul\":8574:8607   */\n      swap1\n      pop\n        /* \"#utility.yul\":8520:8613   */\n      swap2\n      swap1\n      pop\n      jump\t// out\n        /* \"#utility.yul\":8619:8726   */\n    tag_90:\n        /* \"#utility.yul\":8663:8671   */\n      0x00\n        /* \"#utility.yul\":8713:8718   */\n      dup3\n        /* \"#utility.yul\":8707:8711   */\n      dup3\n        /* \"#utility.yul\":8703:8719   */\n      shl\n        /* \"#utility.yul\":8682:8719   */\n      swap1\n      pop\n        /* \"#utility.yul\":8619:8726   */\n      swap3\n      swap2\n      pop\n      pop\n      jump\t// out\n        /* \"#utility.yul\":8732:9125   */\n    tag_91:\n        /* \"#utility.yul\":8801:8807   */\n      0x00\n        /* \"#utility.yul\":8851:8852   */\n      0x08\n        /* \"#utility.yul\":8839:8849   */\n      dup4\n        /* \"#utility.yul\":8835:8853   */\n      mul\n        /* \"#utility.yul\":8874:8971   */\n      tag_192\n        /* \"#utility.yul\":8904:8970   */\n      0xffffffffffffffffffffffffffffffffffffffffffffffffffffffffffffffff\n        /* \"#utility.yul\":8893:8902   */\n      dup3\n        /* \"#utility.yul\":8874:8971   */\n      tag_90\n      jump\t// in\n    tag_192:\n        /* \"#utility.yul\":8992:9031   */\n      tag_193\n        /* \"#utility.yul\":9022:9030   */\n      dup7\n        /* \"#utility.yul\":9011:9020   */\n      dup4\n        /* \"#utility.yul\":8992:9031   */\n      tag_90\n      jump\t// in\n    tag_193:\n        /* \"#utility.yul\":8980:9031   */\n      swap6\n      pop\n        /* \"#utility.yul\":9064:9068   */\n      dup1\n        /* \"#utility.yul\":9060:9069   */\n      not\n        /* \"#utility.yul\":9053:9058   */\n      dup5\n        /* \"#utility.yul\":9049:9070   */\n      and\n        /* \"#utility.yul\":9040:9070   */\n      swap4\n      pop\n        /* \"#utility.yul\":9113:9117   */\n      dup1\n        /* \"#utility.yul\":9103:9111   */\n      dup7\n        /* \"#utility.yul\":9099:9118   */\n      and\n        /* \"#utility.yul\":9092:9097   */\n      dup5\n        /* \"#utility.yul\":9089:9119   */\n      or\n        /* \"#utility.yul\":9079:9119   */\n      swap3\n      pop\n        /* \"#utility.yul\":8808:9125   */\n      pop\n      pop\n        /* \"#utility.yul\":8732:9125   */\n      swap4\n      swap3\n      pop\n      pop\n      pop\n      jump\t// out\n        /* \"#utility.yul\":9131:9191   */\n    tag_92:\n        /* \"#utility.yul\":9159:9162   */\n      0x00\n        /* \"#utility.yul\":9180:9185   */\n      dup2\n        /* \"#utility.yul\":9173:9185   */\n      swap1\n      pop\n        /* \"#utility.yul\":9131:9191   */\n      swap2\n      swap1\n      pop\n      jump\t// out\n        /* \"#utility.yul\":9197:9339   */\n    tag_93:\n        /* \"#utility.yul\":9247:9256   */\n      0x00\n        /* \"#utility.yul\":9280:9333   */\n      tag_196\n        /* \"#utility.yul\":9298:9332   */\n      tag_197\n        /* \"#utility.yul\":9307:9331   */\n      tag_198\n        /* \"#utility.yul\":9325:9330   */\n      dup5\n        /* \"#utility.yul\":9307:9331   */\n      tag_65\n      jump\t// in\n    tag_198:\n        /* \"#utility.yul\":9298:9332   */\n      tag_92\n      jump\t// in\n    tag_197:\n        /* \"#utility.yul\":9280:9333   */\n      tag_65\n      jump\t// in\n    tag_196:\n        /* \"#utility.yul\":9267:9333   */\n      swap1\n      pop\n        /* \"#utility.yul\":9197:9339   */\n      swap2\n      swap1\n      pop\n      jump\t// out\n        /* \"#utility.yul\":9345:9420   */\n    tag_94:\n        /* \"#utility.yul\":9388:9391   */\n      0x00\n        /* \"#utility.yul\":9409:9414   */\n      dup2\n        /* \"#utility.yul\":9402:9414   */\n      swap1\n      pop\n        /* \"#utility.yul\":9345:9420   */\n      swap2\n      swap1\n      pop\n      jump\t// out\n        /* \"#utility.yul\":9426:9695   */\n    tag_95:\n        /* \"#utility.yul\":9536:9575   */\n      tag_201\n        /* \"#utility.yul\":9567:9574   */\n      dup4\n        /* \"#utility.yul\":9536:9575   */\n      tag_93\n      jump\t// in\n    tag_201:\n        /* \"#utility.yul\":9597:9688   */\n      tag_202\n        /* \"#utility.yul\":9646:9687   */\n      tag_203\n        /* \"#utility.yul\":9670:9686   */\n      dup3\n        /* \"#utility.yul\":9646:9687   */\n      tag_94\n      jump\t// in\n    tag_203:\n        /* \"#utility.yul\":9638:9644   */\n      dup5\n        /* \"#utility.yul\":9631:9635   */\n      dup5\n        /* \"#utility.yul\":9625:9636   */\n      sload\n        /* \"#utility.yul\":9597:9688   */\n      tag_91\n      jump\t// in\n    tag_202:\n        /* \"#utility.yul\":9591:9595   */\n      dup3\n        /* \"#utility.yul\":9584:9689   */\n      sstore\n        /* \"#utility.yul\":9502:9695   */\n      pop\n        /* \"#utility.yul\":9426:9695   */\n      pop\n      pop\n      pop\n      jump\t// out\n        /* \"#utility.yul\":9701:9774   */\n    tag_96:\n        /* \"#utility.yul\":9746:9749   */\n      0x00\n        /* \"#utility.yul\":9701:9774   */\n      swap1\n      jump\t// out\n        /* \"#utility.yul\":9780:9969   */\n    tag_97:\n        /* \"#utility.yul\":9857:9889   */\n      tag_206\n      tag_96\n      jump\t// in\n    tag_206:\n        /* \"#utility.yul\":9898:9963   */\n      tag_207\n        /* \"#utility.yul\":9956:9962   */\n      dup2\n        /* \"#utility.yul\":9948:9954   */\n      dup5\n        /* \"#utility.yul\":9942:9946   */\n      dup5\n        /* \"#utility.yul\":9898:9963   */\n      tag_95\n      jump\t// in\n    tag_207:\n        /* \"#utility.yul\":9833:9969   */\n      pop\n        /* \"#utility.yul\":9780:9969   */\n      pop\n      pop\n      jump\t// out\n        /* \"#utility.yul\":9975:10161   */\n    tag_98:\n        /* \"#utility.yul\":10035:10155   */\n    tag_209:\n        /* \"#utility.yul\":10052:10055   */\n      dup2\n        /* \"#utility.yul\":10045:10050   */\n      dup2\n        /* \"#utility.yul\":10042:10056   */\n      lt\n        /* \"#utility.yul\":10035:10155   */\n      iszero\n      tag_211\n      jumpi\n        /* \"#utility.yul\":10106:10145   */\n      tag_212\n        /* \"#utility.yul\":10143:10144   */\n      0x00\n        /* \"#utility.yul\":10136:10141   */\n      dup3\n        /* \"#utility.yul\":10106:10145   */\n      tag_97\n      jump\t// in\n    tag_212:\n        /* \"#utility.yul\":10079:10080   */\n      0x01\n        /* \"#utility.yul\":10072:10077   */\n      dup2\n        /* \"#utility.yul\":10068:10081   */\n      add\n        /* \"#utility.yul\":10059:10081   */\n      swap1\n      pop\n        /* \"#utility.yul\":10035:10155   */\n      jump(tag_209)\n    tag_211:\n        /* \"#utility.yul\":9975:10161   */\n      pop\n      pop\n      jump\t// out\n        /* \"#utility.yul\":10167:10710   */\n    tag_99:\n        /* \"#utility.yul\":10268:10270   */\n      0x1f\n        /* \"#utility.yul\":10263:10266   */\n      dup3\n        /* \"#utility.yul\":10260:10271   */\n      gt\n        /* \"#utility.yul\":10257:10703   */\n      iszero\n      tag_214\n      jumpi\n        /* \"#utility.yul\":10302:10340   */\n      tag_215\n        /* \"#utility.yul\":10334:10339   */\n      dup2\n        /* \"#utility.yul\":10302:10340   */\n      tag_88\n      jump\t// in\n    tag_215:\n        /* \"#utility.yul\":10386:10415   */\n      tag_216\n        /* \"#utility.yul\":10404:10414   */\n      dup5\n        /* \"#utility.yul\":10386:10415   */\n      tag_89\n      jump\t// in\n    tag_216:\n        /* \"#utility.yul\":10376:10384   */\n      dup2\n        /* \"#utility.yul\":10372:10416   */\n      add\n        /* \"#utility.yul\":10569:10571   */\n      0x20\n        /* \"#utility.yul\":10557:10567   */\n      dup6\n        /* \"#utility.yul\":10554:10572   */\n      lt\n        /* \"#utility.yul\":10551:10600   */\n      iszero\n      tag_217\n      jumpi\n        /* \"#utility.yul\":10590:10598   */\n      dup2\n        /* \"#utility.yul\":10575:10598   */\n      swap1\n      pop\n        /* \"#utility.yul\":10551:10600   */\n    tag_217:\n        /* \"#utility.yul\":10613:10693   */\n      tag_218\n        /* \"#utility.yul\":10669:10691   */\n      tag_219\n        /* \"#utility.yul\":10687:10690   */\n      dup6\n        /* \"#utility.yul\":10669:10691   */\n      tag_89\n      jump\t// in\n    tag_219:\n        /* \"#utility.yul\":10659:10667   */\n      dup4\n        /* \"#utility.yul\":10655:10692   */\n      add\n        /* \"#utility.yul\":10642:10653   */\n      dup3\n        /* \"#utility.yul\":10613:10693   */\n      tag_98\n      jump\t// in\n    tag_218:\n        /* \"#utility.yul\":10272:10703   */\n      pop\n      pop\n        /* \"#utility.yul\":10257:10703   */\n    tag_214:\n        /* \"#utility.yul\":10167:10710   */\n      pop\n      pop\n      pop\n      jump\t// out\n        /* \"#utility.yul\":10716:10833   */\n    tag_100:\n        /* \"#utility.yul\":10770:10778   */\n      0x00\n        /* \"#utility.yul\":10820:10825   */\n      dup3\n        /* \"#utility.yul\":10814:10818   */\n      dup3\n        /* \"#utility.yul\":10810:10826   */\n      shr\n        /* \"#utility.yul\":10789:10826   */\n      swap1\n      pop\n        /* \"#utility.yul\":10716:10833   */\n      swap3\n      swap2\n      pop\n      pop\n      jump\t// out\n        /* \"#utility.yul\":10839:11008   */\n    tag_101:\n        /* \"#utility.yul\":10883:10889   */\n      0x00\n        /* \"#utility.yul\":10916:10967   */\n      tag_222\n        /* \"#utility.yul\":10964:10965   */\n      0x00\n        /* \"#utility.yul\":10960:10966   */\n      not\n        /* \"#utility.yul\":10952:10957   */\n      dup5\n        /* \"#utility.yul\":10949:10950   */\n      0x08\n        /* \"#utility.yul\":10945:10958   */\n      mul\n        /* \"#utility.yul\":10916:10967   */\n      tag_100\n      jump\t// in\n    tag_222:\n        /* \"#utility.yul\":10912:10968   */\n      not\n        /* \"#utility.yul\":10997:11001   */\n      dup1\n        /* \"#utility.yul\":10991:10995   */\n      dup4\n        /* \"#utility.yul\":10987:11002   */\n      and\n        /* \"#utility.yul\":10977:11002   */\n      swap2\n      pop\n        /* \"#utility.yul\":10890:11008   */\n      pop\n        /* \"#utility.yul\":10839:11008   */\n      swap3\n      swap2\n      pop\n      pop\n      jump\t// out\n        /* \"#utility.yul\":11013:11308   */\n    tag_102:\n        /* \"#utility.yul\":11089:11093   */\n      0x00\n        /* \"#utility.yul\":11235:11264   */\n      tag_224\n        /* \"#utility.yul\":11260:11263   */\n      dup4\n        /* \"#utility.yul\":11254:11258   */\n      dup4\n        /* \"#utility.yul\":11235:11264   */\n      tag_101\n      jump\t// in\n    tag_224:\n        /* \"#utility.yul\":11227:11264   */\n      swap2\n      pop\n        /* \"#utility.yul\":11297:11300   */\n      dup3\n        /* \"#utility.yul\":11294:11295   */\n      0x02\n        /* \"#utility.yul\":11290:11301   */\n      mul\n        /* \"#utility.yul\":11284:11288   */\n      dup3\n        /* \"#utility.yul\":11281:11302   */\n      or\n        /* \"#utility.yul\":11273:11302   */\n      swap1\n      pop\n        /* \"#utility.yul\":11013:11308   */\n      swap3\n      swap2\n      pop\n      pop\n      jump\t// out\n        /* \"#utility.yul\":11313:12708   */\n    tag_52:\n        /* \"#utility.yul\":11430:11467   */\n      tag_226\n        /* \"#utility.yul\":11463:11466   */\n      dup3\n        /* \"#utility.yul\":11430:11467   */\n      tag_69\n      jump\t// in\n    tag_226:\n        /* \"#utility.yul\":11532:11550   */\n      0xffffffffffffffff\n        /* \"#utility.yul\":11524:11530   */\n      dup2\n        /* \"#utility.yul\":11521:11551   */\n      gt\n        /* \"#utility.yul\":11518:11574   */\n      iszero\n      tag_227\n      jumpi\n        /* \"#utility.yul\":11554:11572   */\n      tag_228\n      tag_76\n      jump\t// in\n    tag_228:\n        /* \"#utility.yul\":11518:11574   */\n    tag_227:\n        /* \"#utility.yul\":11598:11636   */\n      tag_229\n        /* \"#utility.yul\":11630:11634   */\n      dup3\n        /* \"#utility.yul\":11624:11635   */\n      sload\n        /* \"#utility.yul\":11598:11636   */\n      tag_30\n      jump\t// in\n    tag_229:\n        /* \"#utility.yul\":11683:11750   */\n      tag_230\n        /* \"#utility.yul\":11743:11749   */\n      dup3\n        /* \"#utility.yul\":11735:11741   */\n      dup3\n        /* \"#utility.yul\":11729:11733   */\n      dup6\n        /* \"#utility.yul\":11683:11750   */\n      tag_99\n      jump\t// in\n    tag_230:\n        /* \"#utility.yul\":11777:11778   */\n      0x00\n        /* \"#utility.yul\":11801:11805   */\n      0x20\n        /* \"#utility.yul\":11788:11805   */\n      swap1\n      pop\n        /* \"#utility.yul\":11833:11835   */\n      0x1f\n        /* \"#utility.yul\":11825:11831   */\n      dup4\n        /* \"#utility.yul\":11822:11836   */\n      gt\n        /* \"#utility.yul\":11850:11851   */\n      0x01\n        /* \"#utility.yul\":11845:12463   */\n      dup2\n      eq\n      tag_232\n      jumpi\n        /* \"#utility.yul\":12507:12508   */\n      0x00\n        /* \"#utility.yul\":12524:12530   */\n      dup5\n        /* \"#utility.yul\":12521:12598   */\n      iszero\n      tag_233\n      jumpi\n        /* \"#utility.yul\":12573:12582   */\n      dup3\n        /* \"#utility.yul\":12568:12571   */\n      dup8\n        /* \"#utility.yul\":12564:12583   */\n      add\n        /* \"#utility.yul\":12558:12584   */\n      mload\n        /* \"#utility.yul\":12549:12584   */\n      swap1\n      pop\n        /* \"#utility.yul\":12521:12598   */\n    tag_233:\n        /* \"#utility.yul\":12624:12691   */\n      tag_234\n        /* \"#utility.yul\":12684:12690   */\n      dup6\n        /* \"#utility.yul\":12677:12682   */\n      dup3\n        /* \"#utility.yul\":12624:12691   */\n      tag_102\n      jump\t// in\n    tag_234:\n        /* \"#utility.yul\":12618:12622   */\n      dup7\n        /* \"#utility.yul\":12611:12692   */\n      sstore\n        /* \"#utility.yul\":12480:12702   */\n      pop\n        /* \"#utility.yul\":11815:12702   */\n      jump(tag_231)\n        /* \"#utility.yul\":11845:12463   */\n    tag_232:\n        /* \"#utility.yul\":11897:11901   */\n      0x1f\n        /* \"#utility.yul\":11893:11902   */\n      not\n        /* \"#utility.yul\":11885:11891   */\n      dup5\n        /* \"#utility.yul\":11881:11903   */\n      and\n        /* \"#utility.yul\":11931:11968   */\n      tag_235\n        /* \"#utility.yul\":11963:11967   */\n      dup7\n        /* \"#utility.yul\":11931:11968   */\n      tag_88\n      jump\t// in\n    tag_235:\n        /* \"#utility.yul\":11990:11991   */\n      0x00\n        /* \"#utility.yul\":12004:12212   */\n    tag_236:\n        /* \"#utility.yul\":12018:12025   */\n      dup3\n        /* \"#utility.yul\":12015:12016   */\n      dup2\n        /* \"#utility.yul\":12012:12026   */\n      lt\n        /* \"#utility.yul\":12004:12212   */\n      iszero\n      tag_238\n      jumpi\n        /* \"#utility.yul\":12097:12106   */\n      dup5\n        /* \"#utility.yul\":12092:12095   */\n      dup10\n        /* \"#utility.yul\":12088:12107   */\n      add\n        /* \"#utility.yul\":12082:12108   */\n      mload\n        /* \"#utility.yul\":12074:12080   */\n      dup3\n        /* \"#utility.yul\":12067:12109   */\n      sstore\n        /* \"#utility.yul\":12148:12149   */\n      0x01\n        /* \"#utility.yul\":12140:12146   */\n      dup3\n        /* \"#utility.yul\":12136:12150   */\n      add\n        /* \"#utility.yul\":12126:12150   */\n      swap2\n      pop\n        /* \"#utility.yul\":12195:12197   */\n      0x20\n        /* \"#utility.yul\":12184:12193   */\n      dup6\n        /* \"#utility.yul\":12180:12198   */\n      add\n        /* \"#utility.yul\":12167:12198   */\n      swap5\n      pop\n        /* \"#utility.yul\":12041:12045   */\n      0x20\n        /* \"#utility.yul\":12038:12039   */\n      dup2\n        /* \"#utility.yul\":12034:12046   */\n      add\n        /* \"#utility.yul\":12029:12046   */\n      swap1\n      pop\n        /* \"#utility.yul\":12004:12212   */\n      jump(tag_236)\n    tag_238:\n        /* \"#utility.yul\":12240:12246   */\n      dup7\n        /* \"#utility.yul\":12231:12238   */\n      dup4\n        /* \"#utility.yul\":12228:12247   */\n      lt\n        /* \"#utility.yul\":12225:12404   */\n      iszero\n      tag_239\n      jumpi\n        /* \"#utility.yul\":12298:12307   */\n      dup5\n        /* \"#utility.yul\":12293:12296   */\n      dup10\n        /* \"#utility.yul\":12289:12308   */\n      add\n        /* \"#utility.yul\":12283:12309   */\n      mload\n        /* \"#utility.yul\":12341:12389   */\n      tag_240\n        /* \"#utility.yul\":12383:12387   */\n      0x1f\n        /* \"#utility.yul\":12375:12381   */\n      dup10\n        /* \"#utility.yul\":12371:12388   */\n      and\n        /* \"#utility.yul\":12360:12369   */\n      dup3\n        /* \"#utility.yul\":12341:12389   */\n      tag_101\n      jump\t// in\n    tag_240:\n        /* \"#utility.yul\":12333:12339   */\n      dup4\n        /* \"#utility.yul\":12326:12390   */\n      sstore\n        /* \"#utility.yul\":12248:12404   */\n      pop\n        /* \"#utility.yul\":12225:12404   */\n    tag_239:\n        /* \"#utility.yul\":12450:12451   */\n      0x01\n        /* \"#utility.yul\":12446:12447   */\n      0x02\n        /* \"#utility.yul\":12438:12444   */\n      dup9\n        /* \"#utility.yul\":12434:12448   */\n      mul\n        /* \"#utility.yul\":12430:12452   */\n      add\n        /* \"#utility.yul\":12424:12428   */\n      dup9\n        /* \"#utility.yul\":12417:12453   */\n      sstore\n        /* \"#utility.yul\":11852:12463   */\n      pop\n      pop\n      pop\n        /* \"#utility.yul\":11815:12702   */\n    tag_231:\n      pop\n        /* \"#utility.yul\":11405:12708   */\n      pop\n      pop\n      pop\n        /* \"#utility.yul\":11313:12708   */\n      pop\n      pop\n      jump\t// out\n        /* \"#utility.yul\":12714:12894   */\n    tag_103:\n        /* \"#utility.yul\":12762:12839   */\n      0x4e487b7100000000000000000000000000000000000000000000000000000000\n        /* \"#utility.yul\":12759:12760   */\n      0x00\n        /* \"#utility.yul\":12752:12840   */\n      mstore\n        /* \"#utility.yul\":12859:12863   */\n      0x11\n        /* \"#utility.yul\":12856:12857   */\n      0x04\n        /* \"#utility.yul\":12849:12864   */\n      mstore\n        /* \"#utility.yul\":12883:12887   */\n      0x24\n        /* \"#utility.yul\":12880:12881   */\n      0x00\n        /* \"#utility.yul\":12873:12888   */\n      revert\n        /* \"#utility.yul\":12900:13133   */\n    tag_54:\n        /* \"#utility.yul\":12939:12942   */\n      0x00\n        /* \"#utility.yul\":12962:12986   */\n      tag_243\n        /* \"#utility.yul\":12980:12985   */\n      dup3\n        /* \"#utility.yul\":12962:12986   */\n      tag_65\n      jump\t// in\n    tag_243:\n        /* \"#utility.yul\":12953:12986   */\n      swap2\n      pop\n        /* \"#utility.yul\":13008:13074   */\n      0xffffffffffffffffffffffffffffffffffffffffffffffffffffffffffffffff\n        /* \"#utility.yul\":13001:13006   */\n      dup3\n        /* \"#utility.yul\":12998:13075   */\n      sub\n        /* \"#utility.yul\":12995:13098   */\n      tag_244\n      jumpi\n        /* \"#utility.yul\":13078:13096   */\n      tag_245\n      tag_103\n      jump\t// in\n    tag_245:\n        /* \"#utility.yul\":12995:13098   */\n    tag_244:\n        /* \"#utility.yul\":13125:13126   */\n      0x01\n        /* \"#utility.yul\":13118:13123   */\n      dup3\n        /* \"#utility.yul\":13114:13127   */\n      add\n        /* \"#utility.yul\":13107:13127   */\n      swap1\n      pop\n        /* \"#utility.yul\":12900:13133   */\n      swap2\n      swap1\n      pop\n      jump\t// out\n\n    auxdata: 0xa264697066735822122018fcdc0d869863df9cdd4332d8aef340b1fba739c88e35b12bdd6fbfc19cc86d64736f6c63430008120033\n}\n",
				"bytecode": {
					"linkReferences": {},
					"object": "60806040523480156200001157600080fd5b506200005c60016040518060400160405280600581526020017f416c6963650000000000000000000000000000000000000000000000000000008152506014620000f660201b60201c565b620000a660026040518060400160405280600381526020017f426f6200000000000000000000000000000000000000000000000000000000008152506016620000f660201b60201c565b620000f060036040518060400160405280600781526020017f436861726c6965000000000000000000000000000000000000000000000000008152506015620000f660201b60201c565b62000658565b6000806000858152602001908152602001600020600201541462000151576040517f08c379a0000000000000000000000000000000000000000000000000000000008152600401620001489062000259565b60405180910390fd5b6000604051806060016040528085815260200184815260200183815250905080600080868152602001908152602001600020600082015181600001556020820151816001019081620001a49190620004f5565b506040820151816002015590505060016000815480929190620001c7906200060b565b919050555050505050565b600082825260208201905092915050565b7f53747564656e742077697468207468652073616d6520494420616c726561647960008201527f2065786973747300000000000000000000000000000000000000000000000000602082015250565b600062000241602783620001d2565b91506200024e82620001e3565b604082019050919050565b60006020820190508181036000830152620002748162000232565b9050919050565b600081519050919050565b7f4e487b7100000000000000000000000000000000000000000000000000000000600052604160045260246000fd5b7f4e487b7100000000000000000000000000000000000000000000000000000000600052602260045260246000fd5b60006002820490506001821680620002fd57607f821691505b602082108103620003135762000312620002b5565b5b50919050565b60008190508160005260206000209050919050565b60006020601f8301049050919050565b600082821b905092915050565b6000600883026200037d7fffffffffffffffffffffffffffffffffffffffffffffffffffffffffffffffff826200033e565b6200038986836200033e565b95508019841693508086168417925050509392505050565b6000819050919050565b6000819050919050565b6000620003d6620003d0620003ca84620003a1565b620003ab565b620003a1565b9050919050565b6000819050919050565b620003f283620003b5565b6200040a6200040182620003dd565b8484546200034b565b825550505050565b600090565b6200042162000412565b6200042e818484620003e7565b505050565b5b8181101562000456576200044a60008262000417565b60018101905062000434565b5050565b601f821115620004a5576200046f8162000319565b6200047a846200032e565b810160208510156200048a578190505b620004a262000499856200032e565b83018262000433565b50505b505050565b600082821c905092915050565b6000620004ca60001984600802620004aa565b1980831691505092915050565b6000620004e58383620004b7565b9150826002028217905092915050565b62000500826200027b565b67ffffffffffffffff8111156200051c576200051b62000286565b5b620005288254620002e4565b620005358282856200045a565b600060209050601f8311600181146200056d576000841562000558578287015190505b620005648582620004d7565b865550620005d4565b601f1984166200057d8662000319565b60005b82811015620005a75784890151825560018201915060208501945060208101905062000580565b86831015620005c75784890151620005c3601f891682620004b7565b8355505b6001600288020188555050505b505050505050565b7f4e487b7100000000000000000000000000000000000000000000000000000000600052601160045260246000fd5b60006200061882620003a1565b91507fffffffffffffffffffffffffffffffffffffffffffffffffffffffffffffffff82036200064d576200064c620005dc565b5b600182019050919050565b610c1580620006686000396000f3fe608060405234801561001057600080fd5b50600436106100575760003560e01c806306ead22e1461005c5780635bca89511461008e578063642f9163146100aa5780639852bf8e146100dc578063c1bea1db146100fa575b600080fd5b610076600480360381019061007191906104c3565b610116565b6040516100859392919061058f565b60405180910390f35b6100a860048036038101906100a391906104c3565b6101c8565b005b6100c460048036038101906100bf91906104c3565b610200565b6040516100d39392919061058f565b60405180910390f35b6100e4610341565b6040516100f191906105cd565b60405180910390f35b610114600480360381019061010f919061071d565b610347565b005b600060205280600052604060002060009150905080600001549080600101805461013f906107bb565b80601f016020809104026020016040519081016040528092919081815260200182805461016b906107bb565b80156101b85780601f1061018d576101008083540402835291602001916101b8565b820191906000526020600020905b81548152906001019060200180831161019b57829003601f168201915b5050505050908060020154905083565b6000808281526020019081526020016000206000808201600090556001820160006101f3919061041c565b6002820160009055505050565b60006060600080600080868152602001908152602001600020600201540361025d576040517f08c379a000000000000000000000000000000000000000000000000000000000815260040161025490610838565b60405180910390fd5b600080600086815260200190815260200160002060405180606001604052908160008201548152602001600182018054610296906107bb565b80601f01602080910402602001604051908101604052809291908181526020018280546102c2906107bb565b801561030f5780601f106102e45761010080835404028352916020019161030f565b820191906000526020600020905b8154815290600101906020018083116102f257829003601f168201915b505050505081526020016002820154815250509050806000015181602001518260400151935093509350509193909250565b60015481565b6000806000858152602001908152602001600020600201541461039f576040517f08c379a0000000000000000000000000000000000000000000000000000000008152600401610396906108ca565b60405180910390fd5b60006040518060600160405280858152602001848152602001838152509050806000808681526020019081526020016000206000820151816000015560208201518160010190816103f09190610a96565b50604082015181600201559050506001600081548092919061041190610b97565b919050555050505050565b508054610428906107bb565b6000825580601f1061043a5750610459565b601f016020900490600052602060002090810190610458919061045c565b5b50565b5b8082111561047557600081600090555060010161045d565b5090565b6000604051905090565b600080fd5b600080fd5b6000819050919050565b6104a08161048d565b81146104ab57600080fd5b50565b6000813590506104bd81610497565b92915050565b6000602082840312156104d9576104d8610483565b5b60006104e7848285016104ae565b91505092915050565b6104f98161048d565b82525050565b600081519050919050565b600082825260208201905092915050565b60005b8381101561053957808201518184015260208101905061051e565b60008484015250505050565b6000601f19601f8301169050919050565b6000610561826104ff565b61056b818561050a565b935061057b81856020860161051b565b61058481610545565b840191505092915050565b60006060820190506105a460008301866104f0565b81810360208301526105b68185610556565b90506105c560408301846104f0565b949350505050565b60006020820190506105e260008301846104f0565b92915050565b600080fd5b600080fd5b7f4e487b7100000000000000000000000000000000000000000000000000000000600052604160045260246000fd5b61062a82610545565b810181811067ffffffffffffffff82111715610649576106486105f2565b5b80604052505050565b600061065c610479565b90506106688282610621565b919050565b600067ffffffffffffffff821115610688576106876105f2565b5b61069182610545565b9050602081019050919050565b82818337600083830152505050565b60006106c06106bb8461066d565b610652565b9050828152602081018484840111156106dc576106db6105ed565b5b6106e784828561069e565b509392505050565b600082601f830112610704576107036105e8565b5b81356107148482602086016106ad565b91505092915050565b60008060006060848603121561073657610735610483565b5b6000610744868287016104ae565b935050602084013567ffffffffffffffff81111561076557610764610488565b5b610771868287016106ef565b9250506040610782868287016104ae565b9150509250925092565b7f4e487b7100000000000000000000000000000000000000000000000000000000600052602260045260246000fd5b600060028204905060018216806107d357607f821691505b6020821081036107e6576107e561078c565b5b50919050565b7f53747564656e74207265636f7264206e6f7420666f756e640000000000000000600082015250565b600061082260188361050a565b915061082d826107ec565b602082019050919050565b6000602082019050818103600083015261085181610815565b9050919050565b7f53747564656e742077697468207468652073616d6520494420616c726561647960008201527f2065786973747300000000000000000000000000000000000000000000000000602082015250565b60006108b460278361050a565b91506108bf82610858565b604082019050919050565b600060208201905081810360008301526108e3816108a7565b9050919050565b60008190508160005260206000209050919050565b60006020601f8301049050919050565b600082821b905092915050565b60006008830261094c7fffffffffffffffffffffffffffffffffffffffffffffffffffffffffffffffff8261090f565b610956868361090f565b95508019841693508086168417925050509392505050565b6000819050919050565b600061099361098e6109898461048d565b61096e565b61048d565b9050919050565b6000819050919050565b6109ad83610978565b6109c16109b98261099a565b84845461091c565b825550505050565b600090565b6109d66109c9565b6109e18184846109a4565b505050565b5b81811015610a05576109fa6000826109ce565b6001810190506109e7565b5050565b601f821115610a4a57610a1b816108ea565b610a24846108ff565b81016020851015610a33578190505b610a47610a3f856108ff565b8301826109e6565b50505b505050565b600082821c905092915050565b6000610a6d60001984600802610a4f565b1980831691505092915050565b6000610a868383610a5c565b9150826002028217905092915050565b610a9f826104ff565b67ffffffffffffffff811115610ab857610ab76105f2565b5b610ac282546107bb565b610acd828285610a09565b600060209050601f831160018114610b005760008415610aee578287015190505b610af88582610a7a565b865550610b60565b601f198416610b0e866108ea565b60005b82811015610b3657848901518255600182019150602085019450602081019050610b11565b86831015610b535784890151610b4f601f891682610a5c565b8355505b6001600288020188555050505b505050505050565b7f4e487b7100000000000000000000000000000000000000000000000000000000600052601160045260246000fd5b6000610ba28261048d565b91507fffffffffffffffffffffffffffffffffffffffffffffffffffffffffffffffff8203610bd457610bd3610b68565b5b60018201905091905056fea264697066735822122018fcdc0d869863df9cdd4332d8aef340b1fba739c88e35b12bdd6fbfc19cc86d64736f6c63430008120033",
					"opcodes": "PUSH1 0x80 PUSH1 0x40 MSTORE CALLVALUE DUP1 ISZERO PUSH3 0x11 JUMPI PUSH1 0x0 DUP1 REVERT JUMPDEST POP PUSH3 0x5C PUSH1 0x1 PUSH1 0x40 MLOAD DUP1 PUSH1 0x40 ADD PUSH1 0x40 MSTORE DUP1 PUSH1 0x5 DUP2 MSTORE PUSH1 0x20 ADD PUSH32 0x416C696365000000000000000000000000000000000000000000000000000000 DUP2 MSTORE POP PUSH1 0x14 PUSH3 0xF6 PUSH1 0x20 SHL PUSH1 0x20 SHR JUMP JUMPDEST PUSH3 0xA6 PUSH1 0x2 PUSH1 0x40 MLOAD DUP1 PUSH1 0x40 ADD PUSH1 0x40 MSTORE DUP1 PUSH1 0x3 DUP2 MSTORE PUSH1 0x20 ADD PUSH32 0x426F620000000000000000000000000000000000000000000000000000000000 DUP2 MSTORE POP PUSH1 0x16 PUSH3 0xF6 PUSH1 0x20 SHL PUSH1 0x20 SHR JUMP JUMPDEST PUSH3 0xF0 PUSH1 0x3 PUSH1 0x40 MLOAD DUP1 PUSH1 0x40 ADD PUSH1 0x40 MSTORE DUP1 PUSH1 0x7 DUP2 MSTORE PUSH1 0x20 ADD PUSH32 0x436861726C696500000000000000000000000000000000000000000000000000 DUP2 MSTORE POP PUSH1 0x15 PUSH3 0xF6 PUSH1 0x20 SHL PUSH1 0x20 SHR JUMP JUMPDEST PUSH3 0x658 JUMP JUMPDEST PUSH1 0x0 DUP1 PUSH1 0x0 DUP6 DUP2 MSTORE PUSH1 0x20 ADD SWAP1 DUP2 MSTORE PUSH1 0x20 ADD PUSH1 0x0 KECCAK256 PUSH1 0x2 ADD SLOAD EQ PUSH3 0x151 JUMPI PUSH1 0x40 MLOAD PUSH32 0x8C379A000000000000000000000000000000000000000000000000000000000 DUP2 MSTORE PUSH1 0x4 ADD PUSH3 0x148 SWAP1 PUSH3 0x259 JUMP JUMPDEST PUSH1 0x40 MLOAD DUP1 SWAP2 SUB SWAP1 REVERT JUMPDEST PUSH1 0x0 PUSH1 0x40 MLOAD DUP1 PUSH1 0x60 ADD PUSH1 0x40 MSTORE DUP1 DUP6 DUP2 MSTORE PUSH1 0x20 ADD DUP5 DUP2 MSTORE PUSH1 0x20 ADD DUP4 DUP2 MSTORE POP SWAP1 POP DUP1 PUSH1 0x0 DUP1 DUP7 DUP2 MSTORE PUSH1 0x20 ADD SWAP1 DUP2 MSTORE PUSH1 0x20 ADD PUSH1 0x0 KECCAK256 PUSH1 0x0 DUP3 ADD MLOAD DUP2 PUSH1 0x0 ADD SSTORE PUSH1 0x20 DUP3 ADD MLOAD DUP2 PUSH1 0x1 ADD SWAP1 DUP2 PUSH3 0x1A4 SWAP2 SWAP1 PUSH3 0x4F5 JUMP JUMPDEST POP PUSH1 0x40 DUP3 ADD MLOAD DUP2 PUSH1 0x2 ADD SSTORE SWAP1 POP POP PUSH1 0x1 PUSH1 0x0 DUP2 SLOAD DUP1 SWAP3 SWAP2 SWAP1 PUSH3 0x1C7 SWAP1 PUSH3 0x60B JUMP JUMPDEST SWAP2 SWAP1 POP SSTORE POP POP POP POP POP JUMP JUMPDEST PUSH1 0x0 DUP3 DUP3 MSTORE PUSH1 0x20 DUP3 ADD SWAP1 POP SWAP3 SWAP2 POP POP JUMP JUMPDEST PUSH32 0x53747564656E742077697468207468652073616D6520494420616C7265616479 PUSH1 0x0 DUP3 ADD MSTORE PUSH32 0x2065786973747300000000000000000000000000000000000000000000000000 PUSH1 0x20 DUP3 ADD MSTORE POP JUMP JUMPDEST PUSH1 0x0 PUSH3 0x241 PUSH1 0x27 DUP4 PUSH3 0x1D2 JUMP JUMPDEST SWAP2 POP PUSH3 0x24E DUP3 PUSH3 0x1E3 JUMP JUMPDEST PUSH1 0x40 DUP3 ADD SWAP1 POP SWAP2 SWAP1 POP JUMP JUMPDEST PUSH1 0x0 PUSH1 0x20 DUP3 ADD SWAP1 POP DUP2 DUP2 SUB PUSH1 0x0 DUP4 ADD MSTORE PUSH3 0x274 DUP2 PUSH3 0x232 JUMP JUMPDEST SWAP1 POP SWAP2 SWAP1 POP JUMP JUMPDEST PUSH1 0x0 DUP2 MLOAD SWAP1 POP SWAP2 SWAP1 POP JUMP JUMPDEST PUSH32 0x4E487B7100000000000000000000000000000000000000000000000000000000 PUSH1 0x0 MSTORE PUSH1 0x41 PUSH1 0x4 MSTORE PUSH1 0x24 PUSH1 0x0 REVERT JUMPDEST PUSH32 0x4E487B7100000000000000000000000000000000000000000000000000000000 PUSH1 0x0 MSTORE PUSH1 0x22 PUSH1 0x4 MSTORE PUSH1 0x24 PUSH1 0x0 REVERT JUMPDEST PUSH1 0x0 PUSH1 0x2 DUP3 DIV SWAP1 POP PUSH1 0x1 DUP3 AND DUP1 PUSH3 0x2FD JUMPI PUSH1 0x7F DUP3 AND SWAP2 POP JUMPDEST PUSH1 0x20 DUP3 LT DUP2 SUB PUSH3 0x313 JUMPI PUSH3 0x312 PUSH3 0x2B5 JUMP JUMPDEST JUMPDEST POP SWAP2 SWAP1 POP JUMP JUMPDEST PUSH1 0x0 DUP2 SWAP1 POP DUP2 PUSH1 0x0 MSTORE PUSH1 0x20 PUSH1 0x0 KECCAK256 SWAP1 POP SWAP2 SWAP1 POP JUMP JUMPDEST PUSH1 0x0 PUSH1 0x20 PUSH1 0x1F DUP4 ADD DIV SWAP1 POP SWAP2 SWAP1 POP JUMP JUMPDEST PUSH1 0x0 DUP3 DUP3 SHL SWAP1 POP SWAP3 SWAP2 POP POP JUMP JUMPDEST PUSH1 0x0 PUSH1 0x8 DUP4 MUL PUSH3 0x37D PUSH32 0xFFFFFFFFFFFFFFFFFFFFFFFFFFFFFFFFFFFFFFFFFFFFFFFFFFFFFFFFFFFFFFFF DUP3 PUSH3 0x33E JUMP JUMPDEST PUSH3 0x389 DUP7 DUP4 PUSH3 0x33E JUMP JUMPDEST SWAP6 POP DUP1 NOT DUP5 AND SWAP4 POP DUP1 DUP7 AND DUP5 OR SWAP3 POP POP POP SWAP4 SWAP3 POP POP POP JUMP JUMPDEST PUSH1 0x0 DUP2 SWAP1 POP SWAP2 SWAP1 POP JUMP JUMPDEST PUSH1 0x0 DUP2 SWAP1 POP SWAP2 SWAP1 POP JUMP JUMPDEST PUSH1 0x0 PUSH3 0x3D6 PUSH3 0x3D0 PUSH3 0x3CA DUP5 PUSH3 0x3A1 JUMP JUMPDEST PUSH3 0x3AB JUMP JUMPDEST PUSH3 0x3A1 JUMP JUMPDEST SWAP1 POP SWAP2 SWAP1 POP JUMP JUMPDEST PUSH1 0x0 DUP2 SWAP1 POP SWAP2 SWAP1 POP JUMP JUMPDEST PUSH3 0x3F2 DUP4 PUSH3 0x3B5 JUMP JUMPDEST PUSH3 0x40A PUSH3 0x401 DUP3 PUSH3 0x3DD JUMP JUMPDEST DUP5 DUP5 SLOAD PUSH3 0x34B JUMP JUMPDEST DUP3 SSTORE POP POP POP POP JUMP JUMPDEST PUSH1 0x0 SWAP1 JUMP JUMPDEST PUSH3 0x421 PUSH3 0x412 JUMP JUMPDEST PUSH3 0x42E DUP2 DUP5 DUP5 PUSH3 0x3E7 JUMP JUMPDEST POP POP POP JUMP JUMPDEST JUMPDEST DUP2 DUP2 LT ISZERO PUSH3 0x456 JUMPI PUSH3 0x44A PUSH1 0x0 DUP3 PUSH3 0x417 JUMP JUMPDEST PUSH1 0x1 DUP2 ADD SWAP1 POP PUSH3 0x434 JUMP JUMPDEST POP POP JUMP JUMPDEST PUSH1 0x1F DUP3 GT ISZERO PUSH3 0x4A5 JUMPI PUSH3 0x46F DUP2 PUSH3 0x319 JUMP JUMPDEST PUSH3 0x47A DUP5 PUSH3 0x32E JUMP JUMPDEST DUP2 ADD PUSH1 0x20 DUP6 LT ISZERO PUSH3 0x48A JUMPI DUP2 SWAP1 POP JUMPDEST PUSH3 0x4A2 PUSH3 0x499 DUP6 PUSH3 0x32E JUMP JUMPDEST DUP4 ADD DUP3 PUSH3 0x433 JUMP JUMPDEST POP POP JUMPDEST POP POP POP JUMP JUMPDEST PUSH1 0x0 DUP3 DUP3 SHR SWAP1 POP SWAP3 SWAP2 POP POP JUMP JUMPDEST PUSH1 0x0 PUSH3 0x4CA PUSH1 0x0 NOT DUP5 PUSH1 0x8 MUL PUSH3 0x4AA JUMP JUMPDEST NOT DUP1 DUP4 AND SWAP2 POP POP SWAP3 SWAP2 POP POP JUMP JUMPDEST PUSH1 0x0 PUSH3 0x4E5 DUP4 DUP4 PUSH3 0x4B7 JUMP JUMPDEST SWAP2 POP DUP3 PUSH1 0x2 MUL DUP3 OR SWAP1 POP SWAP3 SWAP2 POP POP JUMP JUMPDEST PUSH3 0x500 DUP3 PUSH3 0x27B JUMP JUMPDEST PUSH8 0xFFFFFFFFFFFFFFFF DUP2 GT ISZERO PUSH3 0x51C JUMPI PUSH3 0x51B PUSH3 0x286 JUMP JUMPDEST JUMPDEST PUSH3 0x528 DUP3 SLOAD PUSH3 0x2E4 JUMP JUMPDEST PUSH3 0x535 DUP3 DUP3 DUP6 PUSH3 0x45A JUMP JUMPDEST PUSH1 0x0 PUSH1 0x20 SWAP1 POP PUSH1 0x1F DUP4 GT PUSH1 0x1 DUP2 EQ PUSH3 0x56D JUMPI PUSH1 0x0 DUP5 ISZERO PUSH3 0x558 JUMPI DUP3 DUP8 ADD MLOAD SWAP1 POP JUMPDEST PUSH3 0x564 DUP6 DUP3 PUSH3 0x4D7 JUMP JUMPDEST DUP7 SSTORE POP PUSH3 0x5D4 JUMP JUMPDEST PUSH1 0x1F NOT DUP5 AND PUSH3 0x57D DUP7 PUSH3 0x319 JUMP JUMPDEST PUSH1 0x0 JUMPDEST DUP3 DUP2 LT ISZERO PUSH3 0x5A7 JUMPI DUP5 DUP10 ADD MLOAD DUP3 SSTORE PUSH1 0x1 DUP3 ADD SWAP2 POP PUSH1 0x20 DUP6 ADD SWAP5 POP PUSH1 0x20 DUP2 ADD SWAP1 POP PUSH3 0x580 JUMP JUMPDEST DUP7 DUP4 LT ISZERO PUSH3 0x5C7 JUMPI DUP5 DUP10 ADD MLOAD PUSH3 0x5C3 PUSH1 0x1F DUP10 AND DUP3 PUSH3 0x4B7 JUMP JUMPDEST DUP4 SSTORE POP JUMPDEST PUSH1 0x1 PUSH1 0x2 DUP9 MUL ADD DUP9 SSTORE POP POP POP JUMPDEST POP POP POP POP POP POP JUMP JUMPDEST PUSH32 0x4E487B7100000000000000000000000000000000000000000000000000000000 PUSH1 0x0 MSTORE PUSH1 0x11 PUSH1 0x4 MSTORE PUSH1 0x24 PUSH1 0x0 REVERT JUMPDEST PUSH1 0x0 PUSH3 0x618 DUP3 PUSH3 0x3A1 JUMP JUMPDEST SWAP2 POP PUSH32 0xFFFFFFFFFFFFFFFFFFFFFFFFFFFFFFFFFFFFFFFFFFFFFFFFFFFFFFFFFFFFFFFF DUP3 SUB PUSH3 0x64D JUMPI PUSH3 0x64C PUSH3 0x5DC JUMP JUMPDEST JUMPDEST PUSH1 0x1 DUP3 ADD SWAP1 POP SWAP2 SWAP1 POP JUMP JUMPDEST PUSH2 0xC15 DUP1 PUSH3 0x668 PUSH1 0x0 CODECOPY PUSH1 0x0 RETURN INVALID PUSH1 0x80 PUSH1 0x40 MSTORE CALLVALUE DUP1 ISZERO PUSH2 0x10 JUMPI PUSH1 0x0 DUP1 REVERT JUMPDEST POP PUSH1 0x4 CALLDATASIZE LT PUSH2 0x57 JUMPI PUSH1 0x0 CALLDATALOAD PUSH1 0xE0 SHR DUP1 PUSH4 0x6EAD22E EQ PUSH2 0x5C JUMPI DUP1 PUSH4 0x5BCA8951 EQ PUSH2 0x8E JUMPI DUP1 PUSH4 0x642F9163 EQ PUSH2 0xAA JUMPI DUP1 PUSH4 0x9852BF8E EQ PUSH2 0xDC JUMPI DUP1 PUSH4 0xC1BEA1DB EQ PUSH2 0xFA JUMPI JUMPDEST PUSH1 0x0 DUP1 REVERT JUMPDEST PUSH2 0x76 PUSH1 0x4 DUP1 CALLDATASIZE SUB DUP2 ADD SWAP1 PUSH2 0x71 SWAP2 SWAP1 PUSH2 0x4C3 JUMP JUMPDEST PUSH2 0x116 JUMP JUMPDEST PUSH1 0x40 MLOAD PUSH2 0x85 SWAP4 SWAP3 SWAP2 SWAP1 PUSH2 0x58F JUMP JUMPDEST PUSH1 0x40 MLOAD DUP1 SWAP2 SUB SWAP1 RETURN JUMPDEST PUSH2 0xA8 PUSH1 0x4 DUP1 CALLDATASIZE SUB DUP2 ADD SWAP1 PUSH2 0xA3 SWAP2 SWAP1 PUSH2 0x4C3 JUMP JUMPDEST PUSH2 0x1C8 JUMP JUMPDEST STOP JUMPDEST PUSH2 0xC4 PUSH1 0x4 DUP1 CALLDATASIZE SUB DUP2 ADD SWAP1 PUSH2 0xBF SWAP2 SWAP1 PUSH2 0x4C3 JUMP JUMPDEST PUSH2 0x200 JUMP JUMPDEST PUSH1 0x40 MLOAD PUSH2 0xD3 SWAP4 SWAP3 SWAP2 SWAP1 PUSH2 0x58F JUMP JUMPDEST PUSH1 0x40 MLOAD DUP1 SWAP2 SUB SWAP1 RETURN JUMPDEST PUSH2 0xE4 PUSH2 0x341 JUMP JUMPDEST PUSH1 0x40 MLOAD PUSH2 0xF1 SWAP2 SWAP1 PUSH2 0x5CD JUMP JUMPDEST PUSH1 0x40 MLOAD DUP1 SWAP2 SUB SWAP1 RETURN JUMPDEST PUSH2 0x114 PUSH1 0x4 DUP1 CALLDATASIZE SUB DUP2 ADD SWAP1 PUSH2 0x10F SWAP2 SWAP1 PUSH2 0x71D JUMP JUMPDEST PUSH2 0x347 JUMP JUMPDEST STOP JUMPDEST PUSH1 0x0 PUSH1 0x20 MSTORE DUP1 PUSH1 0x0 MSTORE PUSH1 0x40 PUSH1 0x0 KECCAK256 PUSH1 0x0 SWAP2 POP SWAP1 POP DUP1 PUSH1 0x0 ADD SLOAD SWAP1 DUP1 PUSH1 0x1 ADD DUP1 SLOAD PUSH2 0x13F SWAP1 PUSH2 0x7BB JUMP JUMPDEST DUP1 PUSH1 0x1F ADD PUSH1 0x20 DUP1 SWAP2 DIV MUL PUSH1 0x20 ADD PUSH1 0x40 MLOAD SWAP1 DUP2 ADD PUSH1 0x40 MSTORE DUP1 SWAP3 SWAP2 SWAP1 DUP2 DUP2 MSTORE PUSH1 0x20 ADD DUP3 DUP1 SLOAD PUSH2 0x16B SWAP1 PUSH2 0x7BB JUMP JUMPDEST DUP1 ISZERO PUSH2 0x1B8 JUMPI DUP1 PUSH1 0x1F LT PUSH2 0x18D JUMPI PUSH2 0x100 DUP1 DUP4 SLOAD DIV MUL DUP4 MSTORE SWAP2 PUSH1 0x20 ADD SWAP2 PUSH2 0x1B8 JUMP JUMPDEST DUP3 ADD SWAP2 SWAP1 PUSH1 0x0 MSTORE PUSH1 0x20 PUSH1 0x0 KECCAK256 SWAP1 JUMPDEST DUP2 SLOAD DUP2 MSTORE SWAP1 PUSH1 0x1 ADD SWAP1 PUSH1 0x20 ADD DUP1 DUP4 GT PUSH2 0x19B JUMPI DUP3 SWAP1 SUB PUSH1 0x1F AND DUP3 ADD SWAP2 JUMPDEST POP POP POP POP POP SWAP1 DUP1 PUSH1 0x2 ADD SLOAD SWAP1 POP DUP4 JUMP JUMPDEST PUSH1 0x0 DUP1 DUP3 DUP2 MSTORE PUSH1 0x20 ADD SWAP1 DUP2 MSTORE PUSH1 0x20 ADD PUSH1 0x0 KECCAK256 PUSH1 0x0 DUP1 DUP3 ADD PUSH1 0x0 SWAP1 SSTORE PUSH1 0x1 DUP3 ADD PUSH1 0x0 PUSH2 0x1F3 SWAP2 SWAP1 PUSH2 0x41C JUMP JUMPDEST PUSH1 0x2 DUP3 ADD PUSH1 0x0 SWAP1 SSTORE POP POP POP JUMP JUMPDEST PUSH1 0x0 PUSH1 0x60 PUSH1 0x0 DUP1 PUSH1 0x0 DUP1 DUP7 DUP2 MSTORE PUSH1 0x20 ADD SWAP1 DUP2 MSTORE PUSH1 0x20 ADD PUSH1 0x0 KECCAK256 PUSH1 0x2 ADD SLOAD SUB PUSH2 0x25D JUMPI PUSH1 0x40 MLOAD PUSH32 0x8C379A000000000000000000000000000000000000000000000000000000000 DUP2 MSTORE PUSH1 0x4 ADD PUSH2 0x254 SWAP1 PUSH2 0x838 JUMP JUMPDEST PUSH1 0x40 MLOAD DUP1 SWAP2 SUB SWAP1 REVERT JUMPDEST PUSH1 0x0 DUP1 PUSH1 0x0 DUP7 DUP2 MSTORE PUSH1 0x20 ADD SWAP1 DUP2 MSTORE PUSH1 0x20 ADD PUSH1 0x0 KECCAK256 PUSH1 0x40 MLOAD DUP1 PUSH1 0x60 ADD PUSH1 0x40 MSTORE SWAP1 DUP2 PUSH1 0x0 DUP3 ADD SLOAD DUP2 MSTORE PUSH1 0x20 ADD PUSH1 0x1 DUP3 ADD DUP1 SLOAD PUSH2 0x296 SWAP1 PUSH2 0x7BB JUMP JUMPDEST DUP1 PUSH1 0x1F ADD PUSH1 0x20 DUP1 SWAP2 DIV MUL PUSH1 0x20 ADD PUSH1 0x40 MLOAD SWAP1 DUP2 ADD PUSH1 0x40 MSTORE DUP1 SWAP3 SWAP2 SWAP1 DUP2 DUP2 MSTORE PUSH1 0x20 ADD DUP3 DUP1 SLOAD PUSH2 0x2C2 SWAP1 PUSH2 0x7BB JUMP JUMPDEST DUP1 ISZERO PUSH2 0x30F JUMPI DUP1 PUSH1 0x1F LT PUSH2 0x2E4 JUMPI PUSH2 0x100 DUP1 DUP4 SLOAD DIV MUL DUP4 MSTORE SWAP2 PUSH1 0x20 ADD SWAP2 PUSH2 0x30F JUMP JUMPDEST DUP3 ADD SWAP2 SWAP1 PUSH1 0x0 MSTORE PUSH1 0x20 PUSH1 0x0 KECCAK256 SWAP1 JUMPDEST DUP2 SLOAD DUP2 MSTORE SWAP1 PUSH1 0x1 ADD SWAP1 PUSH1 0x20 ADD DUP1 DUP4 GT PUSH2 0x2F2 JUMPI DUP3 SWAP1 SUB PUSH1 0x1F AND DUP3 ADD SWAP2 JUMPDEST POP POP POP POP POP DUP2 MSTORE PUSH1 0x20 ADD PUSH1 0x2 DUP3 ADD SLOAD DUP2 MSTORE POP POP SWAP1 POP DUP1 PUSH1 0x0 ADD MLOAD DUP2 PUSH1 0x20 ADD MLOAD DUP3 PUSH1 0x40 ADD MLOAD SWAP4 POP SWAP4 POP SWAP4 POP POP SWAP2 SWAP4 SWAP1 SWAP3 POP JUMP JUMPDEST PUSH1 0x1 SLOAD DUP2 JUMP JUMPDEST PUSH1 0x0 DUP1 PUSH1 0x0 DUP6 DUP2 MSTORE PUSH1 0x20 ADD SWAP1 DUP2 MSTORE PUSH1 0x20 ADD PUSH1 0x0 KECCAK256 PUSH1 0x2 ADD SLOAD EQ PUSH2 0x39F JUMPI PUSH1 0x40 MLOAD PUSH32 0x8C379A000000000000000000000000000000000000000000000000000000000 DUP2 MSTORE PUSH1 0x4 ADD PUSH2 0x396 SWAP1 PUSH2 0x8CA JUMP JUMPDEST PUSH1 0x40 MLOAD DUP1 SWAP2 SUB SWAP1 REVERT JUMPDEST PUSH1 0x0 PUSH1 0x40 MLOAD DUP1 PUSH1 0x60 ADD PUSH1 0x40 MSTORE DUP1 DUP6 DUP2 MSTORE PUSH1 0x20 ADD DUP5 DUP2 MSTORE PUSH1 0x20 ADD DUP4 DUP2 MSTORE POP SWAP1 POP DUP1 PUSH1 0x0 DUP1 DUP7 DUP2 MSTORE PUSH1 0x20 ADD SWAP1 DUP2 MSTORE PUSH1 0x20 ADD PUSH1 0x0 KECCAK256 PUSH1 0x0 DUP3 ADD MLOAD DUP2 PUSH1 0x0 ADD SSTORE PUSH1 0x20 DUP3 ADD MLOAD DUP2 PUSH1 0x1 ADD SWAP1 DUP2 PUSH2 0x3F0 SWAP2 SWAP1 PUSH2 0xA96 JUMP JUMPDEST POP PUSH1 0x40 DUP3 ADD MLOAD DUP2 PUSH1 0x2 ADD SSTORE SWAP1 POP POP PUSH1 0x1 PUSH1 0x0 DUP2 SLOAD DUP1 SWAP3 SWAP2 SWAP1 PUSH2 0x411 SWAP1 PUSH2 0xB97 JUMP JUMPDEST SWAP2 SWAP1 POP SSTORE POP POP POP POP POP JUMP JUMPDEST POP DUP1 SLOAD PUSH2 0x428 SWAP1 PUSH2 0x7BB JUMP JUMPDEST PUSH1 0x0 DUP3 SSTORE DUP1 PUSH1 0x1F LT PUSH2 0x43A JUMPI POP PUSH2 0x459 JUMP JUMPDEST PUSH1 0x1F ADD PUSH1 0x20 SWAP1 DIV SWAP1 PUSH1 0x0 MSTORE PUSH1 0x20 PUSH1 0x0 KECCAK256 SWAP1 DUP2 ADD SWAP1 PUSH2 0x458 SWAP2 SWAP1 PUSH2 0x45C JUMP JUMPDEST JUMPDEST POP JUMP JUMPDEST JUMPDEST DUP1 DUP3 GT ISZERO PUSH2 0x475 JUMPI PUSH1 0x0 DUP2 PUSH1 0x0 SWAP1 SSTORE POP PUSH1 0x1 ADD PUSH2 0x45D JUMP JUMPDEST POP SWAP1 JUMP JUMPDEST PUSH1 0x0 PUSH1 0x40 MLOAD SWAP1 POP SWAP1 JUMP JUMPDEST PUSH1 0x0 DUP1 REVERT JUMPDEST PUSH1 0x0 DUP1 REVERT JUMPDEST PUSH1 0x0 DUP2 SWAP1 POP SWAP2 SWAP1 POP JUMP JUMPDEST PUSH2 0x4A0 DUP2 PUSH2 0x48D JUMP JUMPDEST DUP2 EQ PUSH2 0x4AB JUMPI PUSH1 0x0 DUP1 REVERT JUMPDEST POP JUMP JUMPDEST PUSH1 0x0 DUP2 CALLDATALOAD SWAP1 POP PUSH2 0x4BD DUP2 PUSH2 0x497 JUMP JUMPDEST SWAP3 SWAP2 POP POP JUMP JUMPDEST PUSH1 0x0 PUSH1 0x20 DUP3 DUP5 SUB SLT ISZERO PUSH2 0x4D9 JUMPI PUSH2 0x4D8 PUSH2 0x483 JUMP JUMPDEST JUMPDEST PUSH1 0x0 PUSH2 0x4E7 DUP5 DUP3 DUP6 ADD PUSH2 0x4AE JUMP JUMPDEST SWAP2 POP POP SWAP3 SWAP2 POP POP JUMP JUMPDEST PUSH2 0x4F9 DUP2 PUSH2 0x48D JUMP JUMPDEST DUP3 MSTORE POP POP JUMP JUMPDEST PUSH1 0x0 DUP2 MLOAD SWAP1 POP SWAP2 SWAP1 POP JUMP JUMPDEST PUSH1 0x0 DUP3 DUP3 MSTORE PUSH1 0x20 DUP3 ADD SWAP1 POP SWAP3 SWAP2 POP POP JUMP JUMPDEST PUSH1 0x0 JUMPDEST DUP4 DUP2 LT ISZERO PUSH2 0x539 JUMPI DUP1 DUP3 ADD MLOAD DUP2 DUP5 ADD MSTORE PUSH1 0x20 DUP2 ADD SWAP1 POP PUSH2 0x51E JUMP JUMPDEST PUSH1 0x0 DUP5 DUP5 ADD MSTORE POP POP POP POP JUMP JUMPDEST PUSH1 0x0 PUSH1 0x1F NOT PUSH1 0x1F DUP4 ADD AND SWAP1 POP SWAP2 SWAP1 POP JUMP JUMPDEST PUSH1 0x0 PUSH2 0x561 DUP3 PUSH2 0x4FF JUMP JUMPDEST PUSH2 0x56B DUP2 DUP6 PUSH2 0x50A JUMP JUMPDEST SWAP4 POP PUSH2 0x57B DUP2 DUP6 PUSH1 0x20 DUP7 ADD PUSH2 0x51B JUMP JUMPDEST PUSH2 0x584 DUP2 PUSH2 0x545 JUMP JUMPDEST DUP5 ADD SWAP2 POP POP SWAP3 SWAP2 POP POP JUMP JUMPDEST PUSH1 0x0 PUSH1 0x60 DUP3 ADD SWAP1 POP PUSH2 0x5A4 PUSH1 0x0 DUP4 ADD DUP7 PUSH2 0x4F0 JUMP JUMPDEST DUP2 DUP2 SUB PUSH1 0x20 DUP4 ADD MSTORE PUSH2 0x5B6 DUP2 DUP6 PUSH2 0x556 JUMP JUMPDEST SWAP1 POP PUSH2 0x5C5 PUSH1 0x40 DUP4 ADD DUP5 PUSH2 0x4F0 JUMP JUMPDEST SWAP5 SWAP4 POP POP POP POP JUMP JUMPDEST PUSH1 0x0 PUSH1 0x20 DUP3 ADD SWAP1 POP PUSH2 0x5E2 PUSH1 0x0 DUP4 ADD DUP5 PUSH2 0x4F0 JUMP JUMPDEST SWAP3 SWAP2 POP POP JUMP JUMPDEST PUSH1 0x0 DUP1 REVERT JUMPDEST PUSH1 0x0 DUP1 REVERT JUMPDEST PUSH32 0x4E487B7100000000000000000000000000000000000000000000000000000000 PUSH1 0x0 MSTORE PUSH1 0x41 PUSH1 0x4 MSTORE PUSH1 0x24 PUSH1 0x0 REVERT JUMPDEST PUSH2 0x62A DUP3 PUSH2 0x545 JUMP JUMPDEST DUP2 ADD DUP2 DUP2 LT PUSH8 0xFFFFFFFFFFFFFFFF DUP3 GT OR ISZERO PUSH2 0x649 JUMPI PUSH2 0x648 PUSH2 0x5F2 JUMP JUMPDEST JUMPDEST DUP1 PUSH1 0x40 MSTORE POP POP POP JUMP JUMPDEST PUSH1 0x0 PUSH2 0x65C PUSH2 0x479 JUMP JUMPDEST SWAP1 POP PUSH2 0x668 DUP3 DUP3 PUSH2 0x621 JUMP JUMPDEST SWAP2 SWAP1 POP JUMP JUMPDEST PUSH1 0x0 PUSH8 0xFFFFFFFFFFFFFFFF DUP3 GT ISZERO PUSH2 0x688 JUMPI PUSH2 0x687 PUSH2 0x5F2 JUMP JUMPDEST JUMPDEST PUSH2 0x691 DUP3 PUSH2 0x545 JUMP JUMPDEST SWAP1 POP PUSH1 0x20 DUP2 ADD SWAP1 POP SWAP2 SWAP1 POP JUMP JUMPDEST DUP3 DUP2 DUP4 CALLDATACOPY PUSH1 0x0 DUP4 DUP4 ADD MSTORE POP POP POP JUMP JUMPDEST PUSH1 0x0 PUSH2 0x6C0 PUSH2 0x6BB DUP5 PUSH2 0x66D JUMP JUMPDEST PUSH2 0x652 JUMP JUMPDEST SWAP1 POP DUP3 DUP2 MSTORE PUSH1 0x20 DUP2 ADD DUP5 DUP5 DUP5 ADD GT ISZERO PUSH2 0x6DC JUMPI PUSH2 0x6DB PUSH2 0x5ED JUMP JUMPDEST JUMPDEST PUSH2 0x6E7 DUP5 DUP3 DUP6 PUSH2 0x69E JUMP JUMPDEST POP SWAP4 SWAP3 POP POP POP JUMP JUMPDEST PUSH1 0x0 DUP3 PUSH1 0x1F DUP4 ADD SLT PUSH2 0x704 JUMPI PUSH2 0x703 PUSH2 0x5E8 JUMP JUMPDEST JUMPDEST DUP2 CALLDATALOAD PUSH2 0x714 DUP5 DUP3 PUSH1 0x20 DUP7 ADD PUSH2 0x6AD JUMP JUMPDEST SWAP2 POP POP SWAP3 SWAP2 POP POP JUMP JUMPDEST PUSH1 0x0 DUP1 PUSH1 0x0 PUSH1 0x60 DUP5 DUP7 SUB SLT ISZERO PUSH2 0x736 JUMPI PUSH2 0x735 PUSH2 0x483 JUMP JUMPDEST JUMPDEST PUSH1 0x0 PUSH2 0x744 DUP7 DUP3 DUP8 ADD PUSH2 0x4AE JUMP JUMPDEST SWAP4 POP POP PUSH1 0x20 DUP5 ADD CALLDATALOAD PUSH8 0xFFFFFFFFFFFFFFFF DUP2 GT ISZERO PUSH2 0x765 JUMPI PUSH2 0x764 PUSH2 0x488 JUMP JUMPDEST JUMPDEST PUSH2 0x771 DUP7 DUP3 DUP8 ADD PUSH2 0x6EF JUMP JUMPDEST SWAP3 POP POP PUSH1 0x40 PUSH2 0x782 DUP7 DUP3 DUP8 ADD PUSH2 0x4AE JUMP JUMPDEST SWAP2 POP POP SWAP3 POP SWAP3 POP SWAP3 JUMP JUMPDEST PUSH32 0x4E487B7100000000000000000000000000000000000000000000000000000000 PUSH1 0x0 MSTORE PUSH1 0x22 PUSH1 0x4 MSTORE PUSH1 0x24 PUSH1 0x0 REVERT JUMPDEST PUSH1 0x0 PUSH1 0x2 DUP3 DIV SWAP1 POP PUSH1 0x1 DUP3 AND DUP1 PUSH2 0x7D3 JUMPI PUSH1 0x7F DUP3 AND SWAP2 POP JUMPDEST PUSH1 0x20 DUP3 LT DUP2 SUB PUSH2 0x7E6 JUMPI PUSH2 0x7E5 PUSH2 0x78C JUMP JUMPDEST JUMPDEST POP SWAP2 SWAP1 POP JUMP JUMPDEST PUSH32 0x53747564656E74207265636F7264206E6F7420666F756E640000000000000000 PUSH1 0x0 DUP3 ADD MSTORE POP JUMP JUMPDEST PUSH1 0x0 PUSH2 0x822 PUSH1 0x18 DUP4 PUSH2 0x50A JUMP JUMPDEST SWAP2 POP PUSH2 0x82D DUP3 PUSH2 0x7EC JUMP JUMPDEST PUSH1 0x20 DUP3 ADD SWAP1 POP SWAP2 SWAP1 POP JUMP JUMPDEST PUSH1 0x0 PUSH1 0x20 DUP3 ADD SWAP1 POP DUP2 DUP2 SUB PUSH1 0x0 DUP4 ADD MSTORE PUSH2 0x851 DUP2 PUSH2 0x815 JUMP JUMPDEST SWAP1 POP SWAP2 SWAP1 POP JUMP JUMPDEST PUSH32 0x53747564656E742077697468207468652073616D6520494420616C7265616479 PUSH1 0x0 DUP3 ADD MSTORE PUSH32 0x2065786973747300000000000000000000000000000000000000000000000000 PUSH1 0x20 DUP3 ADD MSTORE POP JUMP JUMPDEST PUSH1 0x0 PUSH2 0x8B4 PUSH1 0x27 DUP4 PUSH2 0x50A JUMP JUMPDEST SWAP2 POP PUSH2 0x8BF DUP3 PUSH2 0x858 JUMP JUMPDEST PUSH1 0x40 DUP3 ADD SWAP1 POP SWAP2 SWAP1 POP JUMP JUMPDEST PUSH1 0x0 PUSH1 0x20 DUP3 ADD SWAP1 POP DUP2 DUP2 SUB PUSH1 0x0 DUP4 ADD MSTORE PUSH2 0x8E3 DUP2 PUSH2 0x8A7 JUMP JUMPDEST SWAP1 POP SWAP2 SWAP1 POP JUMP JUMPDEST PUSH1 0x0 DUP2 SWAP1 POP DUP2 PUSH1 0x0 MSTORE PUSH1 0x20 PUSH1 0x0 KECCAK256 SWAP1 POP SWAP2 SWAP1 POP JUMP JUMPDEST PUSH1 0x0 PUSH1 0x20 PUSH1 0x1F DUP4 ADD DIV SWAP1 POP SWAP2 SWAP1 POP JUMP JUMPDEST PUSH1 0x0 DUP3 DUP3 SHL SWAP1 POP SWAP3 SWAP2 POP POP JUMP JUMPDEST PUSH1 0x0 PUSH1 0x8 DUP4 MUL PUSH2 0x94C PUSH32 0xFFFFFFFFFFFFFFFFFFFFFFFFFFFFFFFFFFFFFFFFFFFFFFFFFFFFFFFFFFFFFFFF DUP3 PUSH2 0x90F JUMP JUMPDEST PUSH2 0x956 DUP7 DUP4 PUSH2 0x90F JUMP JUMPDEST SWAP6 POP DUP1 NOT DUP5 AND SWAP4 POP DUP1 DUP7 AND DUP5 OR SWAP3 POP POP POP SWAP4 SWAP3 POP POP POP JUMP JUMPDEST PUSH1 0x0 DUP2 SWAP1 POP SWAP2 SWAP1 POP JUMP JUMPDEST PUSH1 0x0 PUSH2 0x993 PUSH2 0x98E PUSH2 0x989 DUP5 PUSH2 0x48D JUMP JUMPDEST PUSH2 0x96E JUMP JUMPDEST PUSH2 0x48D JUMP JUMPDEST SWAP1 POP SWAP2 SWAP1 POP JUMP JUMPDEST PUSH1 0x0 DUP2 SWAP1 POP SWAP2 SWAP1 POP JUMP JUMPDEST PUSH2 0x9AD DUP4 PUSH2 0x978 JUMP JUMPDEST PUSH2 0x9C1 PUSH2 0x9B9 DUP3 PUSH2 0x99A JUMP JUMPDEST DUP5 DUP5 SLOAD PUSH2 0x91C JUMP JUMPDEST DUP3 SSTORE POP POP POP POP JUMP JUMPDEST PUSH1 0x0 SWAP1 JUMP JUMPDEST PUSH2 0x9D6 PUSH2 0x9C9 JUMP JUMPDEST PUSH2 0x9E1 DUP2 DUP5 DUP5 PUSH2 0x9A4 JUMP JUMPDEST POP POP POP JUMP JUMPDEST JUMPDEST DUP2 DUP2 LT ISZERO PUSH2 0xA05 JUMPI PUSH2 0x9FA PUSH1 0x0 DUP3 PUSH2 0x9CE JUMP JUMPDEST PUSH1 0x1 DUP2 ADD SWAP1 POP PUSH2 0x9E7 JUMP JUMPDEST POP POP JUMP JUMPDEST PUSH1 0x1F DUP3 GT ISZERO PUSH2 0xA4A JUMPI PUSH2 0xA1B DUP2 PUSH2 0x8EA JUMP JUMPDEST PUSH2 0xA24 DUP5 PUSH2 0x8FF JUMP JUMPDEST DUP2 ADD PUSH1 0x20 DUP6 LT ISZERO PUSH2 0xA33 JUMPI DUP2 SWAP1 POP JUMPDEST PUSH2 0xA47 PUSH2 0xA3F DUP6 PUSH2 0x8FF JUMP JUMPDEST DUP4 ADD DUP3 PUSH2 0x9E6 JUMP JUMPDEST POP POP JUMPDEST POP POP POP JUMP JUMPDEST PUSH1 0x0 DUP3 DUP3 SHR SWAP1 POP SWAP3 SWAP2 POP POP JUMP JUMPDEST PUSH1 0x0 PUSH2 0xA6D PUSH1 0x0 NOT DUP5 PUSH1 0x8 MUL PUSH2 0xA4F JUMP JUMPDEST NOT DUP1 DUP4 AND SWAP2 POP POP SWAP3 SWAP2 POP POP JUMP JUMPDEST PUSH1 0x0 PUSH2 0xA86 DUP4 DUP4 PUSH2 0xA5C JUMP JUMPDEST SWAP2 POP DUP3 PUSH1 0x2 MUL DUP3 OR SWAP1 POP SWAP3 SWAP2 POP POP JUMP JUMPDEST PUSH2 0xA9F DUP3 PUSH2 0x4FF JUMP JUMPDEST PUSH8 0xFFFFFFFFFFFFFFFF DUP2 GT ISZERO PUSH2 0xAB8 JUMPI PUSH2 0xAB7 PUSH2 0x5F2 JUMP JUMPDEST JUMPDEST PUSH2 0xAC2 DUP3 SLOAD PUSH2 0x7BB JUMP JUMPDEST PUSH2 0xACD DUP3 DUP3 DUP6 PUSH2 0xA09 JUMP JUMPDEST PUSH1 0x0 PUSH1 0x20 SWAP1 POP PUSH1 0x1F DUP4 GT PUSH1 0x1 DUP2 EQ PUSH2 0xB00 JUMPI PUSH1 0x0 DUP5 ISZERO PUSH2 0xAEE JUMPI DUP3 DUP8 ADD MLOAD SWAP1 POP JUMPDEST PUSH2 0xAF8 DUP6 DUP3 PUSH2 0xA7A JUMP JUMPDEST DUP7 SSTORE POP PUSH2 0xB60 JUMP JUMPDEST PUSH1 0x1F NOT DUP5 AND PUSH2 0xB0E DUP7 PUSH2 0x8EA JUMP JUMPDEST PUSH1 0x0 JUMPDEST DUP3 DUP2 LT ISZERO PUSH2 0xB36 JUMPI DUP5 DUP10 ADD MLOAD DUP3 SSTORE PUSH1 0x1 DUP3 ADD SWAP2 POP PUSH1 0x20 DUP6 ADD SWAP5 POP PUSH1 0x20 DUP2 ADD SWAP1 POP PUSH2 0xB11 JUMP JUMPDEST DUP7 DUP4 LT ISZERO PUSH2 0xB53 JUMPI DUP5 DUP10 ADD MLOAD PUSH2 0xB4F PUSH1 0x1F DUP10 AND DUP3 PUSH2 0xA5C JUMP JUMPDEST DUP4 SSTORE POP JUMPDEST PUSH1 0x1 PUSH1 0x2 DUP9 MUL ADD DUP9 SSTORE POP POP POP JUMPDEST POP POP POP POP POP POP JUMP JUMPDEST PUSH32 0x4E487B7100000000000000000000000000000000000000000000000000000000 PUSH1 0x0 MSTORE PUSH1 0x11 PUSH1 0x4 MSTORE PUSH1 0x24 PUSH1 0x0 REVERT JUMPDEST PUSH1 0x0 PUSH2 0xBA2 DUP3 PUSH2 0x48D JUMP JUMPDEST SWAP2 POP PUSH32 0xFFFFFFFFFFFFFFFFFFFFFFFFFFFFFFFFFFFFFFFFFFFFFFFFFFFFFFFFFFFFFFFF DUP3 SUB PUSH2 0xBD4 JUMPI PUSH2 0xBD3 PUSH2 0xB68 JUMP JUMPDEST JUMPDEST PUSH1 0x1 DUP3 ADD SWAP1 POP SWAP2 SWAP1 POP JUMP INVALID LOG2 PUSH5 0x6970667358 0x22 SLT KECCAK256 XOR 0xFC 0xDC 0xD DUP7 SWAP9 PUSH4 0xDF9CDD43 ORIGIN 0xD8 0xAE RETURN BLOCKHASH 0xB1 0xFB 0xA7 CODECOPY 0xC8 DUP15 CALLDATALOAD 0xB1 0x2B 0xDD PUSH16 0xBFC19CC86D64736F6C63430008120033 "
				},
				"gasEstimates": {
					"creation": {
						"codeDepositCost": "618600",
						"executionCost": "infinite",
						"totalCost": "infinite"
					},
					"external": {
						"addStudent(uint256,string,uint256)": "infinite",
						"deletestudent(uint256)": "infinite",
						"getStudent(uint256)": "infinite",
						"students(uint256)": "infinite",
						"totalStudents()": "2473"
					}
				},
				"methodIdentifiers": {
					"addStudent(uint256,string,uint256)": "c1bea1db",
					"deletestudent(uint256)": "5bca8951",
					"getStudent(uint256)": "642f9163",
					"students(uint256)": "06ead22e",
					"totalStudents()": "9852bf8e"
				}
			},
			"storageLayout": {
				"storage": [
					{
						"astId": 13,
						"contract": "studentconstcator.sol:StudentRecords",
						"label": "students",
						"offset": 0,
						"slot": "0",
						"type": "t_mapping(t_uint256,t_struct(Student)8_storage)"
					},
					{
						"astId": 15,
						"contract": "studentconstcator.sol:StudentRecords",
						"label": "totalStudents",
						"offset": 0,
						"slot": "1",
						"type": "t_uint256"
					}
				],
				"types": {
					"t_mapping(t_uint256,t_struct(Student)8_storage)": {
						"encoding": "mapping",
						"key": "t_uint256",
						"label": "mapping(uint256 => struct StudentRecords.Student)",
						"numberOfBytes": "32",
						"value": "t_struct(Student)8_storage"
					},
					"t_string_storage": {
						"encoding": "bytes",
						"label": "string",
						"numberOfBytes": "32"
					},
					"t_struct(Student)8_storage": {
						"encoding": "inplace",
						"label": "struct StudentRecords.Student",
						"members": [
							{
								"astId": 3,
								"contract": "studentconstcator.sol:StudentRecords",
								"label": "id",
								"offset": 0,
								"slot": "0",
								"type": "t_uint256"
							},
							{
								"astId": 5,
								"contract": "studentconstcator.sol:StudentRecords",
								"label": "name",
								"offset": 0,
								"slot": "1",
								"type": "t_string_storage"
							},
							{
								"astId": 7,
								"contract": "studentconstcator.sol:StudentRecords",
								"label": "age",
								"offset": 0,
								"slot": "2",
								"type": "t_uint256"
							}
						],
						"numberOfBytes": "96"
					},
					"t_uint256": {
						"encoding": "inplace",
						"label": "uint256",
						"numberOfBytes": "32"
					}
				}
			},
			"userdoc": {
				"kind": "user",
				"methods": {},
				"version": 1
			}
		}
	}
}