{
	"admincanaccessbankuserdata.sol": {
		"Bank": {
			"abi": [
				{
					"inputs": [],
					"stateMutability": "nonpayable",
					"type": "constructor"
				},
				{
					"inputs": [],
					"name": "admin",
					"outputs": [
						{
							"internalType": "address",
							"name": "",
							"type": "address"
						}
					],
					"stateMutability": "view",
					"type": "function"
				},
				{
					"inputs": [],
					"name": "checkBalance",
					"outputs": [
						{
							"internalType": "uint256",
							"name": "",
							"type": "uint256"
						}
					],
					"stateMutability": "view",
					"type": "function"
				},
				{
					"inputs": [],
					"name": "deposit",
					"outputs": [],
					"stateMutability": "payable",
					"type": "function"
				},
				{
					"inputs": [],
					"name": "isAdmin",
					"outputs": [
						{
							"internalType": "bool",
							"name": "",
							"type": "bool"
						}
					],
					"stateMutability": "view",
					"type": "function"
				},
				{
					"inputs": [
						{
							"internalType": "address",
							"name": "",
							"type": "address"
						}
					],
					"name": "users",
					"outputs": [
						{
							"internalType": "uint256",
							"name": "balance",
							"type": "uint256"
						}
					],
					"stateMutability": "view",
					"type": "function"
				},
				{
					"inputs": [
						{
							"internalType": "address",
							"name": "userAddress",
							"type": "address"
						},
						{
							"internalType": "uint256",
							"name": "amount",
							"type": "uint256"
						}
					],
					"name": "withdraw",
					"outputs": [],
					"stateMutability": "nonpayable",
					"type": "function"
				}
			],
			"devdoc": {
				"kind": "dev",
				"methods": {},
				"version": 1
			},
			"evm": {
				"assembly": "    /* \"admincanaccessbankuserdata.sol\":61:996  contract Bank {... */\n  mstore(0x40, 0x80)\n    /* \"admincanaccessbankuserdata.sol\":350:401  constructor() {... */\n  callvalue\n  dup1\n  iszero\n  tag_1\n  jumpi\n  0x00\n  dup1\n  revert\ntag_1:\n  pop\n    /* \"admincanaccessbankuserdata.sol\":383:393  msg.sender */\n  caller\n    /* \"admincanaccessbankuserdata.sol\":375:380  admin */\n  0x00\n  dup1\n    /* \"admincanaccessbankuserdata.sol\":375:393  admin = msg.sender */\n  0x0100\n  exp\n  dup2\n  sload\n  dup2\n  0xffffffffffffffffffffffffffffffffffffffff\n  mul\n  not\n  and\n  swap1\n  dup4\n  0xffffffffffffffffffffffffffffffffffffffff\n  and\n  mul\n  or\n  swap1\n  sstore\n  pop\n    /* \"admincanaccessbankuserdata.sol\":61:996  contract Bank {... */\n  dataSize(sub_0)\n  dup1\n  dataOffset(sub_0)\n  0x00\n  codecopy\n  0x00\n  return\nstop\n\nsub_0: assembly {\n        /* \"admincanaccessbankuserdata.sol\":61:996  contract Bank {... */\n      mstore(0x40, 0x80)\n      jumpi(tag_1, lt(calldatasize, 0x04))\n      shr(0xe0, calldataload(0x00))\n      dup1\n      0xa87430ba\n      eq\n      tag_2\n      jumpi\n      dup1\n      0xb6db75a0\n      eq\n      tag_3\n      jumpi\n      dup1\n      0xc71daccb\n      eq\n      tag_4\n      jumpi\n      dup1\n      0xd0e30db0\n      eq\n      tag_5\n      jumpi\n      dup1\n      0xf3fef3a3\n      eq\n      tag_6\n      jumpi\n      dup1\n      0xf851a440\n      eq\n      tag_7\n      jumpi\n    tag_1:\n      0x00\n      dup1\n      revert\n        /* \"admincanaccessbankuserdata.sol\":170:207  mapping(address => User) public users */\n    tag_2:\n      callvalue\n      dup1\n      iszero\n      tag_8\n      jumpi\n      0x00\n      dup1\n      revert\n    tag_8:\n      pop\n      tag_9\n      0x04\n      dup1\n      calldatasize\n      sub\n      dup2\n      add\n      swap1\n      tag_10\n      swap2\n      swap1\n      tag_11\n      jump\t// in\n    tag_10:\n      tag_12\n      jump\t// in\n    tag_9:\n      mload(0x40)\n      tag_13\n      swap2\n      swap1\n      tag_14\n      jump\t// in\n    tag_13:\n      mload(0x40)\n      dup1\n      swap2\n      sub\n      swap1\n      return\n        /* \"admincanaccessbankuserdata.sol\":634:727  function isAdmin() external view returns (bool) {... */\n    tag_3:\n      callvalue\n      dup1\n      iszero\n      tag_15\n      jumpi\n      0x00\n      dup1\n      revert\n    tag_15:\n      pop\n      tag_16\n      tag_17\n      jump\t// in\n    tag_16:\n      mload(0x40)\n      tag_18\n      swap2\n      swap1\n      tag_19\n      jump\t// in\n    tag_18:\n      mload(0x40)\n      dup1\n      swap2\n      sub\n      swap1\n      return\n        /* \"admincanaccessbankuserdata.sol\":518:622  function checkBalance() external view returns (uint) {... */\n    tag_4:\n      callvalue\n      dup1\n      iszero\n      tag_20\n      jumpi\n      0x00\n      dup1\n      revert\n    tag_20:\n      pop\n      tag_21\n      tag_22\n      jump\t// in\n    tag_21:\n      mload(0x40)\n      tag_23\n      swap2\n      swap1\n      tag_14\n      jump\t// in\n    tag_23:\n      mload(0x40)\n      dup1\n      swap2\n      sub\n      swap1\n      return\n        /* \"admincanaccessbankuserdata.sol\":413:506  function deposit() external payable {... */\n    tag_5:\n      tag_24\n      tag_25\n      jump\t// in\n    tag_24:\n      stop\n        /* \"admincanaccessbankuserdata.sol\":739:993  function withdraw(address userAddress, uint amount) external onlyAdmin {... */\n    tag_6:\n      callvalue\n      dup1\n      iszero\n      tag_26\n      jumpi\n      0x00\n      dup1\n      revert\n    tag_26:\n      pop\n      tag_27\n      0x04\n      dup1\n      calldatasize\n      sub\n      dup2\n      add\n      swap1\n      tag_28\n      swap2\n      swap1\n      tag_29\n      jump\t// in\n    tag_28:\n      tag_30\n      jump\t// in\n    tag_27:\n      stop\n        /* \"admincanaccessbankuserdata.sol\":82:102  address public admin */\n    tag_7:\n      callvalue\n      dup1\n      iszero\n      tag_31\n      jumpi\n      0x00\n      dup1\n      revert\n    tag_31:\n      pop\n      tag_32\n      tag_33\n      jump\t// in\n    tag_32:\n      mload(0x40)\n      tag_34\n      swap2\n      swap1\n      tag_35\n      jump\t// in\n    tag_34:\n      mload(0x40)\n      dup1\n      swap2\n      sub\n      swap1\n      return\n        /* \"admincanaccessbankuserdata.sol\":170:207  mapping(address => User) public users */\n    tag_12:\n      mstore(0x20, 0x01)\n      dup1\n      0x00\n      mstore\n      keccak256(0x00, 0x40)\n      0x00\n      swap2\n      pop\n      swap1\n      pop\n      dup1\n      0x00\n      add\n      sload\n      swap1\n      pop\n      dup2\n      jump\t// out\n        /* \"admincanaccessbankuserdata.sol\":634:727  function isAdmin() external view returns (bool) {... */\n    tag_17:\n        /* \"admincanaccessbankuserdata.sol\":676:680  bool */\n      0x00\n        /* \"admincanaccessbankuserdata.sol\":714:719  admin */\n      dup1\n      0x00\n      swap1\n      sload\n      swap1\n      0x0100\n      exp\n      swap1\n      div\n      0xffffffffffffffffffffffffffffffffffffffff\n      and\n        /* \"admincanaccessbankuserdata.sol\":700:719  msg.sender == admin */\n      0xffffffffffffffffffffffffffffffffffffffff\n      and\n        /* \"admincanaccessbankuserdata.sol\":700:710  msg.sender */\n      caller\n        /* \"admincanaccessbankuserdata.sol\":700:719  msg.sender == admin */\n      0xffffffffffffffffffffffffffffffffffffffff\n      and\n      eq\n        /* \"admincanaccessbankuserdata.sol\":693:719  return msg.sender == admin */\n      swap1\n      pop\n        /* \"admincanaccessbankuserdata.sol\":634:727  function isAdmin() external view returns (bool) {... */\n      swap1\n      jump\t// out\n        /* \"admincanaccessbankuserdata.sol\":518:622  function checkBalance() external view returns (uint) {... */\n    tag_22:\n        /* \"admincanaccessbankuserdata.sol\":565:569  uint */\n      0x00\n        /* \"admincanaccessbankuserdata.sol\":589:594  users */\n      0x01\n        /* \"admincanaccessbankuserdata.sol\":589:606  users[msg.sender] */\n      0x00\n        /* \"admincanaccessbankuserdata.sol\":595:605  msg.sender */\n      caller\n        /* \"admincanaccessbankuserdata.sol\":589:606  users[msg.sender] */\n      0xffffffffffffffffffffffffffffffffffffffff\n      and\n      0xffffffffffffffffffffffffffffffffffffffff\n      and\n      dup2\n      mstore\n      0x20\n      add\n      swap1\n      dup2\n      mstore\n      0x20\n      add\n      0x00\n      keccak256\n        /* \"admincanaccessbankuserdata.sol\":589:614  users[msg.sender].balance */\n      0x00\n      add\n      sload\n        /* \"admincanaccessbankuserdata.sol\":582:614  return users[msg.sender].balance */\n      swap1\n      pop\n        /* \"admincanaccessbankuserdata.sol\":518:622  function checkBalance() external view returns (uint) {... */\n      swap1\n      jump\t// out\n        /* \"admincanaccessbankuserdata.sol\":413:506  function deposit() external payable {... */\n    tag_25:\n        /* \"admincanaccessbankuserdata.sol\":489:498  msg.value */\n      callvalue\n        /* \"admincanaccessbankuserdata.sol\":460:465  users */\n      0x01\n        /* \"admincanaccessbankuserdata.sol\":460:477  users[msg.sender] */\n      0x00\n        /* \"admincanaccessbankuserdata.sol\":466:476  msg.sender */\n      caller\n        /* \"admincanaccessbankuserdata.sol\":460:477  users[msg.sender] */\n      0xffffffffffffffffffffffffffffffffffffffff\n      and\n      0xffffffffffffffffffffffffffffffffffffffff\n      and\n      dup2\n      mstore\n      0x20\n      add\n      swap1\n      dup2\n      mstore\n      0x20\n      add\n      0x00\n      keccak256\n        /* \"admincanaccessbankuserdata.sol\":460:485  users[msg.sender].balance */\n      0x00\n      add\n      0x00\n        /* \"admincanaccessbankuserdata.sol\":460:498  users[msg.sender].balance += msg.value */\n      dup3\n      dup3\n      sload\n      tag_39\n      swap2\n      swap1\n      tag_40\n      jump\t// in\n    tag_39:\n      swap3\n      pop\n      pop\n      dup2\n      swap1\n      sstore\n      pop\n        /* \"admincanaccessbankuserdata.sol\":413:506  function deposit() external payable {... */\n      jump\t// out\n        /* \"admincanaccessbankuserdata.sol\":739:993  function withdraw(address userAddress, uint amount) external onlyAdmin {... */\n    tag_30:\n        /* \"admincanaccessbankuserdata.sol\":274:279  admin */\n      0x00\n      dup1\n      sload\n      swap1\n      0x0100\n      exp\n      swap1\n      div\n      0xffffffffffffffffffffffffffffffffffffffff\n      and\n        /* \"admincanaccessbankuserdata.sol\":260:279  msg.sender == admin */\n      0xffffffffffffffffffffffffffffffffffffffff\n      and\n        /* \"admincanaccessbankuserdata.sol\":260:270  msg.sender */\n      caller\n        /* \"admincanaccessbankuserdata.sol\":260:279  msg.sender == admin */\n      0xffffffffffffffffffffffffffffffffffffffff\n      and\n      eq\n        /* \"admincanaccessbankuserdata.sol\":252:318  require(msg.sender == admin, \"Only admin can perform this action\") */\n      tag_42\n      jumpi\n      mload(0x40)\n      0x08c379a000000000000000000000000000000000000000000000000000000000\n      dup2\n      mstore\n      0x04\n      add\n      tag_43\n      swap1\n      tag_44\n      jump\t// in\n    tag_43:\n      mload(0x40)\n      dup1\n      swap2\n      sub\n      swap1\n      revert\n    tag_42:\n        /* \"admincanaccessbankuserdata.sol\":859:865  amount */\n      dup1\n        /* \"admincanaccessbankuserdata.sol\":829:834  users */\n      0x01\n        /* \"admincanaccessbankuserdata.sol\":829:847  users[userAddress] */\n      0x00\n        /* \"admincanaccessbankuserdata.sol\":835:846  userAddress */\n      dup5\n        /* \"admincanaccessbankuserdata.sol\":829:847  users[userAddress] */\n      0xffffffffffffffffffffffffffffffffffffffff\n      and\n      0xffffffffffffffffffffffffffffffffffffffff\n      and\n      dup2\n      mstore\n      0x20\n      add\n      swap1\n      dup2\n      mstore\n      0x20\n      add\n      0x00\n      keccak256\n        /* \"admincanaccessbankuserdata.sol\":829:855  users[userAddress].balance */\n      0x00\n      add\n      sload\n        /* \"admincanaccessbankuserdata.sol\":829:865  users[userAddress].balance >= amount */\n      lt\n      iszero\n        /* \"admincanaccessbankuserdata.sol\":821:890  require(users[userAddress].balance >= amount, \"Insufficient balance\") */\n      tag_46\n      jumpi\n      mload(0x40)\n      0x08c379a000000000000000000000000000000000000000000000000000000000\n      dup2\n      mstore\n      0x04\n      add\n      tag_47\n      swap1\n      tag_48\n      jump\t// in\n    tag_47:\n      mload(0x40)\n      dup1\n      swap2\n      sub\n      swap1\n      revert\n    tag_46:\n        /* \"admincanaccessbankuserdata.sol\":931:937  amount */\n      dup1\n        /* \"admincanaccessbankuserdata.sol\":901:906  users */\n      0x01\n        /* \"admincanaccessbankuserdata.sol\":901:919  users[userAddress] */\n      0x00\n        /* \"admincanaccessbankuserdata.sol\":907:918  userAddress */\n      dup5\n        /* \"admincanaccessbankuserdata.sol\":901:919  users[userAddress] */\n      0xffffffffffffffffffffffffffffffffffffffff\n      and\n      0xffffffffffffffffffffffffffffffffffffffff\n      and\n      dup2\n      mstore\n      0x20\n      add\n      swap1\n      dup2\n      mstore\n      0x20\n      add\n      0x00\n      keccak256\n        /* \"admincanaccessbankuserdata.sol\":901:927  users[userAddress].balance */\n      0x00\n      add\n      0x00\n        /* \"admincanaccessbankuserdata.sol\":901:937  users[userAddress].balance -= amount */\n      dup3\n      dup3\n      sload\n      tag_49\n      swap2\n      swap1\n      tag_50\n      jump\t// in\n    tag_49:\n      swap3\n      pop\n      pop\n      dup2\n      swap1\n      sstore\n      pop\n        /* \"admincanaccessbankuserdata.sol\":956:967  userAddress */\n      dup2\n        /* \"admincanaccessbankuserdata.sol\":948:977  payable(userAddress).transfer */\n      0xffffffffffffffffffffffffffffffffffffffff\n      and\n        /* \"admincanaccessbankuserdata.sol\":948:985  payable(userAddress).transfer(amount) */\n      0x08fc\n        /* \"admincanaccessbankuserdata.sol\":978:984  amount */\n      dup3\n        /* \"admincanaccessbankuserdata.sol\":948:985  payable(userAddress).transfer(amount) */\n      swap1\n      dup2\n      iszero\n      mul\n      swap1\n      mload(0x40)\n      0x00\n      mload(0x40)\n      dup1\n      dup4\n      sub\n      dup2\n      dup6\n      dup9\n      dup9\n      call\n      swap4\n      pop\n      pop\n      pop\n      pop\n      iszero\n      dup1\n      iszero\n      tag_52\n      jumpi\n      returndatasize\n      0x00\n      dup1\n      returndatacopy\n      revert(0x00, returndatasize)\n    tag_52:\n      pop\n        /* \"admincanaccessbankuserdata.sol\":739:993  function withdraw(address userAddress, uint amount) external onlyAdmin {... */\n      pop\n      pop\n      jump\t// out\n        /* \"admincanaccessbankuserdata.sol\":82:102  address public admin */\n    tag_33:\n      0x00\n      dup1\n      sload\n      swap1\n      0x0100\n      exp\n      swap1\n      div\n      0xffffffffffffffffffffffffffffffffffffffff\n      and\n      dup2\n      jump\t// out\n        /* \"#utility.yul\":88:205   */\n    tag_54:\n        /* \"#utility.yul\":197:198   */\n      0x00\n        /* \"#utility.yul\":194:195   */\n      dup1\n        /* \"#utility.yul\":187:199   */\n      revert\n        /* \"#utility.yul\":334:460   */\n    tag_56:\n        /* \"#utility.yul\":371:378   */\n      0x00\n        /* \"#utility.yul\":411:453   */\n      0xffffffffffffffffffffffffffffffffffffffff\n        /* \"#utility.yul\":404:409   */\n      dup3\n        /* \"#utility.yul\":400:454   */\n      and\n        /* \"#utility.yul\":389:454   */\n      swap1\n      pop\n        /* \"#utility.yul\":334:460   */\n      swap2\n      swap1\n      pop\n      jump\t// out\n        /* \"#utility.yul\":466:562   */\n    tag_57:\n        /* \"#utility.yul\":503:510   */\n      0x00\n        /* \"#utility.yul\":532:556   */\n      tag_79\n        /* \"#utility.yul\":550:555   */\n      dup3\n        /* \"#utility.yul\":532:556   */\n      tag_56\n      jump\t// in\n    tag_79:\n        /* \"#utility.yul\":521:556   */\n      swap1\n      pop\n        /* \"#utility.yul\":466:562   */\n      swap2\n      swap1\n      pop\n      jump\t// out\n        /* \"#utility.yul\":568:690   */\n    tag_58:\n        /* \"#utility.yul\":641:665   */\n      tag_81\n        /* \"#utility.yul\":659:664   */\n      dup2\n        /* \"#utility.yul\":641:665   */\n      tag_57\n      jump\t// in\n    tag_81:\n        /* \"#utility.yul\":634:639   */\n      dup2\n        /* \"#utility.yul\":631:666   */\n      eq\n        /* \"#utility.yul\":621:684   */\n      tag_82\n      jumpi\n        /* \"#utility.yul\":680:681   */\n      0x00\n        /* \"#utility.yul\":677:678   */\n      dup1\n        /* \"#utility.yul\":670:682   */\n      revert\n        /* \"#utility.yul\":621:684   */\n    tag_82:\n        /* \"#utility.yul\":568:690   */\n      pop\n      jump\t// out\n        /* \"#utility.yul\":696:835   */\n    tag_59:\n        /* \"#utility.yul\":742:747   */\n      0x00\n        /* \"#utility.yul\":780:786   */\n      dup2\n        /* \"#utility.yul\":767:787   */\n      calldataload\n        /* \"#utility.yul\":758:787   */\n      swap1\n      pop\n        /* \"#utility.yul\":796:829   */\n      tag_84\n        /* \"#utility.yul\":823:828   */\n      dup2\n        /* \"#utility.yul\":796:829   */\n      tag_58\n      jump\t// in\n    tag_84:\n        /* \"#utility.yul\":696:835   */\n      swap3\n      swap2\n      pop\n      pop\n      jump\t// out\n        /* \"#utility.yul\":841:1170   */\n    tag_11:\n        /* \"#utility.yul\":900:906   */\n      0x00\n        /* \"#utility.yul\":949:951   */\n      0x20\n        /* \"#utility.yul\":937:946   */\n      dup3\n        /* \"#utility.yul\":928:935   */\n      dup5\n        /* \"#utility.yul\":924:947   */\n      sub\n        /* \"#utility.yul\":920:952   */\n      slt\n        /* \"#utility.yul\":917:1036   */\n      iszero\n      tag_86\n      jumpi\n        /* \"#utility.yul\":955:1034   */\n      tag_87\n      tag_54\n      jump\t// in\n    tag_87:\n        /* \"#utility.yul\":917:1036   */\n    tag_86:\n        /* \"#utility.yul\":1075:1076   */\n      0x00\n        /* \"#utility.yul\":1100:1153   */\n      tag_88\n        /* \"#utility.yul\":1145:1152   */\n      dup5\n        /* \"#utility.yul\":1136:1142   */\n      dup3\n        /* \"#utility.yul\":1125:1134   */\n      dup6\n        /* \"#utility.yul\":1121:1143   */\n      add\n        /* \"#utility.yul\":1100:1153   */\n      tag_59\n      jump\t// in\n    tag_88:\n        /* \"#utility.yul\":1090:1153   */\n      swap2\n      pop\n        /* \"#utility.yul\":1046:1163   */\n      pop\n        /* \"#utility.yul\":841:1170   */\n      swap3\n      swap2\n      pop\n      pop\n      jump\t// out\n        /* \"#utility.yul\":1176:1253   */\n    tag_60:\n        /* \"#utility.yul\":1213:1220   */\n      0x00\n        /* \"#utility.yul\":1242:1247   */\n      dup2\n        /* \"#utility.yul\":1231:1247   */\n      swap1\n      pop\n        /* \"#utility.yul\":1176:1253   */\n      swap2\n      swap1\n      pop\n      jump\t// out\n        /* \"#utility.yul\":1259:1377   */\n    tag_61:\n        /* \"#utility.yul\":1346:1370   */\n      tag_91\n        /* \"#utility.yul\":1364:1369   */\n      dup2\n        /* \"#utility.yul\":1346:1370   */\n      tag_60\n      jump\t// in\n    tag_91:\n        /* \"#utility.yul\":1341:1344   */\n      dup3\n        /* \"#utility.yul\":1334:1371   */\n      mstore\n        /* \"#utility.yul\":1259:1377   */\n      pop\n      pop\n      jump\t// out\n        /* \"#utility.yul\":1383:1605   */\n    tag_14:\n        /* \"#utility.yul\":1476:1480   */\n      0x00\n        /* \"#utility.yul\":1514:1516   */\n      0x20\n        /* \"#utility.yul\":1503:1512   */\n      dup3\n        /* \"#utility.yul\":1499:1517   */\n      add\n        /* \"#utility.yul\":1491:1517   */\n      swap1\n      pop\n        /* \"#utility.yul\":1527:1598   */\n      tag_93\n        /* \"#utility.yul\":1595:1596   */\n      0x00\n        /* \"#utility.yul\":1584:1593   */\n      dup4\n        /* \"#utility.yul\":1580:1597   */\n      add\n        /* \"#utility.yul\":1571:1577   */\n      dup5\n        /* \"#utility.yul\":1527:1598   */\n      tag_61\n      jump\t// in\n    tag_93:\n        /* \"#utility.yul\":1383:1605   */\n      swap3\n      swap2\n      pop\n      pop\n      jump\t// out\n        /* \"#utility.yul\":1611:1701   */\n    tag_62:\n        /* \"#utility.yul\":1645:1652   */\n      0x00\n        /* \"#utility.yul\":1688:1693   */\n      dup2\n        /* \"#utility.yul\":1681:1694   */\n      iszero\n        /* \"#utility.yul\":1674:1695   */\n      iszero\n        /* \"#utility.yul\":1663:1695   */\n      swap1\n      pop\n        /* \"#utility.yul\":1611:1701   */\n      swap2\n      swap1\n      pop\n      jump\t// out\n        /* \"#utility.yul\":1707:1816   */\n    tag_63:\n        /* \"#utility.yul\":1788:1809   */\n      tag_96\n        /* \"#utility.yul\":1803:1808   */\n      dup2\n        /* \"#utility.yul\":1788:1809   */\n      tag_62\n      jump\t// in\n    tag_96:\n        /* \"#utility.yul\":1783:1786   */\n      dup3\n        /* \"#utility.yul\":1776:1810   */\n      mstore\n        /* \"#utility.yul\":1707:1816   */\n      pop\n      pop\n      jump\t// out\n        /* \"#utility.yul\":1822:2032   */\n    tag_19:\n        /* \"#utility.yul\":1909:1913   */\n      0x00\n        /* \"#utility.yul\":1947:1949   */\n      0x20\n        /* \"#utility.yul\":1936:1945   */\n      dup3\n        /* \"#utility.yul\":1932:1950   */\n      add\n        /* \"#utility.yul\":1924:1950   */\n      swap1\n      pop\n        /* \"#utility.yul\":1960:2025   */\n      tag_98\n        /* \"#utility.yul\":2022:2023   */\n      0x00\n        /* \"#utility.yul\":2011:2020   */\n      dup4\n        /* \"#utility.yul\":2007:2024   */\n      add\n        /* \"#utility.yul\":1998:2004   */\n      dup5\n        /* \"#utility.yul\":1960:2025   */\n      tag_63\n      jump\t// in\n    tag_98:\n        /* \"#utility.yul\":1822:2032   */\n      swap3\n      swap2\n      pop\n      pop\n      jump\t// out\n        /* \"#utility.yul\":2038:2160   */\n    tag_64:\n        /* \"#utility.yul\":2111:2135   */\n      tag_100\n        /* \"#utility.yul\":2129:2134   */\n      dup2\n        /* \"#utility.yul\":2111:2135   */\n      tag_60\n      jump\t// in\n    tag_100:\n        /* \"#utility.yul\":2104:2109   */\n      dup2\n        /* \"#utility.yul\":2101:2136   */\n      eq\n        /* \"#utility.yul\":2091:2154   */\n      tag_101\n      jumpi\n        /* \"#utility.yul\":2150:2151   */\n      0x00\n        /* \"#utility.yul\":2147:2148   */\n      dup1\n        /* \"#utility.yul\":2140:2152   */\n      revert\n        /* \"#utility.yul\":2091:2154   */\n    tag_101:\n        /* \"#utility.yul\":2038:2160   */\n      pop\n      jump\t// out\n        /* \"#utility.yul\":2166:2305   */\n    tag_65:\n        /* \"#utility.yul\":2212:2217   */\n      0x00\n        /* \"#utility.yul\":2250:2256   */\n      dup2\n        /* \"#utility.yul\":2237:2257   */\n      calldataload\n        /* \"#utility.yul\":2228:2257   */\n      swap1\n      pop\n        /* \"#utility.yul\":2266:2299   */\n      tag_103\n        /* \"#utility.yul\":2293:2298   */\n      dup2\n        /* \"#utility.yul\":2266:2299   */\n      tag_64\n      jump\t// in\n    tag_103:\n        /* \"#utility.yul\":2166:2305   */\n      swap3\n      swap2\n      pop\n      pop\n      jump\t// out\n        /* \"#utility.yul\":2311:2785   */\n    tag_29:\n        /* \"#utility.yul\":2379:2385   */\n      0x00\n        /* \"#utility.yul\":2387:2393   */\n      dup1\n        /* \"#utility.yul\":2436:2438   */\n      0x40\n        /* \"#utility.yul\":2424:2433   */\n      dup4\n        /* \"#utility.yul\":2415:2422   */\n      dup6\n        /* \"#utility.yul\":2411:2434   */\n      sub\n        /* \"#utility.yul\":2407:2439   */\n      slt\n        /* \"#utility.yul\":2404:2523   */\n      iszero\n      tag_105\n      jumpi\n        /* \"#utility.yul\":2442:2521   */\n      tag_106\n      tag_54\n      jump\t// in\n    tag_106:\n        /* \"#utility.yul\":2404:2523   */\n    tag_105:\n        /* \"#utility.yul\":2562:2563   */\n      0x00\n        /* \"#utility.yul\":2587:2640   */\n      tag_107\n        /* \"#utility.yul\":2632:2639   */\n      dup6\n        /* \"#utility.yul\":2623:2629   */\n      dup3\n        /* \"#utility.yul\":2612:2621   */\n      dup7\n        /* \"#utility.yul\":2608:2630   */\n      add\n        /* \"#utility.yul\":2587:2640   */\n      tag_59\n      jump\t// in\n    tag_107:\n        /* \"#utility.yul\":2577:2640   */\n      swap3\n      pop\n        /* \"#utility.yul\":2533:2650   */\n      pop\n        /* \"#utility.yul\":2689:2691   */\n      0x20\n        /* \"#utility.yul\":2715:2768   */\n      tag_108\n        /* \"#utility.yul\":2760:2767   */\n      dup6\n        /* \"#utility.yul\":2751:2757   */\n      dup3\n        /* \"#utility.yul\":2740:2749   */\n      dup7\n        /* \"#utility.yul\":2736:2758   */\n      add\n        /* \"#utility.yul\":2715:2768   */\n      tag_65\n      jump\t// in\n    tag_108:\n        /* \"#utility.yul\":2705:2768   */\n      swap2\n      pop\n        /* \"#utility.yul\":2660:2778   */\n      pop\n        /* \"#utility.yul\":2311:2785   */\n      swap3\n      pop\n      swap3\n      swap1\n      pop\n      jump\t// out\n        /* \"#utility.yul\":2791:2909   */\n    tag_66:\n        /* \"#utility.yul\":2878:2902   */\n      tag_110\n        /* \"#utility.yul\":2896:2901   */\n      dup2\n        /* \"#utility.yul\":2878:2902   */\n      tag_57\n      jump\t// in\n    tag_110:\n        /* \"#utility.yul\":2873:2876   */\n      dup3\n        /* \"#utility.yul\":2866:2903   */\n      mstore\n        /* \"#utility.yul\":2791:2909   */\n      pop\n      pop\n      jump\t// out\n        /* \"#utility.yul\":2915:3137   */\n    tag_35:\n        /* \"#utility.yul\":3008:3012   */\n      0x00\n        /* \"#utility.yul\":3046:3048   */\n      0x20\n        /* \"#utility.yul\":3035:3044   */\n      dup3\n        /* \"#utility.yul\":3031:3049   */\n      add\n        /* \"#utility.yul\":3023:3049   */\n      swap1\n      pop\n        /* \"#utility.yul\":3059:3130   */\n      tag_112\n        /* \"#utility.yul\":3127:3128   */\n      0x00\n        /* \"#utility.yul\":3116:3125   */\n      dup4\n        /* \"#utility.yul\":3112:3129   */\n      add\n        /* \"#utility.yul\":3103:3109   */\n      dup5\n        /* \"#utility.yul\":3059:3130   */\n      tag_66\n      jump\t// in\n    tag_112:\n        /* \"#utility.yul\":2915:3137   */\n      swap3\n      swap2\n      pop\n      pop\n      jump\t// out\n        /* \"#utility.yul\":3143:3323   */\n    tag_67:\n        /* \"#utility.yul\":3191:3268   */\n      0x4e487b7100000000000000000000000000000000000000000000000000000000\n        /* \"#utility.yul\":3188:3189   */\n      0x00\n        /* \"#utility.yul\":3181:3269   */\n      mstore\n        /* \"#utility.yul\":3288:3292   */\n      0x11\n        /* \"#utility.yul\":3285:3286   */\n      0x04\n        /* \"#utility.yul\":3278:3293   */\n      mstore\n        /* \"#utility.yul\":3312:3316   */\n      0x24\n        /* \"#utility.yul\":3309:3310   */\n      0x00\n        /* \"#utility.yul\":3302:3317   */\n      revert\n        /* \"#utility.yul\":3329:3520   */\n    tag_40:\n        /* \"#utility.yul\":3369:3372   */\n      0x00\n        /* \"#utility.yul\":3388:3408   */\n      tag_115\n        /* \"#utility.yul\":3406:3407   */\n      dup3\n        /* \"#utility.yul\":3388:3408   */\n      tag_60\n      jump\t// in\n    tag_115:\n        /* \"#utility.yul\":3383:3408   */\n      swap2\n      pop\n        /* \"#utility.yul\":3422:3442   */\n      tag_116\n        /* \"#utility.yul\":3440:3441   */\n      dup4\n        /* \"#utility.yul\":3422:3442   */\n      tag_60\n      jump\t// in\n    tag_116:\n        /* \"#utility.yul\":3417:3442   */\n      swap3\n      pop\n        /* \"#utility.yul\":3465:3466   */\n      dup3\n        /* \"#utility.yul\":3462:3463   */\n      dup3\n        /* \"#utility.yul\":3458:3467   */\n      add\n        /* \"#utility.yul\":3451:3467   */\n      swap1\n      pop\n        /* \"#utility.yul\":3486:3489   */\n      dup1\n        /* \"#utility.yul\":3483:3484   */\n      dup3\n        /* \"#utility.yul\":3480:3490   */\n      gt\n        /* \"#utility.yul\":3477:3513   */\n      iszero\n      tag_117\n      jumpi\n        /* \"#utility.yul\":3493:3511   */\n      tag_118\n      tag_67\n      jump\t// in\n    tag_118:\n        /* \"#utility.yul\":3477:3513   */\n    tag_117:\n        /* \"#utility.yul\":3329:3520   */\n      swap3\n      swap2\n      pop\n      pop\n      jump\t// out\n        /* \"#utility.yul\":3526:3695   */\n    tag_68:\n        /* \"#utility.yul\":3610:3621   */\n      0x00\n        /* \"#utility.yul\":3644:3650   */\n      dup3\n        /* \"#utility.yul\":3639:3642   */\n      dup3\n        /* \"#utility.yul\":3632:3651   */\n      mstore\n        /* \"#utility.yul\":3684:3688   */\n      0x20\n        /* \"#utility.yul\":3679:3682   */\n      dup3\n        /* \"#utility.yul\":3675:3689   */\n      add\n        /* \"#utility.yul\":3660:3689   */\n      swap1\n      pop\n        /* \"#utility.yul\":3526:3695   */\n      swap3\n      swap2\n      pop\n      pop\n      jump\t// out\n        /* \"#utility.yul\":3701:3922   */\n    tag_69:\n        /* \"#utility.yul\":3841:3875   */\n      0x4f6e6c792061646d696e2063616e20706572666f726d20746869732061637469\n        /* \"#utility.yul\":3837:3838   */\n      0x00\n        /* \"#utility.yul\":3829:3835   */\n      dup3\n        /* \"#utility.yul\":3825:3839   */\n      add\n        /* \"#utility.yul\":3818:3876   */\n      mstore\n        /* \"#utility.yul\":3910:3914   */\n      0x6f6e000000000000000000000000000000000000000000000000000000000000\n        /* \"#utility.yul\":3905:3907   */\n      0x20\n        /* \"#utility.yul\":3897:3903   */\n      dup3\n        /* \"#utility.yul\":3893:3908   */\n      add\n        /* \"#utility.yul\":3886:3915   */\n      mstore\n        /* \"#utility.yul\":3701:3922   */\n      pop\n      jump\t// out\n        /* \"#utility.yul\":3928:4294   */\n    tag_70:\n        /* \"#utility.yul\":4070:4073   */\n      0x00\n        /* \"#utility.yul\":4091:4158   */\n      tag_122\n        /* \"#utility.yul\":4155:4157   */\n      0x22\n        /* \"#utility.yul\":4150:4153   */\n      dup4\n        /* \"#utility.yul\":4091:4158   */\n      tag_68\n      jump\t// in\n    tag_122:\n        /* \"#utility.yul\":4084:4158   */\n      swap2\n      pop\n        /* \"#utility.yul\":4167:4260   */\n      tag_123\n        /* \"#utility.yul\":4256:4259   */\n      dup3\n        /* \"#utility.yul\":4167:4260   */\n      tag_69\n      jump\t// in\n    tag_123:\n        /* \"#utility.yul\":4285:4287   */\n      0x40\n        /* \"#utility.yul\":4280:4283   */\n      dup3\n        /* \"#utility.yul\":4276:4288   */\n      add\n        /* \"#utility.yul\":4269:4288   */\n      swap1\n      pop\n        /* \"#utility.yul\":3928:4294   */\n      swap2\n      swap1\n      pop\n      jump\t// out\n        /* \"#utility.yul\":4300:4719   */\n    tag_44:\n        /* \"#utility.yul\":4466:4470   */\n      0x00\n        /* \"#utility.yul\":4504:4506   */\n      0x20\n        /* \"#utility.yul\":4493:4502   */\n      dup3\n        /* \"#utility.yul\":4489:4507   */\n      add\n        /* \"#utility.yul\":4481:4507   */\n      swap1\n      pop\n        /* \"#utility.yul\":4553:4562   */\n      dup2\n        /* \"#utility.yul\":4547:4551   */\n      dup2\n        /* \"#utility.yul\":4543:4563   */\n      sub\n        /* \"#utility.yul\":4539:4540   */\n      0x00\n        /* \"#utility.yul\":4528:4537   */\n      dup4\n        /* \"#utility.yul\":4524:4541   */\n      add\n        /* \"#utility.yul\":4517:4564   */\n      mstore\n        /* \"#utility.yul\":4581:4712   */\n      tag_125\n        /* \"#utility.yul\":4707:4711   */\n      dup2\n        /* \"#utility.yul\":4581:4712   */\n      tag_70\n      jump\t// in\n    tag_125:\n        /* \"#utility.yul\":4573:4712   */\n      swap1\n      pop\n        /* \"#utility.yul\":4300:4719   */\n      swap2\n      swap1\n      pop\n      jump\t// out\n        /* \"#utility.yul\":4725:4895   */\n    tag_71:\n        /* \"#utility.yul\":4865:4887   */\n      0x496e73756666696369656e742062616c616e6365000000000000000000000000\n        /* \"#utility.yul\":4861:4862   */\n      0x00\n        /* \"#utility.yul\":4853:4859   */\n      dup3\n        /* \"#utility.yul\":4849:4863   */\n      add\n        /* \"#utility.yul\":4842:4888   */\n      mstore\n        /* \"#utility.yul\":4725:4895   */\n      pop\n      jump\t// out\n        /* \"#utility.yul\":4901:5267   */\n    tag_72:\n        /* \"#utility.yul\":5043:5046   */\n      0x00\n        /* \"#utility.yul\":5064:5131   */\n      tag_128\n        /* \"#utility.yul\":5128:5130   */\n      0x14\n        /* \"#utility.yul\":5123:5126   */\n      dup4\n        /* \"#utility.yul\":5064:5131   */\n      tag_68\n      jump\t// in\n    tag_128:\n        /* \"#utility.yul\":5057:5131   */\n      swap2\n      pop\n        /* \"#utility.yul\":5140:5233   */\n      tag_129\n        /* \"#utility.yul\":5229:5232   */\n      dup3\n        /* \"#utility.yul\":5140:5233   */\n      tag_71\n      jump\t// in\n    tag_129:\n        /* \"#utility.yul\":5258:5260   */\n      0x20\n        /* \"#utility.yul\":5253:5256   */\n      dup3\n        /* \"#utility.yul\":5249:5261   */\n      add\n        /* \"#utility.yul\":5242:5261   */\n      swap1\n      pop\n        /* \"#utility.yul\":4901:5267   */\n      swap2\n      swap1\n      pop\n      jump\t// out\n        /* \"#utility.yul\":5273:5692   */\n    tag_48:\n        /* \"#utility.yul\":5439:5443   */\n      0x00\n        /* \"#utility.yul\":5477:5479   */\n      0x20\n        /* \"#utility.yul\":5466:5475   */\n      dup3\n        /* \"#utility.yul\":5462:5480   */\n      add\n        /* \"#utility.yul\":5454:5480   */\n      swap1\n      pop\n        /* \"#utility.yul\":5526:5535   */\n      dup2\n        /* \"#utility.yul\":5520:5524   */\n      dup2\n        /* \"#utility.yul\":5516:5536   */\n      sub\n        /* \"#utility.yul\":5512:5513   */\n      0x00\n        /* \"#utility.yul\":5501:5510   */\n      dup4\n        /* \"#utility.yul\":5497:5514   */\n      add\n        /* \"#utility.yul\":5490:5537   */\n      mstore\n        /* \"#utility.yul\":5554:5685   */\n      tag_131\n        /* \"#utility.yul\":5680:5684   */\n      dup2\n        /* \"#utility.yul\":5554:5685   */\n      tag_72\n      jump\t// in\n    tag_131:\n        /* \"#utility.yul\":5546:5685   */\n      swap1\n      pop\n        /* \"#utility.yul\":5273:5692   */\n      swap2\n      swap1\n      pop\n      jump\t// out\n        /* \"#utility.yul\":5698:5892   */\n    tag_50:\n        /* \"#utility.yul\":5738:5742   */\n      0x00\n        /* \"#utility.yul\":5758:5778   */\n      tag_133\n        /* \"#utility.yul\":5776:5777   */\n      dup3\n        /* \"#utility.yul\":5758:5778   */\n      tag_60\n      jump\t// in\n    tag_133:\n        /* \"#utility.yul\":5753:5778   */\n      swap2\n      pop\n        /* \"#utility.yul\":5792:5812   */\n      tag_134\n        /* \"#utility.yul\":5810:5811   */\n      dup4\n        /* \"#utility.yul\":5792:5812   */\n      tag_60\n      jump\t// in\n    tag_134:\n        /* \"#utility.yul\":5787:5812   */\n      swap3\n      pop\n        /* \"#utility.yul\":5836:5837   */\n      dup3\n        /* \"#utility.yul\":5833:5834   */\n      dup3\n        /* \"#utility.yul\":5829:5838   */\n      sub\n        /* \"#utility.yul\":5821:5838   */\n      swap1\n      pop\n        /* \"#utility.yul\":5860:5861   */\n      dup2\n        /* \"#utility.yul\":5854:5858   */\n      dup2\n        /* \"#utility.yul\":5851:5862   */\n      gt\n        /* \"#utility.yul\":5848:5885   */\n      iszero\n      tag_135\n      jumpi\n        /* \"#utility.yul\":5865:5883   */\n      tag_136\n      tag_67\n      jump\t// in\n    tag_136:\n        /* \"#utility.yul\":5848:5885   */\n    tag_135:\n        /* \"#utility.yul\":5698:5892   */\n      swap3\n      swap2\n      pop\n      pop\n      jump\t// out\n\n    auxdata: 0xa2646970667358221220a62f47d99272d2f097749d2732d9d0acb82b7e63fa1e5811c987aa722a23532764736f6c63430008120033\n}\n",
				"bytecode": {
					"linkReferences": {},
					"object": "608060405234801561001057600080fd5b50336000806101000a81548173ffffffffffffffffffffffffffffffffffffffff021916908373ffffffffffffffffffffffffffffffffffffffff1602179055506107ac806100606000396000f3fe6080604052600436106100555760003560e01c8063a87430ba1461005a578063b6db75a014610097578063c71daccb146100c2578063d0e30db0146100ed578063f3fef3a3146100f7578063f851a44014610120575b600080fd5b34801561006657600080fd5b50610081600480360381019061007c91906104a3565b61014b565b60405161008e91906104e9565b60405180910390f35b3480156100a357600080fd5b506100ac610169565b6040516100b9919061051f565b60405180910390f35b3480156100ce57600080fd5b506100d76101c0565b6040516100e491906104e9565b60405180910390f35b6100f561020a565b005b34801561010357600080fd5b5061011e60048036038101906101199190610566565b610265565b005b34801561012c57600080fd5b5061013561041c565b60405161014291906105b5565b60405180910390f35b60016020528060005260406000206000915090508060000154905081565b60008060009054906101000a900473ffffffffffffffffffffffffffffffffffffffff1673ffffffffffffffffffffffffffffffffffffffff163373ffffffffffffffffffffffffffffffffffffffff1614905090565b6000600160003373ffffffffffffffffffffffffffffffffffffffff1673ffffffffffffffffffffffffffffffffffffffff16815260200190815260200160002060000154905090565b34600160003373ffffffffffffffffffffffffffffffffffffffff1673ffffffffffffffffffffffffffffffffffffffff168152602001908152602001600020600001600082825461025c91906105ff565b92505081905550565b60008054906101000a900473ffffffffffffffffffffffffffffffffffffffff1673ffffffffffffffffffffffffffffffffffffffff163373ffffffffffffffffffffffffffffffffffffffff16146102f3576040517f08c379a00000000000000000000000000000000000000000000000000000000081526004016102ea906106b6565b60405180910390fd5b80600160008473ffffffffffffffffffffffffffffffffffffffff1673ffffffffffffffffffffffffffffffffffffffff168152602001908152602001600020600001541015610378576040517f08c379a000000000000000000000000000000000000000000000000000000000815260040161036f90610722565b60405180910390fd5b80600160008473ffffffffffffffffffffffffffffffffffffffff1673ffffffffffffffffffffffffffffffffffffffff16815260200190815260200160002060000160008282546103ca9190610742565b925050819055508173ffffffffffffffffffffffffffffffffffffffff166108fc829081150290604051600060405180830381858888f19350505050158015610417573d6000803e3d6000fd5b505050565b60008054906101000a900473ffffffffffffffffffffffffffffffffffffffff1681565b600080fd5b600073ffffffffffffffffffffffffffffffffffffffff82169050919050565b600061047082610445565b9050919050565b61048081610465565b811461048b57600080fd5b50565b60008135905061049d81610477565b92915050565b6000602082840312156104b9576104b8610440565b5b60006104c78482850161048e565b91505092915050565b6000819050919050565b6104e3816104d0565b82525050565b60006020820190506104fe60008301846104da565b92915050565b60008115159050919050565b61051981610504565b82525050565b60006020820190506105346000830184610510565b92915050565b610543816104d0565b811461054e57600080fd5b50565b6000813590506105608161053a565b92915050565b6000806040838503121561057d5761057c610440565b5b600061058b8582860161048e565b925050602061059c85828601610551565b9150509250929050565b6105af81610465565b82525050565b60006020820190506105ca60008301846105a6565b92915050565b7f4e487b7100000000000000000000000000000000000000000000000000000000600052601160045260246000fd5b600061060a826104d0565b9150610615836104d0565b925082820190508082111561062d5761062c6105d0565b5b92915050565b600082825260208201905092915050565b7f4f6e6c792061646d696e2063616e20706572666f726d2074686973206163746960008201527f6f6e000000000000000000000000000000000000000000000000000000000000602082015250565b60006106a0602283610633565b91506106ab82610644565b604082019050919050565b600060208201905081810360008301526106cf81610693565b9050919050565b7f496e73756666696369656e742062616c616e6365000000000000000000000000600082015250565b600061070c601483610633565b9150610717826106d6565b602082019050919050565b6000602082019050818103600083015261073b816106ff565b9050919050565b600061074d826104d0565b9150610758836104d0565b92508282039050818111156107705761076f6105d0565b5b9291505056fea2646970667358221220a62f47d99272d2f097749d2732d9d0acb82b7e63fa1e5811c987aa722a23532764736f6c63430008120033",
					"opcodes": "PUSH1 0x80 PUSH1 0x40 MSTORE CALLVALUE DUP1 ISZERO PUSH2 0x10 JUMPI PUSH1 0x0 DUP1 REVERT JUMPDEST POP CALLER PUSH1 0x0 DUP1 PUSH2 0x100 EXP DUP2 SLOAD DUP2 PUSH20 0xFFFFFFFFFFFFFFFFFFFFFFFFFFFFFFFFFFFFFFFF MUL NOT AND SWAP1 DUP4 PUSH20 0xFFFFFFFFFFFFFFFFFFFFFFFFFFFFFFFFFFFFFFFF AND MUL OR SWAP1 SSTORE POP PUSH2 0x7AC DUP1 PUSH2 0x60 PUSH1 0x0 CODECOPY PUSH1 0x0 RETURN INVALID PUSH1 0x80 PUSH1 0x40 MSTORE PUSH1 0x4 CALLDATASIZE LT PUSH2 0x55 JUMPI PUSH1 0x0 CALLDATALOAD PUSH1 0xE0 SHR DUP1 PUSH4 0xA87430BA EQ PUSH2 0x5A JUMPI DUP1 PUSH4 0xB6DB75A0 EQ PUSH2 0x97 JUMPI DUP1 PUSH4 0xC71DACCB EQ PUSH2 0xC2 JUMPI DUP1 PUSH4 0xD0E30DB0 EQ PUSH2 0xED JUMPI DUP1 PUSH4 0xF3FEF3A3 EQ PUSH2 0xF7 JUMPI DUP1 PUSH4 0xF851A440 EQ PUSH2 0x120 JUMPI JUMPDEST PUSH1 0x0 DUP1 REVERT JUMPDEST CALLVALUE DUP1 ISZERO PUSH2 0x66 JUMPI PUSH1 0x0 DUP1 REVERT JUMPDEST POP PUSH2 0x81 PUSH1 0x4 DUP1 CALLDATASIZE SUB DUP2 ADD SWAP1 PUSH2 0x7C SWAP2 SWAP1 PUSH2 0x4A3 JUMP JUMPDEST PUSH2 0x14B JUMP JUMPDEST PUSH1 0x40 MLOAD PUSH2 0x8E SWAP2 SWAP1 PUSH2 0x4E9 JUMP JUMPDEST PUSH1 0x40 MLOAD DUP1 SWAP2 SUB SWAP1 RETURN JUMPDEST CALLVALUE DUP1 ISZERO PUSH2 0xA3 JUMPI PUSH1 0x0 DUP1 REVERT JUMPDEST POP PUSH2 0xAC PUSH2 0x169 JUMP JUMPDEST PUSH1 0x40 MLOAD PUSH2 0xB9 SWAP2 SWAP1 PUSH2 0x51F JUMP JUMPDEST PUSH1 0x40 MLOAD DUP1 SWAP2 SUB SWAP1 RETURN JUMPDEST CALLVALUE DUP1 ISZERO PUSH2 0xCE JUMPI PUSH1 0x0 DUP1 REVERT JUMPDEST POP PUSH2 0xD7 PUSH2 0x1C0 JUMP JUMPDEST PUSH1 0x40 MLOAD PUSH2 0xE4 SWAP2 SWAP1 PUSH2 0x4E9 JUMP JUMPDEST PUSH1 0x40 MLOAD DUP1 SWAP2 SUB SWAP1 RETURN JUMPDEST PUSH2 0xF5 PUSH2 0x20A JUMP JUMPDEST STOP JUMPDEST CALLVALUE DUP1 ISZERO PUSH2 0x103 JUMPI PUSH1 0x0 DUP1 REVERT JUMPDEST POP PUSH2 0x11E PUSH1 0x4 DUP1 CALLDATASIZE SUB DUP2 ADD SWAP1 PUSH2 0x119 SWAP2 SWAP1 PUSH2 0x566 JUMP JUMPDEST PUSH2 0x265 JUMP JUMPDEST STOP JUMPDEST CALLVALUE DUP1 ISZERO PUSH2 0x12C JUMPI PUSH1 0x0 DUP1 REVERT JUMPDEST POP PUSH2 0x135 PUSH2 0x41C JUMP JUMPDEST PUSH1 0x40 MLOAD PUSH2 0x142 SWAP2 SWAP1 PUSH2 0x5B5 JUMP JUMPDEST PUSH1 0x40 MLOAD DUP1 SWAP2 SUB SWAP1 RETURN JUMPDEST PUSH1 0x1 PUSH1 0x20 MSTORE DUP1 PUSH1 0x0 MSTORE PUSH1 0x40 PUSH1 0x0 KECCAK256 PUSH1 0x0 SWAP2 POP SWAP1 POP DUP1 PUSH1 0x0 ADD SLOAD SWAP1 POP DUP2 JUMP JUMPDEST PUSH1 0x0 DUP1 PUSH1 0x0 SWAP1 SLOAD SWAP1 PUSH2 0x100 EXP SWAP1 DIV PUSH20 0xFFFFFFFFFFFFFFFFFFFFFFFFFFFFFFFFFFFFFFFF AND PUSH20 0xFFFFFFFFFFFFFFFFFFFFFFFFFFFFFFFFFFFFFFFF AND CALLER PUSH20 0xFFFFFFFFFFFFFFFFFFFFFFFFFFFFFFFFFFFFFFFF AND EQ SWAP1 POP SWAP1 JUMP JUMPDEST PUSH1 0x0 PUSH1 0x1 PUSH1 0x0 CALLER PUSH20 0xFFFFFFFFFFFFFFFFFFFFFFFFFFFFFFFFFFFFFFFF AND PUSH20 0xFFFFFFFFFFFFFFFFFFFFFFFFFFFFFFFFFFFFFFFF AND DUP2 MSTORE PUSH1 0x20 ADD SWAP1 DUP2 MSTORE PUSH1 0x20 ADD PUSH1 0x0 KECCAK256 PUSH1 0x0 ADD SLOAD SWAP1 POP SWAP1 JUMP JUMPDEST CALLVALUE PUSH1 0x1 PUSH1 0x0 CALLER PUSH20 0xFFFFFFFFFFFFFFFFFFFFFFFFFFFFFFFFFFFFFFFF AND PUSH20 0xFFFFFFFFFFFFFFFFFFFFFFFFFFFFFFFFFFFFFFFF AND DUP2 MSTORE PUSH1 0x20 ADD SWAP1 DUP2 MSTORE PUSH1 0x20 ADD PUSH1 0x0 KECCAK256 PUSH1 0x0 ADD PUSH1 0x0 DUP3 DUP3 SLOAD PUSH2 0x25C SWAP2 SWAP1 PUSH2 0x5FF JUMP JUMPDEST SWAP3 POP POP DUP2 SWAP1 SSTORE POP JUMP JUMPDEST PUSH1 0x0 DUP1 SLOAD SWAP1 PUSH2 0x100 EXP SWAP1 DIV PUSH20 0xFFFFFFFFFFFFFFFFFFFFFFFFFFFFFFFFFFFFFFFF AND PUSH20 0xFFFFFFFFFFFFFFFFFFFFFFFFFFFFFFFFFFFFFFFF AND CALLER PUSH20 0xFFFFFFFFFFFFFFFFFFFFFFFFFFFFFFFFFFFFFFFF AND EQ PUSH2 0x2F3 JUMPI PUSH1 0x40 MLOAD PUSH32 0x8C379A000000000000000000000000000000000000000000000000000000000 DUP2 MSTORE PUSH1 0x4 ADD PUSH2 0x2EA SWAP1 PUSH2 0x6B6 JUMP JUMPDEST PUSH1 0x40 MLOAD DUP1 SWAP2 SUB SWAP1 REVERT JUMPDEST DUP1 PUSH1 0x1 PUSH1 0x0 DUP5 PUSH20 0xFFFFFFFFFFFFFFFFFFFFFFFFFFFFFFFFFFFFFFFF AND PUSH20 0xFFFFFFFFFFFFFFFFFFFFFFFFFFFFFFFFFFFFFFFF AND DUP2 MSTORE PUSH1 0x20 ADD SWAP1 DUP2 MSTORE PUSH1 0x20 ADD PUSH1 0x0 KECCAK256 PUSH1 0x0 ADD SLOAD LT ISZERO PUSH2 0x378 JUMPI PUSH1 0x40 MLOAD PUSH32 0x8C379A000000000000000000000000000000000000000000000000000000000 DUP2 MSTORE PUSH1 0x4 ADD PUSH2 0x36F SWAP1 PUSH2 0x722 JUMP JUMPDEST PUSH1 0x40 MLOAD DUP1 SWAP2 SUB SWAP1 REVERT JUMPDEST DUP1 PUSH1 0x1 PUSH1 0x0 DUP5 PUSH20 0xFFFFFFFFFFFFFFFFFFFFFFFFFFFFFFFFFFFFFFFF AND PUSH20 0xFFFFFFFFFFFFFFFFFFFFFFFFFFFFFFFFFFFFFFFF AND DUP2 MSTORE PUSH1 0x20 ADD SWAP1 DUP2 MSTORE PUSH1 0x20 ADD PUSH1 0x0 KECCAK256 PUSH1 0x0 ADD PUSH1 0x0 DUP3 DUP3 SLOAD PUSH2 0x3CA SWAP2 SWAP1 PUSH2 0x742 JUMP JUMPDEST SWAP3 POP POP DUP2 SWAP1 SSTORE POP DUP2 PUSH20 0xFFFFFFFFFFFFFFFFFFFFFFFFFFFFFFFFFFFFFFFF AND PUSH2 0x8FC DUP3 SWAP1 DUP2 ISZERO MUL SWAP1 PUSH1 0x40 MLOAD PUSH1 0x0 PUSH1 0x40 MLOAD DUP1 DUP4 SUB DUP2 DUP6 DUP9 DUP9 CALL SWAP4 POP POP POP POP ISZERO DUP1 ISZERO PUSH2 0x417 JUMPI RETURNDATASIZE PUSH1 0x0 DUP1 RETURNDATACOPY RETURNDATASIZE PUSH1 0x0 REVERT JUMPDEST POP POP POP JUMP JUMPDEST PUSH1 0x0 DUP1 SLOAD SWAP1 PUSH2 0x100 EXP SWAP1 DIV PUSH20 0xFFFFFFFFFFFFFFFFFFFFFFFFFFFFFFFFFFFFFFFF AND DUP2 JUMP JUMPDEST PUSH1 0x0 DUP1 REVERT JUMPDEST PUSH1 0x0 PUSH20 0xFFFFFFFFFFFFFFFFFFFFFFFFFFFFFFFFFFFFFFFF DUP3 AND SWAP1 POP SWAP2 SWAP1 POP JUMP JUMPDEST PUSH1 0x0 PUSH2 0x470 DUP3 PUSH2 0x445 JUMP JUMPDEST SWAP1 POP SWAP2 SWAP1 POP JUMP JUMPDEST PUSH2 0x480 DUP2 PUSH2 0x465 JUMP JUMPDEST DUP2 EQ PUSH2 0x48B JUMPI PUSH1 0x0 DUP1 REVERT JUMPDEST POP JUMP JUMPDEST PUSH1 0x0 DUP2 CALLDATALOAD SWAP1 POP PUSH2 0x49D DUP2 PUSH2 0x477 JUMP JUMPDEST SWAP3 SWAP2 POP POP JUMP JUMPDEST PUSH1 0x0 PUSH1 0x20 DUP3 DUP5 SUB SLT ISZERO PUSH2 0x4B9 JUMPI PUSH2 0x4B8 PUSH2 0x440 JUMP JUMPDEST JUMPDEST PUSH1 0x0 PUSH2 0x4C7 DUP5 DUP3 DUP6 ADD PUSH2 0x48E JUMP JUMPDEST SWAP2 POP POP SWAP3 SWAP2 POP POP JUMP JUMPDEST PUSH1 0x0 DUP2 SWAP1 POP SWAP2 SWAP1 POP JUMP JUMPDEST PUSH2 0x4E3 DUP2 PUSH2 0x4D0 JUMP JUMPDEST DUP3 MSTORE POP POP JUMP JUMPDEST PUSH1 0x0 PUSH1 0x20 DUP3 ADD SWAP1 POP PUSH2 0x4FE PUSH1 0x0 DUP4 ADD DUP5 PUSH2 0x4DA JUMP JUMPDEST SWAP3 SWAP2 POP POP JUMP JUMPDEST PUSH1 0x0 DUP2 ISZERO ISZERO SWAP1 POP SWAP2 SWAP1 POP JUMP JUMPDEST PUSH2 0x519 DUP2 PUSH2 0x504 JUMP JUMPDEST DUP3 MSTORE POP POP JUMP JUMPDEST PUSH1 0x0 PUSH1 0x20 DUP3 ADD SWAP1 POP PUSH2 0x534 PUSH1 0x0 DUP4 ADD DUP5 PUSH2 0x510 JUMP JUMPDEST SWAP3 SWAP2 POP POP JUMP JUMPDEST PUSH2 0x543 DUP2 PUSH2 0x4D0 JUMP JUMPDEST DUP2 EQ PUSH2 0x54E JUMPI PUSH1 0x0 DUP1 REVERT JUMPDEST POP JUMP JUMPDEST PUSH1 0x0 DUP2 CALLDATALOAD SWAP1 POP PUSH2 0x560 DUP2 PUSH2 0x53A JUMP JUMPDEST SWAP3 SWAP2 POP POP JUMP JUMPDEST PUSH1 0x0 DUP1 PUSH1 0x40 DUP4 DUP6 SUB SLT ISZERO PUSH2 0x57D JUMPI PUSH2 0x57C PUSH2 0x440 JUMP JUMPDEST JUMPDEST PUSH1 0x0 PUSH2 0x58B DUP6 DUP3 DUP7 ADD PUSH2 0x48E JUMP JUMPDEST SWAP3 POP POP PUSH1 0x20 PUSH2 0x59C DUP6 DUP3 DUP7 ADD PUSH2 0x551 JUMP JUMPDEST SWAP2 POP POP SWAP3 POP SWAP3 SWAP1 POP JUMP JUMPDEST PUSH2 0x5AF DUP2 PUSH2 0x465 JUMP JUMPDEST DUP3 MSTORE POP POP JUMP JUMPDEST PUSH1 0x0 PUSH1 0x20 DUP3 ADD SWAP1 POP PUSH2 0x5CA PUSH1 0x0 DUP4 ADD DUP5 PUSH2 0x5A6 JUMP JUMPDEST SWAP3 SWAP2 POP POP JUMP JUMPDEST PUSH32 0x4E487B7100000000000000000000000000000000000000000000000000000000 PUSH1 0x0 MSTORE PUSH1 0x11 PUSH1 0x4 MSTORE PUSH1 0x24 PUSH1 0x0 REVERT JUMPDEST PUSH1 0x0 PUSH2 0x60A DUP3 PUSH2 0x4D0 JUMP JUMPDEST SWAP2 POP PUSH2 0x615 DUP4 PUSH2 0x4D0 JUMP JUMPDEST SWAP3 POP DUP3 DUP3 ADD SWAP1 POP DUP1 DUP3 GT ISZERO PUSH2 0x62D JUMPI PUSH2 0x62C PUSH2 0x5D0 JUMP JUMPDEST JUMPDEST SWAP3 SWAP2 POP POP JUMP JUMPDEST PUSH1 0x0 DUP3 DUP3 MSTORE PUSH1 0x20 DUP3 ADD SWAP1 POP SWAP3 SWAP2 POP POP JUMP JUMPDEST PUSH32 0x4F6E6C792061646D696E2063616E20706572666F726D20746869732061637469 PUSH1 0x0 DUP3 ADD MSTORE PUSH32 0x6F6E000000000000000000000000000000000000000000000000000000000000 PUSH1 0x20 DUP3 ADD MSTORE POP JUMP JUMPDEST PUSH1 0x0 PUSH2 0x6A0 PUSH1 0x22 DUP4 PUSH2 0x633 JUMP JUMPDEST SWAP2 POP PUSH2 0x6AB DUP3 PUSH2 0x644 JUMP JUMPDEST PUSH1 0x40 DUP3 ADD SWAP1 POP SWAP2 SWAP1 POP JUMP JUMPDEST PUSH1 0x0 PUSH1 0x20 DUP3 ADD SWAP1 POP DUP2 DUP2 SUB PUSH1 0x0 DUP4 ADD MSTORE PUSH2 0x6CF DUP2 PUSH2 0x693 JUMP JUMPDEST SWAP1 POP SWAP2 SWAP1 POP JUMP JUMPDEST PUSH32 0x496E73756666696369656E742062616C616E6365000000000000000000000000 PUSH1 0x0 DUP3 ADD MSTORE POP JUMP JUMPDEST PUSH1 0x0 PUSH2 0x70C PUSH1 0x14 DUP4 PUSH2 0x633 JUMP JUMPDEST SWAP2 POP PUSH2 0x717 DUP3 PUSH2 0x6D6 JUMP JUMPDEST PUSH1 0x20 DUP3 ADD SWAP1 POP SWAP2 SWAP1 POP JUMP JUMPDEST PUSH1 0x0 PUSH1 0x20 DUP3 ADD SWAP1 POP DUP2 DUP2 SUB PUSH1 0x0 DUP4 ADD MSTORE PUSH2 0x73B DUP2 PUSH2 0x6FF JUMP JUMPDEST SWAP1 POP SWAP2 SWAP1 POP JUMP JUMPDEST PUSH1 0x0 PUSH2 0x74D DUP3 PUSH2 0x4D0 JUMP JUMPDEST SWAP2 POP PUSH2 0x758 DUP4 PUSH2 0x4D0 JUMP JUMPDEST SWAP3 POP DUP3 DUP3 SUB SWAP1 POP DUP2 DUP2 GT ISZERO PUSH2 0x770 JUMPI PUSH2 0x76F PUSH2 0x5D0 JUMP JUMPDEST JUMPDEST SWAP3 SWAP2 POP POP JUMP INVALID LOG2 PUSH5 0x6970667358 0x22 SLT KECCAK256 0xA6 0x2F SELFBALANCE 0xD9 SWAP3 PUSH19 0xD2F097749D2732D9D0ACB82B7E63FA1E5811C9 DUP8 0xAA PUSH19 0x2A23532764736F6C6343000812003300000000 "
				},
				"gasEstimates": {
					"creation": {
						"codeDepositCost": "392800",
						"executionCost": "24696",
						"totalCost": "417496"
					},
					"external": {
						"admin()": "2599",
						"checkBalance()": "2554",
						"deposit()": "infinite",
						"isAdmin()": "2496",
						"users(address)": "2806",
						"withdraw(address,uint256)": "infinite"
					}
				},
				"methodIdentifiers": {
					"admin()": "f851a440",
					"checkBalance()": "c71daccb",
					"deposit()": "d0e30db0",
					"isAdmin()": "b6db75a0",
					"users(address)": "a87430ba",
					"withdraw(address,uint256)": "f3fef3a3"
				}
			},
			"storageLayout": {
				"storage": [
					{
						"astId": 3,
						"contract": "admincanaccessbankuserdata.sol:Bank",
						"label": "admin",
						"offset": 0,
						"slot": "0",
						"type": "t_address"
					},
					{
						"astId": 11,
						"contract": "admincanaccessbankuserdata.sol:Bank",
						"label": "users",
						"offset": 0,
						"slot": "1",
						"type": "t_mapping(t_address,t_struct(User)6_storage)"
					}
				],
				"types": {
					"t_address": {
						"encoding": "inplace",
						"label": "address",
						"numberOfBytes": "20"
					},
					"t_mapping(t_address,t_struct(User)6_storage)": {
						"encoding": "mapping",
						"key": "t_address",
						"label": "mapping(address => struct Bank.User)",
						"numberOfBytes": "32",
						"value": "t_struct(User)6_storage"
					},
					"t_struct(User)6_storage": {
						"encoding": "inplace",
						"label": "struct Bank.User",
						"members": [
							{
								"astId": 5,
								"contract": "admincanaccessbankuserdata.sol:Bank",
								"label": "balance",
								"offset": 0,
								"slot": "0",
								"type": "t_uint256"
							}
						],
						"numberOfBytes": "32"
					},
					"t_uint256": {
						"encoding": "inplace",
						"label": "uint256",
						"numberOfBytes": "32"
					}
				}
			},
			"userdoc": {
				"kind": "user",
				"methods": {},
				"version": 1
			}
		}
	}
}