{
	"inheritance3.sol": {
		"batch": {
			"abi": [
				{
					"inputs": [
						{
							"internalType": "uint256",
							"name": "",
							"type": "uint256"
						}
					],
					"name": "data",
					"outputs": [
						{
							"internalType": "uint256",
							"name": "roll",
							"type": "uint256"
						},
						{
							"internalType": "string",
							"name": "name",
							"type": "string"
						},
						{
							"internalType": "string",
							"name": "father_name",
							"type": "string"
						},
						{
							"internalType": "uint256",
							"name": "class",
							"type": "uint256"
						}
					],
					"stateMutability": "view",
					"type": "function"
				},
				{
					"inputs": [
						{
							"internalType": "uint256",
							"name": "",
							"type": "uint256"
						}
					],
					"name": "regNo",
					"outputs": [
						{
							"internalType": "uint256",
							"name": "",
							"type": "uint256"
						}
					],
					"stateMutability": "view",
					"type": "function"
				},
				{
					"inputs": [
						{
							"internalType": "uint256",
							"name": "_roll",
							"type": "uint256"
						},
						{
							"internalType": "string",
							"name": "_name",
							"type": "string"
						},
						{
							"internalType": "string",
							"name": "father_name",
							"type": "string"
						},
						{
							"internalType": "uint256",
							"name": "_class",
							"type": "uint256"
						},
						{
							"internalType": "uint256",
							"name": "_regNo",
							"type": "uint256"
						}
					],
					"name": "setter",
					"outputs": [],
					"stateMutability": "nonpayable",
					"type": "function"
				}
			],
			"devdoc": {
				"kind": "dev",
				"methods": {},
				"version": 1
			},
			"evm": {
				"assembly": "    /* \"inheritance3.sol\":221:553  contract batch is studentrecord {... */\n  mstore(0x40, 0x80)\n  callvalue\n  dup1\n  iszero\n  tag_1\n  jumpi\n  0x00\n  dup1\n  revert\ntag_1:\n  pop\n  dataSize(sub_0)\n  dup1\n  dataOffset(sub_0)\n  0x00\n  codecopy\n  0x00\n  return\nstop\n\nsub_0: assembly {\n        /* \"inheritance3.sol\":221:553  contract batch is studentrecord {... */\n      mstore(0x40, 0x80)\n      callvalue\n      dup1\n      iszero\n      tag_1\n      jumpi\n      0x00\n      dup1\n      revert\n    tag_1:\n      pop\n      jumpi(tag_2, lt(calldatasize, 0x04))\n      shr(0xe0, calldataload(0x00))\n      dup1\n      0x5a9e21de\n      eq\n      tag_3\n      jumpi\n      dup1\n      0xae71af65\n      eq\n      tag_4\n      jumpi\n      dup1\n      0xf0ba8440\n      eq\n      tag_5\n      jumpi\n    tag_2:\n      0x00\n      dup1\n      revert\n        /* \"inheritance3.sol\":335:544  function setter(uint _roll,string memory _name,string memory father_name,uint _class,uint _regNo)public ... */\n    tag_3:\n      tag_6\n      0x04\n      dup1\n      calldatasize\n      sub\n      dup2\n      add\n      swap1\n      tag_7\n      swap2\n      swap1\n      tag_8\n      jump\t// in\n    tag_7:\n      tag_9\n      jump\t// in\n    tag_6:\n      stop\n        /* \"inheritance3.sol\":260:282  uint256[] public regNo */\n    tag_4:\n      tag_10\n      0x04\n      dup1\n      calldatasize\n      sub\n      dup2\n      add\n      swap1\n      tag_11\n      swap2\n      swap1\n      tag_12\n      jump\t// in\n    tag_11:\n      tag_13\n      jump\t// in\n    tag_10:\n      mload(0x40)\n      tag_14\n      swap2\n      swap1\n      tag_15\n      jump\t// in\n    tag_14:\n      mload(0x40)\n      dup1\n      swap2\n      sub\n      swap1\n      return\n        /* \"inheritance3.sol\":293:326  mapping(uint=>student)public data */\n    tag_5:\n      tag_16\n      0x04\n      dup1\n      calldatasize\n      sub\n      dup2\n      add\n      swap1\n      tag_17\n      swap2\n      swap1\n      tag_12\n      jump\t// in\n    tag_17:\n      tag_18\n      jump\t// in\n    tag_16:\n      mload(0x40)\n      tag_19\n      swap5\n      swap4\n      swap3\n      swap2\n      swap1\n      tag_20\n      jump\t// in\n    tag_19:\n      mload(0x40)\n      dup1\n      swap2\n      sub\n      swap1\n      return\n        /* \"inheritance3.sol\":335:544  function setter(uint _roll,string memory _name,string memory father_name,uint _class,uint _regNo)public ... */\n    tag_9:\n        /* \"inheritance3.sol\":469:508  student(_roll,_name,father_name,_class) */\n      mload(0x40)\n      dup1\n      0x80\n      add\n      0x40\n      mstore\n      dup1\n        /* \"inheritance3.sol\":477:482  _roll */\n      dup7\n        /* \"inheritance3.sol\":469:508  student(_roll,_name,father_name,_class) */\n      dup2\n      mstore\n      0x20\n      add\n        /* \"inheritance3.sol\":483:488  _name */\n      dup6\n        /* \"inheritance3.sol\":469:508  student(_roll,_name,father_name,_class) */\n      dup2\n      mstore\n      0x20\n      add\n        /* \"inheritance3.sol\":489:500  father_name */\n      dup5\n        /* \"inheritance3.sol\":469:508  student(_roll,_name,father_name,_class) */\n      dup2\n      mstore\n      0x20\n      add\n        /* \"inheritance3.sol\":501:507  _class */\n      dup4\n        /* \"inheritance3.sol\":469:508  student(_roll,_name,father_name,_class) */\n      dup2\n      mstore\n      pop\n        /* \"inheritance3.sol\":456:460  data */\n      0x01\n        /* \"inheritance3.sol\":456:467  data[_roll] */\n      0x00\n        /* \"inheritance3.sol\":461:466  _roll */\n      dup8\n        /* \"inheritance3.sol\":456:467  data[_roll] */\n      dup2\n      mstore\n      0x20\n      add\n      swap1\n      dup2\n      mstore\n      0x20\n      add\n      0x00\n      keccak256\n        /* \"inheritance3.sol\":456:508  data[_roll]= student(_roll,_name,father_name,_class) */\n      0x00\n      dup3\n      add\n      mload\n      dup2\n      0x00\n      add\n      sstore\n      0x20\n      dup3\n      add\n      mload\n      dup2\n      0x01\n      add\n      swap1\n      dup2\n      tag_22\n      swap2\n      swap1\n      tag_23\n      jump\t// in\n    tag_22:\n      pop\n      0x40\n      dup3\n      add\n      mload\n      dup2\n      0x02\n      add\n      swap1\n      dup2\n      tag_24\n      swap2\n      swap1\n      tag_23\n      jump\t// in\n    tag_24:\n      pop\n      0x60\n      dup3\n      add\n      mload\n      dup2\n      0x03\n      add\n      sstore\n      swap1\n      pop\n      pop\n        /* \"inheritance3.sol\":519:524  regNo */\n      0x00\n        /* \"inheritance3.sol\":530:535  _roll */\n      dup6\n        /* \"inheritance3.sol\":519:536  regNo.push(_roll) */\n      swap1\n      dup1\n      0x01\n      dup2\n      sload\n      add\n      dup1\n      dup3\n      sstore\n      dup1\n      swap2\n      pop\n      pop\n      0x01\n      swap1\n      sub\n      swap1\n      0x00\n      mstore\n      keccak256(0x00, 0x20)\n      add\n      0x00\n      swap1\n      swap2\n      swap1\n      swap2\n      swap1\n      swap2\n      pop\n      sstore\n        /* \"inheritance3.sol\":335:544  function setter(uint _roll,string memory _name,string memory father_name,uint _class,uint _regNo)public ... */\n      pop\n      pop\n      pop\n      pop\n      pop\n      jump\t// out\n        /* \"inheritance3.sol\":260:282  uint256[] public regNo */\n    tag_13:\n      0x00\n      dup2\n      dup2\n      sload\n      dup2\n      lt\n      tag_26\n      jumpi\n      0x00\n      dup1\n      revert\n    tag_26:\n      swap1\n      0x00\n      mstore\n      keccak256(0x00, 0x20)\n      add\n      0x00\n      swap2\n      pop\n      swap1\n      pop\n      sload\n      dup2\n      jump\t// out\n        /* \"inheritance3.sol\":293:326  mapping(uint=>student)public data */\n    tag_18:\n      mstore(0x20, 0x01)\n      dup1\n      0x00\n      mstore\n      keccak256(0x00, 0x40)\n      0x00\n      swap2\n      pop\n      swap1\n      pop\n      dup1\n      0x00\n      add\n      sload\n      swap1\n      dup1\n      0x01\n      add\n      dup1\n      sload\n      tag_28\n      swap1\n      tag_29\n      jump\t// in\n    tag_28:\n      dup1\n      0x1f\n      add\n      0x20\n      dup1\n      swap2\n      div\n      mul\n      0x20\n      add\n      mload(0x40)\n      swap1\n      dup2\n      add\n      0x40\n      mstore\n      dup1\n      swap3\n      swap2\n      swap1\n      dup2\n      dup2\n      mstore\n      0x20\n      add\n      dup3\n      dup1\n      sload\n      tag_30\n      swap1\n      tag_29\n      jump\t// in\n    tag_30:\n      dup1\n      iszero\n      tag_31\n      jumpi\n      dup1\n      0x1f\n      lt\n      tag_32\n      jumpi\n      0x0100\n      dup1\n      dup4\n      sload\n      div\n      mul\n      dup4\n      mstore\n      swap2\n      0x20\n      add\n      swap2\n      jump(tag_31)\n    tag_32:\n      dup3\n      add\n      swap2\n      swap1\n      0x00\n      mstore\n      keccak256(0x00, 0x20)\n      swap1\n    tag_33:\n      dup2\n      sload\n      dup2\n      mstore\n      swap1\n      0x01\n      add\n      swap1\n      0x20\n      add\n      dup1\n      dup4\n      gt\n      tag_33\n      jumpi\n      dup3\n      swap1\n      sub\n      0x1f\n      and\n      dup3\n      add\n      swap2\n    tag_31:\n      pop\n      pop\n      pop\n      pop\n      pop\n      swap1\n      dup1\n      0x02\n      add\n      dup1\n      sload\n      tag_34\n      swap1\n      tag_29\n      jump\t// in\n    tag_34:\n      dup1\n      0x1f\n      add\n      0x20\n      dup1\n      swap2\n      div\n      mul\n      0x20\n      add\n      mload(0x40)\n      swap1\n      dup2\n      add\n      0x40\n      mstore\n      dup1\n      swap3\n      swap2\n      swap1\n      dup2\n      dup2\n      mstore\n      0x20\n      add\n      dup3\n      dup1\n      sload\n      tag_35\n      swap1\n      tag_29\n      jump\t// in\n    tag_35:\n      dup1\n      iszero\n      tag_36\n      jumpi\n      dup1\n      0x1f\n      lt\n      tag_37\n      jumpi\n      0x0100\n      dup1\n      dup4\n      sload\n      div\n      mul\n      dup4\n      mstore\n      swap2\n      0x20\n      add\n      swap2\n      jump(tag_36)\n    tag_37:\n      dup3\n      add\n      swap2\n      swap1\n      0x00\n      mstore\n      keccak256(0x00, 0x20)\n      swap1\n    tag_38:\n      dup2\n      sload\n      dup2\n      mstore\n      swap1\n      0x01\n      add\n      swap1\n      0x20\n      add\n      dup1\n      dup4\n      gt\n      tag_38\n      jumpi\n      dup3\n      swap1\n      sub\n      0x1f\n      and\n      dup3\n      add\n      swap2\n    tag_36:\n      pop\n      pop\n      pop\n      pop\n      pop\n      swap1\n      dup1\n      0x03\n      add\n      sload\n      swap1\n      pop\n      dup5\n      jump\t// out\n        /* \"#utility.yul\":7:82   */\n    tag_39:\n        /* \"#utility.yul\":40:46   */\n      0x00\n        /* \"#utility.yul\":73:75   */\n      0x40\n        /* \"#utility.yul\":67:76   */\n      mload\n        /* \"#utility.yul\":57:76   */\n      swap1\n      pop\n        /* \"#utility.yul\":7:82   */\n      swap1\n      jump\t// out\n        /* \"#utility.yul\":88:205   */\n    tag_40:\n        /* \"#utility.yul\":197:198   */\n      0x00\n        /* \"#utility.yul\":194:195   */\n      dup1\n        /* \"#utility.yul\":187:199   */\n      revert\n        /* \"#utility.yul\":211:328   */\n    tag_41:\n        /* \"#utility.yul\":320:321   */\n      0x00\n        /* \"#utility.yul\":317:318   */\n      dup1\n        /* \"#utility.yul\":310:322   */\n      revert\n        /* \"#utility.yul\":334:411   */\n    tag_42:\n        /* \"#utility.yul\":371:378   */\n      0x00\n        /* \"#utility.yul\":400:405   */\n      dup2\n        /* \"#utility.yul\":389:405   */\n      swap1\n      pop\n        /* \"#utility.yul\":334:411   */\n      swap2\n      swap1\n      pop\n      jump\t// out\n        /* \"#utility.yul\":417:539   */\n    tag_43:\n        /* \"#utility.yul\":490:514   */\n      tag_82\n        /* \"#utility.yul\":508:513   */\n      dup2\n        /* \"#utility.yul\":490:514   */\n      tag_42\n      jump\t// in\n    tag_82:\n        /* \"#utility.yul\":483:488   */\n      dup2\n        /* \"#utility.yul\":480:515   */\n      eq\n        /* \"#utility.yul\":470:533   */\n      tag_83\n      jumpi\n        /* \"#utility.yul\":529:530   */\n      0x00\n        /* \"#utility.yul\":526:527   */\n      dup1\n        /* \"#utility.yul\":519:531   */\n      revert\n        /* \"#utility.yul\":470:533   */\n    tag_83:\n        /* \"#utility.yul\":417:539   */\n      pop\n      jump\t// out\n        /* \"#utility.yul\":545:684   */\n    tag_44:\n        /* \"#utility.yul\":591:596   */\n      0x00\n        /* \"#utility.yul\":629:635   */\n      dup2\n        /* \"#utility.yul\":616:636   */\n      calldataload\n        /* \"#utility.yul\":607:636   */\n      swap1\n      pop\n        /* \"#utility.yul\":645:678   */\n      tag_85\n        /* \"#utility.yul\":672:677   */\n      dup2\n        /* \"#utility.yul\":645:678   */\n      tag_43\n      jump\t// in\n    tag_85:\n        /* \"#utility.yul\":545:684   */\n      swap3\n      swap2\n      pop\n      pop\n      jump\t// out\n        /* \"#utility.yul\":690:807   */\n    tag_45:\n        /* \"#utility.yul\":799:800   */\n      0x00\n        /* \"#utility.yul\":796:797   */\n      dup1\n        /* \"#utility.yul\":789:801   */\n      revert\n        /* \"#utility.yul\":813:930   */\n    tag_46:\n        /* \"#utility.yul\":922:923   */\n      0x00\n        /* \"#utility.yul\":919:920   */\n      dup1\n        /* \"#utility.yul\":912:924   */\n      revert\n        /* \"#utility.yul\":936:1038   */\n    tag_47:\n        /* \"#utility.yul\":977:983   */\n      0x00\n        /* \"#utility.yul\":1028:1030   */\n      0x1f\n        /* \"#utility.yul\":1024:1031   */\n      not\n        /* \"#utility.yul\":1019:1021   */\n      0x1f\n        /* \"#utility.yul\":1012:1017   */\n      dup4\n        /* \"#utility.yul\":1008:1022   */\n      add\n        /* \"#utility.yul\":1004:1032   */\n      and\n        /* \"#utility.yul\":994:1032   */\n      swap1\n      pop\n        /* \"#utility.yul\":936:1038   */\n      swap2\n      swap1\n      pop\n      jump\t// out\n        /* \"#utility.yul\":1044:1224   */\n    tag_48:\n        /* \"#utility.yul\":1092:1169   */\n      0x4e487b7100000000000000000000000000000000000000000000000000000000\n        /* \"#utility.yul\":1089:1090   */\n      0x00\n        /* \"#utility.yul\":1082:1170   */\n      mstore\n        /* \"#utility.yul\":1189:1193   */\n      0x41\n        /* \"#utility.yul\":1186:1187   */\n      0x04\n        /* \"#utility.yul\":1179:1194   */\n      mstore\n        /* \"#utility.yul\":1213:1217   */\n      0x24\n        /* \"#utility.yul\":1210:1211   */\n      0x00\n        /* \"#utility.yul\":1203:1218   */\n      revert\n        /* \"#utility.yul\":1230:1511   */\n    tag_49:\n        /* \"#utility.yul\":1313:1340   */\n      tag_91\n        /* \"#utility.yul\":1335:1339   */\n      dup3\n        /* \"#utility.yul\":1313:1340   */\n      tag_47\n      jump\t// in\n    tag_91:\n        /* \"#utility.yul\":1305:1311   */\n      dup2\n        /* \"#utility.yul\":1301:1341   */\n      add\n        /* \"#utility.yul\":1443:1449   */\n      dup2\n        /* \"#utility.yul\":1431:1441   */\n      dup2\n        /* \"#utility.yul\":1428:1450   */\n      lt\n        /* \"#utility.yul\":1407:1425   */\n      0xffffffffffffffff\n        /* \"#utility.yul\":1395:1405   */\n      dup3\n        /* \"#utility.yul\":1392:1426   */\n      gt\n        /* \"#utility.yul\":1389:1451   */\n      or\n        /* \"#utility.yul\":1386:1474   */\n      iszero\n      tag_92\n      jumpi\n        /* \"#utility.yul\":1454:1472   */\n      tag_93\n      tag_48\n      jump\t// in\n    tag_93:\n        /* \"#utility.yul\":1386:1474   */\n    tag_92:\n        /* \"#utility.yul\":1494:1504   */\n      dup1\n        /* \"#utility.yul\":1490:1492   */\n      0x40\n        /* \"#utility.yul\":1483:1505   */\n      mstore\n        /* \"#utility.yul\":1273:1511   */\n      pop\n        /* \"#utility.yul\":1230:1511   */\n      pop\n      pop\n      jump\t// out\n        /* \"#utility.yul\":1517:1646   */\n    tag_50:\n        /* \"#utility.yul\":1551:1557   */\n      0x00\n        /* \"#utility.yul\":1578:1598   */\n      tag_95\n      tag_39\n      jump\t// in\n    tag_95:\n        /* \"#utility.yul\":1568:1598   */\n      swap1\n      pop\n        /* \"#utility.yul\":1607:1640   */\n      tag_96\n        /* \"#utility.yul\":1635:1639   */\n      dup3\n        /* \"#utility.yul\":1627:1633   */\n      dup3\n        /* \"#utility.yul\":1607:1640   */\n      tag_49\n      jump\t// in\n    tag_96:\n        /* \"#utility.yul\":1517:1646   */\n      swap2\n      swap1\n      pop\n      jump\t// out\n        /* \"#utility.yul\":1652:1960   */\n    tag_51:\n        /* \"#utility.yul\":1714:1718   */\n      0x00\n        /* \"#utility.yul\":1804:1822   */\n      0xffffffffffffffff\n        /* \"#utility.yul\":1796:1802   */\n      dup3\n        /* \"#utility.yul\":1793:1823   */\n      gt\n        /* \"#utility.yul\":1790:1846   */\n      iszero\n      tag_98\n      jumpi\n        /* \"#utility.yul\":1826:1844   */\n      tag_99\n      tag_48\n      jump\t// in\n    tag_99:\n        /* \"#utility.yul\":1790:1846   */\n    tag_98:\n        /* \"#utility.yul\":1864:1893   */\n      tag_100\n        /* \"#utility.yul\":1886:1892   */\n      dup3\n        /* \"#utility.yul\":1864:1893   */\n      tag_47\n      jump\t// in\n    tag_100:\n        /* \"#utility.yul\":1856:1893   */\n      swap1\n      pop\n        /* \"#utility.yul\":1948:1952   */\n      0x20\n        /* \"#utility.yul\":1942:1946   */\n      dup2\n        /* \"#utility.yul\":1938:1953   */\n      add\n        /* \"#utility.yul\":1930:1953   */\n      swap1\n      pop\n        /* \"#utility.yul\":1652:1960   */\n      swap2\n      swap1\n      pop\n      jump\t// out\n        /* \"#utility.yul\":1966:2112   */\n    tag_52:\n        /* \"#utility.yul\":2063:2069   */\n      dup3\n        /* \"#utility.yul\":2058:2061   */\n      dup2\n        /* \"#utility.yul\":2053:2056   */\n      dup4\n        /* \"#utility.yul\":2040:2070   */\n      calldatacopy\n        /* \"#utility.yul\":2104:2105   */\n      0x00\n        /* \"#utility.yul\":2095:2101   */\n      dup4\n        /* \"#utility.yul\":2090:2093   */\n      dup4\n        /* \"#utility.yul\":2086:2102   */\n      add\n        /* \"#utility.yul\":2079:2106   */\n      mstore\n        /* \"#utility.yul\":1966:2112   */\n      pop\n      pop\n      pop\n      jump\t// out\n        /* \"#utility.yul\":2118:2543   */\n    tag_53:\n        /* \"#utility.yul\":2196:2201   */\n      0x00\n        /* \"#utility.yul\":2221:2287   */\n      tag_103\n        /* \"#utility.yul\":2237:2286   */\n      tag_104\n        /* \"#utility.yul\":2279:2285   */\n      dup5\n        /* \"#utility.yul\":2237:2286   */\n      tag_51\n      jump\t// in\n    tag_104:\n        /* \"#utility.yul\":2221:2287   */\n      tag_50\n      jump\t// in\n    tag_103:\n        /* \"#utility.yul\":2212:2287   */\n      swap1\n      pop\n        /* \"#utility.yul\":2310:2316   */\n      dup3\n        /* \"#utility.yul\":2303:2308   */\n      dup2\n        /* \"#utility.yul\":2296:2317   */\n      mstore\n        /* \"#utility.yul\":2348:2352   */\n      0x20\n        /* \"#utility.yul\":2341:2346   */\n      dup2\n        /* \"#utility.yul\":2337:2353   */\n      add\n        /* \"#utility.yul\":2386:2389   */\n      dup5\n        /* \"#utility.yul\":2377:2383   */\n      dup5\n        /* \"#utility.yul\":2372:2375   */\n      dup5\n        /* \"#utility.yul\":2368:2384   */\n      add\n        /* \"#utility.yul\":2365:2390   */\n      gt\n        /* \"#utility.yul\":2362:2474   */\n      iszero\n      tag_105\n      jumpi\n        /* \"#utility.yul\":2393:2472   */\n      tag_106\n      tag_46\n      jump\t// in\n    tag_106:\n        /* \"#utility.yul\":2362:2474   */\n    tag_105:\n        /* \"#utility.yul\":2483:2537   */\n      tag_107\n        /* \"#utility.yul\":2530:2536   */\n      dup5\n        /* \"#utility.yul\":2525:2528   */\n      dup3\n        /* \"#utility.yul\":2520:2523   */\n      dup6\n        /* \"#utility.yul\":2483:2537   */\n      tag_52\n      jump\t// in\n    tag_107:\n        /* \"#utility.yul\":2202:2543   */\n      pop\n        /* \"#utility.yul\":2118:2543   */\n      swap4\n      swap3\n      pop\n      pop\n      pop\n      jump\t// out\n        /* \"#utility.yul\":2563:2903   */\n    tag_54:\n        /* \"#utility.yul\":2619:2624   */\n      0x00\n        /* \"#utility.yul\":2668:2671   */\n      dup3\n        /* \"#utility.yul\":2661:2665   */\n      0x1f\n        /* \"#utility.yul\":2653:2659   */\n      dup4\n        /* \"#utility.yul\":2649:2666   */\n      add\n        /* \"#utility.yul\":2645:2672   */\n      slt\n        /* \"#utility.yul\":2635:2757   */\n      tag_109\n      jumpi\n        /* \"#utility.yul\":2676:2755   */\n      tag_110\n      tag_45\n      jump\t// in\n    tag_110:\n        /* \"#utility.yul\":2635:2757   */\n    tag_109:\n        /* \"#utility.yul\":2793:2799   */\n      dup2\n        /* \"#utility.yul\":2780:2800   */\n      calldataload\n        /* \"#utility.yul\":2818:2897   */\n      tag_111\n        /* \"#utility.yul\":2893:2896   */\n      dup5\n        /* \"#utility.yul\":2885:2891   */\n      dup3\n        /* \"#utility.yul\":2878:2882   */\n      0x20\n        /* \"#utility.yul\":2870:2876   */\n      dup7\n        /* \"#utility.yul\":2866:2883   */\n      add\n        /* \"#utility.yul\":2818:2897   */\n      tag_53\n      jump\t// in\n    tag_111:\n        /* \"#utility.yul\":2809:2897   */\n      swap2\n      pop\n        /* \"#utility.yul\":2625:2903   */\n      pop\n        /* \"#utility.yul\":2563:2903   */\n      swap3\n      swap2\n      pop\n      pop\n      jump\t// out\n        /* \"#utility.yul\":2909:4180   */\n    tag_8:\n        /* \"#utility.yul\":3024:3030   */\n      0x00\n        /* \"#utility.yul\":3032:3038   */\n      dup1\n        /* \"#utility.yul\":3040:3046   */\n      0x00\n        /* \"#utility.yul\":3048:3054   */\n      dup1\n        /* \"#utility.yul\":3056:3062   */\n      0x00\n        /* \"#utility.yul\":3105:3108   */\n      0xa0\n        /* \"#utility.yul\":3093:3102   */\n      dup7\n        /* \"#utility.yul\":3084:3091   */\n      dup9\n        /* \"#utility.yul\":3080:3103   */\n      sub\n        /* \"#utility.yul\":3076:3109   */\n      slt\n        /* \"#utility.yul\":3073:3193   */\n      iszero\n      tag_113\n      jumpi\n        /* \"#utility.yul\":3112:3191   */\n      tag_114\n      tag_40\n      jump\t// in\n    tag_114:\n        /* \"#utility.yul\":3073:3193   */\n    tag_113:\n        /* \"#utility.yul\":3232:3233   */\n      0x00\n        /* \"#utility.yul\":3257:3310   */\n      tag_115\n        /* \"#utility.yul\":3302:3309   */\n      dup9\n        /* \"#utility.yul\":3293:3299   */\n      dup3\n        /* \"#utility.yul\":3282:3291   */\n      dup10\n        /* \"#utility.yul\":3278:3300   */\n      add\n        /* \"#utility.yul\":3257:3310   */\n      tag_44\n      jump\t// in\n    tag_115:\n        /* \"#utility.yul\":3247:3310   */\n      swap6\n      pop\n        /* \"#utility.yul\":3203:3320   */\n      pop\n        /* \"#utility.yul\":3387:3389   */\n      0x20\n        /* \"#utility.yul\":3376:3385   */\n      dup7\n        /* \"#utility.yul\":3372:3390   */\n      add\n        /* \"#utility.yul\":3359:3391   */\n      calldataload\n        /* \"#utility.yul\":3418:3436   */\n      0xffffffffffffffff\n        /* \"#utility.yul\":3410:3416   */\n      dup2\n        /* \"#utility.yul\":3407:3437   */\n      gt\n        /* \"#utility.yul\":3404:3521   */\n      iszero\n      tag_116\n      jumpi\n        /* \"#utility.yul\":3440:3519   */\n      tag_117\n      tag_41\n      jump\t// in\n    tag_117:\n        /* \"#utility.yul\":3404:3521   */\n    tag_116:\n        /* \"#utility.yul\":3545:3608   */\n      tag_118\n        /* \"#utility.yul\":3600:3607   */\n      dup9\n        /* \"#utility.yul\":3591:3597   */\n      dup3\n        /* \"#utility.yul\":3580:3589   */\n      dup10\n        /* \"#utility.yul\":3576:3598   */\n      add\n        /* \"#utility.yul\":3545:3608   */\n      tag_54\n      jump\t// in\n    tag_118:\n        /* \"#utility.yul\":3535:3608   */\n      swap5\n      pop\n        /* \"#utility.yul\":3330:3618   */\n      pop\n        /* \"#utility.yul\":3685:3687   */\n      0x40\n        /* \"#utility.yul\":3674:3683   */\n      dup7\n        /* \"#utility.yul\":3670:3688   */\n      add\n        /* \"#utility.yul\":3657:3689   */\n      calldataload\n        /* \"#utility.yul\":3716:3734   */\n      0xffffffffffffffff\n        /* \"#utility.yul\":3708:3714   */\n      dup2\n        /* \"#utility.yul\":3705:3735   */\n      gt\n        /* \"#utility.yul\":3702:3819   */\n      iszero\n      tag_119\n      jumpi\n        /* \"#utility.yul\":3738:3817   */\n      tag_120\n      tag_41\n      jump\t// in\n    tag_120:\n        /* \"#utility.yul\":3702:3819   */\n    tag_119:\n        /* \"#utility.yul\":3843:3906   */\n      tag_121\n        /* \"#utility.yul\":3898:3905   */\n      dup9\n        /* \"#utility.yul\":3889:3895   */\n      dup3\n        /* \"#utility.yul\":3878:3887   */\n      dup10\n        /* \"#utility.yul\":3874:3896   */\n      add\n        /* \"#utility.yul\":3843:3906   */\n      tag_54\n      jump\t// in\n    tag_121:\n        /* \"#utility.yul\":3833:3906   */\n      swap4\n      pop\n        /* \"#utility.yul\":3628:3916   */\n      pop\n        /* \"#utility.yul\":3955:3957   */\n      0x60\n        /* \"#utility.yul\":3981:4034   */\n      tag_122\n        /* \"#utility.yul\":4026:4033   */\n      dup9\n        /* \"#utility.yul\":4017:4023   */\n      dup3\n        /* \"#utility.yul\":4006:4015   */\n      dup10\n        /* \"#utility.yul\":4002:4024   */\n      add\n        /* \"#utility.yul\":3981:4034   */\n      tag_44\n      jump\t// in\n    tag_122:\n        /* \"#utility.yul\":3971:4034   */\n      swap3\n      pop\n        /* \"#utility.yul\":3926:4044   */\n      pop\n        /* \"#utility.yul\":4083:4086   */\n      0x80\n        /* \"#utility.yul\":4110:4163   */\n      tag_123\n        /* \"#utility.yul\":4155:4162   */\n      dup9\n        /* \"#utility.yul\":4146:4152   */\n      dup3\n        /* \"#utility.yul\":4135:4144   */\n      dup10\n        /* \"#utility.yul\":4131:4153   */\n      add\n        /* \"#utility.yul\":4110:4163   */\n      tag_44\n      jump\t// in\n    tag_123:\n        /* \"#utility.yul\":4100:4163   */\n      swap2\n      pop\n        /* \"#utility.yul\":4054:4173   */\n      pop\n        /* \"#utility.yul\":2909:4180   */\n      swap3\n      swap6\n      pop\n      swap3\n      swap6\n      swap1\n      swap4\n      pop\n      jump\t// out\n        /* \"#utility.yul\":4186:4515   */\n    tag_12:\n        /* \"#utility.yul\":4245:4251   */\n      0x00\n        /* \"#utility.yul\":4294:4296   */\n      0x20\n        /* \"#utility.yul\":4282:4291   */\n      dup3\n        /* \"#utility.yul\":4273:4280   */\n      dup5\n        /* \"#utility.yul\":4269:4292   */\n      sub\n        /* \"#utility.yul\":4265:4297   */\n      slt\n        /* \"#utility.yul\":4262:4381   */\n      iszero\n      tag_125\n      jumpi\n        /* \"#utility.yul\":4300:4379   */\n      tag_126\n      tag_40\n      jump\t// in\n    tag_126:\n        /* \"#utility.yul\":4262:4381   */\n    tag_125:\n        /* \"#utility.yul\":4420:4421   */\n      0x00\n        /* \"#utility.yul\":4445:4498   */\n      tag_127\n        /* \"#utility.yul\":4490:4497   */\n      dup5\n        /* \"#utility.yul\":4481:4487   */\n      dup3\n        /* \"#utility.yul\":4470:4479   */\n      dup6\n        /* \"#utility.yul\":4466:4488   */\n      add\n        /* \"#utility.yul\":4445:4498   */\n      tag_44\n      jump\t// in\n    tag_127:\n        /* \"#utility.yul\":4435:4498   */\n      swap2\n      pop\n        /* \"#utility.yul\":4391:4508   */\n      pop\n        /* \"#utility.yul\":4186:4515   */\n      swap3\n      swap2\n      pop\n      pop\n      jump\t// out\n        /* \"#utility.yul\":4521:4639   */\n    tag_55:\n        /* \"#utility.yul\":4608:4632   */\n      tag_129\n        /* \"#utility.yul\":4626:4631   */\n      dup2\n        /* \"#utility.yul\":4608:4632   */\n      tag_42\n      jump\t// in\n    tag_129:\n        /* \"#utility.yul\":4603:4606   */\n      dup3\n        /* \"#utility.yul\":4596:4633   */\n      mstore\n        /* \"#utility.yul\":4521:4639   */\n      pop\n      pop\n      jump\t// out\n        /* \"#utility.yul\":4645:4867   */\n    tag_15:\n        /* \"#utility.yul\":4738:4742   */\n      0x00\n        /* \"#utility.yul\":4776:4778   */\n      0x20\n        /* \"#utility.yul\":4765:4774   */\n      dup3\n        /* \"#utility.yul\":4761:4779   */\n      add\n        /* \"#utility.yul\":4753:4779   */\n      swap1\n      pop\n        /* \"#utility.yul\":4789:4860   */\n      tag_131\n        /* \"#utility.yul\":4857:4858   */\n      0x00\n        /* \"#utility.yul\":4846:4855   */\n      dup4\n        /* \"#utility.yul\":4842:4859   */\n      add\n        /* \"#utility.yul\":4833:4839   */\n      dup5\n        /* \"#utility.yul\":4789:4860   */\n      tag_55\n      jump\t// in\n    tag_131:\n        /* \"#utility.yul\":4645:4867   */\n      swap3\n      swap2\n      pop\n      pop\n      jump\t// out\n        /* \"#utility.yul\":4873:4972   */\n    tag_56:\n        /* \"#utility.yul\":4925:4931   */\n      0x00\n        /* \"#utility.yul\":4959:4964   */\n      dup2\n        /* \"#utility.yul\":4953:4965   */\n      mload\n        /* \"#utility.yul\":4943:4965   */\n      swap1\n      pop\n        /* \"#utility.yul\":4873:4972   */\n      swap2\n      swap1\n      pop\n      jump\t// out\n        /* \"#utility.yul\":4978:5147   */\n    tag_57:\n        /* \"#utility.yul\":5062:5073   */\n      0x00\n        /* \"#utility.yul\":5096:5102   */\n      dup3\n        /* \"#utility.yul\":5091:5094   */\n      dup3\n        /* \"#utility.yul\":5084:5103   */\n      mstore\n        /* \"#utility.yul\":5136:5140   */\n      0x20\n        /* \"#utility.yul\":5131:5134   */\n      dup3\n        /* \"#utility.yul\":5127:5141   */\n      add\n        /* \"#utility.yul\":5112:5141   */\n      swap1\n      pop\n        /* \"#utility.yul\":4978:5147   */\n      swap3\n      swap2\n      pop\n      pop\n      jump\t// out\n        /* \"#utility.yul\":5153:5399   */\n    tag_58:\n        /* \"#utility.yul\":5234:5235   */\n      0x00\n        /* \"#utility.yul\":5244:5357   */\n    tag_135:\n        /* \"#utility.yul\":5258:5264   */\n      dup4\n        /* \"#utility.yul\":5255:5256   */\n      dup2\n        /* \"#utility.yul\":5252:5265   */\n      lt\n        /* \"#utility.yul\":5244:5357   */\n      iszero\n      tag_137\n      jumpi\n        /* \"#utility.yul\":5343:5344   */\n      dup1\n        /* \"#utility.yul\":5338:5341   */\n      dup3\n        /* \"#utility.yul\":5334:5345   */\n      add\n        /* \"#utility.yul\":5328:5346   */\n      mload\n        /* \"#utility.yul\":5324:5325   */\n      dup2\n        /* \"#utility.yul\":5319:5322   */\n      dup5\n        /* \"#utility.yul\":5315:5326   */\n      add\n        /* \"#utility.yul\":5308:5347   */\n      mstore\n        /* \"#utility.yul\":5280:5282   */\n      0x20\n        /* \"#utility.yul\":5277:5278   */\n      dup2\n        /* \"#utility.yul\":5273:5283   */\n      add\n        /* \"#utility.yul\":5268:5283   */\n      swap1\n      pop\n        /* \"#utility.yul\":5244:5357   */\n      jump(tag_135)\n    tag_137:\n        /* \"#utility.yul\":5391:5392   */\n      0x00\n        /* \"#utility.yul\":5382:5388   */\n      dup5\n        /* \"#utility.yul\":5377:5380   */\n      dup5\n        /* \"#utility.yul\":5373:5389   */\n      add\n        /* \"#utility.yul\":5366:5393   */\n      mstore\n        /* \"#utility.yul\":5215:5399   */\n      pop\n        /* \"#utility.yul\":5153:5399   */\n      pop\n      pop\n      pop\n      jump\t// out\n        /* \"#utility.yul\":5405:5782   */\n    tag_59:\n        /* \"#utility.yul\":5493:5496   */\n      0x00\n        /* \"#utility.yul\":5521:5560   */\n      tag_139\n        /* \"#utility.yul\":5554:5559   */\n      dup3\n        /* \"#utility.yul\":5521:5560   */\n      tag_56\n      jump\t// in\n    tag_139:\n        /* \"#utility.yul\":5576:5647   */\n      tag_140\n        /* \"#utility.yul\":5640:5646   */\n      dup2\n        /* \"#utility.yul\":5635:5638   */\n      dup6\n        /* \"#utility.yul\":5576:5647   */\n      tag_57\n      jump\t// in\n    tag_140:\n        /* \"#utility.yul\":5569:5647   */\n      swap4\n      pop\n        /* \"#utility.yul\":5656:5721   */\n      tag_141\n        /* \"#utility.yul\":5714:5720   */\n      dup2\n        /* \"#utility.yul\":5709:5712   */\n      dup6\n        /* \"#utility.yul\":5702:5706   */\n      0x20\n        /* \"#utility.yul\":5695:5700   */\n      dup7\n        /* \"#utility.yul\":5691:5707   */\n      add\n        /* \"#utility.yul\":5656:5721   */\n      tag_58\n      jump\t// in\n    tag_141:\n        /* \"#utility.yul\":5746:5775   */\n      tag_142\n        /* \"#utility.yul\":5768:5774   */\n      dup2\n        /* \"#utility.yul\":5746:5775   */\n      tag_47\n      jump\t// in\n    tag_142:\n        /* \"#utility.yul\":5741:5744   */\n      dup5\n        /* \"#utility.yul\":5737:5776   */\n      add\n        /* \"#utility.yul\":5730:5776   */\n      swap2\n      pop\n        /* \"#utility.yul\":5497:5782   */\n      pop\n        /* \"#utility.yul\":5405:5782   */\n      swap3\n      swap2\n      pop\n      pop\n      jump\t// out\n        /* \"#utility.yul\":5788:6523   */\n    tag_20:\n        /* \"#utility.yul\":6005:6009   */\n      0x00\n        /* \"#utility.yul\":6043:6046   */\n      0x80\n        /* \"#utility.yul\":6032:6041   */\n      dup3\n        /* \"#utility.yul\":6028:6047   */\n      add\n        /* \"#utility.yul\":6020:6047   */\n      swap1\n      pop\n        /* \"#utility.yul\":6057:6128   */\n      tag_144\n        /* \"#utility.yul\":6125:6126   */\n      0x00\n        /* \"#utility.yul\":6114:6123   */\n      dup4\n        /* \"#utility.yul\":6110:6127   */\n      add\n        /* \"#utility.yul\":6101:6107   */\n      dup8\n        /* \"#utility.yul\":6057:6128   */\n      tag_55\n      jump\t// in\n    tag_144:\n        /* \"#utility.yul\":6175:6184   */\n      dup2\n        /* \"#utility.yul\":6169:6173   */\n      dup2\n        /* \"#utility.yul\":6165:6185   */\n      sub\n        /* \"#utility.yul\":6160:6162   */\n      0x20\n        /* \"#utility.yul\":6149:6158   */\n      dup4\n        /* \"#utility.yul\":6145:6163   */\n      add\n        /* \"#utility.yul\":6138:6186   */\n      mstore\n        /* \"#utility.yul\":6203:6281   */\n      tag_145\n        /* \"#utility.yul\":6276:6280   */\n      dup2\n        /* \"#utility.yul\":6267:6273   */\n      dup7\n        /* \"#utility.yul\":6203:6281   */\n      tag_59\n      jump\t// in\n    tag_145:\n        /* \"#utility.yul\":6195:6281   */\n      swap1\n      pop\n        /* \"#utility.yul\":6328:6337   */\n      dup2\n        /* \"#utility.yul\":6322:6326   */\n      dup2\n        /* \"#utility.yul\":6318:6338   */\n      sub\n        /* \"#utility.yul\":6313:6315   */\n      0x40\n        /* \"#utility.yul\":6302:6311   */\n      dup4\n        /* \"#utility.yul\":6298:6316   */\n      add\n        /* \"#utility.yul\":6291:6339   */\n      mstore\n        /* \"#utility.yul\":6356:6434   */\n      tag_146\n        /* \"#utility.yul\":6429:6433   */\n      dup2\n        /* \"#utility.yul\":6420:6426   */\n      dup6\n        /* \"#utility.yul\":6356:6434   */\n      tag_59\n      jump\t// in\n    tag_146:\n        /* \"#utility.yul\":6348:6434   */\n      swap1\n      pop\n        /* \"#utility.yul\":6444:6516   */\n      tag_147\n        /* \"#utility.yul\":6512:6514   */\n      0x60\n        /* \"#utility.yul\":6501:6510   */\n      dup4\n        /* \"#utility.yul\":6497:6515   */\n      add\n        /* \"#utility.yul\":6488:6494   */\n      dup5\n        /* \"#utility.yul\":6444:6516   */\n      tag_55\n      jump\t// in\n    tag_147:\n        /* \"#utility.yul\":5788:6523   */\n      swap6\n      swap5\n      pop\n      pop\n      pop\n      pop\n      pop\n      jump\t// out\n        /* \"#utility.yul\":6529:6709   */\n    tag_60:\n        /* \"#utility.yul\":6577:6654   */\n      0x4e487b7100000000000000000000000000000000000000000000000000000000\n        /* \"#utility.yul\":6574:6575   */\n      0x00\n        /* \"#utility.yul\":6567:6655   */\n      mstore\n        /* \"#utility.yul\":6674:6678   */\n      0x22\n        /* \"#utility.yul\":6671:6672   */\n      0x04\n        /* \"#utility.yul\":6664:6679   */\n      mstore\n        /* \"#utility.yul\":6698:6702   */\n      0x24\n        /* \"#utility.yul\":6695:6696   */\n      0x00\n        /* \"#utility.yul\":6688:6703   */\n      revert\n        /* \"#utility.yul\":6715:7035   */\n    tag_29:\n        /* \"#utility.yul\":6759:6765   */\n      0x00\n        /* \"#utility.yul\":6796:6797   */\n      0x02\n        /* \"#utility.yul\":6790:6794   */\n      dup3\n        /* \"#utility.yul\":6786:6798   */\n      div\n        /* \"#utility.yul\":6776:6798   */\n      swap1\n      pop\n        /* \"#utility.yul\":6843:6844   */\n      0x01\n        /* \"#utility.yul\":6837:6841   */\n      dup3\n        /* \"#utility.yul\":6833:6845   */\n      and\n        /* \"#utility.yul\":6864:6882   */\n      dup1\n        /* \"#utility.yul\":6854:6935   */\n      tag_150\n      jumpi\n        /* \"#utility.yul\":6920:6924   */\n      0x7f\n        /* \"#utility.yul\":6912:6918   */\n      dup3\n        /* \"#utility.yul\":6908:6925   */\n      and\n        /* \"#utility.yul\":6898:6925   */\n      swap2\n      pop\n        /* \"#utility.yul\":6854:6935   */\n    tag_150:\n        /* \"#utility.yul\":6982:6984   */\n      0x20\n        /* \"#utility.yul\":6974:6980   */\n      dup3\n        /* \"#utility.yul\":6971:6985   */\n      lt\n        /* \"#utility.yul\":6951:6969   */\n      dup2\n        /* \"#utility.yul\":6948:6986   */\n      sub\n        /* \"#utility.yul\":6945:7029   */\n      tag_151\n      jumpi\n        /* \"#utility.yul\":7001:7019   */\n      tag_152\n      tag_60\n      jump\t// in\n    tag_152:\n        /* \"#utility.yul\":6945:7029   */\n    tag_151:\n        /* \"#utility.yul\":6766:7035   */\n      pop\n        /* \"#utility.yul\":6715:7035   */\n      swap2\n      swap1\n      pop\n      jump\t// out\n        /* \"#utility.yul\":7041:7182   */\n    tag_61:\n        /* \"#utility.yul\":7090:7094   */\n      0x00\n        /* \"#utility.yul\":7113:7116   */\n      dup2\n        /* \"#utility.yul\":7105:7116   */\n      swap1\n      pop\n        /* \"#utility.yul\":7136:7139   */\n      dup2\n        /* \"#utility.yul\":7133:7134   */\n      0x00\n        /* \"#utility.yul\":7126:7140   */\n      mstore\n        /* \"#utility.yul\":7170:7174   */\n      0x20\n        /* \"#utility.yul\":7167:7168   */\n      0x00\n        /* \"#utility.yul\":7157:7175   */\n      keccak256\n        /* \"#utility.yul\":7149:7175   */\n      swap1\n      pop\n        /* \"#utility.yul\":7041:7182   */\n      swap2\n      swap1\n      pop\n      jump\t// out\n        /* \"#utility.yul\":7188:7281   */\n    tag_62:\n        /* \"#utility.yul\":7225:7231   */\n      0x00\n        /* \"#utility.yul\":7272:7274   */\n      0x20\n        /* \"#utility.yul\":7267:7269   */\n      0x1f\n        /* \"#utility.yul\":7260:7265   */\n      dup4\n        /* \"#utility.yul\":7256:7270   */\n      add\n        /* \"#utility.yul\":7252:7275   */\n      div\n        /* \"#utility.yul\":7242:7275   */\n      swap1\n      pop\n        /* \"#utility.yul\":7188:7281   */\n      swap2\n      swap1\n      pop\n      jump\t// out\n        /* \"#utility.yul\":7287:7394   */\n    tag_63:\n        /* \"#utility.yul\":7331:7339   */\n      0x00\n        /* \"#utility.yul\":7381:7386   */\n      dup3\n        /* \"#utility.yul\":7375:7379   */\n      dup3\n        /* \"#utility.yul\":7371:7387   */\n      shl\n        /* \"#utility.yul\":7350:7387   */\n      swap1\n      pop\n        /* \"#utility.yul\":7287:7394   */\n      swap3\n      swap2\n      pop\n      pop\n      jump\t// out\n        /* \"#utility.yul\":7400:7793   */\n    tag_64:\n        /* \"#utility.yul\":7469:7475   */\n      0x00\n        /* \"#utility.yul\":7519:7520   */\n      0x08\n        /* \"#utility.yul\":7507:7517   */\n      dup4\n        /* \"#utility.yul\":7503:7521   */\n      mul\n        /* \"#utility.yul\":7542:7639   */\n      tag_157\n        /* \"#utility.yul\":7572:7638   */\n      0xffffffffffffffffffffffffffffffffffffffffffffffffffffffffffffffff\n        /* \"#utility.yul\":7561:7570   */\n      dup3\n        /* \"#utility.yul\":7542:7639   */\n      tag_63\n      jump\t// in\n    tag_157:\n        /* \"#utility.yul\":7660:7699   */\n      tag_158\n        /* \"#utility.yul\":7690:7698   */\n      dup7\n        /* \"#utility.yul\":7679:7688   */\n      dup4\n        /* \"#utility.yul\":7660:7699   */\n      tag_63\n      jump\t// in\n    tag_158:\n        /* \"#utility.yul\":7648:7699   */\n      swap6\n      pop\n        /* \"#utility.yul\":7732:7736   */\n      dup1\n        /* \"#utility.yul\":7728:7737   */\n      not\n        /* \"#utility.yul\":7721:7726   */\n      dup5\n        /* \"#utility.yul\":7717:7738   */\n      and\n        /* \"#utility.yul\":7708:7738   */\n      swap4\n      pop\n        /* \"#utility.yul\":7781:7785   */\n      dup1\n        /* \"#utility.yul\":7771:7779   */\n      dup7\n        /* \"#utility.yul\":7767:7786   */\n      and\n        /* \"#utility.yul\":7760:7765   */\n      dup5\n        /* \"#utility.yul\":7757:7787   */\n      or\n        /* \"#utility.yul\":7747:7787   */\n      swap3\n      pop\n        /* \"#utility.yul\":7476:7793   */\n      pop\n      pop\n        /* \"#utility.yul\":7400:7793   */\n      swap4\n      swap3\n      pop\n      pop\n      pop\n      jump\t// out\n        /* \"#utility.yul\":7799:7859   */\n    tag_65:\n        /* \"#utility.yul\":7827:7830   */\n      0x00\n        /* \"#utility.yul\":7848:7853   */\n      dup2\n        /* \"#utility.yul\":7841:7853   */\n      swap1\n      pop\n        /* \"#utility.yul\":7799:7859   */\n      swap2\n      swap1\n      pop\n      jump\t// out\n        /* \"#utility.yul\":7865:8007   */\n    tag_66:\n        /* \"#utility.yul\":7915:7924   */\n      0x00\n        /* \"#utility.yul\":7948:8001   */\n      tag_161\n        /* \"#utility.yul\":7966:8000   */\n      tag_162\n        /* \"#utility.yul\":7975:7999   */\n      tag_163\n        /* \"#utility.yul\":7993:7998   */\n      dup5\n        /* \"#utility.yul\":7975:7999   */\n      tag_42\n      jump\t// in\n    tag_163:\n        /* \"#utility.yul\":7966:8000   */\n      tag_65\n      jump\t// in\n    tag_162:\n        /* \"#utility.yul\":7948:8001   */\n      tag_42\n      jump\t// in\n    tag_161:\n        /* \"#utility.yul\":7935:8001   */\n      swap1\n      pop\n        /* \"#utility.yul\":7865:8007   */\n      swap2\n      swap1\n      pop\n      jump\t// out\n        /* \"#utility.yul\":8013:8088   */\n    tag_67:\n        /* \"#utility.yul\":8056:8059   */\n      0x00\n        /* \"#utility.yul\":8077:8082   */\n      dup2\n        /* \"#utility.yul\":8070:8082   */\n      swap1\n      pop\n        /* \"#utility.yul\":8013:8088   */\n      swap2\n      swap1\n      pop\n      jump\t// out\n        /* \"#utility.yul\":8094:8363   */\n    tag_68:\n        /* \"#utility.yul\":8204:8243   */\n      tag_166\n        /* \"#utility.yul\":8235:8242   */\n      dup4\n        /* \"#utility.yul\":8204:8243   */\n      tag_66\n      jump\t// in\n    tag_166:\n        /* \"#utility.yul\":8265:8356   */\n      tag_167\n        /* \"#utility.yul\":8314:8355   */\n      tag_168\n        /* \"#utility.yul\":8338:8354   */\n      dup3\n        /* \"#utility.yul\":8314:8355   */\n      tag_67\n      jump\t// in\n    tag_168:\n        /* \"#utility.yul\":8306:8312   */\n      dup5\n        /* \"#utility.yul\":8299:8303   */\n      dup5\n        /* \"#utility.yul\":8293:8304   */\n      sload\n        /* \"#utility.yul\":8265:8356   */\n      tag_64\n      jump\t// in\n    tag_167:\n        /* \"#utility.yul\":8259:8263   */\n      dup3\n        /* \"#utility.yul\":8252:8357   */\n      sstore\n        /* \"#utility.yul\":8170:8363   */\n      pop\n        /* \"#utility.yul\":8094:8363   */\n      pop\n      pop\n      pop\n      jump\t// out\n        /* \"#utility.yul\":8369:8442   */\n    tag_69:\n        /* \"#utility.yul\":8414:8417   */\n      0x00\n        /* \"#utility.yul\":8369:8442   */\n      swap1\n      jump\t// out\n        /* \"#utility.yul\":8448:8637   */\n    tag_70:\n        /* \"#utility.yul\":8525:8557   */\n      tag_171\n      tag_69\n      jump\t// in\n    tag_171:\n        /* \"#utility.yul\":8566:8631   */\n      tag_172\n        /* \"#utility.yul\":8624:8630   */\n      dup2\n        /* \"#utility.yul\":8616:8622   */\n      dup5\n        /* \"#utility.yul\":8610:8614   */\n      dup5\n        /* \"#utility.yul\":8566:8631   */\n      tag_68\n      jump\t// in\n    tag_172:\n        /* \"#utility.yul\":8501:8637   */\n      pop\n        /* \"#utility.yul\":8448:8637   */\n      pop\n      pop\n      jump\t// out\n        /* \"#utility.yul\":8643:8829   */\n    tag_71:\n        /* \"#utility.yul\":8703:8823   */\n    tag_174:\n        /* \"#utility.yul\":8720:8723   */\n      dup2\n        /* \"#utility.yul\":8713:8718   */\n      dup2\n        /* \"#utility.yul\":8710:8724   */\n      lt\n        /* \"#utility.yul\":8703:8823   */\n      iszero\n      tag_176\n      jumpi\n        /* \"#utility.yul\":8774:8813   */\n      tag_177\n        /* \"#utility.yul\":8811:8812   */\n      0x00\n        /* \"#utility.yul\":8804:8809   */\n      dup3\n        /* \"#utility.yul\":8774:8813   */\n      tag_70\n      jump\t// in\n    tag_177:\n        /* \"#utility.yul\":8747:8748   */\n      0x01\n        /* \"#utility.yul\":8740:8745   */\n      dup2\n        /* \"#utility.yul\":8736:8749   */\n      add\n        /* \"#utility.yul\":8727:8749   */\n      swap1\n      pop\n        /* \"#utility.yul\":8703:8823   */\n      jump(tag_174)\n    tag_176:\n        /* \"#utility.yul\":8643:8829   */\n      pop\n      pop\n      jump\t// out\n        /* \"#utility.yul\":8835:9378   */\n    tag_72:\n        /* \"#utility.yul\":8936:8938   */\n      0x1f\n        /* \"#utility.yul\":8931:8934   */\n      dup3\n        /* \"#utility.yul\":8928:8939   */\n      gt\n        /* \"#utility.yul\":8925:9371   */\n      iszero\n      tag_179\n      jumpi\n        /* \"#utility.yul\":8970:9008   */\n      tag_180\n        /* \"#utility.yul\":9002:9007   */\n      dup2\n        /* \"#utility.yul\":8970:9008   */\n      tag_61\n      jump\t// in\n    tag_180:\n        /* \"#utility.yul\":9054:9083   */\n      tag_181\n        /* \"#utility.yul\":9072:9082   */\n      dup5\n        /* \"#utility.yul\":9054:9083   */\n      tag_62\n      jump\t// in\n    tag_181:\n        /* \"#utility.yul\":9044:9052   */\n      dup2\n        /* \"#utility.yul\":9040:9084   */\n      add\n        /* \"#utility.yul\":9237:9239   */\n      0x20\n        /* \"#utility.yul\":9225:9235   */\n      dup6\n        /* \"#utility.yul\":9222:9240   */\n      lt\n        /* \"#utility.yul\":9219:9268   */\n      iszero\n      tag_182\n      jumpi\n        /* \"#utility.yul\":9258:9266   */\n      dup2\n        /* \"#utility.yul\":9243:9266   */\n      swap1\n      pop\n        /* \"#utility.yul\":9219:9268   */\n    tag_182:\n        /* \"#utility.yul\":9281:9361   */\n      tag_183\n        /* \"#utility.yul\":9337:9359   */\n      tag_184\n        /* \"#utility.yul\":9355:9358   */\n      dup6\n        /* \"#utility.yul\":9337:9359   */\n      tag_62\n      jump\t// in\n    tag_184:\n        /* \"#utility.yul\":9327:9335   */\n      dup4\n        /* \"#utility.yul\":9323:9360   */\n      add\n        /* \"#utility.yul\":9310:9321   */\n      dup3\n        /* \"#utility.yul\":9281:9361   */\n      tag_71\n      jump\t// in\n    tag_183:\n        /* \"#utility.yul\":8940:9371   */\n      pop\n      pop\n        /* \"#utility.yul\":8925:9371   */\n    tag_179:\n        /* \"#utility.yul\":8835:9378   */\n      pop\n      pop\n      pop\n      jump\t// out\n        /* \"#utility.yul\":9384:9501   */\n    tag_73:\n        /* \"#utility.yul\":9438:9446   */\n      0x00\n        /* \"#utility.yul\":9488:9493   */\n      dup3\n        /* \"#utility.yul\":9482:9486   */\n      dup3\n        /* \"#utility.yul\":9478:9494   */\n      shr\n        /* \"#utility.yul\":9457:9494   */\n      swap1\n      pop\n        /* \"#utility.yul\":9384:9501   */\n      swap3\n      swap2\n      pop\n      pop\n      jump\t// out\n        /* \"#utility.yul\":9507:9676   */\n    tag_74:\n        /* \"#utility.yul\":9551:9557   */\n      0x00\n        /* \"#utility.yul\":9584:9635   */\n      tag_187\n        /* \"#utility.yul\":9632:9633   */\n      0x00\n        /* \"#utility.yul\":9628:9634   */\n      not\n        /* \"#utility.yul\":9620:9625   */\n      dup5\n        /* \"#utility.yul\":9617:9618   */\n      0x08\n        /* \"#utility.yul\":9613:9626   */\n      mul\n        /* \"#utility.yul\":9584:9635   */\n      tag_73\n      jump\t// in\n    tag_187:\n        /* \"#utility.yul\":9580:9636   */\n      not\n        /* \"#utility.yul\":9665:9669   */\n      dup1\n        /* \"#utility.yul\":9659:9663   */\n      dup4\n        /* \"#utility.yul\":9655:9670   */\n      and\n        /* \"#utility.yul\":9645:9670   */\n      swap2\n      pop\n        /* \"#utility.yul\":9558:9676   */\n      pop\n        /* \"#utility.yul\":9507:9676   */\n      swap3\n      swap2\n      pop\n      pop\n      jump\t// out\n        /* \"#utility.yul\":9681:9976   */\n    tag_75:\n        /* \"#utility.yul\":9757:9761   */\n      0x00\n        /* \"#utility.yul\":9903:9932   */\n      tag_189\n        /* \"#utility.yul\":9928:9931   */\n      dup4\n        /* \"#utility.yul\":9922:9926   */\n      dup4\n        /* \"#utility.yul\":9903:9932   */\n      tag_74\n      jump\t// in\n    tag_189:\n        /* \"#utility.yul\":9895:9932   */\n      swap2\n      pop\n        /* \"#utility.yul\":9965:9968   */\n      dup3\n        /* \"#utility.yul\":9962:9963   */\n      0x02\n        /* \"#utility.yul\":9958:9969   */\n      mul\n        /* \"#utility.yul\":9952:9956   */\n      dup3\n        /* \"#utility.yul\":9949:9970   */\n      or\n        /* \"#utility.yul\":9941:9970   */\n      swap1\n      pop\n        /* \"#utility.yul\":9681:9976   */\n      swap3\n      swap2\n      pop\n      pop\n      jump\t// out\n        /* \"#utility.yul\":9981:11376   */\n    tag_23:\n        /* \"#utility.yul\":10098:10135   */\n      tag_191\n        /* \"#utility.yul\":10131:10134   */\n      dup3\n        /* \"#utility.yul\":10098:10135   */\n      tag_56\n      jump\t// in\n    tag_191:\n        /* \"#utility.yul\":10200:10218   */\n      0xffffffffffffffff\n        /* \"#utility.yul\":10192:10198   */\n      dup2\n        /* \"#utility.yul\":10189:10219   */\n      gt\n        /* \"#utility.yul\":10186:10242   */\n      iszero\n      tag_192\n      jumpi\n        /* \"#utility.yul\":10222:10240   */\n      tag_193\n      tag_48\n      jump\t// in\n    tag_193:\n        /* \"#utility.yul\":10186:10242   */\n    tag_192:\n        /* \"#utility.yul\":10266:10304   */\n      tag_194\n        /* \"#utility.yul\":10298:10302   */\n      dup3\n        /* \"#utility.yul\":10292:10303   */\n      sload\n        /* \"#utility.yul\":10266:10304   */\n      tag_29\n      jump\t// in\n    tag_194:\n        /* \"#utility.yul\":10351:10418   */\n      tag_195\n        /* \"#utility.yul\":10411:10417   */\n      dup3\n        /* \"#utility.yul\":10403:10409   */\n      dup3\n        /* \"#utility.yul\":10397:10401   */\n      dup6\n        /* \"#utility.yul\":10351:10418   */\n      tag_72\n      jump\t// in\n    tag_195:\n        /* \"#utility.yul\":10445:10446   */\n      0x00\n        /* \"#utility.yul\":10469:10473   */\n      0x20\n        /* \"#utility.yul\":10456:10473   */\n      swap1\n      pop\n        /* \"#utility.yul\":10501:10503   */\n      0x1f\n        /* \"#utility.yul\":10493:10499   */\n      dup4\n        /* \"#utility.yul\":10490:10504   */\n      gt\n        /* \"#utility.yul\":10518:10519   */\n      0x01\n        /* \"#utility.yul\":10513:11131   */\n      dup2\n      eq\n      tag_197\n      jumpi\n        /* \"#utility.yul\":11175:11176   */\n      0x00\n        /* \"#utility.yul\":11192:11198   */\n      dup5\n        /* \"#utility.yul\":11189:11266   */\n      iszero\n      tag_198\n      jumpi\n        /* \"#utility.yul\":11241:11250   */\n      dup3\n        /* \"#utility.yul\":11236:11239   */\n      dup8\n        /* \"#utility.yul\":11232:11251   */\n      add\n        /* \"#utility.yul\":11226:11252   */\n      mload\n        /* \"#utility.yul\":11217:11252   */\n      swap1\n      pop\n        /* \"#utility.yul\":11189:11266   */\n    tag_198:\n        /* \"#utility.yul\":11292:11359   */\n      tag_199\n        /* \"#utility.yul\":11352:11358   */\n      dup6\n        /* \"#utility.yul\":11345:11350   */\n      dup3\n        /* \"#utility.yul\":11292:11359   */\n      tag_75\n      jump\t// in\n    tag_199:\n        /* \"#utility.yul\":11286:11290   */\n      dup7\n        /* \"#utility.yul\":11279:11360   */\n      sstore\n        /* \"#utility.yul\":11148:11370   */\n      pop\n        /* \"#utility.yul\":10483:11370   */\n      jump(tag_196)\n        /* \"#utility.yul\":10513:11131   */\n    tag_197:\n        /* \"#utility.yul\":10565:10569   */\n      0x1f\n        /* \"#utility.yul\":10561:10570   */\n      not\n        /* \"#utility.yul\":10553:10559   */\n      dup5\n        /* \"#utility.yul\":10549:10571   */\n      and\n        /* \"#utility.yul\":10599:10636   */\n      tag_200\n        /* \"#utility.yul\":10631:10635   */\n      dup7\n        /* \"#utility.yul\":10599:10636   */\n      tag_61\n      jump\t// in\n    tag_200:\n        /* \"#utility.yul\":10658:10659   */\n      0x00\n        /* \"#utility.yul\":10672:10880   */\n    tag_201:\n        /* \"#utility.yul\":10686:10693   */\n      dup3\n        /* \"#utility.yul\":10683:10684   */\n      dup2\n        /* \"#utility.yul\":10680:10694   */\n      lt\n        /* \"#utility.yul\":10672:10880   */\n      iszero\n      tag_203\n      jumpi\n        /* \"#utility.yul\":10765:10774   */\n      dup5\n        /* \"#utility.yul\":10760:10763   */\n      dup10\n        /* \"#utility.yul\":10756:10775   */\n      add\n        /* \"#utility.yul\":10750:10776   */\n      mload\n        /* \"#utility.yul\":10742:10748   */\n      dup3\n        /* \"#utility.yul\":10735:10777   */\n      sstore\n        /* \"#utility.yul\":10816:10817   */\n      0x01\n        /* \"#utility.yul\":10808:10814   */\n      dup3\n        /* \"#utility.yul\":10804:10818   */\n      add\n        /* \"#utility.yul\":10794:10818   */\n      swap2\n      pop\n        /* \"#utility.yul\":10863:10865   */\n      0x20\n        /* \"#utility.yul\":10852:10861   */\n      dup6\n        /* \"#utility.yul\":10848:10866   */\n      add\n        /* \"#utility.yul\":10835:10866   */\n      swap5\n      pop\n        /* \"#utility.yul\":10709:10713   */\n      0x20\n        /* \"#utility.yul\":10706:10707   */\n      dup2\n        /* \"#utility.yul\":10702:10714   */\n      add\n        /* \"#utility.yul\":10697:10714   */\n      swap1\n      pop\n        /* \"#utility.yul\":10672:10880   */\n      jump(tag_201)\n    tag_203:\n        /* \"#utility.yul\":10908:10914   */\n      dup7\n        /* \"#utility.yul\":10899:10906   */\n      dup4\n        /* \"#utility.yul\":10896:10915   */\n      lt\n        /* \"#utility.yul\":10893:11072   */\n      iszero\n      tag_204\n      jumpi\n        /* \"#utility.yul\":10966:10975   */\n      dup5\n        /* \"#utility.yul\":10961:10964   */\n      dup10\n        /* \"#utility.yul\":10957:10976   */\n      add\n        /* \"#utility.yul\":10951:10977   */\n      mload\n        /* \"#utility.yul\":11009:11057   */\n      tag_205\n        /* \"#utility.yul\":11051:11055   */\n      0x1f\n        /* \"#utility.yul\":11043:11049   */\n      dup10\n        /* \"#utility.yul\":11039:11056   */\n      and\n        /* \"#utility.yul\":11028:11037   */\n      dup3\n        /* \"#utility.yul\":11009:11057   */\n      tag_74\n      jump\t// in\n    tag_205:\n        /* \"#utility.yul\":11001:11007   */\n      dup4\n        /* \"#utility.yul\":10994:11058   */\n      sstore\n        /* \"#utility.yul\":10916:11072   */\n      pop\n        /* \"#utility.yul\":10893:11072   */\n    tag_204:\n        /* \"#utility.yul\":11118:11119   */\n      0x01\n        /* \"#utility.yul\":11114:11115   */\n      0x02\n        /* \"#utility.yul\":11106:11112   */\n      dup9\n        /* \"#utility.yul\":11102:11116   */\n      mul\n        /* \"#utility.yul\":11098:11120   */\n      add\n        /* \"#utility.yul\":11092:11096   */\n      dup9\n        /* \"#utility.yul\":11085:11121   */\n      sstore\n        /* \"#utility.yul\":10520:11131   */\n      pop\n      pop\n      pop\n        /* \"#utility.yul\":10483:11370   */\n    tag_196:\n      pop\n        /* \"#utility.yul\":10073:11376   */\n      pop\n      pop\n      pop\n        /* \"#utility.yul\":9981:11376   */\n      pop\n      pop\n      jump\t// out\n\n    auxdata: 0xa264697066735822122086eecadbdbb4f8572e049607b0aae29f2dd2da55e936d9b16ce8f03917df9fa164736f6c63430008120033\n}\n",
				"bytecode": {
					"linkReferences": {},
					"object": "608060405234801561001057600080fd5b50610950806100206000396000f3fe608060405234801561001057600080fd5b50600436106100415760003560e01c80635a9e21de14610046578063ae71af6514610062578063f0ba844014610092575b600080fd5b610060600480360381019061005b9190610460565b6100c5565b005b61007c60048036038101906100779190610513565b61016c565b604051610089919061054f565b60405180910390f35b6100ac60048036038101906100a79190610513565b610190565b6040516100bc94939291906105e9565b60405180910390f35b604051806080016040528086815260200185815260200184815260200183815250600160008781526020019081526020016000206000820151816000015560208201518160010190816101189190610848565b50604082015181600201908161012e9190610848565b506060820151816003015590505060008590806001815401808255809150506001900390600052602060002001600090919091909150555050505050565b6000818154811061017c57600080fd5b906000526020600020016000915090505481565b60016020528060005260406000206000915090508060000154908060010180546101b99061066b565b80601f01602080910402602001604051908101604052809291908181526020018280546101e59061066b565b80156102325780601f1061020757610100808354040283529160200191610232565b820191906000526020600020905b81548152906001019060200180831161021557829003601f168201915b5050505050908060020180546102479061066b565b80601f01602080910402602001604051908101604052809291908181526020018280546102739061066b565b80156102c05780601f10610295576101008083540402835291602001916102c0565b820191906000526020600020905b8154815290600101906020018083116102a357829003601f168201915b5050505050908060030154905084565b6000604051905090565b600080fd5b600080fd5b6000819050919050565b6102f7816102e4565b811461030257600080fd5b50565b600081359050610314816102ee565b92915050565b600080fd5b600080fd5b6000601f19601f8301169050919050565b7f4e487b7100000000000000000000000000000000000000000000000000000000600052604160045260246000fd5b61036d82610324565b810181811067ffffffffffffffff8211171561038c5761038b610335565b5b80604052505050565b600061039f6102d0565b90506103ab8282610364565b919050565b600067ffffffffffffffff8211156103cb576103ca610335565b5b6103d482610324565b9050602081019050919050565b82818337600083830152505050565b60006104036103fe846103b0565b610395565b90508281526020810184848401111561041f5761041e61031f565b5b61042a8482856103e1565b509392505050565b600082601f8301126104475761044661031a565b5b81356104578482602086016103f0565b91505092915050565b600080600080600060a0868803121561047c5761047b6102da565b5b600061048a88828901610305565b955050602086013567ffffffffffffffff8111156104ab576104aa6102df565b5b6104b788828901610432565b945050604086013567ffffffffffffffff8111156104d8576104d76102df565b5b6104e488828901610432565b93505060606104f588828901610305565b925050608061050688828901610305565b9150509295509295909350565b600060208284031215610529576105286102da565b5b600061053784828501610305565b91505092915050565b610549816102e4565b82525050565b60006020820190506105646000830184610540565b92915050565b600081519050919050565b600082825260208201905092915050565b60005b838110156105a4578082015181840152602081019050610589565b60008484015250505050565b60006105bb8261056a565b6105c58185610575565b93506105d5818560208601610586565b6105de81610324565b840191505092915050565b60006080820190506105fe6000830187610540565b818103602083015261061081866105b0565b9050818103604083015261062481856105b0565b90506106336060830184610540565b95945050505050565b7f4e487b7100000000000000000000000000000000000000000000000000000000600052602260045260246000fd5b6000600282049050600182168061068357607f821691505b6020821081036106965761069561063c565b5b50919050565b60008190508160005260206000209050919050565b60006020601f8301049050919050565b600082821b905092915050565b6000600883026106fe7fffffffffffffffffffffffffffffffffffffffffffffffffffffffffffffffff826106c1565b61070886836106c1565b95508019841693508086168417925050509392505050565b6000819050919050565b600061074561074061073b846102e4565b610720565b6102e4565b9050919050565b6000819050919050565b61075f8361072a565b61077361076b8261074c565b8484546106ce565b825550505050565b600090565b61078861077b565b610793818484610756565b505050565b5b818110156107b7576107ac600082610780565b600181019050610799565b5050565b601f8211156107fc576107cd8161069c565b6107d6846106b1565b810160208510156107e5578190505b6107f96107f1856106b1565b830182610798565b50505b505050565b600082821c905092915050565b600061081f60001984600802610801565b1980831691505092915050565b6000610838838361080e565b9150826002028217905092915050565b6108518261056a565b67ffffffffffffffff81111561086a57610869610335565b5b610874825461066b565b61087f8282856107bb565b600060209050601f8311600181146108b257600084156108a0578287015190505b6108aa858261082c565b865550610912565b601f1984166108c08661069c565b60005b828110156108e8578489015182556001820191506020850194506020810190506108c3565b868310156109055784890151610901601f89168261080e565b8355505b6001600288020188555050505b50505050505056fea264697066735822122086eecadbdbb4f8572e049607b0aae29f2dd2da55e936d9b16ce8f03917df9fa164736f6c63430008120033",
					"opcodes": "PUSH1 0x80 PUSH1 0x40 MSTORE CALLVALUE DUP1 ISZERO PUSH2 0x10 JUMPI PUSH1 0x0 DUP1 REVERT JUMPDEST POP PUSH2 0x950 DUP1 PUSH2 0x20 PUSH1 0x0 CODECOPY PUSH1 0x0 RETURN INVALID PUSH1 0x80 PUSH1 0x40 MSTORE CALLVALUE DUP1 ISZERO PUSH2 0x10 JUMPI PUSH1 0x0 DUP1 REVERT JUMPDEST POP PUSH1 0x4 CALLDATASIZE LT PUSH2 0x41 JUMPI PUSH1 0x0 CALLDATALOAD PUSH1 0xE0 SHR DUP1 PUSH4 0x5A9E21DE EQ PUSH2 0x46 JUMPI DUP1 PUSH4 0xAE71AF65 EQ PUSH2 0x62 JUMPI DUP1 PUSH4 0xF0BA8440 EQ PUSH2 0x92 JUMPI JUMPDEST PUSH1 0x0 DUP1 REVERT JUMPDEST PUSH2 0x60 PUSH1 0x4 DUP1 CALLDATASIZE SUB DUP2 ADD SWAP1 PUSH2 0x5B SWAP2 SWAP1 PUSH2 0x460 JUMP JUMPDEST PUSH2 0xC5 JUMP JUMPDEST STOP JUMPDEST PUSH2 0x7C PUSH1 0x4 DUP1 CALLDATASIZE SUB DUP2 ADD SWAP1 PUSH2 0x77 SWAP2 SWAP1 PUSH2 0x513 JUMP JUMPDEST PUSH2 0x16C JUMP JUMPDEST PUSH1 0x40 MLOAD PUSH2 0x89 SWAP2 SWAP1 PUSH2 0x54F JUMP JUMPDEST PUSH1 0x40 MLOAD DUP1 SWAP2 SUB SWAP1 RETURN JUMPDEST PUSH2 0xAC PUSH1 0x4 DUP1 CALLDATASIZE SUB DUP2 ADD SWAP1 PUSH2 0xA7 SWAP2 SWAP1 PUSH2 0x513 JUMP JUMPDEST PUSH2 0x190 JUMP JUMPDEST PUSH1 0x40 MLOAD PUSH2 0xBC SWAP5 SWAP4 SWAP3 SWAP2 SWAP1 PUSH2 0x5E9 JUMP JUMPDEST PUSH1 0x40 MLOAD DUP1 SWAP2 SUB SWAP1 RETURN JUMPDEST PUSH1 0x40 MLOAD DUP1 PUSH1 0x80 ADD PUSH1 0x40 MSTORE DUP1 DUP7 DUP2 MSTORE PUSH1 0x20 ADD DUP6 DUP2 MSTORE PUSH1 0x20 ADD DUP5 DUP2 MSTORE PUSH1 0x20 ADD DUP4 DUP2 MSTORE POP PUSH1 0x1 PUSH1 0x0 DUP8 DUP2 MSTORE PUSH1 0x20 ADD SWAP1 DUP2 MSTORE PUSH1 0x20 ADD PUSH1 0x0 KECCAK256 PUSH1 0x0 DUP3 ADD MLOAD DUP2 PUSH1 0x0 ADD SSTORE PUSH1 0x20 DUP3 ADD MLOAD DUP2 PUSH1 0x1 ADD SWAP1 DUP2 PUSH2 0x118 SWAP2 SWAP1 PUSH2 0x848 JUMP JUMPDEST POP PUSH1 0x40 DUP3 ADD MLOAD DUP2 PUSH1 0x2 ADD SWAP1 DUP2 PUSH2 0x12E SWAP2 SWAP1 PUSH2 0x848 JUMP JUMPDEST POP PUSH1 0x60 DUP3 ADD MLOAD DUP2 PUSH1 0x3 ADD SSTORE SWAP1 POP POP PUSH1 0x0 DUP6 SWAP1 DUP1 PUSH1 0x1 DUP2 SLOAD ADD DUP1 DUP3 SSTORE DUP1 SWAP2 POP POP PUSH1 0x1 SWAP1 SUB SWAP1 PUSH1 0x0 MSTORE PUSH1 0x20 PUSH1 0x0 KECCAK256 ADD PUSH1 0x0 SWAP1 SWAP2 SWAP1 SWAP2 SWAP1 SWAP2 POP SSTORE POP POP POP POP POP JUMP JUMPDEST PUSH1 0x0 DUP2 DUP2 SLOAD DUP2 LT PUSH2 0x17C JUMPI PUSH1 0x0 DUP1 REVERT JUMPDEST SWAP1 PUSH1 0x0 MSTORE PUSH1 0x20 PUSH1 0x0 KECCAK256 ADD PUSH1 0x0 SWAP2 POP SWAP1 POP SLOAD DUP2 JUMP JUMPDEST PUSH1 0x1 PUSH1 0x20 MSTORE DUP1 PUSH1 0x0 MSTORE PUSH1 0x40 PUSH1 0x0 KECCAK256 PUSH1 0x0 SWAP2 POP SWAP1 POP DUP1 PUSH1 0x0 ADD SLOAD SWAP1 DUP1 PUSH1 0x1 ADD DUP1 SLOAD PUSH2 0x1B9 SWAP1 PUSH2 0x66B JUMP JUMPDEST DUP1 PUSH1 0x1F ADD PUSH1 0x20 DUP1 SWAP2 DIV MUL PUSH1 0x20 ADD PUSH1 0x40 MLOAD SWAP1 DUP2 ADD PUSH1 0x40 MSTORE DUP1 SWAP3 SWAP2 SWAP1 DUP2 DUP2 MSTORE PUSH1 0x20 ADD DUP3 DUP1 SLOAD PUSH2 0x1E5 SWAP1 PUSH2 0x66B JUMP JUMPDEST DUP1 ISZERO PUSH2 0x232 JUMPI DUP1 PUSH1 0x1F LT PUSH2 0x207 JUMPI PUSH2 0x100 DUP1 DUP4 SLOAD DIV MUL DUP4 MSTORE SWAP2 PUSH1 0x20 ADD SWAP2 PUSH2 0x232 JUMP JUMPDEST DUP3 ADD SWAP2 SWAP1 PUSH1 0x0 MSTORE PUSH1 0x20 PUSH1 0x0 KECCAK256 SWAP1 JUMPDEST DUP2 SLOAD DUP2 MSTORE SWAP1 PUSH1 0x1 ADD SWAP1 PUSH1 0x20 ADD DUP1 DUP4 GT PUSH2 0x215 JUMPI DUP3 SWAP1 SUB PUSH1 0x1F AND DUP3 ADD SWAP2 JUMPDEST POP POP POP POP POP SWAP1 DUP1 PUSH1 0x2 ADD DUP1 SLOAD PUSH2 0x247 SWAP1 PUSH2 0x66B JUMP JUMPDEST DUP1 PUSH1 0x1F ADD PUSH1 0x20 DUP1 SWAP2 DIV MUL PUSH1 0x20 ADD PUSH1 0x40 MLOAD SWAP1 DUP2 ADD PUSH1 0x40 MSTORE DUP1 SWAP3 SWAP2 SWAP1 DUP2 DUP2 MSTORE PUSH1 0x20 ADD DUP3 DUP1 SLOAD PUSH2 0x273 SWAP1 PUSH2 0x66B JUMP JUMPDEST DUP1 ISZERO PUSH2 0x2C0 JUMPI DUP1 PUSH1 0x1F LT PUSH2 0x295 JUMPI PUSH2 0x100 DUP1 DUP4 SLOAD DIV MUL DUP4 MSTORE SWAP2 PUSH1 0x20 ADD SWAP2 PUSH2 0x2C0 JUMP JUMPDEST DUP3 ADD SWAP2 SWAP1 PUSH1 0x0 MSTORE PUSH1 0x20 PUSH1 0x0 KECCAK256 SWAP1 JUMPDEST DUP2 SLOAD DUP2 MSTORE SWAP1 PUSH1 0x1 ADD SWAP1 PUSH1 0x20 ADD DUP1 DUP4 GT PUSH2 0x2A3 JUMPI DUP3 SWAP1 SUB PUSH1 0x1F AND DUP3 ADD SWAP2 JUMPDEST POP POP POP POP POP SWAP1 DUP1 PUSH1 0x3 ADD SLOAD SWAP1 POP DUP5 JUMP JUMPDEST PUSH1 0x0 PUSH1 0x40 MLOAD SWAP1 POP SWAP1 JUMP JUMPDEST PUSH1 0x0 DUP1 REVERT JUMPDEST PUSH1 0x0 DUP1 REVERT JUMPDEST PUSH1 0x0 DUP2 SWAP1 POP SWAP2 SWAP1 POP JUMP JUMPDEST PUSH2 0x2F7 DUP2 PUSH2 0x2E4 JUMP JUMPDEST DUP2 EQ PUSH2 0x302 JUMPI PUSH1 0x0 DUP1 REVERT JUMPDEST POP JUMP JUMPDEST PUSH1 0x0 DUP2 CALLDATALOAD SWAP1 POP PUSH2 0x314 DUP2 PUSH2 0x2EE JUMP JUMPDEST SWAP3 SWAP2 POP POP JUMP JUMPDEST PUSH1 0x0 DUP1 REVERT JUMPDEST PUSH1 0x0 DUP1 REVERT JUMPDEST PUSH1 0x0 PUSH1 0x1F NOT PUSH1 0x1F DUP4 ADD AND SWAP1 POP SWAP2 SWAP1 POP JUMP JUMPDEST PUSH32 0x4E487B7100000000000000000000000000000000000000000000000000000000 PUSH1 0x0 MSTORE PUSH1 0x41 PUSH1 0x4 MSTORE PUSH1 0x24 PUSH1 0x0 REVERT JUMPDEST PUSH2 0x36D DUP3 PUSH2 0x324 JUMP JUMPDEST DUP2 ADD DUP2 DUP2 LT PUSH8 0xFFFFFFFFFFFFFFFF DUP3 GT OR ISZERO PUSH2 0x38C JUMPI PUSH2 0x38B PUSH2 0x335 JUMP JUMPDEST JUMPDEST DUP1 PUSH1 0x40 MSTORE POP POP POP JUMP JUMPDEST PUSH1 0x0 PUSH2 0x39F PUSH2 0x2D0 JUMP JUMPDEST SWAP1 POP PUSH2 0x3AB DUP3 DUP3 PUSH2 0x364 JUMP JUMPDEST SWAP2 SWAP1 POP JUMP JUMPDEST PUSH1 0x0 PUSH8 0xFFFFFFFFFFFFFFFF DUP3 GT ISZERO PUSH2 0x3CB JUMPI PUSH2 0x3CA PUSH2 0x335 JUMP JUMPDEST JUMPDEST PUSH2 0x3D4 DUP3 PUSH2 0x324 JUMP JUMPDEST SWAP1 POP PUSH1 0x20 DUP2 ADD SWAP1 POP SWAP2 SWAP1 POP JUMP JUMPDEST DUP3 DUP2 DUP4 CALLDATACOPY PUSH1 0x0 DUP4 DUP4 ADD MSTORE POP POP POP JUMP JUMPDEST PUSH1 0x0 PUSH2 0x403 PUSH2 0x3FE DUP5 PUSH2 0x3B0 JUMP JUMPDEST PUSH2 0x395 JUMP JUMPDEST SWAP1 POP DUP3 DUP2 MSTORE PUSH1 0x20 DUP2 ADD DUP5 DUP5 DUP5 ADD GT ISZERO PUSH2 0x41F JUMPI PUSH2 0x41E PUSH2 0x31F JUMP JUMPDEST JUMPDEST PUSH2 0x42A DUP5 DUP3 DUP6 PUSH2 0x3E1 JUMP JUMPDEST POP SWAP4 SWAP3 POP POP POP JUMP JUMPDEST PUSH1 0x0 DUP3 PUSH1 0x1F DUP4 ADD SLT PUSH2 0x447 JUMPI PUSH2 0x446 PUSH2 0x31A JUMP JUMPDEST JUMPDEST DUP2 CALLDATALOAD PUSH2 0x457 DUP5 DUP3 PUSH1 0x20 DUP7 ADD PUSH2 0x3F0 JUMP JUMPDEST SWAP2 POP POP SWAP3 SWAP2 POP POP JUMP JUMPDEST PUSH1 0x0 DUP1 PUSH1 0x0 DUP1 PUSH1 0x0 PUSH1 0xA0 DUP7 DUP9 SUB SLT ISZERO PUSH2 0x47C JUMPI PUSH2 0x47B PUSH2 0x2DA JUMP JUMPDEST JUMPDEST PUSH1 0x0 PUSH2 0x48A DUP9 DUP3 DUP10 ADD PUSH2 0x305 JUMP JUMPDEST SWAP6 POP POP PUSH1 0x20 DUP7 ADD CALLDATALOAD PUSH8 0xFFFFFFFFFFFFFFFF DUP2 GT ISZERO PUSH2 0x4AB JUMPI PUSH2 0x4AA PUSH2 0x2DF JUMP JUMPDEST JUMPDEST PUSH2 0x4B7 DUP9 DUP3 DUP10 ADD PUSH2 0x432 JUMP JUMPDEST SWAP5 POP POP PUSH1 0x40 DUP7 ADD CALLDATALOAD PUSH8 0xFFFFFFFFFFFFFFFF DUP2 GT ISZERO PUSH2 0x4D8 JUMPI PUSH2 0x4D7 PUSH2 0x2DF JUMP JUMPDEST JUMPDEST PUSH2 0x4E4 DUP9 DUP3 DUP10 ADD PUSH2 0x432 JUMP JUMPDEST SWAP4 POP POP PUSH1 0x60 PUSH2 0x4F5 DUP9 DUP3 DUP10 ADD PUSH2 0x305 JUMP JUMPDEST SWAP3 POP POP PUSH1 0x80 PUSH2 0x506 DUP9 DUP3 DUP10 ADD PUSH2 0x305 JUMP JUMPDEST SWAP2 POP POP SWAP3 SWAP6 POP SWAP3 SWAP6 SWAP1 SWAP4 POP JUMP JUMPDEST PUSH1 0x0 PUSH1 0x20 DUP3 DUP5 SUB SLT ISZERO PUSH2 0x529 JUMPI PUSH2 0x528 PUSH2 0x2DA JUMP JUMPDEST JUMPDEST PUSH1 0x0 PUSH2 0x537 DUP5 DUP3 DUP6 ADD PUSH2 0x305 JUMP JUMPDEST SWAP2 POP POP SWAP3 SWAP2 POP POP JUMP JUMPDEST PUSH2 0x549 DUP2 PUSH2 0x2E4 JUMP JUMPDEST DUP3 MSTORE POP POP JUMP JUMPDEST PUSH1 0x0 PUSH1 0x20 DUP3 ADD SWAP1 POP PUSH2 0x564 PUSH1 0x0 DUP4 ADD DUP5 PUSH2 0x540 JUMP JUMPDEST SWAP3 SWAP2 POP POP JUMP JUMPDEST PUSH1 0x0 DUP2 MLOAD SWAP1 POP SWAP2 SWAP1 POP JUMP JUMPDEST PUSH1 0x0 DUP3 DUP3 MSTORE PUSH1 0x20 DUP3 ADD SWAP1 POP SWAP3 SWAP2 POP POP JUMP JUMPDEST PUSH1 0x0 JUMPDEST DUP4 DUP2 LT ISZERO PUSH2 0x5A4 JUMPI DUP1 DUP3 ADD MLOAD DUP2 DUP5 ADD MSTORE PUSH1 0x20 DUP2 ADD SWAP1 POP PUSH2 0x589 JUMP JUMPDEST PUSH1 0x0 DUP5 DUP5 ADD MSTORE POP POP POP POP JUMP JUMPDEST PUSH1 0x0 PUSH2 0x5BB DUP3 PUSH2 0x56A JUMP JUMPDEST PUSH2 0x5C5 DUP2 DUP6 PUSH2 0x575 JUMP JUMPDEST SWAP4 POP PUSH2 0x5D5 DUP2 DUP6 PUSH1 0x20 DUP7 ADD PUSH2 0x586 JUMP JUMPDEST PUSH2 0x5DE DUP2 PUSH2 0x324 JUMP JUMPDEST DUP5 ADD SWAP2 POP POP SWAP3 SWAP2 POP POP JUMP JUMPDEST PUSH1 0x0 PUSH1 0x80 DUP3 ADD SWAP1 POP PUSH2 0x5FE PUSH1 0x0 DUP4 ADD DUP8 PUSH2 0x540 JUMP JUMPDEST DUP2 DUP2 SUB PUSH1 0x20 DUP4 ADD MSTORE PUSH2 0x610 DUP2 DUP7 PUSH2 0x5B0 JUMP JUMPDEST SWAP1 POP DUP2 DUP2 SUB PUSH1 0x40 DUP4 ADD MSTORE PUSH2 0x624 DUP2 DUP6 PUSH2 0x5B0 JUMP JUMPDEST SWAP1 POP PUSH2 0x633 PUSH1 0x60 DUP4 ADD DUP5 PUSH2 0x540 JUMP JUMPDEST SWAP6 SWAP5 POP POP POP POP POP JUMP JUMPDEST PUSH32 0x4E487B7100000000000000000000000000000000000000000000000000000000 PUSH1 0x0 MSTORE PUSH1 0x22 PUSH1 0x4 MSTORE PUSH1 0x24 PUSH1 0x0 REVERT JUMPDEST PUSH1 0x0 PUSH1 0x2 DUP3 DIV SWAP1 POP PUSH1 0x1 DUP3 AND DUP1 PUSH2 0x683 JUMPI PUSH1 0x7F DUP3 AND SWAP2 POP JUMPDEST PUSH1 0x20 DUP3 LT DUP2 SUB PUSH2 0x696 JUMPI PUSH2 0x695 PUSH2 0x63C JUMP JUMPDEST JUMPDEST POP SWAP2 SWAP1 POP JUMP JUMPDEST PUSH1 0x0 DUP2 SWAP1 POP DUP2 PUSH1 0x0 MSTORE PUSH1 0x20 PUSH1 0x0 KECCAK256 SWAP1 POP SWAP2 SWAP1 POP JUMP JUMPDEST PUSH1 0x0 PUSH1 0x20 PUSH1 0x1F DUP4 ADD DIV SWAP1 POP SWAP2 SWAP1 POP JUMP JUMPDEST PUSH1 0x0 DUP3 DUP3 SHL SWAP1 POP SWAP3 SWAP2 POP POP JUMP JUMPDEST PUSH1 0x0 PUSH1 0x8 DUP4 MUL PUSH2 0x6FE PUSH32 0xFFFFFFFFFFFFFFFFFFFFFFFFFFFFFFFFFFFFFFFFFFFFFFFFFFFFFFFFFFFFFFFF DUP3 PUSH2 0x6C1 JUMP JUMPDEST PUSH2 0x708 DUP7 DUP4 PUSH2 0x6C1 JUMP JUMPDEST SWAP6 POP DUP1 NOT DUP5 AND SWAP4 POP DUP1 DUP7 AND DUP5 OR SWAP3 POP POP POP SWAP4 SWAP3 POP POP POP JUMP JUMPDEST PUSH1 0x0 DUP2 SWAP1 POP SWAP2 SWAP1 POP JUMP JUMPDEST PUSH1 0x0 PUSH2 0x745 PUSH2 0x740 PUSH2 0x73B DUP5 PUSH2 0x2E4 JUMP JUMPDEST PUSH2 0x720 JUMP JUMPDEST PUSH2 0x2E4 JUMP JUMPDEST SWAP1 POP SWAP2 SWAP1 POP JUMP JUMPDEST PUSH1 0x0 DUP2 SWAP1 POP SWAP2 SWAP1 POP JUMP JUMPDEST PUSH2 0x75F DUP4 PUSH2 0x72A JUMP JUMPDEST PUSH2 0x773 PUSH2 0x76B DUP3 PUSH2 0x74C JUMP JUMPDEST DUP5 DUP5 SLOAD PUSH2 0x6CE JUMP JUMPDEST DUP3 SSTORE POP POP POP POP JUMP JUMPDEST PUSH1 0x0 SWAP1 JUMP JUMPDEST PUSH2 0x788 PUSH2 0x77B JUMP JUMPDEST PUSH2 0x793 DUP2 DUP5 DUP5 PUSH2 0x756 JUMP JUMPDEST POP POP POP JUMP JUMPDEST JUMPDEST DUP2 DUP2 LT ISZERO PUSH2 0x7B7 JUMPI PUSH2 0x7AC PUSH1 0x0 DUP3 PUSH2 0x780 JUMP JUMPDEST PUSH1 0x1 DUP2 ADD SWAP1 POP PUSH2 0x799 JUMP JUMPDEST POP POP JUMP JUMPDEST PUSH1 0x1F DUP3 GT ISZERO PUSH2 0x7FC JUMPI PUSH2 0x7CD DUP2 PUSH2 0x69C JUMP JUMPDEST PUSH2 0x7D6 DUP5 PUSH2 0x6B1 JUMP JUMPDEST DUP2 ADD PUSH1 0x20 DUP6 LT ISZERO PUSH2 0x7E5 JUMPI DUP2 SWAP1 POP JUMPDEST PUSH2 0x7F9 PUSH2 0x7F1 DUP6 PUSH2 0x6B1 JUMP JUMPDEST DUP4 ADD DUP3 PUSH2 0x798 JUMP JUMPDEST POP POP JUMPDEST POP POP POP JUMP JUMPDEST PUSH1 0x0 DUP3 DUP3 SHR SWAP1 POP SWAP3 SWAP2 POP POP JUMP JUMPDEST PUSH1 0x0 PUSH2 0x81F PUSH1 0x0 NOT DUP5 PUSH1 0x8 MUL PUSH2 0x801 JUMP JUMPDEST NOT DUP1 DUP4 AND SWAP2 POP POP SWAP3 SWAP2 POP POP JUMP JUMPDEST PUSH1 0x0 PUSH2 0x838 DUP4 DUP4 PUSH2 0x80E JUMP JUMPDEST SWAP2 POP DUP3 PUSH1 0x2 MUL DUP3 OR SWAP1 POP SWAP3 SWAP2 POP POP JUMP JUMPDEST PUSH2 0x851 DUP3 PUSH2 0x56A JUMP JUMPDEST PUSH8 0xFFFFFFFFFFFFFFFF DUP2 GT ISZERO PUSH2 0x86A JUMPI PUSH2 0x869 PUSH2 0x335 JUMP JUMPDEST JUMPDEST PUSH2 0x874 DUP3 SLOAD PUSH2 0x66B JUMP JUMPDEST PUSH2 0x87F DUP3 DUP3 DUP6 PUSH2 0x7BB JUMP JUMPDEST PUSH1 0x0 PUSH1 0x20 SWAP1 POP PUSH1 0x1F DUP4 GT PUSH1 0x1 DUP2 EQ PUSH2 0x8B2 JUMPI PUSH1 0x0 DUP5 ISZERO PUSH2 0x8A0 JUMPI DUP3 DUP8 ADD MLOAD SWAP1 POP JUMPDEST PUSH2 0x8AA DUP6 DUP3 PUSH2 0x82C JUMP JUMPDEST DUP7 SSTORE POP PUSH2 0x912 JUMP JUMPDEST PUSH1 0x1F NOT DUP5 AND PUSH2 0x8C0 DUP7 PUSH2 0x69C JUMP JUMPDEST PUSH1 0x0 JUMPDEST DUP3 DUP2 LT ISZERO PUSH2 0x8E8 JUMPI DUP5 DUP10 ADD MLOAD DUP3 SSTORE PUSH1 0x1 DUP3 ADD SWAP2 POP PUSH1 0x20 DUP6 ADD SWAP5 POP PUSH1 0x20 DUP2 ADD SWAP1 POP PUSH2 0x8C3 JUMP JUMPDEST DUP7 DUP4 LT ISZERO PUSH2 0x905 JUMPI DUP5 DUP10 ADD MLOAD PUSH2 0x901 PUSH1 0x1F DUP10 AND DUP3 PUSH2 0x80E JUMP JUMPDEST DUP4 SSTORE POP JUMPDEST PUSH1 0x1 PUSH1 0x2 DUP9 MUL ADD DUP9 SSTORE POP POP POP JUMPDEST POP POP POP POP POP POP JUMP INVALID LOG2 PUSH5 0x6970667358 0x22 SLT KECCAK256 DUP7 0xEE 0xCA 0xDB 0xDB 0xB4 0xF8 JUMPI 0x2E DIV SWAP7 SMOD 0xB0 0xAA 0xE2 SWAP16 0x2D 0xD2 0xDA SSTORE 0xE9 CALLDATASIZE 0xD9 0xB1 PUSH13 0xE8F03917DF9FA164736F6C6343 STOP ADDMOD SLT STOP CALLER "
				},
				"gasEstimates": {
					"creation": {
						"codeDepositCost": "476800",
						"executionCost": "511",
						"totalCost": "477311"
					},
					"external": {
						"data(uint256)": "infinite",
						"regNo(uint256)": "infinite",
						"setter(uint256,string,string,uint256,uint256)": "infinite"
					}
				},
				"methodIdentifiers": {
					"data(uint256)": "f0ba8440",
					"regNo(uint256)": "ae71af65",
					"setter(uint256,string,string,uint256,uint256)": "5a9e21de"
				}
			},
			"storageLayout": {
				"storage": [
					{
						"astId": 16,
						"contract": "inheritance3.sol:batch",
						"label": "regNo",
						"offset": 0,
						"slot": "0",
						"type": "t_array(t_uint256)dyn_storage"
					},
					{
						"astId": 21,
						"contract": "inheritance3.sol:batch",
						"label": "data",
						"offset": 0,
						"slot": "1",
						"type": "t_mapping(t_uint256,t_struct(student)10_storage)"
					}
				],
				"types": {
					"t_array(t_uint256)dyn_storage": {
						"base": "t_uint256",
						"encoding": "dynamic_array",
						"label": "uint256[]",
						"numberOfBytes": "32"
					},
					"t_mapping(t_uint256,t_struct(student)10_storage)": {
						"encoding": "mapping",
						"key": "t_uint256",
						"label": "mapping(uint256 => struct studentrecord.student)",
						"numberOfBytes": "32",
						"value": "t_struct(student)10_storage"
					},
					"t_string_storage": {
						"encoding": "bytes",
						"label": "string",
						"numberOfBytes": "32"
					},
					"t_struct(student)10_storage": {
						"encoding": "inplace",
						"label": "struct studentrecord.student",
						"members": [
							{
								"astId": 3,
								"contract": "inheritance3.sol:batch",
								"label": "roll",
								"offset": 0,
								"slot": "0",
								"type": "t_uint256"
							},
							{
								"astId": 5,
								"contract": "inheritance3.sol:batch",
								"label": "name",
								"offset": 0,
								"slot": "1",
								"type": "t_string_storage"
							},
							{
								"astId": 7,
								"contract": "inheritance3.sol:batch",
								"label": "father_name",
								"offset": 0,
								"slot": "2",
								"type": "t_string_storage"
							},
							{
								"astId": 9,
								"contract": "inheritance3.sol:batch",
								"label": "class",
								"offset": 0,
								"slot": "3",
								"type": "t_uint256"
							}
						],
						"numberOfBytes": "128"
					},
					"t_uint256": {
						"encoding": "inplace",
						"label": "uint256",
						"numberOfBytes": "32"
					}
				}
			},
			"userdoc": {
				"kind": "user",
				"methods": {},
				"version": 1
			}
		}
	}
}