{
	"gulburgcolony.sol": {
		"GullburgColony": {
			"abi": [
				{
					"anonymous": false,
					"inputs": [
						{
							"indexed": false,
							"internalType": "uint256",
							"name": "plotId",
							"type": "uint256"
						}
					],
					"name": "PlotSold",
					"type": "event"
				},
				{
					"inputs": [
						{
							"internalType": "uint256",
							"name": "_plotId",
							"type": "uint256"
						},
						{
							"internalType": "string",
							"name": "_blockName",
							"type": "string"
						},
						{
							"internalType": "uint256",
							"name": "_nOfPlots",
							"type": "uint256"
						},
						{
							"internalType": "uint64",
							"name": "_perMarlaPrice",
							"type": "uint64"
						},
						{
							"internalType": "uint256",
							"name": "_sizeOfPlots",
							"type": "uint256"
						},
						{
							"internalType": "address",
							"name": "_onwer",
							"type": "address"
						},
						{
							"internalType": "bool",
							"name": "_isForSale",
							"type": "bool"
						}
					],
					"name": "ListPlotForsale",
					"outputs": [],
					"stateMutability": "nonpayable",
					"type": "function"
				},
				{
					"inputs": [
						{
							"internalType": "uint256",
							"name": "_plotId",
							"type": "uint256"
						}
					],
					"name": "buyPlot",
					"outputs": [],
					"stateMutability": "payable",
					"type": "function"
				},
				{
					"inputs": [
						{
							"internalType": "uint256",
							"name": "",
							"type": "uint256"
						}
					],
					"name": "plotIds",
					"outputs": [
						{
							"internalType": "uint256",
							"name": "",
							"type": "uint256"
						}
					],
					"stateMutability": "view",
					"type": "function"
				},
				{
					"inputs": [
						{
							"internalType": "uint256",
							"name": "",
							"type": "uint256"
						}
					],
					"name": "plots",
					"outputs": [
						{
							"internalType": "string",
							"name": "blockName",
							"type": "string"
						},
						{
							"internalType": "uint256",
							"name": "nOfPlots",
							"type": "uint256"
						},
						{
							"internalType": "uint64",
							"name": "perMarlaPrice",
							"type": "uint64"
						},
						{
							"internalType": "uint256",
							"name": "sizeOfPlots",
							"type": "uint256"
						},
						{
							"internalType": "address",
							"name": "onwer",
							"type": "address"
						},
						{
							"internalType": "bool",
							"name": "isForSale",
							"type": "bool"
						}
					],
					"stateMutability": "view",
					"type": "function"
				}
			],
			"devdoc": {
				"kind": "dev",
				"methods": {},
				"version": 1
			},
			"evm": {
				"assembly": "    /* \"gulburgcolony.sol\":60:1192  contract GullburgColony{... */\n  mstore(0x40, 0x80)\n  callvalue\n  dup1\n  iszero\n  tag_1\n  jumpi\n  0x00\n  dup1\n  revert\ntag_1:\n  pop\n  dataSize(sub_0)\n  dup1\n  dataOffset(sub_0)\n  0x00\n  codecopy\n  0x00\n  return\nstop\n\nsub_0: assembly {\n        /* \"gulburgcolony.sol\":60:1192  contract GullburgColony{... */\n      mstore(0x40, 0x80)\n      jumpi(tag_1, lt(calldatasize, 0x04))\n      shr(0xe0, calldataload(0x00))\n      dup1\n      0x05f11bc2\n      eq\n      tag_2\n      jumpi\n      dup1\n      0x61bf49ee\n      eq\n      tag_3\n      jumpi\n      dup1\n      0x7b1949d2\n      eq\n      tag_4\n      jumpi\n      dup1\n      0xa8f8944b\n      eq\n      tag_5\n      jumpi\n    tag_1:\n      0x00\n      dup1\n      revert\n        /* \"gulburgcolony.sol\":377:837  function ListPlotForsale(uint _plotId,string memory _blockName,uint _nOfPlots,... */\n    tag_2:\n      callvalue\n      dup1\n      iszero\n      tag_6\n      jumpi\n      0x00\n      dup1\n      revert\n    tag_6:\n      pop\n      tag_7\n      0x04\n      dup1\n      calldatasize\n      sub\n      dup2\n      add\n      swap1\n      tag_8\n      swap2\n      swap1\n      tag_9\n      jump\t// in\n    tag_8:\n      tag_10\n      jump\t// in\n    tag_7:\n      stop\n        /* \"gulburgcolony.sol\":271:306  mapping (uint => Plot) public plots */\n    tag_3:\n      callvalue\n      dup1\n      iszero\n      tag_11\n      jumpi\n      0x00\n      dup1\n      revert\n    tag_11:\n      pop\n      tag_12\n      0x04\n      dup1\n      calldatasize\n      sub\n      dup2\n      add\n      swap1\n      tag_13\n      swap2\n      swap1\n      tag_14\n      jump\t// in\n    tag_13:\n      tag_15\n      jump\t// in\n    tag_12:\n      mload(0x40)\n      tag_16\n      swap7\n      swap6\n      swap5\n      swap4\n      swap3\n      swap2\n      swap1\n      tag_17\n      jump\t// in\n    tag_16:\n      mload(0x40)\n      dup1\n      swap2\n      sub\n      swap1\n      return\n        /* \"gulburgcolony.sol\":843:1185  function buyPlot(uint _plotId)public payable  {... */\n    tag_4:\n      tag_18\n      0x04\n      dup1\n      calldatasize\n      sub\n      dup2\n      add\n      swap1\n      tag_19\n      swap2\n      swap1\n      tag_14\n      jump\t// in\n    tag_19:\n      tag_20\n      jump\t// in\n    tag_18:\n      stop\n        /* \"gulburgcolony.sol\":313:334  uint[] public plotIds */\n    tag_5:\n      callvalue\n      dup1\n      iszero\n      tag_21\n      jumpi\n      0x00\n      dup1\n      revert\n    tag_21:\n      pop\n      tag_22\n      0x04\n      dup1\n      calldatasize\n      sub\n      dup2\n      add\n      swap1\n      tag_23\n      swap2\n      swap1\n      tag_14\n      jump\t// in\n    tag_23:\n      tag_24\n      jump\t// in\n    tag_22:\n      mload(0x40)\n      tag_25\n      swap2\n      swap1\n      tag_26\n      jump\t// in\n    tag_25:\n      mload(0x40)\n      dup1\n      swap2\n      sub\n      swap1\n      return\n        /* \"gulburgcolony.sol\":377:837  function ListPlotForsale(uint _plotId,string memory _blockName,uint _nOfPlots,... */\n    tag_10:\n        /* \"gulburgcolony.sol\":546:565  Plot memory newPlot */\n      0x00\n        /* \"gulburgcolony.sol\":566:769  Plot({... */\n      mload(0x40)\n      dup1\n      0xc0\n      add\n      0x40\n      mstore\n      dup1\n        /* \"gulburgcolony.sol\":594:604  _blockName */\n      dup9\n        /* \"gulburgcolony.sol\":566:769  Plot({... */\n      dup2\n      mstore\n      0x20\n      add\n        /* \"gulburgcolony.sol\":624:633  _nOfPlots */\n      dup8\n        /* \"gulburgcolony.sol\":566:769  Plot({... */\n      dup2\n      mstore\n      0x20\n      add\n        /* \"gulburgcolony.sol\":658:672  _perMarlaPrice */\n      dup7\n        /* \"gulburgcolony.sol\":566:769  Plot({... */\n      0xffffffffffffffff\n      and\n      dup2\n      mstore\n      0x20\n      add\n        /* \"gulburgcolony.sol\":695:707  _sizeOfPlots */\n      dup6\n        /* \"gulburgcolony.sol\":566:769  Plot({... */\n      dup2\n      mstore\n      0x20\n      add\n        /* \"gulburgcolony.sol\":724:734  msg.sender */\n      caller\n        /* \"gulburgcolony.sol\":566:769  Plot({... */\n      0xffffffffffffffffffffffffffffffffffffffff\n      and\n      dup2\n      mstore\n      0x20\n      add\n        /* \"gulburgcolony.sol\":755:759  true */\n      0x01\n        /* \"gulburgcolony.sol\":566:769  Plot({... */\n      iszero\n      iszero\n      dup2\n      mstore\n      pop\n        /* \"gulburgcolony.sol\":546:769  Plot memory newPlot=Plot({... */\n      swap1\n      pop\n        /* \"gulburgcolony.sol\":794:801  newPlot */\n      dup1\n        /* \"gulburgcolony.sol\":776:781  plots */\n      0x00\n        /* \"gulburgcolony.sol\":776:791  plots [_plotId] */\n      dup1\n        /* \"gulburgcolony.sol\":783:790  _plotId */\n      dup11\n        /* \"gulburgcolony.sol\":776:791  plots [_plotId] */\n      dup2\n      mstore\n      0x20\n      add\n      swap1\n      dup2\n      mstore\n      0x20\n      add\n      0x00\n      keccak256\n        /* \"gulburgcolony.sol\":776:801  plots [_plotId] = newPlot */\n      0x00\n      dup3\n      add\n      mload\n      dup2\n      0x00\n      add\n      swap1\n      dup2\n      tag_28\n      swap2\n      swap1\n      tag_29\n      jump\t// in\n    tag_28:\n      pop\n      0x20\n      dup3\n      add\n      mload\n      dup2\n      0x01\n      add\n      sstore\n      0x40\n      dup3\n      add\n      mload\n      dup2\n      0x02\n      add\n      exp(0x0100, 0x00)\n      dup2\n      sload\n      dup2\n      0xffffffffffffffff\n      mul\n      not\n      and\n      swap1\n      dup4\n      0xffffffffffffffff\n      and\n      mul\n      or\n      swap1\n      sstore\n      pop\n      0x60\n      dup3\n      add\n      mload\n      dup2\n      0x03\n      add\n      sstore\n      0x80\n      dup3\n      add\n      mload\n      dup2\n      0x04\n      add\n      exp(0x0100, 0x00)\n      dup2\n      sload\n      dup2\n      0xffffffffffffffffffffffffffffffffffffffff\n      mul\n      not\n      and\n      swap1\n      dup4\n      0xffffffffffffffffffffffffffffffffffffffff\n      and\n      mul\n      or\n      swap1\n      sstore\n      pop\n      0xa0\n      dup3\n      add\n      mload\n      dup2\n      0x04\n      add\n      exp(0x0100, 0x14)\n      dup2\n      sload\n      dup2\n      0xff\n      mul\n      not\n      and\n      swap1\n      dup4\n      iszero\n      iszero\n      mul\n      or\n      swap1\n      sstore\n      pop\n      swap1\n      pop\n      pop\n        /* \"gulburgcolony.sol\":808:815  plotIds */\n      0x01\n        /* \"gulburgcolony.sol\":821:828  _plotId */\n      dup9\n        /* \"gulburgcolony.sol\":808:829  plotIds.push(_plotId) */\n      swap1\n      dup1\n      0x01\n      dup2\n      sload\n      add\n      dup1\n      dup3\n      sstore\n      dup1\n      swap2\n      pop\n      pop\n      0x01\n      swap1\n      sub\n      swap1\n      0x00\n      mstore\n      keccak256(0x00, 0x20)\n      add\n      0x00\n      swap1\n      swap2\n      swap1\n      swap2\n      swap1\n      swap2\n      pop\n      sstore\n        /* \"gulburgcolony.sol\":539:837  {... */\n      pop\n        /* \"gulburgcolony.sol\":377:837  function ListPlotForsale(uint _plotId,string memory _blockName,uint _nOfPlots,... */\n      pop\n      pop\n      pop\n      pop\n      pop\n      pop\n      pop\n      jump\t// out\n        /* \"gulburgcolony.sol\":271:306  mapping (uint => Plot) public plots */\n    tag_15:\n      mstore(0x20, 0x00)\n      dup1\n      0x00\n      mstore\n      keccak256(0x00, 0x40)\n      0x00\n      swap2\n      pop\n      swap1\n      pop\n      dup1\n      0x00\n      add\n      dup1\n      sload\n      tag_31\n      swap1\n      tag_32\n      jump\t// in\n    tag_31:\n      dup1\n      0x1f\n      add\n      0x20\n      dup1\n      swap2\n      div\n      mul\n      0x20\n      add\n      mload(0x40)\n      swap1\n      dup2\n      add\n      0x40\n      mstore\n      dup1\n      swap3\n      swap2\n      swap1\n      dup2\n      dup2\n      mstore\n      0x20\n      add\n      dup3\n      dup1\n      sload\n      tag_33\n      swap1\n      tag_32\n      jump\t// in\n    tag_33:\n      dup1\n      iszero\n      tag_34\n      jumpi\n      dup1\n      0x1f\n      lt\n      tag_35\n      jumpi\n      0x0100\n      dup1\n      dup4\n      sload\n      div\n      mul\n      dup4\n      mstore\n      swap2\n      0x20\n      add\n      swap2\n      jump(tag_34)\n    tag_35:\n      dup3\n      add\n      swap2\n      swap1\n      0x00\n      mstore\n      keccak256(0x00, 0x20)\n      swap1\n    tag_36:\n      dup2\n      sload\n      dup2\n      mstore\n      swap1\n      0x01\n      add\n      swap1\n      0x20\n      add\n      dup1\n      dup4\n      gt\n      tag_36\n      jumpi\n      dup3\n      swap1\n      sub\n      0x1f\n      and\n      dup3\n      add\n      swap2\n    tag_34:\n      pop\n      pop\n      pop\n      pop\n      pop\n      swap1\n      dup1\n      0x01\n      add\n      sload\n      swap1\n      dup1\n      0x02\n      add\n      0x00\n      swap1\n      sload\n      swap1\n      0x0100\n      exp\n      swap1\n      div\n      0xffffffffffffffff\n      and\n      swap1\n      dup1\n      0x03\n      add\n      sload\n      swap1\n      dup1\n      0x04\n      add\n      0x00\n      swap1\n      sload\n      swap1\n      0x0100\n      exp\n      swap1\n      div\n      0xffffffffffffffffffffffffffffffffffffffff\n      and\n      swap1\n      dup1\n      0x04\n      add\n      0x14\n      swap1\n      sload\n      swap1\n      0x0100\n      exp\n      swap1\n      div\n      0xff\n      and\n      swap1\n      pop\n      dup7\n      jump\t// out\n        /* \"gulburgcolony.sol\":843:1185  function buyPlot(uint _plotId)public payable  {... */\n    tag_20:\n        /* \"gulburgcolony.sol\":900:917  Plot storage plot */\n      0x00\n        /* \"gulburgcolony.sol\":920:925  plots */\n      dup1\n        /* \"gulburgcolony.sol\":920:934  plots[_plotId] */\n      0x00\n        /* \"gulburgcolony.sol\":926:933  _plotId */\n      dup4\n        /* \"gulburgcolony.sol\":920:934  plots[_plotId] */\n      dup2\n      mstore\n      0x20\n      add\n      swap1\n      dup2\n      mstore\n      0x20\n      add\n      0x00\n      keccak256\n        /* \"gulburgcolony.sol\":900:934  Plot storage plot = plots[_plotId] */\n      swap1\n      pop\n        /* \"gulburgcolony.sol\":959:963  plot */\n      dup1\n        /* \"gulburgcolony.sol\":959:973  plot.isForSale */\n      0x04\n      add\n      0x14\n      swap1\n      sload\n      swap1\n      0x0100\n      exp\n      swap1\n      div\n      0xff\n      and\n        /* \"gulburgcolony.sol\":951:1001  require(plot.isForSale,\"Property is not for sale\") */\n      tag_38\n      jumpi\n      mload(0x40)\n      0x08c379a000000000000000000000000000000000000000000000000000000000\n      dup2\n      mstore\n      0x04\n      add\n      tag_39\n      swap1\n      tag_40\n      jump\t// in\n    tag_39:\n      mload(0x40)\n      dup1\n      swap2\n      sub\n      swap1\n      revert\n    tag_38:\n        /* \"gulburgcolony.sol\":1037:1047  msg.sender */\n      caller\n        /* \"gulburgcolony.sol\":1024:1028  plot */\n      dup2\n        /* \"gulburgcolony.sol\":1024:1034  plot.onwer */\n      0x04\n      add\n      0x00\n        /* \"gulburgcolony.sol\":1024:1047  plot.onwer = msg.sender */\n      0x0100\n      exp\n      dup2\n      sload\n      dup2\n      0xffffffffffffffffffffffffffffffffffffffff\n      mul\n      not\n      and\n      swap1\n      dup4\n      0xffffffffffffffffffffffffffffffffffffffff\n      and\n      mul\n      or\n      swap1\n      sstore\n      pop\n        /* \"gulburgcolony.sol\":1075:1080  false */\n      0x00\n        /* \"gulburgcolony.sol\":1058:1062  plot */\n      dup2\n        /* \"gulburgcolony.sol\":1058:1072  plot.isForSale */\n      0x04\n      add\n      0x14\n        /* \"gulburgcolony.sol\":1058:1080  plot.isForSale = false */\n      0x0100\n      exp\n      dup2\n      sload\n      dup2\n      0xff\n      mul\n      not\n      and\n      swap1\n      dup4\n      iszero\n      iszero\n      mul\n      or\n      swap1\n      sstore\n      pop\n        /* \"gulburgcolony.sol\":1102:1106  plot */\n      dup1\n        /* \"gulburgcolony.sol\":1102:1112  plot.onwer */\n      0x04\n      add\n      0x00\n      swap1\n      sload\n      swap1\n      0x0100\n      exp\n      swap1\n      div\n      0xffffffffffffffffffffffffffffffffffffffff\n      and\n        /* \"gulburgcolony.sol\":1093:1122  payable (plot.onwer).transfer */\n      0xffffffffffffffffffffffffffffffffffffffff\n      and\n        /* \"gulburgcolony.sol\":1093:1142  payable (plot.onwer).transfer(plot.perMarlaPrice) */\n      0x08fc\n        /* \"gulburgcolony.sol\":1123:1127  plot */\n      dup3\n        /* \"gulburgcolony.sol\":1123:1141  plot.perMarlaPrice */\n      0x02\n      add\n      0x00\n      swap1\n      sload\n      swap1\n      0x0100\n      exp\n      swap1\n      div\n      0xffffffffffffffff\n      and\n        /* \"gulburgcolony.sol\":1093:1142  payable (plot.onwer).transfer(plot.perMarlaPrice) */\n      0xffffffffffffffff\n      and\n      swap1\n      dup2\n      iszero\n      mul\n      swap1\n      mload(0x40)\n      0x00\n      mload(0x40)\n      dup1\n      dup4\n      sub\n      dup2\n      dup6\n      dup9\n      dup9\n      call\n      swap4\n      pop\n      pop\n      pop\n      pop\n      iszero\n      dup1\n      iszero\n      tag_42\n      jumpi\n      returndatasize\n      0x00\n      dup1\n      returndatacopy\n      revert(0x00, returndatasize)\n    tag_42:\n      pop\n        /* \"gulburgcolony.sol\":1160:1177  PlotSold(_plotId) */\n      0x2a19094f8a23c09211f9b12c6c5cc9c09654ff760b0e05983e18a202b36f972c\n        /* \"gulburgcolony.sol\":1169:1176  _plotId */\n      dup3\n        /* \"gulburgcolony.sol\":1160:1177  PlotSold(_plotId) */\n      mload(0x40)\n      tag_43\n      swap2\n      swap1\n      tag_26\n      jump\t// in\n    tag_43:\n      mload(0x40)\n      dup1\n      swap2\n      sub\n      swap1\n      log1\n        /* \"gulburgcolony.sol\":889:1185  {... */\n      pop\n        /* \"gulburgcolony.sol\":843:1185  function buyPlot(uint _plotId)public payable  {... */\n      pop\n      jump\t// out\n        /* \"gulburgcolony.sol\":313:334  uint[] public plotIds */\n    tag_24:\n      0x01\n      dup2\n      dup2\n      sload\n      dup2\n      lt\n      tag_44\n      jumpi\n      0x00\n      dup1\n      revert\n    tag_44:\n      swap1\n      0x00\n      mstore\n      keccak256(0x00, 0x20)\n      add\n      0x00\n      swap2\n      pop\n      swap1\n      pop\n      sload\n      dup2\n      jump\t// out\n        /* \"#utility.yul\":7:82   */\n    tag_46:\n        /* \"#utility.yul\":40:46   */\n      0x00\n        /* \"#utility.yul\":73:75   */\n      0x40\n        /* \"#utility.yul\":67:76   */\n      mload\n        /* \"#utility.yul\":57:76   */\n      swap1\n      pop\n        /* \"#utility.yul\":7:82   */\n      swap1\n      jump\t// out\n        /* \"#utility.yul\":88:205   */\n    tag_47:\n        /* \"#utility.yul\":197:198   */\n      0x00\n        /* \"#utility.yul\":194:195   */\n      dup1\n        /* \"#utility.yul\":187:199   */\n      revert\n        /* \"#utility.yul\":211:328   */\n    tag_48:\n        /* \"#utility.yul\":320:321   */\n      0x00\n        /* \"#utility.yul\":317:318   */\n      dup1\n        /* \"#utility.yul\":310:322   */\n      revert\n        /* \"#utility.yul\":334:411   */\n    tag_49:\n        /* \"#utility.yul\":371:378   */\n      0x00\n        /* \"#utility.yul\":400:405   */\n      dup2\n        /* \"#utility.yul\":389:405   */\n      swap1\n      pop\n        /* \"#utility.yul\":334:411   */\n      swap2\n      swap1\n      pop\n      jump\t// out\n        /* \"#utility.yul\":417:539   */\n    tag_50:\n        /* \"#utility.yul\":490:514   */\n      tag_104\n        /* \"#utility.yul\":508:513   */\n      dup2\n        /* \"#utility.yul\":490:514   */\n      tag_49\n      jump\t// in\n    tag_104:\n        /* \"#utility.yul\":483:488   */\n      dup2\n        /* \"#utility.yul\":480:515   */\n      eq\n        /* \"#utility.yul\":470:533   */\n      tag_105\n      jumpi\n        /* \"#utility.yul\":529:530   */\n      0x00\n        /* \"#utility.yul\":526:527   */\n      dup1\n        /* \"#utility.yul\":519:531   */\n      revert\n        /* \"#utility.yul\":470:533   */\n    tag_105:\n        /* \"#utility.yul\":417:539   */\n      pop\n      jump\t// out\n        /* \"#utility.yul\":545:684   */\n    tag_51:\n        /* \"#utility.yul\":591:596   */\n      0x00\n        /* \"#utility.yul\":629:635   */\n      dup2\n        /* \"#utility.yul\":616:636   */\n      calldataload\n        /* \"#utility.yul\":607:636   */\n      swap1\n      pop\n        /* \"#utility.yul\":645:678   */\n      tag_107\n        /* \"#utility.yul\":672:677   */\n      dup2\n        /* \"#utility.yul\":645:678   */\n      tag_50\n      jump\t// in\n    tag_107:\n        /* \"#utility.yul\":545:684   */\n      swap3\n      swap2\n      pop\n      pop\n      jump\t// out\n        /* \"#utility.yul\":690:807   */\n    tag_52:\n        /* \"#utility.yul\":799:800   */\n      0x00\n        /* \"#utility.yul\":796:797   */\n      dup1\n        /* \"#utility.yul\":789:801   */\n      revert\n        /* \"#utility.yul\":813:930   */\n    tag_53:\n        /* \"#utility.yul\":922:923   */\n      0x00\n        /* \"#utility.yul\":919:920   */\n      dup1\n        /* \"#utility.yul\":912:924   */\n      revert\n        /* \"#utility.yul\":936:1038   */\n    tag_54:\n        /* \"#utility.yul\":977:983   */\n      0x00\n        /* \"#utility.yul\":1028:1030   */\n      0x1f\n        /* \"#utility.yul\":1024:1031   */\n      not\n        /* \"#utility.yul\":1019:1021   */\n      0x1f\n        /* \"#utility.yul\":1012:1017   */\n      dup4\n        /* \"#utility.yul\":1008:1022   */\n      add\n        /* \"#utility.yul\":1004:1032   */\n      and\n        /* \"#utility.yul\":994:1032   */\n      swap1\n      pop\n        /* \"#utility.yul\":936:1038   */\n      swap2\n      swap1\n      pop\n      jump\t// out\n        /* \"#utility.yul\":1044:1224   */\n    tag_55:\n        /* \"#utility.yul\":1092:1169   */\n      0x4e487b7100000000000000000000000000000000000000000000000000000000\n        /* \"#utility.yul\":1089:1090   */\n      0x00\n        /* \"#utility.yul\":1082:1170   */\n      mstore\n        /* \"#utility.yul\":1189:1193   */\n      0x41\n        /* \"#utility.yul\":1186:1187   */\n      0x04\n        /* \"#utility.yul\":1179:1194   */\n      mstore\n        /* \"#utility.yul\":1213:1217   */\n      0x24\n        /* \"#utility.yul\":1210:1211   */\n      0x00\n        /* \"#utility.yul\":1203:1218   */\n      revert\n        /* \"#utility.yul\":1230:1511   */\n    tag_56:\n        /* \"#utility.yul\":1313:1340   */\n      tag_113\n        /* \"#utility.yul\":1335:1339   */\n      dup3\n        /* \"#utility.yul\":1313:1340   */\n      tag_54\n      jump\t// in\n    tag_113:\n        /* \"#utility.yul\":1305:1311   */\n      dup2\n        /* \"#utility.yul\":1301:1341   */\n      add\n        /* \"#utility.yul\":1443:1449   */\n      dup2\n        /* \"#utility.yul\":1431:1441   */\n      dup2\n        /* \"#utility.yul\":1428:1450   */\n      lt\n        /* \"#utility.yul\":1407:1425   */\n      0xffffffffffffffff\n        /* \"#utility.yul\":1395:1405   */\n      dup3\n        /* \"#utility.yul\":1392:1426   */\n      gt\n        /* \"#utility.yul\":1389:1451   */\n      or\n        /* \"#utility.yul\":1386:1474   */\n      iszero\n      tag_114\n      jumpi\n        /* \"#utility.yul\":1454:1472   */\n      tag_115\n      tag_55\n      jump\t// in\n    tag_115:\n        /* \"#utility.yul\":1386:1474   */\n    tag_114:\n        /* \"#utility.yul\":1494:1504   */\n      dup1\n        /* \"#utility.yul\":1490:1492   */\n      0x40\n        /* \"#utility.yul\":1483:1505   */\n      mstore\n        /* \"#utility.yul\":1273:1511   */\n      pop\n        /* \"#utility.yul\":1230:1511   */\n      pop\n      pop\n      jump\t// out\n        /* \"#utility.yul\":1517:1646   */\n    tag_57:\n        /* \"#utility.yul\":1551:1557   */\n      0x00\n        /* \"#utility.yul\":1578:1598   */\n      tag_117\n      tag_46\n      jump\t// in\n    tag_117:\n        /* \"#utility.yul\":1568:1598   */\n      swap1\n      pop\n        /* \"#utility.yul\":1607:1640   */\n      tag_118\n        /* \"#utility.yul\":1635:1639   */\n      dup3\n        /* \"#utility.yul\":1627:1633   */\n      dup3\n        /* \"#utility.yul\":1607:1640   */\n      tag_56\n      jump\t// in\n    tag_118:\n        /* \"#utility.yul\":1517:1646   */\n      swap2\n      swap1\n      pop\n      jump\t// out\n        /* \"#utility.yul\":1652:1960   */\n    tag_58:\n        /* \"#utility.yul\":1714:1718   */\n      0x00\n        /* \"#utility.yul\":1804:1822   */\n      0xffffffffffffffff\n        /* \"#utility.yul\":1796:1802   */\n      dup3\n        /* \"#utility.yul\":1793:1823   */\n      gt\n        /* \"#utility.yul\":1790:1846   */\n      iszero\n      tag_120\n      jumpi\n        /* \"#utility.yul\":1826:1844   */\n      tag_121\n      tag_55\n      jump\t// in\n    tag_121:\n        /* \"#utility.yul\":1790:1846   */\n    tag_120:\n        /* \"#utility.yul\":1864:1893   */\n      tag_122\n        /* \"#utility.yul\":1886:1892   */\n      dup3\n        /* \"#utility.yul\":1864:1893   */\n      tag_54\n      jump\t// in\n    tag_122:\n        /* \"#utility.yul\":1856:1893   */\n      swap1\n      pop\n        /* \"#utility.yul\":1948:1952   */\n      0x20\n        /* \"#utility.yul\":1942:1946   */\n      dup2\n        /* \"#utility.yul\":1938:1953   */\n      add\n        /* \"#utility.yul\":1930:1953   */\n      swap1\n      pop\n        /* \"#utility.yul\":1652:1960   */\n      swap2\n      swap1\n      pop\n      jump\t// out\n        /* \"#utility.yul\":1966:2112   */\n    tag_59:\n        /* \"#utility.yul\":2063:2069   */\n      dup3\n        /* \"#utility.yul\":2058:2061   */\n      dup2\n        /* \"#utility.yul\":2053:2056   */\n      dup4\n        /* \"#utility.yul\":2040:2070   */\n      calldatacopy\n        /* \"#utility.yul\":2104:2105   */\n      0x00\n        /* \"#utility.yul\":2095:2101   */\n      dup4\n        /* \"#utility.yul\":2090:2093   */\n      dup4\n        /* \"#utility.yul\":2086:2102   */\n      add\n        /* \"#utility.yul\":2079:2106   */\n      mstore\n        /* \"#utility.yul\":1966:2112   */\n      pop\n      pop\n      pop\n      jump\t// out\n        /* \"#utility.yul\":2118:2543   */\n    tag_60:\n        /* \"#utility.yul\":2196:2201   */\n      0x00\n        /* \"#utility.yul\":2221:2287   */\n      tag_125\n        /* \"#utility.yul\":2237:2286   */\n      tag_126\n        /* \"#utility.yul\":2279:2285   */\n      dup5\n        /* \"#utility.yul\":2237:2286   */\n      tag_58\n      jump\t// in\n    tag_126:\n        /* \"#utility.yul\":2221:2287   */\n      tag_57\n      jump\t// in\n    tag_125:\n        /* \"#utility.yul\":2212:2287   */\n      swap1\n      pop\n        /* \"#utility.yul\":2310:2316   */\n      dup3\n        /* \"#utility.yul\":2303:2308   */\n      dup2\n        /* \"#utility.yul\":2296:2317   */\n      mstore\n        /* \"#utility.yul\":2348:2352   */\n      0x20\n        /* \"#utility.yul\":2341:2346   */\n      dup2\n        /* \"#utility.yul\":2337:2353   */\n      add\n        /* \"#utility.yul\":2386:2389   */\n      dup5\n        /* \"#utility.yul\":2377:2383   */\n      dup5\n        /* \"#utility.yul\":2372:2375   */\n      dup5\n        /* \"#utility.yul\":2368:2384   */\n      add\n        /* \"#utility.yul\":2365:2390   */\n      gt\n        /* \"#utility.yul\":2362:2474   */\n      iszero\n      tag_127\n      jumpi\n        /* \"#utility.yul\":2393:2472   */\n      tag_128\n      tag_53\n      jump\t// in\n    tag_128:\n        /* \"#utility.yul\":2362:2474   */\n    tag_127:\n        /* \"#utility.yul\":2483:2537   */\n      tag_129\n        /* \"#utility.yul\":2530:2536   */\n      dup5\n        /* \"#utility.yul\":2525:2528   */\n      dup3\n        /* \"#utility.yul\":2520:2523   */\n      dup6\n        /* \"#utility.yul\":2483:2537   */\n      tag_59\n      jump\t// in\n    tag_129:\n        /* \"#utility.yul\":2202:2543   */\n      pop\n        /* \"#utility.yul\":2118:2543   */\n      swap4\n      swap3\n      pop\n      pop\n      pop\n      jump\t// out\n        /* \"#utility.yul\":2563:2903   */\n    tag_61:\n        /* \"#utility.yul\":2619:2624   */\n      0x00\n        /* \"#utility.yul\":2668:2671   */\n      dup3\n        /* \"#utility.yul\":2661:2665   */\n      0x1f\n        /* \"#utility.yul\":2653:2659   */\n      dup4\n        /* \"#utility.yul\":2649:2666   */\n      add\n        /* \"#utility.yul\":2645:2672   */\n      slt\n        /* \"#utility.yul\":2635:2757   */\n      tag_131\n      jumpi\n        /* \"#utility.yul\":2676:2755   */\n      tag_132\n      tag_52\n      jump\t// in\n    tag_132:\n        /* \"#utility.yul\":2635:2757   */\n    tag_131:\n        /* \"#utility.yul\":2793:2799   */\n      dup2\n        /* \"#utility.yul\":2780:2800   */\n      calldataload\n        /* \"#utility.yul\":2818:2897   */\n      tag_133\n        /* \"#utility.yul\":2893:2896   */\n      dup5\n        /* \"#utility.yul\":2885:2891   */\n      dup3\n        /* \"#utility.yul\":2878:2882   */\n      0x20\n        /* \"#utility.yul\":2870:2876   */\n      dup7\n        /* \"#utility.yul\":2866:2883   */\n      add\n        /* \"#utility.yul\":2818:2897   */\n      tag_60\n      jump\t// in\n    tag_133:\n        /* \"#utility.yul\":2809:2897   */\n      swap2\n      pop\n        /* \"#utility.yul\":2625:2903   */\n      pop\n        /* \"#utility.yul\":2563:2903   */\n      swap3\n      swap2\n      pop\n      pop\n      jump\t// out\n        /* \"#utility.yul\":2909:3010   */\n    tag_62:\n        /* \"#utility.yul\":2945:2952   */\n      0x00\n        /* \"#utility.yul\":2985:3003   */\n      0xffffffffffffffff\n        /* \"#utility.yul\":2978:2983   */\n      dup3\n        /* \"#utility.yul\":2974:3004   */\n      and\n        /* \"#utility.yul\":2963:3004   */\n      swap1\n      pop\n        /* \"#utility.yul\":2909:3010   */\n      swap2\n      swap1\n      pop\n      jump\t// out\n        /* \"#utility.yul\":3016:3136   */\n    tag_63:\n        /* \"#utility.yul\":3088:3111   */\n      tag_136\n        /* \"#utility.yul\":3105:3110   */\n      dup2\n        /* \"#utility.yul\":3088:3111   */\n      tag_62\n      jump\t// in\n    tag_136:\n        /* \"#utility.yul\":3081:3086   */\n      dup2\n        /* \"#utility.yul\":3078:3112   */\n      eq\n        /* \"#utility.yul\":3068:3130   */\n      tag_137\n      jumpi\n        /* \"#utility.yul\":3126:3127   */\n      0x00\n        /* \"#utility.yul\":3123:3124   */\n      dup1\n        /* \"#utility.yul\":3116:3128   */\n      revert\n        /* \"#utility.yul\":3068:3130   */\n    tag_137:\n        /* \"#utility.yul\":3016:3136   */\n      pop\n      jump\t// out\n        /* \"#utility.yul\":3142:3279   */\n    tag_64:\n        /* \"#utility.yul\":3187:3192   */\n      0x00\n        /* \"#utility.yul\":3225:3231   */\n      dup2\n        /* \"#utility.yul\":3212:3232   */\n      calldataload\n        /* \"#utility.yul\":3203:3232   */\n      swap1\n      pop\n        /* \"#utility.yul\":3241:3273   */\n      tag_139\n        /* \"#utility.yul\":3267:3272   */\n      dup2\n        /* \"#utility.yul\":3241:3273   */\n      tag_63\n      jump\t// in\n    tag_139:\n        /* \"#utility.yul\":3142:3279   */\n      swap3\n      swap2\n      pop\n      pop\n      jump\t// out\n        /* \"#utility.yul\":3285:3411   */\n    tag_65:\n        /* \"#utility.yul\":3322:3329   */\n      0x00\n        /* \"#utility.yul\":3362:3404   */\n      0xffffffffffffffffffffffffffffffffffffffff\n        /* \"#utility.yul\":3355:3360   */\n      dup3\n        /* \"#utility.yul\":3351:3405   */\n      and\n        /* \"#utility.yul\":3340:3405   */\n      swap1\n      pop\n        /* \"#utility.yul\":3285:3411   */\n      swap2\n      swap1\n      pop\n      jump\t// out\n        /* \"#utility.yul\":3417:3513   */\n    tag_66:\n        /* \"#utility.yul\":3454:3461   */\n      0x00\n        /* \"#utility.yul\":3483:3507   */\n      tag_142\n        /* \"#utility.yul\":3501:3506   */\n      dup3\n        /* \"#utility.yul\":3483:3507   */\n      tag_65\n      jump\t// in\n    tag_142:\n        /* \"#utility.yul\":3472:3507   */\n      swap1\n      pop\n        /* \"#utility.yul\":3417:3513   */\n      swap2\n      swap1\n      pop\n      jump\t// out\n        /* \"#utility.yul\":3519:3641   */\n    tag_67:\n        /* \"#utility.yul\":3592:3616   */\n      tag_144\n        /* \"#utility.yul\":3610:3615   */\n      dup2\n        /* \"#utility.yul\":3592:3616   */\n      tag_66\n      jump\t// in\n    tag_144:\n        /* \"#utility.yul\":3585:3590   */\n      dup2\n        /* \"#utility.yul\":3582:3617   */\n      eq\n        /* \"#utility.yul\":3572:3635   */\n      tag_145\n      jumpi\n        /* \"#utility.yul\":3631:3632   */\n      0x00\n        /* \"#utility.yul\":3628:3629   */\n      dup1\n        /* \"#utility.yul\":3621:3633   */\n      revert\n        /* \"#utility.yul\":3572:3635   */\n    tag_145:\n        /* \"#utility.yul\":3519:3641   */\n      pop\n      jump\t// out\n        /* \"#utility.yul\":3647:3786   */\n    tag_68:\n        /* \"#utility.yul\":3693:3698   */\n      0x00\n        /* \"#utility.yul\":3731:3737   */\n      dup2\n        /* \"#utility.yul\":3718:3738   */\n      calldataload\n        /* \"#utility.yul\":3709:3738   */\n      swap1\n      pop\n        /* \"#utility.yul\":3747:3780   */\n      tag_147\n        /* \"#utility.yul\":3774:3779   */\n      dup2\n        /* \"#utility.yul\":3747:3780   */\n      tag_67\n      jump\t// in\n    tag_147:\n        /* \"#utility.yul\":3647:3786   */\n      swap3\n      swap2\n      pop\n      pop\n      jump\t// out\n        /* \"#utility.yul\":3792:3882   */\n    tag_69:\n        /* \"#utility.yul\":3826:3833   */\n      0x00\n        /* \"#utility.yul\":3869:3874   */\n      dup2\n        /* \"#utility.yul\":3862:3875   */\n      iszero\n        /* \"#utility.yul\":3855:3876   */\n      iszero\n        /* \"#utility.yul\":3844:3876   */\n      swap1\n      pop\n        /* \"#utility.yul\":3792:3882   */\n      swap2\n      swap1\n      pop\n      jump\t// out\n        /* \"#utility.yul\":3888:4004   */\n    tag_70:\n        /* \"#utility.yul\":3958:3979   */\n      tag_150\n        /* \"#utility.yul\":3973:3978   */\n      dup2\n        /* \"#utility.yul\":3958:3979   */\n      tag_69\n      jump\t// in\n    tag_150:\n        /* \"#utility.yul\":3951:3956   */\n      dup2\n        /* \"#utility.yul\":3948:3980   */\n      eq\n        /* \"#utility.yul\":3938:3998   */\n      tag_151\n      jumpi\n        /* \"#utility.yul\":3994:3995   */\n      0x00\n        /* \"#utility.yul\":3991:3992   */\n      dup1\n        /* \"#utility.yul\":3984:3996   */\n      revert\n        /* \"#utility.yul\":3938:3998   */\n    tag_151:\n        /* \"#utility.yul\":3888:4004   */\n      pop\n      jump\t// out\n        /* \"#utility.yul\":4010:4143   */\n    tag_71:\n        /* \"#utility.yul\":4053:4058   */\n      0x00\n        /* \"#utility.yul\":4091:4097   */\n      dup2\n        /* \"#utility.yul\":4078:4098   */\n      calldataload\n        /* \"#utility.yul\":4069:4098   */\n      swap1\n      pop\n        /* \"#utility.yul\":4107:4137   */\n      tag_153\n        /* \"#utility.yul\":4131:4136   */\n      dup2\n        /* \"#utility.yul\":4107:4137   */\n      tag_70\n      jump\t// in\n    tag_153:\n        /* \"#utility.yul\":4010:4143   */\n      swap3\n      swap2\n      pop\n      pop\n      jump\t// out\n        /* \"#utility.yul\":4149:5524   */\n    tag_9:\n        /* \"#utility.yul\":4268:4274   */\n      0x00\n        /* \"#utility.yul\":4276:4282   */\n      dup1\n        /* \"#utility.yul\":4284:4290   */\n      0x00\n        /* \"#utility.yul\":4292:4298   */\n      dup1\n        /* \"#utility.yul\":4300:4306   */\n      0x00\n        /* \"#utility.yul\":4308:4314   */\n      dup1\n        /* \"#utility.yul\":4316:4322   */\n      0x00\n        /* \"#utility.yul\":4365:4368   */\n      0xe0\n        /* \"#utility.yul\":4353:4362   */\n      dup9\n        /* \"#utility.yul\":4344:4351   */\n      dup11\n        /* \"#utility.yul\":4340:4363   */\n      sub\n        /* \"#utility.yul\":4336:4369   */\n      slt\n        /* \"#utility.yul\":4333:4453   */\n      iszero\n      tag_155\n      jumpi\n        /* \"#utility.yul\":4372:4451   */\n      tag_156\n      tag_47\n      jump\t// in\n    tag_156:\n        /* \"#utility.yul\":4333:4453   */\n    tag_155:\n        /* \"#utility.yul\":4492:4493   */\n      0x00\n        /* \"#utility.yul\":4517:4570   */\n      tag_157\n        /* \"#utility.yul\":4562:4569   */\n      dup11\n        /* \"#utility.yul\":4553:4559   */\n      dup3\n        /* \"#utility.yul\":4542:4551   */\n      dup12\n        /* \"#utility.yul\":4538:4560   */\n      add\n        /* \"#utility.yul\":4517:4570   */\n      tag_51\n      jump\t// in\n    tag_157:\n        /* \"#utility.yul\":4507:4570   */\n      swap8\n      pop\n        /* \"#utility.yul\":4463:4580   */\n      pop\n        /* \"#utility.yul\":4647:4649   */\n      0x20\n        /* \"#utility.yul\":4636:4645   */\n      dup9\n        /* \"#utility.yul\":4632:4650   */\n      add\n        /* \"#utility.yul\":4619:4651   */\n      calldataload\n        /* \"#utility.yul\":4678:4696   */\n      0xffffffffffffffff\n        /* \"#utility.yul\":4670:4676   */\n      dup2\n        /* \"#utility.yul\":4667:4697   */\n      gt\n        /* \"#utility.yul\":4664:4781   */\n      iszero\n      tag_158\n      jumpi\n        /* \"#utility.yul\":4700:4779   */\n      tag_159\n      tag_48\n      jump\t// in\n    tag_159:\n        /* \"#utility.yul\":4664:4781   */\n    tag_158:\n        /* \"#utility.yul\":4805:4868   */\n      tag_160\n        /* \"#utility.yul\":4860:4867   */\n      dup11\n        /* \"#utility.yul\":4851:4857   */\n      dup3\n        /* \"#utility.yul\":4840:4849   */\n      dup12\n        /* \"#utility.yul\":4836:4858   */\n      add\n        /* \"#utility.yul\":4805:4868   */\n      tag_61\n      jump\t// in\n    tag_160:\n        /* \"#utility.yul\":4795:4868   */\n      swap7\n      pop\n        /* \"#utility.yul\":4590:4878   */\n      pop\n        /* \"#utility.yul\":4917:4919   */\n      0x40\n        /* \"#utility.yul\":4943:4996   */\n      tag_161\n        /* \"#utility.yul\":4988:4995   */\n      dup11\n        /* \"#utility.yul\":4979:4985   */\n      dup3\n        /* \"#utility.yul\":4968:4977   */\n      dup12\n        /* \"#utility.yul\":4964:4986   */\n      add\n        /* \"#utility.yul\":4943:4996   */\n      tag_51\n      jump\t// in\n    tag_161:\n        /* \"#utility.yul\":4933:4996   */\n      swap6\n      pop\n        /* \"#utility.yul\":4888:5006   */\n      pop\n        /* \"#utility.yul\":5045:5047   */\n      0x60\n        /* \"#utility.yul\":5071:5123   */\n      tag_162\n        /* \"#utility.yul\":5115:5122   */\n      dup11\n        /* \"#utility.yul\":5106:5112   */\n      dup3\n        /* \"#utility.yul\":5095:5104   */\n      dup12\n        /* \"#utility.yul\":5091:5113   */\n      add\n        /* \"#utility.yul\":5071:5123   */\n      tag_64\n      jump\t// in\n    tag_162:\n        /* \"#utility.yul\":5061:5123   */\n      swap5\n      pop\n        /* \"#utility.yul\":5016:5133   */\n      pop\n        /* \"#utility.yul\":5172:5175   */\n      0x80\n        /* \"#utility.yul\":5199:5252   */\n      tag_163\n        /* \"#utility.yul\":5244:5251   */\n      dup11\n        /* \"#utility.yul\":5235:5241   */\n      dup3\n        /* \"#utility.yul\":5224:5233   */\n      dup12\n        /* \"#utility.yul\":5220:5242   */\n      add\n        /* \"#utility.yul\":5199:5252   */\n      tag_51\n      jump\t// in\n    tag_163:\n        /* \"#utility.yul\":5189:5252   */\n      swap4\n      pop\n        /* \"#utility.yul\":5143:5262   */\n      pop\n        /* \"#utility.yul\":5301:5304   */\n      0xa0\n        /* \"#utility.yul\":5328:5381   */\n      tag_164\n        /* \"#utility.yul\":5373:5380   */\n      dup11\n        /* \"#utility.yul\":5364:5370   */\n      dup3\n        /* \"#utility.yul\":5353:5362   */\n      dup12\n        /* \"#utility.yul\":5349:5371   */\n      add\n        /* \"#utility.yul\":5328:5381   */\n      tag_68\n      jump\t// in\n    tag_164:\n        /* \"#utility.yul\":5318:5381   */\n      swap3\n      pop\n        /* \"#utility.yul\":5272:5391   */\n      pop\n        /* \"#utility.yul\":5430:5433   */\n      0xc0\n        /* \"#utility.yul\":5457:5507   */\n      tag_165\n        /* \"#utility.yul\":5499:5506   */\n      dup11\n        /* \"#utility.yul\":5490:5496   */\n      dup3\n        /* \"#utility.yul\":5479:5488   */\n      dup12\n        /* \"#utility.yul\":5475:5497   */\n      add\n        /* \"#utility.yul\":5457:5507   */\n      tag_71\n      jump\t// in\n    tag_165:\n        /* \"#utility.yul\":5447:5507   */\n      swap2\n      pop\n        /* \"#utility.yul\":5401:5517   */\n      pop\n        /* \"#utility.yul\":4149:5524   */\n      swap3\n      swap6\n      swap9\n      swap2\n      swap5\n      swap8\n      pop\n      swap3\n      swap6\n      pop\n      jump\t// out\n        /* \"#utility.yul\":5530:5859   */\n    tag_14:\n        /* \"#utility.yul\":5589:5595   */\n      0x00\n        /* \"#utility.yul\":5638:5640   */\n      0x20\n        /* \"#utility.yul\":5626:5635   */\n      dup3\n        /* \"#utility.yul\":5617:5624   */\n      dup5\n        /* \"#utility.yul\":5613:5636   */\n      sub\n        /* \"#utility.yul\":5609:5641   */\n      slt\n        /* \"#utility.yul\":5606:5725   */\n      iszero\n      tag_167\n      jumpi\n        /* \"#utility.yul\":5644:5723   */\n      tag_168\n      tag_47\n      jump\t// in\n    tag_168:\n        /* \"#utility.yul\":5606:5725   */\n    tag_167:\n        /* \"#utility.yul\":5764:5765   */\n      0x00\n        /* \"#utility.yul\":5789:5842   */\n      tag_169\n        /* \"#utility.yul\":5834:5841   */\n      dup5\n        /* \"#utility.yul\":5825:5831   */\n      dup3\n        /* \"#utility.yul\":5814:5823   */\n      dup6\n        /* \"#utility.yul\":5810:5832   */\n      add\n        /* \"#utility.yul\":5789:5842   */\n      tag_51\n      jump\t// in\n    tag_169:\n        /* \"#utility.yul\":5779:5842   */\n      swap2\n      pop\n        /* \"#utility.yul\":5735:5852   */\n      pop\n        /* \"#utility.yul\":5530:5859   */\n      swap3\n      swap2\n      pop\n      pop\n      jump\t// out\n        /* \"#utility.yul\":5865:5964   */\n    tag_72:\n        /* \"#utility.yul\":5917:5923   */\n      0x00\n        /* \"#utility.yul\":5951:5956   */\n      dup2\n        /* \"#utility.yul\":5945:5957   */\n      mload\n        /* \"#utility.yul\":5935:5957   */\n      swap1\n      pop\n        /* \"#utility.yul\":5865:5964   */\n      swap2\n      swap1\n      pop\n      jump\t// out\n        /* \"#utility.yul\":5970:6139   */\n    tag_73:\n        /* \"#utility.yul\":6054:6065   */\n      0x00\n        /* \"#utility.yul\":6088:6094   */\n      dup3\n        /* \"#utility.yul\":6083:6086   */\n      dup3\n        /* \"#utility.yul\":6076:6095   */\n      mstore\n        /* \"#utility.yul\":6128:6132   */\n      0x20\n        /* \"#utility.yul\":6123:6126   */\n      dup3\n        /* \"#utility.yul\":6119:6133   */\n      add\n        /* \"#utility.yul\":6104:6133   */\n      swap1\n      pop\n        /* \"#utility.yul\":5970:6139   */\n      swap3\n      swap2\n      pop\n      pop\n      jump\t// out\n        /* \"#utility.yul\":6145:6391   */\n    tag_74:\n        /* \"#utility.yul\":6226:6227   */\n      0x00\n        /* \"#utility.yul\":6236:6349   */\n    tag_173:\n        /* \"#utility.yul\":6250:6256   */\n      dup4\n        /* \"#utility.yul\":6247:6248   */\n      dup2\n        /* \"#utility.yul\":6244:6257   */\n      lt\n        /* \"#utility.yul\":6236:6349   */\n      iszero\n      tag_175\n      jumpi\n        /* \"#utility.yul\":6335:6336   */\n      dup1\n        /* \"#utility.yul\":6330:6333   */\n      dup3\n        /* \"#utility.yul\":6326:6337   */\n      add\n        /* \"#utility.yul\":6320:6338   */\n      mload\n        /* \"#utility.yul\":6316:6317   */\n      dup2\n        /* \"#utility.yul\":6311:6314   */\n      dup5\n        /* \"#utility.yul\":6307:6318   */\n      add\n        /* \"#utility.yul\":6300:6339   */\n      mstore\n        /* \"#utility.yul\":6272:6274   */\n      0x20\n        /* \"#utility.yul\":6269:6270   */\n      dup2\n        /* \"#utility.yul\":6265:6275   */\n      add\n        /* \"#utility.yul\":6260:6275   */\n      swap1\n      pop\n        /* \"#utility.yul\":6236:6349   */\n      jump(tag_173)\n    tag_175:\n        /* \"#utility.yul\":6383:6384   */\n      0x00\n        /* \"#utility.yul\":6374:6380   */\n      dup5\n        /* \"#utility.yul\":6369:6372   */\n      dup5\n        /* \"#utility.yul\":6365:6381   */\n      add\n        /* \"#utility.yul\":6358:6385   */\n      mstore\n        /* \"#utility.yul\":6207:6391   */\n      pop\n        /* \"#utility.yul\":6145:6391   */\n      pop\n      pop\n      pop\n      jump\t// out\n        /* \"#utility.yul\":6397:6774   */\n    tag_75:\n        /* \"#utility.yul\":6485:6488   */\n      0x00\n        /* \"#utility.yul\":6513:6552   */\n      tag_177\n        /* \"#utility.yul\":6546:6551   */\n      dup3\n        /* \"#utility.yul\":6513:6552   */\n      tag_72\n      jump\t// in\n    tag_177:\n        /* \"#utility.yul\":6568:6639   */\n      tag_178\n        /* \"#utility.yul\":6632:6638   */\n      dup2\n        /* \"#utility.yul\":6627:6630   */\n      dup6\n        /* \"#utility.yul\":6568:6639   */\n      tag_73\n      jump\t// in\n    tag_178:\n        /* \"#utility.yul\":6561:6639   */\n      swap4\n      pop\n        /* \"#utility.yul\":6648:6713   */\n      tag_179\n        /* \"#utility.yul\":6706:6712   */\n      dup2\n        /* \"#utility.yul\":6701:6704   */\n      dup6\n        /* \"#utility.yul\":6694:6698   */\n      0x20\n        /* \"#utility.yul\":6687:6692   */\n      dup7\n        /* \"#utility.yul\":6683:6699   */\n      add\n        /* \"#utility.yul\":6648:6713   */\n      tag_74\n      jump\t// in\n    tag_179:\n        /* \"#utility.yul\":6738:6767   */\n      tag_180\n        /* \"#utility.yul\":6760:6766   */\n      dup2\n        /* \"#utility.yul\":6738:6767   */\n      tag_54\n      jump\t// in\n    tag_180:\n        /* \"#utility.yul\":6733:6736   */\n      dup5\n        /* \"#utility.yul\":6729:6768   */\n      add\n        /* \"#utility.yul\":6722:6768   */\n      swap2\n      pop\n        /* \"#utility.yul\":6489:6774   */\n      pop\n        /* \"#utility.yul\":6397:6774   */\n      swap3\n      swap2\n      pop\n      pop\n      jump\t// out\n        /* \"#utility.yul\":6780:6898   */\n    tag_76:\n        /* \"#utility.yul\":6867:6891   */\n      tag_182\n        /* \"#utility.yul\":6885:6890   */\n      dup2\n        /* \"#utility.yul\":6867:6891   */\n      tag_49\n      jump\t// in\n    tag_182:\n        /* \"#utility.yul\":6862:6865   */\n      dup3\n        /* \"#utility.yul\":6855:6892   */\n      mstore\n        /* \"#utility.yul\":6780:6898   */\n      pop\n      pop\n      jump\t// out\n        /* \"#utility.yul\":6904:7019   */\n    tag_77:\n        /* \"#utility.yul\":6989:7012   */\n      tag_184\n        /* \"#utility.yul\":7006:7011   */\n      dup2\n        /* \"#utility.yul\":6989:7012   */\n      tag_62\n      jump\t// in\n    tag_184:\n        /* \"#utility.yul\":6984:6987   */\n      dup3\n        /* \"#utility.yul\":6977:7013   */\n      mstore\n        /* \"#utility.yul\":6904:7019   */\n      pop\n      pop\n      jump\t// out\n        /* \"#utility.yul\":7025:7143   */\n    tag_78:\n        /* \"#utility.yul\":7112:7136   */\n      tag_186\n        /* \"#utility.yul\":7130:7135   */\n      dup2\n        /* \"#utility.yul\":7112:7136   */\n      tag_66\n      jump\t// in\n    tag_186:\n        /* \"#utility.yul\":7107:7110   */\n      dup3\n        /* \"#utility.yul\":7100:7137   */\n      mstore\n        /* \"#utility.yul\":7025:7143   */\n      pop\n      pop\n      jump\t// out\n        /* \"#utility.yul\":7149:7258   */\n    tag_79:\n        /* \"#utility.yul\":7230:7251   */\n      tag_188\n        /* \"#utility.yul\":7245:7250   */\n      dup2\n        /* \"#utility.yul\":7230:7251   */\n      tag_69\n      jump\t// in\n    tag_188:\n        /* \"#utility.yul\":7225:7228   */\n      dup3\n        /* \"#utility.yul\":7218:7252   */\n      mstore\n        /* \"#utility.yul\":7149:7258   */\n      pop\n      pop\n      jump\t// out\n        /* \"#utility.yul\":7264:8114   */\n    tag_17:\n        /* \"#utility.yul\":7509:7513   */\n      0x00\n        /* \"#utility.yul\":7547:7550   */\n      0xc0\n        /* \"#utility.yul\":7536:7545   */\n      dup3\n        /* \"#utility.yul\":7532:7551   */\n      add\n        /* \"#utility.yul\":7524:7551   */\n      swap1\n      pop\n        /* \"#utility.yul\":7597:7606   */\n      dup2\n        /* \"#utility.yul\":7591:7595   */\n      dup2\n        /* \"#utility.yul\":7587:7607   */\n      sub\n        /* \"#utility.yul\":7583:7584   */\n      0x00\n        /* \"#utility.yul\":7572:7581   */\n      dup4\n        /* \"#utility.yul\":7568:7585   */\n      add\n        /* \"#utility.yul\":7561:7608   */\n      mstore\n        /* \"#utility.yul\":7625:7703   */\n      tag_190\n        /* \"#utility.yul\":7698:7702   */\n      dup2\n        /* \"#utility.yul\":7689:7695   */\n      dup10\n        /* \"#utility.yul\":7625:7703   */\n      tag_75\n      jump\t// in\n    tag_190:\n        /* \"#utility.yul\":7617:7703   */\n      swap1\n      pop\n        /* \"#utility.yul\":7713:7785   */\n      tag_191\n        /* \"#utility.yul\":7781:7783   */\n      0x20\n        /* \"#utility.yul\":7770:7779   */\n      dup4\n        /* \"#utility.yul\":7766:7784   */\n      add\n        /* \"#utility.yul\":7757:7763   */\n      dup9\n        /* \"#utility.yul\":7713:7785   */\n      tag_76\n      jump\t// in\n    tag_191:\n        /* \"#utility.yul\":7795:7865   */\n      tag_192\n        /* \"#utility.yul\":7861:7863   */\n      0x40\n        /* \"#utility.yul\":7850:7859   */\n      dup4\n        /* \"#utility.yul\":7846:7864   */\n      add\n        /* \"#utility.yul\":7837:7843   */\n      dup8\n        /* \"#utility.yul\":7795:7865   */\n      tag_77\n      jump\t// in\n    tag_192:\n        /* \"#utility.yul\":7875:7947   */\n      tag_193\n        /* \"#utility.yul\":7943:7945   */\n      0x60\n        /* \"#utility.yul\":7932:7941   */\n      dup4\n        /* \"#utility.yul\":7928:7946   */\n      add\n        /* \"#utility.yul\":7919:7925   */\n      dup7\n        /* \"#utility.yul\":7875:7947   */\n      tag_76\n      jump\t// in\n    tag_193:\n        /* \"#utility.yul\":7957:8030   */\n      tag_194\n        /* \"#utility.yul\":8025:8028   */\n      0x80\n        /* \"#utility.yul\":8014:8023   */\n      dup4\n        /* \"#utility.yul\":8010:8029   */\n      add\n        /* \"#utility.yul\":8001:8007   */\n      dup6\n        /* \"#utility.yul\":7957:8030   */\n      tag_78\n      jump\t// in\n    tag_194:\n        /* \"#utility.yul\":8040:8107   */\n      tag_195\n        /* \"#utility.yul\":8102:8105   */\n      0xa0\n        /* \"#utility.yul\":8091:8100   */\n      dup4\n        /* \"#utility.yul\":8087:8106   */\n      add\n        /* \"#utility.yul\":8078:8084   */\n      dup5\n        /* \"#utility.yul\":8040:8107   */\n      tag_79\n      jump\t// in\n    tag_195:\n        /* \"#utility.yul\":7264:8114   */\n      swap8\n      swap7\n      pop\n      pop\n      pop\n      pop\n      pop\n      pop\n      pop\n      jump\t// out\n        /* \"#utility.yul\":8120:8342   */\n    tag_26:\n        /* \"#utility.yul\":8213:8217   */\n      0x00\n        /* \"#utility.yul\":8251:8253   */\n      0x20\n        /* \"#utility.yul\":8240:8249   */\n      dup3\n        /* \"#utility.yul\":8236:8254   */\n      add\n        /* \"#utility.yul\":8228:8254   */\n      swap1\n      pop\n        /* \"#utility.yul\":8264:8335   */\n      tag_197\n        /* \"#utility.yul\":8332:8333   */\n      0x00\n        /* \"#utility.yul\":8321:8330   */\n      dup4\n        /* \"#utility.yul\":8317:8334   */\n      add\n        /* \"#utility.yul\":8308:8314   */\n      dup5\n        /* \"#utility.yul\":8264:8335   */\n      tag_76\n      jump\t// in\n    tag_197:\n        /* \"#utility.yul\":8120:8342   */\n      swap3\n      swap2\n      pop\n      pop\n      jump\t// out\n        /* \"#utility.yul\":8348:8528   */\n    tag_80:\n        /* \"#utility.yul\":8396:8473   */\n      0x4e487b7100000000000000000000000000000000000000000000000000000000\n        /* \"#utility.yul\":8393:8394   */\n      0x00\n        /* \"#utility.yul\":8386:8474   */\n      mstore\n        /* \"#utility.yul\":8493:8497   */\n      0x22\n        /* \"#utility.yul\":8490:8491   */\n      0x04\n        /* \"#utility.yul\":8483:8498   */\n      mstore\n        /* \"#utility.yul\":8517:8521   */\n      0x24\n        /* \"#utility.yul\":8514:8515   */\n      0x00\n        /* \"#utility.yul\":8507:8522   */\n      revert\n        /* \"#utility.yul\":8534:8854   */\n    tag_32:\n        /* \"#utility.yul\":8578:8584   */\n      0x00\n        /* \"#utility.yul\":8615:8616   */\n      0x02\n        /* \"#utility.yul\":8609:8613   */\n      dup3\n        /* \"#utility.yul\":8605:8617   */\n      div\n        /* \"#utility.yul\":8595:8617   */\n      swap1\n      pop\n        /* \"#utility.yul\":8662:8663   */\n      0x01\n        /* \"#utility.yul\":8656:8660   */\n      dup3\n        /* \"#utility.yul\":8652:8664   */\n      and\n        /* \"#utility.yul\":8683:8701   */\n      dup1\n        /* \"#utility.yul\":8673:8754   */\n      tag_200\n      jumpi\n        /* \"#utility.yul\":8739:8743   */\n      0x7f\n        /* \"#utility.yul\":8731:8737   */\n      dup3\n        /* \"#utility.yul\":8727:8744   */\n      and\n        /* \"#utility.yul\":8717:8744   */\n      swap2\n      pop\n        /* \"#utility.yul\":8673:8754   */\n    tag_200:\n        /* \"#utility.yul\":8801:8803   */\n      0x20\n        /* \"#utility.yul\":8793:8799   */\n      dup3\n        /* \"#utility.yul\":8790:8804   */\n      lt\n        /* \"#utility.yul\":8770:8788   */\n      dup2\n        /* \"#utility.yul\":8767:8805   */\n      sub\n        /* \"#utility.yul\":8764:8848   */\n      tag_201\n      jumpi\n        /* \"#utility.yul\":8820:8838   */\n      tag_202\n      tag_80\n      jump\t// in\n    tag_202:\n        /* \"#utility.yul\":8764:8848   */\n    tag_201:\n        /* \"#utility.yul\":8585:8854   */\n      pop\n        /* \"#utility.yul\":8534:8854   */\n      swap2\n      swap1\n      pop\n      jump\t// out\n        /* \"#utility.yul\":8860:9001   */\n    tag_81:\n        /* \"#utility.yul\":8909:8913   */\n      0x00\n        /* \"#utility.yul\":8932:8935   */\n      dup2\n        /* \"#utility.yul\":8924:8935   */\n      swap1\n      pop\n        /* \"#utility.yul\":8955:8958   */\n      dup2\n        /* \"#utility.yul\":8952:8953   */\n      0x00\n        /* \"#utility.yul\":8945:8959   */\n      mstore\n        /* \"#utility.yul\":8989:8993   */\n      0x20\n        /* \"#utility.yul\":8986:8987   */\n      0x00\n        /* \"#utility.yul\":8976:8994   */\n      keccak256\n        /* \"#utility.yul\":8968:8994   */\n      swap1\n      pop\n        /* \"#utility.yul\":8860:9001   */\n      swap2\n      swap1\n      pop\n      jump\t// out\n        /* \"#utility.yul\":9007:9100   */\n    tag_82:\n        /* \"#utility.yul\":9044:9050   */\n      0x00\n        /* \"#utility.yul\":9091:9093   */\n      0x20\n        /* \"#utility.yul\":9086:9088   */\n      0x1f\n        /* \"#utility.yul\":9079:9084   */\n      dup4\n        /* \"#utility.yul\":9075:9089   */\n      add\n        /* \"#utility.yul\":9071:9094   */\n      div\n        /* \"#utility.yul\":9061:9094   */\n      swap1\n      pop\n        /* \"#utility.yul\":9007:9100   */\n      swap2\n      swap1\n      pop\n      jump\t// out\n        /* \"#utility.yul\":9106:9213   */\n    tag_83:\n        /* \"#utility.yul\":9150:9158   */\n      0x00\n        /* \"#utility.yul\":9200:9205   */\n      dup3\n        /* \"#utility.yul\":9194:9198   */\n      dup3\n        /* \"#utility.yul\":9190:9206   */\n      shl\n        /* \"#utility.yul\":9169:9206   */\n      swap1\n      pop\n        /* \"#utility.yul\":9106:9213   */\n      swap3\n      swap2\n      pop\n      pop\n      jump\t// out\n        /* \"#utility.yul\":9219:9612   */\n    tag_84:\n        /* \"#utility.yul\":9288:9294   */\n      0x00\n        /* \"#utility.yul\":9338:9339   */\n      0x08\n        /* \"#utility.yul\":9326:9336   */\n      dup4\n        /* \"#utility.yul\":9322:9340   */\n      mul\n        /* \"#utility.yul\":9361:9458   */\n      tag_207\n        /* \"#utility.yul\":9391:9457   */\n      0xffffffffffffffffffffffffffffffffffffffffffffffffffffffffffffffff\n        /* \"#utility.yul\":9380:9389   */\n      dup3\n        /* \"#utility.yul\":9361:9458   */\n      tag_83\n      jump\t// in\n    tag_207:\n        /* \"#utility.yul\":9479:9518   */\n      tag_208\n        /* \"#utility.yul\":9509:9517   */\n      dup7\n        /* \"#utility.yul\":9498:9507   */\n      dup4\n        /* \"#utility.yul\":9479:9518   */\n      tag_83\n      jump\t// in\n    tag_208:\n        /* \"#utility.yul\":9467:9518   */\n      swap6\n      pop\n        /* \"#utility.yul\":9551:9555   */\n      dup1\n        /* \"#utility.yul\":9547:9556   */\n      not\n        /* \"#utility.yul\":9540:9545   */\n      dup5\n        /* \"#utility.yul\":9536:9557   */\n      and\n        /* \"#utility.yul\":9527:9557   */\n      swap4\n      pop\n        /* \"#utility.yul\":9600:9604   */\n      dup1\n        /* \"#utility.yul\":9590:9598   */\n      dup7\n        /* \"#utility.yul\":9586:9605   */\n      and\n        /* \"#utility.yul\":9579:9584   */\n      dup5\n        /* \"#utility.yul\":9576:9606   */\n      or\n        /* \"#utility.yul\":9566:9606   */\n      swap3\n      pop\n        /* \"#utility.yul\":9295:9612   */\n      pop\n      pop\n        /* \"#utility.yul\":9219:9612   */\n      swap4\n      swap3\n      pop\n      pop\n      pop\n      jump\t// out\n        /* \"#utility.yul\":9618:9678   */\n    tag_85:\n        /* \"#utility.yul\":9646:9649   */\n      0x00\n        /* \"#utility.yul\":9667:9672   */\n      dup2\n        /* \"#utility.yul\":9660:9672   */\n      swap1\n      pop\n        /* \"#utility.yul\":9618:9678   */\n      swap2\n      swap1\n      pop\n      jump\t// out\n        /* \"#utility.yul\":9684:9826   */\n    tag_86:\n        /* \"#utility.yul\":9734:9743   */\n      0x00\n        /* \"#utility.yul\":9767:9820   */\n      tag_211\n        /* \"#utility.yul\":9785:9819   */\n      tag_212\n        /* \"#utility.yul\":9794:9818   */\n      tag_213\n        /* \"#utility.yul\":9812:9817   */\n      dup5\n        /* \"#utility.yul\":9794:9818   */\n      tag_49\n      jump\t// in\n    tag_213:\n        /* \"#utility.yul\":9785:9819   */\n      tag_85\n      jump\t// in\n    tag_212:\n        /* \"#utility.yul\":9767:9820   */\n      tag_49\n      jump\t// in\n    tag_211:\n        /* \"#utility.yul\":9754:9820   */\n      swap1\n      pop\n        /* \"#utility.yul\":9684:9826   */\n      swap2\n      swap1\n      pop\n      jump\t// out\n        /* \"#utility.yul\":9832:9907   */\n    tag_87:\n        /* \"#utility.yul\":9875:9878   */\n      0x00\n        /* \"#utility.yul\":9896:9901   */\n      dup2\n        /* \"#utility.yul\":9889:9901   */\n      swap1\n      pop\n        /* \"#utility.yul\":9832:9907   */\n      swap2\n      swap1\n      pop\n      jump\t// out\n        /* \"#utility.yul\":9913:10182   */\n    tag_88:\n        /* \"#utility.yul\":10023:10062   */\n      tag_216\n        /* \"#utility.yul\":10054:10061   */\n      dup4\n        /* \"#utility.yul\":10023:10062   */\n      tag_86\n      jump\t// in\n    tag_216:\n        /* \"#utility.yul\":10084:10175   */\n      tag_217\n        /* \"#utility.yul\":10133:10174   */\n      tag_218\n        /* \"#utility.yul\":10157:10173   */\n      dup3\n        /* \"#utility.yul\":10133:10174   */\n      tag_87\n      jump\t// in\n    tag_218:\n        /* \"#utility.yul\":10125:10131   */\n      dup5\n        /* \"#utility.yul\":10118:10122   */\n      dup5\n        /* \"#utility.yul\":10112:10123   */\n      sload\n        /* \"#utility.yul\":10084:10175   */\n      tag_84\n      jump\t// in\n    tag_217:\n        /* \"#utility.yul\":10078:10082   */\n      dup3\n        /* \"#utility.yul\":10071:10176   */\n      sstore\n        /* \"#utility.yul\":9989:10182   */\n      pop\n        /* \"#utility.yul\":9913:10182   */\n      pop\n      pop\n      pop\n      jump\t// out\n        /* \"#utility.yul\":10188:10261   */\n    tag_89:\n        /* \"#utility.yul\":10233:10236   */\n      0x00\n        /* \"#utility.yul\":10188:10261   */\n      swap1\n      jump\t// out\n        /* \"#utility.yul\":10267:10456   */\n    tag_90:\n        /* \"#utility.yul\":10344:10376   */\n      tag_221\n      tag_89\n      jump\t// in\n    tag_221:\n        /* \"#utility.yul\":10385:10450   */\n      tag_222\n        /* \"#utility.yul\":10443:10449   */\n      dup2\n        /* \"#utility.yul\":10435:10441   */\n      dup5\n        /* \"#utility.yul\":10429:10433   */\n      dup5\n        /* \"#utility.yul\":10385:10450   */\n      tag_88\n      jump\t// in\n    tag_222:\n        /* \"#utility.yul\":10320:10456   */\n      pop\n        /* \"#utility.yul\":10267:10456   */\n      pop\n      pop\n      jump\t// out\n        /* \"#utility.yul\":10462:10648   */\n    tag_91:\n        /* \"#utility.yul\":10522:10642   */\n    tag_224:\n        /* \"#utility.yul\":10539:10542   */\n      dup2\n        /* \"#utility.yul\":10532:10537   */\n      dup2\n        /* \"#utility.yul\":10529:10543   */\n      lt\n        /* \"#utility.yul\":10522:10642   */\n      iszero\n      tag_226\n      jumpi\n        /* \"#utility.yul\":10593:10632   */\n      tag_227\n        /* \"#utility.yul\":10630:10631   */\n      0x00\n        /* \"#utility.yul\":10623:10628   */\n      dup3\n        /* \"#utility.yul\":10593:10632   */\n      tag_90\n      jump\t// in\n    tag_227:\n        /* \"#utility.yul\":10566:10567   */\n      0x01\n        /* \"#utility.yul\":10559:10564   */\n      dup2\n        /* \"#utility.yul\":10555:10568   */\n      add\n        /* \"#utility.yul\":10546:10568   */\n      swap1\n      pop\n        /* \"#utility.yul\":10522:10642   */\n      jump(tag_224)\n    tag_226:\n        /* \"#utility.yul\":10462:10648   */\n      pop\n      pop\n      jump\t// out\n        /* \"#utility.yul\":10654:11197   */\n    tag_92:\n        /* \"#utility.yul\":10755:10757   */\n      0x1f\n        /* \"#utility.yul\":10750:10753   */\n      dup3\n        /* \"#utility.yul\":10747:10758   */\n      gt\n        /* \"#utility.yul\":10744:11190   */\n      iszero\n      tag_229\n      jumpi\n        /* \"#utility.yul\":10789:10827   */\n      tag_230\n        /* \"#utility.yul\":10821:10826   */\n      dup2\n        /* \"#utility.yul\":10789:10827   */\n      tag_81\n      jump\t// in\n    tag_230:\n        /* \"#utility.yul\":10873:10902   */\n      tag_231\n        /* \"#utility.yul\":10891:10901   */\n      dup5\n        /* \"#utility.yul\":10873:10902   */\n      tag_82\n      jump\t// in\n    tag_231:\n        /* \"#utility.yul\":10863:10871   */\n      dup2\n        /* \"#utility.yul\":10859:10903   */\n      add\n        /* \"#utility.yul\":11056:11058   */\n      0x20\n        /* \"#utility.yul\":11044:11054   */\n      dup6\n        /* \"#utility.yul\":11041:11059   */\n      lt\n        /* \"#utility.yul\":11038:11087   */\n      iszero\n      tag_232\n      jumpi\n        /* \"#utility.yul\":11077:11085   */\n      dup2\n        /* \"#utility.yul\":11062:11085   */\n      swap1\n      pop\n        /* \"#utility.yul\":11038:11087   */\n    tag_232:\n        /* \"#utility.yul\":11100:11180   */\n      tag_233\n        /* \"#utility.yul\":11156:11178   */\n      tag_234\n        /* \"#utility.yul\":11174:11177   */\n      dup6\n        /* \"#utility.yul\":11156:11178   */\n      tag_82\n      jump\t// in\n    tag_234:\n        /* \"#utility.yul\":11146:11154   */\n      dup4\n        /* \"#utility.yul\":11142:11179   */\n      add\n        /* \"#utility.yul\":11129:11140   */\n      dup3\n        /* \"#utility.yul\":11100:11180   */\n      tag_91\n      jump\t// in\n    tag_233:\n        /* \"#utility.yul\":10759:11190   */\n      pop\n      pop\n        /* \"#utility.yul\":10744:11190   */\n    tag_229:\n        /* \"#utility.yul\":10654:11197   */\n      pop\n      pop\n      pop\n      jump\t// out\n        /* \"#utility.yul\":11203:11320   */\n    tag_93:\n        /* \"#utility.yul\":11257:11265   */\n      0x00\n        /* \"#utility.yul\":11307:11312   */\n      dup3\n        /* \"#utility.yul\":11301:11305   */\n      dup3\n        /* \"#utility.yul\":11297:11313   */\n      shr\n        /* \"#utility.yul\":11276:11313   */\n      swap1\n      pop\n        /* \"#utility.yul\":11203:11320   */\n      swap3\n      swap2\n      pop\n      pop\n      jump\t// out\n        /* \"#utility.yul\":11326:11495   */\n    tag_94:\n        /* \"#utility.yul\":11370:11376   */\n      0x00\n        /* \"#utility.yul\":11403:11454   */\n      tag_237\n        /* \"#utility.yul\":11451:11452   */\n      0x00\n        /* \"#utility.yul\":11447:11453   */\n      not\n        /* \"#utility.yul\":11439:11444   */\n      dup5\n        /* \"#utility.yul\":11436:11437   */\n      0x08\n        /* \"#utility.yul\":11432:11445   */\n      mul\n        /* \"#utility.yul\":11403:11454   */\n      tag_93\n      jump\t// in\n    tag_237:\n        /* \"#utility.yul\":11399:11455   */\n      not\n        /* \"#utility.yul\":11484:11488   */\n      dup1\n        /* \"#utility.yul\":11478:11482   */\n      dup4\n        /* \"#utility.yul\":11474:11489   */\n      and\n        /* \"#utility.yul\":11464:11489   */\n      swap2\n      pop\n        /* \"#utility.yul\":11377:11495   */\n      pop\n        /* \"#utility.yul\":11326:11495   */\n      swap3\n      swap2\n      pop\n      pop\n      jump\t// out\n        /* \"#utility.yul\":11500:11795   */\n    tag_95:\n        /* \"#utility.yul\":11576:11580   */\n      0x00\n        /* \"#utility.yul\":11722:11751   */\n      tag_239\n        /* \"#utility.yul\":11747:11750   */\n      dup4\n        /* \"#utility.yul\":11741:11745   */\n      dup4\n        /* \"#utility.yul\":11722:11751   */\n      tag_94\n      jump\t// in\n    tag_239:\n        /* \"#utility.yul\":11714:11751   */\n      swap2\n      pop\n        /* \"#utility.yul\":11784:11787   */\n      dup3\n        /* \"#utility.yul\":11781:11782   */\n      0x02\n        /* \"#utility.yul\":11777:11788   */\n      mul\n        /* \"#utility.yul\":11771:11775   */\n      dup3\n        /* \"#utility.yul\":11768:11789   */\n      or\n        /* \"#utility.yul\":11760:11789   */\n      swap1\n      pop\n        /* \"#utility.yul\":11500:11795   */\n      swap3\n      swap2\n      pop\n      pop\n      jump\t// out\n        /* \"#utility.yul\":11800:13195   */\n    tag_29:\n        /* \"#utility.yul\":11917:11954   */\n      tag_241\n        /* \"#utility.yul\":11950:11953   */\n      dup3\n        /* \"#utility.yul\":11917:11954   */\n      tag_72\n      jump\t// in\n    tag_241:\n        /* \"#utility.yul\":12019:12037   */\n      0xffffffffffffffff\n        /* \"#utility.yul\":12011:12017   */\n      dup2\n        /* \"#utility.yul\":12008:12038   */\n      gt\n        /* \"#utility.yul\":12005:12061   */\n      iszero\n      tag_242\n      jumpi\n        /* \"#utility.yul\":12041:12059   */\n      tag_243\n      tag_55\n      jump\t// in\n    tag_243:\n        /* \"#utility.yul\":12005:12061   */\n    tag_242:\n        /* \"#utility.yul\":12085:12123   */\n      tag_244\n        /* \"#utility.yul\":12117:12121   */\n      dup3\n        /* \"#utility.yul\":12111:12122   */\n      sload\n        /* \"#utility.yul\":12085:12123   */\n      tag_32\n      jump\t// in\n    tag_244:\n        /* \"#utility.yul\":12170:12237   */\n      tag_245\n        /* \"#utility.yul\":12230:12236   */\n      dup3\n        /* \"#utility.yul\":12222:12228   */\n      dup3\n        /* \"#utility.yul\":12216:12220   */\n      dup6\n        /* \"#utility.yul\":12170:12237   */\n      tag_92\n      jump\t// in\n    tag_245:\n        /* \"#utility.yul\":12264:12265   */\n      0x00\n        /* \"#utility.yul\":12288:12292   */\n      0x20\n        /* \"#utility.yul\":12275:12292   */\n      swap1\n      pop\n        /* \"#utility.yul\":12320:12322   */\n      0x1f\n        /* \"#utility.yul\":12312:12318   */\n      dup4\n        /* \"#utility.yul\":12309:12323   */\n      gt\n        /* \"#utility.yul\":12337:12338   */\n      0x01\n        /* \"#utility.yul\":12332:12950   */\n      dup2\n      eq\n      tag_247\n      jumpi\n        /* \"#utility.yul\":12994:12995   */\n      0x00\n        /* \"#utility.yul\":13011:13017   */\n      dup5\n        /* \"#utility.yul\":13008:13085   */\n      iszero\n      tag_248\n      jumpi\n        /* \"#utility.yul\":13060:13069   */\n      dup3\n        /* \"#utility.yul\":13055:13058   */\n      dup8\n        /* \"#utility.yul\":13051:13070   */\n      add\n        /* \"#utility.yul\":13045:13071   */\n      mload\n        /* \"#utility.yul\":13036:13071   */\n      swap1\n      pop\n        /* \"#utility.yul\":13008:13085   */\n    tag_248:\n        /* \"#utility.yul\":13111:13178   */\n      tag_249\n        /* \"#utility.yul\":13171:13177   */\n      dup6\n        /* \"#utility.yul\":13164:13169   */\n      dup3\n        /* \"#utility.yul\":13111:13178   */\n      tag_95\n      jump\t// in\n    tag_249:\n        /* \"#utility.yul\":13105:13109   */\n      dup7\n        /* \"#utility.yul\":13098:13179   */\n      sstore\n        /* \"#utility.yul\":12967:13189   */\n      pop\n        /* \"#utility.yul\":12302:13189   */\n      jump(tag_246)\n        /* \"#utility.yul\":12332:12950   */\n    tag_247:\n        /* \"#utility.yul\":12384:12388   */\n      0x1f\n        /* \"#utility.yul\":12380:12389   */\n      not\n        /* \"#utility.yul\":12372:12378   */\n      dup5\n        /* \"#utility.yul\":12368:12390   */\n      and\n        /* \"#utility.yul\":12418:12455   */\n      tag_250\n        /* \"#utility.yul\":12450:12454   */\n      dup7\n        /* \"#utility.yul\":12418:12455   */\n      tag_81\n      jump\t// in\n    tag_250:\n        /* \"#utility.yul\":12477:12478   */\n      0x00\n        /* \"#utility.yul\":12491:12699   */\n    tag_251:\n        /* \"#utility.yul\":12505:12512   */\n      dup3\n        /* \"#utility.yul\":12502:12503   */\n      dup2\n        /* \"#utility.yul\":12499:12513   */\n      lt\n        /* \"#utility.yul\":12491:12699   */\n      iszero\n      tag_253\n      jumpi\n        /* \"#utility.yul\":12584:12593   */\n      dup5\n        /* \"#utility.yul\":12579:12582   */\n      dup10\n        /* \"#utility.yul\":12575:12594   */\n      add\n        /* \"#utility.yul\":12569:12595   */\n      mload\n        /* \"#utility.yul\":12561:12567   */\n      dup3\n        /* \"#utility.yul\":12554:12596   */\n      sstore\n        /* \"#utility.yul\":12635:12636   */\n      0x01\n        /* \"#utility.yul\":12627:12633   */\n      dup3\n        /* \"#utility.yul\":12623:12637   */\n      add\n        /* \"#utility.yul\":12613:12637   */\n      swap2\n      pop\n        /* \"#utility.yul\":12682:12684   */\n      0x20\n        /* \"#utility.yul\":12671:12680   */\n      dup6\n        /* \"#utility.yul\":12667:12685   */\n      add\n        /* \"#utility.yul\":12654:12685   */\n      swap5\n      pop\n        /* \"#utility.yul\":12528:12532   */\n      0x20\n        /* \"#utility.yul\":12525:12526   */\n      dup2\n        /* \"#utility.yul\":12521:12533   */\n      add\n        /* \"#utility.yul\":12516:12533   */\n      swap1\n      pop\n        /* \"#utility.yul\":12491:12699   */\n      jump(tag_251)\n    tag_253:\n        /* \"#utility.yul\":12727:12733   */\n      dup7\n        /* \"#utility.yul\":12718:12725   */\n      dup4\n        /* \"#utility.yul\":12715:12734   */\n      lt\n        /* \"#utility.yul\":12712:12891   */\n      iszero\n      tag_254\n      jumpi\n        /* \"#utility.yul\":12785:12794   */\n      dup5\n        /* \"#utility.yul\":12780:12783   */\n      dup10\n        /* \"#utility.yul\":12776:12795   */\n      add\n        /* \"#utility.yul\":12770:12796   */\n      mload\n        /* \"#utility.yul\":12828:12876   */\n      tag_255\n        /* \"#utility.yul\":12870:12874   */\n      0x1f\n        /* \"#utility.yul\":12862:12868   */\n      dup10\n        /* \"#utility.yul\":12858:12875   */\n      and\n        /* \"#utility.yul\":12847:12856   */\n      dup3\n        /* \"#utility.yul\":12828:12876   */\n      tag_94\n      jump\t// in\n    tag_255:\n        /* \"#utility.yul\":12820:12826   */\n      dup4\n        /* \"#utility.yul\":12813:12877   */\n      sstore\n        /* \"#utility.yul\":12735:12891   */\n      pop\n        /* \"#utility.yul\":12712:12891   */\n    tag_254:\n        /* \"#utility.yul\":12937:12938   */\n      0x01\n        /* \"#utility.yul\":12933:12934   */\n      0x02\n        /* \"#utility.yul\":12925:12931   */\n      dup9\n        /* \"#utility.yul\":12921:12935   */\n      mul\n        /* \"#utility.yul\":12917:12939   */\n      add\n        /* \"#utility.yul\":12911:12915   */\n      dup9\n        /* \"#utility.yul\":12904:12940   */\n      sstore\n        /* \"#utility.yul\":12339:12950   */\n      pop\n      pop\n      pop\n        /* \"#utility.yul\":12302:13189   */\n    tag_246:\n      pop\n        /* \"#utility.yul\":11892:13195   */\n      pop\n      pop\n      pop\n        /* \"#utility.yul\":11800:13195   */\n      pop\n      pop\n      jump\t// out\n        /* \"#utility.yul\":13201:13375   */\n    tag_96:\n        /* \"#utility.yul\":13341:13367   */\n      0x50726f7065727479206973206e6f7420666f722073616c650000000000000000\n        /* \"#utility.yul\":13337:13338   */\n      0x00\n        /* \"#utility.yul\":13329:13335   */\n      dup3\n        /* \"#utility.yul\":13325:13339   */\n      add\n        /* \"#utility.yul\":13318:13368   */\n      mstore\n        /* \"#utility.yul\":13201:13375   */\n      pop\n      jump\t// out\n        /* \"#utility.yul\":13381:13747   */\n    tag_97:\n        /* \"#utility.yul\":13523:13526   */\n      0x00\n        /* \"#utility.yul\":13544:13611   */\n      tag_258\n        /* \"#utility.yul\":13608:13610   */\n      0x18\n        /* \"#utility.yul\":13603:13606   */\n      dup4\n        /* \"#utility.yul\":13544:13611   */\n      tag_73\n      jump\t// in\n    tag_258:\n        /* \"#utility.yul\":13537:13611   */\n      swap2\n      pop\n        /* \"#utility.yul\":13620:13713   */\n      tag_259\n        /* \"#utility.yul\":13709:13712   */\n      dup3\n        /* \"#utility.yul\":13620:13713   */\n      tag_96\n      jump\t// in\n    tag_259:\n        /* \"#utility.yul\":13738:13740   */\n      0x20\n        /* \"#utility.yul\":13733:13736   */\n      dup3\n        /* \"#utility.yul\":13729:13741   */\n      add\n        /* \"#utility.yul\":13722:13741   */\n      swap1\n      pop\n        /* \"#utility.yul\":13381:13747   */\n      swap2\n      swap1\n      pop\n      jump\t// out\n        /* \"#utility.yul\":13753:14172   */\n    tag_40:\n        /* \"#utility.yul\":13919:13923   */\n      0x00\n        /* \"#utility.yul\":13957:13959   */\n      0x20\n        /* \"#utility.yul\":13946:13955   */\n      dup3\n        /* \"#utility.yul\":13942:13960   */\n      add\n        /* \"#utility.yul\":13934:13960   */\n      swap1\n      pop\n        /* \"#utility.yul\":14006:14015   */\n      dup2\n        /* \"#utility.yul\":14000:14004   */\n      dup2\n        /* \"#utility.yul\":13996:14016   */\n      sub\n        /* \"#utility.yul\":13992:13993   */\n      0x00\n        /* \"#utility.yul\":13981:13990   */\n      dup4\n        /* \"#utility.yul\":13977:13994   */\n      add\n        /* \"#utility.yul\":13970:14017   */\n      mstore\n        /* \"#utility.yul\":14034:14165   */\n      tag_261\n        /* \"#utility.yul\":14160:14164   */\n      dup2\n        /* \"#utility.yul\":14034:14165   */\n      tag_97\n      jump\t// in\n    tag_261:\n        /* \"#utility.yul\":14026:14165   */\n      swap1\n      pop\n        /* \"#utility.yul\":13753:14172   */\n      swap2\n      swap1\n      pop\n      jump\t// out\n\n    auxdata: 0xa264697066735822122016df8db77a01ab21802b58e8ea8434fe3e8c02be4bcb41c31e8b95f242b8ae5364736f6c63430008120033\n}\n",
				"bytecode": {
					"linkReferences": {},
					"object": "608060405234801561001057600080fd5b50610d2c806100206000396000f3fe60806040526004361061003f5760003560e01c806305f11bc21461004457806361bf49ee1461006d5780637b1949d2146100af578063a8f8944b146100cb575b600080fd5b34801561005057600080fd5b5061006b60048036038101906100669190610783565b610108565b005b34801561007957600080fd5b50610094600480360381019061008f9190610841565b610265565b6040516100a696959493929190610929565b60405180910390f35b6100c960048036038101906100c49190610841565b61036a565b005b3480156100d757600080fd5b506100f260048036038101906100ed9190610841565b6104f9565b6040516100ff9190610991565b60405180910390f35b60006040518060c001604052808881526020018781526020018667ffffffffffffffff1681526020018581526020013373ffffffffffffffffffffffffffffffffffffffff168152602001600115158152509050806000808a815260200190815260200160002060008201518160000190816101849190610bb8565b506020820151816001015560408201518160020160006101000a81548167ffffffffffffffff021916908367ffffffffffffffff1602179055506060820151816003015560808201518160040160006101000a81548173ffffffffffffffffffffffffffffffffffffffff021916908373ffffffffffffffffffffffffffffffffffffffff16021790555060a08201518160040160146101000a81548160ff02191690831515021790555090505060018890806001815401808255809150506001900390600052602060002001600090919091909150555050505050505050565b6000602052806000526040600020600091509050806000018054610288906109db565b80601f01602080910402602001604051908101604052809291908181526020018280546102b4906109db565b80156103015780601f106102d657610100808354040283529160200191610301565b820191906000526020600020905b8154815290600101906020018083116102e457829003601f168201915b5050505050908060010154908060020160009054906101000a900467ffffffffffffffff16908060030154908060040160009054906101000a900473ffffffffffffffffffffffffffffffffffffffff16908060040160149054906101000a900460ff16905086565b600080600083815260200190815260200160002090508060040160149054906101000a900460ff166103d1576040517f08c379a00000000000000000000000000000000000000000000000000000000081526004016103c890610cd6565b60405180910390fd5b338160040160006101000a81548173ffffffffffffffffffffffffffffffffffffffff021916908373ffffffffffffffffffffffffffffffffffffffff16021790555060008160040160146101000a81548160ff0219169083151502179055508060040160009054906101000a900473ffffffffffffffffffffffffffffffffffffffff1673ffffffffffffffffffffffffffffffffffffffff166108fc8260020160009054906101000a900467ffffffffffffffff1667ffffffffffffffff169081150290604051600060405180830381858888f193505050501580156104bd573d6000803e3d6000fd5b507f2a19094f8a23c09211f9b12c6c5cc9c09654ff760b0e05983e18a202b36f972c826040516104ed9190610991565b60405180910390a15050565b6001818154811061050957600080fd5b906000526020600020016000915090505481565b6000604051905090565b600080fd5b600080fd5b6000819050919050565b61054481610531565b811461054f57600080fd5b50565b6000813590506105618161053b565b92915050565b600080fd5b600080fd5b6000601f19601f8301169050919050565b7f4e487b7100000000000000000000000000000000000000000000000000000000600052604160045260246000fd5b6105ba82610571565b810181811067ffffffffffffffff821117156105d9576105d8610582565b5b80604052505050565b60006105ec61051d565b90506105f882826105b1565b919050565b600067ffffffffffffffff82111561061857610617610582565b5b61062182610571565b9050602081019050919050565b82818337600083830152505050565b600061065061064b846105fd565b6105e2565b90508281526020810184848401111561066c5761066b61056c565b5b61067784828561062e565b509392505050565b600082601f83011261069457610693610567565b5b81356106a484826020860161063d565b91505092915050565b600067ffffffffffffffff82169050919050565b6106ca816106ad565b81146106d557600080fd5b50565b6000813590506106e7816106c1565b92915050565b600073ffffffffffffffffffffffffffffffffffffffff82169050919050565b6000610718826106ed565b9050919050565b6107288161070d565b811461073357600080fd5b50565b6000813590506107458161071f565b92915050565b60008115159050919050565b6107608161074b565b811461076b57600080fd5b50565b60008135905061077d81610757565b92915050565b600080600080600080600060e0888a0312156107a2576107a1610527565b5b60006107b08a828b01610552565b975050602088013567ffffffffffffffff8111156107d1576107d061052c565b5b6107dd8a828b0161067f565b96505060406107ee8a828b01610552565b95505060606107ff8a828b016106d8565b94505060806108108a828b01610552565b93505060a06108218a828b01610736565b92505060c06108328a828b0161076e565b91505092959891949750929550565b60006020828403121561085757610856610527565b5b600061086584828501610552565b91505092915050565b600081519050919050565b600082825260208201905092915050565b60005b838110156108a857808201518184015260208101905061088d565b60008484015250505050565b60006108bf8261086e565b6108c98185610879565b93506108d981856020860161088a565b6108e281610571565b840191505092915050565b6108f681610531565b82525050565b610905816106ad565b82525050565b6109148161070d565b82525050565b6109238161074b565b82525050565b600060c082019050818103600083015261094381896108b4565b905061095260208301886108ed565b61095f60408301876108fc565b61096c60608301866108ed565b610979608083018561090b565b61098660a083018461091a565b979650505050505050565b60006020820190506109a660008301846108ed565b92915050565b7f4e487b7100000000000000000000000000000000000000000000000000000000600052602260045260246000fd5b600060028204905060018216806109f357607f821691505b602082108103610a0657610a056109ac565b5b50919050565b60008190508160005260206000209050919050565b60006020601f8301049050919050565b600082821b905092915050565b600060088302610a6e7fffffffffffffffffffffffffffffffffffffffffffffffffffffffffffffffff82610a31565b610a788683610a31565b95508019841693508086168417925050509392505050565b6000819050919050565b6000610ab5610ab0610aab84610531565b610a90565b610531565b9050919050565b6000819050919050565b610acf83610a9a565b610ae3610adb82610abc565b848454610a3e565b825550505050565b600090565b610af8610aeb565b610b03818484610ac6565b505050565b5b81811015610b2757610b1c600082610af0565b600181019050610b09565b5050565b601f821115610b6c57610b3d81610a0c565b610b4684610a21565b81016020851015610b55578190505b610b69610b6185610a21565b830182610b08565b50505b505050565b600082821c905092915050565b6000610b8f60001984600802610b71565b1980831691505092915050565b6000610ba88383610b7e565b9150826002028217905092915050565b610bc18261086e565b67ffffffffffffffff811115610bda57610bd9610582565b5b610be482546109db565b610bef828285610b2b565b600060209050601f831160018114610c225760008415610c10578287015190505b610c1a8582610b9c565b865550610c82565b601f198416610c3086610a0c565b60005b82811015610c5857848901518255600182019150602085019450602081019050610c33565b86831015610c755784890151610c71601f891682610b7e565b8355505b6001600288020188555050505b505050505050565b7f50726f7065727479206973206e6f7420666f722073616c650000000000000000600082015250565b6000610cc0601883610879565b9150610ccb82610c8a565b602082019050919050565b60006020820190508181036000830152610cef81610cb3565b905091905056fea264697066735822122016df8db77a01ab21802b58e8ea8434fe3e8c02be4bcb41c31e8b95f242b8ae5364736f6c63430008120033",
					"opcodes": "PUSH1 0x80 PUSH1 0x40 MSTORE CALLVALUE DUP1 ISZERO PUSH2 0x10 JUMPI PUSH1 0x0 DUP1 REVERT JUMPDEST POP PUSH2 0xD2C DUP1 PUSH2 0x20 PUSH1 0x0 CODECOPY PUSH1 0x0 RETURN INVALID PUSH1 0x80 PUSH1 0x40 MSTORE PUSH1 0x4 CALLDATASIZE LT PUSH2 0x3F JUMPI PUSH1 0x0 CALLDATALOAD PUSH1 0xE0 SHR DUP1 PUSH4 0x5F11BC2 EQ PUSH2 0x44 JUMPI DUP1 PUSH4 0x61BF49EE EQ PUSH2 0x6D JUMPI DUP1 PUSH4 0x7B1949D2 EQ PUSH2 0xAF JUMPI DUP1 PUSH4 0xA8F8944B EQ PUSH2 0xCB JUMPI JUMPDEST PUSH1 0x0 DUP1 REVERT JUMPDEST CALLVALUE DUP1 ISZERO PUSH2 0x50 JUMPI PUSH1 0x0 DUP1 REVERT JUMPDEST POP PUSH2 0x6B PUSH1 0x4 DUP1 CALLDATASIZE SUB DUP2 ADD SWAP1 PUSH2 0x66 SWAP2 SWAP1 PUSH2 0x783 JUMP JUMPDEST PUSH2 0x108 JUMP JUMPDEST STOP JUMPDEST CALLVALUE DUP1 ISZERO PUSH2 0x79 JUMPI PUSH1 0x0 DUP1 REVERT JUMPDEST POP PUSH2 0x94 PUSH1 0x4 DUP1 CALLDATASIZE SUB DUP2 ADD SWAP1 PUSH2 0x8F SWAP2 SWAP1 PUSH2 0x841 JUMP JUMPDEST PUSH2 0x265 JUMP JUMPDEST PUSH1 0x40 MLOAD PUSH2 0xA6 SWAP7 SWAP6 SWAP5 SWAP4 SWAP3 SWAP2 SWAP1 PUSH2 0x929 JUMP JUMPDEST PUSH1 0x40 MLOAD DUP1 SWAP2 SUB SWAP1 RETURN JUMPDEST PUSH2 0xC9 PUSH1 0x4 DUP1 CALLDATASIZE SUB DUP2 ADD SWAP1 PUSH2 0xC4 SWAP2 SWAP1 PUSH2 0x841 JUMP JUMPDEST PUSH2 0x36A JUMP JUMPDEST STOP JUMPDEST CALLVALUE DUP1 ISZERO PUSH2 0xD7 JUMPI PUSH1 0x0 DUP1 REVERT JUMPDEST POP PUSH2 0xF2 PUSH1 0x4 DUP1 CALLDATASIZE SUB DUP2 ADD SWAP1 PUSH2 0xED SWAP2 SWAP1 PUSH2 0x841 JUMP JUMPDEST PUSH2 0x4F9 JUMP JUMPDEST PUSH1 0x40 MLOAD PUSH2 0xFF SWAP2 SWAP1 PUSH2 0x991 JUMP JUMPDEST PUSH1 0x40 MLOAD DUP1 SWAP2 SUB SWAP1 RETURN JUMPDEST PUSH1 0x0 PUSH1 0x40 MLOAD DUP1 PUSH1 0xC0 ADD PUSH1 0x40 MSTORE DUP1 DUP9 DUP2 MSTORE PUSH1 0x20 ADD DUP8 DUP2 MSTORE PUSH1 0x20 ADD DUP7 PUSH8 0xFFFFFFFFFFFFFFFF AND DUP2 MSTORE PUSH1 0x20 ADD DUP6 DUP2 MSTORE PUSH1 0x20 ADD CALLER PUSH20 0xFFFFFFFFFFFFFFFFFFFFFFFFFFFFFFFFFFFFFFFF AND DUP2 MSTORE PUSH1 0x20 ADD PUSH1 0x1 ISZERO ISZERO DUP2 MSTORE POP SWAP1 POP DUP1 PUSH1 0x0 DUP1 DUP11 DUP2 MSTORE PUSH1 0x20 ADD SWAP1 DUP2 MSTORE PUSH1 0x20 ADD PUSH1 0x0 KECCAK256 PUSH1 0x0 DUP3 ADD MLOAD DUP2 PUSH1 0x0 ADD SWAP1 DUP2 PUSH2 0x184 SWAP2 SWAP1 PUSH2 0xBB8 JUMP JUMPDEST POP PUSH1 0x20 DUP3 ADD MLOAD DUP2 PUSH1 0x1 ADD SSTORE PUSH1 0x40 DUP3 ADD MLOAD DUP2 PUSH1 0x2 ADD PUSH1 0x0 PUSH2 0x100 EXP DUP2 SLOAD DUP2 PUSH8 0xFFFFFFFFFFFFFFFF MUL NOT AND SWAP1 DUP4 PUSH8 0xFFFFFFFFFFFFFFFF AND MUL OR SWAP1 SSTORE POP PUSH1 0x60 DUP3 ADD MLOAD DUP2 PUSH1 0x3 ADD SSTORE PUSH1 0x80 DUP3 ADD MLOAD DUP2 PUSH1 0x4 ADD PUSH1 0x0 PUSH2 0x100 EXP DUP2 SLOAD DUP2 PUSH20 0xFFFFFFFFFFFFFFFFFFFFFFFFFFFFFFFFFFFFFFFF MUL NOT AND SWAP1 DUP4 PUSH20 0xFFFFFFFFFFFFFFFFFFFFFFFFFFFFFFFFFFFFFFFF AND MUL OR SWAP1 SSTORE POP PUSH1 0xA0 DUP3 ADD MLOAD DUP2 PUSH1 0x4 ADD PUSH1 0x14 PUSH2 0x100 EXP DUP2 SLOAD DUP2 PUSH1 0xFF MUL NOT AND SWAP1 DUP4 ISZERO ISZERO MUL OR SWAP1 SSTORE POP SWAP1 POP POP PUSH1 0x1 DUP9 SWAP1 DUP1 PUSH1 0x1 DUP2 SLOAD ADD DUP1 DUP3 SSTORE DUP1 SWAP2 POP POP PUSH1 0x1 SWAP1 SUB SWAP1 PUSH1 0x0 MSTORE PUSH1 0x20 PUSH1 0x0 KECCAK256 ADD PUSH1 0x0 SWAP1 SWAP2 SWAP1 SWAP2 SWAP1 SWAP2 POP SSTORE POP POP POP POP POP POP POP POP JUMP JUMPDEST PUSH1 0x0 PUSH1 0x20 MSTORE DUP1 PUSH1 0x0 MSTORE PUSH1 0x40 PUSH1 0x0 KECCAK256 PUSH1 0x0 SWAP2 POP SWAP1 POP DUP1 PUSH1 0x0 ADD DUP1 SLOAD PUSH2 0x288 SWAP1 PUSH2 0x9DB JUMP JUMPDEST DUP1 PUSH1 0x1F ADD PUSH1 0x20 DUP1 SWAP2 DIV MUL PUSH1 0x20 ADD PUSH1 0x40 MLOAD SWAP1 DUP2 ADD PUSH1 0x40 MSTORE DUP1 SWAP3 SWAP2 SWAP1 DUP2 DUP2 MSTORE PUSH1 0x20 ADD DUP3 DUP1 SLOAD PUSH2 0x2B4 SWAP1 PUSH2 0x9DB JUMP JUMPDEST DUP1 ISZERO PUSH2 0x301 JUMPI DUP1 PUSH1 0x1F LT PUSH2 0x2D6 JUMPI PUSH2 0x100 DUP1 DUP4 SLOAD DIV MUL DUP4 MSTORE SWAP2 PUSH1 0x20 ADD SWAP2 PUSH2 0x301 JUMP JUMPDEST DUP3 ADD SWAP2 SWAP1 PUSH1 0x0 MSTORE PUSH1 0x20 PUSH1 0x0 KECCAK256 SWAP1 JUMPDEST DUP2 SLOAD DUP2 MSTORE SWAP1 PUSH1 0x1 ADD SWAP1 PUSH1 0x20 ADD DUP1 DUP4 GT PUSH2 0x2E4 JUMPI DUP3 SWAP1 SUB PUSH1 0x1F AND DUP3 ADD SWAP2 JUMPDEST POP POP POP POP POP SWAP1 DUP1 PUSH1 0x1 ADD SLOAD SWAP1 DUP1 PUSH1 0x2 ADD PUSH1 0x0 SWAP1 SLOAD SWAP1 PUSH2 0x100 EXP SWAP1 DIV PUSH8 0xFFFFFFFFFFFFFFFF AND SWAP1 DUP1 PUSH1 0x3 ADD SLOAD SWAP1 DUP1 PUSH1 0x4 ADD PUSH1 0x0 SWAP1 SLOAD SWAP1 PUSH2 0x100 EXP SWAP1 DIV PUSH20 0xFFFFFFFFFFFFFFFFFFFFFFFFFFFFFFFFFFFFFFFF AND SWAP1 DUP1 PUSH1 0x4 ADD PUSH1 0x14 SWAP1 SLOAD SWAP1 PUSH2 0x100 EXP SWAP1 DIV PUSH1 0xFF AND SWAP1 POP DUP7 JUMP JUMPDEST PUSH1 0x0 DUP1 PUSH1 0x0 DUP4 DUP2 MSTORE PUSH1 0x20 ADD SWAP1 DUP2 MSTORE PUSH1 0x20 ADD PUSH1 0x0 KECCAK256 SWAP1 POP DUP1 PUSH1 0x4 ADD PUSH1 0x14 SWAP1 SLOAD SWAP1 PUSH2 0x100 EXP SWAP1 DIV PUSH1 0xFF AND PUSH2 0x3D1 JUMPI PUSH1 0x40 MLOAD PUSH32 0x8C379A000000000000000000000000000000000000000000000000000000000 DUP2 MSTORE PUSH1 0x4 ADD PUSH2 0x3C8 SWAP1 PUSH2 0xCD6 JUMP JUMPDEST PUSH1 0x40 MLOAD DUP1 SWAP2 SUB SWAP1 REVERT JUMPDEST CALLER DUP2 PUSH1 0x4 ADD PUSH1 0x0 PUSH2 0x100 EXP DUP2 SLOAD DUP2 PUSH20 0xFFFFFFFFFFFFFFFFFFFFFFFFFFFFFFFFFFFFFFFF MUL NOT AND SWAP1 DUP4 PUSH20 0xFFFFFFFFFFFFFFFFFFFFFFFFFFFFFFFFFFFFFFFF AND MUL OR SWAP1 SSTORE POP PUSH1 0x0 DUP2 PUSH1 0x4 ADD PUSH1 0x14 PUSH2 0x100 EXP DUP2 SLOAD DUP2 PUSH1 0xFF MUL NOT AND SWAP1 DUP4 ISZERO ISZERO MUL OR SWAP1 SSTORE POP DUP1 PUSH1 0x4 ADD PUSH1 0x0 SWAP1 SLOAD SWAP1 PUSH2 0x100 EXP SWAP1 DIV PUSH20 0xFFFFFFFFFFFFFFFFFFFFFFFFFFFFFFFFFFFFFFFF AND PUSH20 0xFFFFFFFFFFFFFFFFFFFFFFFFFFFFFFFFFFFFFFFF AND PUSH2 0x8FC DUP3 PUSH1 0x2 ADD PUSH1 0x0 SWAP1 SLOAD SWAP1 PUSH2 0x100 EXP SWAP1 DIV PUSH8 0xFFFFFFFFFFFFFFFF AND PUSH8 0xFFFFFFFFFFFFFFFF AND SWAP1 DUP2 ISZERO MUL SWAP1 PUSH1 0x40 MLOAD PUSH1 0x0 PUSH1 0x40 MLOAD DUP1 DUP4 SUB DUP2 DUP6 DUP9 DUP9 CALL SWAP4 POP POP POP POP ISZERO DUP1 ISZERO PUSH2 0x4BD JUMPI RETURNDATASIZE PUSH1 0x0 DUP1 RETURNDATACOPY RETURNDATASIZE PUSH1 0x0 REVERT JUMPDEST POP PUSH32 0x2A19094F8A23C09211F9B12C6C5CC9C09654FF760B0E05983E18A202B36F972C DUP3 PUSH1 0x40 MLOAD PUSH2 0x4ED SWAP2 SWAP1 PUSH2 0x991 JUMP JUMPDEST PUSH1 0x40 MLOAD DUP1 SWAP2 SUB SWAP1 LOG1 POP POP JUMP JUMPDEST PUSH1 0x1 DUP2 DUP2 SLOAD DUP2 LT PUSH2 0x509 JUMPI PUSH1 0x0 DUP1 REVERT JUMPDEST SWAP1 PUSH1 0x0 MSTORE PUSH1 0x20 PUSH1 0x0 KECCAK256 ADD PUSH1 0x0 SWAP2 POP SWAP1 POP SLOAD DUP2 JUMP JUMPDEST PUSH1 0x0 PUSH1 0x40 MLOAD SWAP1 POP SWAP1 JUMP JUMPDEST PUSH1 0x0 DUP1 REVERT JUMPDEST PUSH1 0x0 DUP1 REVERT JUMPDEST PUSH1 0x0 DUP2 SWAP1 POP SWAP2 SWAP1 POP JUMP JUMPDEST PUSH2 0x544 DUP2 PUSH2 0x531 JUMP JUMPDEST DUP2 EQ PUSH2 0x54F JUMPI PUSH1 0x0 DUP1 REVERT JUMPDEST POP JUMP JUMPDEST PUSH1 0x0 DUP2 CALLDATALOAD SWAP1 POP PUSH2 0x561 DUP2 PUSH2 0x53B JUMP JUMPDEST SWAP3 SWAP2 POP POP JUMP JUMPDEST PUSH1 0x0 DUP1 REVERT JUMPDEST PUSH1 0x0 DUP1 REVERT JUMPDEST PUSH1 0x0 PUSH1 0x1F NOT PUSH1 0x1F DUP4 ADD AND SWAP1 POP SWAP2 SWAP1 POP JUMP JUMPDEST PUSH32 0x4E487B7100000000000000000000000000000000000000000000000000000000 PUSH1 0x0 MSTORE PUSH1 0x41 PUSH1 0x4 MSTORE PUSH1 0x24 PUSH1 0x0 REVERT JUMPDEST PUSH2 0x5BA DUP3 PUSH2 0x571 JUMP JUMPDEST DUP2 ADD DUP2 DUP2 LT PUSH8 0xFFFFFFFFFFFFFFFF DUP3 GT OR ISZERO PUSH2 0x5D9 JUMPI PUSH2 0x5D8 PUSH2 0x582 JUMP JUMPDEST JUMPDEST DUP1 PUSH1 0x40 MSTORE POP POP POP JUMP JUMPDEST PUSH1 0x0 PUSH2 0x5EC PUSH2 0x51D JUMP JUMPDEST SWAP1 POP PUSH2 0x5F8 DUP3 DUP3 PUSH2 0x5B1 JUMP JUMPDEST SWAP2 SWAP1 POP JUMP JUMPDEST PUSH1 0x0 PUSH8 0xFFFFFFFFFFFFFFFF DUP3 GT ISZERO PUSH2 0x618 JUMPI PUSH2 0x617 PUSH2 0x582 JUMP JUMPDEST JUMPDEST PUSH2 0x621 DUP3 PUSH2 0x571 JUMP JUMPDEST SWAP1 POP PUSH1 0x20 DUP2 ADD SWAP1 POP SWAP2 SWAP1 POP JUMP JUMPDEST DUP3 DUP2 DUP4 CALLDATACOPY PUSH1 0x0 DUP4 DUP4 ADD MSTORE POP POP POP JUMP JUMPDEST PUSH1 0x0 PUSH2 0x650 PUSH2 0x64B DUP5 PUSH2 0x5FD JUMP JUMPDEST PUSH2 0x5E2 JUMP JUMPDEST SWAP1 POP DUP3 DUP2 MSTORE PUSH1 0x20 DUP2 ADD DUP5 DUP5 DUP5 ADD GT ISZERO PUSH2 0x66C JUMPI PUSH2 0x66B PUSH2 0x56C JUMP JUMPDEST JUMPDEST PUSH2 0x677 DUP5 DUP3 DUP6 PUSH2 0x62E JUMP JUMPDEST POP SWAP4 SWAP3 POP POP POP JUMP JUMPDEST PUSH1 0x0 DUP3 PUSH1 0x1F DUP4 ADD SLT PUSH2 0x694 JUMPI PUSH2 0x693 PUSH2 0x567 JUMP JUMPDEST JUMPDEST DUP2 CALLDATALOAD PUSH2 0x6A4 DUP5 DUP3 PUSH1 0x20 DUP7 ADD PUSH2 0x63D JUMP JUMPDEST SWAP2 POP POP SWAP3 SWAP2 POP POP JUMP JUMPDEST PUSH1 0x0 PUSH8 0xFFFFFFFFFFFFFFFF DUP3 AND SWAP1 POP SWAP2 SWAP1 POP JUMP JUMPDEST PUSH2 0x6CA DUP2 PUSH2 0x6AD JUMP JUMPDEST DUP2 EQ PUSH2 0x6D5 JUMPI PUSH1 0x0 DUP1 REVERT JUMPDEST POP JUMP JUMPDEST PUSH1 0x0 DUP2 CALLDATALOAD SWAP1 POP PUSH2 0x6E7 DUP2 PUSH2 0x6C1 JUMP JUMPDEST SWAP3 SWAP2 POP POP JUMP JUMPDEST PUSH1 0x0 PUSH20 0xFFFFFFFFFFFFFFFFFFFFFFFFFFFFFFFFFFFFFFFF DUP3 AND SWAP1 POP SWAP2 SWAP1 POP JUMP JUMPDEST PUSH1 0x0 PUSH2 0x718 DUP3 PUSH2 0x6ED JUMP JUMPDEST SWAP1 POP SWAP2 SWAP1 POP JUMP JUMPDEST PUSH2 0x728 DUP2 PUSH2 0x70D JUMP JUMPDEST DUP2 EQ PUSH2 0x733 JUMPI PUSH1 0x0 DUP1 REVERT JUMPDEST POP JUMP JUMPDEST PUSH1 0x0 DUP2 CALLDATALOAD SWAP1 POP PUSH2 0x745 DUP2 PUSH2 0x71F JUMP JUMPDEST SWAP3 SWAP2 POP POP JUMP JUMPDEST PUSH1 0x0 DUP2 ISZERO ISZERO SWAP1 POP SWAP2 SWAP1 POP JUMP JUMPDEST PUSH2 0x760 DUP2 PUSH2 0x74B JUMP JUMPDEST DUP2 EQ PUSH2 0x76B JUMPI PUSH1 0x0 DUP1 REVERT JUMPDEST POP JUMP JUMPDEST PUSH1 0x0 DUP2 CALLDATALOAD SWAP1 POP PUSH2 0x77D DUP2 PUSH2 0x757 JUMP JUMPDEST SWAP3 SWAP2 POP POP JUMP JUMPDEST PUSH1 0x0 DUP1 PUSH1 0x0 DUP1 PUSH1 0x0 DUP1 PUSH1 0x0 PUSH1 0xE0 DUP9 DUP11 SUB SLT ISZERO PUSH2 0x7A2 JUMPI PUSH2 0x7A1 PUSH2 0x527 JUMP JUMPDEST JUMPDEST PUSH1 0x0 PUSH2 0x7B0 DUP11 DUP3 DUP12 ADD PUSH2 0x552 JUMP JUMPDEST SWAP8 POP POP PUSH1 0x20 DUP9 ADD CALLDATALOAD PUSH8 0xFFFFFFFFFFFFFFFF DUP2 GT ISZERO PUSH2 0x7D1 JUMPI PUSH2 0x7D0 PUSH2 0x52C JUMP JUMPDEST JUMPDEST PUSH2 0x7DD DUP11 DUP3 DUP12 ADD PUSH2 0x67F JUMP JUMPDEST SWAP7 POP POP PUSH1 0x40 PUSH2 0x7EE DUP11 DUP3 DUP12 ADD PUSH2 0x552 JUMP JUMPDEST SWAP6 POP POP PUSH1 0x60 PUSH2 0x7FF DUP11 DUP3 DUP12 ADD PUSH2 0x6D8 JUMP JUMPDEST SWAP5 POP POP PUSH1 0x80 PUSH2 0x810 DUP11 DUP3 DUP12 ADD PUSH2 0x552 JUMP JUMPDEST SWAP4 POP POP PUSH1 0xA0 PUSH2 0x821 DUP11 DUP3 DUP12 ADD PUSH2 0x736 JUMP JUMPDEST SWAP3 POP POP PUSH1 0xC0 PUSH2 0x832 DUP11 DUP3 DUP12 ADD PUSH2 0x76E JUMP JUMPDEST SWAP2 POP POP SWAP3 SWAP6 SWAP9 SWAP2 SWAP5 SWAP8 POP SWAP3 SWAP6 POP JUMP JUMPDEST PUSH1 0x0 PUSH1 0x20 DUP3 DUP5 SUB SLT ISZERO PUSH2 0x857 JUMPI PUSH2 0x856 PUSH2 0x527 JUMP JUMPDEST JUMPDEST PUSH1 0x0 PUSH2 0x865 DUP5 DUP3 DUP6 ADD PUSH2 0x552 JUMP JUMPDEST SWAP2 POP POP SWAP3 SWAP2 POP POP JUMP JUMPDEST PUSH1 0x0 DUP2 MLOAD SWAP1 POP SWAP2 SWAP1 POP JUMP JUMPDEST PUSH1 0x0 DUP3 DUP3 MSTORE PUSH1 0x20 DUP3 ADD SWAP1 POP SWAP3 SWAP2 POP POP JUMP JUMPDEST PUSH1 0x0 JUMPDEST DUP4 DUP2 LT ISZERO PUSH2 0x8A8 JUMPI DUP1 DUP3 ADD MLOAD DUP2 DUP5 ADD MSTORE PUSH1 0x20 DUP2 ADD SWAP1 POP PUSH2 0x88D JUMP JUMPDEST PUSH1 0x0 DUP5 DUP5 ADD MSTORE POP POP POP POP JUMP JUMPDEST PUSH1 0x0 PUSH2 0x8BF DUP3 PUSH2 0x86E JUMP JUMPDEST PUSH2 0x8C9 DUP2 DUP6 PUSH2 0x879 JUMP JUMPDEST SWAP4 POP PUSH2 0x8D9 DUP2 DUP6 PUSH1 0x20 DUP7 ADD PUSH2 0x88A JUMP JUMPDEST PUSH2 0x8E2 DUP2 PUSH2 0x571 JUMP JUMPDEST DUP5 ADD SWAP2 POP POP SWAP3 SWAP2 POP POP JUMP JUMPDEST PUSH2 0x8F6 DUP2 PUSH2 0x531 JUMP JUMPDEST DUP3 MSTORE POP POP JUMP JUMPDEST PUSH2 0x905 DUP2 PUSH2 0x6AD JUMP JUMPDEST DUP3 MSTORE POP POP JUMP JUMPDEST PUSH2 0x914 DUP2 PUSH2 0x70D JUMP JUMPDEST DUP3 MSTORE POP POP JUMP JUMPDEST PUSH2 0x923 DUP2 PUSH2 0x74B JUMP JUMPDEST DUP3 MSTORE POP POP JUMP JUMPDEST PUSH1 0x0 PUSH1 0xC0 DUP3 ADD SWAP1 POP DUP2 DUP2 SUB PUSH1 0x0 DUP4 ADD MSTORE PUSH2 0x943 DUP2 DUP10 PUSH2 0x8B4 JUMP JUMPDEST SWAP1 POP PUSH2 0x952 PUSH1 0x20 DUP4 ADD DUP9 PUSH2 0x8ED JUMP JUMPDEST PUSH2 0x95F PUSH1 0x40 DUP4 ADD DUP8 PUSH2 0x8FC JUMP JUMPDEST PUSH2 0x96C PUSH1 0x60 DUP4 ADD DUP7 PUSH2 0x8ED JUMP JUMPDEST PUSH2 0x979 PUSH1 0x80 DUP4 ADD DUP6 PUSH2 0x90B JUMP JUMPDEST PUSH2 0x986 PUSH1 0xA0 DUP4 ADD DUP5 PUSH2 0x91A JUMP JUMPDEST SWAP8 SWAP7 POP POP POP POP POP POP POP JUMP JUMPDEST PUSH1 0x0 PUSH1 0x20 DUP3 ADD SWAP1 POP PUSH2 0x9A6 PUSH1 0x0 DUP4 ADD DUP5 PUSH2 0x8ED JUMP JUMPDEST SWAP3 SWAP2 POP POP JUMP JUMPDEST PUSH32 0x4E487B7100000000000000000000000000000000000000000000000000000000 PUSH1 0x0 MSTORE PUSH1 0x22 PUSH1 0x4 MSTORE PUSH1 0x24 PUSH1 0x0 REVERT JUMPDEST PUSH1 0x0 PUSH1 0x2 DUP3 DIV SWAP1 POP PUSH1 0x1 DUP3 AND DUP1 PUSH2 0x9F3 JUMPI PUSH1 0x7F DUP3 AND SWAP2 POP JUMPDEST PUSH1 0x20 DUP3 LT DUP2 SUB PUSH2 0xA06 JUMPI PUSH2 0xA05 PUSH2 0x9AC JUMP JUMPDEST JUMPDEST POP SWAP2 SWAP1 POP JUMP JUMPDEST PUSH1 0x0 DUP2 SWAP1 POP DUP2 PUSH1 0x0 MSTORE PUSH1 0x20 PUSH1 0x0 KECCAK256 SWAP1 POP SWAP2 SWAP1 POP JUMP JUMPDEST PUSH1 0x0 PUSH1 0x20 PUSH1 0x1F DUP4 ADD DIV SWAP1 POP SWAP2 SWAP1 POP JUMP JUMPDEST PUSH1 0x0 DUP3 DUP3 SHL SWAP1 POP SWAP3 SWAP2 POP POP JUMP JUMPDEST PUSH1 0x0 PUSH1 0x8 DUP4 MUL PUSH2 0xA6E PUSH32 0xFFFFFFFFFFFFFFFFFFFFFFFFFFFFFFFFFFFFFFFFFFFFFFFFFFFFFFFFFFFFFFFF DUP3 PUSH2 0xA31 JUMP JUMPDEST PUSH2 0xA78 DUP7 DUP4 PUSH2 0xA31 JUMP JUMPDEST SWAP6 POP DUP1 NOT DUP5 AND SWAP4 POP DUP1 DUP7 AND DUP5 OR SWAP3 POP POP POP SWAP4 SWAP3 POP POP POP JUMP JUMPDEST PUSH1 0x0 DUP2 SWAP1 POP SWAP2 SWAP1 POP JUMP JUMPDEST PUSH1 0x0 PUSH2 0xAB5 PUSH2 0xAB0 PUSH2 0xAAB DUP5 PUSH2 0x531 JUMP JUMPDEST PUSH2 0xA90 JUMP JUMPDEST PUSH2 0x531 JUMP JUMPDEST SWAP1 POP SWAP2 SWAP1 POP JUMP JUMPDEST PUSH1 0x0 DUP2 SWAP1 POP SWAP2 SWAP1 POP JUMP JUMPDEST PUSH2 0xACF DUP4 PUSH2 0xA9A JUMP JUMPDEST PUSH2 0xAE3 PUSH2 0xADB DUP3 PUSH2 0xABC JUMP JUMPDEST DUP5 DUP5 SLOAD PUSH2 0xA3E JUMP JUMPDEST DUP3 SSTORE POP POP POP POP JUMP JUMPDEST PUSH1 0x0 SWAP1 JUMP JUMPDEST PUSH2 0xAF8 PUSH2 0xAEB JUMP JUMPDEST PUSH2 0xB03 DUP2 DUP5 DUP5 PUSH2 0xAC6 JUMP JUMPDEST POP POP POP JUMP JUMPDEST JUMPDEST DUP2 DUP2 LT ISZERO PUSH2 0xB27 JUMPI PUSH2 0xB1C PUSH1 0x0 DUP3 PUSH2 0xAF0 JUMP JUMPDEST PUSH1 0x1 DUP2 ADD SWAP1 POP PUSH2 0xB09 JUMP JUMPDEST POP POP JUMP JUMPDEST PUSH1 0x1F DUP3 GT ISZERO PUSH2 0xB6C JUMPI PUSH2 0xB3D DUP2 PUSH2 0xA0C JUMP JUMPDEST PUSH2 0xB46 DUP5 PUSH2 0xA21 JUMP JUMPDEST DUP2 ADD PUSH1 0x20 DUP6 LT ISZERO PUSH2 0xB55 JUMPI DUP2 SWAP1 POP JUMPDEST PUSH2 0xB69 PUSH2 0xB61 DUP6 PUSH2 0xA21 JUMP JUMPDEST DUP4 ADD DUP3 PUSH2 0xB08 JUMP JUMPDEST POP POP JUMPDEST POP POP POP JUMP JUMPDEST PUSH1 0x0 DUP3 DUP3 SHR SWAP1 POP SWAP3 SWAP2 POP POP JUMP JUMPDEST PUSH1 0x0 PUSH2 0xB8F PUSH1 0x0 NOT DUP5 PUSH1 0x8 MUL PUSH2 0xB71 JUMP JUMPDEST NOT DUP1 DUP4 AND SWAP2 POP POP SWAP3 SWAP2 POP POP JUMP JUMPDEST PUSH1 0x0 PUSH2 0xBA8 DUP4 DUP4 PUSH2 0xB7E JUMP JUMPDEST SWAP2 POP DUP3 PUSH1 0x2 MUL DUP3 OR SWAP1 POP SWAP3 SWAP2 POP POP JUMP JUMPDEST PUSH2 0xBC1 DUP3 PUSH2 0x86E JUMP JUMPDEST PUSH8 0xFFFFFFFFFFFFFFFF DUP2 GT ISZERO PUSH2 0xBDA JUMPI PUSH2 0xBD9 PUSH2 0x582 JUMP JUMPDEST JUMPDEST PUSH2 0xBE4 DUP3 SLOAD PUSH2 0x9DB JUMP JUMPDEST PUSH2 0xBEF DUP3 DUP3 DUP6 PUSH2 0xB2B JUMP JUMPDEST PUSH1 0x0 PUSH1 0x20 SWAP1 POP PUSH1 0x1F DUP4 GT PUSH1 0x1 DUP2 EQ PUSH2 0xC22 JUMPI PUSH1 0x0 DUP5 ISZERO PUSH2 0xC10 JUMPI DUP3 DUP8 ADD MLOAD SWAP1 POP JUMPDEST PUSH2 0xC1A DUP6 DUP3 PUSH2 0xB9C JUMP JUMPDEST DUP7 SSTORE POP PUSH2 0xC82 JUMP JUMPDEST PUSH1 0x1F NOT DUP5 AND PUSH2 0xC30 DUP7 PUSH2 0xA0C JUMP JUMPDEST PUSH1 0x0 JUMPDEST DUP3 DUP2 LT ISZERO PUSH2 0xC58 JUMPI DUP5 DUP10 ADD MLOAD DUP3 SSTORE PUSH1 0x1 DUP3 ADD SWAP2 POP PUSH1 0x20 DUP6 ADD SWAP5 POP PUSH1 0x20 DUP2 ADD SWAP1 POP PUSH2 0xC33 JUMP JUMPDEST DUP7 DUP4 LT ISZERO PUSH2 0xC75 JUMPI DUP5 DUP10 ADD MLOAD PUSH2 0xC71 PUSH1 0x1F DUP10 AND DUP3 PUSH2 0xB7E JUMP JUMPDEST DUP4 SSTORE POP JUMPDEST PUSH1 0x1 PUSH1 0x2 DUP9 MUL ADD DUP9 SSTORE POP POP POP JUMPDEST POP POP POP POP POP POP JUMP JUMPDEST PUSH32 0x50726F7065727479206973206E6F7420666F722073616C650000000000000000 PUSH1 0x0 DUP3 ADD MSTORE POP JUMP JUMPDEST PUSH1 0x0 PUSH2 0xCC0 PUSH1 0x18 DUP4 PUSH2 0x879 JUMP JUMPDEST SWAP2 POP PUSH2 0xCCB DUP3 PUSH2 0xC8A JUMP JUMPDEST PUSH1 0x20 DUP3 ADD SWAP1 POP SWAP2 SWAP1 POP JUMP JUMPDEST PUSH1 0x0 PUSH1 0x20 DUP3 ADD SWAP1 POP DUP2 DUP2 SUB PUSH1 0x0 DUP4 ADD MSTORE PUSH2 0xCEF DUP2 PUSH2 0xCB3 JUMP JUMPDEST SWAP1 POP SWAP2 SWAP1 POP JUMP INVALID LOG2 PUSH5 0x6970667358 0x22 SLT KECCAK256 AND 0xDF DUP14 0xB7 PUSH27 0x1AB21802B58E8EA8434FE3E8C02BE4BCB41C31E8B95F242B8AE53 PUSH5 0x736F6C6343 STOP ADDMOD SLT STOP CALLER "
				},
				"gasEstimates": {
					"creation": {
						"codeDepositCost": "674400",
						"executionCost": "708",
						"totalCost": "675108"
					},
					"external": {
						"ListPlotForsale(uint256,string,uint256,uint64,uint256,address,bool)": "infinite",
						"buyPlot(uint256)": "infinite",
						"plotIds(uint256)": "infinite",
						"plots(uint256)": "infinite"
					}
				},
				"methodIdentifiers": {
					"ListPlotForsale(uint256,string,uint256,uint64,uint256,address,bool)": "05f11bc2",
					"buyPlot(uint256)": "7b1949d2",
					"plotIds(uint256)": "a8f8944b",
					"plots(uint256)": "61bf49ee"
				}
			},
			"storageLayout": {
				"storage": [
					{
						"astId": 19,
						"contract": "gulburgcolony.sol:GullburgColony",
						"label": "plots",
						"offset": 0,
						"slot": "0",
						"type": "t_mapping(t_uint256,t_struct(Plot)14_storage)"
					},
					{
						"astId": 22,
						"contract": "gulburgcolony.sol:GullburgColony",
						"label": "plotIds",
						"offset": 0,
						"slot": "1",
						"type": "t_array(t_uint256)dyn_storage"
					}
				],
				"types": {
					"t_address": {
						"encoding": "inplace",
						"label": "address",
						"numberOfBytes": "20"
					},
					"t_array(t_uint256)dyn_storage": {
						"base": "t_uint256",
						"encoding": "dynamic_array",
						"label": "uint256[]",
						"numberOfBytes": "32"
					},
					"t_bool": {
						"encoding": "inplace",
						"label": "bool",
						"numberOfBytes": "1"
					},
					"t_mapping(t_uint256,t_struct(Plot)14_storage)": {
						"encoding": "mapping",
						"key": "t_uint256",
						"label": "mapping(uint256 => struct GullburgColony.Plot)",
						"numberOfBytes": "32",
						"value": "t_struct(Plot)14_storage"
					},
					"t_string_storage": {
						"encoding": "bytes",
						"label": "string",
						"numberOfBytes": "32"
					},
					"t_struct(Plot)14_storage": {
						"encoding": "inplace",
						"label": "struct GullburgColony.Plot",
						"members": [
							{
								"astId": 3,
								"contract": "gulburgcolony.sol:GullburgColony",
								"label": "blockName",
								"offset": 0,
								"slot": "0",
								"type": "t_string_storage"
							},
							{
								"astId": 5,
								"contract": "gulburgcolony.sol:GullburgColony",
								"label": "nOfPlots",
								"offset": 0,
								"slot": "1",
								"type": "t_uint256"
							},
							{
								"astId": 7,
								"contract": "gulburgcolony.sol:GullburgColony",
								"label": "perMarlaPrice",
								"offset": 0,
								"slot": "2",
								"type": "t_uint64"
							},
							{
								"astId": 9,
								"contract": "gulburgcolony.sol:GullburgColony",
								"label": "sizeOfPlots",
								"offset": 0,
								"slot": "3",
								"type": "t_uint256"
							},
							{
								"astId": 11,
								"contract": "gulburgcolony.sol:GullburgColony",
								"label": "onwer",
								"offset": 0,
								"slot": "4",
								"type": "t_address"
							},
							{
								"astId": 13,
								"contract": "gulburgcolony.sol:GullburgColony",
								"label": "isForSale",
								"offset": 20,
								"slot": "4",
								"type": "t_bool"
							}
						],
						"numberOfBytes": "160"
					},
					"t_uint256": {
						"encoding": "inplace",
						"label": "uint256",
						"numberOfBytes": "32"
					},
					"t_uint64": {
						"encoding": "inplace",
						"label": "uint64",
						"numberOfBytes": "8"
					}
				}
			},
			"userdoc": {
				"kind": "user",
				"methods": {},
				"version": 1
			}
		}
	}
}