{
	"foorloopbundle/breakstetment.sol": {
		"LoopWithBreak": {
			"abi": [
				{
					"inputs": [
						{
							"internalType": "uint256[]",
							"name": "array",
							"type": "uint256[]"
						},
						{
							"internalType": "uint256",
							"name": "target",
							"type": "uint256"
						}
					],
					"name": "findValueInArray",
					"outputs": [
						{
							"internalType": "bool",
							"name": "",
							"type": "bool"
						}
					],
					"stateMutability": "pure",
					"type": "function"
				}
			],
			"devdoc": {
				"kind": "dev",
				"methods": {},
				"version": 1
			},
			"evm": {
				"assembly": "    /* \"foorloopbundle/breakstetment.sol\":70:377  contract LoopWithBreak {... */\n  mstore(0x40, 0x80)\n  callvalue\n  dup1\n  iszero\n  tag_1\n  jumpi\n  0x00\n  dup1\n  revert\ntag_1:\n  pop\n  dataSize(sub_0)\n  dup1\n  dataOffset(sub_0)\n  0x00\n  codecopy\n  0x00\n  return\nstop\n\nsub_0: assembly {\n        /* \"foorloopbundle/breakstetment.sol\":70:377  contract LoopWithBreak {... */\n      mstore(0x40, 0x80)\n      callvalue\n      dup1\n      iszero\n      tag_1\n      jumpi\n      0x00\n      dup1\n      revert\n    tag_1:\n      pop\n      jumpi(tag_2, lt(calldatasize, 0x04))\n      shr(0xe0, calldataload(0x00))\n      dup1\n      0x2fb958\n      eq\n      tag_3\n      jumpi\n    tag_2:\n      0x00\n      dup1\n      revert\n        /* \"foorloopbundle/breakstetment.sol\":100:374  function findValueInArray(uint256[] memory array, uint256 target) public pure returns (bool) {... */\n    tag_3:\n      tag_4\n      0x04\n      dup1\n      calldatasize\n      sub\n      dup2\n      add\n      swap1\n      tag_5\n      swap2\n      swap1\n      tag_6\n      jump\t// in\n    tag_5:\n      tag_7\n      jump\t// in\n    tag_4:\n      mload(0x40)\n      tag_8\n      swap2\n      swap1\n      tag_9\n      jump\t// in\n    tag_8:\n      mload(0x40)\n      dup1\n      swap2\n      sub\n      swap1\n      return\n    tag_7:\n        /* \"foorloopbundle/breakstetment.sol\":187:191  bool */\n      0x00\n        /* \"foorloopbundle/breakstetment.sol\":209:218  uint256 i */\n      dup1\n        /* \"foorloopbundle/breakstetment.sol\":221:222  0 */\n      0x00\n        /* \"foorloopbundle/breakstetment.sol\":209:222  uint256 i = 0 */\n      swap1\n      pop\n        /* \"foorloopbundle/breakstetment.sol\":204:344  for (uint256 i = 0; i < array.length; i++) {... */\n    tag_11:\n        /* \"foorloopbundle/breakstetment.sol\":228:233  array */\n      dup4\n        /* \"foorloopbundle/breakstetment.sol\":228:240  array.length */\n      mload\n        /* \"foorloopbundle/breakstetment.sol\":224:225  i */\n      dup2\n        /* \"foorloopbundle/breakstetment.sol\":224:240  i < array.length */\n      lt\n        /* \"foorloopbundle/breakstetment.sol\":204:344  for (uint256 i = 0; i < array.length; i++) {... */\n      iszero\n      tag_12\n      jumpi\n        /* \"foorloopbundle/breakstetment.sol\":278:284  target */\n      dup3\n        /* \"foorloopbundle/breakstetment.sol\":266:271  array */\n      dup5\n        /* \"foorloopbundle/breakstetment.sol\":272:273  i */\n      dup3\n        /* \"foorloopbundle/breakstetment.sol\":266:274  array[i] */\n      dup2\n      mload\n      dup2\n      lt\n      tag_14\n      jumpi\n      tag_15\n      tag_16\n      jump\t// in\n    tag_15:\n    tag_14:\n      0x20\n      mul\n      0x20\n      add\n      add\n      mload\n        /* \"foorloopbundle/breakstetment.sol\":266:284  array[i] == target */\n      sub\n        /* \"foorloopbundle/breakstetment.sol\":262:333  if (array[i] == target) {... */\n      tag_17\n      jumpi\n        /* \"foorloopbundle/breakstetment.sol\":312:316  true */\n      0x01\n        /* \"foorloopbundle/breakstetment.sol\":305:316  return true */\n      swap2\n      pop\n      pop\n      jump(tag_10)\n        /* \"foorloopbundle/breakstetment.sol\":262:333  if (array[i] == target) {... */\n    tag_17:\n        /* \"foorloopbundle/breakstetment.sol\":242:245  i++ */\n      dup1\n      dup1\n      tag_18\n      swap1\n      tag_19\n      jump\t// in\n    tag_18:\n      swap2\n      pop\n      pop\n        /* \"foorloopbundle/breakstetment.sol\":204:344  for (uint256 i = 0; i < array.length; i++) {... */\n      jump(tag_11)\n    tag_12:\n      pop\n        /* \"foorloopbundle/breakstetment.sol\":361:366  false */\n      0x00\n        /* \"foorloopbundle/breakstetment.sol\":354:366  return false */\n      swap1\n      pop\n        /* \"foorloopbundle/breakstetment.sol\":100:374  function findValueInArray(uint256[] memory array, uint256 target) public pure returns (bool) {... */\n    tag_10:\n      swap3\n      swap2\n      pop\n      pop\n      jump\t// out\n        /* \"#utility.yul\":7:82   */\n    tag_20:\n        /* \"#utility.yul\":40:46   */\n      0x00\n        /* \"#utility.yul\":73:75   */\n      0x40\n        /* \"#utility.yul\":67:76   */\n      mload\n        /* \"#utility.yul\":57:76   */\n      swap1\n      pop\n        /* \"#utility.yul\":7:82   */\n      swap1\n      jump\t// out\n        /* \"#utility.yul\":88:205   */\n    tag_21:\n        /* \"#utility.yul\":197:198   */\n      0x00\n        /* \"#utility.yul\":194:195   */\n      dup1\n        /* \"#utility.yul\":187:199   */\n      revert\n        /* \"#utility.yul\":211:328   */\n    tag_22:\n        /* \"#utility.yul\":320:321   */\n      0x00\n        /* \"#utility.yul\":317:318   */\n      dup1\n        /* \"#utility.yul\":310:322   */\n      revert\n        /* \"#utility.yul\":334:451   */\n    tag_23:\n        /* \"#utility.yul\":443:444   */\n      0x00\n        /* \"#utility.yul\":440:441   */\n      dup1\n        /* \"#utility.yul\":433:445   */\n      revert\n        /* \"#utility.yul\":457:559   */\n    tag_24:\n        /* \"#utility.yul\":498:504   */\n      0x00\n        /* \"#utility.yul\":549:551   */\n      0x1f\n        /* \"#utility.yul\":545:552   */\n      not\n        /* \"#utility.yul\":540:542   */\n      0x1f\n        /* \"#utility.yul\":533:538   */\n      dup4\n        /* \"#utility.yul\":529:543   */\n      add\n        /* \"#utility.yul\":525:553   */\n      and\n        /* \"#utility.yul\":515:553   */\n      swap1\n      pop\n        /* \"#utility.yul\":457:559   */\n      swap2\n      swap1\n      pop\n      jump\t// out\n        /* \"#utility.yul\":565:745   */\n    tag_25:\n        /* \"#utility.yul\":613:690   */\n      0x4e487b7100000000000000000000000000000000000000000000000000000000\n        /* \"#utility.yul\":610:611   */\n      0x00\n        /* \"#utility.yul\":603:691   */\n      mstore\n        /* \"#utility.yul\":710:714   */\n      0x41\n        /* \"#utility.yul\":707:708   */\n      0x04\n        /* \"#utility.yul\":700:715   */\n      mstore\n        /* \"#utility.yul\":734:738   */\n      0x24\n        /* \"#utility.yul\":731:732   */\n      0x00\n        /* \"#utility.yul\":724:739   */\n      revert\n        /* \"#utility.yul\":751:1032   */\n    tag_26:\n        /* \"#utility.yul\":834:861   */\n      tag_46\n        /* \"#utility.yul\":856:860   */\n      dup3\n        /* \"#utility.yul\":834:861   */\n      tag_24\n      jump\t// in\n    tag_46:\n        /* \"#utility.yul\":826:832   */\n      dup2\n        /* \"#utility.yul\":822:862   */\n      add\n        /* \"#utility.yul\":964:970   */\n      dup2\n        /* \"#utility.yul\":952:962   */\n      dup2\n        /* \"#utility.yul\":949:971   */\n      lt\n        /* \"#utility.yul\":928:946   */\n      0xffffffffffffffff\n        /* \"#utility.yul\":916:926   */\n      dup3\n        /* \"#utility.yul\":913:947   */\n      gt\n        /* \"#utility.yul\":910:972   */\n      or\n        /* \"#utility.yul\":907:995   */\n      iszero\n      tag_47\n      jumpi\n        /* \"#utility.yul\":975:993   */\n      tag_48\n      tag_25\n      jump\t// in\n    tag_48:\n        /* \"#utility.yul\":907:995   */\n    tag_47:\n        /* \"#utility.yul\":1015:1025   */\n      dup1\n        /* \"#utility.yul\":1011:1013   */\n      0x40\n        /* \"#utility.yul\":1004:1026   */\n      mstore\n        /* \"#utility.yul\":794:1032   */\n      pop\n        /* \"#utility.yul\":751:1032   */\n      pop\n      pop\n      jump\t// out\n        /* \"#utility.yul\":1038:1167   */\n    tag_27:\n        /* \"#utility.yul\":1072:1078   */\n      0x00\n        /* \"#utility.yul\":1099:1119   */\n      tag_50\n      tag_20\n      jump\t// in\n    tag_50:\n        /* \"#utility.yul\":1089:1119   */\n      swap1\n      pop\n        /* \"#utility.yul\":1128:1161   */\n      tag_51\n        /* \"#utility.yul\":1156:1160   */\n      dup3\n        /* \"#utility.yul\":1148:1154   */\n      dup3\n        /* \"#utility.yul\":1128:1161   */\n      tag_26\n      jump\t// in\n    tag_51:\n        /* \"#utility.yul\":1038:1167   */\n      swap2\n      swap1\n      pop\n      jump\t// out\n        /* \"#utility.yul\":1173:1484   */\n    tag_28:\n        /* \"#utility.yul\":1250:1254   */\n      0x00\n        /* \"#utility.yul\":1340:1358   */\n      0xffffffffffffffff\n        /* \"#utility.yul\":1332:1338   */\n      dup3\n        /* \"#utility.yul\":1329:1359   */\n      gt\n        /* \"#utility.yul\":1326:1382   */\n      iszero\n      tag_53\n      jumpi\n        /* \"#utility.yul\":1362:1380   */\n      tag_54\n      tag_25\n      jump\t// in\n    tag_54:\n        /* \"#utility.yul\":1326:1382   */\n    tag_53:\n        /* \"#utility.yul\":1412:1416   */\n      0x20\n        /* \"#utility.yul\":1404:1410   */\n      dup3\n        /* \"#utility.yul\":1400:1417   */\n      mul\n        /* \"#utility.yul\":1392:1417   */\n      swap1\n      pop\n        /* \"#utility.yul\":1472:1476   */\n      0x20\n        /* \"#utility.yul\":1466:1470   */\n      dup2\n        /* \"#utility.yul\":1462:1477   */\n      add\n        /* \"#utility.yul\":1454:1477   */\n      swap1\n      pop\n        /* \"#utility.yul\":1173:1484   */\n      swap2\n      swap1\n      pop\n      jump\t// out\n        /* \"#utility.yul\":1490:1607   */\n    tag_29:\n        /* \"#utility.yul\":1599:1600   */\n      0x00\n        /* \"#utility.yul\":1596:1597   */\n      dup1\n        /* \"#utility.yul\":1589:1601   */\n      revert\n        /* \"#utility.yul\":1613:1690   */\n    tag_30:\n        /* \"#utility.yul\":1650:1657   */\n      0x00\n        /* \"#utility.yul\":1679:1684   */\n      dup2\n        /* \"#utility.yul\":1668:1684   */\n      swap1\n      pop\n        /* \"#utility.yul\":1613:1690   */\n      swap2\n      swap1\n      pop\n      jump\t// out\n        /* \"#utility.yul\":1696:1818   */\n    tag_31:\n        /* \"#utility.yul\":1769:1793   */\n      tag_58\n        /* \"#utility.yul\":1787:1792   */\n      dup2\n        /* \"#utility.yul\":1769:1793   */\n      tag_30\n      jump\t// in\n    tag_58:\n        /* \"#utility.yul\":1762:1767   */\n      dup2\n        /* \"#utility.yul\":1759:1794   */\n      eq\n        /* \"#utility.yul\":1749:1812   */\n      tag_59\n      jumpi\n        /* \"#utility.yul\":1808:1809   */\n      0x00\n        /* \"#utility.yul\":1805:1806   */\n      dup1\n        /* \"#utility.yul\":1798:1810   */\n      revert\n        /* \"#utility.yul\":1749:1812   */\n    tag_59:\n        /* \"#utility.yul\":1696:1818   */\n      pop\n      jump\t// out\n        /* \"#utility.yul\":1824:1963   */\n    tag_32:\n        /* \"#utility.yul\":1870:1875   */\n      0x00\n        /* \"#utility.yul\":1908:1914   */\n      dup2\n        /* \"#utility.yul\":1895:1915   */\n      calldataload\n        /* \"#utility.yul\":1886:1915   */\n      swap1\n      pop\n        /* \"#utility.yul\":1924:1957   */\n      tag_61\n        /* \"#utility.yul\":1951:1956   */\n      dup2\n        /* \"#utility.yul\":1924:1957   */\n      tag_31\n      jump\t// in\n    tag_61:\n        /* \"#utility.yul\":1824:1963   */\n      swap3\n      swap2\n      pop\n      pop\n      jump\t// out\n        /* \"#utility.yul\":1986:2696   */\n    tag_33:\n        /* \"#utility.yul\":2082:2087   */\n      0x00\n        /* \"#utility.yul\":2107:2188   */\n      tag_63\n        /* \"#utility.yul\":2123:2187   */\n      tag_64\n        /* \"#utility.yul\":2180:2186   */\n      dup5\n        /* \"#utility.yul\":2123:2187   */\n      tag_28\n      jump\t// in\n    tag_64:\n        /* \"#utility.yul\":2107:2188   */\n      tag_27\n      jump\t// in\n    tag_63:\n        /* \"#utility.yul\":2098:2188   */\n      swap1\n      pop\n        /* \"#utility.yul\":2208:2213   */\n      dup1\n        /* \"#utility.yul\":2237:2243   */\n      dup4\n        /* \"#utility.yul\":2230:2235   */\n      dup3\n        /* \"#utility.yul\":2223:2244   */\n      mstore\n        /* \"#utility.yul\":2271:2275   */\n      0x20\n        /* \"#utility.yul\":2264:2269   */\n      dup3\n        /* \"#utility.yul\":2260:2276   */\n      add\n        /* \"#utility.yul\":2253:2276   */\n      swap1\n      pop\n        /* \"#utility.yul\":2324:2328   */\n      0x20\n        /* \"#utility.yul\":2316:2322   */\n      dup5\n        /* \"#utility.yul\":2312:2329   */\n      mul\n        /* \"#utility.yul\":2304:2310   */\n      dup4\n        /* \"#utility.yul\":2300:2330   */\n      add\n        /* \"#utility.yul\":2353:2356   */\n      dup6\n        /* \"#utility.yul\":2345:2351   */\n      dup2\n        /* \"#utility.yul\":2342:2357   */\n      gt\n        /* \"#utility.yul\":2339:2461   */\n      iszero\n      tag_65\n      jumpi\n        /* \"#utility.yul\":2372:2451   */\n      tag_66\n      tag_29\n      jump\t// in\n    tag_66:\n        /* \"#utility.yul\":2339:2461   */\n    tag_65:\n        /* \"#utility.yul\":2487:2493   */\n      dup4\n        /* \"#utility.yul\":2470:2690   */\n    tag_67:\n        /* \"#utility.yul\":2504:2510   */\n      dup2\n        /* \"#utility.yul\":2499:2502   */\n      dup2\n        /* \"#utility.yul\":2496:2511   */\n      lt\n        /* \"#utility.yul\":2470:2690   */\n      iszero\n      tag_69\n      jumpi\n        /* \"#utility.yul\":2579:2582   */\n      dup1\n        /* \"#utility.yul\":2608:2645   */\n      tag_70\n        /* \"#utility.yul\":2641:2644   */\n      dup9\n        /* \"#utility.yul\":2629:2639   */\n      dup3\n        /* \"#utility.yul\":2608:2645   */\n      tag_32\n      jump\t// in\n    tag_70:\n        /* \"#utility.yul\":2603:2606   */\n      dup5\n        /* \"#utility.yul\":2596:2646   */\n      mstore\n        /* \"#utility.yul\":2675:2679   */\n      0x20\n        /* \"#utility.yul\":2670:2673   */\n      dup5\n        /* \"#utility.yul\":2666:2680   */\n      add\n        /* \"#utility.yul\":2659:2680   */\n      swap4\n      pop\n        /* \"#utility.yul\":2546:2690   */\n      pop\n        /* \"#utility.yul\":2530:2534   */\n      0x20\n        /* \"#utility.yul\":2525:2528   */\n      dup2\n        /* \"#utility.yul\":2521:2535   */\n      add\n        /* \"#utility.yul\":2514:2535   */\n      swap1\n      pop\n        /* \"#utility.yul\":2470:2690   */\n      jump(tag_67)\n    tag_69:\n        /* \"#utility.yul\":2474:2495   */\n      pop\n        /* \"#utility.yul\":2088:2696   */\n      pop\n      pop\n        /* \"#utility.yul\":1986:2696   */\n      swap4\n      swap3\n      pop\n      pop\n      pop\n      jump\t// out\n        /* \"#utility.yul\":2719:3089   */\n    tag_34:\n        /* \"#utility.yul\":2790:2795   */\n      0x00\n        /* \"#utility.yul\":2839:2842   */\n      dup3\n        /* \"#utility.yul\":2832:2836   */\n      0x1f\n        /* \"#utility.yul\":2824:2830   */\n      dup4\n        /* \"#utility.yul\":2820:2837   */\n      add\n        /* \"#utility.yul\":2816:2843   */\n      slt\n        /* \"#utility.yul\":2806:2928   */\n      tag_72\n      jumpi\n        /* \"#utility.yul\":2847:2926   */\n      tag_73\n      tag_23\n      jump\t// in\n    tag_73:\n        /* \"#utility.yul\":2806:2928   */\n    tag_72:\n        /* \"#utility.yul\":2964:2970   */\n      dup2\n        /* \"#utility.yul\":2951:2971   */\n      calldataload\n        /* \"#utility.yul\":2989:3083   */\n      tag_74\n        /* \"#utility.yul\":3079:3082   */\n      dup5\n        /* \"#utility.yul\":3071:3077   */\n      dup3\n        /* \"#utility.yul\":3064:3068   */\n      0x20\n        /* \"#utility.yul\":3056:3062   */\n      dup7\n        /* \"#utility.yul\":3052:3069   */\n      add\n        /* \"#utility.yul\":2989:3083   */\n      tag_33\n      jump\t// in\n    tag_74:\n        /* \"#utility.yul\":2980:3083   */\n      swap2\n      pop\n        /* \"#utility.yul\":2796:3089   */\n      pop\n        /* \"#utility.yul\":2719:3089   */\n      swap3\n      swap2\n      pop\n      pop\n      jump\t// out\n        /* \"#utility.yul\":3095:3779   */\n    tag_6:\n        /* \"#utility.yul\":3188:3194   */\n      0x00\n        /* \"#utility.yul\":3196:3202   */\n      dup1\n        /* \"#utility.yul\":3245:3247   */\n      0x40\n        /* \"#utility.yul\":3233:3242   */\n      dup4\n        /* \"#utility.yul\":3224:3231   */\n      dup6\n        /* \"#utility.yul\":3220:3243   */\n      sub\n        /* \"#utility.yul\":3216:3248   */\n      slt\n        /* \"#utility.yul\":3213:3332   */\n      iszero\n      tag_76\n      jumpi\n        /* \"#utility.yul\":3251:3330   */\n      tag_77\n      tag_21\n      jump\t// in\n    tag_77:\n        /* \"#utility.yul\":3213:3332   */\n    tag_76:\n        /* \"#utility.yul\":3399:3400   */\n      0x00\n        /* \"#utility.yul\":3388:3397   */\n      dup4\n        /* \"#utility.yul\":3384:3401   */\n      add\n        /* \"#utility.yul\":3371:3402   */\n      calldataload\n        /* \"#utility.yul\":3429:3447   */\n      0xffffffffffffffff\n        /* \"#utility.yul\":3421:3427   */\n      dup2\n        /* \"#utility.yul\":3418:3448   */\n      gt\n        /* \"#utility.yul\":3415:3532   */\n      iszero\n      tag_78\n      jumpi\n        /* \"#utility.yul\":3451:3530   */\n      tag_79\n      tag_22\n      jump\t// in\n    tag_79:\n        /* \"#utility.yul\":3415:3532   */\n    tag_78:\n        /* \"#utility.yul\":3556:3634   */\n      tag_80\n        /* \"#utility.yul\":3626:3633   */\n      dup6\n        /* \"#utility.yul\":3617:3623   */\n      dup3\n        /* \"#utility.yul\":3606:3615   */\n      dup7\n        /* \"#utility.yul\":3602:3624   */\n      add\n        /* \"#utility.yul\":3556:3634   */\n      tag_34\n      jump\t// in\n    tag_80:\n        /* \"#utility.yul\":3546:3634   */\n      swap3\n      pop\n        /* \"#utility.yul\":3342:3644   */\n      pop\n        /* \"#utility.yul\":3683:3685   */\n      0x20\n        /* \"#utility.yul\":3709:3762   */\n      tag_81\n        /* \"#utility.yul\":3754:3761   */\n      dup6\n        /* \"#utility.yul\":3745:3751   */\n      dup3\n        /* \"#utility.yul\":3734:3743   */\n      dup7\n        /* \"#utility.yul\":3730:3752   */\n      add\n        /* \"#utility.yul\":3709:3762   */\n      tag_32\n      jump\t// in\n    tag_81:\n        /* \"#utility.yul\":3699:3762   */\n      swap2\n      pop\n        /* \"#utility.yul\":3654:3772   */\n      pop\n        /* \"#utility.yul\":3095:3779   */\n      swap3\n      pop\n      swap3\n      swap1\n      pop\n      jump\t// out\n        /* \"#utility.yul\":3785:3875   */\n    tag_35:\n        /* \"#utility.yul\":3819:3826   */\n      0x00\n        /* \"#utility.yul\":3862:3867   */\n      dup2\n        /* \"#utility.yul\":3855:3868   */\n      iszero\n        /* \"#utility.yul\":3848:3869   */\n      iszero\n        /* \"#utility.yul\":3837:3869   */\n      swap1\n      pop\n        /* \"#utility.yul\":3785:3875   */\n      swap2\n      swap1\n      pop\n      jump\t// out\n        /* \"#utility.yul\":3881:3990   */\n    tag_36:\n        /* \"#utility.yul\":3962:3983   */\n      tag_84\n        /* \"#utility.yul\":3977:3982   */\n      dup2\n        /* \"#utility.yul\":3962:3983   */\n      tag_35\n      jump\t// in\n    tag_84:\n        /* \"#utility.yul\":3957:3960   */\n      dup3\n        /* \"#utility.yul\":3950:3984   */\n      mstore\n        /* \"#utility.yul\":3881:3990   */\n      pop\n      pop\n      jump\t// out\n        /* \"#utility.yul\":3996:4206   */\n    tag_9:\n        /* \"#utility.yul\":4083:4087   */\n      0x00\n        /* \"#utility.yul\":4121:4123   */\n      0x20\n        /* \"#utility.yul\":4110:4119   */\n      dup3\n        /* \"#utility.yul\":4106:4124   */\n      add\n        /* \"#utility.yul\":4098:4124   */\n      swap1\n      pop\n        /* \"#utility.yul\":4134:4199   */\n      tag_86\n        /* \"#utility.yul\":4196:4197   */\n      0x00\n        /* \"#utility.yul\":4185:4194   */\n      dup4\n        /* \"#utility.yul\":4181:4198   */\n      add\n        /* \"#utility.yul\":4172:4178   */\n      dup5\n        /* \"#utility.yul\":4134:4199   */\n      tag_36\n      jump\t// in\n    tag_86:\n        /* \"#utility.yul\":3996:4206   */\n      swap3\n      swap2\n      pop\n      pop\n      jump\t// out\n        /* \"#utility.yul\":4212:4392   */\n    tag_16:\n        /* \"#utility.yul\":4260:4337   */\n      0x4e487b7100000000000000000000000000000000000000000000000000000000\n        /* \"#utility.yul\":4257:4258   */\n      0x00\n        /* \"#utility.yul\":4250:4338   */\n      mstore\n        /* \"#utility.yul\":4357:4361   */\n      0x32\n        /* \"#utility.yul\":4354:4355   */\n      0x04\n        /* \"#utility.yul\":4347:4362   */\n      mstore\n        /* \"#utility.yul\":4381:4385   */\n      0x24\n        /* \"#utility.yul\":4378:4379   */\n      0x00\n        /* \"#utility.yul\":4371:4386   */\n      revert\n        /* \"#utility.yul\":4398:4578   */\n    tag_37:\n        /* \"#utility.yul\":4446:4523   */\n      0x4e487b7100000000000000000000000000000000000000000000000000000000\n        /* \"#utility.yul\":4443:4444   */\n      0x00\n        /* \"#utility.yul\":4436:4524   */\n      mstore\n        /* \"#utility.yul\":4543:4547   */\n      0x11\n        /* \"#utility.yul\":4540:4541   */\n      0x04\n        /* \"#utility.yul\":4533:4548   */\n      mstore\n        /* \"#utility.yul\":4567:4571   */\n      0x24\n        /* \"#utility.yul\":4564:4565   */\n      0x00\n        /* \"#utility.yul\":4557:4572   */\n      revert\n        /* \"#utility.yul\":4584:4817   */\n    tag_19:\n        /* \"#utility.yul\":4623:4626   */\n      0x00\n        /* \"#utility.yul\":4646:4670   */\n      tag_90\n        /* \"#utility.yul\":4664:4669   */\n      dup3\n        /* \"#utility.yul\":4646:4670   */\n      tag_30\n      jump\t// in\n    tag_90:\n        /* \"#utility.yul\":4637:4670   */\n      swap2\n      pop\n        /* \"#utility.yul\":4692:4758   */\n      0xffffffffffffffffffffffffffffffffffffffffffffffffffffffffffffffff\n        /* \"#utility.yul\":4685:4690   */\n      dup3\n        /* \"#utility.yul\":4682:4759   */\n      sub\n        /* \"#utility.yul\":4679:4782   */\n      tag_91\n      jumpi\n        /* \"#utility.yul\":4762:4780   */\n      tag_92\n      tag_37\n      jump\t// in\n    tag_92:\n        /* \"#utility.yul\":4679:4782   */\n    tag_91:\n        /* \"#utility.yul\":4809:4810   */\n      0x01\n        /* \"#utility.yul\":4802:4807   */\n      dup3\n        /* \"#utility.yul\":4798:4811   */\n      add\n        /* \"#utility.yul\":4791:4811   */\n      swap1\n      pop\n        /* \"#utility.yul\":4584:4817   */\n      swap2\n      swap1\n      pop\n      jump\t// out\n\n    auxdata: 0xa2646970667358221220159e27c06f53efae45d7fb5511723f045172fb9157245d2a8bce97acd136ed4b64736f6c63430008120033\n}\n",
				"bytecode": {
					"linkReferences": {},
					"object": "608060405234801561001057600080fd5b506103cb806100206000396000f3fe608060405234801561001057600080fd5b506004361061002a5760003560e01c80622fb9581461002f575b600080fd5b6100496004803603810190610044919061025d565b61005f565b60405161005691906102d4565b60405180910390f35b600080600090505b83518110156100ae5782848281518110610084576100836102ef565b5b60200260200101510361009b5760019150506100b4565b80806100a69061034d565b915050610067565b50600090505b92915050565b6000604051905090565b600080fd5b600080fd5b600080fd5b6000601f19601f8301169050919050565b7f4e487b7100000000000000000000000000000000000000000000000000000000600052604160045260246000fd5b61011c826100d3565b810181811067ffffffffffffffff8211171561013b5761013a6100e4565b5b80604052505050565b600061014e6100ba565b905061015a8282610113565b919050565b600067ffffffffffffffff82111561017a576101796100e4565b5b602082029050602081019050919050565b600080fd5b6000819050919050565b6101a381610190565b81146101ae57600080fd5b50565b6000813590506101c08161019a565b92915050565b60006101d96101d48461015f565b610144565b905080838252602082019050602084028301858111156101fc576101fb61018b565b5b835b81811015610225578061021188826101b1565b8452602084019350506020810190506101fe565b5050509392505050565b600082601f830112610244576102436100ce565b5b81356102548482602086016101c6565b91505092915050565b60008060408385031215610274576102736100c4565b5b600083013567ffffffffffffffff811115610292576102916100c9565b5b61029e8582860161022f565b92505060206102af858286016101b1565b9150509250929050565b60008115159050919050565b6102ce816102b9565b82525050565b60006020820190506102e960008301846102c5565b92915050565b7f4e487b7100000000000000000000000000000000000000000000000000000000600052603260045260246000fd5b7f4e487b7100000000000000000000000000000000000000000000000000000000600052601160045260246000fd5b600061035882610190565b91507fffffffffffffffffffffffffffffffffffffffffffffffffffffffffffffffff820361038a5761038961031e565b5b60018201905091905056fea2646970667358221220159e27c06f53efae45d7fb5511723f045172fb9157245d2a8bce97acd136ed4b64736f6c63430008120033",
					"opcodes": "PUSH1 0x80 PUSH1 0x40 MSTORE CALLVALUE DUP1 ISZERO PUSH2 0x10 JUMPI PUSH1 0x0 DUP1 REVERT JUMPDEST POP PUSH2 0x3CB DUP1 PUSH2 0x20 PUSH1 0x0 CODECOPY PUSH1 0x0 RETURN INVALID PUSH1 0x80 PUSH1 0x40 MSTORE CALLVALUE DUP1 ISZERO PUSH2 0x10 JUMPI PUSH1 0x0 DUP1 REVERT JUMPDEST POP PUSH1 0x4 CALLDATASIZE LT PUSH2 0x2A JUMPI PUSH1 0x0 CALLDATALOAD PUSH1 0xE0 SHR DUP1 PUSH3 0x2FB958 EQ PUSH2 0x2F JUMPI JUMPDEST PUSH1 0x0 DUP1 REVERT JUMPDEST PUSH2 0x49 PUSH1 0x4 DUP1 CALLDATASIZE SUB DUP2 ADD SWAP1 PUSH2 0x44 SWAP2 SWAP1 PUSH2 0x25D JUMP JUMPDEST PUSH2 0x5F JUMP JUMPDEST PUSH1 0x40 MLOAD PUSH2 0x56 SWAP2 SWAP1 PUSH2 0x2D4 JUMP JUMPDEST PUSH1 0x40 MLOAD DUP1 SWAP2 SUB SWAP1 RETURN JUMPDEST PUSH1 0x0 DUP1 PUSH1 0x0 SWAP1 POP JUMPDEST DUP4 MLOAD DUP2 LT ISZERO PUSH2 0xAE JUMPI DUP3 DUP5 DUP3 DUP2 MLOAD DUP2 LT PUSH2 0x84 JUMPI PUSH2 0x83 PUSH2 0x2EF JUMP JUMPDEST JUMPDEST PUSH1 0x20 MUL PUSH1 0x20 ADD ADD MLOAD SUB PUSH2 0x9B JUMPI PUSH1 0x1 SWAP2 POP POP PUSH2 0xB4 JUMP JUMPDEST DUP1 DUP1 PUSH2 0xA6 SWAP1 PUSH2 0x34D JUMP JUMPDEST SWAP2 POP POP PUSH2 0x67 JUMP JUMPDEST POP PUSH1 0x0 SWAP1 POP JUMPDEST SWAP3 SWAP2 POP POP JUMP JUMPDEST PUSH1 0x0 PUSH1 0x40 MLOAD SWAP1 POP SWAP1 JUMP JUMPDEST PUSH1 0x0 DUP1 REVERT JUMPDEST PUSH1 0x0 DUP1 REVERT JUMPDEST PUSH1 0x0 DUP1 REVERT JUMPDEST PUSH1 0x0 PUSH1 0x1F NOT PUSH1 0x1F DUP4 ADD AND SWAP1 POP SWAP2 SWAP1 POP JUMP JUMPDEST PUSH32 0x4E487B7100000000000000000000000000000000000000000000000000000000 PUSH1 0x0 MSTORE PUSH1 0x41 PUSH1 0x4 MSTORE PUSH1 0x24 PUSH1 0x0 REVERT JUMPDEST PUSH2 0x11C DUP3 PUSH2 0xD3 JUMP JUMPDEST DUP2 ADD DUP2 DUP2 LT PUSH8 0xFFFFFFFFFFFFFFFF DUP3 GT OR ISZERO PUSH2 0x13B JUMPI PUSH2 0x13A PUSH2 0xE4 JUMP JUMPDEST JUMPDEST DUP1 PUSH1 0x40 MSTORE POP POP POP JUMP JUMPDEST PUSH1 0x0 PUSH2 0x14E PUSH2 0xBA JUMP JUMPDEST SWAP1 POP PUSH2 0x15A DUP3 DUP3 PUSH2 0x113 JUMP JUMPDEST SWAP2 SWAP1 POP JUMP JUMPDEST PUSH1 0x0 PUSH8 0xFFFFFFFFFFFFFFFF DUP3 GT ISZERO PUSH2 0x17A JUMPI PUSH2 0x179 PUSH2 0xE4 JUMP JUMPDEST JUMPDEST PUSH1 0x20 DUP3 MUL SWAP1 POP PUSH1 0x20 DUP2 ADD SWAP1 POP SWAP2 SWAP1 POP JUMP JUMPDEST PUSH1 0x0 DUP1 REVERT JUMPDEST PUSH1 0x0 DUP2 SWAP1 POP SWAP2 SWAP1 POP JUMP JUMPDEST PUSH2 0x1A3 DUP2 PUSH2 0x190 JUMP JUMPDEST DUP2 EQ PUSH2 0x1AE JUMPI PUSH1 0x0 DUP1 REVERT JUMPDEST POP JUMP JUMPDEST PUSH1 0x0 DUP2 CALLDATALOAD SWAP1 POP PUSH2 0x1C0 DUP2 PUSH2 0x19A JUMP JUMPDEST SWAP3 SWAP2 POP POP JUMP JUMPDEST PUSH1 0x0 PUSH2 0x1D9 PUSH2 0x1D4 DUP5 PUSH2 0x15F JUMP JUMPDEST PUSH2 0x144 JUMP JUMPDEST SWAP1 POP DUP1 DUP4 DUP3 MSTORE PUSH1 0x20 DUP3 ADD SWAP1 POP PUSH1 0x20 DUP5 MUL DUP4 ADD DUP6 DUP2 GT ISZERO PUSH2 0x1FC JUMPI PUSH2 0x1FB PUSH2 0x18B JUMP JUMPDEST JUMPDEST DUP4 JUMPDEST DUP2 DUP2 LT ISZERO PUSH2 0x225 JUMPI DUP1 PUSH2 0x211 DUP9 DUP3 PUSH2 0x1B1 JUMP JUMPDEST DUP5 MSTORE PUSH1 0x20 DUP5 ADD SWAP4 POP POP PUSH1 0x20 DUP2 ADD SWAP1 POP PUSH2 0x1FE JUMP JUMPDEST POP POP POP SWAP4 SWAP3 POP POP POP JUMP JUMPDEST PUSH1 0x0 DUP3 PUSH1 0x1F DUP4 ADD SLT PUSH2 0x244 JUMPI PUSH2 0x243 PUSH2 0xCE JUMP JUMPDEST JUMPDEST DUP2 CALLDATALOAD PUSH2 0x254 DUP5 DUP3 PUSH1 0x20 DUP7 ADD PUSH2 0x1C6 JUMP JUMPDEST SWAP2 POP POP SWAP3 SWAP2 POP POP JUMP JUMPDEST PUSH1 0x0 DUP1 PUSH1 0x40 DUP4 DUP6 SUB SLT ISZERO PUSH2 0x274 JUMPI PUSH2 0x273 PUSH2 0xC4 JUMP JUMPDEST JUMPDEST PUSH1 0x0 DUP4 ADD CALLDATALOAD PUSH8 0xFFFFFFFFFFFFFFFF DUP2 GT ISZERO PUSH2 0x292 JUMPI PUSH2 0x291 PUSH2 0xC9 JUMP JUMPDEST JUMPDEST PUSH2 0x29E DUP6 DUP3 DUP7 ADD PUSH2 0x22F JUMP JUMPDEST SWAP3 POP POP PUSH1 0x20 PUSH2 0x2AF DUP6 DUP3 DUP7 ADD PUSH2 0x1B1 JUMP JUMPDEST SWAP2 POP POP SWAP3 POP SWAP3 SWAP1 POP JUMP JUMPDEST PUSH1 0x0 DUP2 ISZERO ISZERO SWAP1 POP SWAP2 SWAP1 POP JUMP JUMPDEST PUSH2 0x2CE DUP2 PUSH2 0x2B9 JUMP JUMPDEST DUP3 MSTORE POP POP JUMP JUMPDEST PUSH1 0x0 PUSH1 0x20 DUP3 ADD SWAP1 POP PUSH2 0x2E9 PUSH1 0x0 DUP4 ADD DUP5 PUSH2 0x2C5 JUMP JUMPDEST SWAP3 SWAP2 POP POP JUMP JUMPDEST PUSH32 0x4E487B7100000000000000000000000000000000000000000000000000000000 PUSH1 0x0 MSTORE PUSH1 0x32 PUSH1 0x4 MSTORE PUSH1 0x24 PUSH1 0x0 REVERT JUMPDEST PUSH32 0x4E487B7100000000000000000000000000000000000000000000000000000000 PUSH1 0x0 MSTORE PUSH1 0x11 PUSH1 0x4 MSTORE PUSH1 0x24 PUSH1 0x0 REVERT JUMPDEST PUSH1 0x0 PUSH2 0x358 DUP3 PUSH2 0x190 JUMP JUMPDEST SWAP2 POP PUSH32 0xFFFFFFFFFFFFFFFFFFFFFFFFFFFFFFFFFFFFFFFFFFFFFFFFFFFFFFFFFFFFFFFF DUP3 SUB PUSH2 0x38A JUMPI PUSH2 0x389 PUSH2 0x31E JUMP JUMPDEST JUMPDEST PUSH1 0x1 DUP3 ADD SWAP1 POP SWAP2 SWAP1 POP JUMP INVALID LOG2 PUSH5 0x6970667358 0x22 SLT KECCAK256 ISZERO SWAP15 0x27 0xC0 PUSH16 0x53EFAE45D7FB5511723F045172FB9157 0x24 0x5D 0x2A DUP12 0xCE SWAP8 0xAC 0xD1 CALLDATASIZE 0xED 0x4B PUSH5 0x736F6C6343 STOP ADDMOD SLT STOP CALLER "
				},
				"gasEstimates": {
					"creation": {
						"codeDepositCost": "194200",
						"executionCost": "238",
						"totalCost": "194438"
					},
					"external": {
						"findValueInArray(uint256[],uint256)": "infinite"
					}
				},
				"methodIdentifiers": {
					"findValueInArray(uint256[],uint256)": "002fb958"
				}
			},
			"storageLayout": {
				"storage": [],
				"types": null
			},
			"userdoc": {
				"kind": "user",
				"methods": {},
				"version": 1
			}
		}
	}
}