{
	"foorloopbundle/forsum.sol": {
		"ForLoopExample": {
			"abi": [
				{
					"inputs": [
						{
							"internalType": "uint256",
							"name": "n",
							"type": "uint256"
						}
					],
					"name": "calculateSum",
					"outputs": [],
					"stateMutability": "nonpayable",
					"type": "function"
				},
				{
					"inputs": [],
					"name": "totalSum",
					"outputs": [
						{
							"internalType": "uint256",
							"name": "",
							"type": "uint256"
						}
					],
					"stateMutability": "view",
					"type": "function"
				}
			],
			"devdoc": {
				"kind": "dev",
				"methods": {},
				"version": 1
			},
			"evm": {
				"assembly": "    /* \"foorloopbundle/forsum.sol\":70:330  contract ForLoopExample {... */\n  mstore(0x40, 0x80)\n  callvalue\n  dup1\n  iszero\n  tag_1\n  jumpi\n  0x00\n  dup1\n  revert\ntag_1:\n  pop\n  dataSize(sub_0)\n  dup1\n  dataOffset(sub_0)\n  0x00\n  codecopy\n  0x00\n  return\nstop\n\nsub_0: assembly {\n        /* \"foorloopbundle/forsum.sol\":70:330  contract ForLoopExample {... */\n      mstore(0x40, 0x80)\n      callvalue\n      dup1\n      iszero\n      tag_1\n      jumpi\n      0x00\n      dup1\n      revert\n    tag_1:\n      pop\n      jumpi(tag_2, lt(calldatasize, 0x04))\n      shr(0xe0, calldataload(0x00))\n      dup1\n      0x4869f99d\n      eq\n      tag_3\n      jumpi\n      dup1\n      0x5f8932ff\n      eq\n      tag_4\n      jumpi\n    tag_2:\n      0x00\n      dup1\n      revert\n        /* \"foorloopbundle/forsum.sol\":106:129  uint256 public totalSum */\n    tag_3:\n      tag_5\n      tag_6\n      jump\t// in\n    tag_5:\n      mload(0x40)\n      tag_7\n      swap2\n      swap1\n      tag_8\n      jump\t// in\n    tag_7:\n      mload(0x40)\n      dup1\n      swap2\n      sub\n      swap1\n      return\n        /* \"foorloopbundle/forsum.sol\":138:327  function calculateSum(uint256 n) public {... */\n    tag_4:\n      tag_9\n      0x04\n      dup1\n      calldatasize\n      sub\n      dup2\n      add\n      swap1\n      tag_10\n      swap2\n      swap1\n      tag_11\n      jump\t// in\n    tag_10:\n      tag_12\n      jump\t// in\n    tag_9:\n      stop\n        /* \"foorloopbundle/forsum.sol\":106:129  uint256 public totalSum */\n    tag_6:\n      sload(0x00)\n      dup2\n      jump\t// out\n        /* \"foorloopbundle/forsum.sol\":138:327  function calculateSum(uint256 n) public {... */\n    tag_12:\n        /* \"foorloopbundle/forsum.sol\":210:211  0 */\n      0x00\n        /* \"foorloopbundle/forsum.sol\":199:207  totalSum */\n      dup1\n        /* \"foorloopbundle/forsum.sol\":199:211  totalSum = 0 */\n      dup2\n      swap1\n      sstore\n      pop\n        /* \"foorloopbundle/forsum.sol\":238:247  uint256 i */\n      0x00\n        /* \"foorloopbundle/forsum.sol\":250:251  1 */\n      0x01\n        /* \"foorloopbundle/forsum.sol\":238:251  uint256 i = 1 */\n      swap1\n      pop\n        /* \"foorloopbundle/forsum.sol\":233:320  for (uint256 i = 1; i <= n; i++) {... */\n    tag_14:\n        /* \"foorloopbundle/forsum.sol\":258:259  n */\n      dup2\n        /* \"foorloopbundle/forsum.sol\":253:254  i */\n      dup2\n        /* \"foorloopbundle/forsum.sol\":253:259  i <= n */\n      gt\n        /* \"foorloopbundle/forsum.sol\":233:320  for (uint256 i = 1; i <= n; i++) {... */\n      tag_15\n      jumpi\n        /* \"foorloopbundle/forsum.sol\":307:308  i */\n      dup1\n        /* \"foorloopbundle/forsum.sol\":295:303  totalSum */\n      0x00\n      dup1\n        /* \"foorloopbundle/forsum.sol\":295:308  totalSum += i */\n      dup3\n      dup3\n      sload\n      tag_17\n      swap2\n      swap1\n      tag_18\n      jump\t// in\n    tag_17:\n      swap3\n      pop\n      pop\n      dup2\n      swap1\n      sstore\n      pop\n        /* \"foorloopbundle/forsum.sol\":261:264  i++ */\n      dup1\n      dup1\n      tag_19\n      swap1\n      tag_20\n      jump\t// in\n    tag_19:\n      swap2\n      pop\n      pop\n        /* \"foorloopbundle/forsum.sol\":233:320  for (uint256 i = 1; i <= n; i++) {... */\n      jump(tag_14)\n    tag_15:\n      pop\n        /* \"foorloopbundle/forsum.sol\":138:327  function calculateSum(uint256 n) public {... */\n      pop\n      jump\t// out\n        /* \"#utility.yul\":7:84   */\n    tag_21:\n        /* \"#utility.yul\":44:51   */\n      0x00\n        /* \"#utility.yul\":73:78   */\n      dup2\n        /* \"#utility.yul\":62:78   */\n      swap1\n      pop\n        /* \"#utility.yul\":7:84   */\n      swap2\n      swap1\n      pop\n      jump\t// out\n        /* \"#utility.yul\":90:208   */\n    tag_22:\n        /* \"#utility.yul\":177:201   */\n      tag_32\n        /* \"#utility.yul\":195:200   */\n      dup2\n        /* \"#utility.yul\":177:201   */\n      tag_21\n      jump\t// in\n    tag_32:\n        /* \"#utility.yul\":172:175   */\n      dup3\n        /* \"#utility.yul\":165:202   */\n      mstore\n        /* \"#utility.yul\":90:208   */\n      pop\n      pop\n      jump\t// out\n        /* \"#utility.yul\":214:436   */\n    tag_8:\n        /* \"#utility.yul\":307:311   */\n      0x00\n        /* \"#utility.yul\":345:347   */\n      0x20\n        /* \"#utility.yul\":334:343   */\n      dup3\n        /* \"#utility.yul\":330:348   */\n      add\n        /* \"#utility.yul\":322:348   */\n      swap1\n      pop\n        /* \"#utility.yul\":358:429   */\n      tag_34\n        /* \"#utility.yul\":426:427   */\n      0x00\n        /* \"#utility.yul\":415:424   */\n      dup4\n        /* \"#utility.yul\":411:428   */\n      add\n        /* \"#utility.yul\":402:408   */\n      dup5\n        /* \"#utility.yul\":358:429   */\n      tag_22\n      jump\t// in\n    tag_34:\n        /* \"#utility.yul\":214:436   */\n      swap3\n      swap2\n      pop\n      pop\n      jump\t// out\n        /* \"#utility.yul\":523:640   */\n    tag_24:\n        /* \"#utility.yul\":632:633   */\n      0x00\n        /* \"#utility.yul\":629:630   */\n      dup1\n        /* \"#utility.yul\":622:634   */\n      revert\n        /* \"#utility.yul\":769:891   */\n    tag_26:\n        /* \"#utility.yul\":842:866   */\n      tag_39\n        /* \"#utility.yul\":860:865   */\n      dup2\n        /* \"#utility.yul\":842:866   */\n      tag_21\n      jump\t// in\n    tag_39:\n        /* \"#utility.yul\":835:840   */\n      dup2\n        /* \"#utility.yul\":832:867   */\n      eq\n        /* \"#utility.yul\":822:885   */\n      tag_40\n      jumpi\n        /* \"#utility.yul\":881:882   */\n      0x00\n        /* \"#utility.yul\":878:879   */\n      dup1\n        /* \"#utility.yul\":871:883   */\n      revert\n        /* \"#utility.yul\":822:885   */\n    tag_40:\n        /* \"#utility.yul\":769:891   */\n      pop\n      jump\t// out\n        /* \"#utility.yul\":897:1036   */\n    tag_27:\n        /* \"#utility.yul\":943:948   */\n      0x00\n        /* \"#utility.yul\":981:987   */\n      dup2\n        /* \"#utility.yul\":968:988   */\n      calldataload\n        /* \"#utility.yul\":959:988   */\n      swap1\n      pop\n        /* \"#utility.yul\":997:1030   */\n      tag_42\n        /* \"#utility.yul\":1024:1029   */\n      dup2\n        /* \"#utility.yul\":997:1030   */\n      tag_26\n      jump\t// in\n    tag_42:\n        /* \"#utility.yul\":897:1036   */\n      swap3\n      swap2\n      pop\n      pop\n      jump\t// out\n        /* \"#utility.yul\":1042:1371   */\n    tag_11:\n        /* \"#utility.yul\":1101:1107   */\n      0x00\n        /* \"#utility.yul\":1150:1152   */\n      0x20\n        /* \"#utility.yul\":1138:1147   */\n      dup3\n        /* \"#utility.yul\":1129:1136   */\n      dup5\n        /* \"#utility.yul\":1125:1148   */\n      sub\n        /* \"#utility.yul\":1121:1153   */\n      slt\n        /* \"#utility.yul\":1118:1237   */\n      iszero\n      tag_44\n      jumpi\n        /* \"#utility.yul\":1156:1235   */\n      tag_45\n      tag_24\n      jump\t// in\n    tag_45:\n        /* \"#utility.yul\":1118:1237   */\n    tag_44:\n        /* \"#utility.yul\":1276:1277   */\n      0x00\n        /* \"#utility.yul\":1301:1354   */\n      tag_46\n        /* \"#utility.yul\":1346:1353   */\n      dup5\n        /* \"#utility.yul\":1337:1343   */\n      dup3\n        /* \"#utility.yul\":1326:1335   */\n      dup6\n        /* \"#utility.yul\":1322:1344   */\n      add\n        /* \"#utility.yul\":1301:1354   */\n      tag_27\n      jump\t// in\n    tag_46:\n        /* \"#utility.yul\":1291:1354   */\n      swap2\n      pop\n        /* \"#utility.yul\":1247:1364   */\n      pop\n        /* \"#utility.yul\":1042:1371   */\n      swap3\n      swap2\n      pop\n      pop\n      jump\t// out\n        /* \"#utility.yul\":1377:1557   */\n    tag_28:\n        /* \"#utility.yul\":1425:1502   */\n      0x4e487b7100000000000000000000000000000000000000000000000000000000\n        /* \"#utility.yul\":1422:1423   */\n      0x00\n        /* \"#utility.yul\":1415:1503   */\n      mstore\n        /* \"#utility.yul\":1522:1526   */\n      0x11\n        /* \"#utility.yul\":1519:1520   */\n      0x04\n        /* \"#utility.yul\":1512:1527   */\n      mstore\n        /* \"#utility.yul\":1546:1550   */\n      0x24\n        /* \"#utility.yul\":1543:1544   */\n      0x00\n        /* \"#utility.yul\":1536:1551   */\n      revert\n        /* \"#utility.yul\":1563:1754   */\n    tag_18:\n        /* \"#utility.yul\":1603:1606   */\n      0x00\n        /* \"#utility.yul\":1622:1642   */\n      tag_49\n        /* \"#utility.yul\":1640:1641   */\n      dup3\n        /* \"#utility.yul\":1622:1642   */\n      tag_21\n      jump\t// in\n    tag_49:\n        /* \"#utility.yul\":1617:1642   */\n      swap2\n      pop\n        /* \"#utility.yul\":1656:1676   */\n      tag_50\n        /* \"#utility.yul\":1674:1675   */\n      dup4\n        /* \"#utility.yul\":1656:1676   */\n      tag_21\n      jump\t// in\n    tag_50:\n        /* \"#utility.yul\":1651:1676   */\n      swap3\n      pop\n        /* \"#utility.yul\":1699:1700   */\n      dup3\n        /* \"#utility.yul\":1696:1697   */\n      dup3\n        /* \"#utility.yul\":1692:1701   */\n      add\n        /* \"#utility.yul\":1685:1701   */\n      swap1\n      pop\n        /* \"#utility.yul\":1720:1723   */\n      dup1\n        /* \"#utility.yul\":1717:1718   */\n      dup3\n        /* \"#utility.yul\":1714:1724   */\n      gt\n        /* \"#utility.yul\":1711:1747   */\n      iszero\n      tag_51\n      jumpi\n        /* \"#utility.yul\":1727:1745   */\n      tag_52\n      tag_28\n      jump\t// in\n    tag_52:\n        /* \"#utility.yul\":1711:1747   */\n    tag_51:\n        /* \"#utility.yul\":1563:1754   */\n      swap3\n      swap2\n      pop\n      pop\n      jump\t// out\n        /* \"#utility.yul\":1760:1993   */\n    tag_20:\n        /* \"#utility.yul\":1799:1802   */\n      0x00\n        /* \"#utility.yul\":1822:1846   */\n      tag_54\n        /* \"#utility.yul\":1840:1845   */\n      dup3\n        /* \"#utility.yul\":1822:1846   */\n      tag_21\n      jump\t// in\n    tag_54:\n        /* \"#utility.yul\":1813:1846   */\n      swap2\n      pop\n        /* \"#utility.yul\":1868:1934   */\n      0xffffffffffffffffffffffffffffffffffffffffffffffffffffffffffffffff\n        /* \"#utility.yul\":1861:1866   */\n      dup3\n        /* \"#utility.yul\":1858:1935   */\n      sub\n        /* \"#utility.yul\":1855:1958   */\n      tag_55\n      jumpi\n        /* \"#utility.yul\":1938:1956   */\n      tag_56\n      tag_28\n      jump\t// in\n    tag_56:\n        /* \"#utility.yul\":1855:1958   */\n    tag_55:\n        /* \"#utility.yul\":1985:1986   */\n      0x01\n        /* \"#utility.yul\":1978:1983   */\n      dup3\n        /* \"#utility.yul\":1974:1987   */\n      add\n        /* \"#utility.yul\":1967:1987   */\n      swap1\n      pop\n        /* \"#utility.yul\":1760:1993   */\n      swap2\n      swap1\n      pop\n      jump\t// out\n\n    auxdata: 0xa26469706673582212205dd56595bb8980138bd72a6c7ed4d6f5bd9d8a3bec450c6ad9a16bcec436fb8964736f6c63430008120033\n}\n",
				"bytecode": {
					"linkReferences": {},
					"object": "608060405234801561001057600080fd5b50610232806100206000396000f3fe608060405234801561001057600080fd5b50600436106100365760003560e01c80634869f99d1461003b5780635f8932ff14610059575b600080fd5b610043610075565b60405161005091906100d8565b60405180910390f35b610073600480360381019061006e9190610124565b61007b565b005b60005481565b600080819055506000600190505b8181116100bb57806000808282546100a19190610180565b9250508190555080806100b3906101b4565b915050610089565b5050565b6000819050919050565b6100d2816100bf565b82525050565b60006020820190506100ed60008301846100c9565b92915050565b600080fd5b610101816100bf565b811461010c57600080fd5b50565b60008135905061011e816100f8565b92915050565b60006020828403121561013a576101396100f3565b5b60006101488482850161010f565b91505092915050565b7f4e487b7100000000000000000000000000000000000000000000000000000000600052601160045260246000fd5b600061018b826100bf565b9150610196836100bf565b92508282019050808211156101ae576101ad610151565b5b92915050565b60006101bf826100bf565b91507fffffffffffffffffffffffffffffffffffffffffffffffffffffffffffffffff82036101f1576101f0610151565b5b60018201905091905056fea26469706673582212205dd56595bb8980138bd72a6c7ed4d6f5bd9d8a3bec450c6ad9a16bcec436fb8964736f6c63430008120033",
					"opcodes": "PUSH1 0x80 PUSH1 0x40 MSTORE CALLVALUE DUP1 ISZERO PUSH2 0x10 JUMPI PUSH1 0x0 DUP1 REVERT JUMPDEST POP PUSH2 0x232 DUP1 PUSH2 0x20 PUSH1 0x0 CODECOPY PUSH1 0x0 RETURN INVALID PUSH1 0x80 PUSH1 0x40 MSTORE CALLVALUE DUP1 ISZERO PUSH2 0x10 JUMPI PUSH1 0x0 DUP1 REVERT JUMPDEST POP PUSH1 0x4 CALLDATASIZE LT PUSH2 0x36 JUMPI PUSH1 0x0 CALLDATALOAD PUSH1 0xE0 SHR DUP1 PUSH4 0x4869F99D EQ PUSH2 0x3B JUMPI DUP1 PUSH4 0x5F8932FF EQ PUSH2 0x59 JUMPI JUMPDEST PUSH1 0x0 DUP1 REVERT JUMPDEST PUSH2 0x43 PUSH2 0x75 JUMP JUMPDEST PUSH1 0x40 MLOAD PUSH2 0x50 SWAP2 SWAP1 PUSH2 0xD8 JUMP JUMPDEST PUSH1 0x40 MLOAD DUP1 SWAP2 SUB SWAP1 RETURN JUMPDEST PUSH2 0x73 PUSH1 0x4 DUP1 CALLDATASIZE SUB DUP2 ADD SWAP1 PUSH2 0x6E SWAP2 SWAP1 PUSH2 0x124 JUMP JUMPDEST PUSH2 0x7B JUMP JUMPDEST STOP JUMPDEST PUSH1 0x0 SLOAD DUP2 JUMP JUMPDEST PUSH1 0x0 DUP1 DUP2 SWAP1 SSTORE POP PUSH1 0x0 PUSH1 0x1 SWAP1 POP JUMPDEST DUP2 DUP2 GT PUSH2 0xBB JUMPI DUP1 PUSH1 0x0 DUP1 DUP3 DUP3 SLOAD PUSH2 0xA1 SWAP2 SWAP1 PUSH2 0x180 JUMP JUMPDEST SWAP3 POP POP DUP2 SWAP1 SSTORE POP DUP1 DUP1 PUSH2 0xB3 SWAP1 PUSH2 0x1B4 JUMP JUMPDEST SWAP2 POP POP PUSH2 0x89 JUMP JUMPDEST POP POP JUMP JUMPDEST PUSH1 0x0 DUP2 SWAP1 POP SWAP2 SWAP1 POP JUMP JUMPDEST PUSH2 0xD2 DUP2 PUSH2 0xBF JUMP JUMPDEST DUP3 MSTORE POP POP JUMP JUMPDEST PUSH1 0x0 PUSH1 0x20 DUP3 ADD SWAP1 POP PUSH2 0xED PUSH1 0x0 DUP4 ADD DUP5 PUSH2 0xC9 JUMP JUMPDEST SWAP3 SWAP2 POP POP JUMP JUMPDEST PUSH1 0x0 DUP1 REVERT JUMPDEST PUSH2 0x101 DUP2 PUSH2 0xBF JUMP JUMPDEST DUP2 EQ PUSH2 0x10C JUMPI PUSH1 0x0 DUP1 REVERT JUMPDEST POP JUMP JUMPDEST PUSH1 0x0 DUP2 CALLDATALOAD SWAP1 POP PUSH2 0x11E DUP2 PUSH2 0xF8 JUMP JUMPDEST SWAP3 SWAP2 POP POP JUMP JUMPDEST PUSH1 0x0 PUSH1 0x20 DUP3 DUP5 SUB SLT ISZERO PUSH2 0x13A JUMPI PUSH2 0x139 PUSH2 0xF3 JUMP JUMPDEST JUMPDEST PUSH1 0x0 PUSH2 0x148 DUP5 DUP3 DUP6 ADD PUSH2 0x10F JUMP JUMPDEST SWAP2 POP POP SWAP3 SWAP2 POP POP JUMP JUMPDEST PUSH32 0x4E487B7100000000000000000000000000000000000000000000000000000000 PUSH1 0x0 MSTORE PUSH1 0x11 PUSH1 0x4 MSTORE PUSH1 0x24 PUSH1 0x0 REVERT JUMPDEST PUSH1 0x0 PUSH2 0x18B DUP3 PUSH2 0xBF JUMP JUMPDEST SWAP2 POP PUSH2 0x196 DUP4 PUSH2 0xBF JUMP JUMPDEST SWAP3 POP DUP3 DUP3 ADD SWAP1 POP DUP1 DUP3 GT ISZERO PUSH2 0x1AE JUMPI PUSH2 0x1AD PUSH2 0x151 JUMP JUMPDEST JUMPDEST SWAP3 SWAP2 POP POP JUMP JUMPDEST PUSH1 0x0 PUSH2 0x1BF DUP3 PUSH2 0xBF JUMP JUMPDEST SWAP2 POP PUSH32 0xFFFFFFFFFFFFFFFFFFFFFFFFFFFFFFFFFFFFFFFFFFFFFFFFFFFFFFFFFFFFFFFF DUP3 SUB PUSH2 0x1F1 JUMPI PUSH2 0x1F0 PUSH2 0x151 JUMP JUMPDEST JUMPDEST PUSH1 0x1 DUP3 ADD SWAP1 POP SWAP2 SWAP1 POP JUMP INVALID LOG2 PUSH5 0x6970667358 0x22 SLT KECCAK256 0x5D 0xD5 PUSH6 0x95BB8980138B 0xD7 0x2A PUSH13 0x7ED4D6F5BD9D8A3BEC450C6AD9 LOG1 PUSH12 0xCEC436FB8964736F6C634300 ADDMOD SLT STOP CALLER "
				},
				"gasEstimates": {
					"creation": {
						"codeDepositCost": "112400",
						"executionCost": "159",
						"totalCost": "112559"
					},
					"external": {
						"calculateSum(uint256)": "infinite",
						"totalSum()": "2407"
					}
				},
				"methodIdentifiers": {
					"calculateSum(uint256)": "5f8932ff",
					"totalSum()": "4869f99d"
				}
			},
			"storageLayout": {
				"storage": [
					{
						"astId": 3,
						"contract": "foorloopbundle/forsum.sol:ForLoopExample",
						"label": "totalSum",
						"offset": 0,
						"slot": "0",
						"type": "t_uint256"
					}
				],
				"types": {
					"t_uint256": {
						"encoding": "inplace",
						"label": "uint256",
						"numberOfBytes": "32"
					}
				}
			},
			"userdoc": {
				"kind": "user",
				"methods": {},
				"version": 1
			}
		}
	}
}