{
	"data": {
		"bytecode": {
			"linkReferences": {},
			"object": "608060405234801561001057600080fd5b5060405161035b38038061035b83398181016040528101906100329190610084565b8180600081905550508060018190555050506100c4565b600080fd5b6000819050919050565b6100618161004e565b811461006c57600080fd5b50565b60008151905061007e81610058565b92915050565b6000806040838503121561009b5761009a610049565b5b60006100a98582860161006f565b92505060206100ba8582860161006f565b9150509250929050565b610288806100d36000396000f3fe608060405234801561001057600080fd5b506004361061004c5760003560e01c806338a9f7e514610051578063577488651461006f578063cc3438a31461008d578063fd1b5984146100ab575b600080fd5b6100596100c9565b60405161006691906101a5565b60405180910390f35b6100776100e9565b60405161008491906101a5565b60405180910390f35b610095610109565b6040516100a291906101e0565b60405180910390f35b6100b361010f565b6040516100c091906101e0565b60405180910390f35b60606040518060600160405280602b8152602001610228602b9139905090565b60606040518060600160405280602c81526020016101fc602c9139905090565b60015481565b60005481565b600081519050919050565b600082825260208201905092915050565b60005b8381101561014f578082015181840152602081019050610134565b60008484015250505050565b6000601f19601f8301169050919050565b600061017782610115565b6101818185610120565b9350610191818560208601610131565b61019a8161015b565b840191505092915050565b600060208201905081810360008301526101bf818461016c565b905092915050565b6000819050919050565b6101da816101c7565b82525050565b60006020820190506101f560008301846101d1565b9291505056fe5468697320697320612066756e6374696f6e2066726f6d2074686520706172656e7420636f6e74726163742e5468697320697320612066756e6374696f6e2066726f6d20746865206368696c6420636f6e74726163742ea2646970667358221220ce7f44da5a9aa7edb8b57e92d6009033db718e570439630f05bba4ec3832c69364736f6c63430008120033",
			"opcodes": "PUSH1 0x80 PUSH1 0x40 MSTORE CALLVALUE DUP1 ISZERO PUSH2 0x10 JUMPI PUSH1 0x0 DUP1 REVERT JUMPDEST POP PUSH1 0x40 MLOAD PUSH2 0x35B CODESIZE SUB DUP1 PUSH2 0x35B DUP4 CODECOPY DUP2 DUP2 ADD PUSH1 0x40 MSTORE DUP2 ADD SWAP1 PUSH2 0x32 SWAP2 SWAP1 PUSH2 0x84 JUMP JUMPDEST DUP2 DUP1 PUSH1 0x0 DUP2 SWAP1 SSTORE POP POP DUP1 PUSH1 0x1 DUP2 SWAP1 SSTORE POP POP POP PUSH2 0xC4 JUMP JUMPDEST PUSH1 0x0 DUP1 REVERT JUMPDEST PUSH1 0x0 DUP2 SWAP1 POP SWAP2 SWAP1 POP JUMP JUMPDEST PUSH2 0x61 DUP2 PUSH2 0x4E JUMP JUMPDEST DUP2 EQ PUSH2 0x6C JUMPI PUSH1 0x0 DUP1 REVERT JUMPDEST POP JUMP JUMPDEST PUSH1 0x0 DUP2 MLOAD SWAP1 POP PUSH2 0x7E DUP2 PUSH2 0x58 JUMP JUMPDEST SWAP3 SWAP2 POP POP JUMP JUMPDEST PUSH1 0x0 DUP1 PUSH1 0x40 DUP4 DUP6 SUB SLT ISZERO PUSH2 0x9B JUMPI PUSH2 0x9A PUSH2 0x49 JUMP JUMPDEST JUMPDEST PUSH1 0x0 PUSH2 0xA9 DUP6 DUP3 DUP7 ADD PUSH2 0x6F JUMP JUMPDEST SWAP3 POP POP PUSH1 0x20 PUSH2 0xBA DUP6 DUP3 DUP7 ADD PUSH2 0x6F JUMP JUMPDEST SWAP2 POP POP SWAP3 POP SWAP3 SWAP1 POP JUMP JUMPDEST PUSH2 0x288 DUP1 PUSH2 0xD3 PUSH1 0x0 CODECOPY PUSH1 0x0 RETURN INVALID PUSH1 0x80 PUSH1 0x40 MSTORE CALLVALUE DUP1 ISZERO PUSH2 0x10 JUMPI PUSH1 0x0 DUP1 REVERT JUMPDEST POP PUSH1 0x4 CALLDATASIZE LT PUSH2 0x4C JUMPI PUSH1 0x0 CALLDATALOAD PUSH1 0xE0 SHR DUP1 PUSH4 0x38A9F7E5 EQ PUSH2 0x51 JUMPI DUP1 PUSH4 0x57748865 EQ PUSH2 0x6F JUMPI DUP1 PUSH4 0xCC3438A3 EQ PUSH2 0x8D JUMPI DUP1 PUSH4 0xFD1B5984 EQ PUSH2 0xAB JUMPI JUMPDEST PUSH1 0x0 DUP1 REVERT JUMPDEST PUSH2 0x59 PUSH2 0xC9 JUMP JUMPDEST PUSH1 0x40 MLOAD PUSH2 0x66 SWAP2 SWAP1 PUSH2 0x1A5 JUMP JUMPDEST PUSH1 0x40 MLOAD DUP1 SWAP2 SUB SWAP1 RETURN JUMPDEST PUSH2 0x77 PUSH2 0xE9 JUMP JUMPDEST PUSH1 0x40 MLOAD PUSH2 0x84 SWAP2 SWAP1 PUSH2 0x1A5 JUMP JUMPDEST PUSH1 0x40 MLOAD DUP1 SWAP2 SUB SWAP1 RETURN JUMPDEST PUSH2 0x95 PUSH2 0x109 JUMP JUMPDEST PUSH1 0x40 MLOAD PUSH2 0xA2 SWAP2 SWAP1 PUSH2 0x1E0 JUMP JUMPDEST PUSH1 0x40 MLOAD DUP1 SWAP2 SUB SWAP1 RETURN JUMPDEST PUSH2 0xB3 PUSH2 0x10F JUMP JUMPDEST PUSH1 0x40 MLOAD PUSH2 0xC0 SWAP2 SWAP1 PUSH2 0x1E0 JUMP JUMPDEST PUSH1 0x40 MLOAD DUP1 SWAP2 SUB SWAP1 RETURN JUMPDEST PUSH1 0x60 PUSH1 0x40 MLOAD DUP1 PUSH1 0x60 ADD PUSH1 0x40 MSTORE DUP1 PUSH1 0x2B DUP2 MSTORE PUSH1 0x20 ADD PUSH2 0x228 PUSH1 0x2B SWAP2 CODECOPY SWAP1 POP SWAP1 JUMP JUMPDEST PUSH1 0x60 PUSH1 0x40 MLOAD DUP1 PUSH1 0x60 ADD PUSH1 0x40 MSTORE DUP1 PUSH1 0x2C DUP2 MSTORE PUSH1 0x20 ADD PUSH2 0x1FC PUSH1 0x2C SWAP2 CODECOPY SWAP1 POP SWAP1 JUMP JUMPDEST PUSH1 0x1 SLOAD DUP2 JUMP JUMPDEST PUSH1 0x0 SLOAD DUP2 JUMP JUMPDEST PUSH1 0x0 DUP2 MLOAD SWAP1 POP SWAP2 SWAP1 POP JUMP JUMPDEST PUSH1 0x0 DUP3 DUP3 MSTORE PUSH1 0x20 DUP3 ADD SWAP1 POP SWAP3 SWAP2 POP POP JUMP JUMPDEST PUSH1 0x0 JUMPDEST DUP4 DUP2 LT ISZERO PUSH2 0x14F JUMPI DUP1 DUP3 ADD MLOAD DUP2 DUP5 ADD MSTORE PUSH1 0x20 DUP2 ADD SWAP1 POP PUSH2 0x134 JUMP JUMPDEST PUSH1 0x0 DUP5 DUP5 ADD MSTORE POP POP POP POP JUMP JUMPDEST PUSH1 0x0 PUSH1 0x1F NOT PUSH1 0x1F DUP4 ADD AND SWAP1 POP SWAP2 SWAP1 POP JUMP JUMPDEST PUSH1 0x0 PUSH2 0x177 DUP3 PUSH2 0x115 JUMP JUMPDEST PUSH2 0x181 DUP2 DUP6 PUSH2 0x120 JUMP JUMPDEST SWAP4 POP PUSH2 0x191 DUP2 DUP6 PUSH1 0x20 DUP7 ADD PUSH2 0x131 JUMP JUMPDEST PUSH2 0x19A DUP2 PUSH2 0x15B JUMP JUMPDEST DUP5 ADD SWAP2 POP POP SWAP3 SWAP2 POP POP JUMP JUMPDEST PUSH1 0x0 PUSH1 0x20 DUP3 ADD SWAP1 POP DUP2 DUP2 SUB PUSH1 0x0 DUP4 ADD MSTORE PUSH2 0x1BF DUP2 DUP5 PUSH2 0x16C JUMP JUMPDEST SWAP1 POP SWAP3 SWAP2 POP POP JUMP JUMPDEST PUSH1 0x0 DUP2 SWAP1 POP SWAP2 SWAP1 POP JUMP JUMPDEST PUSH2 0x1DA DUP2 PUSH2 0x1C7 JUMP JUMPDEST DUP3 MSTORE POP POP JUMP JUMPDEST PUSH1 0x0 PUSH1 0x20 DUP3 ADD SWAP1 POP PUSH2 0x1F5 PUSH1 0x0 DUP4 ADD DUP5 PUSH2 0x1D1 JUMP JUMPDEST SWAP3 SWAP2 POP POP JUMP INVALID SLOAD PUSH9 0x697320697320612066 PUSH22 0x6E6374696F6E2066726F6D2074686520706172656E74 KECCAK256 PUSH4 0x6F6E7472 PUSH2 0x6374 0x2E SLOAD PUSH9 0x697320697320612066 PUSH22 0x6E6374696F6E2066726F6D20746865206368696C6420 PUSH4 0x6F6E7472 PUSH2 0x6374 0x2E LOG2 PUSH5 0x6970667358 0x22 SLT KECCAK256 0xCE PUSH32 0x44DA5A9AA7EDB8B57E92D6009033DB718E570439630F05BBA4EC3832C6936473 PUSH16 0x6C634300081200330000000000000000 "
		},
		"gasEstimates": {
			"creation": {
				"codeDepositCost": "129600",
				"executionCost": "infinite",
				"totalCost": "infinite"
			},
			"external": {
				"childData()": "2451",
				"childFunction()": "infinite",
				"parentData()": "2473",
				"parentFunction()": "infinite"
			}
		},
		"methodIdentifiers": {
			"childData()": "cc3438a3",
			"childFunction()": "38a9f7e5",
			"parentData()": "fd1b5984",
			"parentFunction()": "57748865"
		}
	},
	"abi": [
		{
			"inputs": [
				{
					"internalType": "uint256",
					"name": "_parentData",
					"type": "uint256"
				},
				{
					"internalType": "uint256",
					"name": "_childData",
					"type": "uint256"
				}
			],
			"stateMutability": "nonpayable",
			"type": "constructor"
		},
		{
			"inputs": [],
			"name": "childData",
			"outputs": [
				{
					"internalType": "uint256",
					"name": "",
					"type": "uint256"
				}
			],
			"stateMutability": "view",
			"type": "function"
		},
		{
			"inputs": [],
			"name": "childFunction",
			"outputs": [
				{
					"internalType": "string",
					"name": "",
					"type": "string"
				}
			],
			"stateMutability": "pure",
			"type": "function"
		},
		{
			"inputs": [],
			"name": "parentData",
			"outputs": [
				{
					"internalType": "uint256",
					"name": "",
					"type": "uint256"
				}
			],
			"stateMutability": "view",
			"type": "function"
		},
		{
			"inputs": [],
			"name": "parentFunction",
			"outputs": [
				{
					"internalType": "string",
					"name": "",
					"type": "string"
				}
			],
			"stateMutability": "pure",
			"type": "function"
		}
	]
}