{
	"data": {
		"bytecode": {
			"linkReferences": {},
			"object": "608060405234801561001057600080fd5b50610b25806100206000396000f3fe608060405234801561001057600080fd5b50600436106100415760003560e01c806306ead22e14610046578063642f916314610078578063ed32a8a1146100aa575b600080fd5b610060600480360381019061005b91906104a5565b6100c6565b60405161006f93929190610571565b60405180910390f35b610092600480360381019061008d91906104a5565b610210565b6040516100a193929190610571565b60405180910390f35b6100c460048036038101906100bf91906106eb565b6103d8565b005b600081815481106100d657600080fd5b90600052602060002090600302016000915090508060000180546100f9906107a5565b80601f0160208091040260200160405190810160405280929190818152602001828054610125906107a5565b80156101725780601f1061014757610100808354040283529160200191610172565b820191906000526020600020905b81548152906001019060200180831161015557829003601f168201915b50505050509080600101549080600201805461018d906107a5565b80601f01602080910402602001604051908101604052809291908181526020018280546101b9906107a5565b80156102065780601f106101db57610100808354040283529160200191610206565b820191906000526020600020905b8154815290600101906020018083116101e957829003601f168201915b5050505050905083565b606060006060600080549050841061025d576040517f08c379a000000000000000000000000000000000000000000000000000000000815260040161025490610822565b60405180910390fd5b600080858154811061027257610271610842565b5b906000526020600020906003020160405180606001604052908160008201805461029b906107a5565b80601f01602080910402602001604051908101604052809291908181526020018280546102c7906107a5565b80156103145780601f106102e957610100808354040283529160200191610314565b820191906000526020600020905b8154815290600101906020018083116102f757829003601f168201915b5050505050815260200160018201548152602001600282018054610337906107a5565b80601f0160208091040260200160405190810160405280929190818152602001828054610363906107a5565b80156103b05780601f10610385576101008083540402835291602001916103b0565b820191906000526020600020905b81548152906001019060200180831161039357829003601f168201915b5050505050815250509050806000015181602001518260400151935093509350509193909250565b6000604051806060016040528085815260200184815260200183815250908060018154018082558091505060019003906000526020600020906003020160009091909190915060008201518160000190816104339190610a1d565b506020820151816001015560408201518160020190816104539190610a1d565b505050505050565b6000604051905090565b600080fd5b600080fd5b6000819050919050565b6104828161046f565b811461048d57600080fd5b50565b60008135905061049f81610479565b92915050565b6000602082840312156104bb576104ba610465565b5b60006104c984828501610490565b91505092915050565b600081519050919050565b600082825260208201905092915050565b60005b8381101561050c5780820151818401526020810190506104f1565b60008484015250505050565b6000601f19601f8301169050919050565b6000610534826104d2565b61053e81856104dd565b935061054e8185602086016104ee565b61055781610518565b840191505092915050565b61056b8161046f565b82525050565b6000606082019050818103600083015261058b8186610529565b905061059a6020830185610562565b81810360408301526105ac8184610529565b9050949350505050565b600080fd5b600080fd5b7f4e487b7100000000000000000000000000000000000000000000000000000000600052604160045260246000fd5b6105f882610518565b810181811067ffffffffffffffff82111715610617576106166105c0565b5b80604052505050565b600061062a61045b565b905061063682826105ef565b919050565b600067ffffffffffffffff821115610656576106556105c0565b5b61065f82610518565b9050602081019050919050565b82818337600083830152505050565b600061068e6106898461063b565b610620565b9050828152602081018484840111156106aa576106a96105bb565b5b6106b584828561066c565b509392505050565b600082601f8301126106d2576106d16105b6565b5b81356106e284826020860161067b565b91505092915050565b60008060006060848603121561070457610703610465565b5b600084013567ffffffffffffffff8111156107225761072161046a565b5b61072e868287016106bd565b935050602061073f86828701610490565b925050604084013567ffffffffffffffff8111156107605761075f61046a565b5b61076c868287016106bd565b9150509250925092565b7f4e487b7100000000000000000000000000000000000000000000000000000000600052602260045260246000fd5b600060028204905060018216806107bd57607f821691505b6020821081036107d0576107cf610776565b5b50919050565b7f496e76616c696420696e64657800000000000000000000000000000000000000600082015250565b600061080c600d836104dd565b9150610817826107d6565b602082019050919050565b6000602082019050818103600083015261083b816107ff565b9050919050565b7f4e487b7100000000000000000000000000000000000000000000000000000000600052603260045260246000fd5b60008190508160005260206000209050919050565b60006020601f8301049050919050565b600082821b905092915050565b6000600883026108d37fffffffffffffffffffffffffffffffffffffffffffffffffffffffffffffffff82610896565b6108dd8683610896565b95508019841693508086168417925050509392505050565b6000819050919050565b600061091a6109156109108461046f565b6108f5565b61046f565b9050919050565b6000819050919050565b610934836108ff565b61094861094082610921565b8484546108a3565b825550505050565b600090565b61095d610950565b61096881848461092b565b505050565b5b8181101561098c57610981600082610955565b60018101905061096e565b5050565b601f8211156109d1576109a281610871565b6109ab84610886565b810160208510156109ba578190505b6109ce6109c685610886565b83018261096d565b50505b505050565b600082821c905092915050565b60006109f4600019846008026109d6565b1980831691505092915050565b6000610a0d83836109e3565b9150826002028217905092915050565b610a26826104d2565b67ffffffffffffffff811115610a3f57610a3e6105c0565b5b610a4982546107a5565b610a54828285610990565b600060209050601f831160018114610a875760008415610a75578287015190505b610a7f8582610a01565b865550610ae7565b601f198416610a9586610871565b60005b82811015610abd57848901518255600182019150602085019450602081019050610a98565b86831015610ada5784890151610ad6601f8916826109e3565b8355505b6001600288020188555050505b50505050505056fea264697066735822122094ca784424cc69738c715149daa910aa326692501d01830b1435bf6330630a2b64736f6c63430008120033",
			"opcodes": "PUSH1 0x80 PUSH1 0x40 MSTORE CALLVALUE DUP1 ISZERO PUSH2 0x10 JUMPI PUSH1 0x0 DUP1 REVERT JUMPDEST POP PUSH2 0xB25 DUP1 PUSH2 0x20 PUSH1 0x0 CODECOPY PUSH1 0x0 RETURN INVALID PUSH1 0x80 PUSH1 0x40 MSTORE CALLVALUE DUP1 ISZERO PUSH2 0x10 JUMPI PUSH1 0x0 DUP1 REVERT JUMPDEST POP PUSH1 0x4 CALLDATASIZE LT PUSH2 0x41 JUMPI PUSH1 0x0 CALLDATALOAD PUSH1 0xE0 SHR DUP1 PUSH4 0x6EAD22E EQ PUSH2 0x46 JUMPI DUP1 PUSH4 0x642F9163 EQ PUSH2 0x78 JUMPI DUP1 PUSH4 0xED32A8A1 EQ PUSH2 0xAA JUMPI JUMPDEST PUSH1 0x0 DUP1 REVERT JUMPDEST PUSH2 0x60 PUSH1 0x4 DUP1 CALLDATASIZE SUB DUP2 ADD SWAP1 PUSH2 0x5B SWAP2 SWAP1 PUSH2 0x4A5 JUMP JUMPDEST PUSH2 0xC6 JUMP JUMPDEST PUSH1 0x40 MLOAD PUSH2 0x6F SWAP4 SWAP3 SWAP2 SWAP1 PUSH2 0x571 JUMP JUMPDEST PUSH1 0x40 MLOAD DUP1 SWAP2 SUB SWAP1 RETURN JUMPDEST PUSH2 0x92 PUSH1 0x4 DUP1 CALLDATASIZE SUB DUP2 ADD SWAP1 PUSH2 0x8D SWAP2 SWAP1 PUSH2 0x4A5 JUMP JUMPDEST PUSH2 0x210 JUMP JUMPDEST PUSH1 0x40 MLOAD PUSH2 0xA1 SWAP4 SWAP3 SWAP2 SWAP1 PUSH2 0x571 JUMP JUMPDEST PUSH1 0x40 MLOAD DUP1 SWAP2 SUB SWAP1 RETURN JUMPDEST PUSH2 0xC4 PUSH1 0x4 DUP1 CALLDATASIZE SUB DUP2 ADD SWAP1 PUSH2 0xBF SWAP2 SWAP1 PUSH2 0x6EB JUMP JUMPDEST PUSH2 0x3D8 JUMP JUMPDEST STOP JUMPDEST PUSH1 0x0 DUP2 DUP2 SLOAD DUP2 LT PUSH2 0xD6 JUMPI PUSH1 0x0 DUP1 REVERT JUMPDEST SWAP1 PUSH1 0x0 MSTORE PUSH1 0x20 PUSH1 0x0 KECCAK256 SWAP1 PUSH1 0x3 MUL ADD PUSH1 0x0 SWAP2 POP SWAP1 POP DUP1 PUSH1 0x0 ADD DUP1 SLOAD PUSH2 0xF9 SWAP1 PUSH2 0x7A5 JUMP JUMPDEST DUP1 PUSH1 0x1F ADD PUSH1 0x20 DUP1 SWAP2 DIV MUL PUSH1 0x20 ADD PUSH1 0x40 MLOAD SWAP1 DUP2 ADD PUSH1 0x40 MSTORE DUP1 SWAP3 SWAP2 SWAP1 DUP2 DUP2 MSTORE PUSH1 0x20 ADD DUP3 DUP1 SLOAD PUSH2 0x125 SWAP1 PUSH2 0x7A5 JUMP JUMPDEST DUP1 ISZERO PUSH2 0x172 JUMPI DUP1 PUSH1 0x1F LT PUSH2 0x147 JUMPI PUSH2 0x100 DUP1 DUP4 SLOAD DIV MUL DUP4 MSTORE SWAP2 PUSH1 0x20 ADD SWAP2 PUSH2 0x172 JUMP JUMPDEST DUP3 ADD SWAP2 SWAP1 PUSH1 0x0 MSTORE PUSH1 0x20 PUSH1 0x0 KECCAK256 SWAP1 JUMPDEST DUP2 SLOAD DUP2 MSTORE SWAP1 PUSH1 0x1 ADD SWAP1 PUSH1 0x20 ADD DUP1 DUP4 GT PUSH2 0x155 JUMPI DUP3 SWAP1 SUB PUSH1 0x1F AND DUP3 ADD SWAP2 JUMPDEST POP POP POP POP POP SWAP1 DUP1 PUSH1 0x1 ADD SLOAD SWAP1 DUP1 PUSH1 0x2 ADD DUP1 SLOAD PUSH2 0x18D SWAP1 PUSH2 0x7A5 JUMP JUMPDEST DUP1 PUSH1 0x1F ADD PUSH1 0x20 DUP1 SWAP2 DIV MUL PUSH1 0x20 ADD PUSH1 0x40 MLOAD SWAP1 DUP2 ADD PUSH1 0x40 MSTORE DUP1 SWAP3 SWAP2 SWAP1 DUP2 DUP2 MSTORE PUSH1 0x20 ADD DUP3 DUP1 SLOAD PUSH2 0x1B9 SWAP1 PUSH2 0x7A5 JUMP JUMPDEST DUP1 ISZERO PUSH2 0x206 JUMPI DUP1 PUSH1 0x1F LT PUSH2 0x1DB JUMPI PUSH2 0x100 DUP1 DUP4 SLOAD DIV MUL DUP4 MSTORE SWAP2 PUSH1 0x20 ADD SWAP2 PUSH2 0x206 JUMP JUMPDEST DUP3 ADD SWAP2 SWAP1 PUSH1 0x0 MSTORE PUSH1 0x20 PUSH1 0x0 KECCAK256 SWAP1 JUMPDEST DUP2 SLOAD DUP2 MSTORE SWAP1 PUSH1 0x1 ADD SWAP1 PUSH1 0x20 ADD DUP1 DUP4 GT PUSH2 0x1E9 JUMPI DUP3 SWAP1 SUB PUSH1 0x1F AND DUP3 ADD SWAP2 JUMPDEST POP POP POP POP POP SWAP1 POP DUP4 JUMP JUMPDEST PUSH1 0x60 PUSH1 0x0 PUSH1 0x60 PUSH1 0x0 DUP1 SLOAD SWAP1 POP DUP5 LT PUSH2 0x25D JUMPI PUSH1 0x40 MLOAD PUSH32 0x8C379A000000000000000000000000000000000000000000000000000000000 DUP2 MSTORE PUSH1 0x4 ADD PUSH2 0x254 SWAP1 PUSH2 0x822 JUMP JUMPDEST PUSH1 0x40 MLOAD DUP1 SWAP2 SUB SWAP1 REVERT JUMPDEST PUSH1 0x0 DUP1 DUP6 DUP2 SLOAD DUP2 LT PUSH2 0x272 JUMPI PUSH2 0x271 PUSH2 0x842 JUMP JUMPDEST JUMPDEST SWAP1 PUSH1 0x0 MSTORE PUSH1 0x20 PUSH1 0x0 KECCAK256 SWAP1 PUSH1 0x3 MUL ADD PUSH1 0x40 MLOAD DUP1 PUSH1 0x60 ADD PUSH1 0x40 MSTORE SWAP1 DUP2 PUSH1 0x0 DUP3 ADD DUP1 SLOAD PUSH2 0x29B SWAP1 PUSH2 0x7A5 JUMP JUMPDEST DUP1 PUSH1 0x1F ADD PUSH1 0x20 DUP1 SWAP2 DIV MUL PUSH1 0x20 ADD PUSH1 0x40 MLOAD SWAP1 DUP2 ADD PUSH1 0x40 MSTORE DUP1 SWAP3 SWAP2 SWAP1 DUP2 DUP2 MSTORE PUSH1 0x20 ADD DUP3 DUP1 SLOAD PUSH2 0x2C7 SWAP1 PUSH2 0x7A5 JUMP JUMPDEST DUP1 ISZERO PUSH2 0x314 JUMPI DUP1 PUSH1 0x1F LT PUSH2 0x2E9 JUMPI PUSH2 0x100 DUP1 DUP4 SLOAD DIV MUL DUP4 MSTORE SWAP2 PUSH1 0x20 ADD SWAP2 PUSH2 0x314 JUMP JUMPDEST DUP3 ADD SWAP2 SWAP1 PUSH1 0x0 MSTORE PUSH1 0x20 PUSH1 0x0 KECCAK256 SWAP1 JUMPDEST DUP2 SLOAD DUP2 MSTORE SWAP1 PUSH1 0x1 ADD SWAP1 PUSH1 0x20 ADD DUP1 DUP4 GT PUSH2 0x2F7 JUMPI DUP3 SWAP1 SUB PUSH1 0x1F AND DUP3 ADD SWAP2 JUMPDEST POP POP POP POP POP DUP2 MSTORE PUSH1 0x20 ADD PUSH1 0x1 DUP3 ADD SLOAD DUP2 MSTORE PUSH1 0x20 ADD PUSH1 0x2 DUP3 ADD DUP1 SLOAD PUSH2 0x337 SWAP1 PUSH2 0x7A5 JUMP JUMPDEST DUP1 PUSH1 0x1F ADD PUSH1 0x20 DUP1 SWAP2 DIV MUL PUSH1 0x20 ADD PUSH1 0x40 MLOAD SWAP1 DUP2 ADD PUSH1 0x40 MSTORE DUP1 SWAP3 SWAP2 SWAP1 DUP2 DUP2 MSTORE PUSH1 0x20 ADD DUP3 DUP1 SLOAD PUSH2 0x363 SWAP1 PUSH2 0x7A5 JUMP JUMPDEST DUP1 ISZERO PUSH2 0x3B0 JUMPI DUP1 PUSH1 0x1F LT PUSH2 0x385 JUMPI PUSH2 0x100 DUP1 DUP4 SLOAD DIV MUL DUP4 MSTORE SWAP2 PUSH1 0x20 ADD SWAP2 PUSH2 0x3B0 JUMP JUMPDEST DUP3 ADD SWAP2 SWAP1 PUSH1 0x0 MSTORE PUSH1 0x20 PUSH1 0x0 KECCAK256 SWAP1 JUMPDEST DUP2 SLOAD DUP2 MSTORE SWAP1 PUSH1 0x1 ADD SWAP1 PUSH1 0x20 ADD DUP1 DUP4 GT PUSH2 0x393 JUMPI DUP3 SWAP1 SUB PUSH1 0x1F AND DUP3 ADD SWAP2 JUMPDEST POP POP POP POP POP DUP2 MSTORE POP POP SWAP1 POP DUP1 PUSH1 0x0 ADD MLOAD DUP2 PUSH1 0x20 ADD MLOAD DUP3 PUSH1 0x40 ADD MLOAD SWAP4 POP SWAP4 POP SWAP4 POP POP SWAP2 SWAP4 SWAP1 SWAP3 POP JUMP JUMPDEST PUSH1 0x0 PUSH1 0x40 MLOAD DUP1 PUSH1 0x60 ADD PUSH1 0x40 MSTORE DUP1 DUP6 DUP2 MSTORE PUSH1 0x20 ADD DUP5 DUP2 MSTORE PUSH1 0x20 ADD DUP4 DUP2 MSTORE POP SWAP1 DUP1 PUSH1 0x1 DUP2 SLOAD ADD DUP1 DUP3 SSTORE DUP1 SWAP2 POP POP PUSH1 0x1 SWAP1 SUB SWAP1 PUSH1 0x0 MSTORE PUSH1 0x20 PUSH1 0x0 KECCAK256 SWAP1 PUSH1 0x3 MUL ADD PUSH1 0x0 SWAP1 SWAP2 SWAP1 SWAP2 SWAP1 SWAP2 POP PUSH1 0x0 DUP3 ADD MLOAD DUP2 PUSH1 0x0 ADD SWAP1 DUP2 PUSH2 0x433 SWAP2 SWAP1 PUSH2 0xA1D JUMP JUMPDEST POP PUSH1 0x20 DUP3 ADD MLOAD DUP2 PUSH1 0x1 ADD SSTORE PUSH1 0x40 DUP3 ADD MLOAD DUP2 PUSH1 0x2 ADD SWAP1 DUP2 PUSH2 0x453 SWAP2 SWAP1 PUSH2 0xA1D JUMP JUMPDEST POP POP POP POP POP POP JUMP JUMPDEST PUSH1 0x0 PUSH1 0x40 MLOAD SWAP1 POP SWAP1 JUMP JUMPDEST PUSH1 0x0 DUP1 REVERT JUMPDEST PUSH1 0x0 DUP1 REVERT JUMPDEST PUSH1 0x0 DUP2 SWAP1 POP SWAP2 SWAP1 POP JUMP JUMPDEST PUSH2 0x482 DUP2 PUSH2 0x46F JUMP JUMPDEST DUP2 EQ PUSH2 0x48D JUMPI PUSH1 0x0 DUP1 REVERT JUMPDEST POP JUMP JUMPDEST PUSH1 0x0 DUP2 CALLDATALOAD SWAP1 POP PUSH2 0x49F DUP2 PUSH2 0x479 JUMP JUMPDEST SWAP3 SWAP2 POP POP JUMP JUMPDEST PUSH1 0x0 PUSH1 0x20 DUP3 DUP5 SUB SLT ISZERO PUSH2 0x4BB JUMPI PUSH2 0x4BA PUSH2 0x465 JUMP JUMPDEST JUMPDEST PUSH1 0x0 PUSH2 0x4C9 DUP5 DUP3 DUP6 ADD PUSH2 0x490 JUMP JUMPDEST SWAP2 POP POP SWAP3 SWAP2 POP POP JUMP JUMPDEST PUSH1 0x0 DUP2 MLOAD SWAP1 POP SWAP2 SWAP1 POP JUMP JUMPDEST PUSH1 0x0 DUP3 DUP3 MSTORE PUSH1 0x20 DUP3 ADD SWAP1 POP SWAP3 SWAP2 POP POP JUMP JUMPDEST PUSH1 0x0 JUMPDEST DUP4 DUP2 LT ISZERO PUSH2 0x50C JUMPI DUP1 DUP3 ADD MLOAD DUP2 DUP5 ADD MSTORE PUSH1 0x20 DUP2 ADD SWAP1 POP PUSH2 0x4F1 JUMP JUMPDEST PUSH1 0x0 DUP5 DUP5 ADD MSTORE POP POP POP POP JUMP JUMPDEST PUSH1 0x0 PUSH1 0x1F NOT PUSH1 0x1F DUP4 ADD AND SWAP1 POP SWAP2 SWAP1 POP JUMP JUMPDEST PUSH1 0x0 PUSH2 0x534 DUP3 PUSH2 0x4D2 JUMP JUMPDEST PUSH2 0x53E DUP2 DUP6 PUSH2 0x4DD JUMP JUMPDEST SWAP4 POP PUSH2 0x54E DUP2 DUP6 PUSH1 0x20 DUP7 ADD PUSH2 0x4EE JUMP JUMPDEST PUSH2 0x557 DUP2 PUSH2 0x518 JUMP JUMPDEST DUP5 ADD SWAP2 POP POP SWAP3 SWAP2 POP POP JUMP JUMPDEST PUSH2 0x56B DUP2 PUSH2 0x46F JUMP JUMPDEST DUP3 MSTORE POP POP JUMP JUMPDEST PUSH1 0x0 PUSH1 0x60 DUP3 ADD SWAP1 POP DUP2 DUP2 SUB PUSH1 0x0 DUP4 ADD MSTORE PUSH2 0x58B DUP2 DUP7 PUSH2 0x529 JUMP JUMPDEST SWAP1 POP PUSH2 0x59A PUSH1 0x20 DUP4 ADD DUP6 PUSH2 0x562 JUMP JUMPDEST DUP2 DUP2 SUB PUSH1 0x40 DUP4 ADD MSTORE PUSH2 0x5AC DUP2 DUP5 PUSH2 0x529 JUMP JUMPDEST SWAP1 POP SWAP5 SWAP4 POP POP POP POP JUMP JUMPDEST PUSH1 0x0 DUP1 REVERT JUMPDEST PUSH1 0x0 DUP1 REVERT JUMPDEST PUSH32 0x4E487B7100000000000000000000000000000000000000000000000000000000 PUSH1 0x0 MSTORE PUSH1 0x41 PUSH1 0x4 MSTORE PUSH1 0x24 PUSH1 0x0 REVERT JUMPDEST PUSH2 0x5F8 DUP3 PUSH2 0x518 JUMP JUMPDEST DUP2 ADD DUP2 DUP2 LT PUSH8 0xFFFFFFFFFFFFFFFF DUP3 GT OR ISZERO PUSH2 0x617 JUMPI PUSH2 0x616 PUSH2 0x5C0 JUMP JUMPDEST JUMPDEST DUP1 PUSH1 0x40 MSTORE POP POP POP JUMP JUMPDEST PUSH1 0x0 PUSH2 0x62A PUSH2 0x45B JUMP JUMPDEST SWAP1 POP PUSH2 0x636 DUP3 DUP3 PUSH2 0x5EF JUMP JUMPDEST SWAP2 SWAP1 POP JUMP JUMPDEST PUSH1 0x0 PUSH8 0xFFFFFFFFFFFFFFFF DUP3 GT ISZERO PUSH2 0x656 JUMPI PUSH2 0x655 PUSH2 0x5C0 JUMP JUMPDEST JUMPDEST PUSH2 0x65F DUP3 PUSH2 0x518 JUMP JUMPDEST SWAP1 POP PUSH1 0x20 DUP2 ADD SWAP1 POP SWAP2 SWAP1 POP JUMP JUMPDEST DUP3 DUP2 DUP4 CALLDATACOPY PUSH1 0x0 DUP4 DUP4 ADD MSTORE POP POP POP JUMP JUMPDEST PUSH1 0x0 PUSH2 0x68E PUSH2 0x689 DUP5 PUSH2 0x63B JUMP JUMPDEST PUSH2 0x620 JUMP JUMPDEST SWAP1 POP DUP3 DUP2 MSTORE PUSH1 0x20 DUP2 ADD DUP5 DUP5 DUP5 ADD GT ISZERO PUSH2 0x6AA JUMPI PUSH2 0x6A9 PUSH2 0x5BB JUMP JUMPDEST JUMPDEST PUSH2 0x6B5 DUP5 DUP3 DUP6 PUSH2 0x66C JUMP JUMPDEST POP SWAP4 SWAP3 POP POP POP JUMP JUMPDEST PUSH1 0x0 DUP3 PUSH1 0x1F DUP4 ADD SLT PUSH2 0x6D2 JUMPI PUSH2 0x6D1 PUSH2 0x5B6 JUMP JUMPDEST JUMPDEST DUP2 CALLDATALOAD PUSH2 0x6E2 DUP5 DUP3 PUSH1 0x20 DUP7 ADD PUSH2 0x67B JUMP JUMPDEST SWAP2 POP POP SWAP3 SWAP2 POP POP JUMP JUMPDEST PUSH1 0x0 DUP1 PUSH1 0x0 PUSH1 0x60 DUP5 DUP7 SUB SLT ISZERO PUSH2 0x704 JUMPI PUSH2 0x703 PUSH2 0x465 JUMP JUMPDEST JUMPDEST PUSH1 0x0 DUP5 ADD CALLDATALOAD PUSH8 0xFFFFFFFFFFFFFFFF DUP2 GT ISZERO PUSH2 0x722 JUMPI PUSH2 0x721 PUSH2 0x46A JUMP JUMPDEST JUMPDEST PUSH2 0x72E DUP7 DUP3 DUP8 ADD PUSH2 0x6BD JUMP JUMPDEST SWAP4 POP POP PUSH1 0x20 PUSH2 0x73F DUP7 DUP3 DUP8 ADD PUSH2 0x490 JUMP JUMPDEST SWAP3 POP POP PUSH1 0x40 DUP5 ADD CALLDATALOAD PUSH8 0xFFFFFFFFFFFFFFFF DUP2 GT ISZERO PUSH2 0x760 JUMPI PUSH2 0x75F PUSH2 0x46A JUMP JUMPDEST JUMPDEST PUSH2 0x76C DUP7 DUP3 DUP8 ADD PUSH2 0x6BD JUMP JUMPDEST SWAP2 POP POP SWAP3 POP SWAP3 POP SWAP3 JUMP JUMPDEST PUSH32 0x4E487B7100000000000000000000000000000000000000000000000000000000 PUSH1 0x0 MSTORE PUSH1 0x22 PUSH1 0x4 MSTORE PUSH1 0x24 PUSH1 0x0 REVERT JUMPDEST PUSH1 0x0 PUSH1 0x2 DUP3 DIV SWAP1 POP PUSH1 0x1 DUP3 AND DUP1 PUSH2 0x7BD JUMPI PUSH1 0x7F DUP3 AND SWAP2 POP JUMPDEST PUSH1 0x20 DUP3 LT DUP2 SUB PUSH2 0x7D0 JUMPI PUSH2 0x7CF PUSH2 0x776 JUMP JUMPDEST JUMPDEST POP SWAP2 SWAP1 POP JUMP JUMPDEST PUSH32 0x496E76616C696420696E64657800000000000000000000000000000000000000 PUSH1 0x0 DUP3 ADD MSTORE POP JUMP JUMPDEST PUSH1 0x0 PUSH2 0x80C PUSH1 0xD DUP4 PUSH2 0x4DD JUMP JUMPDEST SWAP2 POP PUSH2 0x817 DUP3 PUSH2 0x7D6 JUMP JUMPDEST PUSH1 0x20 DUP3 ADD SWAP1 POP SWAP2 SWAP1 POP JUMP JUMPDEST PUSH1 0x0 PUSH1 0x20 DUP3 ADD SWAP1 POP DUP2 DUP2 SUB PUSH1 0x0 DUP4 ADD MSTORE PUSH2 0x83B DUP2 PUSH2 0x7FF JUMP JUMPDEST SWAP1 POP SWAP2 SWAP1 POP JUMP JUMPDEST PUSH32 0x4E487B7100000000000000000000000000000000000000000000000000000000 PUSH1 0x0 MSTORE PUSH1 0x32 PUSH1 0x4 MSTORE PUSH1 0x24 PUSH1 0x0 REVERT JUMPDEST PUSH1 0x0 DUP2 SWAP1 POP DUP2 PUSH1 0x0 MSTORE PUSH1 0x20 PUSH1 0x0 KECCAK256 SWAP1 POP SWAP2 SWAP1 POP JUMP JUMPDEST PUSH1 0x0 PUSH1 0x20 PUSH1 0x1F DUP4 ADD DIV SWAP1 POP SWAP2 SWAP1 POP JUMP JUMPDEST PUSH1 0x0 DUP3 DUP3 SHL SWAP1 POP SWAP3 SWAP2 POP POP JUMP JUMPDEST PUSH1 0x0 PUSH1 0x8 DUP4 MUL PUSH2 0x8D3 PUSH32 0xFFFFFFFFFFFFFFFFFFFFFFFFFFFFFFFFFFFFFFFFFFFFFFFFFFFFFFFFFFFFFFFF DUP3 PUSH2 0x896 JUMP JUMPDEST PUSH2 0x8DD DUP7 DUP4 PUSH2 0x896 JUMP JUMPDEST SWAP6 POP DUP1 NOT DUP5 AND SWAP4 POP DUP1 DUP7 AND DUP5 OR SWAP3 POP POP POP SWAP4 SWAP3 POP POP POP JUMP JUMPDEST PUSH1 0x0 DUP2 SWAP1 POP SWAP2 SWAP1 POP JUMP JUMPDEST PUSH1 0x0 PUSH2 0x91A PUSH2 0x915 PUSH2 0x910 DUP5 PUSH2 0x46F JUMP JUMPDEST PUSH2 0x8F5 JUMP JUMPDEST PUSH2 0x46F JUMP JUMPDEST SWAP1 POP SWAP2 SWAP1 POP JUMP JUMPDEST PUSH1 0x0 DUP2 SWAP1 POP SWAP2 SWAP1 POP JUMP JUMPDEST PUSH2 0x934 DUP4 PUSH2 0x8FF JUMP JUMPDEST PUSH2 0x948 PUSH2 0x940 DUP3 PUSH2 0x921 JUMP JUMPDEST DUP5 DUP5 SLOAD PUSH2 0x8A3 JUMP JUMPDEST DUP3 SSTORE POP POP POP POP JUMP JUMPDEST PUSH1 0x0 SWAP1 JUMP JUMPDEST PUSH2 0x95D PUSH2 0x950 JUMP JUMPDEST PUSH2 0x968 DUP2 DUP5 DUP5 PUSH2 0x92B JUMP JUMPDEST POP POP POP JUMP JUMPDEST JUMPDEST DUP2 DUP2 LT ISZERO PUSH2 0x98C JUMPI PUSH2 0x981 PUSH1 0x0 DUP3 PUSH2 0x955 JUMP JUMPDEST PUSH1 0x1 DUP2 ADD SWAP1 POP PUSH2 0x96E JUMP JUMPDEST POP POP JUMP JUMPDEST PUSH1 0x1F DUP3 GT ISZERO PUSH2 0x9D1 JUMPI PUSH2 0x9A2 DUP2 PUSH2 0x871 JUMP JUMPDEST PUSH2 0x9AB DUP5 PUSH2 0x886 JUMP JUMPDEST DUP2 ADD PUSH1 0x20 DUP6 LT ISZERO PUSH2 0x9BA JUMPI DUP2 SWAP1 POP JUMPDEST PUSH2 0x9CE PUSH2 0x9C6 DUP6 PUSH2 0x886 JUMP JUMPDEST DUP4 ADD DUP3 PUSH2 0x96D JUMP JUMPDEST POP POP JUMPDEST POP POP POP JUMP JUMPDEST PUSH1 0x0 DUP3 DUP3 SHR SWAP1 POP SWAP3 SWAP2 POP POP JUMP JUMPDEST PUSH1 0x0 PUSH2 0x9F4 PUSH1 0x0 NOT DUP5 PUSH1 0x8 MUL PUSH2 0x9D6 JUMP JUMPDEST NOT DUP1 DUP4 AND SWAP2 POP POP SWAP3 SWAP2 POP POP JUMP JUMPDEST PUSH1 0x0 PUSH2 0xA0D DUP4 DUP4 PUSH2 0x9E3 JUMP JUMPDEST SWAP2 POP DUP3 PUSH1 0x2 MUL DUP3 OR SWAP1 POP SWAP3 SWAP2 POP POP JUMP JUMPDEST PUSH2 0xA26 DUP3 PUSH2 0x4D2 JUMP JUMPDEST PUSH8 0xFFFFFFFFFFFFFFFF DUP2 GT ISZERO PUSH2 0xA3F JUMPI PUSH2 0xA3E PUSH2 0x5C0 JUMP JUMPDEST JUMPDEST PUSH2 0xA49 DUP3 SLOAD PUSH2 0x7A5 JUMP JUMPDEST PUSH2 0xA54 DUP3 DUP3 DUP6 PUSH2 0x990 JUMP JUMPDEST PUSH1 0x0 PUSH1 0x20 SWAP1 POP PUSH1 0x1F DUP4 GT PUSH1 0x1 DUP2 EQ PUSH2 0xA87 JUMPI PUSH1 0x0 DUP5 ISZERO PUSH2 0xA75 JUMPI DUP3 DUP8 ADD MLOAD SWAP1 POP JUMPDEST PUSH2 0xA7F DUP6 DUP3 PUSH2 0xA01 JUMP JUMPDEST DUP7 SSTORE POP PUSH2 0xAE7 JUMP JUMPDEST PUSH1 0x1F NOT DUP5 AND PUSH2 0xA95 DUP7 PUSH2 0x871 JUMP JUMPDEST PUSH1 0x0 JUMPDEST DUP3 DUP2 LT ISZERO PUSH2 0xABD JUMPI DUP5 DUP10 ADD MLOAD DUP3 SSTORE PUSH1 0x1 DUP3 ADD SWAP2 POP PUSH1 0x20 DUP6 ADD SWAP5 POP PUSH1 0x20 DUP2 ADD SWAP1 POP PUSH2 0xA98 JUMP JUMPDEST DUP7 DUP4 LT ISZERO PUSH2 0xADA JUMPI DUP5 DUP10 ADD MLOAD PUSH2 0xAD6 PUSH1 0x1F DUP10 AND DUP3 PUSH2 0x9E3 JUMP JUMPDEST DUP4 SSTORE POP JUMPDEST PUSH1 0x1 PUSH1 0x2 DUP9 MUL ADD DUP9 SSTORE POP POP POP JUMPDEST POP POP POP POP POP POP JUMP INVALID LOG2 PUSH5 0x6970667358 0x22 SLT KECCAK256 SWAP5 0xCA PUSH25 0x4424CC69738C715149DAA910AA326692501D01830B1435BF63 ADDRESS PUSH4 0xA2B6473 PUSH16 0x6C634300081200330000000000000000 "
		},
		"gasEstimates": {
			"creation": {
				"codeDepositCost": "570600",
				"executionCost": "606",
				"totalCost": "571206"
			},
			"external": {
				"addStudent(string,uint256,string)": "infinite",
				"getStudent(uint256)": "infinite",
				"students(uint256)": "infinite"
			}
		},
		"methodIdentifiers": {
			"addStudent(string,uint256,string)": "ed32a8a1",
			"getStudent(uint256)": "642f9163",
			"students(uint256)": "06ead22e"
		}
	},
	"abi": [
		{
			"inputs": [
				{
					"internalType": "string",
					"name": "_name",
					"type": "string"
				},
				{
					"internalType": "uint256",
					"name": "_age",
					"type": "uint256"
				},
				{
					"internalType": "string",
					"name": "_major",
					"type": "string"
				}
			],
			"name": "addStudent",
			"outputs": [],
			"stateMutability": "nonpayable",
			"type": "function"
		},
		{
			"inputs": [
				{
					"internalType": "uint256",
					"name": "index",
					"type": "uint256"
				}
			],
			"name": "getStudent",
			"outputs": [
				{
					"internalType": "string",
					"name": "",
					"type": "string"
				},
				{
					"internalType": "uint256",
					"name": "",
					"type": "uint256"
				},
				{
					"internalType": "string",
					"name": "",
					"type": "string"
				}
			],
			"stateMutability": "view",
			"type": "function"
		},
		{
			"inputs": [
				{
					"internalType": "uint256",
					"name": "",
					"type": "uint256"
				}
			],
			"name": "students",
			"outputs": [
				{
					"internalType": "string",
					"name": "name",
					"type": "string"
				},
				{
					"internalType": "uint256",
					"name": "age",
					"type": "uint256"
				},
				{
					"internalType": "string",
					"name": "major",
					"type": "string"
				}
			],
			"stateMutability": "view",
			"type": "function"
		}
	]
}