{
	"data": {
		"bytecode": {
			"linkReferences": {},
			"object": "608060405234801561001057600080fd5b506000600181905550610cfc806100286000396000f3fe608060405234801561001057600080fd5b506004361061004c5760003560e01c806326311949146100515780633ba5c7221461006d5780634c96a0621461008b57806397721f77146100bd575b600080fd5b61006b6004803603810190610066919061053e565b6100d9565b005b6100756102a0565b604051610082919061058d565b60405180910390f35b6100a560048036038101906100a091906105a8565b6102a6565b6040516100b493929190610674565b60405180910390f35b6100d760048036038101906100d291906107e7565b610378565b005b813373ffffffffffffffffffffffffffffffffffffffff1660008083815260200190815260200160002060000160009054906101000a900473ffffffffffffffffffffffffffffffffffffffff1673ffffffffffffffffffffffffffffffffffffffff161461017d576040517f08c379a0000000000000000000000000000000000000000000000000000000008152600401610174906108b5565b60405180910390fd5b600073ffffffffffffffffffffffffffffffffffffffff168273ffffffffffffffffffffffffffffffffffffffff16036101ec576040517f08c379a00000000000000000000000000000000000000000000000000000000081526004016101e390610921565b60405180910390fd5b8160008085815260200190815260200160002060000160006101000a81548173ffffffffffffffffffffffffffffffffffffffff021916908373ffffffffffffffffffffffffffffffffffffffff1602179055508173ffffffffffffffffffffffffffffffffffffffff163373ffffffffffffffffffffffffffffffffffffffff16847f35a9941821d019609f4a4cff4ebb046ed652dc09c2768f7fb14a02ebe0f3b73b60405160405180910390a4505050565b60015481565b60006020528060005260406000206000915090508060000160009054906101000a900473ffffffffffffffffffffffffffffffffffffffff16908060010180546102ef90610970565b80601f016020809104026020016040519081016040528092919081815260200182805461031b90610970565b80156103685780601f1061033d57610100808354040283529160200191610368565b820191906000526020600020905b81548152906001019060200180831161034b57829003601f168201915b5050505050908060020154905083565b6001600081548092919061038b906109d0565b919050555060405180606001604052803373ffffffffffffffffffffffffffffffffffffffff16815260200183815260200182815250600080600154815260200190815260200160002060008201518160000160006101000a81548173ffffffffffffffffffffffffffffffffffffffff021916908373ffffffffffffffffffffffffffffffffffffffff16021790555060208201518160010190816104319190610bc4565b50604082015181600201559050503373ffffffffffffffffffffffffffffffffffffffff166001547f9a12ff4a604a604ecd52d1887543771cca3192e68b897bda8e2ae51587cb2ef0848460405161048a929190610c96565b60405180910390a35050565b6000604051905090565b600080fd5b600080fd5b6000819050919050565b6104bd816104aa565b81146104c857600080fd5b50565b6000813590506104da816104b4565b92915050565b600073ffffffffffffffffffffffffffffffffffffffff82169050919050565b600061050b826104e0565b9050919050565b61051b81610500565b811461052657600080fd5b50565b60008135905061053881610512565b92915050565b60008060408385031215610555576105546104a0565b5b6000610563858286016104cb565b925050602061057485828601610529565b9150509250929050565b610587816104aa565b82525050565b60006020820190506105a2600083018461057e565b92915050565b6000602082840312156105be576105bd6104a0565b5b60006105cc848285016104cb565b91505092915050565b6105de81610500565b82525050565b600081519050919050565b600082825260208201905092915050565b60005b8381101561061e578082015181840152602081019050610603565b60008484015250505050565b6000601f19601f8301169050919050565b6000610646826105e4565b61065081856105ef565b9350610660818560208601610600565b6106698161062a565b840191505092915050565b600060608201905061068960008301866105d5565b818103602083015261069b818561063b565b90506106aa604083018461057e565b949350505050565b600080fd5b600080fd5b7f4e487b7100000000000000000000000000000000000000000000000000000000600052604160045260246000fd5b6106f48261062a565b810181811067ffffffffffffffff82111715610713576107126106bc565b5b80604052505050565b6000610726610496565b905061073282826106eb565b919050565b600067ffffffffffffffff821115610752576107516106bc565b5b61075b8261062a565b9050602081019050919050565b82818337600083830152505050565b600061078a61078584610737565b61071c565b9050828152602081018484840111156107a6576107a56106b7565b5b6107b1848285610768565b509392505050565b600082601f8301126107ce576107cd6106b2565b5b81356107de848260208601610777565b91505092915050565b600080604083850312156107fe576107fd6104a0565b5b600083013567ffffffffffffffff81111561081c5761081b6104a5565b5b610828858286016107b9565b9250506020610839858286016104cb565b9150509250929050565b7f596f7520617265206e6f7420746865206f776e6572206f66207468697320627560008201527f696c64696e672e00000000000000000000000000000000000000000000000000602082015250565b600061089f6027836105ef565b91506108aa82610843565b604082019050919050565b600060208201905081810360008301526108ce81610892565b9050919050565b7f496e76616c6964206e6577206f776e657220616464726573732e000000000000600082015250565b600061090b601a836105ef565b9150610916826108d5565b602082019050919050565b6000602082019050818103600083015261093a816108fe565b9050919050565b7f4e487b7100000000000000000000000000000000000000000000000000000000600052602260045260246000fd5b6000600282049050600182168061098857607f821691505b60208210810361099b5761099a610941565b5b50919050565b7f4e487b7100000000000000000000000000000000000000000000000000000000600052601160045260246000fd5b60006109db826104aa565b91507fffffffffffffffffffffffffffffffffffffffffffffffffffffffffffffffff8203610a0d57610a0c6109a1565b5b600182019050919050565b60008190508160005260206000209050919050565b60006020601f8301049050919050565b600082821b905092915050565b600060088302610a7a7fffffffffffffffffffffffffffffffffffffffffffffffffffffffffffffffff82610a3d565b610a848683610a3d565b95508019841693508086168417925050509392505050565b6000819050919050565b6000610ac1610abc610ab7846104aa565b610a9c565b6104aa565b9050919050565b6000819050919050565b610adb83610aa6565b610aef610ae782610ac8565b848454610a4a565b825550505050565b600090565b610b04610af7565b610b0f818484610ad2565b505050565b5b81811015610b3357610b28600082610afc565b600181019050610b15565b5050565b601f821115610b7857610b4981610a18565b610b5284610a2d565b81016020851015610b61578190505b610b75610b6d85610a2d565b830182610b14565b50505b505050565b600082821c905092915050565b6000610b9b60001984600802610b7d565b1980831691505092915050565b6000610bb48383610b8a565b9150826002028217905092915050565b610bcd826105e4565b67ffffffffffffffff811115610be657610be56106bc565b5b610bf08254610970565b610bfb828285610b37565b600060209050601f831160018114610c2e5760008415610c1c578287015190505b610c268582610ba8565b865550610c8e565b601f198416610c3c86610a18565b60005b82811015610c6457848901518255600182019150602085019450602081019050610c3f565b86831015610c815784890151610c7d601f891682610b8a565b8355505b6001600288020188555050505b505050505050565b60006040820190508181036000830152610cb0818561063b565b9050610cbf602083018461057e565b939250505056fea2646970667358221220181981dbfef6b59755457c6b4b376d634cfe49ba4dd680d72fd2715d683585e664736f6c63430008120033",
			"opcodes": "PUSH1 0x80 PUSH1 0x40 MSTORE CALLVALUE DUP1 ISZERO PUSH2 0x10 JUMPI PUSH1 0x0 DUP1 REVERT JUMPDEST POP PUSH1 0x0 PUSH1 0x1 DUP2 SWAP1 SSTORE POP PUSH2 0xCFC DUP1 PUSH2 0x28 PUSH1 0x0 CODECOPY PUSH1 0x0 RETURN INVALID PUSH1 0x80 PUSH1 0x40 MSTORE CALLVALUE DUP1 ISZERO PUSH2 0x10 JUMPI PUSH1 0x0 DUP1 REVERT JUMPDEST POP PUSH1 0x4 CALLDATASIZE LT PUSH2 0x4C JUMPI PUSH1 0x0 CALLDATALOAD PUSH1 0xE0 SHR DUP1 PUSH4 0x26311949 EQ PUSH2 0x51 JUMPI DUP1 PUSH4 0x3BA5C722 EQ PUSH2 0x6D JUMPI DUP1 PUSH4 0x4C96A062 EQ PUSH2 0x8B JUMPI DUP1 PUSH4 0x97721F77 EQ PUSH2 0xBD JUMPI JUMPDEST PUSH1 0x0 DUP1 REVERT JUMPDEST PUSH2 0x6B PUSH1 0x4 DUP1 CALLDATASIZE SUB DUP2 ADD SWAP1 PUSH2 0x66 SWAP2 SWAP1 PUSH2 0x53E JUMP JUMPDEST PUSH2 0xD9 JUMP JUMPDEST STOP JUMPDEST PUSH2 0x75 PUSH2 0x2A0 JUMP JUMPDEST PUSH1 0x40 MLOAD PUSH2 0x82 SWAP2 SWAP1 PUSH2 0x58D JUMP JUMPDEST PUSH1 0x40 MLOAD DUP1 SWAP2 SUB SWAP1 RETURN JUMPDEST PUSH2 0xA5 PUSH1 0x4 DUP1 CALLDATASIZE SUB DUP2 ADD SWAP1 PUSH2 0xA0 SWAP2 SWAP1 PUSH2 0x5A8 JUMP JUMPDEST PUSH2 0x2A6 JUMP JUMPDEST PUSH1 0x40 MLOAD PUSH2 0xB4 SWAP4 SWAP3 SWAP2 SWAP1 PUSH2 0x674 JUMP JUMPDEST PUSH1 0x40 MLOAD DUP1 SWAP2 SUB SWAP1 RETURN JUMPDEST PUSH2 0xD7 PUSH1 0x4 DUP1 CALLDATASIZE SUB DUP2 ADD SWAP1 PUSH2 0xD2 SWAP2 SWAP1 PUSH2 0x7E7 JUMP JUMPDEST PUSH2 0x378 JUMP JUMPDEST STOP JUMPDEST DUP2 CALLER PUSH20 0xFFFFFFFFFFFFFFFFFFFFFFFFFFFFFFFFFFFFFFFF AND PUSH1 0x0 DUP1 DUP4 DUP2 MSTORE PUSH1 0x20 ADD SWAP1 DUP2 MSTORE PUSH1 0x20 ADD PUSH1 0x0 KECCAK256 PUSH1 0x0 ADD PUSH1 0x0 SWAP1 SLOAD SWAP1 PUSH2 0x100 EXP SWAP1 DIV PUSH20 0xFFFFFFFFFFFFFFFFFFFFFFFFFFFFFFFFFFFFFFFF AND PUSH20 0xFFFFFFFFFFFFFFFFFFFFFFFFFFFFFFFFFFFFFFFF AND EQ PUSH2 0x17D JUMPI PUSH1 0x40 MLOAD PUSH32 0x8C379A000000000000000000000000000000000000000000000000000000000 DUP2 MSTORE PUSH1 0x4 ADD PUSH2 0x174 SWAP1 PUSH2 0x8B5 JUMP JUMPDEST PUSH1 0x40 MLOAD DUP1 SWAP2 SUB SWAP1 REVERT JUMPDEST PUSH1 0x0 PUSH20 0xFFFFFFFFFFFFFFFFFFFFFFFFFFFFFFFFFFFFFFFF AND DUP3 PUSH20 0xFFFFFFFFFFFFFFFFFFFFFFFFFFFFFFFFFFFFFFFF AND SUB PUSH2 0x1EC JUMPI PUSH1 0x40 MLOAD PUSH32 0x8C379A000000000000000000000000000000000000000000000000000000000 DUP2 MSTORE PUSH1 0x4 ADD PUSH2 0x1E3 SWAP1 PUSH2 0x921 JUMP JUMPDEST PUSH1 0x40 MLOAD DUP1 SWAP2 SUB SWAP1 REVERT JUMPDEST DUP2 PUSH1 0x0 DUP1 DUP6 DUP2 MSTORE PUSH1 0x20 ADD SWAP1 DUP2 MSTORE PUSH1 0x20 ADD PUSH1 0x0 KECCAK256 PUSH1 0x0 ADD PUSH1 0x0 PUSH2 0x100 EXP DUP2 SLOAD DUP2 PUSH20 0xFFFFFFFFFFFFFFFFFFFFFFFFFFFFFFFFFFFFFFFF MUL NOT AND SWAP1 DUP4 PUSH20 0xFFFFFFFFFFFFFFFFFFFFFFFFFFFFFFFFFFFFFFFF AND MUL OR SWAP1 SSTORE POP DUP2 PUSH20 0xFFFFFFFFFFFFFFFFFFFFFFFFFFFFFFFFFFFFFFFF AND CALLER PUSH20 0xFFFFFFFFFFFFFFFFFFFFFFFFFFFFFFFFFFFFFFFF AND DUP5 PUSH32 0x35A9941821D019609F4A4CFF4EBB046ED652DC09C2768F7FB14A02EBE0F3B73B PUSH1 0x40 MLOAD PUSH1 0x40 MLOAD DUP1 SWAP2 SUB SWAP1 LOG4 POP POP POP JUMP JUMPDEST PUSH1 0x1 SLOAD DUP2 JUMP JUMPDEST PUSH1 0x0 PUSH1 0x20 MSTORE DUP1 PUSH1 0x0 MSTORE PUSH1 0x40 PUSH1 0x0 KECCAK256 PUSH1 0x0 SWAP2 POP SWAP1 POP DUP1 PUSH1 0x0 ADD PUSH1 0x0 SWAP1 SLOAD SWAP1 PUSH2 0x100 EXP SWAP1 DIV PUSH20 0xFFFFFFFFFFFFFFFFFFFFFFFFFFFFFFFFFFFFFFFF AND SWAP1 DUP1 PUSH1 0x1 ADD DUP1 SLOAD PUSH2 0x2EF SWAP1 PUSH2 0x970 JUMP JUMPDEST DUP1 PUSH1 0x1F ADD PUSH1 0x20 DUP1 SWAP2 DIV MUL PUSH1 0x20 ADD PUSH1 0x40 MLOAD SWAP1 DUP2 ADD PUSH1 0x40 MSTORE DUP1 SWAP3 SWAP2 SWAP1 DUP2 DUP2 MSTORE PUSH1 0x20 ADD DUP3 DUP1 SLOAD PUSH2 0x31B SWAP1 PUSH2 0x970 JUMP JUMPDEST DUP1 ISZERO PUSH2 0x368 JUMPI DUP1 PUSH1 0x1F LT PUSH2 0x33D JUMPI PUSH2 0x100 DUP1 DUP4 SLOAD DIV MUL DUP4 MSTORE SWAP2 PUSH1 0x20 ADD SWAP2 PUSH2 0x368 JUMP JUMPDEST DUP3 ADD SWAP2 SWAP1 PUSH1 0x0 MSTORE PUSH1 0x20 PUSH1 0x0 KECCAK256 SWAP1 JUMPDEST DUP2 SLOAD DUP2 MSTORE SWAP1 PUSH1 0x1 ADD SWAP1 PUSH1 0x20 ADD DUP1 DUP4 GT PUSH2 0x34B JUMPI DUP3 SWAP1 SUB PUSH1 0x1F AND DUP3 ADD SWAP2 JUMPDEST POP POP POP POP POP SWAP1 DUP1 PUSH1 0x2 ADD SLOAD SWAP1 POP DUP4 JUMP JUMPDEST PUSH1 0x1 PUSH1 0x0 DUP2 SLOAD DUP1 SWAP3 SWAP2 SWAP1 PUSH2 0x38B SWAP1 PUSH2 0x9D0 JUMP JUMPDEST SWAP2 SWAP1 POP SSTORE POP PUSH1 0x40 MLOAD DUP1 PUSH1 0x60 ADD PUSH1 0x40 MSTORE DUP1 CALLER PUSH20 0xFFFFFFFFFFFFFFFFFFFFFFFFFFFFFFFFFFFFFFFF AND DUP2 MSTORE PUSH1 0x20 ADD DUP4 DUP2 MSTORE PUSH1 0x20 ADD DUP3 DUP2 MSTORE POP PUSH1 0x0 DUP1 PUSH1 0x1 SLOAD DUP2 MSTORE PUSH1 0x20 ADD SWAP1 DUP2 MSTORE PUSH1 0x20 ADD PUSH1 0x0 KECCAK256 PUSH1 0x0 DUP3 ADD MLOAD DUP2 PUSH1 0x0 ADD PUSH1 0x0 PUSH2 0x100 EXP DUP2 SLOAD DUP2 PUSH20 0xFFFFFFFFFFFFFFFFFFFFFFFFFFFFFFFFFFFFFFFF MUL NOT AND SWAP1 DUP4 PUSH20 0xFFFFFFFFFFFFFFFFFFFFFFFFFFFFFFFFFFFFFFFF AND MUL OR SWAP1 SSTORE POP PUSH1 0x20 DUP3 ADD MLOAD DUP2 PUSH1 0x1 ADD SWAP1 DUP2 PUSH2 0x431 SWAP2 SWAP1 PUSH2 0xBC4 JUMP JUMPDEST POP PUSH1 0x40 DUP3 ADD MLOAD DUP2 PUSH1 0x2 ADD SSTORE SWAP1 POP POP CALLER PUSH20 0xFFFFFFFFFFFFFFFFFFFFFFFFFFFFFFFFFFFFFFFF AND PUSH1 0x1 SLOAD PUSH32 0x9A12FF4A604A604ECD52D1887543771CCA3192E68B897BDA8E2AE51587CB2EF0 DUP5 DUP5 PUSH1 0x40 MLOAD PUSH2 0x48A SWAP3 SWAP2 SWAP1 PUSH2 0xC96 JUMP JUMPDEST PUSH1 0x40 MLOAD DUP1 SWAP2 SUB SWAP1 LOG3 POP POP JUMP JUMPDEST PUSH1 0x0 PUSH1 0x40 MLOAD SWAP1 POP SWAP1 JUMP JUMPDEST PUSH1 0x0 DUP1 REVERT JUMPDEST PUSH1 0x0 DUP1 REVERT JUMPDEST PUSH1 0x0 DUP2 SWAP1 POP SWAP2 SWAP1 POP JUMP JUMPDEST PUSH2 0x4BD DUP2 PUSH2 0x4AA JUMP JUMPDEST DUP2 EQ PUSH2 0x4C8 JUMPI PUSH1 0x0 DUP1 REVERT JUMPDEST POP JUMP JUMPDEST PUSH1 0x0 DUP2 CALLDATALOAD SWAP1 POP PUSH2 0x4DA DUP2 PUSH2 0x4B4 JUMP JUMPDEST SWAP3 SWAP2 POP POP JUMP JUMPDEST PUSH1 0x0 PUSH20 0xFFFFFFFFFFFFFFFFFFFFFFFFFFFFFFFFFFFFFFFF DUP3 AND SWAP1 POP SWAP2 SWAP1 POP JUMP JUMPDEST PUSH1 0x0 PUSH2 0x50B DUP3 PUSH2 0x4E0 JUMP JUMPDEST SWAP1 POP SWAP2 SWAP1 POP JUMP JUMPDEST PUSH2 0x51B DUP2 PUSH2 0x500 JUMP JUMPDEST DUP2 EQ PUSH2 0x526 JUMPI PUSH1 0x0 DUP1 REVERT JUMPDEST POP JUMP JUMPDEST PUSH1 0x0 DUP2 CALLDATALOAD SWAP1 POP PUSH2 0x538 DUP2 PUSH2 0x512 JUMP JUMPDEST SWAP3 SWAP2 POP POP JUMP JUMPDEST PUSH1 0x0 DUP1 PUSH1 0x40 DUP4 DUP6 SUB SLT ISZERO PUSH2 0x555 JUMPI PUSH2 0x554 PUSH2 0x4A0 JUMP JUMPDEST JUMPDEST PUSH1 0x0 PUSH2 0x563 DUP6 DUP3 DUP7 ADD PUSH2 0x4CB JUMP JUMPDEST SWAP3 POP POP PUSH1 0x20 PUSH2 0x574 DUP6 DUP3 DUP7 ADD PUSH2 0x529 JUMP JUMPDEST SWAP2 POP POP SWAP3 POP SWAP3 SWAP1 POP JUMP JUMPDEST PUSH2 0x587 DUP2 PUSH2 0x4AA JUMP JUMPDEST DUP3 MSTORE POP POP JUMP JUMPDEST PUSH1 0x0 PUSH1 0x20 DUP3 ADD SWAP1 POP PUSH2 0x5A2 PUSH1 0x0 DUP4 ADD DUP5 PUSH2 0x57E JUMP JUMPDEST SWAP3 SWAP2 POP POP JUMP JUMPDEST PUSH1 0x0 PUSH1 0x20 DUP3 DUP5 SUB SLT ISZERO PUSH2 0x5BE JUMPI PUSH2 0x5BD PUSH2 0x4A0 JUMP JUMPDEST JUMPDEST PUSH1 0x0 PUSH2 0x5CC DUP5 DUP3 DUP6 ADD PUSH2 0x4CB JUMP JUMPDEST SWAP2 POP POP SWAP3 SWAP2 POP POP JUMP JUMPDEST PUSH2 0x5DE DUP2 PUSH2 0x500 JUMP JUMPDEST DUP3 MSTORE POP POP JUMP JUMPDEST PUSH1 0x0 DUP2 MLOAD SWAP1 POP SWAP2 SWAP1 POP JUMP JUMPDEST PUSH1 0x0 DUP3 DUP3 MSTORE PUSH1 0x20 DUP3 ADD SWAP1 POP SWAP3 SWAP2 POP POP JUMP JUMPDEST PUSH1 0x0 JUMPDEST DUP4 DUP2 LT ISZERO PUSH2 0x61E JUMPI DUP1 DUP3 ADD MLOAD DUP2 DUP5 ADD MSTORE PUSH1 0x20 DUP2 ADD SWAP1 POP PUSH2 0x603 JUMP JUMPDEST PUSH1 0x0 DUP5 DUP5 ADD MSTORE POP POP POP POP JUMP JUMPDEST PUSH1 0x0 PUSH1 0x1F NOT PUSH1 0x1F DUP4 ADD AND SWAP1 POP SWAP2 SWAP1 POP JUMP JUMPDEST PUSH1 0x0 PUSH2 0x646 DUP3 PUSH2 0x5E4 JUMP JUMPDEST PUSH2 0x650 DUP2 DUP6 PUSH2 0x5EF JUMP JUMPDEST SWAP4 POP PUSH2 0x660 DUP2 DUP6 PUSH1 0x20 DUP7 ADD PUSH2 0x600 JUMP JUMPDEST PUSH2 0x669 DUP2 PUSH2 0x62A JUMP JUMPDEST DUP5 ADD SWAP2 POP POP SWAP3 SWAP2 POP POP JUMP JUMPDEST PUSH1 0x0 PUSH1 0x60 DUP3 ADD SWAP1 POP PUSH2 0x689 PUSH1 0x0 DUP4 ADD DUP7 PUSH2 0x5D5 JUMP JUMPDEST DUP2 DUP2 SUB PUSH1 0x20 DUP4 ADD MSTORE PUSH2 0x69B DUP2 DUP6 PUSH2 0x63B JUMP JUMPDEST SWAP1 POP PUSH2 0x6AA PUSH1 0x40 DUP4 ADD DUP5 PUSH2 0x57E JUMP JUMPDEST SWAP5 SWAP4 POP POP POP POP JUMP JUMPDEST PUSH1 0x0 DUP1 REVERT JUMPDEST PUSH1 0x0 DUP1 REVERT JUMPDEST PUSH32 0x4E487B7100000000000000000000000000000000000000000000000000000000 PUSH1 0x0 MSTORE PUSH1 0x41 PUSH1 0x4 MSTORE PUSH1 0x24 PUSH1 0x0 REVERT JUMPDEST PUSH2 0x6F4 DUP3 PUSH2 0x62A JUMP JUMPDEST DUP2 ADD DUP2 DUP2 LT PUSH8 0xFFFFFFFFFFFFFFFF DUP3 GT OR ISZERO PUSH2 0x713 JUMPI PUSH2 0x712 PUSH2 0x6BC JUMP JUMPDEST JUMPDEST DUP1 PUSH1 0x40 MSTORE POP POP POP JUMP JUMPDEST PUSH1 0x0 PUSH2 0x726 PUSH2 0x496 JUMP JUMPDEST SWAP1 POP PUSH2 0x732 DUP3 DUP3 PUSH2 0x6EB JUMP JUMPDEST SWAP2 SWAP1 POP JUMP JUMPDEST PUSH1 0x0 PUSH8 0xFFFFFFFFFFFFFFFF DUP3 GT ISZERO PUSH2 0x752 JUMPI PUSH2 0x751 PUSH2 0x6BC JUMP JUMPDEST JUMPDEST PUSH2 0x75B DUP3 PUSH2 0x62A JUMP JUMPDEST SWAP1 POP PUSH1 0x20 DUP2 ADD SWAP1 POP SWAP2 SWAP1 POP JUMP JUMPDEST DUP3 DUP2 DUP4 CALLDATACOPY PUSH1 0x0 DUP4 DUP4 ADD MSTORE POP POP POP JUMP JUMPDEST PUSH1 0x0 PUSH2 0x78A PUSH2 0x785 DUP5 PUSH2 0x737 JUMP JUMPDEST PUSH2 0x71C JUMP JUMPDEST SWAP1 POP DUP3 DUP2 MSTORE PUSH1 0x20 DUP2 ADD DUP5 DUP5 DUP5 ADD GT ISZERO PUSH2 0x7A6 JUMPI PUSH2 0x7A5 PUSH2 0x6B7 JUMP JUMPDEST JUMPDEST PUSH2 0x7B1 DUP5 DUP3 DUP6 PUSH2 0x768 JUMP JUMPDEST POP SWAP4 SWAP3 POP POP POP JUMP JUMPDEST PUSH1 0x0 DUP3 PUSH1 0x1F DUP4 ADD SLT PUSH2 0x7CE JUMPI PUSH2 0x7CD PUSH2 0x6B2 JUMP JUMPDEST JUMPDEST DUP2 CALLDATALOAD PUSH2 0x7DE DUP5 DUP3 PUSH1 0x20 DUP7 ADD PUSH2 0x777 JUMP JUMPDEST SWAP2 POP POP SWAP3 SWAP2 POP POP JUMP JUMPDEST PUSH1 0x0 DUP1 PUSH1 0x40 DUP4 DUP6 SUB SLT ISZERO PUSH2 0x7FE JUMPI PUSH2 0x7FD PUSH2 0x4A0 JUMP JUMPDEST JUMPDEST PUSH1 0x0 DUP4 ADD CALLDATALOAD PUSH8 0xFFFFFFFFFFFFFFFF DUP2 GT ISZERO PUSH2 0x81C JUMPI PUSH2 0x81B PUSH2 0x4A5 JUMP JUMPDEST JUMPDEST PUSH2 0x828 DUP6 DUP3 DUP7 ADD PUSH2 0x7B9 JUMP JUMPDEST SWAP3 POP POP PUSH1 0x20 PUSH2 0x839 DUP6 DUP3 DUP7 ADD PUSH2 0x4CB JUMP JUMPDEST SWAP2 POP POP SWAP3 POP SWAP3 SWAP1 POP JUMP JUMPDEST PUSH32 0x596F7520617265206E6F7420746865206F776E6572206F662074686973206275 PUSH1 0x0 DUP3 ADD MSTORE PUSH32 0x696C64696E672E00000000000000000000000000000000000000000000000000 PUSH1 0x20 DUP3 ADD MSTORE POP JUMP JUMPDEST PUSH1 0x0 PUSH2 0x89F PUSH1 0x27 DUP4 PUSH2 0x5EF JUMP JUMPDEST SWAP2 POP PUSH2 0x8AA DUP3 PUSH2 0x843 JUMP JUMPDEST PUSH1 0x40 DUP3 ADD SWAP1 POP SWAP2 SWAP1 POP JUMP JUMPDEST PUSH1 0x0 PUSH1 0x20 DUP3 ADD SWAP1 POP DUP2 DUP2 SUB PUSH1 0x0 DUP4 ADD MSTORE PUSH2 0x8CE DUP2 PUSH2 0x892 JUMP JUMPDEST SWAP1 POP SWAP2 SWAP1 POP JUMP JUMPDEST PUSH32 0x496E76616C6964206E6577206F776E657220616464726573732E000000000000 PUSH1 0x0 DUP3 ADD MSTORE POP JUMP JUMPDEST PUSH1 0x0 PUSH2 0x90B PUSH1 0x1A DUP4 PUSH2 0x5EF JUMP JUMPDEST SWAP2 POP PUSH2 0x916 DUP3 PUSH2 0x8D5 JUMP JUMPDEST PUSH1 0x20 DUP3 ADD SWAP1 POP SWAP2 SWAP1 POP JUMP JUMPDEST PUSH1 0x0 PUSH1 0x20 DUP3 ADD SWAP1 POP DUP2 DUP2 SUB PUSH1 0x0 DUP4 ADD MSTORE PUSH2 0x93A DUP2 PUSH2 0x8FE JUMP JUMPDEST SWAP1 POP SWAP2 SWAP1 POP JUMP JUMPDEST PUSH32 0x4E487B7100000000000000000000000000000000000000000000000000000000 PUSH1 0x0 MSTORE PUSH1 0x22 PUSH1 0x4 MSTORE PUSH1 0x24 PUSH1 0x0 REVERT JUMPDEST PUSH1 0x0 PUSH1 0x2 DUP3 DIV SWAP1 POP PUSH1 0x1 DUP3 AND DUP1 PUSH2 0x988 JUMPI PUSH1 0x7F DUP3 AND SWAP2 POP JUMPDEST PUSH1 0x20 DUP3 LT DUP2 SUB PUSH2 0x99B JUMPI PUSH2 0x99A PUSH2 0x941 JUMP JUMPDEST JUMPDEST POP SWAP2 SWAP1 POP JUMP JUMPDEST PUSH32 0x4E487B7100000000000000000000000000000000000000000000000000000000 PUSH1 0x0 MSTORE PUSH1 0x11 PUSH1 0x4 MSTORE PUSH1 0x24 PUSH1 0x0 REVERT JUMPDEST PUSH1 0x0 PUSH2 0x9DB DUP3 PUSH2 0x4AA JUMP JUMPDEST SWAP2 POP PUSH32 0xFFFFFFFFFFFFFFFFFFFFFFFFFFFFFFFFFFFFFFFFFFFFFFFFFFFFFFFFFFFFFFFF DUP3 SUB PUSH2 0xA0D JUMPI PUSH2 0xA0C PUSH2 0x9A1 JUMP JUMPDEST JUMPDEST PUSH1 0x1 DUP3 ADD SWAP1 POP SWAP2 SWAP1 POP JUMP JUMPDEST PUSH1 0x0 DUP2 SWAP1 POP DUP2 PUSH1 0x0 MSTORE PUSH1 0x20 PUSH1 0x0 KECCAK256 SWAP1 POP SWAP2 SWAP1 POP JUMP JUMPDEST PUSH1 0x0 PUSH1 0x20 PUSH1 0x1F DUP4 ADD DIV SWAP1 POP SWAP2 SWAP1 POP JUMP JUMPDEST PUSH1 0x0 DUP3 DUP3 SHL SWAP1 POP SWAP3 SWAP2 POP POP JUMP JUMPDEST PUSH1 0x0 PUSH1 0x8 DUP4 MUL PUSH2 0xA7A PUSH32 0xFFFFFFFFFFFFFFFFFFFFFFFFFFFFFFFFFFFFFFFFFFFFFFFFFFFFFFFFFFFFFFFF DUP3 PUSH2 0xA3D JUMP JUMPDEST PUSH2 0xA84 DUP7 DUP4 PUSH2 0xA3D JUMP JUMPDEST SWAP6 POP DUP1 NOT DUP5 AND SWAP4 POP DUP1 DUP7 AND DUP5 OR SWAP3 POP POP POP SWAP4 SWAP3 POP POP POP JUMP JUMPDEST PUSH1 0x0 DUP2 SWAP1 POP SWAP2 SWAP1 POP JUMP JUMPDEST PUSH1 0x0 PUSH2 0xAC1 PUSH2 0xABC PUSH2 0xAB7 DUP5 PUSH2 0x4AA JUMP JUMPDEST PUSH2 0xA9C JUMP JUMPDEST PUSH2 0x4AA JUMP JUMPDEST SWAP1 POP SWAP2 SWAP1 POP JUMP JUMPDEST PUSH1 0x0 DUP2 SWAP1 POP SWAP2 SWAP1 POP JUMP JUMPDEST PUSH2 0xADB DUP4 PUSH2 0xAA6 JUMP JUMPDEST PUSH2 0xAEF PUSH2 0xAE7 DUP3 PUSH2 0xAC8 JUMP JUMPDEST DUP5 DUP5 SLOAD PUSH2 0xA4A JUMP JUMPDEST DUP3 SSTORE POP POP POP POP JUMP JUMPDEST PUSH1 0x0 SWAP1 JUMP JUMPDEST PUSH2 0xB04 PUSH2 0xAF7 JUMP JUMPDEST PUSH2 0xB0F DUP2 DUP5 DUP5 PUSH2 0xAD2 JUMP JUMPDEST POP POP POP JUMP JUMPDEST JUMPDEST DUP2 DUP2 LT ISZERO PUSH2 0xB33 JUMPI PUSH2 0xB28 PUSH1 0x0 DUP3 PUSH2 0xAFC JUMP JUMPDEST PUSH1 0x1 DUP2 ADD SWAP1 POP PUSH2 0xB15 JUMP JUMPDEST POP POP JUMP JUMPDEST PUSH1 0x1F DUP3 GT ISZERO PUSH2 0xB78 JUMPI PUSH2 0xB49 DUP2 PUSH2 0xA18 JUMP JUMPDEST PUSH2 0xB52 DUP5 PUSH2 0xA2D JUMP JUMPDEST DUP2 ADD PUSH1 0x20 DUP6 LT ISZERO PUSH2 0xB61 JUMPI DUP2 SWAP1 POP JUMPDEST PUSH2 0xB75 PUSH2 0xB6D DUP6 PUSH2 0xA2D JUMP JUMPDEST DUP4 ADD DUP3 PUSH2 0xB14 JUMP JUMPDEST POP POP JUMPDEST POP POP POP JUMP JUMPDEST PUSH1 0x0 DUP3 DUP3 SHR SWAP1 POP SWAP3 SWAP2 POP POP JUMP JUMPDEST PUSH1 0x0 PUSH2 0xB9B PUSH1 0x0 NOT DUP5 PUSH1 0x8 MUL PUSH2 0xB7D JUMP JUMPDEST NOT DUP1 DUP4 AND SWAP2 POP POP SWAP3 SWAP2 POP POP JUMP JUMPDEST PUSH1 0x0 PUSH2 0xBB4 DUP4 DUP4 PUSH2 0xB8A JUMP JUMPDEST SWAP2 POP DUP3 PUSH1 0x2 MUL DUP3 OR SWAP1 POP SWAP3 SWAP2 POP POP JUMP JUMPDEST PUSH2 0xBCD DUP3 PUSH2 0x5E4 JUMP JUMPDEST PUSH8 0xFFFFFFFFFFFFFFFF DUP2 GT ISZERO PUSH2 0xBE6 JUMPI PUSH2 0xBE5 PUSH2 0x6BC JUMP JUMPDEST JUMPDEST PUSH2 0xBF0 DUP3 SLOAD PUSH2 0x970 JUMP JUMPDEST PUSH2 0xBFB DUP3 DUP3 DUP6 PUSH2 0xB37 JUMP JUMPDEST PUSH1 0x0 PUSH1 0x20 SWAP1 POP PUSH1 0x1F DUP4 GT PUSH1 0x1 DUP2 EQ PUSH2 0xC2E JUMPI PUSH1 0x0 DUP5 ISZERO PUSH2 0xC1C JUMPI DUP3 DUP8 ADD MLOAD SWAP1 POP JUMPDEST PUSH2 0xC26 DUP6 DUP3 PUSH2 0xBA8 JUMP JUMPDEST DUP7 SSTORE POP PUSH2 0xC8E JUMP JUMPDEST PUSH1 0x1F NOT DUP5 AND PUSH2 0xC3C DUP7 PUSH2 0xA18 JUMP JUMPDEST PUSH1 0x0 JUMPDEST DUP3 DUP2 LT ISZERO PUSH2 0xC64 JUMPI DUP5 DUP10 ADD MLOAD DUP3 SSTORE PUSH1 0x1 DUP3 ADD SWAP2 POP PUSH1 0x20 DUP6 ADD SWAP5 POP PUSH1 0x20 DUP2 ADD SWAP1 POP PUSH2 0xC3F JUMP JUMPDEST DUP7 DUP4 LT ISZERO PUSH2 0xC81 JUMPI DUP5 DUP10 ADD MLOAD PUSH2 0xC7D PUSH1 0x1F DUP10 AND DUP3 PUSH2 0xB8A JUMP JUMPDEST DUP4 SSTORE POP JUMPDEST PUSH1 0x1 PUSH1 0x2 DUP9 MUL ADD DUP9 SSTORE POP POP POP JUMPDEST POP POP POP POP POP POP JUMP JUMPDEST PUSH1 0x0 PUSH1 0x40 DUP3 ADD SWAP1 POP DUP2 DUP2 SUB PUSH1 0x0 DUP4 ADD MSTORE PUSH2 0xCB0 DUP2 DUP6 PUSH2 0x63B JUMP JUMPDEST SWAP1 POP PUSH2 0xCBF PUSH1 0x20 DUP4 ADD DUP5 PUSH2 0x57E JUMP JUMPDEST SWAP4 SWAP3 POP POP POP JUMP INVALID LOG2 PUSH5 0x6970667358 0x22 SLT KECCAK256 XOR NOT DUP2 0xDB INVALID 0xF6 0xB5 SWAP8 SSTORE GASLIMIT PUSH29 0x6B4B376D634CFE49BA4DD680D72FD2715D683585E664736F6C63430008 SLT STOP CALLER "
		},
		"gasEstimates": {
			"creation": {
				"codeDepositCost": "664800",
				"executionCost": "5710",
				"totalCost": "670510"
			},
			"external": {
				"buildings(uint256)": "infinite",
				"createBuilding(string,uint256)": "infinite",
				"totalBuildings()": "2429",
				"transferBuildingOwnership(uint256,address)": "29173"
			}
		},
		"methodIdentifiers": {
			"buildings(uint256)": "4c96a062",
			"createBuilding(string,uint256)": "97721f77",
			"totalBuildings()": "3ba5c722",
			"transferBuildingOwnership(uint256,address)": "26311949"
		}
	},
	"abi": [
		{
			"inputs": [],
			"stateMutability": "nonpayable",
			"type": "constructor"
		},
		{
			"anonymous": false,
			"inputs": [
				{
					"indexed": true,
					"internalType": "uint256",
					"name": "buildingId",
					"type": "uint256"
				},
				{
					"indexed": false,
					"internalType": "string",
					"name": "name",
					"type": "string"
				},
				{
					"indexed": false,
					"internalType": "uint256",
					"name": "value",
					"type": "uint256"
				},
				{
					"indexed": true,
					"internalType": "address",
					"name": "owner",
					"type": "address"
				}
			],
			"name": "BuildingCreated",
			"type": "event"
		},
		{
			"anonymous": false,
			"inputs": [
				{
					"indexed": true,
					"internalType": "uint256",
					"name": "buildingId",
					"type": "uint256"
				},
				{
					"indexed": true,
					"internalType": "address",
					"name": "previousOwner",
					"type": "address"
				},
				{
					"indexed": true,
					"internalType": "address",
					"name": "newOwner",
					"type": "address"
				}
			],
			"name": "BuildingTransferred",
			"type": "event"
		},
		{
			"inputs": [
				{
					"internalType": "uint256",
					"name": "",
					"type": "uint256"
				}
			],
			"name": "buildings",
			"outputs": [
				{
					"internalType": "address",
					"name": "owner",
					"type": "address"
				},
				{
					"internalType": "string",
					"name": "name",
					"type": "string"
				},
				{
					"internalType": "uint256",
					"name": "value",
					"type": "uint256"
				}
			],
			"stateMutability": "view",
			"type": "function"
		},
		{
			"inputs": [
				{
					"internalType": "string",
					"name": "_name",
					"type": "string"
				},
				{
					"internalType": "uint256",
					"name": "_value",
					"type": "uint256"
				}
			],
			"name": "createBuilding",
			"outputs": [],
			"stateMutability": "nonpayable",
			"type": "function"
		},
		{
			"inputs": [],
			"name": "totalBuildings",
			"outputs": [
				{
					"internalType": "uint256",
					"name": "",
					"type": "uint256"
				}
			],
			"stateMutability": "view",
			"type": "function"
		},
		{
			"inputs": [
				{
					"internalType": "uint256",
					"name": "_buildingId",
					"type": "uint256"
				},
				{
					"internalType": "address",
					"name": "_newOwner",
					"type": "address"
				}
			],
			"name": "transferBuildingOwnership",
			"outputs": [],
			"stateMutability": "nonpayable",
			"type": "function"
		}
	]
}